{
  "contractName": "Attestations",
  "abi": [
    {
      "constant": true,
      "inputs": [],
      "name": "initialized",
      "outputs": [
        {
          "name": "",
          "type": "bool"
        }
      ],
      "payable": false,
      "stateMutability": "view",
      "type": "function"
    },
    {
      "constant": false,
      "inputs": [],
      "name": "renounceOwnership",
      "outputs": [],
      "payable": false,
      "stateMutability": "nonpayable",
      "type": "function"
    },
    {
      "constant": true,
      "inputs": [],
      "name": "registry",
      "outputs": [
        {
          "name": "",
          "type": "address"
        }
      ],
      "payable": false,
      "stateMutability": "view",
      "type": "function"
    },
    {
      "constant": true,
      "inputs": [],
      "name": "owner",
      "outputs": [
        {
          "name": "",
          "type": "address"
        }
      ],
      "payable": false,
      "stateMutability": "view",
      "type": "function"
    },
    {
      "constant": true,
      "inputs": [],
      "name": "isOwner",
      "outputs": [
        {
          "name": "",
          "type": "bool"
        }
      ],
      "payable": false,
      "stateMutability": "view",
      "type": "function"
    },
    {
      "constant": false,
      "inputs": [
        {
          "name": "registryAddress",
          "type": "address"
        }
      ],
      "name": "setRegistry",
      "outputs": [],
      "payable": false,
      "stateMutability": "nonpayable",
      "type": "function"
    },
    {
      "constant": true,
      "inputs": [
        {
          "name": "",
          "type": "address"
        }
      ],
      "name": "attestationRequestFees",
      "outputs": [
        {
          "name": "",
          "type": "uint256"
        }
      ],
      "payable": false,
      "stateMutability": "view",
      "type": "function"
    },
    {
      "constant": true,
      "inputs": [
        {
          "name": "",
          "type": "address"
        },
        {
          "name": "",
          "type": "address"
        }
      ],
      "name": "pendingWithdrawals",
      "outputs": [
        {
          "name": "",
          "type": "uint256"
        }
      ],
      "payable": false,
      "stateMutability": "view",
      "type": "function"
    },
    {
      "constant": true,
      "inputs": [],
      "name": "attestationExpirySeconds",
      "outputs": [
        {
          "name": "",
          "type": "uint256"
        }
      ],
      "payable": false,
      "stateMutability": "view",
      "type": "function"
    },
    {
      "constant": false,
      "inputs": [
        {
          "name": "newOwner",
          "type": "address"
        }
      ],
      "name": "transferOwnership",
      "outputs": [],
      "payable": false,
      "stateMutability": "nonpayable",
      "type": "function"
    },
    {
      "anonymous": false,
      "inputs": [
        {
          "indexed": true,
          "name": "identifier",
          "type": "bytes32"
        },
        {
          "indexed": true,
          "name": "account",
          "type": "address"
        },
        {
          "indexed": false,
          "name": "attestationsRequested",
          "type": "uint256"
        },
        {
          "indexed": false,
          "name": "attestationRequestFeeToken",
          "type": "address"
        }
      ],
      "name": "AttestationsRequested",
      "type": "event"
    },
    {
      "anonymous": false,
      "inputs": [
        {
          "indexed": true,
          "name": "identifier",
          "type": "bytes32"
        },
        {
          "indexed": true,
          "name": "account",
          "type": "address"
        },
        {
          "indexed": true,
          "name": "issuer",
          "type": "address"
        }
      ],
      "name": "AttestationCompleted",
      "type": "event"
    },
    {
      "anonymous": false,
      "inputs": [
        {
          "indexed": true,
          "name": "account",
          "type": "address"
        },
        {
          "indexed": true,
          "name": "token",
          "type": "address"
        },
        {
          "indexed": false,
          "name": "amount",
          "type": "uint256"
        }
      ],
      "name": "Withdrawal",
      "type": "event"
    },
    {
      "anonymous": false,
      "inputs": [
        {
          "indexed": false,
          "name": "value",
          "type": "uint256"
        }
      ],
      "name": "AttestationExpirySecondsSet",
      "type": "event"
    },
    {
      "anonymous": false,
      "inputs": [
        {
          "indexed": true,
          "name": "token",
          "type": "address"
        },
        {
          "indexed": false,
          "name": "value",
          "type": "uint256"
        }
      ],
      "name": "AttestationRequestFeeSet",
      "type": "event"
    },
    {
      "anonymous": false,
      "inputs": [
        {
          "indexed": true,
          "name": "account",
          "type": "address"
        },
        {
          "indexed": false,
          "name": "dataEncryptionKey",
          "type": "bytes"
        }
      ],
      "name": "AccountDataEncryptionKeySet",
      "type": "event"
    },
    {
      "anonymous": false,
      "inputs": [
        {
          "indexed": true,
          "name": "account",
          "type": "address"
        },
        {
          "indexed": false,
          "name": "walletAddress",
          "type": "address"
        }
      ],
      "name": "AccountWalletAddressSet",
      "type": "event"
    },
    {
      "anonymous": false,
      "inputs": [
        {
          "indexed": true,
          "name": "registryAddress",
          "type": "address"
        }
      ],
      "name": "RegistrySet",
      "type": "event"
    },
    {
      "anonymous": false,
      "inputs": [
        {
          "indexed": true,
          "name": "previousOwner",
          "type": "address"
        },
        {
          "indexed": true,
          "name": "newOwner",
          "type": "address"
        }
      ],
      "name": "OwnershipTransferred",
      "type": "event"
    },
    {
      "constant": false,
      "inputs": [
        {
          "name": "registryAddress",
          "type": "address"
        },
        {
          "name": "_attestationExpirySeconds",
          "type": "uint256"
        },
        {
          "name": "attestationRequestFeeTokens",
          "type": "address[]"
        },
        {
          "name": "attestationRequestFeeValues",
          "type": "uint256[]"
        }
      ],
      "name": "initialize",
      "outputs": [],
      "payable": false,
      "stateMutability": "nonpayable",
      "type": "function"
    },
    {
      "constant": false,
      "inputs": [
        {
          "name": "identifier",
          "type": "bytes32"
        },
        {
          "name": "attestationsRequested",
          "type": "uint256"
        },
        {
          "name": "attestationRequestFeeToken",
          "type": "address"
        }
      ],
      "name": "request",
      "outputs": [],
      "payable": false,
      "stateMutability": "nonpayable",
      "type": "function"
    },
    {
      "constant": false,
      "inputs": [
        {
          "name": "identifier",
          "type": "bytes32"
        },
        {
          "name": "encryptedPhone",
          "type": "bytes"
        },
        {
          "name": "issuer",
          "type": "address"
        },
        {
          "name": "sendSms",
          "type": "bool"
        }
      ],
      "name": "reveal",
      "outputs": [],
      "payable": false,
      "stateMutability": "nonpayable",
      "type": "function"
    },
    {
      "constant": false,
      "inputs": [
        {
          "name": "identifier",
          "type": "bytes32"
        },
        {
          "name": "v",
          "type": "uint8"
        },
        {
          "name": "r",
          "type": "bytes32"
        },
        {
          "name": "s",
          "type": "bytes32"
        }
      ],
      "name": "complete",
      "outputs": [],
      "payable": false,
      "stateMutability": "nonpayable",
      "type": "function"
    },
    {
      "constant": false,
      "inputs": [
        {
          "name": "identifier",
          "type": "bytes32"
        },
        {
          "name": "index",
          "type": "uint256"
        }
      ],
      "name": "revoke",
      "outputs": [],
      "payable": false,
      "stateMutability": "nonpayable",
      "type": "function"
    },
    {
      "constant": false,
      "inputs": [
        {
          "name": "token",
          "type": "address"
        }
      ],
      "name": "withdraw",
      "outputs": [],
      "payable": false,
      "stateMutability": "nonpayable",
      "type": "function"
    },
    {
      "constant": false,
      "inputs": [
        {
          "name": "dataEncryptionKey",
          "type": "bytes"
        },
        {
          "name": "walletAddress",
          "type": "address"
        }
      ],
      "name": "setAccount",
      "outputs": [],
      "payable": false,
      "stateMutability": "nonpayable",
      "type": "function"
    },
    {
      "constant": true,
      "inputs": [
        {
          "name": "identifier",
          "type": "bytes32"
        },
        {
          "name": "account",
          "type": "address"
        }
      ],
      "name": "getAttestationIssuers",
      "outputs": [
        {
          "name": "",
          "type": "address[]"
        }
      ],
      "payable": false,
      "stateMutability": "view",
      "type": "function"
    },
    {
      "constant": true,
      "inputs": [
        {
          "name": "identifier",
          "type": "bytes32"
        },
        {
          "name": "account",
          "type": "address"
        }
      ],
      "name": "getAttestationStats",
      "outputs": [
        {
          "name": "",
          "type": "uint64"
        },
        {
          "name": "",
          "type": "uint64"
        }
      ],
      "payable": false,
      "stateMutability": "view",
      "type": "function"
    },
    {
      "constant": true,
      "inputs": [
        {
          "name": "identifiersToLookup",
          "type": "bytes32[]"
        }
      ],
      "name": "batchGetAttestationStats",
      "outputs": [
        {
          "name": "",
          "type": "uint256[]"
        },
        {
          "name": "",
          "type": "address[]"
        },
        {
          "name": "",
          "type": "uint64[]"
        },
        {
          "name": "",
          "type": "uint64[]"
        }
      ],
      "payable": false,
      "stateMutability": "view",
      "type": "function"
    },
    {
      "constant": true,
      "inputs": [
        {
          "name": "identifier",
          "type": "bytes32"
        },
        {
          "name": "account",
          "type": "address"
        },
        {
          "name": "issuer",
          "type": "address"
        }
      ],
      "name": "getAttestationState",
      "outputs": [
        {
          "name": "",
          "type": "uint8"
        },
        {
          "name": "",
          "type": "uint128"
        }
      ],
      "payable": false,
      "stateMutability": "view",
      "type": "function"
    },
    {
      "constant": true,
      "inputs": [
        {
          "name": "account",
          "type": "address"
        }
      ],
      "name": "getAttestationRequestFeeToken",
      "outputs": [
        {
          "name": "",
          "type": "address"
        }
      ],
      "payable": false,
      "stateMutability": "view",
      "type": "function"
    },
    {
      "constant": true,
      "inputs": [
        {
          "name": "account",
          "type": "address"
        }
      ],
      "name": "getMostRecentAttestationRequest",
      "outputs": [
        {
          "name": "",
          "type": "uint256"
        }
      ],
      "payable": false,
      "stateMutability": "view",
      "type": "function"
    },
    {
      "constant": true,
      "inputs": [
        {
          "name": "token",
          "type": "address"
        }
      ],
      "name": "getAttestationRequestFee",
      "outputs": [
        {
          "name": "",
          "type": "uint256"
        }
      ],
      "payable": false,
      "stateMutability": "view",
      "type": "function"
    },
    {
      "constant": false,
      "inputs": [
        {
          "name": "token",
          "type": "address"
        },
        {
          "name": "fee",
          "type": "uint256"
        }
      ],
      "name": "setAttestationRequestFee",
      "outputs": [],
      "payable": false,
      "stateMutability": "nonpayable",
      "type": "function"
    },
    {
      "constant": false,
      "inputs": [
        {
          "name": "_attestationExpirySeconds",
          "type": "uint256"
        }
      ],
      "name": "setAttestationExpirySeconds",
      "outputs": [],
      "payable": false,
      "stateMutability": "nonpayable",
      "type": "function"
    },
    {
      "constant": false,
      "inputs": [
        {
          "name": "dataEncryptionKey",
          "type": "bytes"
        }
      ],
      "name": "setAccountDataEncryptionKey",
      "outputs": [],
      "payable": false,
      "stateMutability": "nonpayable",
      "type": "function"
    },
    {
      "constant": true,
      "inputs": [
        {
          "name": "account",
          "type": "address"
        }
      ],
      "name": "getDataEncryptionKey",
      "outputs": [
        {
          "name": "",
          "type": "bytes"
        }
      ],
      "payable": false,
      "stateMutability": "view",
      "type": "function"
    },
    {
      "constant": false,
      "inputs": [
        {
          "name": "walletAddress",
          "type": "address"
        }
      ],
      "name": "setWalletAddress",
      "outputs": [],
      "payable": false,
      "stateMutability": "nonpayable",
      "type": "function"
    },
    {
      "constant": true,
      "inputs": [
        {
          "name": "account",
          "type": "address"
        }
      ],
      "name": "getWalletAddress",
      "outputs": [
        {
          "name": "",
          "type": "address"
        }
      ],
      "payable": false,
      "stateMutability": "view",
      "type": "function"
    },
    {
      "constant": true,
      "inputs": [
        {
          "name": "identifier",
          "type": "bytes32"
        },
        {
          "name": "account",
          "type": "address"
        },
        {
          "name": "v",
          "type": "uint8"
        },
        {
          "name": "r",
          "type": "bytes32"
        },
        {
          "name": "s",
          "type": "bytes32"
        }
      ],
      "name": "validateAttestationCode",
      "outputs": [
        {
          "name": "",
          "type": "address"
        }
      ],
      "payable": false,
      "stateMutability": "view",
      "type": "function"
    },
    {
      "constant": true,
      "inputs": [
        {
          "name": "identifier",
          "type": "bytes32"
        }
      ],
      "name": "lookupAccountsForIdentifier",
      "outputs": [
        {
          "name": "",
          "type": "address[]"
        }
      ],
      "payable": false,
      "stateMutability": "view",
      "type": "function"
    },
    {
      "constant": true,
      "inputs": [],
      "name": "getValidators",
      "outputs": [
        {
          "name": "",
          "type": "address[]"
        }
      ],
      "payable": false,
      "stateMutability": "view",
      "type": "function"
    }
  ],
  "bytecode": "0x6080604052336000806101000a81548173ffffffffffffffffffffffffffffffffffffffff021916908373ffffffffffffffffffffffffffffffffffffffff1602179055506000809054906101000a900473ffffffffffffffffffffffffffffffffffffffff1673ffffffffffffffffffffffffffffffffffffffff16600073ffffffffffffffffffffffffffffffffffffffff167f8be0079c531659141344cd1fd0a4f28419497f9722a3daafe3b4186f6b6457e060405160405180910390a36146e4806100cf6000396000f3fe608060405234801561001057600080fd5b50600436106101fb5760003560e01c8063977aa9e11161011a578063bb46942f116100ad578063e94dceda1161007c578063e94dceda14610f72578063ea76814e14610fca578063f2fde38b14610fe8578063f3ff26c61461102c578063fb6a2e531461107a576101fb565b8063bb46942f14610e12578063bd93f99814610e4a578063d02e0f0c14610ea2578063e831be5814610efa576101fb565b8063ae32fa0e116100e9578063ae32fa0e14610b94578063b5599cc614610c51578063b60652f814610d04578063b7ab4db514610db3576101fb565b8063977aa9e1146109905780639a19224f14610a14578063a91ee0dc14610b0c578063ac1a386a14610b50576101fb565b80635ce9bc07116101925780637b103999116101615780637b103999146107345780638da5cb5b1461077e5780638f32d59b146107c857806396357c0a146107ea576101fb565b80635ce9bc07146105805780635fc5c9161461062f578063623d5931146106d2578063715018a61461072a576101fb565b80632ad52ed2116101ce5780632ad52ed2146103e45780634d2874751461047d57806351cff8d9146104ab578063596abea5146104ef576101fb565b806303cc1aff146102005780630fe7abab14610283578063158ef93e1461033e5780631fd9afa514610360575b600080fd5b61022c6004803603602081101561021657600080fd5b81019080803590602001909291905050506110c9565b6040518080602001828103825283818151815260200191508051906020019060200280838360005b8381101561026f578082015181840152602081019050610254565b505050509050019250505060405180910390f35b61033c6004803603602081101561029957600080fd5b81019080803590602001906401000000008111156102b657600080fd5b8201836020820111156102c857600080fd5b803590602001918460018302840111640100000000831117156102ea57600080fd5b91908080601f016020809104026020016040519081016040528093929190818152602001838380828437600081840152601f19601f82011690508083019250505050505050919291929050505061116d565b005b6103466112f2565b604051808215151515815260200191505060405180910390f35b6103a26004803603602081101561037657600080fd5b81019080803573ffffffffffffffffffffffffffffffffffffffff169060200190929190505050611305565b604051808273ffffffffffffffffffffffffffffffffffffffff1673ffffffffffffffffffffffffffffffffffffffff16815260200191505060405180910390f35b61047b600480360360408110156103fa57600080fd5b810190808035906020019064010000000081111561041757600080fd5b82018360208201111561042957600080fd5b8035906020019184600183028401116401000000008311171561044b57600080fd5b9091929391929390803573ffffffffffffffffffffffffffffffffffffffff169060200190929190505050611371565b005b6104a96004803603602081101561049357600080fd5b81019080803590602001909291905050506113cc565b005b6104ed600480360360208110156104c157600080fd5b81019080803573ffffffffffffffffffffffffffffffffffffffff169060200190929190505050611477565b005b61053b6004803603604081101561050557600080fd5b8101908080359060200190929190803573ffffffffffffffffffffffffffffffffffffffff16906020019092919050505061178d565b604051808367ffffffffffffffff1667ffffffffffffffff1681526020018267ffffffffffffffff1667ffffffffffffffff1681526020019250505060405180910390f35b6105ed600480360360a081101561059657600080fd5b8101908080359060200190929190803573ffffffffffffffffffffffffffffffffffffffff169060200190929190803560ff1690602001909291908035906020019092919080359060200190929190505050611860565b604051808273ffffffffffffffffffffffffffffffffffffffff1673ffffffffffffffffffffffffffffffffffffffff16815260200191505060405180910390f35b61067b6004803603604081101561064557600080fd5b8101908080359060200190929190803573ffffffffffffffffffffffffffffffffffffffff169060200190929190505050611aef565b6040518080602001828103825283818151815260200191508051906020019060200280838360005b838110156106be5780820151818401526020810190506106a3565b505050509050019250505060405180910390f35b610714600480360360208110156106e857600080fd5b81019080803573ffffffffffffffffffffffffffffffffffffffff169060200190929190505050611bd4565b6040518082815260200191505060405180910390f35b610732611c1d565b005b61073c611ced565b604051808273ffffffffffffffffffffffffffffffffffffffff1673ffffffffffffffffffffffffffffffffffffffff16815260200191505060405180910390f35b610786611d13565b604051808273ffffffffffffffffffffffffffffffffffffffff1673ffffffffffffffffffffffffffffffffffffffff16815260200191505060405180910390f35b6107d0611d3c565b604051808215151515815260200191505060405180910390f35b6108616004803603602081101561080057600080fd5b810190808035906020019064010000000081111561081d57600080fd5b82018360208201111561082f57600080fd5b8035906020019184602083028401116401000000008311171561085157600080fd5b9091929391929390505050611d93565b6040518080602001806020018060200180602001858103855289818151815260200191508051906020019060200280838360005b838110156108b0578082015181840152602081019050610895565b50505050905001858103845288818151815260200191508051906020019060200280838360005b838110156108f25780820151818401526020810190506108d7565b50505050905001858103835287818151815260200191508051906020019060200280838360005b83811015610934578082015181840152602081019050610919565b50505050905001858103825286818151815260200191508051906020019060200280838360005b8381101561097657808201518184015260208101905061095b565b505050509050019850505050505050505060405180910390f35b6109d2600480360360208110156109a657600080fd5b81019080803573ffffffffffffffffffffffffffffffffffffffff169060200190929190505050612202565b604051808273ffffffffffffffffffffffffffffffffffffffff1673ffffffffffffffffffffffffffffffffffffffff16815260200191505060405180910390f35b610b0a60048036036080811015610a2a57600080fd5b81019080803573ffffffffffffffffffffffffffffffffffffffff1690602001909291908035906020019092919080359060200190640100000000811115610a7157600080fd5b820183602082011115610a8357600080fd5b80359060200191846020830284011164010000000083111715610aa557600080fd5b909192939192939080359060200190640100000000811115610ac657600080fd5b820183602082011115610ad857600080fd5b80359060200191846020830284011164010000000083111715610afa57600080fd5b909192939192939050505061226e565b005b610b4e60048036036020811015610b2257600080fd5b81019080803573ffffffffffffffffffffffffffffffffffffffff1690602001909291905050506123a4565b005b610b9260048036036020811015610b6657600080fd5b81019080803573ffffffffffffffffffffffffffffffffffffffff16906020019092919050505061243c565b005b610bd660048036036020811015610baa57600080fd5b81019080803573ffffffffffffffffffffffffffffffffffffffff16906020019092919050505061253a565b6040518080602001828103825283818151815260200191508051906020019080838360005b83811015610c16578082015181840152602081019050610bfb565b50505050905090810190601f168015610c435780820380516001836020036101000a031916815260200191505b509250505060405180910390f35b610cbd60048036036060811015610c6757600080fd5b8101908080359060200190929190803573ffffffffffffffffffffffffffffffffffffffff169060200190929190803573ffffffffffffffffffffffffffffffffffffffff16906020019092919050505061261e565b604051808360ff1660ff168152602001826fffffffffffffffffffffffffffffffff166fffffffffffffffffffffffffffffffff1681526020019250505060405180910390f35b610db160048036036080811015610d1a57600080fd5b810190808035906020019092919080359060200190640100000000811115610d4157600080fd5b820183602082011115610d5357600080fd5b80359060200191846001830284011164010000000083111715610d7557600080fd5b9091929391929390803573ffffffffffffffffffffffffffffffffffffffff16906020019092919080351515906020019092919050505061278f565b005b610dbb612bc1565b6040518080602001828103825283818151815260200191508051906020019060200280838360005b83811015610dfe578082015181840152602081019050610de3565b505050509050019250505060405180910390f35b610e4860048036036040811015610e2857600080fd5b810190808035906020019092919080359060200190929190505050612dec565b005b610e8c60048036036020811015610e6057600080fd5b81019080803573ffffffffffffffffffffffffffffffffffffffff1690602001909291905050506130db565b6040518082815260200191505060405180910390f35b610ef860048036036060811015610eb857600080fd5b810190808035906020019092919080359060200190929190803573ffffffffffffffffffffffffffffffffffffffff1690602001909291905050506130f3565b005b610f5c60048036036040811015610f1057600080fd5b81019080803573ffffffffffffffffffffffffffffffffffffffff169060200190929190803573ffffffffffffffffffffffffffffffffffffffff169060200190929190505050613752565b6040518082815260200191505060405180910390f35b610fb460048036036020811015610f8857600080fd5b81019080803573ffffffffffffffffffffffffffffffffffffffff169060200190929190505050613777565b6040518082815260200191505060405180910390f35b610fd26137e9565b6040518082815260200191505060405180910390f35b61102a60048036036020811015610ffe57600080fd5b81019080803573ffffffffffffffffffffffffffffffffffffffff1690602001909291905050506137ef565b005b6110786004803603604081101561104257600080fd5b81019080803573ffffffffffffffffffffffffffffffffffffffff1690602001909291908035906020019092919050505061380c565b005b6110c76004803603608081101561109057600080fd5b8101908080359060200190929190803560ff169060200190929190803590602001909291908035906020019092919050505061390c565b005b60606002600083815260200190815260200160002060000180548060200260200160405190810160405280929190818152602001828054801561116157602002820191906000526020600020905b8160009054906101000a900473ffffffffffffffffffffffffffffffffffffffff1673ffffffffffffffffffffffffffffffffffffffff1681526020019060010190808311611117575b50505050509050919050565b6021815110156111e5576040517f08c379a00000000000000000000000000000000000000000000000000000000081526004018080602001828103825260208152602001807f6461746120656e6372797074696f6e206b6579206c656e677468203c3d20333281525060200191505060405180910390fd5b80600360003373ffffffffffffffffffffffffffffffffffffffff1673ffffffffffffffffffffffffffffffffffffffff168152602001908152602001600020600201908051906020019061123b929190614440565b503373ffffffffffffffffffffffffffffffffffffffff167f43fdefe0a824cb0e3bbaf9c4bc97669187996136fe9282382baf10787f0d808d826040518080602001828103825283818151815260200191508051906020019080838360005b838110156112b557808201518184015260208101905061129a565b50505050905090810190601f1680156112e25780820380516001836020036101000a031916815260200191505b509250505060405180910390a250565b600060149054906101000a900460ff1681565b6000600360008373ffffffffffffffffffffffffffffffffffffffff1673ffffffffffffffffffffffffffffffffffffffff168152602001908152602001600020600001600c9054906101000a900473ffffffffffffffffffffffffffffffffffffffff169050919050565b6113be83838080601f016020809104026020016040519081016040528093929190818152602001838380828437600081840152601f19601f8201169050808301925050505050505061116d565b6113c78161243c565b505050565b6113d4611d3c565b6113dd57600080fd5b60008111611436576040517f08c379a00000000000000000000000000000000000000000000000000000000081526004018080602001828103825260318152602001806146006031913960400191505060405180910390fd5b806004819055507fa63286d025b8b88a5d755107a1900489d87e03c20c15efa4a835c53114119ae6816040518082815260200191505060405180910390a150565b6000600660008373ffffffffffffffffffffffffffffffffffffffff1673ffffffffffffffffffffffffffffffffffffffff16815260200190815260200160002060003373ffffffffffffffffffffffffffffffffffffffff1673ffffffffffffffffffffffffffffffffffffffff1681526020019081526020016000205490506000811161156e576040517f08c379a00000000000000000000000000000000000000000000000000000000081526004018080602001828103825260178152602001807f76616c756520776173206e656761746976652f7a65726f00000000000000000081525060200191505060405180910390fd5b6000600660008473ffffffffffffffffffffffffffffffffffffffff1673ffffffffffffffffffffffffffffffffffffffff16815260200190815260200160002060003373ffffffffffffffffffffffffffffffffffffffff1673ffffffffffffffffffffffffffffffffffffffff168152602001908152602001600020819055508173ffffffffffffffffffffffffffffffffffffffff1663a9059cbb33836040518363ffffffff1660e01b8152600401808373ffffffffffffffffffffffffffffffffffffffff1673ffffffffffffffffffffffffffffffffffffffff16815260200182815260200192505050602060405180830381600087803b15801561167757600080fd5b505af115801561168b573d6000803e3d6000fd5b505050506040513d60208110156116a157600080fd5b8101908080519060200190929190505050611724576040517f08c379a00000000000000000000000000000000000000000000000000000000081526004018080602001828103825260158152602001807f746f6b656e207472616e73666572206661696c6564000000000000000000000081525060200191505060405180910390fd5b8173ffffffffffffffffffffffffffffffffffffffff163373ffffffffffffffffffffffffffffffffffffffff167f2717ead6b9200dd235aad468c9809ea400fe33ac69b5bfaa6d3e90fc922b6398836040518082815260200191505060405180910390a35050565b6000806002600085815260200190815260200160002060010160008473ffffffffffffffffffffffffffffffffffffffff1673ffffffffffffffffffffffffffffffffffffffff16815260200190815260200160002060000160009054906101000a900467ffffffffffffffff166002600086815260200190815260200160002060010160008573ffffffffffffffffffffffffffffffffffffffff1673ffffffffffffffffffffffffffffffffffffffff16815260200190815260200160002060010180549050915091509250929050565b6000808686604051602001808381526020018273ffffffffffffffffffffffffffffffffffffffff1673ffffffffffffffffffffffffffffffffffffffff1660601b815260140192505050604051602081830303815290604052805190602001209050600060018287878760405160008152602001604052604051808581526020018460ff1660ff1681526020018381526020018281526020019450505050506020604051602081039080840390855afa158015611922573d6000803e3d6000fd5b5050506020604051035190506000600260008a815260200190815260200160002060010160008973ffffffffffffffffffffffffffffffffffffffff1673ffffffffffffffffffffffffffffffffffffffff16815260200190815260200160002060020160008373ffffffffffffffffffffffffffffffffffffffff1673ffffffffffffffffffffffffffffffffffffffff1681526020019081526020016000209050600160028111156119d257fe5b8160000160009054906101000a900460ff1660028111156119ef57fe5b14611a45576040517f08c379a000000000000000000000000000000000000000000000000000000000815260040180806020018281038252603b8152602001806145c5603b913960400191505060405180910390fd5b611a6e8160000160019054906101000a90046fffffffffffffffffffffffffffffffff16613dc7565b611ae0576040517f08c379a000000000000000000000000000000000000000000000000000000000815260040180806020018281038252601d8152602001807f4174746573746174696f6e20726571756573742074696d6564206f757400000081525060200191505060405180910390fd5b81935050505095945050505050565b60606002600084815260200190815260200160002060010160008373ffffffffffffffffffffffffffffffffffffffff1673ffffffffffffffffffffffffffffffffffffffff168152602001908152602001600020600101805480602002602001604051908101604052809291908181526020018280548015611bc757602002820191906000526020600020905b8160009054906101000a900473ffffffffffffffffffffffffffffffffffffffff1673ffffffffffffffffffffffffffffffffffffffff1681526020019060010190808311611b7d575b5050505050905092915050565b6000600560008373ffffffffffffffffffffffffffffffffffffffff1673ffffffffffffffffffffffffffffffffffffffff168152602001908152602001600020549050919050565b611c25611d3c565b611c2e57600080fd5b600073ffffffffffffffffffffffffffffffffffffffff166000809054906101000a900473ffffffffffffffffffffffffffffffffffffffff1673ffffffffffffffffffffffffffffffffffffffff167f8be0079c531659141344cd1fd0a4f28419497f9722a3daafe3b4186f6b6457e060405160405180910390a360008060006101000a81548173ffffffffffffffffffffffffffffffffffffffff021916908373ffffffffffffffffffffffffffffffffffffffff160217905550565b600160009054906101000a900473ffffffffffffffffffffffffffffffffffffffff1681565b60008060009054906101000a900473ffffffffffffffffffffffffffffffffffffffff16905090565b60008060009054906101000a900473ffffffffffffffffffffffffffffffffffffffff1673ffffffffffffffffffffffffffffffffffffffff163373ffffffffffffffffffffffffffffffffffffffff1614905090565b60608060608060008686905011611df5576040517f08c379a000000000000000000000000000000000000000000000000000000000815260040180806020018281038252602881526020018061465c6028913960400191505060405180910390fd5b606080611e42888880806020026020016040519081016040528093929190818152602001838360200280828437600081840152601f19601f82011690508083019250505050505050613df9565b809250819350505060608151604051908082528060200260200182016040528015611e7c5781602001602082028038833980820191505090505b50905060608251604051908082528060200260200182016040528015611eb15781602001602082028038833980820191505090505b509050600080905060008090505b8b8b90508110156121e7576060600260008e8e85818110611edc57fe5b905060200201358152602001908152602001600020600001805480602002602001604051908101604052809291908181526020018280548015611f7457602002820191906000526020600020905b8160009054906101000a900473ffffffffffffffffffffffffffffffffffffffff1673ffffffffffffffffffffffffffffffffffffffff1681526020019060010190808311611f2a575b5050505050905060008090505b878381518110611f8d57fe5b60200260200101518110156121d85760036000838381518110611fac57fe5b602002602001015173ffffffffffffffffffffffffffffffffffffffff1673ffffffffffffffffffffffffffffffffffffffff168152602001908152602001600020600001600c9054906101000a900473ffffffffffffffffffffffffffffffffffffffff1687858151811061201e57fe5b602002602001019073ffffffffffffffffffffffffffffffffffffffff16908173ffffffffffffffffffffffffffffffffffffffff1681525050600260008f8f8681811061206857fe5b905060200201358152602001908152602001600020600101600083838151811061208e57fe5b602002602001015173ffffffffffffffffffffffffffffffffffffffff1673ffffffffffffffffffffffffffffffffffffffff16815260200190815260200160002060000160009054906101000a900467ffffffffffffffff168685815181106120f457fe5b602002602001019067ffffffffffffffff16908167ffffffffffffffff1681525050600260008f8f8681811061212657fe5b905060200201358152602001908152602001600020600101600083838151811061214c57fe5b602002602001015173ffffffffffffffffffffffffffffffffffffffff1673ffffffffffffffffffffffffffffffffffffffff168152602001908152602001600020600101805490508585815181106121a157fe5b602002602001019067ffffffffffffffff16908167ffffffffffffffff168152505083806001019450508080600101915050611f81565b50508080600101915050611ebf565b50848484849850985098509850505050505092959194509250565b6000600360008373ffffffffffffffffffffffffffffffffffffffff1673ffffffffffffffffffffffffffffffffffffffff16815260200190815260200160002060010160009054906101000a900473ffffffffffffffffffffffffffffffffffffffff169050919050565b600060149054906101000a900460ff161561228857600080fd5b6001600060146101000a81548160ff0219169083151502179055506122ac33613f3c565b6122b5866123a4565b6122be856113cc565b6000848490501180156122d657508181905084849050145b61232b576040517f08c379a00000000000000000000000000000000000000000000000000000000081526004018080602001828103825260358152602001806146846035913960400191505060405180910390fd5b60008090505b8484905081101561239b5761238085858381811061234b57fe5b9050602002013573ffffffffffffffffffffffffffffffffffffffff1684848481811061237457fe5b9050602002013561380c565b61239460018261403490919063ffffffff16565b9050612331565b50505050505050565b6123ac611d3c565b6123b557600080fd5b80600160006101000a81548173ffffffffffffffffffffffffffffffffffffffff021916908373ffffffffffffffffffffffffffffffffffffffff1602179055508073ffffffffffffffffffffffffffffffffffffffff167f27fe5f0c1c3b1ed427cc63d0f05759ffdecf9aec9e18d31ef366fc8a6cb5dc3b60405160405180910390a250565b80600360003373ffffffffffffffffffffffffffffffffffffffff1673ffffffffffffffffffffffffffffffffffffffff168152602001908152602001600020600001600c6101000a81548173ffffffffffffffffffffffffffffffffffffffff021916908373ffffffffffffffffffffffffffffffffffffffff1602179055503373ffffffffffffffffffffffffffffffffffffffff167ff81d74398fd47e35c36b714019df15f200f623dde569b5b531d6a0b4da5c5f2682604051808273ffffffffffffffffffffffffffffffffffffffff1673ffffffffffffffffffffffffffffffffffffffff16815260200191505060405180910390a250565b6060600360008373ffffffffffffffffffffffffffffffffffffffff1673ffffffffffffffffffffffffffffffffffffffff1681526020019081526020016000206002018054600181600116156101000203166002900480601f0160208091040260200160405190810160405280929190818152602001828054600181600116156101000203166002900480156126125780601f106125e757610100808354040283529160200191612612565b820191906000526020600020905b8154815290600101906020018083116125f557829003601f168201915b50505050509050919050565b6000806002600086815260200190815260200160002060010160008573ffffffffffffffffffffffffffffffffffffffff1673ffffffffffffffffffffffffffffffffffffffff16815260200190815260200160002060020160008473ffffffffffffffffffffffffffffffffffffffff1673ffffffffffffffffffffffffffffffffffffffff16815260200190815260200160002060000160009054906101000a900460ff1660028111156126d057fe5b6002600087815260200190815260200160002060010160008673ffffffffffffffffffffffffffffffffffffffff1673ffffffffffffffffffffffffffffffffffffffff16815260200190815260200160002060020160008573ffffffffffffffffffffffffffffffffffffffff1673ffffffffffffffffffffffffffffffffffffffff16815260200190815260200160002060000160019054906101000a90046fffffffffffffffffffffffffffffffff1691509150935093915050565b60006002600087815260200190815260200160002060010160003373ffffffffffffffffffffffffffffffffffffffff1673ffffffffffffffffffffffffffffffffffffffff16815260200190815260200160002060020160008473ffffffffffffffffffffffffffffffffffffffff1673ffffffffffffffffffffffffffffffffffffffff16815260200190815260200160002090506001600281111561283357fe5b8160000160009054906101000a900460ff16600281111561285057fe5b146128c3576040517f08c379a000000000000000000000000000000000000000000000000000000000815260040180806020018281038252601d8152602001807f4174746573746174696f6e206973206e6f7420696e636f6d706c65746500000081525060200191505060405180910390fd5b6128ec8160000160019054906101000a90046fffffffffffffffffffffffffffffffff16613dc7565b61295e576040517f08c379a000000000000000000000000000000000000000000000000000000000815260040180806020018281038252601d8152602001807f4174746573746174696f6e20726571756573742074696d6564206f757400000081525060200191505060405180910390fd5b8115612bb957600060ff73ffffffffffffffffffffffffffffffffffffffff1660005a90898a33604051602001808381526020018273ffffffffffffffffffffffffffffffffffffffff1673ffffffffffffffffffffffffffffffffffffffff1660601b8152601401925050506040516020818303038152906040528051906020012033898c8c604051602001808781526020018681526020018573ffffffffffffffffffffffffffffffffffffffff1673ffffffffffffffffffffffffffffffffffffffff1681526020018473ffffffffffffffffffffffffffffffffffffffff1673ffffffffffffffffffffffffffffffffffffffff168152602001806020018281038252848482818152602001925080828437600081840152601f19601f8201169050808301925050509750505050505050506040516020818303038152906040526040518082805190602001908083835b60208310612ad65780518252602082019150602081019050602083039250612ab3565b6001836020036101000a038019825116818451168082178552505050505050905001915050600060405180830381858888f193505050503d8060008114612b39576040519150601f19603f3d011682016040523d82523d6000602084013e612b3e565b606091505b50508091505080612bb7576040517f08c379a00000000000000000000000000000000000000000000000000000000081526004018080602001828103825260128152602001807f73656e64696e6720534d53206661696c6564000000000000000000000000000081525060200191505060405180910390fd5b505b505050505050565b60606000600160009054906101000a900473ffffffffffffffffffffffffffffffffffffffff1673ffffffffffffffffffffffffffffffffffffffff16632906e3d56040518060400160405280600a81526020017f56616c696461746f7273000000000000000000000000000000000000000000008152506040518263ffffffff1660e01b81526004018080602001828103825283818151815260200191508051906020019080838360005b83811015612c88578082015181840152602081019050612c6d565b50505050905090810190601f168015612cb55780820380516001836020036101000a031916815260200191505b509250505060206040518083038186803b158015612cd257600080fd5b505afa158015612ce6573d6000803e3d6000fd5b505050506040513d6020811015612cfc57600080fd5b810190808051906020019092919050505090508073ffffffffffffffffffffffffffffffffffffffff1663b7ab4db56040518163ffffffff1660e01b815260040160006040518083038186803b158015612d5557600080fd5b505afa158015612d69573d6000803e3d6000fd5b505050506040513d6000823e3d601f19601f820116820180604052506020811015612d9357600080fd5b810190808051640100000000811115612dab57600080fd5b82810190506020810184811115612dc157600080fd5b8151856020820283011164010000000082111715612dde57600080fd5b505092919050505091505090565b600060026000848152602001908152602001600020600001805490509050808210612e7f576040517f08c379a00000000000000000000000000000000000000000000000000000000081526004018080602001828103825260108152602001807f496e64657820697320696e76616c69640000000000000000000000000000000081525060200191505060405180910390fd5b600260008481526020019081526020016000206000018281548110612ea057fe5b9060005260206000200160009054906101000a900473ffffffffffffffffffffffffffffffffffffffff1673ffffffffffffffffffffffffffffffffffffffff163373ffffffffffffffffffffffffffffffffffffffff1614612f6b576040517f08c379a000000000000000000000000000000000000000000000000000000000815260040180806020018281038252601f8152602001807f496e64657820646f6573206e6f74206d61746368206d73672e73656e6465720081525060200191505060405180910390fd5b6000612f8160018361405390919063ffffffff16565b905080831461304057600260008581526020019081526020016000206000018181548110612fab57fe5b9060005260206000200160009054906101000a900473ffffffffffffffffffffffffffffffffffffffff16600260008681526020019081526020016000206000018481548110612ff757fe5b9060005260206000200160006101000a81548173ffffffffffffffffffffffffffffffffffffffff021916908373ffffffffffffffffffffffffffffffffffffffff1602179055505b600060026000868152602001908152602001600020600001828154811061306357fe5b9060005260206000200160006101000a81548173ffffffffffffffffffffffffffffffffffffffff021916908373ffffffffffffffffffffffffffffffffffffffff160217905550600260008581526020019081526020016000206000018054809190600190036130d491906144c0565b5050505050565b60056020528060005260406000206000915090505481565b6000600560008373ffffffffffffffffffffffffffffffffffffffff1673ffffffffffffffffffffffffffffffffffffffff168152602001908152602001600020541161318b576040517f08c379a00000000000000000000000000000000000000000000000000000000081526004018080602001828103825260228152602001806145126022913960400191505060405180910390fd5b8073ffffffffffffffffffffffffffffffffffffffff166323b872dd33306131fb86600560008873ffffffffffffffffffffffffffffffffffffffff1673ffffffffffffffffffffffffffffffffffffffff1681526020019081526020016000205461407390919063ffffffff16565b6040518463ffffffff1660e01b8152600401808473ffffffffffffffffffffffffffffffffffffffff1673ffffffffffffffffffffffffffffffffffffffff1681526020018373ffffffffffffffffffffffffffffffffffffffff1673ffffffffffffffffffffffffffffffffffffffff1681526020018281526020019350505050602060405180830381600087803b15801561329757600080fd5b505af11580156132ab573d6000803e3d6000fd5b505050506040513d60208110156132c157600080fd5b8101908080519060200190929190505050613327576040517f08c379a000000000000000000000000000000000000000000000000000000000815260040180806020018281038252602b815260200180614631602b913960400191505060405180910390fd5b60008211613380576040517f08c379a000000000000000000000000000000000000000000000000000000000815260040180806020018281038252602a81526020018061459b602a913960400191505060405180910390fd5b600073ffffffffffffffffffffffffffffffffffffffff16600360003373ffffffffffffffffffffffffffffffffffffffff1673ffffffffffffffffffffffffffffffffffffffff16815260200190815260200160002060010160009054906101000a900473ffffffffffffffffffffffffffffffffffffffff1673ffffffffffffffffffffffffffffffffffffffff161461357657613487600360003373ffffffffffffffffffffffffffffffffffffffff1673ffffffffffffffffffffffffffffffffffffffff16815260200190815260200160002060000160009054906101000a90046bffffffffffffffffffffffff166bffffffffffffffffffffffff16613dc7565b158061352057508073ffffffffffffffffffffffffffffffffffffffff16600360003373ffffffffffffffffffffffffffffffffffffffff1673ffffffffffffffffffffffffffffffffffffffff16815260200190815260200160002060010160009054906101000a900473ffffffffffffffffffffffffffffffffffffffff1673ffffffffffffffffffffffffffffffffffffffff16145b613575576040517f08c379a000000000000000000000000000000000000000000000000000000000815260040180806020018281038252603f815260200180614534603f913960400191505060405180910390fd5b5b42600360003373ffffffffffffffffffffffffffffffffffffffff1673ffffffffffffffffffffffffffffffffffffffff16815260200190815260200160002060000160006101000a8154816bffffffffffffffffffffffff02191690836bffffffffffffffffffffffff16021790555080600360003373ffffffffffffffffffffffffffffffffffffffff1673ffffffffffffffffffffffffffffffffffffffff16815260200190815260200160002060010160006101000a81548173ffffffffffffffffffffffffffffffffffffffff021916908373ffffffffffffffffffffffffffffffffffffffff16021790555060006002600085815260200190815260200160002090506136c9838260010160003373ffffffffffffffffffffffffffffffffffffffff1673ffffffffffffffffffffffffffffffffffffffff1681526020019081526020016000206140ad565b3373ffffffffffffffffffffffffffffffffffffffff16847f381545d9b1fffcb94ffbbd0bccfff9f1fb3acd474d34f7d59112a5c9973fee498585604051808381526020018273ffffffffffffffffffffffffffffffffffffffff1673ffffffffffffffffffffffffffffffffffffffff1681526020019250505060405180910390a350505050565b6006602052816000526040600020602052806000526040600020600091509150505481565b6000600360008373ffffffffffffffffffffffffffffffffffffffff1673ffffffffffffffffffffffffffffffffffffffff16815260200190815260200160002060000160009054906101000a90046bffffffffffffffffffffffff166bffffffffffffffffffffffff169050919050565b60045481565b6137f7611d3c565b61380057600080fd5b61380981613f3c565b50565b613814611d3c565b61381d57600080fd5b60008111613876576040517f08c379a00000000000000000000000000000000000000000000000000000000081526004018080602001828103825260288152602001806145736028913960400191505060405180910390fd5b80600560008473ffffffffffffffffffffffffffffffffffffffff1673ffffffffffffffffffffffffffffffffffffffff168152602001908152602001600020819055508173ffffffffffffffffffffffffffffffffffffffff167f7cf8b633f218e9f9bc2c06107bcaddcfee6b90580863768acdcfd4f05d7af394826040518082815260200191505060405180910390a25050565b600061391b8533868686611860565b905060006002600087815260200190815260200160002060010160003373ffffffffffffffffffffffffffffffffffffffff1673ffffffffffffffffffffffffffffffffffffffff16815260200190815260200160002060020160008373ffffffffffffffffffffffffffffffffffffffff1673ffffffffffffffffffffffffffffffffffffffff1681526020019081526020016000209050428160000160016101000a8154816fffffffffffffffffffffffffffffffff02191690836fffffffffffffffffffffffffffffffff16021790555060028160000160006101000a81548160ff02191690836002811115613a1057fe5b02179055506002600087815260200190815260200160002060010160003373ffffffffffffffffffffffffffffffffffffffff1673ffffffffffffffffffffffffffffffffffffffff168152602001908152602001600020600001600081819054906101000a900467ffffffffffffffff168092919060010191906101000a81548167ffffffffffffffff021916908367ffffffffffffffff160217905550506000600360003373ffffffffffffffffffffffffffffffffffffffff1673ffffffffffffffffffffffffffffffffffffffff16815260200190815260200160002060010160009054906101000a900473ffffffffffffffffffffffffffffffffffffffff169050613be5600560008373ffffffffffffffffffffffffffffffffffffffff1673ffffffffffffffffffffffffffffffffffffffff16815260200190815260200160002054600660008473ffffffffffffffffffffffffffffffffffffffff1673ffffffffffffffffffffffffffffffffffffffff16815260200190815260200160002060008673ffffffffffffffffffffffffffffffffffffffff1673ffffffffffffffffffffffffffffffffffffffff1681526020019081526020016000205461403490919063ffffffff16565b600660008373ffffffffffffffffffffffffffffffffffffffff1673ffffffffffffffffffffffffffffffffffffffff16815260200190815260200160002060008573ffffffffffffffffffffffffffffffffffffffff1673ffffffffffffffffffffffffffffffffffffffff1681526020019081526020016000208190555060006002600089815260200190815260200160002090506001600260008a815260200190815260200160002060010160003373ffffffffffffffffffffffffffffffffffffffff1673ffffffffffffffffffffffffffffffffffffffff16815260200190815260200160002060000160009054906101000a900467ffffffffffffffff1667ffffffffffffffff161415613d6257806000013390806001815401808255809150509060018203906000526020600020016000909192909190916101000a81548173ffffffffffffffffffffffffffffffffffffffff021916908373ffffffffffffffffffffffffffffffffffffffff160217905550505b8373ffffffffffffffffffffffffffffffffffffffff163373ffffffffffffffffffffffffffffffffffffffff16897f414ff2c18c092697c4b8de49f515ac44f8bebc19b24553cf58ace913a6ac639d60405160405180910390a45050505050505050565b6000613df0600454836fffffffffffffffffffffffffffffffff1661403490919063ffffffff16565b42109050919050565b6060806000835111613e56576040517f08c379a000000000000000000000000000000000000000000000000000000000815260040180806020018281038252602881526020018061465c6028913960400191505060405180910390fd5b600080905060608451604051908082528060200260200182016040528015613e8d5781602001602082028038833980820191505090505b50905060008090505b8551811015613efc57600060026000888481518110613eb157fe5b60200260200101518152602001908152602001600020600001805490509050808401935080838381518110613ee257fe5b602002602001018181525050508080600101915050613e96565b508082604051908082528060200260200182016040528015613f2d5781602001602082028038833980820191505090505b50809050935093505050915091565b600073ffffffffffffffffffffffffffffffffffffffff168173ffffffffffffffffffffffffffffffffffffffff161415613f7657600080fd5b8073ffffffffffffffffffffffffffffffffffffffff166000809054906101000a900473ffffffffffffffffffffffffffffffffffffffff1673ffffffffffffffffffffffffffffffffffffffff167f8be0079c531659141344cd1fd0a4f28419497f9722a3daafe3b4186f6b6457e060405160405180910390a3806000806101000a81548173ffffffffffffffffffffffffffffffffffffffff021916908373ffffffffffffffffffffffffffffffffffffffff16021790555050565b60008082840190508381101561404957600080fd5b8091505092915050565b60008282111561406257600080fd5b600082840390508091505092915050565b60008083141561408657600090506140a7565b600082840290508284828161409757fe5b04146140a257600080fd5b809150505b92915050565b6000600160009054906101000a900473ffffffffffffffffffffffffffffffffffffffff1673ffffffffffffffffffffffffffffffffffffffff16632906e3d56040518060400160405280600681526020017f52616e646f6d00000000000000000000000000000000000000000000000000008152506040518263ffffffff1660e01b81526004018080602001828103825283818151815260200191508051906020019080838360005b83811015614172578082015181840152602081019050614157565b50505050905090810190601f16801561419f5780820380516001836020036101000a031916815260200191505b509250505060206040518083038186803b1580156141bc57600080fd5b505afa1580156141d0573d6000803e3d6000fd5b505050506040513d60208110156141e657600080fd5b8101908080519060200190929190505050905060008173ffffffffffffffffffffffffffffffffffffffff16635ec01e4d6040518163ffffffff1660e01b815260040160206040518083038186803b15801561424157600080fd5b505afa158015614255573d6000803e3d6000fd5b505050506040513d602081101561426b57600080fd5b810190808051906020019092919050505090506060614288612bc1565b9050600080905060005b868210156144375783604051602001808281526020019150506040516020818303038152906040528051906020012093508283518560001c816142d157fe5b06815181106142dc57fe5b6020026020010151905060008660020160008373ffffffffffffffffffffffffffffffffffffffff1673ffffffffffffffffffffffffffffffffffffffff16815260200190815260200160002090506000600281111561433857fe5b8160000160009054906101000a900460ff16600281111561435557fe5b146143605750614292565b828060010193505060018160000160006101000a81548160ff0219169083600281111561438957fe5b0217905550428160000160016101000a8154816fffffffffffffffffffffffffffffffff02191690836fffffffffffffffffffffffffffffffff160217905550866001018290806001815401808255809150509060018203906000526020600020016000909192909190916101000a81548173ffffffffffffffffffffffffffffffffffffffff021916908373ffffffffffffffffffffffffffffffffffffffff1602179055505050614292565b50505050505050565b828054600181600116156101000203166002900490600052602060002090601f016020900481019282601f1061448157805160ff19168380011785556144af565b828001600101855582156144af579182015b828111156144ae578251825591602001919060010190614493565b5b5090506144bc91906144ec565b5090565b8154818355818111156144e7578183600052602060002091820191016144e691906144ec565b5b505050565b61450e91905b8082111561450a5760008160009055506001016144f2565b5090565b9056fe496e76616c6964206174746573746174696f6e52657175657374466565546f6b656e4120646966666572656e742066656520746f6b656e207761732070726576696f75736c792073706563696669656420666f722074686973206163636f756e74596f75206861766520746f20737065636966792061206665652067726561746572207468616e2030596f75206861766520746f2072657175657374206174206c656173742031206174746573746174696f6e4174746573746174696f6e20636f646520646f6573206e6f74206d6174636820616e79206f75747374616e64696e67206174746573746174696f6e6174746573746174696f6e4578706972795365636f6e64732068617320746f2062652067726561746572207468616e20305472616e73666572206f66206174746573746174696f6e20726571756573742066656573206661696c6564596f75206861766520746f2070617373206174206c65617374206f6e65206964656e7469666965726174746573746174696f6e52657175657374466565546f6b656e732073706563696669636174696f6e2077617320696e76616c6964a165627a7a723058203c75b1bdb1bf5075c4ce1c1aa2a7ba4d8f2028124a613cbab8094c0095072d560029",
  "source": "pragma solidity ^0.5.8;\n\nimport \"openzeppelin-solidity/contracts/math/SafeMath.sol\";\nimport \"openzeppelin-solidity/contracts/ownership/Ownable.sol\";\n\nimport \"./interfaces/IAttestations.sol\";\nimport \"./interfaces/IRandom.sol\";\nimport \"../common/interfaces/IERC20Token.sol\";\nimport \"../governance/interfaces/IValidators.sol\";\n\nimport \"../common/Initializable.sol\";\nimport \"../common/UsingRegistry.sol\";\n\n\n/**\n * @title Contract mapping identifiers to accounts\n */\ncontract Attestations is IAttestations, Ownable, Initializable, UsingRegistry {\n\n\n  using SafeMath for uint256;\n  using SafeMath for uint128;\n  using SafeMath for uint96;\n\n  event AttestationsRequested(\n    bytes32 indexed identifier,\n    address indexed account,\n    uint256 attestationsRequested,\n    address attestationRequestFeeToken\n  );\n\n  event AttestationCompleted(\n    bytes32 indexed identifier,\n    address indexed account,\n    address indexed issuer\n  );\n\n  event Withdrawal(\n    address indexed account,\n    address indexed token,\n    uint256 amount\n  );\n\n  event AttestationExpirySecondsSet(\n    uint256 value\n  );\n\n  event AttestationRequestFeeSet(\n    address indexed token,\n    uint256 value\n  );\n\n  event AccountDataEncryptionKeySet(\n    address indexed account,\n    bytes dataEncryptionKey\n  );\n\n  event AccountWalletAddressSet(\n    address indexed account,\n    address walletAddress\n  );\n\n  enum AttestationStatus {\n    None,\n    Incomplete,\n    Complete\n  }\n\n  struct Attestation {\n    AttestationStatus status;\n\n    // For outstanding attestations, this is the timestamp of the request\n    // For completed attestations, this is the timestamp of the attestation completion\n    uint128 time;\n  }\n\n  struct Account {\n    // The timestamp of the most recent attestation request\n    uint96 mostRecentAttestationRequest;\n\n    // The address at which the account expects to receive transfers\n    address walletAddress;\n\n    // The token with which attestation request fees are paid\n    address attestationRequestFeeToken;\n\n    // The ECDSA public key used to encrypt and decrypt data for this account\n    bytes dataEncryptionKey;\n  }\n\n  // Stores attestations state for a single (identifier, account address) pair.\n  struct Attestations {\n    // Number of completed attestations\n    uint64 completed;\n    // List of issuers responsible for attestations\n    address[] issuers;\n    // State of each attestation keyed by issuer\n    mapping(address => Attestation) issuedAttestations;\n  }\n\n  struct IdentifierState {\n    // All account addresses associated with this identifier\n    address[] accounts;\n    mapping(address => Attestations) attestations;\n  }\n\n  mapping(bytes32 => IdentifierState) identifiers;\n  mapping(address => Account) accounts;\n\n  // Address of the RequestAttestation precompiled contract.\n  // solhint-disable-next-line state-visibility\n  address constant REQUEST_ATTESTATION = address(0xff);\n\n  // The duration in seconds in which an attestation can be completed\n  uint256 public attestationExpirySeconds;\n\n  // The fees that are associated with attestations for a particular token.\n  mapping(address => uint256) public attestationRequestFees;\n\n  // Maps a token and attestation issuer to the amount that they're owed.\n  mapping(address => mapping(address => uint256)) public pendingWithdrawals;\n\n  function initialize(\n    address registryAddress,\n    uint256 _attestationExpirySeconds,\n    address[] calldata attestationRequestFeeTokens,\n    uint256[] calldata attestationRequestFeeValues\n  )\n    external\n    initializer\n  {\n    _transferOwnership(msg.sender);\n    setRegistry(registryAddress);\n    setAttestationExpirySeconds(_attestationExpirySeconds);\n    require(\n      attestationRequestFeeTokens.length > 0 &&\n      attestationRequestFeeTokens.length == attestationRequestFeeValues.length,\n      \"attestationRequestFeeTokens specification was invalid\"\n    );\n    for (uint256 i = 0; i < attestationRequestFeeTokens.length; i = i.add(1)) {\n      setAttestationRequestFee(attestationRequestFeeTokens[i], attestationRequestFeeValues[i]);\n    }\n  }\n\n  /**\n   * @notice Commit to the attestation request of a hashed identifier.\n   * @param identifier The hash of the identifier to be attested.\n   * @param attestationsRequested The number of requested attestations for this request\n   * @param attestationRequestFeeToken The address of the token with which the attestation fee will\n   * be paid.\n   */\n  function request(\n    bytes32 identifier,\n    uint256 attestationsRequested,\n    address attestationRequestFeeToken\n  )\n    external\n  {\n    require(\n      attestationRequestFees[attestationRequestFeeToken] > 0,\n      \"Invalid attestationRequestFeeToken\"\n    );\n    require(\n      IERC20Token(attestationRequestFeeToken).transferFrom(\n        msg.sender,\n        address(this),\n        attestationRequestFees[attestationRequestFeeToken].mul(attestationsRequested)\n      ),\n      \"Transfer of attestation request fees failed\"\n    );\n\n    require(attestationsRequested > 0, \"You have to request at least 1 attestation\");\n\n    if (accounts[msg.sender].attestationRequestFeeToken != address(0x0)) {\n      require(\n        !isAttestationTimeValid(accounts[msg.sender].mostRecentAttestationRequest) ||\n          accounts[msg.sender].attestationRequestFeeToken == attestationRequestFeeToken,\n        \"A different fee token was previously specified for this account\"\n      );\n    }\n\n    // solhint-disable-next-line not-rely-on-time\n    accounts[msg.sender].mostRecentAttestationRequest = uint96(now);\n    accounts[msg.sender].attestationRequestFeeToken = attestationRequestFeeToken;\n\n    IdentifierState storage state = identifiers[identifier];\n\n    addIncompleteAttestations(attestationsRequested, state.attestations[msg.sender]);\n\n    emit AttestationsRequested(\n      identifier,\n      msg.sender,\n      attestationsRequested,\n      attestationRequestFeeToken\n    );\n  }\n\n  /**\n   * @notice Reveal the encrypted phone number to the issuer.\n   * @param identifier The hash of the identifier to be attested.\n   * @param encryptedPhone The number ECIES encrypted with the issuer's public key.\n   * @param issuer The issuer of the attestation\n   * @param sendSms Whether or not to send an SMS. For testing purposes.\n   */\n  function reveal(\n    bytes32 identifier,\n    bytes calldata encryptedPhone,\n    address issuer,\n    bool sendSms\n  )\n    external\n  {\n    Attestation storage attestation =\n      identifiers[identifier].attestations[msg.sender].issuedAttestations[issuer];\n\n    require(\n      attestation.status == AttestationStatus.Incomplete,\n      \"Attestation is not incomplete\"\n    );\n\n    // solhint-disable-next-line not-rely-on-time\n    require(isAttestationTimeValid(attestation.time), \"Attestation request timed out\");\n\n    // Generate the yet-to-be-signed attestation code that will be signed and sent to the\n    // encrypted phone number via SMS via the 'RequestAttestation' precompiled contract.\n    if (sendSms) {\n      bool success;\n        // solhint-disable-next-line avoid-call-value\n      (success, ) = REQUEST_ATTESTATION.call.value(0).gas(gasleft())(abi.encode(\n        identifier,\n        keccak256(abi.encodePacked(identifier, msg.sender)),\n        msg.sender,\n        issuer,\n        encryptedPhone\n      ));\n\n      require(success, \"sending SMS failed\");\n    }\n  }\n\n  /**\n   * @notice Submit the secret message sent by the issuer to complete the attestation request.\n   * @param identifier The hash of the identifier for this attestation.\n   * @param v The recovery id of the incoming ECDSA signature.\n   * @param r Output value r of the ECDSA signature.\n   * @param s Output value s of the ECDSA signature.\n   * @dev Throws if there is no matching outstanding attestation request.\n   * @dev Throws if the attestation window has passed.\n   */\n  function complete(bytes32 identifier, uint8 v, bytes32 r, bytes32 s) external {\n    address issuer = validateAttestationCode(identifier, msg.sender, v, r, s);\n\n    Attestation storage attestation =\n      identifiers[identifier].attestations[msg.sender].issuedAttestations[issuer];\n\n    // solhint-disable-next-line not-rely-on-time\n    attestation.time = uint128(now);\n    attestation.status = AttestationStatus.Complete;\n    identifiers[identifier].attestations[msg.sender].completed++;\n\n    address token = accounts[msg.sender].attestationRequestFeeToken;\n\n    pendingWithdrawals[token][issuer] = pendingWithdrawals[token][issuer].add(\n      attestationRequestFees[token]\n    );\n\n    IdentifierState storage state = identifiers[identifier];\n    if (identifiers[identifier].attestations[msg.sender].completed == 1) {\n      state.accounts.push(msg.sender);\n    }\n\n    emit AttestationCompleted(identifier, msg.sender, issuer);\n  }\n\n  /**\n   * @notice Revokes an account for an identifier\n   * @param identifier The identifier for which to revoke\n   * @param index The index of the account in the accounts array\n   */\n  function revoke(bytes32 identifier, uint256 index) external {\n    uint256 numAccounts = identifiers[identifier].accounts.length;\n    require(index < numAccounts, \"Index is invalid\");\n    require(\n      msg.sender == identifiers[identifier].accounts[index],\n      \"Index does not match msg.sender\"\n    );\n\n    uint256 newNumAccounts = numAccounts.sub(1);\n    if (index != newNumAccounts) {\n      identifiers[identifier].accounts[index] = identifiers[identifier].accounts[newNumAccounts];\n    }\n    identifiers[identifier].accounts[newNumAccounts] = address(0x0);\n    identifiers[identifier].accounts.length--;\n  }\n\n  /**\n   * @notice Allows issuers to withdraw accumulated attestation rewards.\n   * @param token The address of the token that will be withdrawn.\n   * @dev Throws if msg.sender does not have any rewards to withdraw.\n   */\n  function withdraw(address token) external {\n    uint256 value = pendingWithdrawals[token][msg.sender];\n    require(value > 0, \"value was negative/zero\");\n    pendingWithdrawals[token][msg.sender] = 0;\n    require(IERC20Token(token).transfer(msg.sender, value), \"token transfer failed\");\n    emit Withdrawal(msg.sender, token, value);\n  }\n\n  /**\n   * @notice Setter for the dataEncryptionKey and wallet address for an account\n   * @param dataEncryptionKey secp256k1 public key for data encryption. Preferably compressed.\n   * @param walletAddress The wallet address to set for the account\n   */\n  function setAccount(\n    bytes calldata dataEncryptionKey,\n    address walletAddress\n  )\n    external\n  {\n    setAccountDataEncryptionKey(dataEncryptionKey);\n    setWalletAddress(walletAddress);\n  }\n\n  /**\n   * @notice Returns attestation issuers for a identifier/account pair\n   * @param identifier Hash of the identifier.\n   * @param account Address of the account\n   * @return Addresses of the attestation issuers\n   */\n  function getAttestationIssuers(\n    bytes32 identifier,\n    address account\n  )\n    external\n    view\n    returns (address[] memory)\n  {\n    return identifiers[identifier].attestations[account].issuers;\n  }\n\n  /**\n   * @notice Returns attestation stats for a identifier/account pair\n   * @param identifier Hash of the identifier.\n   * @param account Address of the account\n   * @return [Number of completed attestations, Number of total requested attestations]\n   */\n  function getAttestationStats(\n    bytes32 identifier,\n    address account\n  )\n    external\n    view\n    returns (uint64, uint64)\n  {\n    return (\n      identifiers[identifier].attestations[account].completed,\n      uint64(identifiers[identifier].attestations[account].issuers.length)\n    );\n  }\n\n  /**\n   * @notice Batch lookup function to determine attestation stats for a list of identifiers\n   * @param identifiersToLookup Array of n identifiers\n   * @return [0] Array of number of matching accounts per identifier\n   * @return [1] Array of sum([0]) matching walletAddresses\n   * @return [2] Array of sum([0]) numbers indicating the completions for each account\n   * @return [3] Array of sum([0]) numbers indicating the total number of requested\n                 attestations for each account\n   */\n  function batchGetAttestationStats(\n    bytes32[] calldata identifiersToLookup\n  )\n    external\n    view\n    returns (uint256[] memory, address[] memory, uint64[] memory, uint64[] memory)\n  {\n    require(identifiersToLookup.length > 0, \"You have to pass at least one identifier\");\n\n    uint256[] memory matches;\n    address[] memory addresses;\n\n    (matches, addresses) = batchlookupAccountsForIdentifier(\n      identifiersToLookup\n    );\n\n    uint64[] memory completed = new uint64[](addresses.length);\n    uint64[] memory total = new uint64[](addresses.length);\n\n    uint256 currentIndex = 0;\n    for (uint256 i = 0; i < identifiersToLookup.length; i++) {\n      address[] memory addrs = identifiers[identifiersToLookup[i]].accounts;\n      for (uint256 matchIndex = 0; matchIndex < matches[i]; matchIndex++) {\n        addresses[currentIndex] = accounts[addrs[matchIndex]].walletAddress;\n        completed[currentIndex] =\n          identifiers[identifiersToLookup[i]].attestations[addrs[matchIndex]].completed;\n        total[currentIndex] = uint64(\n          identifiers[identifiersToLookup[i]].attestations[addrs[matchIndex]].issuers.length\n        );\n        currentIndex++;\n      }\n    }\n\n    return (matches, addresses, completed, total);\n  }\n\n  /**\n   * @notice Returns the state of a specific attestation\n   * @param identifier Hash of the identifier.\n   * @param account Address of the account\n   * @param issuer Address of the issuer\n   * @return [Status of the attestation, time of the attestation]\n   */\n  function getAttestationState(\n    bytes32 identifier,\n    address account,\n    address issuer\n  )\n    external\n    view\n    returns (uint8, uint128)\n  {\n    return (\n      uint8(identifiers[identifier].attestations[account].issuedAttestations[issuer].status),\n      identifiers[identifier].attestations[account].issuedAttestations[issuer].time\n    );\n\n  }\n\n  /**\n   * @notice Returns address of the token in which the account chose to pay attestation fees\n   * @param account Address of the account\n   * @return Address of the token contract\n   */\n  function getAttestationRequestFeeToken(address account) external view returns (address) {\n    return accounts[account].attestationRequestFeeToken;\n  }\n\n  /**\n   * @notice Returns timestamp of the most recent attestation request\n   * @param account Address of the account\n   * @return Timestamp of the most recent attestation request\n   */\n  function getMostRecentAttestationRequest(address account)\n    external\n    view\n    returns (uint256)\n  {\n    return accounts[account].mostRecentAttestationRequest;\n  }\n\n  /**\n   * @notice Returns the fee set for a particular token.\n   * @param token Address of the attestationRequestFeeToken.\n   * @return The fee.\n   */\n  function getAttestationRequestFee(address token) external view returns (uint256) {\n    return attestationRequestFees[token];\n  }\n\n  /**\n   * @notice Updates the fee  for a particular token.\n   * @param token The address of the attestationRequestFeeToken.\n   * @param fee The fee in 'token' that is required for each attestation.\n   */\n  function setAttestationRequestFee(address token, uint256 fee) public onlyOwner {\n    require(fee > 0, \"You have to specify a fee greater than 0\");\n    attestationRequestFees[token] = fee;\n    emit AttestationRequestFeeSet(token, fee);\n  }\n\n  /**\n   * @notice Updates 'attestationExpirySeconds'.\n   * @param _attestationExpirySeconds The new limit on blocks allowed to come between requesting\n   * an attestation and completing it.\n   */\n  function setAttestationExpirySeconds(uint256 _attestationExpirySeconds) public onlyOwner {\n    require(_attestationExpirySeconds > 0, \"attestationExpirySeconds has to be greater than 0\");\n    attestationExpirySeconds = _attestationExpirySeconds;\n    emit AttestationExpirySecondsSet(_attestationExpirySeconds);\n  }\n\n    /**\n   * @notice Setter for the data encryption key and version.\n   * @param dataEncryptionKey secp256k1 public key for data encryption. Preferably compressed.\n   */\n  function setAccountDataEncryptionKey(bytes memory dataEncryptionKey) public {\n    require(dataEncryptionKey.length >= 33, \"data encryption key length <= 32\");\n    accounts[msg.sender].dataEncryptionKey = dataEncryptionKey;\n    emit AccountDataEncryptionKeySet(msg.sender, dataEncryptionKey);\n  }\n\n  /**\n   * @notice Getter for the data encryption key and version.\n   * @param account The address of the account to get the key for\n   * @return dataEncryptionKey secp256k1 public key for data encryption. Preferably compressed.\n   */\n  function getDataEncryptionKey(address account) public view returns (bytes memory) {\n    return accounts[account].dataEncryptionKey;\n  }\n\n  /**\n   * @notice Setter for the wallet address for an account\n   * @param walletAddress The wallet address to set for the account\n   */\n  function setWalletAddress(address walletAddress) public {\n    accounts[msg.sender].walletAddress = walletAddress;\n    emit AccountWalletAddressSet(msg.sender, walletAddress);\n  }\n\n  /**\n   * @notice Getter for the wallet address for an account\n   * @param account The address of the account to get the wallet address for\n   * @return Wallet address\n   */\n  function getWalletAddress(address account) public view returns (address) {\n    return accounts[account].walletAddress;\n  }\n\n  /**\n   * @notice Validates the given attestation code.\n   * @param identifier The hash of the identifier to be attested.\n   * @param v The recovery id of the incoming ECDSA signature.\n   * @param r Output value r of the ECDSA signature.\n   * @param s Output value s of the ECDSA signature.\n   * @return The issuer of the corresponding attestation.\n   * @dev Throws if there is no matching outstanding attestation request.\n   * @dev Throws if the attestation window has passed.\n   */\n  function validateAttestationCode(\n    bytes32 identifier,\n    address account,\n    uint8 v,\n    bytes32 r,\n    bytes32 s\n  )\n    public\n    view\n    returns (address)\n  {\n    bytes32 codehash = keccak256(abi.encodePacked(identifier, account));\n    address issuer = ecrecover(codehash, v, r, s);\n\n    Attestation storage attestation =\n      identifiers[identifier].attestations[account].issuedAttestations[issuer];\n\n    require(\n      attestation.status == AttestationStatus.Incomplete,\n      \"Attestation code does not match any outstanding attestation\"\n    );\n    // solhint-disable-next-line not-rely-on-time\n    require(isAttestationTimeValid(attestation.time), \"Attestation request timed out\");\n\n    return issuer;\n  }\n\n  function lookupAccountsForIdentifier(\n    bytes32 identifier\n  )\n    public\n    view\n    returns (address[] memory)\n  {\n    return identifiers[identifier].accounts;\n  }\n\n  /**\n   * @notice Returns the current validator set\n   * TODO: Should be replaced with a precompile\n   */\n  function getValidators() public view returns (address[] memory) {\n    IValidators validatorContract = IValidators(\n      registry.getAddressForOrDie(VALIDATORS_REGISTRY_ID)\n    );\n    return validatorContract.getValidators();\n  }\n\n  /**\n   * @notice Helper function for batchGetAttestationStats to calculate the\n             total number of addresses that have >0 complete attestations for the identifiers\n   * @param identifiersToLookup Array of n identifiers\n   * @return Array of n numbers that indicate the number of matching addresses per identifier\n   *         and array of addresses preallocated for total number of matches\n   */\n  function batchlookupAccountsForIdentifier(\n    bytes32[] memory identifiersToLookup\n  )\n    internal\n    view\n    returns (uint256[] memory, address[] memory)\n  {\n    require(identifiersToLookup.length > 0, \"You have to pass at least one identifier\");\n    uint256 totalAddresses = 0;\n    uint256[] memory matches = new uint256[](identifiersToLookup.length);\n\n    for (uint256 i = 0; i < identifiersToLookup.length; i++) {\n      uint256 count = identifiers[identifiersToLookup[i]].accounts.length;\n\n      totalAddresses = totalAddresses + count;\n      matches[i] = count;\n    }\n\n    return (matches, new address[](totalAddresses));\n  }\n\n  /**\n   * @notice Adds additional attestations given the current randomness\n   * @param n Number of attestations to add\n   * @param state The accountState of the address to add attestations for\n   */\n  function addIncompleteAttestations(\n    uint256 n,\n    Attestations storage state\n  )\n    internal\n  {\n    IRandom random = IRandom(registry.getAddressForOrDie(RANDOM_REGISTRY_ID));\n\n    bytes32 seed = random.random();\n    address[] memory validators = getValidators();\n\n    uint256 currentIndex = 0;\n    address validator;\n\n    while (currentIndex < n) {\n      seed = keccak256(abi.encodePacked(seed));\n      validator = validators[uint256(seed) % validators.length];\n\n      Attestation storage attestations =\n        state.issuedAttestations[validator];\n\n      // Attestation issuers can only be added if they haven't already\n      if (attestations.status != AttestationStatus.None) {\n        continue;\n      }\n\n      currentIndex++;\n      attestations.status = AttestationStatus.Incomplete;\n      // solhint-disable-next-line not-rely-on-time\n      attestations.time = uint128(now);\n      state.issuers.push(validator);\n    }\n  }\n\n  function isAttestationTimeValid(uint128 attestationTime) internal view returns (bool) {\n    // solhint-disable-next-line not-rely-on-time\n    return now < attestationTime.add(attestationExpirySeconds);\n  }\n}\n",
  "sourcePath": "/Users/yorhodes/celo/celo-monorepo/packages/protocol/contracts/identity/Attestations.sol",
  "compiler": {
    "name": "solc",
    "version": "0.5.8+commit.23d335f2.Emscripten.clang"
  },
  "schemaVersion": "3.0.9",
  "updatedAt": "2019-07-17T03:09:18.788Z",
  "devdoc": {
    "methods": {
      "batchGetAttestationStats(bytes32[])": {
        "params": {
          "identifiersToLookup": "Array of n identifiers"
        },
        "return": "[0] Array of number of matching accounts per identifier[1] Array of sum([0]) matching walletAddresses[2] Array of sum([0]) numbers indicating the completions for each account[3] Array of sum([0]) numbers indicating the total number of requested attestations for each account"
      },
      "complete(bytes32,uint8,bytes32,bytes32)": {
        "details": "Throws if there is no matching outstanding attestation request.Throws if the attestation window has passed.",
        "params": {
          "identifier": "The hash of the identifier for this attestation.",
          "r": "Output value r of the ECDSA signature.",
          "s": "Output value s of the ECDSA signature.",
          "v": "The recovery id of the incoming ECDSA signature."
        }
      },
      "getAttestationIssuers(bytes32,address)": {
        "params": {
          "account": "Address of the account",
          "identifier": "Hash of the identifier."
        },
        "return": "Addresses of the attestation issuers"
      },
      "getAttestationRequestFee(address)": {
        "params": {
          "token": "Address of the attestationRequestFeeToken."
        },
        "return": "The fee."
      },
      "getAttestationRequestFeeToken(address)": {
        "params": {
          "account": "Address of the account"
        },
        "return": "Address of the token contract"
      },
      "getAttestationState(bytes32,address,address)": {
        "params": {
          "account": "Address of the account",
          "identifier": "Hash of the identifier.",
          "issuer": "Address of the issuer"
        },
        "return": "[Status of the attestation, time of the attestation]"
      },
      "getAttestationStats(bytes32,address)": {
        "params": {
          "account": "Address of the account",
          "identifier": "Hash of the identifier."
        },
        "return": "[Number of completed attestations, Number of total requested attestations]"
      },
      "getDataEncryptionKey(address)": {
        "params": {
          "account": "The address of the account to get the key for"
        },
        "return": "dataEncryptionKey secp256k1 public key for data encryption. Preferably compressed."
      },
      "getMostRecentAttestationRequest(address)": {
        "params": {
          "account": "Address of the account"
        },
        "return": "Timestamp of the most recent attestation request"
      },
      "getWalletAddress(address)": {
        "params": {
          "account": "The address of the account to get the wallet address for"
        },
        "return": "Wallet address"
      },
      "isOwner()": {
        "return": "true if `msg.sender` is the owner of the contract."
      },
      "owner()": {
        "return": "the address of the owner."
      },
      "renounceOwnership()": {
        "details": "Allows the current owner to relinquish control of the contract. It will not be possible to call the functions with the `onlyOwner` modifier anymore."
      },
      "request(bytes32,uint256,address)": {
        "params": {
          "attestationRequestFeeToken": "The address of the token with which the attestation fee will be paid.",
          "attestationsRequested": "The number of requested attestations for this request",
          "identifier": "The hash of the identifier to be attested."
        }
      },
      "reveal(bytes32,bytes,address,bool)": {
        "params": {
          "encryptedPhone": "The number ECIES encrypted with the issuer's public key.",
          "identifier": "The hash of the identifier to be attested.",
          "issuer": "The issuer of the attestation",
          "sendSms": "Whether or not to send an SMS. For testing purposes."
        }
      },
      "revoke(bytes32,uint256)": {
        "params": {
          "identifier": "The identifier for which to revoke",
          "index": "The index of the account in the accounts array"
        }
      },
      "setAccount(bytes,address)": {
        "params": {
          "dataEncryptionKey": "secp256k1 public key for data encryption. Preferably compressed.",
          "walletAddress": "The wallet address to set for the account"
        }
      },
      "setAccountDataEncryptionKey(bytes)": {
        "params": {
          "dataEncryptionKey": "secp256k1 public key for data encryption. Preferably compressed."
        }
      },
      "setAttestationExpirySeconds(uint256)": {
        "params": {
          "_attestationExpirySeconds": "The new limit on blocks allowed to come between requesting an attestation and completing it."
        }
      },
      "setAttestationRequestFee(address,uint256)": {
        "params": {
          "fee": "The fee in 'token' that is required for each attestation.",
          "token": "The address of the attestationRequestFeeToken."
        }
      },
      "setRegistry(address)": {
        "params": {
          "registryAddress": "The address of a registry contract for routing to other contracts."
        }
      },
      "setWalletAddress(address)": {
        "params": {
          "walletAddress": "The wallet address to set for the account"
        }
      },
      "transferOwnership(address)": {
        "details": "Allows the current owner to transfer control of the contract to a newOwner.",
        "params": {
          "newOwner": "The address to transfer ownership to."
        }
      },
      "validateAttestationCode(bytes32,address,uint8,bytes32,bytes32)": {
        "details": "Throws if there is no matching outstanding attestation request.Throws if the attestation window has passed.",
        "params": {
          "identifier": "The hash of the identifier to be attested.",
          "r": "Output value r of the ECDSA signature.",
          "s": "Output value s of the ECDSA signature.",
          "v": "The recovery id of the incoming ECDSA signature."
        },
        "return": "The issuer of the corresponding attestation."
      },
      "withdraw(address)": {
        "details": "Throws if msg.sender does not have any rewards to withdraw.",
        "params": {
          "token": "The address of the token that will be withdrawn."
        }
      }
    },
    "title": "Contract mapping identifiers to accounts"
  },
  "userdoc": {
    "methods": {
      "batchGetAttestationStats(bytes32[])": {
        "notice": "Batch lookup function to determine attestation stats for a list of identifiers"
      },
      "complete(bytes32,uint8,bytes32,bytes32)": {
        "notice": "Submit the secret message sent by the issuer to complete the attestation request."
      },
      "getAttestationIssuers(bytes32,address)": {
        "notice": "Returns attestation issuers for a identifier/account pair"
      },
      "getAttestationRequestFee(address)": {
        "notice": "Returns the fee set for a particular token."
      },
      "getAttestationRequestFeeToken(address)": {
        "notice": "Returns address of the token in which the account chose to pay attestation fees"
      },
      "getAttestationState(bytes32,address,address)": {
        "notice": "Returns the state of a specific attestation"
      },
      "getAttestationStats(bytes32,address)": {
        "notice": "Returns attestation stats for a identifier/account pair"
      },
      "getDataEncryptionKey(address)": {
        "notice": "Getter for the data encryption key and version."
      },
      "getMostRecentAttestationRequest(address)": {
        "notice": "Returns timestamp of the most recent attestation request"
      },
      "getValidators()": {
        "notice": "Returns the current validator set TODO: Should be replaced with a precompile"
      },
      "getWalletAddress(address)": {
        "notice": "Getter for the wallet address for an account"
      },
      "renounceOwnership()": {
        "notice": "Renouncing ownership will leave the contract without an owner, thereby removing any functionality that is only available to the owner."
      },
      "request(bytes32,uint256,address)": {
        "notice": "Commit to the attestation request of a hashed identifier."
      },
      "reveal(bytes32,bytes,address,bool)": {
        "notice": "Reveal the encrypted phone number to the issuer."
      },
      "revoke(bytes32,uint256)": {
        "notice": "Revokes an account for an identifier"
      },
      "setAccount(bytes,address)": {
        "notice": "Setter for the dataEncryptionKey and wallet address for an account"
      },
      "setAccountDataEncryptionKey(bytes)": {
        "notice": "Setter for the data encryption key and version."
      },
      "setAttestationExpirySeconds(uint256)": {
        "notice": "Updates 'attestationExpirySeconds'."
      },
      "setAttestationRequestFee(address,uint256)": {
        "notice": "Updates the fee  for a particular token."
      },
      "setRegistry(address)": {
        "notice": "Updates the address pointing to a Registry contract."
      },
      "setWalletAddress(address)": {
        "notice": "Setter for the wallet address for an account"
      },
      "validateAttestationCode(bytes32,address,uint8,bytes32,bytes32)": {
        "notice": "Validates the given attestation code."
      },
      "withdraw(address)": {
        "notice": "Allows issuers to withdraw accumulated attestation rewards."
      }
    }
  }
}