{
  "contractName": "BondedDeposits",
  "abi": [
    {
      "constant": true,
      "inputs": [],
      "name": "initialized",
      "outputs": [
        {
          "name": "",
          "type": "bool"
        }
      ],
      "payable": false,
      "stateMutability": "view",
      "type": "function"
    },
    {
      "constant": true,
      "inputs": [
        {
          "name": "",
          "type": "uint256"
        }
      ],
      "name": "cumulativeRewardWeights",
      "outputs": [
        {
          "name": "numerator",
          "type": "uint256"
        },
        {
          "name": "denominator",
          "type": "uint256"
        }
      ],
      "payable": false,
      "stateMutability": "view",
      "type": "function"
    },
    {
      "constant": false,
      "inputs": [],
      "name": "renounceOwnership",
      "outputs": [],
      "payable": false,
      "stateMutability": "nonpayable",
      "type": "function"
    },
    {
      "constant": true,
      "inputs": [],
      "name": "registry",
      "outputs": [
        {
          "name": "",
          "type": "address"
        }
      ],
      "payable": false,
      "stateMutability": "view",
      "type": "function"
    },
    {
      "constant": true,
      "inputs": [],
      "name": "owner",
      "outputs": [
        {
          "name": "",
          "type": "address"
        }
      ],
      "payable": false,
      "stateMutability": "view",
      "type": "function"
    },
    {
      "constant": true,
      "inputs": [],
      "name": "isOwner",
      "outputs": [
        {
          "name": "",
          "type": "bool"
        }
      ],
      "payable": false,
      "stateMutability": "view",
      "type": "function"
    },
    {
      "constant": true,
      "inputs": [],
      "name": "totalWeight",
      "outputs": [
        {
          "name": "",
          "type": "uint256"
        }
      ],
      "payable": false,
      "stateMutability": "view",
      "type": "function"
    },
    {
      "constant": false,
      "inputs": [
        {
          "name": "registryAddress",
          "type": "address"
        }
      ],
      "name": "setRegistry",
      "outputs": [],
      "payable": false,
      "stateMutability": "nonpayable",
      "type": "function"
    },
    {
      "constant": true,
      "inputs": [
        {
          "name": "",
          "type": "address"
        }
      ],
      "name": "delegations",
      "outputs": [
        {
          "name": "",
          "type": "address"
        }
      ],
      "payable": false,
      "stateMutability": "view",
      "type": "function"
    },
    {
      "constant": true,
      "inputs": [],
      "name": "maxNoticePeriod",
      "outputs": [
        {
          "name": "",
          "type": "uint256"
        }
      ],
      "payable": false,
      "stateMutability": "view",
      "type": "function"
    },
    {
      "constant": false,
      "inputs": [
        {
          "name": "newOwner",
          "type": "address"
        }
      ],
      "name": "transferOwnership",
      "outputs": [],
      "payable": false,
      "stateMutability": "nonpayable",
      "type": "function"
    },
    {
      "anonymous": false,
      "inputs": [
        {
          "indexed": false,
          "name": "maxNoticePeriod",
          "type": "uint256"
        }
      ],
      "name": "MaxNoticePeriodSet",
      "type": "event"
    },
    {
      "anonymous": false,
      "inputs": [
        {
          "indexed": true,
          "name": "account",
          "type": "address"
        },
        {
          "indexed": false,
          "name": "delegate",
          "type": "address"
        }
      ],
      "name": "VotingDelegated",
      "type": "event"
    },
    {
      "anonymous": false,
      "inputs": [
        {
          "indexed": true,
          "name": "account",
          "type": "address"
        }
      ],
      "name": "VotingFrozen",
      "type": "event"
    },
    {
      "anonymous": false,
      "inputs": [
        {
          "indexed": true,
          "name": "account",
          "type": "address"
        }
      ],
      "name": "VotingUnfrozen",
      "type": "event"
    },
    {
      "anonymous": false,
      "inputs": [
        {
          "indexed": true,
          "name": "account",
          "type": "address"
        },
        {
          "indexed": false,
          "name": "delegate",
          "type": "address"
        }
      ],
      "name": "ValidatingDelegated",
      "type": "event"
    },
    {
      "anonymous": false,
      "inputs": [
        {
          "indexed": true,
          "name": "account",
          "type": "address"
        },
        {
          "indexed": false,
          "name": "delegate",
          "type": "address"
        }
      ],
      "name": "RewardsDelegated",
      "type": "event"
    },
    {
      "anonymous": false,
      "inputs": [
        {
          "indexed": true,
          "name": "account",
          "type": "address"
        },
        {
          "indexed": false,
          "name": "value",
          "type": "uint256"
        },
        {
          "indexed": false,
          "name": "noticePeriod",
          "type": "uint256"
        }
      ],
      "name": "DepositBonded",
      "type": "event"
    },
    {
      "anonymous": false,
      "inputs": [
        {
          "indexed": true,
          "name": "account",
          "type": "address"
        },
        {
          "indexed": false,
          "name": "value",
          "type": "uint256"
        },
        {
          "indexed": false,
          "name": "noticePeriod",
          "type": "uint256"
        },
        {
          "indexed": false,
          "name": "availabilityTime",
          "type": "uint256"
        }
      ],
      "name": "DepositNotified",
      "type": "event"
    },
    {
      "anonymous": false,
      "inputs": [
        {
          "indexed": true,
          "name": "account",
          "type": "address"
        },
        {
          "indexed": false,
          "name": "value",
          "type": "uint256"
        },
        {
          "indexed": false,
          "name": "noticePeriod",
          "type": "uint256"
        },
        {
          "indexed": false,
          "name": "availabilityTime",
          "type": "uint256"
        }
      ],
      "name": "DepositRebonded",
      "type": "event"
    },
    {
      "anonymous": false,
      "inputs": [
        {
          "indexed": true,
          "name": "account",
          "type": "address"
        },
        {
          "indexed": false,
          "name": "value",
          "type": "uint256"
        }
      ],
      "name": "Withdrawal",
      "type": "event"
    },
    {
      "anonymous": false,
      "inputs": [
        {
          "indexed": true,
          "name": "account",
          "type": "address"
        },
        {
          "indexed": false,
          "name": "value",
          "type": "uint256"
        },
        {
          "indexed": false,
          "name": "noticePeriod",
          "type": "uint256"
        },
        {
          "indexed": false,
          "name": "increase",
          "type": "uint256"
        }
      ],
      "name": "NoticePeriodIncreased",
      "type": "event"
    },
    {
      "anonymous": false,
      "inputs": [
        {
          "indexed": true,
          "name": "registryAddress",
          "type": "address"
        }
      ],
      "name": "RegistrySet",
      "type": "event"
    },
    {
      "anonymous": false,
      "inputs": [
        {
          "indexed": true,
          "name": "previousOwner",
          "type": "address"
        },
        {
          "indexed": true,
          "name": "newOwner",
          "type": "address"
        }
      ],
      "name": "OwnershipTransferred",
      "type": "event"
    },
    {
      "constant": false,
      "inputs": [
        {
          "name": "registryAddress",
          "type": "address"
        },
        {
          "name": "_maxNoticePeriod",
          "type": "uint256"
        }
      ],
      "name": "initialize",
      "outputs": [],
      "payable": false,
      "stateMutability": "nonpayable",
      "type": "function"
    },
    {
      "constant": false,
      "inputs": [
        {
          "name": "blockReward",
          "type": "uint256"
        }
      ],
      "name": "setCumulativeRewardWeight",
      "outputs": [],
      "payable": false,
      "stateMutability": "nonpayable",
      "type": "function"
    },
    {
      "constant": false,
      "inputs": [
        {
          "name": "_maxNoticePeriod",
          "type": "uint256"
        }
      ],
      "name": "setMaxNoticePeriod",
      "outputs": [],
      "payable": false,
      "stateMutability": "nonpayable",
      "type": "function"
    },
    {
      "constant": false,
      "inputs": [],
      "name": "createAccount",
      "outputs": [
        {
          "name": "",
          "type": "bool"
        }
      ],
      "payable": false,
      "stateMutability": "nonpayable",
      "type": "function"
    },
    {
      "constant": false,
      "inputs": [],
      "name": "redeemRewards",
      "outputs": [
        {
          "name": "",
          "type": "uint256"
        }
      ],
      "payable": false,
      "stateMutability": "nonpayable",
      "type": "function"
    },
    {
      "constant": false,
      "inputs": [
        {
          "name": "delegate",
          "type": "address"
        },
        {
          "name": "v",
          "type": "uint8"
        },
        {
          "name": "r",
          "type": "bytes32"
        },
        {
          "name": "s",
          "type": "bytes32"
        }
      ],
      "name": "delegateVoting",
      "outputs": [],
      "payable": false,
      "stateMutability": "nonpayable",
      "type": "function"
    },
    {
      "constant": false,
      "inputs": [],
      "name": "freezeVoting",
      "outputs": [],
      "payable": false,
      "stateMutability": "nonpayable",
      "type": "function"
    },
    {
      "constant": false,
      "inputs": [],
      "name": "unfreezeVoting",
      "outputs": [],
      "payable": false,
      "stateMutability": "nonpayable",
      "type": "function"
    },
    {
      "constant": false,
      "inputs": [
        {
          "name": "delegate",
          "type": "address"
        },
        {
          "name": "v",
          "type": "uint8"
        },
        {
          "name": "r",
          "type": "bytes32"
        },
        {
          "name": "s",
          "type": "bytes32"
        }
      ],
      "name": "delegateValidating",
      "outputs": [],
      "payable": false,
      "stateMutability": "nonpayable",
      "type": "function"
    },
    {
      "constant": false,
      "inputs": [
        {
          "name": "delegate",
          "type": "address"
        },
        {
          "name": "v",
          "type": "uint8"
        },
        {
          "name": "r",
          "type": "bytes32"
        },
        {
          "name": "s",
          "type": "bytes32"
        }
      ],
      "name": "delegateRewards",
      "outputs": [],
      "payable": false,
      "stateMutability": "nonpayable",
      "type": "function"
    },
    {
      "constant": false,
      "inputs": [
        {
          "name": "noticePeriod",
          "type": "uint256"
        }
      ],
      "name": "deposit",
      "outputs": [
        {
          "name": "",
          "type": "uint256"
        }
      ],
      "payable": true,
      "stateMutability": "payable",
      "type": "function"
    },
    {
      "constant": false,
      "inputs": [
        {
          "name": "value",
          "type": "uint256"
        },
        {
          "name": "noticePeriod",
          "type": "uint256"
        }
      ],
      "name": "notify",
      "outputs": [
        {
          "name": "",
          "type": "uint256"
        }
      ],
      "payable": false,
      "stateMutability": "nonpayable",
      "type": "function"
    },
    {
      "constant": false,
      "inputs": [
        {
          "name": "value",
          "type": "uint256"
        },
        {
          "name": "availabilityTime",
          "type": "uint256"
        }
      ],
      "name": "rebond",
      "outputs": [
        {
          "name": "",
          "type": "uint256"
        }
      ],
      "payable": false,
      "stateMutability": "nonpayable",
      "type": "function"
    },
    {
      "constant": false,
      "inputs": [
        {
          "name": "availabilityTime",
          "type": "uint256"
        }
      ],
      "name": "withdraw",
      "outputs": [
        {
          "name": "",
          "type": "uint256"
        }
      ],
      "payable": false,
      "stateMutability": "nonpayable",
      "type": "function"
    },
    {
      "constant": false,
      "inputs": [
        {
          "name": "value",
          "type": "uint256"
        },
        {
          "name": "noticePeriod",
          "type": "uint256"
        },
        {
          "name": "increase",
          "type": "uint256"
        }
      ],
      "name": "increaseNoticePeriod",
      "outputs": [
        {
          "name": "",
          "type": "uint256"
        }
      ],
      "payable": false,
      "stateMutability": "nonpayable",
      "type": "function"
    },
    {
      "constant": true,
      "inputs": [
        {
          "name": "account",
          "type": "address"
        }
      ],
      "name": "isVotingFrozen",
      "outputs": [
        {
          "name": "",
          "type": "bool"
        }
      ],
      "payable": false,
      "stateMutability": "view",
      "type": "function"
    },
    {
      "constant": true,
      "inputs": [
        {
          "name": "_account",
          "type": "address"
        }
      ],
      "name": "getRewardsLastRedeemed",
      "outputs": [
        {
          "name": "",
          "type": "uint96"
        }
      ],
      "payable": false,
      "stateMutability": "view",
      "type": "function"
    },
    {
      "constant": true,
      "inputs": [
        {
          "name": "_account",
          "type": "address"
        }
      ],
      "name": "getNoticePeriods",
      "outputs": [
        {
          "name": "",
          "type": "uint256[]"
        }
      ],
      "payable": false,
      "stateMutability": "view",
      "type": "function"
    },
    {
      "constant": true,
      "inputs": [
        {
          "name": "_account",
          "type": "address"
        }
      ],
      "name": "getAvailabilityTimes",
      "outputs": [
        {
          "name": "",
          "type": "uint256[]"
        }
      ],
      "payable": false,
      "stateMutability": "view",
      "type": "function"
    },
    {
      "constant": true,
      "inputs": [
        {
          "name": "_account",
          "type": "address"
        },
        {
          "name": "noticePeriod",
          "type": "uint256"
        }
      ],
      "name": "getBondedDeposit",
      "outputs": [
        {
          "name": "",
          "type": "uint256"
        },
        {
          "name": "",
          "type": "uint256"
        }
      ],
      "payable": false,
      "stateMutability": "view",
      "type": "function"
    },
    {
      "constant": true,
      "inputs": [
        {
          "name": "_account",
          "type": "address"
        },
        {
          "name": "availabilityTime",
          "type": "uint256"
        }
      ],
      "name": "getNotifiedDeposit",
      "outputs": [
        {
          "name": "",
          "type": "uint256"
        },
        {
          "name": "",
          "type": "uint256"
        }
      ],
      "payable": false,
      "stateMutability": "view",
      "type": "function"
    },
    {
      "constant": true,
      "inputs": [
        {
          "name": "accountOrDelegate",
          "type": "address"
        }
      ],
      "name": "getAccountFromVoter",
      "outputs": [
        {
          "name": "",
          "type": "address"
        }
      ],
      "payable": false,
      "stateMutability": "view",
      "type": "function"
    },
    {
      "constant": true,
      "inputs": [
        {
          "name": "accountOrDelegate",
          "type": "address"
        }
      ],
      "name": "getAccountFromValidator",
      "outputs": [
        {
          "name": "",
          "type": "address"
        }
      ],
      "payable": false,
      "stateMutability": "view",
      "type": "function"
    },
    {
      "constant": true,
      "inputs": [
        {
          "name": "_account",
          "type": "address"
        }
      ],
      "name": "getAccountWeight",
      "outputs": [
        {
          "name": "",
          "type": "uint256"
        }
      ],
      "payable": false,
      "stateMutability": "view",
      "type": "function"
    },
    {
      "constant": true,
      "inputs": [
        {
          "name": "accountOrDelegate",
          "type": "address"
        }
      ],
      "name": "getAccountFromRewardsRecipient",
      "outputs": [
        {
          "name": "",
          "type": "address"
        }
      ],
      "payable": false,
      "stateMutability": "view",
      "type": "function"
    },
    {
      "constant": true,
      "inputs": [
        {
          "name": "account",
          "type": "address"
        }
      ],
      "name": "isVoting",
      "outputs": [
        {
          "name": "",
          "type": "bool"
        }
      ],
      "payable": false,
      "stateMutability": "view",
      "type": "function"
    },
    {
      "constant": true,
      "inputs": [
        {
          "name": "value",
          "type": "uint256"
        },
        {
          "name": "noticePeriod",
          "type": "uint256"
        }
      ],
      "name": "getDepositWeight",
      "outputs": [
        {
          "name": "",
          "type": "uint256"
        }
      ],
      "payable": false,
      "stateMutability": "pure",
      "type": "function"
    },
    {
      "constant": true,
      "inputs": [
        {
          "name": "account",
          "type": "address"
        }
      ],
      "name": "getRewardsRecipientFromAccount",
      "outputs": [
        {
          "name": "",
          "type": "address"
        }
      ],
      "payable": false,
      "stateMutability": "view",
      "type": "function"
    },
    {
      "constant": true,
      "inputs": [
        {
          "name": "account",
          "type": "address"
        }
      ],
      "name": "getVoterFromAccount",
      "outputs": [
        {
          "name": "",
          "type": "address"
        }
      ],
      "payable": false,
      "stateMutability": "view",
      "type": "function"
    },
    {
      "constant": true,
      "inputs": [
        {
          "name": "account",
          "type": "address"
        }
      ],
      "name": "getValidatorFromAccount",
      "outputs": [
        {
          "name": "",
          "type": "address"
        }
      ],
      "payable": false,
      "stateMutability": "view",
      "type": "function"
    }
  ],
  "bytecode": "0x60806040526001600081905550336001806101000a81548173ffffffffffffffffffffffffffffffffffffffff021916908373ffffffffffffffffffffffffffffffffffffffff1602179055506001809054906101000a900473ffffffffffffffffffffffffffffffffffffffff1673ffffffffffffffffffffffffffffffffffffffff16600073ffffffffffffffffffffffffffffffffffffffff167f8be0079c531659141344cd1fd0a4f28419497f9722a3daafe3b4186f6b6457e060405160405180910390a3615ac2806100d76000396000f3fe6080604052600436106102465760003560e01c80637f3e4bdf11610139578063ab248dcd116100b6578063cc8308851161007a578063cc83088514610eda578063cd6dc68714610f43578063eadb80d014610f9e578063f0fc4ec11461102f578063f1c4ee8a1461105a578063f2fde38b1461110057610246565b8063ab248dcd14610cd9578063b6b55f2514610d6a578063bffe348614610dac578063c50b9c6c14610e3d578063c8c1c07f14610e6857610246565b80639dca362f116100fd5780639dca362f14610ad4578063a258cff714610b03578063a88dbc4d14610b66578063a91ee0dc14610bf7578063aaf4eb7514610c4857610246565b80637f3e4bdf146109765780638213639a146109e85780638da5cb5b14610a235780638f32d59b14610a7a57806396c82e5714610aa957610246565b80634ff08bac116101c7578063657a8bba1161018b578063657a8bba146107f25780636f434fb61461084b5780636f4b1e8e146108f1578063715018a6146109085780637b1039991461091f57610246565b80634ff08bac1461064d5780635ac0e1d2146106885780635b9b45d7146106e15780635f8dd649146106f857806360e1580f1461076157610246565b806323fd11741161020e57806323fd11741461044d5780632e1a7d4d146104a657806333b159ac146104f55780633ea01b34146105765780634f35e697146105db57610246565b8063104709711461024b57806313e56313146102c1578063158ef93e146103375780631ef1d9911461036657806323c7b3da146103bc575b600080fd5b34801561025757600080fd5b506102a46004803603604081101561026e57600080fd5b81019080803573ffffffffffffffffffffffffffffffffffffffff16906020019092919080359060200190929190505050611151565b604051808381526020018281526020019250505060405180910390f35b3480156102cd57600080fd5b5061031a600480360360408110156102e457600080fd5b81019080803573ffffffffffffffffffffffffffffffffffffffff1690602001909291908035906020019092919050505061122c565b604051808381526020018281526020019250505060405180910390f35b34801561034357600080fd5b5061034c611307565b604051808215151515815260200191505060405180910390f35b34801561037257600080fd5b5061039f6004803603602081101561038957600080fd5b810190808035906020019092919050505061131a565b604051808381526020018281526020019250505060405180910390f35b3480156103c857600080fd5b5061040b600480360360208110156103df57600080fd5b81019080803573ffffffffffffffffffffffffffffffffffffffff16906020019092919050505061133e565b604051808273ffffffffffffffffffffffffffffffffffffffff1673ffffffffffffffffffffffffffffffffffffffff16815260200191505060405180910390f35b34801561045957600080fd5b506104906004803603604081101561047057600080fd5b8101908080359060200190929190803590602001909291905050506113f1565b6040518082815260200191505060405180910390f35b3480156104b257600080fd5b506104df600480360360208110156104c957600080fd5b810190808035906020019092919050505061188f565b6040518082815260200191505060405180910390f35b34801561050157600080fd5b506105446004803603602081101561051857600080fd5b81019080803573ffffffffffffffffffffffffffffffffffffffff169060200190929190505050611c55565b60405180826bffffffffffffffffffffffff166bffffffffffffffffffffffff16815260200191505060405180910390f35b34801561058257600080fd5b506105c56004803603602081101561059957600080fd5b81019080803573ffffffffffffffffffffffffffffffffffffffff169060200190929190505050611cc1565b6040518082815260200191505060405180910390f35b3480156105e757600080fd5b5061064b600480360360808110156105fe57600080fd5b81019080803573ffffffffffffffffffffffffffffffffffffffff169060200190929190803560ff1690602001909291908035906020019092919080359060200190929190505050611d12565b005b34801561065957600080fd5b506106866004803603602081101561067057600080fd5b810190808035906020019092919050505061231e565b005b34801561069457600080fd5b506106cb600480360360408110156106ab57600080fd5b810190808035906020019092919080359060200190929190505050612372565b6040518082815260200191505060405180910390f35b3480156106ed57600080fd5b506106f6612408565b005b34801561070457600080fd5b506107476004803603602081101561071b57600080fd5b81019080803573ffffffffffffffffffffffffffffffffffffffff169060200190929190505050612530565b604051808215151515815260200191505060405180910390f35b34801561076d57600080fd5b506107b06004803603602081101561078457600080fd5b81019080803573ffffffffffffffffffffffffffffffffffffffff169060200190929190505050612957565b604051808273ffffffffffffffffffffffffffffffffffffffff1673ffffffffffffffffffffffffffffffffffffffff16815260200191505060405180910390f35b3480156107fe57600080fd5b506108356004803603604081101561081557600080fd5b810190808035906020019092919080359060200190929190505050612aa0565b6040518082815260200191505060405180910390f35b34801561085757600080fd5b5061089a6004803603602081101561086e57600080fd5b81019080803573ffffffffffffffffffffffffffffffffffffffff169060200190929190505050612d2b565b6040518080602001828103825283818151815260200191508051906020019060200280838360005b838110156108dd5780820151818401526020810190506108c2565b505050509050019250505060405180910390f35b3480156108fd57600080fd5b50610906612dce565b005b34801561091457600080fd5b5061091d612ef7565b005b34801561092b57600080fd5b50610934612fc7565b604051808273ffffffffffffffffffffffffffffffffffffffff1673ffffffffffffffffffffffffffffffffffffffff16815260200191505060405180910390f35b34801561098257600080fd5b506109e66004803603608081101561099957600080fd5b81019080803573ffffffffffffffffffffffffffffffffffffffff169060200190929190803560ff1690602001909291908035906020019092919080359060200190929190505050612fed565b005b3480156109f457600080fd5b50610a2160048036036020811015610a0b57600080fd5b81019080803590602001909291905050506133da565b005b348015610a2f57600080fd5b50610a386133dd565b604051808273ffffffffffffffffffffffffffffffffffffffff1673ffffffffffffffffffffffffffffffffffffffff16815260200191505060405180910390f35b348015610a8657600080fd5b50610a8f613406565b604051808215151515815260200191505060405180910390f35b348015610ab557600080fd5b50610abe61345d565b6040518082815260200191505060405180910390f35b348015610ae057600080fd5b50610ae9613463565b604051808215151515815260200191505060405180910390f35b348015610b0f57600080fd5b50610b5060048036036060811015610b2657600080fd5b810190808035906020019092919080359060200190929190803590602001909291905050506135f9565b6040518082815260200191505060405180910390f35b348015610b7257600080fd5b50610bb560048036036020811015610b8957600080fd5b81019080803573ffffffffffffffffffffffffffffffffffffffff169060200190929190505050613886565b604051808273ffffffffffffffffffffffffffffffffffffffff1673ffffffffffffffffffffffffffffffffffffffff16815260200191505060405180910390f35b348015610c0357600080fd5b50610c4660048036036020811015610c1a57600080fd5b81019080803573ffffffffffffffffffffffffffffffffffffffff169060200190929190505050613939565b005b348015610c5457600080fd5b50610c9760048036036020811015610c6b57600080fd5b81019080803573ffffffffffffffffffffffffffffffffffffffff1690602001909291905050506139d1565b604051808273ffffffffffffffffffffffffffffffffffffffff1673ffffffffffffffffffffffffffffffffffffffff16815260200191505060405180910390f35b348015610ce557600080fd5b50610d2860048036036020811015610cfc57600080fd5b81019080803573ffffffffffffffffffffffffffffffffffffffff169060200190929190505050613b1a565b604051808273ffffffffffffffffffffffffffffffffffffffff1673ffffffffffffffffffffffffffffffffffffffff16815260200191505060405180910390f35b610d9660048036036020811015610d8057600080fd5b8101908080359060200190929190505050613c63565b6040518082815260200191505060405180910390f35b348015610db857600080fd5b50610dfb60048036036020811015610dcf57600080fd5b81019080803573ffffffffffffffffffffffffffffffffffffffff169060200190929190505050613e25565b604051808273ffffffffffffffffffffffffffffffffffffffff1673ffffffffffffffffffffffffffffffffffffffff16815260200191505060405180910390f35b348015610e4957600080fd5b50610e52613e58565b6040518082815260200191505060405180910390f35b348015610e7457600080fd5b50610ed860048036036080811015610e8b57600080fd5b81019080803573ffffffffffffffffffffffffffffffffffffffff169060200190929190803560ff1690602001909291908035906020019092919080359060200190929190505050613e5e565b005b348015610ee657600080fd5b50610f2960048036036020811015610efd57600080fd5b81019080803573ffffffffffffffffffffffffffffffffffffffff16906020019092919050505061425e565b604051808215151515815260200191505060405180910390f35b348015610f4f57600080fd5b50610f9c60048036036040811015610f6657600080fd5b81019080803573ffffffffffffffffffffffffffffffffffffffff169060200190929190803590602001909291905050506142ba565b005b348015610faa57600080fd5b50610fed60048036036020811015610fc157600080fd5b81019080803573ffffffffffffffffffffffffffffffffffffffff16906020019092919050505061430b565b604051808273ffffffffffffffffffffffffffffffffffffffff1673ffffffffffffffffffffffffffffffffffffffff16815260200191505060405180910390f35b34801561103b57600080fd5b506110446143be565b6040518082815260200191505060405180910390f35b34801561106657600080fd5b506110a96004803603602081101561107d57600080fd5b81019080803573ffffffffffffffffffffffffffffffffffffffff169060200190929190505050614475565b6040518080602001828103825283818151815260200191508051906020019060200280838360005b838110156110ec5780820151818401526020810190506110d1565b505050509050019250505060405180910390f35b34801561110c57600080fd5b5061114f6004803603602081101561112357600080fd5b81019080803573ffffffffffffffffffffffffffffffffffffffff169060200190929190505050614518565b005b6000806000600560008673ffffffffffffffffffffffffffffffffffffffff1673ffffffffffffffffffffffffffffffffffffffff1681526020019081526020016000209050600081600401600101600086815260200190815260200160002090508060000160009054906101000a90046fffffffffffffffffffffffffffffffff168160000160109054906101000a90046fffffffffffffffffffffffffffffffff16816fffffffffffffffffffffffffffffffff169150806fffffffffffffffffffffffffffffffff1690509350935050509250929050565b6000806000600560008673ffffffffffffffffffffffffffffffffffffffff1673ffffffffffffffffffffffffffffffffffffffff1681526020019081526020016000209050600081600401600001600086815260200190815260200160002090508060000160009054906101000a90046fffffffffffffffffffffffffffffffff168160000160109054906101000a90046fffffffffffffffffffffffffffffffff16816fffffffffffffffffffffffffffffffff169150806fffffffffffffffffffffffffffffffff1690509350935050509250929050565b600160009054906101000a900460ff1681565b60076020528060005260406000206000915090508060000154908060010154905082565b600080600560008473ffffffffffffffffffffffffffffffffffffffff1673ffffffffffffffffffffffffffffffffffffffff16815260200190815260200160002060020160000160009054906101000a900473ffffffffffffffffffffffffffffffffffffffff169050600073ffffffffffffffffffffffffffffffffffffffff168173ffffffffffffffffffffffffffffffffffffffff1614156113e757829150506113ec565b809150505b919050565b60006001600080828254019250508190555060008054905033600560008273ffffffffffffffffffffffffffffffffffffffff1673ffffffffffffffffffffffffffffffffffffffff16815260200190815260200160002060000160009054906101000a900460ff1661146357600080fd5b33600061146f8261430b565b90506000600260009054906101000a900473ffffffffffffffffffffffffffffffffffffffff1673ffffffffffffffffffffffffffffffffffffffff16630b5855e16040518060400160405280600a81526020017f56616c696461746f7273000000000000000000000000000000000000000000008152506040518263ffffffff1660e01b81526004018080602001828103825283818151815260200191508051906020019080838360005b8381101561153657808201518184015260208101905061151b565b50505050905090810190601f1680156115635780820380516001836020036101000a031916815260200191505b509250505060206040518083038186803b15801561158057600080fd5b505afa158015611594573d6000803e3d6000fd5b505050506040513d60208110156115aa57600080fd5b810190808051906020019092919050505090508073ffffffffffffffffffffffffffffffffffffffff16639c97ea7f836040518263ffffffff1660e01b8152600401808273ffffffffffffffffffffffffffffffffffffffff1673ffffffffffffffffffffffffffffffffffffffff16815260200191505060206040518083038186803b15801561163a57600080fd5b505afa15801561164e573d6000803e3d6000fd5b505050506040513d602081101561166457600080fd5b81019080805190602001909291905050501561167f57600080fd5b61168833612530565b1561169257600080fd5b6000600560003373ffffffffffffffffffffffffffffffffffffffff1673ffffffffffffffffffffffffffffffffffffffff168152602001908152602001600020905060008160040160000160008a81526020019081526020016000209050898160000160009054906101000a90046fffffffffffffffffffffffffffffffff166fffffffffffffffffffffffffffffffff1610158015611733575060008a115b61173c57600080fd5b61178b826117858c8460000160009054906101000a90046fffffffffffffffffffffffffffffffff166fffffffffffffffffffffffffffffffff1661453590919063ffffffff16565b8b614555565b60006117a08a426148bc90919063ffffffff16565b90506000836004016001016000838152602001908152602001600020905061180d846118078e8460000160009054906101000a90046fffffffffffffffffffffffffffffffff166fffffffffffffffffffffffffffffffff166148bc90919063ffffffff16565b846148db565b3373ffffffffffffffffffffffffffffffffffffffff167fc01ecb89abbf2497d614583a60592242656d6a9712833c4af0cac60368fba1118d8d8560405180848152602001838152602001828152602001935050505060405180910390a2836001015499505050505050505050600054811461188857600080fd5b5092915050565b60006001600080828254019250508190555060008054905033600560008273ffffffffffffffffffffffffffffffffffffffff1673ffffffffffffffffffffffffffffffffffffffff16815260200190815260200160002060000160009054906101000a900460ff1661190157600080fd5b61190a33612530565b1561191457600080fd5b8342101561192157600080fd5b6000600560003373ffffffffffffffffffffffffffffffffffffffff1673ffffffffffffffffffffffffffffffffffffffff16815260200190815260200160002090506000816004016001016000878152602001908152602001600020905060008160000160009054906101000a90046fffffffffffffffffffffffffffffffff166fffffffffffffffffffffffffffffffff169050600081116119c457600080fd5b6119d0836000896148db565b6000600260009054906101000a900473ffffffffffffffffffffffffffffffffffffffff1673ffffffffffffffffffffffffffffffffffffffff16630b5855e16040518060400160405280600981526020017f476f6c64546f6b656e00000000000000000000000000000000000000000000008152506040518263ffffffff1660e01b81526004018080602001828103825283818151815260200191508051906020019080838360005b83811015611a95578082015181840152602081019050611a7a565b50505050905090810190601f168015611ac25780820380516001836020036101000a031916815260200191505b509250505060206040518083038186803b158015611adf57600080fd5b505afa158015611af3573d6000803e3d6000fd5b505050506040513d6020811015611b0957600080fd5b810190808051906020019092919050505090508073ffffffffffffffffffffffffffffffffffffffff1663a9059cbb33846040518363ffffffff1660e01b8152600401808373ffffffffffffffffffffffffffffffffffffffff1673ffffffffffffffffffffffffffffffffffffffff16815260200182815260200192505050602060405180830381600087803b158015611ba357600080fd5b505af1158015611bb7573d6000803e3d6000fd5b505050506040513d6020811015611bcd57600080fd5b8101908080519060200190929190505050611be757600080fd5b3373ffffffffffffffffffffffffffffffffffffffff167f7fcf532c15f0a6db0bd6d0e038bea71d30d808c7d98cb3bf7268a95bf5081b65836040518082815260200191505060405180910390a28360010154965050505050506000548114611c4f57600080fd5b50919050565b600080600560008473ffffffffffffffffffffffffffffffffffffffff1673ffffffffffffffffffffffffffffffffffffffff16815260200190815260200160002090508060030160000160149054906101000a90046bffffffffffffffffffffffff16915050919050565b600080600560008473ffffffffffffffffffffffffffffffffffffffff1673ffffffffffffffffffffffffffffffffffffffff16815260200190815260200160002090508060010154915050919050565b6001600080828254019250508190555060008054905033600560008273ffffffffffffffffffffffffffffffffffffffff1673ffffffffffffffffffffffffffffffffffffffff16815260200190815260200160002060000160009054906101000a900460ff16611d8257600080fd5b336000611d8e8261430b565b90506000600260009054906101000a900473ffffffffffffffffffffffffffffffffffffffff1673ffffffffffffffffffffffffffffffffffffffff16630b5855e16040518060400160405280600a81526020017f56616c696461746f7273000000000000000000000000000000000000000000008152506040518263ffffffff1660e01b81526004018080602001828103825283818151815260200191508051906020019080838360005b83811015611e55578082015181840152602081019050611e3a565b50505050905090810190601f168015611e825780820380516001836020036101000a031916815260200191505b509250505060206040518083038186803b158015611e9f57600080fd5b505afa158015611eb3573d6000803e3d6000fd5b505050506040513d6020811015611ec957600080fd5b810190808051906020019092919050505090508073ffffffffffffffffffffffffffffffffffffffff16639c97ea7f836040518263ffffffff1660e01b8152600401808273ffffffffffffffffffffffffffffffffffffffff1673ffffffffffffffffffffffffffffffffffffffff16815260200191505060206040518083038186803b158015611f5957600080fd5b505afa158015611f6d573d6000803e3d6000fd5b505050506040513d6020811015611f8357600080fd5b810190808051906020019092919050505015611f9e57600080fd5b88600560008273ffffffffffffffffffffffffffffffffffffffff1673ffffffffffffffffffffffffffffffffffffffff16815260200190815260200160002060000160009054906101000a900460ff1615611ff957600080fd5b89600073ffffffffffffffffffffffffffffffffffffffff16600660008373ffffffffffffffffffffffffffffffffffffffff1673ffffffffffffffffffffffffffffffffffffffff16815260200190815260200160002060009054906101000a900473ffffffffffffffffffffffffffffffffffffffff1673ffffffffffffffffffffffffffffffffffffffff161461209257600080fd5b60006120a0338c8c8c614d07565b90508b73ffffffffffffffffffffffffffffffffffffffff168173ffffffffffffffffffffffffffffffffffffffff16146120da57600080fd5b6000600560003373ffffffffffffffffffffffffffffffffffffffff1673ffffffffffffffffffffffffffffffffffffffff16815260200190815260200160002090506000600660008360080160000160009054906101000a900473ffffffffffffffffffffffffffffffffffffffff1673ffffffffffffffffffffffffffffffffffffffff1673ffffffffffffffffffffffffffffffffffffffff16815260200190815260200160002060006101000a81548173ffffffffffffffffffffffffffffffffffffffff021916908373ffffffffffffffffffffffffffffffffffffffff1602179055508c8160080160000160006101000a81548173ffffffffffffffffffffffffffffffffffffffff021916908373ffffffffffffffffffffffffffffffffffffffff16021790555033600660008f73ffffffffffffffffffffffffffffffffffffffff1673ffffffffffffffffffffffffffffffffffffffff16815260200190815260200160002060006101000a81548173ffffffffffffffffffffffffffffffffffffffff021916908373ffffffffffffffffffffffffffffffffffffffff1602179055503373ffffffffffffffffffffffffffffffffffffffff167f9593447186c319ece14926c25957c6d55fa776580a3a8ab565d5453ab45db2c48e604051808273ffffffffffffffffffffffffffffffffffffffff1673ffffffffffffffffffffffffffffffffffffffff16815260200191505060405180910390a25050505050505050600054811461231757600080fd5b5050505050565b612326613406565b61232f57600080fd5b806003819055507f8012f205054a5af624c507510908408c47061ad5c4cefb1a7f8f6ac734dff28a6003546040518082815260200191505060405180910390a150565b600080612710905060006123926201518085614e8e90919063ffffffff16565b905060006123d6836123c8601e6123ba876123ac88614eb4565b614f8690919063ffffffff16565b614e8e90919063ffffffff16565b6148bc90919063ffffffff16565b90506123fd836123ef8884614fbd90919063ffffffff16565b614e8e90919063ffffffff16565b935050505092915050565b33600560008273ffffffffffffffffffffffffffffffffffffffff1673ffffffffffffffffffffffffffffffffffffffff16815260200190815260200160002060000160009054906101000a900460ff1661246257600080fd5b6000600560003373ffffffffffffffffffffffffffffffffffffffff1673ffffffffffffffffffffffffffffffffffffffff1681526020019081526020016000209050600115158160020160000160149054906101000a900460ff161515146124ca57600080fd5b60008160020160000160146101000a81548160ff0219169083151502179055503373ffffffffffffffffffffffffffffffffffffffff167ec97c83e8c62fb35f95b624d5fc10a08e5eae40822fc639a7afffea547cf5e760405160405180910390a25050565b60008061253c8361133e565b90506000600260009054906101000a900473ffffffffffffffffffffffffffffffffffffffff1673ffffffffffffffffffffffffffffffffffffffff16630b5855e16040518060400160405280600a81526020017f476f7665726e616e6365000000000000000000000000000000000000000000008152506040518263ffffffff1660e01b81526004018080602001828103825283818151815260200191508051906020019080838360005b838110156126035780820151818401526020810190506125e8565b50505050905090810190601f1680156126305780820380516001836020036101000a031916815260200191505b509250505060206040518083038186803b15801561264d57600080fd5b505afa158015612661573d6000803e3d6000fd5b505050506040513d602081101561267757600080fd5b810190808051906020019092919050505090506000600260009054906101000a900473ffffffffffffffffffffffffffffffffffffffff1673ffffffffffffffffffffffffffffffffffffffff16630b5855e16040518060400160405280600a81526020017f56616c696461746f7273000000000000000000000000000000000000000000008152506040518263ffffffff1660e01b81526004018080602001828103825283818151815260200191508051906020019080838360005b8381101561274f578082015181840152602081019050612734565b50505050905090810190601f16801561277c5780820380516001836020036101000a031916815260200191505b509250505060206040518083038186803b15801561279957600080fd5b505afa1580156127ad573d6000803e3d6000fd5b505050506040513d60208110156127c357600080fd5b810190808051906020019092919050505090508173ffffffffffffffffffffffffffffffffffffffff16635f8dd649846040518263ffffffff1660e01b8152600401808273ffffffffffffffffffffffffffffffffffffffff1673ffffffffffffffffffffffffffffffffffffffff16815260200191505060206040518083038186803b15801561285357600080fd5b505afa158015612867573d6000803e3d6000fd5b505050506040513d602081101561287d57600080fd5b81019080805190602001909291905050508061294d57508073ffffffffffffffffffffffffffffffffffffffff16635f8dd649846040518263ffffffff1660e01b8152600401808273ffffffffffffffffffffffffffffffffffffffff1673ffffffffffffffffffffffffffffffffffffffff16815260200191505060206040518083038186803b15801561291157600080fd5b505afa158015612925573d6000803e3d6000fd5b505050506040513d602081101561293b57600080fd5b81019080805190602001909291905050505b9350505050919050565b600080600660008473ffffffffffffffffffffffffffffffffffffffff1673ffffffffffffffffffffffffffffffffffffffff16815260200190815260200160002060009054906101000a900473ffffffffffffffffffffffffffffffffffffffff169050600073ffffffffffffffffffffffffffffffffffffffff168173ffffffffffffffffffffffffffffffffffffffff1614612a96578273ffffffffffffffffffffffffffffffffffffffff16600560008373ffffffffffffffffffffffffffffffffffffffff1673ffffffffffffffffffffffffffffffffffffffff16815260200190815260200160002060030160000160009054906101000a900473ffffffffffffffffffffffffffffffffffffffff1673ffffffffffffffffffffffffffffffffffffffff1614612a8d57600080fd5b80915050612a9b565b829150505b919050565b60006001600080828254019250508190555060008054905033600560008273ffffffffffffffffffffffffffffffffffffffff1673ffffffffffffffffffffffffffffffffffffffff16815260200190815260200160002060000160009054906101000a900460ff16612b1257600080fd5b428411612b1e57600080fd5b612b2733612530565b15612b3157600080fd5b6000600560003373ffffffffffffffffffffffffffffffffffffffff1673ffffffffffffffffffffffffffffffffffffffff168152602001908152602001600020905060008160040160010160008781526020019081526020016000209050868160000160009054906101000a90046fffffffffffffffffffffffffffffffff166fffffffffffffffffffffffffffffffff1610158015612bd25750600087115b612bdb57600080fd5b612c2a82612c24898460000160009054906101000a90046fffffffffffffffffffffffffffffffff166fffffffffffffffffffffffffffffffff1661453590919063ffffffff16565b886148db565b6000612c3f428861453590919063ffffffff16565b905060008360040160000160008381526020019081526020016000209050612cac84612ca68b8460000160009054906101000a90046fffffffffffffffffffffffffffffffff166fffffffffffffffffffffffffffffffff166148bc90919063ffffffff16565b84614555565b3373ffffffffffffffffffffffffffffffffffffffff167f23eaf77d2e8cdffa4f4c7205c5d7e52f64c8fbc2e773bb51aa5931bc1458324d8a848b60405180848152602001838152602001828152602001935050505060405180910390a28360010154965050505050506000548114612d2457600080fd5b5092915050565b60606000600560008473ffffffffffffffffffffffffffffffffffffffff1673ffffffffffffffffffffffffffffffffffffffff168152602001908152602001600020905080600401600301805480602002602001604051908101604052809291908181526020018280548015612dc157602002820191906000526020600020905b815481526020019060010190808311612dad575b5050505050915050919050565b33600560008273ffffffffffffffffffffffffffffffffffffffff1673ffffffffffffffffffffffffffffffffffffffff16815260200190815260200160002060000160009054906101000a900460ff16612e2857600080fd5b6000600560003373ffffffffffffffffffffffffffffffffffffffff1673ffffffffffffffffffffffffffffffffffffffff1681526020019081526020016000209050600015158160020160000160149054906101000a900460ff16151514612e9057600080fd5b60018160020160000160146101000a81548160ff0219169083151502179055503373ffffffffffffffffffffffffffffffffffffffff167f54be207d566cdc30594dc5f0e8ab6f617dc06cdd2c6664de44287ef73f0b732760405160405180910390a25050565b612eff613406565b612f0857600080fd5b600073ffffffffffffffffffffffffffffffffffffffff166001809054906101000a900473ffffffffffffffffffffffffffffffffffffffff1673ffffffffffffffffffffffffffffffffffffffff167f8be0079c531659141344cd1fd0a4f28419497f9722a3daafe3b4186f6b6457e060405160405180910390a360006001806101000a81548173ffffffffffffffffffffffffffffffffffffffff021916908373ffffffffffffffffffffffffffffffffffffffff160217905550565b600260009054906101000a900473ffffffffffffffffffffffffffffffffffffffff1681565b6001600080828254019250508190555060008054905033600560008273ffffffffffffffffffffffffffffffffffffffff1673ffffffffffffffffffffffffffffffffffffffff16815260200190815260200160002060000160009054906101000a900460ff1661305d57600080fd5b85600560008273ffffffffffffffffffffffffffffffffffffffff1673ffffffffffffffffffffffffffffffffffffffff16815260200190815260200160002060000160009054906101000a900460ff16156130b857600080fd5b86600073ffffffffffffffffffffffffffffffffffffffff16600660008373ffffffffffffffffffffffffffffffffffffffff1673ffffffffffffffffffffffffffffffffffffffff16815260200190815260200160002060009054906101000a900473ffffffffffffffffffffffffffffffffffffffff1673ffffffffffffffffffffffffffffffffffffffff161461315157600080fd5b600061315f33898989614d07565b90508873ffffffffffffffffffffffffffffffffffffffff168173ffffffffffffffffffffffffffffffffffffffff161461319957600080fd5b6000600560003373ffffffffffffffffffffffffffffffffffffffff1673ffffffffffffffffffffffffffffffffffffffff16815260200190815260200160002090506000600660008360030160000160009054906101000a900473ffffffffffffffffffffffffffffffffffffffff1673ffffffffffffffffffffffffffffffffffffffff1673ffffffffffffffffffffffffffffffffffffffff16815260200190815260200160002060006101000a81548173ffffffffffffffffffffffffffffffffffffffff021916908373ffffffffffffffffffffffffffffffffffffffff160217905550898160030160000160006101000a81548173ffffffffffffffffffffffffffffffffffffffff021916908373ffffffffffffffffffffffffffffffffffffffff16021790555033600660008c73ffffffffffffffffffffffffffffffffffffffff1673ffffffffffffffffffffffffffffffffffffffff16815260200190815260200160002060006101000a81548173ffffffffffffffffffffffffffffffffffffffff021916908373ffffffffffffffffffffffffffffffffffffffff1602179055503373ffffffffffffffffffffffffffffffffffffffff167f4f3ea5a4fff125e4e800396c0c85dd9a6c0979c09023618505a658139520beff8b604051808273ffffffffffffffffffffffffffffffffffffffff1673ffffffffffffffffffffffffffffffffffffffff16815260200191505060405180910390a2505050505060005481146133d357600080fd5b5050505050565b50565b60006001809054906101000a900473ffffffffffffffffffffffffffffffffffffffff16905090565b60006001809054906101000a900473ffffffffffffffffffffffffffffffffffffffff1673ffffffffffffffffffffffffffffffffffffffff163373ffffffffffffffffffffffffffffffffffffffff1614905090565b60045481565b600033600560008273ffffffffffffffffffffffffffffffffffffffff1673ffffffffffffffffffffffffffffffffffffffff16815260200190815260200160002060000160009054906101000a900460ff16156134c057600080fd5b33600073ffffffffffffffffffffffffffffffffffffffff16600660008373ffffffffffffffffffffffffffffffffffffffff1673ffffffffffffffffffffffffffffffffffffffff16815260200190815260200160002060009054906101000a900473ffffffffffffffffffffffffffffffffffffffff1673ffffffffffffffffffffffffffffffffffffffff161461355957600080fd5b6000600560003373ffffffffffffffffffffffffffffffffffffffff1673ffffffffffffffffffffffffffffffffffffffff168152602001908152602001600020905060018160000160006101000a81548160ff021916908315150217905550438160030160000160146101000a8154816bffffffffffffffffffffffff02191690836bffffffffffffffffffffffff1602179055506001935050505090565b60006001600080828254019250508190555060008054905033600560008273ffffffffffffffffffffffffffffffffffffffff1673ffffffffffffffffffffffffffffffffffffffff16815260200190815260200160002060000160009054906101000a900460ff1661366b57600080fd5b61367433612530565b1561367e57600080fd5b60008611801561368e5750600084115b61369757600080fd5b6000600560003373ffffffffffffffffffffffffffffffffffffffff1673ffffffffffffffffffffffffffffffffffffffff168152602001908152602001600020905060008160040160000160008881526020019081526020016000209050878160000160009054906101000a90046fffffffffffffffffffffffffffffffff166fffffffffffffffffffffffffffffffff16101561373557600080fd5b6137848261377e8a8460000160009054906101000a90046fffffffffffffffffffffffffffffffff166fffffffffffffffffffffffffffffffff1661453590919063ffffffff16565b89614555565b600061379987896148bc90919063ffffffff16565b9050600083600401600001600083815260200190815260200160002060000160009054906101000a90046fffffffffffffffffffffffffffffffff166fffffffffffffffffffffffffffffffff169050613806846138008c846148bc90919063ffffffff16565b84614555565b3373ffffffffffffffffffffffffffffffffffffffff167f1c6b95ab1be02f5ba22eb9ca2b30a343f0d2fb43be89402070f9df1242ee5d1d8b8b8b60405180848152602001838152602001828152602001935050505060405180910390a2836001015496505050505050600054811461387e57600080fd5b509392505050565b600080600560008473ffffffffffffffffffffffffffffffffffffffff1673ffffffffffffffffffffffffffffffffffffffff16815260200190815260200160002060030160000160009054906101000a900473ffffffffffffffffffffffffffffffffffffffff169050600073ffffffffffffffffffffffffffffffffffffffff168173ffffffffffffffffffffffffffffffffffffffff16141561392f5782915050613934565b809150505b919050565b613941613406565b61394a57600080fd5b80600260006101000a81548173ffffffffffffffffffffffffffffffffffffffff021916908373ffffffffffffffffffffffffffffffffffffffff1602179055508073ffffffffffffffffffffffffffffffffffffffff167f27fe5f0c1c3b1ed427cc63d0f05759ffdecf9aec9e18d31ef366fc8a6cb5dc3b60405160405180910390a250565b600080600660008473ffffffffffffffffffffffffffffffffffffffff1673ffffffffffffffffffffffffffffffffffffffff16815260200190815260200160002060009054906101000a900473ffffffffffffffffffffffffffffffffffffffff169050600073ffffffffffffffffffffffffffffffffffffffff168173ffffffffffffffffffffffffffffffffffffffff1614613b10578273ffffffffffffffffffffffffffffffffffffffff16600560008373ffffffffffffffffffffffffffffffffffffffff1673ffffffffffffffffffffffffffffffffffffffff16815260200190815260200160002060020160000160009054906101000a900473ffffffffffffffffffffffffffffffffffffffff1673ffffffffffffffffffffffffffffffffffffffff1614613b0757600080fd5b80915050613b15565b829150505b919050565b600080600660008473ffffffffffffffffffffffffffffffffffffffff1673ffffffffffffffffffffffffffffffffffffffff16815260200190815260200160002060009054906101000a900473ffffffffffffffffffffffffffffffffffffffff169050600073ffffffffffffffffffffffffffffffffffffffff168173ffffffffffffffffffffffffffffffffffffffff1614613c59578273ffffffffffffffffffffffffffffffffffffffff16600560008373ffffffffffffffffffffffffffffffffffffffff1673ffffffffffffffffffffffffffffffffffffffff16815260200190815260200160002060080160000160009054906101000a900473ffffffffffffffffffffffffffffffffffffffff1673ffffffffffffffffffffffffffffffffffffffff1614613c5057600080fd5b80915050613c5e565b829150505b919050565b60006001600080828254019250508190555060008054905033600560008273ffffffffffffffffffffffffffffffffffffffff1673ffffffffffffffffffffffffffffffffffffffff16815260200190815260200160002060000160009054906101000a900460ff16613cd557600080fd5b613cde33612530565b15613ce857600080fd5b600034118015613cfa57506003548411155b613d0357600080fd5b6000600560003373ffffffffffffffffffffffffffffffffffffffff1673ffffffffffffffffffffffffffffffffffffffff168152602001908152602001600020905060008160040160000160008781526020019081526020016000209050613db182613dab348460000160009054906101000a90046fffffffffffffffffffffffffffffffff166fffffffffffffffffffffffffffffffff166148bc90919063ffffffff16565b88614555565b3373ffffffffffffffffffffffffffffffffffffffff167fbb978b4f9f9b50600f24f1453a3e1f92140bb1e0487721d56917ada3b3ceba063488604051808381526020018281526020019250505060405180910390a2816001015494505050506000548114613e1f57600080fd5b50919050565b60066020528060005260406000206000915054906101000a900473ffffffffffffffffffffffffffffffffffffffff1681565b60035481565b6001600080828254019250508190555060008054905033600560008273ffffffffffffffffffffffffffffffffffffffff1673ffffffffffffffffffffffffffffffffffffffff16815260200190815260200160002060000160009054906101000a900460ff16613ece57600080fd5b85600560008273ffffffffffffffffffffffffffffffffffffffff1673ffffffffffffffffffffffffffffffffffffffff16815260200190815260200160002060000160009054906101000a900460ff1615613f2957600080fd5b86600073ffffffffffffffffffffffffffffffffffffffff16600660008373ffffffffffffffffffffffffffffffffffffffff1673ffffffffffffffffffffffffffffffffffffffff16815260200190815260200160002060009054906101000a900473ffffffffffffffffffffffffffffffffffffffff1673ffffffffffffffffffffffffffffffffffffffff1614613fc257600080fd5b6000613fd033898989614d07565b90508873ffffffffffffffffffffffffffffffffffffffff168173ffffffffffffffffffffffffffffffffffffffff161461400a57600080fd5b61401333612530565b1561401d57600080fd5b6000600560003373ffffffffffffffffffffffffffffffffffffffff1673ffffffffffffffffffffffffffffffffffffffff16815260200190815260200160002090506000600660008360020160000160009054906101000a900473ffffffffffffffffffffffffffffffffffffffff1673ffffffffffffffffffffffffffffffffffffffff1673ffffffffffffffffffffffffffffffffffffffff16815260200190815260200160002060006101000a81548173ffffffffffffffffffffffffffffffffffffffff021916908373ffffffffffffffffffffffffffffffffffffffff160217905550898160020160000160006101000a81548173ffffffffffffffffffffffffffffffffffffffff021916908373ffffffffffffffffffffffffffffffffffffffff16021790555033600660008c73ffffffffffffffffffffffffffffffffffffffff1673ffffffffffffffffffffffffffffffffffffffff16815260200190815260200160002060006101000a81548173ffffffffffffffffffffffffffffffffffffffff021916908373ffffffffffffffffffffffffffffffffffffffff1602179055503373ffffffffffffffffffffffffffffffffffffffff167f60b6d36aafaad2697dfb1e63562f48f4e930612caf6c79e1b91e2346d9680bce8b604051808273ffffffffffffffffffffffffffffffffffffffff1673ffffffffffffffffffffffffffffffffffffffff16815260200191505060405180910390a25050505050600054811461425757600080fd5b5050505050565b6000600560008373ffffffffffffffffffffffffffffffffffffffff1673ffffffffffffffffffffffffffffffffffffffff16815260200190815260200160002060020160000160149054906101000a900460ff169050919050565b600160009054906101000a900460ff16156142d457600080fd5b60018060006101000a81548160ff0219169083151502179055506142f733614ff7565b61430082613939565b806003819055505050565b600080600560008473ffffffffffffffffffffffffffffffffffffffff1673ffffffffffffffffffffffffffffffffffffffff16815260200190815260200160002060080160000160009054906101000a900473ffffffffffffffffffffffffffffffffffffffff169050600073ffffffffffffffffffffffffffffffffffffffff168173ffffffffffffffffffffffffffffffffffffffff1614156143b457829150506143b9565b809150505b919050565b600060016000808282540192505081905550600080549050600061444a576040517f08c379a00000000000000000000000000000000000000000000000000000000081526004018080602001828103825260088152602001807f44697361626c656400000000000000000000000000000000000000000000000081525060200191505060405180910390fd5b600061445533612957565b9050614460816150ef565b925050600054811461447157600080fd5b5090565b60606000600560008473ffffffffffffffffffffffffffffffffffffffff1673ffffffffffffffffffffffffffffffffffffffff16815260200190815260200160002090508060040160020180548060200260200160405190810160405280929190818152602001828054801561450b57602002820191906000526020600020905b8154815260200190600101908083116144f7575b5050505050915050919050565b614520613406565b61452957600080fd5b61453281614ff7565b50565b60008282111561454457600080fd5b600082840390508091505092915050565b600083600401600001600083815260200190815260200160002090508060000160009054906101000a90046fffffffffffffffffffffffffffffffff166fffffffffffffffffffffffffffffffff168314156145b057600080fd5b6000808260000160009054906101000a90046fffffffffffffffffffffffffffffffff166fffffffffffffffffffffffffffffffff1614156146e85784600401600201805490508260000160106101000a8154816fffffffffffffffffffffffffffffffff02191690836fffffffffffffffffffffffffffffffff160217905550838260000160006101000a8154816fffffffffffffffffffffffffffffffff02191690836fffffffffffffffffffffffffffffffff160217905550846004016002018390806001815401808255809150509060018203906000526020600020016000909192909190915055506146a78484612372565b90506146c08186600101546148bc90919063ffffffff16565b85600101819055506146dd816004546148bc90919063ffffffff16565b6004819055506148b5565b600084141561477d5761472d8260000160009054906101000a90046fffffffffffffffffffffffffffffffff166fffffffffffffffffffffffffffffffff1684612372565b905061474681866001015461453590919063ffffffff16565b85600101819055506147638160045461453590919063ffffffff16565b600481905550614778828660040160006155c9565b6148b4565b60006147bb8360000160009054906101000a90046fffffffffffffffffffffffffffffffff166fffffffffffffffffffffffffffffffff1685612372565b90506147c78585612372565b91506000818310614826576147e5828461453590919063ffffffff16565b90506147fe8188600101546148bc90919063ffffffff16565b876001018190555061481b816004546148bc90919063ffffffff16565b600481905550614876565b614839838361453590919063ffffffff16565b905061485281886001015461453590919063ffffffff16565b876001018190555061486f8160045461453590919063ffffffff16565b6004819055505b858460000160006101000a8154816fffffffffffffffffffffffffffffffff02191690836fffffffffffffffffffffffffffffffff16021790555050505b5b5050505050565b6000808284019050838110156148d157600080fd5b8091505092915050565b600083600401600101600083815260200190815260200160002090508060000160009054906101000a90046fffffffffffffffffffffffffffffffff166fffffffffffffffffffffffffffffffff1683141561493657600080fd5b60008160000160009054906101000a90046fffffffffffffffffffffffffffffffff166fffffffffffffffffffffffffffffffff161415614ac55783600401600301805490508160000160106101000a8154816fffffffffffffffffffffffffffffffff02191690836fffffffffffffffffffffffffffffffff160217905550828160000160006101000a8154816fffffffffffffffffffffffffffffffff02191690836fffffffffffffffffffffffffffffffff16021790555083600401600301829080600181540180825580915050906001820390600052602060002001600090919290919091505550614a6b8160000160009054906101000a90046fffffffffffffffffffffffffffffffff166fffffffffffffffffffffffffffffffff1685600101546148bc90919063ffffffff16565b8460010181905550614aba8160000160009054906101000a90046fffffffffffffffffffffffffffffffff166fffffffffffffffffffffffffffffffff166004546148bc90919063ffffffff16565b600481905550614d01565b6000831415614b8057614b178160000160009054906101000a90046fffffffffffffffffffffffffffffffff166fffffffffffffffffffffffffffffffff16856001015461453590919063ffffffff16565b8460010181905550614b668160000160009054906101000a90046fffffffffffffffffffffffffffffffff166fffffffffffffffffffffffffffffffff1660045461453590919063ffffffff16565b600481905550614b7b818560040160016155c9565b614d00565b60008160000160009054906101000a90046fffffffffffffffffffffffffffffffff166fffffffffffffffffffffffffffffffff168410614c4157614c008260000160009054906101000a90046fffffffffffffffffffffffffffffffff166fffffffffffffffffffffffffffffffff168561453590919063ffffffff16565b9050614c198186600101546148bc90919063ffffffff16565b8560010181905550614c36816004546148bc90919063ffffffff16565b600481905550614cc3565b614c86848360000160009054906101000a90046fffffffffffffffffffffffffffffffff166fffffffffffffffffffffffffffffffff1661453590919063ffffffff16565b9050614c9f81866001015461453590919063ffffffff16565b8560010181905550614cbc8160045461453590919063ffffffff16565b6004819055505b838260000160006101000a8154816fffffffffffffffffffffffffffffffff02191690836fffffffffffffffffffffffffffffffff160217905550505b5b50505050565b60008085604051602001808273ffffffffffffffffffffffffffffffffffffffff1673ffffffffffffffffffffffffffffffffffffffff1660601b815260140191505060405160208183030381529060405280519060200120905060606040518060400160405280601c81526020017f19457468657265756d205369676e6564204d6573736167653a0a3332000000008152509050600081836040516020018083805190602001908083835b60208310614dd65780518252602082019150602081019050602083039250614db3565b6001836020036101000a0380198251168184511680821785525050505050509050018281526020019250505060405160208183030381529060405280519060200120905060018188888860405160008152602001604052604051808581526020018460ff1660ff1681526020018381526020018281526020019450505050506020604051602081039080840390855afa158015614e77573d6000803e3d6000fd5b505050602060405103519350505050949350505050565b6000808211614e9c57600080fd5b6000828481614ea757fe5b0490508091505092915050565b614ebc615a2b565b6000606490506000614ee9614eda8384614fbd90919063ffffffff16565b85614fbd90919063ffffffff16565b90506000614f146002614f066001856148bc90919063ffffffff16565b614e8e90919063ffffffff16565b905060008290505b80821015614f6657819050614f5f6002614f5184614f438688614e8e90919063ffffffff16565b6148bc90919063ffffffff16565b614e8e90919063ffffffff16565b9150614f1c565b604051806040016040528082815260200185815250945050505050919050565b6000614fb58360200151614fa7848660000151614fbd90919063ffffffff16565b614e8e90919063ffffffff16565b905092915050565b600080831415614fd05760009050614ff1565b6000828402905082848281614fe157fe5b0414614fec57600080fd5b809150505b92915050565b600073ffffffffffffffffffffffffffffffffffffffff168173ffffffffffffffffffffffffffffffffffffffff16141561503157600080fd5b8073ffffffffffffffffffffffffffffffffffffffff166001809054906101000a900473ffffffffffffffffffffffffffffffffffffffff1673ffffffffffffffffffffffffffffffffffffffff167f8be0079c531659141344cd1fd0a4f28419497f9722a3daafe3b4186f6b6457e060405160405180910390a3806001806101000a81548173ffffffffffffffffffffffffffffffffffffffff021916908373ffffffffffffffffffffffffffffffffffffffff16021790555050565b600080600560008473ffffffffffffffffffffffffffffffffffffffff1673ffffffffffffffffffffffffffffffffffffffff16815260200190815260200160002090506000816003019050600061515160014361453590919063ffffffff16565b90506000600760008460000160149054906101000a90046bffffffffffffffffffffffff166bffffffffffffffffffffffff168152602001908152602001600020905060006007600084815260200190815260200160002090506151d38260405180604001604052908160008201548152602001600182015481525050615837565b158061520457506152028160405180604001604052908160008201548152602001600182015481525050615837565b155b15615217576000955050505050506155c4565b61521f615a2b565b6152708360405180604001604052908160008201548152602001600182015481525050836040518060400160405290816000820154815260200160018201548152505061585690919063ffffffff16565b905061527b81615837565b6152ed576040517f08c379a000000000000000000000000000000000000000000000000000000000815260040180806020018281038252601d8152602001807f526577617264732077656967687420646f6573206e6f7420657869737400000081525060200191505060405180910390fd5b6000615306876001015483614f8690919063ffffffff16565b9050848660000160146101000a8154816bffffffffffffffffffffffff02191690836bffffffffffffffffffffffff16021790555060008111156155b957600061534f8a613886565b90506000600260009054906101000a900473ffffffffffffffffffffffffffffffffffffffff1673ffffffffffffffffffffffffffffffffffffffff16630b5855e16040518060400160405280600981526020017f476f6c64546f6b656e00000000000000000000000000000000000000000000008152506040518263ffffffff1660e01b81526004018080602001828103825283818151815260200191508051906020019080838360005b838110156154165780820151818401526020810190506153fb565b50505050905090810190601f1680156154435780820380516001836020036101000a031916815260200191505b509250505060206040518083038186803b15801561546057600080fd5b505afa158015615474573d6000803e3d6000fd5b505050506040513d602081101561548a57600080fd5b810190808051906020019092919050505090508073ffffffffffffffffffffffffffffffffffffffff1663a9059cbb83856040518363ffffffff1660e01b8152600401808373ffffffffffffffffffffffffffffffffffffffff1673ffffffffffffffffffffffffffffffffffffffff16815260200182815260200192505050602060405180830381600087803b15801561552457600080fd5b505af1158015615538573d6000803e3d6000fd5b505050506040513d602081101561554e57600080fd5b810190808051906020019092919050505061556857600080fd5b8173ffffffffffffffffffffffffffffffffffffffff167f7fcf532c15f0a6db0bd6d0e038bea71d30d808c7d98cb3bf7268a95bf5081b65846040518082815260200191505060405180910390a250505b809750505050505050505b919050565b60008060018111156155d757fe5b8260018111156155e357fe5b14156156d3576156046001846002018054905061453590919063ffffffff16565b90508360000160109054906101000a90046fffffffffffffffffffffffffffffffff1683600001600085600201848154811061563c57fe5b9060005260206000200154815260200190815260200160002060000160106101000a8154816fffffffffffffffffffffffffffffffff02191690836fffffffffffffffffffffffffffffffff1602179055506156ce836002018560000160109054906101000a90046fffffffffffffffffffffffffffffffff166fffffffffffffffffffffffffffffffff16836158f6565b6157b9565b6156ee6001846003018054905061453590919063ffffffff16565b90508360000160109054906101000a90046fffffffffffffffffffffffffffffffff1683600101600085600301848154811061572657fe5b9060005260206000200154815260200190815260200160002060000160106101000a8154816fffffffffffffffffffffffffffffffff02191690836fffffffffffffffffffffffffffffffff1602179055506157b8836003018560000160109054906101000a90046fffffffffffffffffffffffffffffffff166fffffffffffffffffffffffffffffffff16836158f6565b5b60008460000160106101000a8154816fffffffffffffffffffffffffffffffff02191690836fffffffffffffffffffffffffffffffff16021790555060008460000160006101000a8154816fffffffffffffffffffffffffffffffff02191690836fffffffffffffffffffffffffffffffff16021790555050505050565b6000808260000151118061584f575060008260200151115b9050919050565b61585e615a2b565b6158688383615956565b61587157600080fd5b6158ee60405180604001604052806158c661589d87602001518760000151614fbd90919063ffffffff16565b6158b887602001518960000151614fbd90919063ffffffff16565b61453590919063ffffffff16565b81526020016158e685602001518760200151614fbd90919063ffffffff16565b815250615998565b905092915050565b82818154811061590257fe5b906000526020600020015483838154811061591957fe5b9060005260206000200181905550600083828154811061593557fe5b90600052602060002001819055508083816159509190615a45565b50505050565b600061597383602001518360000151614fbd90919063ffffffff16565b61598e83602001518560000151614fbd90919063ffffffff16565b1015905092915050565b6159a0615a2b565b6000826020015190506000836000015190505b600081146159d55760008183816159c657fe5b069050819250809150506159b3565b6159dd615a2b565b60405180604001604052806159ff858860000151614e8e90919063ffffffff16565b8152602001615a1b858860200151614e8e90919063ffffffff16565b8152509050809350505050919050565b604051806040016040528060008152602001600081525090565b815481835581811115615a6c57818360005260206000209182019101615a6b9190615a71565b5b505050565b615a9391905b80821115615a8f576000816000905550600101615a77565b5090565b9056fea165627a7a72305820ec83d9e1e4c8e831d3bab314e0616ed9e47fe5fe20b62bfcd5571d82eab3be480029",
  "source": "pragma solidity ^0.5.8;\n\nimport \"openzeppelin-solidity/contracts/utils/ReentrancyGuard.sol\";\nimport \"openzeppelin-solidity/contracts/math/SafeMath.sol\";\nimport \"openzeppelin-solidity/contracts/ownership/Ownable.sol\";\n\nimport \"./interfaces/IBondedDeposits.sol\";\nimport \"./interfaces/IGovernance.sol\";\nimport \"./interfaces/IValidators.sol\";\n\nimport \"../common/Initializable.sol\";\nimport \"../common/UsingRegistry.sol\";\nimport \"../common/interfaces/IERC20Token.sol\";\n// TODO(asa): Move to common\nimport \"../stability/FractionUtil.sol\";\n\n\ncontract BondedDeposits is IBondedDeposits, ReentrancyGuard, Initializable, UsingRegistry {\n\n  using FractionUtil for FractionUtil.Fraction;\n  using SafeMath for uint256;\n\n  enum DepositType {\n    Bonded,\n    Notified\n  }\n\n  // TODO(asa): Remove index for gas efficiency if two updates to the same slot costs extra gas.\n  struct Deposit {\n    uint128 value;\n    uint128 index;\n  }\n\n  struct Deposits {\n    // Maps a notice period in seconds to a bonded deposit.\n    mapping(uint256 => Deposit) bonded;\n    // Maps an availability time in seconds since epoch to a notified deposit.\n    mapping(uint256 => Deposit) notified;\n    uint256[] noticePeriods;\n    uint256[] availabilityTimes;\n  }\n\n  struct Rewards {\n    // Each account may delegate their right to receive rewards rewards to exactly one address.\n    // This address must not hold an account and must not be delegated to by any other account or\n    // by the same account for any other purpose.\n    address delegate;\n    // The timestamp of the last time that rewards were redeemed.\n    uint96 lastRedeemed;\n  }\n\n  struct Voting {\n    // Each account may delegate their right to vote to exactly one address. This address must not\n    // hold an account and must not be delegated to by any other account or by the same account\n    // for any other purpose.\n    address delegate;\n    // Frozen accounts may not vote, but may redact votes.\n    bool frozen;\n  }\n\n  struct Validating {\n    // Each account may delegate the right to register a Validator or Validator Group to exactly\n    // one address. This address must not hold an account and must not be delegated to by any other\n    // account or by the same account for any other purpose.\n    address delegate;\n  }\n\n  struct Account {\n    bool exists;\n    // The weight of the account in validator elections, governance, and block rewards.\n    uint256 weight;\n    Voting voting;\n    Rewards rewards;\n    Deposits deposits;\n    Validating validating;\n  }\n\n  // TODO(asa): Add minNoticePeriod\n  uint256 public maxNoticePeriod;\n  uint256 public totalWeight;\n  mapping(address => Account) private accounts;\n  // Maps voting, rewards, and validating delegates to the account that delegated these rights.\n  mapping(address => address) public delegations;\n  // Maps a block number to the cumulative reward for an account with weight 1 since genesis.\n  mapping(uint256 => FractionUtil.Fraction) public cumulativeRewardWeights;\n\n  event MaxNoticePeriodSet(\n    uint256 maxNoticePeriod\n  );\n\n  event VotingDelegated(\n    address indexed account,\n    address delegate\n  );\n\n  event VotingFrozen(\n    address indexed account\n  );\n\n  event VotingUnfrozen(\n    address indexed account\n  );\n\n  event ValidatingDelegated(\n    address indexed account,\n    address delegate\n  );\n\n  event RewardsDelegated(\n    address indexed account,\n    address delegate\n  );\n\n  event DepositBonded(\n    address indexed account,\n    uint256 value,\n    uint256 noticePeriod\n  );\n\n  event DepositNotified(\n    address indexed account,\n    uint256 value,\n    uint256 noticePeriod,\n    uint256 availabilityTime\n  );\n\n  event DepositRebonded(\n    address indexed account,\n    uint256 value,\n    uint256 noticePeriod,\n    uint256 availabilityTime\n  );\n\n  event Withdrawal(\n    address indexed account,\n    uint256 value\n  );\n\n  event NoticePeriodIncreased(\n    address indexed account,\n    uint256 value,\n    uint256 noticePeriod,\n    uint256 increase\n  );\n\n  modifier isAccount(address account) {\n    require(accounts[account].exists);\n    _;\n  }\n\n  modifier isNotAccount(address account) {\n    require(!accounts[account].exists);\n    _;\n  }\n\n  // Reverts if rewards, voting, or validating rights have been delegated to `account`.\n  modifier isNotDelegate(address account) {\n    require(delegations[account] == address(0));\n    _;\n  }\n\n  // TODO(asa): Allow users to notify if they would continue to meet the registration\n  // requirements.\n  modifier isNotValidating(address account) {\n    address validator = getValidatorFromAccount(account);\n    IValidators validators = IValidators(registry.getAddressFor(VALIDATORS_REGISTRY_ID));\n    require(!validators.isValidating(validator));\n    _;\n  }\n\n  function initialize(address registryAddress, uint256 _maxNoticePeriod) external initializer {\n    _transferOwnership(msg.sender);\n    setRegistry(registryAddress);\n    maxNoticePeriod = _maxNoticePeriod;\n  }\n\n  /**\n   * @notice Sets the cumulative block reward for 1 unit of account weight.\n   * @param blockReward The total reward allocated to bonders for this block.\n   * @dev Called by the EVM at the end of the block.\n   */\n  function setCumulativeRewardWeight(uint256 blockReward) external {\n    return;\n    // TODO(asa): Modify ganache to set cumulativeRewardWeights.\n    // TODO(asa): Make inheritable `onlyVm` modifier.\n    // Only callable by the EVM.\n    // require(msg.sender == address(0), \"sender was not vm (reserved addr 0x0)\");\n    // FractionUtil.Fraction storage previousCumulativeRewardWeight = cumulativeRewardWeights[\n    //   block.number.sub(1)\n    // ];\n\n    // // This will be true the first time this is called by the EVM.\n    // if (!previousCumulativeRewardWeight.exists()) {\n    //   previousCumulativeRewardWeight.denominator = 1;\n    // }\n\n    // if (totalWeight > 0) {\n    //   FractionUtil.Fraction memory currentRewardWeight = FractionUtil.Fraction(\n    //     blockReward,\n    //     totalWeight\n    //   ).reduce();\n    //   cumulativeRewardWeights[block.number] = previousCumulativeRewardWeight.add(\n    //     currentRewardWeight\n    //   );\n    // } else {\n    //   cumulativeRewardWeights[block.number] = previousCumulativeRewardWeight;\n    // }\n  }\n\n  /**\n   * @notice Sets the maximum notice period for an account.\n   * @param _maxNoticePeriod The new maximum notice period.\n   */\n  function setMaxNoticePeriod(uint256 _maxNoticePeriod) external onlyOwner {\n    maxNoticePeriod = _maxNoticePeriod;\n    emit MaxNoticePeriodSet(maxNoticePeriod);\n  }\n\n  /**\n   * @notice Creates an account.\n   * @return True if account creation succeeded.\n   */\n  function createAccount()\n    external\n    isNotAccount(msg.sender)\n    isNotDelegate(msg.sender)\n    returns (bool)\n  {\n    Account storage account = accounts[msg.sender];\n    account.exists = true;\n    account.rewards.lastRedeemed = uint96(block.number);\n    return true;\n  }\n\n  /**\n   * @notice Redeems rewards accrued since the last redemption for the specified account.\n   * @return The amount of accrued rewards.\n   * @dev Fails if `msg.sender` is not the owner or rewards recipient of the account.\n   */\n  function redeemRewards() external nonReentrant returns (uint256) {\n    require(false, \"Disabled\");\n    address account = getAccountFromRewardsRecipient(msg.sender);\n    return _redeemRewards(account);\n  }\n\n  /**\n   * @notice Delegates the voting power of `msg.sender`'s account to another address.\n   * @param delegate The address to delegate to.\n   * @param v The recovery id of the incoming ECDSA signature.\n   * @param r Output value r of the ECDSA signature.\n   * @param s Output value s of the ECDSA signature.\n   * @dev Fails if the delegate address is already a delegate or has an account .\n   * @dev Fails if the current account is already voting.\n   * @dev v, r, s constitute `delegate`'s signature on `msg.sender`.\n   */\n  function delegateVoting(\n    address delegate,\n    uint8 v,\n    bytes32 r,\n    bytes32 s\n  )\n    external\n    nonReentrant\n    isAccount(msg.sender)\n    isNotAccount(delegate)\n    isNotDelegate(delegate)\n  {\n    // TODO(asa): Consider an additional prefix here.\n    address signer = getSignerOfAddress(msg.sender, v, r, s);\n    require(signer == delegate);\n    require(!isVoting(msg.sender));\n    Account storage account = accounts[msg.sender];\n    delegations[account.voting.delegate] = address(0);\n    account.voting.delegate = delegate;\n    delegations[delegate] = msg.sender;\n    emit VotingDelegated(msg.sender, delegate);\n  }\n\n  /**\n   * @notice Freezes the voting power of `msg.sender`'s account.\n   */\n  function freezeVoting() external isAccount(msg.sender) {\n    Account storage account = accounts[msg.sender];\n    require(account.voting.frozen == false);\n    account.voting.frozen = true;\n    emit VotingFrozen(msg.sender);\n  }\n\n  /**\n   * @notice Unfreezes the voting power of `msg.sender`'s account.\n   */\n  function unfreezeVoting() external isAccount(msg.sender) {\n    Account storage account = accounts[msg.sender];\n    require(account.voting.frozen == true);\n    account.voting.frozen = false;\n    emit VotingUnfrozen(msg.sender);\n  }\n\n  /**\n   * @notice Delegates the validating power of `msg.sender`'s account to another address.\n   * @param delegate The address to delegate to.\n   * @param v The recovery id of the incoming ECDSA signature.\n   * @param r Output value r of the ECDSA signature.\n   * @param s Output value s of the ECDSA signature.\n   * @dev Fails if the address is already a delegate or has an account .\n   * @dev Fails if the current account is already participating in validation.\n   * @dev v, r, s constitute `delegate`'s signature on `msg.sender`.\n   */\n  function delegateValidating(\n    address delegate,\n    uint8 v,\n    bytes32 r,\n    bytes32 s\n  )\n    external\n    nonReentrant\n    isAccount(msg.sender)\n    isNotValidating(msg.sender)\n    isNotAccount(delegate)\n    isNotDelegate(delegate)\n  {\n    // TODO(asa): Consider an additional prefix here.\n    address signer = getSignerOfAddress(msg.sender, v, r, s);\n    require(signer == delegate);\n    Account storage account = accounts[msg.sender];\n    delegations[account.validating.delegate] = address(0);\n    account.validating.delegate = delegate;\n    delegations[delegate] = msg.sender;\n    emit ValidatingDelegated(msg.sender, delegate);\n  }\n\n  /**\n   * @notice Delegates the rewards of `msg.sender`'s account to another address.\n   * @param delegate The address to delegate to.\n   * @param v The recovery id of the incoming ECDSA signature.\n   * @param r Output value r of the ECDSA signature.\n   * @param s Output value s of the ECDSA signature.\n   * @dev Fails if the address is already a delegate or has an account .\n   * @dev Fails if the current account is already participating in validation.\n   * @dev v, r, s constitute `delegate`'s signature on `msg.sender`.\n   * @dev Any accumulated rewards will be first paid out to the previous rewards recipient.\n   */\n  function delegateRewards(\n    address delegate,\n    uint8 v,\n    bytes32 r,\n    bytes32 s\n  )\n    external\n    nonReentrant\n    isAccount(msg.sender)\n    isNotAccount(delegate)\n    isNotDelegate(delegate)\n  {\n    // _redeemRewards(msg.sender);\n    // TODO(asa): Consider an additional prefix here.\n    address signer = getSignerOfAddress(msg.sender, v, r, s);\n    require(signer == delegate);\n    Account storage account = accounts[msg.sender];\n    delegations[account.rewards.delegate] = address(0);\n    account.rewards.delegate = delegate;\n    delegations[delegate] = msg.sender;\n    emit RewardsDelegated(msg.sender, delegate);\n  }\n\n  /**\n   * @notice Adds a bonded deposit to `msg.sender`'s account.\n   * @param noticePeriod The notice period for the deposit.\n   * @return The account's new weight.\n   */\n  function deposit(\n    uint256 noticePeriod\n  )\n    external\n    nonReentrant\n    isAccount(msg.sender)\n    payable\n    returns (uint256)\n  {\n    require(!isVoting(msg.sender));\n    // _redeemRewards(msg.sender);\n    require(msg.value > 0 && noticePeriod <= maxNoticePeriod);\n    Account storage account = accounts[msg.sender];\n    Deposit storage bonded = account.deposits.bonded[noticePeriod];\n    updateBondedDeposit(account, uint256(bonded.value).add(msg.value), noticePeriod);\n    emit DepositBonded(msg.sender, msg.value, noticePeriod);\n    return account.weight;\n  }\n\n  /**\n   * @notice Notifies a bonded deposit, allowing funds to be withdrawn after the notice period.\n   * @param value The amount of the deposit to eventually withdraw.\n   * @param noticePeriod The notice period of the bonded deposit.\n   * @return The account's new weight.\n   */\n  function notify(\n    uint256 value,\n    uint256 noticePeriod\n  )\n    external\n    nonReentrant\n    isAccount(msg.sender)\n    isNotValidating(msg.sender)\n    returns (uint256)\n  {\n    require(!isVoting(msg.sender));\n    // _redeemRewards(msg.sender);\n    Account storage account = accounts[msg.sender];\n    Deposit storage bonded = account.deposits.bonded[noticePeriod];\n    require(bonded.value >= value && value > 0);\n    updateBondedDeposit(account, uint256(bonded.value).sub(value), noticePeriod);\n\n    // solhint-disable-next-line not-rely-on-time\n    uint256 availabilityTime = now.add(noticePeriod);\n    Deposit storage notified = account.deposits.notified[availabilityTime];\n    updateNotifiedDeposit(account, uint256(notified.value).add(value), availabilityTime);\n\n    emit DepositNotified(msg.sender, value, noticePeriod, availabilityTime);\n    return account.weight;\n  }\n\n  /**\n   * @notice Rebonds a notified deposit, with notice period >= the remaining time to availability.\n   * @param value The amount of the deposit to rebond.\n   * @param availabilityTime The availability time of the notified deposit.\n   * @return The account's new weight.\n   */\n  function rebond(\n    uint256 value,\n    uint256 availabilityTime\n  )\n    external\n    nonReentrant\n    isAccount(msg.sender)\n    returns (uint256)\n  {\n    // solhint-disable-next-line not-rely-on-time\n    require(availabilityTime > now);\n    require(!isVoting(msg.sender));\n    // _redeemRewards(msg.sender);\n    Account storage account = accounts[msg.sender];\n    Deposit storage notified = account.deposits.notified[availabilityTime];\n    require(notified.value >= value && value > 0);\n    updateNotifiedDeposit(account, uint256(notified.value).sub(value), availabilityTime);\n    // solhint-disable-next-line not-rely-on-time\n    uint256 noticePeriod = availabilityTime.sub(now);\n    Deposit storage bonded = account.deposits.bonded[noticePeriod];\n    updateBondedDeposit(account, uint256(bonded.value).add(value), noticePeriod);\n    emit DepositRebonded(msg.sender, value, noticePeriod, availabilityTime);\n    return account.weight;\n  }\n\n  /**\n   * @notice Withdraws a notified deposit after the duration of the notice period.\n   * @param availabilityTime The availability time of the notified deposit.\n   * @return The account's new weight.\n   */\n  function withdraw(\n    uint256 availabilityTime\n  )\n    external\n    nonReentrant\n    isAccount(msg.sender)\n    returns (uint256)\n  {\n    require(!isVoting(msg.sender));\n    // _redeemRewards(msg.sender);\n    // solhint-disable-next-line not-rely-on-time\n    require(now >= availabilityTime);\n    Account storage account = accounts[msg.sender];\n    Deposit storage notified = account.deposits.notified[availabilityTime];\n    uint256 value = notified.value;\n    require(value > 0);\n    updateNotifiedDeposit(account, 0, availabilityTime);\n\n    IERC20Token goldToken = IERC20Token(registry.getAddressFor(GOLD_TOKEN_REGISTRY_ID));\n    require(goldToken.transfer(msg.sender, value));\n    emit Withdrawal(msg.sender, value);\n    return account.weight;\n  }\n\n  /**\n   * @notice Increases the notice period for all or part of a bonded deposit.\n   * @param value The amount of the bonded deposit to increase the notice period for.\n   * @param noticePeriod The notice period of the bonded deposit.\n   * @param increase The amount to increase the notice period by.\n   * @return The account's new weight.\n   */\n  function increaseNoticePeriod(\n    uint256 value,\n    uint256 noticePeriod,\n    uint256 increase\n  )\n    external\n    nonReentrant\n    isAccount(msg.sender)\n    returns (uint256)\n  {\n    require(!isVoting(msg.sender));\n    // _redeemRewards(msg.sender);\n    require(value > 0 && increase > 0);\n    Account storage account = accounts[msg.sender];\n    Deposit storage bonded = account.deposits.bonded[noticePeriod];\n    require(bonded.value >= value);\n    updateBondedDeposit(account, uint256(bonded.value).sub(value), noticePeriod);\n    uint256 increasedNoticePeriod = noticePeriod.add(increase);\n    uint256 increasedValue = account.deposits.bonded[increasedNoticePeriod].value;\n    updateBondedDeposit(account, increasedValue.add(value), increasedNoticePeriod);\n    emit NoticePeriodIncreased(msg.sender, value, noticePeriod, increase);\n    return account.weight;\n  }\n\n  /**\n   * @notice Returns whether or not an account's voting power is frozen.\n   * @param account The address of the account.\n   * @return Whether or not the account's voting power is frozen.\n   * @dev Frozen accounts can retract existing votes but not make future votes.\n   */\n  function isVotingFrozen(address account) external view returns (bool) {\n    return accounts[account].voting.frozen;\n  }\n\n  /**\n   * @notice Returns the timestamp of the last time the account redeemed block rewards.\n   * @param _account The address of the account.\n   * @return The timestamp of the last time `_account` redeemed block rewards.\n   */\n  function getRewardsLastRedeemed(address _account) external view returns (uint96) {\n    Account storage account = accounts[_account];\n    return account.rewards.lastRedeemed;\n  }\n\n  /**\n   * @notice Returns the notice periods of all bonded deposits for an account.\n   * @param _account The address of the account.\n   * @return The notice periods of all bonded deposits for `_account`.\n   */\n  function getNoticePeriods(address _account) external view returns (uint256[] memory) {\n    Account storage account = accounts[_account];\n    return account.deposits.noticePeriods;\n  }\n\n  /**\n   * @notice Returns the availability times of all notified deposits for an account.\n   * @param _account The address of the account.\n   * @return The availability times of all notified deposits for `_account`.\n   */\n  function getAvailabilityTimes(address _account) external view returns (uint256[] memory) {\n    Account storage account = accounts[_account];\n    return account.deposits.availabilityTimes;\n  }\n\n  /**\n   * @notice Returns the value and index of a specified bonded deposit.\n   * @param _account The address of the account.\n   * @param noticePeriod The notice period of the bonded deposit.\n   * @return The value and index of the specified bonded deposit.\n   */\n  function getBondedDeposit(\n    address _account,\n    uint256 noticePeriod\n  )\n    external\n    view\n    returns (uint256, uint256)\n  {\n    Account storage account = accounts[_account];\n    Deposit storage bonded = account.deposits.bonded[noticePeriod];\n    return (bonded.value, bonded.index);\n  }\n\n  /**\n   * @notice Returns the value and index of a specified notified deposit.\n   * @param _account The address of the account.\n   * @param availabilityTime The availability time of the notified deposit.\n   * @return The value and index of the specified notified deposit.\n   */\n  function getNotifiedDeposit(\n    address _account,\n    uint256 availabilityTime\n  )\n    external\n    view\n    returns (uint256, uint256)\n  {\n    Account storage account = accounts[_account];\n    Deposit storage notified = account.deposits.notified[availabilityTime];\n    return (notified.value, notified.index);\n  }\n\n  /**\n   * @notice Returns the account associated with the provided account or voting delegate.\n   * @param accountOrDelegate The address of the account or voting delegate.\n   * @dev Fails if the `accountOrDelegate` is a non-voting delegate.\n   * @return The associated account.\n   */\n  function getAccountFromVoter(address accountOrDelegate) external view returns (address) {\n    address delegatingAccount = delegations[accountOrDelegate];\n    if (delegatingAccount != address(0)) {\n      require(accounts[delegatingAccount].voting.delegate == accountOrDelegate);\n      return delegatingAccount;\n    } else {\n      return accountOrDelegate;\n    }\n  }\n\n  /**\n   * @notice Returns the account associated with the provided account or validating delegate.\n   * @param accountOrDelegate The address of the account or validating delegate.\n   * @dev Fails if the `accountOrDelegate` is a non-validating delegate.\n   * @return The associated account.\n   */\n  function getAccountFromValidator(address accountOrDelegate) external view returns (address) {\n    address delegatingAccount = delegations[accountOrDelegate];\n    if (delegatingAccount != address(0)) {\n      require(accounts[delegatingAccount].validating.delegate == accountOrDelegate);\n      return delegatingAccount;\n    } else {\n      return accountOrDelegate;\n    }\n  }\n\n  /**\n   * @notice Returns the weight of a specified account.\n   * @param _account The address of the account.\n   * @return The weight of the specified account.\n   */\n  function getAccountWeight(address _account) external view returns (uint256) {\n    Account storage account = accounts[_account];\n    return account.weight;\n  }\n\n  /**\n   * @notice Returns the account associated with the provided account or rewards delegate.\n   * @param accountOrDelegate The address of the account or rewards delegate.\n   * @dev Fails if the `accountOrDelegate` is a non-rewards delegate.\n   * @return The associated account.\n   */\n  function getAccountFromRewardsRecipient(address accountOrDelegate) public view returns (address) {\n    address delegatingAccount = delegations[accountOrDelegate];\n    if (delegatingAccount != address(0)) {\n      require(accounts[delegatingAccount].rewards.delegate == accountOrDelegate);\n      return delegatingAccount;\n    } else {\n      return accountOrDelegate;\n    }\n  }\n\n  /**\n   * @notice Returns whether or not a specified account is voting.\n   * @param account The address of the account.\n   * @return Whether or not the account is voting.\n   */\n  function isVoting(address account) public view returns (bool) {\n    address voter = getVoterFromAccount(account);\n    IGovernance governance = IGovernance(registry.getAddressFor(GOVERNANCE_REGISTRY_ID));\n    IValidators validators = IValidators(registry.getAddressFor(VALIDATORS_REGISTRY_ID));\n    return (governance.isVoting(voter) || validators.isVoting(voter));\n  }\n\n  /**\n   * @notice Returns the weight of a deposit for a given notice period.\n   * @param value The value of the deposit.\n   * @param noticePeriod The notice period of the deposit.\n   * @return The weight of the deposit.\n   * @dev A deposit's weight is (1 + sqrt(noticePeriodDays) / 30) * value.\n   */\n  function getDepositWeight(uint256 value, uint256 noticePeriod) public pure returns (uint256) {\n    uint256 precision = 10000;\n    uint256 noticeDays = noticePeriod.div(1 days);\n    uint256 preciseMultiplier = sqrt(noticeDays).mul(precision).div(30).add(precision);\n    return preciseMultiplier.mul(value).div(precision);\n  }\n\n  /**\n   * @notice Returns the rewards recipient for a specified account.\n   * @param account The address of the account.\n   * @return The rewards recipient for the account.\n   */\n  function getRewardsRecipientFromAccount(address account) public view returns (address) {\n    address delegate = accounts[account].rewards.delegate;\n    if (delegate == address(0)) {\n      return account;\n    } else {\n      return delegate;\n    }\n  }\n\n  /**\n   * @notice Returns the address authorized to vote on behalf of a specified account.\n   * @param account The address of the account.\n   * @return The address authorized to vote on behalf of the account\n   */\n  function getVoterFromAccount(address account) public view returns (address) {\n    address delegate = accounts[account].voting.delegate;\n    if (delegate == address(0)) {\n      return account;\n    } else {\n      return delegate;\n    }\n  }\n\n  /**\n   * @notice Returns the address authorized to validate on behalf of a specified account.\n   * @param account The address of the account.\n   * @return The address authorized to validate on behalf of the account\n   */\n  function getValidatorFromAccount(address account) public view returns (address) {\n    address delegate = accounts[account].validating.delegate;\n    if (delegate == address(0)) {\n      return account;\n    } else {\n      return delegate;\n    }\n  }\n\n  // TODO(asa): Factor in governance, validator election participation.\n  /**\n   * @notice Redeems rewards accrued since the last redemption for a specified account.\n   * @param _account The address of the account to redeem rewards for.\n   * @return The amount of accrued rewards.\n   */\n  function _redeemRewards(address _account) private returns (uint256) {\n    Account storage account = accounts[_account];\n    Rewards storage rewards = account.rewards;\n    uint256 rewardBlockNumber = block.number.sub(1);\n    FractionUtil.Fraction storage previousCumulativeRewardWeight = cumulativeRewardWeights[\n      rewards.lastRedeemed\n    ];\n    FractionUtil.Fraction storage cumulativeRewardWeight = cumulativeRewardWeights[\n      rewardBlockNumber\n    ];\n    // We should never get here except in testing, where cumulativeRewardWeight will not be set.\n    if (!previousCumulativeRewardWeight.exists() || !cumulativeRewardWeight.exists()) {\n      return 0;\n    }\n\n    FractionUtil.Fraction memory rewardWeight = cumulativeRewardWeight.sub(\n      previousCumulativeRewardWeight\n    );\n    require(rewardWeight.exists(), \"Rewards weight does not exist\");\n    uint256 value = rewardWeight.mul(account.weight);\n    rewards.lastRedeemed = uint96(rewardBlockNumber);\n    if (value > 0) {\n      address recipient = getRewardsRecipientFromAccount(_account);\n      IERC20Token goldToken = IERC20Token(registry.getAddressFor(GOLD_TOKEN_REGISTRY_ID));\n      require(goldToken.transfer(recipient, value));\n      emit Withdrawal(recipient, value);\n    }\n    return value;\n  }\n\n  /**\n   * @notice Updates the bonded deposit for a given notice period to a new value.\n   * @param account The account to update the bonded deposit for.\n   * @param value The new value of the bonded deposit.\n   * @param noticePeriod The notice period of the bonded deposit.\n   */\n  function updateBondedDeposit(\n    Account storage account,\n    uint256 value,\n    uint256 noticePeriod\n  )\n    private\n  {\n    Deposit storage bonded = account.deposits.bonded[noticePeriod];\n    require(value != bonded.value);\n    uint256 weight;\n    if (bonded.value == 0) {\n      bonded.index = uint128(account.deposits.noticePeriods.length);\n      bonded.value = uint128(value);\n      account.deposits.noticePeriods.push(noticePeriod);\n      weight = getDepositWeight(value, noticePeriod);\n      account.weight = account.weight.add(weight);\n      totalWeight = totalWeight.add(weight);\n    } else if (value == 0) {\n      weight = getDepositWeight(bonded.value, noticePeriod);\n      account.weight = account.weight.sub(weight);\n      totalWeight = totalWeight.sub(weight);\n      deleteDeposit(bonded, account.deposits, DepositType.Bonded);\n    } else {\n      uint256 originalWeight = getDepositWeight(bonded.value, noticePeriod);\n      weight = getDepositWeight(value, noticePeriod);\n\n      uint256 difference;\n      if (weight >= originalWeight) {\n        difference = weight.sub(originalWeight);\n        account.weight = account.weight.add(difference);\n        totalWeight = totalWeight.add(difference);\n      } else {\n        difference = originalWeight.sub(weight);\n        account.weight = account.weight.sub(difference);\n        totalWeight = totalWeight.sub(difference);\n      }\n\n      bonded.value = uint128(value);\n    }\n  }\n\n  /**\n   * @notice Updates the notified deposit for a given availability time to a new value.\n   * @param account The account to update the notified deposit for.\n   * @param value The new value of the notified deposit.\n   * @param availabilityTime The availability time of the notified deposit.\n   */\n  function updateNotifiedDeposit(\n    Account storage account,\n    uint256 value,\n    uint256 availabilityTime\n  )\n    private\n  {\n    Deposit storage notified = account.deposits.notified[availabilityTime];\n    require(value != notified.value);\n    if (notified.value == 0) {\n      notified.index = uint128(account.deposits.availabilityTimes.length);\n      notified.value = uint128(value);\n      account.deposits.availabilityTimes.push(availabilityTime);\n      account.weight = account.weight.add(notified.value);\n      totalWeight = totalWeight.add(notified.value);\n    } else if (value == 0) {\n      account.weight = account.weight.sub(notified.value);\n      totalWeight = totalWeight.sub(notified.value);\n      deleteDeposit(notified, account.deposits, DepositType.Notified);\n    } else {\n      uint256 difference;\n      if (value >= notified.value) {\n        difference = value.sub(notified.value);\n        account.weight = account.weight.add(difference);\n        totalWeight = totalWeight.add(difference);\n      } else {\n        difference = uint256(notified.value).sub(value);\n        account.weight = account.weight.sub(difference);\n        totalWeight = totalWeight.sub(difference);\n      }\n\n      notified.value = uint128(value);\n    }\n  }\n\n  /**\n   * @notice Deletes a deposit from an account.\n   * @param _deposit The deposit to delete.\n   * @param deposits The struct containing the account's deposits.\n   * @param depositType Whether the deleted deposit is bonded or notified.\n   */\n  function deleteDeposit(\n    Deposit storage _deposit,\n    Deposits storage deposits,\n    DepositType depositType\n  )\n    private\n  {\n    uint256 lastIndex;\n    if (depositType == DepositType.Bonded) {\n      lastIndex = deposits.noticePeriods.length.sub(1);\n      deposits.bonded[deposits.noticePeriods[lastIndex]].index = _deposit.index;\n      deleteElement(deposits.noticePeriods, _deposit.index, lastIndex);\n    } else {\n      lastIndex = deposits.availabilityTimes.length.sub(1);\n      deposits.notified[deposits.availabilityTimes[lastIndex]].index = _deposit.index;\n      deleteElement(deposits.availabilityTimes, _deposit.index, lastIndex);\n    }\n\n    // Delete deposit info.\n    _deposit.index = 0;\n    _deposit.value = 0;\n  }\n\n  /**\n   * @notice Deletes an element from a list of uint256s.\n   * @param list The list of uint256s.\n   * @param index The index of the element to delete.\n   * @param lastIndex The index of the last element in the list.\n   */\n  function deleteElement(uint256[] storage list, uint256 index, uint256 lastIndex) private {\n    list[index] = list[lastIndex];\n    list[lastIndex] = 0;\n    list.length = lastIndex;\n  }\n\n  /**\n   * @notice Given a signed address, returns the signer of the address.\n   * @param message The address that was signed.\n   * @param v The recovery id of the incoming ECDSA signature.\n   * @param r Output value r of the ECDSA signature.\n   * @param s Output value s of the ECDSA signature.\n   */\n  function getSignerOfAddress(\n    address message,\n    uint8 v,\n    bytes32 r,\n    bytes32 s\n  )\n    private\n    pure\n    returns (address)\n  {\n    bytes32 hash = keccak256(abi.encodePacked(message));\n    bytes memory prefix = \"\\x19Ethereum Signed Message:\\n32\";\n    bytes32 prefixedHash = keccak256(abi.encodePacked(prefix, hash));\n    return ecrecover(prefixedHash, v, r, s);\n  }\n\n  /**\n   * @notice Approxmiates the square root of x using the Bablyonian method.\n   * @param x The number to take the square root of.\n   * @return An approximation of the square root of x.\n   * @dev The error can be large for smaller numbers, so we multiply by the square of `precision`.\n   */\n  function sqrt(uint256 x) private pure returns (FractionUtil.Fraction memory) {\n    uint256 precision = 100;\n    uint256 px = x.mul(precision.mul(precision));\n    uint256 z = px.add(1).div(2);\n    uint256 y = px;\n    while (z < y) {\n      y = z;\n      z = px.div(z).add(z).div(2);\n    }\n    return FractionUtil.Fraction(y, precision);\n  }\n}\n",
  "sourcePath": "/Users/yorhodes/celo/celo-monorepo/packages/protocol/contracts/governance/BondedDeposits.sol",
  "compiler": {
    "name": "solc",
    "version": "0.5.8+commit.23d335f2.Emscripten.clang"
  },
  "schemaVersion": "3.0.9",
  "updatedAt": "2019-07-17T03:09:37.594Z",
  "devdoc": {
    "methods": {
      "createAccount()": {
        "return": "True if account creation succeeded."
      },
      "delegateRewards(address,uint8,bytes32,bytes32)": {
        "details": "Fails if the address is already a delegate or has an account .Fails if the current account is already participating in validation.v, r, s constitute `delegate`'s signature on `msg.sender`.Any accumulated rewards will be first paid out to the previous rewards recipient.",
        "params": {
          "delegate": "The address to delegate to.",
          "r": "Output value r of the ECDSA signature.",
          "s": "Output value s of the ECDSA signature.",
          "v": "The recovery id of the incoming ECDSA signature."
        }
      },
      "delegateValidating(address,uint8,bytes32,bytes32)": {
        "details": "Fails if the address is already a delegate or has an account .Fails if the current account is already participating in validation.v, r, s constitute `delegate`'s signature on `msg.sender`.",
        "params": {
          "delegate": "The address to delegate to.",
          "r": "Output value r of the ECDSA signature.",
          "s": "Output value s of the ECDSA signature.",
          "v": "The recovery id of the incoming ECDSA signature."
        }
      },
      "delegateVoting(address,uint8,bytes32,bytes32)": {
        "details": "Fails if the delegate address is already a delegate or has an account .Fails if the current account is already voting.v, r, s constitute `delegate`'s signature on `msg.sender`.",
        "params": {
          "delegate": "The address to delegate to.",
          "r": "Output value r of the ECDSA signature.",
          "s": "Output value s of the ECDSA signature.",
          "v": "The recovery id of the incoming ECDSA signature."
        }
      },
      "deposit(uint256)": {
        "params": {
          "noticePeriod": "The notice period for the deposit."
        },
        "return": "The account's new weight."
      },
      "getAccountFromRewardsRecipient(address)": {
        "details": "Fails if the `accountOrDelegate` is a non-rewards delegate.",
        "params": {
          "accountOrDelegate": "The address of the account or rewards delegate."
        },
        "return": "The associated account."
      },
      "getAccountFromValidator(address)": {
        "details": "Fails if the `accountOrDelegate` is a non-validating delegate.",
        "params": {
          "accountOrDelegate": "The address of the account or validating delegate."
        },
        "return": "The associated account."
      },
      "getAccountFromVoter(address)": {
        "details": "Fails if the `accountOrDelegate` is a non-voting delegate.",
        "params": {
          "accountOrDelegate": "The address of the account or voting delegate."
        },
        "return": "The associated account."
      },
      "getAccountWeight(address)": {
        "params": {
          "_account": "The address of the account."
        },
        "return": "The weight of the specified account."
      },
      "getAvailabilityTimes(address)": {
        "params": {
          "_account": "The address of the account."
        },
        "return": "The availability times of all notified deposits for `_account`."
      },
      "getBondedDeposit(address,uint256)": {
        "params": {
          "_account": "The address of the account.",
          "noticePeriod": "The notice period of the bonded deposit."
        },
        "return": "The value and index of the specified bonded deposit."
      },
      "getDepositWeight(uint256,uint256)": {
        "details": "A deposit's weight is (1 + sqrt(noticePeriodDays) / 30) * value.",
        "params": {
          "noticePeriod": "The notice period of the deposit.",
          "value": "The value of the deposit."
        },
        "return": "The weight of the deposit."
      },
      "getNoticePeriods(address)": {
        "params": {
          "_account": "The address of the account."
        },
        "return": "The notice periods of all bonded deposits for `_account`."
      },
      "getNotifiedDeposit(address,uint256)": {
        "params": {
          "_account": "The address of the account.",
          "availabilityTime": "The availability time of the notified deposit."
        },
        "return": "The value and index of the specified notified deposit."
      },
      "getRewardsLastRedeemed(address)": {
        "params": {
          "_account": "The address of the account."
        },
        "return": "The timestamp of the last time `_account` redeemed block rewards."
      },
      "getRewardsRecipientFromAccount(address)": {
        "params": {
          "account": "The address of the account."
        },
        "return": "The rewards recipient for the account."
      },
      "getValidatorFromAccount(address)": {
        "params": {
          "account": "The address of the account."
        },
        "return": "The address authorized to validate on behalf of the account"
      },
      "getVoterFromAccount(address)": {
        "params": {
          "account": "The address of the account."
        },
        "return": "The address authorized to vote on behalf of the account"
      },
      "increaseNoticePeriod(uint256,uint256,uint256)": {
        "params": {
          "increase": "The amount to increase the notice period by.",
          "noticePeriod": "The notice period of the bonded deposit.",
          "value": "The amount of the bonded deposit to increase the notice period for."
        },
        "return": "The account's new weight."
      },
      "isOwner()": {
        "return": "true if `msg.sender` is the owner of the contract."
      },
      "isVoting(address)": {
        "params": {
          "account": "The address of the account."
        },
        "return": "Whether or not the account is voting."
      },
      "isVotingFrozen(address)": {
        "details": "Frozen accounts can retract existing votes but not make future votes.",
        "params": {
          "account": "The address of the account."
        },
        "return": "Whether or not the account's voting power is frozen."
      },
      "notify(uint256,uint256)": {
        "params": {
          "noticePeriod": "The notice period of the bonded deposit.",
          "value": "The amount of the deposit to eventually withdraw."
        },
        "return": "The account's new weight."
      },
      "owner()": {
        "return": "the address of the owner."
      },
      "rebond(uint256,uint256)": {
        "params": {
          "availabilityTime": "The availability time of the notified deposit.",
          "value": "The amount of the deposit to rebond."
        },
        "return": "The account's new weight."
      },
      "redeemRewards()": {
        "details": "Fails if `msg.sender` is not the owner or rewards recipient of the account.",
        "return": "The amount of accrued rewards."
      },
      "renounceOwnership()": {
        "details": "Allows the current owner to relinquish control of the contract. It will not be possible to call the functions with the `onlyOwner` modifier anymore."
      },
      "setCumulativeRewardWeight(uint256)": {
        "details": "Called by the EVM at the end of the block.",
        "params": {
          "blockReward": "The total reward allocated to bonders for this block."
        }
      },
      "setMaxNoticePeriod(uint256)": {
        "params": {
          "_maxNoticePeriod": "The new maximum notice period."
        }
      },
      "setRegistry(address)": {
        "params": {
          "registryAddress": "The address of a registry contract for routing to other contracts."
        }
      },
      "transferOwnership(address)": {
        "details": "Allows the current owner to transfer control of the contract to a newOwner.",
        "params": {
          "newOwner": "The address to transfer ownership to."
        }
      },
      "withdraw(uint256)": {
        "params": {
          "availabilityTime": "The availability time of the notified deposit."
        },
        "return": "The account's new weight."
      }
    }
  },
  "userdoc": {
    "methods": {
      "createAccount()": {
        "notice": "Creates an account."
      },
      "delegateRewards(address,uint8,bytes32,bytes32)": {
        "notice": "Delegates the rewards of `msg.sender`'s account to another address."
      },
      "delegateValidating(address,uint8,bytes32,bytes32)": {
        "notice": "Delegates the validating power of `msg.sender`'s account to another address."
      },
      "delegateVoting(address,uint8,bytes32,bytes32)": {
        "notice": "Delegates the voting power of `msg.sender`'s account to another address."
      },
      "deposit(uint256)": {
        "notice": "Adds a bonded deposit to `msg.sender`'s account."
      },
      "freezeVoting()": {
        "notice": "Freezes the voting power of `msg.sender`'s account."
      },
      "getAccountFromRewardsRecipient(address)": {
        "notice": "Returns the account associated with the provided account or rewards delegate."
      },
      "getAccountFromValidator(address)": {
        "notice": "Returns the account associated with the provided account or validating delegate."
      },
      "getAccountFromVoter(address)": {
        "notice": "Returns the account associated with the provided account or voting delegate."
      },
      "getAccountWeight(address)": {
        "notice": "Returns the weight of a specified account."
      },
      "getAvailabilityTimes(address)": {
        "notice": "Returns the availability times of all notified deposits for an account."
      },
      "getBondedDeposit(address,uint256)": {
        "notice": "Returns the value and index of a specified bonded deposit."
      },
      "getDepositWeight(uint256,uint256)": {
        "notice": "Returns the weight of a deposit for a given notice period."
      },
      "getNoticePeriods(address)": {
        "notice": "Returns the notice periods of all bonded deposits for an account."
      },
      "getNotifiedDeposit(address,uint256)": {
        "notice": "Returns the value and index of a specified notified deposit."
      },
      "getRewardsLastRedeemed(address)": {
        "notice": "Returns the timestamp of the last time the account redeemed block rewards."
      },
      "getRewardsRecipientFromAccount(address)": {
        "notice": "Returns the rewards recipient for a specified account."
      },
      "getValidatorFromAccount(address)": {
        "notice": "Returns the address authorized to validate on behalf of a specified account."
      },
      "getVoterFromAccount(address)": {
        "notice": "Returns the address authorized to vote on behalf of a specified account."
      },
      "increaseNoticePeriod(uint256,uint256,uint256)": {
        "notice": "Increases the notice period for all or part of a bonded deposit."
      },
      "isVoting(address)": {
        "notice": "Returns whether or not a specified account is voting."
      },
      "isVotingFrozen(address)": {
        "notice": "Returns whether or not an account's voting power is frozen."
      },
      "notify(uint256,uint256)": {
        "notice": "Notifies a bonded deposit, allowing funds to be withdrawn after the notice period."
      },
      "rebond(uint256,uint256)": {
        "notice": "Rebonds a notified deposit, with notice period >= the remaining time to availability."
      },
      "redeemRewards()": {
        "notice": "Redeems rewards accrued since the last redemption for the specified account."
      },
      "renounceOwnership()": {
        "notice": "Renouncing ownership will leave the contract without an owner, thereby removing any functionality that is only available to the owner."
      },
      "setCumulativeRewardWeight(uint256)": {
        "notice": "Sets the cumulative block reward for 1 unit of account weight."
      },
      "setMaxNoticePeriod(uint256)": {
        "notice": "Sets the maximum notice period for an account."
      },
      "setRegistry(address)": {
        "notice": "Updates the address pointing to a Registry contract."
      },
      "unfreezeVoting()": {
        "notice": "Unfreezes the voting power of `msg.sender`'s account."
      },
      "withdraw(uint256)": {
        "notice": "Withdraws a notified deposit after the duration of the notice period."
      }
    }
  }
}