{
  "contractName": "Exchange",
  "abi": [
    {
      "constant": true,
      "inputs": [],
      "name": "initialized",
      "outputs": [
        {
          "name": "",
          "type": "bool"
        }
      ],
      "payable": false,
      "stateMutability": "view",
      "type": "function"
    },
    {
      "constant": true,
      "inputs": [],
      "name": "minimumReports",
      "outputs": [
        {
          "name": "",
          "type": "uint256"
        }
      ],
      "payable": false,
      "stateMutability": "view",
      "type": "function"
    },
    {
      "constant": true,
      "inputs": [],
      "name": "stable",
      "outputs": [
        {
          "name": "",
          "type": "address"
        }
      ],
      "payable": false,
      "stateMutability": "view",
      "type": "function"
    },
    {
      "constant": true,
      "inputs": [],
      "name": "stableBucket",
      "outputs": [
        {
          "name": "",
          "type": "uint256"
        }
      ],
      "payable": false,
      "stateMutability": "view",
      "type": "function"
    },
    {
      "constant": true,
      "inputs": [],
      "name": "spread",
      "outputs": [
        {
          "name": "numerator",
          "type": "uint256"
        },
        {
          "name": "denominator",
          "type": "uint256"
        }
      ],
      "payable": false,
      "stateMutability": "view",
      "type": "function"
    },
    {
      "constant": true,
      "inputs": [],
      "name": "goldBucket",
      "outputs": [
        {
          "name": "",
          "type": "uint256"
        }
      ],
      "payable": false,
      "stateMutability": "view",
      "type": "function"
    },
    {
      "constant": true,
      "inputs": [],
      "name": "updateFrequency",
      "outputs": [
        {
          "name": "",
          "type": "uint256"
        }
      ],
      "payable": false,
      "stateMutability": "view",
      "type": "function"
    },
    {
      "constant": false,
      "inputs": [],
      "name": "renounceOwnership",
      "outputs": [],
      "payable": false,
      "stateMutability": "nonpayable",
      "type": "function"
    },
    {
      "constant": true,
      "inputs": [],
      "name": "registry",
      "outputs": [
        {
          "name": "",
          "type": "address"
        }
      ],
      "payable": false,
      "stateMutability": "view",
      "type": "function"
    },
    {
      "constant": true,
      "inputs": [],
      "name": "owner",
      "outputs": [
        {
          "name": "",
          "type": "address"
        }
      ],
      "payable": false,
      "stateMutability": "view",
      "type": "function"
    },
    {
      "constant": true,
      "inputs": [],
      "name": "isOwner",
      "outputs": [
        {
          "name": "",
          "type": "bool"
        }
      ],
      "payable": false,
      "stateMutability": "view",
      "type": "function"
    },
    {
      "constant": false,
      "inputs": [
        {
          "name": "registryAddress",
          "type": "address"
        }
      ],
      "name": "setRegistry",
      "outputs": [],
      "payable": false,
      "stateMutability": "nonpayable",
      "type": "function"
    },
    {
      "constant": true,
      "inputs": [],
      "name": "reserveFraction",
      "outputs": [
        {
          "name": "numerator",
          "type": "uint256"
        },
        {
          "name": "denominator",
          "type": "uint256"
        }
      ],
      "payable": false,
      "stateMutability": "view",
      "type": "function"
    },
    {
      "constant": true,
      "inputs": [],
      "name": "lastBucketUpdate",
      "outputs": [
        {
          "name": "",
          "type": "uint256"
        }
      ],
      "payable": false,
      "stateMutability": "view",
      "type": "function"
    },
    {
      "constant": false,
      "inputs": [
        {
          "name": "newOwner",
          "type": "address"
        }
      ],
      "name": "transferOwnership",
      "outputs": [],
      "payable": false,
      "stateMutability": "nonpayable",
      "type": "function"
    },
    {
      "payable": true,
      "stateMutability": "payable",
      "type": "fallback"
    },
    {
      "anonymous": false,
      "inputs": [
        {
          "indexed": true,
          "name": "exchanger",
          "type": "address"
        },
        {
          "indexed": false,
          "name": "sellAmount",
          "type": "uint256"
        },
        {
          "indexed": false,
          "name": "buyAmount",
          "type": "uint256"
        },
        {
          "indexed": false,
          "name": "soldGold",
          "type": "bool"
        }
      ],
      "name": "Exchanged",
      "type": "event"
    },
    {
      "anonymous": false,
      "inputs": [
        {
          "indexed": false,
          "name": "updateFrequency",
          "type": "uint256"
        }
      ],
      "name": "UpdateFrequencySet",
      "type": "event"
    },
    {
      "anonymous": false,
      "inputs": [
        {
          "indexed": false,
          "name": "minimumReports",
          "type": "uint256"
        }
      ],
      "name": "MinimumReportsSet",
      "type": "event"
    },
    {
      "anonymous": false,
      "inputs": [
        {
          "indexed": true,
          "name": "registryAddress",
          "type": "address"
        }
      ],
      "name": "RegistrySet",
      "type": "event"
    },
    {
      "anonymous": false,
      "inputs": [
        {
          "indexed": true,
          "name": "previousOwner",
          "type": "address"
        },
        {
          "indexed": true,
          "name": "newOwner",
          "type": "address"
        }
      ],
      "name": "OwnershipTransferred",
      "type": "event"
    },
    {
      "constant": false,
      "inputs": [
        {
          "name": "registryAddress",
          "type": "address"
        },
        {
          "name": "stableToken",
          "type": "address"
        },
        {
          "name": "spreadNumerator",
          "type": "uint256"
        },
        {
          "name": "spreadDenominator",
          "type": "uint256"
        },
        {
          "name": "reserveFractionNumerator",
          "type": "uint256"
        },
        {
          "name": "reserveFractionDenominator",
          "type": "uint256"
        },
        {
          "name": "_updateFrequency",
          "type": "uint256"
        },
        {
          "name": "_minimumReports",
          "type": "uint256"
        }
      ],
      "name": "initialize",
      "outputs": [],
      "payable": false,
      "stateMutability": "nonpayable",
      "type": "function"
    },
    {
      "constant": false,
      "inputs": [
        {
          "name": "sellAmount",
          "type": "uint256"
        },
        {
          "name": "minBuyAmount",
          "type": "uint256"
        },
        {
          "name": "sellGold",
          "type": "bool"
        }
      ],
      "name": "exchange",
      "outputs": [
        {
          "name": "",
          "type": "uint256"
        }
      ],
      "payable": false,
      "stateMutability": "nonpayable",
      "type": "function"
    },
    {
      "constant": true,
      "inputs": [
        {
          "name": "sellAmount",
          "type": "uint256"
        },
        {
          "name": "sellGold",
          "type": "bool"
        }
      ],
      "name": "getBuyTokenAmount",
      "outputs": [
        {
          "name": "",
          "type": "uint256"
        }
      ],
      "payable": false,
      "stateMutability": "view",
      "type": "function"
    },
    {
      "constant": true,
      "inputs": [
        {
          "name": "buyAmount",
          "type": "uint256"
        },
        {
          "name": "sellGold",
          "type": "bool"
        }
      ],
      "name": "getSellTokenAmount",
      "outputs": [
        {
          "name": "",
          "type": "uint256"
        }
      ],
      "payable": false,
      "stateMutability": "view",
      "type": "function"
    },
    {
      "constant": true,
      "inputs": [
        {
          "name": "sellGold",
          "type": "bool"
        }
      ],
      "name": "getBuyAndSellBuckets",
      "outputs": [
        {
          "name": "",
          "type": "uint256"
        },
        {
          "name": "",
          "type": "uint256"
        }
      ],
      "payable": false,
      "stateMutability": "view",
      "type": "function"
    },
    {
      "constant": false,
      "inputs": [
        {
          "name": "newUpdateFrequency",
          "type": "uint256"
        }
      ],
      "name": "setUpdateFrequency",
      "outputs": [],
      "payable": false,
      "stateMutability": "nonpayable",
      "type": "function"
    },
    {
      "constant": false,
      "inputs": [
        {
          "name": "newMininumReports",
          "type": "uint256"
        }
      ],
      "name": "setMinimumReports",
      "outputs": [],
      "payable": false,
      "stateMutability": "nonpayable",
      "type": "function"
    }
  ],
  "bytecode": "0x6080604052600060095533600060016101000a81548173ffffffffffffffffffffffffffffffffffffffff021916908373ffffffffffffffffffffffffffffffffffffffff160217905550600060019054906101000a900473ffffffffffffffffffffffffffffffffffffffff1673ffffffffffffffffffffffffffffffffffffffff16600073ffffffffffffffffffffffffffffffffffffffff167f8be0079c531659141344cd1fd0a4f28419497f9722a3daafe3b4186f6b6457e060405160405180910390a36122eb806100d66000396000f3fe6080604052600436106101355760003560e01c806378ba9cfd116100ab5780639ed02b581161006f5780639ed02b5814610590578063a91ee0dc146105eb578063d404f7f81461063c578063dda57b9314610677578063e0c8b50a146106a9578063f2fde38b146106d457610135565b806378ba9cfd146103ad5780637b103999146104055780638ba796af1461045c5780638da5cb5b1461050a5780638f32d59b1461056157610135565b80634a1be6cb116100fd5780634a1be6cb146102785780634c0226a2146102b35780635c25c76c1461030e57806362f0908414610340578063673ea0861461036b578063715018a61461039657610135565b8063158ef93e1461013757806322503ce51461016657806322be3de11461019157806325ac2de6146101e85780632bc7d67a14610213575b005b34801561014357600080fd5b5061014c610725565b604051808215151515815260200191505060405180910390f35b34801561017257600080fd5b5061017b610737565b6040518082815260200191505060405180910390f35b34801561019d57600080fd5b506101a661073d565b604051808273ffffffffffffffffffffffffffffffffffffffff1673ffffffffffffffffffffffffffffffffffffffff16815260200191505060405180910390f35b3480156101f457600080fd5b506101fd610763565b6040518082815260200191505060405180910390f35b34801561021f57600080fd5b506102626004803603606081101561023657600080fd5b810190808035906020019092919080359060200190929190803515159060200190929190505050610769565b6040518082815260200191505060405180910390f35b34801561028457600080fd5b506102b16004803603602081101561029b57600080fd5b8101908080359060200190929190505050611040565b005b3480156102bf57600080fd5b506102f8600480360360408110156102d657600080fd5b8101908080359060200190929190803515159060200190929190505050611092565b6040518082815260200191505060405180910390f35b34801561031a57600080fd5b5061032361113a565b604051808381526020018281526020019250505060405180910390f35b34801561034c57600080fd5b5061035561114c565b6040518082815260200191505060405180910390f35b34801561037757600080fd5b50610380611152565b6040518082815260200191505060405180910390f35b3480156103a257600080fd5b506103ab611158565b005b3480156103b957600080fd5b506103e8600480360360208110156103d057600080fd5b81019080803515159060200190929190505050611229565b604051808381526020018281526020019250505060405180910390f35b34801561041157600080fd5b5061041a611279565b604051808273ffffffffffffffffffffffffffffffffffffffff1673ffffffffffffffffffffffffffffffffffffffff16815260200191505060405180910390f35b34801561046857600080fd5b50610508600480360361010081101561048057600080fd5b81019080803573ffffffffffffffffffffffffffffffffffffffff169060200190929190803573ffffffffffffffffffffffffffffffffffffffff16906020019092919080359060200190929190803590602001909291908035906020019092919080359060200190929190803590602001909291908035906020019092919050505061129f565b005b34801561051657600080fd5b5061051f6113a1565b604051808273ffffffffffffffffffffffffffffffffffffffff1673ffffffffffffffffffffffffffffffffffffffff16815260200191505060405180910390f35b34801561056d57600080fd5b506105766113ca565b604051808215151515815260200191505060405180910390f35b34801561059c57600080fd5b506105d5600480360360408110156105b357600080fd5b8101908080359060200190929190803515159060200190929190505050611421565b6040518082815260200191505060405180910390f35b3480156105f757600080fd5b5061063a6004803603602081101561060e57600080fd5b81019080803573ffffffffffffffffffffffffffffffffffffffff1690602001909291905050506114cf565b005b34801561064857600080fd5b506106756004803603602081101561065f57600080fd5b8101908080359060200190929190505050611567565b005b34801561068357600080fd5b5061068c6115b9565b604051808381526020018281526020019250505060405180910390f35b3480156106b557600080fd5b506106be6115cb565b6040518082815260200191505060405180910390f35b3480156106e057600080fd5b50610723600480360360208110156106f757600080fd5b81019080803573ffffffffffffffffffffffffffffffffffffffff1690602001909291905050506115d1565b005b6000809054906101000a900460ff1681565b600b5481565b600660009054906101000a900473ffffffffffffffffffffffffffffffffffffffff1681565b60085481565b60006107736115ee565b600061077f8584611621565b9050838110156107da576040517f08c379a00000000000000000000000000000000000000000000000000000000081526004018080602001828103825260398152602001806122876039913960400191505060405180910390fd5b6000600160009054906101000a900473ffffffffffffffffffffffffffffffffffffffff1673ffffffffffffffffffffffffffffffffffffffff16632906e3d56040518060400160405280600781526020017f52657365727665000000000000000000000000000000000000000000000000008152506040518263ffffffff1660e01b81526004018080602001828103825283818151815260200191508051906020019080838360005b8381101561089f578082015181840152602081019050610884565b50505050905090810190601f1680156108cc5780820380516001836020036101000a031916815260200191505b509250505060206040518083038186803b1580156108e957600080fd5b505afa1580156108fd573d6000803e3d6000fd5b505050506040513d602081101561091357600080fd5b810190808051906020019092919050505090508315610c2c57610941866007546116cf90919063ffffffff16565b60078190555061095c826008546116ee90919063ffffffff16565b60088190555061096a61170e565b73ffffffffffffffffffffffffffffffffffffffff166323b872dd3383896040518463ffffffff1660e01b8152600401808473ffffffffffffffffffffffffffffffffffffffff1673ffffffffffffffffffffffffffffffffffffffff1681526020018373ffffffffffffffffffffffffffffffffffffffff1673ffffffffffffffffffffffffffffffffffffffff1681526020018281526020019350505050602060405180830381600087803b158015610a2457600080fd5b505af1158015610a38573d6000803e3d6000fd5b505050506040513d6020811015610a4e57600080fd5b8101908080519060200190929190505050610ad1576040517f08c379a000000000000000000000000000000000000000000000000000000000815260040180806020018281038252601d8152602001807f5472616e73666572206f662073656c6c20746f6b656e206661696c656400000081525060200191505060405180910390fd5b600660009054906101000a900473ffffffffffffffffffffffffffffffffffffffff1673ffffffffffffffffffffffffffffffffffffffff166340c10f1933846040518363ffffffff1660e01b8152600401808373ffffffffffffffffffffffffffffffffffffffff1673ffffffffffffffffffffffffffffffffffffffff16815260200182815260200192505050602060405180830381600087803b158015610b7a57600080fd5b505af1158015610b8e573d6000803e3d6000fd5b505050506040513d6020811015610ba457600080fd5b8101908080519060200190929190505050610c27576040517f08c379a000000000000000000000000000000000000000000000000000000000815260040180806020018281038252601b8152602001807f4d696e74206f6620737461626c6520746f6b656e206661696c6564000000000081525060200191505060405180910390fd5b610fd2565b610c41866008546116cf90919063ffffffff16565b600881905550610c5c826007546116ee90919063ffffffff16565b600781905550600660009054906101000a900473ffffffffffffffffffffffffffffffffffffffff1673ffffffffffffffffffffffffffffffffffffffff166323b872dd3330896040518463ffffffff1660e01b8152600401808473ffffffffffffffffffffffffffffffffffffffff1673ffffffffffffffffffffffffffffffffffffffff1681526020018373ffffffffffffffffffffffffffffffffffffffff1673ffffffffffffffffffffffffffffffffffffffff1681526020018281526020019350505050602060405180830381600087803b158015610d3f57600080fd5b505af1158015610d53573d6000803e3d6000fd5b505050506040513d6020811015610d6957600080fd5b8101908080519060200190929190505050610dec576040517f08c379a000000000000000000000000000000000000000000000000000000000815260040180806020018281038252601d8152602001807f5472616e73666572206f662073656c6c20746f6b656e206661696c656400000081525060200191505060405180910390fd5b600660009054906101000a900473ffffffffffffffffffffffffffffffffffffffff1673ffffffffffffffffffffffffffffffffffffffff166342966c68876040518263ffffffff1660e01b815260040180828152602001915050602060405180830381600087803b158015610e6157600080fd5b505af1158015610e75573d6000803e3d6000fd5b505050506040513d6020811015610e8b57600080fd5b8101908080519060200190929190505050508073ffffffffffffffffffffffffffffffffffffffff16631c39c7d533846040518363ffffffff1660e01b8152600401808373ffffffffffffffffffffffffffffffffffffffff1673ffffffffffffffffffffffffffffffffffffffff16815260200182815260200192505050602060405180830381600087803b158015610f2457600080fd5b505af1158015610f38573d6000803e3d6000fd5b505050506040513d6020811015610f4e57600080fd5b8101908080519060200190929190505050610fd1576040517f08c379a000000000000000000000000000000000000000000000000000000000815260040180806020018281038252601b8152602001807f5472616e73666572206f6620627579546f6b656e206661696c6564000000000081525060200191505060405180910390fd5b5b3373ffffffffffffffffffffffffffffffffffffffff167f402ac9185b4616422c2794bf5b118bfcc68ed496d52c0d9841dfa114fdeb05ba8784876040518084815260200183815260200182151515158152602001935050505060405180910390a281925050509392505050565b6110486113ca565b61105157600080fd5b80600a819055507f90c0a4a142fbfbc2ae8c21f50729a2f4bc56e85a66c1a1b6654f1e85092a54a6816040518082815260200191505060405180910390a150565b60008060006110a084611229565b809350819250505060006110d4836110c68860026001015461185d90919063ffffffff16565b61185d90919063ffffffff16565b905060006111196110ee88856116ee90919063ffffffff16565b61110b6002600001546002600101546116ee90919063ffffffff16565b61185d90919063ffffffff16565b905061112e818361189790919063ffffffff16565b94505050505092915050565b60028060000154908060010154905082565b60075481565b600a5481565b6111606113ca565b61116957600080fd5b600073ffffffffffffffffffffffffffffffffffffffff16600060019054906101000a900473ffffffffffffffffffffffffffffffffffffffff1673ffffffffffffffffffffffffffffffffffffffff167f8be0079c531659141344cd1fd0a4f28419497f9722a3daafe3b4186f6b6457e060405160405180910390a360008060016101000a81548173ffffffffffffffffffffffffffffffffffffffff021916908373ffffffffffffffffffffffffffffffffffffffff160217905550565b60008060006007549050600060085490506112426118bd565b156112585761124f611c2d565b80925081935050505b841561126b578082935093505050611274565b81819350935050505b915091565b600160009054906101000a900473ffffffffffffffffffffffffffffffffffffffff1681565b6000809054906101000a900460ff16156112b857600080fd5b60016000806101000a81548160ff0219169083151502179055506112db33611e96565b6112e4886114cf565b86600660006101000a81548173ffffffffffffffffffffffffffffffffffffffff021916908373ffffffffffffffffffffffffffffffffffffffff160217905550604051806040016040528087815260200186815250600260008201518160000155602082015181600101559050506040518060400160405280858152602001848152506004600082015181600001556020820151816001015590505081600a8190555080600b819055506113976115ee565b5050505050505050565b60008060019054906101000a900473ffffffffffffffffffffffffffffffffffffffff16905090565b60008060019054906101000a900473ffffffffffffffffffffffffffffffffffffffff1673ffffffffffffffffffffffffffffffffffffffff163373ffffffffffffffffffffffffffffffffffffffff1614905090565b600080600061142f84611229565b809350819250505060006114688661145a6002600001546002600101546116ee90919063ffffffff16565b61185d90919063ffffffff16565b9050600061147f838361185d90919063ffffffff16565b905060006114ad8361149f6002600101548861185d90919063ffffffff16565b6116cf90919063ffffffff16565b90506114c2818361189790919063ffffffff16565b9550505050505092915050565b6114d76113ca565b6114e057600080fd5b80600160006101000a81548173ffffffffffffffffffffffffffffffffffffffff021916908373ffffffffffffffffffffffffffffffffffffffff1602179055508073ffffffffffffffffffffffffffffffffffffffff167f27fe5f0c1c3b1ed427cc63d0f05759ffdecf9aec9e18d31ef366fc8a6cb5dc3b60405160405180910390a250565b61156f6113ca565b61157857600080fd5b80600b819055507f08523596abc266fb46d9c40ddf78fdfd3c08142252833ddce1a2b46f76521035816040518082815260200191505060405180910390a150565b60048060000154908060010154905082565b60095481565b6115d96113ca565b6115e257600080fd5b6115eb81611e96565b50565b6115f66118bd565b1561161f574260098190555061160a611c2d565b60076000600860008491905055839190505550505b565b600080600061162f84611f90565b809350819250505060006116688661165a6002600001546002600101546116ee90919063ffffffff16565b61185d90919063ffffffff16565b9050600061167f838361185d90919063ffffffff16565b905060006116ad8361169f6002600101548861185d90919063ffffffff16565b6116cf90919063ffffffff16565b90506116c2818361189790919063ffffffff16565b9550505050505092915050565b6000808284019050838110156116e457600080fd5b8091505092915050565b6000828211156116fd57600080fd5b600082840390508091505092915050565b6000600160009054906101000a900473ffffffffffffffffffffffffffffffffffffffff1673ffffffffffffffffffffffffffffffffffffffff16632906e3d56040518060400160405280600981526020017f476f6c64546f6b656e00000000000000000000000000000000000000000000008152506040518263ffffffff1660e01b81526004018080602001828103825283818151815260200191508051906020019080838360005b838110156117d35780820151818401526020810190506117b8565b50505050905090810190601f1680156118005780820380516001836020036101000a031916815260200191505b509250505060206040518083038186803b15801561181d57600080fd5b505afa158015611831573d6000803e3d6000fd5b505050506040513d602081101561184757600080fd5b8101908080519060200190929190505050905090565b6000808314156118705760009050611891565b600082840290508284828161188157fe5b041461188c57600080fd5b809150505b92915050565b60008082116118a557600080fd5b60008284816118b057fe5b0490508091505092915050565b600080600160009054906101000a900473ffffffffffffffffffffffffffffffffffffffff1673ffffffffffffffffffffffffffffffffffffffff16632906e3d56040518060400160405280600d81526020017f536f727465644f7261636c6573000000000000000000000000000000000000008152506040518263ffffffff1660e01b81526004018080602001828103825283818151815260200191508051906020019080838360005b83811015611983578082015181840152602081019050611968565b50505050905090810190601f1680156119b05780820380516001836020036101000a031916815260200191505b509250505060206040518083038186803b1580156119cd57600080fd5b505afa1580156119e1573d6000803e3d6000fd5b505050506040513d60208110156119f757600080fd5b810190808051906020019092919050505090506000611a23600a546009546116cf90919063ffffffff16565b42101590506000600b548373ffffffffffffffffffffffffffffffffffffffff1663bbc66a94600660009054906101000a900473ffffffffffffffffffffffffffffffffffffffff166040518263ffffffff1660e01b8152600401808273ffffffffffffffffffffffffffffffffffffffff1673ffffffffffffffffffffffffffffffffffffffff16815260200191505060206040518083038186803b158015611acc57600080fd5b505afa158015611ae0573d6000803e3d6000fd5b505050506040513d6020811015611af657600080fd5b8101908080519060200190929190505050101590506000611b22600a54426116ee90919063ffffffff16565b8473ffffffffffffffffffffffffffffffffffffffff1663071b48fc600660009054906101000a900473ffffffffffffffffffffffffffffffffffffffff166040518263ffffffff1660e01b8152600401808273ffffffffffffffffffffffffffffffffffffffff1673ffffffffffffffffffffffffffffffffffffffff16815260200191505060206040518083038186803b158015611bc157600080fd5b505afa158015611bd5573d6000803e3d6000fd5b505050506040513d6020811015611beb57600080fd5b81019080805190602001909291905050506fffffffffffffffffffffffffffffffff16119050828015611c1b5750815b8015611c245750805b94505050505090565b6000806000611e6a611c3d61170e565b73ffffffffffffffffffffffffffffffffffffffff166370a08231600160009054906101000a900473ffffffffffffffffffffffffffffffffffffffff1673ffffffffffffffffffffffffffffffffffffffff16632906e3d56040518060400160405280600781526020017f52657365727665000000000000000000000000000000000000000000000000008152506040518263ffffffff1660e01b81526004018080602001828103825283818151815260200191508051906020019080838360005b83811015611d1b578082015181840152602081019050611d00565b50505050905090810190601f168015611d485780820380516001836020036101000a031916815260200191505b509250505060206040518083038186803b158015611d6557600080fd5b505afa158015611d79573d6000803e3d6000fd5b505050506040513d6020811015611d8f57600080fd5b81019080805190602001909291905050506040518263ffffffff1660e01b8152600401808273ffffffffffffffffffffffffffffffffffffffff1673ffffffffffffffffffffffffffffffffffffffff16815260200191505060206040518083038186803b158015611e0057600080fd5b505afa158015611e14573d6000803e3d6000fd5b505050506040513d6020811015611e2a57600080fd5b8101908080519060200190929190505050600460405180604001604052908160008201548152602001600182015481525050611fb890919063ffffffff16565b90506000611e8882611e7a611fef565b611fb890919063ffffffff16565b905081819350935050509091565b600073ffffffffffffffffffffffffffffffffffffffff168173ffffffffffffffffffffffffffffffffffffffff161415611ed057600080fd5b8073ffffffffffffffffffffffffffffffffffffffff16600060019054906101000a900473ffffffffffffffffffffffffffffffffffffffff1673ffffffffffffffffffffffffffffffffffffffff167f8be0079c531659141344cd1fd0a4f28419497f9722a3daafe3b4186f6b6457e060405160405180910390a380600060016101000a81548173ffffffffffffffffffffffffffffffffffffffff021916908373ffffffffffffffffffffffffffffffffffffffff16021790555050565b6000808215611fa85760085460075491509150611fb3565b600754600854915091505b915091565b6000611fe78360200151611fd984866000015161185d90919063ffffffff16565b61189790919063ffffffff16565b905092915050565b611ff761226c565b600080600160009054906101000a900473ffffffffffffffffffffffffffffffffffffffff1673ffffffffffffffffffffffffffffffffffffffff16632906e3d56040518060400160405280600d81526020017f536f727465644f7261636c6573000000000000000000000000000000000000008152506040518263ffffffff1660e01b81526004018080602001828103825283818151815260200191508051906020019080838360005b838110156120bd5780820151818401526020810190506120a2565b50505050905090810190601f1680156120ea5780820380516001836020036101000a031916815260200191505b509250505060206040518083038186803b15801561210757600080fd5b505afa15801561211b573d6000803e3d6000fd5b505050506040513d602081101561213157600080fd5b810190808051906020019092919050505073ffffffffffffffffffffffffffffffffffffffff1663ef90e1b0600660009054906101000a900473ffffffffffffffffffffffffffffffffffffffff166040518263ffffffff1660e01b8152600401808273ffffffffffffffffffffffffffffffffffffffff1673ffffffffffffffffffffffffffffffffffffffff168152602001915050604080518083038186803b1580156121df57600080fd5b505afa1580156121f3573d6000803e3d6000fd5b505050506040513d604081101561220957600080fd5b81019080805190602001909291908051906020019092919050505080925081935050506040518060400160405280836fffffffffffffffffffffffffffffffff168152602001826fffffffffffffffffffffffffffffffff168152509250505090565b60405180604001604052806000815260200160008152509056fe43616c63756c6174656420627579416d6f756e7420776173206c657373207468616e20737065636966696564206d696e427579416d6f756e74a165627a7a723058204a7fc7af663db4d3c5e0fbe6bce495f083f24386df78c5b6cfb6d38f2d15f6560029",
  "source": "pragma solidity ^0.5.8;\n\nimport \"openzeppelin-solidity/contracts/math/SafeMath.sol\";\nimport \"openzeppelin-solidity/contracts/ownership/Ownable.sol\";\nimport \"./interfaces/IExchange.sol\";\nimport \"./interfaces/ISortedOracles.sol\";\nimport \"./interfaces/IReserve.sol\";\nimport \"./interfaces/IStableToken.sol\";\nimport \"./FractionUtil.sol\";\nimport \"../common/Initializable.sol\";\nimport \"../common/UsingRegistry.sol\";\nimport \"../common/interfaces/IERC20Token.sol\";\n\n\n/**\n * @title Contract that allows to exchange StableToken for GoldToken and vice versa\n * using a Constant Product Market Maker Model\n */\ncontract Exchange is IExchange, Initializable, Ownable, UsingRegistry {\n  using SafeMath for uint256;\n  using FractionUtil for FractionUtil.Fraction;\n\n  event Exchanged(\n    address indexed exchanger,\n    uint256 sellAmount,\n    uint256 buyAmount,\n    bool soldGold\n  );\n\n  event UpdateFrequencySet(\n    uint256 updateFrequency\n  );\n\n  event MinimumReportsSet(\n    uint256 minimumReports\n  );\n\n  FractionUtil.Fraction public spread;\n  // Fraction of the Reserve that is committed to the gold bucket when updating\n  // buckets.\n  FractionUtil.Fraction public reserveFraction;\n\n  address public stable;\n\n  // Size of the Uniswap gold bucket\n  uint256 public goldBucket;\n  // Size of the Uniswap stable token bucket\n  uint256 public stableBucket;\n\n  uint256 public lastBucketUpdate = 0;\n  uint256 public updateFrequency;\n  uint256 public minimumReports;\n\n  modifier updateBucketsIfNecessary() {\n    _updateBucketsIfNecessary();\n    _;\n  }\n\n  // TODO: Remove this one with https://github.com/celo-org/celo-monorepo/issues/2000\n  // solhint-disable-next-line\n  function() external payable {}\n\n  /**\n   * @dev Initializes the exchange, setting initial bucket sizes\n   * @param registryAddress Address of the Registry contract\n   * @param stableToken Address of the stable token\n   * @param spreadNumerator Numerator of the spread charged on exchanges\n   * @param spreadDenominator Denominator of the spread charged on exchanges\n   * @param reserveFractionNumerator Numerator of the reserve fraction to commit\n   * to the gold bucket\n   * @param reserveFractionDenominator Denominator of the reserve fraction to commit\n   * to the gold bucket\n   * @param _updateFrequency The time period that needs to elapse between bucket\n   * updates\n   * @param _minimumReports The minimum number of fresh reports that need to be\n   * present in the oracle to update buckets\n   * commit to the gold bucket\n   */\n  function initialize(\n    address registryAddress,\n    address stableToken,\n    uint256 spreadNumerator,\n    uint256 spreadDenominator,\n    uint256 reserveFractionNumerator,\n    uint256 reserveFractionDenominator,\n    uint256 _updateFrequency,\n    uint256 _minimumReports\n  )\n    external\n    initializer\n  {\n    _transferOwnership(msg.sender);\n    setRegistry(registryAddress);\n    stable = stableToken;\n    spread = FractionUtil.Fraction(spreadNumerator, spreadDenominator);\n    reserveFraction = FractionUtil.Fraction(\n      reserveFractionNumerator,\n      reserveFractionDenominator\n    );\n    updateFrequency = _updateFrequency;\n    minimumReports = _minimumReports;\n    _updateBucketsIfNecessary();\n  }\n\n  /**\n   * @dev Exchanges sellAmount of sellToken in exchange for at least minBuyAmount of buyToken\n   * Requires the sellAmount to have been approved to the exchange\n   * @param sellAmount The amount of sellToken the user is selling to the exchange\n   * @param minBuyAmount The minimum amount of buyToken the user has to receive for this\n   * transaction to succeed\n   * @param sellGold `true` if gold is the sell token\n   * @return The amount of buyToken that was transfered\n   */\n  function exchange(\n    uint256 sellAmount,\n    uint256 minBuyAmount,\n    bool sellGold\n  )\n    external\n    updateBucketsIfNecessary\n    returns (uint256)\n  {\n    uint256 buyAmount = _getBuyTokenAmount(sellAmount, sellGold);\n\n    require(buyAmount >= minBuyAmount, \"Calculated buyAmount was less than specified minBuyAmount\");\n\n    IReserve reserve = IReserve(registry.getAddressForOrDie(RESERVE_REGISTRY_ID));\n\n    if (sellGold) {\n      goldBucket = goldBucket.add(sellAmount);\n      stableBucket = stableBucket.sub(buyAmount);\n      require(\n        gold().transferFrom(msg.sender, address(reserve), sellAmount),\n        \"Transfer of sell token failed\"\n      );\n      require(IStableToken(stable).mint(msg.sender, buyAmount), \"Mint of stable token failed\");\n    } else {\n      stableBucket = stableBucket.add(sellAmount);\n      goldBucket = goldBucket.sub(buyAmount);\n      require(\n        IERC20Token(stable).transferFrom(msg.sender, address(this), sellAmount),\n        \"Transfer of sell token failed\"\n      );\n      IStableToken(stable).burn(sellAmount);\n\n      require(reserve.transferGold(msg.sender, buyAmount), \"Transfer of buyToken failed\");\n    }\n\n    emit Exchanged(msg.sender, sellAmount, buyAmount, sellGold);\n    return buyAmount;\n  }\n\n  /**\n   * @dev Returns the amount of buyToken a user would get for sellAmount of sellToken\n   * @param sellAmount The amount of sellToken the user is selling to the exchange\n   * @param sellGold `true` if gold is the sell token\n   * @return The corresponding buyToken amount.\n   */\n  function getBuyTokenAmount(\n    uint256 sellAmount,\n    bool sellGold\n  )\n    external\n    view\n    returns (uint256)\n  {\n    uint256 sellTokenBucket;\n    uint256 buyTokenBucket;\n    (buyTokenBucket, sellTokenBucket) = getBuyAndSellBuckets(sellGold);\n\n    uint256 x = spread.denominator.sub(spread.numerator).mul(sellAmount);\n    uint256 numerator = x.mul(buyTokenBucket);\n    uint256 denominator = sellTokenBucket.mul(spread.denominator).add(x);\n\n    return numerator.div(denominator);\n  }\n\n  /**\n   * @dev Returns the amount of sellToken a user would need to exchange to receive buyAmount of\n   * buyToken.\n   * @param buyAmount The amount of buyToken the user would like to purchase.\n   * @param sellGold `true` if gold is the sell token\n   * @return The corresponding sellToken amount.\n   */\n  function getSellTokenAmount(\n    uint256 buyAmount,\n    bool sellGold\n  )\n    external\n    view\n    returns (uint256)\n  {\n    uint256 sellTokenBucket;\n    uint256 buyTokenBucket;\n    (buyTokenBucket, sellTokenBucket) = getBuyAndSellBuckets(sellGold);\n\n    uint256 numerator = spread.denominator.mul(buyAmount).mul(sellTokenBucket);\n    uint256 denominator = spread.denominator.sub(spread.numerator).mul(\n      buyTokenBucket.sub(buyAmount)\n    );\n\n    return numerator.div(denominator);\n  }\n\n  /**\n   * @notice Returns the buy token and sell token bucket sizes, in order. The ratio of\n   * the two also represents the exchange rate between the two.\n   * @param sellGold `true` if gold is the sell token\n   * @return (buyTokenBucket, sellTokenBucket)\n   */\n  function getBuyAndSellBuckets(bool sellGold) public view returns (uint256, uint256) {\n    uint256 currentGoldBucket = goldBucket;\n    uint256 currentStableBucket = stableBucket;\n\n    if (shouldUpdateBuckets()) {\n      (currentGoldBucket, currentStableBucket) = getUpdatedBuckets();\n    }\n\n    if (sellGold) {\n      return (currentStableBucket, currentGoldBucket);\n    } else {\n      return (currentGoldBucket, currentStableBucket);\n    }\n  }\n\n  /**\n    * @notice Allows owner to set the update frequency\n    * @param newUpdateFrequency The new update frequency\n    */\n  function setUpdateFrequency(uint256 newUpdateFrequency) public onlyOwner {\n    updateFrequency = newUpdateFrequency;\n    emit UpdateFrequencySet(newUpdateFrequency);\n  }\n\n  /**\n    * @notice Allows owner to set the minimum number of reports required\n    * @param newMininumReports The new update minimum number of reports required\n    */\n  function setMinimumReports(uint256 newMininumReports) public onlyOwner {\n    minimumReports = newMininumReports;\n    emit MinimumReportsSet(newMininumReports);\n  }\n\n  /**\n   * @notice Returns the sell token and buy token bucket sizes, in order. The ratio of\n   * the two also represents the exchange rate between the two.\n   * @param sellGold `true` if gold is the sell token\n   * @return (sellTokenBucket, buyTokenBucket)\n   */\n  function _getBuyAndSellBuckets(bool sellGold) private view returns (uint256, uint256) {\n    if (sellGold) {\n      return (stableBucket, goldBucket);\n    } else {\n      return (goldBucket, stableBucket);\n    }\n  }\n\n  /**\n   * @dev Returns the amount of buyToken a user would get for sellAmount of sellToken\n   * @param sellAmount The amount of sellToken the user is selling to the exchange\n   * @param sellGold `true` if gold is the sell token\n   * @return The corresponding buyToken amount.\n   */\n  function _getBuyTokenAmount(\n    uint256 sellAmount,\n    bool sellGold\n  )\n    private\n    view\n    returns (uint256)\n  {\n    uint256 sellTokenBucket;\n    uint256 buyTokenBucket;\n    (buyTokenBucket, sellTokenBucket) = _getBuyAndSellBuckets(sellGold);\n\n    uint256 x = spread.denominator.sub(spread.numerator).mul(sellAmount);\n    uint256 numerator = x.mul(buyTokenBucket);\n    uint256 denominator = sellTokenBucket.mul(spread.denominator).add(x);\n\n    return numerator.div(denominator);\n  }\n\n  function getUpdatedBuckets() private view returns (uint256, uint256) {\n    uint256 updatedGoldBucket = reserveFraction.mul(\n        gold().balanceOf(registry.getAddressForOrDie(RESERVE_REGISTRY_ID))\n      );\n    uint256 updatedStableBucket = getOracleExchangeRate().mul(updatedGoldBucket);\n\n    return (updatedGoldBucket, updatedStableBucket);\n  }\n\n  /**\n   * @notice If conditions are met, updates the Uniswap bucket sizes to track\n   * the price reported by the Oracle.\n   */\n  function _updateBucketsIfNecessary() private {\n    if (shouldUpdateBuckets()) {\n      // solhint-disable-next-line not-rely-on-time\n      lastBucketUpdate = now;\n\n      (goldBucket, stableBucket) = getUpdatedBuckets();\n    }\n  }\n\n  /*\n   * Checks conditions required for bucket updates.\n   * @return Whether or not buckets should be updated.\n   * TODO: check the oldest report isn't expired\n   */\n  function shouldUpdateBuckets() private view returns (bool) {\n    ISortedOracles sortedOracles =\n      ISortedOracles(registry.getAddressForOrDie(SORTED_ORACLES_REGISTRY_ID));\n    // solhint-disable-next-line not-rely-on-time\n    bool timePassed = now >= lastBucketUpdate.add(updateFrequency);\n    bool enoughReports = sortedOracles.numRates(stable) >= minimumReports;\n    bool medianReportRecent =\n    // solhint-disable-next-line not-rely-on-time\n      sortedOracles.medianTimestamp(stable) > now.sub(updateFrequency);\n    return timePassed && enoughReports && medianReportRecent;\n  }\n\n  function getOracleExchangeRate() private view returns (FractionUtil.Fraction memory) {\n    uint128 rateNumerator;\n    uint128 rateDenominator;\n    (rateNumerator, rateDenominator) =\n      ISortedOracles(registry.getAddressForOrDie(SORTED_ORACLES_REGISTRY_ID)).medianRate(stable);\n    return FractionUtil.Fraction(rateNumerator, rateDenominator);\n  }\n\n  function gold() private view returns (IERC20Token) {\n    return IERC20Token(registry.getAddressForOrDie(GOLD_TOKEN_REGISTRY_ID));\n  }\n}\n",
  "sourcePath": "/Users/yorhodes/celo/celo-monorepo/packages/protocol/contracts/stability/Exchange.sol",
  "compiler": {
    "name": "solc",
    "version": "0.5.8+commit.23d335f2.Emscripten.clang"
  },
  "schemaVersion": "3.0.9",
  "updatedAt": "2019-07-17T03:09:18.850Z",
  "devdoc": {
    "methods": {
      "exchange(uint256,uint256,bool)": {
        "details": "Exchanges sellAmount of sellToken in exchange for at least minBuyAmount of buyToken Requires the sellAmount to have been approved to the exchange",
        "params": {
          "minBuyAmount": "The minimum amount of buyToken the user has to receive for this transaction to succeed",
          "sellAmount": "The amount of sellToken the user is selling to the exchange",
          "sellGold": "`true` if gold is the sell token"
        },
        "return": "The amount of buyToken that was transfered"
      },
      "getBuyAndSellBuckets(bool)": {
        "params": {
          "sellGold": "`true` if gold is the sell token"
        },
        "return": "(buyTokenBucket, sellTokenBucket)"
      },
      "getBuyTokenAmount(uint256,bool)": {
        "details": "Returns the amount of buyToken a user would get for sellAmount of sellToken",
        "params": {
          "sellAmount": "The amount of sellToken the user is selling to the exchange",
          "sellGold": "`true` if gold is the sell token"
        },
        "return": "The corresponding buyToken amount."
      },
      "getSellTokenAmount(uint256,bool)": {
        "details": "Returns the amount of sellToken a user would need to exchange to receive buyAmount of buyToken.",
        "params": {
          "buyAmount": "The amount of buyToken the user would like to purchase.",
          "sellGold": "`true` if gold is the sell token"
        },
        "return": "The corresponding sellToken amount."
      },
      "initialize(address,address,uint256,uint256,uint256,uint256,uint256,uint256)": {
        "details": "Initializes the exchange, setting initial bucket sizes",
        "params": {
          "_minimumReports": "The minimum number of fresh reports that need to be present in the oracle to update buckets commit to the gold bucket",
          "_updateFrequency": "The time period that needs to elapse between bucket updates",
          "registryAddress": "Address of the Registry contract",
          "reserveFractionDenominator": "Denominator of the reserve fraction to commit to the gold bucket",
          "reserveFractionNumerator": "Numerator of the reserve fraction to commit to the gold bucket",
          "spreadDenominator": "Denominator of the spread charged on exchanges",
          "spreadNumerator": "Numerator of the spread charged on exchanges",
          "stableToken": "Address of the stable token"
        }
      },
      "isOwner()": {
        "return": "true if `msg.sender` is the owner of the contract."
      },
      "owner()": {
        "return": "the address of the owner."
      },
      "renounceOwnership()": {
        "details": "Allows the current owner to relinquish control of the contract. It will not be possible to call the functions with the `onlyOwner` modifier anymore."
      },
      "setMinimumReports(uint256)": {
        "params": {
          "newMininumReports": "The new update minimum number of reports required"
        }
      },
      "setRegistry(address)": {
        "params": {
          "registryAddress": "The address of a registry contract for routing to other contracts."
        }
      },
      "setUpdateFrequency(uint256)": {
        "params": {
          "newUpdateFrequency": "The new update frequency"
        }
      },
      "transferOwnership(address)": {
        "details": "Allows the current owner to transfer control of the contract to a newOwner.",
        "params": {
          "newOwner": "The address to transfer ownership to."
        }
      }
    },
    "title": "Contract that allows to exchange StableToken for GoldToken and vice versa using a Constant Product Market Maker Model"
  },
  "userdoc": {
    "methods": {
      "getBuyAndSellBuckets(bool)": {
        "notice": "Returns the buy token and sell token bucket sizes, in order. The ratio of the two also represents the exchange rate between the two."
      },
      "renounceOwnership()": {
        "notice": "Renouncing ownership will leave the contract without an owner, thereby removing any functionality that is only available to the owner."
      },
      "setMinimumReports(uint256)": {
        "notice": "Allows owner to set the minimum number of reports required"
      },
      "setRegistry(address)": {
        "notice": "Updates the address pointing to a Registry contract."
      },
      "setUpdateFrequency(uint256)": {
        "notice": "Allows owner to set the update frequency"
      }
    }
  }
}