{
  "contractName": "FractionUtilTest",
  "abi": [
    {
      "constant": true,
      "inputs": [
        {
          "name": "numerator",
          "type": "uint256"
        },
        {
          "name": "denominator",
          "type": "uint256"
        }
      ],
      "name": "reduce",
      "outputs": [
        {
          "name": "",
          "type": "uint256"
        },
        {
          "name": "",
          "type": "uint256"
        }
      ],
      "payable": false,
      "stateMutability": "pure",
      "type": "function"
    },
    {
      "constant": true,
      "inputs": [
        {
          "name": "numeratorA",
          "type": "uint256"
        },
        {
          "name": "denominatorA",
          "type": "uint256"
        },
        {
          "name": "numeratorB",
          "type": "uint256"
        },
        {
          "name": "denominatorB",
          "type": "uint256"
        }
      ],
      "name": "equals",
      "outputs": [
        {
          "name": "",
          "type": "bool"
        }
      ],
      "payable": false,
      "stateMutability": "pure",
      "type": "function"
    },
    {
      "constant": true,
      "inputs": [
        {
          "name": "numeratorA",
          "type": "uint256"
        },
        {
          "name": "denominatorA",
          "type": "uint256"
        },
        {
          "name": "numeratorB",
          "type": "uint256"
        },
        {
          "name": "denominatorB",
          "type": "uint256"
        }
      ],
      "name": "add",
      "outputs": [
        {
          "name": "",
          "type": "uint256"
        },
        {
          "name": "",
          "type": "uint256"
        }
      ],
      "payable": false,
      "stateMutability": "pure",
      "type": "function"
    },
    {
      "constant": true,
      "inputs": [
        {
          "name": "numeratorA",
          "type": "uint256"
        },
        {
          "name": "denominatorA",
          "type": "uint256"
        },
        {
          "name": "numeratorB",
          "type": "uint256"
        },
        {
          "name": "denominatorB",
          "type": "uint256"
        }
      ],
      "name": "sub",
      "outputs": [
        {
          "name": "",
          "type": "uint256"
        },
        {
          "name": "",
          "type": "uint256"
        }
      ],
      "payable": false,
      "stateMutability": "pure",
      "type": "function"
    },
    {
      "constant": true,
      "inputs": [
        {
          "name": "numerator",
          "type": "uint256"
        },
        {
          "name": "denominator",
          "type": "uint256"
        },
        {
          "name": "y",
          "type": "uint256"
        }
      ],
      "name": "mul",
      "outputs": [
        {
          "name": "",
          "type": "uint256"
        }
      ],
      "payable": false,
      "stateMutability": "pure",
      "type": "function"
    },
    {
      "constant": true,
      "inputs": [
        {
          "name": "numeratorA",
          "type": "uint256"
        },
        {
          "name": "denominatorA",
          "type": "uint256"
        },
        {
          "name": "numeratorB",
          "type": "uint256"
        },
        {
          "name": "denominatorB",
          "type": "uint256"
        }
      ],
      "name": "isGreaterThan",
      "outputs": [
        {
          "name": "",
          "type": "bool"
        }
      ],
      "payable": false,
      "stateMutability": "pure",
      "type": "function"
    },
    {
      "constant": true,
      "inputs": [
        {
          "name": "numeratorA",
          "type": "uint256"
        },
        {
          "name": "denominatorA",
          "type": "uint256"
        },
        {
          "name": "numeratorB",
          "type": "uint256"
        },
        {
          "name": "denominatorB",
          "type": "uint256"
        }
      ],
      "name": "isGreaterThanOrEqualTo",
      "outputs": [
        {
          "name": "",
          "type": "bool"
        }
      ],
      "payable": false,
      "stateMutability": "pure",
      "type": "function"
    },
    {
      "constant": true,
      "inputs": [
        {
          "name": "numeratorA",
          "type": "uint256"
        },
        {
          "name": "denominatorA",
          "type": "uint256"
        },
        {
          "name": "numeratorB",
          "type": "uint256"
        },
        {
          "name": "denominatorB",
          "type": "uint256"
        }
      ],
      "name": "isLessThan",
      "outputs": [
        {
          "name": "",
          "type": "bool"
        }
      ],
      "payable": false,
      "stateMutability": "pure",
      "type": "function"
    },
    {
      "constant": true,
      "inputs": [
        {
          "name": "numeratorA",
          "type": "uint256"
        },
        {
          "name": "denominatorA",
          "type": "uint256"
        },
        {
          "name": "numeratorB",
          "type": "uint256"
        },
        {
          "name": "denominatorB",
          "type": "uint256"
        }
      ],
      "name": "isLessThanOrEqualTo",
      "outputs": [
        {
          "name": "",
          "type": "bool"
        }
      ],
      "payable": false,
      "stateMutability": "pure",
      "type": "function"
    }
  ],
  "bytecode": "0x608060405234801561001057600080fd5b50610b72806100206000396000f3fe608060405234801561001057600080fd5b50600436106100935760003560e01c806399ecedf61161006657806399ecedf61461022b578063b00c4d1f1461027e578063e022d77c146102e2578063e91cac2d14610349578063ecc6ca381461039f57610093565b8063252bbb6f1461009857806345a28c82146100ff57806366a90f58146101635780636b013730146101c7575b600080fd5b6100e2600480360360808110156100ae57600080fd5b8101908080359060200190929190803590602001909291908035906020019092919080359060200190929190505050610403565b604051808381526020018281526020019250505060405180910390f35b6101496004803603608081101561011557600080fd5b810190808035906020019092919080359060200190929190803590602001909291908035906020019092919050505061047b565b604051808215151515815260200191505060405180910390f35b6101ad6004803603608081101561017957600080fd5b81019080803590602001909291908035906020019092919080359060200190929190803590602001909291905050506104da565b604051808215151515815260200191505060405180910390f35b610211600480360360808110156101dd57600080fd5b8101908080359060200190929190803590602001909291908035906020019092919080359060200190929190505050610539565b604051808215151515815260200191505060405180910390f35b6102616004803603604081101561024157600080fd5b810190808035906020019092919080359060200190929190505050610598565b604051808381526020018281526020019250505060405180910390f35b6102c86004803603608081101561029457600080fd5b81019080803590602001909291908035906020019092919080359060200190929190803590602001909291905050506105db565b604051808215151515815260200191505060405180910390f35b61032c600480360360808110156102f857600080fd5b810190808035906020019092919080359060200190929190803590602001909291908035906020019092919050505061063a565b604051808381526020018281526020019250505060405180910390f35b6103896004803603606081101561035f57600080fd5b810190808035906020019092919080359060200190929190803590602001909291905050506106b2565b6040518082815260200191505060405180910390f35b6103e9600480360360808110156103b557600080fd5b81019080803590602001909291908035906020019092919080359060200190929190803590602001909291905050506106f0565b604051808215151515815260200191505060405180910390f35b60008061040e610b2c565b604051806040016040528088815260200187815250905061042d610b2c565b604051806040016040528087815260200186815250905061044c610b2c565b61045f828461074f90919063ffffffff16565b9050806000015181602001519450945050505094509492505050565b6000610485610b2c565b60405180604001604052808781526020018681525090506104a4610b2c565b60405180604001604052808681526020018581525090506104ce81836107ef90919063ffffffff16565b92505050949350505050565b60006104e4610b2c565b6040518060400160405280878152602001868152509050610503610b2c565b604051806040016040528086815260200185815250905061052d818361083090919063ffffffff16565b92505050949350505050565b6000610543610b2c565b6040518060400160405280878152602001868152509050610562610b2c565b604051806040016040528086815260200185815250905061058c818361087290919063ffffffff16565b92505050949350505050565b6000806105a3610b2c565b60405180604001604052808681526020018581525090506105c3816108b3565b90508060000151816020015192509250509250929050565b60006105e5610b2c565b6040518060400160405280878152602001868152509050610604610b2c565b604051806040016040528086815260200185815250905061062e818361094690919063ffffffff16565b92505050949350505050565b600080610645610b2c565b6040518060400160405280888152602001878152509050610664610b2c565b6040518060400160405280878152602001868152509050610683610b2c565b610696828461098890919063ffffffff16565b9050806000015181602001519450945050505094509492505050565b60006106bc610b2c565b60405180604001604052808681526020018581525090506106e68382610a1590919063ffffffff16565b9150509392505050565b60006106fa610b2c565b6040518060400160405280878152602001868152509050610719610b2c565b60405180604001604052808681526020018581525090506107438183610a4c90919063ffffffff16565b92505050949350505050565b610757610b2c565b6107618383610830565b61076a57600080fd5b6107e760405180604001604052806107bf61079687602001518760000151610a8d90919063ffffffff16565b6107b187602001518960000151610a8d90919063ffffffff16565b610ac790919063ffffffff16565b81526020016107df85602001518760200151610a8d90919063ffffffff16565b8152506108b3565b905092915050565b600061080c83602001518360000151610a8d90919063ffffffff16565b61082783602001518560000151610a8d90919063ffffffff16565b10905092915050565b600061084d83602001518360000151610a8d90919063ffffffff16565b61086883602001518560000151610a8d90919063ffffffff16565b1015905092915050565b600061088f83602001518360000151610a8d90919063ffffffff16565b6108aa83602001518560000151610a8d90919063ffffffff16565b11905092915050565b6108bb610b2c565b6000826020015190506000836000015190505b600081146108f05760008183816108e157fe5b069050819250809150506108ce565b6108f8610b2c565b604051806040016040528061091a858860000151610ae790919063ffffffff16565b8152602001610936858860200151610ae790919063ffffffff16565b8152509050809350505050919050565b600061096383602001518360000151610a8d90919063ffffffff16565b61097e83602001518560000151610a8d90919063ffffffff16565b1115905092915050565b610990610b2c565b610a0d60405180604001604052806109e56109bc87602001518760000151610a8d90919063ffffffff16565b6109d787602001518960000151610a8d90919063ffffffff16565b610b0d90919063ffffffff16565b8152602001610a0585602001518760200151610a8d90919063ffffffff16565b8152506108b3565b905092915050565b6000610a448360200151610a36848660000151610a8d90919063ffffffff16565b610ae790919063ffffffff16565b905092915050565b6000610a6983602001518360000151610a8d90919063ffffffff16565b610a8483602001518560000151610a8d90919063ffffffff16565b14905092915050565b600080831415610aa05760009050610ac1565b6000828402905082848281610ab157fe5b0414610abc57600080fd5b809150505b92915050565b600082821115610ad657600080fd5b600082840390508091505092915050565b6000808211610af557600080fd5b6000828481610b0057fe5b0490508091505092915050565b600080828401905083811015610b2257600080fd5b8091505092915050565b60405180604001604052806000815260200160008152509056fea165627a7a723058202521450a3489a1df97c40f2f3006f452d92b8ceb316451a6a9b4efc84226d5b90029",
  "source": "pragma solidity ^0.5.8;\n\nimport \"../FractionUtil.sol\";\n\n\n// TODO(asa) Actually test this\ncontract FractionUtilTest {\n\n  using FractionUtil for FractionUtil.Fraction;\n\n  function reduce(uint256 numerator, uint256 denominator) external pure returns (uint256, uint256) {\n    FractionUtil.Fraction memory fraction = FractionUtil.Fraction(numerator, denominator);\n    fraction = fraction.reduce();\n    return (fraction.numerator, fraction.denominator);\n  }\n\n  function equals(\n    uint256 numeratorA,\n    uint256 denominatorA,\n    uint256 numeratorB,\n    uint256 denominatorB\n  )\n    external\n    pure\n    returns (bool)\n  {\n    FractionUtil.Fraction memory fractionA = FractionUtil.Fraction(numeratorA, denominatorA);\n    FractionUtil.Fraction memory fractionB = FractionUtil.Fraction(numeratorB, denominatorB);\n    return fractionA.equals(fractionB);\n  }\n\n  function add(\n    uint256 numeratorA,\n    uint256 denominatorA,\n    uint256 numeratorB,\n    uint256 denominatorB\n  )\n    external\n    pure\n    returns (uint256, uint256)\n  {\n    FractionUtil.Fraction memory fractionA = FractionUtil.Fraction(numeratorA, denominatorA);\n    FractionUtil.Fraction memory fractionB = FractionUtil.Fraction(numeratorB, denominatorB);\n    FractionUtil.Fraction memory fraction = fractionA.add(fractionB);\n    return (fraction.numerator, fraction.denominator);\n  }\n\n  function sub(\n    uint256 numeratorA,\n    uint256 denominatorA,\n    uint256 numeratorB,\n    uint256 denominatorB\n  )\n    external\n    pure\n    returns (uint256, uint256)\n  {\n    FractionUtil.Fraction memory fractionA = FractionUtil.Fraction(numeratorA, denominatorA);\n    FractionUtil.Fraction memory fractionB = FractionUtil.Fraction(numeratorB, denominatorB);\n    FractionUtil.Fraction memory fraction = fractionA.sub(fractionB);\n    return (fraction.numerator, fraction.denominator);\n  }\n\n  function mul(uint256 numerator, uint256 denominator, uint256 y) external pure returns (uint256) {\n    FractionUtil.Fraction memory fraction = FractionUtil.Fraction(numerator, denominator);\n    return fraction.mul(y);\n  }\n\n  function isGreaterThan(\n    uint256 numeratorA,\n    uint256 denominatorA,\n    uint256 numeratorB,\n    uint256 denominatorB\n  )\n    external\n    pure\n    returns (bool)\n  {\n    FractionUtil.Fraction memory fractionA = FractionUtil.Fraction(numeratorA, denominatorA);\n    FractionUtil.Fraction memory fractionB = FractionUtil.Fraction(numeratorB, denominatorB);\n    return fractionA.isGreaterThan(fractionB);\n  }\n\n  function isGreaterThanOrEqualTo(\n    uint256 numeratorA,\n    uint256 denominatorA,\n    uint256 numeratorB,\n    uint256 denominatorB\n  )\n    external\n    pure\n    returns (bool)\n  {\n    FractionUtil.Fraction memory fractionA = FractionUtil.Fraction(numeratorA, denominatorA);\n    FractionUtil.Fraction memory fractionB = FractionUtil.Fraction(numeratorB, denominatorB);\n    return fractionA.isGreaterThanOrEqualTo(fractionB);\n  }\n\n  function isLessThan(\n    uint256 numeratorA,\n    uint256 denominatorA,\n    uint256 numeratorB,\n    uint256 denominatorB\n  )\n    external\n    pure\n    returns (bool)\n  {\n    FractionUtil.Fraction memory fractionA = FractionUtil.Fraction(numeratorA, denominatorA);\n    FractionUtil.Fraction memory fractionB = FractionUtil.Fraction(numeratorB, denominatorB);\n    return fractionA.isLessThan(fractionB);\n  }\n\n  function isLessThanOrEqualTo(\n    uint256 numeratorA,\n    uint256 denominatorA,\n    uint256 numeratorB,\n    uint256 denominatorB\n  )\n    external\n    pure\n    returns (bool)\n  {\n    FractionUtil.Fraction memory fractionA = FractionUtil.Fraction(numeratorA, denominatorA);\n    FractionUtil.Fraction memory fractionB = FractionUtil.Fraction(numeratorB, denominatorB);\n    return fractionA.isLessThanOrEqualTo(fractionB);\n  }\n}\n",
  "sourcePath": "/Users/yorhodes/celo/celo-monorepo/packages/protocol/contracts/stability/test/FractionUtilTest.sol",
  "compiler": {
    "name": "solc",
    "version": "0.5.8+commit.23d335f2.Emscripten.clang"
  },
  "schemaVersion": "3.0.9",
  "updatedAt": "2019-07-17T03:09:19.061Z",
  "devdoc": {
    "methods": {}
  },
  "userdoc": {
    "methods": {}
  }
}