{
  "contractName": "GasPriceMinimum",
  "abi": [
    {
      "constant": true,
      "inputs": [],
      "name": "initialized",
      "outputs": [
        {
          "name": "",
          "type": "bool"
        }
      ],
      "payable": false,
      "stateMutability": "view",
      "type": "function"
    },
    {
      "constant": true,
      "inputs": [],
      "name": "gasPriceMinimum",
      "outputs": [
        {
          "name": "",
          "type": "uint256"
        }
      ],
      "payable": false,
      "stateMutability": "view",
      "type": "function"
    },
    {
      "constant": true,
      "inputs": [],
      "name": "targetDensity",
      "outputs": [
        {
          "name": "numerator",
          "type": "uint256"
        },
        {
          "name": "denominator",
          "type": "uint256"
        }
      ],
      "payable": false,
      "stateMutability": "view",
      "type": "function"
    },
    {
      "constant": false,
      "inputs": [],
      "name": "renounceOwnership",
      "outputs": [],
      "payable": false,
      "stateMutability": "nonpayable",
      "type": "function"
    },
    {
      "constant": true,
      "inputs": [],
      "name": "registry",
      "outputs": [
        {
          "name": "",
          "type": "address"
        }
      ],
      "payable": false,
      "stateMutability": "view",
      "type": "function"
    },
    {
      "constant": true,
      "inputs": [],
      "name": "owner",
      "outputs": [
        {
          "name": "",
          "type": "address"
        }
      ],
      "payable": false,
      "stateMutability": "view",
      "type": "function"
    },
    {
      "constant": true,
      "inputs": [],
      "name": "isOwner",
      "outputs": [
        {
          "name": "",
          "type": "bool"
        }
      ],
      "payable": false,
      "stateMutability": "view",
      "type": "function"
    },
    {
      "constant": true,
      "inputs": [],
      "name": "adjustmentSpeed",
      "outputs": [
        {
          "name": "numerator",
          "type": "uint256"
        },
        {
          "name": "denominator",
          "type": "uint256"
        }
      ],
      "payable": false,
      "stateMutability": "view",
      "type": "function"
    },
    {
      "constant": false,
      "inputs": [
        {
          "name": "registryAddress",
          "type": "address"
        }
      ],
      "name": "setRegistry",
      "outputs": [],
      "payable": false,
      "stateMutability": "nonpayable",
      "type": "function"
    },
    {
      "constant": true,
      "inputs": [],
      "name": "infrastructureFraction",
      "outputs": [
        {
          "name": "numerator",
          "type": "uint256"
        },
        {
          "name": "denominator",
          "type": "uint256"
        }
      ],
      "payable": false,
      "stateMutability": "view",
      "type": "function"
    },
    {
      "constant": false,
      "inputs": [
        {
          "name": "newOwner",
          "type": "address"
        }
      ],
      "name": "transferOwnership",
      "outputs": [],
      "payable": false,
      "stateMutability": "nonpayable",
      "type": "function"
    },
    {
      "anonymous": false,
      "inputs": [
        {
          "indexed": false,
          "name": "numerator",
          "type": "uint256"
        },
        {
          "indexed": false,
          "name": "denominator",
          "type": "uint256"
        }
      ],
      "name": "TargetDensitySet",
      "type": "event"
    },
    {
      "anonymous": false,
      "inputs": [
        {
          "indexed": false,
          "name": "numerator",
          "type": "uint256"
        },
        {
          "indexed": false,
          "name": "denominator",
          "type": "uint256"
        }
      ],
      "name": "AdjustmentSpeedSet",
      "type": "event"
    },
    {
      "anonymous": false,
      "inputs": [
        {
          "indexed": false,
          "name": "numerator",
          "type": "uint256"
        },
        {
          "indexed": false,
          "name": "denominator",
          "type": "uint256"
        }
      ],
      "name": "InfrastructureFractionSet",
      "type": "event"
    },
    {
      "anonymous": false,
      "inputs": [
        {
          "indexed": true,
          "name": "registryAddress",
          "type": "address"
        }
      ],
      "name": "RegistrySet",
      "type": "event"
    },
    {
      "anonymous": false,
      "inputs": [
        {
          "indexed": true,
          "name": "previousOwner",
          "type": "address"
        },
        {
          "indexed": true,
          "name": "newOwner",
          "type": "address"
        }
      ],
      "name": "OwnershipTransferred",
      "type": "event"
    },
    {
      "constant": false,
      "inputs": [
        {
          "name": "_registryAddress",
          "type": "address"
        },
        {
          "name": "initialGas",
          "type": "uint256"
        },
        {
          "name": "targetDensityNumerator",
          "type": "uint256"
        },
        {
          "name": "targetDensityDenominator",
          "type": "uint256"
        },
        {
          "name": "adjustmentSpeedNumerator",
          "type": "uint256"
        },
        {
          "name": "adjustmentSpeedDenominator",
          "type": "uint256"
        },
        {
          "name": "infrastructureFractionNumerator",
          "type": "uint256"
        },
        {
          "name": "infrastructureFractionDenominator",
          "type": "uint256"
        }
      ],
      "name": "initialize",
      "outputs": [],
      "payable": false,
      "stateMutability": "nonpayable",
      "type": "function"
    },
    {
      "constant": false,
      "inputs": [
        {
          "name": "numerator",
          "type": "uint256"
        },
        {
          "name": "denominator",
          "type": "uint256"
        }
      ],
      "name": "setAdjustmentSpeed",
      "outputs": [],
      "payable": false,
      "stateMutability": "nonpayable",
      "type": "function"
    },
    {
      "constant": false,
      "inputs": [
        {
          "name": "numerator",
          "type": "uint256"
        },
        {
          "name": "denominator",
          "type": "uint256"
        }
      ],
      "name": "setTargetDensity",
      "outputs": [],
      "payable": false,
      "stateMutability": "nonpayable",
      "type": "function"
    },
    {
      "constant": false,
      "inputs": [
        {
          "name": "numerator",
          "type": "uint256"
        },
        {
          "name": "denominator",
          "type": "uint256"
        }
      ],
      "name": "setInfrastructureFraction",
      "outputs": [],
      "payable": false,
      "stateMutability": "nonpayable",
      "type": "function"
    },
    {
      "constant": true,
      "inputs": [
        {
          "name": "tokenAddress",
          "type": "address"
        }
      ],
      "name": "getGasPriceMinimum",
      "outputs": [
        {
          "name": "",
          "type": "uint256"
        }
      ],
      "payable": false,
      "stateMutability": "view",
      "type": "function"
    },
    {
      "constant": false,
      "inputs": [
        {
          "name": "blockGasTotal",
          "type": "uint256"
        },
        {
          "name": "blockGasLimit",
          "type": "uint256"
        }
      ],
      "name": "updateGasPriceMinimum",
      "outputs": [
        {
          "name": "",
          "type": "uint256"
        }
      ],
      "payable": false,
      "stateMutability": "nonpayable",
      "type": "function"
    },
    {
      "constant": true,
      "inputs": [
        {
          "name": "blockGasTotal",
          "type": "uint256"
        },
        {
          "name": "blockGasLimit",
          "type": "uint256"
        }
      ],
      "name": "getUpdatedGasPriceMinimum",
      "outputs": [
        {
          "name": "",
          "type": "uint256"
        }
      ],
      "payable": false,
      "stateMutability": "view",
      "type": "function"
    }
  ],
  "bytecode": "0x6080604052336000806101000a81548173ffffffffffffffffffffffffffffffffffffffff021916908373ffffffffffffffffffffffffffffffffffffffff1602179055506000809054906101000a900473ffffffffffffffffffffffffffffffffffffffff1673ffffffffffffffffffffffffffffffffffffffff16600073ffffffffffffffffffffffffffffffffffffffff167f8be0079c531659141344cd1fd0a4f28419497f9722a3daafe3b4186f6b6457e060405160405180910390a361140f806100cf6000396000f3fe608060405234801561001057600080fd5b50600436106101165760003560e01c8063a54b7fc0116100a2578063c30d06a611610071578063c30d06a614610410578063ceea543314610435578063da0b47a21461046d578063ef712c5b146104a5578063f2fde38b146104f157610116565b8063a54b7fc014610303578063a68f548e1461035b578063a91ee0dc14610380578063c12398b4146103c457610116565b8063715018a6116100e9578063715018a6146101b85780637b103999146101c25780637ca5fc9d1461020c5780638da5cb5b146102975780638f32d59b146102e157610116565b806303c0fe851461011b578063158ef93e1461015357806336945c2d146101755780634a3d5fe214610193575b600080fd5b6101516004803603604081101561013157600080fd5b810190808035906020019092919080359060200190929190505050610535565b005b61015b6105cf565b604051808215151515815260200191505060405180910390f35b61017d6105e2565b6040518082815260200191505060405180910390f35b61019b6105e8565b604051808381526020018281526020019250505060405180910390f35b6101c06105fa565b005b6101ca6106ca565b604051808273ffffffffffffffffffffffffffffffffffffffff1673ffffffffffffffffffffffffffffffffffffffff16815260200191505060405180910390f35b610295600480360361010081101561022357600080fd5b81019080803573ffffffffffffffffffffffffffffffffffffffff169060200190929190803590602001909291908035906020019092919080359060200190929190803590602001909291908035906020019092919080359060200190929190803590602001909291905050506106f0565b005b61029f610766565b604051808273ffffffffffffffffffffffffffffffffffffffff1673ffffffffffffffffffffffffffffffffffffffff16815260200191505060405180910390f35b6102e961078f565b604051808215151515815260200191505060405180910390f35b6103456004803603602081101561031957600080fd5b81019080803573ffffffffffffffffffffffffffffffffffffffff1690602001909291905050506107e6565b6040518082815260200191505060405180910390f35b610363610c11565b604051808381526020018281526020019250505060405180910390f35b6103c26004803603602081101561039657600080fd5b81019080803573ffffffffffffffffffffffffffffffffffffffff169060200190929190505050610c23565b005b6103fa600480360360408110156103da57600080fd5b810190808035906020019092919080359060200190929190505050610cbb565b6040518082815260200191505060405180910390f35b610418610d0d565b604051808381526020018281526020019250505060405180910390f35b61046b6004803603604081101561044b57600080fd5b810190808035906020019092919080359060200190929190505050610d1f565b005b6104a36004803603604081101561048357600080fd5b810190808035906020019092919080359060200190929190505050610db9565b005b6104db600480360360408110156104bb57600080fd5b810190808035906020019092919080359060200190929190505050610e53565b6040518082815260200191505060405180910390f35b6105336004803603602081101561050757600080fd5b81019080803573ffffffffffffffffffffffffffffffffffffffff169060200190929190505050610f7b565b005b61053d61078f565b61054657600080fd5b60008111801561055557508082105b61055e57600080fd5b604051806040016040528083815260200182815250600360008201518160000155602082015181600101559050507f42cbf982469b130608c662131fbf79982224a501d916056ddc8577477e062d988282604051808381526020018281526020019250505060405180910390a15050565b600060149054906101000a900460ff1681565b60025481565b60038060000154908060010154905082565b61060261078f565b61060b57600080fd5b600073ffffffffffffffffffffffffffffffffffffffff166000809054906101000a900473ffffffffffffffffffffffffffffffffffffffff1673ffffffffffffffffffffffffffffffffffffffff167f8be0079c531659141344cd1fd0a4f28419497f9722a3daafe3b4186f6b6457e060405160405180910390a360008060006101000a81548173ffffffffffffffffffffffffffffffffffffffff021916908373ffffffffffffffffffffffffffffffffffffffff160217905550565b600160009054906101000a900473ffffffffffffffffffffffffffffffffffffffff1681565b600060149054906101000a900460ff161561070a57600080fd5b6001600060146101000a81548160ff02191690831515021790555061072e33610f98565b61073788610c23565b866002819055506107488686610535565b6107528484610d1f565b61075c8282610db9565b5050505050505050565b60008060009054906101000a900473ffffffffffffffffffffffffffffffffffffffff16905090565b60008060009054906101000a900473ffffffffffffffffffffffffffffffffffffffff1673ffffffffffffffffffffffffffffffffffffffff163373ffffffffffffffffffffffffffffffffffffffff1614905090565b60008073ffffffffffffffffffffffffffffffffffffffff168273ffffffffffffffffffffffffffffffffffffffff1614806109945750600160009054906101000a900473ffffffffffffffffffffffffffffffffffffffff1673ffffffffffffffffffffffffffffffffffffffff16632906e3d56040518060400160405280600981526020017f476f6c64546f6b656e00000000000000000000000000000000000000000000008152506040518263ffffffff1660e01b81526004018080602001828103825283818151815260200191508051906020019080838360005b838110156108e05780820151818401526020810190506108c5565b50505050905090810190601f16801561090d5780820380516001836020036101000a031916815260200191505b509250505060206040518083038186803b15801561092a57600080fd5b505afa15801561093e573d6000803e3d6000fd5b505050506040513d602081101561095457600080fd5b810190808051906020019092919050505073ffffffffffffffffffffffffffffffffffffffff168273ffffffffffffffffffffffffffffffffffffffff16145b156109a3576002549050610c0c565b6000600160009054906101000a900473ffffffffffffffffffffffffffffffffffffffff1673ffffffffffffffffffffffffffffffffffffffff16632906e3d56040518060400160405280600d81526020017f536f727465644f7261636c6573000000000000000000000000000000000000008152506040518263ffffffff1660e01b81526004018080602001828103825283818151815260200191508051906020019080838360005b83811015610a68578082015181840152602081019050610a4d565b50505050905090810190601f168015610a955780820380516001836020036101000a031916815260200191505b509250505060206040518083038186803b158015610ab257600080fd5b505afa158015610ac6573d6000803e3d6000fd5b505050506040513d6020811015610adc57600080fd5b810190808051906020019092919050505090506000808273ffffffffffffffffffffffffffffffffffffffff1663ef90e1b0866040518263ffffffff1660e01b8152600401808273ffffffffffffffffffffffffffffffffffffffff1673ffffffffffffffffffffffffffffffffffffffff168152602001915050604080518083038186803b158015610b6e57600080fd5b505afa158015610b82573d6000803e3d6000fd5b505050506040513d6040811015610b9857600080fd5b8101908080519060200190929190805190602001909291905050508092508193505050610c06816fffffffffffffffffffffffffffffffff16610bf8846fffffffffffffffffffffffffffffffff1660025461109090919063ffffffff16565b6110ca90919063ffffffff16565b93505050505b919050565b60058060000154908060010154905082565b610c2b61078f565b610c3457600080fd5b80600160006101000a81548173ffffffffffffffffffffffffffffffffffffffff021916908373ffffffffffffffffffffffffffffffffffffffff1602179055508073ffffffffffffffffffffffffffffffffffffffff167f27fe5f0c1c3b1ed427cc63d0f05759ffdecf9aec9e18d31ef366fc8a6cb5dc3b60405160405180910390a250565b60008073ffffffffffffffffffffffffffffffffffffffff163373ffffffffffffffffffffffffffffffffffffffff1614610cf257fe5b610cfc8383610e53565b600281905550600254905092915050565b60078060000154908060010154905082565b610d2761078f565b610d3057600080fd5b600081118015610d3f57508082105b610d4857600080fd5b604051806040016040528083815260200182815250600560008201518160000155602082015181600101559050507fb7b9183d445a132dbfbb54c2b72b5103046dee18babdf8c665995e1a1fdb81078282604051808381526020018281526020019250505060405180910390a15050565b610dc161078f565b610dca57600080fd5b600081118015610dd957508082105b610de257600080fd5b604051806040016040528083815260200182815250600760008201518160000155602082015181600101559050507fec1492fd12590f68202ab8b9973225caf1a3364235f2d67d8639b4fdab2272088282604051808381526020018281526020019250505060405180910390a15050565b6000610e5d6113c9565b60405180604001604052806001815260200160018152509050610e7e6113c9565b6040518060400160405280868152602001858152509050610e9d6113c9565b610f46610ef36003604051806040016040529081600082015481526020016001820154815250506005604051806040016040529081600082015481526020016001820154815250506110f090919063ffffffff16565b610f38610f29856005604051806040016040529081600082015481526020016001820154815250506110f090919063ffffffff16565b8661115190919063ffffffff16565b6111de90919063ffffffff16565b9050610f706001610f626002548461127e90919063ffffffff16565b6112b590919063ffffffff16565b935050505092915050565b610f8361078f565b610f8c57600080fd5b610f9581610f98565b50565b600073ffffffffffffffffffffffffffffffffffffffff168173ffffffffffffffffffffffffffffffffffffffff161415610fd257600080fd5b8073ffffffffffffffffffffffffffffffffffffffff166000809054906101000a900473ffffffffffffffffffffffffffffffffffffffff1673ffffffffffffffffffffffffffffffffffffffff167f8be0079c531659141344cd1fd0a4f28419497f9722a3daafe3b4186f6b6457e060405160405180910390a3806000806101000a81548173ffffffffffffffffffffffffffffffffffffffff021916908373ffffffffffffffffffffffffffffffffffffffff16021790555050565b6000808314156110a357600090506110c4565b60008284029050828482816110b457fe5b04146110bf57600080fd5b809150505b92915050565b60008082116110d857600080fd5b60008284816110e357fe5b0490508091505092915050565b6110f86113c9565b61114960405180604001604052806111218560000151876000015161109090919063ffffffff16565b81526020016111418560200151876020015161109090919063ffffffff16565b8152506112d4565b905092915050565b6111596113c9565b6111d660405180604001604052806111ae6111858760200151876000015161109090919063ffffffff16565b6111a08760200151896000015161109090919063ffffffff16565b6112b590919063ffffffff16565b81526020016111ce8560200151876020015161109090919063ffffffff16565b8152506112d4565b905092915050565b6111e66113c9565b6111f08383611367565b6111f957600080fd5b611276604051806040016040528061124e6112258760200151876000015161109090919063ffffffff16565b6112408760200151896000015161109090919063ffffffff16565b6113a990919063ffffffff16565b815260200161126e8560200151876020015161109090919063ffffffff16565b8152506112d4565b905092915050565b60006112ad836020015161129f84866000015161109090919063ffffffff16565b6110ca90919063ffffffff16565b905092915050565b6000808284019050838110156112ca57600080fd5b8091505092915050565b6112dc6113c9565b6000826020015190506000836000015190505b6000811461131157600081838161130257fe5b069050819250809150506112ef565b6113196113c9565b604051806040016040528061133b8588600001516110ca90919063ffffffff16565b81526020016113578588602001516110ca90919063ffffffff16565b8152509050809350505050919050565b60006113848360200151836000015161109090919063ffffffff16565b61139f8360200151856000015161109090919063ffffffff16565b1015905092915050565b6000828211156113b857600080fd5b600082840390508091505092915050565b60405180604001604052806000815260200160008152509056fea165627a7a723058204cc1c4c0b85e9e928fc7bc4c4073559c846d35e8b3fff8d3d10f0af11f0cd1430029",
  "source": "pragma solidity ^0.5.8;\n\nimport \"openzeppelin-solidity/contracts/ownership/Ownable.sol\";\nimport \"./Initializable.sol\";\nimport \"./UsingRegistry.sol\";\nimport \"../stability/interfaces/ISortedOracles.sol\";\nimport \"../stability/FractionUtil.sol\";\n\n/**\n * @title Stores and provides gas price minimum for various currencies.\n */\ncontract GasPriceMinimum is Ownable, Initializable, UsingRegistry {\n  using SafeMath for uint256;\n  using FractionUtil for FractionUtil.Fraction;\n\n  event TargetDensitySet(\n    uint256 numerator,\n    uint256 denominator\n  );\n\n  event AdjustmentSpeedSet(\n    uint256 numerator,\n    uint256 denominator\n  );\n\n  event InfrastructureFractionSet(\n    uint256 numerator,\n    uint256 denominator\n  );\n\n  uint256 public gasPriceMinimum;\n\n  // Block congestion level targeted by the gas price minimum calculation.\n  FractionUtil.Fraction public targetDensity;\n\n  // Speed of gas price minimum adjustment due to congestion.\n  FractionUtil.Fraction public adjustmentSpeed;\n\n  // Fraction of the gas price minimum allocated to the infrastructure fund.\n  FractionUtil.Fraction public infrastructureFraction;\n\n  modifier onlyVm() {\n    assert(msg.sender == address(0x0));\n    _;\n  }\n\n  function initialize(\n    address _registryAddress,\n    uint256 initialGas,\n    uint256 targetDensityNumerator,\n    uint256 targetDensityDenominator,\n    uint256 adjustmentSpeedNumerator,\n    uint256 adjustmentSpeedDenominator,\n    uint256 infrastructureFractionNumerator,\n    uint256 infrastructureFractionDenominator\n  )\n    external\n    initializer\n  {\n    _transferOwnership(msg.sender);\n    setRegistry(_registryAddress);\n    gasPriceMinimum = initialGas;\n    setTargetDensity(targetDensityNumerator, targetDensityDenominator);\n    setAdjustmentSpeed(adjustmentSpeedNumerator, adjustmentSpeedDenominator);\n    setInfrastructureFraction(infrastructureFractionNumerator, infrastructureFractionDenominator);\n  }\n\n  /**\n   * @notice Set a multiplier that impacts how quickly gas price minimum is adjusted.\n   * @dev Value is expected to be < 1.\n   */\n  function setAdjustmentSpeed(uint256 numerator, uint256 denominator) public onlyOwner {\n    require(denominator > 0 && numerator < denominator);\n    adjustmentSpeed = FractionUtil.Fraction(numerator, denominator);\n    emit AdjustmentSpeedSet(numerator, denominator);\n  }\n\n  /**\n   * @notice Set the block density targeted by the gas price minimum algorithm.\n   */\n  function setTargetDensity(uint256 numerator, uint256 denominator) public onlyOwner {\n    require(denominator > 0 && numerator < denominator);\n    targetDensity = FractionUtil.Fraction(numerator, denominator);\n    emit TargetDensitySet(numerator, denominator);\n  }\n\n  /**\n   * @notice Set the fraction of the gas price minimum which is sent to\n   * the infrastructure fund.\n   */\n  function setInfrastructureFraction(uint256 numerator, uint256 denominator) public onlyOwner {\n    require(denominator > 0 && numerator < denominator);\n    infrastructureFraction = FractionUtil.Fraction(numerator, denominator);\n    emit InfrastructureFractionSet(numerator, denominator);\n  }\n\n  /**\n   * @notice Retrieve the current gas price minimum for a currency.\n   * @param tokenAddress The currency the gas price should be in (defaults to gold).\n   * @return current gas price minimum in the requested currency\n   */\n  function getGasPriceMinimum(address tokenAddress) external view returns (uint256) {\n    if (\n      tokenAddress == address(0) ||\n      tokenAddress == registry.getAddressForOrDie(GOLD_TOKEN_REGISTRY_ID)\n    ) {\n      return gasPriceMinimum;\n    } else {\n\n      ISortedOracles sortedOracles = ISortedOracles(\n        registry.getAddressForOrDie(SORTED_ORACLES_REGISTRY_ID)\n      );\n      uint128 rateNumerator;\n      uint128 rateDenominator;\n      (rateNumerator, rateDenominator) = sortedOracles.medianRate(tokenAddress);\n      return (gasPriceMinimum.mul(rateNumerator).div(rateDenominator));\n    }\n  }\n\n  /**\n   * @notice Adjust the gas price minimum based on governable parameters\n   * and block congestion.\n   * @param blockGasTotal The amount of gas in the most recent block.\n   * @param blockGasLimit The maxBlockGasLimit of the past block.\n   * @return result of the calculation (new gas price minimum)\n   */\n  function updateGasPriceMinimum(\n    uint256 blockGasTotal,\n    uint256 blockGasLimit\n  )\n    external\n    onlyVm\n    returns (uint256)\n  {\n    gasPriceMinimum = getUpdatedGasPriceMinimum(blockGasTotal, blockGasLimit);\n    return gasPriceMinimum;\n  }\n\n  /**\n   * @notice Calculates the gas price minimum based on governable parameters\n   * and block congestion.\n   * @param blockGasTotal The amount of gas in the most recent block.\n   * @param blockGasLimit The maxBlockGasLimit of the past block.\n   * @return result of the calculation (new gas price minimum)\n   * @dev Calculate using the following formula:\n   * oldGasPriceMinimum * (1 + (adjustmentSpeed * (blockDensity - targetDensity))) + 1.\n   */\n  function getUpdatedGasPriceMinimum(\n    uint256 blockGasTotal,\n    uint256 blockGasLimit\n  )\n    public\n    view\n    returns (uint256)\n  {\n    FractionUtil.Fraction memory one = FractionUtil.Fraction(1, 1);\n    FractionUtil.Fraction memory blockDensity = FractionUtil.Fraction(\n      blockGasTotal,\n      blockGasLimit\n    );\n    FractionUtil.Fraction memory adjustment = one.add(adjustmentSpeed.mul(blockDensity)).sub(\n      adjustmentSpeed.mul(targetDensity)\n    );\n    return adjustment.mul(gasPriceMinimum).add(1);\n  }\n}\n",
  "sourcePath": "/Users/yorhodes/celo/celo-monorepo/packages/protocol/contracts/common/GasPriceMinimum.sol",
  "compiler": {
    "name": "solc",
    "version": "0.5.8+commit.23d335f2.Emscripten.clang"
  },
  "schemaVersion": "3.0.9",
  "updatedAt": "2019-07-17T03:09:18.440Z",
  "devdoc": {
    "methods": {
      "getGasPriceMinimum(address)": {
        "params": {
          "tokenAddress": "The currency the gas price should be in (defaults to gold)."
        },
        "return": "current gas price minimum in the requested currency"
      },
      "getUpdatedGasPriceMinimum(uint256,uint256)": {
        "details": "Calculate using the following formula: oldGasPriceMinimum * (1 + (adjustmentSpeed * (blockDensity - targetDensity))) + 1.",
        "params": {
          "blockGasLimit": "The maxBlockGasLimit of the past block.",
          "blockGasTotal": "The amount of gas in the most recent block."
        },
        "return": "result of the calculation (new gas price minimum)"
      },
      "isOwner()": {
        "return": "true if `msg.sender` is the owner of the contract."
      },
      "owner()": {
        "return": "the address of the owner."
      },
      "renounceOwnership()": {
        "details": "Allows the current owner to relinquish control of the contract. It will not be possible to call the functions with the `onlyOwner` modifier anymore."
      },
      "setAdjustmentSpeed(uint256,uint256)": {
        "details": "Value is expected to be < 1."
      },
      "setRegistry(address)": {
        "params": {
          "registryAddress": "The address of a registry contract for routing to other contracts."
        }
      },
      "transferOwnership(address)": {
        "details": "Allows the current owner to transfer control of the contract to a newOwner.",
        "params": {
          "newOwner": "The address to transfer ownership to."
        }
      },
      "updateGasPriceMinimum(uint256,uint256)": {
        "params": {
          "blockGasLimit": "The maxBlockGasLimit of the past block.",
          "blockGasTotal": "The amount of gas in the most recent block."
        },
        "return": "result of the calculation (new gas price minimum)"
      }
    },
    "title": "Stores and provides gas price minimum for various currencies."
  },
  "userdoc": {
    "methods": {
      "getGasPriceMinimum(address)": {
        "notice": "Retrieve the current gas price minimum for a currency."
      },
      "getUpdatedGasPriceMinimum(uint256,uint256)": {
        "notice": "Calculates the gas price minimum based on governable parameters and block congestion."
      },
      "renounceOwnership()": {
        "notice": "Renouncing ownership will leave the contract without an owner, thereby removing any functionality that is only available to the owner."
      },
      "setAdjustmentSpeed(uint256,uint256)": {
        "notice": "Set a multiplier that impacts how quickly gas price minimum is adjusted."
      },
      "setInfrastructureFraction(uint256,uint256)": {
        "notice": "Set the fraction of the gas price minimum which is sent to the infrastructure fund."
      },
      "setRegistry(address)": {
        "notice": "Updates the address pointing to a Registry contract."
      },
      "setTargetDensity(uint256,uint256)": {
        "notice": "Set the block density targeted by the gas price minimum algorithm."
      },
      "updateGasPriceMinimum(uint256,uint256)": {
        "notice": "Adjust the gas price minimum based on governable parameters and block congestion."
      }
    }
  }
}