{
  "contractName": "GetSetV1",
  "abi": [
    {
      "constant": true,
      "inputs": [],
      "name": "x",
      "outputs": [
        {
          "name": "",
          "type": "uint256"
        }
      ],
      "payable": false,
      "stateMutability": "view",
      "type": "function"
    },
    {
      "constant": true,
      "inputs": [],
      "name": "y",
      "outputs": [
        {
          "name": "",
          "type": "string"
        }
      ],
      "payable": false,
      "stateMutability": "view",
      "type": "function"
    },
    {
      "constant": true,
      "inputs": [],
      "name": "get",
      "outputs": [
        {
          "name": "",
          "type": "uint256"
        },
        {
          "name": "",
          "type": "string"
        }
      ],
      "payable": false,
      "stateMutability": "view",
      "type": "function"
    },
    {
      "constant": false,
      "inputs": [
        {
          "name": "_x",
          "type": "uint256"
        },
        {
          "name": "_y",
          "type": "string"
        }
      ],
      "name": "set",
      "outputs": [],
      "payable": false,
      "stateMutability": "nonpayable",
      "type": "function"
    }
  ],
  "bytecode": "0x608060405234801561001057600080fd5b50610485806100206000396000f3fe608060405234801561001057600080fd5b506004361061004c5760003560e01c80630c55699c14610051578063643719771461006f5780636d4ce63c14610134578063a56dfe4a146101be575b600080fd5b610059610241565b6040518082815260200191505060405180910390f35b6101326004803603604081101561008557600080fd5b8101908080359060200190929190803590602001906401000000008111156100ac57600080fd5b8201836020820111156100be57600080fd5b803590602001918460018302840111640100000000831117156100e057600080fd5b91908080601f016020809104026020016040519081016040528093929190818152602001838380828437600081840152601f19601f820116905080830192505050505050509192919290505050610247565b005b61013c610269565b6040518083815260200180602001828103825283818151815260200191508051906020019080838360005b83811015610182578082015181840152602081019050610167565b50505050905090810190601f1680156101af5780820380516001836020036101000a031916815260200191505b50935050505060405180910390f35b6101c6610316565b6040518080602001828103825283818151815260200191508051906020019080838360005b838110156102065780820151818401526020810190506101eb565b50505050905090810190601f1680156102335780820380516001836020036101000a031916815260200191505b509250505060405180910390f35b60005481565b8160008190555080600190805190602001906102649291906103b4565b505050565b600060606000546001808054600181600116156101000203166002900480601f0160208091040260200160405190810160405280929190818152602001828054600181600116156101000203166002900480156103075780601f106102dc57610100808354040283529160200191610307565b820191906000526020600020905b8154815290600101906020018083116102ea57829003601f168201915b50505050509050915091509091565b60018054600181600116156101000203166002900480601f0160208091040260200160405190810160405280929190818152602001828054600181600116156101000203166002900480156103ac5780601f10610381576101008083540402835291602001916103ac565b820191906000526020600020905b81548152906001019060200180831161038f57829003601f168201915b505050505081565b828054600181600116156101000203166002900490600052602060002090601f016020900481019282601f106103f557805160ff1916838001178555610423565b82800160010185558215610423579182015b82811115610422578251825591602001919060010190610407565b5b5090506104309190610434565b5090565b61045691905b8082111561045257600081600090555060010161043a565b5090565b9056fea165627a7a723058202a2a2d765db95bd5cbcdd92e6a9c061e966608738690c7cc172fe790341fc89e0029",
  "source": "pragma solidity ^0.5.8;\n\n\ncontract GetSetV1 {\n  uint256 public x;\n  string public y;\n\n  function get() public view returns (uint256, string memory) {\n    return (x, y);\n  }\n\n  function set(uint256 _x, string memory _y) public {\n    x = _x;\n    y = _y;\n  }\n}\n",
  "sourcePath": "/Users/yorhodes/celo/celo-monorepo/packages/protocol/contracts/common/test/GetSetV1.sol",
  "compiler": {
    "name": "solc",
    "version": "0.5.8+commit.23d335f2.Emscripten.clang"
  },
  "schemaVersion": "3.0.9",
  "updatedAt": "2019-07-17T03:09:18.504Z",
  "devdoc": {
    "methods": {}
  },
  "userdoc": {
    "methods": {}
  }
}