{
  "contractName": "Governance",
  "abi": [
    {
      "constant": true,
      "inputs": [],
      "name": "stageDurations",
      "outputs": [
        {
          "name": "approval",
          "type": "uint256"
        },
        {
          "name": "referendum",
          "type": "uint256"
        },
        {
          "name": "execution",
          "type": "uint256"
        }
      ],
      "payable": false,
      "stateMutability": "view",
      "type": "function"
    },
    {
      "constant": true,
      "inputs": [],
      "name": "concurrentProposals",
      "outputs": [
        {
          "name": "",
          "type": "uint256"
        }
      ],
      "payable": false,
      "stateMutability": "view",
      "type": "function"
    },
    {
      "constant": true,
      "inputs": [],
      "name": "approver",
      "outputs": [
        {
          "name": "",
          "type": "address"
        }
      ],
      "payable": false,
      "stateMutability": "view",
      "type": "function"
    },
    {
      "constant": true,
      "inputs": [],
      "name": "initialized",
      "outputs": [
        {
          "name": "",
          "type": "bool"
        }
      ],
      "payable": false,
      "stateMutability": "view",
      "type": "function"
    },
    {
      "constant": true,
      "inputs": [],
      "name": "minDeposit",
      "outputs": [
        {
          "name": "",
          "type": "uint256"
        }
      ],
      "payable": false,
      "stateMutability": "view",
      "type": "function"
    },
    {
      "constant": true,
      "inputs": [
        {
          "name": "",
          "type": "address"
        }
      ],
      "name": "refundedDeposits",
      "outputs": [
        {
          "name": "",
          "type": "uint256"
        }
      ],
      "payable": false,
      "stateMutability": "view",
      "type": "function"
    },
    {
      "constant": false,
      "inputs": [],
      "name": "renounceOwnership",
      "outputs": [],
      "payable": false,
      "stateMutability": "nonpayable",
      "type": "function"
    },
    {
      "constant": true,
      "inputs": [],
      "name": "dequeueFrequency",
      "outputs": [
        {
          "name": "",
          "type": "uint256"
        }
      ],
      "payable": false,
      "stateMutability": "view",
      "type": "function"
    },
    {
      "constant": true,
      "inputs": [],
      "name": "registry",
      "outputs": [
        {
          "name": "",
          "type": "address"
        }
      ],
      "payable": false,
      "stateMutability": "view",
      "type": "function"
    },
    {
      "constant": true,
      "inputs": [],
      "name": "owner",
      "outputs": [
        {
          "name": "",
          "type": "address"
        }
      ],
      "payable": false,
      "stateMutability": "view",
      "type": "function"
    },
    {
      "constant": true,
      "inputs": [],
      "name": "queueExpiry",
      "outputs": [
        {
          "name": "",
          "type": "uint256"
        }
      ],
      "payable": false,
      "stateMutability": "view",
      "type": "function"
    },
    {
      "constant": true,
      "inputs": [],
      "name": "isOwner",
      "outputs": [
        {
          "name": "",
          "type": "bool"
        }
      ],
      "payable": false,
      "stateMutability": "view",
      "type": "function"
    },
    {
      "constant": true,
      "inputs": [
        {
          "name": "",
          "type": "address"
        }
      ],
      "name": "voters",
      "outputs": [
        {
          "name": "upvotedProposal",
          "type": "uint256"
        },
        {
          "name": "mostRecentReferendumProposal",
          "type": "uint256"
        }
      ],
      "payable": false,
      "stateMutability": "view",
      "type": "function"
    },
    {
      "constant": false,
      "inputs": [
        {
          "name": "registryAddress",
          "type": "address"
        }
      ],
      "name": "setRegistry",
      "outputs": [],
      "payable": false,
      "stateMutability": "nonpayable",
      "type": "function"
    },
    {
      "constant": true,
      "inputs": [
        {
          "name": "",
          "type": "uint256"
        }
      ],
      "name": "emptyIndices",
      "outputs": [
        {
          "name": "",
          "type": "uint256"
        }
      ],
      "payable": false,
      "stateMutability": "view",
      "type": "function"
    },
    {
      "constant": true,
      "inputs": [
        {
          "name": "",
          "type": "uint256"
        }
      ],
      "name": "dequeued",
      "outputs": [
        {
          "name": "",
          "type": "uint256"
        }
      ],
      "payable": false,
      "stateMutability": "view",
      "type": "function"
    },
    {
      "constant": true,
      "inputs": [],
      "name": "lastDequeue",
      "outputs": [
        {
          "name": "",
          "type": "uint256"
        }
      ],
      "payable": false,
      "stateMutability": "view",
      "type": "function"
    },
    {
      "constant": true,
      "inputs": [],
      "name": "proposalCount",
      "outputs": [
        {
          "name": "",
          "type": "uint256"
        }
      ],
      "payable": false,
      "stateMutability": "view",
      "type": "function"
    },
    {
      "constant": false,
      "inputs": [
        {
          "name": "newOwner",
          "type": "address"
        }
      ],
      "name": "transferOwnership",
      "outputs": [],
      "payable": false,
      "stateMutability": "nonpayable",
      "type": "function"
    },
    {
      "payable": true,
      "stateMutability": "payable",
      "type": "fallback"
    },
    {
      "anonymous": false,
      "inputs": [
        {
          "indexed": false,
          "name": "approver",
          "type": "address"
        }
      ],
      "name": "ApproverSet",
      "type": "event"
    },
    {
      "anonymous": false,
      "inputs": [
        {
          "indexed": false,
          "name": "concurrentProposals",
          "type": "uint256"
        }
      ],
      "name": "ConcurrentProposalsSet",
      "type": "event"
    },
    {
      "anonymous": false,
      "inputs": [
        {
          "indexed": false,
          "name": "minDeposit",
          "type": "uint256"
        }
      ],
      "name": "MinDepositSet",
      "type": "event"
    },
    {
      "anonymous": false,
      "inputs": [
        {
          "indexed": false,
          "name": "queueExpiry",
          "type": "uint256"
        }
      ],
      "name": "QueueExpirySet",
      "type": "event"
    },
    {
      "anonymous": false,
      "inputs": [
        {
          "indexed": false,
          "name": "dequeueFrequency",
          "type": "uint256"
        }
      ],
      "name": "DequeueFrequencySet",
      "type": "event"
    },
    {
      "anonymous": false,
      "inputs": [
        {
          "indexed": false,
          "name": "approvalStageDuration",
          "type": "uint256"
        }
      ],
      "name": "ApprovalStageDurationSet",
      "type": "event"
    },
    {
      "anonymous": false,
      "inputs": [
        {
          "indexed": false,
          "name": "referendumStageDuration",
          "type": "uint256"
        }
      ],
      "name": "ReferendumStageDurationSet",
      "type": "event"
    },
    {
      "anonymous": false,
      "inputs": [
        {
          "indexed": false,
          "name": "executionStageDuration",
          "type": "uint256"
        }
      ],
      "name": "ExecutionStageDurationSet",
      "type": "event"
    },
    {
      "anonymous": false,
      "inputs": [
        {
          "indexed": true,
          "name": "destination",
          "type": "address"
        },
        {
          "indexed": true,
          "name": "functionId",
          "type": "bytes4"
        },
        {
          "indexed": false,
          "name": "numerator",
          "type": "uint256"
        },
        {
          "indexed": false,
          "name": "denominator",
          "type": "uint256"
        }
      ],
      "name": "ConstitutionSet",
      "type": "event"
    },
    {
      "anonymous": false,
      "inputs": [
        {
          "indexed": true,
          "name": "proposalId",
          "type": "uint256"
        },
        {
          "indexed": true,
          "name": "proposer",
          "type": "address"
        },
        {
          "indexed": false,
          "name": "transactionCount",
          "type": "uint256"
        },
        {
          "indexed": false,
          "name": "deposit",
          "type": "uint256"
        },
        {
          "indexed": false,
          "name": "timestamp",
          "type": "uint256"
        }
      ],
      "name": "ProposalQueued",
      "type": "event"
    },
    {
      "anonymous": false,
      "inputs": [
        {
          "indexed": true,
          "name": "proposalId",
          "type": "uint256"
        },
        {
          "indexed": true,
          "name": "account",
          "type": "address"
        },
        {
          "indexed": false,
          "name": "upvotes",
          "type": "uint256"
        }
      ],
      "name": "ProposalUpvoted",
      "type": "event"
    },
    {
      "anonymous": false,
      "inputs": [
        {
          "indexed": true,
          "name": "proposalId",
          "type": "uint256"
        },
        {
          "indexed": true,
          "name": "account",
          "type": "address"
        },
        {
          "indexed": false,
          "name": "revokedUpvotes",
          "type": "uint256"
        }
      ],
      "name": "ProposalUpvoteRevoked",
      "type": "event"
    },
    {
      "anonymous": false,
      "inputs": [
        {
          "indexed": true,
          "name": "proposalId",
          "type": "uint256"
        },
        {
          "indexed": false,
          "name": "timestamp",
          "type": "uint256"
        }
      ],
      "name": "ProposalDequeued",
      "type": "event"
    },
    {
      "anonymous": false,
      "inputs": [
        {
          "indexed": true,
          "name": "proposalId",
          "type": "uint256"
        }
      ],
      "name": "ProposalApproved",
      "type": "event"
    },
    {
      "anonymous": false,
      "inputs": [
        {
          "indexed": true,
          "name": "proposalId",
          "type": "uint256"
        },
        {
          "indexed": true,
          "name": "account",
          "type": "address"
        },
        {
          "indexed": false,
          "name": "value",
          "type": "uint256"
        },
        {
          "indexed": false,
          "name": "weight",
          "type": "uint256"
        }
      ],
      "name": "ProposalVoted",
      "type": "event"
    },
    {
      "anonymous": false,
      "inputs": [
        {
          "indexed": true,
          "name": "proposalId",
          "type": "uint256"
        }
      ],
      "name": "ProposalExecuted",
      "type": "event"
    },
    {
      "anonymous": false,
      "inputs": [
        {
          "indexed": false,
          "name": "proposalId",
          "type": "uint256"
        }
      ],
      "name": "ProposalExpired",
      "type": "event"
    },
    {
      "anonymous": false,
      "inputs": [
        {
          "indexed": true,
          "name": "registryAddress",
          "type": "address"
        }
      ],
      "name": "RegistrySet",
      "type": "event"
    },
    {
      "anonymous": false,
      "inputs": [
        {
          "indexed": true,
          "name": "previousOwner",
          "type": "address"
        },
        {
          "indexed": true,
          "name": "newOwner",
          "type": "address"
        }
      ],
      "name": "OwnershipTransferred",
      "type": "event"
    },
    {
      "constant": false,
      "inputs": [
        {
          "name": "registryAddress",
          "type": "address"
        },
        {
          "name": "_approver",
          "type": "address"
        },
        {
          "name": "_concurrentProposals",
          "type": "uint256"
        },
        {
          "name": "_minDeposit",
          "type": "uint256"
        },
        {
          "name": "_queueExpiry",
          "type": "uint256"
        },
        {
          "name": "_dequeueFrequency",
          "type": "uint256"
        },
        {
          "name": "approvalStageDuration",
          "type": "uint256"
        },
        {
          "name": "referendumStageDuration",
          "type": "uint256"
        },
        {
          "name": "executionStageDuration",
          "type": "uint256"
        }
      ],
      "name": "initialize",
      "outputs": [],
      "payable": false,
      "stateMutability": "nonpayable",
      "type": "function"
    },
    {
      "constant": false,
      "inputs": [
        {
          "name": "_approver",
          "type": "address"
        }
      ],
      "name": "setApprover",
      "outputs": [],
      "payable": false,
      "stateMutability": "nonpayable",
      "type": "function"
    },
    {
      "constant": false,
      "inputs": [
        {
          "name": "_concurrentProposals",
          "type": "uint256"
        }
      ],
      "name": "setConcurrentProposals",
      "outputs": [],
      "payable": false,
      "stateMutability": "nonpayable",
      "type": "function"
    },
    {
      "constant": false,
      "inputs": [
        {
          "name": "_minDeposit",
          "type": "uint256"
        }
      ],
      "name": "setMinDeposit",
      "outputs": [],
      "payable": false,
      "stateMutability": "nonpayable",
      "type": "function"
    },
    {
      "constant": false,
      "inputs": [
        {
          "name": "_queueExpiry",
          "type": "uint256"
        }
      ],
      "name": "setQueueExpiry",
      "outputs": [],
      "payable": false,
      "stateMutability": "nonpayable",
      "type": "function"
    },
    {
      "constant": false,
      "inputs": [
        {
          "name": "_dequeueFrequency",
          "type": "uint256"
        }
      ],
      "name": "setDequeueFrequency",
      "outputs": [],
      "payable": false,
      "stateMutability": "nonpayable",
      "type": "function"
    },
    {
      "constant": false,
      "inputs": [
        {
          "name": "approvalStageDuration",
          "type": "uint256"
        }
      ],
      "name": "setApprovalStageDuration",
      "outputs": [],
      "payable": false,
      "stateMutability": "nonpayable",
      "type": "function"
    },
    {
      "constant": false,
      "inputs": [
        {
          "name": "referendumStageDuration",
          "type": "uint256"
        }
      ],
      "name": "setReferendumStageDuration",
      "outputs": [],
      "payable": false,
      "stateMutability": "nonpayable",
      "type": "function"
    },
    {
      "constant": false,
      "inputs": [
        {
          "name": "executionStageDuration",
          "type": "uint256"
        }
      ],
      "name": "setExecutionStageDuration",
      "outputs": [],
      "payable": false,
      "stateMutability": "nonpayable",
      "type": "function"
    },
    {
      "constant": false,
      "inputs": [
        {
          "name": "destination",
          "type": "address"
        },
        {
          "name": "functionId",
          "type": "bytes4"
        },
        {
          "name": "numerator",
          "type": "uint256"
        },
        {
          "name": "denominator",
          "type": "uint256"
        }
      ],
      "name": "setConstitution",
      "outputs": [],
      "payable": false,
      "stateMutability": "nonpayable",
      "type": "function"
    },
    {
      "constant": false,
      "inputs": [
        {
          "name": "values",
          "type": "uint256[]"
        },
        {
          "name": "destinations",
          "type": "address[]"
        },
        {
          "name": "data",
          "type": "bytes"
        },
        {
          "name": "dataLengths",
          "type": "uint256[]"
        }
      ],
      "name": "propose",
      "outputs": [
        {
          "name": "",
          "type": "uint256"
        }
      ],
      "payable": true,
      "stateMutability": "payable",
      "type": "function"
    },
    {
      "constant": false,
      "inputs": [
        {
          "name": "proposalId",
          "type": "uint256"
        },
        {
          "name": "lesser",
          "type": "uint256"
        },
        {
          "name": "greater",
          "type": "uint256"
        }
      ],
      "name": "upvote",
      "outputs": [
        {
          "name": "",
          "type": "bool"
        }
      ],
      "payable": false,
      "stateMutability": "nonpayable",
      "type": "function"
    },
    {
      "constant": false,
      "inputs": [
        {
          "name": "lesser",
          "type": "uint256"
        },
        {
          "name": "greater",
          "type": "uint256"
        }
      ],
      "name": "revokeUpvote",
      "outputs": [
        {
          "name": "",
          "type": "bool"
        }
      ],
      "payable": false,
      "stateMutability": "nonpayable",
      "type": "function"
    },
    {
      "constant": false,
      "inputs": [
        {
          "name": "proposalId",
          "type": "uint256"
        },
        {
          "name": "index",
          "type": "uint256"
        }
      ],
      "name": "approve",
      "outputs": [
        {
          "name": "",
          "type": "bool"
        }
      ],
      "payable": false,
      "stateMutability": "nonpayable",
      "type": "function"
    },
    {
      "constant": false,
      "inputs": [
        {
          "name": "proposalId",
          "type": "uint256"
        },
        {
          "name": "index",
          "type": "uint256"
        },
        {
          "name": "value",
          "type": "uint8"
        }
      ],
      "name": "vote",
      "outputs": [
        {
          "name": "",
          "type": "bool"
        }
      ],
      "payable": false,
      "stateMutability": "nonpayable",
      "type": "function"
    },
    {
      "constant": false,
      "inputs": [
        {
          "name": "proposalId",
          "type": "uint256"
        },
        {
          "name": "index",
          "type": "uint256"
        }
      ],
      "name": "execute",
      "outputs": [
        {
          "name": "",
          "type": "bool"
        }
      ],
      "payable": false,
      "stateMutability": "nonpayable",
      "type": "function"
    },
    {
      "constant": false,
      "inputs": [],
      "name": "withdraw",
      "outputs": [
        {
          "name": "",
          "type": "bool"
        }
      ],
      "payable": false,
      "stateMutability": "nonpayable",
      "type": "function"
    },
    {
      "constant": true,
      "inputs": [],
      "name": "getApprovalStageDuration",
      "outputs": [
        {
          "name": "",
          "type": "uint256"
        }
      ],
      "payable": false,
      "stateMutability": "view",
      "type": "function"
    },
    {
      "constant": true,
      "inputs": [],
      "name": "getReferendumStageDuration",
      "outputs": [
        {
          "name": "",
          "type": "uint256"
        }
      ],
      "payable": false,
      "stateMutability": "view",
      "type": "function"
    },
    {
      "constant": true,
      "inputs": [],
      "name": "getExecutionStageDuration",
      "outputs": [
        {
          "name": "",
          "type": "uint256"
        }
      ],
      "payable": false,
      "stateMutability": "view",
      "type": "function"
    },
    {
      "constant": true,
      "inputs": [
        {
          "name": "destination",
          "type": "address"
        },
        {
          "name": "functionId",
          "type": "bytes4"
        }
      ],
      "name": "getConstitution",
      "outputs": [
        {
          "name": "",
          "type": "uint256"
        },
        {
          "name": "",
          "type": "uint256"
        }
      ],
      "payable": false,
      "stateMutability": "view",
      "type": "function"
    },
    {
      "constant": true,
      "inputs": [
        {
          "name": "proposalId",
          "type": "uint256"
        }
      ],
      "name": "proposalExists",
      "outputs": [
        {
          "name": "",
          "type": "bool"
        }
      ],
      "payable": false,
      "stateMutability": "view",
      "type": "function"
    },
    {
      "constant": true,
      "inputs": [
        {
          "name": "proposalId",
          "type": "uint256"
        }
      ],
      "name": "getProposal",
      "outputs": [
        {
          "name": "",
          "type": "address"
        },
        {
          "name": "",
          "type": "uint256"
        },
        {
          "name": "",
          "type": "uint256"
        },
        {
          "name": "",
          "type": "uint256"
        }
      ],
      "payable": false,
      "stateMutability": "view",
      "type": "function"
    },
    {
      "constant": true,
      "inputs": [
        {
          "name": "proposalId",
          "type": "uint256"
        },
        {
          "name": "index",
          "type": "uint256"
        }
      ],
      "name": "getProposalTransaction",
      "outputs": [
        {
          "name": "",
          "type": "uint256"
        },
        {
          "name": "",
          "type": "address"
        },
        {
          "name": "",
          "type": "bytes"
        }
      ],
      "payable": false,
      "stateMutability": "view",
      "type": "function"
    },
    {
      "constant": true,
      "inputs": [
        {
          "name": "proposalId",
          "type": "uint256"
        }
      ],
      "name": "isApproved",
      "outputs": [
        {
          "name": "",
          "type": "bool"
        }
      ],
      "payable": false,
      "stateMutability": "view",
      "type": "function"
    },
    {
      "constant": true,
      "inputs": [
        {
          "name": "proposalId",
          "type": "uint256"
        }
      ],
      "name": "getVoteTotals",
      "outputs": [
        {
          "name": "",
          "type": "uint256"
        },
        {
          "name": "",
          "type": "uint256"
        },
        {
          "name": "",
          "type": "uint256"
        }
      ],
      "payable": false,
      "stateMutability": "view",
      "type": "function"
    },
    {
      "constant": true,
      "inputs": [
        {
          "name": "account",
          "type": "address"
        },
        {
          "name": "index",
          "type": "uint256"
        }
      ],
      "name": "getVoteRecord",
      "outputs": [
        {
          "name": "",
          "type": "uint256"
        },
        {
          "name": "",
          "type": "uint256"
        }
      ],
      "payable": false,
      "stateMutability": "view",
      "type": "function"
    },
    {
      "constant": true,
      "inputs": [],
      "name": "getQueueLength",
      "outputs": [
        {
          "name": "",
          "type": "uint256"
        }
      ],
      "payable": false,
      "stateMutability": "view",
      "type": "function"
    },
    {
      "constant": true,
      "inputs": [
        {
          "name": "proposalId",
          "type": "uint256"
        }
      ],
      "name": "getUpvotes",
      "outputs": [
        {
          "name": "",
          "type": "uint256"
        }
      ],
      "payable": false,
      "stateMutability": "view",
      "type": "function"
    },
    {
      "constant": true,
      "inputs": [],
      "name": "getQueue",
      "outputs": [
        {
          "name": "",
          "type": "uint256[]"
        },
        {
          "name": "",
          "type": "uint256[]"
        }
      ],
      "payable": false,
      "stateMutability": "view",
      "type": "function"
    },
    {
      "constant": true,
      "inputs": [],
      "name": "getDequeue",
      "outputs": [
        {
          "name": "",
          "type": "uint256[]"
        }
      ],
      "payable": false,
      "stateMutability": "view",
      "type": "function"
    },
    {
      "constant": true,
      "inputs": [
        {
          "name": "account",
          "type": "address"
        }
      ],
      "name": "getUpvotedProposal",
      "outputs": [
        {
          "name": "",
          "type": "uint256"
        }
      ],
      "payable": false,
      "stateMutability": "view",
      "type": "function"
    },
    {
      "constant": true,
      "inputs": [
        {
          "name": "account",
          "type": "address"
        }
      ],
      "name": "getMostRecentReferendumProposal",
      "outputs": [
        {
          "name": "",
          "type": "uint256"
        }
      ],
      "payable": false,
      "stateMutability": "view",
      "type": "function"
    },
    {
      "constant": true,
      "inputs": [
        {
          "name": "account",
          "type": "address"
        }
      ],
      "name": "isVoting",
      "outputs": [
        {
          "name": "",
          "type": "bool"
        }
      ],
      "payable": false,
      "stateMutability": "view",
      "type": "function"
    },
    {
      "constant": false,
      "inputs": [],
      "name": "dequeueProposalsIfReady",
      "outputs": [],
      "payable": false,
      "stateMutability": "nonpayable",
      "type": "function"
    },
    {
      "constant": true,
      "inputs": [
        {
          "name": "proposalId",
          "type": "uint256"
        }
      ],
      "name": "isQueued",
      "outputs": [
        {
          "name": "",
          "type": "bool"
        }
      ],
      "payable": false,
      "stateMutability": "view",
      "type": "function"
    },
    {
      "constant": true,
      "inputs": [
        {
          "name": "proposalId",
          "type": "uint256"
        }
      ],
      "name": "isProposalPassing",
      "outputs": [
        {
          "name": "",
          "type": "bool"
        }
      ],
      "payable": false,
      "stateMutability": "view",
      "type": "function"
    },
    {
      "constant": true,
      "inputs": [
        {
          "name": "dequeueTime",
          "type": "uint256"
        }
      ],
      "name": "getDequeuedProposalStage",
      "outputs": [
        {
          "name": "",
          "type": "uint8"
        }
      ],
      "payable": false,
      "stateMutability": "view",
      "type": "function"
    },
    {
      "constant": true,
      "inputs": [
        {
          "name": "dequeueTime",
          "type": "uint256"
        },
        {
          "name": "stage",
          "type": "uint8"
        }
      ],
      "name": "stageStartTime",
      "outputs": [
        {
          "name": "",
          "type": "uint256"
        }
      ],
      "payable": false,
      "stateMutability": "view",
      "type": "function"
    }
  ],
  "bytecode": "0x6080604052336000806101000a81548173ffffffffffffffffffffffffffffffffffffffff021916908373ffffffffffffffffffffffffffffffffffffffff1602179055506000809054906101000a900473ffffffffffffffffffffffffffffffffffffffff1673ffffffffffffffffffffffffffffffffffffffff16600073ffffffffffffffffffffffffffffffffffffffff167f8be0079c531659141344cd1fd0a4f28419497f9722a3daafe3b4186f6b6457e060405160405180910390a360016002819055506154e8806100d76000396000f3fe6080604052600436106103815760003560e01c8063845738cb116101d1578063af108a0e11610102578063ce691de1116100a0578063e41db4551161006f578063e41db45514611644578063f27fa774146116a1578063f2fde38b146116fe578063ffea74c01461174f57610381565b8063ce691de11461148a578063cea69e74146114e6578063d704f0c514611521578063da35c6641461161957610381565b8063c0aee5f4116100dc578063c0aee5f414611341578063c73a6d781461136c578063c7f758a8146113bf578063c8d8d2b51461144f57610381565b8063af108a0e1461124f578063b8f77005146112ac578063bbb2eab9146112d757610381565b80639a6c3d831161016f578063a91ee0dc11610149578063a91ee0dc14611135578063aa2feb8314611186578063ad78c109146111d5578063add004df1461120057610381565b80639a6c3d8314611029578063a3ec138d14611064578063a8421f78146110d057610381565b80638f32d59b116101ab5780638f32d59b14610edb5780638fcc9cfb14610f0a57806397b9eba614610f4557806398f4270214610fda57610381565b8063845738cb14610da15780638da5cb5b14610e595780638e905ed614610eb057610381565b80634d2f610f116102b65780636643ac581161025457806377d26a2a1161022357806377d26a2a14610c915780637910867b14610cbc5780637b10399914610d0f5780638018556e14610d6657610381565b80636643ac5814610a475780636c3b314b14610a825780636de8a63b14610c0e578063715018a614610c7a57610381565b80635d35a3d9116102905780635d35a3d9146108a65780635f115a85146109035780635f8dd6491461097957806360b4d34d146109e257610381565b80634d2f610f146107545780635601eaea146107e2578063573339781461083f57610381565b8063283aaefb116103235780633156560e116102fd5780633156560e146106925780633bb0ed2b146106e35780633ccfd60b146106fa57806341b3d1851461072957610381565b8063283aaefb146105c75780632c0523551461062c57806330a095d01461066757610381565b80631374b22d1161035f5780631374b22d1461049b578063141a8dd8146104ee578063158ef93e14610545578063276213211461057457610381565b806301fce27e146103835780630f717e42146104375780631201a0fb14610470575b005b34801561038f57600080fd5b5061039861177a565b604051808060200180602001838103835285818151815260200191508051906020019060200280838360005b838110156103df5780820151818401526020810190506103c4565b50505050905001838103825284818151815260200191508051906020019060200280838360005b83811015610421578082015181840152602081019050610406565b5050505090500194505050505060405180910390f35b34801561044357600080fd5b5061044c6118b7565b60405180848152602001838152602001828152602001935050505060405180910390f35b34801561047c57600080fd5b506104856118cf565b6040518082815260200191505060405180910390f35b3480156104a757600080fd5b506104d4600480360360208110156104be57600080fd5b81019080803590602001909291905050506118d5565b604051808215151515815260200191505060405180910390f35b3480156104fa57600080fd5b506105036118fe565b604051808273ffffffffffffffffffffffffffffffffffffffff1673ffffffffffffffffffffffffffffffffffffffff16815260200191505060405180910390f35b34801561055157600080fd5b5061055a611924565b604051808215151515815260200191505060405180910390f35b34801561058057600080fd5b506105ad6004803603602081101561059757600080fd5b8101908080359060200190929190505050611937565b604051808215151515815260200191505060405180910390f35b3480156105d357600080fd5b50610616600480360360208110156105ea57600080fd5b81019080803573ffffffffffffffffffffffffffffffffffffffff169060200190929190505050611b13565b6040518082815260200191505060405180910390f35b34801561063857600080fd5b506106656004803603602081101561064f57600080fd5b8101908080359060200190929190505050611b5f565b005b34801561067357600080fd5b5061067c611bcc565b6040518082815260200191505060405180910390f35b34801561069e57600080fd5b506106e1600480360360208110156106b557600080fd5b81019080803573ffffffffffffffffffffffffffffffffffffffff169060200190929190505050611bd9565b005b3480156106ef57600080fd5b506106f8611d25565b005b34801561070657600080fd5b5061070f6120eb565b604051808215151515815260200191505060405180910390f35b34801561073557600080fd5b5061073e61221c565b6040518082815260200191505060405180910390f35b34801561076057600080fd5b506107e06004803603608081101561077757600080fd5b81019080803573ffffffffffffffffffffffffffffffffffffffff16906020019092919080357bffffffffffffffffffffffffffffffffffffffffffffffffffffffff191690602001909291908035906020019092919080359060200190929190505050612222565b005b3480156107ee57600080fd5b506108256004803603604081101561080557600080fd5b8101908080359060200190929190803590602001909291905050506124d0565b604051808215151515815260200191505060405180910390f35b34801561084b57600080fd5b5061088c6004803603606081101561086257600080fd5b810190808035906020019092919080359060200190929190803590602001909291905050506127dc565b604051808215151515815260200191505060405180910390f35b3480156108b257600080fd5b506108e9600480360360408110156108c957600080fd5b810190808035906020019092919080359060200190929190505050612c6c565b604051808215151515815260200191505060405180910390f35b34801561090f57600080fd5b5061095c6004803603604081101561092657600080fd5b81019080803573ffffffffffffffffffffffffffffffffffffffff16906020019092919080359060200190929190505050612de2565b604051808381526020018281526020019250505060405180910390f35b34801561098557600080fd5b506109c86004803603602081101561099c57600080fd5b81019080803573ffffffffffffffffffffffffffffffffffffffff169060200190929190505050612e6a565b604051808215151515815260200191505060405180910390f35b3480156109ee57600080fd5b50610a3160048036036020811015610a0557600080fd5b81019080803573ffffffffffffffffffffffffffffffffffffffff169060200190929190505050612f28565b6040518082815260200191505060405180910390f35b348015610a5357600080fd5b50610a8060048036036020811015610a6a57600080fd5b8101908080359060200190929190505050612f40565b005b610bf860048036036080811015610a9857600080fd5b8101908080359060200190640100000000811115610ab557600080fd5b820183602082011115610ac757600080fd5b80359060200191846020830284011164010000000083111715610ae957600080fd5b909192939192939080359060200190640100000000811115610b0a57600080fd5b820183602082011115610b1c57600080fd5b80359060200191846020830284011164010000000083111715610b3e57600080fd5b909192939192939080359060200190640100000000811115610b5f57600080fd5b820183602082011115610b7157600080fd5b80359060200191846001830284011164010000000083111715610b9357600080fd5b909192939192939080359060200190640100000000811115610bb457600080fd5b820183602082011115610bc657600080fd5b80359060200191846020830284011164010000000083111715610be857600080fd5b9091929391929390505050612fb3565b6040518082815260200191505060405180910390f35b348015610c1a57600080fd5b50610c2361333c565b6040518080602001828103825283818151815260200191508051906020019060200280838360005b83811015610c66578082015181840152602081019050610c4b565b505050509050019250505060405180910390f35b348015610c8657600080fd5b50610c8f613394565b005b348015610c9d57600080fd5b50610ca6613464565b6040518082815260200191505060405180910390f35b348015610cc857600080fd5b50610cf560048036036020811015610cdf57600080fd5b810190808035906020019092919050505061346a565b604051808215151515815260200191505060405180910390f35b348015610d1b57600080fd5b50610d24613497565b604051808273ffffffffffffffffffffffffffffffffffffffff1673ffffffffffffffffffffffffffffffffffffffff16815260200191505060405180910390f35b348015610d7257600080fd5b50610d9f60048036036020811015610d8957600080fd5b81019080803590602001909291905050506134bd565b005b348015610dad57600080fd5b50610e576004803603610120811015610dc557600080fd5b81019080803573ffffffffffffffffffffffffffffffffffffffff169060200190929190803573ffffffffffffffffffffffffffffffffffffffff1690602001909291908035906020019092919080359060200190929190803590602001909291908035906020019092919080359060200190929190803590602001909291908035906020019092919050505061352a565b005b348015610e6557600080fd5b50610e6e613693565b604051808273ffffffffffffffffffffffffffffffffffffffff1673ffffffffffffffffffffffffffffffffffffffff16815260200191505060405180910390f35b348015610ebc57600080fd5b50610ec56136bc565b6040518082815260200191505060405180910390f35b348015610ee757600080fd5b50610ef06136c2565b604051808215151515815260200191505060405180910390f35b348015610f1657600080fd5b50610f4360048036036020811015610f2d57600080fd5b8101908080359060200190929190505050613719565b005b348015610f5157600080fd5b50610fbd60048036036040811015610f6857600080fd5b81019080803573ffffffffffffffffffffffffffffffffffffffff16906020019092919080357bffffffffffffffffffffffffffffffffffffffffffffffffffffffff1916906020019092919050505061377a565b604051808381526020018281526020019250505060405180910390f35b348015610fe657600080fd5b5061101360048036036020811015610ffd57600080fd5b81019080803590602001909291905050506137a7565b6040518082815260200191505060405180910390f35b34801561103557600080fd5b506110626004803603602081101561104c57600080fd5b8101908080359060200190929190505050613857565b005b34801561107057600080fd5b506110b36004803603602081101561108757600080fd5b81019080803573ffffffffffffffffffffffffffffffffffffffff1690602001909291905050506138ca565b604051808381526020018281526020019250505060405180910390f35b3480156110dc57600080fd5b5061111f600480360360208110156110f357600080fd5b81019080803573ffffffffffffffffffffffffffffffffffffffff1690602001909291905050506138ee565b6040518082815260200191505060405180910390f35b34801561114157600080fd5b506111846004803603602081101561115857600080fd5b81019080803573ffffffffffffffffffffffffffffffffffffffff16906020019092919050505061393a565b005b34801561119257600080fd5b506111bf600480360360208110156111a957600080fd5b81019080803590602001909291905050506139d2565b6040518082815260200191505060405180910390f35b3480156111e157600080fd5b506111ea6139f3565b6040518082815260200191505060405180910390f35b34801561120c57600080fd5b506112396004803603602081101561122357600080fd5b8101908080359060200190929190505050613a00565b6040518082815260200191505060405180910390f35b34801561125b57600080fd5b506112926004803603604081101561127257600080fd5b810190808035906020019092919080359060200190929190505050613a21565b604051808215151515815260200191505060405180910390f35b3480156112b857600080fd5b506112c1613def565b6040518082815260200191505060405180910390f35b3480156112e357600080fd5b50611327600480360360608110156112fa57600080fd5b810190808035906020019092919080359060200190929190803560ff169060200190929190505050613dff565b604051808215151515815260200191505060405180910390f35b34801561134d57600080fd5b50611356614228565b6040518082815260200191505060405180910390f35b34801561137857600080fd5b506113a56004803603602081101561138f57600080fd5b810190808035906020019092919050505061422e565b604051808215151515815260200191505060405180910390f35b3480156113cb57600080fd5b506113f8600480360360208110156113e257600080fd5b8101908080359060200190929190505050614301565b604051808573ffffffffffffffffffffffffffffffffffffffff1673ffffffffffffffffffffffffffffffffffffffff16815260200184815260200183815260200182815260200194505050505060405180910390f35b34801561145b57600080fd5b506114886004803603602081101561147257600080fd5b8101908080359060200190929190505050614365565b005b34801561149657600080fd5b506114d0600480360360408110156114ad57600080fd5b8101908080359060200190929190803560ff1690602001909291905050506143d2565b6040518082815260200191505060405180910390f35b3480156114f257600080fd5b5061151f6004803603602081101561150957600080fd5b810190808035906020019092919050505061450b565b005b34801561152d57600080fd5b506115646004803603604081101561154457600080fd5b81019080803590602001909291908035906020019092919050505061457e565b604051808481526020018373ffffffffffffffffffffffffffffffffffffffff1673ffffffffffffffffffffffffffffffffffffffff16815260200180602001828103825283818151815260200191508051906020019080838360005b838110156115dc5780820151818401526020810190506115c1565b50505050905090810190601f1680156116095780820380516001836020036101000a031916815260200191505b5094505050505060405180910390f35b34801561162557600080fd5b5061162e614742565b6040518082815260200191505060405180910390f35b34801561165057600080fd5b5061167d6004803603602081101561166757600080fd5b8101908080359060200190929190505050614748565b60405180848152602001838152602001828152602001935050505060405180910390f35b3480156116ad57600080fd5b506116da600480360360208110156116c457600080fd5b8101908080359060200190929190505050614789565b604051808260058111156116ea57fe5b60ff16815260200191505060405180910390f35b34801561170a57600080fd5b5061174d6004803603602081101561172157600080fd5b81019080803573ffffffffffffffffffffffffffffffffffffffff16906020019092919050505061479b565b005b34801561175b57600080fd5b506117646147b8565b6040518082815260200191505060405180910390f35b606080601173__IntegerSortedLinkedList_______________6369b317e390916040518263ffffffff1660e01b81526004018082815260200191505060006040518083038186803b1580156117cf57600080fd5b505af41580156117e3573d6000803e3d6000fd5b505050506040513d6000823e3d601f19601f82011682018060405250604081101561180d57600080fd5b81019080805164010000000081111561182557600080fd5b8281019050602081018481111561183b57600080fd5b815185602082028301116401000000008211171561185857600080fd5b5050929190602001805164010000000081111561187457600080fd5b8281019050602081018481111561188a57600080fd5b81518560208202830111640100000000821117156118a757600080fd5b5050929190505050915091509091565b60038060000154908060010154908060020154905083565b600a5481565b600080600f600084815260200190815260200160002090506118f6816147c5565b915050919050565b600860009054906101000a900473ffffffffffffffffffffffffffffffffffffffff1681565b600060149054906101000a900460ff1681565b600080600f60008481526020019081526020016000209050611957615307565b604051806040016040528083600301600101548152602001611990846003016002015485600301600101546147d590919063ffffffff16565b815250905060008090505b8260060180549050811015611b06576000611a6d8460060183815481106119be57fe5b90600052602060002090600302016002018054600181600116156101000203166002900480601f016020809104026020016040519081016040528092919081815260200182805460018160011615610100020316600290048015611a635780601f10611a3857610100808354040283529160200191611a63565b820191906000526020600020905b815481529060010190602001808311611a4657829003601f168201915b50505050506147f4565b9050611a77615307565b611ac1856006018481548110611a8957fe5b906000526020600020906003020160010160009054906101000a900473ffffffffffffffffffffffffffffffffffffffff168361480c565b9050611ad68185614a8690919063ffffffff16565b15611ae957600095505050505050611b0e565b5050611aff6001826147d590919063ffffffff16565b905061199b565b506001925050505b919050565b6000601060008373ffffffffffffffffffffffffffffffffffffffff1673ffffffffffffffffffffffffffffffffffffffff168152602001908152602001600020600101549050919050565b611b676136c2565b611b7057600080fd5b600081118015611b8257506006548114155b611b8b57600080fd5b806006819055507f4ecbf0bb0701615e2d6f9b0a0996056c959fe359ce76aa7ce06c5f1d57dae4d7816040518082815260200191505060405180910390a150565b6000600360020154905090565b611be16136c2565b611bea57600080fd5b600073ffffffffffffffffffffffffffffffffffffffff168173ffffffffffffffffffffffffffffffffffffffff1614158015611c755750600860009054906101000a900473ffffffffffffffffffffffffffffffffffffffff1673ffffffffffffffffffffffffffffffffffffffff168173ffffffffffffffffffffffffffffffffffffffff1614155b611c7e57600080fd5b80600860006101000a81548173ffffffffffffffffffffffffffffffffffffffff021916908373ffffffffffffffffffffffffffffffffffffffff1602179055507fa03757d836cb0b61c0fbba2147f5d51d6071ff3dd5bf6963beb55563d64878e181604051808273ffffffffffffffffffffffffffffffffffffffff1673ffffffffffffffffffffffffffffffffffffffff16815260200191505060405180910390a150565b611d3c6007546009546147d590919063ffffffff16565b42106120e9576000611d58600a54601160000160020154614ac8565b90506060601173__IntegerSortedLinkedList_______________6377b024799091846040518363ffffffff1660e01b8152600401808381526020018281526020019250505060006040518083038186803b158015611db657600080fd5b505af4158015611dca573d6000803e3d6000fd5b505050506040513d6000823e3d601f19601f820116820180604052506020811015611df457600080fd5b810190808051640100000000811115611e0c57600080fd5b82810190506020810184811115611e2257600080fd5b8151856020820283011164010000000082111715611e3f57600080fd5b5050929190505050905060008090505b828110156120de576000828281518110611e6557fe5b602002602001015190506000600f60008381526020019081526020016000209050611e9f60065482600201546147d590919063ffffffff16565b4210611ee3577f88e53c486703527139dfc8d97a1e559d9bd93d3f9d52cda4e06564111e7a2643826040518082815260200191505060405180910390a150506120c3565b611f5d8160010154600d60008460000160009054906101000a900473ffffffffffffffffffffffffffffffffffffffff1673ffffffffffffffffffffffffffffffffffffffff1673ffffffffffffffffffffffffffffffffffffffff168152602001908152602001600020546147d590919063ffffffff16565b600d60008360000160009054906101000a900473ffffffffffffffffffffffffffffffffffffffff1673ffffffffffffffffffffffffffffffffffffffff1673ffffffffffffffffffffffffffffffffffffffff168152602001908152602001600020819055504281600201819055506000601780549050111561205b576000611ff66001601780549050614ae190919063ffffffff16565b90508260166017838154811061200857fe5b90600052602060002001548154811061201d57fe5b90600052602060002001819055506017818154811061203857fe5b9060005260206000200160009055806017816120549190615321565b5050612088565b60168290806001815401808255809150509060018203906000526020600020016000909192909190915055505b817f3e069fb74dcf5fbc07740b0d40d7f7fc48e9c0ca5dc3d19eb34d2e05d74c5543426040518082815260200191505060405180910390a250505b6120d76001826147d590919063ffffffff16565b9050611e4f565b504260098190555050505b565b60006001600260008282540192505081905550600060025490506000600d60003373ffffffffffffffffffffffffffffffffffffffff1673ffffffffffffffffffffffffffffffffffffffff16815260200190815260200160002054905060008111801561217057503073ffffffffffffffffffffffffffffffffffffffff16318111155b61217957600080fd5b6000600d60003373ffffffffffffffffffffffffffffffffffffffff1673ffffffffffffffffffffffffffffffffffffffff168152602001908152602001600020819055503373ffffffffffffffffffffffffffffffffffffffff166108fc829081150290604051600060405180830381858888f19350505050158015612204573d6000803e3d6000fd5b506001925050600254811461221857600080fd5b5090565b600c5481565b61222a6136c2565b61223357600080fd5b600073ffffffffffffffffffffffffffffffffffffffff168473ffffffffffffffffffffffffffffffffffffffff16141580156122705750600082115b801561227c5750600081115b61228557600080fd5b61228d615307565b60405180604001604052808481526020018381525090506122ac615307565b604051806040016040528060018152602001600281525090506122cd615307565b604051806040016040528060018152602001600181525090506122f98284614b0190919063ffffffff16565b801561231457506123138184614a8690919063ffffffff16565b5b61231d57600080fd5b600060e01b867bffffffffffffffffffffffffffffffffffffffffffffffffffffffff191614156123a75782600e60008973ffffffffffffffffffffffffffffffffffffffff1673ffffffffffffffffffffffffffffffffffffffff1681526020019081526020016000206000016000820151816000015560208201518160010155905050612451565b82600e60008973ffffffffffffffffffffffffffffffffffffffff1673ffffffffffffffffffffffffffffffffffffffff1681526020019081526020016000206002016000887bffffffffffffffffffffffffffffffffffffffffffffffffffffffff19167bffffffffffffffffffffffffffffffffffffffffffffffffffffffff1916815260200190815260200160002060008201518160000155602082015181600101559050505b857bffffffffffffffffffffffffffffffffffffffffffffffffffffffff19168773ffffffffffffffffffffffffffffffffffffffff167f0105b95c063947d28ab4adfca8c648521aec39faa6730ab04bec32706d17c0398787604051808381526020018281526020019250505060405180910390a350505050505050565b60006124da611d25565b6000600f600085815260200190815260200160002090506124fa816147c5565b801561251c5750836016848154811061250f57fe5b9060005260206000200154145b61252557600080fd5b600061253085614b42565b9050806127c65760006125468360020154614bfd565b90508260070160009054906101000a900460ff16801561257c57506004600581111561256e57fe5b81600581111561257a57fe5b145b801561258d575061258c86611937565b5b61259657600080fd5b60008090505b83600601805490508110156127965760006127058560060183815481106125bf57fe5b906000526020600020906003020160010160009054906101000a900473ffffffffffffffffffffffffffffffffffffffff1686600601848154811061260057fe5b90600052602060002090600302016000015487600601858154811061262157fe5b906000526020600020906003020160020180546001816001161561010002031660029004905088600601868154811061265657fe5b90600052602060002090600302016002018054600181600116156101000203166002900480601f0160208091040260200160405190810160405280929190818152602001828054600181600116156101000203166002900480156126fb5780601f106126d0576101008083540402835291602001916126fb565b820191906000526020600020905b8154815290600101906020018083116126de57829003601f168201915b5050505050614c57565b90508061277a576040517f08c379a000000000000000000000000000000000000000000000000000000000815260040180806020018281038252601d8152602001807f616c6c207472616e73616374696f6e73206d757374207375636365656400000081525060200191505060405180910390fd5b5061278f6001826147d590919063ffffffff16565b905061259c565b50857f712ae1383f79ac853f8d882153778e0260ef8f03b504e2866e0593e04d2b291f60405160405180910390a2505b6127d08585614ca6565b80159250505092915050565b6000600160026000828254019250508190555060006002549050600061280133614d83565b905061280c81614e4b565b1561281657600080fd5b61281e611d25565b601173__IntegerSortedLinkedList_______________63bfc516389091886040518363ffffffff1660e01b8152600401808381526020018281526020019250505060206040518083038186803b15801561287857600080fd5b505af415801561288c573d6000803e3d6000fd5b505050506040513d60208110156128a257600080fd5b810190808051906020019092919050505080156128e957506128e5600654600f6000898152602001908152602001600020600201546147d590919063ffffffff16565b4210155b156129a157601173__IntegerSortedLinkedList_______________63eed5f7be9091886040518363ffffffff1660e01b8152600401808381526020018281526020019250505060006040518083038186803b15801561294857600080fd5b505af415801561295c573d6000803e3d6000fd5b505050507f88e53c486703527139dfc8d97a1e559d9bd93d3f9d52cda4e06564111e7a2643866040518082815260200191505060405180910390a16000925050612c56565b6000601060008373ffffffffffffffffffffffffffffffffffffffff1673ffffffffffffffffffffffffffffffffffffffff168152602001908152602001600020905060006129ef83614f13565b90506129fa8861422e565b8015612aab5750600082600001541480612aaa5750601173__IntegerSortedLinkedList_______________63bfc51638909184600001546040518363ffffffff1660e01b8152600401808381526020018281526020019250505060206040518083038186803b158015612a6d57600080fd5b505af4158015612a81573d6000803e3d6000fd5b505050506040513d6020811015612a9757600080fd5b8101908080519060200190929190505050155b5b8015612ab75750600081115b612ac057600080fd5b6000612b6982601173__IntegerSortedLinkedList_______________637577759990918d6040518363ffffffff1660e01b8152600401808381526020018281526020019250505060206040518083038186803b158015612b2057600080fd5b505af4158015612b34573d6000803e3d6000fd5b505050506040513d6020811015612b4a57600080fd5b81019080805190602001909291905050506147d590919063ffffffff16565b9050601173__IntegerSortedLinkedList_______________63239491ba90918b848c8c6040518663ffffffff1660e01b8152600401808681526020018581526020018481526020018381526020018281526020019550505050505060006040518083038186803b158015612bdd57600080fd5b505af4158015612bf1573d6000803e3d6000fd5b505050508883600001819055508373ffffffffffffffffffffffffffffffffffffffff16897fd19965d25ef670a1e322fbf05475924b7b12d81fd6b96ab718b261782efb3d62846040518082815260200191505060405180910390a360019550505050505b6002548114612c6457600080fd5b509392505050565b6000612c76611d25565b6000600f60008581526020019081526020016000209050612c96816147c5565b8015612cb857508360168481548110612cab57fe5b9060005260206000200154145b612cc157600080fd5b612cca84614b42565b15612ce357612cd98484614ca6565b6000915050612ddc565b6000612cf28260020154614bfd565b9050600860009054906101000a900473ffffffffffffffffffffffffffffffffffffffff1673ffffffffffffffffffffffffffffffffffffffff163373ffffffffffffffffffffffffffffffffffffffff16148015612d6057508160070160009054906101000a900460ff16155b8015612d82575060026005811115612d7457fe5b816005811115612d8057fe5b145b612d8b57600080fd5b60018260070160006101000a81548160ff021916908315150217905550847f28ec9e38ba73636ceb2f6c1574136f83bd46284a3c74734b711bf45e12f8d92960405160405180910390a26001925050505b92915050565b6000806000601060008673ffffffffffffffffffffffffffffffffffffffff1673ffffffffffffffffffffffffffffffffffffffff1681526020019081526020016000206002016000858152602001908152602001600020905080600101548160000160009054906101000a900460ff166003811115612e5e57fe5b92509250509250929050565b600080601060008473ffffffffffffffffffffffffffffffffffffffff1673ffffffffffffffffffffffffffffffffffffffff1681526020019081526020016000209050600080826000015414158015612ecd5750612ecc826000015461422e565b5b90506000600f6000846001015481526020019081526020016000209050600060036005811115612ef957fe5b612f068360020154614bfd565b6005811115612f1157fe5b1490508280612f1d5750805b945050505050919050565b600d6020528060005260406000206000915090505481565b612f486136c2565b612f5157600080fd5b600081118015612f6657506003600201548114155b612f6f57600080fd5b806003600201819055507f7819c8059302d1d66abc7fe228ecc02214e0bc5c529956c13717aabefce937d8816040518082815260200191505060405180910390a150565b6000612fbd611d25565b600c54341015612fcc57600080fd5b8686905089899050148015612fe657508282905087879050145b612fef57600080fd5b600089899050905061300d6001600b546147d590919063ffffffff16565b600b819055506000600f6000600b5481526020019081526020016000209050338160000160006101000a81548173ffffffffffffffffffffffffffffffffffffffff021916908373ffffffffffffffffffffffffffffffffffffffff160217905550348160010181905550428160020181905550600080905060008090505b8381101561324b578260060160405180606001604052808f8f858181106130af57fe5b9050602002013581526020018d8d858181106130c757fe5b9050602002013573ffffffffffffffffffffffffffffffffffffffff1673ffffffffffffffffffffffffffffffffffffffff16815260200161316a858b8b8781811061310f57fe5b905060200201358e8e8080601f016020809104026020016040519081016040528093929190818152602001838380828437600081840152601f19601f82011690508083019250505050505050614fdb9092919063ffffffff16565b815250908060018154018082558091505090600182039060005260206000209060030201600090919290919091506000820151816000015560208201518160010160006101000a81548173ffffffffffffffffffffffffffffffffffffffff021916908373ffffffffffffffffffffffffffffffffffffffff160217905550604082015181600201908051906020019061320592919061534d565b5050505061322e87878381811061321857fe5b90506020020135836147d590919063ffffffff16565b91506132446001826147d590919063ffffffff16565b905061308c565b50601173__IntegerSortedLinkedList_______________63d7a8acc19091600b546040518363ffffffff1660e01b8152600401808381526020018281526020019250505060006040518083038186803b1580156132a857600080fd5b505af41580156132bc573d6000803e3d6000fd5b505050503373ffffffffffffffffffffffffffffffffffffffff16600b547f1bfe527f3548d9258c2512b6689f0acfccdd0557d80a53845db25fc57e93d8fe8460060180549050344260405180848152602001838152602001828152602001935050505060405180910390a3600b54935050505098975050505050505050565b6060601680548060200260200160405190810160405280929190818152602001828054801561338a57602002820191906000526020600020905b815481526020019060010190808311613376575b5050505050905090565b61339c6136c2565b6133a557600080fd5b600073ffffffffffffffffffffffffffffffffffffffff166000809054906101000a900473ffffffffffffffffffffffffffffffffffffffff1673ffffffffffffffffffffffffffffffffffffffff167f8be0079c531659141344cd1fd0a4f28419497f9722a3daafe3b4186f6b6457e060405160405180910390a360008060006101000a81548173ffffffffffffffffffffffffffffffffffffffff021916908373ffffffffffffffffffffffffffffffffffffffff160217905550565b60075481565b6000600f600083815260200190815260200160002060070160009054906101000a900460ff169050919050565b600160009054906101000a900473ffffffffffffffffffffffffffffffffffffffff1681565b6134c56136c2565b6134ce57600080fd5b6000811180156134e057506007548114155b6134e957600080fd5b806007819055507f391e82aae76c653cd640ad1b6028e2ee39ca4f29b30152e3d0a9ddd7e1169c34816040518082815260200191505060405180910390a150565b600060149054906101000a900460ff161561354457600080fd5b6001600060146101000a81548160ff021916908315150217905550600073ffffffffffffffffffffffffffffffffffffffff168873ffffffffffffffffffffffffffffffffffffffff161415801561359d575060008714155b80156135aa575060008614155b80156135b7575060008514155b80156135c4575060008414155b80156135d1575060008314155b80156135de575060008214155b80156135eb575060008114155b6135f457600080fd5b6135fd33615067565b6136068961393a565b87600860006101000a81548173ffffffffffffffffffffffffffffffffffffffff021916908373ffffffffffffffffffffffffffffffffffffffff16021790555086600a8190555085600c81905550846006819055508360078190555082600360000181905550816003600101819055508060036002018190555042600981905550505050505050505050565b60008060009054906101000a900473ffffffffffffffffffffffffffffffffffffffff16905090565b60065481565b60008060009054906101000a900473ffffffffffffffffffffffffffffffffffffffff1673ffffffffffffffffffffffffffffffffffffffff163373ffffffffffffffffffffffffffffffffffffffff1614905090565b6137216136c2565b61372a57600080fd5b600c5481141561373957600080fd5b80600c819055507fc50a7f0bdf88c216b2541b0bdea26f22305460e39ffc672ec1a7501732c5ba81816040518082815260200191505060405180910390a150565b600080613785615307565b61378f858561480c565b90508060000151816020015192509250509250929050565b60006137b28261422e565b6137bb57600080fd5b601173__IntegerSortedLinkedList_______________63757775999091846040518363ffffffff1660e01b8152600401808381526020018281526020019250505060206040518083038186803b15801561381557600080fd5b505af4158015613829573d6000803e3d6000fd5b505050506040513d602081101561383f57600080fd5b81019080805190602001909291905050509050919050565b61385f6136c2565b61386857600080fd5b60008111801561387d57506003600001548114155b61388657600080fd5b806003600001819055507fbc44c003a66b841b48c220869efb738b265af305649ac8bafe8efe0c8130e313816040518082815260200191505060405180910390a150565b60106020528060005260406000206000915090508060000154908060010154905082565b6000601060008373ffffffffffffffffffffffffffffffffffffffff1673ffffffffffffffffffffffffffffffffffffffff168152602001908152602001600020600001549050919050565b6139426136c2565b61394b57600080fd5b80600160006101000a81548173ffffffffffffffffffffffffffffffffffffffff021916908373ffffffffffffffffffffffffffffffffffffffff1602179055508073ffffffffffffffffffffffffffffffffffffffff167f27fe5f0c1c3b1ed427cc63d0f05759ffdecf9aec9e18d31ef366fc8a6cb5dc3b60405160405180910390a250565b601781815481106139df57fe5b906000526020600020016000915090505481565b6000600360010154905090565b60168181548110613a0d57fe5b906000526020600020016000915090505481565b6000600160026000828254019250508190555060006002549050613a43611d25565b6000613a4e33614d83565b90506000601060008373ffffffffffffffffffffffffffffffffffffffff1673ffffffffffffffffffffffffffffffffffffffff16815260200190815260200160002090506000816000015490506000600f60008381526020019081526020016000209050613abc816147c5565b613ac557600080fd5b601173__IntegerSortedLinkedList_______________63bfc516389091846040518363ffffffff1660e01b8152600401808381526020018281526020019250505060206040518083038186803b158015613b1f57600080fd5b505af4158015613b33573d6000803e3d6000fd5b505050506040513d6020811015613b4957600080fd5b810190808051906020019092919050505015613dc857613b7860065482600201546147d590919063ffffffff16565b4210613c2c57601173__IntegerSortedLinkedList_______________63eed5f7be9091846040518363ffffffff1660e01b8152600401808381526020018281526020019250505060006040518083038186803b158015613bd857600080fd5b505af4158015613bec573d6000803e3d6000fd5b505050507f88e53c486703527139dfc8d97a1e559d9bd93d3f9d52cda4e06564111e7a2643826040518082815260200191505060405180910390a1613dc7565b6000613c3785614f13565b905060008111613c4657600080fd5b601173__IntegerSortedLinkedList_______________63239491ba909185613d0c85601173__IntegerSortedLinkedList_______________637577759990918b6040518363ffffffff1660e01b8152600401808381526020018281526020019250505060206040518083038186803b158015613cc357600080fd5b505af4158015613cd7573d6000803e3d6000fd5b505050506040513d6020811015613ced57600080fd5b8101908080519060200190929190505050614ae190919063ffffffff16565b8d8d6040518663ffffffff1660e01b8152600401808681526020018581526020018481526020018381526020018281526020019550505050505060006040518083038186803b158015613d5e57600080fd5b505af4158015613d72573d6000803e3d6000fd5b505050508473ffffffffffffffffffffffffffffffffffffffff16837f7dc46237a819c9171a9c037ec98928e563892905c4d23373ca0f3f500f4ed114836040518082815260200191505060405180910390a3505b5b6000836000018190555060019550505050506002548114613de857600080fd5b5092915050565b6000601160000160020154905090565b600080613e0b33614d83565b9050613e1681614e4b565b15613e2057600080fd5b613e28611d25565b6000600f60008781526020019081526020016000209050613e48816147c5565b8015613e6a57508560168681548110613e5d57fe5b9060005260206000200154145b613e7357600080fd5b613e7c86614b42565b15613e9657613e8b8686614ca6565b600092505050614221565b6000613ea58260020154614bfd565b90506000601060008573ffffffffffffffffffffffffffffffffffffffff1673ffffffffffffffffffffffffffffffffffffffff16815260200190815260200160002090506000613ef585614f13565b90508360070160009054906101000a900460ff168015613f2b575060036005811115613f1d57fe5b836005811115613f2957fe5b145b8015613f4e575060006003811115613f3f57fe5b876003811115613f4b57fe5b14155b8015613f5a5750600081115b613f6357600080fd5b60008260020160008a8152602001908152602001600020905089816001015414156140945760016003811115613f9557fe5b8160000160009054906101000a900460ff166003811115613fb257fe5b1415613fe257613fd2828660030160000154614ae190919063ffffffff16565b8560030160000181905550614093565b600380811115613fee57fe5b8160000160009054906101000a900460ff16600381111561400b57fe5b141561403b5761402b828660030160010154614ae190919063ffffffff16565b8560030160010181905550614092565b6002600381111561404857fe5b8160000160009054906101000a900460ff16600381111561406557fe5b141561409157614085828660030160020154614ae190919063ffffffff16565b85600301600201819055505b5b5b5b600160038111156140a157fe5b8860038111156140ad57fe5b14156140dd576140cd8286600301600001546147d590919063ffffffff16565b856003016000018190555061416c565b6003808111156140e957fe5b8860038111156140f557fe5b1415614125576141158286600301600101546147d590919063ffffffff16565b856003016001018190555061416b565b6002600381111561413257fe5b88600381111561413e57fe5b141561416a5761415e8286600301600201546147d590919063ffffffff16565b85600301600201819055505b5b5b898160010181905550878160000160006101000a81548160ff0219169083600381111561419557fe5b02179055508260010154856002015411156141b4578983600101819055505b8573ffffffffffffffffffffffffffffffffffffffff168a7ff3709dc32cf1356da6b8a12a5be1401aeb00989556be7b16ae566e65fef7a9df8a60038111156141f957fe5b85604051808381526020018281526020019250505060405180910390a3600196505050505050505b9392505050565b60095481565b6000601173__IntegerSortedLinkedList_______________63bfc516389091846040518363ffffffff1660e01b8152600401808381526020018281526020019250505060206040518083038186803b15801561428a57600080fd5b505af415801561429e573d6000803e3d6000fd5b505050506040513d60208110156142b457600080fd5b810190808051906020019092919050505080156142fa57506142f7600654600f6000858152602001908152602001600020600201546147d590919063ffffffff16565b42105b9050919050565b6000806000806000600f600087815260200190815260200160002090508060000160009054906101000a900473ffffffffffffffffffffffffffffffffffffffff168160010154826002015483600601805490509450945094509450509193509193565b61436d6136c2565b61437657600080fd5b6000811180156143885750600a548114155b61439157600080fd5b80600a819055507f85399b9b2595eb13c392e1638ca77730156cd8d48d4733df4db068e4aa6b93a6816040518082815260200191505060405180910390a150565b6000600260058111156143e157fe5b8260058111156143ed57fe5b14156143fb57829050614505565b6003600581111561440857fe5b82600581111561441457fe5b141561443957614432600360000154846147d590919063ffffffff16565b9050614505565b6004600581111561444657fe5b82600581111561445257fe5b141561448e57614487600360010154614479600360000154866147d590919063ffffffff16565b6147d590919063ffffffff16565b9050614505565b60058081111561449a57fe5b8260058111156144a657fe5b14156144f9576144f26003600201546144e46003600101546144d6600360000154886147d590919063ffffffff16565b6147d590919063ffffffff16565b6147d590919063ffffffff16565b9050614505565b600061450457600080fd5b5b92915050565b6145136136c2565b61451c57600080fd5b60008111801561453157506003600101548114155b61453a57600080fd5b806003600101819055507f90290eb9b27055e686a69fb810bada5381e544d07b8270021da2d355a6c96ed6816040518082815260200191505060405180910390a150565b60008060606000600f6000878152602001908152602001600020905080600601805490508510614616576040517f08c379a000000000000000000000000000000000000000000000000000000000815260040180806020018281038252601f8152602001807f7472616e73616374696f6e20696e646578206f7574206f6620626f756e64730081525060200191505060405180910390fd5b80600601858154811061462557fe5b90600052602060002090600302016000015481600601868154811061464657fe5b906000526020600020906003020160010160009054906101000a900473ffffffffffffffffffffffffffffffffffffffff1682600601878154811061468757fe5b9060005260206000209060030201600201808054600181600116156101000203166002900480601f01602080910402602001604051908101604052809291908181526020018280546001816001161561010002031660029004801561472d5780601f106147025761010080835404028352916020019161472d565b820191906000526020600020905b81548152906001019060200180831161471057829003601f168201915b50505050509050935093509350509250925092565b600b5481565b600080600080600f60008681526020019081526020016000209050806003016001015481600301600201548260030160000154935093509350509193909250565b600061479482614bfd565b9050919050565b6147a36136c2565b6147ac57600080fd5b6147b581615067565b50565b6000600360000154905090565b6000808260020154119050919050565b6000808284019050838110156147ea57600080fd5b8091505092915050565b60008082815260048301600482015280915050919050565b614814615307565b61481c615307565b604051806040016040528060018152602001600281525090506148ed600e60008673ffffffffffffffffffffffffffffffffffffffff1673ffffffffffffffffffffffffffffffffffffffff1681526020019081526020016000206002016000857bffffffffffffffffffffffffffffffffffffffffffffffffffffffff19167bffffffffffffffffffffffffffffffffffffffffffffffffffffffff191681526020019081526020016000206040518060400160405290816000820154815260200160018201548152505061515f565b156149a957600e60008573ffffffffffffffffffffffffffffffffffffffff1673ffffffffffffffffffffffffffffffffffffffff1681526020019081526020016000206002016000847bffffffffffffffffffffffffffffffffffffffffffffffffffffffff19167bffffffffffffffffffffffffffffffffffffffffffffffffffffffff19168152602001908152602001600020604051806040016040529081600082015481526020016001820154815250509050614a7c565b614a12600e60008673ffffffffffffffffffffffffffffffffffffffff1673ffffffffffffffffffffffffffffffffffffffff1681526020019081526020016000206000016040518060400160405290816000820154815260200160018201548152505061515f565b15614a7b57600e60008573ffffffffffffffffffffffffffffffffffffffff1673ffffffffffffffffffffffffffffffffffffffff1681526020019081526020016000206000016040518060400160405290816000820154815260200160018201548152505090505b5b8091505092915050565b6000614aa38360200151836000015161517e90919063ffffffff16565b614abe8360200151856000015161517e90919063ffffffff16565b1115905092915050565b6000818310614ad75781614ad9565b825b905092915050565b600082821115614af057600080fd5b600082840390508091505092915050565b6000614b1e8360200151836000015161517e90919063ffffffff16565b614b398360200151856000015161517e90919063ffffffff16565b11905092915050565b600080600f600084815260200190815260200160002090506000614b698260020154614bfd565b905060046005811115614b7857fe5b816005811115614b8457fe5b1180614bb8575060036005811115614b9857fe5b816005811115614ba457fe5b118015614bb75750614bb584611937565b155b5b80614bf4575060026005811115614bcb57fe5b816005811115614bd757fe5b118015614bf357508160070160009054906101000a900460ff16155b5b92505050919050565b6000614c0a8260056143d2565b4210614c195760059050614c52565b614c248260046143d2565b4210614c335760049050614c52565b614c3e8260036143d2565b4210614c4d5760039050614c52565b600290505b919050565b600060016002600082825401925050819055506000600254905060006040516020850160008288838b8d6187965a03f192505050809250506002548114614c9d57600080fd5b50949350505050565b600060168281548110614cb557fe5b90600052602060002001819055506017819080600181540180825580915050906001820390600052602060002001600090919290919091505550600f6000838152602001908152602001600020600080820160006101000a81549073ffffffffffffffffffffffffffffffffffffffff02191690556001820160009055600282016000905560038201600080820160009055600182016000905560028201600090555050600682016000614d6991906153cd565b6007820160006101000a81549060ff021916905550505050565b6000614d8d6151b8565b73ffffffffffffffffffffffffffffffffffffffff1663aaf4eb75836040518263ffffffff1660e01b8152600401808273ffffffffffffffffffffffffffffffffffffffff1673ffffffffffffffffffffffffffffffffffffffff16815260200191505060206040518083038186803b158015614e0957600080fd5b505afa158015614e1d573d6000803e3d6000fd5b505050506040513d6020811015614e3357600080fd5b81019080805190602001909291905050509050919050565b6000614e556151b8565b73ffffffffffffffffffffffffffffffffffffffff1663cc830885836040518263ffffffff1660e01b8152600401808273ffffffffffffffffffffffffffffffffffffffff1673ffffffffffffffffffffffffffffffffffffffff16815260200191505060206040518083038186803b158015614ed157600080fd5b505afa158015614ee5573d6000803e3d6000fd5b505050506040513d6020811015614efb57600080fd5b81019080805190602001909291905050509050919050565b6000614f1d6151b8565b73ffffffffffffffffffffffffffffffffffffffff16633ea01b34836040518263ffffffff1660e01b8152600401808273ffffffffffffffffffffffffffffffffffffffff1673ffffffffffffffffffffffffffffffffffffffff16815260200191505060206040518083038186803b158015614f9957600080fd5b505afa158015614fad573d6000803e3d6000fd5b505050506040513d6020811015614fc357600080fd5b81019080805190602001909291905050509050919050565b606081830184511015614fed57600080fd5b606082156000811461500a5760405191506020820160405261505b565b6040519150601f8416801560200281840101858101878315602002848b0101015b81831015615048578051835260208301925060208101905061502b565b50868552601f19601f8301166040525050505b50809150509392505050565b600073ffffffffffffffffffffffffffffffffffffffff168173ffffffffffffffffffffffffffffffffffffffff1614156150a157600080fd5b8073ffffffffffffffffffffffffffffffffffffffff166000809054906101000a900473ffffffffffffffffffffffffffffffffffffffff1673ffffffffffffffffffffffffffffffffffffffff167f8be0079c531659141344cd1fd0a4f28419497f9722a3daafe3b4186f6b6457e060405160405180910390a3806000806101000a81548173ffffffffffffffffffffffffffffffffffffffff021916908373ffffffffffffffffffffffffffffffffffffffff16021790555050565b60008082600001511180615177575060008260200151115b9050919050565b60008083141561519157600090506151b2565b60008284029050828482816151a257fe5b04146151ad57600080fd5b809150505b92915050565b6000600160009054906101000a900473ffffffffffffffffffffffffffffffffffffffff1673ffffffffffffffffffffffffffffffffffffffff16630b5855e16040518060400160405280600e81526020017f426f6e6465644465706f736974730000000000000000000000000000000000008152506040518263ffffffff1660e01b81526004018080602001828103825283818151815260200191508051906020019080838360005b8381101561527d578082015181840152602081019050615262565b50505050905090810190601f1680156152aa5780820380516001836020036101000a031916815260200191505b509250505060206040518083038186803b1580156152c757600080fd5b505afa1580156152db573d6000803e3d6000fd5b505050506040513d60208110156152f157600080fd5b8101908080519060200190929190505050905090565b604051806040016040528060008152602001600081525090565b8154818355818111156153485781836000526020600020918201910161534791906153f1565b5b505050565b828054600181600116156101000203166002900490600052602060002090601f016020900481019282601f1061538e57805160ff19168380011785556153bc565b828001600101855582156153bc579182015b828111156153bb5782518255916020019190600101906153a0565b5b5090506153c991906153f1565b5090565b50805460008255600302906000526020600020908101906153ee9190615416565b50565b61541391905b8082111561540f5760008160009055506001016153f7565b5090565b90565b61547191905b8082111561546d576000808201600090556001820160006101000a81549073ffffffffffffffffffffffffffffffffffffffff02191690556002820160006154649190615474565b5060030161541c565b5090565b90565b50805460018160011615610100020316600290046000825580601f1061549a57506154b9565b601f0160209004906000526020600020908101906154b891906153f1565b5b5056fea165627a7a72305820548c0e993a161a26b9189160fe8daaa82a7e69a284e852afc1ccdedae98a99560029",
  "source": "pragma solidity ^0.5.8;\n\nimport \"openzeppelin-solidity/contracts/utils/ReentrancyGuard.sol\";\nimport \"openzeppelin-solidity/contracts/ownership/Ownable.sol\";\nimport \"openzeppelin-solidity/contracts/math/Math.sol\";\nimport \"openzeppelin-solidity/contracts/math/SafeMath.sol\";\nimport \"solidity-bytes-utils/contracts/BytesLib.sol\";\n\nimport \"./IntegerSortedLinkedList.sol\";\nimport \"./UsingBondedDeposits.sol\";\nimport \"./interfaces/IGovernance.sol\";\nimport \"../stability/FractionUtil.sol\";\nimport \"../common/Initializable.sol\";\n\n\n// TODO(asa): Hardcode minimum times for queueExpiry, etc.\n/**\n * @title A contract for making, passing, and executing on-chain governance proposals.\n */\ncontract Governance is IGovernance, Ownable, Initializable, UsingBondedDeposits, ReentrancyGuard {\n  using SafeMath for uint256;\n  using FractionUtil for FractionUtil.Fraction;\n  using IntegerSortedLinkedList for SortedLinkedList.List;\n  using BytesLib for bytes;\n\n  // TODO(asa): Consider a delay stage.\n  enum ProposalStage {\n    None,\n    Queued,\n    Approval,\n    Referendum,\n    Execution,\n    Expiration\n  }\n\n  enum VoteValue {\n    None,\n    Abstain,\n    No,\n    Yes\n  }\n\n  struct VoteRecord {\n    VoteValue value;\n    uint256 proposalId;\n  }\n\n  struct Voter {\n    // Key of the proposal voted for in the proposal queue\n    uint256 upvotedProposal;\n    uint256 mostRecentReferendumProposal;\n    // Maps a `dequeued` index to a voter's vote record.\n    mapping(uint256 => VoteRecord) referendumVotes;\n  }\n\n  // TODO(asa): Reduce storage usage here.\n  struct VoteTotals {\n    uint256 abstain;\n    uint256 yes;\n    uint256 no;\n  }\n\n  struct Transaction {\n    uint256 value;\n    address destination;\n    bytes data;\n  }\n\n  struct Proposal {\n    address proposer;\n    uint256 deposit;\n    uint256 timestamp;\n    VoteTotals votes;\n    Transaction[] transactions;\n    bool approved;\n  }\n\n  struct ContractConstitution {\n    FractionUtil.Fraction defaultThreshold;\n    // Maps a function ID to a corresponding passing function, overriding the\n    // default.\n    mapping(bytes4 => FractionUtil.Fraction) functionThresholds;\n  }\n\n  struct StageDurations {\n    uint256 approval;\n    uint256 referendum;\n    uint256 execution;\n  }\n\n  StageDurations public stageDurations;\n  uint256 public queueExpiry;\n  uint256 public dequeueFrequency;\n  address public approver;\n  uint256 public lastDequeue;\n  uint256 public concurrentProposals;\n  uint256 public proposalCount;\n  uint256 public minDeposit;\n  mapping(address => uint256) public refundedDeposits;\n  mapping(address => ContractConstitution) private constitution;\n  mapping(uint256 => Proposal) private proposals;\n  mapping(address => Voter) public voters;\n  SortedLinkedList.List private queue;\n  uint256[] public dequeued;\n  uint256[] public emptyIndices;\n\n  event ApproverSet(\n    address approver\n  );\n\n  event ConcurrentProposalsSet(\n    uint256 concurrentProposals\n  );\n\n  event MinDepositSet(\n    uint256 minDeposit\n  );\n\n  event QueueExpirySet(\n    uint256 queueExpiry\n  );\n\n  event DequeueFrequencySet(\n    uint256 dequeueFrequency\n  );\n\n  event ApprovalStageDurationSet(\n    uint256 approvalStageDuration\n  );\n\n  event ReferendumStageDurationSet(\n    uint256 referendumStageDuration\n  );\n\n  event ExecutionStageDurationSet(\n    uint256 executionStageDuration\n  );\n\n  event ConstitutionSet(\n    address indexed destination,\n    bytes4 indexed functionId,\n    uint256 numerator,\n    uint256 denominator\n  );\n\n  event ProposalQueued(\n    uint256 indexed proposalId,\n    address indexed proposer,\n    uint256 transactionCount,\n    uint256 deposit,\n    uint256 timestamp\n  );\n\n  event ProposalUpvoted(\n    uint256 indexed proposalId,\n    address indexed account,\n    uint256 upvotes\n  );\n\n  event ProposalUpvoteRevoked(\n    uint256 indexed proposalId,\n    address indexed account,\n    uint256 revokedUpvotes\n  );\n\n  event ProposalDequeued(\n    uint256 indexed proposalId,\n    uint256 timestamp\n  );\n\n  event ProposalApproved(\n    uint256 indexed proposalId\n  );\n\n  event ProposalVoted(\n    uint256 indexed proposalId,\n    address indexed account,\n    uint256 value,\n    uint256 weight\n  );\n\n  event ProposalExecuted(\n    uint256 indexed proposalId\n  );\n\n  event ProposalExpired(\n    uint256 proposalId\n  );\n\n  function() external payable {} // solhint-disable no-empty-blocks\n\n  /**\n   * @notice Initializes critical variables.\n   * @param registryAddress The address of the registry contract.\n   * @param _approver The address that needs to approve proposals to move to the referendum stage.\n   * @param _concurrentProposals The number of proposals to dequeue at once.\n   * @param _minDeposit The minimum Celo Gold deposit needed to make a proposal.\n   * @param _queueExpiry The number of seconds a proposal can stay in the queue before expiring.\n   * @param _dequeueFrequency The number of seconds before the next batch of proposals can be\n   *   dequeued.\n   * @param approvalStageDuration The number of seconds the approver has to approve a proposal\n   *   after it is dequeued.\n   * @param referendumStageDuration The number of seconds users have to vote on a dequeued proposal\n   *   after the approval stage ends.\n   * @param executionStageDuration The number of seconds users have to execute a passed proposal\n   *   after the referendum stage ends.\n   * @dev Should be called only once.\n   */\n  function initialize(\n    address registryAddress,\n    address _approver,\n    uint256 _concurrentProposals,\n    uint256 _minDeposit,\n    uint256 _queueExpiry,\n    uint256 _dequeueFrequency,\n    uint256 approvalStageDuration,\n    uint256 referendumStageDuration,\n    uint256 executionStageDuration\n  )\n    external\n    initializer\n  {\n    require(\n      _approver != address(0) &&\n      _concurrentProposals != 0 &&\n      _minDeposit != 0 &&\n      _queueExpiry != 0 &&\n      _dequeueFrequency != 0 &&\n      approvalStageDuration != 0 &&\n      referendumStageDuration != 0 &&\n      executionStageDuration != 0\n    );\n    _transferOwnership(msg.sender);\n    setRegistry(registryAddress);\n    approver = _approver;\n    concurrentProposals = _concurrentProposals;\n    minDeposit = _minDeposit;\n    queueExpiry = _queueExpiry;\n    dequeueFrequency = _dequeueFrequency;\n    stageDurations.approval = approvalStageDuration;\n    stageDurations.referendum = referendumStageDuration;\n    stageDurations.execution = executionStageDuration;\n    // solhint-disable-next-line not-rely-on-time\n    lastDequeue = now;\n  }\n\n  /**\n   * @notice Updates the address that has permission to approve proposals in the approval stage.\n   * @param _approver The address that has permission to approve proposals in the approval stage.\n   */\n  function setApprover(address _approver) external onlyOwner {\n    require(_approver != address(0) && _approver != approver);\n    approver = _approver;\n    emit ApproverSet(_approver);\n  }\n\n  /**\n   * @notice Updates the number of proposals to dequeue at a time.\n   * @param _concurrentProposals The number of proposals to dequeue at at a time.\n   */\n  function setConcurrentProposals(uint256 _concurrentProposals) external onlyOwner {\n    require(_concurrentProposals > 0 && _concurrentProposals != concurrentProposals);\n    concurrentProposals = _concurrentProposals;\n    emit ConcurrentProposalsSet(_concurrentProposals);\n  }\n\n  /**\n   * @notice Updates the minimum deposit needed to make a proposal.\n   * @param _minDeposit The minimum Celo Gold deposit needed to make a proposal.\n   */\n  function setMinDeposit(uint256 _minDeposit) external onlyOwner {\n    require(_minDeposit != minDeposit);\n    minDeposit = _minDeposit;\n    emit MinDepositSet(_minDeposit);\n  }\n\n  /**\n   * @notice Updates the number of seconds before a queued proposal expires.\n   * @param _queueExpiry The number of seconds a proposal can stay in the queue before expiring.\n   */\n  function setQueueExpiry(uint256 _queueExpiry) external onlyOwner {\n    require(_queueExpiry > 0 && _queueExpiry != queueExpiry);\n    queueExpiry = _queueExpiry;\n    emit QueueExpirySet(_queueExpiry);\n  }\n\n  /**\n   * @notice Updates the minimum number of seconds before the next batch of proposals can be\n   *   dequeued.\n   * @param _dequeueFrequency The number of seconds before the next batch of proposals can be\n   *   dequeued.\n   */\n  function setDequeueFrequency(uint256 _dequeueFrequency) external onlyOwner {\n    require(_dequeueFrequency > 0 && _dequeueFrequency != dequeueFrequency);\n    dequeueFrequency = _dequeueFrequency;\n    emit DequeueFrequencySet(_dequeueFrequency);\n  }\n\n  /**\n   * @notice Updates the number of seconds proposals stay in the approval stage.\n   * @param approvalStageDuration The number of seconds proposals stay in the approval stage.\n   */\n  function setApprovalStageDuration(uint256 approvalStageDuration) external onlyOwner {\n    require(approvalStageDuration > 0 && approvalStageDuration != stageDurations.approval);\n    stageDurations.approval = approvalStageDuration;\n    emit ApprovalStageDurationSet(approvalStageDuration);\n  }\n\n  /**\n   * @notice Updates the number of seconds proposals stay in the referendum stage.\n   * @param referendumStageDuration The number of seconds proposals stay in the referendum stage.\n   */\n  function setReferendumStageDuration(uint256 referendumStageDuration) external onlyOwner {\n    require(referendumStageDuration > 0 && referendumStageDuration != stageDurations.referendum);\n    stageDurations.referendum = referendumStageDuration;\n    emit ReferendumStageDurationSet(referendumStageDuration);\n  }\n\n  /**\n   * @notice Updates the number of seconds proposals stay in the execution stage.\n   * @param executionStageDuration The number of seconds proposals stay in the execution stage.\n   */\n  function setExecutionStageDuration(uint256 executionStageDuration) external onlyOwner {\n    require(executionStageDuration > 0 && executionStageDuration != stageDurations.execution);\n    stageDurations.execution = executionStageDuration;\n    emit ExecutionStageDurationSet(executionStageDuration);\n  }\n\n  /**\n   * @notice Updates the ratio of yes:yes+no votes needed for a specific class of proposals to pass.\n   * @param destination The destination of proposals for which this threshold should apply.\n   * @param functionId The function ID of proposals for which this threshold should apply. Zero\n   *   will set the default.\n   * @param numerator The numerator of the threshold.\n   * @param denominator The denominator of the threshold.\n   * @dev If no constitution is explicitly set the default is a simple majority, i.e. 1:2.\n   */\n  function setConstitution(\n    address destination,\n    bytes4 functionId,\n    uint256 numerator,\n    uint256 denominator\n  )\n    external\n    onlyOwner\n  {\n    // TODO(asa): https://github.com/celo-org/celo-monorepo/pull/3414#discussion_r283588332\n    require(destination != address(0) && numerator > 0 && denominator > 0);\n    FractionUtil.Fraction memory threshold = FractionUtil.Fraction(numerator, denominator);\n    FractionUtil.Fraction memory majority = FractionUtil.Fraction(1, 2);\n    FractionUtil.Fraction memory unanimous = FractionUtil.Fraction(1, 1);\n    require(threshold.isGreaterThan(majority) && threshold.isLessThanOrEqualTo(unanimous));\n    if (functionId == 0) {\n      constitution[destination].defaultThreshold = threshold;\n    } else {\n      constitution[destination].functionThresholds[functionId] = threshold;\n    }\n    emit ConstitutionSet(destination, functionId, numerator, denominator);\n  }\n\n  /**\n   * @notice Creates a new proposal and adds it to end of the queue with no upvotes.\n   * @param values The values of Celo Gold to be sent in the proposed transactions.\n   * @param destinations The destination addresses of the proposed transactions.\n   * @param data The concatenated data to be included in the proposed transactions.\n   * @param dataLengths The lengths of each transaction's data.\n   * @return The ID of the newly proposed proposal.\n   * @dev The minimum deposit must be included with the proposal, returned if/when the proposal is\n   *   dequeued.\n   */\n  function propose(\n    uint256[] calldata values,\n    address[] calldata destinations,\n    bytes calldata data,\n    uint256[] calldata dataLengths\n  )\n    external\n    payable\n    returns (uint256)\n  {\n    dequeueProposalsIfReady();\n    require(msg.value >= minDeposit);\n    require(values.length == destinations.length && destinations.length == dataLengths.length);\n    uint256 transactionCount = values.length;\n\n    proposalCount = proposalCount.add(1);\n    Proposal storage proposal = proposals[proposalCount];\n    proposal.proposer = msg.sender;\n    proposal.deposit = msg.value;\n    // solhint-disable-next-line not-rely-on-time\n    proposal.timestamp = now;\n\n    uint256 dataPosition = 0;\n    for (uint256 i = 0; i < transactionCount; i = i.add(1)) {\n      proposal.transactions.push(\n        Transaction(values[i], destinations[i], data.slice(dataPosition, dataLengths[i]))\n      );\n      dataPosition = dataPosition.add(dataLengths[i]);\n    }\n\n    queue.push(proposalCount);\n    // solhint-disable-next-line not-rely-on-time\n    emit ProposalQueued(proposalCount, msg.sender, proposal.transactions.length, msg.value, now);\n    return proposalCount;\n  }\n\n  /**\n   * @notice Upvotes a queued proposal.\n   * @param proposalId The ID of the proposal to upvote.\n   * @param lesser The ID of the proposal that will be just behind `proposalId` in the queue.\n   * @param greater The ID of the proposal that will be just ahead `proposalId` in the queue.\n   * @return Whether or not the upvote was made successfully.\n   * @dev Provide 0 for `lesser`/`greater` when the proposal will be at the tail/head of the queue.\n   * @dev Reverts if the account has already upvoted a proposal in the queue.\n   */\n  function upvote(\n    uint256 proposalId,\n    uint256 lesser,\n    uint256 greater\n  )\n    external\n    nonReentrant\n    returns (bool)\n  {\n    address account = getAccountFromVoter(msg.sender);\n    require(!isVotingFrozen(account));\n    // TODO(asa): When upvoting a proposal that will get dequeued, should we let the tx succeed\n    // and return false?\n    dequeueProposalsIfReady();\n    // If acting on an expired proposal, expire the proposal and take no action.\n    // solhint-disable-next-line not-rely-on-time\n    if (queue.contains(proposalId) && now >= proposals[proposalId].timestamp.add(queueExpiry)) {\n      queue.remove(proposalId);\n      emit ProposalExpired(proposalId);\n      return false;\n    }\n    Voter storage voter = voters[account];\n    // We can upvote a proposal in the queue if we're not already upvoting a proposal in the queue.\n    uint256 weight = getAccountWeight(account);\n    require(\n      isQueued(proposalId) &&\n      (voter.upvotedProposal == 0 || !queue.contains(voter.upvotedProposal)) &&\n      weight > 0\n    );\n    uint256 upvotes = queue.getValue(proposalId).add(uint256(weight));\n    queue.update(\n      proposalId,\n      upvotes,\n      lesser,\n      greater\n    );\n    voter.upvotedProposal = proposalId;\n    emit ProposalUpvoted(proposalId, account, weight);\n    return true;\n  }\n\n  /**\n   * @notice Revokes an upvote on a queued proposal.\n   * @param lesser The ID of the proposal that will be just behind the previously upvoted proposal\n   *   in the queue.\n   * @param greater The ID of the proposal that will be just ahead of the previously upvoted\n   *   proposal in the queue.\n   * @return Whether or not the upvote was revoked successfully.\n   * @dev Provide 0 for `lesser`/`greater` when the proposal will be at the tail/head of the queue.\n   */\n  function revokeUpvote(\n    uint256 lesser,\n    uint256 greater\n  )\n    external\n    nonReentrant\n    returns (bool)\n  {\n    dequeueProposalsIfReady();\n    address account = getAccountFromVoter(msg.sender);\n    Voter storage voter = voters[account];\n    uint256 proposalId = voter.upvotedProposal;\n    Proposal storage proposal = proposals[proposalId];\n    require(_proposalExists(proposal));\n    // If acting on an expired proposal, expire the proposal.\n    // TODO(asa): Break this out into a separate function.\n    if (queue.contains(proposalId)) {\n      // solhint-disable-next-line not-rely-on-time\n      if (now >= proposal.timestamp.add(queueExpiry)) {\n        queue.remove(proposalId);\n        emit ProposalExpired(proposalId);\n      } else {\n        uint256 weight = getAccountWeight(account);\n        require(weight > 0);\n        queue.update(\n          proposalId,\n          queue.getValue(proposalId).sub(weight),\n          lesser,\n          greater\n        );\n        emit ProposalUpvoteRevoked(proposalId, account, weight);\n      }\n    }\n    voter.upvotedProposal = 0;\n    return true;\n  }\n\n  // TODO(asa): Consider allowing approval to be revoked.\n  // TODO(asa): Everywhere we use an index, require it's less than the array length\n  /**\n   * @notice Approves a proposal in the approval stage.\n   * @param proposalId The ID of the proposal to approve.\n   * @param index The index of the proposal ID in `dequeued`.\n   * @return Whether or not the approval was made successfully.\n   */\n  function approve(uint256 proposalId, uint256 index) external returns (bool) {\n    dequeueProposalsIfReady();\n    Proposal storage proposal = proposals[proposalId];\n    require(_proposalExists(proposal) && dequeued[index] == proposalId);\n    if (isDequeuedProposalExpired(proposalId)) {\n      deleteDequeuedProposal(proposalId, index);\n      return false;\n    }\n    ProposalStage stage = _getDequeuedProposalStage(proposal.timestamp);\n    require(msg.sender == approver && !proposal.approved && stage == ProposalStage.Approval);\n    proposal.approved = true;\n    emit ProposalApproved(proposalId);\n    return true;\n  }\n\n  /**\n   * @notice Votes on a proposal in the referendum stage.\n   * @param proposalId The ID of the proposal to vote on.\n   * @param index The index of the proposal ID in `dequeued`.\n   * @param value Whether to vote yes, no, or abstain.\n   * @return Whether or not the vote was cast successfully.\n   */\n  /* solhint-disable code-complexity */\n  function vote(\n    uint256 proposalId,\n    uint256 index,\n    VoteValue value\n  )\n    external\n    returns (bool)\n  {\n    address account = getAccountFromVoter(msg.sender);\n    require(!isVotingFrozen(account));\n    dequeueProposalsIfReady();\n    Proposal storage proposal = proposals[proposalId];\n    require(_proposalExists(proposal) && dequeued[index] == proposalId);\n    if (isDequeuedProposalExpired(proposalId)) {\n      deleteDequeuedProposal(proposalId, index);\n      return false;\n    }\n    ProposalStage stage = _getDequeuedProposalStage(proposal.timestamp);\n    Voter storage voter = voters[account];\n    uint256 weight = getAccountWeight(account);\n    require(\n      proposal.approved &&\n      stage == ProposalStage.Referendum &&\n      value != VoteValue.None &&\n      weight > 0\n    );\n    VoteRecord storage voteRecord = voter.referendumVotes[index];\n    // If we've already voted on this proposal, subtract the previous vote.\n    if (voteRecord.proposalId == proposalId) {\n      if (voteRecord.value == VoteValue.Abstain) {\n        proposal.votes.abstain = proposal.votes.abstain.sub(weight);\n      } else if (voteRecord.value == VoteValue.Yes) {\n        proposal.votes.yes = proposal.votes.yes.sub(weight);\n      } else if (voteRecord.value == VoteValue.No) {\n        proposal.votes.no = proposal.votes.no.sub(weight);\n      }\n    }\n\n    // Add new vote.\n    if (value == VoteValue.Abstain) {\n      proposal.votes.abstain = proposal.votes.abstain.add(weight);\n    } else if (value == VoteValue.Yes) {\n      proposal.votes.yes = proposal.votes.yes.add(weight);\n    } else if (value == VoteValue.No) {\n      proposal.votes.no = proposal.votes.no.add(weight);\n    }\n    voteRecord.proposalId = proposalId;\n    voteRecord.value = value;\n    if (proposal.timestamp > voter.mostRecentReferendumProposal) {\n      voter.mostRecentReferendumProposal = proposalId;\n    }\n    emit ProposalVoted(proposalId, account, uint256(value), weight);\n    return true;\n  }\n  /* solhint-enable code-complexity */\n\n  /**\n   * @notice Executes a proposal in the execution stage, removing it from `dequeued`.\n   * @param proposalId The ID of the proposal to vote on.\n   * @param index The index of the proposal ID in `dequeued`.\n   * @return Whether or not the proposal was executed successfully.\n   * @dev Does not remove the proposal if the execution fails.\n   */\n  function execute(uint256 proposalId, uint256 index) external returns (bool) {\n    dequeueProposalsIfReady();\n    Proposal storage proposal = proposals[proposalId];\n    require(_proposalExists(proposal) && dequeued[index] == proposalId);\n    bool expired = isDequeuedProposalExpired(proposalId);\n    if (!expired) {\n      // TODO(asa): Think through the effects of changing the passing function\n      ProposalStage stage = _getDequeuedProposalStage(proposal.timestamp);\n      require(\n        proposal.approved &&\n        stage == ProposalStage.Execution &&\n        isProposalPassing(proposalId)\n      );\n      for (uint256 i = 0; i < proposal.transactions.length; i = i.add(1)) {\n        bool transactionExecuted = externalCall(\n          proposal.transactions[i].destination,\n          proposal.transactions[i].value,\n          proposal.transactions[i].data.length,\n          proposal.transactions[i].data\n        );\n        // reverts proposal if any transaction fails\n        require(transactionExecuted, \"all transactions must succeed\");\n      }\n      emit ProposalExecuted(\n        proposalId\n      );\n    }\n    // must have executed fully or proposal has expired if code reaches this point\n    deleteDequeuedProposal(proposalId, index);\n    return !expired;\n  }\n\n  /**\n   * @notice Withdraws refunded Celo Gold deposits.\n   * @return Whether or not the withdraw was successful.\n   */\n  function withdraw() external nonReentrant returns (bool) {\n    uint256 value = refundedDeposits[msg.sender];\n    require(value > 0 && value <= address(this).balance);\n    refundedDeposits[msg.sender] = 0;\n    msg.sender.transfer(value);\n    return true;\n  }\n\n  /**\n   * @notice Returns the number of seconds proposals stay in the approval stage.\n   * @return The number of seconds proposals stay in the approval stage.\n   */\n  function getApprovalStageDuration() external view returns (uint256) {\n    return stageDurations.approval;\n  }\n\n  /**\n   * @notice Returns the number of seconds proposals stay in the referendum stage.\n   * @return The number of seconds proposals stay in the referendum stage.\n   */\n  function getReferendumStageDuration() external view returns (uint256) {\n    return stageDurations.referendum;\n  }\n\n  /**\n   * @notice Returns the number of seconds proposals stay in the execution stage.\n   * @return The number of seconds proposals stay in the execution stage.\n   */\n  function getExecutionStageDuration() external view returns (uint256) {\n    return stageDurations.execution;\n  }\n\n  /**\n   * @notice Returns the constitution for a particular destination and function ID.\n   * @param destination The destination address to get the constitution for.\n   * @param functionId The function ID to get the constitution for, zero for the destination\n   *   default.\n   * @return The ratio of yes:no votes needed in order to pass the proposal.\n   */\n  function getConstitution(\n    address destination,\n    bytes4 functionId\n  )\n    external\n    view\n    returns (uint256, uint256)\n  {\n    FractionUtil.Fraction memory threshold = _getConstitution(destination, functionId);\n    return (threshold.numerator, threshold.denominator);\n  }\n\n  /**\n   * @notice Returns whether or not a proposal exists.\n   * @param proposalId The ID of the proposal.\n   * @return Whether or not the proposal exists.\n   */\n  function proposalExists(uint256 proposalId) external view returns (bool) {\n    Proposal storage proposal = proposals[proposalId];\n    return _proposalExists(proposal);\n  }\n\n  /**\n   * @notice Returns an unpacked proposal struct with its transaction count.\n   * @param proposalId The ID of the proposal to unpack.\n   * @return The unpacked proposal with its transaction count.\n   */\n  function getProposal(\n    uint256 proposalId\n  )\n    external\n    view\n    returns (address, uint256, uint256, uint256)\n  {\n    Proposal storage proposal = proposals[proposalId];\n    return (\n      proposal.proposer,\n      proposal.deposit,\n      proposal.timestamp,\n      proposal.transactions.length\n    );\n  }\n\n  /**\n   * @notice Returns a specified transaction in a proposal.\n   * @param proposalId The ID of the proposal to query.\n   * @param index The index of the specified transaction in the proposal's transaction list.\n   * @return The specified transaction.\n   */\n  function getProposalTransaction(\n    uint256 proposalId,\n    uint256 index\n  )\n    external\n    view\n    returns (uint256, address, bytes memory)\n  {\n    Proposal storage proposal = proposals[proposalId];\n    require(index < proposal.transactions.length, \"transaction index out of bounds\");\n    return (\n      proposal.transactions[index].value,\n      proposal.transactions[index].destination,\n      proposal.transactions[index].data\n    );\n  }\n\n  /**\n   * @notice Returns whether or not a proposal has been approved.\n   * @param proposalId The ID of the proposal.\n   * @return Whether or not the proposal has been approved.\n   */\n  function isApproved(uint256 proposalId) external view returns (bool) {\n    return proposals[proposalId].approved;\n  }\n\n  /**\n   * @notice Returns the referendum vote totals for a proposal.\n   * @param proposalId The ID of the proposal.\n   * @return The yes, no, and abstain vote totals.\n   */\n  function getVoteTotals(uint256 proposalId) external view returns (uint256, uint256, uint256) {\n    Proposal storage proposal = proposals[proposalId];\n    return (proposal.votes.yes, proposal.votes.no, proposal.votes.abstain);\n  }\n\n  /**\n   * @notice Returns an accounts vote record on a particular index in `dequeued`.\n   * @param account The address of the account to get the record for.\n   * @param index The index in `dequeued`.\n   * @return The corresponding proposal ID and vote value.\n   */\n  function getVoteRecord(address account, uint256 index) external view returns (uint256, uint256) {\n    VoteRecord storage record = voters[account].referendumVotes[index];\n    return (record.proposalId, uint256(record.value));\n  }\n\n  /**\n   * @notice Returns the number of proposals in the queue.\n   * @return The number of proposals in the queue.\n   */\n  function getQueueLength() external view returns (uint256) {\n    return queue.list.numElements;\n  }\n\n  /**\n   * @notice Returns the number of upvotes the queued proposal has received.\n   * @param proposalId The ID of the proposal.\n   * @return The number of upvotes a queued proposal has received.\n   */\n  function getUpvotes(uint256 proposalId) external view returns (uint256) {\n    require(isQueued(proposalId));\n    return queue.getValue(proposalId);\n  }\n\n  /**\n   * @notice Returns the proposal ID and upvote total for all queued proposals.\n   * @return The proposal ID and upvote total for all queued proposals.\n   * @dev Note that this includes expired proposals that have yet to be removed from the queue.\n   */\n  function getQueue() external view returns (uint256[] memory, uint256[] memory) {\n    return queue.getElements();\n  }\n\n  /**\n   * @notice Returns the dequeued proposal IDs.\n   * @return The dequeued proposal IDs.\n   */\n  function getDequeue() external view returns (uint256[] memory) {\n    return dequeued;\n  }\n\n  /**\n   * @notice Returns the ID of the proposal upvoted by `account`.\n   * @param account The address of the account.\n   * @return The ID of the proposal upvoted by `account`.\n   */\n  function getUpvotedProposal(address account) external view returns (uint256) {\n    return voters[account].upvotedProposal;\n  }\n\n  /**\n   * @notice Returns the ID of the most recently dequeued proposal voted on by `account`.\n   * @param account The address of the account.\n   * @return The ID of the most recently dequeued proposal voted on by `account`..\n   */\n  function getMostRecentReferendumProposal(address account) external view returns (uint256) {\n    return voters[account].mostRecentReferendumProposal;\n  }\n\n  /**\n   * @notice Returns whether or not a particular account is voting on proposals.\n   * @param account The address of the account.\n   * @return Whether or not the account is voting on proposals.\n   */\n  function isVoting(address account) external view returns (bool) {\n    Voter storage voter = voters[account];\n    bool isVotingQueue = voter.upvotedProposal != 0 && isQueued(voter.upvotedProposal);\n    Proposal storage proposal = proposals[voter.mostRecentReferendumProposal];\n    bool isVotingReferendum = (\n      _getDequeuedProposalStage(proposal.timestamp) == ProposalStage.Referendum\n    );\n    return isVotingQueue || isVotingReferendum;\n  }\n\n  /**\n   * @notice Removes the proposals with the most upvotes from the queue, moving them to the\n   *   approval stage.\n   * @dev If any of the top proposals have expired, they are deleted.\n   */\n  function dequeueProposalsIfReady() public {\n    // solhint-disable-next-line not-rely-on-time\n    if (now >= lastDequeue.add(dequeueFrequency)) {\n      uint256 numProposalsToDequeue = Math.min(concurrentProposals, queue.list.numElements);\n      uint256[] memory dequeuedIds = queue.popN(numProposalsToDequeue);\n      for (uint256 i = 0; i < numProposalsToDequeue; i = i.add(1)) {\n        uint256 proposalId = dequeuedIds[i];\n        Proposal storage proposal = proposals[proposalId];\n        // solhint-disable-next-line not-rely-on-time\n        if (now >= proposal.timestamp.add(queueExpiry)) {\n          emit ProposalExpired(proposalId);\n          continue;\n        }\n        refundedDeposits[proposal.proposer] = refundedDeposits[proposal.proposer].add(\n          proposal.deposit\n        );\n        // solhint-disable-next-line not-rely-on-time\n        proposal.timestamp = now;\n        if (emptyIndices.length > 0) {\n          uint256 indexOfLastEmptyIndex = emptyIndices.length.sub(1);\n          dequeued[emptyIndices[indexOfLastEmptyIndex]] = proposalId;\n          // TODO(asa): We can save gas by not deleting here\n          delete emptyIndices[indexOfLastEmptyIndex];\n          emptyIndices.length = indexOfLastEmptyIndex;\n        } else {\n          dequeued.push(proposalId);\n        }\n        // solhint-disable-next-line not-rely-on-time\n        emit ProposalDequeued(proposalId, now);\n      }\n      // solhint-disable-next-line not-rely-on-time\n      lastDequeue = now;\n    }\n  }\n\n  /**\n   * @notice Returns whether or not a proposal is in the queue.\n   * @param proposalId The ID of the proposal.\n   * @return Whether or not the proposal is in the queue.\n   */\n  function isQueued(uint256 proposalId) public view returns (bool) {\n    // solhint-disable-next-line not-rely-on-time\n    return queue.contains(proposalId) && now < proposals[proposalId].timestamp.add(queueExpiry);\n  }\n\n  // TODO(asa): Pass proposal as argument for gas optimization\n  /**\n   * @notice Returns whether or not a particular proposal is passing according to the constitution.\n   * @param proposalId The ID of the proposal.\n   * @return Whether or not the proposal is passing.\n   */\n  function isProposalPassing(uint256 proposalId) public view returns (bool) {\n    Proposal storage proposal = proposals[proposalId];\n    // yesRatio can be undefined, which is not a problem for isGreaterThan\n    FractionUtil.Fraction memory yesRatio = FractionUtil.Fraction(\n      proposal.votes.yes,\n      proposal.votes.yes.add(proposal.votes.no)\n    );\n\n    for (uint256 i = 0; i < proposal.transactions.length; i = i.add(1)) {\n      bytes4 functionId = extractFunctionSignature(proposal.transactions[i].data);\n      FractionUtil.Fraction memory threshold = _getConstitution(\n        proposal.transactions[i].destination,\n        functionId\n      );\n      if (yesRatio.isLessThanOrEqualTo(threshold)) {\n        return false;\n      }\n    }\n    return true;\n  }\n\n  function getDequeuedProposalStage(uint256 dequeueTime) external view returns (ProposalStage) {\n    return _getDequeuedProposalStage(dequeueTime);\n  }\n\n  /**\n   * @notice Returns the stage of a dequeued proposal.\n   * @param dequeueTime The timestamp in seconds since epoch of when the proposal was dequeued.\n   * @return The stage of the dequeued proposal.\n   */\n  function _getDequeuedProposalStage(uint256 dequeueTime) private view returns (ProposalStage) {\n    // solhint-disable-next-line not-rely-on-time\n    if (now >= stageStartTime(dequeueTime, ProposalStage.Expiration)) {\n      return ProposalStage.Expiration;\n    // solhint-disable-next-line not-rely-on-time\n    } else if (now >= stageStartTime(dequeueTime, ProposalStage.Execution)) {\n      return ProposalStage.Execution;\n    // solhint-disable-next-line not-rely-on-time\n    } else if (now >= stageStartTime(dequeueTime, ProposalStage.Referendum)) {\n      return ProposalStage.Referendum;\n    } else {\n      return ProposalStage.Approval;\n    }\n  }\n\n  /**\n   * @notice Returns the starting time for a particular stage.\n   * @param dequeueTime The timestamp of when the proposal was dequeued.\n   * @param stage The stage to return the start time for.\n   * @return The stage start time.\n   */\n  function stageStartTime(uint256 dequeueTime, ProposalStage stage) public view returns (uint256) {\n    if (stage == ProposalStage.Approval) {\n      return dequeueTime;\n    } else if (stage == ProposalStage.Referendum) {\n      return dequeueTime.add(stageDurations.approval);\n    } else if (stage == ProposalStage.Execution) {\n      return dequeueTime.add(stageDurations.approval).add(stageDurations.referendum);\n    } else if (stage == ProposalStage.Expiration) {\n      return dequeueTime.add(stageDurations.approval).add(stageDurations.referendum).add(\n        stageDurations.execution\n      );\n    } else {\n      require(false);\n    }\n  }\n\n  /**\n   * @notice Deletes a dequeued proposal.\n   * @param proposalId The ID of the proposal to delete.\n   * @param index The index of the proposal ID in `dequeued`.\n   */\n  function deleteDequeuedProposal(uint256 proposalId, uint256 index) private {\n    dequeued[index] = 0;\n    emptyIndices.push(index);\n    delete proposals[proposalId];\n  }\n\n  /**\n   * @notice Extracts the first four bytes of a byte array.\n   * @param input The byte array.\n   * @return The first four bytes of `input`.\n   */\n  function extractFunctionSignature(bytes memory input) private pure returns (bytes4) {\n    bytes4 output;\n    /* solhint-disable no-inline-assembly */\n    assembly {\n      mstore(output, input)\n      mstore(add(output, 4), add(input, 4))\n    }\n    /* solhint-enable no-inline-assembly */\n    return output;\n  }\n\n  // TODO(asa): Pass the proposal as an argument for gas optimization\n  /**\n   * @notice Returns whether or not a dequeued proposal has expired.\n   * @param proposalId The ID of the proposal to delete.\n   * @return Whether or not the dequeued proposal has expired.\n   */\n  function isDequeuedProposalExpired(uint256 proposalId) private view returns (bool) {\n    Proposal storage proposal = proposals[proposalId];\n    ProposalStage stage = _getDequeuedProposalStage(proposal.timestamp);\n    // The proposal is considered expired under the following conditions:\n    //   1. Past the approval stage and not approved.\n    //   2. Past the referendum stage and not passed.\n    //   3. Past the execution stage.\n    return (\n      (stage > ProposalStage.Execution) ||\n      (stage > ProposalStage.Referendum && !isProposalPassing(proposalId)) ||\n      (stage > ProposalStage.Approval && !proposal.approved)\n    );\n  }\n\n  /**\n   * @notice Returns whether or not a proposal exists.\n   * @param proposal The proposal.\n   * @return Whether or not the proposal exists.\n   */\n  function _proposalExists(Proposal storage proposal) private view returns (bool) {\n    return proposal.timestamp > 0;\n  }\n\n  /**\n   * @notice Returns the constitution for a particular destination and function ID.\n   * @param destination The destination address to get the constitution for.\n   * @param functionId The function ID to get the constitution for, zero for the destination\n   *   default.\n   * @return The ratio of yes:no votes needed in order to pass the proposal.\n   */\n  function _getConstitution(\n    address destination,\n    bytes4 functionId\n  )\n    private\n    view\n    returns (FractionUtil.Fraction memory)\n  {\n    // Default to a simple majority.\n    FractionUtil.Fraction memory threshold = FractionUtil.Fraction(1, 2);\n    if (constitution[destination].functionThresholds[functionId].exists()) {\n      threshold = constitution[destination].functionThresholds[functionId];\n    } else if (constitution[destination].defaultThreshold.exists()) {\n      threshold = constitution[destination].defaultThreshold;\n    }\n    return threshold;\n  }\n\n  // call has been separated into its own function in order to take advantage\n  // of the Solidity's code generator to produce a loop that copies tx.data into memory.\n  /**\n   * @notice Executes a function call.\n   * @param value The value of Celo Gold to be sent with the function call.\n   * @param destination The destination address of the function call.\n   * @param dataLength The length of the data to be included in the function call.\n   * @param data The data to be included in the function call.\n   */\n  function externalCall(\n    address destination,\n    uint value,\n    uint dataLength,\n    bytes memory data\n  )\n    private\n    nonReentrant\n    returns (bool)\n  {\n    bool result;\n    /* solhint-disable no-inline-assembly */\n    assembly {\n      /* solhint-disable max-line-length */\n      let x := mload(0x40)   // \"Allocate\" memory for output (0x40 is where \"free memory\" pointer is stored by convention)\n      let d := add(data, 32) // First 32 bytes are the padded length of data, so exclude that\n      result := call(\n        sub(gas, 34710),   // 34710 is the value that solidity is currently emitting\n                           // It includes callGas (700) + callVeryLow (3, to pay for SUB) + callValueTransferGas (9000) +\n                           // callNewAccountGas (25000, in case the destination address does not exist and needs creating)\n        destination,\n        value,\n        d,\n        dataLength,        // Size of the input (in bytes) - this is what fixes the padding problem\n        x,\n        0                  // Output is ignored, therefore the output size is zero\n      )\n      /* solhint-enable max-line-length */\n    }\n    /* solhint-enable no-inline-assembly */\n    return result;\n  }\n}\n",
  "sourcePath": "/Users/yorhodes/celo/celo-monorepo/packages/protocol/contracts/governance/Governance.sol",
  "compiler": {
    "name": "solc",
    "version": "0.5.8+commit.23d335f2.Emscripten.clang"
  },
  "schemaVersion": "3.0.9",
  "updatedAt": "2019-07-17T03:09:18.637Z",
  "devdoc": {
    "methods": {
      "approve(uint256,uint256)": {
        "params": {
          "index": "The index of the proposal ID in `dequeued`.",
          "proposalId": "The ID of the proposal to approve."
        },
        "return": "Whether or not the approval was made successfully."
      },
      "dequeueProposalsIfReady()": {
        "details": "If any of the top proposals have expired, they are deleted."
      },
      "execute(uint256,uint256)": {
        "details": "Does not remove the proposal if the execution fails.",
        "params": {
          "index": "The index of the proposal ID in `dequeued`.",
          "proposalId": "The ID of the proposal to vote on."
        },
        "return": "Whether or not the proposal was executed successfully."
      },
      "getApprovalStageDuration()": {
        "return": "The number of seconds proposals stay in the approval stage."
      },
      "getConstitution(address,bytes4)": {
        "params": {
          "destination": "The destination address to get the constitution for.",
          "functionId": "The function ID to get the constitution for, zero for the destination  default."
        },
        "return": "The ratio of yes:no votes needed in order to pass the proposal."
      },
      "getDequeue()": {
        "return": "The dequeued proposal IDs."
      },
      "getExecutionStageDuration()": {
        "return": "The number of seconds proposals stay in the execution stage."
      },
      "getMostRecentReferendumProposal(address)": {
        "params": {
          "account": "The address of the account."
        },
        "return": "The ID of the most recently dequeued proposal voted on by `account`.."
      },
      "getProposal(uint256)": {
        "params": {
          "proposalId": "The ID of the proposal to unpack."
        },
        "return": "The unpacked proposal with its transaction count."
      },
      "getProposalTransaction(uint256,uint256)": {
        "params": {
          "index": "The index of the specified transaction in the proposal's transaction list.",
          "proposalId": "The ID of the proposal to query."
        },
        "return": "The specified transaction."
      },
      "getQueue()": {
        "details": "Note that this includes expired proposals that have yet to be removed from the queue.",
        "return": "The proposal ID and upvote total for all queued proposals."
      },
      "getQueueLength()": {
        "return": "The number of proposals in the queue."
      },
      "getReferendumStageDuration()": {
        "return": "The number of seconds proposals stay in the referendum stage."
      },
      "getUpvotedProposal(address)": {
        "params": {
          "account": "The address of the account."
        },
        "return": "The ID of the proposal upvoted by `account`."
      },
      "getUpvotes(uint256)": {
        "params": {
          "proposalId": "The ID of the proposal."
        },
        "return": "The number of upvotes a queued proposal has received."
      },
      "getVoteRecord(address,uint256)": {
        "params": {
          "account": "The address of the account to get the record for.",
          "index": "The index in `dequeued`."
        },
        "return": "The corresponding proposal ID and vote value."
      },
      "getVoteTotals(uint256)": {
        "params": {
          "proposalId": "The ID of the proposal."
        },
        "return": "The yes, no, and abstain vote totals."
      },
      "initialize(address,address,uint256,uint256,uint256,uint256,uint256,uint256,uint256)": {
        "details": "Should be called only once.",
        "params": {
          "_approver": "The address that needs to approve proposals to move to the referendum stage.",
          "_concurrentProposals": "The number of proposals to dequeue at once.",
          "_dequeueFrequency": "The number of seconds before the next batch of proposals can be  dequeued.",
          "_minDeposit": "The minimum Celo Gold deposit needed to make a proposal.",
          "_queueExpiry": "The number of seconds a proposal can stay in the queue before expiring.",
          "approvalStageDuration": "The number of seconds the approver has to approve a proposal  after it is dequeued.",
          "executionStageDuration": "The number of seconds users have to execute a passed proposal  after the referendum stage ends.",
          "referendumStageDuration": "The number of seconds users have to vote on a dequeued proposal  after the approval stage ends.",
          "registryAddress": "The address of the registry contract."
        }
      },
      "isApproved(uint256)": {
        "params": {
          "proposalId": "The ID of the proposal."
        },
        "return": "Whether or not the proposal has been approved."
      },
      "isOwner()": {
        "return": "true if `msg.sender` is the owner of the contract."
      },
      "isProposalPassing(uint256)": {
        "params": {
          "proposalId": "The ID of the proposal."
        },
        "return": "Whether or not the proposal is passing."
      },
      "isQueued(uint256)": {
        "params": {
          "proposalId": "The ID of the proposal."
        },
        "return": "Whether or not the proposal is in the queue."
      },
      "isVoting(address)": {
        "params": {
          "account": "The address of the account."
        },
        "return": "Whether or not the account is voting on proposals."
      },
      "owner()": {
        "return": "the address of the owner."
      },
      "proposalExists(uint256)": {
        "params": {
          "proposalId": "The ID of the proposal."
        },
        "return": "Whether or not the proposal exists."
      },
      "propose(uint256[],address[],bytes,uint256[])": {
        "details": "The minimum deposit must be included with the proposal, returned if/when the proposal is  dequeued.",
        "params": {
          "data": "The concatenated data to be included in the proposed transactions.",
          "dataLengths": "The lengths of each transaction's data.",
          "destinations": "The destination addresses of the proposed transactions.",
          "values": "The values of Celo Gold to be sent in the proposed transactions."
        },
        "return": "The ID of the newly proposed proposal."
      },
      "renounceOwnership()": {
        "details": "Allows the current owner to relinquish control of the contract. It will not be possible to call the functions with the `onlyOwner` modifier anymore."
      },
      "revokeUpvote(uint256,uint256)": {
        "details": "Provide 0 for `lesser`/`greater` when the proposal will be at the tail/head of the queue.",
        "params": {
          "greater": "The ID of the proposal that will be just ahead of the previously upvoted  proposal in the queue.",
          "lesser": "The ID of the proposal that will be just behind the previously upvoted proposal  in the queue."
        },
        "return": "Whether or not the upvote was revoked successfully."
      },
      "setApprovalStageDuration(uint256)": {
        "params": {
          "approvalStageDuration": "The number of seconds proposals stay in the approval stage."
        }
      },
      "setApprover(address)": {
        "params": {
          "_approver": "The address that has permission to approve proposals in the approval stage."
        }
      },
      "setConcurrentProposals(uint256)": {
        "params": {
          "_concurrentProposals": "The number of proposals to dequeue at at a time."
        }
      },
      "setConstitution(address,bytes4,uint256,uint256)": {
        "details": "If no constitution is explicitly set the default is a simple majority, i.e. 1:2.",
        "params": {
          "denominator": "The denominator of the threshold.",
          "destination": "The destination of proposals for which this threshold should apply.",
          "functionId": "The function ID of proposals for which this threshold should apply. Zero  will set the default.",
          "numerator": "The numerator of the threshold."
        }
      },
      "setDequeueFrequency(uint256)": {
        "params": {
          "_dequeueFrequency": "The number of seconds before the next batch of proposals can be  dequeued."
        }
      },
      "setExecutionStageDuration(uint256)": {
        "params": {
          "executionStageDuration": "The number of seconds proposals stay in the execution stage."
        }
      },
      "setMinDeposit(uint256)": {
        "params": {
          "_minDeposit": "The minimum Celo Gold deposit needed to make a proposal."
        }
      },
      "setQueueExpiry(uint256)": {
        "params": {
          "_queueExpiry": "The number of seconds a proposal can stay in the queue before expiring."
        }
      },
      "setReferendumStageDuration(uint256)": {
        "params": {
          "referendumStageDuration": "The number of seconds proposals stay in the referendum stage."
        }
      },
      "setRegistry(address)": {
        "params": {
          "registryAddress": "The address of a registry contract for routing to other contracts."
        }
      },
      "stageStartTime(uint256,uint8)": {
        "params": {
          "dequeueTime": "The timestamp of when the proposal was dequeued.",
          "stage": "The stage to return the start time for."
        },
        "return": "The stage start time."
      },
      "transferOwnership(address)": {
        "details": "Allows the current owner to transfer control of the contract to a newOwner.",
        "params": {
          "newOwner": "The address to transfer ownership to."
        }
      },
      "upvote(uint256,uint256,uint256)": {
        "details": "Provide 0 for `lesser`/`greater` when the proposal will be at the tail/head of the queue.Reverts if the account has already upvoted a proposal in the queue.",
        "params": {
          "greater": "The ID of the proposal that will be just ahead `proposalId` in the queue.",
          "lesser": "The ID of the proposal that will be just behind `proposalId` in the queue.",
          "proposalId": "The ID of the proposal to upvote."
        },
        "return": "Whether or not the upvote was made successfully."
      },
      "vote(uint256,uint256,uint8)": {
        "params": {
          "index": "The index of the proposal ID in `dequeued`.",
          "proposalId": "The ID of the proposal to vote on.",
          "value": "Whether to vote yes, no, or abstain."
        },
        "return": "Whether or not the vote was cast successfully."
      },
      "withdraw()": {
        "return": "Whether or not the withdraw was successful."
      }
    },
    "title": "A contract for making, passing, and executing on-chain governance proposals."
  },
  "userdoc": {
    "methods": {
      "approve(uint256,uint256)": {
        "notice": "Approves a proposal in the approval stage."
      },
      "dequeueProposalsIfReady()": {
        "notice": "Removes the proposals with the most upvotes from the queue, moving them to the  approval stage."
      },
      "execute(uint256,uint256)": {
        "notice": "Executes a proposal in the execution stage, removing it from `dequeued`."
      },
      "getApprovalStageDuration()": {
        "notice": "Returns the number of seconds proposals stay in the approval stage."
      },
      "getConstitution(address,bytes4)": {
        "notice": "Returns the constitution for a particular destination and function ID."
      },
      "getDequeue()": {
        "notice": "Returns the dequeued proposal IDs."
      },
      "getExecutionStageDuration()": {
        "notice": "Returns the number of seconds proposals stay in the execution stage."
      },
      "getMostRecentReferendumProposal(address)": {
        "notice": "Returns the ID of the most recently dequeued proposal voted on by `account`."
      },
      "getProposal(uint256)": {
        "notice": "Returns an unpacked proposal struct with its transaction count."
      },
      "getProposalTransaction(uint256,uint256)": {
        "notice": "Returns a specified transaction in a proposal."
      },
      "getQueue()": {
        "notice": "Returns the proposal ID and upvote total for all queued proposals."
      },
      "getQueueLength()": {
        "notice": "Returns the number of proposals in the queue."
      },
      "getReferendumStageDuration()": {
        "notice": "Returns the number of seconds proposals stay in the referendum stage."
      },
      "getUpvotedProposal(address)": {
        "notice": "Returns the ID of the proposal upvoted by `account`."
      },
      "getUpvotes(uint256)": {
        "notice": "Returns the number of upvotes the queued proposal has received."
      },
      "getVoteRecord(address,uint256)": {
        "notice": "Returns an accounts vote record on a particular index in `dequeued`."
      },
      "getVoteTotals(uint256)": {
        "notice": "Returns the referendum vote totals for a proposal."
      },
      "initialize(address,address,uint256,uint256,uint256,uint256,uint256,uint256,uint256)": {
        "notice": "Initializes critical variables."
      },
      "isApproved(uint256)": {
        "notice": "Returns whether or not a proposal has been approved."
      },
      "isProposalPassing(uint256)": {
        "notice": "Returns whether or not a particular proposal is passing according to the constitution."
      },
      "isQueued(uint256)": {
        "notice": "Returns whether or not a proposal is in the queue."
      },
      "isVoting(address)": {
        "notice": "Returns whether or not a particular account is voting on proposals."
      },
      "proposalExists(uint256)": {
        "notice": "Returns whether or not a proposal exists."
      },
      "propose(uint256[],address[],bytes,uint256[])": {
        "notice": "Creates a new proposal and adds it to end of the queue with no upvotes."
      },
      "renounceOwnership()": {
        "notice": "Renouncing ownership will leave the contract without an owner, thereby removing any functionality that is only available to the owner."
      },
      "revokeUpvote(uint256,uint256)": {
        "notice": "Revokes an upvote on a queued proposal."
      },
      "setApprovalStageDuration(uint256)": {
        "notice": "Updates the number of seconds proposals stay in the approval stage."
      },
      "setApprover(address)": {
        "notice": "Updates the address that has permission to approve proposals in the approval stage."
      },
      "setConcurrentProposals(uint256)": {
        "notice": "Updates the number of proposals to dequeue at a time."
      },
      "setConstitution(address,bytes4,uint256,uint256)": {
        "notice": "Updates the ratio of yes:yes+no votes needed for a specific class of proposals to pass."
      },
      "setDequeueFrequency(uint256)": {
        "notice": "Updates the minimum number of seconds before the next batch of proposals can be  dequeued."
      },
      "setExecutionStageDuration(uint256)": {
        "notice": "Updates the number of seconds proposals stay in the execution stage."
      },
      "setMinDeposit(uint256)": {
        "notice": "Updates the minimum deposit needed to make a proposal."
      },
      "setQueueExpiry(uint256)": {
        "notice": "Updates the number of seconds before a queued proposal expires."
      },
      "setReferendumStageDuration(uint256)": {
        "notice": "Updates the number of seconds proposals stay in the referendum stage."
      },
      "setRegistry(address)": {
        "notice": "Updates the address pointing to a Registry contract."
      },
      "stageStartTime(uint256,uint8)": {
        "notice": "Returns the starting time for a particular stage."
      },
      "upvote(uint256,uint256,uint256)": {
        "notice": "Upvotes a queued proposal."
      },
      "vote(uint256,uint256,uint8)": {
        "notice": "Votes on a proposal in the referendum stage."
      },
      "withdraw()": {
        "notice": "Withdraws refunded Celo Gold deposits."
      }
    }
  }
}