{
  "contractName": "HasInitializer",
  "abi": [
    {
      "constant": true,
      "inputs": [],
      "name": "x",
      "outputs": [
        {
          "name": "",
          "type": "uint256"
        }
      ],
      "payable": false,
      "stateMutability": "view",
      "type": "function"
    },
    {
      "constant": true,
      "inputs": [],
      "name": "initialized",
      "outputs": [
        {
          "name": "",
          "type": "bool"
        }
      ],
      "payable": false,
      "stateMutability": "view",
      "type": "function"
    },
    {
      "constant": false,
      "inputs": [
        {
          "name": "_x",
          "type": "uint256"
        }
      ],
      "name": "initialize",
      "outputs": [],
      "payable": false,
      "stateMutability": "nonpayable",
      "type": "function"
    }
  ],
  "bytecode": "0x608060405234801561001057600080fd5b50610128806100206000396000f3fe6080604052348015600f57600080fd5b5060043610603c5760003560e01c80630c55699c146041578063158ef93e14605d578063fe4b84df14607d575b600080fd5b604760a8565b6040518082815260200191505060405180910390f35b606360ae565b604051808215151515815260200191505060405180910390f35b60a660048036036020811015609157600080fd5b810190808035906020019092919050505060c0565b005b60015481565b6000809054906101000a900460ff1681565b6000809054906101000a900460ff161560d857600080fd5b60016000806101000a81548160ff021916908315150217905550806001819055505056fea165627a7a72305820d646fb8acb6d5fc10c54651a8f2e06ea32880ddd1cc00c06513dd65e75659a8b0029",
  "source": "pragma solidity ^0.5.8;\n\nimport \"../Initializable.sol\";\n\n\ncontract HasInitializer is Initializable {\n  uint256 public x;\n\n  function initialize(uint256 _x) external initializer {\n    x = _x;\n  }\n}\n",
  "sourcePath": "/Users/yorhodes/celo/celo-monorepo/packages/protocol/contracts/common/test/HasInitializer.sol",
  "compiler": {
    "name": "solc",
    "version": "0.5.8+commit.23d335f2.Emscripten.clang"
  },
  "schemaVersion": "3.0.9",
  "updatedAt": "2019-07-17T03:09:18.505Z",
  "devdoc": {
    "methods": {}
  },
  "userdoc": {
    "methods": {}
  }
}