{
  "contractName": "Initializable",
  "abi": [
    {
      "constant": true,
      "inputs": [],
      "name": "initialized",
      "outputs": [
        {
          "name": "",
          "type": "bool"
        }
      ],
      "payable": false,
      "stateMutability": "view",
      "type": "function"
    }
  ],
  "bytecode": "0x6080604052348015600f57600080fd5b50608b8061001e6000396000f3fe6080604052348015600f57600080fd5b506004361060285760003560e01c8063158ef93e14602d575b600080fd5b6033604d565b604051808215151515815260200191505060405180910390f35b6000809054906101000a900460ff168156fea165627a7a723058202480be5d6eb3330a84bc01f020a6124c7b05ad77def181c3e061f9a4b0d0b8b60029",
  "source": "pragma solidity ^0.5.8;\n\n\ncontract Initializable {\n  bool public initialized;\n\n  modifier initializer() {\n    require(!initialized);\n    initialized = true;\n    _;\n  }\n}\n",
  "sourcePath": "/Users/yorhodes/celo/celo-monorepo/packages/protocol/contracts/common/Initializable.sol",
  "compiler": {
    "name": "solc",
    "version": "0.5.8+commit.23d335f2.Emscripten.clang"
  },
  "schemaVersion": "3.0.9",
  "updatedAt": "2019-07-17T03:09:18.458Z",
  "devdoc": {
    "methods": {}
  },
  "userdoc": {
    "methods": {}
  }
}