{
  "contractName": "MockSortedOracles",
  "abi": [
    {
      "constant": true,
      "inputs": [
        {
          "name": "",
          "type": "address"
        }
      ],
      "name": "medianTimestamp",
      "outputs": [
        {
          "name": "",
          "type": "uint128"
        }
      ],
      "payable": false,
      "stateMutability": "view",
      "type": "function"
    },
    {
      "constant": true,
      "inputs": [
        {
          "name": "",
          "type": "address"
        }
      ],
      "name": "numRates",
      "outputs": [
        {
          "name": "",
          "type": "uint128"
        }
      ],
      "payable": false,
      "stateMutability": "view",
      "type": "function"
    },
    {
      "constant": true,
      "inputs": [
        {
          "name": "",
          "type": "address"
        }
      ],
      "name": "numerators",
      "outputs": [
        {
          "name": "",
          "type": "uint128"
        }
      ],
      "payable": false,
      "stateMutability": "view",
      "type": "function"
    },
    {
      "constant": true,
      "inputs": [
        {
          "name": "",
          "type": "address"
        }
      ],
      "name": "denominators",
      "outputs": [
        {
          "name": "",
          "type": "uint128"
        }
      ],
      "payable": false,
      "stateMutability": "view",
      "type": "function"
    },
    {
      "constant": false,
      "inputs": [
        {
          "name": "token",
          "type": "address"
        },
        {
          "name": "numerator",
          "type": "uint128"
        },
        {
          "name": "denominator",
          "type": "uint128"
        }
      ],
      "name": "setMedianRate",
      "outputs": [
        {
          "name": "",
          "type": "bool"
        }
      ],
      "payable": false,
      "stateMutability": "nonpayable",
      "type": "function"
    },
    {
      "constant": false,
      "inputs": [
        {
          "name": "token",
          "type": "address"
        },
        {
          "name": "timestamp",
          "type": "uint128"
        }
      ],
      "name": "setMedianTimestamp",
      "outputs": [],
      "payable": false,
      "stateMutability": "nonpayable",
      "type": "function"
    },
    {
      "constant": false,
      "inputs": [
        {
          "name": "token",
          "type": "address"
        }
      ],
      "name": "setMedianTimestampToNow",
      "outputs": [],
      "payable": false,
      "stateMutability": "nonpayable",
      "type": "function"
    },
    {
      "constant": false,
      "inputs": [
        {
          "name": "token",
          "type": "address"
        },
        {
          "name": "rate",
          "type": "uint128"
        }
      ],
      "name": "setNumRates",
      "outputs": [],
      "payable": false,
      "stateMutability": "nonpayable",
      "type": "function"
    },
    {
      "constant": true,
      "inputs": [
        {
          "name": "token",
          "type": "address"
        }
      ],
      "name": "medianRate",
      "outputs": [
        {
          "name": "",
          "type": "uint128"
        },
        {
          "name": "",
          "type": "uint128"
        }
      ],
      "payable": false,
      "stateMutability": "view",
      "type": "function"
    }
  ],
  "bytecode": "0x608060405234801561001057600080fd5b506108d7806100206000396000f3fe608060405234801561001057600080fd5b50600436106100935760003560e01c8063b325dd1f11610066578063b325dd1f14610268578063bbc66a94146102ac578063ef90e1b014610328578063f7ca6963146103cf578063fc17cfee1461044b57610093565b8063071b48fc146100985780632b200858146101145780636f4161cd146101a857806386a1c17e14610208575b600080fd5b6100da600480360360208110156100ae57600080fd5b81019080803573ffffffffffffffffffffffffffffffffffffffff1690602001909291905050506104c7565b60405180826fffffffffffffffffffffffffffffffff166fffffffffffffffffffffffffffffffff16815260200191505060405180910390f35b61018e6004803603606081101561012a57600080fd5b81019080803573ffffffffffffffffffffffffffffffffffffffff16906020019092919080356fffffffffffffffffffffffffffffffff16906020019092919080356fffffffffffffffffffffffffffffffff1690602001909291905050506104f6565b604051808215151515815260200191505060405180910390f35b610206600480360360408110156101be57600080fd5b81019080803573ffffffffffffffffffffffffffffffffffffffff16906020019092919080356fffffffffffffffffffffffffffffffff1690602001909291905050506105ee565b005b6102666004803603604081101561021e57600080fd5b81019080803573ffffffffffffffffffffffffffffffffffffffff16906020019092919080356fffffffffffffffffffffffffffffffff169060200190929190505050610668565b005b6102aa6004803603602081101561027e57600080fd5b81019080803573ffffffffffffffffffffffffffffffffffffffff1690602001909291905050506106e2565b005b6102ee600480360360208110156102c257600080fd5b81019080803573ffffffffffffffffffffffffffffffffffffffff16906020019092919050505061075b565b60405180826fffffffffffffffffffffffffffffffff166fffffffffffffffffffffffffffffffff16815260200191505060405180910390f35b61036a6004803603602081101561033e57600080fd5b81019080803573ffffffffffffffffffffffffffffffffffffffff16906020019092919050505061078a565b60405180836fffffffffffffffffffffffffffffffff166fffffffffffffffffffffffffffffffff168152602001826fffffffffffffffffffffffffffffffff166fffffffffffffffffffffffffffffffff1681526020019250505060405180910390f35b610411600480360360208110156103e557600080fd5b81019080803573ffffffffffffffffffffffffffffffffffffffff16906020019092919050505061084d565b60405180826fffffffffffffffffffffffffffffffff166fffffffffffffffffffffffffffffffff16815260200191505060405180910390f35b61048d6004803603602081101561046157600080fd5b81019080803573ffffffffffffffffffffffffffffffffffffffff16906020019092919050505061087c565b60405180826fffffffffffffffffffffffffffffffff166fffffffffffffffffffffffffffffffff16815260200191505060405180910390f35b60026020528060005260406000206000915054906101000a90046fffffffffffffffffffffffffffffffff1681565b6000826000808673ffffffffffffffffffffffffffffffffffffffff1673ffffffffffffffffffffffffffffffffffffffff16815260200190815260200160002060006101000a8154816fffffffffffffffffffffffffffffffff02191690836fffffffffffffffffffffffffffffffff16021790555081600160008673ffffffffffffffffffffffffffffffffffffffff1673ffffffffffffffffffffffffffffffffffffffff16815260200190815260200160002060006101000a8154816fffffffffffffffffffffffffffffffff02191690836fffffffffffffffffffffffffffffffff160217905550600190509392505050565b80600260008473ffffffffffffffffffffffffffffffffffffffff1673ffffffffffffffffffffffffffffffffffffffff16815260200190815260200160002060006101000a8154816fffffffffffffffffffffffffffffffff02191690836fffffffffffffffffffffffffffffffff1602179055505050565b80600360008473ffffffffffffffffffffffffffffffffffffffff1673ffffffffffffffffffffffffffffffffffffffff16815260200190815260200160002060006101000a8154816fffffffffffffffffffffffffffffffff02191690836fffffffffffffffffffffffffffffffff1602179055505050565b42600260008373ffffffffffffffffffffffffffffffffffffffff1673ffffffffffffffffffffffffffffffffffffffff16815260200190815260200160002060006101000a8154816fffffffffffffffffffffffffffffffff02191690836fffffffffffffffffffffffffffffffff16021790555050565b60036020528060005260406000206000915054906101000a90046fffffffffffffffffffffffffffffffff1681565b6000806000808473ffffffffffffffffffffffffffffffffffffffff1673ffffffffffffffffffffffffffffffffffffffff16815260200190815260200160002060009054906101000a90046fffffffffffffffffffffffffffffffff16600160008573ffffffffffffffffffffffffffffffffffffffff1673ffffffffffffffffffffffffffffffffffffffff16815260200190815260200160002060009054906101000a90046fffffffffffffffffffffffffffffffff1691509150915091565b60006020528060005260406000206000915054906101000a90046fffffffffffffffffffffffffffffffff1681565b60016020528060005260406000206000915054906101000a90046fffffffffffffffffffffffffffffffff168156fea165627a7a7230582013dc2156d13080a15e46913a90850763d197df76cd259482570e2ca24e6b1b160029",
  "source": "pragma solidity ^0.5.8;\n\n\n/**\n * @title A mock SortedOracles for testing.\n */\ncontract MockSortedOracles {\n\n  mapping(address => uint128) public numerators;\n  mapping(address => uint128) public denominators;\n  mapping(address => uint128) public medianTimestamp;\n  mapping(address => uint128) public numRates;\n\n  function setMedianRate(\n    address token,\n    uint128 numerator,\n    uint128 denominator\n  )\n    external\n    returns (bool)\n  {\n    numerators[token] = numerator;\n    denominators[token] = denominator;\n    return true;\n  }\n\n  function setMedianTimestamp(address token, uint128 timestamp) external {\n    medianTimestamp[token] = timestamp;\n  }\n\n  function setMedianTimestampToNow(address token) external {\n    // solhint-disable-next-line not-rely-on-time\n    medianTimestamp[token] = uint128(now);\n  }\n\n  function setNumRates(address token, uint128 rate) external {\n    numRates[token] = rate;\n  }\n\n  function medianRate(address token) external view returns (uint128, uint128) {\n    return (numerators[token], denominators[token]);\n  }\n}\n",
  "sourcePath": "/Users/yorhodes/celo/celo-monorepo/packages/protocol/contracts/stability/test/MockSortedOracles.sol",
  "compiler": {
    "name": "solc",
    "version": "0.5.8+commit.23d335f2.Emscripten.clang"
  },
  "schemaVersion": "3.0.9",
  "updatedAt": "2019-07-17T03:09:19.069Z",
  "devdoc": {
    "methods": {},
    "title": "A mock SortedOracles for testing."
  },
  "userdoc": {
    "methods": {}
  }
}