{
  "contractName": "MockGoldToken",
  "abi": [
    {
      "constant": true,
      "inputs": [],
      "name": "decimals",
      "outputs": [
        {
          "name": "",
          "type": "uint8"
        }
      ],
      "payable": false,
      "stateMutability": "view",
      "type": "function"
    },
    {
      "constant": true,
      "inputs": [
        {
          "name": "",
          "type": "address"
        },
        {
          "name": "",
          "type": "uint256"
        }
      ],
      "name": "transfer",
      "outputs": [
        {
          "name": "",
          "type": "bool"
        }
      ],
      "payable": false,
      "stateMutability": "pure",
      "type": "function"
    },
    {
      "constant": true,
      "inputs": [
        {
          "name": "",
          "type": "address"
        },
        {
          "name": "",
          "type": "address"
        },
        {
          "name": "",
          "type": "uint256"
        }
      ],
      "name": "transferFrom",
      "outputs": [
        {
          "name": "",
          "type": "bool"
        }
      ],
      "payable": false,
      "stateMutability": "pure",
      "type": "function"
    }
  ],
  "bytecode": "0x608060405260126000806101000a81548160ff021916908360ff16021790555034801561002b57600080fd5b506101ad8061003b6000396000f3fe608060405234801561001057600080fd5b50600436106100415760003560e01c806323b872dd14610046578063313ce567146100cc578063a9059cbb146100f0575b600080fd5b6100b26004803603606081101561005c57600080fd5b81019080803573ffffffffffffffffffffffffffffffffffffffff169060200190929190803573ffffffffffffffffffffffffffffffffffffffff16906020019092919080359060200190929190505050610156565b604051808215151515815260200191505060405180910390f35b6100d4610163565b604051808260ff1660ff16815260200191505060405180910390f35b61013c6004803603604081101561010657600080fd5b81019080803573ffffffffffffffffffffffffffffffffffffffff16906020019092919080359060200190929190505050610175565b604051808215151515815260200191505060405180910390f35b6000600190509392505050565b6000809054906101000a900460ff1681565b6000600190509291505056fea165627a7a72305820144b4a9bd765de4eb66046a480b942e854a4a62b5f2420e391bdb5a8d95d90680029",
  "source": "pragma solidity ^0.5.8;\n// solhint-disable no-unused-vars\n\n\n/**\n * @title A mock GoldToken for testing.\n */\ncontract MockGoldToken {\n\n  uint8 public decimals = 18;\n\n  function transfer(address, uint256) external pure returns (bool) {\n    return true;\n  }\n\n  function transferFrom(address, address, uint256) external pure returns (bool) {\n    return true;\n  }\n}\n",
  "sourcePath": "/Users/yorhodes/celo/celo-monorepo/packages/protocol/contracts/stability/test/MockGoldToken.sol",
  "compiler": {
    "name": "solc",
    "version": "0.5.8+commit.23d335f2.Emscripten.clang"
  },
  "schemaVersion": "3.0.9",
  "updatedAt": "2019-07-17T03:09:19.064Z",
  "devdoc": {
    "methods": {},
    "title": "A mock GoldToken for testing."
  },
  "userdoc": {
    "methods": {}
  }
}