{
  "contractName": "MockGovernance",
  "abi": [
    {
      "constant": true,
      "inputs": [
        {
          "name": "",
          "type": "address"
        }
      ],
      "name": "isVoting",
      "outputs": [
        {
          "name": "",
          "type": "bool"
        }
      ],
      "payable": false,
      "stateMutability": "view",
      "type": "function"
    },
    {
      "constant": false,
      "inputs": [
        {
          "name": "voter",
          "type": "address"
        }
      ],
      "name": "setVoting",
      "outputs": [],
      "payable": false,
      "stateMutability": "nonpayable",
      "type": "function"
    }
  ],
  "bytecode": "0x608060405234801561001057600080fd5b50610181806100206000396000f3fe608060405234801561001057600080fd5b50600436106100365760003560e01c80635f8dd6491461003b578063c4d0795114610097575b600080fd5b61007d6004803603602081101561005157600080fd5b81019080803573ffffffffffffffffffffffffffffffffffffffff1690602001909291905050506100db565b604051808215151515815260200191505060405180910390f35b6100d9600480360360208110156100ad57600080fd5b81019080803573ffffffffffffffffffffffffffffffffffffffff1690602001909291905050506100fb565b005b60006020528060005260406000206000915054906101000a900460ff1681565b60016000808373ffffffffffffffffffffffffffffffffffffffff1673ffffffffffffffffffffffffffffffffffffffff16815260200190815260200160002060006101000a81548160ff0219169083151502179055505056fea165627a7a72305820c803dff352e40cd2c953b3cef0231d964856411f58deb4f6281860be7cb094c00029",
  "source": "pragma solidity ^0.5.8;\n\n\n/**\n * @title A mock Governance for testing.\n */\ncontract MockGovernance {\n  mapping(address => bool) public isVoting;\n\n  function setVoting(address voter) external {\n    isVoting[voter] = true;\n  }\n}\n",
  "sourcePath": "/Users/yorhodes/celo/celo-monorepo/packages/protocol/contracts/governance/test/MockGovernance.sol",
  "compiler": {
    "name": "solc",
    "version": "0.5.8+commit.23d335f2.Emscripten.clang"
  },
  "schemaVersion": "3.0.9",
  "updatedAt": "2019-07-17T03:09:18.762Z",
  "devdoc": {
    "methods": {},
    "title": "A mock Governance for testing."
  },
  "userdoc": {
    "methods": {}
  }
}