{
  "contractName": "MockBondedDeposits",
  "abi": [
    {
      "constant": true,
      "inputs": [
        {
          "name": "",
          "type": "address"
        },
        {
          "name": "",
          "type": "uint256"
        }
      ],
      "name": "bonded",
      "outputs": [
        {
          "name": "",
          "type": "uint256"
        }
      ],
      "payable": false,
      "stateMutability": "view",
      "type": "function"
    },
    {
      "constant": true,
      "inputs": [
        {
          "name": "",
          "type": "address"
        }
      ],
      "name": "voters",
      "outputs": [
        {
          "name": "",
          "type": "address"
        }
      ],
      "payable": false,
      "stateMutability": "view",
      "type": "function"
    },
    {
      "constant": true,
      "inputs": [
        {
          "name": "",
          "type": "address"
        }
      ],
      "name": "weights",
      "outputs": [
        {
          "name": "",
          "type": "uint256"
        }
      ],
      "payable": false,
      "stateMutability": "view",
      "type": "function"
    },
    {
      "constant": true,
      "inputs": [
        {
          "name": "",
          "type": "address"
        }
      ],
      "name": "delegations",
      "outputs": [
        {
          "name": "",
          "type": "address"
        }
      ],
      "payable": false,
      "stateMutability": "view",
      "type": "function"
    },
    {
      "constant": true,
      "inputs": [
        {
          "name": "",
          "type": "address"
        }
      ],
      "name": "frozen",
      "outputs": [
        {
          "name": "",
          "type": "bool"
        }
      ],
      "payable": false,
      "stateMutability": "view",
      "type": "function"
    },
    {
      "constant": true,
      "inputs": [
        {
          "name": "",
          "type": "address"
        }
      ],
      "name": "validators",
      "outputs": [
        {
          "name": "",
          "type": "address"
        }
      ],
      "payable": false,
      "stateMutability": "view",
      "type": "function"
    },
    {
      "constant": false,
      "inputs": [
        {
          "name": "account",
          "type": "address"
        },
        {
          "name": "weight",
          "type": "uint256"
        }
      ],
      "name": "setWeight",
      "outputs": [],
      "payable": false,
      "stateMutability": "nonpayable",
      "type": "function"
    },
    {
      "constant": false,
      "inputs": [
        {
          "name": "account",
          "type": "address"
        },
        {
          "name": "noticePeriod",
          "type": "uint256"
        },
        {
          "name": "value",
          "type": "uint256"
        }
      ],
      "name": "setBondedDeposit",
      "outputs": [],
      "payable": false,
      "stateMutability": "nonpayable",
      "type": "function"
    },
    {
      "constant": false,
      "inputs": [
        {
          "name": "account",
          "type": "address"
        }
      ],
      "name": "setVotingFrozen",
      "outputs": [],
      "payable": false,
      "stateMutability": "nonpayable",
      "type": "function"
    },
    {
      "constant": false,
      "inputs": [
        {
          "name": "account",
          "type": "address"
        },
        {
          "name": "delegate",
          "type": "address"
        }
      ],
      "name": "delegateVoting",
      "outputs": [],
      "payable": false,
      "stateMutability": "nonpayable",
      "type": "function"
    },
    {
      "constant": false,
      "inputs": [
        {
          "name": "account",
          "type": "address"
        },
        {
          "name": "delegate",
          "type": "address"
        }
      ],
      "name": "delegateValidating",
      "outputs": [],
      "payable": false,
      "stateMutability": "nonpayable",
      "type": "function"
    },
    {
      "constant": true,
      "inputs": [
        {
          "name": "account",
          "type": "address"
        }
      ],
      "name": "getAccountWeight",
      "outputs": [
        {
          "name": "",
          "type": "uint256"
        }
      ],
      "payable": false,
      "stateMutability": "view",
      "type": "function"
    },
    {
      "constant": true,
      "inputs": [
        {
          "name": "account",
          "type": "address"
        }
      ],
      "name": "getValidatorFromAccount",
      "outputs": [
        {
          "name": "",
          "type": "address"
        }
      ],
      "payable": false,
      "stateMutability": "view",
      "type": "function"
    },
    {
      "constant": true,
      "inputs": [
        {
          "name": "account",
          "type": "address"
        },
        {
          "name": "noticePeriod",
          "type": "uint256"
        }
      ],
      "name": "getBondedDeposit",
      "outputs": [
        {
          "name": "",
          "type": "uint256"
        },
        {
          "name": "",
          "type": "uint256"
        }
      ],
      "payable": false,
      "stateMutability": "view",
      "type": "function"
    },
    {
      "constant": true,
      "inputs": [
        {
          "name": "account",
          "type": "address"
        }
      ],
      "name": "isVotingFrozen",
      "outputs": [
        {
          "name": "",
          "type": "bool"
        }
      ],
      "payable": false,
      "stateMutability": "view",
      "type": "function"
    },
    {
      "constant": true,
      "inputs": [
        {
          "name": "accountOrDelegate",
          "type": "address"
        }
      ],
      "name": "getAccountFromVoter",
      "outputs": [
        {
          "name": "",
          "type": "address"
        }
      ],
      "payable": false,
      "stateMutability": "view",
      "type": "function"
    },
    {
      "constant": true,
      "inputs": [
        {
          "name": "accountOrDelegate",
          "type": "address"
        }
      ],
      "name": "getAccountFromValidator",
      "outputs": [
        {
          "name": "",
          "type": "address"
        }
      ],
      "payable": false,
      "stateMutability": "view",
      "type": "function"
    }
  ],
  "bytecode": "0x608060405234801561001057600080fd5b5061105e806100206000396000f3fe608060405234801561001057600080fd5b506004361061010b5760003560e01c8063a7cac846116100a2578063bffe348611610071578063bffe3486146105c9578063cc8308851461064d578063d0516650146106a9578063eadb80d014610705578063fa52c7d8146107895761010b565b8063a7cac84614610411578063aaf4eb7514610469578063ab248dcd146104ed578063b7598a10146105715761010b565b80633ea01b34116100de5780633ea01b341461026f5780638724c350146102c757806397eb801614610329578063a3ec138d1461038d5761010b565b806305ba0cf1146101105780630fa78bf41461015e57806313e56313146101c2578063222fc91d1461022b575b600080fd5b61015c6004803603604081101561012657600080fd5b81019080803573ffffffffffffffffffffffffffffffffffffffff1690602001909291908035906020019092919050505061080d565b005b6101c06004803603604081101561017457600080fd5b81019080803573ffffffffffffffffffffffffffffffffffffffff169060200190929190803573ffffffffffffffffffffffffffffffffffffffff169060200190929190505050610855565b005b61020e600480360360408110156101d857600080fd5b81019080803573ffffffffffffffffffffffffffffffffffffffff16906020019092919080359060200190929190505050610955565b604051808381526020018281526020019250505060405180910390f35b61026d6004803603602081101561024157600080fd5b81019080803573ffffffffffffffffffffffffffffffffffffffff1690602001909291905050506109b8565b005b6102b16004803603602081101561028557600080fd5b81019080803573ffffffffffffffffffffffffffffffffffffffff169060200190929190505050610a13565b6040518082815260200191505060405180910390f35b610313600480360360408110156102dd57600080fd5b81019080803573ffffffffffffffffffffffffffffffffffffffff16906020019092919080359060200190929190505050610a5c565b6040518082815260200191505060405180910390f35b61038b6004803603604081101561033f57600080fd5b81019080803573ffffffffffffffffffffffffffffffffffffffff169060200190929190803573ffffffffffffffffffffffffffffffffffffffff169060200190929190505050610a81565b005b6103cf600480360360208110156103a357600080fd5b81019080803573ffffffffffffffffffffffffffffffffffffffff169060200190929190505050610b81565b604051808273ffffffffffffffffffffffffffffffffffffffff1673ffffffffffffffffffffffffffffffffffffffff16815260200191505060405180910390f35b6104536004803603602081101561042757600080fd5b81019080803573ffffffffffffffffffffffffffffffffffffffff169060200190929190505050610bb4565b6040518082815260200191505060405180910390f35b6104ab6004803603602081101561047f57600080fd5b81019080803573ffffffffffffffffffffffffffffffffffffffff169060200190929190505050610bcc565b604051808273ffffffffffffffffffffffffffffffffffffffff1673ffffffffffffffffffffffffffffffffffffffff16815260200191505060405180910390f35b61052f6004803603602081101561050357600080fd5b81019080803573ffffffffffffffffffffffffffffffffffffffff169060200190929190505050610d10565b604051808273ffffffffffffffffffffffffffffffffffffffff1673ffffffffffffffffffffffffffffffffffffffff16815260200191505060405180910390f35b6105c76004803603606081101561058757600080fd5b81019080803573ffffffffffffffffffffffffffffffffffffffff1690602001909291908035906020019092919080359060200190929190505050610e54565b005b61060b600480360360208110156105df57600080fd5b81019080803573ffffffffffffffffffffffffffffffffffffffff169060200190929190505050610ead565b604051808273ffffffffffffffffffffffffffffffffffffffff1673ffffffffffffffffffffffffffffffffffffffff16815260200191505060405180910390f35b61068f6004803603602081101561066357600080fd5b81019080803573ffffffffffffffffffffffffffffffffffffffff169060200190929190505050610ee0565b604051808215151515815260200191505060405180910390f35b6106eb600480360360208110156106bf57600080fd5b81019080803573ffffffffffffffffffffffffffffffffffffffff169060200190929190505050610f36565b604051808215151515815260200191505060405180910390f35b6107476004803603602081101561071b57600080fd5b81019080803573ffffffffffffffffffffffffffffffffffffffff169060200190929190505050610f56565b604051808273ffffffffffffffffffffffffffffffffffffffff1673ffffffffffffffffffffffffffffffffffffffff16815260200191505060405180910390f35b6107cb6004803603602081101561079f57600080fd5b81019080803573ffffffffffffffffffffffffffffffffffffffff169060200190929190505050610fff565b604051808273ffffffffffffffffffffffffffffffffffffffff1673ffffffffffffffffffffffffffffffffffffffff16815260200191505060405180910390f35b80600160008473ffffffffffffffffffffffffffffffffffffffff1673ffffffffffffffffffffffffffffffffffffffff168152602001908152602001600020819055505050565b81600360008373ffffffffffffffffffffffffffffffffffffffff1673ffffffffffffffffffffffffffffffffffffffff16815260200190815260200160002060006101000a81548173ffffffffffffffffffffffffffffffffffffffff021916908373ffffffffffffffffffffffffffffffffffffffff16021790555080600460008473ffffffffffffffffffffffffffffffffffffffff1673ffffffffffffffffffffffffffffffffffffffff16815260200190815260200160002060006101000a81548173ffffffffffffffffffffffffffffffffffffffff021916908373ffffffffffffffffffffffffffffffffffffffff1602179055505050565b6000806000808573ffffffffffffffffffffffffffffffffffffffff1673ffffffffffffffffffffffffffffffffffffffff1681526020019081526020016000206000848152602001908152602001600020546000809050915091509250929050565b6001600260008373ffffffffffffffffffffffffffffffffffffffff1673ffffffffffffffffffffffffffffffffffffffff16815260200190815260200160002060006101000a81548160ff02191690831515021790555050565b6000600160008373ffffffffffffffffffffffffffffffffffffffff1673ffffffffffffffffffffffffffffffffffffffff168152602001908152602001600020549050919050565b6000602052816000526040600020602052806000526040600020600091509150505481565b81600360008373ffffffffffffffffffffffffffffffffffffffff1673ffffffffffffffffffffffffffffffffffffffff16815260200190815260200160002060006101000a81548173ffffffffffffffffffffffffffffffffffffffff021916908373ffffffffffffffffffffffffffffffffffffffff16021790555080600560008473ffffffffffffffffffffffffffffffffffffffff1673ffffffffffffffffffffffffffffffffffffffff16815260200190815260200160002060006101000a81548173ffffffffffffffffffffffffffffffffffffffff021916908373ffffffffffffffffffffffffffffffffffffffff1602179055505050565b60046020528060005260406000206000915054906101000a900473ffffffffffffffffffffffffffffffffffffffff1681565b60016020528060005260406000206000915090505481565b600080600360008473ffffffffffffffffffffffffffffffffffffffff1673ffffffffffffffffffffffffffffffffffffffff16815260200190815260200160002060009054906101000a900473ffffffffffffffffffffffffffffffffffffffff169050600073ffffffffffffffffffffffffffffffffffffffff168173ffffffffffffffffffffffffffffffffffffffff161415610c6f5782915050610d0b565b8273ffffffffffffffffffffffffffffffffffffffff16600460008373ffffffffffffffffffffffffffffffffffffffff1673ffffffffffffffffffffffffffffffffffffffff16815260200190815260200160002060009054906101000a900473ffffffffffffffffffffffffffffffffffffffff1673ffffffffffffffffffffffffffffffffffffffff1614610d0657600080fd5b809150505b919050565b600080600360008473ffffffffffffffffffffffffffffffffffffffff1673ffffffffffffffffffffffffffffffffffffffff16815260200190815260200160002060009054906101000a900473ffffffffffffffffffffffffffffffffffffffff169050600073ffffffffffffffffffffffffffffffffffffffff168173ffffffffffffffffffffffffffffffffffffffff161415610db35782915050610e4f565b8273ffffffffffffffffffffffffffffffffffffffff16600560008373ffffffffffffffffffffffffffffffffffffffff1673ffffffffffffffffffffffffffffffffffffffff16815260200190815260200160002060009054906101000a900473ffffffffffffffffffffffffffffffffffffffff1673ffffffffffffffffffffffffffffffffffffffff1614610e4a57600080fd5b809150505b919050565b806000808573ffffffffffffffffffffffffffffffffffffffff1673ffffffffffffffffffffffffffffffffffffffff168152602001908152602001600020600084815260200190815260200160002081905550505050565b60036020528060005260406000206000915054906101000a900473ffffffffffffffffffffffffffffffffffffffff1681565b6000600260008373ffffffffffffffffffffffffffffffffffffffff1673ffffffffffffffffffffffffffffffffffffffff16815260200190815260200160002060009054906101000a900460ff169050919050565b60026020528060005260406000206000915054906101000a900460ff1681565b600080600560008473ffffffffffffffffffffffffffffffffffffffff1673ffffffffffffffffffffffffffffffffffffffff16815260200190815260200160002060009054906101000a900473ffffffffffffffffffffffffffffffffffffffff169050600073ffffffffffffffffffffffffffffffffffffffff168173ffffffffffffffffffffffffffffffffffffffff1614610ff55780610ff7565b825b915050919050565b60056020528060005260406000206000915054906101000a900473ffffffffffffffffffffffffffffffffffffffff168156fea165627a7a723058206e77e47138fa5b8e040ef67f15325ea04095a40d4bda5eee8e65f2f134c985530029",
  "source": "pragma solidity ^0.5.8;\n\n\n /**\n * @title A mock BondedDeposits for testing.\n */\ncontract MockBondedDeposits {\n  mapping(address => mapping(uint256 => uint256)) public bonded;\n  mapping(address => uint256) public weights;\n  mapping(address => bool) public frozen;\n  // Maps a delegating address to an account.\n  mapping(address => address) public delegations;\n  // Maps an account address to their voting delegate.\n  mapping(address => address) public voters;\n  // Maps an account address to their validating delegate.\n  mapping(address => address) public validators;\n\n  function setWeight(address account, uint256 weight) external {\n    weights[account] = weight;\n  }\n\n  function setBondedDeposit(address account, uint256 noticePeriod, uint256 value) external {\n    bonded[account][noticePeriod] = value;\n  }\n\n  function setVotingFrozen(address account) external {\n    frozen[account] = true;\n  }\n\n  function delegateVoting(address account, address delegate) external {\n    delegations[delegate] = account;\n    voters[account] = delegate;\n  }\n\n  function delegateValidating(address account, address delegate) external {\n    delegations[delegate] = account;\n    validators[account] = delegate;\n  }\n\n  function getAccountWeight(address account) external view returns (uint256) {\n    return weights[account];\n  }\n\n  function getValidatorFromAccount(address account) external view returns (address) {\n    address delegate = validators[account];\n    return delegate == address(0) ? account : delegate;\n  }\n\n  function getBondedDeposit(\n    address account,\n    uint256 noticePeriod\n  )\n    external\n    view\n    returns (uint256, uint256)\n  {\n    // Always return 0 for the index.\n    return (bonded[account][noticePeriod], 0);\n  }\n\n  function isVotingFrozen(address account) external view returns (bool) {\n    return frozen[account];\n  }\n\n  function getAccountFromVoter(address accountOrDelegate) external view returns(address) {\n    address account = delegations[accountOrDelegate];\n    if (account == address(0)) {\n      return accountOrDelegate;\n    } else {\n      require(voters[account] == accountOrDelegate);\n      return account;\n    }\n  }\n\n  function getAccountFromValidator(address accountOrDelegate) external view returns(address) {\n    address account = delegations[accountOrDelegate];\n    if (account == address(0)) {\n      return accountOrDelegate;\n    } else {\n      require(validators[account] == accountOrDelegate);\n      return account;\n    }\n  }\n}\n",
  "sourcePath": "/Users/yorhodes/celo/celo-monorepo/packages/protocol/contracts/governance/test/MockBondedDeposits.sol",
  "compiler": {
    "name": "solc",
    "version": "0.5.8+commit.23d335f2.Emscripten.clang"
  },
  "schemaVersion": "3.0.9",
  "updatedAt": "2019-07-17T03:09:18.759Z",
  "devdoc": {
    "methods": {},
    "title": "A mock BondedDeposits for testing."
  },
  "userdoc": {
    "methods": {}
  }
}