{
  "contractName": "Random",
  "abi": [
    {
      "constant": true,
      "inputs": [],
      "name": "_random",
      "outputs": [
        {
          "name": "",
          "type": "bytes32"
        }
      ],
      "payable": false,
      "stateMutability": "view",
      "type": "function"
    },
    {
      "constant": true,
      "inputs": [
        {
          "name": "",
          "type": "address"
        }
      ],
      "name": "commitments",
      "outputs": [
        {
          "name": "",
          "type": "bytes32"
        }
      ],
      "payable": false,
      "stateMutability": "view",
      "type": "function"
    },
    {
      "constant": false,
      "inputs": [],
      "name": "initialize",
      "outputs": [],
      "payable": false,
      "stateMutability": "nonpayable",
      "type": "function"
    },
    {
      "constant": false,
      "inputs": [
        {
          "name": "randomness",
          "type": "bytes32"
        },
        {
          "name": "newCommitment",
          "type": "bytes32"
        },
        {
          "name": "proposer",
          "type": "address"
        }
      ],
      "name": "revealAndCommit",
      "outputs": [],
      "payable": false,
      "stateMutability": "nonpayable",
      "type": "function"
    },
    {
      "constant": true,
      "inputs": [
        {
          "name": "randomness",
          "type": "bytes32"
        }
      ],
      "name": "computeCommitment",
      "outputs": [
        {
          "name": "",
          "type": "bytes32"
        }
      ],
      "payable": false,
      "stateMutability": "pure",
      "type": "function"
    },
    {
      "constant": true,
      "inputs": [],
      "name": "random",
      "outputs": [
        {
          "name": "",
          "type": "bytes32"
        }
      ],
      "payable": false,
      "stateMutability": "view",
      "type": "function"
    }
  ],
  "bytecode": "0x608060405234801561001057600080fd5b506103a2806100206000396000f3fe608060405234801561001057600080fd5b50600436106100625760003560e01c806306748fb1146100675780635ec01e4d1461008557806375832efc146100a35780638129fc1c146100fb578063c387742b14610105578063e8fcf72314610147575b600080fd5b61006f61019f565b6040518082815260200191505060405180910390f35b61008d6101a5565b6040518082815260200191505060405180910390f35b6100f9600480360360608110156100b957600080fd5b810190808035906020019092919080359060200190929190803573ffffffffffffffffffffffffffffffffffffffff1690602001909291905050506101af565b005b61010361032c565b005b6101316004803603602081101561011b57600080fd5b810190808035906020019092919050505061032e565b6040518082815260200191505060405180910390f35b6101896004803603602081101561015d57600080fd5b81019080803573ffffffffffffffffffffffffffffffffffffffff16906020019092919050505061035e565b6040518082815260200191505060405180910390f35b60015481565b6000600154905090565b600073ffffffffffffffffffffffffffffffffffffffff163373ffffffffffffffffffffffffffffffffffffffff16146101e857600080fd5b6000801b6000808373ffffffffffffffffffffffffffffffffffffffff1673ffffffffffffffffffffffffffffffffffffffff168152602001908152602001600020541461029d576000801b83141561024057600080fd5b600061024b8461032e565b90506000808373ffffffffffffffffffffffffffffffffffffffff1673ffffffffffffffffffffffffffffffffffffffff16815260200190815260200160002054811461029757600080fd5b506102ad565b6000801b83146102ac57600080fd5b5b60015483604051602001808381526020018281526020019250505060405160208183030381529060405280519060200120600181905550816000808373ffffffffffffffffffffffffffffffffffffffff1673ffffffffffffffffffffffffffffffffffffffff16815260200190815260200160002081905550505050565b565b60008160405160200180828152602001915050604051602081830303815290604052805190602001209050919050565b6000602052806000526040600020600091509050548156fea165627a7a723058201d817ab0d3d4e5c78bf0f0e146944e01b48cad844f0cbe067252469e6f4c367e0029",
  "source": "pragma solidity ^0.5.8;\n\nimport \"./interfaces/IRandom.sol\";\n\n\n/**\n * @title Provides randomness for verifier selection\n */\ncontract Random is IRandom {\n\n  /* Stores most recent commitment per address */\n  mapping(address => bytes32) public commitments;\n\n  bytes32 public _random;\n\n  function initialize() external {\n  }\n\n  /**\n   * @notice Implements step of the randomness protocol.\n   * @param randomness Bytes that will be added to the entropy pool.\n   * @param newCommitment The hash of randomness that will be revealed in the future.\n   * @param proposer Address of the block proposer.\n   * @dev If the Random contract is pointed to by the Registry, the first transaction in a block\n   * should be a special transaction to address 0x0 with 64 bytes of data - the concatenated\n   * `randomness` and `newCommitment`. Before running regular transactions, this function should be\n   * called.\n   */\n  function revealAndCommit(\n    bytes32 randomness,\n    bytes32 newCommitment,\n    address proposer\n  ) external {\n    require(msg.sender == address(0));\n\n    // ensure revealed randomness matches previous commitment\n    if (commitments[proposer] != 0) {\n      require(randomness != 0);\n      bytes32 expectedCommitment = computeCommitment(randomness);\n      require(expectedCommitment == commitments[proposer]);\n    } else {\n      require(randomness == 0);\n    }\n\n    // add entropy\n    _random = keccak256(abi.encodePacked(_random, randomness));\n\n    commitments[proposer] = newCommitment;\n  }\n\n  function computeCommitment(bytes32 randomness) public pure returns (bytes32) {\n    return keccak256(abi.encodePacked(randomness));\n  }\n\n  function random() external view returns (bytes32) {\n    return _random;\n  }\n}\n",
  "sourcePath": "/Users/yorhodes/celo/celo-monorepo/packages/protocol/contracts/identity/Random.sol",
  "compiler": {
    "name": "solc",
    "version": "0.5.8+commit.23d335f2.Emscripten.clang"
  },
  "schemaVersion": "3.0.9",
  "updatedAt": "2019-07-17T03:09:18.824Z",
  "devdoc": {
    "methods": {
      "revealAndCommit(bytes32,bytes32,address)": {
        "details": "If the Random contract is pointed to by the Registry, the first transaction in a block should be a special transaction to address 0x0 with 64 bytes of data - the concatenated `randomness` and `newCommitment`. Before running regular transactions, this function should be called.",
        "params": {
          "newCommitment": "The hash of randomness that will be revealed in the future.",
          "proposer": "Address of the block proposer.",
          "randomness": "Bytes that will be added to the entropy pool."
        }
      }
    },
    "title": "Provides randomness for verifier selection"
  },
  "userdoc": {
    "methods": {
      "revealAndCommit(bytes32,bytes32,address)": {
        "notice": "Implements step of the randomness protocol."
      }
    }
  }
}