{
  "contractName": "Reserve",
  "abi": [
    {
      "constant": true,
      "inputs": [],
      "name": "TOBIN_TAX_DENOMINATOR",
      "outputs": [
        {
          "name": "",
          "type": "uint256"
        }
      ],
      "payable": false,
      "stateMutability": "view",
      "type": "function"
    },
    {
      "constant": true,
      "inputs": [],
      "name": "initialized",
      "outputs": [
        {
          "name": "",
          "type": "bool"
        }
      ],
      "payable": false,
      "stateMutability": "view",
      "type": "function"
    },
    {
      "constant": true,
      "inputs": [
        {
          "name": "",
          "type": "address"
        }
      ],
      "name": "isToken",
      "outputs": [
        {
          "name": "",
          "type": "bool"
        }
      ],
      "payable": false,
      "stateMutability": "view",
      "type": "function"
    },
    {
      "constant": true,
      "inputs": [],
      "name": "tobinTaxCache",
      "outputs": [
        {
          "name": "numerator",
          "type": "uint128"
        },
        {
          "name": "timestamp",
          "type": "uint128"
        }
      ],
      "payable": false,
      "stateMutability": "view",
      "type": "function"
    },
    {
      "constant": false,
      "inputs": [],
      "name": "renounceOwnership",
      "outputs": [],
      "payable": false,
      "stateMutability": "nonpayable",
      "type": "function"
    },
    {
      "constant": true,
      "inputs": [],
      "name": "registry",
      "outputs": [
        {
          "name": "",
          "type": "address"
        }
      ],
      "payable": false,
      "stateMutability": "view",
      "type": "function"
    },
    {
      "constant": true,
      "inputs": [],
      "name": "owner",
      "outputs": [
        {
          "name": "",
          "type": "address"
        }
      ],
      "payable": false,
      "stateMutability": "view",
      "type": "function"
    },
    {
      "constant": true,
      "inputs": [],
      "name": "isOwner",
      "outputs": [
        {
          "name": "",
          "type": "bool"
        }
      ],
      "payable": false,
      "stateMutability": "view",
      "type": "function"
    },
    {
      "constant": true,
      "inputs": [
        {
          "name": "",
          "type": "address"
        }
      ],
      "name": "isSpender",
      "outputs": [
        {
          "name": "",
          "type": "bool"
        }
      ],
      "payable": false,
      "stateMutability": "view",
      "type": "function"
    },
    {
      "constant": false,
      "inputs": [
        {
          "name": "registryAddress",
          "type": "address"
        }
      ],
      "name": "setRegistry",
      "outputs": [],
      "payable": false,
      "stateMutability": "nonpayable",
      "type": "function"
    },
    {
      "constant": true,
      "inputs": [],
      "name": "tobinTaxStalenessThreshold",
      "outputs": [
        {
          "name": "",
          "type": "uint256"
        }
      ],
      "payable": false,
      "stateMutability": "view",
      "type": "function"
    },
    {
      "constant": false,
      "inputs": [
        {
          "name": "newOwner",
          "type": "address"
        }
      ],
      "name": "transferOwnership",
      "outputs": [],
      "payable": false,
      "stateMutability": "nonpayable",
      "type": "function"
    },
    {
      "payable": true,
      "stateMutability": "payable",
      "type": "fallback"
    },
    {
      "anonymous": false,
      "inputs": [
        {
          "indexed": false,
          "name": "value",
          "type": "uint256"
        }
      ],
      "name": "TobinTaxStalenessThresholdSet",
      "type": "event"
    },
    {
      "anonymous": false,
      "inputs": [
        {
          "indexed": false,
          "name": "token",
          "type": "address"
        }
      ],
      "name": "TokenAdded",
      "type": "event"
    },
    {
      "anonymous": false,
      "inputs": [
        {
          "indexed": false,
          "name": "token",
          "type": "address"
        },
        {
          "indexed": false,
          "name": "index",
          "type": "uint256"
        }
      ],
      "name": "TokenRemoved",
      "type": "event"
    },
    {
      "anonymous": false,
      "inputs": [
        {
          "indexed": false,
          "name": "spender",
          "type": "address"
        }
      ],
      "name": "SpenderAdded",
      "type": "event"
    },
    {
      "anonymous": false,
      "inputs": [
        {
          "indexed": false,
          "name": "spender",
          "type": "address"
        }
      ],
      "name": "SpenderRemoved",
      "type": "event"
    },
    {
      "anonymous": false,
      "inputs": [
        {
          "indexed": true,
          "name": "registryAddress",
          "type": "address"
        }
      ],
      "name": "RegistrySet",
      "type": "event"
    },
    {
      "anonymous": false,
      "inputs": [
        {
          "indexed": true,
          "name": "previousOwner",
          "type": "address"
        },
        {
          "indexed": true,
          "name": "newOwner",
          "type": "address"
        }
      ],
      "name": "OwnershipTransferred",
      "type": "event"
    },
    {
      "constant": false,
      "inputs": [
        {
          "name": "registryAddress",
          "type": "address"
        },
        {
          "name": "_tobinTaxStalenessThreshold",
          "type": "uint256"
        }
      ],
      "name": "initialize",
      "outputs": [],
      "payable": false,
      "stateMutability": "nonpayable",
      "type": "function"
    },
    {
      "constant": false,
      "inputs": [
        {
          "name": "value",
          "type": "uint256"
        }
      ],
      "name": "setTobinTaxStalenessThreshold",
      "outputs": [],
      "payable": false,
      "stateMutability": "nonpayable",
      "type": "function"
    },
    {
      "constant": false,
      "inputs": [
        {
          "name": "token",
          "type": "address"
        }
      ],
      "name": "addToken",
      "outputs": [
        {
          "name": "",
          "type": "bool"
        }
      ],
      "payable": false,
      "stateMutability": "nonpayable",
      "type": "function"
    },
    {
      "constant": false,
      "inputs": [
        {
          "name": "token",
          "type": "address"
        },
        {
          "name": "index",
          "type": "uint256"
        }
      ],
      "name": "removeToken",
      "outputs": [
        {
          "name": "",
          "type": "bool"
        }
      ],
      "payable": false,
      "stateMutability": "nonpayable",
      "type": "function"
    },
    {
      "constant": false,
      "inputs": [
        {
          "name": "spender",
          "type": "address"
        }
      ],
      "name": "addSpender",
      "outputs": [],
      "payable": false,
      "stateMutability": "nonpayable",
      "type": "function"
    },
    {
      "constant": false,
      "inputs": [
        {
          "name": "spender",
          "type": "address"
        }
      ],
      "name": "removeSpender",
      "outputs": [],
      "payable": false,
      "stateMutability": "nonpayable",
      "type": "function"
    },
    {
      "constant": false,
      "inputs": [
        {
          "name": "token",
          "type": "address"
        }
      ],
      "name": "burnToken",
      "outputs": [
        {
          "name": "",
          "type": "bool"
        }
      ],
      "payable": false,
      "stateMutability": "nonpayable",
      "type": "function"
    },
    {
      "constant": false,
      "inputs": [
        {
          "name": "to",
          "type": "address"
        },
        {
          "name": "value",
          "type": "uint256"
        }
      ],
      "name": "transferGold",
      "outputs": [
        {
          "name": "",
          "type": "bool"
        }
      ],
      "payable": false,
      "stateMutability": "nonpayable",
      "type": "function"
    },
    {
      "constant": false,
      "inputs": [],
      "name": "getOrComputeTobinTax",
      "outputs": [
        {
          "name": "",
          "type": "uint256"
        },
        {
          "name": "",
          "type": "uint256"
        }
      ],
      "payable": false,
      "stateMutability": "nonpayable",
      "type": "function"
    },
    {
      "constant": true,
      "inputs": [],
      "name": "getTokens",
      "outputs": [
        {
          "name": "",
          "type": "address[]"
        }
      ],
      "payable": false,
      "stateMutability": "view",
      "type": "function"
    }
  ],
  "bytecode": "0x6080604052336000806101000a81548173ffffffffffffffffffffffffffffffffffffffff021916908373ffffffffffffffffffffffffffffffffffffffff1602179055506000809054906101000a900473ffffffffffffffffffffffffffffffffffffffff1673ffffffffffffffffffffffffffffffffffffffff16600073ffffffffffffffffffffffffffffffffffffffff167f8be0079c531659141344cd1fd0a4f28419497f9722a3daafe3b4186f6b6457e060405160405180910390a3612333806100cf6000396000f3fe6080604052600436106101355760003560e01c80638f32d59b116100ab578063aa6ca8081161006f578063aa6ca8081461062f578063cd6dc6871461069b578063d48bfca7146106f6578063e33a88e71461075f578063e7e31e7a1461078a578063f2fde38b146107db57610135565b80638f32d59b146104a2578063950dad19146104d15780639a206ece1461053a578063a1ab55b3146105a3578063a91ee0dc146105de57610135565b80631c39c7d5116100fd5780631c39c7d51461029f57806322796e8314610312578063715018a61461038c5780637b103999146103a35780638ce5877c146103fa5780638da5cb5b1461044b57610135565b806304831bb71461013757806313baf1e614610162578063158ef93e146101d557806317f9a6f71461020457806319f3736114610236575b005b34801561014357600080fd5b5061014c61082c565b6040518082815260200191505060405180910390f35b34801561016e57600080fd5b506101bb6004803603604081101561018557600080fd5b81019080803573ffffffffffffffffffffffffffffffffffffffff16906020019092919080359060200190929190505050610832565b604051808215151515815260200191505060405180910390f35b3480156101e157600080fd5b506101ea610b4f565b604051808215151515815260200191505060405180910390f35b34801561021057600080fd5b50610219610b62565b604051808381526020018281526020019250505060405180910390f35b34801561024257600080fd5b506102856004803603602081101561025957600080fd5b81019080803573ffffffffffffffffffffffffffffffffffffffff169060200190929190505050610c73565b604051808215151515815260200191505060405180910390f35b3480156102ab57600080fd5b506102f8600480360360408110156102c257600080fd5b81019080803573ffffffffffffffffffffffffffffffffffffffff16906020019092919080359060200190929190505050610c93565b604051808215151515815260200191505060405180910390f35b34801561031e57600080fd5b50610327610fc2565b60405180836fffffffffffffffffffffffffffffffff166fffffffffffffffffffffffffffffffff168152602001826fffffffffffffffffffffffffffffffff166fffffffffffffffffffffffffffffffff1681526020019250505060405180910390f35b34801561039857600080fd5b506103a161100c565b005b3480156103af57600080fd5b506103b86110dc565b604051808273ffffffffffffffffffffffffffffffffffffffff1673ffffffffffffffffffffffffffffffffffffffff16815260200191505060405180910390f35b34801561040657600080fd5b506104496004803603602081101561041d57600080fd5b81019080803573ffffffffffffffffffffffffffffffffffffffff169060200190929190505050611102565b005b34801561045757600080fd5b506104606111d1565b604051808273ffffffffffffffffffffffffffffffffffffffff1673ffffffffffffffffffffffffffffffffffffffff16815260200191505060405180910390f35b3480156104ae57600080fd5b506104b76111fa565b604051808215151515815260200191505060405180910390f35b3480156104dd57600080fd5b50610520600480360360208110156104f457600080fd5b81019080803573ffffffffffffffffffffffffffffffffffffffff169060200190929190505050611251565b604051808215151515815260200191505060405180910390f35b34801561054657600080fd5b506105896004803603602081101561055d57600080fd5b81019080803573ffffffffffffffffffffffffffffffffffffffff1690602001909291905050506114da565b604051808215151515815260200191505060405180910390f35b3480156105af57600080fd5b506105dc600480360360208110156105c657600080fd5b81019080803590602001909291905050506114fa565b005b3480156105ea57600080fd5b5061062d6004803603602081101561060157600080fd5b81019080803573ffffffffffffffffffffffffffffffffffffffff1690602001909291905050506115c2565b005b34801561063b57600080fd5b5061064461165a565b6040518080602001828103825283818151815260200191508051906020019060200280838360005b8381101561068757808201518184015260208101905061066c565b505050509050019250505060405180910390f35b3480156106a757600080fd5b506106f4600480360360408110156106be57600080fd5b81019080803573ffffffffffffffffffffffffffffffffffffffff169060200190929190803590602001909291905050506116e8565b005b34801561070257600080fd5b506107456004803603602081101561071957600080fd5b81019080803573ffffffffffffffffffffffffffffffffffffffff16906020019092919050505061173a565b604051808215151515815260200191505060405180910390f35b34801561076b57600080fd5b50610774611bf8565b6040518082815260200191505060405180910390f35b34801561079657600080fd5b506107d9600480360360208110156107ad57600080fd5b81019080803573ffffffffffffffffffffffffffffffffffffffff169060200190929190505050611bfe565b005b3480156107e757600080fd5b5061082a600480360360208110156107fe57600080fd5b81019080803573ffffffffffffffffffffffffffffffffffffffff169060200190929190505050611ccd565b005b6103e881565b600061083c6111fa565b61084557600080fd5b82600260008273ffffffffffffffffffffffffffffffffffffffff1673ffffffffffffffffffffffffffffffffffffffff16815260200190815260200160002060009054906101000a900460ff16610905576040517f08c379a000000000000000000000000000000000000000000000000000000000815260040180806020018281038252601f8152602001807f746f6b656e206164647220776173206e6576657220726567697374657265640081525060200191505060405180910390fd5b6003805490508310801561097b57508373ffffffffffffffffffffffffffffffffffffffff166003848154811061093857fe5b9060005260206000200160009054906101000a900473ffffffffffffffffffffffffffffffffffffffff1673ffffffffffffffffffffffffffffffffffffffff16145b6109d0576040517f08c379a000000000000000000000000000000000000000000000000000000000815260040180806020018281038252602a8152602001806122b2602a913960400191505060405180910390fd5b6000600260008673ffffffffffffffffffffffffffffffffffffffff1673ffffffffffffffffffffffffffffffffffffffff16815260200190815260200160002060006101000a81548160ff0219169083151502179055506000600360016003805490500381548110610a3f57fe5b9060005260206000200160009054906101000a900473ffffffffffffffffffffffffffffffffffffffff1690508060038581548110610a7a57fe5b9060005260206000200160006101000a81548173ffffffffffffffffffffffffffffffffffffffff021916908373ffffffffffffffffffffffffffffffffffffffff1602179055506003805480919060019003610ad79190612260565b507fbe9bb4bdca0a094babd75e3a98b1d2e2390633430d0a2f6e2b9970e2ee03fb2e8585604051808373ffffffffffffffffffffffffffffffffffffffff1673ffffffffffffffffffffffffffffffffffffffff1681526020018281526020019250505060405180910390a160019250505092915050565b600060149054906101000a900460ff1681565b600080600554610bae600460000160109054906101000a90046fffffffffffffffffffffffffffffffff166fffffffffffffffffffffffffffffffff1642611cea90919063ffffffff16565b1115610c3457610bbc611d0a565b600460000160006101000a8154816fffffffffffffffffffffffffffffffff02191690836fffffffffffffffffffffffffffffffff16021790555042600460000160106101000a8154816fffffffffffffffffffffffffffffffff02191690836fffffffffffffffffffffffffffffffff1602179055505b600460000160009054906101000a90046fffffffffffffffffffffffffffffffff166fffffffffffffffffffffffffffffffff166103e8915091509091565b60026020528060005260406000206000915054906101000a900460ff1681565b6000600660003373ffffffffffffffffffffffffffffffffffffffff1673ffffffffffffffffffffffffffffffffffffffff16815260200190815260200160002060009054906101000a900460ff16610d37576040517f08c379a000000000000000000000000000000000000000000000000000000000815260040180806020018281038252602c8152602001806122dc602c913960400191505060405180910390fd5b6000600160009054906101000a900473ffffffffffffffffffffffffffffffffffffffff1673ffffffffffffffffffffffffffffffffffffffff16632906e3d56040518060400160405280600981526020017f476f6c64546f6b656e00000000000000000000000000000000000000000000008152506040518263ffffffff1660e01b81526004018080602001828103825283818151815260200191508051906020019080838360005b83811015610dfc578082015181840152602081019050610de1565b50505050905090810190601f168015610e295780820380516001836020036101000a031916815260200191505b509250505060206040518083038186803b158015610e4657600080fd5b505afa158015610e5a573d6000803e3d6000fd5b505050506040513d6020811015610e7057600080fd5b810190808051906020019092919050505090508073ffffffffffffffffffffffffffffffffffffffff1663a9059cbb85856040518363ffffffff1660e01b8152600401808373ffffffffffffffffffffffffffffffffffffffff1673ffffffffffffffffffffffffffffffffffffffff16815260200182815260200192505050602060405180830381600087803b158015610f0a57600080fd5b505af1158015610f1e573d6000803e3d6000fd5b505050506040513d6020811015610f3457600080fd5b8101908080519060200190929190505050610fb7576040517f08c379a000000000000000000000000000000000000000000000000000000000815260040180806020018281038252601d8152602001807f7472616e73666572206f6620676f6c6420746f6b656e206661696c656400000081525060200191505060405180910390fd5b600191505092915050565b60048060000160009054906101000a90046fffffffffffffffffffffffffffffffff16908060000160109054906101000a90046fffffffffffffffffffffffffffffffff16905082565b6110146111fa565b61101d57600080fd5b600073ffffffffffffffffffffffffffffffffffffffff166000809054906101000a900473ffffffffffffffffffffffffffffffffffffffff1673ffffffffffffffffffffffffffffffffffffffff167f8be0079c531659141344cd1fd0a4f28419497f9722a3daafe3b4186f6b6457e060405160405180910390a360008060006101000a81548173ffffffffffffffffffffffffffffffffffffffff021916908373ffffffffffffffffffffffffffffffffffffffff160217905550565b600160009054906101000a900473ffffffffffffffffffffffffffffffffffffffff1681565b61110a6111fa565b61111357600080fd5b6000600660008373ffffffffffffffffffffffffffffffffffffffff1673ffffffffffffffffffffffffffffffffffffffff16815260200190815260200160002060006101000a81548160ff0219169083151502179055507fab8cff50266d80b9c9d9703af934ca455b9218286bf4fcaa05653a564c499e4b81604051808273ffffffffffffffffffffffffffffffffffffffff1673ffffffffffffffffffffffffffffffffffffffff16815260200191505060405180910390a150565b60008060009054906101000a900473ffffffffffffffffffffffffffffffffffffffff16905090565b60008060009054906101000a900473ffffffffffffffffffffffffffffffffffffffff1673ffffffffffffffffffffffffffffffffffffffff163373ffffffffffffffffffffffffffffffffffffffff1614905090565b600081600260008273ffffffffffffffffffffffffffffffffffffffff1673ffffffffffffffffffffffffffffffffffffffff16815260200190815260200160002060009054906101000a900460ff16611313576040517f08c379a000000000000000000000000000000000000000000000000000000000815260040180806020018281038252601f8152602001807f746f6b656e206164647220776173206e6576657220726567697374657265640081525060200191505060405180910390fd5b60008390508073ffffffffffffffffffffffffffffffffffffffff166342966c688273ffffffffffffffffffffffffffffffffffffffff166370a08231306040518263ffffffff1660e01b8152600401808273ffffffffffffffffffffffffffffffffffffffff1673ffffffffffffffffffffffffffffffffffffffff16815260200191505060206040518083038186803b1580156113b157600080fd5b505afa1580156113c5573d6000803e3d6000fd5b505050506040513d60208110156113db57600080fd5b81019080805190602001909291905050506040518263ffffffff1660e01b815260040180828152602001915050602060405180830381600087803b15801561142257600080fd5b505af1158015611436573d6000803e3d6000fd5b505050506040513d602081101561144c57600080fd5b81019080805190602001909291905050506114cf576040517f08c379a00000000000000000000000000000000000000000000000000000000081526004018080602001828103825260198152602001807f7265736572766520746f6b656e206275726e206661696c65640000000000000081525060200191505060405180910390fd5b600192505050919050565b60066020528060005260406000206000915054906101000a900460ff1681565b6115026111fa565b61150b57600080fd5b60008111611581576040517f08c379a000000000000000000000000000000000000000000000000000000000815260040180806020018281038252600e8152602001807f76616c756520776173207a65726f00000000000000000000000000000000000081525060200191505060405180910390fd5b806005819055507f7bfe94ca3147f135fcd6d94ebf61d33fa34fbe904f933ccae66911b9548544f2816040518082815260200191505060405180910390a150565b6115ca6111fa565b6115d357600080fd5b80600160006101000a81548173ffffffffffffffffffffffffffffffffffffffff021916908373ffffffffffffffffffffffffffffffffffffffff1602179055508073ffffffffffffffffffffffffffffffffffffffff167f27fe5f0c1c3b1ed427cc63d0f05759ffdecf9aec9e18d31ef366fc8a6cb5dc3b60405160405180910390a250565b606060038054806020026020016040519081016040528092919081815260200182805480156116de57602002820191906000526020600020905b8160009054906101000a900473ffffffffffffffffffffffffffffffffffffffff1673ffffffffffffffffffffffffffffffffffffffff1681526020019060010190808311611694575b5050505050905090565b600060149054906101000a900460ff161561170257600080fd5b6001600060146101000a81548160ff021916908315150217905550611726336120e9565b61172f826115c2565b806005819055505050565b60006117446111fa565b61174d57600080fd5b600260008373ffffffffffffffffffffffffffffffffffffffff1673ffffffffffffffffffffffffffffffffffffffff16815260200190815260200160002060009054906101000a900460ff161561180d576040517f08c379a000000000000000000000000000000000000000000000000000000000815260040180806020018281038252601d8152602001807f746f6b656e206164647220616c7265616479207265676973746572656400000081525060200191505060405180910390fd5b6000600160009054906101000a900473ffffffffffffffffffffffffffffffffffffffff1673ffffffffffffffffffffffffffffffffffffffff16632906e3d56040518060400160405280600d81526020017f536f727465644f7261636c6573000000000000000000000000000000000000008152506040518263ffffffff1660e01b81526004018080602001828103825283818151815260200191508051906020019080838360005b838110156118d25780820151818401526020810190506118b7565b50505050905090810190601f1680156118ff5780820380516001836020036101000a031916815260200191505b509250505060206040518083038186803b15801561191c57600080fd5b505afa158015611930573d6000803e3d6000fd5b505050506040513d602081101561194657600080fd5b8101908080519060200190929190505050905060008190506000808273ffffffffffffffffffffffffffffffffffffffff1663ef90e1b0876040518263ffffffff1660e01b8152600401808273ffffffffffffffffffffffffffffffffffffffff1673ffffffffffffffffffffffffffffffffffffffff168152602001915050604080518083038186803b1580156119dd57600080fd5b505afa1580156119f1573d6000803e3d6000fd5b505050506040513d6040811015611a0757600080fd5b810190808051906020019092919080519060200190929190505050816fffffffffffffffffffffffffffffffff169150806fffffffffffffffffffffffffffffffff169050809250819350505060008111611aca576040517f08c379a000000000000000000000000000000000000000000000000000000000815260040180806020018281038252601b8152602001807f6d656469616e20726174652072657475726e6564203020676f6c64000000000081525060200191505060405180910390fd5b6001600260008873ffffffffffffffffffffffffffffffffffffffff1673ffffffffffffffffffffffffffffffffffffffff16815260200190815260200160002060006101000a81548160ff02191690831515021790555060038690806001815401808255809150509060018203906000526020600020016000909192909190916101000a81548173ffffffffffffffffffffffffffffffffffffffff021916908373ffffffffffffffffffffffffffffffffffffffff160217905550507f784c8f4dbf0ffedd6e72c76501c545a70f8b203b30a26ce542bf92ba87c248a486604051808273ffffffffffffffffffffffffffffffffffffffff1673ffffffffffffffffffffffffffffffffffffffff16815260200191505060405180910390a16001945050505050919050565b60055481565b611c066111fa565b611c0f57600080fd5b6001600660008373ffffffffffffffffffffffffffffffffffffffff1673ffffffffffffffffffffffffffffffffffffffff16815260200190815260200160002060006101000a81548160ff0219169083151502179055507f3139419c41cdd7abca84fa19dd21118cd285d3e2ce1a9444e8161ce9fa62fdcd81604051808273ffffffffffffffffffffffffffffffffffffffff1673ffffffffffffffffffffffffffffffffffffffff16815260200191505060405180910390a150565b611cd56111fa565b611cde57600080fd5b611ce7816120e9565b50565b600082821115611cf957600080fd5b600082840390508091505092915050565b600080600160009054906101000a900473ffffffffffffffffffffffffffffffffffffffff1673ffffffffffffffffffffffffffffffffffffffff16632906e3d56040518060400160405280600d81526020017f536f727465644f7261636c6573000000000000000000000000000000000000008152506040518263ffffffff1660e01b81526004018080602001828103825283818151815260200191508051906020019080838360005b83811015611dd0578082015181840152602081019050611db5565b50505050905090810190601f168015611dfd5780820380516001836020036101000a031916815260200191505b509250505060206040518083038186803b158015611e1a57600080fd5b505afa158015611e2e573d6000803e3d6000fd5b505050506040513d6020811015611e4457600080fd5b81019080805190602001909291905050509050600081905060003073ffffffffffffffffffffffffffffffffffffffff16319050600080905060008090505b6003805490508110156120c8576000808573ffffffffffffffffffffffffffffffffffffffff1663ef90e1b060038581548110611ebc57fe5b9060005260206000200160009054906101000a900473ffffffffffffffffffffffffffffffffffffffff166040518263ffffffff1660e01b8152600401808273ffffffffffffffffffffffffffffffffffffffff1673ffffffffffffffffffffffffffffffffffffffff168152602001915050604080518083038186803b158015611f4657600080fd5b505afa158015611f5a573d6000803e3d6000fd5b505050506040513d6040811015611f7057600080fd5b810190808051906020019092919080519060200190929190505050816fffffffffffffffffffffffffffffffff169150806fffffffffffffffffffffffffffffffff1690508092508193505050600060038481548110611fcc57fe5b9060005260206000200160009054906101000a900473ffffffffffffffffffffffffffffffffffffffff1673ffffffffffffffffffffffffffffffffffffffff166318160ddd6040518163ffffffff1660e01b815260040160206040518083038186803b15801561203c57600080fd5b505afa158015612050573d6000803e3d6000fd5b505050506040513d602081101561206657600080fd5b8101908080519060200190929190505050905060006120a08461209285856121e190919063ffffffff16565b61221b90919063ffffffff16565b90506120b5818761224190919063ffffffff16565b9550505050508080600101915050611e83565b508082106120dd5760009450505050506120e6565b60059450505050505b90565b600073ffffffffffffffffffffffffffffffffffffffff168173ffffffffffffffffffffffffffffffffffffffff16141561212357600080fd5b8073ffffffffffffffffffffffffffffffffffffffff166000809054906101000a900473ffffffffffffffffffffffffffffffffffffffff1673ffffffffffffffffffffffffffffffffffffffff167f8be0079c531659141344cd1fd0a4f28419497f9722a3daafe3b4186f6b6457e060405160405180910390a3806000806101000a81548173ffffffffffffffffffffffffffffffffffffffff021916908373ffffffffffffffffffffffffffffffffffffffff16021790555050565b6000808314156121f45760009050612215565b600082840290508284828161220557fe5b041461221057600080fd5b809150505b92915050565b600080821161222957600080fd5b600082848161223457fe5b0490508091505092915050565b60008082840190508381101561225657600080fd5b8091505092915050565b81548183558181111561228757818360005260206000209182019101612286919061228c565b5b505050565b6122ae91905b808211156122aa576000816000905550600101612292565b5090565b9056fe696e64657820696e746f20746f6b656e73206c697374206e6f74206d617070656420746f20746f6b656e73656e646572206e6f7420616c6c6f77656420746f207472616e7366657220526573657276652066756e6473a165627a7a72305820b629e6bcc89425e34eb8f3eff38d3f7c78829d7167826c8c7f67c3e8e6b63c6d0029",
  "source": "pragma solidity ^0.5.8;\n\nimport \"openzeppelin-solidity/contracts/math/SafeMath.sol\";\nimport \"openzeppelin-solidity/contracts/ownership/Ownable.sol\";\n\nimport \"./FractionUtil.sol\";\nimport \"./interfaces/IReserve.sol\";\nimport \"./interfaces/ISortedOracles.sol\";\nimport \"./interfaces/IStableToken.sol\";\n\nimport \"../common/Initializable.sol\";\nimport \"../common/UsingRegistry.sol\";\nimport \"../common/interfaces/IERC20Token.sol\";\n\n\n/**\n * @title Ensures price stability of StableTokens with respect to their pegs\n */\ncontract Reserve is IReserve, Ownable, Initializable, UsingRegistry {\n\n  using FractionUtil for FractionUtil.Fraction;\n  using SafeMath for uint256;\n\n  struct TobinTaxCache {\n    uint128 numerator;\n    uint128 timestamp;\n  }\n\n  mapping(address => bool) public isToken;\n  address[] private _tokens;\n  TobinTaxCache public tobinTaxCache;\n  uint256 public tobinTaxStalenessThreshold;\n  uint256 public constant TOBIN_TAX_DENOMINATOR = 1000;\n  mapping(address => bool) public isSpender;\n\n  event TobinTaxStalenessThresholdSet(uint256 value);\n  event TokenAdded(address token);\n  event TokenRemoved(address token, uint256 index);\n  event SpenderAdded(address spender);\n  event SpenderRemoved(address spender);\n\n  modifier isStableToken(address token) {\n    require(isToken[token], \"token addr was never registered\");\n    _;\n  }\n\n  function() external payable {} // solhint-disable no-empty-blocks\n\n  function initialize(\n    address registryAddress,\n    uint256 _tobinTaxStalenessThreshold\n  )\n    external\n    initializer\n  {\n    _transferOwnership(msg.sender);\n    setRegistry(registryAddress);\n    tobinTaxStalenessThreshold = _tobinTaxStalenessThreshold;\n  }\n\n  /**\n   * @notice Sets the number of seconds to cache the tobin tax value for.\n   * @param value The number of seconds to cache the tobin tax value for.\n   */\n  function setTobinTaxStalenessThreshold(uint256 value) external onlyOwner {\n    require(value > 0, \"value was zero\");\n    tobinTaxStalenessThreshold = value;\n    emit TobinTaxStalenessThresholdSet(value);\n  }\n\n  /**\n   * @notice Add a token that the reserve will stablize.\n   * @param token The address of the token being stabilized.\n   */\n  function addToken(address token) external onlyOwner returns (bool) {\n    require(!isToken[token], \"token addr already registered\");\n    // Require an exchange rate between the new token and Gold exists.\n    address sortedOraclesAddress = registry.getAddressForOrDie(SORTED_ORACLES_REGISTRY_ID);\n    ISortedOracles sortedOracles = ISortedOracles(sortedOraclesAddress);\n    uint256 tokenAmount;\n    uint256 goldAmount;\n    (tokenAmount, goldAmount) = sortedOracles.medianRate(token);\n    require(goldAmount > 0, \"median rate returned 0 gold\");\n    isToken[token] = true;\n    _tokens.push(token);\n    emit TokenAdded(token);\n    return true;\n  }\n\n  /**\n   * @notice Remove a token that the reserve will no longer stabilize.\n   * @param token The address of the token no longer being stabilized.\n   * @param index The index of the token in _tokens.\n   */\n  function removeToken(\n    address token,\n    uint256 index\n  )\n    external\n    onlyOwner\n    isStableToken(token)\n    returns (bool)\n  {\n    require(\n      index < _tokens.length && _tokens[index] == token, \n      \"index into tokens list not mapped to token\"\n    );\n    isToken[token] = false;\n    address lastItem = _tokens[_tokens.length-1];\n    _tokens[index] = lastItem;\n    _tokens.length--;\n    emit TokenRemoved(token, index);\n    return true;\n  }\n\n\n  /**\n   * @notice Gives an address permission to spend Reserve funds.\n   * @param spender The address that is allowed to spend Reserve funds.\n   */\n  function addSpender(address spender) external onlyOwner {\n    isSpender[spender] = true;\n    emit SpenderAdded(spender);\n  }\n\n  /**\n   * @notice Takes away an address's permission to spend Reserve funds.\n   * @param spender The address that is to be no longer allowed to spend Reserve funds.\n   */\n  function removeSpender(address spender) external onlyOwner {\n    isSpender[spender] = false;\n    emit SpenderRemoved(spender);\n  }\n\n  /**\n   * @notice Burns all tokens held by the Reserve.\n   * @param token The address of the token to burn.\n   */\n  function burnToken(address token) external isStableToken(token) returns (bool) {\n    IStableToken stableToken = IStableToken(token);\n    require(stableToken.burn(stableToken.balanceOf(address(this))), \"reserve token burn failed\");\n    return true;\n  }\n\n  /**\n   * @notice Transfer gold.\n   * @param to The address that will receive the gold.\n   * @param value The amount of gold to transfer.\n   */\n  function transferGold(\n    address to,\n    uint256 value\n  )\n    external\n    returns (bool)\n  {\n    require(isSpender[msg.sender], \"sender not allowed to transfer Reserve funds\");\n    IERC20Token goldToken = IERC20Token(registry.getAddressForOrDie(GOLD_TOKEN_REGISTRY_ID));\n    require(goldToken.transfer(to, value), \"transfer of gold token failed\");\n    return true;\n  }\n\n  /**\n   * @notice Returns the tobin tax, recomputing it if it's stale.\n   * @return The tobin tax amount as a fraction.\n   */\n  function getOrComputeTobinTax() external returns (uint256, uint256) {\n    // solhint-disable-next-line not-rely-on-time\n    if (now.sub(tobinTaxCache.timestamp) > tobinTaxStalenessThreshold) {\n      tobinTaxCache.numerator = uint128(computeTobinTax());\n      tobinTaxCache.timestamp = uint128(now); // solhint-disable-line not-rely-on-time\n    }\n    return (uint256(tobinTaxCache.numerator), TOBIN_TAX_DENOMINATOR);\n  }\n\n  function getTokens() external view returns (address[] memory) {\n    return _tokens;\n  }\n\n  /*\n   * Internal functions\n   */\n  /**\n   * @notice Computes a tobin tax based on the reserve ratio.\n   * @return The numerator of the tobin tax amount, where the denominator is 1000.\n   */\n  function computeTobinTax() private view returns (uint256) {\n    address sortedOraclesAddress = registry.getAddressForOrDie(SORTED_ORACLES_REGISTRY_ID);\n    ISortedOracles sortedOracles = ISortedOracles(sortedOraclesAddress);\n    uint256 reserveGoldBalance = address(this).balance;\n    uint256 stableTokensValueInGold = 0;\n\n    for (uint256 i = 0; i < _tokens.length; i++) {\n      uint256 stableAmount;\n      uint256 goldAmount;\n      (stableAmount, goldAmount) = sortedOracles.medianRate(_tokens[i]);\n      uint256 stableTokenSupply = IERC20Token(_tokens[i]).totalSupply();\n      uint256 aStableTokenValueInGold = stableTokenSupply.mul(goldAmount).div(stableAmount);\n      stableTokensValueInGold = stableTokensValueInGold.add(aStableTokenValueInGold);\n    }\n\n    // The protocol calls for a 0.5% transfer tax on Celo Gold when the reserve ratio < 2.\n    // The protocol aims to keep half of the reserve value in gold, thus the reserve ratio\n    // is two when the value of gold in the reserve is equal to the total supply of stable tokens.\n    if (reserveGoldBalance >= stableTokensValueInGold) {\n      return 0;\n    } else {\n      return 5;\n    }\n  }\n\n  /**\n   * @notice Mint tokens.\n   * @param to The address that will receive the minted tokens.\n   * @param token The address of the token to mint.\n   * @param value The amount of tokens to mint.\n   */\n  function mintToken(\n    address to,\n    address token,\n    uint256 value\n  )\n    private\n    isStableToken(token)\n    returns (bool)\n  {\n    IStableToken stableToken = IStableToken(token);\n    stableToken.mint(to, value);\n    return true;\n  }\n}\n",
  "sourcePath": "/Users/yorhodes/celo/celo-monorepo/packages/protocol/contracts/stability/Reserve.sol",
  "compiler": {
    "name": "solc",
    "version": "0.5.8+commit.23d335f2.Emscripten.clang"
  },
  "schemaVersion": "3.0.9",
  "updatedAt": "2019-07-17T03:09:18.877Z",
  "devdoc": {
    "methods": {
      "addSpender(address)": {
        "params": {
          "spender": "The address that is allowed to spend Reserve funds."
        }
      },
      "addToken(address)": {
        "params": {
          "token": "The address of the token being stabilized."
        }
      },
      "burnToken(address)": {
        "params": {
          "token": "The address of the token to burn."
        }
      },
      "getOrComputeTobinTax()": {
        "return": "The tobin tax amount as a fraction."
      },
      "isOwner()": {
        "return": "true if `msg.sender` is the owner of the contract."
      },
      "owner()": {
        "return": "the address of the owner."
      },
      "removeSpender(address)": {
        "params": {
          "spender": "The address that is to be no longer allowed to spend Reserve funds."
        }
      },
      "removeToken(address,uint256)": {
        "params": {
          "index": "The index of the token in _tokens.",
          "token": "The address of the token no longer being stabilized."
        }
      },
      "renounceOwnership()": {
        "details": "Allows the current owner to relinquish control of the contract. It will not be possible to call the functions with the `onlyOwner` modifier anymore."
      },
      "setRegistry(address)": {
        "params": {
          "registryAddress": "The address of a registry contract for routing to other contracts."
        }
      },
      "setTobinTaxStalenessThreshold(uint256)": {
        "params": {
          "value": "The number of seconds to cache the tobin tax value for."
        }
      },
      "transferGold(address,uint256)": {
        "params": {
          "to": "The address that will receive the gold.",
          "value": "The amount of gold to transfer."
        }
      },
      "transferOwnership(address)": {
        "details": "Allows the current owner to transfer control of the contract to a newOwner.",
        "params": {
          "newOwner": "The address to transfer ownership to."
        }
      }
    },
    "title": "Ensures price stability of StableTokens with respect to their pegs"
  },
  "userdoc": {
    "methods": {
      "addSpender(address)": {
        "notice": "Gives an address permission to spend Reserve funds."
      },
      "addToken(address)": {
        "notice": "Add a token that the reserve will stablize."
      },
      "burnToken(address)": {
        "notice": "Burns all tokens held by the Reserve."
      },
      "getOrComputeTobinTax()": {
        "notice": "Returns the tobin tax, recomputing it if it's stale."
      },
      "removeSpender(address)": {
        "notice": "Takes away an address's permission to spend Reserve funds."
      },
      "removeToken(address,uint256)": {
        "notice": "Remove a token that the reserve will no longer stabilize."
      },
      "renounceOwnership()": {
        "notice": "Renouncing ownership will leave the contract without an owner, thereby removing any functionality that is only available to the owner."
      },
      "setRegistry(address)": {
        "notice": "Updates the address pointing to a Registry contract."
      },
      "setTobinTaxStalenessThreshold(uint256)": {
        "notice": "Sets the number of seconds to cache the tobin tax value for."
      },
      "transferGold(address,uint256)": {
        "notice": "Transfer gold."
      }
    }
  }
}