{
  "contractName": "SortedOracles",
  "abi": [
    {
      "constant": true,
      "inputs": [],
      "name": "initialized",
      "outputs": [
        {
          "name": "",
          "type": "bool"
        }
      ],
      "payable": false,
      "stateMutability": "view",
      "type": "function"
    },
    {
      "constant": true,
      "inputs": [
        {
          "name": "",
          "type": "address"
        },
        {
          "name": "",
          "type": "address"
        }
      ],
      "name": "isOracle",
      "outputs": [
        {
          "name": "",
          "type": "bool"
        }
      ],
      "payable": false,
      "stateMutability": "view",
      "type": "function"
    },
    {
      "constant": true,
      "inputs": [],
      "name": "reportExpirySeconds",
      "outputs": [
        {
          "name": "",
          "type": "uint256"
        }
      ],
      "payable": false,
      "stateMutability": "view",
      "type": "function"
    },
    {
      "constant": false,
      "inputs": [],
      "name": "renounceOwnership",
      "outputs": [],
      "payable": false,
      "stateMutability": "nonpayable",
      "type": "function"
    },
    {
      "constant": true,
      "inputs": [],
      "name": "owner",
      "outputs": [
        {
          "name": "",
          "type": "address"
        }
      ],
      "payable": false,
      "stateMutability": "view",
      "type": "function"
    },
    {
      "constant": true,
      "inputs": [],
      "name": "isOwner",
      "outputs": [
        {
          "name": "",
          "type": "bool"
        }
      ],
      "payable": false,
      "stateMutability": "view",
      "type": "function"
    },
    {
      "constant": true,
      "inputs": [
        {
          "name": "",
          "type": "address"
        },
        {
          "name": "",
          "type": "uint256"
        }
      ],
      "name": "oracles",
      "outputs": [
        {
          "name": "",
          "type": "address"
        }
      ],
      "payable": false,
      "stateMutability": "view",
      "type": "function"
    },
    {
      "constant": true,
      "inputs": [
        {
          "name": "",
          "type": "address"
        }
      ],
      "name": "rates",
      "outputs": [
        {
          "name": "head",
          "type": "address"
        },
        {
          "name": "tail",
          "type": "address"
        },
        {
          "name": "medianKey",
          "type": "address"
        },
        {
          "name": "numElements",
          "type": "uint256"
        }
      ],
      "payable": false,
      "stateMutability": "view",
      "type": "function"
    },
    {
      "constant": true,
      "inputs": [
        {
          "name": "",
          "type": "address"
        }
      ],
      "name": "timestamps",
      "outputs": [
        {
          "name": "head",
          "type": "address"
        },
        {
          "name": "tail",
          "type": "address"
        },
        {
          "name": "medianKey",
          "type": "address"
        },
        {
          "name": "numElements",
          "type": "uint256"
        }
      ],
      "payable": false,
      "stateMutability": "view",
      "type": "function"
    },
    {
      "constant": false,
      "inputs": [
        {
          "name": "newOwner",
          "type": "address"
        }
      ],
      "name": "transferOwnership",
      "outputs": [],
      "payable": false,
      "stateMutability": "nonpayable",
      "type": "function"
    },
    {
      "anonymous": false,
      "inputs": [
        {
          "indexed": true,
          "name": "token",
          "type": "address"
        },
        {
          "indexed": true,
          "name": "oracleAddress",
          "type": "address"
        }
      ],
      "name": "OracleAdded",
      "type": "event"
    },
    {
      "anonymous": false,
      "inputs": [
        {
          "indexed": true,
          "name": "token",
          "type": "address"
        },
        {
          "indexed": true,
          "name": "oracleAddress",
          "type": "address"
        }
      ],
      "name": "OracleRemoved",
      "type": "event"
    },
    {
      "anonymous": false,
      "inputs": [
        {
          "indexed": false,
          "name": "token",
          "type": "address"
        },
        {
          "indexed": false,
          "name": "oracle",
          "type": "address"
        },
        {
          "indexed": false,
          "name": "timestamp",
          "type": "uint256"
        },
        {
          "indexed": false,
          "name": "numerator",
          "type": "uint128"
        },
        {
          "indexed": false,
          "name": "denominator",
          "type": "uint128"
        }
      ],
      "name": "OracleReported",
      "type": "event"
    },
    {
      "anonymous": false,
      "inputs": [
        {
          "indexed": true,
          "name": "token",
          "type": "address"
        },
        {
          "indexed": true,
          "name": "oracle",
          "type": "address"
        }
      ],
      "name": "OracleReportRemoved",
      "type": "event"
    },
    {
      "anonymous": false,
      "inputs": [
        {
          "indexed": false,
          "name": "token",
          "type": "address"
        },
        {
          "indexed": false,
          "name": "numerator",
          "type": "uint128"
        },
        {
          "indexed": false,
          "name": "denominator",
          "type": "uint128"
        }
      ],
      "name": "MedianUpdated",
      "type": "event"
    },
    {
      "anonymous": false,
      "inputs": [
        {
          "indexed": false,
          "name": "reportExpiry",
          "type": "uint256"
        }
      ],
      "name": "ReportExpirySet",
      "type": "event"
    },
    {
      "anonymous": false,
      "inputs": [
        {
          "indexed": true,
          "name": "previousOwner",
          "type": "address"
        },
        {
          "indexed": true,
          "name": "newOwner",
          "type": "address"
        }
      ],
      "name": "OwnershipTransferred",
      "type": "event"
    },
    {
      "constant": false,
      "inputs": [
        {
          "name": "_reportExpirySeconds",
          "type": "uint256"
        }
      ],
      "name": "initialize",
      "outputs": [],
      "payable": false,
      "stateMutability": "nonpayable",
      "type": "function"
    },
    {
      "constant": false,
      "inputs": [
        {
          "name": "_reportExpirySeconds",
          "type": "uint256"
        }
      ],
      "name": "setReportExpiry",
      "outputs": [],
      "payable": false,
      "stateMutability": "nonpayable",
      "type": "function"
    },
    {
      "constant": false,
      "inputs": [
        {
          "name": "token",
          "type": "address"
        },
        {
          "name": "oracleAddress",
          "type": "address"
        }
      ],
      "name": "addOracle",
      "outputs": [],
      "payable": false,
      "stateMutability": "nonpayable",
      "type": "function"
    },
    {
      "constant": false,
      "inputs": [
        {
          "name": "token",
          "type": "address"
        },
        {
          "name": "oracleAddress",
          "type": "address"
        },
        {
          "name": "index",
          "type": "uint256"
        }
      ],
      "name": "removeOracle",
      "outputs": [],
      "payable": false,
      "stateMutability": "nonpayable",
      "type": "function"
    },
    {
      "constant": false,
      "inputs": [
        {
          "name": "token",
          "type": "address"
        },
        {
          "name": "n",
          "type": "uint256"
        }
      ],
      "name": "removeExpiredReports",
      "outputs": [],
      "payable": false,
      "stateMutability": "nonpayable",
      "type": "function"
    },
    {
      "constant": false,
      "inputs": [
        {
          "name": "token",
          "type": "address"
        },
        {
          "name": "numerator",
          "type": "uint128"
        },
        {
          "name": "denominator",
          "type": "uint128"
        },
        {
          "name": "lesserKey",
          "type": "address"
        },
        {
          "name": "greaterKey",
          "type": "address"
        }
      ],
      "name": "report",
      "outputs": [],
      "payable": false,
      "stateMutability": "nonpayable",
      "type": "function"
    },
    {
      "constant": true,
      "inputs": [
        {
          "name": "token",
          "type": "address"
        }
      ],
      "name": "numRates",
      "outputs": [
        {
          "name": "",
          "type": "uint256"
        }
      ],
      "payable": false,
      "stateMutability": "view",
      "type": "function"
    },
    {
      "constant": true,
      "inputs": [
        {
          "name": "token",
          "type": "address"
        }
      ],
      "name": "medianRate",
      "outputs": [
        {
          "name": "",
          "type": "uint128"
        },
        {
          "name": "",
          "type": "uint128"
        }
      ],
      "payable": false,
      "stateMutability": "view",
      "type": "function"
    },
    {
      "constant": true,
      "inputs": [
        {
          "name": "token",
          "type": "address"
        }
      ],
      "name": "getRates",
      "outputs": [
        {
          "name": "",
          "type": "address[]"
        },
        {
          "name": "",
          "type": "uint256[]"
        },
        {
          "name": "",
          "type": "uint256[]"
        },
        {
          "name": "",
          "type": "uint8[]"
        }
      ],
      "payable": false,
      "stateMutability": "view",
      "type": "function"
    },
    {
      "constant": true,
      "inputs": [
        {
          "name": "token",
          "type": "address"
        }
      ],
      "name": "numTimestamps",
      "outputs": [
        {
          "name": "",
          "type": "uint256"
        }
      ],
      "payable": false,
      "stateMutability": "view",
      "type": "function"
    },
    {
      "constant": true,
      "inputs": [
        {
          "name": "token",
          "type": "address"
        }
      ],
      "name": "medianTimestamp",
      "outputs": [
        {
          "name": "",
          "type": "uint128"
        }
      ],
      "payable": false,
      "stateMutability": "view",
      "type": "function"
    },
    {
      "constant": true,
      "inputs": [
        {
          "name": "token",
          "type": "address"
        }
      ],
      "name": "getTimestamps",
      "outputs": [
        {
          "name": "",
          "type": "address[]"
        },
        {
          "name": "",
          "type": "uint256[]"
        },
        {
          "name": "",
          "type": "uint256[]"
        },
        {
          "name": "",
          "type": "uint8[]"
        }
      ],
      "payable": false,
      "stateMutability": "view",
      "type": "function"
    }
  ],
  "bytecode": "0x6080604052336000806101000a81548173ffffffffffffffffffffffffffffffffffffffff021916908373ffffffffffffffffffffffffffffffffffffffff1602179055506000809054906101000a900473ffffffffffffffffffffffffffffffffffffffff1673ffffffffffffffffffffffffffffffffffffffff16600073ffffffffffffffffffffffffffffffffffffffff167f8be0079c531659141344cd1fd0a4f28419497f9722a3daafe3b4186f6b6457e060405160405180910390a36130fc806100cf6000396000f3fe608060405234801561001057600080fd5b50600436106101425760003560e01c8063a00a8b2c116100b8578063e9c98e681161007c578063e9c98e681461097e578063ebc1d6bb14610a6f578063ef90e1b014610a9d578063f0ca4adb14610b44578063f2fde38b14610ba8578063fe4b84df14610bec57610142565b8063a00a8b2c146105e8578063a8734f0b14610676578063b929215814610767578063bbc66a94146108d8578063dd34ca3b1461093057610142565b8063493a353c1161010a578063493a353c1461048e57806353a57297146104ac5780636dd6ef0c1461051a578063715018a6146105725780638da5cb5b1461057c5780638f32d59b146105c657610142565b806302f55b6114610147578063071b48fc146102b8578063158ef93e14610334578063370c998e146103565780633fd49c66146103d2575b600080fd5b6101896004803603602081101561015d57600080fd5b81019080803573ffffffffffffffffffffffffffffffffffffffff169060200190929190505050610c1a565b6040518080602001806020018060200180602001858103855289818151815260200191508051906020019060200280838360005b838110156101d85780820151818401526020810190506101bd565b50505050905001858103845288818151815260200191508051906020019060200280838360005b8381101561021a5780820151818401526020810190506101ff565b50505050905001858103835287818151815260200191508051906020019060200280838360005b8381101561025c578082015181840152602081019050610241565b50505050905001858103825286818151815260200191508051906020019060200280838360005b8381101561029e578082015181840152602081019050610283565b505050509050019850505050505050505060405180910390f35b6102fa600480360360208110156102ce57600080fd5b81019080803573ffffffffffffffffffffffffffffffffffffffff169060200190929190505050610e3c565b60405180826fffffffffffffffffffffffffffffffff166fffffffffffffffffffffffffffffffff16815260200191505060405180910390f35b61033c610e90565b604051808215151515815260200191505060405180910390f35b6103b86004803603604081101561036c57600080fd5b81019080803573ffffffffffffffffffffffffffffffffffffffff169060200190929190803573ffffffffffffffffffffffffffffffffffffffff169060200190929190505050610ea3565b604051808215151515815260200191505060405180910390f35b61048c600480360360a08110156103e857600080fd5b81019080803573ffffffffffffffffffffffffffffffffffffffff16906020019092919080356fffffffffffffffffffffffffffffffff16906020019092919080356fffffffffffffffffffffffffffffffff169060200190929190803573ffffffffffffffffffffffffffffffffffffffff169060200190929190803573ffffffffffffffffffffffffffffffffffffffff169060200190929190505050610ed2565b005b61049661143c565b6040518082815260200191505060405180910390f35b610518600480360360608110156104c257600080fd5b81019080803573ffffffffffffffffffffffffffffffffffffffff169060200190929190803573ffffffffffffffffffffffffffffffffffffffff16906020019092919080359060200190929190505050611442565b005b61055c6004803603602081101561053057600080fd5b81019080803573ffffffffffffffffffffffffffffffffffffffff169060200190929190505050611915565b6040518082815260200191505060405180910390f35b61057a611961565b005b610584611a31565b604051808273ffffffffffffffffffffffffffffffffffffffff1673ffffffffffffffffffffffffffffffffffffffff16815260200191505060405180910390f35b6105ce611a5a565b604051808215151515815260200191505060405180910390f35b610634600480360360408110156105fe57600080fd5b81019080803573ffffffffffffffffffffffffffffffffffffffff16906020019092919080359060200190929190505050611ab1565b604051808273ffffffffffffffffffffffffffffffffffffffff1673ffffffffffffffffffffffffffffffffffffffff16815260200191505060405180910390f35b6106b86004803603602081101561068c57600080fd5b81019080803573ffffffffffffffffffffffffffffffffffffffff169060200190929190505050611afc565b604051808573ffffffffffffffffffffffffffffffffffffffff1673ffffffffffffffffffffffffffffffffffffffff1681526020018473ffffffffffffffffffffffffffffffffffffffff1673ffffffffffffffffffffffffffffffffffffffff1681526020018373ffffffffffffffffffffffffffffffffffffffff1673ffffffffffffffffffffffffffffffffffffffff16815260200182815260200194505050505060405180910390f35b6107a96004803603602081101561077d57600080fd5b81019080803573ffffffffffffffffffffffffffffffffffffffff169060200190929190505050611b8c565b6040518080602001806020018060200180602001858103855289818151815260200191508051906020019060200280838360005b838110156107f85780820151818401526020810190506107dd565b50505050905001858103845288818151815260200191508051906020019060200280838360005b8381101561083a57808201518184015260208101905061081f565b50505050905001858103835287818151815260200191508051906020019060200280838360005b8381101561087c578082015181840152602081019050610861565b50505050905001858103825286818151815260200191508051906020019060200280838360005b838110156108be5780820151818401526020810190506108a3565b505050509050019850505050505050505060405180910390f35b61091a600480360360208110156108ee57600080fd5b81019080803573ffffffffffffffffffffffffffffffffffffffff169060200190929190505050611dae565b6040518082815260200191505060405180910390f35b61097c6004803603604081101561094657600080fd5b81019080803573ffffffffffffffffffffffffffffffffffffffff16906020019092919080359060200190929190505050611dfa565b005b6109c06004803603602081101561099457600080fd5b81019080803573ffffffffffffffffffffffffffffffffffffffff1690602001909291905050506120af565b604051808573ffffffffffffffffffffffffffffffffffffffff1673ffffffffffffffffffffffffffffffffffffffff1681526020018473ffffffffffffffffffffffffffffffffffffffff1673ffffffffffffffffffffffffffffffffffffffff1681526020018373ffffffffffffffffffffffffffffffffffffffff1673ffffffffffffffffffffffffffffffffffffffff16815260200182815260200194505050505060405180910390f35b610a9b60048036036020811015610a8557600080fd5b810190808035906020019092919050505061213f565b005b610adf60048036036020811015610ab357600080fd5b81019080803573ffffffffffffffffffffffffffffffffffffffff169060200190929190505050612191565b60405180836fffffffffffffffffffffffffffffffff166fffffffffffffffffffffffffffffffff168152602001826fffffffffffffffffffffffffffffffff166fffffffffffffffffffffffffffffffff1681526020019250505060405180910390f35b610ba660048036036040811015610b5a57600080fd5b81019080803573ffffffffffffffffffffffffffffffffffffffff169060200190929190803573ffffffffffffffffffffffffffffffffffffffff1690602001909291905050506121f9565b005b610bea60048036036020811015610bbe57600080fd5b81019080803573ffffffffffffffffffffffffffffffffffffffff1690602001909291905050506124f2565b005b610c1860048036036020811015610c0257600080fd5b810190808035906020019092919050505061250f565b005b606080606080600160008673ffffffffffffffffffffffffffffffffffffffff1673ffffffffffffffffffffffffffffffffffffffff16815260200190815260200160002073__SortedFractionMedianList______________63a6fead5c90916040518263ffffffff1660e01b81526004018082815260200191505060006040518083038186803b158015610caf57600080fd5b505af4158015610cc3573d6000803e3d6000fd5b505050506040513d6000823e3d601f19601f820116820180604052506080811015610ced57600080fd5b810190808051640100000000811115610d0557600080fd5b82810190506020810184811115610d1b57600080fd5b8151856020820283011164010000000082111715610d3857600080fd5b50509291906020018051640100000000811115610d5457600080fd5b82810190506020810184811115610d6a57600080fd5b8151856020820283011164010000000082111715610d8757600080fd5b50509291906020018051640100000000811115610da357600080fd5b82810190506020810184811115610db957600080fd5b8151856020820283011164010000000082111715610dd657600080fd5b50509291906020018051640100000000811115610df257600080fd5b82810190506020810184811115610e0857600080fd5b8151856020820283011164010000000082111715610e2557600080fd5b505092919050505093509350935093509193509193565b6000610e85600260008473ffffffffffffffffffffffffffffffffffffffff1673ffffffffffffffffffffffffffffffffffffffff168152602001908152602001600020612557565b600001519050919050565b600060149054906101000a900460ff1681565b60036020528160005260406000206020528060005260406000206000915091509054906101000a900460ff1681565b84600360008273ffffffffffffffffffffffffffffffffffffffff1673ffffffffffffffffffffffffffffffffffffffff16815260200190815260200160002060003373ffffffffffffffffffffffffffffffffffffffff1673ffffffffffffffffffffffffffffffffffffffff16815260200190815260200160002060009054906101000a900460ff16610fb2576040517f08c379a00000000000000000000000000000000000000000000000000000000081526004018080602001828103825260278152602001806130aa6027913960400191505060405180910390fd5b610fba612f1e565b611001600160008973ffffffffffffffffffffffffffffffffffffffff1673ffffffffffffffffffffffffffffffffffffffff168152602001908152602001600020612557565b9050600160008873ffffffffffffffffffffffffffffffffffffffff1673ffffffffffffffffffffffffffffffffffffffff16815260200190815260200160002073__SortedFractionMedianList______________635fd0b104909133898989896040518763ffffffff1660e01b8152600401808781526020018673ffffffffffffffffffffffffffffffffffffffff1673ffffffffffffffffffffffffffffffffffffffff168152602001856fffffffffffffffffffffffffffffffff166fffffffffffffffffffffffffffffffff168152602001846fffffffffffffffffffffffffffffffff166fffffffffffffffffffffffffffffffff1681526020018373ffffffffffffffffffffffffffffffffffffffff1673ffffffffffffffffffffffffffffffffffffffff1681526020018273ffffffffffffffffffffffffffffffffffffffff1673ffffffffffffffffffffffffffffffffffffffff168152602001965050505050505060006040518083038186803b15801561118657600080fd5b505af415801561119a573d6000803e3d6000fd5b50505050600260008873ffffffffffffffffffffffffffffffffffffffff1673ffffffffffffffffffffffffffffffffffffffff16815260200190815260200160002073__SortedFractionMedianList______________635fd0b1049091334260016112078d33612743565b60006040518763ffffffff1660e01b8152600401808781526020018673ffffffffffffffffffffffffffffffffffffffff1673ffffffffffffffffffffffffffffffffffffffff168152602001856fffffffffffffffffffffffffffffffff166fffffffffffffffffffffffffffffffff168152602001846fffffffffffffffffffffffffffffffff1681526020018373ffffffffffffffffffffffffffffffffffffffff1673ffffffffffffffffffffffffffffffffffffffff1681526020018273ffffffffffffffffffffffffffffffffffffffff1673ffffffffffffffffffffffffffffffffffffffff168152602001965050505050505060006040518083038186803b15801561131a57600080fd5b505af415801561132e573d6000803e3d6000fd5b505050507f98b07807a99f8ae937e053c8a1ac8223b2a1a2667e90206fb1e84f7131fa338d8733428989604051808673ffffffffffffffffffffffffffffffffffffffff1673ffffffffffffffffffffffffffffffffffffffff1681526020018573ffffffffffffffffffffffffffffffffffffffff1673ffffffffffffffffffffffffffffffffffffffff168152602001848152602001836fffffffffffffffffffffffffffffffff166fffffffffffffffffffffffffffffffff168152602001826fffffffffffffffffffffffffffffffff166fffffffffffffffffffffffffffffffff1681526020019550505050505060405180910390a16114338782612895565b50505050505050565b60055481565b61144a611a5a565b61145357600080fd5b600073ffffffffffffffffffffffffffffffffffffffff168373ffffffffffffffffffffffffffffffffffffffff16141580156114bd5750600073ffffffffffffffffffffffffffffffffffffffff168273ffffffffffffffffffffffffffffffffffffffff1614155b801561150a575080600460008573ffffffffffffffffffffffffffffffffffffffff1673ffffffffffffffffffffffffffffffffffffffff16815260200190815260200160002080549050115b80156115b557508173ffffffffffffffffffffffffffffffffffffffff16600460008573ffffffffffffffffffffffffffffffffffffffff1673ffffffffffffffffffffffffffffffffffffffff168152602001908152602001600020828154811061157257fe5b9060005260206000200160009054906101000a900473ffffffffffffffffffffffffffffffffffffffff1673ffffffffffffffffffffffffffffffffffffffff16145b61160a576040517f08c379a0000000000000000000000000000000000000000000000000000000008152600401808060200182810382526056815260200180612ffa6056913960600191505060405180910390fd5b6000600360008573ffffffffffffffffffffffffffffffffffffffff1673ffffffffffffffffffffffffffffffffffffffff16815260200190815260200160002060008473ffffffffffffffffffffffffffffffffffffffff1673ffffffffffffffffffffffffffffffffffffffff16815260200190815260200160002060006101000a81548160ff021916908315150217905550600460008473ffffffffffffffffffffffffffffffffffffffff1673ffffffffffffffffffffffffffffffffffffffff1681526020019081526020016000206117346001600460008773ffffffffffffffffffffffffffffffffffffffff1673ffffffffffffffffffffffffffffffffffffffff16815260200190815260200160002080549050612a1b90919063ffffffff16565b8154811061173e57fe5b9060005260206000200160009054906101000a900473ffffffffffffffffffffffffffffffffffffffff16600460008573ffffffffffffffffffffffffffffffffffffffff1673ffffffffffffffffffffffffffffffffffffffff16815260200190815260200160002082815481106117b357fe5b9060005260206000200160006101000a81548173ffffffffffffffffffffffffffffffffffffffff021916908373ffffffffffffffffffffffffffffffffffffffff1602179055506118516001600460008673ffffffffffffffffffffffffffffffffffffffff1673ffffffffffffffffffffffffffffffffffffffff16815260200190815260200160002080549050612a1b90919063ffffffff16565b600460008573ffffffffffffffffffffffffffffffffffffffff1673ffffffffffffffffffffffffffffffffffffffff1681526020019081526020016000208161189b9190612fa8565b506118a68383612a3b565b156118b6576118b58383612bb6565b5b8173ffffffffffffffffffffffffffffffffffffffff168373ffffffffffffffffffffffffffffffffffffffff167f6dc84b66cc948d847632b9d829f7cb1cb904fbf2c084554a9bc22ad9d845334060405160405180910390a3505050565b6000600260008373ffffffffffffffffffffffffffffffffffffffff1673ffffffffffffffffffffffffffffffffffffffff168152602001908152602001600020600301549050919050565b611969611a5a565b61197257600080fd5b600073ffffffffffffffffffffffffffffffffffffffff166000809054906101000a900473ffffffffffffffffffffffffffffffffffffffff1673ffffffffffffffffffffffffffffffffffffffff167f8be0079c531659141344cd1fd0a4f28419497f9722a3daafe3b4186f6b6457e060405160405180910390a360008060006101000a81548173ffffffffffffffffffffffffffffffffffffffff021916908373ffffffffffffffffffffffffffffffffffffffff160217905550565b60008060009054906101000a900473ffffffffffffffffffffffffffffffffffffffff16905090565b60008060009054906101000a900473ffffffffffffffffffffffffffffffffffffffff1673ffffffffffffffffffffffffffffffffffffffff163373ffffffffffffffffffffffffffffffffffffffff1614905090565b60046020528160005260406000208181548110611aca57fe5b906000526020600020016000915091509054906101000a900473ffffffffffffffffffffffffffffffffffffffff1681565b60016020528060005260406000206000915090508060000160009054906101000a900473ffffffffffffffffffffffffffffffffffffffff16908060010160009054906101000a900473ffffffffffffffffffffffffffffffffffffffff16908060020160009054906101000a900473ffffffffffffffffffffffffffffffffffffffff16908060030154905084565b606080606080600260008673ffffffffffffffffffffffffffffffffffffffff1673ffffffffffffffffffffffffffffffffffffffff16815260200190815260200160002073__SortedFractionMedianList______________63a6fead5c90916040518263ffffffff1660e01b81526004018082815260200191505060006040518083038186803b158015611c2157600080fd5b505af4158015611c35573d6000803e3d6000fd5b505050506040513d6000823e3d601f19601f820116820180604052506080811015611c5f57600080fd5b810190808051640100000000811115611c7757600080fd5b82810190506020810184811115611c8d57600080fd5b8151856020820283011164010000000082111715611caa57600080fd5b50509291906020018051640100000000811115611cc657600080fd5b82810190506020810184811115611cdc57600080fd5b8151856020820283011164010000000082111715611cf957600080fd5b50509291906020018051640100000000811115611d1557600080fd5b82810190506020810184811115611d2b57600080fd5b8151856020820283011164010000000082111715611d4857600080fd5b50509291906020018051640100000000811115611d6457600080fd5b82810190506020810184811115611d7a57600080fd5b8151856020820283011164010000000082111715611d9757600080fd5b505092919050505093509350935093509193509193565b6000600160008373ffffffffffffffffffffffffffffffffffffffff1673ffffffffffffffffffffffffffffffffffffffff168152602001908152602001600020600301549050919050565b600073ffffffffffffffffffffffffffffffffffffffff168273ffffffffffffffffffffffffffffffffffffffff1614158015611ec65750600073ffffffffffffffffffffffffffffffffffffffff16600260008473ffffffffffffffffffffffffffffffffffffffff1673ffffffffffffffffffffffffffffffffffffffff16815260200190815260200160002060010160009054906101000a900473ffffffffffffffffffffffffffffffffffffffff1673ffffffffffffffffffffffffffffffffffffffff1614155b8015611f135750600260008373ffffffffffffffffffffffffffffffffffffffff1673ffffffffffffffffffffffffffffffffffffffff1681526020019081526020016000206003015481105b611f1c57600080fd5b60008090505b818110156120aa576000600260008573ffffffffffffffffffffffffffffffffffffffff1673ffffffffffffffffffffffffffffffffffffffff16815260200190815260200160002060010160009054906101000a900473ffffffffffffffffffffffffffffffffffffffff1690506000600260008673ffffffffffffffffffffffffffffffffffffffff1673ffffffffffffffffffffffffffffffffffffffff16815260200190815260200160002060040160008373ffffffffffffffffffffffffffffffffffffffff1673ffffffffffffffffffffffffffffffffffffffff16815260200190815260200160002060000160009054906101000a90046fffffffffffffffffffffffffffffffff1690506005546fffffffffffffffffffffffffffffffff16612080826fffffffffffffffffffffffffffffffff16426fffffffffffffffffffffffffffffffff16612a1b90919063ffffffff16565b106120945761208f8583612bb6565b61209b565b50506120aa565b50508080600101915050611f22565b505050565b60026020528060005260406000206000915090508060000160009054906101000a900473ffffffffffffffffffffffffffffffffffffffff16908060010160009054906101000a900473ffffffffffffffffffffffffffffffffffffffff16908060020160009054906101000a900473ffffffffffffffffffffffffffffffffffffffff16908060030154905084565b612147611a5a565b61215057600080fd5b806005819055507fc68a9b88effd8a11611ff410efbc83569f0031b7bc70dd455b61344c7f0a042f816040518082815260200191505060405180910390a150565b60008061219c612f1e565b6121e3600160008673ffffffffffffffffffffffffffffffffffffffff1673ffffffffffffffffffffffffffffffffffffffff168152602001908152602001600020612557565b9050806000015181602001519250925050915091565b612201611a5a565b61220a57600080fd5b600073ffffffffffffffffffffffffffffffffffffffff168273ffffffffffffffffffffffffffffffffffffffff16141580156122745750600073ffffffffffffffffffffffffffffffffffffffff168173ffffffffffffffffffffffffffffffffffffffff1614155b80156123075750600360008373ffffffffffffffffffffffffffffffffffffffff1673ffffffffffffffffffffffffffffffffffffffff16815260200190815260200160002060008273ffffffffffffffffffffffffffffffffffffffff1673ffffffffffffffffffffffffffffffffffffffff16815260200190815260200160002060009054906101000a900460ff16155b61235c576040517f08c379a000000000000000000000000000000000000000000000000000000000815260040180806020018281038252605a815260200180613050605a913960600191505060405180910390fd5b6001600360008473ffffffffffffffffffffffffffffffffffffffff1673ffffffffffffffffffffffffffffffffffffffff16815260200190815260200160002060008373ffffffffffffffffffffffffffffffffffffffff1673ffffffffffffffffffffffffffffffffffffffff16815260200190815260200160002060006101000a81548160ff021916908315150217905550600460008373ffffffffffffffffffffffffffffffffffffffff1673ffffffffffffffffffffffffffffffffffffffff1681526020019081526020016000208190806001815401808255809150509060018203906000526020600020016000909192909190916101000a81548173ffffffffffffffffffffffffffffffffffffffff021916908373ffffffffffffffffffffffffffffffffffffffff160217905550508073ffffffffffffffffffffffffffffffffffffffff168273ffffffffffffffffffffffffffffffffffffffff167f828d2be040dede7698182e08dfa8bfbd663c879aee772509c4a2bd961d0ed43f60405160405180910390a35050565b6124fa611a5a565b61250357600080fd5b61250c81612e26565b50565b600060149054906101000a900460ff161561252957600080fd5b6001600060146101000a81548160ff02191690831515021790555061254d33612e26565b8060058190555050565b61255f612f1e565b8160040160008360020160009054906101000a900473ffffffffffffffffffffffffffffffffffffffff1673ffffffffffffffffffffffffffffffffffffffff1673ffffffffffffffffffffffffffffffffffffffff1681526020019081526020016000206040518060a00160405290816000820160009054906101000a90046fffffffffffffffffffffffffffffffff166fffffffffffffffffffffffffffffffff166fffffffffffffffffffffffffffffffff1681526020016000820160109054906101000a90046fffffffffffffffffffffffffffffffff166fffffffffffffffffffffffffffffffff166fffffffffffffffffffffffffffffffff1681526020016001820160009054906101000a900473ffffffffffffffffffffffffffffffffffffffff1673ffffffffffffffffffffffffffffffffffffffff1673ffffffffffffffffffffffffffffffffffffffff1681526020016002820160009054906101000a900473ffffffffffffffffffffffffffffffffffffffff1673ffffffffffffffffffffffffffffffffffffffff1673ffffffffffffffffffffffffffffffffffffffff1681526020016002820160149054906101000a900460ff16600381111561272d57fe5b600381111561273857fe5b815250509050919050565b600080600260008573ffffffffffffffffffffffffffffffffffffffff1673ffffffffffffffffffffffffffffffffffffffff16815260200190815260200160002060000160009054906101000a900473ffffffffffffffffffffffffffffffffffffffff1690508273ffffffffffffffffffffffffffffffffffffffff168173ffffffffffffffffffffffffffffffffffffffff16141561288a57600260008573ffffffffffffffffffffffffffffffffffffffff1673ffffffffffffffffffffffffffffffffffffffff16815260200190815260200160002060040160008273ffffffffffffffffffffffffffffffffffffffff1673ffffffffffffffffffffffffffffffffffffffff16815260200190815260200160002060010160009054906101000a900473ffffffffffffffffffffffffffffffffffffffff1691505061288f565b809150505b92915050565b61289d612f1e565b6128e4600160008573ffffffffffffffffffffffffffffffffffffffff1673ffffffffffffffffffffffffffffffffffffffff168152602001908152602001600020612557565b905080600001516fffffffffffffffffffffffffffffffff1682600001516fffffffffffffffffffffffffffffffff1614158061294d575080602001516fffffffffffffffffffffffffffffffff1682602001516fffffffffffffffffffffffffffffffff1614155b15612a16577f58318e45de8adfcb8e8fce4d0b7e35b1a26a9eac6a1d62f4822ff7b3683857338382600001518360200151604051808473ffffffffffffffffffffffffffffffffffffffff1673ffffffffffffffffffffffffffffffffffffffff168152602001836fffffffffffffffffffffffffffffffff166fffffffffffffffffffffffffffffffff168152602001826fffffffffffffffffffffffffffffffff166fffffffffffffffffffffffffffffffff168152602001935050505060405180910390a15b505050565b600082821115612a2a57600080fd5b600082840390508091505092915050565b600080600160008573ffffffffffffffffffffffffffffffffffffffff1673ffffffffffffffffffffffffffffffffffffffff16815260200190815260200160002060040160008473ffffffffffffffffffffffffffffffffffffffff1673ffffffffffffffffffffffffffffffffffffffff16815260200190815260200160002060000160109054906101000a90046fffffffffffffffffffffffffffffffff166fffffffffffffffffffffffffffffffff1614158015612bae57506000600260008573ffffffffffffffffffffffffffffffffffffffff1673ffffffffffffffffffffffffffffffffffffffff16815260200190815260200160002060040160008473ffffffffffffffffffffffffffffffffffffffff1673ffffffffffffffffffffffffffffffffffffffff16815260200190815260200160002060000160109054906101000a90046fffffffffffffffffffffffffffffffff166fffffffffffffffffffffffffffffffff1614155b905092915050565b612bbe612f1e565b612c05600160008573ffffffffffffffffffffffffffffffffffffffff1673ffffffffffffffffffffffffffffffffffffffff168152602001908152602001600020612557565b9050600160008473ffffffffffffffffffffffffffffffffffffffff1673ffffffffffffffffffffffffffffffffffffffff16815260200190815260200160002073__SortedFractionMedianList______________635cd7eb739091846040518363ffffffff1660e01b8152600401808381526020018273ffffffffffffffffffffffffffffffffffffffff1673ffffffffffffffffffffffffffffffffffffffff1681526020019250505060006040518083038186803b158015612cca57600080fd5b505af4158015612cde573d6000803e3d6000fd5b50505050600260008473ffffffffffffffffffffffffffffffffffffffff1673ffffffffffffffffffffffffffffffffffffffff16815260200190815260200160002073__SortedFractionMedianList______________635cd7eb739091846040518363ffffffff1660e01b8152600401808381526020018273ffffffffffffffffffffffffffffffffffffffff1673ffffffffffffffffffffffffffffffffffffffff1681526020019250505060006040518083038186803b158015612da557600080fd5b505af4158015612db9573d6000803e3d6000fd5b505050508173ffffffffffffffffffffffffffffffffffffffff168373ffffffffffffffffffffffffffffffffffffffff167fe21a44017b6fa1658d84e937d56ff408501facdb4ff7427c479ac460d76f789360405160405180910390a3612e218382612895565b505050565b600073ffffffffffffffffffffffffffffffffffffffff168173ffffffffffffffffffffffffffffffffffffffff161415612e6057600080fd5b8073ffffffffffffffffffffffffffffffffffffffff166000809054906101000a900473ffffffffffffffffffffffffffffffffffffffff1673ffffffffffffffffffffffffffffffffffffffff167f8be0079c531659141344cd1fd0a4f28419497f9722a3daafe3b4186f6b6457e060405160405180910390a3806000806101000a81548173ffffffffffffffffffffffffffffffffffffffff021916908373ffffffffffffffffffffffffffffffffffffffff16021790555050565b6040518060a0016040528060006fffffffffffffffffffffffffffffffff16815260200160006fffffffffffffffffffffffffffffffff168152602001600073ffffffffffffffffffffffffffffffffffffffff168152602001600073ffffffffffffffffffffffffffffffffffffffff16815260200160006003811115612fa257fe5b81525090565b815481835581811115612fcf57818360005260206000209182019101612fce9190612fd4565b5b505050565b612ff691905b80821115612ff2576000816000905550600101612fda565b5090565b9056fe746f6b656e2061646472206e756c6c206f72206f7261636c652061646472206e756c6c206f7220696e646578206f6620746f6b656e206f7261636c65206e6f74206d617070656420746f206f7261636c652061646472746f6b656e206164647220776173206e756c6c206f72206f7261636c65206164647220776173206e756c6c206f72206f7261636c652061646472206973206e6f7420616e206f7261636c6520666f7220746f6b656e206164647273656e64657220776173206e6f7420616e206f7261636c6520666f7220746f6b656e2061646472a165627a7a72305820f805093bc6b70334474ec304b85aa2b539d4113f2806d9f49b3c7839d4e473e90029",
  "source": "pragma solidity ^0.5.8;\n\nimport \"openzeppelin-solidity/contracts/math/SafeMath.sol\";\nimport \"openzeppelin-solidity/contracts/ownership/Ownable.sol\";\nimport \"./SortedFractionMedianList.sol\";\nimport \"./interfaces/ISortedOracles.sol\";\nimport \"../common/Initializable.sol\";\n\n\n/**\n * @title Maintains a sorted list of oracle exchange rates between Celo Gold and other currencies.\n */\ncontract SortedOracles is ISortedOracles, Ownable, Initializable {\n  using SafeMath for uint256;\n  using SafeMath for uint128;\n  using SortedFractionMedianList for SortedFractionMedianList.List;\n\n  // Maps a token address to a sorted list of oracle values.\n  mapping(address => SortedFractionMedianList.List) public rates;\n  // TODO(asa): This doesn't need to be a list of fractions.\n  mapping(address => SortedFractionMedianList.List) public timestamps;\n  mapping(address => mapping(address => bool)) public isOracle;\n  mapping(address => address[]) public oracles;\n\n  uint256 public reportExpirySeconds;\n\n  event OracleAdded(\n    address indexed token,\n    address indexed oracleAddress\n  );\n\n  event OracleRemoved(\n    address indexed token,\n    address indexed oracleAddress\n  );\n\n  event OracleReported(\n    address token,\n    address oracle,\n    uint256 timestamp,\n    uint128 numerator,\n    uint128 denominator\n  );\n\n  event OracleReportRemoved(\n    address indexed token,\n    address indexed oracle\n  );\n\n  event MedianUpdated(\n    address token,\n    uint128 numerator,\n    uint128 denominator\n  );\n\n  event ReportExpirySet(\n    uint256 reportExpiry\n  );\n\n  modifier onlyOracle(address token) {\n    require(isOracle[token][msg.sender], \"sender was not an oracle for token addr\");\n    _;\n  }\n\n  function initialize(uint256 _reportExpirySeconds) external initializer {\n    _transferOwnership(msg.sender);\n    reportExpirySeconds = _reportExpirySeconds;\n  }\n\n  /**\n   * @notice Sets the report expiry parameter.\n   * @param _reportExpirySeconds Desired value of report expiry.\n   */\n  function setReportExpiry(uint256 _reportExpirySeconds) external onlyOwner {\n    reportExpirySeconds = _reportExpirySeconds;\n    emit ReportExpirySet(_reportExpirySeconds);\n  }\n\n  /**\n   * @notice Adds a new Oracle.\n   * @param token The address of the token.\n   * @param oracleAddress The address of the oracle.\n   */\n  function addOracle(address token, address oracleAddress) external onlyOwner {\n    require(\n      token != address(0) && oracleAddress != address(0) && !isOracle[token][oracleAddress],\n      \"token addr was null or oracle addr was null or oracle addr is not an oracle for token addr\"\n    );\n    isOracle[token][oracleAddress] = true;\n    oracles[token].push(oracleAddress);\n    emit OracleAdded(token, oracleAddress);\n  }\n\n  /**\n   * @notice Removes an Oracle.\n   * @param oracleAddress The address of the oracle.\n   */\n  function removeOracle(address token, address oracleAddress, uint256 index) external onlyOwner {\n    require(\n      token != address(0) &&\n      oracleAddress != address(0) &&\n      oracles[token].length > index &&\n      oracles[token][index] == oracleAddress,\n      \"token addr null or oracle addr null or index of token oracle not mapped to oracle addr\"\n    );\n    isOracle[token][oracleAddress] = false;\n    oracles[token][index] = oracles[token][oracles[token].length.sub(1)];\n    oracles[token].length = oracles[token].length.sub(1);\n    if (reportExists(token, oracleAddress)) {\n      removeReport(token, oracleAddress);\n    }\n    emit OracleRemoved(token, oracleAddress);\n  }\n\n  /**\n   * @notice Removes a report that is expired.\n   * @param token The address of the token for which the Celo Gold exchange rate is being reported.\n   * @param n The number of expired reports to remove, at most (deterministic upper gas bound).\n   */\n  function removeExpiredReports(address token, uint256 n) external {\n    require(\n      token != address(0) &&\n      timestamps[token].tail != address(0) &&\n      n < timestamps[token].numElements\n    );\n    for (uint256 i = 0; i < n; i++) {\n      address oldest = timestamps[token].tail;\n      uint128 timestamp = timestamps[token].elements[oldest].numerator;\n      // solhint-disable-next-line not-rely-on-time\n      if (uint128(now).sub(timestamp) >= uint128(reportExpirySeconds)) {\n        removeReport(token, oldest);\n      } else {\n        break;\n      }\n    }\n  }\n\n  /**\n   * @notice Updates an oracle value and the median.\n   * @param token The address of the token for which the Celo Gold exchange rate is being reported.\n   * @param numerator The amount of tokens equal to `denominator` Celo Gold.\n   * @param denominator The amount of Celo Gold equal to `numerator` tokens.\n   * @param lesserKey The element which should be just left of the new oracle value.\n   * @param greaterKey The element which should be just right of the new oracle value.\n   * @dev Values are passed as uint128 to avoid uint256 overflow when multiplying.\n   * @dev Note that only one of `lesserKey` or `greaterKey` needs to be correct to reduce friction.\n   */\n  function report(\n    address token,\n    uint128 numerator,\n    uint128 denominator,\n    address lesserKey,\n    address greaterKey\n  )\n    external\n    onlyOracle(token)\n  {\n    SortedFractionMedianList.Element memory originalMedian = getMedianElement(rates[token]);\n    rates[token].insertOrUpdate(msg.sender, numerator, denominator, lesserKey, greaterKey);\n    timestamps[token].insertOrUpdate(\n      msg.sender,\n      // solhint-disable-next-line not-rely-on-time\n      uint128(now),\n      1,\n      getLesserTimestampKey(token, msg.sender),\n      address(0)\n    );\n    // solhint-disable-next-line not-rely-on-time\n    emit OracleReported(token, msg.sender, now, numerator, denominator);\n    emitIfMedianUpdated(token, originalMedian);\n  }\n\n  /**\n   * @notice Returns the number of rates.\n   * @param token The address of the token for which the Celo Gold exchange rate is being reported.\n   * @return The number of reported oracle rates for `token`.\n   */\n  function numRates(address token) external view returns (uint256) {\n    return rates[token].numElements;\n  }\n\n  /**\n   * @notice Returns the median rate.\n   * @param token The address of the token for which the Celo Gold exchange rate is being reported.\n   * @return The median exchange rate for `token`.\n   */\n  function medianRate(address token) external view returns (uint128, uint128) {\n    SortedFractionMedianList.Element memory median = getMedianElement(rates[token]);\n    return (median.numerator, median.denominator);\n  }\n\n  /**\n   * @notice Gets all elements from the doubly linked list.\n   * @param token The address of the token for which the Celo Gold exchange rate is being reported.\n   * @return An unpacked list of elements from largest to smallest.\n   */\n  function getRates(\n    address token\n  )\n    external\n    view\n    returns (\n        address[] memory,\n        uint256[] memory,\n        uint256[] memory,\n        SortedFractionMedianList.MedianRelation[] memory\n    )\n  {\n    return rates[token].getElements();\n  }\n\n  /**\n   * @notice Returns the number of timestamps.\n   * @param token The address of the token for which the Celo Gold exchange rate is being reported.\n   * @return The number of oracle report timestamps for `token`.\n   */\n  function numTimestamps(address token) external view returns (uint256) {\n    return timestamps[token].numElements;\n  }\n\n  /**\n   * @notice Returns the median timestamp.\n   * @param token The address of the token for which the Celo Gold exchange rate is being reported.\n   * @return The median report timestamp for `token`.\n   */\n  function medianTimestamp(address token) external view returns (uint128) {\n    return getMedianElement(timestamps[token]).numerator;\n  }\n\n  /**\n   * @notice Gets all elements from the doubly linked list.\n   * @param token The address of the token for which the Celo Gold exchange rate is being reported.\n   * @return An unpacked list of elements from largest to smallest.\n   */\n  function getTimestamps(\n    address token\n  )\n    external\n    view\n    returns (\n        address[] memory,\n        uint256[] memory,\n        uint256[] memory,\n        SortedFractionMedianList.MedianRelation[] memory\n    )\n  {\n    return timestamps[token].getElements();\n  }\n\n  /**\n   * @notice Returns whether a report exists on token from oracle.\n   * @param token The address of the token for which the Celo Gold exchange rate is being reported.\n   * @param oracle The oracle whose report should be checked.\n   */\n  function reportExists(address token, address oracle) internal view returns (bool) {\n    return rates[token].elements[oracle].denominator != 0 &&\n      timestamps[token].elements[oracle].denominator != 0;\n  }\n\n  /**\n   * @notice Returns the median element.\n   * @return The median element.\n   */\n  function getMedianElement(\n    SortedFractionMedianList.List storage list\n  )\n    private\n    view\n    returns (SortedFractionMedianList.Element memory)\n  {\n    return list.elements[list.medianKey];\n  }\n\n  /**\n   * @notice Removes an oracle value and updates the median.\n   * @param token The address of the token for which the Celo Gold exchange rate is being reported.\n   * @param oracle The oracle whose value should be removed.\n   * @dev This can be used to delete elements for oracles that have been removed.\n   */\n  function removeReport(address token, address oracle) private {\n    SortedFractionMedianList.Element memory originalMedian = getMedianElement(rates[token]);\n    rates[token].remove(oracle);\n    timestamps[token].remove(oracle);\n    emit OracleReportRemoved(token, oracle);\n    emitIfMedianUpdated(token, originalMedian);\n  }\n\n  /**\n   * @notice Emits the MedianUpdated event if the median rate has changed.\n   * @param token The address of the token for which the median rate may have changed.\n   * @param originalMedian The original median rate.\n   */\n  function emitIfMedianUpdated(\n    address token,\n    SortedFractionMedianList.Element memory originalMedian\n  )\n    private\n  {\n    SortedFractionMedianList.Element memory newMedian = getMedianElement(rates[token]);\n    if (\n      originalMedian.numerator != newMedian.numerator ||\n      originalMedian.denominator != newMedian.denominator\n    ) {\n      emit MedianUpdated(\n        token,\n        newMedian.numerator,\n        newMedian.denominator\n      );\n    }\n  }\n\n  /**\n   * @notice Returns the key for the lesser element in the timestamp list.\n   * @param token The address of the token for which the Celo Gold exchange rate is being reported.\n   * @param oracle The address of the oracle to sort into the timestamp list.\n   * @return The key of the lesser element in the list.\n   */\n  function getLesserTimestampKey(address token, address oracle) private view returns(address) {\n    address head = timestamps[token].head;\n    if (head == oracle) {\n      return timestamps[token].elements[head].lesserKey;\n    } else {\n      return head;\n    }\n  }\n}\n",
  "sourcePath": "/Users/yorhodes/celo/celo-monorepo/packages/protocol/contracts/stability/SortedOracles.sol",
  "compiler": {
    "name": "solc",
    "version": "0.5.8+commit.23d335f2.Emscripten.clang"
  },
  "schemaVersion": "3.0.9",
  "updatedAt": "2019-07-17T03:09:18.934Z",
  "devdoc": {
    "methods": {
      "addOracle(address,address)": {
        "params": {
          "oracleAddress": "The address of the oracle.",
          "token": "The address of the token."
        }
      },
      "getRates(address)": {
        "params": {
          "token": "The address of the token for which the Celo Gold exchange rate is being reported."
        },
        "return": "An unpacked list of elements from largest to smallest."
      },
      "getTimestamps(address)": {
        "params": {
          "token": "The address of the token for which the Celo Gold exchange rate is being reported."
        },
        "return": "An unpacked list of elements from largest to smallest."
      },
      "isOwner()": {
        "return": "true if `msg.sender` is the owner of the contract."
      },
      "medianRate(address)": {
        "params": {
          "token": "The address of the token for which the Celo Gold exchange rate is being reported."
        },
        "return": "The median exchange rate for `token`."
      },
      "medianTimestamp(address)": {
        "params": {
          "token": "The address of the token for which the Celo Gold exchange rate is being reported."
        },
        "return": "The median report timestamp for `token`."
      },
      "numRates(address)": {
        "params": {
          "token": "The address of the token for which the Celo Gold exchange rate is being reported."
        },
        "return": "The number of reported oracle rates for `token`."
      },
      "numTimestamps(address)": {
        "params": {
          "token": "The address of the token for which the Celo Gold exchange rate is being reported."
        },
        "return": "The number of oracle report timestamps for `token`."
      },
      "owner()": {
        "return": "the address of the owner."
      },
      "removeExpiredReports(address,uint256)": {
        "params": {
          "n": "The number of expired reports to remove, at most (deterministic upper gas bound).",
          "token": "The address of the token for which the Celo Gold exchange rate is being reported."
        }
      },
      "removeOracle(address,address,uint256)": {
        "params": {
          "oracleAddress": "The address of the oracle."
        }
      },
      "renounceOwnership()": {
        "details": "Allows the current owner to relinquish control of the contract. It will not be possible to call the functions with the `onlyOwner` modifier anymore."
      },
      "report(address,uint128,uint128,address,address)": {
        "details": "Values are passed as uint128 to avoid uint256 overflow when multiplying.Note that only one of `lesserKey` or `greaterKey` needs to be correct to reduce friction.",
        "params": {
          "denominator": "The amount of Celo Gold equal to `numerator` tokens.",
          "greaterKey": "The element which should be just right of the new oracle value.",
          "lesserKey": "The element which should be just left of the new oracle value.",
          "numerator": "The amount of tokens equal to `denominator` Celo Gold.",
          "token": "The address of the token for which the Celo Gold exchange rate is being reported."
        }
      },
      "setReportExpiry(uint256)": {
        "params": {
          "_reportExpirySeconds": "Desired value of report expiry."
        }
      },
      "transferOwnership(address)": {
        "details": "Allows the current owner to transfer control of the contract to a newOwner.",
        "params": {
          "newOwner": "The address to transfer ownership to."
        }
      }
    },
    "title": "Maintains a sorted list of oracle exchange rates between Celo Gold and other currencies."
  },
  "userdoc": {
    "methods": {
      "addOracle(address,address)": {
        "notice": "Adds a new Oracle."
      },
      "getRates(address)": {
        "notice": "Gets all elements from the doubly linked list."
      },
      "getTimestamps(address)": {
        "notice": "Gets all elements from the doubly linked list."
      },
      "medianRate(address)": {
        "notice": "Returns the median rate."
      },
      "medianTimestamp(address)": {
        "notice": "Returns the median timestamp."
      },
      "numRates(address)": {
        "notice": "Returns the number of rates."
      },
      "numTimestamps(address)": {
        "notice": "Returns the number of timestamps."
      },
      "removeExpiredReports(address,uint256)": {
        "notice": "Removes a report that is expired."
      },
      "removeOracle(address,address,uint256)": {
        "notice": "Removes an Oracle."
      },
      "renounceOwnership()": {
        "notice": "Renouncing ownership will leave the contract without an owner, thereby removing any functionality that is only available to the owner."
      },
      "report(address,uint128,uint128,address,address)": {
        "notice": "Updates an oracle value and the median."
      },
      "setReportExpiry(uint256)": {
        "notice": "Sets the report expiry parameter."
      }
    }
  }
}