{
  "contractName": "StableToken",
  "abi": [
    {
      "constant": true,
      "inputs": [],
      "name": "minter",
      "outputs": [
        {
          "name": "",
          "type": "address"
        }
      ],
      "payable": false,
      "stateMutability": "view",
      "type": "function"
    },
    {
      "constant": true,
      "inputs": [],
      "name": "initialized",
      "outputs": [
        {
          "name": "",
          "type": "bool"
        }
      ],
      "payable": false,
      "stateMutability": "view",
      "type": "function"
    },
    {
      "constant": false,
      "inputs": [],
      "name": "renounceOwnership",
      "outputs": [],
      "payable": false,
      "stateMutability": "nonpayable",
      "type": "function"
    },
    {
      "constant": true,
      "inputs": [],
      "name": "registry",
      "outputs": [
        {
          "name": "",
          "type": "address"
        }
      ],
      "payable": false,
      "stateMutability": "view",
      "type": "function"
    },
    {
      "constant": true,
      "inputs": [],
      "name": "owner",
      "outputs": [
        {
          "name": "",
          "type": "address"
        }
      ],
      "payable": false,
      "stateMutability": "view",
      "type": "function"
    },
    {
      "constant": true,
      "inputs": [],
      "name": "isOwner",
      "outputs": [
        {
          "name": "",
          "type": "bool"
        }
      ],
      "payable": false,
      "stateMutability": "view",
      "type": "function"
    },
    {
      "constant": false,
      "inputs": [
        {
          "name": "registryAddress",
          "type": "address"
        }
      ],
      "name": "setRegistry",
      "outputs": [],
      "payable": false,
      "stateMutability": "nonpayable",
      "type": "function"
    },
    {
      "constant": false,
      "inputs": [
        {
          "name": "newOwner",
          "type": "address"
        }
      ],
      "name": "transferOwnership",
      "outputs": [],
      "payable": false,
      "stateMutability": "nonpayable",
      "type": "function"
    },
    {
      "anonymous": false,
      "inputs": [
        {
          "indexed": true,
          "name": "_minter",
          "type": "address"
        }
      ],
      "name": "MinterSet",
      "type": "event"
    },
    {
      "anonymous": false,
      "inputs": [
        {
          "indexed": false,
          "name": "numerator",
          "type": "uint256"
        },
        {
          "indexed": false,
          "name": "denominator",
          "type": "uint256"
        },
        {
          "indexed": false,
          "name": "lastUpdated",
          "type": "uint256"
        }
      ],
      "name": "InflationFactorUpdated",
      "type": "event"
    },
    {
      "anonymous": false,
      "inputs": [
        {
          "indexed": false,
          "name": "numerator",
          "type": "uint256"
        },
        {
          "indexed": false,
          "name": "denominator",
          "type": "uint256"
        },
        {
          "indexed": false,
          "name": "updatePeriod",
          "type": "uint256"
        },
        {
          "indexed": false,
          "name": "lastUpdated",
          "type": "uint256"
        }
      ],
      "name": "InflationParametersUpdated",
      "type": "event"
    },
    {
      "anonymous": false,
      "inputs": [
        {
          "indexed": true,
          "name": "from",
          "type": "address"
        },
        {
          "indexed": true,
          "name": "to",
          "type": "address"
        },
        {
          "indexed": false,
          "name": "value",
          "type": "uint256"
        }
      ],
      "name": "Transfer",
      "type": "event"
    },
    {
      "anonymous": false,
      "inputs": [
        {
          "indexed": false,
          "name": "comment",
          "type": "string"
        }
      ],
      "name": "TransferComment",
      "type": "event"
    },
    {
      "anonymous": false,
      "inputs": [
        {
          "indexed": true,
          "name": "registryAddress",
          "type": "address"
        }
      ],
      "name": "RegistrySet",
      "type": "event"
    },
    {
      "anonymous": false,
      "inputs": [
        {
          "indexed": true,
          "name": "previousOwner",
          "type": "address"
        },
        {
          "indexed": true,
          "name": "newOwner",
          "type": "address"
        }
      ],
      "name": "OwnershipTransferred",
      "type": "event"
    },
    {
      "anonymous": false,
      "inputs": [
        {
          "indexed": true,
          "name": "owner",
          "type": "address"
        },
        {
          "indexed": true,
          "name": "spender",
          "type": "address"
        },
        {
          "indexed": false,
          "name": "value",
          "type": "uint256"
        }
      ],
      "name": "Approval",
      "type": "event"
    },
    {
      "constant": false,
      "inputs": [
        {
          "name": "_name",
          "type": "string"
        },
        {
          "name": "_symbol",
          "type": "string"
        },
        {
          "name": "_decimals",
          "type": "uint8"
        },
        {
          "name": "registryAddress",
          "type": "address"
        },
        {
          "name": "inflationRateNumerator",
          "type": "uint256"
        },
        {
          "name": "inflationRateDenominator",
          "type": "uint256"
        },
        {
          "name": "inflationFactorUpdatePeriod",
          "type": "uint256"
        }
      ],
      "name": "initialize",
      "outputs": [],
      "payable": false,
      "stateMutability": "nonpayable",
      "type": "function"
    },
    {
      "constant": false,
      "inputs": [
        {
          "name": "_minter",
          "type": "address"
        }
      ],
      "name": "setMinter",
      "outputs": [],
      "payable": false,
      "stateMutability": "nonpayable",
      "type": "function"
    },
    {
      "constant": false,
      "inputs": [
        {
          "name": "rateNumerator",
          "type": "uint256"
        },
        {
          "name": "rateDenominator",
          "type": "uint256"
        },
        {
          "name": "updatePeriod",
          "type": "uint256"
        }
      ],
      "name": "setInflationParameters",
      "outputs": [],
      "payable": false,
      "stateMutability": "nonpayable",
      "type": "function"
    },
    {
      "constant": false,
      "inputs": [
        {
          "name": "spender",
          "type": "address"
        },
        {
          "name": "value",
          "type": "uint256"
        }
      ],
      "name": "approve",
      "outputs": [
        {
          "name": "",
          "type": "bool"
        }
      ],
      "payable": false,
      "stateMutability": "nonpayable",
      "type": "function"
    },
    {
      "constant": false,
      "inputs": [
        {
          "name": "to",
          "type": "address"
        },
        {
          "name": "value",
          "type": "uint256"
        }
      ],
      "name": "mint",
      "outputs": [
        {
          "name": "",
          "type": "bool"
        }
      ],
      "payable": false,
      "stateMutability": "nonpayable",
      "type": "function"
    },
    {
      "constant": false,
      "inputs": [
        {
          "name": "to",
          "type": "address"
        },
        {
          "name": "value",
          "type": "uint256"
        },
        {
          "name": "comment",
          "type": "string"
        }
      ],
      "name": "transferWithComment",
      "outputs": [
        {
          "name": "",
          "type": "bool"
        }
      ],
      "payable": false,
      "stateMutability": "nonpayable",
      "type": "function"
    },
    {
      "constant": false,
      "inputs": [
        {
          "name": "value",
          "type": "uint256"
        }
      ],
      "name": "burn",
      "outputs": [
        {
          "name": "",
          "type": "bool"
        }
      ],
      "payable": false,
      "stateMutability": "nonpayable",
      "type": "function"
    },
    {
      "constant": false,
      "inputs": [
        {
          "name": "from",
          "type": "address"
        },
        {
          "name": "to",
          "type": "address"
        },
        {
          "name": "value",
          "type": "uint256"
        }
      ],
      "name": "transferFrom",
      "outputs": [
        {
          "name": "",
          "type": "bool"
        }
      ],
      "payable": false,
      "stateMutability": "nonpayable",
      "type": "function"
    },
    {
      "constant": true,
      "inputs": [],
      "name": "name",
      "outputs": [
        {
          "name": "",
          "type": "string"
        }
      ],
      "payable": false,
      "stateMutability": "view",
      "type": "function"
    },
    {
      "constant": true,
      "inputs": [],
      "name": "symbol",
      "outputs": [
        {
          "name": "",
          "type": "string"
        }
      ],
      "payable": false,
      "stateMutability": "view",
      "type": "function"
    },
    {
      "constant": true,
      "inputs": [],
      "name": "decimals",
      "outputs": [
        {
          "name": "",
          "type": "uint8"
        }
      ],
      "payable": false,
      "stateMutability": "view",
      "type": "function"
    },
    {
      "constant": true,
      "inputs": [
        {
          "name": "owner",
          "type": "address"
        },
        {
          "name": "spender",
          "type": "address"
        }
      ],
      "name": "allowance",
      "outputs": [
        {
          "name": "",
          "type": "uint256"
        }
      ],
      "payable": false,
      "stateMutability": "view",
      "type": "function"
    },
    {
      "constant": true,
      "inputs": [
        {
          "name": "owner",
          "type": "address"
        }
      ],
      "name": "balanceOf",
      "outputs": [
        {
          "name": "",
          "type": "uint256"
        }
      ],
      "payable": false,
      "stateMutability": "view",
      "type": "function"
    },
    {
      "constant": true,
      "inputs": [],
      "name": "totalSupply",
      "outputs": [
        {
          "name": "",
          "type": "uint256"
        }
      ],
      "payable": false,
      "stateMutability": "view",
      "type": "function"
    },
    {
      "constant": true,
      "inputs": [],
      "name": "getInflationParameters",
      "outputs": [
        {
          "name": "",
          "type": "uint256"
        },
        {
          "name": "",
          "type": "uint256"
        },
        {
          "name": "",
          "type": "uint256"
        },
        {
          "name": "",
          "type": "uint256"
        },
        {
          "name": "",
          "type": "uint256"
        },
        {
          "name": "",
          "type": "uint256"
        }
      ],
      "payable": false,
      "stateMutability": "view",
      "type": "function"
    },
    {
      "constant": true,
      "inputs": [
        {
          "name": "value",
          "type": "uint256"
        }
      ],
      "name": "valueToUnits",
      "outputs": [
        {
          "name": "",
          "type": "uint256"
        }
      ],
      "payable": false,
      "stateMutability": "view",
      "type": "function"
    },
    {
      "constant": true,
      "inputs": [
        {
          "name": "units",
          "type": "uint256"
        }
      ],
      "name": "unitsToValue",
      "outputs": [
        {
          "name": "",
          "type": "uint256"
        }
      ],
      "payable": false,
      "stateMutability": "view",
      "type": "function"
    },
    {
      "constant": true,
      "inputs": [
        {
          "name": "aNumerator",
          "type": "uint256"
        },
        {
          "name": "aDenominator",
          "type": "uint256"
        },
        {
          "name": "bNumerator",
          "type": "uint256"
        },
        {
          "name": "bDenominator",
          "type": "uint256"
        },
        {
          "name": "exponent",
          "type": "uint256"
        },
        {
          "name": "_decimals",
          "type": "uint256"
        }
      ],
      "name": "fractionMulExp",
      "outputs": [
        {
          "name": "",
          "type": "uint256"
        },
        {
          "name": "",
          "type": "uint256"
        }
      ],
      "payable": false,
      "stateMutability": "view",
      "type": "function"
    },
    {
      "constant": false,
      "inputs": [
        {
          "name": "to",
          "type": "address"
        },
        {
          "name": "value",
          "type": "uint256"
        }
      ],
      "name": "transfer",
      "outputs": [
        {
          "name": "",
          "type": "bool"
        }
      ],
      "payable": false,
      "stateMutability": "nonpayable",
      "type": "function"
    },
    {
      "constant": false,
      "inputs": [
        {
          "name": "from",
          "type": "address"
        },
        {
          "name": "value",
          "type": "uint256"
        }
      ],
      "name": "debitFrom",
      "outputs": [],
      "payable": false,
      "stateMutability": "nonpayable",
      "type": "function"
    },
    {
      "constant": false,
      "inputs": [
        {
          "name": "to",
          "type": "address"
        },
        {
          "name": "value",
          "type": "uint256"
        }
      ],
      "name": "creditTo",
      "outputs": [],
      "payable": false,
      "stateMutability": "nonpayable",
      "type": "function"
    }
  ],
  "bytecode": "0x6080604052336000806101000a81548173ffffffffffffffffffffffffffffffffffffffff021916908373ffffffffffffffffffffffffffffffffffffffff1602179055506000809054906101000a900473ffffffffffffffffffffffffffffffffffffffff1673ffffffffffffffffffffffffffffffffffffffff16600073ffffffffffffffffffffffffffffffffffffffff167f8be0079c531659141344cd1fd0a4f28419497f9722a3daafe3b4186f6b6457e060405160405180910390a3613126806100cf6000396000f3fe608060405234801561001057600080fd5b50600436106101cf5760003560e01c80638da5cb5b11610104578063a9059cbb116100a2578063e1d6aceb11610071578063e1d6aceb14610a16578063ec68307214610ad1578063f2fde38b14610b4c578063fca3b5aa14610b90576101cf565b8063a9059cbb146108b2578063a91ee0dc14610918578063af31f5871461095c578063dd62ed3e1461099e576101cf565b80638f32d59b116100de5780638f32d59b1461077e57806395d89b41146107a05780639951b90c14610823578063a67f874714610871576101cf565b80638da5cb5b146105d95780638dae30a7146106235780638e71d2631461073c576101cf565b8063313ce5671161017157806342966c681161014b57806342966c68146104e757806370a082311461052d578063715018a6146105855780637b1039991461058f576101cf565b8063313ce5671461040f578063362a5f801461043357806340c10f1914610481576101cf565b806312c6c099116101ad57806312c6c09914610307578063158ef93e1461034957806318160ddd1461036b57806323b872dd14610389576101cf565b806306fdde03146101d45780630754617214610257578063095ea7b3146102a1575b600080fd5b6101dc610bd4565b6040518080602001828103825283818151815260200191508051906020019080838360005b8381101561021c578082015181840152602081019050610201565b50505050905090810190601f1680156102495780820380516001836020036101000a031916815260200191505b509250505060405180910390f35b61025f610c76565b604051808273ffffffffffffffffffffffffffffffffffffffff1673ffffffffffffffffffffffffffffffffffffffff16815260200191505060405180910390f35b6102ed600480360360408110156102b757600080fd5b81019080803573ffffffffffffffffffffffffffffffffffffffff16906020019092919080359060200190929190505050610c9c565b604051808215151515815260200191505060405180910390f35b6103336004803603602081101561031d57600080fd5b8101908080359060200190929190505050610e3a565b6040518082815260200191505060405180910390f35b610351610e63565b604051808215151515815260200191505060405180910390f35b610373610e76565b6040518082815260200191505060405180910390f35b6103f56004803603606081101561039f57600080fd5b81019080803573ffffffffffffffffffffffffffffffffffffffff169060200190929190803573ffffffffffffffffffffffffffffffffffffffff16906020019092919080359060200190929190505050610e88565b604051808215151515815260200191505060405180910390f35b610417611404565b604051808260ff1660ff16815260200191505060405180910390f35b61047f6004803603604081101561044957600080fd5b81019080803573ffffffffffffffffffffffffffffffffffffffff1690602001909291908035906020019092919050505061141b565b005b6104cd6004803603604081101561049757600080fd5b81019080803573ffffffffffffffffffffffffffffffffffffffff16906020019092919080359060200190929190505050611632565b604051808215151515815260200191505060405180910390f35b610513600480360360208110156104fd57600080fd5b81019080803590602001909291905050506118f5565b604051808215151515815260200191505060405180910390f35b61056f6004803603602081101561054357600080fd5b81019080803573ffffffffffffffffffffffffffffffffffffffff169060200190929190505050611c06565b6040518082815260200191505060405180910390f35b61058d611c57565b005b610597611d27565b604051808273ffffffffffffffffffffffffffffffffffffffff1673ffffffffffffffffffffffffffffffffffffffff16815260200191505060405180910390f35b6105e1611d4d565b604051808273ffffffffffffffffffffffffffffffffffffffff1673ffffffffffffffffffffffffffffffffffffffff16815260200191505060405180910390f35b61073a600480360360e081101561063957600080fd5b810190808035906020019064010000000081111561065657600080fd5b82018360208201111561066857600080fd5b8035906020019184600183028401116401000000008311171561068a57600080fd5b9091929391929390803590602001906401000000008111156106ab57600080fd5b8201836020820111156106bd57600080fd5b803590602001918460018302840111640100000000831117156106df57600080fd5b9091929391929390803560ff169060200190929190803573ffffffffffffffffffffffffffffffffffffffff169060200190929190803590602001909291908035906020019092919080359060200190929190505050611d76565b005b61077c6004803603606081101561075257600080fd5b81019080803590602001909291908035906020019092919080359060200190929190505050611eee565b005b6107866120be565b604051808215151515815260200191505060405180910390f35b6107a8612115565b6040518080602001828103825283818151815260200191508051906020019080838360005b838110156107e85780820151818401526020810190506107cd565b50505050905090810190601f1680156108155780820380516001836020036101000a031916815260200191505b509250505060405180910390f35b61086f6004803603604081101561083957600080fd5b81019080803573ffffffffffffffffffffffffffffffffffffffff169060200190929190803590602001909291905050506121b7565b005b610879612322565b60405180878152602001868152602001858152602001848152602001838152602001828152602001965050505050505060405180910390f35b6108fe600480360360408110156108c857600080fd5b81019080803573ffffffffffffffffffffffffffffffffffffffff1690602001909291908035906020019092919050505061236f565b604051808215151515815260200191505060405180910390f35b61095a6004803603602081101561092e57600080fd5b81019080803573ffffffffffffffffffffffffffffffffffffffff16906020019092919050505061242f565b005b6109886004803603602081101561097257600080fd5b81019080803590602001909291905050506124c7565b6040518082815260200191505060405180910390f35b610a00600480360360408110156109b457600080fd5b81019080803573ffffffffffffffffffffffffffffffffffffffff169060200190929190803573ffffffffffffffffffffffffffffffffffffffff169060200190929190505050612501565b6040518082815260200191505060405180910390f35b610ab760048036036060811015610a2c57600080fd5b81019080803573ffffffffffffffffffffffffffffffffffffffff1690602001909291908035906020019092919080359060200190640100000000811115610a7357600080fd5b820183602082011115610a8557600080fd5b80359060200191846001830284011164010000000083111715610aa757600080fd5b9091929391929390505050612588565b604051808215151515815260200191505060405180910390f35b610b2f600480360360c0811015610ae757600080fd5b810190808035906020019092919080359060200190929190803590602001909291908035906020019092919080359060200190929190803590602001909291905050506126b3565b604051808381526020018281526020019250505060405180910390f35b610b8e60048036036020811015610b6257600080fd5b81019080803573ffffffffffffffffffffffffffffffffffffffff16906020019092919050505061274e565b005b610bd260048036036020811015610ba657600080fd5b81019080803573ffffffffffffffffffffffffffffffffffffffff16906020019092919050505061276b565b005b606060038054600181600116156101000203166002900480601f016020809104026020016040519081016040528092919081815260200182805460018160011615610100020316600290048015610c6c5780601f10610c4157610100808354040283529160200191610c6c565b820191906000526020600020905b815481529060010190602001808311610c4f57829003601f168201915b5050505050905090565b600260009054906101000a900473ffffffffffffffffffffffffffffffffffffffff1681565b6000610ca6612f64565b6000610cb0612825565b80925081935050506009600501548114610d48578160096002016000820151816000015560208201518160010155905050806009600501819055507f595b52861cfdec96c89666e92dad0dcd190441fab56bd0c33c1173388b2fbfbb60096002016000015460096002016001015460096005015460405180848152602001838152602001828152602001935050505060405180910390a15b83600860003373ffffffffffffffffffffffffffffffffffffffff1673ffffffffffffffffffffffffffffffffffffffff16815260200190815260200160002060008773ffffffffffffffffffffffffffffffffffffffff1673ffffffffffffffffffffffffffffffffffffffff168152602001908152602001600020819055508473ffffffffffffffffffffffffffffffffffffffff163373ffffffffffffffffffffffffffffffffffffffff167f8c5be1e5ebec7d5bd14f71427d1e84f3dd0314c0f7b2291e5b200ac8c7c3b925866040518082815260200191505060405180910390a360019250505092915050565b6000610e44612f64565b610e4c612825565b5080915050610e5b81846129be565b915050919050565b600060149054906101000a900460ff1681565b6000610e836007546124c7565b905090565b6000610e92612f64565b6000610e9c612825565b80925081935050506009600501548114610f34578160096002016000820151816000015560208201518160010155905050806009600501819055507f595b52861cfdec96c89666e92dad0dcd190441fab56bd0c33c1173388b2fbfbb60096002016000015460096002016001015460096005015460405180848152602001838152602001828152602001935050505060405180910390a15b6000610f63600960020160405180604001604052908160008201548152602001600182015481525050866129be565b9050600073ffffffffffffffffffffffffffffffffffffffff168673ffffffffffffffffffffffffffffffffffffffff161415610feb576040517f08c379a000000000000000000000000000000000000000000000000000000000815260040180806020018281038252602a8152602001806130d1602a913960400191505060405180910390fd5b600660008873ffffffffffffffffffffffffffffffffffffffff1673ffffffffffffffffffffffffffffffffffffffff16815260200190815260200160002054811115611083576040517f08c379a000000000000000000000000000000000000000000000000000000000815260040180806020018281038252602981526020018061304b6029913960400191505060405180910390fd5b600860008873ffffffffffffffffffffffffffffffffffffffff1673ffffffffffffffffffffffffffffffffffffffff16815260200190815260200160002060003373ffffffffffffffffffffffffffffffffffffffff1673ffffffffffffffffffffffffffffffffffffffff16815260200190815260200160002054851115611158576040517f08c379a00000000000000000000000000000000000000000000000000000000081526004018080602001828103825260388152602001806130746038913960400191505060405180910390fd5b6111aa81600660008973ffffffffffffffffffffffffffffffffffffffff1673ffffffffffffffffffffffffffffffffffffffff168152602001908152602001600020546129db90919063ffffffff16565b600660008873ffffffffffffffffffffffffffffffffffffffff1673ffffffffffffffffffffffffffffffffffffffff1681526020019081526020016000208190555061123f81600660008a73ffffffffffffffffffffffffffffffffffffffff1673ffffffffffffffffffffffffffffffffffffffff168152602001908152602001600020546129fa90919063ffffffff16565b600660008973ffffffffffffffffffffffffffffffffffffffff1673ffffffffffffffffffffffffffffffffffffffff1681526020019081526020016000208190555061131181600860008a73ffffffffffffffffffffffffffffffffffffffff1673ffffffffffffffffffffffffffffffffffffffff16815260200190815260200160002060003373ffffffffffffffffffffffffffffffffffffffff1673ffffffffffffffffffffffffffffffffffffffff168152602001908152602001600020546129fa90919063ffffffff16565b600860008973ffffffffffffffffffffffffffffffffffffffff1673ffffffffffffffffffffffffffffffffffffffff16815260200190815260200160002060003373ffffffffffffffffffffffffffffffffffffffff1673ffffffffffffffffffffffffffffffffffffffff168152602001908152602001600020819055508573ffffffffffffffffffffffffffffffffffffffff168773ffffffffffffffffffffffffffffffffffffffff167fddf252ad1be2c89b69c2b068fc378daa952ba7f163c4a11628f55a4df523b3ef876040518082815260200191505060405180910390a3600193505050509392505050565b6000600560009054906101000a900460ff16905090565b600073ffffffffffffffffffffffffffffffffffffffff163373ffffffffffffffffffffffffffffffffffffffff16146114a0576040517f08c379a00000000000000000000000000000000000000000000000000000000081526004018080602001828103825260258152602001806130ac6025913960400191505060405180910390fd5b6114a8612f64565b60006114b2612825565b8092508193505050600960050154811461154a578160096002016000820151816000015560208201518160010155905050806009600501819055507f595b52861cfdec96c89666e92dad0dcd190441fab56bd0c33c1173388b2fbfbb60096002016000015460096002016001015460096005015460405180848152602001838152602001828152602001935050505060405180910390a15b6000611579600960020160405180604001604052908160008201548152602001600182015481525050856129be565b9050611590816007546129fa90919063ffffffff16565b6007819055506115e881600660008873ffffffffffffffffffffffffffffffffffffffff1673ffffffffffffffffffffffffffffffffffffffff168152602001908152602001600020546129fa90919063ffffffff16565b600660008773ffffffffffffffffffffffffffffffffffffffff1673ffffffffffffffffffffffffffffffffffffffff168152602001908152602001600020819055505050505050565b6000600260009054906101000a900473ffffffffffffffffffffffffffffffffffffffff1673ffffffffffffffffffffffffffffffffffffffff163373ffffffffffffffffffffffffffffffffffffffff16146116f7576040517f08c379a00000000000000000000000000000000000000000000000000000000081526004018080602001828103825260158152602001807f73656e64657220776173206e6f74206d696e746572000000000000000000000081525060200191505060405180910390fd5b6116ff612f64565b6000611709612825565b809250819350505060096005015481146117a1578160096002016000820151816000015560208201518160010155905050806009600501819055507f595b52861cfdec96c89666e92dad0dcd190441fab56bd0c33c1173388b2fbfbb60096002016000015460096002016001015460096005015460405180848152602001838152602001828152602001935050505060405180910390a15b60006117d0600960020160405180604001604052908160008201548152602001600182015481525050866129be565b90506117e7816007546129db90919063ffffffff16565b60078190555061183f81600660008973ffffffffffffffffffffffffffffffffffffffff1673ffffffffffffffffffffffffffffffffffffffff168152602001908152602001600020546129db90919063ffffffff16565b600660008873ffffffffffffffffffffffffffffffffffffffff1673ffffffffffffffffffffffffffffffffffffffff168152602001908152602001600020819055508573ffffffffffffffffffffffffffffffffffffffff16600073ffffffffffffffffffffffffffffffffffffffff167fddf252ad1be2c89b69c2b068fc378daa952ba7f163c4a11628f55a4df523b3ef876040518082815260200191505060405180910390a36001935050505092915050565b6000600260009054906101000a900473ffffffffffffffffffffffffffffffffffffffff1673ffffffffffffffffffffffffffffffffffffffff163373ffffffffffffffffffffffffffffffffffffffff16146119ba576040517f08c379a00000000000000000000000000000000000000000000000000000000081526004018080602001828103825260158152602001807f73656e64657220776173206e6f74206d696e746572000000000000000000000081525060200191505060405180910390fd5b6119c2612f64565b60006119cc612825565b80925081935050506009600501548114611a64578160096002016000820151816000015560208201518160010155905050806009600501819055507f595b52861cfdec96c89666e92dad0dcd190441fab56bd0c33c1173388b2fbfbb60096002016000015460096002016001015460096005015460405180848152602001838152602001828152602001935050505060405180910390a15b6000611a93600960020160405180604001604052908160008201548152602001600182015481525050866129be565b9050600660003373ffffffffffffffffffffffffffffffffffffffff1673ffffffffffffffffffffffffffffffffffffffff16815260200190815260200160002054811115611b4a576040517f08c379a00000000000000000000000000000000000000000000000000000000081526004018080602001828103825260208152602001807f76616c75652065786365656465642062616c616e6365206f662073656e64657281525060200191505060405180910390fd5b611b5f816007546129fa90919063ffffffff16565b600781905550611bb781600660003373ffffffffffffffffffffffffffffffffffffffff1673ffffffffffffffffffffffffffffffffffffffff168152602001908152602001600020546129fa90919063ffffffff16565b600660003373ffffffffffffffffffffffffffffffffffffffff1673ffffffffffffffffffffffffffffffffffffffff1681526020019081526020016000208190555060019350505050919050565b6000611c50600660008473ffffffffffffffffffffffffffffffffffffffff1673ffffffffffffffffffffffffffffffffffffffff168152602001908152602001600020546124c7565b9050919050565b611c5f6120be565b611c6857600080fd5b600073ffffffffffffffffffffffffffffffffffffffff166000809054906101000a900473ffffffffffffffffffffffffffffffffffffffff1673ffffffffffffffffffffffffffffffffffffffff167f8be0079c531659141344cd1fd0a4f28419497f9722a3daafe3b4186f6b6457e060405160405180910390a360008060006101000a81548173ffffffffffffffffffffffffffffffffffffffff021916908373ffffffffffffffffffffffffffffffffffffffff160217905550565b600160009054906101000a900473ffffffffffffffffffffffffffffffffffffffff1681565b60008060009054906101000a900473ffffffffffffffffffffffffffffffffffffffff16905090565b600060149054906101000a900460ff1615611d9057600080fd5b6001600060146101000a81548160ff02191690831515021790555060008314158015611dbd575060008214155b611e12576040517f08c379a00000000000000000000000000000000000000000000000000000000081526004018080602001828103825260278152602001806130246027913960400191505060405180910390fd5b611e1b33612a1a565b6000600781905550888860039190611e34929190612f7e565b50868660049190611e46929190612f7e565b5084600560006101000a81548160ff021916908360ff160217905550604051806040016040528084815260200183815250600960000160008201518160000155602082015181600101559050506040518060400160405280600181526020016001815250600960020160008201518160000155602082015181600101559050508060096004018190555042600960050181905550611ee38461242f565b505050505050505050565b611ef66120be565b611eff57600080fd5b611f07612f64565b6000611f11612825565b80925081935050506009600501548114611fa9578160096002016000820151816000015560208201518160010155905050806009600501819055507f595b52861cfdec96c89666e92dad0dcd190441fab56bd0c33c1173388b2fbfbb60096002016000015460096002016001015460096005015460405180848152602001838152602001828152602001935050505060405180910390a15b60008514158015611fbb575060008414155b612010576040517f08c379a00000000000000000000000000000000000000000000000000000000081526004018080602001828103825260278152602001806130246027913960400191505060405180910390fd5b61202d604051806040016040528087815260200186815250612b12565b60096000016000820151816000015560208201518160010155905050826009600401819055507f8e0c0232fe492f09a27601b16c8f9ca0b4bf88f445c2ea25cae6b41b6df3c073600960000160000154600960000160010154600960040154426040518085815260200184815260200183815260200182815260200194505050505060405180910390a15050505050565b60008060009054906101000a900473ffffffffffffffffffffffffffffffffffffffff1673ffffffffffffffffffffffffffffffffffffffff163373ffffffffffffffffffffffffffffffffffffffff1614905090565b606060048054600181600116156101000203166002900480601f0160208091040260200160405190810160405280929190818152602001828054600181600116156101000203166002900480156121ad5780601f10612182576101008083540402835291602001916121ad565b820191906000526020600020905b81548152906001019060200180831161219057829003601f168201915b5050505050905090565b600073ffffffffffffffffffffffffffffffffffffffff163373ffffffffffffffffffffffffffffffffffffffff161461223c576040517f08c379a00000000000000000000000000000000000000000000000000000000081526004018080602001828103825260258152602001806130ac6025913960400191505060405180910390fd5b600061226b600960020160405180604001604052908160008201548152602001600182015481525050836129be565b9050612282816007546129db90919063ffffffff16565b6007819055506122da81600660008673ffffffffffffffffffffffffffffffffffffffff1673ffffffffffffffffffffffffffffffffffffffff168152602001908152602001600020546129db90919063ffffffff16565b600660008573ffffffffffffffffffffffffffffffffffffffff1673ffffffffffffffffffffffffffffffffffffffff16815260200190815260200160002081905550505050565b600080600080600080600960000160000154600960000160010154600960020160000154600960020160010154600960040154600960050154955095509550955095509550909192939495565b6000612379612f64565b6000612383612825565b8092508193505050600960050154811461241b578160096002016000820151816000015560208201518160010155905050806009600501819055507f595b52861cfdec96c89666e92dad0dcd190441fab56bd0c33c1173388b2fbfbb60096002016000015460096002016001015460096005015460405180848152602001838152602001828152602001935050505060405180910390a15b6124258585612ba5565b9250505092915050565b6124376120be565b61244057600080fd5b80600160006101000a81548173ffffffffffffffffffffffffffffffffffffffff021916908373ffffffffffffffffffffffffffffffffffffffff1602179055508073ffffffffffffffffffffffffffffffffffffffff167f27fe5f0c1c3b1ed427cc63d0f05759ffdecf9aec9e18d31ef366fc8a6cb5dc3b60405160405180910390a250565b60006124d1612f64565b6124d9612825565b50809150506124f9836124eb83612e8f565b612ecd90919063ffffffff16565b915050919050565b6000600860008473ffffffffffffffffffffffffffffffffffffffff1673ffffffffffffffffffffffffffffffffffffffff16815260200190815260200160002060008373ffffffffffffffffffffffffffffffffffffffff1673ffffffffffffffffffffffffffffffffffffffff16815260200190815260200160002054905092915050565b6000612592612f64565b600061259c612825565b80925081935050506009600501548114612634578160096002016000820151816000015560208201518160010155905050806009600501819055507f595b52861cfdec96c89666e92dad0dcd190441fab56bd0c33c1173388b2fbfbb60096002016000015460096002016001015460096005015460405180848152602001838152602001828152602001935050505060405180910390a15b6000612640888861236f565b90507fe5d4e30fb8364e57bc4d662a07d0cf36f4c34552004c4c3624620a2c1d1c03dc868660405180806020018281038252848482818152602001925080828437600081840152601f19601f820116905080830192505050935050505060405180910390a1809350505050949350505050565b600080600087141580156126c8575060008514155b6126d157600080fd5b6000806040513681016040528a81528960208201528860408201528760608201528660808201528560a082015260008060c48360fc61041afa3d604051818101604052816000823e8260008114612732578151965060208201519550612736565b8282fd5b50505050508181935093505050965096945050505050565b6127566120be565b61275f57600080fd5b61276881612a1a565b50565b6127736120be565b61277c57600080fd5b80600260006101000a81548173ffffffffffffffffffffffffffffffffffffffff021916908373ffffffffffffffffffffffffffffffffffffffff160217905550600260009054906101000a900473ffffffffffffffffffffffffffffffffffffffff1673ffffffffffffffffffffffffffffffffffffffff167f726b590ef91a8c76ad05bbe91a57ef84605276528f49cd47d787f558a4e755b660405160405180910390a250565b61282d612f64565b600061284c6009600401546009600501546129db90919063ffffffff16565b42101561288957600960020160096005015481604051806040016040529081600082015481526020016001820154815250509150915091506129ba565b60008060006128bd6009600401546128af600960050154426129fa90919063ffffffff16565b612f0490919063ffffffff16565b90506128ff60096002016000015460096002016001015460096000016000015460096000016001015485600560009054906101000a900460ff1660ff166126b3565b809350819450505060008314806129165750600082145b1561295457600960020160096005015481604051806040016040529081600082015481526020016001820154815250509150945094505050506129ba565b61295c612f64565b612979604051806040016040528086815260200185815250612b12565b905060006129ac61299884600960040154612f2a90919063ffffffff16565b6009600501546129db90919063ffffffff16565b905081819650965050505050505b9091565b60006129d38284612ecd90919063ffffffff16565b905092915050565b6000808284019050838110156129f057600080fd5b8091505092915050565b600082821115612a0957600080fd5b600082840390508091505092915050565b600073ffffffffffffffffffffffffffffffffffffffff168173ffffffffffffffffffffffffffffffffffffffff161415612a5457600080fd5b8073ffffffffffffffffffffffffffffffffffffffff166000809054906101000a900473ffffffffffffffffffffffffffffffffffffffff1673ffffffffffffffffffffffffffffffffffffffff167f8be0079c531659141344cd1fd0a4f28419497f9722a3daafe3b4186f6b6457e060405160405180910390a3806000806101000a81548173ffffffffffffffffffffffffffffffffffffffff021916908373ffffffffffffffffffffffffffffffffffffffff16021790555050565b612b1a612f64565b6000826020015190506000836000015190505b60008114612b4f576000818381612b4057fe5b06905081925080915050612b2d565b612b57612f64565b6040518060400160405280612b79858860000151612f0490919063ffffffff16565b8152602001612b95858860200151612f0490919063ffffffff16565b8152509050809350505050919050565b60008073ffffffffffffffffffffffffffffffffffffffff168373ffffffffffffffffffffffffffffffffffffffff161415612c2c576040517f08c379a000000000000000000000000000000000000000000000000000000000815260040180806020018281038252602a8152602001806130d1602a913960400191505060405180910390fd5b6000612c5b600960020160405180604001604052908160008201548152602001600182015481525050846129be565b905080600660003373ffffffffffffffffffffffffffffffffffffffff1673ffffffffffffffffffffffffffffffffffffffff168152602001908152602001600020541015612cf5576040517f08c379a000000000000000000000000000000000000000000000000000000000815260040180806020018281038252602981526020018061304b6029913960400191505060405180910390fd5b612d4781600660003373ffffffffffffffffffffffffffffffffffffffff1673ffffffffffffffffffffffffffffffffffffffff168152602001908152602001600020546129fa90919063ffffffff16565b600660003373ffffffffffffffffffffffffffffffffffffffff1673ffffffffffffffffffffffffffffffffffffffff16815260200190815260200160002081905550612ddc81600660008773ffffffffffffffffffffffffffffffffffffffff1673ffffffffffffffffffffffffffffffffffffffff168152602001908152602001600020546129db90919063ffffffff16565b600660008673ffffffffffffffffffffffffffffffffffffffff1673ffffffffffffffffffffffffffffffffffffffff168152602001908152602001600020819055508373ffffffffffffffffffffffffffffffffffffffff163373ffffffffffffffffffffffffffffffffffffffff167fddf252ad1be2c89b69c2b068fc378daa952ba7f163c4a11628f55a4df523b3ef856040518082815260200191505060405180910390a3600191505092915050565b612e97612f64565b600082600001511415612ea957600080fd5b60405180604001604052808360200151815260200183600001518152509050919050565b6000612efc8360200151612eee848660000151612f2a90919063ffffffff16565b612f0490919063ffffffff16565b905092915050565b6000808211612f1257600080fd5b6000828481612f1d57fe5b0490508091505092915050565b600080831415612f3d5760009050612f5e565b6000828402905082848281612f4e57fe5b0414612f5957600080fd5b809150505b92915050565b604051806040016040528060008152602001600081525090565b828054600181600116156101000203166002900490600052602060002090601f016020900481019282601f10612fbf57803560ff1916838001178555612fed565b82800160010185558215612fed579182015b82811115612fec578235825591602001919060010190612fd1565b5b509050612ffa9190612ffe565b5090565b61302091905b8082111561301c576000816000905550600101613004565b5090565b9056fe4d7573742070726f766964652061206e6f6e2d7a65726f20696e666c6174696f6e20726174652e7472616e736665722076616c75652065786365656465642062616c616e6365206f662073656e6465727472616e736665722076616c75652065786365656465642073656e646572277320616c6c6f77616e636520666f7220726563697069656e7473656e64657220776173206e6f7420766d20287265736572766564203078302061646472297472616e7366657220617474656d7074656420746f207265736572766564206164647265737320307830a165627a7a723058206e04659f970755f96b0841bde77f39f2cd801935a4a89f16ffdab7e005ed52920029",
  "source": "pragma solidity ^0.5.8;\n\nimport \"openzeppelin-solidity/contracts/ownership/Ownable.sol\";\nimport \"openzeppelin-solidity/contracts/math/SafeMath.sol\";\n\n\nimport \"./interfaces/IStableToken.sol\";\nimport \"./FractionUtil.sol\";\nimport \"../common/interfaces/IERC20Token.sol\";\nimport \"../common/interfaces/ICeloToken.sol\";\nimport \"../common/Initializable.sol\";\nimport \"../common/UsingRegistry.sol\";\n\n\n/**\n * @title An ERC20 compliant token with adjustable supply.\n */\n// solhint-disable-next-line max-line-length\ncontract StableToken is IStableToken, IERC20Token, ICeloToken, Ownable, Initializable, UsingRegistry {\n  using FractionUtil for FractionUtil.Fraction;\n  using SafeMath for uint256;\n\n  event MinterSet(address indexed _minter);\n\n  event InflationFactorUpdated(\n    uint256 numerator,\n    uint256 denominator,\n    uint256 lastUpdated\n  );\n\n  event InflationParametersUpdated(\n    uint256 numerator,\n    uint256 denominator,\n    uint256 updatePeriod,\n    uint256 lastUpdated\n  );\n\n  event Transfer(\n    address indexed from,\n    address indexed to,\n    uint256 value\n  );\n\n  event TransferComment(\n    string comment\n  );\n\n  address public minter;\n  string internal name_;\n  string internal symbol_;\n  uint8 internal decimals_;\n\n  // Stored as units. Value can be found using unitsToValue().\n  mapping(address => uint256) internal balances;\n  uint256 internal totalSupply_;\n\n  // Stored as values. Units can be found using valueToUnits().\n  mapping(address => mapping (address => uint256)) internal allowed;\n\n  // STABILITY FEE PARAMETERS\n\n  // The `rate` is how much the `factor` is adjusted by per `updatePeriod`.\n  // The `factor` describes units/value of StableToken, and is greater than or equal to 1.\n  // The `updatePeriod` governs often the `factor` is updated.\n  // `factorLastUpdated` indicates when the inflation factor was last updated.\n  struct InflationState {\n    FractionUtil.Fraction rate;\n    FractionUtil.Fraction factor;\n    uint256 updatePeriod;\n    uint256 factorLastUpdated;\n  }\n\n  InflationState inflationState;\n\n  /**\n   * @notice Throws if called by any account other than the minter.\n   */\n  modifier onlyMinter() {\n    require(msg.sender == minter, \"sender was not minter\");\n    _;\n  }\n\n  /**\n   * Only VM would be able to set the caller address to 0x0 unless someone\n   * really has the private key for 0x0\n   */\n  modifier onlyVm() {\n    require(msg.sender == address(0), \"sender was not vm (reserved 0x0 addr)\");\n    _;\n  }\n\n  /**\n   * @notice recomputes and updates inflation factor if more than `updatePeriod`\n   * has passed since last update.\n   */\n  modifier updateInflationFactor() {\n    FractionUtil.Fraction memory updatedInflationFactor;\n    uint256 lastUpdated;\n\n    (updatedInflationFactor, lastUpdated) = getUpdatedInflationFactor();\n\n    if (lastUpdated != inflationState.factorLastUpdated) {\n      inflationState.factor = updatedInflationFactor;\n      inflationState.factorLastUpdated = lastUpdated;\n      emit InflationFactorUpdated(\n        inflationState.factor.numerator,\n        inflationState.factor.denominator,\n        inflationState.factorLastUpdated\n      );\n    }\n    _;\n  }\n\n  /**\n   * @param _name The name of the stable token (English)\n   * @param _symbol A short symbol identifying the token (e.g. \"cUSD\")\n   * @param _decimals Tokens are divisible to this many decimal places.\n   * @param registryAddress Address of the Registry contract.\n   * @param inflationRateNumerator numerator of weekly inflation rate.\n   * @param inflationRateDenominator denominator of weekly inflation rate.\n   * @param inflationFactorUpdatePeriod how often the inflation factor is updated.\n   */\n  function initialize(\n    string calldata _name,\n    string calldata _symbol,\n    uint8 _decimals,\n    address registryAddress,\n    uint256 inflationRateNumerator,\n    uint256 inflationRateDenominator,\n    uint256 inflationFactorUpdatePeriod\n  )\n    external\n    initializer\n  {\n    require(\n      inflationRateNumerator != 0 && inflationRateDenominator != 0,\n      \"Must provide a non-zero inflation rate.\"\n    );\n    _transferOwnership(msg.sender);\n    totalSupply_ = 0;\n    name_ = _name;\n    symbol_ = _symbol;\n    decimals_ = _decimals;\n\n    inflationState.rate = FractionUtil.Fraction(inflationRateNumerator, inflationRateDenominator);\n    inflationState.factor = FractionUtil.Fraction(1, 1);\n    inflationState.updatePeriod = inflationFactorUpdatePeriod;\n    // solhint-disable-next-line not-rely-on-time\n    inflationState.factorLastUpdated = now;\n\n    setRegistry(registryAddress);\n  }\n\n  // Should this be tied to the registry?\n  /**\n   * @notice Updates 'minter'.\n   * @param _minter An address with special permissions to modify its balance\n   */\n  function setMinter(address _minter) external onlyOwner {\n    minter = _minter;\n    emit MinterSet(minter);\n  }\n\n  /**\n   * @notice Updates Inflation Parameters.\n   * @param rateNumerator numerator of new rate.\n   * @param rateDenominator denominator of new rate.\n   * @param updatePeriod how often inflationFactor is updated.\n   */\n  function setInflationParameters(\n    uint256 rateNumerator,\n    uint256 rateDenominator,\n    uint256 updatePeriod\n  )\n    external\n    onlyOwner\n    updateInflationFactor\n  {\n    require(\n      rateNumerator != 0 && rateDenominator != 0,\n      \"Must provide a non-zero inflation rate.\"\n    );\n    inflationState.rate = FractionUtil.Fraction(\n      rateNumerator,\n      rateDenominator\n    ).reduce();\n\n    inflationState.updatePeriod = updatePeriod;\n\n    emit InflationParametersUpdated(\n      inflationState.rate.numerator,\n      inflationState.rate.denominator,\n      inflationState.updatePeriod,\n      // solhint-disable-next-line not-rely-on-time\n      now\n    );\n  }\n\n  /**\n   * @notice Approve a user to transfer StableToken on behalf of another user.\n   * @param spender The address which is being approved to spend StableToken.\n   * @param value The amount of StableToken approved to the spender.\n   * @return True if the transaction succeeds.\n   */\n  function approve(\n    address spender,\n    uint256 value\n  )\n    external\n    updateInflationFactor\n    returns (bool)\n  {\n    allowed[msg.sender][spender] = value;\n    emit Approval(msg.sender, spender, value);\n    return true;\n  }\n\n  /**\n   * @notice Mints new StableToken and gives it to 'to'.\n   * @param to The account for which to mint tokens.\n   * @param value The amount of StableToken to mint.\n   */\n  function mint(\n    address to,\n    uint256 value\n  ) \n    external\n    onlyMinter\n    updateInflationFactor\n    returns (bool)\n  {\n    uint256 units = _valueToUnits(inflationState.factor, value);\n    totalSupply_ = totalSupply_.add(units);\n    balances[to] = balances[to].add(units);\n    emit Transfer(address(0), to, value);\n    return true;\n  }\n\n  /**\n   * @notice Transfer token for a specified address\n   * @param to The address to transfer to.\n   * @param value The amount to be transferred.\n   * @param comment The transfer comment.\n   * @return True if the transaction succeeds.\n   */\n  function transferWithComment(\n    address to,\n    uint256 value,\n    string calldata comment\n  )\n    external\n    updateInflationFactor\n    returns (bool)\n  {\n    bool succeeded = transfer(to, value);\n    emit TransferComment(comment);\n    return succeeded;\n  }\n\n  /**\n   * @notice Burns StableToken from the balance of 'minter'.\n   * @param value The amount of StableToken to burn.\n   */\n  function burn(uint256 value) external onlyMinter updateInflationFactor returns (bool) {\n    uint256 units = _valueToUnits(inflationState.factor, value);\n    require(units <= balances[msg.sender], \"value exceeded balance of sender\");\n    totalSupply_ = totalSupply_.sub(units);\n    balances[msg.sender] = balances[msg.sender].sub(units);\n    return true;\n  }\n\n  /**\n   * @notice Transfers StableToken from one address to another on behalf of a user.\n   * @param from The address to transfer StableToken from.\n   * @param to The address to transfer StableToken to.\n   * @param value The amount of StableToken to transfer.\n   * @return True if the transaction succeeds.\n   */\n  function transferFrom(\n    address from,\n    address to,\n    uint256 value\n  )\n    external\n    updateInflationFactor\n    returns (bool)\n  {\n    uint256 units = _valueToUnits(inflationState.factor, value);\n    require(to != address(0), \"transfer attempted to reserved address 0x0\");\n    require(units <= balances[from], \"transfer value exceeded balance of sender\");\n    require(\n      value <= allowed[from][msg.sender],\n      \"transfer value exceeded sender's allowance for recipient\"\n    );\n\n    balances[to] = balances[to].add(units);\n    balances[from] = balances[from].sub(units);\n    allowed[from][msg.sender] = allowed[from][msg.sender].sub(units);\n    emit Transfer(from, to, value);\n    return true;\n  }\n\n  /**\n   * @return The name of the stable token.\n   */\n  function name() external view returns (string memory) {\n    return name_;\n  }\n\n  /**\n   * @return The symbol of the stable token.\n   */\n  function symbol() external view returns (string memory) {\n    return symbol_;\n  }\n\n  /**\n   * @return The number of decimal places to which StableToken is divisible.\n   */\n  function decimals() external view returns (uint8) {\n    return decimals_;\n  }\n\n  /**\n   * @notice Gets the amount of owner's StableToken allowed to be spent by spender.\n   * @param owner The owner of the StableToken.\n   * @param spender The spender of the StableToken.\n   * @return The amount of StableToken owner is allowing spender to spend.\n   */\n  function allowance(address owner, address spender) external view returns (uint256) {\n    return allowed[owner][spender];\n  }\n\n  /**\n   * @notice Gets the balance of the specified address using the presently stored inflation factor.\n   * @param owner The address to query the balance of.\n   * @return The balance of the specified address.\n   */\n  function balanceOf(address owner) external view returns (uint256) {\n    return unitsToValue(balances[owner]);\n  }\n\n  /**\n   * @return The total value of StableToken in existence\n   * @dev Though totalSupply_ is stored in units, this returns value.\n   */\n  function totalSupply() external view returns (uint256) {\n    return unitsToValue(totalSupply_);\n  }\n\n  /**\n   * @notice gets inflation parameters.\n   * @return rateNumerator, rateDenominator,\n   * factorNumerator, factorDenominator,\n   * updatePeriod\n   * factorLastUpdated\n   */\n  function getInflationParameters()\n    external\n    view\n    returns (uint256, uint256, uint256, uint256, uint256, uint256)\n  {\n    return (\n      inflationState.rate.numerator,\n      inflationState.rate.denominator,\n      inflationState.factor.numerator,\n      inflationState.factor.denominator,\n      inflationState.updatePeriod,\n      inflationState.factorLastUpdated\n    );\n  }\n\n  /**\n   * @notice Returns the units for a given value given the current inflation factor.\n   * @param value The value to convert to units.\n   * @return The units corresponding to `value` given the current inflation factor.\n   * @dev We don't compute the updated inflationFactor here because\n   * we assume any function calling this will have updated the inflation factor.\n   */\n  function valueToUnits(uint256 value) external view returns (uint256) {\n    FractionUtil.Fraction memory updatedInflationFactor;\n\n    (updatedInflationFactor, ) = getUpdatedInflationFactor();\n    return _valueToUnits(updatedInflationFactor, value);\n  }\n\n  /**\n   * @notice Returns the value of a given number of units given the current inflation factor.\n   * @param units The units to convert to value.\n   * @return The value corresponding to `units` given the current inflation factor.\n   */\n  function unitsToValue(uint256 units) public view returns (uint256) {\n    FractionUtil.Fraction memory updatedInflationFactor;\n\n    (updatedInflationFactor, ) = getUpdatedInflationFactor();\n\n    return updatedInflationFactor.inverse().mul(units);\n  }\n\n  /**\n   * @notice Returns the units for a given value given the current inflation factor.\n   * @param value The value to convert to units.\n   * @return The units corresponding to `value` given the current inflation factor.\n   * @dev we assume any function calling this will have updated the inflation factor.\n   */\n  function _valueToUnits(\n    FractionUtil.Fraction memory inflationFactor,\n    uint256 value\n  )\n    private\n    pure\n    returns (uint256)\n  {\n    return inflationFactor.mul(value);\n  }\n\n  /**\n   * @notice Computes the up-to-date inflation factor.\n   * @return numerator, denominator of the current inflation factor.\n   * @return lastUpdated time when the returned inflation factor went into effect.\n   */\n  function getUpdatedInflationFactor()\n    private\n    view\n    returns (FractionUtil.Fraction memory, uint256)\n  {\n    /* solhint-disable not-rely-on-time */\n    if (now < inflationState.factorLastUpdated.add(inflationState.updatePeriod)) {\n      return (inflationState.factor, inflationState.factorLastUpdated);\n    }\n\n    uint256 numerator;\n    uint256 denominator;\n\n    // TODO: handle retroactive updates given decreases to updatePeriod:\n    // https://github.com/celo-org/celo-monorepo/issues/3929\n    uint256 timesToApplyInflation = now.sub(inflationState.factorLastUpdated).div(\n      inflationState.updatePeriod\n    );\n\n    (numerator, denominator) = fractionMulExp(\n      inflationState.factor.numerator,\n      inflationState.factor.denominator,\n      inflationState.rate.numerator,\n      inflationState.rate.denominator,\n      timesToApplyInflation,\n      decimals_\n    );\n\n    // This should never happen. If something went wrong updating the\n    // inflation factor, keep the previous factor\n    if (numerator == 0 || denominator == 0) {\n      return (inflationState.factor, inflationState.factorLastUpdated);\n    }\n\n    FractionUtil.Fraction memory currentInflationFactor = FractionUtil.Fraction(\n      numerator,\n      denominator\n    ).reduce();\n\n    uint256 lastUpdated = inflationState.factorLastUpdated.add(\n      inflationState.updatePeriod.mul(timesToApplyInflation)\n    );\n\n    return (currentInflationFactor, lastUpdated);\n    /* solhint-enable not-rely-on-time */\n  }\n\n  /**\n   * @notice calculate a * b^x for fractions a, b to `decimals` precision\n   * @param aNumerator Numerator of first fraction\n   * @param aDenominator Denominator of first fraction\n   * @param bNumerator Numerator of exponentiated fraction\n   * @param bDenominator Denominator of exponentiated fraction\n   * @param exponent exponent to raise b to\n   * @param _decimals precision\n   * @return numererator/denominator of the computed quantity (not reduced).\n   */\n  function fractionMulExp(\n    uint256 aNumerator,\n    uint256 aDenominator,\n    uint256 bNumerator,\n    uint256 bDenominator,\n    uint256 exponent,\n    uint256 _decimals\n  )\n    public\n    view\n    returns(uint256, uint256)\n  {\n    require(aDenominator != 0 && bDenominator != 0);\n    uint256 returnNumerator;\n    uint256 returnDenominator;\n    // solhint-disable-next-line no-inline-assembly\n    assembly {\n      let newCallDataPosition := mload(0x40)\n      mstore(0x40, add(newCallDataPosition, calldatasize))\n      mstore(newCallDataPosition, aNumerator)\n      mstore(add(newCallDataPosition, 32), aDenominator)\n      mstore(add(newCallDataPosition, 64), bNumerator)\n      mstore(add(newCallDataPosition, 96), bDenominator)\n      mstore(add(newCallDataPosition, 128), exponent)\n      mstore(add(newCallDataPosition, 160), _decimals)\n      let delegatecallSuccess := staticcall(\n        1050,                 // estimated gas cost for this function\n        0xfc,\n        newCallDataPosition,\n        0xc4,                 // input size, 6 * 32 = 192 bytes\n        0,\n        0\n      )\n\n      let returnDataSize := returndatasize\n      let returnDataPosition := mload(0x40)\n      mstore(0x40, add(returnDataPosition, returnDataSize))\n      returndatacopy(returnDataPosition, 0, returnDataSize)\n\n      switch delegatecallSuccess\n      case 0 {\n        revert(returnDataPosition, returnDataSize)\n      }\n      default {\n        returnNumerator := mload(returnDataPosition)\n        returnDenominator := mload(add(returnDataPosition, 32))\n      }\n    }\n    return (returnNumerator, returnDenominator);\n  }\n\n  /**\n   * @notice Transfers `value` from `msg.sender` to `to`\n   * @param to The address to transfer to.\n   * @param value The amount to be transferred.\n   */\n   // solhint-disable-next-line no-simple-event-func-name\n  function transfer(address to, uint256 value) public updateInflationFactor returns (bool) {\n    return _transfer(to, value);\n  }\n\n  /**\n   * @notice Deduct balance for making payments for gas in this StableToken currency.\n   * @param from The account to debit balance from\n   * @param value The value of balance to debit\n   */\n  function debitFrom(address from, uint256 value) public onlyVm updateInflationFactor {\n    uint256 units = _valueToUnits(inflationState.factor, value);\n    totalSupply_ = totalSupply_.sub(units);\n    balances[from] = balances[from].sub(units);\n  }\n\n  /**\n   * @notice Refund balance after making payments for gas in this StableToken currency.\n   * @param to The account to credit balance to\n   * @param value The amount of balance to credit\n   * @dev We can assume that the inflation factor is up to date as `debitFrom`\n   * will have been called in the same transaction\n   */\n  function creditTo(address to, uint256 value) public onlyVm {\n    uint256 units = _valueToUnits(inflationState.factor, value);\n    totalSupply_ = totalSupply_.add(units);\n    balances[to] = balances[to].add(units);\n  }\n\n  /**\n   * @notice Transfers StableToken from one address to another\n   * @param to The address to transfer StableToken to.\n   * @param value The amount of StableToken to be transferred.\n   */\n  function _transfer(address to, uint256 value) internal returns (bool) {\n    require(to != address(0), \"transfer attempted to reserved address 0x0\");\n    uint256 units = _valueToUnits(inflationState.factor, value);\n    require(balances[msg.sender] >= units, \"transfer value exceeded balance of sender\");\n    balances[msg.sender] = balances[msg.sender].sub(units);\n    balances[to] = balances[to].add(units);\n    emit Transfer(msg.sender, to, value);\n    return true;\n  }\n\n}\n",
  "sourcePath": "/Users/yorhodes/celo/celo-monorepo/packages/protocol/contracts/stability/StableToken.sol",
  "compiler": {
    "name": "solc",
    "version": "0.5.8+commit.23d335f2.Emscripten.clang"
  },
  "schemaVersion": "3.0.9",
  "updatedAt": "2019-07-17T03:09:18.999Z",
  "devdoc": {
    "methods": {
      "allowance(address,address)": {
        "params": {
          "owner": "The owner of the StableToken.",
          "spender": "The spender of the StableToken."
        },
        "return": "The amount of StableToken owner is allowing spender to spend."
      },
      "approve(address,uint256)": {
        "params": {
          "spender": "The address which is being approved to spend StableToken.",
          "value": "The amount of StableToken approved to the spender."
        },
        "return": "True if the transaction succeeds."
      },
      "balanceOf(address)": {
        "params": {
          "owner": "The address to query the balance of."
        },
        "return": "The balance of the specified address."
      },
      "burn(uint256)": {
        "params": {
          "value": "The amount of StableToken to burn."
        }
      },
      "creditTo(address,uint256)": {
        "details": "We can assume that the inflation factor is up to date as `debitFrom` will have been called in the same transaction",
        "params": {
          "to": "The account to credit balance to",
          "value": "The amount of balance to credit"
        }
      },
      "debitFrom(address,uint256)": {
        "params": {
          "from": "The account to debit balance from",
          "value": "The value of balance to debit"
        }
      },
      "decimals()": {
        "return": "The number of decimal places to which StableToken is divisible."
      },
      "fractionMulExp(uint256,uint256,uint256,uint256,uint256,uint256)": {
        "params": {
          "_decimals": "precision",
          "aDenominator": "Denominator of first fraction",
          "aNumerator": "Numerator of first fraction",
          "bDenominator": "Denominator of exponentiated fraction",
          "bNumerator": "Numerator of exponentiated fraction",
          "exponent": "exponent to raise b to"
        },
        "return": "numererator/denominator of the computed quantity (not reduced)."
      },
      "getInflationParameters()": {
        "return": "rateNumerator, rateDenominator, factorNumerator, factorDenominator, updatePeriod factorLastUpdated"
      },
      "initialize(string,string,uint8,address,uint256,uint256,uint256)": {
        "params": {
          "_decimals": "Tokens are divisible to this many decimal places.",
          "_name": "The name of the stable token (English)",
          "_symbol": "A short symbol identifying the token (e.g. \"cUSD\")",
          "inflationFactorUpdatePeriod": "how often the inflation factor is updated.",
          "inflationRateDenominator": "denominator of weekly inflation rate.",
          "inflationRateNumerator": "numerator of weekly inflation rate.",
          "registryAddress": "Address of the Registry contract."
        }
      },
      "isOwner()": {
        "return": "true if `msg.sender` is the owner of the contract."
      },
      "mint(address,uint256)": {
        "params": {
          "to": "The account for which to mint tokens.",
          "value": "The amount of StableToken to mint."
        }
      },
      "name()": {
        "return": "The name of the stable token."
      },
      "owner()": {
        "return": "the address of the owner."
      },
      "renounceOwnership()": {
        "details": "Allows the current owner to relinquish control of the contract. It will not be possible to call the functions with the `onlyOwner` modifier anymore."
      },
      "setInflationParameters(uint256,uint256,uint256)": {
        "params": {
          "rateDenominator": "denominator of new rate.",
          "rateNumerator": "numerator of new rate.",
          "updatePeriod": "how often inflationFactor is updated."
        }
      },
      "setMinter(address)": {
        "params": {
          "_minter": "An address with special permissions to modify its balance"
        }
      },
      "setRegistry(address)": {
        "params": {
          "registryAddress": "The address of a registry contract for routing to other contracts."
        }
      },
      "symbol()": {
        "return": "The symbol of the stable token."
      },
      "totalSupply()": {
        "details": "Though totalSupply_ is stored in units, this returns value.",
        "return": "The total value of StableToken in existence"
      },
      "transfer(address,uint256)": {
        "params": {
          "to": "The address to transfer to.",
          "value": "The amount to be transferred."
        }
      },
      "transferFrom(address,address,uint256)": {
        "params": {
          "from": "The address to transfer StableToken from.",
          "to": "The address to transfer StableToken to.",
          "value": "The amount of StableToken to transfer."
        },
        "return": "True if the transaction succeeds."
      },
      "transferOwnership(address)": {
        "details": "Allows the current owner to transfer control of the contract to a newOwner.",
        "params": {
          "newOwner": "The address to transfer ownership to."
        }
      },
      "transferWithComment(address,uint256,string)": {
        "params": {
          "comment": "The transfer comment.",
          "to": "The address to transfer to.",
          "value": "The amount to be transferred."
        },
        "return": "True if the transaction succeeds."
      },
      "unitsToValue(uint256)": {
        "params": {
          "units": "The units to convert to value."
        },
        "return": "The value corresponding to `units` given the current inflation factor."
      },
      "valueToUnits(uint256)": {
        "details": "We don't compute the updated inflationFactor here because we assume any function calling this will have updated the inflation factor.",
        "params": {
          "value": "The value to convert to units."
        },
        "return": "The units corresponding to `value` given the current inflation factor."
      }
    },
    "title": "An ERC20 compliant token with adjustable supply."
  },
  "userdoc": {
    "methods": {
      "allowance(address,address)": {
        "notice": "Gets the amount of owner's StableToken allowed to be spent by spender."
      },
      "approve(address,uint256)": {
        "notice": "Approve a user to transfer StableToken on behalf of another user."
      },
      "balanceOf(address)": {
        "notice": "Gets the balance of the specified address using the presently stored inflation factor."
      },
      "burn(uint256)": {
        "notice": "Burns StableToken from the balance of 'minter'."
      },
      "creditTo(address,uint256)": {
        "notice": "Refund balance after making payments for gas in this StableToken currency."
      },
      "debitFrom(address,uint256)": {
        "notice": "Deduct balance for making payments for gas in this StableToken currency."
      },
      "fractionMulExp(uint256,uint256,uint256,uint256,uint256,uint256)": {
        "notice": "calculate a * b^x for fractions a, b to `decimals` precision"
      },
      "getInflationParameters()": {
        "notice": "gets inflation parameters."
      },
      "mint(address,uint256)": {
        "notice": "Mints new StableToken and gives it to 'to'."
      },
      "renounceOwnership()": {
        "notice": "Renouncing ownership will leave the contract without an owner, thereby removing any functionality that is only available to the owner."
      },
      "setInflationParameters(uint256,uint256,uint256)": {
        "notice": "Updates Inflation Parameters."
      },
      "setMinter(address)": {
        "notice": "Updates 'minter'."
      },
      "setRegistry(address)": {
        "notice": "Updates the address pointing to a Registry contract."
      },
      "transfer(address,uint256)": {
        "notice": "Transfers `value` from `msg.sender` to `to`"
      },
      "transferFrom(address,address,uint256)": {
        "notice": "Transfers StableToken from one address to another on behalf of a user."
      },
      "transferWithComment(address,uint256,string)": {
        "notice": "Transfer token for a specified address"
      },
      "unitsToValue(uint256)": {
        "notice": "Returns the value of a given number of units given the current inflation factor."
      },
      "valueToUnits(uint256)": {
        "notice": "Returns the units for a given value given the current inflation factor."
      }
    }
  }
}