{
  "contractName": "Validators",
  "abi": [
    {
      "constant": true,
      "inputs": [],
      "name": "initialized",
      "outputs": [
        {
          "name": "",
          "type": "bool"
        }
      ],
      "payable": false,
      "stateMutability": "view",
      "type": "function"
    },
    {
      "constant": true,
      "inputs": [],
      "name": "minElectableValidators",
      "outputs": [
        {
          "name": "",
          "type": "uint256"
        }
      ],
      "payable": false,
      "stateMutability": "view",
      "type": "function"
    },
    {
      "constant": false,
      "inputs": [],
      "name": "renounceOwnership",
      "outputs": [],
      "payable": false,
      "stateMutability": "nonpayable",
      "type": "function"
    },
    {
      "constant": true,
      "inputs": [],
      "name": "registry",
      "outputs": [
        {
          "name": "",
          "type": "address"
        }
      ],
      "payable": false,
      "stateMutability": "view",
      "type": "function"
    },
    {
      "constant": true,
      "inputs": [],
      "name": "owner",
      "outputs": [
        {
          "name": "",
          "type": "address"
        }
      ],
      "payable": false,
      "stateMutability": "view",
      "type": "function"
    },
    {
      "constant": true,
      "inputs": [],
      "name": "isOwner",
      "outputs": [
        {
          "name": "",
          "type": "bool"
        }
      ],
      "payable": false,
      "stateMutability": "view",
      "type": "function"
    },
    {
      "constant": true,
      "inputs": [
        {
          "name": "",
          "type": "address"
        }
      ],
      "name": "voters",
      "outputs": [
        {
          "name": "",
          "type": "address"
        }
      ],
      "payable": false,
      "stateMutability": "view",
      "type": "function"
    },
    {
      "constant": false,
      "inputs": [
        {
          "name": "registryAddress",
          "type": "address"
        }
      ],
      "name": "setRegistry",
      "outputs": [],
      "payable": false,
      "stateMutability": "nonpayable",
      "type": "function"
    },
    {
      "constant": true,
      "inputs": [],
      "name": "maxElectableValidators",
      "outputs": [
        {
          "name": "",
          "type": "uint256"
        }
      ],
      "payable": false,
      "stateMutability": "view",
      "type": "function"
    },
    {
      "constant": false,
      "inputs": [
        {
          "name": "newOwner",
          "type": "address"
        }
      ],
      "name": "transferOwnership",
      "outputs": [],
      "payable": false,
      "stateMutability": "nonpayable",
      "type": "function"
    },
    {
      "anonymous": false,
      "inputs": [
        {
          "indexed": false,
          "name": "minElectableValidators",
          "type": "uint256"
        }
      ],
      "name": "MinElectableValidatorsSet",
      "type": "event"
    },
    {
      "anonymous": false,
      "inputs": [
        {
          "indexed": false,
          "name": "maxElectableValidators",
          "type": "uint256"
        }
      ],
      "name": "MaxElectableValidatorsSet",
      "type": "event"
    },
    {
      "anonymous": false,
      "inputs": [
        {
          "indexed": false,
          "name": "value",
          "type": "uint256"
        },
        {
          "indexed": false,
          "name": "noticePeriod",
          "type": "uint256"
        }
      ],
      "name": "RegistrationRequirementSet",
      "type": "event"
    },
    {
      "anonymous": false,
      "inputs": [
        {
          "indexed": true,
          "name": "validator",
          "type": "address"
        },
        {
          "indexed": false,
          "name": "identifier",
          "type": "string"
        },
        {
          "indexed": false,
          "name": "name",
          "type": "string"
        },
        {
          "indexed": false,
          "name": "url",
          "type": "string"
        },
        {
          "indexed": false,
          "name": "publicKey",
          "type": "bytes"
        }
      ],
      "name": "ValidatorRegistered",
      "type": "event"
    },
    {
      "anonymous": false,
      "inputs": [
        {
          "indexed": true,
          "name": "validator",
          "type": "address"
        }
      ],
      "name": "ValidatorDeregistered",
      "type": "event"
    },
    {
      "anonymous": false,
      "inputs": [
        {
          "indexed": true,
          "name": "validator",
          "type": "address"
        },
        {
          "indexed": true,
          "name": "group",
          "type": "address"
        }
      ],
      "name": "ValidatorAffiliated",
      "type": "event"
    },
    {
      "anonymous": false,
      "inputs": [
        {
          "indexed": true,
          "name": "validator",
          "type": "address"
        },
        {
          "indexed": true,
          "name": "group",
          "type": "address"
        }
      ],
      "name": "ValidatorDeaffiliated",
      "type": "event"
    },
    {
      "anonymous": false,
      "inputs": [
        {
          "indexed": true,
          "name": "group",
          "type": "address"
        },
        {
          "indexed": false,
          "name": "identifier",
          "type": "string"
        },
        {
          "indexed": false,
          "name": "name",
          "type": "string"
        },
        {
          "indexed": false,
          "name": "url",
          "type": "string"
        }
      ],
      "name": "ValidatorGroupRegistered",
      "type": "event"
    },
    {
      "anonymous": false,
      "inputs": [
        {
          "indexed": true,
          "name": "group",
          "type": "address"
        }
      ],
      "name": "ValidatorGroupDeregistered",
      "type": "event"
    },
    {
      "anonymous": false,
      "inputs": [
        {
          "indexed": true,
          "name": "group",
          "type": "address"
        },
        {
          "indexed": true,
          "name": "validator",
          "type": "address"
        }
      ],
      "name": "ValidatorGroupMemberAdded",
      "type": "event"
    },
    {
      "anonymous": false,
      "inputs": [
        {
          "indexed": true,
          "name": "group",
          "type": "address"
        },
        {
          "indexed": true,
          "name": "validator",
          "type": "address"
        }
      ],
      "name": "ValidatorGroupMemberRemoved",
      "type": "event"
    },
    {
      "anonymous": false,
      "inputs": [
        {
          "indexed": true,
          "name": "group",
          "type": "address"
        },
        {
          "indexed": true,
          "name": "validator",
          "type": "address"
        }
      ],
      "name": "ValidatorGroupMemberReordered",
      "type": "event"
    },
    {
      "anonymous": false,
      "inputs": [
        {
          "indexed": true,
          "name": "group",
          "type": "address"
        }
      ],
      "name": "ValidatorGroupEmptied",
      "type": "event"
    },
    {
      "anonymous": false,
      "inputs": [
        {
          "indexed": true,
          "name": "account",
          "type": "address"
        },
        {
          "indexed": true,
          "name": "group",
          "type": "address"
        },
        {
          "indexed": false,
          "name": "weight",
          "type": "uint256"
        }
      ],
      "name": "ValidatorGroupVoteCast",
      "type": "event"
    },
    {
      "anonymous": false,
      "inputs": [
        {
          "indexed": true,
          "name": "account",
          "type": "address"
        },
        {
          "indexed": true,
          "name": "group",
          "type": "address"
        },
        {
          "indexed": false,
          "name": "weight",
          "type": "uint256"
        }
      ],
      "name": "ValidatorGroupVoteRevoked",
      "type": "event"
    },
    {
      "anonymous": false,
      "inputs": [
        {
          "indexed": true,
          "name": "registryAddress",
          "type": "address"
        }
      ],
      "name": "RegistrySet",
      "type": "event"
    },
    {
      "anonymous": false,
      "inputs": [
        {
          "indexed": true,
          "name": "previousOwner",
          "type": "address"
        },
        {
          "indexed": true,
          "name": "newOwner",
          "type": "address"
        }
      ],
      "name": "OwnershipTransferred",
      "type": "event"
    },
    {
      "constant": false,
      "inputs": [
        {
          "name": "registryAddress",
          "type": "address"
        },
        {
          "name": "_minElectableValidators",
          "type": "uint256"
        },
        {
          "name": "_maxElectableValidators",
          "type": "uint256"
        },
        {
          "name": "requirementValue",
          "type": "uint256"
        },
        {
          "name": "requirementNoticePeriod",
          "type": "uint256"
        }
      ],
      "name": "initialize",
      "outputs": [],
      "payable": false,
      "stateMutability": "nonpayable",
      "type": "function"
    },
    {
      "constant": false,
      "inputs": [
        {
          "name": "_minElectableValidators",
          "type": "uint256"
        }
      ],
      "name": "setMinElectableValidators",
      "outputs": [
        {
          "name": "",
          "type": "bool"
        }
      ],
      "payable": false,
      "stateMutability": "nonpayable",
      "type": "function"
    },
    {
      "constant": false,
      "inputs": [
        {
          "name": "_maxElectableValidators",
          "type": "uint256"
        }
      ],
      "name": "setMaxElectableValidators",
      "outputs": [
        {
          "name": "",
          "type": "bool"
        }
      ],
      "payable": false,
      "stateMutability": "nonpayable",
      "type": "function"
    },
    {
      "constant": false,
      "inputs": [
        {
          "name": "value",
          "type": "uint256"
        },
        {
          "name": "noticePeriod",
          "type": "uint256"
        }
      ],
      "name": "setRegistrationRequirement",
      "outputs": [
        {
          "name": "",
          "type": "bool"
        }
      ],
      "payable": false,
      "stateMutability": "nonpayable",
      "type": "function"
    },
    {
      "constant": false,
      "inputs": [
        {
          "name": "identifier",
          "type": "string"
        },
        {
          "name": "name",
          "type": "string"
        },
        {
          "name": "url",
          "type": "string"
        },
        {
          "name": "publicKey",
          "type": "bytes"
        },
        {
          "name": "noticePeriod",
          "type": "uint256"
        }
      ],
      "name": "registerValidator",
      "outputs": [
        {
          "name": "",
          "type": "bool"
        }
      ],
      "payable": false,
      "stateMutability": "nonpayable",
      "type": "function"
    },
    {
      "constant": false,
      "inputs": [
        {
          "name": "index",
          "type": "uint256"
        }
      ],
      "name": "deregisterValidator",
      "outputs": [
        {
          "name": "",
          "type": "bool"
        }
      ],
      "payable": false,
      "stateMutability": "nonpayable",
      "type": "function"
    },
    {
      "constant": false,
      "inputs": [
        {
          "name": "group",
          "type": "address"
        }
      ],
      "name": "affiliate",
      "outputs": [
        {
          "name": "",
          "type": "bool"
        }
      ],
      "payable": false,
      "stateMutability": "nonpayable",
      "type": "function"
    },
    {
      "constant": false,
      "inputs": [],
      "name": "deaffiliate",
      "outputs": [
        {
          "name": "",
          "type": "bool"
        }
      ],
      "payable": false,
      "stateMutability": "nonpayable",
      "type": "function"
    },
    {
      "constant": false,
      "inputs": [
        {
          "name": "identifier",
          "type": "string"
        },
        {
          "name": "name",
          "type": "string"
        },
        {
          "name": "url",
          "type": "string"
        },
        {
          "name": "noticePeriod",
          "type": "uint256"
        }
      ],
      "name": "registerValidatorGroup",
      "outputs": [
        {
          "name": "",
          "type": "bool"
        }
      ],
      "payable": false,
      "stateMutability": "nonpayable",
      "type": "function"
    },
    {
      "constant": false,
      "inputs": [
        {
          "name": "index",
          "type": "uint256"
        }
      ],
      "name": "deregisterValidatorGroup",
      "outputs": [
        {
          "name": "",
          "type": "bool"
        }
      ],
      "payable": false,
      "stateMutability": "nonpayable",
      "type": "function"
    },
    {
      "constant": false,
      "inputs": [
        {
          "name": "validator",
          "type": "address"
        }
      ],
      "name": "addMember",
      "outputs": [
        {
          "name": "",
          "type": "bool"
        }
      ],
      "payable": false,
      "stateMutability": "nonpayable",
      "type": "function"
    },
    {
      "constant": false,
      "inputs": [
        {
          "name": "validator",
          "type": "address"
        }
      ],
      "name": "removeMember",
      "outputs": [
        {
          "name": "",
          "type": "bool"
        }
      ],
      "payable": false,
      "stateMutability": "nonpayable",
      "type": "function"
    },
    {
      "constant": false,
      "inputs": [
        {
          "name": "validator",
          "type": "address"
        },
        {
          "name": "lesserMember",
          "type": "address"
        },
        {
          "name": "greaterMember",
          "type": "address"
        }
      ],
      "name": "reorderMember",
      "outputs": [
        {
          "name": "",
          "type": "bool"
        }
      ],
      "payable": false,
      "stateMutability": "nonpayable",
      "type": "function"
    },
    {
      "constant": false,
      "inputs": [
        {
          "name": "group",
          "type": "address"
        },
        {
          "name": "lesser",
          "type": "address"
        },
        {
          "name": "greater",
          "type": "address"
        }
      ],
      "name": "vote",
      "outputs": [
        {
          "name": "",
          "type": "bool"
        }
      ],
      "payable": false,
      "stateMutability": "nonpayable",
      "type": "function"
    },
    {
      "constant": false,
      "inputs": [
        {
          "name": "lesser",
          "type": "address"
        },
        {
          "name": "greater",
          "type": "address"
        }
      ],
      "name": "revokeVote",
      "outputs": [
        {
          "name": "",
          "type": "bool"
        }
      ],
      "payable": false,
      "stateMutability": "nonpayable",
      "type": "function"
    },
    {
      "constant": true,
      "inputs": [
        {
          "name": "account",
          "type": "address"
        }
      ],
      "name": "getValidator",
      "outputs": [
        {
          "name": "",
          "type": "string"
        },
        {
          "name": "",
          "type": "string"
        },
        {
          "name": "",
          "type": "string"
        },
        {
          "name": "",
          "type": "bytes"
        },
        {
          "name": "",
          "type": "address"
        }
      ],
      "payable": false,
      "stateMutability": "view",
      "type": "function"
    },
    {
      "constant": true,
      "inputs": [
        {
          "name": "account",
          "type": "address"
        }
      ],
      "name": "getValidatorGroup",
      "outputs": [
        {
          "name": "",
          "type": "string"
        },
        {
          "name": "",
          "type": "string"
        },
        {
          "name": "",
          "type": "string"
        },
        {
          "name": "",
          "type": "address[]"
        }
      ],
      "payable": false,
      "stateMutability": "view",
      "type": "function"
    },
    {
      "constant": true,
      "inputs": [],
      "name": "getValidatorGroupVotes",
      "outputs": [
        {
          "name": "",
          "type": "address[]"
        },
        {
          "name": "",
          "type": "uint256[]"
        }
      ],
      "payable": false,
      "stateMutability": "view",
      "type": "function"
    },
    {
      "constant": true,
      "inputs": [
        {
          "name": "group",
          "type": "address"
        }
      ],
      "name": "getVotesReceived",
      "outputs": [
        {
          "name": "",
          "type": "uint256"
        }
      ],
      "payable": false,
      "stateMutability": "view",
      "type": "function"
    },
    {
      "constant": true,
      "inputs": [],
      "name": "getRegistrationRequirement",
      "outputs": [
        {
          "name": "",
          "type": "uint256"
        },
        {
          "name": "",
          "type": "uint256"
        }
      ],
      "payable": false,
      "stateMutability": "view",
      "type": "function"
    },
    {
      "constant": true,
      "inputs": [],
      "name": "getRegisteredValidators",
      "outputs": [
        {
          "name": "",
          "type": "address[]"
        }
      ],
      "payable": false,
      "stateMutability": "view",
      "type": "function"
    },
    {
      "constant": true,
      "inputs": [],
      "name": "getRegisteredValidatorGroups",
      "outputs": [
        {
          "name": "",
          "type": "address[]"
        }
      ],
      "payable": false,
      "stateMutability": "view",
      "type": "function"
    },
    {
      "constant": true,
      "inputs": [
        {
          "name": "account",
          "type": "address"
        }
      ],
      "name": "isValidating",
      "outputs": [
        {
          "name": "",
          "type": "bool"
        }
      ],
      "payable": false,
      "stateMutability": "view",
      "type": "function"
    },
    {
      "constant": true,
      "inputs": [
        {
          "name": "account",
          "type": "address"
        }
      ],
      "name": "isVoting",
      "outputs": [
        {
          "name": "",
          "type": "bool"
        }
      ],
      "payable": false,
      "stateMutability": "view",
      "type": "function"
    },
    {
      "constant": true,
      "inputs": [],
      "name": "getValidators",
      "outputs": [
        {
          "name": "",
          "type": "address[]"
        }
      ],
      "payable": false,
      "stateMutability": "view",
      "type": "function"
    },
    {
      "constant": true,
      "inputs": [
        {
          "name": "account",
          "type": "address"
        }
      ],
      "name": "isValidatorGroup",
      "outputs": [
        {
          "name": "",
          "type": "bool"
        }
      ],
      "payable": false,
      "stateMutability": "view",
      "type": "function"
    },
    {
      "constant": true,
      "inputs": [
        {
          "name": "account",
          "type": "address"
        }
      ],
      "name": "isValidator",
      "outputs": [
        {
          "name": "",
          "type": "bool"
        }
      ],
      "payable": false,
      "stateMutability": "view",
      "type": "function"
    },
    {
      "constant": true,
      "inputs": [
        {
          "name": "account",
          "type": "address"
        },
        {
          "name": "noticePeriod",
          "type": "uint256"
        }
      ],
      "name": "meetsRegistrationRequirements",
      "outputs": [
        {
          "name": "",
          "type": "bool"
        }
      ],
      "payable": false,
      "stateMutability": "view",
      "type": "function"
    }
  ],
  "bytecode": "0x6080604052336000806101000a81548173ffffffffffffffffffffffffffffffffffffffff021916908373ffffffffffffffffffffffffffffffffffffffff1602179055506000809054906101000a900473ffffffffffffffffffffffffffffffffffffffff1673ffffffffffffffffffffffffffffffffffffffff16600073ffffffffffffffffffffffffffffffffffffffff167f8be0079c531659141344cd1fd0a4f28419497f9722a3daafe3b4186f6b6457e060405160405180910390a36001808190555061593f806100d66000396000f3fe608060405234801561001057600080fd5b50600436106102325760003560e01c8063988dcd1f11610130578063b7ab4db5116100b8578063f2fde38b1161007c578063f2fde38b1461125c578063f7610be0146112a0578063f92ad2191461133c578063facd743b146113a8578063fffdfccb1461140457610232565b8063b7ab4db5146110ff578063ca6d56dc1461115e578063d5419e06146111ba578063d93ab5ad146111df578063da5902ce1461123e57610232565b8063a3ec138d116100ff578063a3ec138d14610f2f578063a91ee0dc14610fb3578063acb7cf2814610ff7578063aee1d4321461105d578063b591d3a5146110a357610232565b8063988dcd1f14610c145780639b9d516114610cb05780639c97ea7f14610e8d5780639ca4e88714610ee957610232565b80635f8dd649116101be5780637b103999116101825780637b103999146109d35780638b16b1c614610a1d5780638da5cb5b14610a635780638f32d59b14610aad57806393066c6114610acf57610232565b80635f8dd649146108b957806360fb822c14610915578063631f82561461095b578063715018a61461097957806377a5140c1461098357610232565b80632f4b379b116102055780632f4b379b1461059057806331f45f7a146105e85780633de6afe4146106645780633f270898146107fe57806352f13a4e1461085d57610232565b80630b1ca49a14610237578063158ef93e146102935780631904bb2e146102b55780631b06dd0b146104e9575b600080fd5b6102796004803603602081101561024d57600080fd5b81019080803573ffffffffffffffffffffffffffffffffffffffff169060200190929190505050611426565b604051808215151515815260200191505060405180910390f35b61029b611490565b604051808215151515815260200191505060405180910390f35b6102f7600480360360208110156102cb57600080fd5b81019080803573ffffffffffffffffffffffffffffffffffffffff1690602001909291905050506114a3565b60405180806020018060200180602001806020018673ffffffffffffffffffffffffffffffffffffffff1673ffffffffffffffffffffffffffffffffffffffff16815260200185810385528a818151815260200191508051906020019080838360005b8381101561037557808201518184015260208101905061035a565b50505050905090810190601f1680156103a25780820380516001836020036101000a031916815260200191505b50858103845289818151815260200191508051906020019080838360005b838110156103db5780820151818401526020810190506103c0565b50505050905090810190601f1680156104085780820380516001836020036101000a031916815260200191505b50858103835288818151815260200191508051906020019080838360005b83811015610441578082015181840152602081019050610426565b50505050905090810190601f16801561046e5780820380516001836020036101000a031916815260200191505b50858103825287818151815260200191508051906020019080838360005b838110156104a757808201518184015260208101905061048c565b50505050905090810190601f1680156104d45780820380516001836020036101000a031916815260200191505b50995050505050505050505060405180910390f35b6104f16117b9565b604051808060200180602001838103835285818151815260200191508051906020019060200280838360005b8381101561053857808201518184015260208101905061051d565b50505050905001838103825284818151815260200191508051906020019060200280838360005b8381101561057a57808201518184015260208101905061055f565b5050505090500194505050505060405180910390f35b6105d2600480360360208110156105a657600080fd5b81019080803573ffffffffffffffffffffffffffffffffffffffff1690602001909291905050506118f6565b6040518082815260200191505060405180910390f35b61064a600480360360408110156105fe57600080fd5b81019080803573ffffffffffffffffffffffffffffffffffffffff169060200190929190803573ffffffffffffffffffffffffffffffffffffffff1690602001909291905050506119c0565b604051808215151515815260200191505060405180910390f35b6107e4600480360360a081101561067a57600080fd5b810190808035906020019064010000000081111561069757600080fd5b8201836020820111156106a957600080fd5b803590602001918460018302840111640100000000831117156106cb57600080fd5b9091929391929390803590602001906401000000008111156106ec57600080fd5b8201836020820111156106fe57600080fd5b8035906020019184600183028401116401000000008311171561072057600080fd5b90919293919293908035906020019064010000000081111561074157600080fd5b82018360208201111561075357600080fd5b8035906020019184600183028401116401000000008311171561077557600080fd5b90919293919293908035906020019064010000000081111561079657600080fd5b8201836020820111156107a857600080fd5b803590602001918460018302840111640100000000831117156107ca57600080fd5b909192939192939080359060200190929190505050611ef8565b604051808215151515815260200191505060405180910390f35b6108066121c4565b6040518080602001828103825283818151815260200191508051906020019060200280838360005b8381101561084957808201518184015260208101905061082e565b505050509050019250505060405180910390f35b61089f6004803603602081101561087357600080fd5b81019080803573ffffffffffffffffffffffffffffffffffffffff169060200190929190505050612252565b604051808215151515815260200191505060405180910390f35b6108fb600480360360208110156108cf57600080fd5b81019080803573ffffffffffffffffffffffffffffffffffffffff1690602001909291905050506122b4565b604051808215151515815260200191505060405180910390f35b6109416004803603602081101561092b57600080fd5b810190808035906020019092919050505061234c565b604051808215151515815260200191505060405180910390f35b6109636124ce565b6040518082815260200191505060405180910390f35b6109816124d4565b005b6109b96004803603604081101561099957600080fd5b8101908080359060200190929190803590602001909291905050506125a4565b604051808215151515815260200191505060405180910390f35b6109db612636565b604051808273ffffffffffffffffffffffffffffffffffffffff1673ffffffffffffffffffffffffffffffffffffffff16815260200191505060405180910390f35b610a4960048036036020811015610a3357600080fd5b810190808035906020019092919050505061265c565b604051808215151515815260200191505060405180910390f35b610a6b61284d565b604051808273ffffffffffffffffffffffffffffffffffffffff1673ffffffffffffffffffffffffffffffffffffffff16815260200191505060405180910390f35b610ab5612876565b604051808215151515815260200191505060405180910390f35b610bfa60048036036080811015610ae557600080fd5b8101908080359060200190640100000000811115610b0257600080fd5b820183602082011115610b1457600080fd5b80359060200191846001830284011164010000000083111715610b3657600080fd5b909192939192939080359060200190640100000000811115610b5757600080fd5b820183602082011115610b6957600080fd5b80359060200191846001830284011164010000000083111715610b8b57600080fd5b909192939192939080359060200190640100000000811115610bac57600080fd5b820183602082011115610bbe57600080fd5b80359060200191846001830284011164010000000083111715610be057600080fd5b9091929391929390803590602001909291905050506128cd565b604051808215151515815260200191505060405180910390f35b610c9660048036036060811015610c2a57600080fd5b81019080803573ffffffffffffffffffffffffffffffffffffffff169060200190929190803573ffffffffffffffffffffffffffffffffffffffff169060200190929190803573ffffffffffffffffffffffffffffffffffffffff169060200190929190505050612b40565b604051808215151515815260200191505060405180910390f35b610cf260048036036020811015610cc657600080fd5b81019080803573ffffffffffffffffffffffffffffffffffffffff169060200190929190505050612e16565b6040518080602001806020018060200180602001858103855289818151815260200191508051906020019080838360005b83811015610d3e578082015181840152602081019050610d23565b50505050905090810190601f168015610d6b5780820380516001836020036101000a031916815260200191505b50858103845288818151815260200191508051906020019080838360005b83811015610da4578082015181840152602081019050610d89565b50505050905090810190601f168015610dd15780820380516001836020036101000a031916815260200191505b50858103835287818151815260200191508051906020019080838360005b83811015610e0a578082015181840152602081019050610def565b50505050905090810190601f168015610e375780820380516001836020036101000a031916815260200191505b50858103825286818151815260200191508051906020019060200280838360005b83811015610e73578082015181840152602081019050610e58565b505050509050019850505050505050505060405180910390f35b610ecf60048036036020811015610ea357600080fd5b81019080803573ffffffffffffffffffffffffffffffffffffffff169060200190929190505050613146565b604051808215151515815260200191505060405180910390f35b610f1560048036036020811015610eff57600080fd5b8101908080359060200190929190505050613168565b604051808215151515815260200191505060405180910390f35b610f7160048036036020811015610f4557600080fd5b81019080803573ffffffffffffffffffffffffffffffffffffffff1690602001909291905050506131df565b604051808273ffffffffffffffffffffffffffffffffffffffff1673ffffffffffffffffffffffffffffffffffffffff16815260200191505060405180910390f35b610ff560048036036020811015610fc957600080fd5b81019080803573ffffffffffffffffffffffffffffffffffffffff169060200190929190505050613212565b005b6110436004803603604081101561100d57600080fd5b81019080803573ffffffffffffffffffffffffffffffffffffffff169060200190929190803590602001909291905050506132aa565b604051808215151515815260200191505060405180910390f35b6110896004803603602081101561107357600080fd5b81019080803590602001909291905050506132dc565b604051808215151515815260200191505060405180910390f35b6110e5600480360360208110156110b957600080fd5b81019080803573ffffffffffffffffffffffffffffffffffffffff16906020019092919050505061335f565b604051808215151515815260200191505060405180910390f35b611107613506565b6040518080602001828103825283818151815260200191508051906020019060200280838360005b8381101561114a57808201518184015260208101905061112f565b505050509050019250505060405180910390f35b6111a06004803603602081101561117457600080fd5b81019080803573ffffffffffffffffffffffffffffffffffffffff1690602001909291905050506139ed565b604051808215151515815260200191505060405180910390f35b6111c2613cf3565b604051808381526020018281526020019250505060405180910390f35b6111e7613d0a565b6040518080602001828103825283818151815260200191508051906020019060200280838360005b8381101561122a57808201518184015260208101905061120f565b505050509050019250505060405180910390f35b611246613d98565b6040518082815260200191505060405180910390f35b61129e6004803603602081101561127257600080fd5b81019080803573ffffffffffffffffffffffffffffffffffffffff169060200190929190505050613d9e565b005b611322600480360360608110156112b657600080fd5b81019080803573ffffffffffffffffffffffffffffffffffffffff169060200190929190803573ffffffffffffffffffffffffffffffffffffffff169060200190929190803573ffffffffffffffffffffffffffffffffffffffff169060200190929190505050613dbb565b604051808215151515815260200191505060405180910390f35b6113a6600480360360a081101561135257600080fd5b81019080803573ffffffffffffffffffffffffffffffffffffffff169060200190929190803590602001909291908035906020019092919080359060200190929190803590602001909291905050506143c2565b005b6113ea600480360360208110156113be57600080fd5b81019080803573ffffffffffffffffffffffffffffffffffffffff16906020019092919050505061444b565b604051808215151515815260200191505060405180910390f35b61140c6144ad565b604051808215151515815260200191505060405180910390f35b60006001806000828254019250508190555060006001549050600061144a336145a9565b905061145581612252565b801561146657506114658461444b565b5b61146f57600080fd5b6114798185614671565b925050600154811461148a57600080fd5b50919050565b600260009054906101000a900460ff1681565b60608060608060006114b48661444b565b6114bd57600080fd5b6000600460008873ffffffffffffffffffffffffffffffffffffffff1673ffffffffffffffffffffffffffffffffffffffff1681526020019081526020016000209050806000018160010182600201836003018460040160009054906101000a900473ffffffffffffffffffffffffffffffffffffffff16848054600181600116156101000203166002900480601f0160208091040260200160405190810160405280929190818152602001828054600181600116156101000203166002900480156115ca5780601f1061159f576101008083540402835291602001916115ca565b820191906000526020600020905b8154815290600101906020018083116115ad57829003601f168201915b50505050509450838054600181600116156101000203166002900480601f0160208091040260200160405190810160405280929190818152602001828054600181600116156101000203166002900480156116665780601f1061163b57610100808354040283529160200191611666565b820191906000526020600020905b81548152906001019060200180831161164957829003601f168201915b50505050509350828054600181600116156101000203166002900480601f0160208091040260200160405190810160405280929190818152602001828054600181600116156101000203166002900480156117025780601f106116d757610100808354040283529160200191611702565b820191906000526020600020905b8154815290600101906020018083116116e557829003601f168201915b50505050509250818054600181600116156101000203166002900480601f01602080910402602001604051908101604052809291908181526020018280546001816001161561010002031660029004801561179e5780601f106117735761010080835404028352916020019161179e565b820191906000526020600020905b81548152906001019060200180831161178157829003601f168201915b50505050509150955095509550955095505091939590929450565b606080600873__AddressSortedLinkedList_______________6369b317e390916040518263ffffffff1660e01b81526004018082815260200191505060006040518083038186803b15801561180e57600080fd5b505af4158015611822573d6000803e3d6000fd5b505050506040513d6000823e3d601f19601f82011682018060405250604081101561184c57600080fd5b81019080805164010000000081111561186457600080fd5b8281019050602081018481111561187a57600080fd5b815185602082028301116401000000008211171561189757600080fd5b505092919060200180516401000000008111156118b357600080fd5b828101905060208101848111156118c957600080fd5b81518560208202830111640100000000821117156118e657600080fd5b5050929190505050915091509091565b6000600873__AddressSortedLinkedList_______________63e0fe44b39091846040518363ffffffff1660e01b8152600401808381526020018273ffffffffffffffffffffffffffffffffffffffff1673ffffffffffffffffffffffffffffffffffffffff1681526020019250505060206040518083038186803b15801561197e57600080fd5b505af4158015611992573d6000803e3d6000fd5b505050506040513d60208110156119a857600080fd5b81019080805190602001909291905050509050919050565b6000600180600082825401925050819055506000600154905060006119e433614b16565b90506000600560008373ffffffffffffffffffffffffffffffffffffffff1673ffffffffffffffffffffffffffffffffffffffff16815260200190815260200160002060009054906101000a900473ffffffffffffffffffffffffffffffffffffffff169050600073ffffffffffffffffffffffffffffffffffffffff168173ffffffffffffffffffffffffffffffffffffffff161415611a8457600080fd5b6000611a8f83614bde565b9050600873__AddressSortedLinkedList_______________6302f130289091846040518363ffffffff1660e01b8152600401808381526020018273ffffffffffffffffffffffffffffffffffffffff1673ffffffffffffffffffffffffffffffffffffffff1681526020019250505060206040518083038186803b158015611b1757600080fd5b505af4158015611b2b573d6000803e3d6000fd5b505050506040513d6020811015611b4157600080fd5b810190808051906020019092919050505015611df85760008111611b6457600080fd5b6000611c3982600873__AddressSortedLinkedList_______________63e0fe44b39091876040518363ffffffff1660e01b8152600401808381526020018273ffffffffffffffffffffffffffffffffffffffff1673ffffffffffffffffffffffffffffffffffffffff1681526020019250505060206040518083038186803b158015611bf057600080fd5b505af4158015611c04573d6000803e3d6000fd5b505050506040513d6020811015611c1a57600080fd5b8101908080519060200190929190505050614ca690919063ffffffff16565b90506000811115611d5757600873__AddressSortedLinkedList_______________63cab455ae909185848c8c6040518663ffffffff1660e01b8152600401808681526020018573ffffffffffffffffffffffffffffffffffffffff1673ffffffffffffffffffffffffffffffffffffffff1681526020018481526020018373ffffffffffffffffffffffffffffffffffffffff1673ffffffffffffffffffffffffffffffffffffffff1681526020018273ffffffffffffffffffffffffffffffffffffffff1673ffffffffffffffffffffffffffffffffffffffff1681526020019550505050505060006040518083038186803b158015611d3a57600080fd5b505af4158015611d4e573d6000803e3d6000fd5b50505050611df6565b600873__AddressSortedLinkedList_______________63281359299091856040518363ffffffff1660e01b8152600401808381526020018273ffffffffffffffffffffffffffffffffffffffff1673ffffffffffffffffffffffffffffffffffffffff1681526020019250505060006040518083038186803b158015611ddd57600080fd5b505af4158015611df1573d6000803e3d6000fd5b505050505b505b6000600560008573ffffffffffffffffffffffffffffffffffffffff1673ffffffffffffffffffffffffffffffffffffffff16815260200190815260200160002060006101000a81548173ffffffffffffffffffffffffffffffffffffffff021916908373ffffffffffffffffffffffffffffffffffffffff1602179055508173ffffffffffffffffffffffffffffffffffffffff168373ffffffffffffffffffffffffffffffffffffffff167fa06c722f7d446349fdd811f3d539bc91c7b11df8a2f4e012685712a30068f668836040518082815260200191505060405180910390a3600194505050506001548114611ef157600080fd5b5092915050565b6000600180600082825401925050819055506000600154905060008b8b9050118015611f275750600089899050115b8015611f365750600087879050115b8015611f455750604085859050145b611f4e57600080fd5b6000611f59336145a9565b9050611f648161444b565b158015611f775750611f7581612252565b155b611f8057600080fd5b611f8a81856132aa565b611f9357600080fd5b6000600460008373ffffffffffffffffffffffffffffffffffffffff1673ffffffffffffffffffffffffffffffffffffffff16815260200190815260200160002090508c8c826000019190611fe9929190615718565b508a8a826001019190611ffd929190615718565b508888826002019190612011929190615718565b508686826003019190612025929190615798565b5060078290806001815401808255809150509060018203906000526020600020016000909192909190916101000a81548173ffffffffffffffffffffffffffffffffffffffff021916908373ffffffffffffffffffffffffffffffffffffffff160217905550508173ffffffffffffffffffffffffffffffffffffffff167f4e35530e670c639b101af7074b9abce98a1bb1ebff1f7e21c83fc0a5537750748e8e8e8e8e8e8e8e604051808060200180602001806020018060200185810385528d8d82818152602001925080828437600081840152601f19601f82011690508083019250505085810384528b8b82818152602001925080828437600081840152601f19601f8201169050808301925050508581038352898982818152602001925080828437600081840152601f19601f8201169050808301925050508581038252878782818152602001925080828437600081840152601f19601f8201169050808301925050509c5050505050505050505050505060405180910390a260019350505060015481146121b657600080fd5b509998505050505050505050565b6060600680548060200260200160405190810160405280929190818152602001828054801561224857602002820191906000526020600020905b8160009054906101000a900473ffffffffffffffffffffffffffffffffffffffff1673ffffffffffffffffffffffffffffffffffffffff16815260200190600101908083116121fe575b5050505050905090565b600080600360008473ffffffffffffffffffffffffffffffffffffffff1673ffffffffffffffffffffffffffffffffffffffff168152602001908152602001600020600001805460018160011615610100020316600290049050119050919050565b60008073ffffffffffffffffffffffffffffffffffffffff16600560008473ffffffffffffffffffffffffffffffffffffffff1673ffffffffffffffffffffffffffffffffffffffff16815260200190815260200160002060009054906101000a900473ffffffffffffffffffffffffffffffffffffffff1673ffffffffffffffffffffffffffffffffffffffff1614159050919050565b600060018060008282540192505081905550600060015490506000612370336145a9565b905061237b81612252565b80156123cc57506000600360008373ffffffffffffffffffffffffffffffffffffffff1673ffffffffffffffffffffffffffffffffffffffff16815260200190815260200160002060030160020154145b6123d557600080fd5b600360008273ffffffffffffffffffffffffffffffffffffffff1673ffffffffffffffffffffffffffffffffffffffff168152602001908152602001600020600080820160006124259190615818565b6001820160006124359190615818565b6002820160006124459190615818565b60038201600080820160009055600182016000905560028201600090555050505061247260068286614cc6565b8073ffffffffffffffffffffffffffffffffffffffff167fae7e034b0748a10a219b46074b20977a9170bf4027b156c797093773619a866960405160405180910390a2600192505060015481146124c857600080fd5b50919050565b600f5481565b6124dc612876565b6124e557600080fd5b600073ffffffffffffffffffffffffffffffffffffffff166000809054906101000a900473ffffffffffffffffffffffffffffffffffffffff1673ffffffffffffffffffffffffffffffffffffffff167f8be0079c531659141344cd1fd0a4f28419497f9722a3daafe3b4186f6b6457e060405160405180910390a360008060006101000a81548173ffffffffffffffffffffffffffffffffffffffff021916908373ffffffffffffffffffffffffffffffffffffffff160217905550565b60006125ae612876565b6125b757600080fd5b600d60010154831415806125d05750600d600001548214155b6125d957600080fd5b82600d6001018190555081600d600001819055507f04115e0ea165824bb8622ed44fff11713b6fbca4b11f4c1d80dc072238d4bbce8383604051808381526020018281526020019250505060405180910390a16001905092915050565b600260019054906101000a900473ffffffffffffffffffffffffffffffffffffffff1681565b600060018060008282540192505081905550600060015490506000612680336145a9565b905061268b8161444b565b61269457600080fd5b6000600460008373ffffffffffffffffffffffffffffffffffffffff1673ffffffffffffffffffffffffffffffffffffffff1681526020019081526020016000209050600073ffffffffffffffffffffffffffffffffffffffff168160040160009054906101000a900473ffffffffffffffffffffffffffffffffffffffff1673ffffffffffffffffffffffffffffffffffffffff161461273b576127398183614e54565b505b600460008373ffffffffffffffffffffffffffffffffffffffff1673ffffffffffffffffffffffffffffffffffffffff1681526020019081526020016000206000808201600061278b9190615818565b60018201600061279b9190615818565b6002820160006127ab9190615818565b6003820160006127bb9190615860565b6004820160006101000a81549073ffffffffffffffffffffffffffffffffffffffff021916905550506127f060078387614cc6565b8173ffffffffffffffffffffffffffffffffffffffff167f51407fafe7ef9bec39c65a12a4885a274190991bf1e9057fcc384fc77ff1a7f060405160405180910390a2600193505050600154811461284757600080fd5b50919050565b60008060009054906101000a900473ffffffffffffffffffffffffffffffffffffffff16905090565b60008060009054906101000a900473ffffffffffffffffffffffffffffffffffffffff1673ffffffffffffffffffffffffffffffffffffffff163373ffffffffffffffffffffffffffffffffffffffff1614905090565b600060018060008282540192505081905550600060015490506000898990501180156128fc5750600087879050115b801561290b5750600085859050115b61291457600080fd5b600061291f336145a9565b905061292a8161444b565b15801561293d575061293b81612252565b155b61294657600080fd5b61295081856132aa565b61295957600080fd5b6000600360008373ffffffffffffffffffffffffffffffffffffffff1673ffffffffffffffffffffffffffffffffffffffff16815260200190815260200160002090508a8a8260000191906129af929190615718565b5088888260010191906129c3929190615718565b5086868260020191906129d7929190615718565b5060068290806001815401808255809150509060018203906000526020600020016000909192909190916101000a81548173ffffffffffffffffffffffffffffffffffffffff021916908373ffffffffffffffffffffffffffffffffffffffff160217905550508173ffffffffffffffffffffffffffffffffffffffff167f939d2ce9990e1bdc223c6f065c5f11b09b9c1ab8d78d224711c2823e0e3d6af78c8c8c8c8c8c6040518080602001806020018060200184810384528a8a82818152602001925080828437600081840152601f19601f8201169050808301925050508481038352888882818152602001925080828437600081840152601f19601f8201169050808301925050508481038252868682818152602001925080828437600081840152601f19601f820116905080830192505050995050505050505050505060405180910390a26001935050506001548114612b3457600080fd5b50979650505050505050565b600060018060008282540192505081905550600060015490506000612b64336145a9565b9050612b6f81612252565b8015612b805750612b7f8661444b565b5b612b8957600080fd5b6000600360008373ffffffffffffffffffffffffffffffffffffffff1673ffffffffffffffffffffffffffffffffffffffff16815260200190815260200160002090508060030173__AddressLinkedList_____________________63542424fb9091896040518363ffffffff1660e01b8152600401808381526020018273ffffffffffffffffffffffffffffffffffffffff1673ffffffffffffffffffffffffffffffffffffffff1681526020019250505060206040518083038186803b158015612c5457600080fd5b505af4158015612c68573d6000803e3d6000fd5b505050506040513d6020811015612c7e57600080fd5b8101908080519060200190929190505050612c9857600080fd5b8060030173__AddressLinkedList_____________________63b2f8fe9690918989896040518563ffffffff1660e01b8152600401808581526020018473ffffffffffffffffffffffffffffffffffffffff1673ffffffffffffffffffffffffffffffffffffffff1681526020018373ffffffffffffffffffffffffffffffffffffffff1673ffffffffffffffffffffffffffffffffffffffff1681526020018273ffffffffffffffffffffffffffffffffffffffff1673ffffffffffffffffffffffffffffffffffffffff16815260200194505050505060006040518083038186803b158015612d8857600080fd5b505af4158015612d9c573d6000803e3d6000fd5b505050508673ffffffffffffffffffffffffffffffffffffffff168273ffffffffffffffffffffffffffffffffffffffff167f38819cc49a343985b478d72f531a35b15384c398dd80fd191a14662170f895c660405160405180910390a36001935050506001548114612e0e57600080fd5b509392505050565b606080606080612e2585612252565b612e2e57600080fd5b6000600360008773ffffffffffffffffffffffffffffffffffffffff1673ffffffffffffffffffffffffffffffffffffffff16815260200190815260200160002090508060000181600101826002018360030173__AddressLinkedList_____________________63fe3c7a8e90916040518263ffffffff1660e01b81526004018082815260200191505060006040518083038186803b158015612ed157600080fd5b505af4158015612ee5573d6000803e3d6000fd5b505050506040513d6000823e3d601f19601f820116820180604052506020811015612f0f57600080fd5b810190808051640100000000811115612f2757600080fd5b82810190506020810184811115612f3d57600080fd5b8151856020820283011164010000000082111715612f5a57600080fd5b5050929190505050838054600181600116156101000203166002900480601f016020809104026020016040519081016040528092919081815260200182805460018160011615610100020316600290048015612ff75780601f10612fcc57610100808354040283529160200191612ff7565b820191906000526020600020905b815481529060010190602001808311612fda57829003601f168201915b50505050509350828054600181600116156101000203166002900480601f0160208091040260200160405190810160405280929190818152602001828054600181600116156101000203166002900480156130935780601f1061306857610100808354040283529160200191613093565b820191906000526020600020905b81548152906001019060200180831161307657829003601f168201915b50505050509250818054600181600116156101000203166002900480601f01602080910402602001604051908101604052809291908181526020018280546001816001161561010002031660029004801561312f5780601f106131045761010080835404028352916020019161312f565b820191906000526020600020905b81548152906001019060200180831161311257829003601f168201915b505050505091509450945094509450509193509193565b60006131518261444b565b80613161575061316082612252565b5b9050919050565b6000613172612876565b61317b57600080fd5b601054821415801561318f5750600f548210155b61319857600080fd5b816010819055507fe99d0f7b20aaa2f388eb131f05a0f0261bae65b7d4ed082d061e19d84c5131ea826040518082815260200191505060405180910390a160019050919050565b60056020528060005260406000206000915054906101000a900473ffffffffffffffffffffffffffffffffffffffff1681565b61321a612876565b61322357600080fd5b80600260016101000a81548173ffffffffffffffffffffffffffffffffffffffff021916908373ffffffffffffffffffffffffffffffffffffffff1602179055508073ffffffffffffffffffffffffffffffffffffffff167f27fe5f0c1c3b1ed427cc63d0f05759ffdecf9aec9e18d31ef366fc8a6cb5dc3b60405160405180910390a250565b6000806132b7848461503f565b9050600d6001015481101580156132d35750600d600001548310155b91505092915050565b60006132e6612876565b6132ef57600080fd5b6000821180156133015750600f548214155b801561330f57506010548211155b61331857600080fd5b81600f819055507f260632a7eef03d7beae0567a6c13e482939b4451e288a58908e39c8d71d1c2bc826040518082815260200191505060405180910390a160019050919050565b600060018060008282540192505081905550600060015490506000613383336145a9565b905061338e8161444b565b801561339f575061339e84612252565b5b6133a857600080fd5b6000600460008373ffffffffffffffffffffffffffffffffffffffff1673ffffffffffffffffffffffffffffffffffffffff1681526020019081526020016000209050600073ffffffffffffffffffffffffffffffffffffffff168160040160009054906101000a900473ffffffffffffffffffffffffffffffffffffffff1673ffffffffffffffffffffffffffffffffffffffff161461344f5761344d8183614e54565b505b848160040160006101000a81548173ffffffffffffffffffffffffffffffffffffffff021916908373ffffffffffffffffffffffffffffffffffffffff1602179055508473ffffffffffffffffffffffffffffffffffffffff168273ffffffffffffffffffffffffffffffffffffffff167f91ef92227057e201e406c3451698dd780fe7672ad74328591c88d281af31581d60405160405180910390a3600193505050600154811461350057600080fd5b50919050565b60606000601054905060086000016002015481111561352b5760086000016002015490505b6060600860000173__AddressLinkedList_____________________63b1cfea439091846040518363ffffffff1660e01b8152600401808381526020018281526020019250505060006040518083038186803b15801561358a57600080fd5b505af415801561359e573d6000803e3d6000fd5b505050506040513d6000823e3d601f19601f8201168201806040525060208110156135c857600080fd5b8101908080516401000000008111156135e057600080fd5b828101905060208101848111156135f657600080fd5b815185602082028301116401000000008211171561361357600080fd5b505092919050505090506060815160405190808252806020026020018201604052801561364f5781602001602082028038833980820191505090505b50905060008090506000600190505b6010548210801561366c5750805b15613776576000905060008090506136826158a8565b6040518060400160405280600081526020016001815250905060008090505b86518110156137125760008090506136e0838984815181106136bf57fe5b60200260200101518985815181106136d357fe5b6020026020010151615121565b809250819450505080156136f657600194508193505b5061370b6001826152a790919063ffffffff16565b90506136a1565b50821561376f57613740600186848151811061372a57fe5b60200260200101516152a790919063ffffffff16565b85838151811061374c57fe5b60200260200101818152505061376c6001856152a790919063ffffffff16565b93505b505061365e565b600f5482101561378557600080fd5b6060826040519080825280602002602001820160405280156137b65781602001602082028038833980820191505090505b5090506000925060008090505b85518110156139e0576060600360008884815181106137de57fe5b602002602001015173ffffffffffffffffffffffffffffffffffffffff1673ffffffffffffffffffffffffffffffffffffffff16815260200190815260200160002060030173__AddressLinkedList_____________________63b1cfea43909188858151811061384b57fe5b60200260200101516040518363ffffffff1660e01b8152600401808381526020018281526020019250505060006040518083038186803b15801561388e57600080fd5b505af41580156138a2573d6000803e3d6000fd5b505050506040513d6000823e3d601f19601f8201168201806040525060208110156138cc57600080fd5b8101908080516401000000008111156138e457600080fd5b828101905060208101848111156138fa57600080fd5b815185602082028301116401000000008211171561391757600080fd5b5050929190505050905060008090505b81518110156139c35761394c82828151811061393f57fe5b60200260200101516152c6565b84878151811061395857fe5b602002602001019073ffffffffffffffffffffffffffffffffffffffff16908173ffffffffffffffffffffffffffffffffffffffff16815250506139a66001876152a790919063ffffffff16565b95506139bc6001826152a790919063ffffffff16565b9050613927565b50506139d96001826152a790919063ffffffff16565b90506137c3565b5080965050505050505090565b600060018060008282540192505081905550600060015490506000613a11336145a9565b9050613a1c81612252565b8015613a2d5750613a2c8461444b565b5b613a3657600080fd5b6000600360008373ffffffffffffffffffffffffffffffffffffffff1673ffffffffffffffffffffffffffffffffffffffff16815260200190815260200160002090508173ffffffffffffffffffffffffffffffffffffffff16600460008773ffffffffffffffffffffffffffffffffffffffff1673ffffffffffffffffffffffffffffffffffffffff16815260200190815260200160002060040160009054906101000a900473ffffffffffffffffffffffffffffffffffffffff1673ffffffffffffffffffffffffffffffffffffffff16148015613bd657508060030173__AddressLinkedList_____________________63542424fb9091876040518363ffffffff1660e01b8152600401808381526020018273ffffffffffffffffffffffffffffffffffffffff1673ffffffffffffffffffffffffffffffffffffffff1681526020019250505060206040518083038186803b158015613b9957600080fd5b505af4158015613bad573d6000803e3d6000fd5b505050506040513d6020811015613bc357600080fd5b8101908080519060200190929190505050155b613bdf57600080fd5b8060030173__AddressLinkedList_____________________6326afac499091876040518363ffffffff1660e01b8152600401808381526020018273ffffffffffffffffffffffffffffffffffffffff1673ffffffffffffffffffffffffffffffffffffffff1681526020019250505060006040518083038186803b158015613c6757600080fd5b505af4158015613c7b573d6000803e3d6000fd5b505050508473ffffffffffffffffffffffffffffffffffffffff168273ffffffffffffffffffffffffffffffffffffffff167fbdf7e616a6943f81e07a7984c9d4c00197dc2f481486ce4ffa6af52a113974ad60405160405180910390a36001935050506001548114613ced57600080fd5b50919050565b600080600d60010154600d60000154915091509091565b60606007805480602002602001604051908101604052809291908181526020018280548015613d8e57602002820191906000526020600020905b8160009054906101000a900473ffffffffffffffffffffffffffffffffffffffff1673ffffffffffffffffffffffffffffffffffffffff1681526020019060010190808311613d44575b5050505050905090565b60105481565b613da6612876565b613daf57600080fd5b613db88161538e565b50565b60006001806000828254019250508190555060006001549050613ddd85612252565b8015613e2e57506000600360008773ffffffffffffffffffffffffffffffffffffffff1673ffffffffffffffffffffffffffffffffffffffff16815260200190815260200160002060030160020154115b613e3757600080fd5b6000613e4233614b16565b9050613e4d81615486565b15613e5757600080fd5b600073ffffffffffffffffffffffffffffffffffffffff16600560008373ffffffffffffffffffffffffffffffffffffffff1673ffffffffffffffffffffffffffffffffffffffff16815260200190815260200160002060009054906101000a900473ffffffffffffffffffffffffffffffffffffffff1673ffffffffffffffffffffffffffffffffffffffff1614613eef57600080fd5b6000613efa82614bde565b905060008111613f0957600080fd5b600873__AddressSortedLinkedList_______________6302f130289091896040518363ffffffff1660e01b8152600401808381526020018273ffffffffffffffffffffffffffffffffffffffff1673ffffffffffffffffffffffffffffffffffffffff1681526020019250505060206040518083038186803b158015613f8f57600080fd5b505af4158015613fa3573d6000803e3d6000fd5b505050506040513d6020811015613fb957600080fd5b8101908080519060200190929190505050156141b457600873__AddressSortedLinkedList_______________63cab455ae9091896140c185600873__AddressSortedLinkedList_______________63e0fe44b390918f6040518363ffffffff1660e01b8152600401808381526020018273ffffffffffffffffffffffffffffffffffffffff1673ffffffffffffffffffffffffffffffffffffffff1681526020019250505060206040518083038186803b15801561407857600080fd5b505af415801561408c573d6000803e3d6000fd5b505050506040513d60208110156140a257600080fd5b81019080805190602001909291905050506152a790919063ffffffff16565b8a8a6040518663ffffffff1660e01b8152600401808681526020018573ffffffffffffffffffffffffffffffffffffffff1673ffffffffffffffffffffffffffffffffffffffff1681526020018481526020018373ffffffffffffffffffffffffffffffffffffffff1673ffffffffffffffffffffffffffffffffffffffff1681526020018273ffffffffffffffffffffffffffffffffffffffff1673ffffffffffffffffffffffffffffffffffffffff1681526020019550505050505060006040518083038186803b15801561419757600080fd5b505af41580156141ab573d6000803e3d6000fd5b505050506142c3565b600873__AddressSortedLinkedList_______________632dedbbf0909189848a8a6040518663ffffffff1660e01b8152600401808681526020018573ffffffffffffffffffffffffffffffffffffffff1673ffffffffffffffffffffffffffffffffffffffff1681526020018481526020018373ffffffffffffffffffffffffffffffffffffffff1673ffffffffffffffffffffffffffffffffffffffff1681526020018273ffffffffffffffffffffffffffffffffffffffff1673ffffffffffffffffffffffffffffffffffffffff1681526020019550505050505060006040518083038186803b1580156142aa57600080fd5b505af41580156142be573d6000803e3d6000fd5b505050505b86600560008473ffffffffffffffffffffffffffffffffffffffff1673ffffffffffffffffffffffffffffffffffffffff16815260200190815260200160002060006101000a81548173ffffffffffffffffffffffffffffffffffffffff021916908373ffffffffffffffffffffffffffffffffffffffff1602179055508673ffffffffffffffffffffffffffffffffffffffff168273ffffffffffffffffffffffffffffffffffffffff167fd3532f70444893db82221041edb4dc26c94593aeb364b0b14dfc77d5ee905152836040518082815260200191505060405180910390a360019350505060015481146143ba57600080fd5b509392505050565b600260009054906101000a900460ff16156143dc57600080fd5b6001600260006101000a81548160ff0219169083151502179055506000841180156144075750838310155b61441057600080fd5b6144193361538e565b61442285613212565b83600f819055508260108190555081600d6001018190555080600d600001819055505050505050565b600080600460008473ffffffffffffffffffffffffffffffffffffffff1673ffffffffffffffffffffffffffffffffffffffff168152602001908152602001600020600001805460018160011615610100020316600290049050119050919050565b6000600180600082825401925050819055506000600154905060006144d1336145a9565b90506144dc8161444b565b6144e557600080fd5b6000600460008373ffffffffffffffffffffffffffffffffffffffff1673ffffffffffffffffffffffffffffffffffffffff1681526020019081526020016000209050600073ffffffffffffffffffffffffffffffffffffffff168160040160009054906101000a900473ffffffffffffffffffffffffffffffffffffffff1673ffffffffffffffffffffffffffffffffffffffff16141561458657600080fd5b6145908183614e54565b5060019350505060015481146145a557600080fd5b5090565b60006145b361554e565b73ffffffffffffffffffffffffffffffffffffffff1663ab248dcd836040518263ffffffff1660e01b8152600401808273ffffffffffffffffffffffffffffffffffffffff1673ffffffffffffffffffffffffffffffffffffffff16815260200191505060206040518083038186803b15801561462f57600080fd5b505afa158015614643573d6000803e3d6000fd5b505050506040513d602081101561465957600080fd5b81019080805190602001909291905050509050919050565b600080600360008573ffffffffffffffffffffffffffffffffffffffff1673ffffffffffffffffffffffffffffffffffffffff16815260200190815260200160002090508373ffffffffffffffffffffffffffffffffffffffff16600460008573ffffffffffffffffffffffffffffffffffffffff1673ffffffffffffffffffffffffffffffffffffffff16815260200190815260200160002060040160009054906101000a900473ffffffffffffffffffffffffffffffffffffffff1673ffffffffffffffffffffffffffffffffffffffff1614801561481157508060030173__AddressLinkedList_____________________63542424fb9091856040518363ffffffff1660e01b8152600401808381526020018273ffffffffffffffffffffffffffffffffffffffff1673ffffffffffffffffffffffffffffffffffffffff1681526020019250505060206040518083038186803b1580156147d557600080fd5b505af41580156147e9573d6000803e3d6000fd5b505050506040513d60208110156147ff57600080fd5b81019080805190602001909291905050505b61481a57600080fd5b8060030173__AddressLinkedList_____________________63e2c0c56a9091856040518363ffffffff1660e01b8152600401808381526020018273ffffffffffffffffffffffffffffffffffffffff1673ffffffffffffffffffffffffffffffffffffffff1681526020019250505060006040518083038186803b1580156148a257600080fd5b505af41580156148b6573d6000803e3d6000fd5b505050508273ffffffffffffffffffffffffffffffffffffffff168473ffffffffffffffffffffffffffffffffffffffff167fc7666a52a66ff601ff7c0d4d6efddc9ac20a34792f6aa003d1804c9d4d5baa5760405160405180910390a36000600360008673ffffffffffffffffffffffffffffffffffffffff1673ffffffffffffffffffffffffffffffffffffffff168152602001908152602001600020600301600201541415614b0b57600873__AddressSortedLinkedList_______________6302f130289091866040518363ffffffff1660e01b8152600401808381526020018273ffffffffffffffffffffffffffffffffffffffff1673ffffffffffffffffffffffffffffffffffffffff1681526020019250505060206040518083038186803b1580156149e857600080fd5b505af41580156149fc573d6000803e3d6000fd5b505050506040513d6020811015614a1257600080fd5b810190808051906020019092919050505015614ac757600873__AddressSortedLinkedList_______________63281359299091866040518363ffffffff1660e01b8152600401808381526020018273ffffffffffffffffffffffffffffffffffffffff1673ffffffffffffffffffffffffffffffffffffffff1681526020019250505060006040518083038186803b158015614aae57600080fd5b505af4158015614ac2573d6000803e3d6000fd5b505050505b8373ffffffffffffffffffffffffffffffffffffffff167fafcde771187614f78f7838b248dd5992f24bed1fad0cde4f6ff40e133117892e60405160405180910390a25b600191505092915050565b6000614b2061554e565b73ffffffffffffffffffffffffffffffffffffffff1663aaf4eb75836040518263ffffffff1660e01b8152600401808273ffffffffffffffffffffffffffffffffffffffff1673ffffffffffffffffffffffffffffffffffffffff16815260200191505060206040518083038186803b158015614b9c57600080fd5b505afa158015614bb0573d6000803e3d6000fd5b505050506040513d6020811015614bc657600080fd5b81019080805190602001909291905050509050919050565b6000614be861554e565b73ffffffffffffffffffffffffffffffffffffffff16633ea01b34836040518263ffffffff1660e01b8152600401808273ffffffffffffffffffffffffffffffffffffffff1673ffffffffffffffffffffffffffffffffffffffff16815260200191505060206040518083038186803b158015614c6457600080fd5b505afa158015614c78573d6000803e3d6000fd5b505050506040513d6020811015614c8e57600080fd5b81019080805190602001909291905050509050919050565b600082821115614cb557600080fd5b600082840390508091505092915050565b828054905081108015614d3a57508173ffffffffffffffffffffffffffffffffffffffff16838281548110614cf757fe5b9060005260206000200160009054906101000a900473ffffffffffffffffffffffffffffffffffffffff1673ffffffffffffffffffffffffffffffffffffffff16145b614d4357600080fd5b6000614d5d60018580549050614ca690919063ffffffff16565b9050838181548110614d6b57fe5b9060005260206000200160009054906101000a900473ffffffffffffffffffffffffffffffffffffffff16848381548110614da257fe5b9060005260206000200160006101000a81548173ffffffffffffffffffffffffffffffffffffffff021916908373ffffffffffffffffffffffffffffffffffffffff1602179055506000848281548110614df857fe5b9060005260206000200160006101000a81548173ffffffffffffffffffffffffffffffffffffffff021916908373ffffffffffffffffffffffffffffffffffffffff160217905550808481614e4d91906158c2565b5050505050565b6000808360040160009054906101000a900473ffffffffffffffffffffffffffffffffffffffff1690506000600360008373ffffffffffffffffffffffffffffffffffffffff1673ffffffffffffffffffffffffffffffffffffffff16815260200190815260200160002090508060030173__AddressLinkedList_____________________63542424fb9091866040518363ffffffff1660e01b8152600401808381526020018273ffffffffffffffffffffffffffffffffffffffff1673ffffffffffffffffffffffffffffffffffffffff1681526020019250505060206040518083038186803b158015614f4957600080fd5b505af4158015614f5d573d6000803e3d6000fd5b505050506040513d6020811015614f7357600080fd5b810190808051906020019092919050505015614f9557614f938285614671565b505b8173ffffffffffffffffffffffffffffffffffffffff168473ffffffffffffffffffffffffffffffffffffffff167f71815121f0622b31a3e7270eb28acb9fd10825ff418c9a18591f617bb8a31a6c60405160405180910390a360008560040160006101000a81548173ffffffffffffffffffffffffffffffffffffffff021916908373ffffffffffffffffffffffffffffffffffffffff16021790555060019250505092915050565b60008061504a61554e565b73ffffffffffffffffffffffffffffffffffffffff166313e5631385856040518363ffffffff1660e01b8152600401808373ffffffffffffffffffffffffffffffffffffffff1673ffffffffffffffffffffffffffffffffffffffff16815260200182815260200192505050604080518083038186803b1580156150cd57600080fd5b505afa1580156150e1573d6000803e3d6000fd5b505050506040513d60408110156150f757600080fd5b81019080805190602001909291908051906020019092919050505050809150508091505092915050565b6151296158a8565b600080600360008673ffffffffffffffffffffffffffffffffffffffff1673ffffffffffffffffffffffffffffffffffffffff16815260200190815260200160002090508381600301600201541115615296576151846158a8565b6040518060400160405280600873__AddressSortedLinkedList_______________63e0fe44b390918a6040518363ffffffff1660e01b8152600401808381526020018273ffffffffffffffffffffffffffffffffffffffff1673ffffffffffffffffffffffffffffffffffffffff1681526020019250505060206040518083038186803b15801561521557600080fd5b505af4158015615229573d6000803e3d6000fd5b505050506040513d602081101561523f57600080fd5b810190808051906020019092919050505081526020016152696001886152a790919063ffffffff16565b8152509050615281878261569d90919063ffffffff16565b156152945780600193509350505061529f565b505b85600092509250505b935093915050565b6000808284019050838110156152bc57600080fd5b8091505092915050565b60006152d061554e565b73ffffffffffffffffffffffffffffffffffffffff1663eadb80d0836040518263ffffffff1660e01b8152600401808273ffffffffffffffffffffffffffffffffffffffff1673ffffffffffffffffffffffffffffffffffffffff16815260200191505060206040518083038186803b15801561534c57600080fd5b505afa158015615360573d6000803e3d6000fd5b505050506040513d602081101561537657600080fd5b81019080805190602001909291905050509050919050565b600073ffffffffffffffffffffffffffffffffffffffff168173ffffffffffffffffffffffffffffffffffffffff1614156153c857600080fd5b8073ffffffffffffffffffffffffffffffffffffffff166000809054906101000a900473ffffffffffffffffffffffffffffffffffffffff1673ffffffffffffffffffffffffffffffffffffffff167f8be0079c531659141344cd1fd0a4f28419497f9722a3daafe3b4186f6b6457e060405160405180910390a3806000806101000a81548173ffffffffffffffffffffffffffffffffffffffff021916908373ffffffffffffffffffffffffffffffffffffffff16021790555050565b600061549061554e565b73ffffffffffffffffffffffffffffffffffffffff1663cc830885836040518263ffffffff1660e01b8152600401808273ffffffffffffffffffffffffffffffffffffffff1673ffffffffffffffffffffffffffffffffffffffff16815260200191505060206040518083038186803b15801561550c57600080fd5b505afa158015615520573d6000803e3d6000fd5b505050506040513d602081101561553657600080fd5b81019080805190602001909291905050509050919050565b6000600260019054906101000a900473ffffffffffffffffffffffffffffffffffffffff1673ffffffffffffffffffffffffffffffffffffffff16630b5855e16040518060400160405280600e81526020017f426f6e6465644465706f736974730000000000000000000000000000000000008152506040518263ffffffff1660e01b81526004018080602001828103825283818151815260200191508051906020019080838360005b838110156156135780820151818401526020810190506155f8565b50505050905090810190601f1680156156405780820380516001836020036101000a031916815260200191505b509250505060206040518083038186803b15801561565d57600080fd5b505afa158015615671573d6000803e3d6000fd5b505050506040513d602081101561568757600080fd5b8101908080519060200190929190505050905090565b60006156ba836020015183600001516156de90919063ffffffff16565b6156d5836020015185600001516156de90919063ffffffff16565b11905092915050565b6000808314156156f15760009050615712565b600082840290508284828161570257fe5b041461570d57600080fd5b809150505b92915050565b828054600181600116156101000203166002900490600052602060002090601f016020900481019282601f1061575957803560ff1916838001178555615787565b82800160010185558215615787579182015b8281111561578657823582559160200191906001019061576b565b5b50905061579491906158ee565b5090565b828054600181600116156101000203166002900490600052602060002090601f016020900481019282601f106157d957803560ff1916838001178555615807565b82800160010185558215615807579182015b828111156158065782358255916020019190600101906157eb565b5b50905061581491906158ee565b5090565b50805460018160011615610100020316600290046000825580601f1061583e575061585d565b601f01602090049060005260206000209081019061585c91906158ee565b5b50565b50805460018160011615610100020316600290046000825580601f1061588657506158a5565b601f0160209004906000526020600020908101906158a491906158ee565b5b50565b604051806040016040528060008152602001600081525090565b8154818355818111156158e9578183600052602060002091820191016158e891906158ee565b5b505050565b61591091905b8082111561590c5760008160009055506001016158f4565b5090565b9056fea165627a7a7230582064a92ef57b5c375e7819b073067f911dc28dcc448dbf1a4cb3a8ae0216dbc4340029",
  "source": "pragma solidity ^0.5.8;\n\nimport \"openzeppelin-solidity/contracts/math/SafeMath.sol\";\nimport \"openzeppelin-solidity/contracts/ownership/Ownable.sol\";\nimport \"openzeppelin-solidity/contracts/utils/ReentrancyGuard.sol\";\n\nimport \"./AddressLinkedList.sol\";\nimport \"./AddressSortedLinkedList.sol\";\nimport \"./UsingBondedDeposits.sol\";\nimport \"./interfaces/IValidators.sol\";\nimport \"../common/Initializable.sol\";\nimport \"../stability/FractionUtil.sol\";\n\n\n/**\n * @title A contract for registering and electing Validator Groups and Validators.\n */\ncontract Validators is IValidators, Ownable, ReentrancyGuard, Initializable, UsingBondedDeposits {\n\n  using AddressLinkedList for LinkedList.List;\n  using AddressSortedLinkedList for SortedLinkedList.List;\n  using SafeMath for uint256;\n  using FractionUtil for FractionUtil.Fraction;\n\n  // TODO(asa): These strings should be modifiable\n  struct ValidatorGroup {\n    string identifier;\n    string name;\n    string url;\n    LinkedList.List members;\n  }\n\n  // TODO(asa): These strings should be modifiable\n  struct Validator {\n    string identifier;\n    string name;\n    string url;\n    bytes publicKey;\n    address affiliation;\n  }\n\n  struct BondedDeposit {\n    uint256 noticePeriod;\n    uint256 value;\n  }\n\n  mapping(address => ValidatorGroup) private groups;\n  mapping(address => Validator) private validators;\n  // TODO(asa): Implement abstaining\n  mapping(address => address) public voters;\n  address[] private _groups;\n  address[] private _validators;\n  SortedLinkedList.List private votes;\n  // TODO(asa): Support different requirements for groups vs. validators.\n  BondedDeposit private registrationRequirement;\n  uint256 public minElectableValidators;\n  uint256 public maxElectableValidators;\n\n  event MinElectableValidatorsSet(\n    uint256 minElectableValidators\n  );\n\n  event MaxElectableValidatorsSet(\n    uint256 maxElectableValidators\n  );\n\n  event RegistrationRequirementSet(\n    uint256 value,\n    uint256 noticePeriod\n  );\n\n  event ValidatorRegistered(\n    address indexed validator,\n    string identifier,\n    string name,\n    string url,\n    bytes publicKey\n  );\n\n  event ValidatorDeregistered(\n    address indexed validator\n  );\n\n  event ValidatorAffiliated(\n    address indexed validator,\n    address indexed group\n  );\n\n  event ValidatorDeaffiliated(\n    address indexed validator,\n    address indexed group\n  );\n\n  event ValidatorGroupRegistered(\n    address indexed group,\n    string identifier,\n    string name,\n    string url\n  );\n\n  event ValidatorGroupDeregistered(\n    address indexed group\n  );\n\n  event ValidatorGroupMemberAdded(\n    address indexed group,\n    address indexed validator\n  );\n\n  event ValidatorGroupMemberRemoved(\n    address indexed group,\n    address indexed validator\n  );\n\n  event ValidatorGroupMemberReordered(\n    address indexed group,\n    address indexed validator\n  );\n\n  event ValidatorGroupEmptied(\n    address indexed group\n  );\n\n  event ValidatorGroupVoteCast(\n    address indexed account,\n    address indexed group,\n    uint256 weight\n  );\n\n  event ValidatorGroupVoteRevoked(\n    address indexed account,\n    address indexed group,\n    uint256 weight\n  );\n\n  /**\n   * @notice Initializes critical variables.\n   * @param registryAddress The address of the registry contract.\n   * @param _minElectableValidators The minimum number of validators that can be elected.\n   * @param _maxElectableValidators The maximum number of validators that can be elected.\n   * @param requirementValue The minimum bonded deposit value to register a group or validator.\n   * @param requirementNoticePeriod The minimum bonded deposit notice period to register a group or\n   *   validator.\n   * @dev Should be called only once.\n   */\n  function initialize(\n    address registryAddress,\n    uint256 _minElectableValidators,\n    uint256 _maxElectableValidators,\n    uint256 requirementValue,\n    uint256 requirementNoticePeriod\n  )\n    external\n    initializer\n  {\n    require(_minElectableValidators > 0 && _maxElectableValidators >= _minElectableValidators);\n    _transferOwnership(msg.sender);\n    setRegistry(registryAddress);\n    minElectableValidators = _minElectableValidators;\n    maxElectableValidators = _maxElectableValidators;\n    registrationRequirement.value = requirementValue;\n    registrationRequirement.noticePeriod = requirementNoticePeriod;\n  }\n\n  /**\n   * @notice Updates the minimum number of validators that can be elected.\n   * @param _minElectableValidators The minimum number of validators that can be elected.\n   * @return True upon success.\n   */\n  function setMinElectableValidators(\n    uint256 _minElectableValidators\n  )\n    external\n    onlyOwner\n    returns (bool)\n  {\n    require(\n      _minElectableValidators > 0 &&\n      _minElectableValidators != minElectableValidators &&\n      _minElectableValidators <= maxElectableValidators\n    );\n    minElectableValidators = _minElectableValidators;\n    emit MinElectableValidatorsSet(_minElectableValidators);\n    return true;\n  }\n\n  /**\n   * @notice Updates the maximum number of validators that can be elected.\n   * @param _maxElectableValidators The maximum number of validators that can be elected.\n   * @return True upon success.\n   */\n  function setMaxElectableValidators(\n    uint256 _maxElectableValidators\n  )\n    external\n    onlyOwner\n    returns (bool)\n  {\n    require(\n      _maxElectableValidators != maxElectableValidators &&\n      _maxElectableValidators >= minElectableValidators\n    );\n    maxElectableValidators = _maxElectableValidators;\n    emit MaxElectableValidatorsSet(_maxElectableValidators);\n    return true;\n  }\n\n  /**\n   * @notice Updates the minimum bonding requirements to register a validator group or validator.\n   * @param value The minimum bonded deposit value to register a group or validator.\n   * @param noticePeriod The minimum bonded deposit notice period to register a group or validator.\n   * @return True upon success.\n   * @dev The new requirement is only enforced for future validator or group registrations.\n   */\n  function setRegistrationRequirement(\n    uint256 value,\n    uint256 noticePeriod\n  )\n    external\n    onlyOwner\n    returns (bool)\n  {\n    require(\n      value != registrationRequirement.value ||\n      noticePeriod != registrationRequirement.noticePeriod\n    );\n    registrationRequirement.value = value;\n    registrationRequirement.noticePeriod = noticePeriod;\n    emit RegistrationRequirementSet(value, noticePeriod);\n    return true;\n  }\n\n  /**\n   * @notice Registers a validator unaffiliated with any validator group.\n   * @param identifier An identifier for this validator.\n   * @param name A name for the validator.\n   * @param url A URL for the validator.\n   * @param noticePeriod The notice period of the bonded deposit that meets the requirements for\n   *   validator registration.\n   * @param publicKey The public key that the validator is using for consensus, should match\n   *   msg.sender.\n   * @return True upon success.\n   * @dev Fails if the account is already a validator or validator group.\n   * @dev Fails if the account does not have sufficient weight.\n   */\n  function registerValidator(\n    string calldata identifier,\n    string calldata name,\n    string calldata url,\n    bytes calldata publicKey,\n    uint256 noticePeriod\n  )\n    external\n    nonReentrant\n    returns (bool)\n  {\n    require(\n      bytes(identifier).length > 0 &&\n      bytes(name).length > 0 &&\n      bytes(url).length > 0 &&\n      publicKey.length == 64\n    );\n    address account = getAccountFromValidator(msg.sender);\n    require(!isValidator(account) && !isValidatorGroup(account));\n    require(meetsRegistrationRequirements(account, noticePeriod));\n    Validator storage validator = validators[account];\n    validator.identifier = identifier;\n    validator.name = name;\n    validator.url = url;\n    validator.publicKey = publicKey;\n    _validators.push(account);\n    emit ValidatorRegistered(account, identifier, name, url, publicKey);\n    return true;\n  }\n\n  /**\n   * @notice De-registers a validator, removing it from the group for which it is a member.\n   * @param index The index of this validator in the list of all validators.\n   * @return True upon success.\n   * @dev Fails if the account is not a validator.\n   */\n  function deregisterValidator(uint256 index) external nonReentrant returns (bool) {\n    address account = getAccountFromValidator(msg.sender);\n    require(isValidator(account));\n    Validator storage validator = validators[account];\n    if (validator.affiliation != address(0)) {\n      _deaffiliate(validator, account);\n    }\n    delete validators[account];\n    deleteElement(_validators, account, index);\n    emit ValidatorDeregistered(account);\n    return true;\n  }\n\n  /**\n   * @notice Affiliates a validator with a group, allowing it to be added as a member.\n   * @param group The validator group with which to affiliate.\n   * @return True upon success.\n   * @dev De-affiliates with the previously affiliated group if present.\n   */\n  function affiliate(address group) external nonReentrant returns (bool) {\n    address account = getAccountFromValidator(msg.sender);\n    require(isValidator(account) && isValidatorGroup(group));\n    Validator storage validator = validators[account];\n    if (validator.affiliation != address(0)) {\n      _deaffiliate(validator, account);\n    }\n    validator.affiliation = group;\n    emit ValidatorAffiliated(account, group);\n    return true;\n  }\n\n  /**\n   * @notice De-affiliates a validator, removing it from the group for which it is a member.\n   * @return True upon success.\n   * @dev Fails if the account is not a validator with non-zero affiliation.\n   */\n  function deaffiliate() external nonReentrant returns (bool) {\n    address account = getAccountFromValidator(msg.sender);\n    require(isValidator(account));\n    Validator storage validator = validators[account];\n    require(validator.affiliation != address(0));\n    _deaffiliate(validator, account);\n    return true;\n  }\n\n  /**\n   * @notice Registers a validator group with no member validators.\n   * @param identifier A identifier for this validator group.\n   * @param name A name for the validator group.\n   * @param url A URL for the validator group.\n   * @param noticePeriod The notice period of the bonded deposit that meets the requirements for\n   *   validator registration.\n   * @return True upon success.\n   * @dev Fails if the account is already a validator or validator group.\n   * @dev Fails if the account does not have sufficient weight.\n   */\n  function registerValidatorGroup(\n    string calldata identifier,\n    string calldata name,\n    string calldata url,\n    uint256 noticePeriod\n  )\n    external\n    nonReentrant\n    returns (bool)\n  {\n    require(bytes(identifier).length > 0 && bytes(name).length > 0 && bytes(url).length > 0);\n    address account = getAccountFromValidator(msg.sender);\n    require(!isValidator(account) && !isValidatorGroup(account));\n    require(meetsRegistrationRequirements(account, noticePeriod));\n    ValidatorGroup storage group = groups[account];\n    group.identifier = identifier;\n    group.name = name;\n    group.url = url;\n    _groups.push(account);\n    emit ValidatorGroupRegistered(account, identifier, name, url);\n    return true;\n  }\n\n  /**\n   * @notice De-registers a validator group.\n   * @param index The index of this validator group in the list of all validator groups.\n   * @return True upon success.\n   * @dev Fails if the account is not a validator group with no members.\n   */\n  function deregisterValidatorGroup(uint256 index) external nonReentrant returns (bool) {\n    address account = getAccountFromValidator(msg.sender);\n    // Only empty Validator Groups can be deregistered.\n    require(isValidatorGroup(account) && groups[account].members.numElements == 0);\n    delete groups[account];\n    deleteElement(_groups, account, index);\n    emit ValidatorGroupDeregistered(account);\n    return true;\n  }\n\n  /**\n   * @notice Adds a member to the end of a validator group's list of members.\n   * @param validator The validator to add to the group\n   * @return True upon success.\n   * @dev Fails if `validator` has not set their affiliation to this account.\n   */\n  function addMember(address validator) external nonReentrant returns (bool) {\n    address account = getAccountFromValidator(msg.sender);\n    require(isValidatorGroup(account) && isValidator(validator));\n    ValidatorGroup storage group = groups[account];\n    require(validators[validator].affiliation == account && !group.members.contains(validator));\n    group.members.push(validator);\n    emit ValidatorGroupMemberAdded(account, validator);\n    return true;\n  }\n\n  /**\n   * @notice Removes a member from a validator group.\n   * @param validator The validator to remove from the group\n   * @return True upon success.\n   * @dev Fails if `validator` is not a member of the account's group.\n   */\n  function removeMember(address validator) external nonReentrant returns (bool) {\n    address account = getAccountFromValidator(msg.sender);\n    require(isValidatorGroup(account) && isValidator(validator));\n    return _removeMember(account, validator);\n  }\n\n  /**\n   * @notice Reorders a member within a validator group.\n   * @param validator The validator to reorder.\n   * @param lesserMember The member who will be behind `validator`, or 0 if `validator` will be the\n   *   last member.\n   * @param greaterMember The member who will be ahead of `validator`, or 0 if `validator` will be\n   *   the first member.\n   * @return True upon success.\n   * @dev Fails if `validator` is not a member of the account's validator group.\n   */\n  function reorderMember(\n    address validator,\n    address lesserMember,\n    address greaterMember\n  )\n    external\n    nonReentrant\n    returns (bool)\n  {\n    address account = getAccountFromValidator(msg.sender);\n    require(isValidatorGroup(account) && isValidator(validator));\n    ValidatorGroup storage group = groups[account];\n    require(group.members.contains(validator));\n    group.members.update(validator, lesserMember, greaterMember);\n    emit ValidatorGroupMemberReordered(account, validator);\n    return true;\n  }\n\n  /**\n   * @notice Casts a vote for a validator group.\n   * @param group The validator group to vote for.\n   * @param lesser The group receiving fewer votes than `group`, or 0 if `group` has the\n   *   fewest votes of any validator group.\n   * @param greater The group receiving more votes than `group`, or 0 if `group` has the\n   *   most votes of any validator group.\n   * @return True upon success.\n   * @dev Fails if `group` is empty or not a validator group.\n   * @dev Fails if the account is frozen.\n   */\n  function vote(\n    address group,\n    address lesser,\n    address greater\n  )\n    external\n    nonReentrant\n    returns (bool)\n  {\n    // Empty validator groups are not electable.\n    require(isValidatorGroup(group) && groups[group].members.numElements > 0);\n    address account = getAccountFromVoter(msg.sender);\n    require(!isVotingFrozen(account));\n    require(voters[account] == address(0));\n    uint256 weight = getAccountWeight(account);\n    require(weight > 0);\n    if (votes.contains(group)) {\n      votes.update(\n        group,\n        votes.getValue(group).add(uint256(weight)),\n        lesser,\n        greater\n      );\n    } else {\n      votes.insert(\n        group,\n        weight,\n        lesser,\n        greater\n      );\n    }\n    voters[account] = group;\n    emit ValidatorGroupVoteCast(account, group, weight);\n    return true;\n  }\n\n  /**\n   * @notice Revokes an outstanding vote for a validator group.\n   * @param lesser The group receiving fewer votes than the group for which the vote was revoked,\n   *   or 0 if that group has the fewest votes of any validator group.\n   * @param greater The group receiving more votes than the group for which the vote was revoked,\n   *   or 0 if that group has the most votes of any validator group.\n   * @return True upon success.\n   * @dev Fails if the account has not voted on a validator group.\n   */\n  function revokeVote(\n    address lesser,\n    address greater\n  )\n    external\n    nonReentrant\n    returns (bool)\n  {\n    address account = getAccountFromVoter(msg.sender);\n    address group = voters[account];\n    require(group != address(0));\n    uint256 weight = getAccountWeight(account);\n    // If the group we had previously voted on removed all its members it is no longer eligible\n    // to receive votes and we don't have to worry about removing our vote.\n    if (votes.contains(group)) {\n      require(weight > 0);\n      uint256 newVoteTotal = votes.getValue(group).sub(uint256(weight));\n      if (newVoteTotal > 0) {\n        votes.update(\n          group,\n          newVoteTotal,\n          lesser,\n          greater\n        );\n      } else {\n        // Groups receiving no votes are not electable.\n        votes.remove(group);\n      }\n    }\n    voters[account] = address(0);\n    emit ValidatorGroupVoteRevoked(account, group, weight);\n    return true;\n  }\n\n  /**\n   * @notice Returns validator information.\n   * @param account The account that registered the validator.\n   * @return The unpacked validator struct.\n   */\n  function getValidator(\n    address account\n  )\n    external\n    view\n    returns (string memory, string memory, string memory, bytes memory, address)\n  {\n    require(isValidator(account));\n    Validator storage validator = validators[account];\n    return (\n      validator.identifier,\n      validator.name,\n      validator.url,\n      validator.publicKey,\n      validator.affiliation\n    );\n  }\n\n  /**\n   * @notice Returns validator group information.\n   * @param account The account that registered the validator group.\n   * @return The unpacked validator group struct.\n   */\n  function getValidatorGroup(\n    address account\n  )\n    external\n    view\n    returns (string memory, string memory, string memory, address[] memory)\n  {\n    require(isValidatorGroup(account));\n    ValidatorGroup storage group = groups[account];\n    return (group.identifier, group.name, group.url, group.members.getKeys());\n  }\n\n  /**\n   * @notice Returns electable validator group addresses and their vote totals.\n   * @return Electable validator group addresses and their vote totals.\n   */\n  function getValidatorGroupVotes() external view returns (address[] memory, uint256[] memory) {\n    return votes.getElements();\n  }\n\n  /**\n   * @notice Returns the number of votes a particular validator group has received.\n   * @param group The account that registered the validator group.\n   * @return The number of votes a particular validator group has received.\n   */\n  function getVotesReceived(address group) external view returns (uint256) {\n    return votes.getValue(group);\n  }\n\n  /**\n   * @notice Returns the bonded deposit requirements to register a validator or group.\n   * @return The minimum value and notice period for the bonded deposit.\n   */\n  function getRegistrationRequirement() external view returns (uint256, uint256) {\n    return (registrationRequirement.value, registrationRequirement.noticePeriod);\n  }\n\n  /**\n   * @notice Returns the list of registered validator accounts.\n   * @return The list of registered validator accounts.\n   */\n  function getRegisteredValidators() external view returns (address[] memory) {\n    return _validators;\n  }\n\n  /**\n   * @notice Returns the list of registered validator group accounts.\n   * @return The list of registered validator group addresses.\n   */\n  function getRegisteredValidatorGroups() external view returns (address[] memory) {\n    return _groups;\n  }\n\n  /**\n   * @notice Returns whether a particular account is a registered validator or validator group.\n   * @param account The account.\n   * @return Whether a particular account is a registered validator or validator group.\n   */\n  function isValidating(address account) external view returns (bool) {\n    return isValidator(account) || isValidatorGroup(account);\n  }\n\n  /**\n   * @notice Returns whether a particular account is voting for a validator group.\n   * @param account The account.\n   * @return Whether a particular account is voting for a validator group.\n   */\n  function isVoting(address account) external view returns (bool) {\n    return (voters[account] != address(0));\n  }\n\n  /**\n   * @notice Returns a list of elected validators with seats allocated to groups via the D'Hondt\n   *   method.\n   * @return The list of elected validators.\n   * @dev See https://en.wikipedia.org/wiki/D%27Hondt_method#Allocation for more information.\n   */\n  /* solhint-disable code-complexity */\n  function getValidators() external view returns (address[] memory) {\n    // Only members of these validator groups are eligible for election.\n    uint256 numElectionGroups = maxElectableValidators;\n    if (numElectionGroups > votes.list.numElements) {\n      numElectionGroups = votes.list.numElements;\n    }\n    address[] memory electionGroups = votes.list.headN(numElectionGroups);\n    // Holds the number of members elected for each of the eligible validator groups.\n    uint256[] memory numMembersElected = new uint256[](electionGroups.length);\n    uint256 totalNumMembersElected = 0;\n    bool memberElectedInRound = true;\n    // Assign a number of seats to each validator group.\n    while (totalNumMembersElected < maxElectableValidators && memberElectedInRound) {\n      memberElectedInRound = false;\n      uint256 groupIndex = 0;\n      FractionUtil.Fraction memory maxN = FractionUtil.Fraction(0, 1);\n      for (uint256 i = 0; i < electionGroups.length; i = i.add(1)) {\n        bool isWinningestGroupInRound = false;\n        (maxN, isWinningestGroupInRound) = dHondt(maxN, electionGroups[i], numMembersElected[i]);\n        if (isWinningestGroupInRound) {\n          memberElectedInRound = true;\n          groupIndex = i;\n        }\n      }\n\n      if (memberElectedInRound) {\n        numMembersElected[groupIndex] = numMembersElected[groupIndex].add(1);\n        totalNumMembersElected = totalNumMembersElected.add(1);\n      }\n    }\n    require(totalNumMembersElected >= minElectableValidators);\n    // Grab the top validators from each group that won seats.\n    address[] memory electedValidators = new address[](totalNumMembersElected);\n    totalNumMembersElected = 0;\n    for (uint256 i = 0; i < electionGroups.length; i = i.add(1)) {\n      address[] memory electedGroupMembers = groups[electionGroups[i]].members.headN(\n        numMembersElected[i]\n      );\n      for (uint256 j = 0; j < electedGroupMembers.length; j = j.add(1)) {\n        // We use the validating delegate if one is set.\n        electedValidators[totalNumMembersElected] = getValidatorFromAccount(electedGroupMembers[j]);\n        totalNumMembersElected = totalNumMembersElected.add(1);\n      }\n    }\n    return electedValidators;\n  }\n  /* solhint-enable code-complexity */\n\n  /**\n   * @notice Returns whether a particular account has a registered validator group.\n   * @param account The account.\n   * @return Whether a particular address is a registered validator group.\n   */\n  function isValidatorGroup(address account) public view returns (bool) {\n    return bytes(groups[account].identifier).length > 0;\n  }\n\n  /**\n   * @notice Returns whether a particular account has a registered validator.\n   * @param account The account.\n   * @return Whether a particular address is a registered validator.\n   */\n  function isValidator(address account) public view returns (bool) {\n    return bytes(validators[account].identifier).length > 0;\n  }\n\n  /**\n   * @notice Returns whether an account meets the requirements to register a validator or group.\n   * @param account The account.\n   * @param noticePeriod The notice period of the bonded deposit that meets the requirements.\n   * @return Whether an account meets the requirements to register a validator or group.\n   */\n  function meetsRegistrationRequirements(\n    address account,\n    uint256 noticePeriod\n  )\n    public\n    view\n    returns (bool)\n  {\n    uint256 value = getBondedDepositValue(account, noticePeriod);\n    return (\n      value >= registrationRequirement.value &&\n      noticePeriod >= registrationRequirement.noticePeriod\n    );\n  }\n\n  /**\n   * @notice Deletes an element from a list of addresses.\n   * @param list The list of addresses.\n   * @param element The address to delete.\n   * @param index The index of `element` in the list.\n   */\n  function deleteElement(address[] storage list, address element, uint256 index) private {\n    require(index < list.length && list[index] == element);\n    uint256 lastIndex = list.length.sub(1);\n    list[index] = list[lastIndex];\n    list[lastIndex] = address(0);\n    list.length = lastIndex;\n  }\n\n  /**\n   * @notice Removes a member from a validator group.\n   * @param group The group from which the member should be removed.\n   * @param validator The validator to remove from the group.\n   * @return True upon success.\n   * @dev If `validator` was the only member of `group`, `group` becomes unelectable.\n   * @dev Fails if `validator` is not a member of `group`.\n   */\n  function _removeMember(address group, address validator) private returns (bool) {\n    ValidatorGroup storage _group = groups[group];\n    require(validators[validator].affiliation == group && _group.members.contains(validator));\n    _group.members.remove(validator);\n    emit ValidatorGroupMemberRemoved(group, validator);\n\n    // Empty validator groups are not electable.\n    if (groups[group].members.numElements == 0) {\n      if (votes.contains(group)) {\n        votes.remove(group);\n      }\n      emit ValidatorGroupEmptied(group);\n    }\n    return true;\n  }\n\n  /**\n   * @notice De-affiliates a validator, removing it from the group for which it is a member.\n   * @param validator The validator to deaffiliate from their affiliated validator group.\n   * @param validatorAccount The BondedDeposits account of the validator.\n   * @return True upon success.\n   */\n  function _deaffiliate(\n    Validator storage validator,\n    address validatorAccount\n  )\n    private\n    returns (bool)\n  {\n    address affiliation = validator.affiliation;\n    ValidatorGroup storage group = groups[affiliation];\n    if (group.members.contains(validatorAccount)) {\n      _removeMember(affiliation, validatorAccount);\n    }\n    emit ValidatorDeaffiliated(validatorAccount, affiliation);\n    validator.affiliation = address(0);\n    return true;\n  }\n\n  /**\n   * @notice Runs D'Hondt for a validator group.\n   * @param maxN The maximum number of votes per elected seat for a group in this round.\n   * @param groupAddress The address of the validator group.\n   * @param numMembersElected The number of members elected so far for this group.\n   * @dev See https://en.wikipedia.org/wiki/D%27Hondt_method#Allocation for more information.\n   * @return The new `maxN` and whether or not the group should win a seat in this round thus far.\n   */\n  function dHondt(\n    FractionUtil.Fraction memory maxN,\n    address groupAddress,\n    uint256 numMembersElected\n  )\n    private\n    view\n    returns (FractionUtil.Fraction memory, bool)\n  {\n    ValidatorGroup storage group = groups[groupAddress];\n    // Only consider groups with members left to be elected.\n    if (group.members.numElements > numMembersElected) {\n      FractionUtil.Fraction memory n = FractionUtil.Fraction(\n        votes.getValue(groupAddress),\n        numMembersElected.add(1)\n      );\n      if (n.isGreaterThan(maxN)) {\n        return (n, true);\n      }\n    }\n    return (maxN, false);\n  }\n}\n",
  "sourcePath": "/Users/yorhodes/celo/celo-monorepo/packages/protocol/contracts/governance/Validators.sol",
  "compiler": {
    "name": "solc",
    "version": "0.5.8+commit.23d335f2.Emscripten.clang"
  },
  "schemaVersion": "3.0.9",
  "updatedAt": "2019-07-17T03:09:18.727Z",
  "devdoc": {
    "methods": {
      "addMember(address)": {
        "details": "Fails if `validator` has not set their affiliation to this account.",
        "params": {
          "validator": "The validator to add to the group"
        },
        "return": "True upon success."
      },
      "affiliate(address)": {
        "details": "De-affiliates with the previously affiliated group if present.",
        "params": {
          "group": "The validator group with which to affiliate."
        },
        "return": "True upon success."
      },
      "deaffiliate()": {
        "details": "Fails if the account is not a validator with non-zero affiliation.",
        "return": "True upon success."
      },
      "deregisterValidator(uint256)": {
        "details": "Fails if the account is not a validator.",
        "params": {
          "index": "The index of this validator in the list of all validators."
        },
        "return": "True upon success."
      },
      "deregisterValidatorGroup(uint256)": {
        "details": "Fails if the account is not a validator group with no members.",
        "params": {
          "index": "The index of this validator group in the list of all validator groups."
        },
        "return": "True upon success."
      },
      "getRegisteredValidatorGroups()": {
        "return": "The list of registered validator group addresses."
      },
      "getRegisteredValidators()": {
        "return": "The list of registered validator accounts."
      },
      "getRegistrationRequirement()": {
        "return": "The minimum value and notice period for the bonded deposit."
      },
      "getValidator(address)": {
        "params": {
          "account": "The account that registered the validator."
        },
        "return": "The unpacked validator struct."
      },
      "getValidatorGroup(address)": {
        "params": {
          "account": "The account that registered the validator group."
        },
        "return": "The unpacked validator group struct."
      },
      "getValidatorGroupVotes()": {
        "return": "Electable validator group addresses and their vote totals."
      },
      "getValidators()": {
        "details": "See https://en.wikipedia.org/wiki/D%27Hondt_method#Allocation for more information.",
        "return": "The list of elected validators."
      },
      "getVotesReceived(address)": {
        "params": {
          "group": "The account that registered the validator group."
        },
        "return": "The number of votes a particular validator group has received."
      },
      "initialize(address,uint256,uint256,uint256,uint256)": {
        "details": "Should be called only once.",
        "params": {
          "_maxElectableValidators": "The maximum number of validators that can be elected.",
          "_minElectableValidators": "The minimum number of validators that can be elected.",
          "registryAddress": "The address of the registry contract.",
          "requirementNoticePeriod": "The minimum bonded deposit notice period to register a group or  validator.",
          "requirementValue": "The minimum bonded deposit value to register a group or validator."
        }
      },
      "isOwner()": {
        "return": "true if `msg.sender` is the owner of the contract."
      },
      "isValidating(address)": {
        "params": {
          "account": "The account."
        },
        "return": "Whether a particular account is a registered validator or validator group."
      },
      "isValidator(address)": {
        "params": {
          "account": "The account."
        },
        "return": "Whether a particular address is a registered validator."
      },
      "isValidatorGroup(address)": {
        "params": {
          "account": "The account."
        },
        "return": "Whether a particular address is a registered validator group."
      },
      "isVoting(address)": {
        "params": {
          "account": "The account."
        },
        "return": "Whether a particular account is voting for a validator group."
      },
      "meetsRegistrationRequirements(address,uint256)": {
        "params": {
          "account": "The account.",
          "noticePeriod": "The notice period of the bonded deposit that meets the requirements."
        },
        "return": "Whether an account meets the requirements to register a validator or group."
      },
      "owner()": {
        "return": "the address of the owner."
      },
      "registerValidator(string,string,string,bytes,uint256)": {
        "details": "Fails if the account is already a validator or validator group.Fails if the account does not have sufficient weight.",
        "params": {
          "identifier": "An identifier for this validator.",
          "name": "A name for the validator.",
          "noticePeriod": "The notice period of the bonded deposit that meets the requirements for  validator registration.",
          "publicKey": "The public key that the validator is using for consensus, should match  msg.sender.",
          "url": "A URL for the validator."
        },
        "return": "True upon success."
      },
      "registerValidatorGroup(string,string,string,uint256)": {
        "details": "Fails if the account is already a validator or validator group.Fails if the account does not have sufficient weight.",
        "params": {
          "identifier": "A identifier for this validator group.",
          "name": "A name for the validator group.",
          "noticePeriod": "The notice period of the bonded deposit that meets the requirements for  validator registration.",
          "url": "A URL for the validator group."
        },
        "return": "True upon success."
      },
      "removeMember(address)": {
        "details": "Fails if `validator` is not a member of the account's group.",
        "params": {
          "validator": "The validator to remove from the group"
        },
        "return": "True upon success."
      },
      "renounceOwnership()": {
        "details": "Allows the current owner to relinquish control of the contract. It will not be possible to call the functions with the `onlyOwner` modifier anymore."
      },
      "reorderMember(address,address,address)": {
        "details": "Fails if `validator` is not a member of the account's validator group.",
        "params": {
          "greaterMember": "The member who will be ahead of `validator`, or 0 if `validator` will be  the first member.",
          "lesserMember": "The member who will be behind `validator`, or 0 if `validator` will be the  last member.",
          "validator": "The validator to reorder."
        },
        "return": "True upon success."
      },
      "revokeVote(address,address)": {
        "details": "Fails if the account has not voted on a validator group.",
        "params": {
          "greater": "The group receiving more votes than the group for which the vote was revoked,  or 0 if that group has the most votes of any validator group.",
          "lesser": "The group receiving fewer votes than the group for which the vote was revoked,  or 0 if that group has the fewest votes of any validator group."
        },
        "return": "True upon success."
      },
      "setMaxElectableValidators(uint256)": {
        "params": {
          "_maxElectableValidators": "The maximum number of validators that can be elected."
        },
        "return": "True upon success."
      },
      "setMinElectableValidators(uint256)": {
        "params": {
          "_minElectableValidators": "The minimum number of validators that can be elected."
        },
        "return": "True upon success."
      },
      "setRegistrationRequirement(uint256,uint256)": {
        "details": "The new requirement is only enforced for future validator or group registrations.",
        "params": {
          "noticePeriod": "The minimum bonded deposit notice period to register a group or validator.",
          "value": "The minimum bonded deposit value to register a group or validator."
        },
        "return": "True upon success."
      },
      "setRegistry(address)": {
        "params": {
          "registryAddress": "The address of a registry contract for routing to other contracts."
        }
      },
      "transferOwnership(address)": {
        "details": "Allows the current owner to transfer control of the contract to a newOwner.",
        "params": {
          "newOwner": "The address to transfer ownership to."
        }
      },
      "vote(address,address,address)": {
        "details": "Fails if `group` is empty or not a validator group.Fails if the account is frozen.",
        "params": {
          "greater": "The group receiving more votes than `group`, or 0 if `group` has the  most votes of any validator group.",
          "group": "The validator group to vote for.",
          "lesser": "The group receiving fewer votes than `group`, or 0 if `group` has the  fewest votes of any validator group."
        },
        "return": "True upon success."
      }
    },
    "title": "A contract for registering and electing Validator Groups and Validators."
  },
  "userdoc": {
    "methods": {
      "addMember(address)": {
        "notice": "Adds a member to the end of a validator group's list of members."
      },
      "affiliate(address)": {
        "notice": "Affiliates a validator with a group, allowing it to be added as a member."
      },
      "deaffiliate()": {
        "notice": "De-affiliates a validator, removing it from the group for which it is a member."
      },
      "deregisterValidator(uint256)": {
        "notice": "De-registers a validator, removing it from the group for which it is a member."
      },
      "deregisterValidatorGroup(uint256)": {
        "notice": "De-registers a validator group."
      },
      "getRegisteredValidatorGroups()": {
        "notice": "Returns the list of registered validator group accounts."
      },
      "getRegisteredValidators()": {
        "notice": "Returns the list of registered validator accounts."
      },
      "getRegistrationRequirement()": {
        "notice": "Returns the bonded deposit requirements to register a validator or group."
      },
      "getValidator(address)": {
        "notice": "Returns validator information."
      },
      "getValidatorGroup(address)": {
        "notice": "Returns validator group information."
      },
      "getValidatorGroupVotes()": {
        "notice": "Returns electable validator group addresses and their vote totals."
      },
      "getValidators()": {
        "notice": "Returns a list of elected validators with seats allocated to groups via the D'Hondt  method."
      },
      "getVotesReceived(address)": {
        "notice": "Returns the number of votes a particular validator group has received."
      },
      "initialize(address,uint256,uint256,uint256,uint256)": {
        "notice": "Initializes critical variables."
      },
      "isValidating(address)": {
        "notice": "Returns whether a particular account is a registered validator or validator group."
      },
      "isValidator(address)": {
        "notice": "Returns whether a particular account has a registered validator."
      },
      "isValidatorGroup(address)": {
        "notice": "Returns whether a particular account has a registered validator group."
      },
      "isVoting(address)": {
        "notice": "Returns whether a particular account is voting for a validator group."
      },
      "meetsRegistrationRequirements(address,uint256)": {
        "notice": "Returns whether an account meets the requirements to register a validator or group."
      },
      "registerValidator(string,string,string,bytes,uint256)": {
        "notice": "Registers a validator unaffiliated with any validator group."
      },
      "registerValidatorGroup(string,string,string,uint256)": {
        "notice": "Registers a validator group with no member validators."
      },
      "removeMember(address)": {
        "notice": "Removes a member from a validator group."
      },
      "renounceOwnership()": {
        "notice": "Renouncing ownership will leave the contract without an owner, thereby removing any functionality that is only available to the owner."
      },
      "reorderMember(address,address,address)": {
        "notice": "Reorders a member within a validator group."
      },
      "revokeVote(address,address)": {
        "notice": "Revokes an outstanding vote for a validator group."
      },
      "setMaxElectableValidators(uint256)": {
        "notice": "Updates the maximum number of validators that can be elected."
      },
      "setMinElectableValidators(uint256)": {
        "notice": "Updates the minimum number of validators that can be elected."
      },
      "setRegistrationRequirement(uint256,uint256)": {
        "notice": "Updates the minimum bonding requirements to register a validator group or validator."
      },
      "setRegistry(address)": {
        "notice": "Updates the address pointing to a Registry contract."
      },
      "vote(address,address,address)": {
        "notice": "Casts a vote for a validator group."
      }
    }
  }
}