{
  "contractName": "MetaTransactionWalletDeployer",
  "abi": [
    {
      "anonymous": false,
      "inputs": [
        {
          "indexed": true,
          "internalType": "address",
          "name": "owner",
          "type": "address"
        },
        {
          "indexed": true,
          "internalType": "address",
          "name": "wallet",
          "type": "address"
        },
        {
          "indexed": false,
          "internalType": "address",
          "name": "implementation",
          "type": "address"
        }
      ],
      "name": "WalletDeployed",
      "type": "event"
    },
    {
      "constant": true,
      "inputs": [],
      "name": "getVersionNumber",
      "outputs": [
        {
          "internalType": "uint256",
          "name": "",
          "type": "uint256"
        },
        {
          "internalType": "uint256",
          "name": "",
          "type": "uint256"
        },
        {
          "internalType": "uint256",
          "name": "",
          "type": "uint256"
        },
        {
          "internalType": "uint256",
          "name": "",
          "type": "uint256"
        }
      ],
      "payable": false,
      "stateMutability": "pure",
      "type": "function"
    },
    {
      "constant": false,
      "inputs": [
        {
          "internalType": "address",
          "name": "owner",
          "type": "address"
        },
        {
          "internalType": "address",
          "name": "implementation",
          "type": "address"
        },
        {
          "internalType": "bytes",
          "name": "initCallData",
          "type": "bytes"
        }
      ],
      "name": "deploy",
      "outputs": [],
      "payable": false,
      "stateMutability": "nonpayable",
      "type": "function"
    }
  ],
  "bytecode": "0x608060405234801561001057600080fd5b50610f30806100206000396000f3fe608060405234801561001057600080fd5b50600436106100365760003560e01c80632db5b86f1461003b57806354255be0146100f4575b600080fd5b6100f26004803603606081101561005157600080fd5b81019080803573ffffffffffffffffffffffffffffffffffffffff169060200190929190803573ffffffffffffffffffffffffffffffffffffffff169060200190929190803590602001906401000000008111156100ae57600080fd5b8201836020820111156100c057600080fd5b803590602001918460018302840111640100000000831117156100e257600080fd5b9091929391929390505050610127565b005b6100fc61034e565b6040518085815260200184815260200183815260200182815260200194505050505060405180910390f35b600060405161013590610375565b604051809103906000f080158015610151573d6000803e3d6000fd5b5090508073ffffffffffffffffffffffffffffffffffffffff166303386ba38585856040518463ffffffff1660e01b8152600401808473ffffffffffffffffffffffffffffffffffffffff1673ffffffffffffffffffffffffffffffffffffffff168152602001806020018281038252848482818152602001925080828437600081840152601f19601f820116905080830192505050945050505050600060405180830381600087803b15801561020757600080fd5b505af115801561021b573d6000803e3d6000fd5b505050508073ffffffffffffffffffffffffffffffffffffffff1663d29d44ee866040518263ffffffff1660e01b8152600401808273ffffffffffffffffffffffffffffffffffffffff1673ffffffffffffffffffffffffffffffffffffffff168152602001915050600060405180830381600087803b15801561029e57600080fd5b505af11580156102b2573d6000803e3d6000fd5b505050508073ffffffffffffffffffffffffffffffffffffffff168573ffffffffffffffffffffffffffffffffffffffff167f59f1a52a03cbb11153119ab5682a8097ec48554e9ce2141612d3615081c4f28886604051808273ffffffffffffffffffffffffffffffffffffffff1673ffffffffffffffffffffffffffffffffffffffff16815260200191505060405180910390a35050505050565b60008060008060018060006003839350829250819150809050935093509350935090919293565b610b79806103838339019056fe60806040526100133361001860201b60201c565b610148565b600073ffffffffffffffffffffffffffffffffffffffff168173ffffffffffffffffffffffffffffffffffffffff1614156100bb576040517f08c379a00000000000000000000000000000000000000000000000000000000081526004018080602001828103825260118152602001807f6f776e65722063616e6e6f74206265203000000000000000000000000000000081525060200191505060405180910390fd5b6000600160405180807f656970313936372e70726f78792e61646d696e000000000000000000000000008152506013019050604051809103902060001c0360001b90508181558173ffffffffffffffffffffffffffffffffffffffff167f50146d0e3c60aa1d17a70635b05494f864e86144a2201275021014fbf08bafe260405160405180910390a25050565b610a22806101576000396000f3fe60806040526004361061004a5760003560e01c806303386ba3146101e757806342404e0714610280578063bb913f41146102d7578063d29d44ee14610328578063f7e6af8014610379575b6000600160405180807f656970313936372e70726f78792e696d706c656d656e746174696f6e00000000815250601c019050604051809103902060001c0360001b9050600081549050600073ffffffffffffffffffffffffffffffffffffffff168173ffffffffffffffffffffffffffffffffffffffff161415610136576040517f08c379a00000000000000000000000000000000000000000000000000000000081526004018080602001828103825260158152602001807f4e6f20496d706c656d656e746174696f6e20736574000000000000000000000081525060200191505060405180910390fd5b61013f816103d0565b6101b1576040517f08c379a00000000000000000000000000000000000000000000000000000000081526004018080602001828103825260188152602001807f496e76616c696420636f6e74726163742061646472657373000000000000000081525060200191505060405180910390fd5b60405136810160405236600082376000803683855af43d604051818101604052816000823e82600081146101e3578282f35b8282fd5b61027e600480360360408110156101fd57600080fd5b81019080803573ffffffffffffffffffffffffffffffffffffffff1690602001909291908035906020019064010000000081111561023a57600080fd5b82018360208201111561024c57600080fd5b8035906020019184600183028401116401000000008311171561026e57600080fd5b909192939192939050505061041b565b005b34801561028c57600080fd5b506102956105c1565b604051808273ffffffffffffffffffffffffffffffffffffffff1673ffffffffffffffffffffffffffffffffffffffff16815260200191505060405180910390f35b3480156102e357600080fd5b50610326600480360360208110156102fa57600080fd5b81019080803573ffffffffffffffffffffffffffffffffffffffff16906020019092919050505061060d565b005b34801561033457600080fd5b506103776004803603602081101561034b57600080fd5b81019080803573ffffffffffffffffffffffffffffffffffffffff1690602001909291905050506107bd565b005b34801561038557600080fd5b5061038e610871565b604051808273ffffffffffffffffffffffffffffffffffffffff1673ffffffffffffffffffffffffffffffffffffffff16815260200191505060405180910390f35b60008060007fc5d2460186f7233c927e7db2dcc703c0e500b653ca82273b7bfad8045d85a47060001b9050833f915080821415801561041257506000801b8214155b92505050919050565b610423610871565b73ffffffffffffffffffffffffffffffffffffffff163373ffffffffffffffffffffffffffffffffffffffff16146104c3576040517f08c379a00000000000000000000000000000000000000000000000000000000081526004018080602001828103825260148152602001807f73656e64657220776173206e6f74206f776e657200000000000000000000000081525060200191505060405180910390fd5b6104cc8361060d565b600060608473ffffffffffffffffffffffffffffffffffffffff168484604051808383808284378083019250505092505050600060405180830381855af49150503d8060008114610539576040519150601f19603f3d011682016040523d82523d6000602084013e61053e565b606091505b508092508193505050816105ba576040517f08c379a000000000000000000000000000000000000000000000000000000000815260040180806020018281038252601e8152602001807f696e697469616c697a6174696f6e2063616c6c6261636b206661696c6564000081525060200191505060405180910390fd5b5050505050565b600080600160405180807f656970313936372e70726f78792e696d706c656d656e746174696f6e00000000815250601c019050604051809103902060001c0360001b9050805491505090565b610615610871565b73ffffffffffffffffffffffffffffffffffffffff163373ffffffffffffffffffffffffffffffffffffffff16146106b5576040517f08c379a00000000000000000000000000000000000000000000000000000000081526004018080602001828103825260148152602001807f73656e64657220776173206e6f74206f776e657200000000000000000000000081525060200191505060405180910390fd5b6000600160405180807f656970313936372e70726f78792e696d706c656d656e746174696f6e00000000815250601c019050604051809103902060001c0360001b9050610701826103d0565b610773576040517f08c379a00000000000000000000000000000000000000000000000000000000081526004018080602001828103825260188152602001807f496e76616c696420636f6e74726163742061646472657373000000000000000081525060200191505060405180910390fd5b8181558173ffffffffffffffffffffffffffffffffffffffff167fab64f92ab780ecbf4f3866f57cee465ff36c89450dcce20237ca7a8d81fb7d1360405160405180910390a25050565b6107c5610871565b73ffffffffffffffffffffffffffffffffffffffff163373ffffffffffffffffffffffffffffffffffffffff1614610865576040517f08c379a00000000000000000000000000000000000000000000000000000000081526004018080602001828103825260148152602001807f73656e64657220776173206e6f74206f776e657200000000000000000000000081525060200191505060405180910390fd5b61086e816108bd565b50565b600080600160405180807f656970313936372e70726f78792e61646d696e000000000000000000000000008152506013019050604051809103902060001c0360001b9050805491505090565b600073ffffffffffffffffffffffffffffffffffffffff168173ffffffffffffffffffffffffffffffffffffffff161415610960576040517f08c379a00000000000000000000000000000000000000000000000000000000081526004018080602001828103825260118152602001807f6f776e65722063616e6e6f74206265203000000000000000000000000000000081525060200191505060405180910390fd5b6000600160405180807f656970313936372e70726f78792e61646d696e000000000000000000000000008152506013019050604051809103902060001c0360001b90508181558173ffffffffffffffffffffffffffffffffffffffff167f50146d0e3c60aa1d17a70635b05494f864e86144a2201275021014fbf08bafe260405160405180910390a2505056fea265627a7a7231582045533c82f72269f659b782d65f9df44acb028dbd1cac773ca302071204faa33364736f6c634300050d0032a265627a7a723158205c32c21bd401ccdda130a41c2f39866d0d923078ec9c08d3b6c493e609edcc4364736f6c634300050d0032",
  "schemaVersion": "3.4.13",
  "updatedAt": "2023-11-17T13:39:53.710Z"
}