{
  "contractName": "Signatures",
  "abi": [
    {
      "constant": true,
      "inputs": [
        {
          "internalType": "address",
          "name": "message",
          "type": "address"
        },
        {
          "internalType": "uint8",
          "name": "v",
          "type": "uint8"
        },
        {
          "internalType": "bytes32",
          "name": "r",
          "type": "bytes32"
        },
        {
          "internalType": "bytes32",
          "name": "s",
          "type": "bytes32"
        }
      ],
      "name": "getSignerOfAddress",
      "outputs": [
        {
          "internalType": "address",
          "name": "",
          "type": "address"
        }
      ],
      "payable": false,
      "stateMutability": "pure",
      "type": "function"
    },
    {
      "constant": true,
      "inputs": [
        {
          "internalType": "bytes32",
          "name": "messageHash",
          "type": "bytes32"
        },
        {
          "internalType": "uint8",
          "name": "v",
          "type": "uint8"
        },
        {
          "internalType": "bytes32",
          "name": "r",
          "type": "bytes32"
        },
        {
          "internalType": "bytes32",
          "name": "s",
          "type": "bytes32"
        }
      ],
      "name": "getSignerOfMessageHash",
      "outputs": [
        {
          "internalType": "address",
          "name": "",
          "type": "address"
        }
      ],
      "payable": false,
      "stateMutability": "pure",
      "type": "function"
    },
    {
      "constant": true,
      "inputs": [
        {
          "internalType": "bytes32",
          "name": "eip712DomainSeparator",
          "type": "bytes32"
        },
        {
          "internalType": "bytes32",
          "name": "structHash",
          "type": "bytes32"
        }
      ],
      "name": "toEthSignedTypedDataHash",
      "outputs": [
        {
          "internalType": "bytes32",
          "name": "",
          "type": "bytes32"
        }
      ],
      "payable": false,
      "stateMutability": "pure",
      "type": "function"
    },
    {
      "constant": true,
      "inputs": [
        {
          "internalType": "bytes32",
          "name": "eip712DomainSeparator",
          "type": "bytes32"
        },
        {
          "internalType": "bytes32",
          "name": "structHash",
          "type": "bytes32"
        },
        {
          "internalType": "uint8",
          "name": "v",
          "type": "uint8"
        },
        {
          "internalType": "bytes32",
          "name": "r",
          "type": "bytes32"
        },
        {
          "internalType": "bytes32",
          "name": "s",
          "type": "bytes32"
        }
      ],
      "name": "getSignerOfTypedDataHash",
      "outputs": [
        {
          "internalType": "address",
          "name": "",
          "type": "address"
        }
      ],
      "payable": false,
      "stateMutability": "pure",
      "type": "function"
    }
  ],
  "bytecode": "0x6105ba610026600b82828239805160001a60731461001957fe5b30600052607381538281f3fe73000000000000000000000000000000000000000030146080604052600436106100565760003560e01c806334d1a2331461005b57806368331709146100f457806396ef41a114610140578063b3abdb0c146101e5575b600080fd5b6100b2600480360360a081101561007157600080fd5b810190808035906020019092919080359060200190929190803560ff1690602001909291908035906020019092919080359060200190929190505050610274565b604051808273ffffffffffffffffffffffffffffffffffffffff1673ffffffffffffffffffffffffffffffffffffffff16815260200191505060405180910390f35b61012a6004803603604081101561010a57600080fd5b8101908080359060200190929190803590602001909291905050506102e6565b6040518082815260200191505060405180910390f35b6101a36004803603608081101561015657600080fd5b81019080803573ffffffffffffffffffffffffffffffffffffffff169060200190929190803560ff1690602001909291908035906020019092919080359060200190929190505050610347565b604051808273ffffffffffffffffffffffffffffffffffffffff1673ffffffffffffffffffffffffffffffffffffffff16815260200191505060405180910390f35b610232600480360360808110156101fb57600080fd5b8101908080359060200190929190803560ff16906020019092919080359060200190929190803590602001909291905050506103b9565b604051808273ffffffffffffffffffffffffffffffffffffffff1673ffffffffffffffffffffffffffffffffffffffff16815260200191505060405180910390f35b6000606060416040519080825280601f01601f1916602001820160405280156102ac5781602001600182028038833980820191505090505b50905083602082015282604082015284606082015360006102cd88886102e6565b90506102d98183610429565b9250505095945050505050565b6000828260405160200180807f19010000000000000000000000000000000000000000000000000000000000008152506002018381526020018281526020019250505060405160208183030381529060405280519060200120905092915050565b60008085604051602001808273ffffffffffffffffffffffffffffffffffffffff1673ffffffffffffffffffffffffffffffffffffffff1660601b81526014019150506040516020818303038152906040528051906020012090506103ae818686866103b9565b915050949350505050565b6000606060416040519080825280601f01601f1916602001820160405280156103f15781602001600182028038833980820191505090505b50905083602082015282604082015284606082015360006104118761052d565b905061041d8183610429565b92505050949350505050565b6000604182511461043d5760009050610527565b60008060006020850151925060408501519150606085015160001a90507f7fffffffffffffffffffffffffffffff5d576e7357a4501ddfe92f46681b20a08260001c11156104915760009350505050610527565b601b8160ff16141580156104a95750601c8160ff1614155b156104ba5760009350505050610527565b60018682858560405160008152602001604052604051808581526020018460ff1660ff1681526020018381526020018281526020019450505050506020604051602081039080840390855afa158015610517573d6000803e3d6000fd5b5050506020604051035193505050505b92915050565b60008160405160200180807f19457468657265756d205369676e6564204d6573736167653a0a333200000000815250601c0182815260200191505060405160208183030381529060405280519060200120905091905056fea265627a7a7231582088ef3e17baff49a63a5dceb44724a4e00f2cb5360d3cf70f675fa4b015291bb164736f6c634300050d0032",
  "source": "pragma solidity ^0.5.13;\n\nimport \"openzeppelin-solidity/contracts/cryptography/ECDSA.sol\";\n\nlibrary Signatures {\n  /**\n  * @notice Given a signed address, returns the signer of the address.\n  * @param message The address that was signed.\n  * @param v The recovery id of the incoming ECDSA signature.\n  * @param r Output value r of the ECDSA signature.\n  * @param s Output value s of the ECDSA signature.\n  */\n  function getSignerOfAddress(address message, uint8 v, bytes32 r, bytes32 s)\n    public\n    pure\n    returns (address)\n  {\n    bytes32 hash = keccak256(abi.encodePacked(message));\n    return getSignerOfMessageHash(hash, v, r, s);\n  }\n\n  /**\n  * @notice Given a message hash, returns the signer of the address.\n  * @param messageHash The hash of a message.\n  * @param v The recovery id of the incoming ECDSA signature.\n  * @param r Output value r of the ECDSA signature.\n  * @param s Output value s of the ECDSA signature.\n  */\n  function getSignerOfMessageHash(bytes32 messageHash, uint8 v, bytes32 r, bytes32 s)\n    public\n    pure\n    returns (address)\n  {\n    bytes memory signature = new bytes(65);\n    // Concatenate (r, s, v) into signature.\n    assembly {\n      mstore(add(signature, 32), r)\n      mstore(add(signature, 64), s)\n      mstore8(add(signature, 96), v)\n    }\n    bytes32 prefixedHash = ECDSA.toEthSignedMessageHash(messageHash);\n    return ECDSA.recover(prefixedHash, signature);\n  }\n\n  /**\n  * @notice Given a domain separator and a structHash, construct the typed data hash\n  * @param eip712DomainSeparator Context specific domain separator\n  * @param structHash hash of the typed data struct\n  * @return The EIP712 typed data hash\n  */\n  function toEthSignedTypedDataHash(bytes32 eip712DomainSeparator, bytes32 structHash)\n    public\n    pure\n    returns (bytes32)\n  {\n    return keccak256(abi.encodePacked(\"\\x19\\x01\", eip712DomainSeparator, structHash));\n  }\n\n  /**\n  * @notice Given a domain separator and a structHash and a signature return the signer\n  * @param eip712DomainSeparator Context specific domain separator\n  * @param structHash hash of the typed data struct\n  * @param v The recovery id of the incoming ECDSA signature.\n  * @param r Output value r of the ECDSA signature.\n  * @param s Output value s of the ECDSA signature.\n  */\n  function getSignerOfTypedDataHash(\n    bytes32 eip712DomainSeparator,\n    bytes32 structHash,\n    uint8 v,\n    bytes32 r,\n    bytes32 s\n  ) public pure returns (address) {\n    bytes memory signature = new bytes(65);\n    // Concatenate (r, s, v) into signature.\n    assembly {\n      mstore(add(signature, 32), r)\n      mstore(add(signature, 64), s)\n      mstore8(add(signature, 96), v)\n    }\n    bytes32 prefixedHash = toEthSignedTypedDataHash(eip712DomainSeparator, structHash);\n    return ECDSA.recover(prefixedHash, signature);\n  }\n}\n",
  "compiler": {
    "name": "solc",
    "version": "0.5.13+commit.5b0b510c.Emscripten.clang"
  },
  "schemaVersion": "3.4.13",
  "updatedAt": "2023-11-17T13:39:53.737Z",
  "devdoc": {
    "methods": {
      "getSignerOfAddress(address,uint8,bytes32,bytes32)": {
        "params": {
          "message": "The address that was signed.",
          "r": "Output value r of the ECDSA signature.",
          "s": "Output value s of the ECDSA signature.",
          "v": "The recovery id of the incoming ECDSA signature."
        }
      },
      "getSignerOfMessageHash(bytes32,uint8,bytes32,bytes32)": {
        "params": {
          "messageHash": "The hash of a message.",
          "r": "Output value r of the ECDSA signature.",
          "s": "Output value s of the ECDSA signature.",
          "v": "The recovery id of the incoming ECDSA signature."
        }
      },
      "getSignerOfTypedDataHash(bytes32,bytes32,uint8,bytes32,bytes32)": {
        "params": {
          "eip712DomainSeparator": "Context specific domain separator",
          "r": "Output value r of the ECDSA signature.",
          "s": "Output value s of the ECDSA signature.",
          "structHash": "hash of the typed data struct",
          "v": "The recovery id of the incoming ECDSA signature."
        }
      },
      "toEthSignedTypedDataHash(bytes32,bytes32)": {
        "params": {
          "eip712DomainSeparator": "Context specific domain separator",
          "structHash": "hash of the typed data struct"
        },
        "return": "The EIP712 typed data hash"
      }
    }
  },
  "userdoc": {
    "methods": {
      "getSignerOfAddress(address,uint8,bytes32,bytes32)": {
        "notice": "Given a signed address, returns the signer of the address."
      },
      "getSignerOfMessageHash(bytes32,uint8,bytes32,bytes32)": {
        "notice": "Given a message hash, returns the signer of the address."
      },
      "getSignerOfTypedDataHash(bytes32,bytes32,uint8,bytes32,bytes32)": {
        "notice": "Given a domain separator and a structHash and a signature return the signer"
      },
      "toEthSignedTypedDataHash(bytes32,bytes32)": {
        "notice": "Given a domain separator and a structHash, construct the typed data hash"
      }
    }
  }
}