{
  "contractName": "SortedOracles",
  "abi": [
    {
      "inputs": [
        {
          "internalType": "bool",
          "name": "test",
          "type": "bool"
        }
      ],
      "payable": false,
      "stateMutability": "nonpayable",
      "type": "constructor"
    },
    {
      "anonymous": false,
      "inputs": [
        {
          "indexed": true,
          "internalType": "address",
          "name": "token",
          "type": "address"
        },
        {
          "indexed": false,
          "internalType": "uint256",
          "name": "value",
          "type": "uint256"
        }
      ],
      "name": "MedianUpdated",
      "type": "event"
    },
    {
      "anonymous": false,
      "inputs": [
        {
          "indexed": true,
          "internalType": "address",
          "name": "token",
          "type": "address"
        },
        {
          "indexed": true,
          "internalType": "address",
          "name": "oracleAddress",
          "type": "address"
        }
      ],
      "name": "OracleAdded",
      "type": "event"
    },
    {
      "anonymous": false,
      "inputs": [
        {
          "indexed": true,
          "internalType": "address",
          "name": "token",
          "type": "address"
        },
        {
          "indexed": true,
          "internalType": "address",
          "name": "oracleAddress",
          "type": "address"
        }
      ],
      "name": "OracleRemoved",
      "type": "event"
    },
    {
      "anonymous": false,
      "inputs": [
        {
          "indexed": true,
          "internalType": "address",
          "name": "token",
          "type": "address"
        },
        {
          "indexed": true,
          "internalType": "address",
          "name": "oracle",
          "type": "address"
        }
      ],
      "name": "OracleReportRemoved",
      "type": "event"
    },
    {
      "anonymous": false,
      "inputs": [
        {
          "indexed": true,
          "internalType": "address",
          "name": "token",
          "type": "address"
        },
        {
          "indexed": true,
          "internalType": "address",
          "name": "oracle",
          "type": "address"
        },
        {
          "indexed": false,
          "internalType": "uint256",
          "name": "timestamp",
          "type": "uint256"
        },
        {
          "indexed": false,
          "internalType": "uint256",
          "name": "value",
          "type": "uint256"
        }
      ],
      "name": "OracleReported",
      "type": "event"
    },
    {
      "anonymous": false,
      "inputs": [
        {
          "indexed": true,
          "internalType": "address",
          "name": "previousOwner",
          "type": "address"
        },
        {
          "indexed": true,
          "internalType": "address",
          "name": "newOwner",
          "type": "address"
        }
      ],
      "name": "OwnershipTransferred",
      "type": "event"
    },
    {
      "anonymous": false,
      "inputs": [
        {
          "indexed": false,
          "internalType": "uint256",
          "name": "reportExpiry",
          "type": "uint256"
        }
      ],
      "name": "ReportExpirySet",
      "type": "event"
    },
    {
      "anonymous": false,
      "inputs": [
        {
          "indexed": false,
          "internalType": "address",
          "name": "token",
          "type": "address"
        },
        {
          "indexed": false,
          "internalType": "uint256",
          "name": "reportExpiry",
          "type": "uint256"
        }
      ],
      "name": "TokenReportExpirySet",
      "type": "event"
    },
    {
      "constant": true,
      "inputs": [],
      "name": "initialized",
      "outputs": [
        {
          "internalType": "bool",
          "name": "",
          "type": "bool"
        }
      ],
      "payable": false,
      "stateMutability": "view",
      "type": "function"
    },
    {
      "constant": true,
      "inputs": [
        {
          "internalType": "address",
          "name": "",
          "type": "address"
        },
        {
          "internalType": "address",
          "name": "",
          "type": "address"
        }
      ],
      "name": "isOracle",
      "outputs": [
        {
          "internalType": "bool",
          "name": "",
          "type": "bool"
        }
      ],
      "payable": false,
      "stateMutability": "view",
      "type": "function"
    },
    {
      "constant": true,
      "inputs": [],
      "name": "isOwner",
      "outputs": [
        {
          "internalType": "bool",
          "name": "",
          "type": "bool"
        }
      ],
      "payable": false,
      "stateMutability": "view",
      "type": "function"
    },
    {
      "constant": true,
      "inputs": [
        {
          "internalType": "address",
          "name": "",
          "type": "address"
        },
        {
          "internalType": "uint256",
          "name": "",
          "type": "uint256"
        }
      ],
      "name": "oracles",
      "outputs": [
        {
          "internalType": "address",
          "name": "",
          "type": "address"
        }
      ],
      "payable": false,
      "stateMutability": "view",
      "type": "function"
    },
    {
      "constant": true,
      "inputs": [],
      "name": "owner",
      "outputs": [
        {
          "internalType": "address",
          "name": "",
          "type": "address"
        }
      ],
      "payable": false,
      "stateMutability": "view",
      "type": "function"
    },
    {
      "constant": false,
      "inputs": [],
      "name": "renounceOwnership",
      "outputs": [],
      "payable": false,
      "stateMutability": "nonpayable",
      "type": "function"
    },
    {
      "constant": true,
      "inputs": [],
      "name": "reportExpirySeconds",
      "outputs": [
        {
          "internalType": "uint256",
          "name": "",
          "type": "uint256"
        }
      ],
      "payable": false,
      "stateMutability": "view",
      "type": "function"
    },
    {
      "constant": true,
      "inputs": [
        {
          "internalType": "address",
          "name": "",
          "type": "address"
        }
      ],
      "name": "tokenReportExpirySeconds",
      "outputs": [
        {
          "internalType": "uint256",
          "name": "",
          "type": "uint256"
        }
      ],
      "payable": false,
      "stateMutability": "view",
      "type": "function"
    },
    {
      "constant": false,
      "inputs": [
        {
          "internalType": "address",
          "name": "newOwner",
          "type": "address"
        }
      ],
      "name": "transferOwnership",
      "outputs": [],
      "payable": false,
      "stateMutability": "nonpayable",
      "type": "function"
    },
    {
      "constant": true,
      "inputs": [],
      "name": "getVersionNumber",
      "outputs": [
        {
          "internalType": "uint256",
          "name": "",
          "type": "uint256"
        },
        {
          "internalType": "uint256",
          "name": "",
          "type": "uint256"
        },
        {
          "internalType": "uint256",
          "name": "",
          "type": "uint256"
        },
        {
          "internalType": "uint256",
          "name": "",
          "type": "uint256"
        }
      ],
      "payable": false,
      "stateMutability": "pure",
      "type": "function"
    },
    {
      "constant": false,
      "inputs": [
        {
          "internalType": "uint256",
          "name": "_reportExpirySeconds",
          "type": "uint256"
        }
      ],
      "name": "initialize",
      "outputs": [],
      "payable": false,
      "stateMutability": "nonpayable",
      "type": "function"
    },
    {
      "constant": false,
      "inputs": [
        {
          "internalType": "uint256",
          "name": "_reportExpirySeconds",
          "type": "uint256"
        }
      ],
      "name": "setReportExpiry",
      "outputs": [],
      "payable": false,
      "stateMutability": "nonpayable",
      "type": "function"
    },
    {
      "constant": false,
      "inputs": [
        {
          "internalType": "address",
          "name": "_token",
          "type": "address"
        },
        {
          "internalType": "uint256",
          "name": "_reportExpirySeconds",
          "type": "uint256"
        }
      ],
      "name": "setTokenReportExpiry",
      "outputs": [],
      "payable": false,
      "stateMutability": "nonpayable",
      "type": "function"
    },
    {
      "constant": false,
      "inputs": [
        {
          "internalType": "address",
          "name": "token",
          "type": "address"
        },
        {
          "internalType": "address",
          "name": "oracleAddress",
          "type": "address"
        }
      ],
      "name": "addOracle",
      "outputs": [],
      "payable": false,
      "stateMutability": "nonpayable",
      "type": "function"
    },
    {
      "constant": false,
      "inputs": [
        {
          "internalType": "address",
          "name": "token",
          "type": "address"
        },
        {
          "internalType": "address",
          "name": "oracleAddress",
          "type": "address"
        },
        {
          "internalType": "uint256",
          "name": "index",
          "type": "uint256"
        }
      ],
      "name": "removeOracle",
      "outputs": [],
      "payable": false,
      "stateMutability": "nonpayable",
      "type": "function"
    },
    {
      "constant": false,
      "inputs": [
        {
          "internalType": "address",
          "name": "token",
          "type": "address"
        },
        {
          "internalType": "uint256",
          "name": "n",
          "type": "uint256"
        }
      ],
      "name": "removeExpiredReports",
      "outputs": [],
      "payable": false,
      "stateMutability": "nonpayable",
      "type": "function"
    },
    {
      "constant": true,
      "inputs": [
        {
          "internalType": "address",
          "name": "token",
          "type": "address"
        }
      ],
      "name": "isOldestReportExpired",
      "outputs": [
        {
          "internalType": "bool",
          "name": "",
          "type": "bool"
        },
        {
          "internalType": "address",
          "name": "",
          "type": "address"
        }
      ],
      "payable": false,
      "stateMutability": "view",
      "type": "function"
    },
    {
      "constant": false,
      "inputs": [
        {
          "internalType": "address",
          "name": "token",
          "type": "address"
        },
        {
          "internalType": "uint256",
          "name": "value",
          "type": "uint256"
        },
        {
          "internalType": "address",
          "name": "lesserKey",
          "type": "address"
        },
        {
          "internalType": "address",
          "name": "greaterKey",
          "type": "address"
        }
      ],
      "name": "report",
      "outputs": [],
      "payable": false,
      "stateMutability": "nonpayable",
      "type": "function"
    },
    {
      "constant": true,
      "inputs": [
        {
          "internalType": "address",
          "name": "token",
          "type": "address"
        }
      ],
      "name": "numRates",
      "outputs": [
        {
          "internalType": "uint256",
          "name": "",
          "type": "uint256"
        }
      ],
      "payable": false,
      "stateMutability": "view",
      "type": "function"
    },
    {
      "constant": true,
      "inputs": [
        {
          "internalType": "address",
          "name": "token",
          "type": "address"
        }
      ],
      "name": "medianRate",
      "outputs": [
        {
          "internalType": "uint256",
          "name": "",
          "type": "uint256"
        },
        {
          "internalType": "uint256",
          "name": "",
          "type": "uint256"
        }
      ],
      "payable": false,
      "stateMutability": "view",
      "type": "function"
    },
    {
      "constant": true,
      "inputs": [
        {
          "internalType": "address",
          "name": "token",
          "type": "address"
        }
      ],
      "name": "getRates",
      "outputs": [
        {
          "internalType": "address[]",
          "name": "",
          "type": "address[]"
        },
        {
          "internalType": "uint256[]",
          "name": "",
          "type": "uint256[]"
        },
        {
          "internalType": "enum SortedLinkedListWithMedian.MedianRelation[]",
          "name": "",
          "type": "uint8[]"
        }
      ],
      "payable": false,
      "stateMutability": "view",
      "type": "function"
    },
    {
      "constant": true,
      "inputs": [
        {
          "internalType": "address",
          "name": "token",
          "type": "address"
        }
      ],
      "name": "numTimestamps",
      "outputs": [
        {
          "internalType": "uint256",
          "name": "",
          "type": "uint256"
        }
      ],
      "payable": false,
      "stateMutability": "view",
      "type": "function"
    },
    {
      "constant": true,
      "inputs": [
        {
          "internalType": "address",
          "name": "token",
          "type": "address"
        }
      ],
      "name": "medianTimestamp",
      "outputs": [
        {
          "internalType": "uint256",
          "name": "",
          "type": "uint256"
        }
      ],
      "payable": false,
      "stateMutability": "view",
      "type": "function"
    },
    {
      "constant": true,
      "inputs": [
        {
          "internalType": "address",
          "name": "token",
          "type": "address"
        }
      ],
      "name": "getTimestamps",
      "outputs": [
        {
          "internalType": "address[]",
          "name": "",
          "type": "address[]"
        },
        {
          "internalType": "uint256[]",
          "name": "",
          "type": "uint256[]"
        },
        {
          "internalType": "enum SortedLinkedListWithMedian.MedianRelation[]",
          "name": "",
          "type": "uint8[]"
        }
      ],
      "payable": false,
      "stateMutability": "view",
      "type": "function"
    },
    {
      "constant": true,
      "inputs": [
        {
          "internalType": "address",
          "name": "token",
          "type": "address"
        }
      ],
      "name": "getOracles",
      "outputs": [
        {
          "internalType": "address[]",
          "name": "",
          "type": "address[]"
        }
      ],
      "payable": false,
      "stateMutability": "view",
      "type": "function"
    },
    {
      "constant": true,
      "inputs": [
        {
          "internalType": "address",
          "name": "token",
          "type": "address"
        }
      ],
      "name": "getTokenReportExpirySeconds",
      "outputs": [
        {
          "internalType": "uint256",
          "name": "",
          "type": "uint256"
        }
      ],
      "payable": false,
      "stateMutability": "view",
      "type": "function"
    }
  ],
  "bytecode": "0x60806040523480156200001157600080fd5b506040516200407538038062004075833981810160405260208110156200003757600080fd5b81019080805190602001909291905050508060006200005b6200012360201b60201c565b9050806000806101000a81548173ffffffffffffffffffffffffffffffffffffffff021916908373ffffffffffffffffffffffffffffffffffffffff1602179055508073ffffffffffffffffffffffffffffffffffffffff16600073ffffffffffffffffffffffffffffffffffffffff167f8be0079c531659141344cd1fd0a4f28419497f9722a3daafe3b4186f6b6457e060405160405180910390a350806200011b576001600060146101000a81548160ff0219169083151502179055505b50506200012b565b600033905090565b613f3a806200013b6000396000f3fe608060405234801561001057600080fd5b506004361061018e5760003560e01c80638e749281116100de578063ebc1d6bb11610097578063f2fde38b11610071578063f2fde38b14610a64578063fc20935d14610aa8578063fe4b84df14610af6578063ffe736bf14610b245761018e565b8063ebc1d6bb14610973578063ef90e1b0146109a1578063f0ca4adb14610a005761018e565b80638e7492811461065b5780638f32d59b146106f4578063a00a8b2c14610716578063b9292158146107a4578063bbc66a94146108cd578063dd34ca3b146109255761018e565b806353a572971161014b5780636deb6799116101255780636deb679914610521578063715018a61461057957806380e50744146105835780638da5cb5b146106115761018e565b806353a572971461042857806354255be0146104965780636dd6ef0c146104c95761018e565b806302f55b6114610193578063071b48fc146102bc578063158ef93e146103145780632e86bc0114610336578063370c998e1461038e578063493a353c1461040a575b600080fd5b6101d5600480360360208110156101a957600080fd5b81019080803573ffffffffffffffffffffffffffffffffffffffff169060200190929190505050610bb3565b60405180806020018060200180602001848103845287818151815260200191508051906020019060200280838360005b83811015610220578082015181840152602081019050610205565b50505050905001848103835286818151815260200191508051906020019060200280838360005b83811015610262578082015181840152602081019050610247565b50505050905001848103825285818151815260200191508051906020019060200280838360005b838110156102a4578082015181840152602081019050610289565b50505050905001965050505050505060405180910390f35b6102fe600480360360208110156102d257600080fd5b81019080803573ffffffffffffffffffffffffffffffffffffffff169060200190929190505050610e4f565b6040518082815260200191505060405180910390f35b61031c610f22565b604051808215151515815260200191505060405180910390f35b6103786004803603602081101561034c57600080fd5b81019080803573ffffffffffffffffffffffffffffffffffffffff169060200190929190505050610f35565b6040518082815260200191505060405180910390f35b6103f0600480360360408110156103a457600080fd5b81019080803573ffffffffffffffffffffffffffffffffffffffff169060200190929190803573ffffffffffffffffffffffffffffffffffffffff169060200190929190505050610f4d565b604051808215151515815260200191505060405180910390f35b610412610f7c565b6040518082815260200191505060405180910390f35b6104946004803603606081101561043e57600080fd5b81019080803573ffffffffffffffffffffffffffffffffffffffff169060200190929190803573ffffffffffffffffffffffffffffffffffffffff16906020019092919080359060200190929190505050610f82565b005b61049e6114be565b6040518085815260200184815260200183815260200182815260200194505050505060405180910390f35b61050b600480360360208110156104df57600080fd5b81019080803573ffffffffffffffffffffffffffffffffffffffff1690602001909291905050506114e4565b6040518082815260200191505060405180910390f35b6105636004803603602081101561053757600080fd5b81019080803573ffffffffffffffffffffffffffffffffffffffff1690602001909291905050506115b7565b6040518082815260200191505060405180910390f35b610581611652565b005b61060f6004803603608081101561059957600080fd5b81019080803573ffffffffffffffffffffffffffffffffffffffff16906020019092919080359060200190929190803573ffffffffffffffffffffffffffffffffffffffff169060200190929190803573ffffffffffffffffffffffffffffffffffffffff16906020019092919050505061178b565b005b610619612162565b604051808273ffffffffffffffffffffffffffffffffffffffff1673ffffffffffffffffffffffffffffffffffffffff16815260200191505060405180910390f35b61069d6004803603602081101561067157600080fd5b81019080803573ffffffffffffffffffffffffffffffffffffffff16906020019092919050505061218b565b6040518080602001828103825283818151815260200191508051906020019060200280838360005b838110156106e05780820151818401526020810190506106c5565b505050509050019250505060405180910390f35b6106fc612258565b604051808215151515815260200191505060405180910390f35b6107626004803603604081101561072c57600080fd5b81019080803573ffffffffffffffffffffffffffffffffffffffff169060200190929190803590602001909291905050506122b6565b604051808273ffffffffffffffffffffffffffffffffffffffff1673ffffffffffffffffffffffffffffffffffffffff16815260200191505060405180910390f35b6107e6600480360360208110156107ba57600080fd5b81019080803573ffffffffffffffffffffffffffffffffffffffff169060200190929190505050612301565b60405180806020018060200180602001848103845287818151815260200191508051906020019060200280838360005b83811015610831578082015181840152602081019050610816565b50505050905001848103835286818151815260200191508051906020019060200280838360005b83811015610873578082015181840152602081019050610858565b50505050905001848103825285818151815260200191508051906020019060200280838360005b838110156108b557808201518184015260208101905061089a565b50505050905001965050505050505060405180910390f35b61090f600480360360208110156108e357600080fd5b81019080803573ffffffffffffffffffffffffffffffffffffffff16906020019092919050505061259d565b6040518082815260200191505060405180910390f35b6109716004803603604081101561093b57600080fd5b81019080803573ffffffffffffffffffffffffffffffffffffffff16906020019092919080359060200190929190505050612670565b005b61099f6004803603602081101561098957600080fd5b8101908080359060200190929190505050612826565b005b6109e3600480360360208110156109b757600080fd5b81019080803573ffffffffffffffffffffffffffffffffffffffff169060200190929190505050612995565b604051808381526020018281526020019250505060405180910390f35b610a6260048036036040811015610a1657600080fd5b81019080803573ffffffffffffffffffffffffffffffffffffffff169060200190929190803573ffffffffffffffffffffffffffffffffffffffff169060200190929190505050612a8e565b005b610aa660048036036020811015610a7a57600080fd5b81019080803573ffffffffffffffffffffffffffffffffffffffff169060200190929190505050612df0565b005b610af460048036036040811015610abe57600080fd5b81019080803573ffffffffffffffffffffffffffffffffffffffff16906020019092919080359060200190929190505050612e76565b005b610b2260048036036020811015610b0c57600080fd5b8101908080359060200190929190505050613094565b005b610b6660048036036020811015610b3a57600080fd5b81019080803573ffffffffffffffffffffffffffffffffffffffff169060200190929190505050613147565b60405180831515151581526020018273ffffffffffffffffffffffffffffffffffffffff1673ffffffffffffffffffffffffffffffffffffffff1681526020019250505060405180910390f35b6060806060600160008573ffffffffffffffffffffffffffffffffffffffff1673ffffffffffffffffffffffffffffffffffffffff16815260200190815260200160002073__AddressSortedLinkedListWithMedian_____636cfa387390916040518263ffffffff1660e01b81526004018082815260200191505060006040518083038186803b158015610c4757600080fd5b505af4158015610c5b573d6000803e3d6000fd5b505050506040513d6000823e3d601f19601f820116820180604052506060811015610c8557600080fd5b8101908080516040519392919084640100000000821115610ca557600080fd5b83820191506020820185811115610cbb57600080fd5b8251866020820283011164010000000082111715610cd857600080fd5b8083526020830192505050908051906020019060200280838360005b83811015610d0f578082015181840152602081019050610cf4565b5050505090500160405260200180516040519392919084640100000000821115610d3857600080fd5b83820191506020820185811115610d4e57600080fd5b8251866020820283011164010000000082111715610d6b57600080fd5b8083526020830192505050908051906020019060200280838360005b83811015610da2578082015181840152602081019050610d87565b5050505090500160405260200180516040519392919084640100000000821115610dcb57600080fd5b83820191506020820185811115610de157600080fd5b8251866020820283011164010000000082111715610dfe57600080fd5b8083526020830192505050908051906020019060200280838360005b83811015610e35578082015181840152602081019050610e1a565b505050509050016040525050509250925092509193909250565b6000600260008373ffffffffffffffffffffffffffffffffffffffff1673ffffffffffffffffffffffffffffffffffffffff16815260200190815260200160002073__AddressSortedLinkedListWithMedian_____6359d556a890916040518263ffffffff1660e01b81526004018082815260200191505060206040518083038186803b158015610ee057600080fd5b505af4158015610ef4573d6000803e3d6000fd5b505050506040513d6020811015610f0a57600080fd5b81019080805190602001909291905050509050919050565b600060149054906101000a900460ff1681565b60066020528060005260406000206000915090505481565b60036020528160005260406000206020528060005260406000206000915091509054906101000a900460ff1681565b60055481565b610f8a612258565b610ffc576040517f08c379a00000000000000000000000000000000000000000000000000000000081526004018080602001828103825260208152602001807f4f776e61626c653a2063616c6c6572206973206e6f7420746865206f776e657281525060200191505060405180910390fd5b600073ffffffffffffffffffffffffffffffffffffffff168373ffffffffffffffffffffffffffffffffffffffff16141580156110665750600073ffffffffffffffffffffffffffffffffffffffff168273ffffffffffffffffffffffffffffffffffffffff1614155b80156110b3575080600460008573ffffffffffffffffffffffffffffffffffffffff1673ffffffffffffffffffffffffffffffffffffffff16815260200190815260200160002080549050115b801561115e57508173ffffffffffffffffffffffffffffffffffffffff16600460008573ffffffffffffffffffffffffffffffffffffffff1673ffffffffffffffffffffffffffffffffffffffff168152602001908152602001600020828154811061111b57fe5b9060005260206000200160009054906101000a900473ffffffffffffffffffffffffffffffffffffffff1673ffffffffffffffffffffffffffffffffffffffff16145b6111b3576040517f08c379a0000000000000000000000000000000000000000000000000000000008152600401808060200182810382526056815260200180613dc46056913960600191505060405180910390fd5b6000600360008573ffffffffffffffffffffffffffffffffffffffff1673ffffffffffffffffffffffffffffffffffffffff16815260200190815260200160002060008473ffffffffffffffffffffffffffffffffffffffff1673ffffffffffffffffffffffffffffffffffffffff16815260200190815260200160002060006101000a81548160ff021916908315150217905550600460008473ffffffffffffffffffffffffffffffffffffffff1673ffffffffffffffffffffffffffffffffffffffff1681526020019081526020016000206112dd6001600460008773ffffffffffffffffffffffffffffffffffffffff1673ffffffffffffffffffffffffffffffffffffffff168152602001908152602001600020805490506133fb90919063ffffffff16565b815481106112e757fe5b9060005260206000200160009054906101000a900473ffffffffffffffffffffffffffffffffffffffff16600460008573ffffffffffffffffffffffffffffffffffffffff1673ffffffffffffffffffffffffffffffffffffffff168152602001908152602001600020828154811061135c57fe5b9060005260206000200160006101000a81548173ffffffffffffffffffffffffffffffffffffffff021916908373ffffffffffffffffffffffffffffffffffffffff1602179055506113fa6001600460008673ffffffffffffffffffffffffffffffffffffffff1673ffffffffffffffffffffffffffffffffffffffff168152602001908152602001600020805490506133fb90919063ffffffff16565b600460008573ffffffffffffffffffffffffffffffffffffffff1673ffffffffffffffffffffffffffffffffffffffff168152602001908152602001600020816114449190613d18565b5061144f8383613445565b1561145f5761145e8383613653565b5b8173ffffffffffffffffffffffffffffffffffffffff168373ffffffffffffffffffffffffffffffffffffffff167f6dc84b66cc948d847632b9d829f7cb1cb904fbf2c084554a9bc22ad9d845334060405160405180910390a3505050565b600080600080600180600280839350829250819150809050935093509350935090919293565b6000600260008373ffffffffffffffffffffffffffffffffffffffff1673ffffffffffffffffffffffffffffffffffffffff16815260200190815260200160002073__AddressSortedLinkedListWithMedian_____636eafa6c390916040518263ffffffff1660e01b81526004018082815260200191505060206040518083038186803b15801561157557600080fd5b505af4158015611589573d6000803e3d6000fd5b505050506040513d602081101561159f57600080fd5b81019080805190602001909291905050509050919050565b600080600660008473ffffffffffffffffffffffffffffffffffffffff1673ffffffffffffffffffffffffffffffffffffffff16815260200190815260200160002054141561160a57600554905061164d565b600660008373ffffffffffffffffffffffffffffffffffffffff1673ffffffffffffffffffffffffffffffffffffffff1681526020019081526020016000205490505b919050565b61165a612258565b6116cc576040517f08c379a00000000000000000000000000000000000000000000000000000000081526004018080602001828103825260208152602001807f4f776e61626c653a2063616c6c6572206973206e6f7420746865206f776e657281525060200191505060405180910390fd5b600073ffffffffffffffffffffffffffffffffffffffff166000809054906101000a900473ffffffffffffffffffffffffffffffffffffffff1673ffffffffffffffffffffffffffffffffffffffff167f8be0079c531659141344cd1fd0a4f28419497f9722a3daafe3b4186f6b6457e060405160405180910390a360008060006101000a81548173ffffffffffffffffffffffffffffffffffffffff021916908373ffffffffffffffffffffffffffffffffffffffff160217905550565b83600360008273ffffffffffffffffffffffffffffffffffffffff1673ffffffffffffffffffffffffffffffffffffffff16815260200190815260200160002060003373ffffffffffffffffffffffffffffffffffffffff1673ffffffffffffffffffffffffffffffffffffffff16815260200190815260200160002060009054906101000a900460ff1661186b576040517f08c379a0000000000000000000000000000000000000000000000000000000008152600401808060200182810382526027815260200180613e746027913960400191505060405180910390fd5b6000600160008773ffffffffffffffffffffffffffffffffffffffff1673ffffffffffffffffffffffffffffffffffffffff16815260200190815260200160002073__AddressSortedLinkedListWithMedian_____6359d556a890916040518263ffffffff1660e01b81526004018082815260200191505060206040518083038186803b1580156118fc57600080fd5b505af4158015611910573d6000803e3d6000fd5b505050506040513d602081101561192657600080fd5b81019080805190602001909291905050509050600160008773ffffffffffffffffffffffffffffffffffffffff1673ffffffffffffffffffffffffffffffffffffffff16815260200190815260200160002073__AddressSortedLinkedListWithMedian_____6395073a799091336040518363ffffffff1660e01b8152600401808381526020018273ffffffffffffffffffffffffffffffffffffffff1673ffffffffffffffffffffffffffffffffffffffff1681526020019250505060206040518083038186803b1580156119fc57600080fd5b505af4158015611a10573d6000803e3d6000fd5b505050506040513d6020811015611a2657600080fd5b810190808051906020019092919050505015611c6757600160008773ffffffffffffffffffffffffffffffffffffffff1673ffffffffffffffffffffffffffffffffffffffff16815260200190815260200160002073__AddressSortedLinkedListWithMedian_____63832a21479091338888886040518663ffffffff1660e01b8152600401808681526020018573ffffffffffffffffffffffffffffffffffffffff1673ffffffffffffffffffffffffffffffffffffffff1681526020018481526020018373ffffffffffffffffffffffffffffffffffffffff1673ffffffffffffffffffffffffffffffffffffffff1681526020018273ffffffffffffffffffffffffffffffffffffffff1673ffffffffffffffffffffffffffffffffffffffff1681526020019550505050505060006040518083038186803b158015611b6f57600080fd5b505af4158015611b83573d6000803e3d6000fd5b50505050600260008773ffffffffffffffffffffffffffffffffffffffff1673ffffffffffffffffffffffffffffffffffffffff16815260200190815260200160002073__AddressSortedLinkedListWithMedian_____63c1e728e99091336040518363ffffffff1660e01b8152600401808381526020018273ffffffffffffffffffffffffffffffffffffffff1673ffffffffffffffffffffffffffffffffffffffff1681526020019250505060006040518083038186803b158015611c4a57600080fd5b505af4158015611c5e573d6000803e3d6000fd5b50505050611db3565b600160008773ffffffffffffffffffffffffffffffffffffffff1673ffffffffffffffffffffffffffffffffffffffff16815260200190815260200160002073__AddressSortedLinkedListWithMedian_____63d4a092729091338888886040518663ffffffff1660e01b8152600401808681526020018573ffffffffffffffffffffffffffffffffffffffff1673ffffffffffffffffffffffffffffffffffffffff1681526020018481526020018373ffffffffffffffffffffffffffffffffffffffff1673ffffffffffffffffffffffffffffffffffffffff1681526020018273ffffffffffffffffffffffffffffffffffffffff1673ffffffffffffffffffffffffffffffffffffffff1681526020019550505050505060006040518083038186803b158015611d9a57600080fd5b505af4158015611dae573d6000803e3d6000fd5b505050505b600260008773ffffffffffffffffffffffffffffffffffffffff1673ffffffffffffffffffffffffffffffffffffffff16815260200190815260200160002073__AddressSortedLinkedListWithMedian_____63d4a0927290913342600260008c73ffffffffffffffffffffffffffffffffffffffff1673ffffffffffffffffffffffffffffffffffffffff16815260200190815260200160002073__AddressSortedLinkedListWithMedian_____630944c59490916040518263ffffffff1660e01b81526004018082815260200191505060206040518083038186803b158015611e9f57600080fd5b505af4158015611eb3573d6000803e3d6000fd5b505050506040513d6020811015611ec957600080fd5b810190808051906020019092919050505060006040518663ffffffff1660e01b8152600401808681526020018573ffffffffffffffffffffffffffffffffffffffff1673ffffffffffffffffffffffffffffffffffffffff1681526020018481526020018373ffffffffffffffffffffffffffffffffffffffff1673ffffffffffffffffffffffffffffffffffffffff1681526020018273ffffffffffffffffffffffffffffffffffffffff1673ffffffffffffffffffffffffffffffffffffffff1681526020019550505050505060006040518083038186803b158015611fb057600080fd5b505af4158015611fc4573d6000803e3d6000fd5b505050503373ffffffffffffffffffffffffffffffffffffffff168673ffffffffffffffffffffffffffffffffffffffff167f7cebb17173a9ed273d2b7538f64395c0ebf352ff743f1cf8ce66b437a61442134288604051808381526020018281526020019250505060405180910390a36000600160008873ffffffffffffffffffffffffffffffffffffffff1673ffffffffffffffffffffffffffffffffffffffff16815260200190815260200160002073__AddressSortedLinkedListWithMedian_____6359d556a890916040518263ffffffff1660e01b81526004018082815260200191505060206040518083038186803b1580156120c657600080fd5b505af41580156120da573d6000803e3d6000fd5b505050506040513d60208110156120f057600080fd5b81019080805190602001909291905050509050818114612159578673ffffffffffffffffffffffffffffffffffffffff167fa9981ebfc3b766a742486e898f54959b050a66006dbce1a4155c1f84a08bcf41826040518082815260200191505060405180910390a25b50505050505050565b60008060009054906101000a900473ffffffffffffffffffffffffffffffffffffffff16905090565b6060600460008373ffffffffffffffffffffffffffffffffffffffff1673ffffffffffffffffffffffffffffffffffffffff16815260200190815260200160002080548060200260200160405190810160405280929190818152602001828054801561224c57602002820191906000526020600020905b8160009054906101000a900473ffffffffffffffffffffffffffffffffffffffff1673ffffffffffffffffffffffffffffffffffffffff1681526020019060010190808311612202575b50505050509050919050565b60008060009054906101000a900473ffffffffffffffffffffffffffffffffffffffff1673ffffffffffffffffffffffffffffffffffffffff1661229a613a84565b73ffffffffffffffffffffffffffffffffffffffff1614905090565b600460205281600052604060002081815481106122cf57fe5b906000526020600020016000915091509054906101000a900473ffffffffffffffffffffffffffffffffffffffff1681565b6060806060600260008573ffffffffffffffffffffffffffffffffffffffff1673ffffffffffffffffffffffffffffffffffffffff16815260200190815260200160002073__AddressSortedLinkedListWithMedian_____636cfa387390916040518263ffffffff1660e01b81526004018082815260200191505060006040518083038186803b15801561239557600080fd5b505af41580156123a9573d6000803e3d6000fd5b505050506040513d6000823e3d601f19601f8201168201806040525060608110156123d357600080fd5b81019080805160405193929190846401000000008211156123f357600080fd5b8382019150602082018581111561240957600080fd5b825186602082028301116401000000008211171561242657600080fd5b8083526020830192505050908051906020019060200280838360005b8381101561245d578082015181840152602081019050612442565b505050509050016040526020018051604051939291908464010000000082111561248657600080fd5b8382019150602082018581111561249c57600080fd5b82518660208202830111640100000000821117156124b957600080fd5b8083526020830192505050908051906020019060200280838360005b838110156124f05780820151818401526020810190506124d5565b505050509050016040526020018051604051939291908464010000000082111561251957600080fd5b8382019150602082018581111561252f57600080fd5b825186602082028301116401000000008211171561254c57600080fd5b8083526020830192505050908051906020019060200280838360005b83811015612583578082015181840152602081019050612568565b505050509050016040525050509250925092509193909250565b6000600160008373ffffffffffffffffffffffffffffffffffffffff1673ffffffffffffffffffffffffffffffffffffffff16815260200190815260200160002073__AddressSortedLinkedListWithMedian_____636eafa6c390916040518263ffffffff1660e01b81526004018082815260200191505060206040518083038186803b15801561262e57600080fd5b505af4158015612642573d6000803e3d6000fd5b505050506040513d602081101561265857600080fd5b81019080805190602001909291905050509050919050565b600073ffffffffffffffffffffffffffffffffffffffff168273ffffffffffffffffffffffffffffffffffffffff16141580156127755750600260008373ffffffffffffffffffffffffffffffffffffffff1673ffffffffffffffffffffffffffffffffffffffff16815260200190815260200160002073__AddressSortedLinkedListWithMedian_____636eafa6c390916040518263ffffffff1660e01b81526004018082815260200191505060206040518083038186803b15801561273757600080fd5b505af415801561274b573d6000803e3d6000fd5b505050506040513d602081101561276157600080fd5b810190808051906020019092919050505081105b6127ca576040517f08c379a0000000000000000000000000000000000000000000000000000000008152600401808060200182810382526034815260200180613d906034913960400191505060405180910390fd5b60008090505b81811015612821576000806127e485613147565b9150915081156127fd576127f88582613653565b612804565b5050612821565b505061281a600182613a8c90919063ffffffff16565b90506127d0565b505050565b61282e612258565b6128a0576040517f08c379a00000000000000000000000000000000000000000000000000000000081526004018080602001828103825260208152602001807f4f776e61626c653a2063616c6c6572206973206e6f7420746865206f776e657281525060200191505060405180910390fd5b600081116128f9576040517f08c379a0000000000000000000000000000000000000000000000000000000008152600401808060200182810382526021815260200180613ee56021913960400191505060405180910390fd5b600554811415612954576040517f08c379a0000000000000000000000000000000000000000000000000000000008152600401808060200182810382526022815260200180613ec36022913960400191505060405180910390fd5b806005819055507fc68a9b88effd8a11611ff410efbc83569f0031b7bc70dd455b61344c7f0a042f816040518082815260200191505060405180910390a150565b600080600160008473ffffffffffffffffffffffffffffffffffffffff1673ffffffffffffffffffffffffffffffffffffffff16815260200190815260200160002073__AddressSortedLinkedListWithMedian_____6359d556a890916040518263ffffffff1660e01b81526004018082815260200191505060206040518083038186803b158015612a2757600080fd5b505af4158015612a3b573d6000803e3d6000fd5b505050506040513d6020811015612a5157600080fd5b81019080805190602001909291905050506000612a6d8561259d565b14612a825769d3c21bcecceda1000000612a85565b60005b91509150915091565b612a96612258565b612b08576040517f08c379a00000000000000000000000000000000000000000000000000000000081526004018080602001828103825260208152602001807f4f776e61626c653a2063616c6c6572206973206e6f7420746865206f776e657281525060200191505060405180910390fd5b600073ffffffffffffffffffffffffffffffffffffffff168273ffffffffffffffffffffffffffffffffffffffff1614158015612b725750600073ffffffffffffffffffffffffffffffffffffffff168173ffffffffffffffffffffffffffffffffffffffff1614155b8015612c055750600360008373ffffffffffffffffffffffffffffffffffffffff1673ffffffffffffffffffffffffffffffffffffffff16815260200190815260200160002060008273ffffffffffffffffffffffffffffffffffffffff1673ffffffffffffffffffffffffffffffffffffffff16815260200190815260200160002060009054906101000a900460ff16155b612c5a576040517f08c379a000000000000000000000000000000000000000000000000000000000815260040180806020018281038252605a815260200180613e1a605a913960600191505060405180910390fd5b6001600360008473ffffffffffffffffffffffffffffffffffffffff1673ffffffffffffffffffffffffffffffffffffffff16815260200190815260200160002060008373ffffffffffffffffffffffffffffffffffffffff1673ffffffffffffffffffffffffffffffffffffffff16815260200190815260200160002060006101000a81548160ff021916908315150217905550600460008373ffffffffffffffffffffffffffffffffffffffff1673ffffffffffffffffffffffffffffffffffffffff1681526020019081526020016000208190806001815401808255809150509060018203906000526020600020016000909192909190916101000a81548173ffffffffffffffffffffffffffffffffffffffff021916908373ffffffffffffffffffffffffffffffffffffffff160217905550508073ffffffffffffffffffffffffffffffffffffffff168273ffffffffffffffffffffffffffffffffffffffff167f828d2be040dede7698182e08dfa8bfbd663c879aee772509c4a2bd961d0ed43f60405160405180910390a35050565b612df8612258565b612e6a576040517f08c379a00000000000000000000000000000000000000000000000000000000081526004018080602001828103825260208152602001807f4f776e61626c653a2063616c6c6572206973206e6f7420746865206f776e657281525060200191505060405180910390fd5b612e7381613b14565b50565b612e7e612258565b612ef0576040517f08c379a00000000000000000000000000000000000000000000000000000000081526004018080602001828103825260208152602001807f4f776e61626c653a2063616c6c6572206973206e6f7420746865206f776e657281525060200191505060405180910390fd5b60008111612f49576040517f08c379a0000000000000000000000000000000000000000000000000000000008152600401808060200182810382526021815260200180613ee56021913960400191505060405180910390fd5b600660008373ffffffffffffffffffffffffffffffffffffffff1673ffffffffffffffffffffffffffffffffffffffff16815260200190815260200160002054811415612fe1576040517f08c379a0000000000000000000000000000000000000000000000000000000008152600401808060200182810382526028815260200180613e9b6028913960400191505060405180910390fd5b80600660008473ffffffffffffffffffffffffffffffffffffffff1673ffffffffffffffffffffffffffffffffffffffff168152602001908152602001600020819055507ff8324c8592dfd9991ee3e717351afe0a964605257959e3d99b0eb3d45bff94228282604051808373ffffffffffffffffffffffffffffffffffffffff1673ffffffffffffffffffffffffffffffffffffffff1681526020018281526020019250505060405180910390a15050565b600060149054906101000a900460ff1615613117576040517f08c379a000000000000000000000000000000000000000000000000000000000815260040180806020018281038252601c8152602001807f636f6e747261637420616c726561647920696e697469616c697a65640000000081525060200191505060405180910390fd5b6001600060146101000a81548160ff02191690831515021790555061313b33613b14565b61314481612826565b50565b600080600073ffffffffffffffffffffffffffffffffffffffff168373ffffffffffffffffffffffffffffffffffffffff1614156131ed576040517f08c379a000000000000000000000000000000000000000000000000000000000815260040180806020018281038252601c8152602001807f746f6b656e20616464726573732063616e6e6f74206265206e756c6c0000000081525060200191505060405180910390fd5b6000600260008573ffffffffffffffffffffffffffffffffffffffff1673ffffffffffffffffffffffffffffffffffffffff16815260200190815260200160002073__AddressSortedLinkedListWithMedian_____63d938ec7b90916040518263ffffffff1660e01b81526004018082815260200191505060206040518083038186803b15801561327e57600080fd5b505af4158015613292573d6000803e3d6000fd5b505050506040513d60208110156132a857600080fd5b810190808051906020019092919050505090506000600260008673ffffffffffffffffffffffffffffffffffffffff1673ffffffffffffffffffffffffffffffffffffffff16815260200190815260200160002073__AddressSortedLinkedListWithMedian_____637c6bb8629091846040518363ffffffff1660e01b8152600401808381526020018273ffffffffffffffffffffffffffffffffffffffff1673ffffffffffffffffffffffffffffffffffffffff1681526020019250505060206040518083038186803b15801561338057600080fd5b505af4158015613394573d6000803e3d6000fd5b505050506040513d60208110156133aa57600080fd5b810190808051906020019092919050505090506133c6856115b7565b6133d982426133fb90919063ffffffff16565b106133ec576001829350935050506133f6565b6000829350935050505b915091565b600061343d83836040518060400160405280601e81526020017f536166654d6174683a207375627472616374696f6e206f766572666c6f770000815250613c58565b905092915050565b6000600160008473ffffffffffffffffffffffffffffffffffffffff1673ffffffffffffffffffffffffffffffffffffffff16815260200190815260200160002073__AddressSortedLinkedListWithMedian_____6395073a799091846040518363ffffffff1660e01b8152600401808381526020018273ffffffffffffffffffffffffffffffffffffffff1673ffffffffffffffffffffffffffffffffffffffff1681526020019250505060206040518083038186803b15801561350a57600080fd5b505af415801561351e573d6000803e3d6000fd5b505050506040513d602081101561353457600080fd5b8101908080519060200190929190505050801561364b5750600260008473ffffffffffffffffffffffffffffffffffffffff1673ffffffffffffffffffffffffffffffffffffffff16815260200190815260200160002073__AddressSortedLinkedListWithMedian_____6395073a799091846040518363ffffffff1660e01b8152600401808381526020018273ffffffffffffffffffffffffffffffffffffffff1673ffffffffffffffffffffffffffffffffffffffff1681526020019250505060206040518083038186803b15801561360f57600080fd5b505af4158015613623573d6000803e3d6000fd5b505050506040513d602081101561363957600080fd5b81019080805190602001909291905050505b905092915050565b600161365e836114e4565b14801561367157506136708282613445565b5b1561367b57613a80565b6000600160008473ffffffffffffffffffffffffffffffffffffffff1673ffffffffffffffffffffffffffffffffffffffff16815260200190815260200160002073__AddressSortedLinkedListWithMedian_____6359d556a890916040518263ffffffff1660e01b81526004018082815260200191505060206040518083038186803b15801561370c57600080fd5b505af4158015613720573d6000803e3d6000fd5b505050506040513d602081101561373657600080fd5b81019080805190602001909291905050509050600160008473ffffffffffffffffffffffffffffffffffffffff1673ffffffffffffffffffffffffffffffffffffffff16815260200190815260200160002073__AddressSortedLinkedListWithMedian_____63c1e728e99091846040518363ffffffff1660e01b8152600401808381526020018273ffffffffffffffffffffffffffffffffffffffff1673ffffffffffffffffffffffffffffffffffffffff1681526020019250505060006040518083038186803b15801561380c57600080fd5b505af4158015613820573d6000803e3d6000fd5b50505050600260008473ffffffffffffffffffffffffffffffffffffffff1673ffffffffffffffffffffffffffffffffffffffff16815260200190815260200160002073__AddressSortedLinkedListWithMedian_____63c1e728e99091846040518363ffffffff1660e01b8152600401808381526020018273ffffffffffffffffffffffffffffffffffffffff1673ffffffffffffffffffffffffffffffffffffffff1681526020019250505060006040518083038186803b1580156138e757600080fd5b505af41580156138fb573d6000803e3d6000fd5b505050508173ffffffffffffffffffffffffffffffffffffffff168373ffffffffffffffffffffffffffffffffffffffff167fe21a44017b6fa1658d84e937d56ff408501facdb4ff7427c479ac460d76f789360405160405180910390a36000600160008573ffffffffffffffffffffffffffffffffffffffff1673ffffffffffffffffffffffffffffffffffffffff16815260200190815260200160002073__AddressSortedLinkedListWithMedian_____6359d556a890916040518263ffffffff1660e01b81526004018082815260200191505060206040518083038186803b1580156139ea57600080fd5b505af41580156139fe573d6000803e3d6000fd5b505050506040513d6020811015613a1457600080fd5b81019080805190602001909291905050509050818114613a7d578373ffffffffffffffffffffffffffffffffffffffff167fa9981ebfc3b766a742486e898f54959b050a66006dbce1a4155c1f84a08bcf41826040518082815260200191505060405180910390a25b50505b5050565b600033905090565b600080828401905083811015613b0a576040517f08c379a000000000000000000000000000000000000000000000000000000000815260040180806020018281038252601b8152602001807f536166654d6174683a206164646974696f6e206f766572666c6f77000000000081525060200191505060405180910390fd5b8091505092915050565b600073ffffffffffffffffffffffffffffffffffffffff168173ffffffffffffffffffffffffffffffffffffffff161415613b9a576040517f08c379a0000000000000000000000000000000000000000000000000000000008152600401808060200182810382526026815260200180613d6a6026913960400191505060405180910390fd5b8073ffffffffffffffffffffffffffffffffffffffff166000809054906101000a900473ffffffffffffffffffffffffffffffffffffffff1673ffffffffffffffffffffffffffffffffffffffff167f8be0079c531659141344cd1fd0a4f28419497f9722a3daafe3b4186f6b6457e060405160405180910390a3806000806101000a81548173ffffffffffffffffffffffffffffffffffffffff021916908373ffffffffffffffffffffffffffffffffffffffff16021790555050565b6000838311158290613d05576040517f08c379a00000000000000000000000000000000000000000000000000000000081526004018080602001828103825283818151815260200191508051906020019080838360005b83811015613cca578082015181840152602081019050613caf565b50505050905090810190601f168015613cf75780820380516001836020036101000a031916815260200191505b509250505060405180910390fd5b5060008385039050809150509392505050565b815481835581811115613d3f57818360005260206000209182019101613d3e9190613d44565b5b505050565b613d6691905b80821115613d62576000816000905550600101613d4a565b5090565b9056fe4f776e61626c653a206e6577206f776e657220697320746865207a65726f2061646472657373746f6b656e2061646472206e756c6c206f7220747279696e6720746f2072656d6f766520746f6f206d616e79207265706f727473746f6b656e2061646472206e756c6c206f72206f7261636c652061646472206e756c6c206f7220696e646578206f6620746f6b656e206f7261636c65206e6f74206d617070656420746f206f7261636c652061646472746f6b656e206164647220776173206e756c6c206f72206f7261636c65206164647220776173206e756c6c206f72206f7261636c652061646472206973206e6f7420616e206f7261636c6520666f7220746f6b656e206164647273656e64657220776173206e6f7420616e206f7261636c6520666f7220746f6b656e2061646472746f6b656e207265706f72744578706972795365636f6e6473206861736e2774206368616e6765647265706f72744578706972795365636f6e6473206861736e2774206368616e6765647265706f727420657870697279207365636f6e6473206d757374206265203e2030a265627a7a72315820849253f5235f59f72c6f188eb06e1d5b61c0bf283d179bf6a9ddf924fe23f4c564736f6c634300050d0032",
  "schemaVersion": "3.4.13",
  "updatedAt": "2023-11-17T13:39:54.611Z"
}