{
  "contractName": "AddressSortedLinkedListWithMedian",
  "abi": [
    {
      "constant": true,
      "inputs": [
        {
          "name": "a",
          "type": "address"
        }
      ],
      "name": "toBytes",
      "outputs": [
        {
          "name": "",
          "type": "bytes32"
        }
      ],
      "payable": false,
      "stateMutability": "pure",
      "type": "function"
    },
    {
      "constant": true,
      "inputs": [
        {
          "name": "b",
          "type": "bytes32"
        }
      ],
      "name": "toAddress",
      "outputs": [
        {
          "name": "",
          "type": "address"
        }
      ],
      "payable": false,
      "stateMutability": "pure",
      "type": "function"
    }
  ],
  "bytecode": "0x611153610026600b82828239805160001a60731461001957fe5b30600052607381538281f3fe73000000000000000000000000000000000000000030146080604052600436106100d95760003560e01c80636eafa6c31161009657806395073a791161007057806395073a791461051e578063c1e728e914610584578063d4a09272146105df578063d938ec7b14610684576100d9565b80636eafa6c3146103d55780637c6bb86214610417578063832a214714610479576100d9565b80630944c594146100de5780633118159e1461014c578063341f6623146101ba578063593b79fe1461022857806359d556a8146102805780636cfa3873146102c2575b600080fd5b61010a600480360360208110156100f457600080fd5b81019080803590602001909291905050506106f2565b604051808273ffffffffffffffffffffffffffffffffffffffff1673ffffffffffffffffffffffffffffffffffffffff16815260200191505060405180910390f35b6101786004803603602081101561016257600080fd5b810190808035906020019092919050505061078f565b604051808273ffffffffffffffffffffffffffffffffffffffff1673ffffffffffffffffffffffffffffffffffffffff16815260200191505060405180910390f35b6101e6600480360360208110156101d057600080fd5b810190808035906020019092919050505061082c565b604051808273ffffffffffffffffffffffffffffffffffffffff1673ffffffffffffffffffffffffffffffffffffffff16815260200191505060405180910390f35b61026a6004803603602081101561023e57600080fd5b81019080803573ffffffffffffffffffffffffffffffffffffffff16906020019092919050505061083d565b6040518082815260200191505060405180910390f35b6102ac6004803603602081101561029657600080fd5b8101908080359060200190929190505050610864565b6040518082815260200191505060405180910390f35b6102ee600480360360208110156102d857600080fd5b8101908080359060200190929190505050610905565b60405180806020018060200180602001848103845287818151815260200191508051906020019060200280838360005b8381101561033957808201518184015260208101905061031e565b50505050905001848103835286818151815260200191508051906020019060200280838360005b8381101561037b578082015181840152602081019050610360565b50505050905001848103825285818151815260200191508051906020019060200280838360005b838110156103bd5780820151818401526020810190506103a2565b50505050905001965050505050505060405180910390f35b610401600480360360208110156103eb57600080fd5b8101908080359060200190929190505050610c54565b6040518082815260200191505060405180910390f35b6104636004803603604081101561042d57600080fd5b8101908080359060200190929190803573ffffffffffffffffffffffffffffffffffffffff169060200190929190505050610ce9565b6040518082815260200191505060405180910390f35b81801561048557600080fd5b5061051c600480360360a081101561049c57600080fd5b8101908080359060200190929190803573ffffffffffffffffffffffffffffffffffffffff16906020019092919080359060200190929190803573ffffffffffffffffffffffffffffffffffffffff169060200190929190803573ffffffffffffffffffffffffffffffffffffffff169060200190929190505050610d8f565b005b61056a6004803603604081101561053457600080fd5b8101908080359060200190929190803573ffffffffffffffffffffffffffffffffffffffff169060200190929190505050610e37565b604051808215151515815260200191505060405180910390f35b81801561059057600080fd5b506105dd600480360360408110156105a757600080fd5b8101908080359060200190929190803573ffffffffffffffffffffffffffffffffffffffff169060200190929190505050610edd565b005b8180156105eb57600080fd5b50610682600480360360a081101561060257600080fd5b8101908080359060200190929190803573ffffffffffffffffffffffffffffffffffffffff16906020019092919080359060200190929190803573ffffffffffffffffffffffffffffffffffffffff169060200190929190803573ffffffffffffffffffffffffffffffffffffffff169060200190929190505050610f5a565b005b6106b06004803603602081101561069a57600080fd5b8101908080359060200190929190505050611002565b604051808273ffffffffffffffffffffffffffffffffffffffff1673ffffffffffffffffffffffffffffffffffffffff16815260200191505060405180910390f35b60006107888273__SortedLinkedListWithMedian____________630944c59490916040518263ffffffff1660e01b81526004018082815260200191505060206040518083038186803b15801561074857600080fd5b505af415801561075c573d6000803e3d6000fd5b505050506040513d602081101561077257600080fd5b810190808051906020019092919050505061082c565b9050919050565b60006108258273__SortedLinkedListWithMedian____________633118159e90916040518263ffffffff1660e01b81526004018082815260200191505060206040518083038186803b1580156107e557600080fd5b505af41580156107f9573d6000803e3d6000fd5b505050506040513d602081101561080f57600080fd5b810190808051906020019092919050505061082c565b9050919050565b600060608260001c901c9050919050565b600060608273ffffffffffffffffffffffffffffffffffffffff16901b60001b9050919050565b60008173__SortedLinkedListWithMedian____________63b52c01b4909184600501546040518363ffffffff1660e01b8152600401808381526020018281526020019250505060206040518083038186803b1580156108c357600080fd5b505af41580156108d7573d6000803e3d6000fd5b505050506040513d60208110156108ed57600080fd5b81019080805190602001909291905050509050919050565b6060806060808473__SortedLinkedListWithMedian____________63c31b9b9390916040518263ffffffff1660e01b81526004018082815260200191505060006040518083038186803b15801561095c57600080fd5b505af4158015610970573d6000803e3d6000fd5b505050506040513d6000823e3d601f19601f82011682018060405250602081101561099a57600080fd5b8101908080516401000000008111156109b257600080fd5b828101905060208101848111156109c857600080fd5b81518560208202830111640100000000821117156109e557600080fd5b5050929190505050905060608151604051908082528060200260200182016040528015610a215781602001602082028038833980820191505090505b50905060608251604051908082528060200260200182016040528015610a565781602001602082028038833980820191505090505b50905060608251604051908082528060200260200182016040528015610a8b5781602001602082028038833980820191505090505b50905060008090505b8451811015610c3f57610ab9858281518110610aac57fe5b602002602001015161082c565b848281518110610ac557fe5b602002602001019073ffffffffffffffffffffffffffffffffffffffff16908173ffffffffffffffffffffffffffffffffffffffff16815250508873__SortedLinkedListWithMedian____________63b52c01b49091878481518110610b2857fe5b60200260200101516040518363ffffffff1660e01b8152600401808381526020018281526020019250505060206040518083038186803b158015610b6b57600080fd5b505af4158015610b7f573d6000803e3d6000fd5b505050506040513d6020811015610b9557600080fd5b8101908080519060200190929190505050838281518110610bb257fe5b602002602001018181525050886006016000868381518110610bd057fe5b6020026020010151815260200190815260200160002060009054906101000a900460ff16828281518110610c0057fe5b60200260200101906003811115610c1357fe5b90816003811115610c2057fe5b81525050610c3860018261109f90919063ffffffff16565b9050610a94565b50828282965096509650505050509193909250565b60008173__SortedLinkedListWithMedian____________636eafa6c390916040518263ffffffff1660e01b81526004018082815260200191505060206040518083038186803b158015610ca757600080fd5b505af4158015610cbb573d6000803e3d6000fd5b505050506040513d6020811015610cd157600080fd5b81019080805190602001909291905050509050919050565b60008273__SortedLinkedListWithMedian____________63b52c01b49091610d118561083d565b6040518363ffffffff1660e01b8152600401808381526020018281526020019250505060206040518083038186803b158015610d4c57600080fd5b505af4158015610d60573d6000803e3d6000fd5b505050506040513d6020811015610d7657600080fd5b8101908080519060200190929190505050905092915050565b8473__SortedLinkedListWithMedian____________63e01e42c69091610db58761083d565b86610dbf8761083d565b610dc88761083d565b6040518663ffffffff1660e01b8152600401808681526020018581526020018481526020018381526020018281526020019550505050505060006040518083038186803b158015610e1857600080fd5b505af4158015610e2c573d6000803e3d6000fd5b505050505050505050565b60008273__SortedLinkedListWithMedian____________636b2c8c309091610e5f8561083d565b6040518363ffffffff1660e01b8152600401808381526020018281526020019250505060206040518083038186803b158015610e9a57600080fd5b505af4158015610eae573d6000803e3d6000fd5b505050506040513d6020811015610ec457600080fd5b8101908080519060200190929190505050905092915050565b8173__SortedLinkedListWithMedian____________63cfc5e4419091610f038461083d565b6040518363ffffffff1660e01b8152600401808381526020018281526020019250505060006040518083038186803b158015610f3e57600080fd5b505af4158015610f52573d6000803e3d6000fd5b505050505050565b8473__SortedLinkedListWithMedian____________633916b5fa9091610f808761083d565b86610f8a8761083d565b610f938761083d565b6040518663ffffffff1660e01b8152600401808681526020018581526020018481526020018381526020018281526020019550505050505060006040518083038186803b158015610fe357600080fd5b505af4158015610ff7573d6000803e3d6000fd5b505050505050505050565b60006110988273__SortedLinkedListWithMedian____________63d938ec7b90916040518263ffffffff1660e01b81526004018082815260200191505060206040518083038186803b15801561105857600080fd5b505af415801561106c573d6000803e3d6000fd5b505050506040513d602081101561108257600080fd5b810190808051906020019092919050505061082c565b9050919050565b60008082840190508381101561111d576040517f08c379a000000000000000000000000000000000000000000000000000000000815260040180806020018281038252601b8152602001807f536166654d6174683a206164646974696f6e206f766572666c6f77000000000081525060200191505060405180910390fd5b809150509291505056fea165627a7a723058203f8642ef8ce5667e175e46ee49f6da3c618c0ec730a6df792f94b726e75161430029",
  "source": "pragma solidity ^0.5.3;\n\nimport \"openzeppelin-solidity/contracts/math/SafeMath.sol\";\n\nimport \"./SortedLinkedListWithMedian.sol\";\n\n/**\n * @title Maintains a sorted list of unsigned ints keyed by address.\n */\nlibrary AddressSortedLinkedListWithMedian {\n  using SafeMath for uint256;\n  using SortedLinkedListWithMedian for SortedLinkedListWithMedian.List;\n\n  function toBytes(address a) public pure returns (bytes32) {\n    return bytes32(uint256(a) << 96);\n  }\n\n  function toAddress(bytes32 b) public pure returns (address) {\n    return address(uint256(b) >> 96);\n  }\n\n  /**\n   * @notice Inserts an element into a doubly linked list.\n   * @param list A storage pointer to the underlying list.\n   * @param key The key of the element to insert.\n   * @param value The element value.\n   * @param lesserKey The key of the element less than the element to insert.\n   * @param greaterKey The key of the element greater than the element to insert.\n   */\n  function insert(\n    SortedLinkedListWithMedian.List storage list,\n    address key,\n    uint256 value,\n    address lesserKey,\n    address greaterKey\n  ) public {\n    list.insert(toBytes(key), value, toBytes(lesserKey), toBytes(greaterKey));\n  }\n\n  /**\n   * @notice Removes an element from the doubly linked list.\n   * @param list A storage pointer to the underlying list.\n   * @param key The key of the element to remove.\n   */\n  function remove(SortedLinkedListWithMedian.List storage list, address key) public {\n    list.remove(toBytes(key));\n  }\n\n  /**\n   * @notice Updates an element in the list.\n   * @param list A storage pointer to the underlying list.\n   * @param key The element key.\n   * @param value The element value.\n   * @param lesserKey The key of the element will be just left of `key` after the update.\n   * @param greaterKey The key of the element will be just right of `key` after the update.\n   * @dev Note that only one of \"lesserKey\" or \"greaterKey\" needs to be correct to reduce friction.\n   */\n  function update(\n    SortedLinkedListWithMedian.List storage list,\n    address key,\n    uint256 value,\n    address lesserKey,\n    address greaterKey\n  ) public {\n    list.update(toBytes(key), value, toBytes(lesserKey), toBytes(greaterKey));\n  }\n\n  /**\n   * @notice Returns whether or not a particular key is present in the sorted list.\n   * @param list A storage pointer to the underlying list.\n   * @param key The element key.\n   * @return Whether or not the key is in the sorted list.\n   */\n  function contains(SortedLinkedListWithMedian.List storage list, address key)\n    public\n    view\n    returns (bool)\n  {\n    return list.contains(toBytes(key));\n  }\n\n  /**\n   * @notice Returns the value for a particular key in the sorted list.\n   * @param list A storage pointer to the underlying list.\n   * @param key The element key.\n   * @return The element value.\n   */\n  function getValue(SortedLinkedListWithMedian.List storage list, address key)\n    public\n    view\n    returns (uint256)\n  {\n    return list.getValue(toBytes(key));\n  }\n\n  /**\n   * @notice Returns the median value of the sorted list.\n   * @param list A storage pointer to the underlying list.\n   * @return The median value.\n   */\n  function getMedianValue(SortedLinkedListWithMedian.List storage list)\n    public\n    view\n    returns (uint256)\n  {\n    return list.getValue(list.median);\n  }\n\n  /**\n   * @notice Returns the key of the first element in the list.\n   * @param list A storage pointer to the underlying list.\n   * @return The key of the first element in the list.\n   */\n  function getHead(SortedLinkedListWithMedian.List storage list) external view returns (address) {\n    return toAddress(list.getHead());\n  }\n\n  /**\n   * @notice Returns the key of the median element in the list.\n   * @param list A storage pointer to the underlying list.\n   * @return The key of the median element in the list.\n   */\n  function getMedian(SortedLinkedListWithMedian.List storage list) external view returns (address) {\n    return toAddress(list.getMedian());\n  }\n\n  /**\n   * @notice Returns the key of the last element in the list.\n   * @param list A storage pointer to the underlying list.\n   * @return The key of the last element in the list.\n   */\n  function getTail(SortedLinkedListWithMedian.List storage list) external view returns (address) {\n    return toAddress(list.getTail());\n  }\n\n  /**\n   * @notice Returns the number of elements in the list.\n   * @param list A storage pointer to the underlying list.\n   * @return The number of elements in the list.\n   */\n  function getNumElements(SortedLinkedListWithMedian.List storage list)\n    external\n    view\n    returns (uint256)\n  {\n    return list.getNumElements();\n  }\n\n  /**\n   * @notice Gets all elements from the doubly linked list.\n   * @param list A storage pointer to the underlying list.\n   * @return An unpacked list of elements from largest to smallest.\n   */\n  function getElements(SortedLinkedListWithMedian.List storage list)\n    public\n    view\n    returns (address[] memory, uint256[] memory, SortedLinkedListWithMedian.MedianRelation[] memory)\n  {\n    bytes32[] memory byteKeys = list.getKeys();\n    address[] memory keys = new address[](byteKeys.length);\n    uint256[] memory values = new uint256[](byteKeys.length);\n    // prettier-ignore\n    SortedLinkedListWithMedian.MedianRelation[] memory relations =\n      new SortedLinkedListWithMedian.MedianRelation[](keys.length);\n    for (uint256 i = 0; i < byteKeys.length; i = i.add(1)) {\n      keys[i] = toAddress(byteKeys[i]);\n      values[i] = list.getValue(byteKeys[i]);\n      relations[i] = list.relation[byteKeys[i]];\n    }\n    return (keys, values, relations);\n  }\n}\n",
  "sourcePath": "/Users/cmcewen/celo/celo-monorepo/packages/protocol/contracts/common/linkedlists/AddressSortedLinkedListWithMedian.sol",
  "compiler": {
    "name": "solc",
    "version": "0.5.8+commit.23d335f2.Emscripten.clang"
  },
  "schemaVersion": "3.0.10",
  "updatedAt": "2020-04-09T23:12:53.158Z",
  "devdoc": {
    "methods": {
      "contains(SortedLinkedListWithMedian.List storage,address)": {
        "params": {
          "key": "The element key.",
          "list": "A storage pointer to the underlying list."
        },
        "return": "Whether or not the key is in the sorted list."
      },
      "getElements(SortedLinkedListWithMedian.List storage)": {
        "params": {
          "list": "A storage pointer to the underlying list."
        },
        "return": "An unpacked list of elements from largest to smallest."
      },
      "getHead(SortedLinkedListWithMedian.List storage)": {
        "params": {
          "list": "A storage pointer to the underlying list."
        },
        "return": "The key of the first element in the list."
      },
      "getMedian(SortedLinkedListWithMedian.List storage)": {
        "params": {
          "list": "A storage pointer to the underlying list."
        },
        "return": "The key of the median element in the list."
      },
      "getMedianValue(SortedLinkedListWithMedian.List storage)": {
        "params": {
          "list": "A storage pointer to the underlying list."
        },
        "return": "The median value."
      },
      "getNumElements(SortedLinkedListWithMedian.List storage)": {
        "params": {
          "list": "A storage pointer to the underlying list."
        },
        "return": "The number of elements in the list."
      },
      "getTail(SortedLinkedListWithMedian.List storage)": {
        "params": {
          "list": "A storage pointer to the underlying list."
        },
        "return": "The key of the last element in the list."
      },
      "getValue(SortedLinkedListWithMedian.List storage,address)": {
        "params": {
          "key": "The element key.",
          "list": "A storage pointer to the underlying list."
        },
        "return": "The element value."
      },
      "insert(SortedLinkedListWithMedian.List storage,address,uint256,address,address)": {
        "params": {
          "greaterKey": "The key of the element greater than the element to insert.",
          "key": "The key of the element to insert.",
          "lesserKey": "The key of the element less than the element to insert.",
          "list": "A storage pointer to the underlying list.",
          "value": "The element value."
        }
      },
      "remove(SortedLinkedListWithMedian.List storage,address)": {
        "params": {
          "key": "The key of the element to remove.",
          "list": "A storage pointer to the underlying list."
        }
      },
      "update(SortedLinkedListWithMedian.List storage,address,uint256,address,address)": {
        "details": "Note that only one of \"lesserKey\" or \"greaterKey\" needs to be correct to reduce friction.",
        "params": {
          "greaterKey": "The key of the element will be just right of `key` after the update.",
          "key": "The element key.",
          "lesserKey": "The key of the element will be just left of `key` after the update.",
          "list": "A storage pointer to the underlying list.",
          "value": "The element value."
        }
      }
    },
    "title": "Maintains a sorted list of unsigned ints keyed by address."
  },
  "userdoc": {
    "methods": {
      "contains(SortedLinkedListWithMedian.List storage,address)": {
        "notice": "Returns whether or not a particular key is present in the sorted list."
      },
      "getElements(SortedLinkedListWithMedian.List storage)": {
        "notice": "Gets all elements from the doubly linked list."
      },
      "getHead(SortedLinkedListWithMedian.List storage)": {
        "notice": "Returns the key of the first element in the list."
      },
      "getMedian(SortedLinkedListWithMedian.List storage)": {
        "notice": "Returns the key of the median element in the list."
      },
      "getMedianValue(SortedLinkedListWithMedian.List storage)": {
        "notice": "Returns the median value of the sorted list."
      },
      "getNumElements(SortedLinkedListWithMedian.List storage)": {
        "notice": "Returns the number of elements in the list."
      },
      "getTail(SortedLinkedListWithMedian.List storage)": {
        "notice": "Returns the key of the last element in the list."
      },
      "getValue(SortedLinkedListWithMedian.List storage,address)": {
        "notice": "Returns the value for a particular key in the sorted list."
      },
      "insert(SortedLinkedListWithMedian.List storage,address,uint256,address,address)": {
        "notice": "Inserts an element into a doubly linked list."
      },
      "remove(SortedLinkedListWithMedian.List storage,address)": {
        "notice": "Removes an element from the doubly linked list."
      },
      "update(SortedLinkedListWithMedian.List storage,address,uint256,address,address)": {
        "notice": "Updates an element in the list."
      }
    }
  }
}