{
  "contractName": "AddressLinkedList",
  "abi": [
    {
      "constant": true,
      "inputs": [
        {
          "name": "a",
          "type": "address"
        }
      ],
      "name": "toBytes",
      "outputs": [
        {
          "name": "",
          "type": "bytes32"
        }
      ],
      "payable": false,
      "stateMutability": "pure",
      "type": "function"
    },
    {
      "constant": true,
      "inputs": [
        {
          "name": "b",
          "type": "bytes32"
        }
      ],
      "name": "toAddress",
      "outputs": [
        {
          "name": "",
          "type": "address"
        }
      ],
      "payable": false,
      "stateMutability": "pure",
      "type": "function"
    }
  ],
  "bytecode": "0x610a0e610026600b82828239805160001a60731461001957fe5b30600052607381538281f3fe730000000000000000000000000000000000000000301460806040526004361061009d5760003560e01c8063593b79fe11610070578063593b79fe1461026c578063b1cfea43146102c4578063b2f8fe9614610351578063e2c0c56a146103ec578063fe3c7a8e146104475761009d565b806307debf7c146100a257806326afac491461013d578063341f662314610198578063542424fb14610206575b600080fd5b8180156100ae57600080fd5b5061013b600480360360808110156100c557600080fd5b8101908080359060200190929190803573ffffffffffffffffffffffffffffffffffffffff169060200190929190803573ffffffffffffffffffffffffffffffffffffffff169060200190929190803573ffffffffffffffffffffffffffffffffffffffff1690602001909291905050506104ca565b005b81801561014957600080fd5b506101966004803603604081101561016057600080fd5b8101908080359060200190929190803573ffffffffffffffffffffffffffffffffffffffff169060200190929190505050610569565b005b6101c4600480360360208110156101ae57600080fd5b81019080803590602001909291905050506105fd565b604051808273ffffffffffffffffffffffffffffffffffffffff1673ffffffffffffffffffffffffffffffffffffffff16815260200191505060405180910390f35b6102526004803603604081101561021c57600080fd5b8101908080359060200190929190803573ffffffffffffffffffffffffffffffffffffffff16906020019092919050505061060e565b604051808215151515815260200191505060405180910390f35b6102ae6004803603602081101561028257600080fd5b81019080803573ffffffffffffffffffffffffffffffffffffffff169060200190929190505050610646565b6040518082815260200191505060405180910390f35b6102fa600480360360408110156102da57600080fd5b81019080803590602001909291908035906020019092919050505061066d565b6040518080602001828103825283818151815260200191508051906020019060200280838360005b8381101561033d578082015181840152602081019050610322565b505050509050019250505060405180910390f35b81801561035d57600080fd5b506103ea6004803603608081101561037457600080fd5b8101908080359060200190929190803573ffffffffffffffffffffffffffffffffffffffff169060200190929190803573ffffffffffffffffffffffffffffffffffffffff169060200190929190803573ffffffffffffffffffffffffffffffffffffffff169060200190929190505050610827565b005b8180156103f857600080fd5b506104456004803603604081101561040f57600080fd5b8101908080359060200190929190803573ffffffffffffffffffffffffffffffffffffffff1690602001909291905050506108c6565b005b6104736004803603602081101561045d57600080fd5b8101908080359060200190929190505050610943565b6040518080602001828103825283818151815260200191508051906020019060200280838360005b838110156104b657808201518184015260208101905061049b565b505050509050019250505060405180910390f35b8373__LinkedList____________________________63e931818590916104f086610646565b6104f986610646565b61050286610646565b6040518563ffffffff1660e01b81526004018085815260200184815260200183815260200182815260200194505050505060006040518083038186803b15801561054b57600080fd5b505af415801561055f573d6000803e3d6000fd5b5050505050505050565b8173__LinkedList____________________________63e9318185909161058f84610646565b6000801b86600101546040518563ffffffff1660e01b81526004018085815260200184815260200183815260200182815260200194505050505060006040518083038186803b1580156105e157600080fd5b505af41580156105f5573d6000803e3d6000fd5b505050505050565b600060608260001c901c9050919050565b600082600301600061061f84610646565b815260200190815260200160002060020160009054906101000a900460ff16905092915050565b600060608273ffffffffffffffffffffffffffffffffffffffff16901b60001b9050919050565b6060808373__LinkedList____________________________63b1cfea439091856040518363ffffffff1660e01b8152600401808381526020018281526020019250505060006040518083038186803b1580156106c957600080fd5b505af41580156106dd573d6000803e3d6000fd5b505050506040513d6000823e3d601f19601f82011682018060405250602081101561070757600080fd5b81019080805164010000000081111561071f57600080fd5b8281019050602081018481111561073557600080fd5b815185602082028301116401000000008211171561075257600080fd5b5050929190505050905060608360405190808252806020026020018201604052801561078d5781602001602082028038833980820191505090505b50905060008090505b8481101561081b576107ba8382815181106107ad57fe5b60200260200101516105fd565b8282815181106107c657fe5b602002602001019073ffffffffffffffffffffffffffffffffffffffff16908173ffffffffffffffffffffffffffffffffffffffff168152505061081460018261095a90919063ffffffff16565b9050610796565b50809250505092915050565b8373__LinkedList____________________________6389dc4fff909161084d86610646565b61085686610646565b61085f86610646565b6040518563ffffffff1660e01b81526004018085815260200184815260200183815260200182815260200194505050505060006040518083038186803b1580156108a857600080fd5b505af41580156108bc573d6000803e3d6000fd5b5050505050505050565b8173__LinkedList____________________________6342c22dbc90916108ec84610646565b6040518363ffffffff1660e01b8152600401808381526020018281526020019250505060006040518083038186803b15801561092757600080fd5b505af415801561093b573d6000803e3d6000fd5b505050505050565b606061095382836002015461066d565b9050919050565b6000808284019050838110156109d8576040517f08c379a000000000000000000000000000000000000000000000000000000000815260040180806020018281038252601b8152602001807f536166654d6174683a206164646974696f6e206f766572666c6f77000000000081525060200191505060405180910390fd5b809150509291505056fea165627a7a72305820811ef659faceb64cd7c24e8eed0ae342cbe6f5abf9abd50f8ec5ed1fecc5b7b70029",
  "source": "pragma solidity ^0.5.3;\n\nimport \"openzeppelin-solidity/contracts/math/SafeMath.sol\";\n\nimport \"./LinkedList.sol\";\n\n/**\n * @title Maintains a doubly linked list keyed by address.\n * @dev Following the `next` pointers will lead you to the head, rather than the tail.\n */\nlibrary AddressLinkedList {\n  using LinkedList for LinkedList.List;\n  using SafeMath for uint256;\n\n  function toBytes(address a) public pure returns (bytes32) {\n    return bytes32(uint256(a) << 96);\n  }\n\n  function toAddress(bytes32 b) public pure returns (address) {\n    return address(uint256(b) >> 96);\n  }\n\n  /**\n   * @notice Inserts an element into a doubly linked list.\n   * @param list A storage pointer to the underlying list.\n   * @param key The key of the element to insert.\n   * @param previousKey The key of the element that comes before the element to insert.\n   * @param nextKey The key of the element that comes after the element to insert.\n   */\n  function insert(LinkedList.List storage list, address key, address previousKey, address nextKey)\n    public\n  {\n    list.insert(toBytes(key), toBytes(previousKey), toBytes(nextKey));\n  }\n\n  /**\n   * @notice Inserts an element at the end of the doubly linked list.\n   * @param list A storage pointer to the underlying list.\n   * @param key The key of the element to insert.\n   */\n  function push(LinkedList.List storage list, address key) public {\n    list.insert(toBytes(key), bytes32(0), list.tail);\n  }\n\n  /**\n   * @notice Removes an element from the doubly linked list.\n   * @param list A storage pointer to the underlying list.\n   * @param key The key of the element to remove.\n   */\n  function remove(LinkedList.List storage list, address key) public {\n    list.remove(toBytes(key));\n  }\n\n  /**\n   * @notice Updates an element in the list.\n   * @param list A storage pointer to the underlying list.\n   * @param key The element key.\n   * @param previousKey The key of the element that comes before the updated element.\n   * @param nextKey The key of the element that comes after the updated element.\n   */\n  function update(LinkedList.List storage list, address key, address previousKey, address nextKey)\n    public\n  {\n    list.update(toBytes(key), toBytes(previousKey), toBytes(nextKey));\n  }\n\n  /**\n   * @notice Returns whether or not a particular key is present in the sorted list.\n   * @param list A storage pointer to the underlying list.\n   * @param key The element key.\n   * @return Whether or not the key is in the sorted list.\n   */\n  function contains(LinkedList.List storage list, address key) public view returns (bool) {\n    return list.elements[toBytes(key)].exists;\n  }\n\n  /**\n   * @notice Returns the N greatest elements of the list.\n   * @param list A storage pointer to the underlying list.\n   * @param n The number of elements to return.\n   * @return The keys of the greatest elements.\n   * @dev Reverts if n is greater than the number of elements in the list.\n   */\n  function headN(LinkedList.List storage list, uint256 n) public view returns (address[] memory) {\n    bytes32[] memory byteKeys = list.headN(n);\n    address[] memory keys = new address[](n);\n    for (uint256 i = 0; i < n; i = i.add(1)) {\n      keys[i] = toAddress(byteKeys[i]);\n    }\n    return keys;\n  }\n\n  /**\n   * @notice Gets all element keys from the doubly linked list.\n   * @param list A storage pointer to the underlying list.\n   * @return All element keys from head to tail.\n   */\n  function getKeys(LinkedList.List storage list) public view returns (address[] memory) {\n    return headN(list, list.numElements);\n  }\n}\n",
  "sourcePath": "/Users/cmcewen/celo/celo-monorepo/packages/protocol/contracts/common/linkedlists/AddressLinkedList.sol",
  "compiler": {
    "name": "solc",
    "version": "0.5.8+commit.23d335f2.Emscripten.clang"
  },
  "schemaVersion": "3.0.10",
  "updatedAt": "2020-04-09T23:12:53.117Z",
  "devdoc": {
    "details": "Following the `next` pointers will lead you to the head, rather than the tail.",
    "methods": {
      "contains(LinkedList.List storage,address)": {
        "params": {
          "key": "The element key.",
          "list": "A storage pointer to the underlying list."
        },
        "return": "Whether or not the key is in the sorted list."
      },
      "getKeys(LinkedList.List storage)": {
        "params": {
          "list": "A storage pointer to the underlying list."
        },
        "return": "All element keys from head to tail."
      },
      "headN(LinkedList.List storage,uint256)": {
        "details": "Reverts if n is greater than the number of elements in the list.",
        "params": {
          "list": "A storage pointer to the underlying list.",
          "n": "The number of elements to return."
        },
        "return": "The keys of the greatest elements."
      },
      "insert(LinkedList.List storage,address,address,address)": {
        "params": {
          "key": "The key of the element to insert.",
          "list": "A storage pointer to the underlying list.",
          "nextKey": "The key of the element that comes after the element to insert.",
          "previousKey": "The key of the element that comes before the element to insert."
        }
      },
      "push(LinkedList.List storage,address)": {
        "params": {
          "key": "The key of the element to insert.",
          "list": "A storage pointer to the underlying list."
        }
      },
      "remove(LinkedList.List storage,address)": {
        "params": {
          "key": "The key of the element to remove.",
          "list": "A storage pointer to the underlying list."
        }
      },
      "update(LinkedList.List storage,address,address,address)": {
        "params": {
          "key": "The element key.",
          "list": "A storage pointer to the underlying list.",
          "nextKey": "The key of the element that comes after the updated element.",
          "previousKey": "The key of the element that comes before the updated element."
        }
      }
    },
    "title": "Maintains a doubly linked list keyed by address."
  },
  "userdoc": {
    "methods": {
      "contains(LinkedList.List storage,address)": {
        "notice": "Returns whether or not a particular key is present in the sorted list."
      },
      "getKeys(LinkedList.List storage)": {
        "notice": "Gets all element keys from the doubly linked list."
      },
      "headN(LinkedList.List storage,uint256)": {
        "notice": "Returns the N greatest elements of the list."
      },
      "insert(LinkedList.List storage,address,address,address)": {
        "notice": "Inserts an element into a doubly linked list."
      },
      "push(LinkedList.List storage,address)": {
        "notice": "Inserts an element at the end of the doubly linked list."
      },
      "remove(LinkedList.List storage,address)": {
        "notice": "Removes an element from the doubly linked list."
      },
      "update(LinkedList.List storage,address,address,address)": {
        "notice": "Updates an element in the list."
      }
    }
  }
}