{
  "contractName": "Attestations",
  "abi": [
    {
      "constant": true,
      "inputs": [
        {
          "name": "index",
          "type": "uint256"
        }
      ],
      "name": "validatorSignerAddressFromCurrentSet",
      "outputs": [
        {
          "name": "",
          "type": "address"
        }
      ],
      "payable": false,
      "stateMutability": "view",
      "type": "function"
    },
    {
      "constant": true,
      "inputs": [],
      "name": "initialized",
      "outputs": [
        {
          "name": "",
          "type": "bool"
        }
      ],
      "payable": false,
      "stateMutability": "view",
      "type": "function"
    },
    {
      "constant": true,
      "inputs": [
        {
          "name": "sender",
          "type": "address"
        },
        {
          "name": "blsKey",
          "type": "bytes"
        },
        {
          "name": "blsPop",
          "type": "bytes"
        }
      ],
      "name": "checkProofOfPossession",
      "outputs": [
        {
          "name": "",
          "type": "bool"
        }
      ],
      "payable": false,
      "stateMutability": "view",
      "type": "function"
    },
    {
      "constant": true,
      "inputs": [
        {
          "name": "blockNumber",
          "type": "uint256"
        }
      ],
      "name": "getEpochNumberOfBlock",
      "outputs": [
        {
          "name": "",
          "type": "uint256"
        }
      ],
      "payable": false,
      "stateMutability": "view",
      "type": "function"
    },
    {
      "constant": true,
      "inputs": [
        {
          "name": "header",
          "type": "bytes"
        }
      ],
      "name": "getVerifiedSealBitmapFromHeader",
      "outputs": [
        {
          "name": "",
          "type": "bytes32"
        }
      ],
      "payable": false,
      "stateMutability": "view",
      "type": "function"
    },
    {
      "constant": true,
      "inputs": [
        {
          "name": "index",
          "type": "uint256"
        },
        {
          "name": "blockNumber",
          "type": "uint256"
        }
      ],
      "name": "validatorSignerAddressFromSet",
      "outputs": [
        {
          "name": "",
          "type": "address"
        }
      ],
      "payable": false,
      "stateMutability": "view",
      "type": "function"
    },
    {
      "constant": true,
      "inputs": [
        {
          "name": "header",
          "type": "bytes"
        }
      ],
      "name": "hashHeader",
      "outputs": [
        {
          "name": "",
          "type": "bytes32"
        }
      ],
      "payable": false,
      "stateMutability": "view",
      "type": "function"
    },
    {
      "constant": false,
      "inputs": [],
      "name": "renounceOwnership",
      "outputs": [],
      "payable": false,
      "stateMutability": "nonpayable",
      "type": "function"
    },
    {
      "constant": true,
      "inputs": [],
      "name": "minQuorumSizeInCurrentSet",
      "outputs": [
        {
          "name": "",
          "type": "uint256"
        }
      ],
      "payable": false,
      "stateMutability": "view",
      "type": "function"
    },
    {
      "constant": true,
      "inputs": [],
      "name": "registry",
      "outputs": [
        {
          "name": "",
          "type": "address"
        }
      ],
      "payable": false,
      "stateMutability": "view",
      "type": "function"
    },
    {
      "constant": true,
      "inputs": [],
      "name": "maxAttestations",
      "outputs": [
        {
          "name": "",
          "type": "uint256"
        }
      ],
      "payable": false,
      "stateMutability": "view",
      "type": "function"
    },
    {
      "constant": true,
      "inputs": [],
      "name": "numberValidatorsInCurrentSet",
      "outputs": [
        {
          "name": "",
          "type": "uint256"
        }
      ],
      "payable": false,
      "stateMutability": "view",
      "type": "function"
    },
    {
      "constant": true,
      "inputs": [],
      "name": "selectIssuersWaitBlocks",
      "outputs": [
        {
          "name": "",
          "type": "uint256"
        }
      ],
      "payable": false,
      "stateMutability": "view",
      "type": "function"
    },
    {
      "constant": true,
      "inputs": [
        {
          "name": "header",
          "type": "bytes"
        }
      ],
      "name": "getBlockNumberFromHeader",
      "outputs": [
        {
          "name": "",
          "type": "uint256"
        }
      ],
      "payable": false,
      "stateMutability": "view",
      "type": "function"
    },
    {
      "constant": true,
      "inputs": [],
      "name": "owner",
      "outputs": [
        {
          "name": "",
          "type": "address"
        }
      ],
      "payable": false,
      "stateMutability": "view",
      "type": "function"
    },
    {
      "constant": true,
      "inputs": [],
      "name": "isOwner",
      "outputs": [
        {
          "name": "",
          "type": "bool"
        }
      ],
      "payable": false,
      "stateMutability": "view",
      "type": "function"
    },
    {
      "constant": true,
      "inputs": [],
      "name": "getEpochNumber",
      "outputs": [
        {
          "name": "",
          "type": "uint256"
        }
      ],
      "payable": false,
      "stateMutability": "view",
      "type": "function"
    },
    {
      "constant": true,
      "inputs": [
        {
          "name": "blockNumber",
          "type": "uint256"
        }
      ],
      "name": "numberValidatorsInSet",
      "outputs": [
        {
          "name": "",
          "type": "uint256"
        }
      ],
      "payable": false,
      "stateMutability": "view",
      "type": "function"
    },
    {
      "constant": false,
      "inputs": [
        {
          "name": "registryAddress",
          "type": "address"
        }
      ],
      "name": "setRegistry",
      "outputs": [],
      "payable": false,
      "stateMutability": "nonpayable",
      "type": "function"
    },
    {
      "constant": true,
      "inputs": [],
      "name": "attestationExpiryBlocks",
      "outputs": [
        {
          "name": "",
          "type": "uint256"
        }
      ],
      "payable": false,
      "stateMutability": "view",
      "type": "function"
    },
    {
      "constant": true,
      "inputs": [
        {
          "name": "",
          "type": "address"
        }
      ],
      "name": "attestationRequestFees",
      "outputs": [
        {
          "name": "",
          "type": "uint256"
        }
      ],
      "payable": false,
      "stateMutability": "view",
      "type": "function"
    },
    {
      "constant": true,
      "inputs": [],
      "name": "getEpochSize",
      "outputs": [
        {
          "name": "",
          "type": "uint256"
        }
      ],
      "payable": false,
      "stateMutability": "view",
      "type": "function"
    },
    {
      "constant": true,
      "inputs": [
        {
          "name": "blockNumber",
          "type": "uint256"
        }
      ],
      "name": "minQuorumSize",
      "outputs": [
        {
          "name": "",
          "type": "uint256"
        }
      ],
      "payable": false,
      "stateMutability": "view",
      "type": "function"
    },
    {
      "constant": true,
      "inputs": [
        {
          "name": "",
          "type": "address"
        },
        {
          "name": "",
          "type": "address"
        }
      ],
      "name": "pendingWithdrawals",
      "outputs": [
        {
          "name": "",
          "type": "uint256"
        }
      ],
      "payable": false,
      "stateMutability": "view",
      "type": "function"
    },
    {
      "constant": true,
      "inputs": [
        {
          "name": "aNumerator",
          "type": "uint256"
        },
        {
          "name": "aDenominator",
          "type": "uint256"
        },
        {
          "name": "bNumerator",
          "type": "uint256"
        },
        {
          "name": "bDenominator",
          "type": "uint256"
        },
        {
          "name": "exponent",
          "type": "uint256"
        },
        {
          "name": "_decimals",
          "type": "uint256"
        }
      ],
      "name": "fractionMulExp",
      "outputs": [
        {
          "name": "",
          "type": "uint256"
        },
        {
          "name": "",
          "type": "uint256"
        }
      ],
      "payable": false,
      "stateMutability": "view",
      "type": "function"
    },
    {
      "constant": false,
      "inputs": [
        {
          "name": "newOwner",
          "type": "address"
        }
      ],
      "name": "transferOwnership",
      "outputs": [],
      "payable": false,
      "stateMutability": "nonpayable",
      "type": "function"
    },
    {
      "constant": true,
      "inputs": [
        {
          "name": "blockNumber",
          "type": "uint256"
        }
      ],
      "name": "getParentSealBitmap",
      "outputs": [
        {
          "name": "",
          "type": "bytes32"
        }
      ],
      "payable": false,
      "stateMutability": "view",
      "type": "function"
    },
    {
      "anonymous": false,
      "inputs": [
        {
          "indexed": true,
          "name": "identifier",
          "type": "bytes32"
        },
        {
          "indexed": true,
          "name": "account",
          "type": "address"
        },
        {
          "indexed": false,
          "name": "attestationsRequested",
          "type": "uint256"
        },
        {
          "indexed": false,
          "name": "attestationRequestFeeToken",
          "type": "address"
        }
      ],
      "name": "AttestationsRequested",
      "type": "event"
    },
    {
      "anonymous": false,
      "inputs": [
        {
          "indexed": true,
          "name": "identifier",
          "type": "bytes32"
        },
        {
          "indexed": true,
          "name": "account",
          "type": "address"
        },
        {
          "indexed": true,
          "name": "issuer",
          "type": "address"
        },
        {
          "indexed": false,
          "name": "attestationRequestFeeToken",
          "type": "address"
        }
      ],
      "name": "AttestationIssuerSelected",
      "type": "event"
    },
    {
      "anonymous": false,
      "inputs": [
        {
          "indexed": true,
          "name": "identifier",
          "type": "bytes32"
        },
        {
          "indexed": true,
          "name": "account",
          "type": "address"
        },
        {
          "indexed": true,
          "name": "issuer",
          "type": "address"
        }
      ],
      "name": "AttestationCompleted",
      "type": "event"
    },
    {
      "anonymous": false,
      "inputs": [
        {
          "indexed": true,
          "name": "account",
          "type": "address"
        },
        {
          "indexed": true,
          "name": "token",
          "type": "address"
        },
        {
          "indexed": false,
          "name": "amount",
          "type": "uint256"
        }
      ],
      "name": "Withdrawal",
      "type": "event"
    },
    {
      "anonymous": false,
      "inputs": [
        {
          "indexed": false,
          "name": "value",
          "type": "uint256"
        }
      ],
      "name": "AttestationExpiryBlocksSet",
      "type": "event"
    },
    {
      "anonymous": false,
      "inputs": [
        {
          "indexed": true,
          "name": "token",
          "type": "address"
        },
        {
          "indexed": false,
          "name": "value",
          "type": "uint256"
        }
      ],
      "name": "AttestationRequestFeeSet",
      "type": "event"
    },
    {
      "anonymous": false,
      "inputs": [
        {
          "indexed": false,
          "name": "value",
          "type": "uint256"
        }
      ],
      "name": "SelectIssuersWaitBlocksSet",
      "type": "event"
    },
    {
      "anonymous": false,
      "inputs": [
        {
          "indexed": false,
          "name": "value",
          "type": "uint256"
        }
      ],
      "name": "MaxAttestationsSet",
      "type": "event"
    },
    {
      "anonymous": false,
      "inputs": [
        {
          "indexed": true,
          "name": "registryAddress",
          "type": "address"
        }
      ],
      "name": "RegistrySet",
      "type": "event"
    },
    {
      "anonymous": false,
      "inputs": [
        {
          "indexed": true,
          "name": "previousOwner",
          "type": "address"
        },
        {
          "indexed": true,
          "name": "newOwner",
          "type": "address"
        }
      ],
      "name": "OwnershipTransferred",
      "type": "event"
    },
    {
      "constant": false,
      "inputs": [
        {
          "name": "registryAddress",
          "type": "address"
        },
        {
          "name": "_attestationExpiryBlocks",
          "type": "uint256"
        },
        {
          "name": "_selectIssuersWaitBlocks",
          "type": "uint256"
        },
        {
          "name": "_maxAttestations",
          "type": "uint256"
        },
        {
          "name": "attestationRequestFeeTokens",
          "type": "address[]"
        },
        {
          "name": "attestationRequestFeeValues",
          "type": "uint256[]"
        }
      ],
      "name": "initialize",
      "outputs": [],
      "payable": false,
      "stateMutability": "nonpayable",
      "type": "function"
    },
    {
      "constant": false,
      "inputs": [
        {
          "name": "identifier",
          "type": "bytes32"
        },
        {
          "name": "attestationsRequested",
          "type": "uint256"
        },
        {
          "name": "attestationRequestFeeToken",
          "type": "address"
        }
      ],
      "name": "request",
      "outputs": [],
      "payable": false,
      "stateMutability": "nonpayable",
      "type": "function"
    },
    {
      "constant": false,
      "inputs": [
        {
          "name": "identifier",
          "type": "bytes32"
        }
      ],
      "name": "selectIssuers",
      "outputs": [],
      "payable": false,
      "stateMutability": "nonpayable",
      "type": "function"
    },
    {
      "constant": false,
      "inputs": [
        {
          "name": "identifier",
          "type": "bytes32"
        },
        {
          "name": "v",
          "type": "uint8"
        },
        {
          "name": "r",
          "type": "bytes32"
        },
        {
          "name": "s",
          "type": "bytes32"
        }
      ],
      "name": "complete",
      "outputs": [],
      "payable": false,
      "stateMutability": "nonpayable",
      "type": "function"
    },
    {
      "constant": false,
      "inputs": [
        {
          "name": "identifier",
          "type": "bytes32"
        },
        {
          "name": "index",
          "type": "uint256"
        }
      ],
      "name": "revoke",
      "outputs": [],
      "payable": false,
      "stateMutability": "nonpayable",
      "type": "function"
    },
    {
      "constant": false,
      "inputs": [
        {
          "name": "token",
          "type": "address"
        }
      ],
      "name": "withdraw",
      "outputs": [],
      "payable": false,
      "stateMutability": "nonpayable",
      "type": "function"
    },
    {
      "constant": true,
      "inputs": [
        {
          "name": "identifier",
          "type": "bytes32"
        },
        {
          "name": "account",
          "type": "address"
        }
      ],
      "name": "getUnselectedRequest",
      "outputs": [
        {
          "name": "",
          "type": "uint32"
        },
        {
          "name": "",
          "type": "uint32"
        },
        {
          "name": "",
          "type": "address"
        }
      ],
      "payable": false,
      "stateMutability": "view",
      "type": "function"
    },
    {
      "constant": true,
      "inputs": [
        {
          "name": "identifier",
          "type": "bytes32"
        },
        {
          "name": "account",
          "type": "address"
        }
      ],
      "name": "getAttestationIssuers",
      "outputs": [
        {
          "name": "",
          "type": "address[]"
        }
      ],
      "payable": false,
      "stateMutability": "view",
      "type": "function"
    },
    {
      "constant": true,
      "inputs": [
        {
          "name": "identifier",
          "type": "bytes32"
        },
        {
          "name": "account",
          "type": "address"
        }
      ],
      "name": "getAttestationStats",
      "outputs": [
        {
          "name": "",
          "type": "uint32"
        },
        {
          "name": "",
          "type": "uint32"
        }
      ],
      "payable": false,
      "stateMutability": "view",
      "type": "function"
    },
    {
      "constant": true,
      "inputs": [
        {
          "name": "identifiersToLookup",
          "type": "bytes32[]"
        }
      ],
      "name": "batchGetAttestationStats",
      "outputs": [
        {
          "name": "",
          "type": "uint256[]"
        },
        {
          "name": "",
          "type": "address[]"
        },
        {
          "name": "",
          "type": "uint64[]"
        },
        {
          "name": "",
          "type": "uint64[]"
        }
      ],
      "payable": false,
      "stateMutability": "view",
      "type": "function"
    },
    {
      "constant": true,
      "inputs": [
        {
          "name": "identifier",
          "type": "bytes32"
        },
        {
          "name": "account",
          "type": "address"
        },
        {
          "name": "issuer",
          "type": "address"
        }
      ],
      "name": "getAttestationState",
      "outputs": [
        {
          "name": "",
          "type": "uint8"
        },
        {
          "name": "",
          "type": "uint32"
        },
        {
          "name": "",
          "type": "address"
        }
      ],
      "payable": false,
      "stateMutability": "view",
      "type": "function"
    },
    {
      "constant": true,
      "inputs": [
        {
          "name": "identifier",
          "type": "bytes32"
        },
        {
          "name": "account",
          "type": "address"
        }
      ],
      "name": "getCompletableAttestations",
      "outputs": [
        {
          "name": "",
          "type": "uint32[]"
        },
        {
          "name": "",
          "type": "address[]"
        },
        {
          "name": "",
          "type": "uint256[]"
        },
        {
          "name": "",
          "type": "bytes"
        }
      ],
      "payable": false,
      "stateMutability": "view",
      "type": "function"
    },
    {
      "constant": true,
      "inputs": [
        {
          "name": "token",
          "type": "address"
        }
      ],
      "name": "getAttestationRequestFee",
      "outputs": [
        {
          "name": "",
          "type": "uint256"
        }
      ],
      "payable": false,
      "stateMutability": "view",
      "type": "function"
    },
    {
      "constant": false,
      "inputs": [
        {
          "name": "token",
          "type": "address"
        },
        {
          "name": "fee",
          "type": "uint256"
        }
      ],
      "name": "setAttestationRequestFee",
      "outputs": [],
      "payable": false,
      "stateMutability": "nonpayable",
      "type": "function"
    },
    {
      "constant": false,
      "inputs": [
        {
          "name": "_attestationExpiryBlocks",
          "type": "uint256"
        }
      ],
      "name": "setAttestationExpiryBlocks",
      "outputs": [],
      "payable": false,
      "stateMutability": "nonpayable",
      "type": "function"
    },
    {
      "constant": false,
      "inputs": [
        {
          "name": "_selectIssuersWaitBlocks",
          "type": "uint256"
        }
      ],
      "name": "setSelectIssuersWaitBlocks",
      "outputs": [],
      "payable": false,
      "stateMutability": "nonpayable",
      "type": "function"
    },
    {
      "constant": false,
      "inputs": [
        {
          "name": "_maxAttestations",
          "type": "uint256"
        }
      ],
      "name": "setMaxAttestations",
      "outputs": [],
      "payable": false,
      "stateMutability": "nonpayable",
      "type": "function"
    },
    {
      "constant": true,
      "inputs": [],
      "name": "getMaxAttestations",
      "outputs": [
        {
          "name": "",
          "type": "uint256"
        }
      ],
      "payable": false,
      "stateMutability": "view",
      "type": "function"
    },
    {
      "constant": true,
      "inputs": [
        {
          "name": "identifier",
          "type": "bytes32"
        },
        {
          "name": "account",
          "type": "address"
        },
        {
          "name": "v",
          "type": "uint8"
        },
        {
          "name": "r",
          "type": "bytes32"
        },
        {
          "name": "s",
          "type": "bytes32"
        }
      ],
      "name": "validateAttestationCode",
      "outputs": [
        {
          "name": "",
          "type": "address"
        }
      ],
      "payable": false,
      "stateMutability": "view",
      "type": "function"
    },
    {
      "constant": true,
      "inputs": [
        {
          "name": "identifier",
          "type": "bytes32"
        }
      ],
      "name": "lookupAccountsForIdentifier",
      "outputs": [
        {
          "name": "",
          "type": "address[]"
        }
      ],
      "payable": false,
      "stateMutability": "view",
      "type": "function"
    }
  ],
  "bytecode": "0x6080604052600062000016620000c260201b60201c565b9050806000806101000a81548173ffffffffffffffffffffffffffffffffffffffff021916908373ffffffffffffffffffffffffffffffffffffffff1602179055508073ffffffffffffffffffffffffffffffffffffffff16600073ffffffffffffffffffffffffffffffffffffffff167f8be0079c531659141344cd1fd0a4f28419497f9722a3daafe3b4186f6b6457e060405160405180910390a3506001600281905550620000ca565b600033905090565b6171ba80620000da6000396000f3fe608060405234801561001057600080fd5b50600436106102955760003560e01c80638f32d59b11610167578063df4da461116100ce578063ec68307211610087578063ec68307214611424578063f2fde38b1461149f578063f3ff26c6146114e3578063fae8db0a14611531578063fb6a2e5314611573578063fd536f5d146115c257610295565b8063df4da4611461123c578063e02659ce1461125a578063e221932e14611288578063e3d0f66f146112b6578063e50e652d1461136a578063e831be58146113ac57610295565b8063b45eb7da11610120578063b45eb7da1461103a578063b5599cc614611058578063bb46942f14611126578063bd93f9981461115e578063be2c47a6146111b6578063d02e0f0c146111e457610295565b80638f32d59b14610da057806396357c0a14610dc25780639a7b3be714610f685780639b2b592f14610f86578063a6437e7314610fc8578063a91ee0dc14610ff657610295565b80635fc5c9161161020b5780637b103999116101c45780637b10399914610be35780638218c6fe14610c2d57806387ee8a0f14610c4b57806389d3528614610c695780638a88362614610c875780638da5cb5b14610d5657610295565b80635fc5c916146109d3578063623d593114610a7657806367960e9114610ace578063715018a614610b9d5780637385e5da14610ba75780637796a68414610bc557610295565b80634b2c2f441161025d5780634b2c2f44146105795780634eef7e851461064857806351cff8d9146107e7578063596abea51461082b5780635ce9bc07146108ac5780635d180adb1461095b57610295565b806303cc1aff1461029a578063123633ea1461031d578063158ef93e1461038b57806323f0ab65146103ad5780633b1eb4bf14610537575b600080fd5b6102c6600480360360208110156102b057600080fd5b81019080803590602001909291905050506116ce565b6040518080602001828103825283818151815260200191508051906020019060200280838360005b838110156103095780820151818401526020810190506102ee565b505050509050019250505060405180910390f35b6103496004803603602081101561033357600080fd5b8101908080359060200190929190505050611772565b604051808273ffffffffffffffffffffffffffffffffffffffff1673ffffffffffffffffffffffffffffffffffffffff16815260200191505060405180910390f35b6103936118c3565b604051808215151515815260200191505060405180910390f35b61051d600480360360608110156103c357600080fd5b81019080803573ffffffffffffffffffffffffffffffffffffffff1690602001909291908035906020019064010000000081111561040057600080fd5b82018360208201111561041257600080fd5b8035906020019184600183028401116401000000008311171561043457600080fd5b91908080601f016020809104026020016040519081016040528093929190818152602001838380828437600081840152601f19601f8201169050808301925050505050505091929192908035906020019064010000000081111561049757600080fd5b8201836020820111156104a957600080fd5b803590602001918460018302840111640100000000831117156104cb57600080fd5b91908080601f016020809104026020016040519081016040528093929190818152602001838380828437600081840152601f19601f8201169050808301925050505050505091929192905050506118d6565b604051808215151515815260200191505060405180910390f35b6105636004803603602081101561054d57600080fd5b8101908080359060200190929190505050611a8f565b6040518082815260200191505060405180910390f35b6106326004803603602081101561058f57600080fd5b81019080803590602001906401000000008111156105ac57600080fd5b8201836020820111156105be57600080fd5b803590602001918460018302840111640100000000831117156105e057600080fd5b91908080601f016020809104026020016040519081016040528093929190818152602001838380828437600081840152601f19601f820116905080830192505050505050509192919290505050611aa9565b6040518082815260200191505060405180910390f35b6106946004803603604081101561065e57600080fd5b8101908080359060200190929190803573ffffffffffffffffffffffffffffffffffffffff169060200190929190505050611c3d565b6040518080602001806020018060200180602001858103855289818151815260200191508051906020019060200280838360005b838110156106e35780820151818401526020810190506106c8565b50505050905001858103845288818151815260200191508051906020019060200280838360005b8381101561072557808201518184015260208101905061070a565b50505050905001858103835287818151815260200191508051906020019060200280838360005b8381101561076757808201518184015260208101905061074c565b50505050905001858103825286818151815260200191508051906020019080838360005b838110156107a657808201518184015260208101905061078b565b50505050905090810190601f1680156107d35780820380516001836020036101000a031916815260200191505b509850505050505050505060405180910390f35b610829600480360360208110156107fd57600080fd5b81019080803573ffffffffffffffffffffffffffffffffffffffff169060200190929190505050612175565b005b6108776004803603604081101561084157600080fd5b8101908080359060200190929190803573ffffffffffffffffffffffffffffffffffffffff16906020019092919050505061248b565b604051808363ffffffff1663ffffffff1681526020018263ffffffff1663ffffffff1681526020019250505060405180910390f35b610919600480360360a08110156108c257600080fd5b8101908080359060200190929190803573ffffffffffffffffffffffffffffffffffffffff169060200190929190803560ff1690602001909291908035906020019092919080359060200190929190505050612567565b604051808273ffffffffffffffffffffffffffffffffffffffff1673ffffffffffffffffffffffffffffffffffffffff16815260200191505060405180910390f35b6109916004803603604081101561097157600080fd5b8101908080359060200190929190803590602001909291905050506128f6565b604051808273ffffffffffffffffffffffffffffffffffffffff1673ffffffffffffffffffffffffffffffffffffffff16815260200191505060405180910390f35b610a1f600480360360408110156109e957600080fd5b8101908080359060200190929190803573ffffffffffffffffffffffffffffffffffffffff169060200190929190505050612a48565b6040518080602001828103825283818151815260200191508051906020019060200280838360005b83811015610a62578082015181840152602081019050610a47565b505050509050019250505060405180910390f35b610ab860048036036020811015610a8c57600080fd5b81019080803573ffffffffffffffffffffffffffffffffffffffff169060200190929190505050612b2d565b6040518082815260200191505060405180910390f35b610b8760048036036020811015610ae457600080fd5b8101908080359060200190640100000000811115610b0157600080fd5b820183602082011115610b1357600080fd5b80359060200191846001830284011164010000000083111715610b3557600080fd5b91908080601f016020809104026020016040519081016040528093929190818152602001838380828437600081840152601f19601f820116905080830192505050505050509192919290505050612b76565b6040518082815260200191505060405180910390f35b610ba5612d0a565b005b610baf612e43565b6040518082815260200191505060405180910390f35b610bcd612e53565b6040518082815260200191505060405180910390f35b610beb612e5d565b604051808273ffffffffffffffffffffffffffffffffffffffff1673ffffffffffffffffffffffffffffffffffffffff16815260200191505060405180910390f35b610c35612e83565b6040518082815260200191505060405180910390f35b610c53612e89565b6040518082815260200191505060405180910390f35b610c71612fd0565b6040518082815260200191505060405180910390f35b610d4060048036036020811015610c9d57600080fd5b8101908080359060200190640100000000811115610cba57600080fd5b820183602082011115610ccc57600080fd5b80359060200191846001830284011164010000000083111715610cee57600080fd5b91908080601f016020809104026020016040519081016040528093929190818152602001838380828437600081840152601f19601f820116905080830192505050505050509192919290505050612fd6565b6040518082815260200191505060405180910390f35b610d5e61316a565b604051808273ffffffffffffffffffffffffffffffffffffffff1673ffffffffffffffffffffffffffffffffffffffff16815260200191505060405180910390f35b610da8613193565b604051808215151515815260200191505060405180910390f35b610e3960048036036020811015610dd857600080fd5b8101908080359060200190640100000000811115610df557600080fd5b820183602082011115610e0757600080fd5b80359060200191846020830284011164010000000083111715610e2957600080fd5b90919293919293905050506131f1565b6040518080602001806020018060200180602001858103855289818151815260200191508051906020019060200280838360005b83811015610e88578082015181840152602081019050610e6d565b50505050905001858103845288818151815260200191508051906020019060200280838360005b83811015610eca578082015181840152602081019050610eaf565b50505050905001858103835287818151815260200191508051906020019060200280838360005b83811015610f0c578082015181840152602081019050610ef1565b50505050905001858103825286818151815260200191508051906020019060200280838360005b83811015610f4e578082015181840152602081019050610f33565b505050509050019850505050505050505060405180910390f35b610f706136fb565b6040518082815260200191505060405180910390f35b610fb260048036036020811015610f9c57600080fd5b810190808035906020019092919050505061370b565b6040518082815260200191505060405180910390f35b610ff460048036036020811015610fde57600080fd5b8101908080359060200190929190505050613854565b005b6110386004803603602081101561100c57600080fd5b81019080803573ffffffffffffffffffffffffffffffffffffffff169060200190929190505050613968565b005b611042613b0c565b6040518082815260200191505060405180910390f35b6110c46004803603606081101561106e57600080fd5b8101908080359060200190929190803573ffffffffffffffffffffffffffffffffffffffff169060200190929190803573ffffffffffffffffffffffffffffffffffffffff169060200190929190505050613b12565b604051808460ff1660ff1681526020018363ffffffff1663ffffffff1681526020018273ffffffffffffffffffffffffffffffffffffffff1673ffffffffffffffffffffffffffffffffffffffff168152602001935050505060405180910390f35b61115c6004803603604081101561113c57600080fd5b810190808035906020019092919080359060200190929190505050613c14565b005b6111a06004803603602081101561117457600080fd5b81019080803573ffffffffffffffffffffffffffffffffffffffff169060200190929190505050613f28565b6040518082815260200191505060405180910390f35b6111e2600480360360208110156111cc57600080fd5b8101908080359060200190929190505050613f40565b005b61123a600480360360608110156111fa57600080fd5b810190808035906020019092919080359060200190929190803573ffffffffffffffffffffffffffffffffffffffff169060200190929190505050614054565b005b611244614841565b6040518082815260200191505060405180910390f35b6112866004803603602081101561127057600080fd5b810190808035906020019092919050505061497d565b005b6112b46004803603602081101561129e57600080fd5b8101908080359060200190929190505050614a91565b005b611302600480360360408110156112cc57600080fd5b8101908080359060200190929190803573ffffffffffffffffffffffffffffffffffffffff169060200190929190505050614cba565b604051808463ffffffff1663ffffffff1681526020018363ffffffff1663ffffffff1681526020018273ffffffffffffffffffffffffffffffffffffffff1673ffffffffffffffffffffffffffffffffffffffff168152602001935050505060405180910390f35b6113966004803603602081101561138057600080fd5b8101908080359060200190929190505050614e11565b6040518082815260200191505060405180910390f35b61140e600480360360408110156113c257600080fd5b81019080803573ffffffffffffffffffffffffffffffffffffffff169060200190929190803573ffffffffffffffffffffffffffffffffffffffff169060200190929190505050614e5c565b6040518082815260200191505060405180910390f35b611482600480360360c081101561143a57600080fd5b81019080803590602001909291908035906020019092919080359060200190929190803590602001909291908035906020019092919080359060200190929190505050614e81565b604051808381526020018281526020019250505060405180910390f35b6114e1600480360360208110156114b557600080fd5b81019080803573ffffffffffffffffffffffffffffffffffffffff169060200190929190505050615095565b005b61152f600480360360408110156114f957600080fd5b81019080803573ffffffffffffffffffffffffffffffffffffffff1690602001909291908035906020019092919050505061511b565b005b61155d6004803603602081101561154757600080fd5b8101908080359060200190929190505050615284565b6040518082815260200191505060405180910390f35b6115c06004803603608081101561158957600080fd5b8101908080359060200190929190803560ff16906020019092919080359060200190929190803590602001909291905050506153cd565b005b6116cc600480360360c08110156115d857600080fd5b81019080803573ffffffffffffffffffffffffffffffffffffffff1690602001909291908035906020019092919080359060200190929190803590602001909291908035906020019064010000000081111561163357600080fd5b82018360208201111561164557600080fd5b8035906020019184602083028401116401000000008311171561166757600080fd5b90919293919293908035906020019064010000000081111561168857600080fd5b82018360208201111561169a57600080fd5b803590602001918460208302840111640100000000831117156116bc57600080fd5b90919293919293905050506158fc565b005b60606003600083815260200190815260200160002060000180548060200260200160405190810160405280929190818152602001828054801561176657602002820191906000526020600020905b8160009054906101000a900473ffffffffffffffffffffffffffffffffffffffff1673ffffffffffffffffffffffffffffffffffffffff168152602001906001019080831161171c575b50505050509050919050565b60006060600060fa73ffffffffffffffffffffffffffffffffffffffff16844360405160200180838152602001828152602001925050506040516020818303038152906040526040518082805190602001908083835b602083106117eb57805182526020820191506020810190506020830392506117c8565b6001836020036101000a038019825116818451168082178552505050505050905001915050600060405180830381855afa9150503d806000811461184b576040519150601f19603f3d011682016040523d82523d6000602084013e611850565b606091505b508093508192505050806118af576040517f08c379a000000000000000000000000000000000000000000000000000000000815260040180806020018281038252603d815260200180616eb7603d913960400191505060405180910390fd5b6118ba826000615aaf565b92505050919050565b600060149054906101000a900460ff1681565b60008060fb73ffffffffffffffffffffffffffffffffffffffff16858585604051602001808473ffffffffffffffffffffffffffffffffffffffff1673ffffffffffffffffffffffffffffffffffffffff1660601b815260140183805190602001908083835b6020831061195f578051825260208201915060208101905060208303925061193c565b6001836020036101000a03801982511681845116808217855250505050505090500182805190602001908083835b602083106119b0578051825260208201915060208101905060208303925061198d565b6001836020036101000a03801982511681845116808217855250505050505090500193505050506040516020818303038152906040526040518082805190602001908083835b60208310611a1957805182526020820191506020810190506020830392506119f6565b6001836020036101000a038019825116818451168082178552505050505050905001915050600060405180830381855afa9150503d8060008114611a79576040519150601f19603f3d011682016040523d82523d6000602084013e611a7e565b606091505b505080915050809150509392505050565b6000611aa282611a9d614841565b615ac6565b9050919050565b60006060600060f473ffffffffffffffffffffffffffffffffffffffff16846040516020018082805190602001908083835b60208310611afe5780518252602082019150602081019050602083039250611adb565b6001836020036101000a0380198251168184511680821785525050505050509050019150506040516020818303038152906040526040518082805190602001908083835b60208310611b655780518252602082019150602081019050602083039250611b42565b6001836020036101000a038019825116818451168082178552505050505050905001915050600060405180830381855afa9150503d8060008114611bc5576040519150601f19603f3d011682016040523d82523d6000602084013e611bca565b606091505b50809350819250505080611c29576040517f08c379a0000000000000000000000000000000000000000000000000000000008152600401808060200182810382526038815260200180616e556038913960400191505060405180910390fd5b611c34826000615afe565b92505050919050565b60608060608060006003600088815260200190815260200160002060010160008773ffffffffffffffffffffffffffffffffffffffff1673ffffffffffffffffffffffffffffffffffffffff16815260200190815260200160002090506000816001019050600080905060008090505b8280549050811015611d6f57611d38846002016000858481548110611cce57fe5b9060005260206000200160009054906101000a900473ffffffffffffffffffffffffffffffffffffffff1673ffffffffffffffffffffffffffffffffffffffff1673ffffffffffffffffffffffffffffffffffffffff168152602001908152602001600020615b8f565b15611d5457611d51600183615bef90919063ffffffff16565b91505b611d68600182615bef90919063ffffffff16565b9050611cad565b50606081604051908082528060200260200182016040528015611da15781602001602082028038833980820191505090505b509050606082604051908082528060200260200182016040528015611dd55781602001602082028038833980820191505090505b509050600080905060008090505b8580549050811015611fd357611e6e876002016000888481548110611e0457fe5b9060005260206000200160009054906101000a900473ffffffffffffffffffffffffffffffffffffffff1673ffffffffffffffffffffffffffffffffffffffff1673ffffffffffffffffffffffffffffffffffffffff168152602001908152602001600020615b8f565b15611fb857866002016000878381548110611e8557fe5b9060005260206000200160009054906101000a900473ffffffffffffffffffffffffffffffffffffffff1673ffffffffffffffffffffffffffffffffffffffff1673ffffffffffffffffffffffffffffffffffffffff16815260200190815260200160002060000160019054906101000a900463ffffffff16848381518110611f0a57fe5b602002602001019063ffffffff16908163ffffffff1681525050858181548110611f3057fe5b9060005260206000200160009054906101000a900473ffffffffffffffffffffffffffffffffffffffff16838381518110611f6757fe5b602002602001019073ffffffffffffffffffffffffffffffffffffffff16908173ffffffffffffffffffffffffffffffffffffffff1681525050611fb5600183615bef90919063ffffffff16565b91505b611fcc600182615bef90919063ffffffff16565b9050611de3565b50606080611fdf615c77565b73ffffffffffffffffffffffffffffffffffffffff16638adaf96f856040518263ffffffff1660e01b81526004018080602001828103825283818151815260200191508051906020019060200280838360005b8381101561204d578082015181840152602081019050612032565b505050509050019250505060006040518083038186803b15801561207057600080fd5b505afa158015612084573d6000803e3d6000fd5b505050506040513d6000823e3d601f19601f8201168201806040525060408110156120ae57600080fd5b8101908080516401000000008111156120c657600080fd5b828101905060208101848111156120dc57600080fd5b81518560208202830111640100000000821117156120f957600080fd5b5050929190602001805164010000000081111561211557600080fd5b8281019050602081018481111561212b57600080fd5b815185600182028301116401000000008211171561214857600080fd5b50509291905050508092508193505050848483839b509b509b509b50505050505050505092959194509250565b6000600860008373ffffffffffffffffffffffffffffffffffffffff1673ffffffffffffffffffffffffffffffffffffffff16815260200190815260200160002060003373ffffffffffffffffffffffffffffffffffffffff1673ffffffffffffffffffffffffffffffffffffffff1681526020019081526020016000205490506000811161226c576040517f08c379a00000000000000000000000000000000000000000000000000000000081526004018080602001828103825260178152602001807f76616c756520776173206e656761746976652f7a65726f00000000000000000081525060200191505060405180910390fd5b6000600860008473ffffffffffffffffffffffffffffffffffffffff1673ffffffffffffffffffffffffffffffffffffffff16815260200190815260200160002060003373ffffffffffffffffffffffffffffffffffffffff1673ffffffffffffffffffffffffffffffffffffffff168152602001908152602001600020819055508173ffffffffffffffffffffffffffffffffffffffff1663a9059cbb33836040518363ffffffff1660e01b8152600401808373ffffffffffffffffffffffffffffffffffffffff1673ffffffffffffffffffffffffffffffffffffffff16815260200182815260200192505050602060405180830381600087803b15801561237557600080fd5b505af1158015612389573d6000803e3d6000fd5b505050506040513d602081101561239f57600080fd5b8101908080519060200190929190505050612422576040517f08c379a00000000000000000000000000000000000000000000000000000000081526004018080602001828103825260158152602001807f746f6b656e207472616e73666572206661696c6564000000000000000000000081525060200191505060405180910390fd5b8173ffffffffffffffffffffffffffffffffffffffff163373ffffffffffffffffffffffffffffffffffffffff167f2717ead6b9200dd235aad468c9809ea400fe33ac69b5bfaa6d3e90fc922b6398836040518082815260200191505060405180910390a35050565b6000806003600085815260200190815260200160002060010160008473ffffffffffffffffffffffffffffffffffffffff1673ffffffffffffffffffffffffffffffffffffffff16815260200190815260200160002060000160049054906101000a900463ffffffff166003600086815260200190815260200160002060010160008573ffffffffffffffffffffffffffffffffffffffff1673ffffffffffffffffffffffffffffffffffffffff16815260200190815260200160002060000160009054906101000a900463ffffffff16915091509250929050565b6000808686604051602001808381526020018273ffffffffffffffffffffffffffffffffffffffff1673ffffffffffffffffffffffffffffffffffffffff1660601b815260140192505050604051602081830303815290604052805190602001209050600073__Signatures____________________________63b3abdb0c838888886040518563ffffffff1660e01b8152600401808581526020018460ff1660ff16815260200183815260200182815260200194505050505060206040518083038186803b15801561263957600080fd5b505af415801561264d573d6000803e3d6000fd5b505050506040513d602081101561266357600080fd5b810190808051906020019092919050505090506000612680615c77565b73ffffffffffffffffffffffffffffffffffffffff16637b2434cb836040518263ffffffff1660e01b8152600401808273ffffffffffffffffffffffffffffffffffffffff1673ffffffffffffffffffffffffffffffffffffffff16815260200191505060206040518083038186803b1580156126fc57600080fd5b505afa158015612710573d6000803e3d6000fd5b505050506040513d602081101561272657600080fd5b810190808051906020019092919050505090506000600360008b815260200190815260200160002060010160008a73ffffffffffffffffffffffffffffffffffffffff1673ffffffffffffffffffffffffffffffffffffffff16815260200190815260200160002060020160008373ffffffffffffffffffffffffffffffffffffffff1673ffffffffffffffffffffffffffffffffffffffff1681526020019081526020016000209050600160028111156127dd57fe5b8160000160009054906101000a900460ff1660028111156127fa57fe5b14612850576040517f08c379a000000000000000000000000000000000000000000000000000000000815260040180806020018281038252603b815260200180616f29603b913960400191505060405180910390fd5b6128738160000160019054906101000a900463ffffffff1663ffffffff16615d72565b156128e6576040517f08c379a00000000000000000000000000000000000000000000000000000000081526004018080602001828103825260158152602001807f4174746573746174696f6e2074696d6564206f7574000000000000000000000081525060200191505060405180910390fd5b8194505050505095945050505050565b60006060600060fa73ffffffffffffffffffffffffffffffffffffffff16858560405160200180838152602001828152602001925050506040516020818303038152906040526040518082805190602001908083835b6020831061296f578051825260208201915060208101905060208303925061294c565b6001836020036101000a038019825116818451168082178552505050505050905001915050600060405180830381855afa9150503d80600081146129cf576040519150601f19603f3d011682016040523d82523d6000602084013e6129d4565b606091505b50809350819250505080612a33576040517f08c379a0000000000000000000000000000000000000000000000000000000008152600401808060200182810382526036815260200180616f646036913960400191505060405180910390fd5b612a3e826000615aaf565b9250505092915050565b60606003600084815260200190815260200160002060010160008373ffffffffffffffffffffffffffffffffffffffff1673ffffffffffffffffffffffffffffffffffffffff168152602001908152602001600020600101805480602002602001604051908101604052809291908181526020018280548015612b2057602002820191906000526020600020905b8160009054906101000a900473ffffffffffffffffffffffffffffffffffffffff1673ffffffffffffffffffffffffffffffffffffffff1681526020019060010190808311612ad6575b5050505050905092915050565b6000600760008373ffffffffffffffffffffffffffffffffffffffff1673ffffffffffffffffffffffffffffffffffffffff168152602001908152602001600020549050919050565b60006060600060f673ffffffffffffffffffffffffffffffffffffffff16846040516020018082805190602001908083835b60208310612bcb5780518252602082019150602081019050602083039250612ba8565b6001836020036101000a0380198251168184511680821785525050505050509050019150506040516020818303038152906040526040518082805190602001908083835b60208310612c325780518252602082019150602081019050602083039250612c0f565b6001836020036101000a038019825116818451168082178552505050505050905001915050600060405180830381855afa9150503d8060008114612c92576040519150601f19603f3d011682016040523d82523d6000602084013e612c97565b606091505b50809350819250505080612cf6576040517f08c379a000000000000000000000000000000000000000000000000000000000815260040180806020018281038252602381526020018061716c6023913960400191505060405180910390fd5b612d01826000615afe565b92505050919050565b612d12613193565b612d84576040517f08c379a00000000000000000000000000000000000000000000000000000000081526004018080602001828103825260208152602001807f4f776e61626c653a2063616c6c6572206973206e6f7420746865206f776e657281525060200191505060405180910390fd5b600073ffffffffffffffffffffffffffffffffffffffff166000809054906101000a900473ffffffffffffffffffffffffffffffffffffffff1673ffffffffffffffffffffffffffffffffffffffff167f8be0079c531659141344cd1fd0a4f28419497f9722a3daafe3b4186f6b6457e060405160405180910390a360008060006101000a81548173ffffffffffffffffffffffffffffffffffffffff021916908373ffffffffffffffffffffffffffffffffffffffff160217905550565b6000612e4e43614e11565b905090565b6000600654905090565b600160009054906101000a900473ffffffffffffffffffffffffffffffffffffffff1681565b60065481565b60006060600060f973ffffffffffffffffffffffffffffffffffffffff1643604051602001808281526020019150506040516020818303038152906040526040518082805190602001908083835b60208310612efa5780518252602082019150602081019050602083039250612ed7565b6001836020036101000a038019825116818451168082178552505050505050905001915050600060405180830381855afa9150503d8060008114612f5a576040519150601f19603f3d011682016040523d82523d6000602084013e612f5f565b606091505b50809350819250505080612fbe576040517f08c379a0000000000000000000000000000000000000000000000000000000008152600401808060200182810382526035815260200180616ef46035913960400191505060405180910390fd5b612fc9826000615aaf565b9250505090565b60055481565b60006060600060f773ffffffffffffffffffffffffffffffffffffffff16846040516020018082805190602001908083835b6020831061302b5780518252602082019150602081019050602083039250613008565b6001836020036101000a0380198251168184511680821785525050505050509050019150506040516020818303038152906040526040518082805190602001908083835b60208310613092578051825260208201915060208101905060208303925061306f565b6001836020036101000a038019825116818451168082178552505050505050905001915050600060405180830381855afa9150503d80600081146130f2576040519150601f19603f3d011682016040523d82523d6000602084013e6130f7565b606091505b50809350819250505080613156576040517f08c379a00000000000000000000000000000000000000000000000000000000081526004018080602001828103825260318152602001806171156031913960400191505060405180910390fd5b613161826000615aaf565b92505050919050565b60008060009054906101000a900473ffffffffffffffffffffffffffffffffffffffff16905090565b60008060009054906101000a900473ffffffffffffffffffffffffffffffffffffffff1673ffffffffffffffffffffffffffffffffffffffff166131d5615da5565b73ffffffffffffffffffffffffffffffffffffffff1614905090565b60608060608060008686905011613253576040517f08c379a0000000000000000000000000000000000000000000000000000000008152600401808060200182810382526028815260200180616fe66028913960400191505060405180910390fd5b6060806132a0888880806020026020016040519081016040528093929190818152602001838360200280828437600081840152601f19601f82011690508083019250505050505050615dad565b8092508193505050606081516040519080825280602002602001820160405280156132da5781602001602082028038833980820191505090505b5090506060825160405190808252806020026020018201604052801561330f5781602001602082028038833980820191505090505b509050600080905060008090505b8b8b90508110156136e0576060600360008e8e8581811061333a57fe5b9050602002013581526020019081526020016000206000018054806020026020016040519081016040528092919081815260200182805480156133d257602002820191906000526020600020905b8160009054906101000a900473ffffffffffffffffffffffffffffffffffffffff1673ffffffffffffffffffffffffffffffffffffffff1681526020019060010190808311613388575b5050505050905060008090505b8783815181106133eb57fe5b60200260200101518110156136c357613402615c77565b73ffffffffffffffffffffffffffffffffffffffff16631fd9afa583838151811061342957fe5b60200260200101516040518263ffffffff1660e01b8152600401808273ffffffffffffffffffffffffffffffffffffffff1673ffffffffffffffffffffffffffffffffffffffff16815260200191505060206040518083038186803b15801561349157600080fd5b505afa1580156134a5573d6000803e3d6000fd5b505050506040513d60208110156134bb57600080fd5b81019080805190602001909291905050508785815181106134d857fe5b602002602001019073ffffffffffffffffffffffffffffffffffffffff16908173ffffffffffffffffffffffffffffffffffffffff1681525050600360008f8f8681811061352257fe5b905060200201358152602001908152602001600020600101600083838151811061354857fe5b602002602001015173ffffffffffffffffffffffffffffffffffffffff1673ffffffffffffffffffffffffffffffffffffffff16815260200190815260200160002060000160049054906101000a900463ffffffff1663ffffffff168685815181106135b057fe5b602002602001019067ffffffffffffffff16908167ffffffffffffffff1681525050600360008f8f868181106135e257fe5b905060200201358152602001908152602001600020600101600083838151811061360857fe5b602002602001015173ffffffffffffffffffffffffffffffffffffffff1673ffffffffffffffffffffffffffffffffffffffff16815260200190815260200160002060000160009054906101000a900463ffffffff1663ffffffff1685858151811061367057fe5b602002602001019067ffffffffffffffff16908167ffffffffffffffff16815250506136a6600185615bef90919063ffffffff16565b93506136bc600182615bef90919063ffffffff16565b90506133df565b50506136d9600182615bef90919063ffffffff16565b905061331d565b50848484849850985098509850505050505092959194509250565b600061370643611a8f565b905090565b60006060600060f973ffffffffffffffffffffffffffffffffffffffff1684604051602001808281526020019150506040516020818303038152906040526040518082805190602001908083835b6020831061377c5780518252602082019150602081019050602083039250613759565b6001836020036101000a038019825116818451168082178552505050505050905001915050600060405180830381855afa9150503d80600081146137dc576040519150601f19603f3d011682016040523d82523d6000602084013e6137e1565b606091505b50809350819250505080613840576040517f08c379a000000000000000000000000000000000000000000000000000000000815260040180806020018281038252602e815260200180616d40602e913960400191505060405180910390fd5b61384b826000615aaf565b92505050919050565b61385c613193565b6138ce576040517f08c379a00000000000000000000000000000000000000000000000000000000081526004018080602001828103825260208152602001807f4f776e61626c653a2063616c6c6572206973206e6f7420746865206f776e657281525060200191505060405180910390fd5b60008111613927576040517f08c379a0000000000000000000000000000000000000000000000000000000008152600401808060200182810382526030815260200180616e256030913960400191505060405180910390fd5b806004819055507f4fbe976a07a9260091c2d347f8780c4bc636392e34d5b249b367baf8a5c7ca69816040518082815260200191505060405180910390a150565b613970613193565b6139e2576040517f08c379a00000000000000000000000000000000000000000000000000000000081526004018080602001828103825260208152602001807f4f776e61626c653a2063616c6c6572206973206e6f7420746865206f776e657281525060200191505060405180910390fd5b600073ffffffffffffffffffffffffffffffffffffffff168173ffffffffffffffffffffffffffffffffffffffff161415613a85576040517f08c379a00000000000000000000000000000000000000000000000000000000081526004018080602001828103825260208152602001807f43616e6e6f7420726567697374657220746865206e756c6c206164647265737381525060200191505060405180910390fd5b80600160006101000a81548173ffffffffffffffffffffffffffffffffffffffff021916908373ffffffffffffffffffffffffffffffffffffffff1602179055508073ffffffffffffffffffffffffffffffffffffffff167f27fe5f0c1c3b1ed427cc63d0f05759ffdecf9aec9e18d31ef366fc8a6cb5dc3b60405160405180910390a250565b60045481565b6000806000806003600088815260200190815260200160002060010160008773ffffffffffffffffffffffffffffffffffffffff1673ffffffffffffffffffffffffffffffffffffffff16815260200190815260200160002060020160008673ffffffffffffffffffffffffffffffffffffffff1673ffffffffffffffffffffffffffffffffffffffff16815260200190815260200160002090508060000160009054906101000a900460ff166002811115613bca57fe5b8160000160019054906101000a900463ffffffff168260000160059054906101000a900473ffffffffffffffffffffffffffffffffffffffff169350935093505093509350939050565b600060036000848152602001908152602001600020600001805490509050808210613ca7576040517f08c379a00000000000000000000000000000000000000000000000000000000081526004018080602001828103825260108152602001807f496e64657820697320696e76616c69640000000000000000000000000000000081525060200191505060405180910390fd5b600360008481526020019081526020016000206000018281548110613cc857fe5b9060005260206000200160009054906101000a900473ffffffffffffffffffffffffffffffffffffffff1673ffffffffffffffffffffffffffffffffffffffff163373ffffffffffffffffffffffffffffffffffffffff1614613d93576040517f08c379a000000000000000000000000000000000000000000000000000000000815260040180806020018281038252601f8152602001807f496e64657820646f6573206e6f74206d61746368206d73672e73656e6465720081525060200191505060405180910390fd5b6000613da9600183615efe90919063ffffffff16565b9050808314613e6857600360008581526020019081526020016000206000018181548110613dd357fe5b9060005260206000200160009054906101000a900473ffffffffffffffffffffffffffffffffffffffff16600360008681526020019081526020016000206000018481548110613e1f57fe5b9060005260206000200160006101000a81548173ffffffffffffffffffffffffffffffffffffffff021916908373ffffffffffffffffffffffffffffffffffffffff1602179055505b6000600360008681526020019081526020016000206000018281548110613e8b57fe5b9060005260206000200160006101000a81548173ffffffffffffffffffffffffffffffffffffffff021916908373ffffffffffffffffffffffffffffffffffffffff160217905550613f0060016003600087815260200190815260200160002060000180549050615efe90919063ffffffff16565b6003600086815260200190815260200160002060000181613f219190616ca4565b5050505050565b60076020528060005260406000206000915090505481565b613f48613193565b613fba576040517f08c379a00000000000000000000000000000000000000000000000000000000081526004018080602001828103825260208152602001807f4f776e61626c653a2063616c6c6572206973206e6f7420746865206f776e657281525060200191505060405180910390fd5b60008111614013576040517f08c379a0000000000000000000000000000000000000000000000000000000008152600401808060200182810382526028815260200180616cf66028913960400191505060405180910390fd5b806006819055507fc1f217a1246a98ce04e938768309107630ed86c1e0e9f9995af28e23a9c06178816040518082815260200191505060405180910390a150565b6001600260008282540192505081905550600060025490506000600760008473ffffffffffffffffffffffffffffffffffffffff1673ffffffffffffffffffffffffffffffffffffffff1681526020019081526020016000205411614104576040517f08c379a0000000000000000000000000000000000000000000000000000000008152600401808060200182810382526022815260200180616d1e6022913960400191505060405180910390fd5b8173ffffffffffffffffffffffffffffffffffffffff166323b872dd333061417487600760008973ffffffffffffffffffffffffffffffffffffffff1673ffffffffffffffffffffffffffffffffffffffff16815260200190815260200160002054615f4890919063ffffffff16565b6040518463ffffffff1660e01b8152600401808473ffffffffffffffffffffffffffffffffffffffff1673ffffffffffffffffffffffffffffffffffffffff1681526020018373ffffffffffffffffffffffffffffffffffffffff1673ffffffffffffffffffffffffffffffffffffffff1681526020018281526020019350505050602060405180830381600087803b15801561421057600080fd5b505af1158015614224573d6000803e3d6000fd5b505050506040513d602081101561423a57600080fd5b81019080805190602001909291905050506142a0576040517f08c379a000000000000000000000000000000000000000000000000000000000815260040180806020018281038252602b815260200180616f9a602b913960400191505060405180910390fd5b600083116142f9576040517f08c379a000000000000000000000000000000000000000000000000000000000815260040180806020018281038252602a815260200180616e8d602a913960400191505060405180910390fd5b600654831115614371576040517f08c379a000000000000000000000000000000000000000000000000000000000815260040180806020018281038252601f8152602001807f546f6f206d616e79206174746573746174696f6e73207265717565737465640081525060200191505060405180910390fd5b600060036000868152602001908152602001600020905060008160020160003373ffffffffffffffffffffffffffffffffffffffff1673ffffffffffffffffffffffffffffffffffffffff16815260200190815260200160002060000160009054906101000a900463ffffffff1663ffffffff161480614450575061444f8160020160003373ffffffffffffffffffffffffffffffffffffffff1673ffffffffffffffffffffffffffffffffffffffff16815260200190815260200160002060000160009054906101000a900463ffffffff1663ffffffff16615d72565b5b806144bb57506144b98160020160003373ffffffffffffffffffffffffffffffffffffffff1673ffffffffffffffffffffffffffffffffffffffff16815260200190815260200160002060000160009054906101000a900463ffffffff1663ffffffff16615fce565b155b614510576040517f08c379a0000000000000000000000000000000000000000000000000000000008152600401808060200182810382526039815260200180616dc46039913960400191505060405180910390fd5b61451943616073565b8160020160003373ffffffffffffffffffffffffffffffffffffffff1673ffffffffffffffffffffffffffffffffffffffff16815260200190815260200160002060000160006101000a81548163ffffffff021916908363ffffffff16021790555061458484616073565b8160020160003373ffffffffffffffffffffffffffffffffffffffff1673ffffffffffffffffffffffffffffffffffffffff16815260200190815260200160002060000160046101000a81548163ffffffff021916908363ffffffff160217905550828160020160003373ffffffffffffffffffffffffffffffffffffffff1673ffffffffffffffffffffffffffffffffffffffff16815260200190815260200160002060000160086101000a81548173ffffffffffffffffffffffffffffffffffffffff021916908373ffffffffffffffffffffffffffffffffffffffff1602179055506146de6146d9858360010160003373ffffffffffffffffffffffffffffffffffffffff1673ffffffffffffffffffffffffffffffffffffffff16815260200190815260200160002060000160009054906101000a900463ffffffff1663ffffffff16615bef90919063ffffffff16565b616073565b8160010160003373ffffffffffffffffffffffffffffffffffffffff1673ffffffffffffffffffffffffffffffffffffffff16815260200190815260200160002060000160006101000a81548163ffffffff021916908363ffffffff1602179055503373ffffffffffffffffffffffffffffffffffffffff16857f381545d9b1fffcb94ffbbd0bccfff9f1fb3acd474d34f7d59112a5c9973fee498686604051808381526020018273ffffffffffffffffffffffffffffffffffffffff1673ffffffffffffffffffffffffffffffffffffffff1681526020019250505060405180910390a350600254811461483b576040517f08c379a000000000000000000000000000000000000000000000000000000000815260040180806020018281038252600e8152602001807f7265656e7472616e742063616c6c00000000000000000000000000000000000081525060200191505060405180910390fd5b50505050565b60006060600060f873ffffffffffffffffffffffffffffffffffffffff166040516020016040516020818303038152906040526040518082805190602001908083835b602083106148a75780518252602082019150602081019050602083039250614884565b6001836020036101000a038019825116818451168082178552505050505050905001915050600060405180830381855afa9150503d8060008114614907576040519150601f19603f3d011682016040523d82523d6000602084013e61490c565b606091505b5080935081925050508061496b576040517f08c379a00000000000000000000000000000000000000000000000000000000081526004018080602001828103825260258152602001806170356025913960400191505060405180910390fd5b614976826000615aaf565b9250505090565b614985613193565b6149f7576040517f08c379a00000000000000000000000000000000000000000000000000000000081526004018080602001828103825260208152602001807f4f776e61626c653a2063616c6c6572206973206e6f7420746865206f776e657281525060200191505060405180910390fd5b60008111614a50576040517f08c379a0000000000000000000000000000000000000000000000000000000008152600401808060200182810382526030815260200180616d6e6030913960400191505060405180910390fd5b806005819055507f954fa47fa6f4e8017b99f93c73f4fbe599d786f9f5da73fe9086ab473fb455d8816040518082815260200191505060405180910390a150565b600060036000838152602001908152602001600020905060008160020160003373ffffffffffffffffffffffffffffffffffffffff1673ffffffffffffffffffffffffffffffffffffffff16815260200190815260200160002060000160009054906101000a900463ffffffff1663ffffffff1611614b5b576040517f08c379a00000000000000000000000000000000000000000000000000000000081526004018080602001828103825260378152602001806170b26037913960400191505060405180910390fd5b614bbe8160020160003373ffffffffffffffffffffffffffffffffffffffff1673ffffffffffffffffffffffffffffffffffffffff16815260200190815260200160002060000160009054906101000a900463ffffffff1663ffffffff16615d72565b15614c14576040517f08c379a000000000000000000000000000000000000000000000000000000000815260040180806020018281038252602381526020018061708f6023913960400191505060405180910390fd5b614c1d826160da565b8060020160003373ffffffffffffffffffffffffffffffffffffffff1673ffffffffffffffffffffffffffffffffffffffff168152602001908152602001600020600080820160006101000a81549063ffffffff02191690556000820160046101000a81549063ffffffff02191690556000820160086101000a81549073ffffffffffffffffffffffffffffffffffffffff021916905550505050565b60008060006003600086815260200190815260200160002060020160008573ffffffffffffffffffffffffffffffffffffffff1673ffffffffffffffffffffffffffffffffffffffff16815260200190815260200160002060000160009054906101000a900463ffffffff166003600087815260200190815260200160002060020160008673ffffffffffffffffffffffffffffffffffffffff1673ffffffffffffffffffffffffffffffffffffffff16815260200190815260200160002060000160049054906101000a900463ffffffff166003600088815260200190815260200160002060020160008773ffffffffffffffffffffffffffffffffffffffff1673ffffffffffffffffffffffffffffffffffffffff16815260200190815260200160002060000160089054906101000a900473ffffffffffffffffffffffffffffffffffffffff169250925092509250925092565b6000614e556003614e476002614e396002614e2b8861370b565b615f4890919063ffffffff16565b615bef90919063ffffffff16565b61689590919063ffffffff16565b9050919050565b6008602052816000526040600020602052806000526040600020600091509150505481565b60008060008714158015614e96575060008514155b614f08576040517f08c379a00000000000000000000000000000000000000000000000000000000081526004018080602001828103825260158152602001807f612064656e6f6d696e61746f72206973207a65726f000000000000000000000081525060200191505060405180910390fd5b6000806000606060fc73ffffffffffffffffffffffffffffffffffffffff168c8c8c8c8c8c6040516020018087815260200186815260200185815260200184815260200183815260200182815260200196505050505050506040516020818303038152906040526040518082805190602001908083835b60208310614fa25780518252602082019150602081019050602083039250614f7f565b6001836020036101000a038019825116818451168082178552505050505050905001915050600060405180830381855afa9150503d8060008114615002576040519150601f19603f3d011682016040523d82523d6000602084013e615007565b606091505b50809250819350505081615066576040517f08c379a000000000000000000000000000000000000000000000000000000000815260040180806020018281038252602781526020018061700e6027913960400191505060405180910390fd5b615071816000615aaf565b935061507e816020615aaf565b925083839550955050505050965096945050505050565b61509d613193565b61510f576040517f08c379a00000000000000000000000000000000000000000000000000000000081526004018080602001828103825260208152602001807f4f776e61626c653a2063616c6c6572206973206e6f7420746865206f776e657281525060200191505060405180910390fd5b615118816168df565b50565b615123613193565b615195576040517f08c379a00000000000000000000000000000000000000000000000000000000081526004018080602001828103825260208152602001807f4f776e61626c653a2063616c6c6572206973206e6f7420746865206f776e657281525060200191505060405180910390fd5b600081116151ee576040517f08c379a0000000000000000000000000000000000000000000000000000000008152600401808060200182810382526028815260200180616dfd6028913960400191505060405180910390fd5b80600760008473ffffffffffffffffffffffffffffffffffffffff1673ffffffffffffffffffffffffffffffffffffffff168152602001908152602001600020819055508173ffffffffffffffffffffffffffffffffffffffff167f7cf8b633f218e9f9bc2c06107bcaddcfee6b90580863768acdcfd4f05d7af394826040518082815260200191505060405180910390a25050565b60006060600060f573ffffffffffffffffffffffffffffffffffffffff1684604051602001808281526020019150506040516020818303038152906040526040518082805190602001908083835b602083106152f557805182526020820191506020810190506020830392506152d2565b6001836020036101000a038019825116818451168082178552505050505050905001915050600060405180830381855afa9150503d8060008114615355576040519150601f19603f3d011682016040523d82523d6000602084013e61535a565b606091505b508093508192505050806153b9576040517f08c379a000000000000000000000000000000000000000000000000000000000815260040180806020018281038252602c8152602001806170e9602c913960400191505060405180910390fd5b6153c4826000615afe565b92505050919050565b60006153dc8533868686612567565b905060006003600087815260200190815260200160002060010160003373ffffffffffffffffffffffffffffffffffffffff1673ffffffffffffffffffffffffffffffffffffffff16815260200190815260200160002060020160008373ffffffffffffffffffffffffffffffffffffffff1673ffffffffffffffffffffffffffffffffffffffff168152602001908152602001600020905060008160000160059054906101000a900473ffffffffffffffffffffffffffffffffffffffff1690506154a743616073565b8260000160016101000a81548163ffffffff021916908363ffffffff16021790555060028260000160006101000a81548160ff021916908360028111156154ea57fe5b02179055508160000160056101000a81549073ffffffffffffffffffffffffffffffffffffffff021916905560006003600089815260200190815260200160002060010160003373ffffffffffffffffffffffffffffffffffffffff1673ffffffffffffffffffffffffffffffffffffffff168152602001908152602001600020905060018160000160049054906101000a900463ffffffff160163ffffffff168160000160049054906101000a900463ffffffff1663ffffffff1610615619576040517f08c379a000000000000000000000000000000000000000000000000000000000815260040180806020018281038252601b8152602001807f536166654d617468333220696e7465676572206f766572666c6f77000000000081525060200191505060405180910390fd5b60018160000160049054906101000a900463ffffffff16018160000160046101000a81548163ffffffff021916908363ffffffff160217905550615721600760008473ffffffffffffffffffffffffffffffffffffffff1673ffffffffffffffffffffffffffffffffffffffff16815260200190815260200160002054600860008573ffffffffffffffffffffffffffffffffffffffff1673ffffffffffffffffffffffffffffffffffffffff16815260200190815260200160002060008773ffffffffffffffffffffffffffffffffffffffff1673ffffffffffffffffffffffffffffffffffffffff16815260200190815260200160002054615bef90919063ffffffff16565b600860008473ffffffffffffffffffffffffffffffffffffffff1673ffffffffffffffffffffffffffffffffffffffff16815260200190815260200160002060008673ffffffffffffffffffffffffffffffffffffffff1673ffffffffffffffffffffffffffffffffffffffff168152602001908152602001600020819055506000600360008a815260200190815260200160002090506001600360008b815260200190815260200160002060010160003373ffffffffffffffffffffffffffffffffffffffff1673ffffffffffffffffffffffffffffffffffffffff16815260200190815260200160002060000160049054906101000a900463ffffffff1663ffffffff16141561589657806000013390806001815401808255809150509060018203906000526020600020016000909192909190916101000a81548173ffffffffffffffffffffffffffffffffffffffff021916908373ffffffffffffffffffffffffffffffffffffffff160217905550505b8473ffffffffffffffffffffffffffffffffffffffff163373ffffffffffffffffffffffffffffffffffffffff168a7f414ff2c18c092697c4b8de49f515ac44f8bebc19b24553cf58ace913a6ac639d60405160405180910390a4505050505050505050565b600060149054906101000a900460ff161561597f576040517f08c379a000000000000000000000000000000000000000000000000000000000815260040180806020018281038252601c8152602001807f636f6e747261637420616c726561647920696e697469616c697a65640000000081525060200191505060405180910390fd5b6001600060146101000a81548160ff0219169083151502179055506159a3336168df565b6159ac88613968565b6159b587613854565b6159be8661497d565b6159c785613f40565b6000848490501180156159df57508181905084849050145b615a34576040517f08c379a000000000000000000000000000000000000000000000000000000000815260040180806020018281038252603581526020018061705a6035913960400191505060405180910390fd5b60008090505b84849050811015615aa457615a89858583818110615a5457fe5b9050602002013573ffffffffffffffffffffffffffffffffffffffff16848484818110615a7d57fe5b9050602002013561511b565b615a9d600182615bef90919063ffffffff16565b9050615a3a565b505050505050505050565b6000615abb8383615afe565b60001c905092915050565b600080828481615ad257fe5b0490506000838581615ae057fe5b061415615af05780915050615af8565b600181019150505b92915050565b60006020820183511015615b7a576040517f08c379a00000000000000000000000000000000000000000000000000000000081526004018080602001828103825260148152602001807f736c6963696e67206f7574206f662072616e676500000000000000000000000081525060200191505060405180910390fd5b60006020830184015190508091505092915050565b600060016002811115615b9e57fe5b8260000160009054906101000a900460ff166002811115615bbb57fe5b148015615be85750615be68260000160019054906101000a900463ffffffff1663ffffffff16615d72565b155b9050919050565b600080828401905083811015615c6d576040517f08c379a000000000000000000000000000000000000000000000000000000000815260040180806020018281038252601b8152602001807f536166654d6174683a206164646974696f6e206f766572666c6f77000000000081525060200191505060405180910390fd5b8091505092915050565b6000600160009054906101000a900473ffffffffffffffffffffffffffffffffffffffff1673ffffffffffffffffffffffffffffffffffffffff1663dcf0aaed60405160200180807f4163636f756e74730000000000000000000000000000000000000000000000008152506008019050604051602081830303815290604052805190602001206040518263ffffffff1660e01b81526004018082815260200191505060206040518083038186803b158015615d3257600080fd5b505afa158015615d46573d6000803e3d6000fd5b505050506040513d6020811015615d5c57600080fd5b8101908080519060200190929190505050905090565b6000615d9b600454836fffffffffffffffffffffffffffffffff16615bef90919063ffffffff16565b4310159050919050565b600033905090565b6060806000835111615e0a576040517f08c379a0000000000000000000000000000000000000000000000000000000008152600401808060200182810382526028815260200180616fe66028913960400191505060405180910390fd5b600080905060608451604051908082528060200260200182016040528015615e415781602001602082028038833980820191505090505b50905060008090505b8551811015615ebe57600060036000888481518110615e6557fe5b60200260200101518152602001908152602001600020600001805490509050808401935080838381518110615e9657fe5b60200260200101818152505050615eb7600182615bef90919063ffffffff16565b9050615e4a565b508082604051908082528060200260200182016040528015615eef5781602001602082028038833980820191505090505b50809050935093505050915091565b6000615f4083836040518060400160405280601e81526020017f536166654d6174683a207375627472616374696f6e206f766572666c6f770000815250616a23565b905092915050565b600080831415615f5b5760009050615fc8565b6000828402905082848281615f6c57fe5b0414615fc3576040517f08c379a0000000000000000000000000000000000000000000000000000000008152600401808060200182810382526021815260200180616fc56021913960400191505060405180910390fd5b809150505b92915050565b600061606a615fdb616ae3565b73ffffffffffffffffffffffffffffffffffffffff1663e45def956040518163ffffffff1660e01b815260040160206040518083038186803b15801561602057600080fd5b505afa158015616034573d6000803e3d6000fd5b505050506040513d602081101561604a57600080fd5b810190808051906020019092919050505083615bef90919063ffffffff16565b43109050919050565b600064010000000082106160d2576040517f08c379a00000000000000000000000000000000000000000000000000000000081526004018080602001828103825260268152602001806171466026913960400191505060405180910390fd5b819050919050565b60006003600083815260200190815260200160002060010160003373ffffffffffffffffffffffffffffffffffffffff1673ffffffffffffffffffffffffffffffffffffffff168152602001908152602001600020905060006003600084815260200190815260200160002060020160003373ffffffffffffffffffffffffffffffffffffffff1673ffffffffffffffffffffffffffffffffffffffff16815260200190815260200160002090506000616192616ae3565b73ffffffffffffffffffffffffffffffffffffffff1663fc4847266161dc6005548560000160009054906101000a900463ffffffff1663ffffffff16615bef90919063ffffffff16565b6040518263ffffffff1660e01b81526004018082815260200191505060206040518083038186803b15801561621057600080fd5b505afa158015616224573d6000803e3d6000fd5b505050506040513d602081101561623a57600080fd5b810190808051906020019092919050505090506000616257615c77565b90506000616263612e89565b90506060816040519080825280602002602001820160405280156162965781602001602082028038833980820191505090505b50905060008090505b828110156162cd57808282815181106162b457fe5b602002602001018181525050808060010191505061629f565b50818560000160049054906101000a900463ffffffff1663ffffffff16111561635e576040517f08c379a00000000000000000000000000000000000000000000000000000000081526004018080602001828103825260128152602001807f6e6f7420656e6f7567682069737375657273000000000000000000000000000081525060200191505060405180910390fd5b60008090505b8560000160049054906101000a900463ffffffff1663ffffffff1681101561688b57600083116163fc576040517f08c379a00000000000000000000000000000000000000000000000000000000081526004018080602001828103825260128152602001807f6e6f7420656e6f7567682069737375657273000000000000000000000000000081525060200191505060405180910390fd5b84604051602001808281526020019150506040516020818303038152906040528051906020012094506000838660001c8161643357fe5b069050600061645484838151811061644757fe5b6020026020010151611772565b905060008673ffffffffffffffffffffffffffffffffffffffff166393c5c487836040518263ffffffff1660e01b8152600401808273ffffffffffffffffffffffffffffffffffffffff1673ffffffffffffffffffffffffffffffffffffffff16815260200191505060206040518083038186803b1580156164d557600080fd5b505afa1580156164e9573d6000803e3d6000fd5b505050506040513d60208110156164ff57600080fd5b8101908080519060200190929190505050905060008a60020160008373ffffffffffffffffffffffffffffffffffffffff1673ffffffffffffffffffffffffffffffffffffffff16815260200190815260200160002090506000600281111561656457fe5b8160000160009054906101000a900460ff16600281111561658157fe5b14801561664257508773ffffffffffffffffffffffffffffffffffffffff1663c2e0ee20836040518263ffffffff1660e01b8152600401808273ffffffffffffffffffffffffffffffffffffffff1673ffffffffffffffffffffffffffffffffffffffff16815260200191505060206040518083038186803b15801561660657600080fd5b505afa15801561661a573d6000803e3d6000fd5b505050506040513d602081101561663057600080fd5b81019080805190602001909291905050505b156168405761665b600186615bef90919063ffffffff16565b945060018160000160006101000a81548160ff0219169083600281111561667e57fe5b02179055508960000160009054906101000a900463ffffffff168160000160016101000a81548163ffffffff021916908363ffffffff1602179055508960000160089054906101000a900473ffffffffffffffffffffffffffffffffffffffff168160000160056101000a81548173ffffffffffffffffffffffffffffffffffffffff021916908373ffffffffffffffffffffffffffffffffffffffff1602179055508a6001018290806001815401808255809150509060018203906000526020600020016000909192909190916101000a81548173ffffffffffffffffffffffffffffffffffffffff021916908373ffffffffffffffffffffffffffffffffffffffff160217905550508173ffffffffffffffffffffffffffffffffffffffff163373ffffffffffffffffffffffffffffffffffffffff168d7faf7f470b643316cf44c1f2898328a075e7602945b4f8584f48ba4ad2d8a2ea9d8d60000160089054906101000a900473ffffffffffffffffffffffffffffffffffffffff16604051808273ffffffffffffffffffffffffffffffffffffffff1673ffffffffffffffffffffffffffffffffffffffff16815260200191505060405180910390a45b616854600188615efe90919063ffffffff16565b965085878151811061686257fe5b602002602001015186858151811061687657fe5b60200260200101818152505050505050616364565b5050505050505050565b60006168d783836040518060400160405280601a81526020017f536166654d6174683a206469766973696f6e206279207a65726f000000000000815250616bde565b905092915050565b600073ffffffffffffffffffffffffffffffffffffffff168173ffffffffffffffffffffffffffffffffffffffff161415616965576040517f08c379a0000000000000000000000000000000000000000000000000000000008152600401808060200182810382526026815260200180616d9e6026913960400191505060405180910390fd5b8073ffffffffffffffffffffffffffffffffffffffff166000809054906101000a900473ffffffffffffffffffffffffffffffffffffffff1673ffffffffffffffffffffffffffffffffffffffff167f8be0079c531659141344cd1fd0a4f28419497f9722a3daafe3b4186f6b6457e060405160405180910390a3806000806101000a81548173ffffffffffffffffffffffffffffffffffffffff021916908373ffffffffffffffffffffffffffffffffffffffff16021790555050565b6000838311158290616ad0576040517f08c379a00000000000000000000000000000000000000000000000000000000081526004018080602001828103825283818151815260200191508051906020019080838360005b83811015616a95578082015181840152602081019050616a7a565b50505050905090810190601f168015616ac25780820380516001836020036101000a031916815260200191505b509250505060405180910390fd5b5060008385039050809150509392505050565b6000600160009054906101000a900473ffffffffffffffffffffffffffffffffffffffff1673ffffffffffffffffffffffffffffffffffffffff1663dcf0aaed60405160200180807f52616e646f6d00000000000000000000000000000000000000000000000000008152506006019050604051602081830303815290604052805190602001206040518263ffffffff1660e01b81526004018082815260200191505060206040518083038186803b158015616b9e57600080fd5b505afa158015616bb2573d6000803e3d6000fd5b505050506040513d6020811015616bc857600080fd5b8101908080519060200190929190505050905090565b60008083118290616c8a576040517f08c379a00000000000000000000000000000000000000000000000000000000081526004018080602001828103825283818151815260200191508051906020019080838360005b83811015616c4f578082015181840152602081019050616c34565b50505050905090810190601f168015616c7c5780820380516001836020036101000a031916815260200191505b509250505060405180910390fd5b506000838581616c9657fe5b049050809150509392505050565b815481835581811115616ccb57818360005260206000209182019101616cca9190616cd0565b5b505050565b616cf291905b80821115616cee576000816000905550600101616cd6565b5090565b9056fe6d61784174746573746174696f6e732068617320746f2062652067726561746572207468616e2030496e76616c6964206174746573746174696f6e52657175657374466565546f6b656e6572726f722063616c6c696e67206e756d62657256616c696461746f7273496e53657420707265636f6d70696c6573656c6563744973737565727357616974426c6f636b732068617320746f2062652067726561746572207468616e20304f776e61626c653a206e6577206f776e657220697320746865207a65726f206164647265737354686572652065786973747320616e20756e657870697265642c20756e73656c6563746564206174746573746174696f6e2072657175657374596f75206861766520746f20737065636966792061206665652067726561746572207468616e20306174746573746174696f6e457870697279426c6f636b732068617320746f2062652067726561746572207468616e20306572726f722063616c6c696e672067657456657269666965645365616c4269746d617046726f6d48656164657220707265636f6d70696c65596f75206861766520746f2072657175657374206174206c656173742031206174746573746174696f6e6572726f722063616c6c696e672076616c696461746f725369676e65724164647265737346726f6d43757272656e7453657420707265636f6d70696c656572726f722063616c6c696e67206e756d62657256616c696461746f7273496e43757272656e7453657420707265636f6d70696c654174746573746174696f6e20636f646520646f6573206e6f74206d6174636820616e79206f75747374616e64696e67206174746573746174696f6e6572726f722063616c6c696e672076616c696461746f725369676e65724164647265737346726f6d53657420707265636f6d70696c655472616e73666572206f66206174746573746174696f6e20726571756573742066656573206661696c6564536166654d6174683a206d756c7469706c69636174696f6e206f766572666c6f77596f75206861766520746f2070617373206174206c65617374206f6e65206964656e7469666965726572726f722063616c6c696e67206672616374696f6e4d756c45787020707265636f6d70696c656572726f722063616c6c696e672067657445706f636853697a6520707265636f6d70696c656174746573746174696f6e52657175657374466565546f6b656e732073706563696669636174696f6e2077617320696e76616c6964546865206174746573746174696f6e20726571756573742068617320657870697265644e6f20756e73656c6563746564206174746573746174696f6e207265717565737420746f2073656c656374206973737565727320666f726572726f722063616c6c696e6720676574506172656e745365616c4269746d617020707265636f6d70696c656572726f722063616c6c696e6720676574426c6f636b4e756d62657246726f6d48656164657220707265636f6d70696c6553616665436173743a2076616c756520646f65736e27742066697420696e20333220626974736572726f722063616c6c696e67206861736848656164657220707265636f6d70696c65a165627a7a72305820766667f91f64cc8749a3a6425b94fa068c9ddaaebfe6561e6fc7bb27822a2c150029",
  "source": "pragma solidity ^0.5.3;\n\nimport \"openzeppelin-solidity/contracts/math/SafeMath.sol\";\nimport \"openzeppelin-solidity/contracts/ownership/Ownable.sol\";\nimport \"openzeppelin-solidity/contracts/token/ERC20/IERC20.sol\";\nimport \"openzeppelin-solidity/contracts/utils/SafeCast.sol\";\n\nimport \"./interfaces/IAttestations.sol\";\nimport \"./interfaces/IRandom.sol\";\nimport \"../common/interfaces/IAccounts.sol\";\n\nimport \"../common/Initializable.sol\";\nimport \"../common/UsingRegistry.sol\";\nimport \"../common/Signatures.sol\";\nimport \"../common/UsingPrecompiles.sol\";\nimport \"../common/libraries/ReentrancyGuard.sol\";\n\n/**\n * @title Contract mapping identifiers to accounts\n */\ncontract Attestations is\n  IAttestations,\n  Ownable,\n  Initializable,\n  UsingRegistry,\n  ReentrancyGuard,\n  UsingPrecompiles\n{\n  using SafeMath for uint256;\n  using SafeCast for uint256;\n\n  enum AttestationStatus { None, Incomplete, Complete }\n\n  struct Attestation {\n    AttestationStatus status;\n    // For outstanding attestations, this is the block number of the request.\n    // For completed attestations, this is the block number of the attestation completion.\n    uint32 blockNumber;\n    // The token with which attestation request fees were paid.\n    address attestationRequestFeeToken;\n  }\n\n  // Stores attestations state for a single (identifier, account address) pair.\n  struct AttestedAddress {\n    // Total number of requested attestations.\n    uint32 requested;\n    // Total number of completed attestations.\n    uint32 completed;\n    // List of selected issuers responsible for attestations. The length of this list\n    // might be smaller than `requested` (which represents the total number of requested\n    // attestations) if users are not calling `selectIssuers` on unselected requests.\n    address[] selectedIssuers;\n    // State of each attestation keyed by issuer.\n    mapping(address => Attestation) issuedAttestations;\n  }\n\n  struct UnselectedRequest {\n    // The block at which the attestations were requested.\n    uint32 blockNumber;\n    // The number of attestations that were requested.\n    uint32 attestationsRequested;\n    // The token with which attestation request fees were paid in this request.\n    address attestationRequestFeeToken;\n  }\n\n  struct IdentifierState {\n    // All account addresses associated with this identifier.\n    address[] accounts;\n    // Keeps the state of attestations for account addresses for this identifier.\n    mapping(address => AttestedAddress) attestations;\n    // Temporarily stores attestation requests for which issuers should be selected by the account.\n    mapping(address => UnselectedRequest) unselectedRequests;\n  }\n\n  mapping(bytes32 => IdentifierState) identifiers;\n\n  // The duration in blocks in which an attestation can be completed from the block in which the\n  // attestation was requested.\n  uint256 public attestationExpiryBlocks;\n\n  // The duration to wait until selectIssuers can be called for an attestation request.\n  uint256 public selectIssuersWaitBlocks;\n\n  // Limit the maximum number of attestations that can be requested\n  uint256 public maxAttestations;\n\n  // The fees that are associated with attestations for a particular token.\n  mapping(address => uint256) public attestationRequestFees;\n\n  // Maps a token and attestation issuer to the amount that they're owed.\n  mapping(address => mapping(address => uint256)) public pendingWithdrawals;\n\n  event AttestationsRequested(\n    bytes32 indexed identifier,\n    address indexed account,\n    uint256 attestationsRequested,\n    address attestationRequestFeeToken\n  );\n\n  event AttestationIssuerSelected(\n    bytes32 indexed identifier,\n    address indexed account,\n    address indexed issuer,\n    address attestationRequestFeeToken\n  );\n\n  event AttestationCompleted(\n    bytes32 indexed identifier,\n    address indexed account,\n    address indexed issuer\n  );\n\n  event Withdrawal(address indexed account, address indexed token, uint256 amount);\n  event AttestationExpiryBlocksSet(uint256 value);\n  event AttestationRequestFeeSet(address indexed token, uint256 value);\n  event SelectIssuersWaitBlocksSet(uint256 value);\n  event MaxAttestationsSet(uint256 value);\n\n  /**\n   * @notice Used in place of the constructor to allow the contract to be upgradable via proxy.\n   * @param registryAddress The address of the registry core smart contract.\n   * @param _attestationExpiryBlocks The new limit on blocks allowed to come between requesting\n   * an attestation and completing it.\n   * @param _selectIssuersWaitBlocks The wait period in blocks to call selectIssuers on attestation\n   * requests.\n   * @param attestationRequestFeeTokens The address of tokens that fees should be payable in.\n   * @param attestationRequestFeeValues The corresponding fee values.\n   */\n  function initialize(\n    address registryAddress,\n    uint256 _attestationExpiryBlocks,\n    uint256 _selectIssuersWaitBlocks,\n    uint256 _maxAttestations,\n    address[] calldata attestationRequestFeeTokens,\n    uint256[] calldata attestationRequestFeeValues\n  ) external initializer {\n    _transferOwnership(msg.sender);\n    setRegistry(registryAddress);\n    setAttestationExpiryBlocks(_attestationExpiryBlocks);\n    setSelectIssuersWaitBlocks(_selectIssuersWaitBlocks);\n    setMaxAttestations(_maxAttestations);\n\n    require(\n      attestationRequestFeeTokens.length > 0 &&\n        attestationRequestFeeTokens.length == attestationRequestFeeValues.length,\n      \"attestationRequestFeeTokens specification was invalid\"\n    );\n    for (uint256 i = 0; i < attestationRequestFeeTokens.length; i = i.add(1)) {\n      setAttestationRequestFee(attestationRequestFeeTokens[i], attestationRequestFeeValues[i]);\n    }\n  }\n\n  /**\n   * @notice Commit to the attestation request of a hashed identifier.\n   * @param identifier The hash of the identifier to be attested.\n   * @param attestationsRequested The number of requested attestations for this request.\n   * @param attestationRequestFeeToken The address of the token with which the attestation fee will\n   * be paid.\n   */\n  function request(\n    bytes32 identifier,\n    uint256 attestationsRequested,\n    address attestationRequestFeeToken\n  ) external nonReentrant {\n    require(\n      attestationRequestFees[attestationRequestFeeToken] > 0,\n      \"Invalid attestationRequestFeeToken\"\n    );\n    require(\n      IERC20(attestationRequestFeeToken).transferFrom(\n        msg.sender,\n        address(this),\n        attestationRequestFees[attestationRequestFeeToken].mul(attestationsRequested)\n      ),\n      \"Transfer of attestation request fees failed\"\n    );\n\n    require(attestationsRequested > 0, \"You have to request at least 1 attestation\");\n    require(attestationsRequested <= maxAttestations, \"Too many attestations requested\");\n\n    IdentifierState storage state = identifiers[identifier];\n\n    require(\n      state.unselectedRequests[msg.sender].blockNumber == 0 ||\n        isAttestationExpired(state.unselectedRequests[msg.sender].blockNumber) ||\n        !isAttestationRequestSelectable(state.unselectedRequests[msg.sender].blockNumber),\n      \"There exists an unexpired, unselected attestation request\"\n    );\n\n    state.unselectedRequests[msg.sender].blockNumber = block.number.toUint32();\n    state.unselectedRequests[msg.sender].attestationsRequested = attestationsRequested.toUint32();\n    state.unselectedRequests[msg.sender].attestationRequestFeeToken = attestationRequestFeeToken;\n\n    state.attestations[msg.sender].requested = uint256(state.attestations[msg.sender].requested)\n      .add(attestationsRequested)\n      .toUint32();\n\n    emit AttestationsRequested(\n      identifier,\n      msg.sender,\n      attestationsRequested,\n      attestationRequestFeeToken\n    );\n  }\n\n  /**\n   * @notice Selects the issuers for the most recent attestation request.\n   * @param identifier The hash of the identifier to be attested.\n   */\n  function selectIssuers(bytes32 identifier) external {\n    IdentifierState storage state = identifiers[identifier];\n\n    require(\n      state.unselectedRequests[msg.sender].blockNumber > 0,\n      \"No unselected attestation request to select issuers for\"\n    );\n\n    require(\n      !isAttestationExpired(state.unselectedRequests[msg.sender].blockNumber),\n      \"The attestation request has expired\"\n    );\n\n    addIncompleteAttestations(identifier);\n    delete state.unselectedRequests[msg.sender];\n  }\n\n  /**\n   * @notice Submit the secret message sent by the issuer to complete the attestation request.\n   * @param identifier The hash of the identifier for this attestation.\n   * @param v The recovery id of the incoming ECDSA signature.\n   * @param r Output value r of the ECDSA signature.\n   * @param s Output value s of the ECDSA signature.\n   * @dev Throws if there is no matching outstanding attestation request.\n   * @dev Throws if the attestation window has passed.\n   */\n  function complete(bytes32 identifier, uint8 v, bytes32 r, bytes32 s) external {\n    address issuer = validateAttestationCode(identifier, msg.sender, v, r, s);\n\n    Attestation storage attestation = identifiers[identifier].attestations[msg.sender]\n      .issuedAttestations[issuer];\n\n    address token = attestation.attestationRequestFeeToken;\n\n    // solhint-disable-next-line not-rely-on-time\n    attestation.blockNumber = block.number.toUint32();\n    attestation.status = AttestationStatus.Complete;\n    delete attestation.attestationRequestFeeToken;\n    AttestedAddress storage attestedAddress = identifiers[identifier].attestations[msg.sender];\n    require(\n      attestedAddress.completed < attestedAddress.completed + 1,\n      \"SafeMath32 integer overflow\"\n    );\n    attestedAddress.completed = attestedAddress.completed + 1;\n\n    pendingWithdrawals[token][issuer] = pendingWithdrawals[token][issuer].add(\n      attestationRequestFees[token]\n    );\n\n    IdentifierState storage state = identifiers[identifier];\n    if (identifiers[identifier].attestations[msg.sender].completed == 1) {\n      state.accounts.push(msg.sender);\n    }\n\n    emit AttestationCompleted(identifier, msg.sender, issuer);\n  }\n\n  /**\n   * @notice Revokes an account for an identifier.\n   * @param identifier The identifier for which to revoke.\n   * @param index The index of the account in the accounts array.\n   */\n  function revoke(bytes32 identifier, uint256 index) external {\n    uint256 numAccounts = identifiers[identifier].accounts.length;\n    require(index < numAccounts, \"Index is invalid\");\n    require(\n      msg.sender == identifiers[identifier].accounts[index],\n      \"Index does not match msg.sender\"\n    );\n\n    uint256 newNumAccounts = numAccounts.sub(1);\n    if (index != newNumAccounts) {\n      identifiers[identifier].accounts[index] = identifiers[identifier].accounts[newNumAccounts];\n    }\n    identifiers[identifier].accounts[newNumAccounts] = address(0x0);\n    identifiers[identifier].accounts.length = identifiers[identifier].accounts.length.sub(1);\n  }\n\n  /**\n   * @notice Allows issuers to withdraw accumulated attestation rewards.\n   * @param token The address of the token that will be withdrawn.\n   * @dev Throws if msg.sender does not have any rewards to withdraw.\n   */\n  function withdraw(address token) external {\n    uint256 value = pendingWithdrawals[token][msg.sender];\n    require(value > 0, \"value was negative/zero\");\n    pendingWithdrawals[token][msg.sender] = 0;\n    require(IERC20(token).transfer(msg.sender, value), \"token transfer failed\");\n    emit Withdrawal(msg.sender, token, value);\n  }\n\n  /**\n   * @notice Returns the unselected attestation request for an identifier/account pair, if any.\n   * @param identifier Hash of the identifier.\n   * @param account Address of the account.\n   * @return [\n   *           Block number at which was requested,\n   *           Number of unselected requests,\n   *           Address of the token with which this attestation request was paid for\n   *         ]\n   */\n  function getUnselectedRequest(bytes32 identifier, address account)\n    external\n    view\n    returns (uint32, uint32, address)\n  {\n    return (\n      identifiers[identifier].unselectedRequests[account].blockNumber,\n      identifiers[identifier].unselectedRequests[account].attestationsRequested,\n      identifiers[identifier].unselectedRequests[account].attestationRequestFeeToken\n    );\n  }\n\n  /**\n   * @notice Returns selected attestation issuers for a identifier/account pair.\n   * @param identifier Hash of the identifier.\n   * @param account Address of the account.\n   * @return Addresses of the selected attestation issuers.\n   */\n  function getAttestationIssuers(bytes32 identifier, address account)\n    external\n    view\n    returns (address[] memory)\n  {\n    return identifiers[identifier].attestations[account].selectedIssuers;\n  }\n\n  /**\n   * @notice Returns attestation stats for a identifier/account pair.\n   * @param identifier Hash of the identifier.\n   * @param account Address of the account.\n   * @return [Number of completed attestations, Number of total requested attestations]\n   */\n  function getAttestationStats(bytes32 identifier, address account)\n    external\n    view\n    returns (uint32, uint32)\n  {\n    return (\n      identifiers[identifier].attestations[account].completed,\n      identifiers[identifier].attestations[account].requested\n    );\n  }\n\n  /**\n   * @notice Batch lookup function to determine attestation stats for a list of identifiers.\n   * @param identifiersToLookup Array of n identifiers.\n   * @return [0] Array of number of matching accounts per identifier.\n   * @return [1] Array of sum([0]) matching walletAddresses.\n   * @return [2] Array of sum([0]) numbers indicating the completions for each account.\n   * @return [3] Array of sum([0]) numbers indicating the total number of requested\n                 attestations for each account.\n   */\n  function batchGetAttestationStats(bytes32[] calldata identifiersToLookup)\n    external\n    view\n    returns (uint256[] memory, address[] memory, uint64[] memory, uint64[] memory)\n  {\n    require(identifiersToLookup.length > 0, \"You have to pass at least one identifier\");\n\n    uint256[] memory matches;\n    address[] memory addresses;\n\n    (matches, addresses) = batchlookupAccountsForIdentifier(identifiersToLookup);\n\n    uint64[] memory completed = new uint64[](addresses.length);\n    uint64[] memory total = new uint64[](addresses.length);\n\n    uint256 currentIndex = 0;\n    for (uint256 i = 0; i < identifiersToLookup.length; i = i.add(1)) {\n      address[] memory addrs = identifiers[identifiersToLookup[i]].accounts;\n      for (uint256 matchIndex = 0; matchIndex < matches[i]; matchIndex = matchIndex.add(1)) {\n        addresses[currentIndex] = getAccounts().getWalletAddress(addrs[matchIndex]);\n        completed[currentIndex] = identifiers[identifiersToLookup[i]]\n          .attestations[addrs[matchIndex]]\n          .completed;\n        total[currentIndex] = identifiers[identifiersToLookup[i]].attestations[addrs[matchIndex]]\n          .requested;\n        currentIndex = currentIndex.add(1);\n      }\n    }\n\n    return (matches, addresses, completed, total);\n  }\n\n  /**\n   * @notice Returns the state of a specific attestation.\n   * @param identifier Hash of the identifier.\n   * @param account Address of the account.\n   * @param issuer Address of the issuer.\n   * @return [\n   *           Status of the attestation,\n   *           Block number of request/completion the attestation,\n   *           Address of the token with which this attestation request was paid for\n   *         ]\n   */\n  function getAttestationState(bytes32 identifier, address account, address issuer)\n    external\n    view\n    returns (uint8, uint32, address)\n  {\n    Attestation storage attestation = identifiers[identifier].attestations[account]\n      .issuedAttestations[issuer];\n    return (\n      uint8(attestation.status),\n      attestation.blockNumber,\n      attestation.attestationRequestFeeToken\n    );\n\n  }\n\n  /**\n    * @notice Returns the state of all attestations that are completable\n    * @param identifier Hash of the identifier.\n    * @param account Address of the account.\n    * @return ( blockNumbers[] - Block number of request/completion the attestation,\n    *           issuers[] - Address of the issuer,\n    *           stringLengths[] - The length of each metadataURL string for each issuer,\n    *           stringData - All strings concatenated\n    *         )\n    */\n  function getCompletableAttestations(bytes32 identifier, address account)\n    external\n    view\n    returns (uint32[] memory, address[] memory, uint256[] memory, bytes memory)\n  {\n    AttestedAddress storage state = identifiers[identifier].attestations[account];\n    address[] storage issuers = state.selectedIssuers;\n\n    uint256 num = 0;\n    for (uint256 i = 0; i < issuers.length; i = i.add(1)) {\n      if (isAttestationCompletable(state.issuedAttestations[issuers[i]])) {\n        num = num.add(1);\n      }\n    }\n\n    uint32[] memory blockNumbers = new uint32[](num);\n    address[] memory completableIssuers = new address[](num);\n\n    uint256 pointer = 0;\n    for (uint256 i = 0; i < issuers.length; i = i.add(1)) {\n      if (isAttestationCompletable(state.issuedAttestations[issuers[i]])) {\n        blockNumbers[pointer] = state.issuedAttestations[issuers[i]].blockNumber;\n        completableIssuers[pointer] = issuers[i];\n        pointer = pointer.add(1);\n      }\n    }\n\n    uint256[] memory stringLengths;\n    bytes memory stringData;\n    (stringLengths, stringData) = getAccounts().batchGetMetadataURL(completableIssuers);\n    return (blockNumbers, completableIssuers, stringLengths, stringData);\n  }\n\n  /**\n   * @notice Returns the fee set for a particular token.\n   * @param token Address of the attestationRequestFeeToken.\n   * @return The fee.\n   */\n  function getAttestationRequestFee(address token) external view returns (uint256) {\n    return attestationRequestFees[token];\n  }\n\n  /**\n   * @notice Updates the fee  for a particular token.\n   * @param token The address of the attestationRequestFeeToken.\n   * @param fee The fee in 'token' that is required for each attestation.\n   */\n  function setAttestationRequestFee(address token, uint256 fee) public onlyOwner {\n    require(fee > 0, \"You have to specify a fee greater than 0\");\n    attestationRequestFees[token] = fee;\n    emit AttestationRequestFeeSet(token, fee);\n  }\n\n  /**\n   * @notice Updates 'attestationExpiryBlocks'.\n   * @param _attestationExpiryBlocks The new limit on blocks allowed to come between requesting\n   * an attestation and completing it.\n   */\n  function setAttestationExpiryBlocks(uint256 _attestationExpiryBlocks) public onlyOwner {\n    require(_attestationExpiryBlocks > 0, \"attestationExpiryBlocks has to be greater than 0\");\n    attestationExpiryBlocks = _attestationExpiryBlocks;\n    emit AttestationExpiryBlocksSet(_attestationExpiryBlocks);\n  }\n\n  /**\n   * @notice Updates 'selectIssuersWaitBlocks'.\n   * @param _selectIssuersWaitBlocks The wait period in blocks to call selectIssuers on attestation\n   *                                 requests.\n   */\n  function setSelectIssuersWaitBlocks(uint256 _selectIssuersWaitBlocks) public onlyOwner {\n    require(_selectIssuersWaitBlocks > 0, \"selectIssuersWaitBlocks has to be greater than 0\");\n    selectIssuersWaitBlocks = _selectIssuersWaitBlocks;\n    emit SelectIssuersWaitBlocksSet(_selectIssuersWaitBlocks);\n  }\n\n  /**\n   * @notice Updates 'maxAttestations'.\n   * @param _maxAttestations Maximum number of attestations that can be requested.\n   */\n  function setMaxAttestations(uint256 _maxAttestations) public onlyOwner {\n    require(_maxAttestations > 0, \"maxAttestations has to be greater than 0\");\n    maxAttestations = _maxAttestations;\n    emit MaxAttestationsSet(_maxAttestations);\n  }\n\n  /**\n   * @notice Query 'maxAttestations'\n   * @return Maximum number of attestations that can be requested.\n   */\n  function getMaxAttestations() external view returns (uint256) {\n    return maxAttestations;\n  }\n\n  /**\n   * @notice Validates the given attestation code.\n   * @param identifier The hash of the identifier to be attested.\n   * @param v The recovery id of the incoming ECDSA signature.\n   * @param r Output value r of the ECDSA signature.\n   * @param s Output value s of the ECDSA signature.\n   * @return The issuer of the corresponding attestation.\n   * @dev Throws if there is no matching outstanding attestation request.\n   * @dev Throws if the attestation window has passed.\n   */\n  function validateAttestationCode(\n    bytes32 identifier,\n    address account,\n    uint8 v,\n    bytes32 r,\n    bytes32 s\n  ) public view returns (address) {\n    bytes32 codehash = keccak256(abi.encodePacked(identifier, account));\n    address signer = Signatures.getSignerOfMessageHash(codehash, v, r, s);\n    address issuer = getAccounts().attestationSignerToAccount(signer);\n\n    Attestation storage attestation = identifiers[identifier].attestations[account]\n      .issuedAttestations[issuer];\n\n    require(\n      attestation.status == AttestationStatus.Incomplete,\n      \"Attestation code does not match any outstanding attestation\"\n    );\n    require(!isAttestationExpired(attestation.blockNumber), \"Attestation timed out\");\n\n    return issuer;\n  }\n\n  function lookupAccountsForIdentifier(bytes32 identifier)\n    external\n    view\n    returns (address[] memory)\n  {\n    return identifiers[identifier].accounts;\n  }\n\n  /**\n   * @notice Helper function for batchGetAttestationStats to calculate the\n             total number of addresses that have >0 complete attestations for the identifiers.\n   * @param identifiersToLookup Array of n identifiers.\n   * @return Array of n numbers that indicate the number of matching addresses per identifier\n   *         and array of addresses preallocated for total number of matches.\n   */\n  function batchlookupAccountsForIdentifier(bytes32[] memory identifiersToLookup)\n    internal\n    view\n    returns (uint256[] memory, address[] memory)\n  {\n    require(identifiersToLookup.length > 0, \"You have to pass at least one identifier\");\n    uint256 totalAddresses = 0;\n    uint256[] memory matches = new uint256[](identifiersToLookup.length);\n\n    for (uint256 i = 0; i < identifiersToLookup.length; i = i.add(1)) {\n      uint256 count = identifiers[identifiersToLookup[i]].accounts.length;\n\n      totalAddresses = totalAddresses + count;\n      matches[i] = count;\n    }\n\n    return (matches, new address[](totalAddresses));\n  }\n\n  /**\n   * @notice Adds additional attestations given the current randomness.\n   * @param identifier The hash of the identifier to be attested.\n   */\n  function addIncompleteAttestations(bytes32 identifier) internal {\n    AttestedAddress storage state = identifiers[identifier].attestations[msg.sender];\n    UnselectedRequest storage unselectedRequest = identifiers[identifier].unselectedRequests[msg\n      .sender];\n\n    bytes32 seed = getRandom().getBlockRandomness(\n      uint256(unselectedRequest.blockNumber).add(selectIssuersWaitBlocks)\n    );\n    IAccounts accounts = getAccounts();\n    uint256 issuersLength = numberValidatorsInCurrentSet();\n    uint256[] memory issuers = new uint256[](issuersLength);\n    for (uint256 i = 0; i < issuersLength; i++) issuers[i] = i;\n\n    require(unselectedRequest.attestationsRequested <= issuersLength, \"not enough issuers\");\n\n    uint256 currentIndex = 0;\n\n    // The length of the list (variable issuersLength) is decremented in each round,\n    // so the loop always terminates\n    while (currentIndex < unselectedRequest.attestationsRequested) {\n      require(issuersLength > 0, \"not enough issuers\");\n      seed = keccak256(abi.encodePacked(seed));\n      uint256 idx = uint256(seed) % issuersLength;\n      address signer = validatorSignerAddressFromCurrentSet(issuers[idx]);\n      address issuer = accounts.signerToAccount(signer);\n\n      Attestation storage attestation = state.issuedAttestations[issuer];\n\n      if (\n        attestation.status == AttestationStatus.None &&\n        accounts.hasAuthorizedAttestationSigner(issuer)\n      ) {\n        currentIndex = currentIndex.add(1);\n        attestation.status = AttestationStatus.Incomplete;\n        attestation.blockNumber = unselectedRequest.blockNumber;\n        attestation.attestationRequestFeeToken = unselectedRequest.attestationRequestFeeToken;\n        state.selectedIssuers.push(issuer);\n\n        emit AttestationIssuerSelected(\n          identifier,\n          msg.sender,\n          issuer,\n          unselectedRequest.attestationRequestFeeToken\n        );\n      }\n\n      // Remove the validator that was selected from the list,\n      // by replacing it by the last element in the list\n      issuersLength = issuersLength.sub(1);\n      issuers[idx] = issuers[issuersLength];\n    }\n  }\n\n  function isAttestationExpired(uint128 attestationRequestBlock) internal view returns (bool) {\n    return block.number >= uint256(attestationRequestBlock).add(attestationExpiryBlocks);\n  }\n\n  function isAttestationCompletable(Attestation storage attestation) internal view returns (bool) {\n    return (attestation.status == AttestationStatus.Incomplete &&\n      !isAttestationExpired(attestation.blockNumber));\n  }\n\n  function isAttestationRequestSelectable(uint256 attestationRequestBlock)\n    internal\n    view\n    returns (bool)\n  {\n    return block.number < attestationRequestBlock.add(getRandom().randomnessBlockRetentionWindow());\n  }\n}\n",
  "sourcePath": "/Users/cmcewen/celo/celo-monorepo/packages/protocol/contracts/identity/Attestations.sol",
  "compiler": {
    "name": "solc",
    "version": "0.5.8+commit.23d335f2.Emscripten.clang"
  },
  "schemaVersion": "3.0.10",
  "updatedAt": "2020-04-09T23:47:17.881Z",
  "devdoc": {
    "methods": {
      "batchGetAttestationStats(bytes32[])": {
        "params": {
          "identifiersToLookup": "Array of n identifiers."
        },
        "return": "[0] Array of number of matching accounts per identifier.[1] Array of sum([0]) matching walletAddresses.[2] Array of sum([0]) numbers indicating the completions for each account.[3] Array of sum([0]) numbers indicating the total number of requested attestations for each account."
      },
      "checkProofOfPossession(address,bytes,bytes)": {
        "params": {
          "blsKey": "The BLS public key that the validator is using for consensus, should pass proof  of possession. 48 bytes.",
          "blsPop": "The BLS public key proof-of-possession, which consists of a signature on the  account address. 96 bytes.",
          "sender": "The address signed by the BLS key to generate the proof of possession."
        },
        "return": "True upon success."
      },
      "complete(bytes32,uint8,bytes32,bytes32)": {
        "details": "Throws if there is no matching outstanding attestation request.Throws if the attestation window has passed.",
        "params": {
          "identifier": "The hash of the identifier for this attestation.",
          "r": "Output value r of the ECDSA signature.",
          "s": "Output value s of the ECDSA signature.",
          "v": "The recovery id of the incoming ECDSA signature."
        }
      },
      "fractionMulExp(uint256,uint256,uint256,uint256,uint256,uint256)": {
        "params": {
          "_decimals": "precision",
          "aDenominator": "Denominator of first fraction",
          "aNumerator": "Numerator of first fraction",
          "bDenominator": "Denominator of exponentiated fraction",
          "bNumerator": "Numerator of exponentiated fraction",
          "exponent": "exponent to raise b to"
        },
        "return": "numerator/denominator of the computed quantity (not reduced)."
      },
      "getAttestationIssuers(bytes32,address)": {
        "params": {
          "account": "Address of the account.",
          "identifier": "Hash of the identifier."
        },
        "return": "Addresses of the selected attestation issuers."
      },
      "getAttestationRequestFee(address)": {
        "params": {
          "token": "Address of the attestationRequestFeeToken."
        },
        "return": "The fee."
      },
      "getAttestationState(bytes32,address,address)": {
        "params": {
          "account": "Address of the account.",
          "identifier": "Hash of the identifier.",
          "issuer": "Address of the issuer."
        },
        "return": "[          Status of the attestation,          Block number of request/completion the attestation,          Address of the token with which this attestation request was paid for        ]"
      },
      "getAttestationStats(bytes32,address)": {
        "params": {
          "account": "Address of the account.",
          "identifier": "Hash of the identifier."
        },
        "return": "[Number of completed attestations, Number of total requested attestations]"
      },
      "getBlockNumberFromHeader(bytes)": {
        "params": {
          "header": "RLP encoded header"
        },
        "return": "Block number."
      },
      "getCompletableAttestations(bytes32,address)": {
        "params": {
          "account": "Address of the account.",
          "identifier": "Hash of the identifier."
        },
        "return": "( blockNumbers[] - Block number of request/completion the attestation,          issuers[] - Address of the issuer,          stringLengths[] - The length of each metadataURL string for each issuer,          stringData - All strings concatenated        )"
      },
      "getEpochNumber()": {
        "return": "Current epoch number."
      },
      "getEpochNumberOfBlock(uint256)": {
        "params": {
          "blockNumber": "Block number where epoch number is calculated."
        },
        "return": "Epoch number."
      },
      "getEpochSize()": {
        "return": "The current epoch size in blocks."
      },
      "getMaxAttestations()": {
        "return": "Maximum number of attestations that can be requested."
      },
      "getParentSealBitmap(uint256)": {
        "params": {
          "blockNumber": "Block number to retrieve. Must be within 4 epochs of the current number."
        },
        "return": "Bitmap parent seal with set bits at indices corresponding to signing validators."
      },
      "getUnselectedRequest(bytes32,address)": {
        "params": {
          "account": "Address of the account.",
          "identifier": "Hash of the identifier."
        },
        "return": "[          Block number at which was requested,          Number of unselected requests,          Address of the token with which this attestation request was paid for        ]"
      },
      "getVerifiedSealBitmapFromHeader(bytes)": {
        "params": {
          "header": "RLP encoded header"
        },
        "return": "Bitmap parent seal with set bits at indices correspoinding to signing validators."
      },
      "hashHeader(bytes)": {
        "params": {
          "header": "RLP encoded header"
        },
        "return": "Header hash."
      },
      "initialize(address,uint256,uint256,uint256,address[],uint256[])": {
        "params": {
          "_attestationExpiryBlocks": "The new limit on blocks allowed to come between requesting an attestation and completing it.",
          "_selectIssuersWaitBlocks": "The wait period in blocks to call selectIssuers on attestation requests.",
          "attestationRequestFeeTokens": "The address of tokens that fees should be payable in.",
          "attestationRequestFeeValues": "The corresponding fee values.",
          "registryAddress": "The address of the registry core smart contract."
        }
      },
      "isOwner()": {
        "details": "Returns true if the caller is the current owner."
      },
      "minQuorumSize(uint256)": {
        "details": "Computed in celo-blockchain as int(math.Ceil(float64(2*valSet.Size()) / 3))"
      },
      "minQuorumSizeInCurrentSet()": {
        "return": "Byzantine quorum of validators."
      },
      "numberValidatorsInCurrentSet()": {
        "return": "Size of the current elected validator set."
      },
      "numberValidatorsInSet(uint256)": {
        "params": {
          "blockNumber": "Block number to retrieve the validator set from."
        },
        "return": "Size of the validator set."
      },
      "owner()": {
        "details": "Returns the address of the current owner."
      },
      "renounceOwnership()": {
        "details": "Leaves the contract without owner. It will not be possible to call `onlyOwner` functions anymore. Can only be called by the current owner.     * NOTE: Renouncing ownership will leave the contract without an owner, thereby removing any functionality that is only available to the owner."
      },
      "request(bytes32,uint256,address)": {
        "params": {
          "attestationRequestFeeToken": "The address of the token with which the attestation fee will be paid.",
          "attestationsRequested": "The number of requested attestations for this request.",
          "identifier": "The hash of the identifier to be attested."
        }
      },
      "revoke(bytes32,uint256)": {
        "params": {
          "identifier": "The identifier for which to revoke.",
          "index": "The index of the account in the accounts array."
        }
      },
      "selectIssuers(bytes32)": {
        "params": {
          "identifier": "The hash of the identifier to be attested."
        }
      },
      "setAttestationExpiryBlocks(uint256)": {
        "params": {
          "_attestationExpiryBlocks": "The new limit on blocks allowed to come between requesting an attestation and completing it."
        }
      },
      "setAttestationRequestFee(address,uint256)": {
        "params": {
          "fee": "The fee in 'token' that is required for each attestation.",
          "token": "The address of the attestationRequestFeeToken."
        }
      },
      "setMaxAttestations(uint256)": {
        "params": {
          "_maxAttestations": "Maximum number of attestations that can be requested."
        }
      },
      "setRegistry(address)": {
        "params": {
          "registryAddress": "The address of a registry contract for routing to other contracts."
        }
      },
      "setSelectIssuersWaitBlocks(uint256)": {
        "params": {
          "_selectIssuersWaitBlocks": "The wait period in blocks to call selectIssuers on attestation                                requests."
        }
      },
      "transferOwnership(address)": {
        "details": "Transfers ownership of the contract to a new account (`newOwner`). Can only be called by the current owner."
      },
      "validateAttestationCode(bytes32,address,uint8,bytes32,bytes32)": {
        "details": "Throws if there is no matching outstanding attestation request.Throws if the attestation window has passed.",
        "params": {
          "identifier": "The hash of the identifier to be attested.",
          "r": "Output value r of the ECDSA signature.",
          "s": "Output value s of the ECDSA signature.",
          "v": "The recovery id of the incoming ECDSA signature."
        },
        "return": "The issuer of the corresponding attestation."
      },
      "validatorSignerAddressFromCurrentSet(uint256)": {
        "params": {
          "index": "Index of requested validator in the validator set."
        },
        "return": "Address of validator at the requested index."
      },
      "validatorSignerAddressFromSet(uint256,uint256)": {
        "params": {
          "blockNumber": "Block number to retrieve the validator set from.",
          "index": "Index of requested validator in the validator set."
        },
        "return": "Address of validator at the requested index."
      },
      "withdraw(address)": {
        "details": "Throws if msg.sender does not have any rewards to withdraw.",
        "params": {
          "token": "The address of the token that will be withdrawn."
        }
      }
    },
    "title": "Contract mapping identifiers to accounts"
  },
  "userdoc": {
    "methods": {
      "batchGetAttestationStats(bytes32[])": {
        "notice": "Batch lookup function to determine attestation stats for a list of identifiers."
      },
      "checkProofOfPossession(address,bytes,bytes)": {
        "notice": "Checks a BLS proof of possession."
      },
      "complete(bytes32,uint8,bytes32,bytes32)": {
        "notice": "Submit the secret message sent by the issuer to complete the attestation request."
      },
      "fractionMulExp(uint256,uint256,uint256,uint256,uint256,uint256)": {
        "notice": "calculate a * b^x for fractions a, b to `decimals` precision"
      },
      "getAttestationIssuers(bytes32,address)": {
        "notice": "Returns selected attestation issuers for a identifier/account pair."
      },
      "getAttestationRequestFee(address)": {
        "notice": "Returns the fee set for a particular token."
      },
      "getAttestationState(bytes32,address,address)": {
        "notice": "Returns the state of a specific attestation."
      },
      "getAttestationStats(bytes32,address)": {
        "notice": "Returns attestation stats for a identifier/account pair."
      },
      "getBlockNumberFromHeader(bytes)": {
        "notice": "Parses block number out of header."
      },
      "getCompletableAttestations(bytes32,address)": {
        "notice": "Returns the state of all attestations that are completable"
      },
      "getEpochNumber()": {
        "notice": "Returns the epoch number at a block."
      },
      "getEpochNumberOfBlock(uint256)": {
        "notice": "Returns the epoch number at a block."
      },
      "getEpochSize()": {
        "notice": "Returns the current epoch size in blocks."
      },
      "getMaxAttestations()": {
        "notice": "Query 'maxAttestations'"
      },
      "getParentSealBitmap(uint256)": {
        "notice": "Gets the parent seal bitmap from the header at the given block number."
      },
      "getUnselectedRequest(bytes32,address)": {
        "notice": "Returns the unselected attestation request for an identifier/account pair, if any."
      },
      "getVerifiedSealBitmapFromHeader(bytes)": {
        "notice": "Verifies the BLS signature on the header and returns the seal bitmap. The validator set used for verification is retrieved based on the parent hash field of the header.  If the parent hash is not in the blockchain, verification fails."
      },
      "hashHeader(bytes)": {
        "notice": "Computes hash of header."
      },
      "initialize(address,uint256,uint256,uint256,address[],uint256[])": {
        "notice": "Used in place of the constructor to allow the contract to be upgradable via proxy."
      },
      "minQuorumSize(uint256)": {
        "notice": "Returns the minimum number of required signers for a given block number."
      },
      "minQuorumSizeInCurrentSet()": {
        "notice": "Computes byzantine quorum from current validator set size"
      },
      "numberValidatorsInCurrentSet()": {
        "notice": "Gets the size of the current elected validator set."
      },
      "numberValidatorsInSet(uint256)": {
        "notice": "Gets the size of the validator set that must sign the given block number."
      },
      "request(bytes32,uint256,address)": {
        "notice": "Commit to the attestation request of a hashed identifier."
      },
      "revoke(bytes32,uint256)": {
        "notice": "Revokes an account for an identifier."
      },
      "selectIssuers(bytes32)": {
        "notice": "Selects the issuers for the most recent attestation request."
      },
      "setAttestationExpiryBlocks(uint256)": {
        "notice": "Updates 'attestationExpiryBlocks'."
      },
      "setAttestationRequestFee(address,uint256)": {
        "notice": "Updates the fee  for a particular token."
      },
      "setMaxAttestations(uint256)": {
        "notice": "Updates 'maxAttestations'."
      },
      "setRegistry(address)": {
        "notice": "Updates the address pointing to a Registry contract."
      },
      "setSelectIssuersWaitBlocks(uint256)": {
        "notice": "Updates 'selectIssuersWaitBlocks'."
      },
      "validateAttestationCode(bytes32,address,uint8,bytes32,bytes32)": {
        "notice": "Validates the given attestation code."
      },
      "validatorSignerAddressFromCurrentSet(uint256)": {
        "notice": "Gets a validator address from the current validator set."
      },
      "validatorSignerAddressFromSet(uint256,uint256)": {
        "notice": "Gets a validator address from the validator set at the given block number."
      },
      "withdraw(address)": {
        "notice": "Allows issuers to withdraw accumulated attestation rewards."
      }
    }
  }
}