{
  "contractName": "BondedDeposits",
  "abi": [
    {
      "constant": true,
      "inputs": [],
      "name": "initialized",
      "outputs": [
        {
          "name": "",
          "type": "bool"
        }
      ],
      "payable": false,
      "stateMutability": "view",
      "type": "function"
    },
    {
      "constant": true,
      "inputs": [
        {
          "name": "",
          "type": "uint256"
        }
      ],
      "name": "cumulativeRewardWeights",
      "outputs": [
        {
          "name": "numerator",
          "type": "uint256"
        },
        {
          "name": "denominator",
          "type": "uint256"
        }
      ],
      "payable": false,
      "stateMutability": "view",
      "type": "function"
    },
    {
      "constant": false,
      "inputs": [],
      "name": "renounceOwnership",
      "outputs": [],
      "payable": false,
      "stateMutability": "nonpayable",
      "type": "function"
    },
    {
      "constant": true,
      "inputs": [],
      "name": "registry",
      "outputs": [
        {
          "name": "",
          "type": "address"
        }
      ],
      "payable": false,
      "stateMutability": "view",
      "type": "function"
    },
    {
      "constant": true,
      "inputs": [],
      "name": "owner",
      "outputs": [
        {
          "name": "",
          "type": "address"
        }
      ],
      "payable": false,
      "stateMutability": "view",
      "type": "function"
    },
    {
      "constant": true,
      "inputs": [],
      "name": "isOwner",
      "outputs": [
        {
          "name": "",
          "type": "bool"
        }
      ],
      "payable": false,
      "stateMutability": "view",
      "type": "function"
    },
    {
      "constant": true,
      "inputs": [],
      "name": "totalWeight",
      "outputs": [
        {
          "name": "",
          "type": "uint256"
        }
      ],
      "payable": false,
      "stateMutability": "view",
      "type": "function"
    },
    {
      "constant": false,
      "inputs": [
        {
          "name": "registryAddress",
          "type": "address"
        }
      ],
      "name": "setRegistry",
      "outputs": [],
      "payable": false,
      "stateMutability": "nonpayable",
      "type": "function"
    },
    {
      "constant": true,
      "inputs": [
        {
          "name": "",
          "type": "address"
        }
      ],
      "name": "delegations",
      "outputs": [
        {
          "name": "",
          "type": "address"
        }
      ],
      "payable": false,
      "stateMutability": "view",
      "type": "function"
    },
    {
      "constant": true,
      "inputs": [],
      "name": "maxNoticePeriod",
      "outputs": [
        {
          "name": "",
          "type": "uint256"
        }
      ],
      "payable": false,
      "stateMutability": "view",
      "type": "function"
    },
    {
      "constant": false,
      "inputs": [
        {
          "name": "newOwner",
          "type": "address"
        }
      ],
      "name": "transferOwnership",
      "outputs": [],
      "payable": false,
      "stateMutability": "nonpayable",
      "type": "function"
    },
    {
      "anonymous": false,
      "inputs": [
        {
          "indexed": false,
          "name": "maxNoticePeriod",
          "type": "uint256"
        }
      ],
      "name": "MaxNoticePeriodSet",
      "type": "event"
    },
    {
      "anonymous": false,
      "inputs": [
        {
          "indexed": false,
          "name": "role",
          "type": "uint8"
        },
        {
          "indexed": true,
          "name": "account",
          "type": "address"
        },
        {
          "indexed": false,
          "name": "delegate",
          "type": "address"
        }
      ],
      "name": "RoleDelegated",
      "type": "event"
    },
    {
      "anonymous": false,
      "inputs": [
        {
          "indexed": true,
          "name": "account",
          "type": "address"
        }
      ],
      "name": "VotingFrozen",
      "type": "event"
    },
    {
      "anonymous": false,
      "inputs": [
        {
          "indexed": true,
          "name": "account",
          "type": "address"
        }
      ],
      "name": "VotingUnfrozen",
      "type": "event"
    },
    {
      "anonymous": false,
      "inputs": [
        {
          "indexed": true,
          "name": "account",
          "type": "address"
        },
        {
          "indexed": false,
          "name": "value",
          "type": "uint256"
        },
        {
          "indexed": false,
          "name": "noticePeriod",
          "type": "uint256"
        }
      ],
      "name": "DepositBonded",
      "type": "event"
    },
    {
      "anonymous": false,
      "inputs": [
        {
          "indexed": true,
          "name": "account",
          "type": "address"
        },
        {
          "indexed": false,
          "name": "value",
          "type": "uint256"
        },
        {
          "indexed": false,
          "name": "noticePeriod",
          "type": "uint256"
        },
        {
          "indexed": false,
          "name": "availabilityTime",
          "type": "uint256"
        }
      ],
      "name": "DepositNotified",
      "type": "event"
    },
    {
      "anonymous": false,
      "inputs": [
        {
          "indexed": true,
          "name": "account",
          "type": "address"
        },
        {
          "indexed": false,
          "name": "value",
          "type": "uint256"
        },
        {
          "indexed": false,
          "name": "noticePeriod",
          "type": "uint256"
        },
        {
          "indexed": false,
          "name": "availabilityTime",
          "type": "uint256"
        }
      ],
      "name": "DepositRebonded",
      "type": "event"
    },
    {
      "anonymous": false,
      "inputs": [
        {
          "indexed": true,
          "name": "account",
          "type": "address"
        },
        {
          "indexed": false,
          "name": "value",
          "type": "uint256"
        }
      ],
      "name": "Withdrawal",
      "type": "event"
    },
    {
      "anonymous": false,
      "inputs": [
        {
          "indexed": true,
          "name": "account",
          "type": "address"
        },
        {
          "indexed": false,
          "name": "value",
          "type": "uint256"
        },
        {
          "indexed": false,
          "name": "noticePeriod",
          "type": "uint256"
        },
        {
          "indexed": false,
          "name": "increase",
          "type": "uint256"
        }
      ],
      "name": "NoticePeriodIncreased",
      "type": "event"
    },
    {
      "anonymous": false,
      "inputs": [
        {
          "indexed": true,
          "name": "registryAddress",
          "type": "address"
        }
      ],
      "name": "RegistrySet",
      "type": "event"
    },
    {
      "anonymous": false,
      "inputs": [
        {
          "indexed": true,
          "name": "previousOwner",
          "type": "address"
        },
        {
          "indexed": true,
          "name": "newOwner",
          "type": "address"
        }
      ],
      "name": "OwnershipTransferred",
      "type": "event"
    },
    {
      "constant": false,
      "inputs": [
        {
          "name": "registryAddress",
          "type": "address"
        },
        {
          "name": "_maxNoticePeriod",
          "type": "uint256"
        }
      ],
      "name": "initialize",
      "outputs": [],
      "payable": false,
      "stateMutability": "nonpayable",
      "type": "function"
    },
    {
      "constant": false,
      "inputs": [
        {
          "name": "blockReward",
          "type": "uint256"
        }
      ],
      "name": "setCumulativeRewardWeight",
      "outputs": [],
      "payable": false,
      "stateMutability": "nonpayable",
      "type": "function"
    },
    {
      "constant": false,
      "inputs": [
        {
          "name": "_maxNoticePeriod",
          "type": "uint256"
        }
      ],
      "name": "setMaxNoticePeriod",
      "outputs": [],
      "payable": false,
      "stateMutability": "nonpayable",
      "type": "function"
    },
    {
      "constant": false,
      "inputs": [],
      "name": "createAccount",
      "outputs": [
        {
          "name": "",
          "type": "bool"
        }
      ],
      "payable": false,
      "stateMutability": "nonpayable",
      "type": "function"
    },
    {
      "constant": false,
      "inputs": [],
      "name": "redeemRewards",
      "outputs": [
        {
          "name": "",
          "type": "uint256"
        }
      ],
      "payable": false,
      "stateMutability": "nonpayable",
      "type": "function"
    },
    {
      "constant": false,
      "inputs": [],
      "name": "freezeVoting",
      "outputs": [],
      "payable": false,
      "stateMutability": "nonpayable",
      "type": "function"
    },
    {
      "constant": false,
      "inputs": [],
      "name": "unfreezeVoting",
      "outputs": [],
      "payable": false,
      "stateMutability": "nonpayable",
      "type": "function"
    },
    {
      "constant": false,
      "inputs": [
        {
          "name": "role",
          "type": "uint8"
        },
        {
          "name": "delegate",
          "type": "address"
        },
        {
          "name": "v",
          "type": "uint8"
        },
        {
          "name": "r",
          "type": "bytes32"
        },
        {
          "name": "s",
          "type": "bytes32"
        }
      ],
      "name": "delegateRole",
      "outputs": [],
      "payable": false,
      "stateMutability": "nonpayable",
      "type": "function"
    },
    {
      "constant": false,
      "inputs": [
        {
          "name": "noticePeriod",
          "type": "uint256"
        }
      ],
      "name": "deposit",
      "outputs": [
        {
          "name": "",
          "type": "uint256"
        }
      ],
      "payable": true,
      "stateMutability": "payable",
      "type": "function"
    },
    {
      "constant": false,
      "inputs": [
        {
          "name": "value",
          "type": "uint256"
        },
        {
          "name": "noticePeriod",
          "type": "uint256"
        }
      ],
      "name": "notify",
      "outputs": [
        {
          "name": "",
          "type": "uint256"
        }
      ],
      "payable": false,
      "stateMutability": "nonpayable",
      "type": "function"
    },
    {
      "constant": false,
      "inputs": [
        {
          "name": "value",
          "type": "uint256"
        },
        {
          "name": "availabilityTime",
          "type": "uint256"
        }
      ],
      "name": "rebond",
      "outputs": [
        {
          "name": "",
          "type": "uint256"
        }
      ],
      "payable": false,
      "stateMutability": "nonpayable",
      "type": "function"
    },
    {
      "constant": false,
      "inputs": [
        {
          "name": "availabilityTime",
          "type": "uint256"
        }
      ],
      "name": "withdraw",
      "outputs": [
        {
          "name": "",
          "type": "uint256"
        }
      ],
      "payable": false,
      "stateMutability": "nonpayable",
      "type": "function"
    },
    {
      "constant": false,
      "inputs": [
        {
          "name": "value",
          "type": "uint256"
        },
        {
          "name": "noticePeriod",
          "type": "uint256"
        },
        {
          "name": "increase",
          "type": "uint256"
        }
      ],
      "name": "increaseNoticePeriod",
      "outputs": [
        {
          "name": "",
          "type": "uint256"
        }
      ],
      "payable": false,
      "stateMutability": "nonpayable",
      "type": "function"
    },
    {
      "constant": true,
      "inputs": [
        {
          "name": "account",
          "type": "address"
        }
      ],
      "name": "isVotingFrozen",
      "outputs": [
        {
          "name": "",
          "type": "bool"
        }
      ],
      "payable": false,
      "stateMutability": "view",
      "type": "function"
    },
    {
      "constant": true,
      "inputs": [
        {
          "name": "_account",
          "type": "address"
        }
      ],
      "name": "getRewardsLastRedeemed",
      "outputs": [
        {
          "name": "",
          "type": "uint96"
        }
      ],
      "payable": false,
      "stateMutability": "view",
      "type": "function"
    },
    {
      "constant": true,
      "inputs": [
        {
          "name": "validator",
          "type": "address"
        }
      ],
      "name": "isValidating",
      "outputs": [
        {
          "name": "",
          "type": "bool"
        }
      ],
      "payable": false,
      "stateMutability": "view",
      "type": "function"
    },
    {
      "constant": true,
      "inputs": [
        {
          "name": "_account",
          "type": "address"
        }
      ],
      "name": "getNoticePeriods",
      "outputs": [
        {
          "name": "",
          "type": "uint256[]"
        }
      ],
      "payable": false,
      "stateMutability": "view",
      "type": "function"
    },
    {
      "constant": true,
      "inputs": [
        {
          "name": "_account",
          "type": "address"
        }
      ],
      "name": "getAvailabilityTimes",
      "outputs": [
        {
          "name": "",
          "type": "uint256[]"
        }
      ],
      "payable": false,
      "stateMutability": "view",
      "type": "function"
    },
    {
      "constant": true,
      "inputs": [
        {
          "name": "_account",
          "type": "address"
        },
        {
          "name": "noticePeriod",
          "type": "uint256"
        }
      ],
      "name": "getBondedDeposit",
      "outputs": [
        {
          "name": "",
          "type": "uint256"
        },
        {
          "name": "",
          "type": "uint256"
        }
      ],
      "payable": false,
      "stateMutability": "view",
      "type": "function"
    },
    {
      "constant": true,
      "inputs": [
        {
          "name": "_account",
          "type": "address"
        },
        {
          "name": "availabilityTime",
          "type": "uint256"
        }
      ],
      "name": "getNotifiedDeposit",
      "outputs": [
        {
          "name": "",
          "type": "uint256"
        },
        {
          "name": "",
          "type": "uint256"
        }
      ],
      "payable": false,
      "stateMutability": "view",
      "type": "function"
    },
    {
      "constant": true,
      "inputs": [
        {
          "name": "accountOrDelegate",
          "type": "address"
        },
        {
          "name": "role",
          "type": "uint8"
        }
      ],
      "name": "getAccountFromDelegateAndRole",
      "outputs": [
        {
          "name": "",
          "type": "address"
        }
      ],
      "payable": false,
      "stateMutability": "view",
      "type": "function"
    },
    {
      "constant": true,
      "inputs": [
        {
          "name": "_account",
          "type": "address"
        }
      ],
      "name": "getAccountWeight",
      "outputs": [
        {
          "name": "",
          "type": "uint256"
        }
      ],
      "payable": false,
      "stateMutability": "view",
      "type": "function"
    },
    {
      "constant": true,
      "inputs": [
        {
          "name": "account",
          "type": "address"
        }
      ],
      "name": "isVoting",
      "outputs": [
        {
          "name": "",
          "type": "bool"
        }
      ],
      "payable": false,
      "stateMutability": "view",
      "type": "function"
    },
    {
      "constant": true,
      "inputs": [
        {
          "name": "value",
          "type": "uint256"
        },
        {
          "name": "noticePeriod",
          "type": "uint256"
        }
      ],
      "name": "getDepositWeight",
      "outputs": [
        {
          "name": "",
          "type": "uint256"
        }
      ],
      "payable": false,
      "stateMutability": "pure",
      "type": "function"
    },
    {
      "constant": true,
      "inputs": [
        {
          "name": "account",
          "type": "address"
        },
        {
          "name": "role",
          "type": "uint8"
        }
      ],
      "name": "getDelegateFromAccountAndRole",
      "outputs": [
        {
          "name": "",
          "type": "address"
        }
      ],
      "payable": false,
      "stateMutability": "view",
      "type": "function"
    }
  ],
  "bytecode": "0x60806040526001600081905550336001806101000a81548173ffffffffffffffffffffffffffffffffffffffff021916908373ffffffffffffffffffffffffffffffffffffffff1602179055506001809054906101000a900473ffffffffffffffffffffffffffffffffffffffff1673ffffffffffffffffffffffffffffffffffffffff16600073ffffffffffffffffffffffffffffffffffffffff167f8be0079c531659141344cd1fd0a4f28419497f9722a3daafe3b4186f6b6457e060405160405180910390a3614995806100d76000396000f3fe60806040526004361061020f5760003560e01c80638213639a11610118578063bffe3486116100a0578063eea148db1161006f578063eea148db14610c24578063f0fc4ec114610cc2578063f1c4ee8a14610ced578063f2fde38b14610d93578063f32fdbff14610de45761020f565b8063bffe348614610aa4578063c50b9c6c14610b35578063cc83088514610b60578063cd6dc68714610bc95761020f565b80639c97ea7f116100e75780639c97ea7f146109165780639dca362f1461097f578063a258cff7146109ae578063a91ee0dc14610a11578063b6b55f2514610a625761020f565b80638213639a1461082a5780638da5cb5b146108655780638f32d59b146108bc57806396c82e57146108eb5761020f565b80634ff08bac1161019b578063657a8bba1161016a578063657a8bba146106a65780636f434fb6146106ff5780636f4b1e8e146107a5578063715018a6146107bc5780637b103999146107d35761020f565b80634ff08bac146105925780635ac0e1d2146105cd5780635b9b45d7146106265780635f8dd6491461063d5761020f565b806323fd1174116101e257806323fd1174146103855780632e1a7d4d146103de57806333b159ac1461042d5780633ea01b34146104ae5780634391bf45146105135761020f565b8063104709711461021457806313e563131461028a578063158ef93e146103005780631ef1d9911461032f575b600080fd5b34801561022057600080fd5b5061026d6004803603604081101561023757600080fd5b81019080803573ffffffffffffffffffffffffffffffffffffffff16906020019092919080359060200190929190505050610e82565b604051808381526020018281526020019250505060405180910390f35b34801561029657600080fd5b506102e3600480360360408110156102ad57600080fd5b81019080803573ffffffffffffffffffffffffffffffffffffffff16906020019092919080359060200190929190505050610f5d565b604051808381526020018281526020019250505060405180910390f35b34801561030c57600080fd5b50610315611038565b604051808215151515815260200191505060405180910390f35b34801561033b57600080fd5b506103686004803603602081101561035257600080fd5b810190808035906020019092919050505061104b565b604051808381526020018281526020019250505060405180910390f35b34801561039157600080fd5b506103c8600480360360408110156103a857600080fd5b81019080803590602001909291908035906020019092919050505061106f565b6040518082815260200191505060405180910390f35b3480156103ea57600080fd5b506104176004803603602081101561040157600080fd5b81019080803590602001909291905050506112b5565b6040518082815260200191505060405180910390f35b34801561043957600080fd5b5061047c6004803603602081101561045057600080fd5b81019080803573ffffffffffffffffffffffffffffffffffffffff16906020019092919050505061163b565b60405180826bffffffffffffffffffffffff166bffffffffffffffffffffffff16815260200191505060405180910390f35b3480156104ba57600080fd5b506104fd600480360360208110156104d157600080fd5b81019080803573ffffffffffffffffffffffffffffffffffffffff1690602001909291905050506116a4565b6040518082815260200191505060405180910390f35b34801561051f57600080fd5b50610590600480360360a081101561053657600080fd5b81019080803560ff169060200190929190803573ffffffffffffffffffffffffffffffffffffffff169060200190929190803560ff16906020019092919080359060200190929190803590602001909291905050506116f5565b005b34801561059e57600080fd5b506105cb600480360360208110156105b557600080fd5b8101908080359060200190929190505050611b64565b005b3480156105d957600080fd5b50610610600480360360408110156105f057600080fd5b810190808035906020019092919080359060200190929190505050611bb8565b6040518082815260200191505060405180910390f35b34801561063257600080fd5b5061063b611c4e565b005b34801561064957600080fd5b5061068c6004803603602081101561066057600080fd5b81019080803573ffffffffffffffffffffffffffffffffffffffff169060200190929190505050611d27565b604051808215151515815260200191505060405180910390f35b3480156106b257600080fd5b506106e9600480360360408110156106c957600080fd5b810190808035906020019092919080359060200190929190505050612150565b6040518082815260200191505060405180910390f35b34801561070b57600080fd5b5061074e6004803603602081101561072257600080fd5b81019080803573ffffffffffffffffffffffffffffffffffffffff169060200190929190505050612391565b6040518080602001828103825283818151815260200191508051906020019060200280838360005b83811015610791578082015181840152602081019050610776565b505050509050019250505060405180910390f35b3480156107b157600080fd5b506107ba612434565b005b3480156107c857600080fd5b506107d161250e565b005b3480156107df57600080fd5b506107e86125de565b604051808273ffffffffffffffffffffffffffffffffffffffff1673ffffffffffffffffffffffffffffffffffffffff16815260200191505060405180910390f35b34801561083657600080fd5b506108636004803603602081101561084d57600080fd5b8101908080359060200190929190505050612604565b005b34801561087157600080fd5b5061087a612607565b604051808273ffffffffffffffffffffffffffffffffffffffff1673ffffffffffffffffffffffffffffffffffffffff16815260200191505060405180910390f35b3480156108c857600080fd5b506108d1612630565b604051808215151515815260200191505060405180910390f35b3480156108f757600080fd5b50610900612687565b6040518082815260200191505060405180910390f35b34801561092257600080fd5b506109656004803603602081101561093957600080fd5b81019080803573ffffffffffffffffffffffffffffffffffffffff16906020019092919050505061268d565b604051808215151515815260200191505060405180910390f35b34801561098b57600080fd5b5061099461289a565b604051808215151515815260200191505060405180910390f35b3480156109ba57600080fd5b506109fb600480360360608110156109d157600080fd5b8101908080359060200190929190803590602001909291908035906020019092919050505061295a565b6040518082815260200191505060405180910390f35b348015610a1d57600080fd5b50610a6060048036036020811015610a3457600080fd5b81019080803573ffffffffffffffffffffffffffffffffffffffff169060200190929190505050612b9d565b005b610a8e60048036036020811015610a7857600080fd5b8101908080359060200190929190505050612c35565b6040518082815260200191505060405180910390f35b348015610ab057600080fd5b50610af360048036036020811015610ac757600080fd5b81019080803573ffffffffffffffffffffffffffffffffffffffff169060200190929190505050612dad565b604051808273ffffffffffffffffffffffffffffffffffffffff1673ffffffffffffffffffffffffffffffffffffffff16815260200191505060405180910390f35b348015610b4157600080fd5b50610b4a612de0565b6040518082815260200191505060405180910390f35b348015610b6c57600080fd5b50610baf60048036036020811015610b8357600080fd5b81019080803573ffffffffffffffffffffffffffffffffffffffff169060200190929190505050612de6565b604051808215151515815260200191505060405180910390f35b348015610bd557600080fd5b50610c2260048036036040811015610bec57600080fd5b81019080803573ffffffffffffffffffffffffffffffffffffffff16906020019092919080359060200190929190505050612e3f565b005b348015610c3057600080fd5b50610c8060048036036040811015610c4757600080fd5b81019080803573ffffffffffffffffffffffffffffffffffffffff169060200190929190803560ff169060200190929190505050612e90565b604051808273ffffffffffffffffffffffffffffffffffffffff1673ffffffffffffffffffffffffffffffffffffffff16815260200191505060405180910390f35b348015610cce57600080fd5b50610cd7612f58565b6040518082815260200191505060405180910390f35b348015610cf957600080fd5b50610d3c60048036036020811015610d1057600080fd5b81019080803573ffffffffffffffffffffffffffffffffffffffff169060200190929190505050613011565b6040518080602001828103825283818151815260200191508051906020019060200280838360005b83811015610d7f578082015181840152602081019050610d64565b505050509050019250505060405180910390f35b348015610d9f57600080fd5b50610de260048036036020811015610db657600080fd5b81019080803573ffffffffffffffffffffffffffffffffffffffff1690602001909291905050506130b4565b005b348015610df057600080fd5b50610e4060048036036040811015610e0757600080fd5b81019080803573ffffffffffffffffffffffffffffffffffffffff169060200190929190803560ff1690602001909291905050506130d1565b604051808273ffffffffffffffffffffffffffffffffffffffff1673ffffffffffffffffffffffffffffffffffffffff16815260200191505060405180910390f35b6000806000600560008673ffffffffffffffffffffffffffffffffffffffff1673ffffffffffffffffffffffffffffffffffffffff1681526020019081526020016000209050600081600601600101600086815260200190815260200160002090508060000160009054906101000a90046fffffffffffffffffffffffffffffffff168160000160109054906101000a90046fffffffffffffffffffffffffffffffff16816fffffffffffffffffffffffffffffffff169150806fffffffffffffffffffffffffffffffff1690509350935050509250929050565b6000806000600560008673ffffffffffffffffffffffffffffffffffffffff1673ffffffffffffffffffffffffffffffffffffffff1681526020019081526020016000209050600081600601600001600086815260200190815260200160002090508060000160009054906101000a90046fffffffffffffffffffffffffffffffff168160000160109054906101000a90046fffffffffffffffffffffffffffffffff16816fffffffffffffffffffffffffffffffff169150806fffffffffffffffffffffffffffffffff1690509350935050509250929050565b600160009054906101000a900460ff1681565b60076020528060005260406000206000915090508060000154908060010154905082565b6000600160008082825401925050819055506000805490506110903361322f565b80156110a157506110a033613288565b5b80156110b357506110b133611d27565b155b6110bc57600080fd5b6000600560003373ffffffffffffffffffffffffffffffffffffffff1673ffffffffffffffffffffffffffffffffffffffff168152602001908152602001600020905060008160060160000160008681526020019081526020016000209050858160000160009054906101000a90046fffffffffffffffffffffffffffffffff166fffffffffffffffffffffffffffffffff161015801561115d5750600086115b61116657600080fd5b6111b5826111af888460000160009054906101000a90046fffffffffffffffffffffffffffffffff166fffffffffffffffffffffffffffffffff166134a690919063ffffffff16565b876134c6565b60006111ca864261382d90919063ffffffff16565b905060008360060160010160008381526020019081526020016000209050611237846112318a8460000160009054906101000a90046fffffffffffffffffffffffffffffffff166fffffffffffffffffffffffffffffffff1661382d90919063ffffffff16565b8461384c565b3373ffffffffffffffffffffffffffffffffffffffff167fc01ecb89abbf2497d614583a60592242656d6a9712833c4af0cac60368fba11189898560405180848152602001838152602001828152602001935050505060405180910390a2836001015495505050505060005481146112ae57600080fd5b5092915050565b6000600160008082825401925050819055506000805490506112d63361322f565b80156112e857506112e633611d27565b155b6112f157600080fd5b824210156112fe57600080fd5b61130733613c78565b506000600560003373ffffffffffffffffffffffffffffffffffffffff1673ffffffffffffffffffffffffffffffffffffffff16815260200190815260200160002090506000816006016001016000868152602001908152602001600020905060008160000160009054906101000a90046fffffffffffffffffffffffffffffffff166fffffffffffffffffffffffffffffffff169050600081116113ab57600080fd5b6113b78360008861384c565b6000600260009054906101000a900473ffffffffffffffffffffffffffffffffffffffff1673ffffffffffffffffffffffffffffffffffffffff16630b5855e16040518060400160405280600981526020017f476f6c64546f6b656e00000000000000000000000000000000000000000000008152506040518263ffffffff1660e01b81526004018080602001828103825283818151815260200191508051906020019080838360005b8381101561147c578082015181840152602081019050611461565b50505050905090810190601f1680156114a95780820380516001836020036101000a031916815260200191505b509250505060206040518083038186803b1580156114c657600080fd5b505afa1580156114da573d6000803e3d6000fd5b505050506040513d60208110156114f057600080fd5b810190808051906020019092919050505090508073ffffffffffffffffffffffffffffffffffffffff1663a9059cbb33846040518363ffffffff1660e01b8152600401808373ffffffffffffffffffffffffffffffffffffffff1673ffffffffffffffffffffffffffffffffffffffff16815260200182815260200192505050602060405180830381600087803b15801561158a57600080fd5b505af115801561159e573d6000803e3d6000fd5b505050506040513d60208110156115b457600080fd5b81019080805190602001909291905050506115ce57600080fd5b3373ffffffffffffffffffffffffffffffffffffffff167f7fcf532c15f0a6db0bd6d0e038bea71d30d808c7d98cb3bf7268a95bf5081b65836040518082815260200191505060405180910390a28360010154955050505050600054811461163557600080fd5b50919050565b600080600560008473ffffffffffffffffffffffffffffffffffffffff1673ffffffffffffffffffffffffffffffffffffffff16815260200190815260200160002090508060050160019054906101000a90046bffffffffffffffffffffffff16915050919050565b600080600560008473ffffffffffffffffffffffffffffffffffffffff1673ffffffffffffffffffffffffffffffffffffffff16815260200190815260200160002090508060010154915050919050565b600160008082825401925050819055506000805490506117143361322f565b801561172557506117248561414a565b5b80156117365750611735856141a4565b5b61173f57600080fd5b600073__Signatures____________________________6396ef41a1338787876040518563ffffffff1660e01b8152600401808573ffffffffffffffffffffffffffffffffffffffff1673ffffffffffffffffffffffffffffffffffffffff1681526020018460ff1660ff16815260200183815260200182815260200194505050505060206040518083038186803b1580156117da57600080fd5b505af41580156117ee573d6000803e3d6000fd5b505050506040513d602081101561180457600080fd5b810190808051906020019092919050505090508573ffffffffffffffffffffffffffffffffffffffff168173ffffffffffffffffffffffffffffffffffffffff161461184f57600080fd5b6000600281111561185c57fe5b87600281111561186857fe5b14156118855761187733613288565b61188057600080fd5b6118e7565b6001600281111561189257fe5b87600281111561189e57fe5b14156118bc576118ad33611d27565b156118b757600080fd5b6118e6565b6002808111156118c857fe5b8760028111156118d457fe5b14156118e5576118e333613c78565b505b5b5b6000600560003373ffffffffffffffffffffffffffffffffffffffff1673ffffffffffffffffffffffffffffffffffffffff1681526020019081526020016000209050600060066000836002018b600281111561194057fe5b6003811061194a57fe5b0160009054906101000a900473ffffffffffffffffffffffffffffffffffffffff1673ffffffffffffffffffffffffffffffffffffffff1673ffffffffffffffffffffffffffffffffffffffff16815260200190815260200160002060006101000a81548173ffffffffffffffffffffffffffffffffffffffff021916908373ffffffffffffffffffffffffffffffffffffffff16021790555086816002018960028111156119f557fe5b600381106119ff57fe5b0160006101000a81548173ffffffffffffffffffffffffffffffffffffffff021916908373ffffffffffffffffffffffffffffffffffffffff16021790555033600660008973ffffffffffffffffffffffffffffffffffffffff1673ffffffffffffffffffffffffffffffffffffffff16815260200190815260200160002060006101000a81548173ffffffffffffffffffffffffffffffffffffffff021916908373ffffffffffffffffffffffffffffffffffffffff1602179055503373ffffffffffffffffffffffffffffffffffffffff167fa473cb0f4e448fc1bc56b648fbc653c8d9629019dd7a2138411ff29a96f93df2898960405180836002811115611b0657fe5b60ff1681526020018273ffffffffffffffffffffffffffffffffffffffff1673ffffffffffffffffffffffffffffffffffffffff1681526020019250505060405180910390a250506000548114611b5c57600080fd5b505050505050565b611b6c612630565b611b7557600080fd5b806003819055507f8012f205054a5af624c507510908408c47061ad5c4cefb1a7f8f6ac734dff28a6003546040518082815260200191505060405180910390a150565b60008061271090506000611bd8620151808561423b90919063ffffffff16565b90506000611c1c83611c0e601e611c0087611bf288614261565b61433390919063ffffffff16565b61423b90919063ffffffff16565b61382d90919063ffffffff16565b9050611c4383611c35888461436a90919063ffffffff16565b61423b90919063ffffffff16565b935050505092915050565b611c573361322f565b611c6057600080fd5b6000600560003373ffffffffffffffffffffffffffffffffffffffff1673ffffffffffffffffffffffffffffffffffffffff1681526020019081526020016000209050600115158160050160009054906101000a900460ff16151514611cc557600080fd5b60008160050160006101000a81548160ff0219169083151502179055503373ffffffffffffffffffffffffffffffffffffffff167ec97c83e8c62fb35f95b624d5fc10a08e5eae40822fc639a7afffea547cf5e760405160405180910390a250565b600080611d35836001612e90565b90506000600260009054906101000a900473ffffffffffffffffffffffffffffffffffffffff1673ffffffffffffffffffffffffffffffffffffffff16630b5855e16040518060400160405280600a81526020017f476f7665726e616e6365000000000000000000000000000000000000000000008152506040518263ffffffff1660e01b81526004018080602001828103825283818151815260200191508051906020019080838360005b83811015611dfc578082015181840152602081019050611de1565b50505050905090810190601f168015611e295780820380516001836020036101000a031916815260200191505b509250505060206040518083038186803b158015611e4657600080fd5b505afa158015611e5a573d6000803e3d6000fd5b505050506040513d6020811015611e7057600080fd5b810190808051906020019092919050505090506000600260009054906101000a900473ffffffffffffffffffffffffffffffffffffffff1673ffffffffffffffffffffffffffffffffffffffff16630b5855e16040518060400160405280600a81526020017f56616c696461746f7273000000000000000000000000000000000000000000008152506040518263ffffffff1660e01b81526004018080602001828103825283818151815260200191508051906020019080838360005b83811015611f48578082015181840152602081019050611f2d565b50505050905090810190601f168015611f755780820380516001836020036101000a031916815260200191505b509250505060206040518083038186803b158015611f9257600080fd5b505afa158015611fa6573d6000803e3d6000fd5b505050506040513d6020811015611fbc57600080fd5b810190808051906020019092919050505090508173ffffffffffffffffffffffffffffffffffffffff16635f8dd649846040518263ffffffff1660e01b8152600401808273ffffffffffffffffffffffffffffffffffffffff1673ffffffffffffffffffffffffffffffffffffffff16815260200191505060206040518083038186803b15801561204c57600080fd5b505afa158015612060573d6000803e3d6000fd5b505050506040513d602081101561207657600080fd5b81019080805190602001909291905050508061214657508073ffffffffffffffffffffffffffffffffffffffff16635f8dd649846040518263ffffffff1660e01b8152600401808273ffffffffffffffffffffffffffffffffffffffff1673ffffffffffffffffffffffffffffffffffffffff16815260200191505060206040518083038186803b15801561210a57600080fd5b505afa15801561211e573d6000803e3d6000fd5b505050506040513d602081101561213457600080fd5b81019080805190602001909291905050505b9350505050919050565b6000600160008082825401925050819055506000805490506121713361322f565b8015612183575061218133611d27565b155b61218c57600080fd5b42831161219857600080fd5b6000600560003373ffffffffffffffffffffffffffffffffffffffff1673ffffffffffffffffffffffffffffffffffffffff168152602001908152602001600020905060008160060160010160008681526020019081526020016000209050858160000160009054906101000a90046fffffffffffffffffffffffffffffffff166fffffffffffffffffffffffffffffffff16101580156122395750600086115b61224257600080fd5b6122918261228b888460000160009054906101000a90046fffffffffffffffffffffffffffffffff166fffffffffffffffffffffffffffffffff166134a690919063ffffffff16565b8761384c565b60006122a642876134a690919063ffffffff16565b9050600083600601600001600083815260200190815260200160002090506123138461230d8a8460000160009054906101000a90046fffffffffffffffffffffffffffffffff166fffffffffffffffffffffffffffffffff1661382d90919063ffffffff16565b846134c6565b3373ffffffffffffffffffffffffffffffffffffffff167f23eaf77d2e8cdffa4f4c7205c5d7e52f64c8fbc2e773bb51aa5931bc1458324d89848a60405180848152602001838152602001828152602001935050505060405180910390a28360010154955050505050600054811461238a57600080fd5b5092915050565b60606000600560008473ffffffffffffffffffffffffffffffffffffffff1673ffffffffffffffffffffffffffffffffffffffff16815260200190815260200160002090508060060160030180548060200260200160405190810160405280929190818152602001828054801561242757602002820191906000526020600020905b815481526020019060010190808311612413575b5050505050915050919050565b61243d3361322f565b61244657600080fd5b6000600560003373ffffffffffffffffffffffffffffffffffffffff1673ffffffffffffffffffffffffffffffffffffffff1681526020019081526020016000209050600015158160050160009054906101000a900460ff161515146124ab57600080fd5b60018160050160006101000a81548160ff0219169083151502179055503373ffffffffffffffffffffffffffffffffffffffff167f54be207d566cdc30594dc5f0e8ab6f617dc06cdd2c6664de44287ef73f0b732760405160405180910390a250565b612516612630565b61251f57600080fd5b600073ffffffffffffffffffffffffffffffffffffffff166001809054906101000a900473ffffffffffffffffffffffffffffffffffffffff1673ffffffffffffffffffffffffffffffffffffffff167f8be0079c531659141344cd1fd0a4f28419497f9722a3daafe3b4186f6b6457e060405160405180910390a360006001806101000a81548173ffffffffffffffffffffffffffffffffffffffff021916908373ffffffffffffffffffffffffffffffffffffffff160217905550565b600260009054906101000a900473ffffffffffffffffffffffffffffffffffffffff1681565b50565b60006001809054906101000a900473ffffffffffffffffffffffffffffffffffffffff16905090565b60006001809054906101000a900473ffffffffffffffffffffffffffffffffffffffff1673ffffffffffffffffffffffffffffffffffffffff163373ffffffffffffffffffffffffffffffffffffffff1614905090565b60045481565b600080600260009054906101000a900473ffffffffffffffffffffffffffffffffffffffff1673ffffffffffffffffffffffffffffffffffffffff16630b5855e16040518060400160405280600a81526020017f56616c696461746f7273000000000000000000000000000000000000000000008152506040518263ffffffff1660e01b81526004018080602001828103825283818151815260200191508051906020019080838360005b83811015612753578082015181840152602081019050612738565b50505050905090810190601f1680156127805780820380516001836020036101000a031916815260200191505b509250505060206040518083038186803b15801561279d57600080fd5b505afa1580156127b1573d6000803e3d6000fd5b505050506040513d60208110156127c757600080fd5b810190808051906020019092919050505090508073ffffffffffffffffffffffffffffffffffffffff16639c97ea7f846040518263ffffffff1660e01b8152600401808273ffffffffffffffffffffffffffffffffffffffff1673ffffffffffffffffffffffffffffffffffffffff16815260200191505060206040518083038186803b15801561285757600080fd5b505afa15801561286b573d6000803e3d6000fd5b505050506040513d602081101561288157600080fd5b8101908080519060200190929190505050915050919050565b60006128a53361414a565b80156128b657506128b5336141a4565b5b6128bf57600080fd5b6000600560003373ffffffffffffffffffffffffffffffffffffffff1673ffffffffffffffffffffffffffffffffffffffff168152602001908152602001600020905060018160000160006101000a81548160ff021916908315150217905550438160050160016101000a8154816bffffffffffffffffffffffff02191690836bffffffffffffffffffffffff160217905550600191505090565b60006001600080828254019250508190555060008054905061297b3361322f565b801561298d575061298b33611d27565b155b61299657600080fd5b6000851180156129a65750600083115b6129af57600080fd5b6000600560003373ffffffffffffffffffffffffffffffffffffffff1673ffffffffffffffffffffffffffffffffffffffff168152602001908152602001600020905060008160060160000160008781526020019081526020016000209050868160000160009054906101000a90046fffffffffffffffffffffffffffffffff166fffffffffffffffffffffffffffffffff161015612a4d57600080fd5b612a9c82612a96898460000160009054906101000a90046fffffffffffffffffffffffffffffffff166fffffffffffffffffffffffffffffffff166134a690919063ffffffff16565b886134c6565b6000612ab1868861382d90919063ffffffff16565b9050600083600601600001600083815260200190815260200160002060000160009054906101000a90046fffffffffffffffffffffffffffffffff166fffffffffffffffffffffffffffffffff169050612b1e84612b188b8461382d90919063ffffffff16565b846134c6565b3373ffffffffffffffffffffffffffffffffffffffff167f1c6b95ab1be02f5ba22eb9ca2b30a343f0d2fb43be89402070f9df1242ee5d1d8a8a8a60405180848152602001838152602001828152602001935050505060405180910390a283600101549550505050506000548114612b9557600080fd5b509392505050565b612ba5612630565b612bae57600080fd5b80600260006101000a81548173ffffffffffffffffffffffffffffffffffffffff021916908373ffffffffffffffffffffffffffffffffffffffff1602179055508073ffffffffffffffffffffffffffffffffffffffff167f27fe5f0c1c3b1ed427cc63d0f05759ffdecf9aec9e18d31ef366fc8a6cb5dc3b60405160405180910390a250565b600060016000808282540192505081905550600080549050612c563361322f565b8015612c685750612c6633611d27565b155b612c7157600080fd5b600034118015612c8357506003548311155b612c8c57600080fd5b6000600560003373ffffffffffffffffffffffffffffffffffffffff1673ffffffffffffffffffffffffffffffffffffffff168152602001908152602001600020905060008160060160000160008681526020019081526020016000209050612d3a82612d34348460000160009054906101000a90046fffffffffffffffffffffffffffffffff166fffffffffffffffffffffffffffffffff1661382d90919063ffffffff16565b876134c6565b3373ffffffffffffffffffffffffffffffffffffffff167fbb978b4f9f9b50600f24f1453a3e1f92140bb1e0487721d56917ada3b3ceba063487604051808381526020018281526020019250505060405180910390a28160010154935050506000548114612da757600080fd5b50919050565b60066020528060005260406000206000915054906101000a900473ffffffffffffffffffffffffffffffffffffffff1681565b60035481565b6000600560008373ffffffffffffffffffffffffffffffffffffffff1673ffffffffffffffffffffffffffffffffffffffff16815260200190815260200160002060050160009054906101000a900460ff169050919050565b600160009054906101000a900460ff1615612e5957600080fd5b60018060006101000a81548160ff021916908315150217905550612e7c336143a4565b612e8582612b9d565b806003819055505050565b600080600560008573ffffffffffffffffffffffffffffffffffffffff1673ffffffffffffffffffffffffffffffffffffffff168152602001908152602001600020600201836002811115612ee157fe5b60038110612eeb57fe5b0160009054906101000a900473ffffffffffffffffffffffffffffffffffffffff169050600073ffffffffffffffffffffffffffffffffffffffff168173ffffffffffffffffffffffffffffffffffffffff161415612f4d5783915050612f52565b809150505b92915050565b6000600160008082825401925050819055506000805490506000612fe4576040517f08c379a00000000000000000000000000000000000000000000000000000000081526004018080602001828103825260088152602001807f44697361626c656400000000000000000000000000000000000000000000000081525060200191505060405180910390fd5b6000612ff13360026130d1565b9050612ffc81613c78565b925050600054811461300d57600080fd5b5090565b60606000600560008473ffffffffffffffffffffffffffffffffffffffff1673ffffffffffffffffffffffffffffffffffffffff1681526020019081526020016000209050806006016002018054806020026020016040519081016040528092919081815260200182805480156130a757602002820191906000526020600020905b815481526020019060010190808311613093575b5050505050915050919050565b6130bc612630565b6130c557600080fd5b6130ce816143a4565b50565b600080600660008573ffffffffffffffffffffffffffffffffffffffff1673ffffffffffffffffffffffffffffffffffffffff16815260200190815260200160002060009054906101000a900473ffffffffffffffffffffffffffffffffffffffff169050600073ffffffffffffffffffffffffffffffffffffffff168173ffffffffffffffffffffffffffffffffffffffff1614613224578373ffffffffffffffffffffffffffffffffffffffff16600560008373ffffffffffffffffffffffffffffffffffffffff1673ffffffffffffffffffffffffffffffffffffffff1681526020019081526020016000206002018460028111156131cf57fe5b600381106131d957fe5b0160009054906101000a900473ffffffffffffffffffffffffffffffffffffffff1673ffffffffffffffffffffffffffffffffffffffff161461321b57600080fd5b80915050613229565b839150505b92915050565b6000600560008373ffffffffffffffffffffffffffffffffffffffff1673ffffffffffffffffffffffffffffffffffffffff16815260200190815260200160002060000160009054906101000a900460ff169050919050565b600080613296836000612e90565b90506000600260009054906101000a900473ffffffffffffffffffffffffffffffffffffffff1673ffffffffffffffffffffffffffffffffffffffff16630b5855e16040518060400160405280600a81526020017f56616c696461746f7273000000000000000000000000000000000000000000008152506040518263ffffffff1660e01b81526004018080602001828103825283818151815260200191508051906020019080838360005b8381101561335d578082015181840152602081019050613342565b50505050905090810190601f16801561338a5780820380516001836020036101000a031916815260200191505b509250505060206040518083038186803b1580156133a757600080fd5b505afa1580156133bb573d6000803e3d6000fd5b505050506040513d60208110156133d157600080fd5b810190808051906020019092919050505090508073ffffffffffffffffffffffffffffffffffffffff16639c97ea7f836040518263ffffffff1660e01b8152600401808273ffffffffffffffffffffffffffffffffffffffff1673ffffffffffffffffffffffffffffffffffffffff16815260200191505060206040518083038186803b15801561346157600080fd5b505afa158015613475573d6000803e3d6000fd5b505050506040513d602081101561348b57600080fd5b81019080805190602001909291905050501592505050919050565b6000828211156134b557600080fd5b600082840390508091505092915050565b600083600601600001600083815260200190815260200160002090508060000160009054906101000a90046fffffffffffffffffffffffffffffffff166fffffffffffffffffffffffffffffffff1683141561352157600080fd5b6000808260000160009054906101000a90046fffffffffffffffffffffffffffffffff166fffffffffffffffffffffffffffffffff1614156136595784600601600201805490508260000160106101000a8154816fffffffffffffffffffffffffffffffff02191690836fffffffffffffffffffffffffffffffff160217905550838260000160006101000a8154816fffffffffffffffffffffffffffffffff02191690836fffffffffffffffffffffffffffffffff160217905550846006016002018390806001815401808255809150509060018203906000526020600020016000909192909190915055506136188484611bb8565b905061363181866001015461382d90919063ffffffff16565b856001018190555061364e8160045461382d90919063ffffffff16565b600481905550613826565b60008414156136ee5761369e8260000160009054906101000a90046fffffffffffffffffffffffffffffffff166fffffffffffffffffffffffffffffffff1684611bb8565b90506136b78186600101546134a690919063ffffffff16565b85600101819055506136d4816004546134a690919063ffffffff16565b6004819055506136e98286600601600061449c565b613825565b600061372c8360000160009054906101000a90046fffffffffffffffffffffffffffffffff166fffffffffffffffffffffffffffffffff1685611bb8565b90506137388585611bb8565b915060008183106137975761375682846134a690919063ffffffff16565b905061376f81886001015461382d90919063ffffffff16565b876001018190555061378c8160045461382d90919063ffffffff16565b6004819055506137e7565b6137aa83836134a690919063ffffffff16565b90506137c38188600101546134a690919063ffffffff16565b87600101819055506137e0816004546134a690919063ffffffff16565b6004819055505b858460000160006101000a8154816fffffffffffffffffffffffffffffffff02191690836fffffffffffffffffffffffffffffffff16021790555050505b5b5050505050565b60008082840190508381101561384257600080fd5b8091505092915050565b600083600601600101600083815260200190815260200160002090508060000160009054906101000a90046fffffffffffffffffffffffffffffffff166fffffffffffffffffffffffffffffffff168314156138a757600080fd5b60008160000160009054906101000a90046fffffffffffffffffffffffffffffffff166fffffffffffffffffffffffffffffffff161415613a365783600601600301805490508160000160106101000a8154816fffffffffffffffffffffffffffffffff02191690836fffffffffffffffffffffffffffffffff160217905550828160000160006101000a8154816fffffffffffffffffffffffffffffffff02191690836fffffffffffffffffffffffffffffffff160217905550836006016003018290806001815401808255809150509060018203906000526020600020016000909192909190915055506139dc8160000160009054906101000a90046fffffffffffffffffffffffffffffffff166fffffffffffffffffffffffffffffffff16856001015461382d90919063ffffffff16565b8460010181905550613a2b8160000160009054906101000a90046fffffffffffffffffffffffffffffffff166fffffffffffffffffffffffffffffffff1660045461382d90919063ffffffff16565b600481905550613c72565b6000831415613af157613a888160000160009054906101000a90046fffffffffffffffffffffffffffffffff166fffffffffffffffffffffffffffffffff1685600101546134a690919063ffffffff16565b8460010181905550613ad78160000160009054906101000a90046fffffffffffffffffffffffffffffffff166fffffffffffffffffffffffffffffffff166004546134a690919063ffffffff16565b600481905550613aec8185600601600161449c565b613c71565b60008160000160009054906101000a90046fffffffffffffffffffffffffffffffff166fffffffffffffffffffffffffffffffff168410613bb257613b718260000160009054906101000a90046fffffffffffffffffffffffffffffffff166fffffffffffffffffffffffffffffffff16856134a690919063ffffffff16565b9050613b8a81866001015461382d90919063ffffffff16565b8560010181905550613ba78160045461382d90919063ffffffff16565b600481905550613c34565b613bf7848360000160009054906101000a90046fffffffffffffffffffffffffffffffff166fffffffffffffffffffffffffffffffff166134a690919063ffffffff16565b9050613c108186600101546134a690919063ffffffff16565b8560010181905550613c2d816004546134a690919063ffffffff16565b6004819055505b838260000160006101000a8154816fffffffffffffffffffffffffffffffff02191690836fffffffffffffffffffffffffffffffff160217905550505b5b50505050565b600080600560008473ffffffffffffffffffffffffffffffffffffffff1673ffffffffffffffffffffffffffffffffffffffff16815260200190815260200160002090506000613cd26001436134a690919063ffffffff16565b90506000600760008460050160019054906101000a90046bffffffffffffffffffffffff166bffffffffffffffffffffffff16815260200190815260200160002090506000600760008481526020019081526020016000209050613d54826040518060400160405290816000820154815260200160018201548152505061470a565b1580613d855750613d83816040518060400160405290816000820154815260200160018201548152505061470a565b155b15613d97576000945050505050614145565b613d9f6148fe565b613df08360405180604001604052908160008201548152602001600182015481525050836040518060400160405290816000820154815260200160018201548152505061472990919063ffffffff16565b9050613dfb8161470a565b613e6d576040517f08c379a000000000000000000000000000000000000000000000000000000000815260040180806020018281038252601d8152602001807f526577617264732077656967687420646f6573206e6f7420657869737400000081525060200191505060405180910390fd5b6000613e8686600101548361433390919063ffffffff16565b9050848660050160016101000a8154816bffffffffffffffffffffffff02191690836bffffffffffffffffffffffff160217905550600081111561413b576000613ed1896002612e90565b90506000600260009054906101000a900473ffffffffffffffffffffffffffffffffffffffff1673ffffffffffffffffffffffffffffffffffffffff16630b5855e16040518060400160405280600981526020017f476f6c64546f6b656e00000000000000000000000000000000000000000000008152506040518263ffffffff1660e01b81526004018080602001828103825283818151815260200191508051906020019080838360005b83811015613f98578082015181840152602081019050613f7d565b50505050905090810190601f168015613fc55780820380516001836020036101000a031916815260200191505b509250505060206040518083038186803b158015613fe257600080fd5b505afa158015613ff6573d6000803e3d6000fd5b505050506040513d602081101561400c57600080fd5b810190808051906020019092919050505090508073ffffffffffffffffffffffffffffffffffffffff1663a9059cbb83856040518363ffffffff1660e01b8152600401808373ffffffffffffffffffffffffffffffffffffffff1673ffffffffffffffffffffffffffffffffffffffff16815260200182815260200192505050602060405180830381600087803b1580156140a657600080fd5b505af11580156140ba573d6000803e3d6000fd5b505050506040513d60208110156140d057600080fd5b81019080805190602001909291905050506140ea57600080fd5b8173ffffffffffffffffffffffffffffffffffffffff167f7fcf532c15f0a6db0bd6d0e038bea71d30d808c7d98cb3bf7268a95bf5081b65846040518082815260200191505060405180910390a250505b8096505050505050505b919050565b6000600560008373ffffffffffffffffffffffffffffffffffffffff1673ffffffffffffffffffffffffffffffffffffffff16815260200190815260200160002060000160009054906101000a900460ff16159050919050565b60008073ffffffffffffffffffffffffffffffffffffffff16600660008473ffffffffffffffffffffffffffffffffffffffff1673ffffffffffffffffffffffffffffffffffffffff16815260200190815260200160002060009054906101000a900473ffffffffffffffffffffffffffffffffffffffff1673ffffffffffffffffffffffffffffffffffffffff16149050919050565b600080821161424957600080fd5b600082848161425457fe5b0490508091505092915050565b6142696148fe565b6000606490506000614296614287838461436a90919063ffffffff16565b8561436a90919063ffffffff16565b905060006142c160026142b360018561382d90919063ffffffff16565b61423b90919063ffffffff16565b905060008290505b808210156143135781905061430c60026142fe846142f0868861423b90919063ffffffff16565b61382d90919063ffffffff16565b61423b90919063ffffffff16565b91506142c9565b604051806040016040528082815260200185815250945050505050919050565b6000614362836020015161435484866000015161436a90919063ffffffff16565b61423b90919063ffffffff16565b905092915050565b60008083141561437d576000905061439e565b600082840290508284828161438e57fe5b041461439957600080fd5b809150505b92915050565b600073ffffffffffffffffffffffffffffffffffffffff168173ffffffffffffffffffffffffffffffffffffffff1614156143de57600080fd5b8073ffffffffffffffffffffffffffffffffffffffff166001809054906101000a900473ffffffffffffffffffffffffffffffffffffffff1673ffffffffffffffffffffffffffffffffffffffff167f8be0079c531659141344cd1fd0a4f28419497f9722a3daafe3b4186f6b6457e060405160405180910390a3806001806101000a81548173ffffffffffffffffffffffffffffffffffffffff021916908373ffffffffffffffffffffffffffffffffffffffff16021790555050565b60008060018111156144aa57fe5b8260018111156144b657fe5b14156145a6576144d7600184600201805490506134a690919063ffffffff16565b90508360000160109054906101000a90046fffffffffffffffffffffffffffffffff1683600001600085600201848154811061450f57fe5b9060005260206000200154815260200190815260200160002060000160106101000a8154816fffffffffffffffffffffffffffffffff02191690836fffffffffffffffffffffffffffffffff1602179055506145a1836002018560000160109054906101000a90046fffffffffffffffffffffffffffffffff166fffffffffffffffffffffffffffffffff16836147c9565b61468c565b6145c1600184600301805490506134a690919063ffffffff16565b90508360000160109054906101000a90046fffffffffffffffffffffffffffffffff168360010160008560030184815481106145f957fe5b9060005260206000200154815260200190815260200160002060000160106101000a8154816fffffffffffffffffffffffffffffffff02191690836fffffffffffffffffffffffffffffffff16021790555061468b836003018560000160109054906101000a90046fffffffffffffffffffffffffffffffff166fffffffffffffffffffffffffffffffff16836147c9565b5b60008460000160106101000a8154816fffffffffffffffffffffffffffffffff02191690836fffffffffffffffffffffffffffffffff16021790555060008460000160006101000a8154816fffffffffffffffffffffffffffffffff02191690836fffffffffffffffffffffffffffffffff16021790555050505050565b60008082600001511180614722575060008260200151115b9050919050565b6147316148fe565b61473b8383614829565b61474457600080fd5b6147c160405180604001604052806147996147708760200151876000015161436a90919063ffffffff16565b61478b8760200151896000015161436a90919063ffffffff16565b6134a690919063ffffffff16565b81526020016147b98560200151876020015161436a90919063ffffffff16565b81525061486b565b905092915050565b8281815481106147d557fe5b90600052602060002001548383815481106147ec57fe5b9060005260206000200181905550600083828154811061480857fe5b90600052602060002001819055508083816148239190614918565b50505050565b60006148468360200151836000015161436a90919063ffffffff16565b6148618360200151856000015161436a90919063ffffffff16565b1015905092915050565b6148736148fe565b6000826020015190506000836000015190505b600081146148a857600081838161489957fe5b06905081925080915050614886565b6148b06148fe565b60405180604001604052806148d285886000015161423b90919063ffffffff16565b81526020016148ee85886020015161423b90919063ffffffff16565b8152509050809350505050919050565b604051806040016040528060008152602001600081525090565b81548183558181111561493f5781836000526020600020918201910161493e9190614944565b5b505050565b61496691905b8082111561496257600081600090555060010161494a565b5090565b9056fea165627a7a72305820eba9590eba3f3be385d0002899e08f1dae9f48af743c6bb66f8f9acb4463861e0029",
  "source": "pragma solidity ^0.5.8;\n\nimport \"openzeppelin-solidity/contracts/utils/ReentrancyGuard.sol\";\nimport \"openzeppelin-solidity/contracts/math/SafeMath.sol\";\nimport \"openzeppelin-solidity/contracts/ownership/Ownable.sol\";\n\nimport \"./interfaces/IBondedDeposits.sol\";\nimport \"./interfaces/IGovernance.sol\";\nimport \"./interfaces/IValidators.sol\";\n\nimport \"../common/Initializable.sol\";\nimport \"../common/UsingRegistry.sol\";\nimport \"../common/interfaces/IERC20Token.sol\";\nimport \"../common/Signatures.sol\";\nimport \"../common/FractionUtil.sol\";\n\ncontract BondedDeposits is IBondedDeposits, ReentrancyGuard, Initializable, UsingRegistry {\n\n  using FractionUtil for FractionUtil.Fraction;\n  using SafeMath for uint256;\n\n  // TODO(asa): Remove index for gas efficiency if two updates to the same slot costs extra gas.\n  struct Deposit {\n    uint128 value;\n    uint128 index;\n  }\n\n  struct Deposits {\n    // Maps a notice period in seconds to a bonded deposit.\n    mapping(uint256 => Deposit) bonded;\n    // Maps an availability time in seconds since epoch to a notified deposit.\n    mapping(uint256 => Deposit) notified;\n    uint256[] noticePeriods;\n    uint256[] availabilityTimes;\n  }\n\n  struct Account {\n    bool exists;\n    // The weight of the account in validator elections, governance, and block rewards.\n    uint256 weight;\n    // Each account may delegate their right to receive rewards, vote, and register a Validator or\n    // Validator group to exactly one address each, respectively. This address must not hold an\n    // account and must not be delegated to by any other account or by the same account for any\n    // other purpose.\n    address[3] delegates;\n    // Frozen accounts may not vote, but may redact votes.\n    bool votingFrozen;\n    // The timestamp of the last time that rewards were redeemed.\n    uint96 rewardsLastRedeemed;\n    Deposits deposits;\n  }\n\n  // TODO(asa): Add minNoticePeriod\n  uint256 public maxNoticePeriod;\n  uint256 public totalWeight;\n  mapping(address => Account) private accounts;\n  // Maps voting, rewards, and validating delegates to the account that delegated these rights.\n  mapping(address => address) public delegations;\n  // Maps a block number to the cumulative reward for an account with weight 1 since genesis.\n  mapping(uint256 => FractionUtil.Fraction) public cumulativeRewardWeights;\n\n  event MaxNoticePeriodSet(\n    uint256 maxNoticePeriod\n  );\n\n  event RoleDelegated(\n    DelegateRole role,\n    address indexed account,\n    address delegate\n  );\n\n  event VotingFrozen(\n    address indexed account\n  );\n\n  event VotingUnfrozen(\n    address indexed account\n  );\n\n  event DepositBonded(\n    address indexed account,\n    uint256 value,\n    uint256 noticePeriod\n  );\n\n  event DepositNotified(\n    address indexed account,\n    uint256 value,\n    uint256 noticePeriod,\n    uint256 availabilityTime\n  );\n\n  event DepositRebonded(\n    address indexed account,\n    uint256 value,\n    uint256 noticePeriod,\n    uint256 availabilityTime\n  );\n\n  event Withdrawal(\n    address indexed account,\n    uint256 value\n  );\n\n  event NoticePeriodIncreased(\n    address indexed account,\n    uint256 value,\n    uint256 noticePeriod,\n    uint256 increase\n  );\n\n  function initialize(address registryAddress, uint256 _maxNoticePeriod) external initializer {\n    _transferOwnership(msg.sender);\n    setRegistry(registryAddress);\n    maxNoticePeriod = _maxNoticePeriod;\n  }\n\n  /**\n   * @notice Sets the cumulative block reward for 1 unit of account weight.\n   * @param blockReward The total reward allocated to bonders for this block.\n   * @dev Called by the EVM at the end of the block.\n   */\n  function setCumulativeRewardWeight(uint256 blockReward) external {\n    return;\n    // TODO(asa): Modify ganache to set cumulativeRewardWeights.\n    // TODO(asa): Make inheritable `onlyVm` modifier.\n    // Only callable by the EVM.\n    // require(msg.sender == address(0), \"sender was not vm (reserved addr 0x0)\");\n    // FractionUtil.Fraction storage previousCumulativeRewardWeight = cumulativeRewardWeights[\n    //   block.number.sub(1)\n    // ];\n\n    // // This will be true the first time this is called by the EVM.\n    // if (!previousCumulativeRewardWeight.exists()) {\n    //   previousCumulativeRewardWeight.denominator = 1;\n    // }\n\n    // if (totalWeight > 0) {\n    //   FractionUtil.Fraction memory currentRewardWeight = FractionUtil.Fraction(\n    //     blockReward,\n    //     totalWeight\n    //   ).reduce();\n    //   cumulativeRewardWeights[block.number] = previousCumulativeRewardWeight.add(\n    //     currentRewardWeight\n    //   );\n    // } else {\n    //   cumulativeRewardWeights[block.number] = previousCumulativeRewardWeight;\n    // }\n  }\n\n  /**\n   * @notice Sets the maximum notice period for an account.\n   * @param _maxNoticePeriod The new maximum notice period.\n   */\n  function setMaxNoticePeriod(uint256 _maxNoticePeriod) external onlyOwner {\n    maxNoticePeriod = _maxNoticePeriod;\n    emit MaxNoticePeriodSet(maxNoticePeriod);\n  }\n\n  /**\n   * @notice Creates an account.\n   * @return True if account creation succeeded.\n   */\n  function createAccount()\n    external\n    returns (bool)\n  {\n    require(isNotAccount(msg.sender) && isNotDelegate(msg.sender));\n    Account storage account = accounts[msg.sender];\n    account.exists = true;\n    account.rewardsLastRedeemed = uint96(block.number);\n    return true;\n  }\n\n  /**\n   * @notice Redeems rewards accrued since the last redemption for the specified account.\n   * @return The amount of accrued rewards.\n   * @dev Fails if `msg.sender` is not the owner or rewards recipient of the account.\n   */\n  function redeemRewards() external nonReentrant returns (uint256) {\n    require(false, \"Disabled\");\n    address account = getAccountFromDelegateAndRole(msg.sender, DelegateRole.Rewards);\n    return _redeemRewards(account);\n  }\n\n  /**\n   * @notice Freezes the voting power of `msg.sender`'s account.\n   */\n  function freezeVoting() external {\n    require(isAccount(msg.sender));\n    Account storage account = accounts[msg.sender];\n    require(account.votingFrozen == false);\n    account.votingFrozen = true;\n    emit VotingFrozen(msg.sender);\n  }\n\n  /**\n   * @notice Unfreezes the voting power of `msg.sender`'s account.\n   */\n  function unfreezeVoting() external {\n    require(isAccount(msg.sender));\n    Account storage account = accounts[msg.sender];\n    require(account.votingFrozen == true);\n    account.votingFrozen = false;\n    emit VotingUnfrozen(msg.sender);\n  }\n\n  /**\n   * @notice Delegates the validating power of `msg.sender`'s account to another address.\n   * @param delegate The address to delegate to.\n   * @param v The recovery id of the incoming ECDSA signature.\n   * @param r Output value r of the ECDSA signature.\n   * @param s Output value s of the ECDSA signature.\n   * @dev Fails if the address is already a delegate or has an account .\n   * @dev Fails if the current account is already participating in validation.\n   * @dev v, r, s constitute `delegate`'s signature on `msg.sender`.\n   */\n  function delegateRole(\n    DelegateRole role,\n    address delegate,\n    uint8 v,\n    bytes32 r,\n    bytes32 s\n  )\n    external\n    nonReentrant\n  {\n    require(isAccount(msg.sender) && isNotAccount(delegate) && isNotDelegate(delegate));\n\n    address signer = Signatures.getSignerOfAddress(msg.sender, v, r, s);\n    require(signer == delegate);\n\n    if (role == DelegateRole.Validating) {\n      require(isNotValidating(msg.sender));\n    } else if (role == DelegateRole.Voting) {\n      require(!isVoting(msg.sender));\n    } else if (role == DelegateRole.Rewards) {\n      _redeemRewards(msg.sender);\n    }\n\n    Account storage account = accounts[msg.sender];\n    delegations[account.delegates[uint256(role)]] = address(0);\n    account.delegates[uint256(role)] = delegate;\n    delegations[delegate] = msg.sender;\n    emit RoleDelegated(role, msg.sender, delegate);\n  }\n\n  /**\n   * @notice Adds a bonded deposit to `msg.sender`'s account.\n   * @param noticePeriod The notice period for the deposit.\n   * @return The account's new weight.\n   */\n  function deposit(\n    uint256 noticePeriod\n  )\n    external\n    nonReentrant\n    payable\n    returns (uint256)\n  {\n    require(isAccount(msg.sender) && !isVoting(msg.sender));\n\n    // _redeemRewards(msg.sender);\n    require(msg.value > 0 && noticePeriod <= maxNoticePeriod);\n    Account storage account = accounts[msg.sender];\n    Deposit storage bonded = account.deposits.bonded[noticePeriod];\n    updateBondedDeposit(account, uint256(bonded.value).add(msg.value), noticePeriod);\n    emit DepositBonded(msg.sender, msg.value, noticePeriod);\n    return account.weight;\n  }\n\n  /**\n   * @notice Notifies a bonded deposit, allowing funds to be withdrawn after the notice period.\n   * @param value The amount of the deposit to eventually withdraw.\n   * @param noticePeriod The notice period of the bonded deposit.\n   * @return The account's new weight.\n   */\n  function notify(\n    uint256 value,\n    uint256 noticePeriod\n  )\n    external\n    nonReentrant\n    returns (uint256)\n  {\n    require(isAccount(msg.sender) && isNotValidating(msg.sender) && !isVoting(msg.sender));\n    // _redeemRewards(msg.sender);\n    Account storage account = accounts[msg.sender];\n    Deposit storage bonded = account.deposits.bonded[noticePeriod];\n    require(bonded.value >= value && value > 0);\n    updateBondedDeposit(account, uint256(bonded.value).sub(value), noticePeriod);\n\n    // solhint-disable-next-line not-rely-on-time\n    uint256 availabilityTime = now.add(noticePeriod);\n    Deposit storage notified = account.deposits.notified[availabilityTime];\n    updateNotifiedDeposit(account, uint256(notified.value).add(value), availabilityTime);\n\n    emit DepositNotified(msg.sender, value, noticePeriod, availabilityTime);\n    return account.weight;\n  }\n\n  /**\n   * @notice Rebonds a notified deposit, with notice period >= the remaining time to availability.\n   * @param value The amount of the deposit to rebond.\n   * @param availabilityTime The availability time of the notified deposit.\n   * @return The account's new weight.\n   */\n  function rebond(\n    uint256 value,\n    uint256 availabilityTime\n  )\n    external\n    nonReentrant\n    returns (uint256)\n  {\n    require(isAccount(msg.sender) && !isVoting(msg.sender));\n    // solhint-disable-next-line not-rely-on-time\n    require(availabilityTime > now);\n    // _redeemRewards(msg.sender);\n    Account storage account = accounts[msg.sender];\n    Deposit storage notified = account.deposits.notified[availabilityTime];\n    require(notified.value >= value && value > 0);\n    updateNotifiedDeposit(account, uint256(notified.value).sub(value), availabilityTime);\n    // solhint-disable-next-line not-rely-on-time\n    uint256 noticePeriod = availabilityTime.sub(now);\n    Deposit storage bonded = account.deposits.bonded[noticePeriod];\n    updateBondedDeposit(account, uint256(bonded.value).add(value), noticePeriod);\n    emit DepositRebonded(msg.sender, value, noticePeriod, availabilityTime);\n    return account.weight;\n  }\n\n  /**\n   * @notice Withdraws a notified deposit after the duration of the notice period.\n   * @param availabilityTime The availability time of the notified deposit.\n   * @return The account's new weight.\n   */\n  function withdraw(\n    uint256 availabilityTime\n  )\n    external\n    nonReentrant\n    returns (uint256)\n  {\n    require(isAccount(msg.sender) && !isVoting(msg.sender));\n    // _redeemRewards(msg.sender);\n    // solhint-disable-next-line not-rely-on-time\n    require(now >= availabilityTime);\n    _redeemRewards(msg.sender);\n    Account storage account = accounts[msg.sender];\n    Deposit storage notified = account.deposits.notified[availabilityTime];\n    uint256 value = notified.value;\n    require(value > 0);\n    updateNotifiedDeposit(account, 0, availabilityTime);\n\n    IERC20Token goldToken = IERC20Token(registry.getAddressFor(GOLD_TOKEN_REGISTRY_ID));\n    require(goldToken.transfer(msg.sender, value));\n    emit Withdrawal(msg.sender, value);\n    return account.weight;\n  }\n\n  /**\n   * @notice Increases the notice period for all or part of a bonded deposit.\n   * @param value The amount of the bonded deposit to increase the notice period for.\n   * @param noticePeriod The notice period of the bonded deposit.\n   * @param increase The amount to increase the notice period by.\n   * @return The account's new weight.\n   */\n  function increaseNoticePeriod(\n    uint256 value,\n    uint256 noticePeriod,\n    uint256 increase\n  )\n    external\n    nonReentrant\n    returns (uint256)\n  {\n    require(isAccount(msg.sender) && !isVoting(msg.sender));\n    // _redeemRewards(msg.sender);\n    require(value > 0 && increase > 0);\n    Account storage account = accounts[msg.sender];\n    Deposit storage bonded = account.deposits.bonded[noticePeriod];\n    require(bonded.value >= value);\n    updateBondedDeposit(account, uint256(bonded.value).sub(value), noticePeriod);\n    uint256 increasedNoticePeriod = noticePeriod.add(increase);\n    uint256 increasedValue = account.deposits.bonded[increasedNoticePeriod].value;\n    updateBondedDeposit(account, increasedValue.add(value), increasedNoticePeriod);\n    emit NoticePeriodIncreased(msg.sender, value, noticePeriod, increase);\n    return account.weight;\n  }\n\n  /**\n   * @notice Returns whether or not an account's voting power is frozen.\n   * @param account The address of the account.\n   * @return Whether or not the account's voting power is frozen.\n   * @dev Frozen accounts can retract existing votes but not make future votes.\n   */\n  function isVotingFrozen(address account) external view returns (bool) {\n    return accounts[account].votingFrozen;\n  }\n\n  /**\n   * @notice Returns the timestamp of the last time the account redeemed block rewards.\n   * @param _account The address of the account.\n   * @return The timestamp of the last time `_account` redeemed block rewards.\n   */\n  function getRewardsLastRedeemed(address _account) external view returns (uint96) {\n    Account storage account = accounts[_account];\n    return account.rewardsLastRedeemed;\n  }\n\n  function isValidating(address validator) public view returns (bool) {\n    IValidators validators = IValidators(registry.getAddressFor(VALIDATORS_REGISTRY_ID));\n    return validators.isValidating(validator);\n  }\n\n  /**\n   * @notice Returns the notice periods of all bonded deposits for an account.\n   * @param _account The address of the account.\n   * @return The notice periods of all bonded deposits for `_account`.\n   */\n  function getNoticePeriods(address _account) external view returns (uint256[] memory) {\n    Account storage account = accounts[_account];\n    return account.deposits.noticePeriods;\n  }\n\n  /**\n   * @notice Returns the availability times of all notified deposits for an account.\n   * @param _account The address of the account.\n   * @return The availability times of all notified deposits for `_account`.\n   */\n  function getAvailabilityTimes(address _account) external view returns (uint256[] memory) {\n    Account storage account = accounts[_account];\n    return account.deposits.availabilityTimes;\n  }\n\n  /**\n   * @notice Returns the value and index of a specified bonded deposit.\n   * @param _account The address of the account.\n   * @param noticePeriod The notice period of the bonded deposit.\n   * @return The value and index of the specified bonded deposit.\n   */\n  function getBondedDeposit(\n    address _account,\n    uint256 noticePeriod\n  )\n    external\n    view\n    returns (uint256, uint256)\n  {\n    Account storage account = accounts[_account];\n    Deposit storage bonded = account.deposits.bonded[noticePeriod];\n    return (bonded.value, bonded.index);\n  }\n\n  /**\n   * @notice Returns the value and index of a specified notified deposit.\n   * @param _account The address of the account.\n   * @param availabilityTime The availability time of the notified deposit.\n   * @return The value and index of the specified notified deposit.\n   */\n  function getNotifiedDeposit(\n    address _account,\n    uint256 availabilityTime\n  )\n    external\n    view\n    returns (uint256, uint256)\n  {\n    Account storage account = accounts[_account];\n    Deposit storage notified = account.deposits.notified[availabilityTime];\n    return (notified.value, notified.index);\n  }\n\n  /**\n   * @notice Returns the account associated with the provided delegate and role.\n   * @param accountOrDelegate The address of the account or voting delegate.\n   * @param role The delegate role to query for.\n   * @dev Fails if the `accountOrDelegate` is a non-voting delegate.\n   * @return The associated account.\n   */\n  function getAccountFromDelegateAndRole(\n    address accountOrDelegate,\n    DelegateRole role\n  )\n    public\n    view\n    returns (address)\n  {\n    address delegatingAccount = delegations[accountOrDelegate];\n    if (delegatingAccount != address(0)) {\n      require(accounts[delegatingAccount].delegates[uint256(role)] == accountOrDelegate);\n      return delegatingAccount;\n    } else {\n      return accountOrDelegate;\n    }\n  }\n\n  /**\n   * @notice Returns the weight of a specified account.\n   * @param _account The address of the account.\n   * @return The weight of the specified account.\n   */\n  function getAccountWeight(address _account) external view returns (uint256) {\n    Account storage account = accounts[_account];\n    return account.weight;\n  }\n\n  /**\n   * @notice Returns whether or not a specified account is voting.\n   * @param account The address of the account.\n   * @return Whether or not the account is voting.\n   */\n  function isVoting(address account) public view returns (bool) {\n    address voter = getDelegateFromAccountAndRole(account, DelegateRole.Voting);\n    IGovernance governance = IGovernance(registry.getAddressFor(GOVERNANCE_REGISTRY_ID));\n    IValidators validators = IValidators(registry.getAddressFor(VALIDATORS_REGISTRY_ID));\n    return (governance.isVoting(voter) || validators.isVoting(voter));\n  }\n\n  /**\n   * @notice Returns the weight of a deposit for a given notice period.\n   * @param value The value of the deposit.\n   * @param noticePeriod The notice period of the deposit.\n   * @return The weight of the deposit.\n   * @dev A deposit's weight is (1 + sqrt(noticePeriodDays) / 30) * value.\n   */\n  function getDepositWeight(uint256 value, uint256 noticePeriod) public pure returns (uint256) {\n    uint256 precision = 10000;\n    uint256 noticeDays = noticePeriod.div(1 days);\n    uint256 preciseMultiplier = sqrt(noticeDays).mul(precision).div(30).add(precision);\n    return preciseMultiplier.mul(value).div(precision);\n  }\n\n  /**\n   * @notice Returns the delegate for a specified account and role.\n   * @param account The address of the account.\n   * @param role The role to query for.\n   * @return The rewards recipient for the account.\n   */\n  function getDelegateFromAccountAndRole(\n    address account,\n    DelegateRole role\n  )\n    public\n    view\n    returns (address)\n  {\n    address delegate = accounts[account].delegates[uint256(role)];\n    if (delegate == address(0)) {\n      return account;\n    } else {\n      return delegate;\n    }\n  }\n\n  // TODO(asa): Factor in governance, validator election participation.\n  /**\n   * @notice Redeems rewards accrued since the last redemption for a specified account.\n   * @param _account The address of the account to redeem rewards for.\n   * @return The amount of accrued rewards.\n   */\n  function _redeemRewards(address _account) private returns (uint256) {\n    Account storage account = accounts[_account];\n    uint256 rewardBlockNumber = block.number.sub(1);\n    FractionUtil.Fraction storage previousCumulativeRewardWeight = cumulativeRewardWeights[\n      account.rewardsLastRedeemed\n    ];\n    FractionUtil.Fraction storage cumulativeRewardWeight = cumulativeRewardWeights[\n      rewardBlockNumber\n    ];\n    // We should never get here except in testing, where cumulativeRewardWeight will not be set.\n    if (!previousCumulativeRewardWeight.exists() || !cumulativeRewardWeight.exists()) {\n      return 0;\n    }\n\n    FractionUtil.Fraction memory rewardWeight = cumulativeRewardWeight.sub(\n      previousCumulativeRewardWeight\n    );\n    require(rewardWeight.exists(), \"Rewards weight does not exist\");\n    uint256 value = rewardWeight.mul(account.weight);\n    account.rewardsLastRedeemed = uint96(rewardBlockNumber);\n    if (value > 0) {\n      address recipient = getDelegateFromAccountAndRole(_account, DelegateRole.Rewards);\n      IERC20Token goldToken = IERC20Token(registry.getAddressFor(GOLD_TOKEN_REGISTRY_ID));\n      require(goldToken.transfer(recipient, value));\n      emit Withdrawal(recipient, value);\n    }\n    return value;\n  }\n\n  /**\n   * @notice Updates the bonded deposit for a given notice period to a new value.\n   * @param account The account to update the bonded deposit for.\n   * @param value The new value of the bonded deposit.\n   * @param noticePeriod The notice period of the bonded deposit.\n   */\n  function updateBondedDeposit(\n    Account storage account,\n    uint256 value,\n    uint256 noticePeriod\n  )\n    private\n  {\n    Deposit storage bonded = account.deposits.bonded[noticePeriod];\n    require(value != bonded.value);\n    uint256 weight;\n    if (bonded.value == 0) {\n      bonded.index = uint128(account.deposits.noticePeriods.length);\n      bonded.value = uint128(value);\n      account.deposits.noticePeriods.push(noticePeriod);\n      weight = getDepositWeight(value, noticePeriod);\n      account.weight = account.weight.add(weight);\n      totalWeight = totalWeight.add(weight);\n    } else if (value == 0) {\n      weight = getDepositWeight(bonded.value, noticePeriod);\n      account.weight = account.weight.sub(weight);\n      totalWeight = totalWeight.sub(weight);\n      deleteDeposit(bonded, account.deposits, DepositType.Bonded);\n    } else {\n      uint256 originalWeight = getDepositWeight(bonded.value, noticePeriod);\n      weight = getDepositWeight(value, noticePeriod);\n\n      uint256 difference;\n      if (weight >= originalWeight) {\n        difference = weight.sub(originalWeight);\n        account.weight = account.weight.add(difference);\n        totalWeight = totalWeight.add(difference);\n      } else {\n        difference = originalWeight.sub(weight);\n        account.weight = account.weight.sub(difference);\n        totalWeight = totalWeight.sub(difference);\n      }\n\n      bonded.value = uint128(value);\n    }\n  }\n\n  /**\n   * @notice Updates the notified deposit for a given availability time to a new value.\n   * @param account The account to update the notified deposit for.\n   * @param value The new value of the notified deposit.\n   * @param availabilityTime The availability time of the notified deposit.\n   */\n  function updateNotifiedDeposit(\n    Account storage account,\n    uint256 value,\n    uint256 availabilityTime\n  )\n    private\n  {\n    Deposit storage notified = account.deposits.notified[availabilityTime];\n    require(value != notified.value);\n    if (notified.value == 0) {\n      notified.index = uint128(account.deposits.availabilityTimes.length);\n      notified.value = uint128(value);\n      account.deposits.availabilityTimes.push(availabilityTime);\n      account.weight = account.weight.add(notified.value);\n      totalWeight = totalWeight.add(notified.value);\n    } else if (value == 0) {\n      account.weight = account.weight.sub(notified.value);\n      totalWeight = totalWeight.sub(notified.value);\n      deleteDeposit(notified, account.deposits, DepositType.Notified);\n    } else {\n      uint256 difference;\n      if (value >= notified.value) {\n        difference = value.sub(notified.value);\n        account.weight = account.weight.add(difference);\n        totalWeight = totalWeight.add(difference);\n      } else {\n        difference = uint256(notified.value).sub(value);\n        account.weight = account.weight.sub(difference);\n        totalWeight = totalWeight.sub(difference);\n      }\n\n      notified.value = uint128(value);\n    }\n  }\n\n  /**\n   * @notice Deletes a deposit from an account.\n   * @param _deposit The deposit to delete.\n   * @param deposits The struct containing the account's deposits.\n   * @param depositType Whether the deleted deposit is bonded or notified.\n   */\n  function deleteDeposit(\n    Deposit storage _deposit,\n    Deposits storage deposits,\n    DepositType depositType\n  )\n    private\n  {\n    uint256 lastIndex;\n    if (depositType == DepositType.Bonded) {\n      lastIndex = deposits.noticePeriods.length.sub(1);\n      deposits.bonded[deposits.noticePeriods[lastIndex]].index = _deposit.index;\n      deleteElement(deposits.noticePeriods, _deposit.index, lastIndex);\n    } else {\n      lastIndex = deposits.availabilityTimes.length.sub(1);\n      deposits.notified[deposits.availabilityTimes[lastIndex]].index = _deposit.index;\n      deleteElement(deposits.availabilityTimes, _deposit.index, lastIndex);\n    }\n\n    // Delete deposit info.\n    _deposit.index = 0;\n    _deposit.value = 0;\n  }\n\n  /**\n   * @notice Deletes an element from a list of uint256s.\n   * @param list The list of uint256s.\n   * @param index The index of the element to delete.\n   * @param lastIndex The index of the last element in the list.\n   */\n  function deleteElement(uint256[] storage list, uint256 index, uint256 lastIndex) private {\n    list[index] = list[lastIndex];\n    list[lastIndex] = 0;\n    list.length = lastIndex;\n  }\n\n  function isAccount(address account) internal view returns (bool) {\n    return (accounts[account].exists);\n  }\n\n  function isNotAccount(address account) internal view returns (bool) {\n    return (!accounts[account].exists);\n  }\n\n  // Reverts if rewards, voting, or validating rights have been delegated to `account`.\n  function isNotDelegate(address account) internal view returns (bool) {\n    return (delegations[account] == address(0));\n  }\n\n  // TODO(asa): Allow users to notify if they would continue to meet the registration\n  // requirements.\n  function isNotValidating(address account) internal view returns (bool) {\n    address validator = getDelegateFromAccountAndRole(account, DelegateRole.Validating);\n    IValidators validators = IValidators(registry.getAddressFor(VALIDATORS_REGISTRY_ID));\n    return (!validators.isValidating(validator));\n  }\n\n  /**\n   * @notice Approxmiates the square root of x using the Bablyonian method.\n   * @param x The number to take the square root of.\n   * @return An approximation of the square root of x.\n   * @dev The error can be large for smaller numbers, so we multiply by the square of `precision`.\n   */\n  function sqrt(uint256 x) private pure returns (FractionUtil.Fraction memory) {\n    uint256 precision = 100;\n    uint256 px = x.mul(precision.mul(precision));\n    uint256 z = px.add(1).div(2);\n    uint256 y = px;\n    while (z < y) {\n      y = z;\n      z = px.div(z).add(z).div(2);\n    }\n    return FractionUtil.Fraction(y, precision);\n  }\n}\n",
  "sourcePath": "/Users/tim/Celo/celo-monorepo/packages/protocol/contracts/governance/BondedDeposits.sol",
  "compiler": {
    "name": "solc",
    "version": "0.5.8+commit.23d335f2.Emscripten.clang"
  },
  "schemaVersion": "3.0.10",
  "updatedAt": "2019-08-15T18:50:30.134Z",
  "devdoc": {
    "methods": {
      "createAccount()": {
        "return": "True if account creation succeeded."
      },
      "delegateRole(uint8,address,uint8,bytes32,bytes32)": {
        "details": "Fails if the address is already a delegate or has an account .Fails if the current account is already participating in validation.v, r, s constitute `delegate`'s signature on `msg.sender`.",
        "params": {
          "delegate": "The address to delegate to.",
          "r": "Output value r of the ECDSA signature.",
          "s": "Output value s of the ECDSA signature.",
          "v": "The recovery id of the incoming ECDSA signature."
        }
      },
      "deposit(uint256)": {
        "params": {
          "noticePeriod": "The notice period for the deposit."
        },
        "return": "The account's new weight."
      },
      "getAccountFromDelegateAndRole(address,uint8)": {
        "details": "Fails if the `accountOrDelegate` is a non-voting delegate.",
        "params": {
          "accountOrDelegate": "The address of the account or voting delegate.",
          "role": "The delegate role to query for."
        },
        "return": "The associated account."
      },
      "getAccountWeight(address)": {
        "params": {
          "_account": "The address of the account."
        },
        "return": "The weight of the specified account."
      },
      "getAvailabilityTimes(address)": {
        "params": {
          "_account": "The address of the account."
        },
        "return": "The availability times of all notified deposits for `_account`."
      },
      "getBondedDeposit(address,uint256)": {
        "params": {
          "_account": "The address of the account.",
          "noticePeriod": "The notice period of the bonded deposit."
        },
        "return": "The value and index of the specified bonded deposit."
      },
      "getDelegateFromAccountAndRole(address,uint8)": {
        "params": {
          "account": "The address of the account.",
          "role": "The role to query for."
        },
        "return": "The rewards recipient for the account."
      },
      "getDepositWeight(uint256,uint256)": {
        "details": "A deposit's weight is (1 + sqrt(noticePeriodDays) / 30) * value.",
        "params": {
          "noticePeriod": "The notice period of the deposit.",
          "value": "The value of the deposit."
        },
        "return": "The weight of the deposit."
      },
      "getNoticePeriods(address)": {
        "params": {
          "_account": "The address of the account."
        },
        "return": "The notice periods of all bonded deposits for `_account`."
      },
      "getNotifiedDeposit(address,uint256)": {
        "params": {
          "_account": "The address of the account.",
          "availabilityTime": "The availability time of the notified deposit."
        },
        "return": "The value and index of the specified notified deposit."
      },
      "getRewardsLastRedeemed(address)": {
        "params": {
          "_account": "The address of the account."
        },
        "return": "The timestamp of the last time `_account` redeemed block rewards."
      },
      "increaseNoticePeriod(uint256,uint256,uint256)": {
        "params": {
          "increase": "The amount to increase the notice period by.",
          "noticePeriod": "The notice period of the bonded deposit.",
          "value": "The amount of the bonded deposit to increase the notice period for."
        },
        "return": "The account's new weight."
      },
      "isOwner()": {
        "return": "true if `msg.sender` is the owner of the contract."
      },
      "isVoting(address)": {
        "params": {
          "account": "The address of the account."
        },
        "return": "Whether or not the account is voting."
      },
      "isVotingFrozen(address)": {
        "details": "Frozen accounts can retract existing votes but not make future votes.",
        "params": {
          "account": "The address of the account."
        },
        "return": "Whether or not the account's voting power is frozen."
      },
      "notify(uint256,uint256)": {
        "params": {
          "noticePeriod": "The notice period of the bonded deposit.",
          "value": "The amount of the deposit to eventually withdraw."
        },
        "return": "The account's new weight."
      },
      "owner()": {
        "return": "the address of the owner."
      },
      "rebond(uint256,uint256)": {
        "params": {
          "availabilityTime": "The availability time of the notified deposit.",
          "value": "The amount of the deposit to rebond."
        },
        "return": "The account's new weight."
      },
      "redeemRewards()": {
        "details": "Fails if `msg.sender` is not the owner or rewards recipient of the account.",
        "return": "The amount of accrued rewards."
      },
      "renounceOwnership()": {
        "details": "Allows the current owner to relinquish control of the contract. It will not be possible to call the functions with the `onlyOwner` modifier anymore."
      },
      "setCumulativeRewardWeight(uint256)": {
        "details": "Called by the EVM at the end of the block.",
        "params": {
          "blockReward": "The total reward allocated to bonders for this block."
        }
      },
      "setMaxNoticePeriod(uint256)": {
        "params": {
          "_maxNoticePeriod": "The new maximum notice period."
        }
      },
      "setRegistry(address)": {
        "params": {
          "registryAddress": "The address of a registry contract for routing to other contracts."
        }
      },
      "transferOwnership(address)": {
        "details": "Allows the current owner to transfer control of the contract to a newOwner.",
        "params": {
          "newOwner": "The address to transfer ownership to."
        }
      },
      "withdraw(uint256)": {
        "params": {
          "availabilityTime": "The availability time of the notified deposit."
        },
        "return": "The account's new weight."
      }
    }
  },
  "userdoc": {
    "methods": {
      "createAccount()": {
        "notice": "Creates an account."
      },
      "delegateRole(uint8,address,uint8,bytes32,bytes32)": {
        "notice": "Delegates the validating power of `msg.sender`'s account to another address."
      },
      "deposit(uint256)": {
        "notice": "Adds a bonded deposit to `msg.sender`'s account."
      },
      "freezeVoting()": {
        "notice": "Freezes the voting power of `msg.sender`'s account."
      },
      "getAccountFromDelegateAndRole(address,uint8)": {
        "notice": "Returns the account associated with the provided delegate and role."
      },
      "getAccountWeight(address)": {
        "notice": "Returns the weight of a specified account."
      },
      "getAvailabilityTimes(address)": {
        "notice": "Returns the availability times of all notified deposits for an account."
      },
      "getBondedDeposit(address,uint256)": {
        "notice": "Returns the value and index of a specified bonded deposit."
      },
      "getDelegateFromAccountAndRole(address,uint8)": {
        "notice": "Returns the delegate for a specified account and role."
      },
      "getDepositWeight(uint256,uint256)": {
        "notice": "Returns the weight of a deposit for a given notice period."
      },
      "getNoticePeriods(address)": {
        "notice": "Returns the notice periods of all bonded deposits for an account."
      },
      "getNotifiedDeposit(address,uint256)": {
        "notice": "Returns the value and index of a specified notified deposit."
      },
      "getRewardsLastRedeemed(address)": {
        "notice": "Returns the timestamp of the last time the account redeemed block rewards."
      },
      "increaseNoticePeriod(uint256,uint256,uint256)": {
        "notice": "Increases the notice period for all or part of a bonded deposit."
      },
      "isVoting(address)": {
        "notice": "Returns whether or not a specified account is voting."
      },
      "isVotingFrozen(address)": {
        "notice": "Returns whether or not an account's voting power is frozen."
      },
      "notify(uint256,uint256)": {
        "notice": "Notifies a bonded deposit, allowing funds to be withdrawn after the notice period."
      },
      "rebond(uint256,uint256)": {
        "notice": "Rebonds a notified deposit, with notice period >= the remaining time to availability."
      },
      "redeemRewards()": {
        "notice": "Redeems rewards accrued since the last redemption for the specified account."
      },
      "renounceOwnership()": {
        "notice": "Renouncing ownership will leave the contract without an owner, thereby removing any functionality that is only available to the owner."
      },
      "setCumulativeRewardWeight(uint256)": {
        "notice": "Sets the cumulative block reward for 1 unit of account weight."
      },
      "setMaxNoticePeriod(uint256)": {
        "notice": "Sets the maximum notice period for an account."
      },
      "setRegistry(address)": {
        "notice": "Updates the address pointing to a Registry contract."
      },
      "unfreezeVoting()": {
        "notice": "Unfreezes the voting power of `msg.sender`'s account."
      },
      "withdraw(uint256)": {
        "notice": "Withdraws a notified deposit after the duration of the notice period."
      }
    }
  }
}