{
  "contractName": "DoubleSigningSlasher",
  "abi": [
    {
      "constant": true,
      "inputs": [],
      "name": "slashingIncentives",
      "outputs": [
        {
          "name": "penalty",
          "type": "uint256"
        },
        {
          "name": "reward",
          "type": "uint256"
        }
      ],
      "payable": false,
      "stateMutability": "view",
      "type": "function"
    },
    {
      "constant": true,
      "inputs": [
        {
          "name": "index",
          "type": "uint256"
        }
      ],
      "name": "validatorSignerAddressFromCurrentSet",
      "outputs": [
        {
          "name": "",
          "type": "address"
        }
      ],
      "payable": false,
      "stateMutability": "view",
      "type": "function"
    },
    {
      "constant": true,
      "inputs": [],
      "name": "initialized",
      "outputs": [
        {
          "name": "",
          "type": "bool"
        }
      ],
      "payable": false,
      "stateMutability": "view",
      "type": "function"
    },
    {
      "constant": true,
      "inputs": [
        {
          "name": "sender",
          "type": "address"
        },
        {
          "name": "blsKey",
          "type": "bytes"
        },
        {
          "name": "blsPop",
          "type": "bytes"
        }
      ],
      "name": "checkProofOfPossession",
      "outputs": [
        {
          "name": "",
          "type": "bool"
        }
      ],
      "payable": false,
      "stateMutability": "view",
      "type": "function"
    },
    {
      "constant": true,
      "inputs": [
        {
          "name": "blockNumber",
          "type": "uint256"
        }
      ],
      "name": "getEpochNumberOfBlock",
      "outputs": [
        {
          "name": "",
          "type": "uint256"
        }
      ],
      "payable": false,
      "stateMutability": "view",
      "type": "function"
    },
    {
      "constant": true,
      "inputs": [
        {
          "name": "header",
          "type": "bytes"
        }
      ],
      "name": "getVerifiedSealBitmapFromHeader",
      "outputs": [
        {
          "name": "",
          "type": "bytes32"
        }
      ],
      "payable": false,
      "stateMutability": "view",
      "type": "function"
    },
    {
      "constant": true,
      "inputs": [
        {
          "name": "index",
          "type": "uint256"
        },
        {
          "name": "blockNumber",
          "type": "uint256"
        }
      ],
      "name": "validatorSignerAddressFromSet",
      "outputs": [
        {
          "name": "",
          "type": "address"
        }
      ],
      "payable": false,
      "stateMutability": "view",
      "type": "function"
    },
    {
      "constant": true,
      "inputs": [
        {
          "name": "header",
          "type": "bytes"
        }
      ],
      "name": "hashHeader",
      "outputs": [
        {
          "name": "",
          "type": "bytes32"
        }
      ],
      "payable": false,
      "stateMutability": "view",
      "type": "function"
    },
    {
      "constant": false,
      "inputs": [],
      "name": "renounceOwnership",
      "outputs": [],
      "payable": false,
      "stateMutability": "nonpayable",
      "type": "function"
    },
    {
      "constant": true,
      "inputs": [],
      "name": "minQuorumSizeInCurrentSet",
      "outputs": [
        {
          "name": "",
          "type": "uint256"
        }
      ],
      "payable": false,
      "stateMutability": "view",
      "type": "function"
    },
    {
      "constant": true,
      "inputs": [],
      "name": "registry",
      "outputs": [
        {
          "name": "",
          "type": "address"
        }
      ],
      "payable": false,
      "stateMutability": "view",
      "type": "function"
    },
    {
      "constant": true,
      "inputs": [],
      "name": "numberValidatorsInCurrentSet",
      "outputs": [
        {
          "name": "",
          "type": "uint256"
        }
      ],
      "payable": false,
      "stateMutability": "view",
      "type": "function"
    },
    {
      "constant": true,
      "inputs": [
        {
          "name": "validator",
          "type": "address"
        },
        {
          "name": "blockNumber",
          "type": "uint256"
        },
        {
          "name": "groupMembershipHistoryIndex",
          "type": "uint256"
        }
      ],
      "name": "groupMembershipAtBlock",
      "outputs": [
        {
          "name": "",
          "type": "address"
        }
      ],
      "payable": false,
      "stateMutability": "view",
      "type": "function"
    },
    {
      "constant": true,
      "inputs": [
        {
          "name": "header",
          "type": "bytes"
        }
      ],
      "name": "getBlockNumberFromHeader",
      "outputs": [
        {
          "name": "",
          "type": "uint256"
        }
      ],
      "payable": false,
      "stateMutability": "view",
      "type": "function"
    },
    {
      "constant": true,
      "inputs": [],
      "name": "owner",
      "outputs": [
        {
          "name": "",
          "type": "address"
        }
      ],
      "payable": false,
      "stateMutability": "view",
      "type": "function"
    },
    {
      "constant": true,
      "inputs": [],
      "name": "isOwner",
      "outputs": [
        {
          "name": "",
          "type": "bool"
        }
      ],
      "payable": false,
      "stateMutability": "view",
      "type": "function"
    },
    {
      "constant": true,
      "inputs": [],
      "name": "getEpochNumber",
      "outputs": [
        {
          "name": "",
          "type": "uint256"
        }
      ],
      "payable": false,
      "stateMutability": "view",
      "type": "function"
    },
    {
      "constant": true,
      "inputs": [
        {
          "name": "blockNumber",
          "type": "uint256"
        }
      ],
      "name": "numberValidatorsInSet",
      "outputs": [
        {
          "name": "",
          "type": "uint256"
        }
      ],
      "payable": false,
      "stateMutability": "view",
      "type": "function"
    },
    {
      "constant": false,
      "inputs": [
        {
          "name": "registryAddress",
          "type": "address"
        }
      ],
      "name": "setRegistry",
      "outputs": [],
      "payable": false,
      "stateMutability": "nonpayable",
      "type": "function"
    },
    {
      "constant": false,
      "inputs": [
        {
          "name": "penalty",
          "type": "uint256"
        },
        {
          "name": "reward",
          "type": "uint256"
        }
      ],
      "name": "setSlashingIncentives",
      "outputs": [],
      "payable": false,
      "stateMutability": "nonpayable",
      "type": "function"
    },
    {
      "constant": true,
      "inputs": [],
      "name": "getEpochSize",
      "outputs": [
        {
          "name": "",
          "type": "uint256"
        }
      ],
      "payable": false,
      "stateMutability": "view",
      "type": "function"
    },
    {
      "constant": true,
      "inputs": [
        {
          "name": "blockNumber",
          "type": "uint256"
        }
      ],
      "name": "minQuorumSize",
      "outputs": [
        {
          "name": "",
          "type": "uint256"
        }
      ],
      "payable": false,
      "stateMutability": "view",
      "type": "function"
    },
    {
      "constant": true,
      "inputs": [
        {
          "name": "aNumerator",
          "type": "uint256"
        },
        {
          "name": "aDenominator",
          "type": "uint256"
        },
        {
          "name": "bNumerator",
          "type": "uint256"
        },
        {
          "name": "bDenominator",
          "type": "uint256"
        },
        {
          "name": "exponent",
          "type": "uint256"
        },
        {
          "name": "_decimals",
          "type": "uint256"
        }
      ],
      "name": "fractionMulExp",
      "outputs": [
        {
          "name": "",
          "type": "uint256"
        },
        {
          "name": "",
          "type": "uint256"
        }
      ],
      "payable": false,
      "stateMutability": "view",
      "type": "function"
    },
    {
      "constant": false,
      "inputs": [
        {
          "name": "newOwner",
          "type": "address"
        }
      ],
      "name": "transferOwnership",
      "outputs": [],
      "payable": false,
      "stateMutability": "nonpayable",
      "type": "function"
    },
    {
      "constant": true,
      "inputs": [
        {
          "name": "blockNumber",
          "type": "uint256"
        }
      ],
      "name": "getParentSealBitmap",
      "outputs": [
        {
          "name": "",
          "type": "bytes32"
        }
      ],
      "payable": false,
      "stateMutability": "view",
      "type": "function"
    },
    {
      "anonymous": false,
      "inputs": [
        {
          "indexed": false,
          "name": "penalty",
          "type": "uint256"
        },
        {
          "indexed": false,
          "name": "reward",
          "type": "uint256"
        }
      ],
      "name": "SlashingIncentivesSet",
      "type": "event"
    },
    {
      "anonymous": false,
      "inputs": [
        {
          "indexed": true,
          "name": "registryAddress",
          "type": "address"
        }
      ],
      "name": "RegistrySet",
      "type": "event"
    },
    {
      "anonymous": false,
      "inputs": [
        {
          "indexed": true,
          "name": "previousOwner",
          "type": "address"
        },
        {
          "indexed": true,
          "name": "newOwner",
          "type": "address"
        }
      ],
      "name": "OwnershipTransferred",
      "type": "event"
    },
    {
      "constant": false,
      "inputs": [
        {
          "name": "registryAddress",
          "type": "address"
        },
        {
          "name": "_penalty",
          "type": "uint256"
        },
        {
          "name": "_reward",
          "type": "uint256"
        }
      ],
      "name": "initialize",
      "outputs": [],
      "payable": false,
      "stateMutability": "nonpayable",
      "type": "function"
    },
    {
      "constant": true,
      "inputs": [
        {
          "name": "signer",
          "type": "address"
        },
        {
          "name": "index",
          "type": "uint256"
        },
        {
          "name": "headerA",
          "type": "bytes"
        },
        {
          "name": "headerB",
          "type": "bytes"
        }
      ],
      "name": "checkForDoubleSigning",
      "outputs": [
        {
          "name": "",
          "type": "uint256"
        }
      ],
      "payable": false,
      "stateMutability": "view",
      "type": "function"
    },
    {
      "constant": false,
      "inputs": [
        {
          "name": "signer",
          "type": "address"
        },
        {
          "name": "index",
          "type": "uint256"
        },
        {
          "name": "headerA",
          "type": "bytes"
        },
        {
          "name": "headerB",
          "type": "bytes"
        },
        {
          "name": "groupMembershipHistoryIndex",
          "type": "uint256"
        },
        {
          "name": "validatorElectionLessers",
          "type": "address[]"
        },
        {
          "name": "validatorElectionGreaters",
          "type": "address[]"
        },
        {
          "name": "validatorElectionIndices",
          "type": "uint256[]"
        },
        {
          "name": "groupElectionLessers",
          "type": "address[]"
        },
        {
          "name": "groupElectionGreaters",
          "type": "address[]"
        },
        {
          "name": "groupElectionIndices",
          "type": "uint256[]"
        }
      ],
      "name": "slash",
      "outputs": [],
      "payable": false,
      "stateMutability": "nonpayable",
      "type": "function"
    }
  ],
  "bytecode": "0x608060405260006100146100b760201b60201c565b9050806000806101000a81548173ffffffffffffffffffffffffffffffffffffffff021916908373ffffffffffffffffffffffffffffffffffffffff1602179055508073ffffffffffffffffffffffffffffffffffffffff16600073ffffffffffffffffffffffffffffffffffffffff167f8be0079c531659141344cd1fd0a4f28419497f9722a3daafe3b4186f6b6457e060405160405180910390a3506100bf565b600033905090565b61415780620000cf6000396000f3fe608060405234801561001057600080fd5b50600436106101c45760003560e01c806388498aaf116100f9578063a91ee0dc11610097578063e50e652d11610071578063e50e652d146110a4578063ec683072146110e6578063f2fde38b14611161578063fae8db0a146111a5576101c4565b8063a91ee0dc1461100a578063bd0d99791461104e578063df4da46114611086576101c4565b80638da5cb5b116100d35780638da5cb5b14610f3e5780638f32d59b14610f885780639a7b3be714610faa5780639b2b592f14610fc8576101c4565b806388498aaf146108d85780638a883626146109705780638cc2691014610a3f576101c4565b80635d180adb116101665780637385e5da116101405780637385e5da146107fa5780637a1ac61e146108185780637b1039991461087057806387ee8a0f146108ba576101c4565b80635d180adb146106a957806367960e9114610721578063715018a6146107f0576101c4565b8063158ef93e116101a2578063158ef93e146103ec57806323f0ab651461040e5780633b1eb4bf146105985780634b2c2f44146105da576101c4565b806309f99447146101c95780630a05cd8414610359578063123633ea1461037e575b600080fd5b610343600480360360808110156101df57600080fd5b81019080803573ffffffffffffffffffffffffffffffffffffffff169060200190929190803590602001909291908035906020019064010000000081111561022657600080fd5b82018360208201111561023857600080fd5b8035906020019184600183028401116401000000008311171561025a57600080fd5b91908080601f016020809104026020016040519081016040528093929190818152602001838380828437600081840152601f19601f820116905080830192505050505050509192919290803590602001906401000000008111156102bd57600080fd5b8201836020820111156102cf57600080fd5b803590602001918460018302840111640100000000831117156102f157600080fd5b91908080601f016020809104026020016040519081016040528093929190818152602001838380828437600081840152601f19601f8201169050808301925050505050505091929192905050506111e7565b6040518082815260200191505060405180910390f35b6103616115e0565b604051808381526020018281526020019250505060405180910390f35b6103aa6004803603602081101561039457600080fd5b81019080803590602001909291905050506115f2565b604051808273ffffffffffffffffffffffffffffffffffffffff1673ffffffffffffffffffffffffffffffffffffffff16815260200191505060405180910390f35b6103f4611743565b604051808215151515815260200191505060405180910390f35b61057e6004803603606081101561042457600080fd5b81019080803573ffffffffffffffffffffffffffffffffffffffff1690602001909291908035906020019064010000000081111561046157600080fd5b82018360208201111561047357600080fd5b8035906020019184600183028401116401000000008311171561049557600080fd5b91908080601f016020809104026020016040519081016040528093929190818152602001838380828437600081840152601f19601f820116905080830192505050505050509192919290803590602001906401000000008111156104f857600080fd5b82018360208201111561050a57600080fd5b8035906020019184600183028401116401000000008311171561052c57600080fd5b91908080601f016020809104026020016040519081016040528093929190818152602001838380828437600081840152601f19601f820116905080830192505050505050509192919290505050611756565b604051808215151515815260200191505060405180910390f35b6105c4600480360360208110156105ae57600080fd5b810190808035906020019092919050505061190f565b6040518082815260200191505060405180910390f35b610693600480360360208110156105f057600080fd5b810190808035906020019064010000000081111561060d57600080fd5b82018360208201111561061f57600080fd5b8035906020019184600183028401116401000000008311171561064157600080fd5b91908080601f016020809104026020016040519081016040528093929190818152602001838380828437600081840152601f19601f820116905080830192505050505050509192919290505050611929565b6040518082815260200191505060405180910390f35b6106df600480360360408110156106bf57600080fd5b810190808035906020019092919080359060200190929190505050611abd565b604051808273ffffffffffffffffffffffffffffffffffffffff1673ffffffffffffffffffffffffffffffffffffffff16815260200191505060405180910390f35b6107da6004803603602081101561073757600080fd5b810190808035906020019064010000000081111561075457600080fd5b82018360208201111561076657600080fd5b8035906020019184600183028401116401000000008311171561078857600080fd5b91908080601f016020809104026020016040519081016040528093929190818152602001838380828437600081840152601f19601f820116905080830192505050505050509192919290505050611c0f565b6040518082815260200191505060405180910390f35b6107f8611da3565b005b610802611edc565b6040518082815260200191505060405180910390f35b61086e6004803603606081101561082e57600080fd5b81019080803573ffffffffffffffffffffffffffffffffffffffff1690602001909291908035906020019092919080359060200190929190505050611eec565b005b610878611fab565b604051808273ffffffffffffffffffffffffffffffffffffffff1673ffffffffffffffffffffffffffffffffffffffff16815260200191505060405180910390f35b6108c2611fd1565b6040518082815260200191505060405180910390f35b61092e600480360360608110156108ee57600080fd5b81019080803573ffffffffffffffffffffffffffffffffffffffff1690602001909291908035906020019092919080359060200190929190505050612118565b604051808273ffffffffffffffffffffffffffffffffffffffff1673ffffffffffffffffffffffffffffffffffffffff16815260200191505060405180910390f35b610a296004803603602081101561098657600080fd5b81019080803590602001906401000000008111156109a357600080fd5b8201836020820111156109b557600080fd5b803590602001918460018302840111640100000000831117156109d757600080fd5b91908080601f016020809104026020016040519081016040528093929190818152602001838380828437600081840152601f19601f820116905080830192505050505050509192919290505050612289565b6040518082815260200191505060405180910390f35b610f3c6004803603610160811015610a5657600080fd5b81019080803573ffffffffffffffffffffffffffffffffffffffff1690602001909291908035906020019092919080359060200190640100000000811115610a9d57600080fd5b820183602082011115610aaf57600080fd5b80359060200191846001830284011164010000000083111715610ad157600080fd5b91908080601f016020809104026020016040519081016040528093929190818152602001838380828437600081840152601f19601f82011690508083019250505050505050919291929080359060200190640100000000811115610b3457600080fd5b820183602082011115610b4657600080fd5b80359060200191846001830284011164010000000083111715610b6857600080fd5b91908080601f016020809104026020016040519081016040528093929190818152602001838380828437600081840152601f19601f8201169050808301925050505050505091929192908035906020019092919080359060200190640100000000811115610bd557600080fd5b820183602082011115610be757600080fd5b80359060200191846020830284011164010000000083111715610c0957600080fd5b919080806020026020016040519081016040528093929190818152602001838360200280828437600081840152601f19601f82011690508083019250505050505050919291929080359060200190640100000000811115610c6957600080fd5b820183602082011115610c7b57600080fd5b80359060200191846020830284011164010000000083111715610c9d57600080fd5b919080806020026020016040519081016040528093929190818152602001838360200280828437600081840152601f19601f82011690508083019250505050505050919291929080359060200190640100000000811115610cfd57600080fd5b820183602082011115610d0f57600080fd5b80359060200191846020830284011164010000000083111715610d3157600080fd5b919080806020026020016040519081016040528093929190818152602001838360200280828437600081840152601f19601f82011690508083019250505050505050919291929080359060200190640100000000811115610d9157600080fd5b820183602082011115610da357600080fd5b80359060200191846020830284011164010000000083111715610dc557600080fd5b919080806020026020016040519081016040528093929190818152602001838360200280828437600081840152601f19601f82011690508083019250505050505050919291929080359060200190640100000000811115610e2557600080fd5b820183602082011115610e3757600080fd5b80359060200191846020830284011164010000000083111715610e5957600080fd5b919080806020026020016040519081016040528093929190818152602001838360200280828437600081840152601f19601f82011690508083019250505050505050919291929080359060200190640100000000811115610eb957600080fd5b820183602082011115610ecb57600080fd5b80359060200191846020830284011164010000000083111715610eed57600080fd5b919080806020026020016040519081016040528093929190818152602001838360200280828437600081840152601f19601f82011690508083019250505050505050919291929050505061241d565b005b610f46612525565b604051808273ffffffffffffffffffffffffffffffffffffffff1673ffffffffffffffffffffffffffffffffffffffff16815260200191505060405180910390f35b610f9061254e565b604051808215151515815260200191505060405180910390f35b610fb26125ac565b6040518082815260200191505060405180910390f35b610ff460048036036020811015610fde57600080fd5b81019080803590602001909291905050506125bc565b6040518082815260200191505060405180910390f35b61104c6004803603602081101561102057600080fd5b81019080803573ffffffffffffffffffffffffffffffffffffffff169060200190929190505050612705565b005b6110846004803603604081101561106457600080fd5b8101908080359060200190929190803590602001909291905050506128a9565b005b61108e6129d2565b6040518082815260200191505060405180910390f35b6110d0600480360360208110156110ba57600080fd5b8101908080359060200190929190505050612b0e565b6040518082815260200191505060405180910390f35b611144600480360360c08110156110fc57600080fd5b81019080803590602001909291908035906020019092919080359060200190929190803590602001909291908035906020019092919080359060200190929190505050612b59565b604051808381526020018281526020019250505060405180910390f35b6111a36004803603602081101561117757600080fd5b81019080803573ffffffffffffffffffffffffffffffffffffffff169060200190929190505050612d6d565b005b6111d1600480360360208110156111bb57600080fd5b8101908080359060200190929190505050612df3565b6040518082815260200191505060405180910390f35b60006111f282611c0f565b6111fb84611c0f565b1415611252576040517f08c379a0000000000000000000000000000000000000000000000000000000008152600401808060200182810382526021815260200180613fd16021913960400191505060405180910390fd5b600061125d84612289565b905061126883612289565b81146112bf576040517f08c379a00000000000000000000000000000000000000000000000000000000081526004018080602001828103825260278152602001806140136027913960400191505060405180910390fd5b6112c8816125bc565b851061133c576040517f08c379a00000000000000000000000000000000000000000000000000000000081526004018080602001828103825260138152602001807f4261642076616c696461746f7220696e6465780000000000000000000000000081525060200191505060405180910390fd5b6113468582611abd565b73ffffffffffffffffffffffffffffffffffffffff168673ffffffffffffffffffffffffffffffffffffffff16146113e6576040517f08c379a00000000000000000000000000000000000000000000000000000000081526004018080602001828103825260208152602001807f5761736e27742061207369676e6572207769746820676976656e20696e64657881525060200191505060405180910390fd5b60006113f185611929565b60001c9050600061140185611929565b60001c90506000876001901b83161415611483576040517f08c379a00000000000000000000000000000000000000000000000000000000081526004018080602001828103825260178152602001807f4469646e2774207369676e20666972737420626c6f636b00000000000000000081525060200191505060405180910390fd5b6000876001901b82161415611500576040517f08c379a00000000000000000000000000000000000000000000000000000000081526004018080602001828103825260188152602001807f4469646e2774207369676e207365636f6e6420626c6f636b000000000000000081525060200191505060405180910390fd5b61150983612b0e565b61151283612f3c565b1015611569576040517f08c379a0000000000000000000000000000000000000000000000000000000008152600401808060200182810382526025815260200180613e546025913960400191505060405180910390fd5b61157283612b0e565b61157b82612f3c565b10156115d2576040517f08c379a00000000000000000000000000000000000000000000000000000000081526004018080602001828103825260268152602001806140b26026913960400191505060405180910390fd5b829350505050949350505050565b60028060000154908060010154905082565b60006060600060fa73ffffffffffffffffffffffffffffffffffffffff16844360405160200180838152602001828152602001925050506040516020818303038152906040526040518082805190602001908083835b6020831061166b5780518252602082019150602081019050602083039250611648565b6001836020036101000a038019825116818451168082178552505050505050905001915050600060405180830381855afa9150503d80600081146116cb576040519150601f19603f3d011682016040523d82523d6000602084013e6116d0565b606091505b5080935081925050508061172f576040517f08c379a000000000000000000000000000000000000000000000000000000000815260040180806020018281038252603d815260200180613f29603d913960400191505060405180910390fd5b61173a826000612fa7565b92505050919050565b600060149054906101000a900460ff1681565b60008060fb73ffffffffffffffffffffffffffffffffffffffff16858585604051602001808473ffffffffffffffffffffffffffffffffffffffff1673ffffffffffffffffffffffffffffffffffffffff1660601b815260140183805190602001908083835b602083106117df57805182526020820191506020810190506020830392506117bc565b6001836020036101000a03801982511681845116808217855250505050505090500182805190602001908083835b60208310611830578051825260208201915060208101905060208303925061180d565b6001836020036101000a03801982511681845116808217855250505050505090500193505050506040516020818303038152906040526040518082805190602001908083835b602083106118995780518252602082019150602081019050602083039250611876565b6001836020036101000a038019825116818451168082178552505050505050905001915050600060405180830381855afa9150503d80600081146118f9576040519150601f19603f3d011682016040523d82523d6000602084013e6118fe565b606091505b505080915050809150509392505050565b60006119228261191d6129d2565b612fbe565b9050919050565b60006060600060f473ffffffffffffffffffffffffffffffffffffffff16846040516020018082805190602001908083835b6020831061197e578051825260208201915060208101905060208303925061195b565b6001836020036101000a0380198251168184511680821785525050505050509050019150506040516020818303038152906040526040518082805190602001908083835b602083106119e557805182526020820191506020810190506020830392506119c2565b6001836020036101000a038019825116818451168082178552505050505050905001915050600060405180830381855afa9150503d8060008114611a45576040519150601f19603f3d011682016040523d82523d6000602084013e611a4a565b606091505b50809350819250505080611aa9576040517f08c379a0000000000000000000000000000000000000000000000000000000008152600401808060200182810382526038815260200180613ef16038913960400191505060405180910390fd5b611ab4826000612ff6565b92505050919050565b60006060600060fa73ffffffffffffffffffffffffffffffffffffffff16858560405160200180838152602001828152602001925050506040516020818303038152906040526040518082805190602001908083835b60208310611b365780518252602082019150602081019050602083039250611b13565b6001836020036101000a038019825116818451168082178552505050505050905001915050600060405180830381855afa9150503d8060008114611b96576040519150601f19603f3d011682016040523d82523d6000602084013e611b9b565b606091505b50809350819250505080611bfa576040517f08c379a0000000000000000000000000000000000000000000000000000000008152600401808060200182810382526036815260200180613f9b6036913960400191505060405180910390fd5b611c05826000612fa7565b9250505092915050565b60006060600060f673ffffffffffffffffffffffffffffffffffffffff16846040516020018082805190602001908083835b60208310611c645780518252602082019150602081019050602083039250611c41565b6001836020036101000a0380198251168184511680821785525050505050509050019150506040516020818303038152906040526040518082805190602001908083835b60208310611ccb5780518252602082019150602081019050602083039250611ca8565b6001836020036101000a038019825116818451168082178552505050505050905001915050600060405180830381855afa9150503d8060008114611d2b576040519150601f19603f3d011682016040523d82523d6000602084013e611d30565b606091505b50809350819250505080611d8f576040517f08c379a00000000000000000000000000000000000000000000000000000000081526004018080602001828103825260238152602001806141096023913960400191505060405180910390fd5b611d9a826000612ff6565b92505050919050565b611dab61254e565b611e1d576040517f08c379a00000000000000000000000000000000000000000000000000000000081526004018080602001828103825260208152602001807f4f776e61626c653a2063616c6c6572206973206e6f7420746865206f776e657281525060200191505060405180910390fd5b600073ffffffffffffffffffffffffffffffffffffffff166000809054906101000a900473ffffffffffffffffffffffffffffffffffffffff1673ffffffffffffffffffffffffffffffffffffffff167f8be0079c531659141344cd1fd0a4f28419497f9722a3daafe3b4186f6b6457e060405160405180910390a360008060006101000a81548173ffffffffffffffffffffffffffffffffffffffff021916908373ffffffffffffffffffffffffffffffffffffffff160217905550565b6000611ee743612b0e565b905090565b600060149054906101000a900460ff1615611f6f576040517f08c379a000000000000000000000000000000000000000000000000000000000815260040180806020018281038252601c8152602001807f636f6e747261637420616c726561647920696e697469616c697a65640000000081525060200191505060405180910390fd5b6001600060146101000a81548160ff021916908315150217905550611f9333613087565b611f9c83612705565b611fa682826128a9565b505050565b600160009054906101000a900473ffffffffffffffffffffffffffffffffffffffff1681565b60006060600060f973ffffffffffffffffffffffffffffffffffffffff1643604051602001808281526020019150506040516020818303038152906040526040518082805190602001908083835b60208310612042578051825260208201915060208101905060208303925061201f565b6001836020036101000a038019825116818451168082178552505050505050905001915050600060405180830381855afa9150503d80600081146120a2576040519150601f19603f3d011682016040523d82523d6000602084013e6120a7565b606091505b50809350819250505080612106576040517f08c379a0000000000000000000000000000000000000000000000000000000008152600401808060200182810382526035815260200180613f666035913960400191505060405180910390fd5b612111826000612fa7565b9250505090565b6000806121248461190f565b9050600081141561219d576040517f08c379a00000000000000000000000000000000000000000000000000000000081526004018080602001828103825260178152602001807f43616e6e6f7420736c617368206f6e2065706f6368203000000000000000000081525060200191505060405180910390fd5b6121a56131cb565b73ffffffffffffffffffffffffffffffffffffffff1663eb1d0b42866121d56001856132c690919063ffffffff16565b866040518463ffffffff1660e01b8152600401808473ffffffffffffffffffffffffffffffffffffffff1673ffffffffffffffffffffffffffffffffffffffff168152602001838152602001828152602001935050505060206040518083038186803b15801561224457600080fd5b505afa158015612258573d6000803e3d6000fd5b505050506040513d602081101561226e57600080fd5b81019080805190602001909291905050509150509392505050565b60006060600060f773ffffffffffffffffffffffffffffffffffffffff16846040516020018082805190602001908083835b602083106122de57805182526020820191506020810190506020830392506122bb565b6001836020036101000a0380198251168184511680821785525050505050509050019150506040516020818303038152906040526040518082805190602001908083835b602083106123455780518252602082019150602081019050602083039250612322565b6001836020036101000a038019825116818451168082178552505050505050905001915050600060405180830381855afa9150503d80600081146123a5576040519150601f19603f3d011682016040523d82523d6000602084013e6123aa565b606091505b50809350819250505080612409576040517f08c379a00000000000000000000000000000000000000000000000000000000081526004018080602001828103825260318152602001806140d86031913960400191505060405180910390fd5b612414826000612fa7565b92505050919050565b6124278b8a613310565b6124318b89613310565b600061243f8c8c8c8c6111e7565b9050600061244b61345c565b73ffffffffffffffffffffffffffffffffffffffff166393c5c4878e6040518263ffffffff1660e01b8152600401808273ffffffffffffffffffffffffffffffffffffffff1673ffffffffffffffffffffffffffffffffffffffff16815260200191505060206040518083038186803b1580156124c757600080fd5b505afa1580156124db573d6000803e3d6000fd5b505050506040513d60208110156124f157600080fd5b810190808051906020019092919050505090506125168133848c8c8c8c8c8c8c613557565b50505050505050505050505050565b60008060009054906101000a900473ffffffffffffffffffffffffffffffffffffffff16905090565b60008060009054906101000a900473ffffffffffffffffffffffffffffffffffffffff1673ffffffffffffffffffffffffffffffffffffffff16612590613a72565b73ffffffffffffffffffffffffffffffffffffffff1614905090565b60006125b74361190f565b905090565b60006060600060f973ffffffffffffffffffffffffffffffffffffffff1684604051602001808281526020019150506040516020818303038152906040526040518082805190602001908083835b6020831061262d578051825260208201915060208101905060208303925061260a565b6001836020036101000a038019825116818451168082178552505050505050905001915050600060405180830381855afa9150503d806000811461268d576040519150601f19603f3d011682016040523d82523d6000602084013e612692565b606091505b508093508192505050806126f1576040517f08c379a000000000000000000000000000000000000000000000000000000000815260040180806020018281038252602e815260200180613e79602e913960400191505060405180910390fd5b6126fc826000612fa7565b92505050919050565b61270d61254e565b61277f576040517f08c379a00000000000000000000000000000000000000000000000000000000081526004018080602001828103825260208152602001807f4f776e61626c653a2063616c6c6572206973206e6f7420746865206f776e657281525060200191505060405180910390fd5b600073ffffffffffffffffffffffffffffffffffffffff168173ffffffffffffffffffffffffffffffffffffffff161415612822576040517f08c379a00000000000000000000000000000000000000000000000000000000081526004018080602001828103825260208152602001807f43616e6e6f7420726567697374657220746865206e756c6c206164647265737381525060200191505060405180910390fd5b80600160006101000a81548173ffffffffffffffffffffffffffffffffffffffff021916908373ffffffffffffffffffffffffffffffffffffffff1602179055508073ffffffffffffffffffffffffffffffffffffffff167f27fe5f0c1c3b1ed427cc63d0f05759ffdecf9aec9e18d31ef366fc8a6cb5dc3b60405160405180910390a250565b6128b161254e565b612923576040517f08c379a00000000000000000000000000000000000000000000000000000000081526004018080602001828103825260208152602001807f4f776e61626c653a2063616c6c6572206973206e6f7420746865206f776e657281525060200191505060405180910390fd5b80821161297b576040517f08c379a0000000000000000000000000000000000000000000000000000000008152600401808060200182810382526024815260200180613ea76024913960400191505060405180910390fd5b81600260000181905550806002600101819055507f716dc7c34384df36c6ccc5a2949f2ce9b019f5d4075ef39139a80038a4fdd1c38282604051808381526020018281526020019250505060405180910390a15050565b60006060600060f873ffffffffffffffffffffffffffffffffffffffff166040516020016040516020818303038152906040526040518082805190602001908083835b60208310612a385780518252602082019150602081019050602083039250612a15565b6001836020036101000a038019825116818451168082178552505050505050905001915050600060405180830381855afa9150503d8060008114612a98576040519150601f19603f3d011682016040523d82523d6000602084013e612a9d565b606091505b50809350819250505080612afc576040517f08c379a00000000000000000000000000000000000000000000000000000000081526004018080602001828103825260258152602001806140616025913960400191505060405180910390fd5b612b07826000612fa7565b9250505090565b6000612b526003612b446002612b366002612b28886125bc565b613a7a90919063ffffffff16565b613b0090919063ffffffff16565b613b8890919063ffffffff16565b9050919050565b60008060008714158015612b6e575060008514155b612be0576040517f08c379a00000000000000000000000000000000000000000000000000000000081526004018080602001828103825260158152602001807f612064656e6f6d696e61746f72206973207a65726f000000000000000000000081525060200191505060405180910390fd5b6000806000606060fc73ffffffffffffffffffffffffffffffffffffffff168c8c8c8c8c8c6040516020018087815260200186815260200185815260200184815260200183815260200182815260200196505050505050506040516020818303038152906040526040518082805190602001908083835b60208310612c7a5780518252602082019150602081019050602083039250612c57565b6001836020036101000a038019825116818451168082178552505050505050905001915050600060405180830381855afa9150503d8060008114612cda576040519150601f19603f3d011682016040523d82523d6000602084013e612cdf565b606091505b50809250819350505081612d3e576040517f08c379a000000000000000000000000000000000000000000000000000000000815260040180806020018281038252602781526020018061403a6027913960400191505060405180910390fd5b612d49816000612fa7565b9350612d56816020612fa7565b925083839550955050505050965096945050505050565b612d7561254e565b612de7576040517f08c379a00000000000000000000000000000000000000000000000000000000081526004018080602001828103825260208152602001807f4f776e61626c653a2063616c6c6572206973206e6f7420746865206f776e657281525060200191505060405180910390fd5b612df081613087565b50565b60006060600060f573ffffffffffffffffffffffffffffffffffffffff1684604051602001808281526020019150506040516020818303038152906040526040518082805190602001908083835b60208310612e645780518252602082019150602081019050602083039250612e41565b6001836020036101000a038019825116818451168082178552505050505050905001915050600060405180830381855afa9150503d8060008114612ec4576040519150601f19603f3d011682016040523d82523d6000602084013e612ec9565b606091505b50809350819250505080612f28576040517f08c379a000000000000000000000000000000000000000000000000000000000815260040180806020018281038252602c815260200180614086602c913960400191505060405180910390fd5b612f33826000612ff6565b92505050919050565b60008060009050600083905060008090505b610100811015612f9c5760018083161415612f7a57612f77600184613b0090919063ffffffff16565b92505b600182901c9150612f95600182613b0090919063ffffffff16565b9050612f4e565b508192505050919050565b6000612fb38383612ff6565b60001c905092915050565b600080828481612fca57fe5b0490506000838581612fd857fe5b061415612fe85780915050612ff0565b600181019150505b92915050565b60006020820183511015613072576040517f08c379a00000000000000000000000000000000000000000000000000000000081526004018080602001828103825260148152602001807f736c6963696e67206f7574206f662072616e676500000000000000000000000081525060200191505060405180910390fd5b60006020830184015190508091505092915050565b600073ffffffffffffffffffffffffffffffffffffffff168173ffffffffffffffffffffffffffffffffffffffff16141561310d576040517f08c379a0000000000000000000000000000000000000000000000000000000008152600401808060200182810382526026815260200180613ecb6026913960400191505060405180910390fd5b8073ffffffffffffffffffffffffffffffffffffffff166000809054906101000a900473ffffffffffffffffffffffffffffffffffffffff1673ffffffffffffffffffffffffffffffffffffffff167f8be0079c531659141344cd1fd0a4f28419497f9722a3daafe3b4186f6b6457e060405160405180910390a3806000806101000a81548173ffffffffffffffffffffffffffffffffffffffff021916908373ffffffffffffffffffffffffffffffffffffffff16021790555050565b6000600160009054906101000a900473ffffffffffffffffffffffffffffffffffffffff1673ffffffffffffffffffffffffffffffffffffffff1663dcf0aaed60405160200180807f56616c696461746f727300000000000000000000000000000000000000000000815250600a019050604051602081830303815290604052805190602001206040518263ffffffff1660e01b81526004018082815260200191505060206040518083038186803b15801561328657600080fd5b505afa15801561329a573d6000803e3d6000fd5b505050506040513d60208110156132b057600080fd5b8101908080519060200190929190505050905090565b600061330883836040518060400160405280601e81526020017f536166654d6174683a207375627472616374696f6e206f766572666c6f770000815250613bd2565b905092915050565b600061331b82611c0f565b9050600460008473ffffffffffffffffffffffffffffffffffffffff1673ffffffffffffffffffffffffffffffffffffffff168152602001908152602001600020600082815260200190815260200160002060009054906101000a900460ff16156133ee576040517f08c379a000000000000000000000000000000000000000000000000000000000815260040180806020018281038252600f8152602001807f416c726561647920736c6173686564000000000000000000000000000000000081525060200191505060405180910390fd5b6001600460008573ffffffffffffffffffffffffffffffffffffffff1673ffffffffffffffffffffffffffffffffffffffff168152602001908152602001600020600083815260200190815260200160002060006101000a81548160ff021916908315150217905550505050565b6000600160009054906101000a900473ffffffffffffffffffffffffffffffffffffffff1673ffffffffffffffffffffffffffffffffffffffff1663dcf0aaed60405160200180807f4163636f756e74730000000000000000000000000000000000000000000000008152506008019050604051602081830303815290604052805190602001206040518263ffffffff1660e01b81526004018082815260200191505060206040518083038186803b15801561351757600080fd5b505afa15801561352b573d6000803e3d6000fd5b505050506040513d602081101561354157600080fd5b8101908080519060200190929190505050905090565b6000613561613c92565b90508073ffffffffffffffffffffffffffffffffffffffff166331993fc98c6002600001548d6002600101548c8c8c6040518863ffffffff1660e01b8152600401808873ffffffffffffffffffffffffffffffffffffffff1673ffffffffffffffffffffffffffffffffffffffff1681526020018781526020018673ffffffffffffffffffffffffffffffffffffffff1673ffffffffffffffffffffffffffffffffffffffff168152602001858152602001806020018060200180602001848103845287818151815260200191508051906020019060200280838360005b8381101561365a57808201518184015260208101905061363f565b50505050905001848103835286818151815260200191508051906020019060200280838360005b8381101561369c578082015181840152602081019050613681565b50505050905001848103825285818151815260200191508051906020019060200280838360005b838110156136de5780820151818401526020810190506136c3565b505050509050019a5050505050505050505050600060405180830381600087803b15801561370b57600080fd5b505af115801561371f573d6000803e3d6000fd5b5050505060006137308c8b8b612118565b9050600073ffffffffffffffffffffffffffffffffffffffff168173ffffffffffffffffffffffffffffffffffffffff16141561376957fe5b8173ffffffffffffffffffffffffffffffffffffffff166331993fc9826002600001548e6002600101548a8a8a6040518863ffffffff1660e01b8152600401808873ffffffffffffffffffffffffffffffffffffffff1673ffffffffffffffffffffffffffffffffffffffff1681526020018781526020018673ffffffffffffffffffffffffffffffffffffffff1673ffffffffffffffffffffffffffffffffffffffff168152602001858152602001806020018060200180602001848103845287818151815260200191508051906020019060200280838360005b83811015613860578082015181840152602081019050613845565b50505050905001848103835286818151815260200191508051906020019060200280838360005b838110156138a2578082015181840152602081019050613887565b50505050905001848103825285818151815260200191508051906020019060200280838360005b838110156138e45780820151818401526020810190506138c9565b505050509050019a5050505050505050505050600060405180830381600087803b15801561391157600080fd5b505af1158015613925573d6000803e3d6000fd5b5050505060006139336131cb565b90508073ffffffffffffffffffffffffffffffffffffffff1663e33301aa8e6040518263ffffffff1660e01b8152600401808273ffffffffffffffffffffffffffffffffffffffff1673ffffffffffffffffffffffffffffffffffffffff168152602001915050600060405180830381600087803b1580156139b457600080fd5b505af11580156139c8573d6000803e3d6000fd5b505050508073ffffffffffffffffffffffffffffffffffffffff1663c22d3bba836040518263ffffffff1660e01b8152600401808273ffffffffffffffffffffffffffffffffffffffff1673ffffffffffffffffffffffffffffffffffffffff168152602001915050600060405180830381600087803b158015613a4b57600080fd5b505af1158015613a5f573d6000803e3d6000fd5b5050505050505050505050505050505050565b600033905090565b600080831415613a8d5760009050613afa565b6000828402905082848281613a9e57fe5b0414613af5576040517f08c379a0000000000000000000000000000000000000000000000000000000008152600401808060200182810382526021815260200180613ff26021913960400191505060405180910390fd5b809150505b92915050565b600080828401905083811015613b7e576040517f08c379a000000000000000000000000000000000000000000000000000000000815260040180806020018281038252601b8152602001807f536166654d6174683a206164646974696f6e206f766572666c6f77000000000081525060200191505060405180910390fd5b8091505092915050565b6000613bca83836040518060400160405280601a81526020017f536166654d6174683a206469766973696f6e206279207a65726f000000000000815250613d8d565b905092915050565b6000838311158290613c7f576040517f08c379a00000000000000000000000000000000000000000000000000000000081526004018080602001828103825283818151815260200191508051906020019080838360005b83811015613c44578082015181840152602081019050613c29565b50505050905090810190601f168015613c715780820380516001836020036101000a031916815260200191505b509250505060405180910390fd5b5060008385039050809150509392505050565b6000600160009054906101000a900473ffffffffffffffffffffffffffffffffffffffff1673ffffffffffffffffffffffffffffffffffffffff1663dcf0aaed60405160200180807f4c6f636b6564476f6c6400000000000000000000000000000000000000000000815250600a019050604051602081830303815290604052805190602001206040518263ffffffff1660e01b81526004018082815260200191505060206040518083038186803b158015613d4d57600080fd5b505afa158015613d61573d6000803e3d6000fd5b505050506040513d6020811015613d7757600080fd5b8101908080519060200190929190505050905090565b60008083118290613e39576040517f08c379a00000000000000000000000000000000000000000000000000000000081526004018080602001828103825283818151815260200191508051906020019080838360005b83811015613dfe578082015181840152602081019050613de3565b50505050905090810190601f168015613e2b5780820380516001836020036101000a031916815260200191505b509250505060405180910390fd5b506000838581613e4557fe5b04905080915050939250505056fe4e6f7420656e6f756768207369676e65727320696e2074686520666972737420626c6f636b6572726f722063616c6c696e67206e756d62657256616c696461746f7273496e53657420707265636f6d70696c6550656e616c74792068617320746f206265206c6172676572207468616e207265776172644f776e61626c653a206e6577206f776e657220697320746865207a65726f20616464726573736572726f722063616c6c696e672067657456657269666965645365616c4269746d617046726f6d48656164657220707265636f6d70696c656572726f722063616c6c696e672076616c696461746f725369676e65724164647265737346726f6d43757272656e7453657420707265636f6d70696c656572726f722063616c6c696e67206e756d62657256616c696461746f7273496e43757272656e7453657420707265636f6d70696c656572726f722063616c6c696e672076616c696461746f725369676e65724164647265737346726f6d53657420707265636f6d70696c65426c6f636b20686173686573206861766520746f20626520646966666572656e74536166654d6174683a206d756c7469706c69636174696f6e206f766572666c6f77426c6f636b2068656164657273206172652066726f6d20646966666572656e74206865696768746572726f722063616c6c696e67206672616374696f6e4d756c45787020707265636f6d70696c656572726f722063616c6c696e672067657445706f636853697a6520707265636f6d70696c656572726f722063616c6c696e6720676574506172656e745365616c4269746d617020707265636f6d70696c654e6f7420656e6f756768207369676e65727320696e20746865207365636f6e6420626c6f636b6572726f722063616c6c696e6720676574426c6f636b4e756d62657246726f6d48656164657220707265636f6d70696c656572726f722063616c6c696e67206861736848656164657220707265636f6d70696c65a165627a7a72305820b06f105a28129c3db3140d4174f27e324313acbd8d97161d5e41b1a1283cb3260029",
  "source": "pragma solidity ^0.5.3;\n\nimport \"openzeppelin-solidity/contracts/math/SafeMath.sol\";\n\nimport \"./SlasherUtil.sol\";\n\ncontract DoubleSigningSlasher is SlasherUtil {\n  using SafeMath for uint256;\n\n  // For each signer address, check if a block header has already been slashed\n  mapping(address => mapping(bytes32 => bool)) isSlashed;\n\n  event SlashingIncentivesSet(uint256 penalty, uint256 reward);\n\n  /**\n   * @notice Used in place of the constructor to allow the contract to be upgradable via proxy.\n   * @param registryAddress The address of the registry core smart contract.\n   * @param _penalty Penalty for the slashed signer.\n   * @param _reward Reward that the observer gets.\n   */\n  function initialize(address registryAddress, uint256 _penalty, uint256 _reward)\n    external\n    initializer\n  {\n    _transferOwnership(msg.sender);\n    setRegistry(registryAddress);\n    setSlashingIncentives(_penalty, _reward);\n  }\n\n  /**\n   * @notice Counts the number of set bits (Hamming weight).\n   * @param v Bitmap.\n   * @return Number of set bits.\n   */\n  function countSetBits(uint256 v) internal pure returns (uint256) {\n    uint256 res = 0;\n    uint256 acc = v;\n    for (uint256 i = 0; i < 256; i = i.add(1)) {\n      if (acc & 1 == 1) res = res.add(1);\n      acc = acc >> 1;\n    }\n    return res;\n  }\n\n  /**\n   * @notice Given two RLP encoded blocks, calls into precompiles to require that\n   * the two block hashes are different, have the same height, have a\n   * quorum of signatures, and that `signer` was part of the quorum.\n   * @param signer The signer to be slashed.\n   * @param index Validator index at the block.\n   * @param headerA First double signed block header.\n   * @param headerB Second double signed block header.\n   * @return Block number where double signing occured. Throws if no double signing is detected.\n   */\n  function checkForDoubleSigning(\n    address signer,\n    uint256 index,\n    bytes memory headerA,\n    bytes memory headerB\n  ) public view returns (uint256) {\n    require(hashHeader(headerA) != hashHeader(headerB), \"Block hashes have to be different\");\n    uint256 blockNumber = getBlockNumberFromHeader(headerA);\n    require(\n      blockNumber == getBlockNumberFromHeader(headerB),\n      \"Block headers are from different height\"\n    );\n    require(index < numberValidatorsInSet(blockNumber), \"Bad validator index\");\n    require(\n      signer == validatorSignerAddressFromSet(index, blockNumber),\n      \"Wasn't a signer with given index\"\n    );\n    uint256 mapA = uint256(getVerifiedSealBitmapFromHeader(headerA));\n    uint256 mapB = uint256(getVerifiedSealBitmapFromHeader(headerB));\n    require(mapA & (1 << index) != 0, \"Didn't sign first block\");\n    require(mapB & (1 << index) != 0, \"Didn't sign second block\");\n    require(\n      countSetBits(mapA) >= minQuorumSize(blockNumber),\n      \"Not enough signers in the first block\"\n    );\n    require(\n      countSetBits(mapB) >= minQuorumSize(blockNumber),\n      \"Not enough signers in the second block\"\n    );\n    return blockNumber;\n  }\n\n  function checkIfAlreadySlashed(address signer, bytes memory header) internal {\n    bytes32 bhash = hashHeader(header);\n    require(!isSlashed[signer][bhash], \"Already slashed\");\n    isSlashed[signer][bhash] = true;\n  }\n\n  /**\n   * @notice Requires that `eval` returns true and that this evidence has not\n   * already been used to slash `signer`.\n   * If so, fetches the `account` associated with `signer` and the group that\n   * `signer` was a member of during the corresponding epoch.\n   * Then, calls `LockedGold.slash` on both the validator and group accounts.\n   * Calls `Validators.removeSlashedMember` to remove the validator from its\n   * current group if it is a member of one.\n   * Finally, stores that hash(signer, blockNumber) has been slashed.\n   * @param signer The signer to be slashed.\n   * @param index Validator index at the block.\n   * @param headerA First double signed block header.\n   * @param headerB Second double signed block header.\n   * @param groupMembershipHistoryIndex Group membership index from where the group should be found.\n   * @param validatorElectionLessers Lesser pointers for validator slashing.\n   * @param validatorElectionGreaters Greater pointers for validator slashing.\n   * @param validatorElectionIndices Vote indices for validator slashing.\n   * @param groupElectionLessers Lesser pointers for group slashing.\n   * @param groupElectionGreaters Greater pointers for group slashing.\n   * @param groupElectionIndices Vote indices for group slashing.\n   */\n  function slash(\n    address signer,\n    uint256 index,\n    bytes memory headerA,\n    bytes memory headerB,\n    uint256 groupMembershipHistoryIndex,\n    address[] memory validatorElectionLessers,\n    address[] memory validatorElectionGreaters,\n    uint256[] memory validatorElectionIndices,\n    address[] memory groupElectionLessers,\n    address[] memory groupElectionGreaters,\n    uint256[] memory groupElectionIndices\n  ) public {\n    checkIfAlreadySlashed(signer, headerA);\n    checkIfAlreadySlashed(signer, headerB);\n    uint256 blockNumber = checkForDoubleSigning(signer, index, headerA, headerB);\n    address validator = getAccounts().signerToAccount(signer);\n    performSlashing(\n      validator,\n      msg.sender,\n      blockNumber,\n      groupMembershipHistoryIndex,\n      validatorElectionLessers,\n      validatorElectionGreaters,\n      validatorElectionIndices,\n      groupElectionLessers,\n      groupElectionGreaters,\n      groupElectionIndices\n    );\n  }\n\n}\n",
  "sourcePath": "/Users/cmcewen/celo/celo-monorepo/packages/protocol/contracts/governance/DoubleSigningSlasher.sol",
  "compiler": {
    "name": "solc",
    "version": "0.5.8+commit.23d335f2.Emscripten.clang"
  },
  "schemaVersion": "3.0.10",
  "updatedAt": "2020-04-09T23:47:17.914Z",
  "devdoc": {
    "methods": {
      "checkForDoubleSigning(address,uint256,bytes,bytes)": {
        "params": {
          "headerA": "First double signed block header.",
          "headerB": "Second double signed block header.",
          "index": "Validator index at the block.",
          "signer": "The signer to be slashed."
        },
        "return": "Block number where double signing occured. Throws if no double signing is detected."
      },
      "checkProofOfPossession(address,bytes,bytes)": {
        "params": {
          "blsKey": "The BLS public key that the validator is using for consensus, should pass proof  of possession. 48 bytes.",
          "blsPop": "The BLS public key proof-of-possession, which consists of a signature on the  account address. 96 bytes.",
          "sender": "The address signed by the BLS key to generate the proof of possession."
        },
        "return": "True upon success."
      },
      "fractionMulExp(uint256,uint256,uint256,uint256,uint256,uint256)": {
        "params": {
          "_decimals": "precision",
          "aDenominator": "Denominator of first fraction",
          "aNumerator": "Numerator of first fraction",
          "bDenominator": "Denominator of exponentiated fraction",
          "bNumerator": "Numerator of exponentiated fraction",
          "exponent": "exponent to raise b to"
        },
        "return": "numerator/denominator of the computed quantity (not reduced)."
      },
      "getBlockNumberFromHeader(bytes)": {
        "params": {
          "header": "RLP encoded header"
        },
        "return": "Block number."
      },
      "getEpochNumber()": {
        "return": "Current epoch number."
      },
      "getEpochNumberOfBlock(uint256)": {
        "params": {
          "blockNumber": "Block number where epoch number is calculated."
        },
        "return": "Epoch number."
      },
      "getEpochSize()": {
        "return": "The current epoch size in blocks."
      },
      "getParentSealBitmap(uint256)": {
        "params": {
          "blockNumber": "Block number to retrieve. Must be within 4 epochs of the current number."
        },
        "return": "Bitmap parent seal with set bits at indices corresponding to signing validators."
      },
      "getVerifiedSealBitmapFromHeader(bytes)": {
        "params": {
          "header": "RLP encoded header"
        },
        "return": "Bitmap parent seal with set bits at indices correspoinding to signing validators."
      },
      "groupMembershipAtBlock(address,uint256,uint256)": {
        "params": {
          "blockNumber": "Block number associated with slashing.",
          "groupMembershipHistoryIndex": "Index used for history lookup.",
          "validator": "Validator that was slashed."
        },
        "return": "Group to be slashed."
      },
      "hashHeader(bytes)": {
        "params": {
          "header": "RLP encoded header"
        },
        "return": "Header hash."
      },
      "initialize(address,uint256,uint256)": {
        "params": {
          "_penalty": "Penalty for the slashed signer.",
          "_reward": "Reward that the observer gets.",
          "registryAddress": "The address of the registry core smart contract."
        }
      },
      "isOwner()": {
        "details": "Returns true if the caller is the current owner."
      },
      "minQuorumSize(uint256)": {
        "details": "Computed in celo-blockchain as int(math.Ceil(float64(2*valSet.Size()) / 3))"
      },
      "minQuorumSizeInCurrentSet()": {
        "return": "Byzantine quorum of validators."
      },
      "numberValidatorsInCurrentSet()": {
        "return": "Size of the current elected validator set."
      },
      "numberValidatorsInSet(uint256)": {
        "params": {
          "blockNumber": "Block number to retrieve the validator set from."
        },
        "return": "Size of the validator set."
      },
      "owner()": {
        "details": "Returns the address of the current owner."
      },
      "renounceOwnership()": {
        "details": "Leaves the contract without owner. It will not be possible to call `onlyOwner` functions anymore. Can only be called by the current owner.     * NOTE: Renouncing ownership will leave the contract without an owner, thereby removing any functionality that is only available to the owner."
      },
      "setRegistry(address)": {
        "params": {
          "registryAddress": "The address of a registry contract for routing to other contracts."
        }
      },
      "setSlashingIncentives(uint256,uint256)": {
        "params": {
          "penalty": "Penalty for the slashed signer.",
          "reward": "Reward that the observer gets."
        }
      },
      "slash(address,uint256,bytes,bytes,uint256,address[],address[],uint256[],address[],address[],uint256[])": {
        "params": {
          "groupElectionGreaters": "Greater pointers for group slashing.",
          "groupElectionIndices": "Vote indices for group slashing.",
          "groupElectionLessers": "Lesser pointers for group slashing.",
          "groupMembershipHistoryIndex": "Group membership index from where the group should be found.",
          "headerA": "First double signed block header.",
          "headerB": "Second double signed block header.",
          "index": "Validator index at the block.",
          "signer": "The signer to be slashed.",
          "validatorElectionGreaters": "Greater pointers for validator slashing.",
          "validatorElectionIndices": "Vote indices for validator slashing.",
          "validatorElectionLessers": "Lesser pointers for validator slashing."
        }
      },
      "transferOwnership(address)": {
        "details": "Transfers ownership of the contract to a new account (`newOwner`). Can only be called by the current owner."
      },
      "validatorSignerAddressFromCurrentSet(uint256)": {
        "params": {
          "index": "Index of requested validator in the validator set."
        },
        "return": "Address of validator at the requested index."
      },
      "validatorSignerAddressFromSet(uint256,uint256)": {
        "params": {
          "blockNumber": "Block number to retrieve the validator set from.",
          "index": "Index of requested validator in the validator set."
        },
        "return": "Address of validator at the requested index."
      }
    }
  },
  "userdoc": {
    "methods": {
      "checkForDoubleSigning(address,uint256,bytes,bytes)": {
        "notice": "Given two RLP encoded blocks, calls into precompiles to require that the two block hashes are different, have the same height, have a quorum of signatures, and that `signer` was part of the quorum."
      },
      "checkProofOfPossession(address,bytes,bytes)": {
        "notice": "Checks a BLS proof of possession."
      },
      "fractionMulExp(uint256,uint256,uint256,uint256,uint256,uint256)": {
        "notice": "calculate a * b^x for fractions a, b to `decimals` precision"
      },
      "getBlockNumberFromHeader(bytes)": {
        "notice": "Parses block number out of header."
      },
      "getEpochNumber()": {
        "notice": "Returns the epoch number at a block."
      },
      "getEpochNumberOfBlock(uint256)": {
        "notice": "Returns the epoch number at a block."
      },
      "getEpochSize()": {
        "notice": "Returns the current epoch size in blocks."
      },
      "getParentSealBitmap(uint256)": {
        "notice": "Gets the parent seal bitmap from the header at the given block number."
      },
      "getVerifiedSealBitmapFromHeader(bytes)": {
        "notice": "Verifies the BLS signature on the header and returns the seal bitmap. The validator set used for verification is retrieved based on the parent hash field of the header.  If the parent hash is not in the blockchain, verification fails."
      },
      "groupMembershipAtBlock(address,uint256,uint256)": {
        "notice": "Returns the group to be slashed."
      },
      "hashHeader(bytes)": {
        "notice": "Computes hash of header."
      },
      "initialize(address,uint256,uint256)": {
        "notice": "Used in place of the constructor to allow the contract to be upgradable via proxy."
      },
      "minQuorumSize(uint256)": {
        "notice": "Returns the minimum number of required signers for a given block number."
      },
      "minQuorumSizeInCurrentSet()": {
        "notice": "Computes byzantine quorum from current validator set size"
      },
      "numberValidatorsInCurrentSet()": {
        "notice": "Gets the size of the current elected validator set."
      },
      "numberValidatorsInSet(uint256)": {
        "notice": "Gets the size of the validator set that must sign the given block number."
      },
      "setRegistry(address)": {
        "notice": "Updates the address pointing to a Registry contract."
      },
      "setSlashingIncentives(uint256,uint256)": {
        "notice": "Sets slashing incentives."
      },
      "slash(address,uint256,bytes,bytes,uint256,address[],address[],uint256[],address[],address[],uint256[])": {
        "notice": "Requires that `eval` returns true and that this evidence has not already been used to slash `signer`. If so, fetches the `account` associated with `signer` and the group that `signer` was a member of during the corresponding epoch. Then, calls `LockedGold.slash` on both the validator and group accounts. Calls `Validators.removeSlashedMember` to remove the validator from its current group if it is a member of one. Finally, stores that hash(signer, blockNumber) has been slashed."
      },
      "validatorSignerAddressFromCurrentSet(uint256)": {
        "notice": "Gets a validator address from the current validator set."
      },
      "validatorSignerAddressFromSet(uint256,uint256)": {
        "notice": "Gets a validator address from the validator set at the given block number."
      }
    }
  }
}