{
  "contractName": "DowntimeSlasher",
  "abi": [
    {
      "constant": true,
      "inputs": [],
      "name": "slashingIncentives",
      "outputs": [
        {
          "name": "penalty",
          "type": "uint256"
        },
        {
          "name": "reward",
          "type": "uint256"
        }
      ],
      "payable": false,
      "stateMutability": "view",
      "type": "function"
    },
    {
      "constant": true,
      "inputs": [
        {
          "name": "index",
          "type": "uint256"
        }
      ],
      "name": "validatorSignerAddressFromCurrentSet",
      "outputs": [
        {
          "name": "",
          "type": "address"
        }
      ],
      "payable": false,
      "stateMutability": "view",
      "type": "function"
    },
    {
      "constant": true,
      "inputs": [],
      "name": "initialized",
      "outputs": [
        {
          "name": "",
          "type": "bool"
        }
      ],
      "payable": false,
      "stateMutability": "view",
      "type": "function"
    },
    {
      "constant": true,
      "inputs": [
        {
          "name": "sender",
          "type": "address"
        },
        {
          "name": "blsKey",
          "type": "bytes"
        },
        {
          "name": "blsPop",
          "type": "bytes"
        }
      ],
      "name": "checkProofOfPossession",
      "outputs": [
        {
          "name": "",
          "type": "bool"
        }
      ],
      "payable": false,
      "stateMutability": "view",
      "type": "function"
    },
    {
      "constant": true,
      "inputs": [
        {
          "name": "blockNumber",
          "type": "uint256"
        }
      ],
      "name": "getEpochNumberOfBlock",
      "outputs": [
        {
          "name": "",
          "type": "uint256"
        }
      ],
      "payable": false,
      "stateMutability": "view",
      "type": "function"
    },
    {
      "constant": true,
      "inputs": [],
      "name": "slashableDowntime",
      "outputs": [
        {
          "name": "",
          "type": "uint256"
        }
      ],
      "payable": false,
      "stateMutability": "view",
      "type": "function"
    },
    {
      "constant": true,
      "inputs": [
        {
          "name": "header",
          "type": "bytes"
        }
      ],
      "name": "getVerifiedSealBitmapFromHeader",
      "outputs": [
        {
          "name": "",
          "type": "bytes32"
        }
      ],
      "payable": false,
      "stateMutability": "view",
      "type": "function"
    },
    {
      "constant": true,
      "inputs": [
        {
          "name": "index",
          "type": "uint256"
        },
        {
          "name": "blockNumber",
          "type": "uint256"
        }
      ],
      "name": "validatorSignerAddressFromSet",
      "outputs": [
        {
          "name": "",
          "type": "address"
        }
      ],
      "payable": false,
      "stateMutability": "view",
      "type": "function"
    },
    {
      "constant": true,
      "inputs": [
        {
          "name": "header",
          "type": "bytes"
        }
      ],
      "name": "hashHeader",
      "outputs": [
        {
          "name": "",
          "type": "bytes32"
        }
      ],
      "payable": false,
      "stateMutability": "view",
      "type": "function"
    },
    {
      "constant": false,
      "inputs": [],
      "name": "renounceOwnership",
      "outputs": [],
      "payable": false,
      "stateMutability": "nonpayable",
      "type": "function"
    },
    {
      "constant": true,
      "inputs": [],
      "name": "minQuorumSizeInCurrentSet",
      "outputs": [
        {
          "name": "",
          "type": "uint256"
        }
      ],
      "payable": false,
      "stateMutability": "view",
      "type": "function"
    },
    {
      "constant": true,
      "inputs": [],
      "name": "registry",
      "outputs": [
        {
          "name": "",
          "type": "address"
        }
      ],
      "payable": false,
      "stateMutability": "view",
      "type": "function"
    },
    {
      "constant": true,
      "inputs": [],
      "name": "numberValidatorsInCurrentSet",
      "outputs": [
        {
          "name": "",
          "type": "uint256"
        }
      ],
      "payable": false,
      "stateMutability": "view",
      "type": "function"
    },
    {
      "constant": true,
      "inputs": [
        {
          "name": "validator",
          "type": "address"
        },
        {
          "name": "blockNumber",
          "type": "uint256"
        },
        {
          "name": "groupMembershipHistoryIndex",
          "type": "uint256"
        }
      ],
      "name": "groupMembershipAtBlock",
      "outputs": [
        {
          "name": "",
          "type": "address"
        }
      ],
      "payable": false,
      "stateMutability": "view",
      "type": "function"
    },
    {
      "constant": true,
      "inputs": [
        {
          "name": "header",
          "type": "bytes"
        }
      ],
      "name": "getBlockNumberFromHeader",
      "outputs": [
        {
          "name": "",
          "type": "uint256"
        }
      ],
      "payable": false,
      "stateMutability": "view",
      "type": "function"
    },
    {
      "constant": true,
      "inputs": [],
      "name": "owner",
      "outputs": [
        {
          "name": "",
          "type": "address"
        }
      ],
      "payable": false,
      "stateMutability": "view",
      "type": "function"
    },
    {
      "constant": true,
      "inputs": [],
      "name": "isOwner",
      "outputs": [
        {
          "name": "",
          "type": "bool"
        }
      ],
      "payable": false,
      "stateMutability": "view",
      "type": "function"
    },
    {
      "constant": true,
      "inputs": [],
      "name": "getEpochNumber",
      "outputs": [
        {
          "name": "",
          "type": "uint256"
        }
      ],
      "payable": false,
      "stateMutability": "view",
      "type": "function"
    },
    {
      "constant": true,
      "inputs": [
        {
          "name": "blockNumber",
          "type": "uint256"
        }
      ],
      "name": "numberValidatorsInSet",
      "outputs": [
        {
          "name": "",
          "type": "uint256"
        }
      ],
      "payable": false,
      "stateMutability": "view",
      "type": "function"
    },
    {
      "constant": false,
      "inputs": [
        {
          "name": "registryAddress",
          "type": "address"
        }
      ],
      "name": "setRegistry",
      "outputs": [],
      "payable": false,
      "stateMutability": "nonpayable",
      "type": "function"
    },
    {
      "constant": false,
      "inputs": [
        {
          "name": "penalty",
          "type": "uint256"
        },
        {
          "name": "reward",
          "type": "uint256"
        }
      ],
      "name": "setSlashingIncentives",
      "outputs": [],
      "payable": false,
      "stateMutability": "nonpayable",
      "type": "function"
    },
    {
      "constant": true,
      "inputs": [],
      "name": "getEpochSize",
      "outputs": [
        {
          "name": "",
          "type": "uint256"
        }
      ],
      "payable": false,
      "stateMutability": "view",
      "type": "function"
    },
    {
      "constant": true,
      "inputs": [
        {
          "name": "blockNumber",
          "type": "uint256"
        }
      ],
      "name": "minQuorumSize",
      "outputs": [
        {
          "name": "",
          "type": "uint256"
        }
      ],
      "payable": false,
      "stateMutability": "view",
      "type": "function"
    },
    {
      "constant": true,
      "inputs": [
        {
          "name": "aNumerator",
          "type": "uint256"
        },
        {
          "name": "aDenominator",
          "type": "uint256"
        },
        {
          "name": "bNumerator",
          "type": "uint256"
        },
        {
          "name": "bDenominator",
          "type": "uint256"
        },
        {
          "name": "exponent",
          "type": "uint256"
        },
        {
          "name": "_decimals",
          "type": "uint256"
        }
      ],
      "name": "fractionMulExp",
      "outputs": [
        {
          "name": "",
          "type": "uint256"
        },
        {
          "name": "",
          "type": "uint256"
        }
      ],
      "payable": false,
      "stateMutability": "view",
      "type": "function"
    },
    {
      "constant": false,
      "inputs": [
        {
          "name": "newOwner",
          "type": "address"
        }
      ],
      "name": "transferOwnership",
      "outputs": [],
      "payable": false,
      "stateMutability": "nonpayable",
      "type": "function"
    },
    {
      "constant": true,
      "inputs": [
        {
          "name": "blockNumber",
          "type": "uint256"
        }
      ],
      "name": "getParentSealBitmap",
      "outputs": [
        {
          "name": "",
          "type": "bytes32"
        }
      ],
      "payable": false,
      "stateMutability": "view",
      "type": "function"
    },
    {
      "anonymous": false,
      "inputs": [
        {
          "indexed": false,
          "name": "interval",
          "type": "uint256"
        }
      ],
      "name": "SlashableDowntimeSet",
      "type": "event"
    },
    {
      "anonymous": false,
      "inputs": [
        {
          "indexed": false,
          "name": "penalty",
          "type": "uint256"
        },
        {
          "indexed": false,
          "name": "reward",
          "type": "uint256"
        }
      ],
      "name": "SlashingIncentivesSet",
      "type": "event"
    },
    {
      "anonymous": false,
      "inputs": [
        {
          "indexed": true,
          "name": "registryAddress",
          "type": "address"
        }
      ],
      "name": "RegistrySet",
      "type": "event"
    },
    {
      "anonymous": false,
      "inputs": [
        {
          "indexed": true,
          "name": "previousOwner",
          "type": "address"
        },
        {
          "indexed": true,
          "name": "newOwner",
          "type": "address"
        }
      ],
      "name": "OwnershipTransferred",
      "type": "event"
    },
    {
      "constant": false,
      "inputs": [
        {
          "name": "registryAddress",
          "type": "address"
        },
        {
          "name": "_penalty",
          "type": "uint256"
        },
        {
          "name": "_reward",
          "type": "uint256"
        },
        {
          "name": "_slashableDowntime",
          "type": "uint256"
        }
      ],
      "name": "initialize",
      "outputs": [],
      "payable": false,
      "stateMutability": "nonpayable",
      "type": "function"
    },
    {
      "constant": false,
      "inputs": [
        {
          "name": "interval",
          "type": "uint256"
        }
      ],
      "name": "setSlashableDowntime",
      "outputs": [],
      "payable": false,
      "stateMutability": "nonpayable",
      "type": "function"
    },
    {
      "constant": true,
      "inputs": [
        {
          "name": "startBlock",
          "type": "uint256"
        },
        {
          "name": "startSignerIndex",
          "type": "uint256"
        },
        {
          "name": "endSignerIndex",
          "type": "uint256"
        }
      ],
      "name": "isDown",
      "outputs": [
        {
          "name": "",
          "type": "bool"
        }
      ],
      "payable": false,
      "stateMutability": "view",
      "type": "function"
    },
    {
      "constant": false,
      "inputs": [
        {
          "name": "startBlock",
          "type": "uint256"
        },
        {
          "name": "startSignerIndex",
          "type": "uint256"
        },
        {
          "name": "endSignerIndex",
          "type": "uint256"
        },
        {
          "name": "groupMembershipHistoryIndex",
          "type": "uint256"
        },
        {
          "name": "validatorElectionLessers",
          "type": "address[]"
        },
        {
          "name": "validatorElectionGreaters",
          "type": "address[]"
        },
        {
          "name": "validatorElectionIndices",
          "type": "uint256[]"
        },
        {
          "name": "groupElectionLessers",
          "type": "address[]"
        },
        {
          "name": "groupElectionGreaters",
          "type": "address[]"
        },
        {
          "name": "groupElectionIndices",
          "type": "uint256[]"
        }
      ],
      "name": "slash",
      "outputs": [],
      "payable": false,
      "stateMutability": "nonpayable",
      "type": "function"
    }
  ],
  "bytecode": "0x608060405260006100146100b760201b60201c565b9050806000806101000a81548173ffffffffffffffffffffffffffffffffffffffff021916908373ffffffffffffffffffffffffffffffffffffffff1602179055508073ffffffffffffffffffffffffffffffffffffffff16600073ffffffffffffffffffffffffffffffffffffffff167f8be0079c531659141344cd1fd0a4f28419497f9722a3daafe3b4186f6b6457e060405160405180910390a3506100bf565b600033905090565b61426e80620000cf6000396000f3fe608060405234801561001057600080fd5b50600436106101da5760003560e01c806387ee8a0f11610104578063a91ee0dc116100a2578063ec68307211610071578063ec68307214610b1d578063f2fde38b14610b98578063f749929114610bdc578063fae8db0a14610fa1576101da565b8063a91ee0dc14610a41578063bd0d997914610a85578063df4da46114610abd578063e50e652d14610adb576101da565b80638da5cb5b116100de5780638da5cb5b146109755780638f32d59b146109bf5780639a7b3be7146109e15780639b2b592f146109ff576101da565b806387ee8a0f146107f057806388498aaf1461080e5780638a883626146108a6576101da565b80634d643e171161017c578063715018a61161014b578063715018a6146107245780637385e5da1461072e5780637b1039991461074c57806386bcf1e614610796576101da565b80634d643e171461054d5780634ec81af11461057b5780635d180adb146105dd57806367960e9114610655576101da565b806323f0ab65116101b857806323f0ab65146102945780633b1eb4bf1461041e5780634227d971146104605780634b2c2f441461047e576101da565b80630a05cd84146101df578063123633ea14610204578063158ef93e14610272575b600080fd5b6101e7610fe3565b604051808381526020018281526020019250505060405180910390f35b6102306004803603602081101561021a57600080fd5b8101908080359060200190929190505050610ff5565b604051808273ffffffffffffffffffffffffffffffffffffffff1673ffffffffffffffffffffffffffffffffffffffff16815260200191505060405180910390f35b61027a611146565b604051808215151515815260200191505060405180910390f35b610404600480360360608110156102aa57600080fd5b81019080803573ffffffffffffffffffffffffffffffffffffffff169060200190929190803590602001906401000000008111156102e757600080fd5b8201836020820111156102f957600080fd5b8035906020019184600183028401116401000000008311171561031b57600080fd5b91908080601f016020809104026020016040519081016040528093929190818152602001838380828437600081840152601f19601f8201169050808301925050505050505091929192908035906020019064010000000081111561037e57600080fd5b82018360208201111561039057600080fd5b803590602001918460018302840111640100000000831117156103b257600080fd5b91908080601f016020809104026020016040519081016040528093929190818152602001838380828437600081840152601f19601f820116905080830192505050505050509192919290505050611159565b604051808215151515815260200191505060405180910390f35b61044a6004803603602081101561043457600080fd5b8101908080359060200190929190505050611312565b6040518082815260200191505060405180910390f35b61046861132c565b6040518082815260200191505060405180910390f35b6105376004803603602081101561049457600080fd5b81019080803590602001906401000000008111156104b157600080fd5b8201836020820111156104c357600080fd5b803590602001918460018302840111640100000000831117156104e557600080fd5b91908080601f016020809104026020016040519081016040528093929190818152602001838380828437600081840152601f19601f820116905080830192505050505050509192919290505050611332565b6040518082815260200191505060405180910390f35b6105796004803603602081101561056357600080fd5b81019080803590602001909291905050506114c6565b005b6105db6004803603608081101561059157600080fd5b81019080803573ffffffffffffffffffffffffffffffffffffffff16906020019092919080359060200190929190803590602001909291908035906020019092919050505061163a565b005b610613600480360360408110156105f357600080fd5b810190808035906020019092919080359060200190929190505050611703565b604051808273ffffffffffffffffffffffffffffffffffffffff1673ffffffffffffffffffffffffffffffffffffffff16815260200191505060405180910390f35b61070e6004803603602081101561066b57600080fd5b810190808035906020019064010000000081111561068857600080fd5b82018360208201111561069a57600080fd5b803590602001918460018302840111640100000000831117156106bc57600080fd5b91908080601f016020809104026020016040519081016040528093929190818152602001838380828437600081840152601f19601f820116905080830192505050505050509192919290505050611855565b6040518082815260200191505060405180910390f35b61072c6119e9565b005b610736611b22565b6040518082815260200191505060405180910390f35b610754611b32565b604051808273ffffffffffffffffffffffffffffffffffffffff1673ffffffffffffffffffffffffffffffffffffffff16815260200191505060405180910390f35b6107d6600480360360608110156107ac57600080fd5b81019080803590602001909291908035906020019092919080359060200190929190505050611b58565b604051808215151515815260200191505060405180910390f35b6107f8611f94565b6040518082815260200191505060405180910390f35b6108646004803603606081101561082457600080fd5b81019080803573ffffffffffffffffffffffffffffffffffffffff16906020019092919080359060200190929190803590602001909291905050506120db565b604051808273ffffffffffffffffffffffffffffffffffffffff1673ffffffffffffffffffffffffffffffffffffffff16815260200191505060405180910390f35b61095f600480360360208110156108bc57600080fd5b81019080803590602001906401000000008111156108d957600080fd5b8201836020820111156108eb57600080fd5b8035906020019184600183028401116401000000008311171561090d57600080fd5b91908080601f016020809104026020016040519081016040528093929190818152602001838380828437600081840152601f19601f82011690508083019250505050505050919291929050505061224c565b6040518082815260200191505060405180910390f35b61097d6123e0565b604051808273ffffffffffffffffffffffffffffffffffffffff1673ffffffffffffffffffffffffffffffffffffffff16815260200191505060405180910390f35b6109c7612409565b604051808215151515815260200191505060405180910390f35b6109e9612467565b6040518082815260200191505060405180910390f35b610a2b60048036036020811015610a1557600080fd5b8101908080359060200190929190505050612477565b6040518082815260200191505060405180910390f35b610a8360048036036020811015610a5757600080fd5b81019080803573ffffffffffffffffffffffffffffffffffffffff1690602001909291905050506125c0565b005b610abb60048036036040811015610a9b57600080fd5b810190808035906020019092919080359060200190929190505050612764565b005b610ac561288d565b6040518082815260200191505060405180910390f35b610b0760048036036020811015610af157600080fd5b81019080803590602001909291905050506129c9565b6040518082815260200191505060405180910390f35b610b7b600480360360c0811015610b3357600080fd5b81019080803590602001909291908035906020019092919080359060200190929190803590602001909291908035906020019092919080359060200190929190505050612a14565b604051808381526020018281526020019250505060405180910390f35b610bda60048036036020811015610bae57600080fd5b81019080803573ffffffffffffffffffffffffffffffffffffffff169060200190929190505050612c28565b005b610f9f6004803603610140811015610bf357600080fd5b810190808035906020019092919080359060200190929190803590602001909291908035906020019092919080359060200190640100000000811115610c3857600080fd5b820183602082011115610c4a57600080fd5b80359060200191846020830284011164010000000083111715610c6c57600080fd5b919080806020026020016040519081016040528093929190818152602001838360200280828437600081840152601f19601f82011690508083019250505050505050919291929080359060200190640100000000811115610ccc57600080fd5b820183602082011115610cde57600080fd5b80359060200191846020830284011164010000000083111715610d0057600080fd5b919080806020026020016040519081016040528093929190818152602001838360200280828437600081840152601f19601f82011690508083019250505050505050919291929080359060200190640100000000811115610d6057600080fd5b820183602082011115610d7257600080fd5b80359060200191846020830284011164010000000083111715610d9457600080fd5b919080806020026020016040519081016040528093929190818152602001838360200280828437600081840152601f19601f82011690508083019250505050505050919291929080359060200190640100000000811115610df457600080fd5b820183602082011115610e0657600080fd5b80359060200191846020830284011164010000000083111715610e2857600080fd5b919080806020026020016040519081016040528093929190818152602001838360200280828437600081840152601f19601f82011690508083019250505050505050919291929080359060200190640100000000811115610e8857600080fd5b820183602082011115610e9a57600080fd5b80359060200191846020830284011164010000000083111715610ebc57600080fd5b919080806020026020016040519081016040528093929190818152602001838360200280828437600081840152601f19601f82011690508083019250505050505050919291929080359060200190640100000000811115610f1c57600080fd5b820183602082011115610f2e57600080fd5b80359060200191846020830284011164010000000083111715610f5057600080fd5b919080806020026020016040519081016040528093929190818152602001838360200280828437600081840152601f19601f820116905080830192505050505050509192919290505050612cae565b005b610fcd60048036036020811015610fb757600080fd5b8101908080359060200190929190505050612e20565b6040518082815260200191505060405180910390f35b60028060000154908060010154905082565b60006060600060fa73ffffffffffffffffffffffffffffffffffffffff16844360405160200180838152602001828152602001925050506040516020818303038152906040526040518082805190602001908083835b6020831061106e578051825260208201915060208101905060208303925061104b565b6001836020036101000a038019825116818451168082178552505050505050905001915050600060405180830381855afa9150503d80600081146110ce576040519150601f19603f3d011682016040523d82523d6000602084013e6110d3565b606091505b50809350819250505080611132576040517f08c379a000000000000000000000000000000000000000000000000000000000815260040180806020018281038252603d815260200180614082603d913960400191505060405180910390fd5b61113d826000612f69565b92505050919050565b600060149054906101000a900460ff1681565b60008060fb73ffffffffffffffffffffffffffffffffffffffff16858585604051602001808473ffffffffffffffffffffffffffffffffffffffff1673ffffffffffffffffffffffffffffffffffffffff1660601b815260140183805190602001908083835b602083106111e257805182526020820191506020810190506020830392506111bf565b6001836020036101000a03801982511681845116808217855250505050505090500182805190602001908083835b602083106112335780518252602082019150602081019050602083039250611210565b6001836020036101000a03801982511681845116808217855250505050505090500193505050506040516020818303038152906040526040518082805190602001908083835b6020831061129c5780518252602082019150602081019050602083039250611279565b6001836020036101000a038019825116818451168082178552505050505050905001915050600060405180830381855afa9150503d80600081146112fc576040519150601f19603f3d011682016040523d82523d6000602084013e611301565b606091505b505080915050809150509392505050565b60006113258261132061288d565b612f80565b9050919050565b60055481565b60006060600060f473ffffffffffffffffffffffffffffffffffffffff16846040516020018082805190602001908083835b602083106113875780518252602082019150602081019050602083039250611364565b6001836020036101000a0380198251168184511680821785525050505050509050019150506040516020818303038152906040526040518082805190602001908083835b602083106113ee57805182526020820191506020810190506020830392506113cb565b6001836020036101000a038019825116818451168082178552505050505050905001915050600060405180830381855afa9150503d806000811461144e576040519150601f19603f3d011682016040523d82523d6000602084013e611453565b606091505b508093508192505050806114b2576040517f08c379a000000000000000000000000000000000000000000000000000000000815260040180806020018281038252603881526020018061404a6038913960400191505060405180910390fd5b6114bd826000612fb8565b92505050919050565b6114ce612409565b611540576040517f08c379a00000000000000000000000000000000000000000000000000000000081526004018080602001828103825260208152602001807f4f776e61626c653a2063616c6c6572206973206e6f7420746865206f776e657281525060200191505060405180910390fd5b600081141561159a576040517f08c379a0000000000000000000000000000000000000000000000000000000008152600401808060200182810382526021815260200180613f5d6021913960400191505060405180910390fd5b6115a261288d565b81106115f9576040517f08c379a00000000000000000000000000000000000000000000000000000000081526004018080602001828103825260328152602001806140186032913960400191505060405180910390fd5b806005819055507fc3293b70d45615822039f6f13747ece88efbbb4e645c42070413a6c3fd21d771816040518082815260200191505060405180910390a150565b600060149054906101000a900460ff16156116bd576040517f08c379a000000000000000000000000000000000000000000000000000000000815260040180806020018281038252601c8152602001807f636f6e747261637420616c726561647920696e697469616c697a65640000000081525060200191505060405180910390fd5b6001600060146101000a81548160ff0219169083151502179055506116e133613049565b6116ea846125c0565b6116f48383612764565b6116fd816114c6565b50505050565b60006060600060fa73ffffffffffffffffffffffffffffffffffffffff16858560405160200180838152602001828152602001925050506040516020818303038152906040526040518082805190602001908083835b6020831061177c5780518252602082019150602081019050602083039250611759565b6001836020036101000a038019825116818451168082178552505050505050905001915050600060405180830381855afa9150503d80600081146117dc576040519150601f19603f3d011682016040523d82523d6000602084013e6117e1565b606091505b50809350819250505080611840576040517f08c379a00000000000000000000000000000000000000000000000000000000081526004018080602001828103825260368152602001806140f46036913960400191505060405180910390fd5b61184b826000612f69565b9250505092915050565b60006060600060f673ffffffffffffffffffffffffffffffffffffffff16846040516020018082805190602001908083835b602083106118aa5780518252602082019150602081019050602083039250611887565b6001836020036101000a0380198251168184511680821785525050505050509050019150506040516020818303038152906040526040518082805190602001908083835b6020831061191157805182526020820191506020810190506020830392506118ee565b6001836020036101000a038019825116818451168082178552505050505050905001915050600060405180830381855afa9150503d8060008114611971576040519150601f19603f3d011682016040523d82523d6000602084013e611976565b606091505b508093508192505050806119d5576040517f08c379a00000000000000000000000000000000000000000000000000000000081526004018080602001828103825260238152602001806142206023913960400191505060405180910390fd5b6119e0826000612fb8565b92505050919050565b6119f1612409565b611a63576040517f08c379a00000000000000000000000000000000000000000000000000000000081526004018080602001828103825260208152602001807f4f776e61626c653a2063616c6c6572206973206e6f7420746865206f776e657281525060200191505060405180910390fd5b600073ffffffffffffffffffffffffffffffffffffffff166000809054906101000a900473ffffffffffffffffffffffffffffffffffffffff1673ffffffffffffffffffffffffffffffffffffffff167f8be0079c531659141344cd1fd0a4f28419497f9722a3daafe3b4186f6b6457e060405160405180910390a360008060006101000a81548173ffffffffffffffffffffffffffffffffffffffff021916908373ffffffffffffffffffffffffffffffffffffffff160217905550565b6000611b2d436129c9565b905090565b600160009054906101000a900473ffffffffffffffffffffffffffffffffffffffff1681565b600080611b648561318d565b9050611b7a6001436131be90919063ffffffff16565b8110611bd1576040517f08c379a000000000000000000000000000000000000000000000000000000000815260040180806020018281038252602c815260200180614197602c913960400191505060405180910390fd5b611bda85612477565b8410611c31576040517f08c379a0000000000000000000000000000000000000000000000000000000008152600401808060200182810382526022815260200180613ff66022913960400191505060405180910390fd5b611c3a81612477565b8310611cae576040517f08c379a00000000000000000000000000000000000000000000000000000000081526004018080602001828103825260208152602001807f4261642076616c696461746f7220696e64657820617420656e6420626c6f636b81525060200191505060405180910390fd5b6000611cba8587611703565b90506000611cc88584611703565b90506000611cd4613208565b90508073ffffffffffffffffffffffffffffffffffffffff166393c5c487836040518263ffffffff1660e01b8152600401808273ffffffffffffffffffffffffffffffffffffffff1673ffffffffffffffffffffffffffffffffffffffff16815260200191505060206040518083038186803b158015611d5357600080fd5b505afa158015611d67573d6000803e3d6000fd5b505050506040513d6020811015611d7d57600080fd5b810190808051906020019092919050505073ffffffffffffffffffffffffffffffffffffffff168173ffffffffffffffffffffffffffffffffffffffff166393c5c487856040518263ffffffff1660e01b8152600401808273ffffffffffffffffffffffffffffffffffffffff1673ffffffffffffffffffffffffffffffffffffffff16815260200191505060206040518083038186803b158015611e2157600080fd5b505afa158015611e35573d6000803e3d6000fd5b505050506040513d6020811015611e4b57600080fd5b810190808051906020019092919050505073ffffffffffffffffffffffffffffffffffffffff1614611ee5576040517f08c379a00000000000000000000000000000000000000000000000000000000081526004018080602001828103825260148152602001807f5369676e65727320646f206e6f74206d6174636800000000000000000000000081525060200191505060405180910390fd5b6000611eef61288d565b90506000611efd8a83612f80565b905060008a90505b868111611f8157600082611f198386612f80565b14611f245789611f26565b8a5b90506000816001901b611f4b611f4660018661330390919063ffffffff16565b612e20565b60001c1614611f6557600098505050505050505050611f8d565b50611f7a60018261330390919063ffffffff16565b9050611f05565b50600196505050505050505b9392505050565b60006060600060f973ffffffffffffffffffffffffffffffffffffffff1643604051602001808281526020019150506040516020818303038152906040526040518082805190602001908083835b602083106120055780518252602082019150602081019050602083039250611fe2565b6001836020036101000a038019825116818451168082178552505050505050905001915050600060405180830381855afa9150503d8060008114612065576040519150601f19603f3d011682016040523d82523d6000602084013e61206a565b606091505b508093508192505050806120c9576040517f08c379a00000000000000000000000000000000000000000000000000000000081526004018080602001828103825260358152602001806140bf6035913960400191505060405180910390fd5b6120d4826000612f69565b9250505090565b6000806120e784611312565b90506000811415612160576040517f08c379a00000000000000000000000000000000000000000000000000000000081526004018080602001828103825260178152602001807f43616e6e6f7420736c617368206f6e2065706f6368203000000000000000000081525060200191505060405180910390fd5b61216861338b565b73ffffffffffffffffffffffffffffffffffffffff1663eb1d0b42866121986001856131be90919063ffffffff16565b866040518463ffffffff1660e01b8152600401808473ffffffffffffffffffffffffffffffffffffffff1673ffffffffffffffffffffffffffffffffffffffff168152602001838152602001828152602001935050505060206040518083038186803b15801561220757600080fd5b505afa15801561221b573d6000803e3d6000fd5b505050506040513d602081101561223157600080fd5b81019080805190602001909291905050509150509392505050565b60006060600060f773ffffffffffffffffffffffffffffffffffffffff16846040516020018082805190602001908083835b602083106122a1578051825260208201915060208101905060208303925061227e565b6001836020036101000a0380198251168184511680821785525050505050509050019150506040516020818303038152906040526040518082805190602001908083835b6020831061230857805182526020820191506020810190506020830392506122e5565b6001836020036101000a038019825116818451168082178552505050505050905001915050600060405180830381855afa9150503d8060008114612368576040519150601f19603f3d011682016040523d82523d6000602084013e61236d565b606091505b508093508192505050806123cc576040517f08c379a00000000000000000000000000000000000000000000000000000000081526004018080602001828103825260318152602001806141ef6031913960400191505060405180910390fd5b6123d7826000612f69565b92505050919050565b60008060009054906101000a900473ffffffffffffffffffffffffffffffffffffffff16905090565b60008060009054906101000a900473ffffffffffffffffffffffffffffffffffffffff1673ffffffffffffffffffffffffffffffffffffffff1661244b613486565b73ffffffffffffffffffffffffffffffffffffffff1614905090565b600061247243611312565b905090565b60006060600060f973ffffffffffffffffffffffffffffffffffffffff1684604051602001808281526020019150506040516020818303038152906040526040518082805190602001908083835b602083106124e857805182526020820191506020810190506020830392506124c5565b6001836020036101000a038019825116818451168082178552505050505050905001915050600060405180830381855afa9150503d8060008114612548576040519150601f19603f3d011682016040523d82523d6000602084013e61254d565b606091505b508093508192505050806125ac576040517f08c379a000000000000000000000000000000000000000000000000000000000815260040180806020018281038252602e815260200180613f7e602e913960400191505060405180910390fd5b6125b7826000612f69565b92505050919050565b6125c8612409565b61263a576040517f08c379a00000000000000000000000000000000000000000000000000000000081526004018080602001828103825260208152602001807f4f776e61626c653a2063616c6c6572206973206e6f7420746865206f776e657281525060200191505060405180910390fd5b600073ffffffffffffffffffffffffffffffffffffffff168173ffffffffffffffffffffffffffffffffffffffff1614156126dd576040517f08c379a00000000000000000000000000000000000000000000000000000000081526004018080602001828103825260208152602001807f43616e6e6f7420726567697374657220746865206e756c6c206164647265737381525060200191505060405180910390fd5b80600160006101000a81548173ffffffffffffffffffffffffffffffffffffffff021916908373ffffffffffffffffffffffffffffffffffffffff1602179055508073ffffffffffffffffffffffffffffffffffffffff167f27fe5f0c1c3b1ed427cc63d0f05759ffdecf9aec9e18d31ef366fc8a6cb5dc3b60405160405180910390a250565b61276c612409565b6127de576040517f08c379a00000000000000000000000000000000000000000000000000000000081526004018080602001828103825260208152602001807f4f776e61626c653a2063616c6c6572206973206e6f7420746865206f776e657281525060200191505060405180910390fd5b808211612836576040517f08c379a0000000000000000000000000000000000000000000000000000000008152600401808060200182810382526024815260200180613fac6024913960400191505060405180910390fd5b81600260000181905550806002600101819055507f716dc7c34384df36c6ccc5a2949f2ce9b019f5d4075ef39139a80038a4fdd1c38282604051808381526020018281526020019250505060405180910390a15050565b60006060600060f873ffffffffffffffffffffffffffffffffffffffff166040516020016040516020818303038152906040526040518082805190602001908083835b602083106128f357805182526020820191506020810190506020830392506128d0565b6001836020036101000a038019825116818451168082178552505050505050905001915050600060405180830381855afa9150503d8060008114612953576040519150601f19603f3d011682016040523d82523d6000602084013e612958565b606091505b508093508192505050806129b7576040517f08c379a00000000000000000000000000000000000000000000000000000000081526004018080602001828103825260258152602001806141726025913960400191505060405180910390fd5b6129c2826000612f69565b9250505090565b6000612a0d60036129ff60026129f160026129e388612477565b61348e90919063ffffffff16565b61330390919063ffffffff16565b61351490919063ffffffff16565b9050919050565b60008060008714158015612a29575060008514155b612a9b576040517f08c379a00000000000000000000000000000000000000000000000000000000081526004018080602001828103825260158152602001807f612064656e6f6d696e61746f72206973207a65726f000000000000000000000081525060200191505060405180910390fd5b6000806000606060fc73ffffffffffffffffffffffffffffffffffffffff168c8c8c8c8c8c6040516020018087815260200186815260200185815260200184815260200183815260200182815260200196505050505050506040516020818303038152906040526040518082805190602001908083835b60208310612b355780518252602082019150602081019050602083039250612b12565b6001836020036101000a038019825116818451168082178552505050505050905001915050600060405180830381855afa9150503d8060008114612b95576040519150601f19603f3d011682016040523d82523d6000602084013e612b9a565b606091505b50809250819350505081612bf9576040517f08c379a000000000000000000000000000000000000000000000000000000000815260040180806020018281038252602781526020018061414b6027913960400191505060405180910390fd5b612c04816000612f69565b9350612c11816020612f69565b925083839550955050505050965096945050505050565b612c30612409565b612ca2576040517f08c379a00000000000000000000000000000000000000000000000000000000081526004018080602001828103825260208152602001807f4f776e61626c653a2063616c6c6572206973206e6f7420746865206f776e657281525060200191505060405180910390fd5b612cab81613049565b50565b6000612cb8613208565b73ffffffffffffffffffffffffffffffffffffffff166393c5c487612cdd8c8e611703565b6040518263ffffffff1660e01b8152600401808273ffffffffffffffffffffffffffffffffffffffff1673ffffffffffffffffffffffffffffffffffffffff16815260200191505060206040518083038186803b158015612d3d57600080fd5b505afa158015612d51573d6000803e3d6000fd5b505050506040513d6020811015612d6757600080fd5b81019080805190602001909291905050509050612d84818c61355e565b612d8f8b8b8b611b58565b612e01576040517f08c379a00000000000000000000000000000000000000000000000000000000081526004018080602001828103825260088152602001807f4e6f7420646f776e00000000000000000000000000000000000000000000000081525060200191505060405180910390fd5b612e1381338d8b8b8b8b8b8b8b6137c0565b5050505050505050505050565b60006060600060f573ffffffffffffffffffffffffffffffffffffffff1684604051602001808281526020019150506040516020818303038152906040526040518082805190602001908083835b60208310612e915780518252602082019150602081019050602083039250612e6e565b6001836020036101000a038019825116818451168082178552505050505050905001915050600060405180830381855afa9150503d8060008114612ef1576040519150601f19603f3d011682016040523d82523d6000602084013e612ef6565b606091505b50809350819250505080612f55576040517f08c379a000000000000000000000000000000000000000000000000000000000815260040180806020018281038252602c8152602001806141c3602c913960400191505060405180910390fd5b612f60826000612fb8565b92505050919050565b6000612f758383612fb8565b60001c905092915050565b600080828481612f8c57fe5b0490506000838581612f9a57fe5b061415612faa5780915050612fb2565b600181019150505b92915050565b60006020820183511015613034576040517f08c379a00000000000000000000000000000000000000000000000000000000081526004018080602001828103825260148152602001807f736c6963696e67206f7574206f662072616e676500000000000000000000000081525060200191505060405180910390fd5b60006020830184015190508091505092915050565b600073ffffffffffffffffffffffffffffffffffffffff168173ffffffffffffffffffffffffffffffffffffffff1614156130cf576040517f08c379a0000000000000000000000000000000000000000000000000000000008152600401808060200182810382526026815260200180613fd06026913960400191505060405180910390fd5b8073ffffffffffffffffffffffffffffffffffffffff166000809054906101000a900473ffffffffffffffffffffffffffffffffffffffff1673ffffffffffffffffffffffffffffffffffffffff167f8be0079c531659141344cd1fd0a4f28419497f9722a3daafe3b4186f6b6457e060405160405180910390a3806000806101000a81548173ffffffffffffffffffffffffffffffffffffffff021916908373ffffffffffffffffffffffffffffffffffffffff16021790555050565b60006131b760016131a96005548561330390919063ffffffff16565b6131be90919063ffffffff16565b9050919050565b600061320083836040518060400160405280601e81526020017f536166654d6174683a207375627472616374696f6e206f766572666c6f770000815250613cdb565b905092915050565b6000600160009054906101000a900473ffffffffffffffffffffffffffffffffffffffff1673ffffffffffffffffffffffffffffffffffffffff1663dcf0aaed60405160200180807f4163636f756e74730000000000000000000000000000000000000000000000008152506008019050604051602081830303815290604052805190602001206040518263ffffffff1660e01b81526004018082815260200191505060206040518083038186803b1580156132c357600080fd5b505afa1580156132d7573d6000803e3d6000fd5b505050506040513d60208110156132ed57600080fd5b8101908080519060200190929190505050905090565b600080828401905083811015613381576040517f08c379a000000000000000000000000000000000000000000000000000000000815260040180806020018281038252601b8152602001807f536166654d6174683a206164646974696f6e206f766572666c6f77000000000081525060200191505060405180910390fd5b8091505092915050565b6000600160009054906101000a900473ffffffffffffffffffffffffffffffffffffffff1673ffffffffffffffffffffffffffffffffffffffff1663dcf0aaed60405160200180807f56616c696461746f727300000000000000000000000000000000000000000000815250600a019050604051602081830303815290604052805190602001206040518263ffffffff1660e01b81526004018082815260200191505060206040518083038186803b15801561344657600080fd5b505afa15801561345a573d6000803e3d6000fd5b505050506040513d602081101561347057600080fd5b8101908080519060200190929190505050905090565b600033905090565b6000808314156134a1576000905061350e565b60008284029050828482816134b257fe5b0414613509576040517f08c379a000000000000000000000000000000000000000000000000000000000815260040180806020018281038252602181526020018061412a6021913960400191505060405180910390fd5b809150505b92915050565b600061355683836040518060400160405280601a81526020017f536166654d6174683a206469766973696f6e206279207a65726f000000000000815250613d9b565b905092915050565b60006135698261318d565b9050600061357683611312565b9050600061358383611312565b905083600460008773ffffffffffffffffffffffffffffffffffffffff1673ffffffffffffffffffffffffffffffffffffffff1681526020019081526020016000206000848152602001908152602001600020541061364a576040517f08c379a000000000000000000000000000000000000000000000000000000000815260040180806020018281038252600f8152602001807f416c726561647920736c6173686564000000000000000000000000000000000081525060200191505060405180910390fd5b83600460008773ffffffffffffffffffffffffffffffffffffffff1673ffffffffffffffffffffffffffffffffffffffff1681526020019081526020016000206000838152602001908152602001600020541061370f576040517f08c379a000000000000000000000000000000000000000000000000000000000815260040180806020018281038252600f8152602001807f416c726561647920736c6173686564000000000000000000000000000000000081525060200191505060405180910390fd5b82600460008773ffffffffffffffffffffffffffffffffffffffff1673ffffffffffffffffffffffffffffffffffffffff16815260200190815260200160002060008481526020019081526020016000208190555082600460008773ffffffffffffffffffffffffffffffffffffffff1673ffffffffffffffffffffffffffffffffffffffff1681526020019081526020016000206000838152602001908152602001600020819055505050505050565b60006137ca613e61565b90508073ffffffffffffffffffffffffffffffffffffffff166331993fc98c6002600001548d6002600101548c8c8c6040518863ffffffff1660e01b8152600401808873ffffffffffffffffffffffffffffffffffffffff1673ffffffffffffffffffffffffffffffffffffffff1681526020018781526020018673ffffffffffffffffffffffffffffffffffffffff1673ffffffffffffffffffffffffffffffffffffffff168152602001858152602001806020018060200180602001848103845287818151815260200191508051906020019060200280838360005b838110156138c35780820151818401526020810190506138a8565b50505050905001848103835286818151815260200191508051906020019060200280838360005b838110156139055780820151818401526020810190506138ea565b50505050905001848103825285818151815260200191508051906020019060200280838360005b8381101561394757808201518184015260208101905061392c565b505050509050019a5050505050505050505050600060405180830381600087803b15801561397457600080fd5b505af1158015613988573d6000803e3d6000fd5b5050505060006139998c8b8b6120db565b9050600073ffffffffffffffffffffffffffffffffffffffff168173ffffffffffffffffffffffffffffffffffffffff1614156139d257fe5b8173ffffffffffffffffffffffffffffffffffffffff166331993fc9826002600001548e6002600101548a8a8a6040518863ffffffff1660e01b8152600401808873ffffffffffffffffffffffffffffffffffffffff1673ffffffffffffffffffffffffffffffffffffffff1681526020018781526020018673ffffffffffffffffffffffffffffffffffffffff1673ffffffffffffffffffffffffffffffffffffffff168152602001858152602001806020018060200180602001848103845287818151815260200191508051906020019060200280838360005b83811015613ac9578082015181840152602081019050613aae565b50505050905001848103835286818151815260200191508051906020019060200280838360005b83811015613b0b578082015181840152602081019050613af0565b50505050905001848103825285818151815260200191508051906020019060200280838360005b83811015613b4d578082015181840152602081019050613b32565b505050509050019a5050505050505050505050600060405180830381600087803b158015613b7a57600080fd5b505af1158015613b8e573d6000803e3d6000fd5b505050506000613b9c61338b565b90508073ffffffffffffffffffffffffffffffffffffffff1663e33301aa8e6040518263ffffffff1660e01b8152600401808273ffffffffffffffffffffffffffffffffffffffff1673ffffffffffffffffffffffffffffffffffffffff168152602001915050600060405180830381600087803b158015613c1d57600080fd5b505af1158015613c31573d6000803e3d6000fd5b505050508073ffffffffffffffffffffffffffffffffffffffff1663c22d3bba836040518263ffffffff1660e01b8152600401808273ffffffffffffffffffffffffffffffffffffffff1673ffffffffffffffffffffffffffffffffffffffff168152602001915050600060405180830381600087803b158015613cb457600080fd5b505af1158015613cc8573d6000803e3d6000fd5b5050505050505050505050505050505050565b6000838311158290613d88576040517f08c379a00000000000000000000000000000000000000000000000000000000081526004018080602001828103825283818151815260200191508051906020019080838360005b83811015613d4d578082015181840152602081019050613d32565b50505050905090810190601f168015613d7a5780820380516001836020036101000a031916815260200191505b509250505060405180910390fd5b5060008385039050809150509392505050565b60008083118290613e47576040517f08c379a00000000000000000000000000000000000000000000000000000000081526004018080602001828103825283818151815260200191508051906020019080838360005b83811015613e0c578082015181840152602081019050613df1565b50505050905090810190601f168015613e395780820380516001836020036101000a031916815260200191505b509250505060405180910390fd5b506000838581613e5357fe5b049050809150509392505050565b6000600160009054906101000a900473ffffffffffffffffffffffffffffffffffffffff1673ffffffffffffffffffffffffffffffffffffffff1663dcf0aaed60405160200180807f4c6f636b6564476f6c6400000000000000000000000000000000000000000000815250600a019050604051602081830303815290604052805190602001206040518263ffffffff1660e01b81526004018082815260200191505060206040518083038186803b158015613f1c57600080fd5b505afa158015613f30573d6000803e3d6000fd5b505050506040513d6020811015613f4657600080fd5b810190808051906020019092919050505090509056fe536c61736861626c6520646f776e74696d652063616e6e6f74206265207a65726f6572726f722063616c6c696e67206e756d62657256616c696461746f7273496e53657420707265636f6d70696c6550656e616c74792068617320746f206265206c6172676572207468616e207265776172644f776e61626c653a206e6577206f776e657220697320746865207a65726f20616464726573734261642076616c696461746f7220696e64657820617420737461727420626c6f636b536c61736861626c6520646f776e74696d65206d75737420626520736d616c6c6572207468616e2065706f63682073697a656572726f722063616c6c696e672067657456657269666965645365616c4269746d617046726f6d48656164657220707265636f6d70696c656572726f722063616c6c696e672076616c696461746f725369676e65724164647265737346726f6d43757272656e7453657420707265636f6d70696c656572726f722063616c6c696e67206e756d62657256616c696461746f7273496e43757272656e7453657420707265636f6d70696c656572726f722063616c6c696e672076616c696461746f725369676e65724164647265737346726f6d53657420707265636f6d70696c65536166654d6174683a206d756c7469706c69636174696f6e206f766572666c6f776572726f722063616c6c696e67206672616374696f6e4d756c45787020707265636f6d70696c656572726f722063616c6c696e672067657445706f636853697a6520707265636f6d70696c65656e6420626c6f636b206d75737420626520736d616c6c6572207468616e2063757272656e7420626c6f636b6572726f722063616c6c696e6720676574506172656e745365616c4269746d617020707265636f6d70696c656572726f722063616c6c696e6720676574426c6f636b4e756d62657246726f6d48656164657220707265636f6d70696c656572726f722063616c6c696e67206861736848656164657220707265636f6d70696c65a165627a7a72305820c83eda8424c6810c46374084447006e729cfecb7ac991ffb296b9c6ecb6785dc0029",
  "source": "pragma solidity ^0.5.3;\n\nimport \"openzeppelin-solidity/contracts/ownership/Ownable.sol\";\nimport \"openzeppelin-solidity/contracts/math/SafeMath.sol\";\n\nimport \"./SlasherUtil.sol\";\n\ncontract DowntimeSlasher is SlasherUtil {\n  using SafeMath for uint256;\n\n  // For each address, associate each epoch with the last block that was slashed on that epoch\n  mapping(address => mapping(uint256 => uint256)) lastSlashedBlock;\n  uint256 public slashableDowntime;\n\n  event SlashableDowntimeSet(uint256 interval);\n\n  /**\n   * @notice Used in place of the constructor to allow the contract to be upgradable via proxy.\n   * @param registryAddress The address of the registry core smart contract.\n   * @param _penalty Penalty for the slashed signer.\n   * @param _reward Reward that the observer gets.\n   * @param  _slashableDowntime Slashable downtime in blocks.\n   */\n  function initialize(\n    address registryAddress,\n    uint256 _penalty,\n    uint256 _reward,\n    uint256 _slashableDowntime\n  ) external initializer {\n    _transferOwnership(msg.sender);\n    setRegistry(registryAddress);\n    setSlashingIncentives(_penalty, _reward);\n    setSlashableDowntime(_slashableDowntime);\n  }\n\n  /**\n   * @notice Sets the slashable downtime\n   * @param interval Slashable downtime in blocks.\n   */\n  function setSlashableDowntime(uint256 interval) public onlyOwner {\n    require(interval != 0, \"Slashable downtime cannot be zero\");\n    require(interval < getEpochSize(), \"Slashable downtime must be smaller than epoch size\");\n    slashableDowntime = interval;\n    emit SlashableDowntimeSet(interval);\n  }\n\n  /**\n   * @notice Test if a validator has been down.\n   * @param startBlock First block of the downtime.\n   * @param startSignerIndex Validator index at the first block.\n   * @param endSignerIndex Validator index at the last block.\n   */\n  function isDown(uint256 startBlock, uint256 startSignerIndex, uint256 endSignerIndex)\n    public\n    view\n    returns (bool)\n  {\n    uint256 endBlock = getEndBlock(startBlock);\n    require(endBlock < block.number.sub(1), \"end block must be smaller than current block\");\n    require(\n      startSignerIndex < numberValidatorsInSet(startBlock),\n      \"Bad validator index at start block\"\n    );\n    require(endSignerIndex < numberValidatorsInSet(endBlock), \"Bad validator index at end block\");\n    address startSigner = validatorSignerAddressFromSet(startSignerIndex, startBlock);\n    address endSigner = validatorSignerAddressFromSet(endSignerIndex, endBlock);\n    IAccounts accounts = getAccounts();\n    require(\n      accounts.signerToAccount(startSigner) == accounts.signerToAccount(endSigner),\n      \"Signers do not match\"\n    );\n    uint256 sz = getEpochSize();\n    uint256 startEpoch = epochNumberOfBlock(startBlock, sz);\n    for (uint256 n = startBlock; n <= endBlock; n = n.add(1)) {\n      uint256 signerIndex = epochNumberOfBlock(n, sz) == startEpoch\n        ? startSignerIndex\n        : endSignerIndex;\n      // We want to check signers for block n,\n      // so we get the parent seal bitmap for the next block\n      if (uint256(getParentSealBitmap(n.add(1))) & (1 << signerIndex) != 0) return false;\n    }\n    return true;\n  }\n\n  /**\n   * @notice Returns the end block for the interval.\n   */\n  function getEndBlock(uint256 startBlock) internal view returns (uint256) {\n    return startBlock.add(slashableDowntime).sub(1);\n  }\n\n  function checkIfAlreadySlashed(address validator, uint256 startBlock) internal {\n    uint256 endBlock = getEndBlock(startBlock);\n    uint256 startEpoch = getEpochNumberOfBlock(startBlock);\n    uint256 endEpoch = getEpochNumberOfBlock(endBlock);\n    require(lastSlashedBlock[validator][startEpoch] < startBlock, \"Already slashed\");\n    require(lastSlashedBlock[validator][endEpoch] < startBlock, \"Already slashed\");\n    lastSlashedBlock[validator][startEpoch] = endBlock;\n    lastSlashedBlock[validator][endEpoch] = endBlock;\n  }\n\n  /**\n   * @notice Requires that `isDown` returns true and that the account corresponding to\n   * `signer` has not already been slashed for downtime for the epoch\n   * corresponding to `startBlock`.\n   * If so, fetches the `account` associated with `signer` and the group that\n   * `signer` was a member of during the corresponding epoch.\n   * Then, calls `LockedGold.slash` on both the validator and group accounts.\n   * Calls `Validators.removeSlashedMember` to remove the validator from its\n   * current group if it is a member of one.\n   * Finally, stores that (account, epochNumber) has been slashed.\n   * @param startBlock First block of the downtime.\n   * @param startSignerIndex Validator index at the first block.\n   * @param endSignerIndex Validator index at the last block.\n   * @param groupMembershipHistoryIndex Group membership index from where\n   * the group should be found. (For start block)\n   * @param validatorElectionLessers Lesser pointers for validator slashing.\n   * @param validatorElectionGreaters Greater pointers for validator slashing.\n   * @param validatorElectionIndices Vote indices for validator slashing.\n   * @param groupElectionLessers Lesser pointers for group slashing.\n   * @param groupElectionGreaters Greater pointers for group slashing.\n   * @param groupElectionIndices Vote indices for group slashing.\n   */\n  function slash(\n    uint256 startBlock,\n    uint256 startSignerIndex,\n    uint256 endSignerIndex,\n    uint256 groupMembershipHistoryIndex,\n    address[] memory validatorElectionLessers,\n    address[] memory validatorElectionGreaters,\n    uint256[] memory validatorElectionIndices,\n    address[] memory groupElectionLessers,\n    address[] memory groupElectionGreaters,\n    uint256[] memory groupElectionIndices\n  ) public {\n    address validator = getAccounts().signerToAccount(\n      validatorSignerAddressFromSet(startSignerIndex, startBlock)\n    );\n    checkIfAlreadySlashed(validator, startBlock);\n    require(isDown(startBlock, startSignerIndex, endSignerIndex), \"Not down\");\n    performSlashing(\n      validator,\n      msg.sender,\n      startBlock,\n      groupMembershipHistoryIndex,\n      validatorElectionLessers,\n      validatorElectionGreaters,\n      validatorElectionIndices,\n      groupElectionLessers,\n      groupElectionGreaters,\n      groupElectionIndices\n    );\n  }\n\n}\n",
  "sourcePath": "/Users/cmcewen/celo/celo-monorepo/packages/protocol/contracts/governance/DowntimeSlasher.sol",
  "compiler": {
    "name": "solc",
    "version": "0.5.8+commit.23d335f2.Emscripten.clang"
  },
  "schemaVersion": "3.0.10",
  "updatedAt": "2020-04-09T23:47:17.924Z",
  "devdoc": {
    "methods": {
      "checkProofOfPossession(address,bytes,bytes)": {
        "params": {
          "blsKey": "The BLS public key that the validator is using for consensus, should pass proof  of possession. 48 bytes.",
          "blsPop": "The BLS public key proof-of-possession, which consists of a signature on the  account address. 96 bytes.",
          "sender": "The address signed by the BLS key to generate the proof of possession."
        },
        "return": "True upon success."
      },
      "fractionMulExp(uint256,uint256,uint256,uint256,uint256,uint256)": {
        "params": {
          "_decimals": "precision",
          "aDenominator": "Denominator of first fraction",
          "aNumerator": "Numerator of first fraction",
          "bDenominator": "Denominator of exponentiated fraction",
          "bNumerator": "Numerator of exponentiated fraction",
          "exponent": "exponent to raise b to"
        },
        "return": "numerator/denominator of the computed quantity (not reduced)."
      },
      "getBlockNumberFromHeader(bytes)": {
        "params": {
          "header": "RLP encoded header"
        },
        "return": "Block number."
      },
      "getEpochNumber()": {
        "return": "Current epoch number."
      },
      "getEpochNumberOfBlock(uint256)": {
        "params": {
          "blockNumber": "Block number where epoch number is calculated."
        },
        "return": "Epoch number."
      },
      "getEpochSize()": {
        "return": "The current epoch size in blocks."
      },
      "getParentSealBitmap(uint256)": {
        "params": {
          "blockNumber": "Block number to retrieve. Must be within 4 epochs of the current number."
        },
        "return": "Bitmap parent seal with set bits at indices corresponding to signing validators."
      },
      "getVerifiedSealBitmapFromHeader(bytes)": {
        "params": {
          "header": "RLP encoded header"
        },
        "return": "Bitmap parent seal with set bits at indices correspoinding to signing validators."
      },
      "groupMembershipAtBlock(address,uint256,uint256)": {
        "params": {
          "blockNumber": "Block number associated with slashing.",
          "groupMembershipHistoryIndex": "Index used for history lookup.",
          "validator": "Validator that was slashed."
        },
        "return": "Group to be slashed."
      },
      "hashHeader(bytes)": {
        "params": {
          "header": "RLP encoded header"
        },
        "return": "Header hash."
      },
      "initialize(address,uint256,uint256,uint256)": {
        "params": {
          "_penalty": "Penalty for the slashed signer.",
          "_reward": "Reward that the observer gets.",
          "_slashableDowntime": "Slashable downtime in blocks.",
          "registryAddress": "The address of the registry core smart contract."
        }
      },
      "isDown(uint256,uint256,uint256)": {
        "params": {
          "endSignerIndex": "Validator index at the last block.",
          "startBlock": "First block of the downtime.",
          "startSignerIndex": "Validator index at the first block."
        }
      },
      "isOwner()": {
        "details": "Returns true if the caller is the current owner."
      },
      "minQuorumSize(uint256)": {
        "details": "Computed in celo-blockchain as int(math.Ceil(float64(2*valSet.Size()) / 3))"
      },
      "minQuorumSizeInCurrentSet()": {
        "return": "Byzantine quorum of validators."
      },
      "numberValidatorsInCurrentSet()": {
        "return": "Size of the current elected validator set."
      },
      "numberValidatorsInSet(uint256)": {
        "params": {
          "blockNumber": "Block number to retrieve the validator set from."
        },
        "return": "Size of the validator set."
      },
      "owner()": {
        "details": "Returns the address of the current owner."
      },
      "renounceOwnership()": {
        "details": "Leaves the contract without owner. It will not be possible to call `onlyOwner` functions anymore. Can only be called by the current owner.     * NOTE: Renouncing ownership will leave the contract without an owner, thereby removing any functionality that is only available to the owner."
      },
      "setRegistry(address)": {
        "params": {
          "registryAddress": "The address of a registry contract for routing to other contracts."
        }
      },
      "setSlashableDowntime(uint256)": {
        "params": {
          "interval": "Slashable downtime in blocks."
        }
      },
      "setSlashingIncentives(uint256,uint256)": {
        "params": {
          "penalty": "Penalty for the slashed signer.",
          "reward": "Reward that the observer gets."
        }
      },
      "slash(uint256,uint256,uint256,uint256,address[],address[],uint256[],address[],address[],uint256[])": {
        "params": {
          "endSignerIndex": "Validator index at the last block.",
          "groupElectionGreaters": "Greater pointers for group slashing.",
          "groupElectionIndices": "Vote indices for group slashing.",
          "groupElectionLessers": "Lesser pointers for group slashing.",
          "groupMembershipHistoryIndex": "Group membership index from where the group should be found. (For start block)",
          "startBlock": "First block of the downtime.",
          "startSignerIndex": "Validator index at the first block.",
          "validatorElectionGreaters": "Greater pointers for validator slashing.",
          "validatorElectionIndices": "Vote indices for validator slashing.",
          "validatorElectionLessers": "Lesser pointers for validator slashing."
        }
      },
      "transferOwnership(address)": {
        "details": "Transfers ownership of the contract to a new account (`newOwner`). Can only be called by the current owner."
      },
      "validatorSignerAddressFromCurrentSet(uint256)": {
        "params": {
          "index": "Index of requested validator in the validator set."
        },
        "return": "Address of validator at the requested index."
      },
      "validatorSignerAddressFromSet(uint256,uint256)": {
        "params": {
          "blockNumber": "Block number to retrieve the validator set from.",
          "index": "Index of requested validator in the validator set."
        },
        "return": "Address of validator at the requested index."
      }
    }
  },
  "userdoc": {
    "methods": {
      "checkProofOfPossession(address,bytes,bytes)": {
        "notice": "Checks a BLS proof of possession."
      },
      "fractionMulExp(uint256,uint256,uint256,uint256,uint256,uint256)": {
        "notice": "calculate a * b^x for fractions a, b to `decimals` precision"
      },
      "getBlockNumberFromHeader(bytes)": {
        "notice": "Parses block number out of header."
      },
      "getEpochNumber()": {
        "notice": "Returns the epoch number at a block."
      },
      "getEpochNumberOfBlock(uint256)": {
        "notice": "Returns the epoch number at a block."
      },
      "getEpochSize()": {
        "notice": "Returns the current epoch size in blocks."
      },
      "getParentSealBitmap(uint256)": {
        "notice": "Gets the parent seal bitmap from the header at the given block number."
      },
      "getVerifiedSealBitmapFromHeader(bytes)": {
        "notice": "Verifies the BLS signature on the header and returns the seal bitmap. The validator set used for verification is retrieved based on the parent hash field of the header.  If the parent hash is not in the blockchain, verification fails."
      },
      "groupMembershipAtBlock(address,uint256,uint256)": {
        "notice": "Returns the group to be slashed."
      },
      "hashHeader(bytes)": {
        "notice": "Computes hash of header."
      },
      "initialize(address,uint256,uint256,uint256)": {
        "notice": "Used in place of the constructor to allow the contract to be upgradable via proxy."
      },
      "isDown(uint256,uint256,uint256)": {
        "notice": "Test if a validator has been down."
      },
      "minQuorumSize(uint256)": {
        "notice": "Returns the minimum number of required signers for a given block number."
      },
      "minQuorumSizeInCurrentSet()": {
        "notice": "Computes byzantine quorum from current validator set size"
      },
      "numberValidatorsInCurrentSet()": {
        "notice": "Gets the size of the current elected validator set."
      },
      "numberValidatorsInSet(uint256)": {
        "notice": "Gets the size of the validator set that must sign the given block number."
      },
      "setRegistry(address)": {
        "notice": "Updates the address pointing to a Registry contract."
      },
      "setSlashableDowntime(uint256)": {
        "notice": "Sets the slashable downtime"
      },
      "setSlashingIncentives(uint256,uint256)": {
        "notice": "Sets slashing incentives."
      },
      "slash(uint256,uint256,uint256,uint256,address[],address[],uint256[],address[],address[],uint256[])": {
        "notice": "Requires that `isDown` returns true and that the account corresponding to `signer` has not already been slashed for downtime for the epoch corresponding to `startBlock`. If so, fetches the `account` associated with `signer` and the group that `signer` was a member of during the corresponding epoch. Then, calls `LockedGold.slash` on both the validator and group accounts. Calls `Validators.removeSlashedMember` to remove the validator from its current group if it is a member of one. Finally, stores that (account, epochNumber) has been slashed."
      },
      "validatorSignerAddressFromCurrentSet(uint256)": {
        "notice": "Gets a validator address from the current validator set."
      },
      "validatorSignerAddressFromSet(uint256,uint256)": {
        "notice": "Gets a validator address from the validator set at the given block number."
      }
    }
  }
}