{
  "contractName": "ElectionTest",
  "abi": [
    {
      "constant": true,
      "inputs": [
        {
          "name": "index",
          "type": "uint256"
        }
      ],
      "name": "validatorSignerAddressFromCurrentSet",
      "outputs": [
        {
          "name": "",
          "type": "address"
        }
      ],
      "payable": false,
      "stateMutability": "view",
      "type": "function"
    },
    {
      "constant": true,
      "inputs": [],
      "name": "initialized",
      "outputs": [
        {
          "name": "",
          "type": "bool"
        }
      ],
      "payable": false,
      "stateMutability": "view",
      "type": "function"
    },
    {
      "constant": false,
      "inputs": [
        {
          "name": "group",
          "type": "address"
        }
      ],
      "name": "activate",
      "outputs": [
        {
          "name": "",
          "type": "bool"
        }
      ],
      "payable": false,
      "stateMutability": "nonpayable",
      "type": "function"
    },
    {
      "constant": true,
      "inputs": [],
      "name": "getActiveVotes",
      "outputs": [
        {
          "name": "",
          "type": "uint256"
        }
      ],
      "payable": false,
      "stateMutability": "view",
      "type": "function"
    },
    {
      "constant": true,
      "inputs": [
        {
          "name": "sender",
          "type": "address"
        },
        {
          "name": "blsKey",
          "type": "bytes"
        },
        {
          "name": "blsPop",
          "type": "bytes"
        }
      ],
      "name": "checkProofOfPossession",
      "outputs": [
        {
          "name": "",
          "type": "bool"
        }
      ],
      "payable": false,
      "stateMutability": "view",
      "type": "function"
    },
    {
      "constant": true,
      "inputs": [
        {
          "name": "account",
          "type": "address"
        },
        {
          "name": "group",
          "type": "address"
        }
      ],
      "name": "hasActivatablePendingVotes",
      "outputs": [
        {
          "name": "",
          "type": "bool"
        }
      ],
      "payable": false,
      "stateMutability": "view",
      "type": "function"
    },
    {
      "constant": true,
      "inputs": [],
      "name": "electValidatorSigners",
      "outputs": [
        {
          "name": "",
          "type": "address[]"
        }
      ],
      "payable": false,
      "stateMutability": "view",
      "type": "function"
    },
    {
      "constant": true,
      "inputs": [
        {
          "name": "group",
          "type": "address"
        }
      ],
      "name": "getNumVotesReceivable",
      "outputs": [
        {
          "name": "",
          "type": "uint256"
        }
      ],
      "payable": false,
      "stateMutability": "view",
      "type": "function"
    },
    {
      "constant": true,
      "inputs": [
        {
          "name": "group",
          "type": "address"
        },
        {
          "name": "account",
          "type": "address"
        }
      ],
      "name": "getTotalVotesForGroupByAccount",
      "outputs": [
        {
          "name": "",
          "type": "uint256"
        }
      ],
      "payable": false,
      "stateMutability": "view",
      "type": "function"
    },
    {
      "constant": true,
      "inputs": [
        {
          "name": "blockNumber",
          "type": "uint256"
        }
      ],
      "name": "getEpochNumberOfBlock",
      "outputs": [
        {
          "name": "",
          "type": "uint256"
        }
      ],
      "payable": false,
      "stateMutability": "view",
      "type": "function"
    },
    {
      "constant": false,
      "inputs": [
        {
          "name": "_maxNumGroupsVotedFor",
          "type": "uint256"
        }
      ],
      "name": "setMaxNumGroupsVotedFor",
      "outputs": [
        {
          "name": "",
          "type": "bool"
        }
      ],
      "payable": false,
      "stateMutability": "nonpayable",
      "type": "function"
    },
    {
      "constant": true,
      "inputs": [],
      "name": "getCurrentValidatorSigners",
      "outputs": [
        {
          "name": "",
          "type": "address[]"
        }
      ],
      "payable": false,
      "stateMutability": "view",
      "type": "function"
    },
    {
      "constant": true,
      "inputs": [
        {
          "name": "account",
          "type": "address"
        }
      ],
      "name": "getGroupsVotedForByAccount",
      "outputs": [
        {
          "name": "",
          "type": "address[]"
        }
      ],
      "payable": false,
      "stateMutability": "view",
      "type": "function"
    },
    {
      "constant": true,
      "inputs": [
        {
          "name": "header",
          "type": "bytes"
        }
      ],
      "name": "getVerifiedSealBitmapFromHeader",
      "outputs": [
        {
          "name": "",
          "type": "bytes32"
        }
      ],
      "payable": false,
      "stateMutability": "view",
      "type": "function"
    },
    {
      "constant": true,
      "inputs": [],
      "name": "electabilityThreshold",
      "outputs": [
        {
          "name": "value",
          "type": "uint256"
        }
      ],
      "payable": false,
      "stateMutability": "view",
      "type": "function"
    },
    {
      "constant": false,
      "inputs": [
        {
          "name": "group",
          "type": "address"
        },
        {
          "name": "value",
          "type": "uint256"
        },
        {
          "name": "lesser",
          "type": "address"
        },
        {
          "name": "greater",
          "type": "address"
        }
      ],
      "name": "vote",
      "outputs": [
        {
          "name": "",
          "type": "bool"
        }
      ],
      "payable": false,
      "stateMutability": "nonpayable",
      "type": "function"
    },
    {
      "constant": true,
      "inputs": [
        {
          "name": "group",
          "type": "address"
        }
      ],
      "name": "getActiveVoteUnitsForGroup",
      "outputs": [
        {
          "name": "",
          "type": "uint256"
        }
      ],
      "payable": false,
      "stateMutability": "view",
      "type": "function"
    },
    {
      "constant": true,
      "inputs": [
        {
          "name": "index",
          "type": "uint256"
        },
        {
          "name": "blockNumber",
          "type": "uint256"
        }
      ],
      "name": "validatorSignerAddressFromSet",
      "outputs": [
        {
          "name": "",
          "type": "address"
        }
      ],
      "payable": false,
      "stateMutability": "view",
      "type": "function"
    },
    {
      "constant": false,
      "inputs": [
        {
          "name": "threshold",
          "type": "uint256"
        }
      ],
      "name": "setElectabilityThreshold",
      "outputs": [
        {
          "name": "",
          "type": "bool"
        }
      ],
      "payable": false,
      "stateMutability": "nonpayable",
      "type": "function"
    },
    {
      "constant": true,
      "inputs": [
        {
          "name": "header",
          "type": "bytes"
        }
      ],
      "name": "hashHeader",
      "outputs": [
        {
          "name": "",
          "type": "bytes32"
        }
      ],
      "payable": false,
      "stateMutability": "view",
      "type": "function"
    },
    {
      "constant": true,
      "inputs": [
        {
          "name": "account",
          "type": "address"
        }
      ],
      "name": "getTotalVotesByAccount",
      "outputs": [
        {
          "name": "",
          "type": "uint256"
        }
      ],
      "payable": false,
      "stateMutability": "view",
      "type": "function"
    },
    {
      "constant": false,
      "inputs": [
        {
          "name": "group",
          "type": "address"
        },
        {
          "name": "value",
          "type": "uint256"
        },
        {
          "name": "lesser",
          "type": "address"
        },
        {
          "name": "greater",
          "type": "address"
        },
        {
          "name": "index",
          "type": "uint256"
        }
      ],
      "name": "revokeActive",
      "outputs": [
        {
          "name": "",
          "type": "bool"
        }
      ],
      "payable": false,
      "stateMutability": "nonpayable",
      "type": "function"
    },
    {
      "constant": true,
      "inputs": [],
      "name": "getTotalVotesForEligibleValidatorGroups",
      "outputs": [
        {
          "name": "groups",
          "type": "address[]"
        },
        {
          "name": "values",
          "type": "uint256[]"
        }
      ],
      "payable": false,
      "stateMutability": "view",
      "type": "function"
    },
    {
      "constant": false,
      "inputs": [],
      "name": "renounceOwnership",
      "outputs": [],
      "payable": false,
      "stateMutability": "nonpayable",
      "type": "function"
    },
    {
      "constant": true,
      "inputs": [],
      "name": "minQuorumSizeInCurrentSet",
      "outputs": [
        {
          "name": "",
          "type": "uint256"
        }
      ],
      "payable": false,
      "stateMutability": "view",
      "type": "function"
    },
    {
      "constant": true,
      "inputs": [],
      "name": "registry",
      "outputs": [
        {
          "name": "",
          "type": "address"
        }
      ],
      "payable": false,
      "stateMutability": "view",
      "type": "function"
    },
    {
      "constant": true,
      "inputs": [],
      "name": "numberValidatorsInCurrentSet",
      "outputs": [
        {
          "name": "",
          "type": "uint256"
        }
      ],
      "payable": false,
      "stateMutability": "view",
      "type": "function"
    },
    {
      "constant": true,
      "inputs": [
        {
          "name": "header",
          "type": "bytes"
        }
      ],
      "name": "getBlockNumberFromHeader",
      "outputs": [
        {
          "name": "",
          "type": "uint256"
        }
      ],
      "payable": false,
      "stateMutability": "view",
      "type": "function"
    },
    {
      "constant": true,
      "inputs": [
        {
          "name": "group",
          "type": "address"
        }
      ],
      "name": "getGroupEligibility",
      "outputs": [
        {
          "name": "",
          "type": "bool"
        }
      ],
      "payable": false,
      "stateMutability": "view",
      "type": "function"
    },
    {
      "constant": true,
      "inputs": [],
      "name": "owner",
      "outputs": [
        {
          "name": "",
          "type": "address"
        }
      ],
      "payable": false,
      "stateMutability": "view",
      "type": "function"
    },
    {
      "constant": false,
      "inputs": [
        {
          "name": "account",
          "type": "address"
        },
        {
          "name": "value",
          "type": "uint256"
        },
        {
          "name": "lessers",
          "type": "address[]"
        },
        {
          "name": "greaters",
          "type": "address[]"
        },
        {
          "name": "indices",
          "type": "uint256[]"
        }
      ],
      "name": "forceDecrementVotes",
      "outputs": [
        {
          "name": "",
          "type": "uint256"
        }
      ],
      "payable": false,
      "stateMutability": "nonpayable",
      "type": "function"
    },
    {
      "constant": true,
      "inputs": [],
      "name": "isOwner",
      "outputs": [
        {
          "name": "",
          "type": "bool"
        }
      ],
      "payable": false,
      "stateMutability": "view",
      "type": "function"
    },
    {
      "constant": true,
      "inputs": [
        {
          "name": "minElectableValidators",
          "type": "uint256"
        },
        {
          "name": "maxElectableValidators",
          "type": "uint256"
        }
      ],
      "name": "electNValidatorSigners",
      "outputs": [
        {
          "name": "",
          "type": "address[]"
        }
      ],
      "payable": false,
      "stateMutability": "view",
      "type": "function"
    },
    {
      "constant": true,
      "inputs": [
        {
          "name": "group",
          "type": "address"
        }
      ],
      "name": "getActiveVotesForGroup",
      "outputs": [
        {
          "name": "",
          "type": "uint256"
        }
      ],
      "payable": false,
      "stateMutability": "view",
      "type": "function"
    },
    {
      "constant": true,
      "inputs": [
        {
          "name": "group",
          "type": "address"
        }
      ],
      "name": "getPendingVotesForGroup",
      "outputs": [
        {
          "name": "",
          "type": "uint256"
        }
      ],
      "payable": false,
      "stateMutability": "view",
      "type": "function"
    },
    {
      "constant": true,
      "inputs": [],
      "name": "getTotalVotes",
      "outputs": [
        {
          "name": "",
          "type": "uint256"
        }
      ],
      "payable": false,
      "stateMutability": "view",
      "type": "function"
    },
    {
      "constant": true,
      "inputs": [],
      "name": "getEpochNumber",
      "outputs": [
        {
          "name": "",
          "type": "uint256"
        }
      ],
      "payable": false,
      "stateMutability": "view",
      "type": "function"
    },
    {
      "constant": true,
      "inputs": [
        {
          "name": "blockNumber",
          "type": "uint256"
        }
      ],
      "name": "numberValidatorsInSet",
      "outputs": [
        {
          "name": "",
          "type": "uint256"
        }
      ],
      "payable": false,
      "stateMutability": "view",
      "type": "function"
    },
    {
      "constant": true,
      "inputs": [
        {
          "name": "group",
          "type": "address"
        },
        {
          "name": "account",
          "type": "address"
        }
      ],
      "name": "getPendingVotesForGroupByAccount",
      "outputs": [
        {
          "name": "",
          "type": "uint256"
        }
      ],
      "payable": false,
      "stateMutability": "view",
      "type": "function"
    },
    {
      "constant": false,
      "inputs": [
        {
          "name": "group",
          "type": "address"
        },
        {
          "name": "value",
          "type": "uint256"
        },
        {
          "name": "lesser",
          "type": "address"
        },
        {
          "name": "greater",
          "type": "address"
        },
        {
          "name": "index",
          "type": "uint256"
        }
      ],
      "name": "revokePending",
      "outputs": [
        {
          "name": "",
          "type": "bool"
        }
      ],
      "payable": false,
      "stateMutability": "nonpayable",
      "type": "function"
    },
    {
      "constant": false,
      "inputs": [
        {
          "name": "group",
          "type": "address"
        },
        {
          "name": "lesser",
          "type": "address"
        },
        {
          "name": "greater",
          "type": "address"
        }
      ],
      "name": "markGroupEligible",
      "outputs": [],
      "payable": false,
      "stateMutability": "nonpayable",
      "type": "function"
    },
    {
      "constant": true,
      "inputs": [
        {
          "name": "group",
          "type": "address"
        },
        {
          "name": "account",
          "type": "address"
        }
      ],
      "name": "getActiveVoteUnitsForGroupByAccount",
      "outputs": [
        {
          "name": "",
          "type": "uint256"
        }
      ],
      "payable": false,
      "stateMutability": "view",
      "type": "function"
    },
    {
      "constant": true,
      "inputs": [],
      "name": "getEligibleValidatorGroups",
      "outputs": [
        {
          "name": "",
          "type": "address[]"
        }
      ],
      "payable": false,
      "stateMutability": "view",
      "type": "function"
    },
    {
      "constant": false,
      "inputs": [
        {
          "name": "group",
          "type": "address"
        }
      ],
      "name": "markGroupIneligible",
      "outputs": [],
      "payable": false,
      "stateMutability": "nonpayable",
      "type": "function"
    },
    {
      "constant": false,
      "inputs": [
        {
          "name": "registryAddress",
          "type": "address"
        }
      ],
      "name": "setRegistry",
      "outputs": [],
      "payable": false,
      "stateMutability": "nonpayable",
      "type": "function"
    },
    {
      "constant": true,
      "inputs": [],
      "name": "maxNumGroupsVotedFor",
      "outputs": [
        {
          "name": "",
          "type": "uint256"
        }
      ],
      "payable": false,
      "stateMutability": "view",
      "type": "function"
    },
    {
      "constant": true,
      "inputs": [],
      "name": "getElectabilityThreshold",
      "outputs": [
        {
          "name": "",
          "type": "uint256"
        }
      ],
      "payable": false,
      "stateMutability": "view",
      "type": "function"
    },
    {
      "constant": true,
      "inputs": [
        {
          "name": "group",
          "type": "address"
        },
        {
          "name": "account",
          "type": "address"
        }
      ],
      "name": "getActiveVotesForGroupByAccount",
      "outputs": [
        {
          "name": "",
          "type": "uint256"
        }
      ],
      "payable": false,
      "stateMutability": "view",
      "type": "function"
    },
    {
      "constant": true,
      "inputs": [
        {
          "name": "group",
          "type": "address"
        }
      ],
      "name": "getTotalVotesForGroup",
      "outputs": [
        {
          "name": "",
          "type": "uint256"
        }
      ],
      "payable": false,
      "stateMutability": "view",
      "type": "function"
    },
    {
      "constant": true,
      "inputs": [],
      "name": "getEpochSize",
      "outputs": [
        {
          "name": "",
          "type": "uint256"
        }
      ],
      "payable": false,
      "stateMutability": "view",
      "type": "function"
    },
    {
      "constant": false,
      "inputs": [
        {
          "name": "group",
          "type": "address"
        },
        {
          "name": "lesser",
          "type": "address"
        },
        {
          "name": "greater",
          "type": "address"
        },
        {
          "name": "index",
          "type": "uint256"
        }
      ],
      "name": "revokeAllActive",
      "outputs": [
        {
          "name": "",
          "type": "bool"
        }
      ],
      "payable": false,
      "stateMutability": "nonpayable",
      "type": "function"
    },
    {
      "constant": true,
      "inputs": [
        {
          "name": "blockNumber",
          "type": "uint256"
        }
      ],
      "name": "minQuorumSize",
      "outputs": [
        {
          "name": "",
          "type": "uint256"
        }
      ],
      "payable": false,
      "stateMutability": "view",
      "type": "function"
    },
    {
      "constant": true,
      "inputs": [
        {
          "name": "group",
          "type": "address"
        },
        {
          "name": "value",
          "type": "uint256"
        }
      ],
      "name": "canReceiveVotes",
      "outputs": [
        {
          "name": "",
          "type": "bool"
        }
      ],
      "payable": false,
      "stateMutability": "view",
      "type": "function"
    },
    {
      "constant": true,
      "inputs": [
        {
          "name": "aNumerator",
          "type": "uint256"
        },
        {
          "name": "aDenominator",
          "type": "uint256"
        },
        {
          "name": "bNumerator",
          "type": "uint256"
        },
        {
          "name": "bDenominator",
          "type": "uint256"
        },
        {
          "name": "exponent",
          "type": "uint256"
        },
        {
          "name": "_decimals",
          "type": "uint256"
        }
      ],
      "name": "fractionMulExp",
      "outputs": [
        {
          "name": "",
          "type": "uint256"
        },
        {
          "name": "",
          "type": "uint256"
        }
      ],
      "payable": false,
      "stateMutability": "view",
      "type": "function"
    },
    {
      "constant": true,
      "inputs": [
        {
          "name": "group",
          "type": "address"
        },
        {
          "name": "totalEpochRewards",
          "type": "uint256"
        },
        {
          "name": "uptimes",
          "type": "uint256[]"
        }
      ],
      "name": "getGroupEpochRewards",
      "outputs": [
        {
          "name": "",
          "type": "uint256"
        }
      ],
      "payable": false,
      "stateMutability": "view",
      "type": "function"
    },
    {
      "constant": false,
      "inputs": [
        {
          "name": "newOwner",
          "type": "address"
        }
      ],
      "name": "transferOwnership",
      "outputs": [],
      "payable": false,
      "stateMutability": "nonpayable",
      "type": "function"
    },
    {
      "constant": false,
      "inputs": [
        {
          "name": "min",
          "type": "uint256"
        },
        {
          "name": "max",
          "type": "uint256"
        }
      ],
      "name": "setElectableValidators",
      "outputs": [
        {
          "name": "",
          "type": "bool"
        }
      ],
      "payable": false,
      "stateMutability": "nonpayable",
      "type": "function"
    },
    {
      "constant": false,
      "inputs": [
        {
          "name": "registryAddress",
          "type": "address"
        },
        {
          "name": "minElectableValidators",
          "type": "uint256"
        },
        {
          "name": "maxElectableValidators",
          "type": "uint256"
        },
        {
          "name": "_maxNumGroupsVotedFor",
          "type": "uint256"
        },
        {
          "name": "_electabilityThreshold",
          "type": "uint256"
        }
      ],
      "name": "initialize",
      "outputs": [],
      "payable": false,
      "stateMutability": "nonpayable",
      "type": "function"
    },
    {
      "constant": true,
      "inputs": [],
      "name": "electableValidators",
      "outputs": [
        {
          "name": "min",
          "type": "uint256"
        },
        {
          "name": "max",
          "type": "uint256"
        }
      ],
      "payable": false,
      "stateMutability": "view",
      "type": "function"
    },
    {
      "constant": true,
      "inputs": [],
      "name": "getElectableValidators",
      "outputs": [
        {
          "name": "",
          "type": "uint256"
        },
        {
          "name": "",
          "type": "uint256"
        }
      ],
      "payable": false,
      "stateMutability": "view",
      "type": "function"
    },
    {
      "constant": true,
      "inputs": [
        {
          "name": "blockNumber",
          "type": "uint256"
        }
      ],
      "name": "getParentSealBitmap",
      "outputs": [
        {
          "name": "",
          "type": "bytes32"
        }
      ],
      "payable": false,
      "stateMutability": "view",
      "type": "function"
    },
    {
      "anonymous": false,
      "inputs": [
        {
          "indexed": false,
          "name": "min",
          "type": "uint256"
        },
        {
          "indexed": false,
          "name": "max",
          "type": "uint256"
        }
      ],
      "name": "ElectableValidatorsSet",
      "type": "event"
    },
    {
      "anonymous": false,
      "inputs": [
        {
          "indexed": false,
          "name": "maxNumGroupsVotedFor",
          "type": "uint256"
        }
      ],
      "name": "MaxNumGroupsVotedForSet",
      "type": "event"
    },
    {
      "anonymous": false,
      "inputs": [
        {
          "indexed": false,
          "name": "electabilityThreshold",
          "type": "uint256"
        }
      ],
      "name": "ElectabilityThresholdSet",
      "type": "event"
    },
    {
      "anonymous": false,
      "inputs": [
        {
          "indexed": true,
          "name": "group",
          "type": "address"
        }
      ],
      "name": "ValidatorGroupMarkedEligible",
      "type": "event"
    },
    {
      "anonymous": false,
      "inputs": [
        {
          "indexed": true,
          "name": "group",
          "type": "address"
        }
      ],
      "name": "ValidatorGroupMarkedIneligible",
      "type": "event"
    },
    {
      "anonymous": false,
      "inputs": [
        {
          "indexed": true,
          "name": "account",
          "type": "address"
        },
        {
          "indexed": true,
          "name": "group",
          "type": "address"
        },
        {
          "indexed": false,
          "name": "value",
          "type": "uint256"
        }
      ],
      "name": "ValidatorGroupVoteCast",
      "type": "event"
    },
    {
      "anonymous": false,
      "inputs": [
        {
          "indexed": true,
          "name": "account",
          "type": "address"
        },
        {
          "indexed": true,
          "name": "group",
          "type": "address"
        },
        {
          "indexed": false,
          "name": "value",
          "type": "uint256"
        },
        {
          "indexed": false,
          "name": "units",
          "type": "uint256"
        }
      ],
      "name": "ValidatorGroupVoteActivated",
      "type": "event"
    },
    {
      "anonymous": false,
      "inputs": [
        {
          "indexed": true,
          "name": "account",
          "type": "address"
        },
        {
          "indexed": true,
          "name": "group",
          "type": "address"
        },
        {
          "indexed": false,
          "name": "value",
          "type": "uint256"
        }
      ],
      "name": "ValidatorGroupPendingVoteRevoked",
      "type": "event"
    },
    {
      "anonymous": false,
      "inputs": [
        {
          "indexed": true,
          "name": "account",
          "type": "address"
        },
        {
          "indexed": true,
          "name": "group",
          "type": "address"
        },
        {
          "indexed": false,
          "name": "value",
          "type": "uint256"
        },
        {
          "indexed": false,
          "name": "units",
          "type": "uint256"
        }
      ],
      "name": "ValidatorGroupActiveVoteRevoked",
      "type": "event"
    },
    {
      "anonymous": false,
      "inputs": [
        {
          "indexed": true,
          "name": "group",
          "type": "address"
        },
        {
          "indexed": false,
          "name": "value",
          "type": "uint256"
        }
      ],
      "name": "EpochRewardsDistributedToVoters",
      "type": "event"
    },
    {
      "anonymous": false,
      "inputs": [
        {
          "indexed": true,
          "name": "registryAddress",
          "type": "address"
        }
      ],
      "name": "RegistrySet",
      "type": "event"
    },
    {
      "anonymous": false,
      "inputs": [
        {
          "indexed": true,
          "name": "previousOwner",
          "type": "address"
        },
        {
          "indexed": true,
          "name": "newOwner",
          "type": "address"
        }
      ],
      "name": "OwnershipTransferred",
      "type": "event"
    },
    {
      "constant": false,
      "inputs": [
        {
          "name": "group",
          "type": "address"
        },
        {
          "name": "value",
          "type": "uint256"
        },
        {
          "name": "lesser",
          "type": "address"
        },
        {
          "name": "greater",
          "type": "address"
        }
      ],
      "name": "distributeEpochRewards",
      "outputs": [],
      "payable": false,
      "stateMutability": "nonpayable",
      "type": "function"
    }
  ],
  "bytecode": "0x6080604052600062000016620000c160201b60201c565b9050806000806101000a81548173ffffffffffffffffffffffffffffffffffffffff021916908373ffffffffffffffffffffffffffffffffffffffff1602179055508073ffffffffffffffffffffffffffffffffffffffff16600073ffffffffffffffffffffffffffffffffffffffff167f8be0079c531659141344cd1fd0a4f28419497f9722a3daafe3b4186f6b6457e060405160405180910390a35060018081905550620000c9565b600033905090565b61a18280620000d96000396000f3fe608060405234801561001057600080fd5b50600436106103ba5760003560e01c80638ef01def116101f4578063ac839d691161011a578063ec683072116100ad578063f92ad2191161007c578063f92ad21914611bbf578063f9d7daae14611c2b578063f9f41a7a14611c50578063fae8db0a14611c75576103ba565b8063ec683072146119f9578063f23263f914611a74578063f2fde38b14611b2b578063f911f0b714611b6f576103ba565b8063df4da461116100e9578063df4da4611461188d578063e0a2ab52146118ab578063e50e652d14611951578063e59ea3e814611993576103ba565b8063ac839d6914611781578063bdd143181461179f578063d3e242a4146117bd578063dedafeae14611835576103ba565b80639b2b592f11610192578063a2fb4ddf11610161578063a2fb4ddf14611622578063a5826ab21461169a578063a8e45871146116f9578063a91ee0dc1461173d576103ba565b80639b2b592f146114345780639b95975f146114765780639dfb6081146114ee578063a18fb2db1461159e576103ba565b8063926d00ca116101ce578063926d00ca1461134857806395128ce3146113a05780639a0e7d66146113f85780639a7b3be714611416576103ba565b80638ef01def146111385780638f32d59b1461129957806390a4dd5c146112bb576103ba565b80634be8843b116102e45780637046c96b1161027757806387ee8a0f1161024657806387ee8a0f14610fa55780638a88362614610fc35780638c666775146110925780638da5cb5b146110ee576103ba565b80637046c96b14610e8c578063715018a614610f335780637385e5da14610f3d5780637b10399914610f5b576103ba565b8063631db7e7116102b3578063631db7e714610c6f57806367960e9114610cb55780636c781a2c14610d845780636e19847514610ddc576103ba565b80634be8843b14610adb578063580d747a14610af95780635bb5acfb14610b9f5780635d180adb14610bf7576103ba565b80632ba38e691161035c5780633c55a73c1161032b5780633c55a73c146108ce578063448144c814610914578063457578a3146109735780634b2c2f4414610a0c576103ba565b80632ba38e691461075d5780632c3b7916146107bc57806338617272146108145780633b1eb4bf1461088c576103ba565b80631c5a9d9c116103985780631c5a9d9c146104dd5780631f6042431461053957806323f0ab6514610557578063263ecf74146106e1576103ba565b8063123633ea146103bf57806312541a6b1461042d578063158ef93e146104bb575b600080fd5b6103eb600480360360208110156103d557600080fd5b8101908080359060200190929190505050611cb7565b604051808273ffffffffffffffffffffffffffffffffffffffff1673ffffffffffffffffffffffffffffffffffffffff16815260200191505060405180910390f35b6104b96004803603608081101561044357600080fd5b81019080803573ffffffffffffffffffffffffffffffffffffffff16906020019092919080359060200190929190803573ffffffffffffffffffffffffffffffffffffffff169060200190929190803573ffffffffffffffffffffffffffffffffffffffff169060200190929190505050611e08565b005b6104c3611e1a565b604051808215151515815260200191505060405180910390f35b61051f600480360360208110156104f357600080fd5b81019080803573ffffffffffffffffffffffffffffffffffffffff169060200190929190505050611e2d565b604051808215151515815260200191505060405180910390f35b61054161219d565b6040518082815260200191505060405180910390f35b6106c76004803603606081101561056d57600080fd5b81019080803573ffffffffffffffffffffffffffffffffffffffff169060200190929190803590602001906401000000008111156105aa57600080fd5b8201836020820111156105bc57600080fd5b803590602001918460018302840111640100000000831117156105de57600080fd5b91908080601f016020809104026020016040519081016040528093929190818152602001838380828437600081840152601f19601f8201169050808301925050505050505091929192908035906020019064010000000081111561064157600080fd5b82018360208201111561065357600080fd5b8035906020019184600183028401116401000000008311171561067557600080fd5b91908080601f016020809104026020016040519081016040528093929190818152602001838380828437600081840152601f19601f8201169050808301925050505050505091929192905050506121ad565b604051808215151515815260200191505060405180910390f35b610743600480360360408110156106f757600080fd5b81019080803573ffffffffffffffffffffffffffffffffffffffff169060200190929190803573ffffffffffffffffffffffffffffffffffffffff169060200190929190505050612366565b604051808215151515815260200191505060405180910390f35b610765612417565b6040518080602001828103825283818151815260200191508051906020019060200280838360005b838110156107a857808201518184015260208101905061078d565b505050509050019250505060405180910390f35b6107fe600480360360208110156107d257600080fd5b81019080803573ffffffffffffffffffffffffffffffffffffffff169060200190929190505050612547565b6040518082815260200191505060405180910390f35b6108766004803603604081101561082a57600080fd5b81019080803573ffffffffffffffffffffffffffffffffffffffff169060200190929190803573ffffffffffffffffffffffffffffffffffffffff16906020019092919050505061276d565b6040518082815260200191505060405180910390f35b6108b8600480360360208110156108a257600080fd5b81019080803590602001909291905050506127a7565b6040518082815260200191505060405180910390f35b6108fa600480360360208110156108e457600080fd5b81019080803590602001909291905050506127c1565b604051808215151515815260200191505060405180910390f35b61091c6128fc565b6040518080602001828103825283818151815260200191508051906020019060200280838360005b8381101561095f578082015181840152602081019050610944565b505050509050019250505060405180910390f35b6109b56004803603602081101561098957600080fd5b81019080803573ffffffffffffffffffffffffffffffffffffffff1690602001909291905050506129bf565b6040518080602001828103825283818151815260200191508051906020019060200280838360005b838110156109f85780820151818401526020810190506109dd565b505050509050019250505060405180910390f35b610ac560048036036020811015610a2257600080fd5b8101908080359060200190640100000000811115610a3f57600080fd5b820183602082011115610a5157600080fd5b80359060200191846001830284011164010000000083111715610a7357600080fd5b91908080601f016020809104026020016040519081016040528093929190818152602001838380828437600081840152601f19601f820116905080830192505050505050509192919290505050612a8f565b6040518082815260200191505060405180910390f35b610ae3612c23565b6040518082815260200191505060405180910390f35b610b8560048036036080811015610b0f57600080fd5b81019080803573ffffffffffffffffffffffffffffffffffffffff16906020019092919080359060200190929190803573ffffffffffffffffffffffffffffffffffffffff169060200190929190803573ffffffffffffffffffffffffffffffffffffffff169060200190929190505050612c2f565b604051808215151515815260200191505060405180910390f35b610be160048036036020811015610bb557600080fd5b81019080803573ffffffffffffffffffffffffffffffffffffffff1690602001909291905050506132ad565b6040518082815260200191505060405180910390f35b610c2d60048036036040811015610c0d57600080fd5b8101908080359060200190929190803590602001909291905050506132ff565b604051808273ffffffffffffffffffffffffffffffffffffffff1673ffffffffffffffffffffffffffffffffffffffff16815260200191505060405180910390f35b610c9b60048036036020811015610c8557600080fd5b8101908080359060200190929190505050613451565b604051808215151515815260200191505060405180910390f35b610d6e60048036036020811015610ccb57600080fd5b8101908080359060200190640100000000811115610ce857600080fd5b820183602082011115610cfa57600080fd5b80359060200191846001830284011164010000000083111715610d1c57600080fd5b91908080601f016020809104026020016040519081016040528093929190818152602001838380828437600081840152601f19601f8201169050808301925050505050505091929192905050506135aa565b6040518082815260200191505060405180910390f35b610dc660048036036020811015610d9a57600080fd5b81019080803573ffffffffffffffffffffffffffffffffffffffff16906020019092919050505061373e565b6040518082815260200191505060405180910390f35b610e72600480360360a0811015610df257600080fd5b81019080803573ffffffffffffffffffffffffffffffffffffffff16906020019092919080359060200190929190803573ffffffffffffffffffffffffffffffffffffffff169060200190929190803573ffffffffffffffffffffffffffffffffffffffff16906020019092919080359060200190929190505050613876565b604051808215151515815260200191505060405180910390f35b610e94613ce1565b604051808060200180602001838103835285818151815260200191508051906020019060200280838360005b83811015610edb578082015181840152602081019050610ec0565b50505050905001838103825284818151815260200191508051906020019060200280838360005b83811015610f1d578082015181840152602081019050610f02565b5050505090500194505050505060405180910390f35b610f3b613e24565b005b610f45613f5d565b6040518082815260200191505060405180910390f35b610f63613f6d565b604051808273ffffffffffffffffffffffffffffffffffffffff1673ffffffffffffffffffffffffffffffffffffffff16815260200191505060405180910390f35b610fad613f93565b6040518082815260200191505060405180910390f35b61107c60048036036020811015610fd957600080fd5b8101908080359060200190640100000000811115610ff657600080fd5b82018360208201111561100857600080fd5b8035906020019184600183028401116401000000008311171561102a57600080fd5b91908080601f016020809104026020016040519081016040528093929190818152602001838380828437600081840152601f19601f8201169050808301925050505050505091929192905050506140da565b6040518082815260200191505060405180910390f35b6110d4600480360360208110156110a857600080fd5b81019080803573ffffffffffffffffffffffffffffffffffffffff16906020019092919050505061426e565b604051808215151515815260200191505060405180910390f35b6110f661433e565b604051808273ffffffffffffffffffffffffffffffffffffffff1673ffffffffffffffffffffffffffffffffffffffff16815260200191505060405180910390f35b611283600480360360a081101561114e57600080fd5b81019080803573ffffffffffffffffffffffffffffffffffffffff169060200190929190803590602001909291908035906020019064010000000081111561119557600080fd5b8201836020820111156111a757600080fd5b803590602001918460208302840111640100000000831117156111c957600080fd5b9091929391929390803590602001906401000000008111156111ea57600080fd5b8201836020820111156111fc57600080fd5b8035906020019184602083028401116401000000008311171561121e57600080fd5b90919293919293908035906020019064010000000081111561123f57600080fd5b82018360208201111561125157600080fd5b8035906020019184602083028401116401000000008311171561127357600080fd5b9091929391929390505050614367565b6040518082815260200191505060405180910390f35b6112a1614927565b604051808215151515815260200191505060405180910390f35b6112f1600480360360408110156112d157600080fd5b810190808035906020019092919080359060200190929190505050614985565b6040518080602001828103825283818151815260200191508051906020019060200280838360005b83811015611334578082015181840152602081019050611319565b505050509050019250505060405180910390f35b61138a6004803603602081101561135e57600080fd5b81019080803573ffffffffffffffffffffffffffffffffffffffff16906020019092919050505061538c565b6040518082815260200191505060405180910390f35b6113e2600480360360208110156113b657600080fd5b81019080803573ffffffffffffffffffffffffffffffffffffffff1690602001909291905050506153de565b6040518082815260200191505060405180910390f35b611400615430565b6040518082815260200191505060405180910390f35b61141e61545a565b6040518082815260200191505060405180910390f35b6114606004803603602081101561144a57600080fd5b810190808035906020019092919050505061546a565b6040518082815260200191505060405180910390f35b6114d86004803603604081101561148c57600080fd5b81019080803573ffffffffffffffffffffffffffffffffffffffff169060200190929190803573ffffffffffffffffffffffffffffffffffffffff1690602001909291905050506155b3565b6040518082815260200191505060405180910390f35b611584600480360360a081101561150457600080fd5b81019080803573ffffffffffffffffffffffffffffffffffffffff16906020019092919080359060200190929190803573ffffffffffffffffffffffffffffffffffffffff169060200190929190803573ffffffffffffffffffffffffffffffffffffffff16906020019092919080359060200190929190505050615646565b604051808215151515815260200191505060405180910390f35b611620600480360360608110156115b457600080fd5b81019080803573ffffffffffffffffffffffffffffffffffffffff169060200190929190803573ffffffffffffffffffffffffffffffffffffffff169060200190929190803573ffffffffffffffffffffffffffffffffffffffff169060200190929190505050615aa4565b005b6116846004803603604081101561163857600080fd5b81019080803573ffffffffffffffffffffffffffffffffffffffff169060200190929190803573ffffffffffffffffffffffffffffffffffffffff169060200190929190505050615da4565b6040518082815260200191505060405180910390f35b6116a2615e34565b6040518080602001828103825283818151815260200191508051906020019060200280838360005b838110156116e55780820151818401526020810190506116ca565b505050509050019250505060405180910390f35b61173b6004803603602081101561170f57600080fd5b81019080803573ffffffffffffffffffffffffffffffffffffffff169060200190929190505050615f24565b005b61177f6004803603602081101561175357600080fd5b81019080803573ffffffffffffffffffffffffffffffffffffffff1690602001909291905050506161a4565b005b611789616348565b6040518082815260200191505060405180910390f35b6117a761634e565b6040518082815260200191505060405180910390f35b61181f600480360360408110156117d357600080fd5b81019080803573ffffffffffffffffffffffffffffffffffffffff169060200190929190803573ffffffffffffffffffffffffffffffffffffffff169060200190929190505050616374565b6040518082815260200191505060405180910390f35b6118776004803603602081101561184b57600080fd5b81019080803573ffffffffffffffffffffffffffffffffffffffff16906020019092919050505061640d565b6040518082815260200191505060405180910390f35b6118956164b9565b6040518082815260200191505060405180910390f35b611937600480360360808110156118c157600080fd5b81019080803573ffffffffffffffffffffffffffffffffffffffff169060200190929190803573ffffffffffffffffffffffffffffffffffffffff169060200190929190803573ffffffffffffffffffffffffffffffffffffffff169060200190929190803590602001909291905050506165f5565b604051808215151515815260200191505060405180910390f35b61197d6004803603602081101561196757600080fd5b8101908080359060200190929190505050616770565b6040518082815260200191505060405180910390f35b6119df600480360360408110156119a957600080fd5b81019080803573ffffffffffffffffffffffffffffffffffffffff169060200190929190803590602001909291905050506167bb565b604051808215151515815260200191505060405180910390f35b611a57600480360360c0811015611a0f57600080fd5b81019080803590602001909291908035906020019092919080359060200190929190803590602001909291908035906020019092919080359060200190929190505050616a05565b604051808381526020018281526020019250505060405180910390f35b611b1560048036036060811015611a8a57600080fd5b81019080803573ffffffffffffffffffffffffffffffffffffffff1690602001909291908035906020019092919080359060200190640100000000811115611ad157600080fd5b820183602082011115611ae357600080fd5b80359060200191846020830284011164010000000083111715611b0557600080fd5b9091929391929390505050616c19565b6040518082815260200191505060405180910390f35b611b6d60048036036020811015611b4157600080fd5b81019080803573ffffffffffffffffffffffffffffffffffffffff169060200190929190505050616f53565b005b611ba560048036036040811015611b8557600080fd5b810190808035906020019092919080359060200190929190505050616fd9565b604051808215151515815260200191505060405180910390f35b611c29600480360360a0811015611bd557600080fd5b81019080803573ffffffffffffffffffffffffffffffffffffffff16906020019092919080359060200190929190803590602001909291908035906020019092919080359060200190929190505050617209565b005b611c336172df565b604051808381526020018281526020019250505060405180910390f35b611c586172f1565b604051808381526020018281526020019250505060405180910390f35b611ca160048036036020811015611c8b57600080fd5b8101908080359060200190929190505050617308565b6040518082815260200191505060405180910390f35b60006060600060fa73ffffffffffffffffffffffffffffffffffffffff16844360405160200180838152602001828152602001925050506040516020818303038152906040526040518082805190602001908083835b60208310611d305780518252602082019150602081019050602083039250611d0d565b6001836020036101000a038019825116818451168082178552505050505050905001915050600060405180830381855afa9150503d8060008114611d90576040519150601f19603f3d011682016040523d82523d6000602084013e611d95565b606091505b50809350819250505080611df4576040517f08c379a000000000000000000000000000000000000000000000000000000000815260040180806020018281038252603d815260200180619f29603d913960400191505060405180910390fd5b611dff826000617451565b92505050919050565b611e1484848484617468565b50505050565b600260009054906101000a900460ff1681565b600060018060008282540192505081905550600060015490506000611e50617849565b73ffffffffffffffffffffffffffffffffffffffff16636642d594336040518263ffffffff1660e01b8152600401808273ffffffffffffffffffffffffffffffffffffffff1673ffffffffffffffffffffffffffffffffffffffff16815260200191505060206040518083038186803b158015611ecc57600080fd5b505afa158015611ee0573d6000803e3d6000fd5b505050506040513d6020811015611ef657600080fd5b810190808051906020019092919050505090506000600360000160010160008673ffffffffffffffffffffffffffffffffffffffff1673ffffffffffffffffffffffffffffffffffffffff16815260200190815260200160002060010160008373ffffffffffffffffffffffffffffffffffffffff1673ffffffffffffffffffffffffffffffffffffffff1681526020019081526020016000209050611f9a61545a565b816001015410612012576040517f08c379a000000000000000000000000000000000000000000000000000000000815260040180806020018281038252601d8152602001807f50656e64696e6720766f74652065706f6368206e6f742070617373656400000081525060200191505060405180910390fd5b60008160000154905060008111612091576040517f08c379a00000000000000000000000000000000000000000000000000000000081526004018080602001828103825260198152602001807f566f74652076616c75652063616e6e6f74206265207a65726f0000000000000081525060200191505060405180910390fd5b61209c868483617944565b60006120a9878584617a54565b90508673ffffffffffffffffffffffffffffffffffffffff168473ffffffffffffffffffffffffffffffffffffffff167f45aac85f38083b18efe2d441a65b9c1ae177c78307cb5a5d4aec8f7dbcaeabfe8484604051808381526020018281526020019250505060405180910390a360019550505050506001548114612197576040517f08c379a000000000000000000000000000000000000000000000000000000000815260040180806020018281038252600e8152602001807f7265656e7472616e742063616c6c00000000000000000000000000000000000081525060200191505060405180910390fd5b50919050565b6000600360020160000154905090565b60008060fb73ffffffffffffffffffffffffffffffffffffffff16858585604051602001808473ffffffffffffffffffffffffffffffffffffffff1673ffffffffffffffffffffffffffffffffffffffff1660601b815260140183805190602001908083835b602083106122365780518252602082019150602081019050602083039250612213565b6001836020036101000a03801982511681845116808217855250505050505090500182805190602001908083835b602083106122875780518252602082019150602081019050602083039250612264565b6001836020036101000a03801982511681845116808217855250505050505090500193505050506040516020818303038152906040526040518082805190602001908083835b602083106122f057805182526020820191506020810190506020830392506122cd565b6001836020036101000a038019825116818451168082178552505050505050905001915050600060405180830381855afa9150503d8060008114612350576040519150601f19603f3d011682016040523d82523d6000602084013e612355565b606091505b505080915050809150509392505050565b600080600360000160010160008473ffffffffffffffffffffffffffffffffffffffff1673ffffffffffffffffffffffffffffffffffffffff16815260200190815260200160002060010160008573ffffffffffffffffffffffffffffffffffffffff1673ffffffffffffffffffffffffffffffffffffffff16815260200190815260200160002090506123f861545a565b816001015410801561240e575060008160000154115b91505092915050565b6060612421617bb4565b73ffffffffffffffffffffffffffffffffffffffff1663e5839836306040518263ffffffff1660e01b8152600401808273ffffffffffffffffffffffffffffffffffffffff1673ffffffffffffffffffffffffffffffffffffffff16815260200191505060206040518083038186803b15801561249d57600080fd5b505afa1580156124b1573d6000803e3d6000fd5b505050506040513d60208110156124c757600080fd5b81019080805190602001909291905050501561252e576040517f08c379a0000000000000000000000000000000000000000000000000000000008152600401808060200182810382526022815260200180619eae6022913960400191505060405180910390fd5b612542600d60000154600d60010154614985565b905090565b6000806126b5612555617caf565b73ffffffffffffffffffffffffffffffffffffffff166330a61d596040518163ffffffff1660e01b815260040160206040518083038186803b15801561259a57600080fd5b505afa1580156125ae573d6000803e3d6000fd5b505050506040513d60208110156125c457600080fd5b81019080805190602001909291905050506126a760016125e2617daa565b73ffffffffffffffffffffffffffffffffffffffff166339e618e8886040518263ffffffff1660e01b8152600401808273ffffffffffffffffffffffffffffffffffffffff1673ffffffffffffffffffffffffffffffffffffffff16815260200191505060206040518083038186803b15801561265e57600080fd5b505afa158015612672573d6000803e3d6000fd5b505050506040513d602081101561268857600080fd5b8101908080519060200190929190505050617ea590919063ffffffff16565b617f2d90919063ffffffff16565b9050600061274f600d600101546126ca617daa565b73ffffffffffffffffffffffffffffffffffffffff1663517f6d336040518163ffffffff1660e01b815260040160206040518083038186803b15801561270f57600080fd5b505afa158015612723573d6000803e3d6000fd5b505050506040513d602081101561273957600080fd5b8101908080519060200190929190505050617fb3565b90506127648183617fcc90919063ffffffff16565b92505050919050565b60008061277a84846155b3565b905060006127888585616374565b905061279d8183617ea590919063ffffffff16565b9250505092915050565b60006127ba826127b56164b9565b618016565b9050919050565b60006127cb614927565b61283d576040517f08c379a00000000000000000000000000000000000000000000000000000000081526004018080602001828103825260208152602001807f4f776e61626c653a2063616c6c6572206973206e6f7420746865206f776e657281525060200191505060405180910390fd5b600f548214156128b5576040517f08c379a00000000000000000000000000000000000000000000000000000000081526004018080602001828103825260208152602001807f4d61782067726f75707320766f74656420666f72206e6f74206368616e67656481525060200191505060405180910390fd5b81600f819055507f1993a3864c31265ef86eec51d147eff697dee0466c92ac9abddcc4c4c6829348826040518082815260200191505060405180910390a160019050919050565b60606000612908613f93565b905060608160405190808252806020026020018201604052801561293b5781602001602082028038833980820191505090505b50905060008090505b828110156129b65761295581611cb7565b82828151811061296157fe5b602002602001019073ffffffffffffffffffffffffffffffffffffffff16908173ffffffffffffffffffffffffffffffffffffffff16815250506129af600182617ea590919063ffffffff16565b9050612944565b50809250505090565b6060600360090160008373ffffffffffffffffffffffffffffffffffffffff1673ffffffffffffffffffffffffffffffffffffffff168152602001908152602001600020805480602002602001604051908101604052809291908181526020018280548015612a8357602002820191906000526020600020905b8160009054906101000a900473ffffffffffffffffffffffffffffffffffffffff1673ffffffffffffffffffffffffffffffffffffffff1681526020019060010190808311612a39575b50505050509050919050565b60006060600060f473ffffffffffffffffffffffffffffffffffffffff16846040516020018082805190602001908083835b60208310612ae45780518252602082019150602081019050602083039250612ac1565b6001836020036101000a0380198251168184511680821785525050505050509050019150506040516020818303038152906040526040518082805190602001908083835b60208310612b4b5780518252602082019150602081019050602083039250612b28565b6001836020036101000a038019825116818451168082178552505050505050905001915050600060405180830381855afa9150503d8060008114612bab576040519150601f19603f3d011682016040523d82523d6000602084013e612bb0565b606091505b50809350819250505080612c0f576040517f08c379a0000000000000000000000000000000000000000000000000000000008152600401808060200182810382526038815260200180619e766038913960400191505060405180910390fd5b612c1a82600061804e565b92505050919050565b60108060000154905081565b60006001806000828254019250508190555060006001549050600360040160000173__AddressSortedLinkedList_______________6302f130289091886040518363ffffffff1660e01b8152600401808381526020018273ffffffffffffffffffffffffffffffffffffffff1673ffffffffffffffffffffffffffffffffffffffff1681526020019250505060206040518083038186803b158015612cd457600080fd5b505af4158015612ce8573d6000803e3d6000fd5b505050506040513d6020811015612cfe57600080fd5b8101908080519060200190929190505050612d81576040517f08c379a00000000000000000000000000000000000000000000000000000000081526004018080602001828103825260128152602001807f47726f7570206e6f7420656c696769626c65000000000000000000000000000081525060200191505060405180910390fd5b84600010612df7576040517f08c379a00000000000000000000000000000000000000000000000000000000081526004018080602001828103825260198152602001807f566f74652076616c75652063616e6e6f74206265207a65726f0000000000000081525060200191505060405180910390fd5b612e0186866167bb565b612e73576040517f08c379a000000000000000000000000000000000000000000000000000000000815260040180806020018281038252601a8152602001807f47726f75702063616e6e6f74207265636569766520766f74657300000000000081525060200191505060405180910390fd5b6000612e7d617849565b73ffffffffffffffffffffffffffffffffffffffff16636642d594336040518263ffffffff1660e01b8152600401808273ffffffffffffffffffffffffffffffffffffffff1673ffffffffffffffffffffffffffffffffffffffff16815260200191505060206040518083038186803b158015612ef957600080fd5b505afa158015612f0d573d6000803e3d6000fd5b505050506040513d6020811015612f2357600080fd5b8101908080519060200190929190505050905060008090506000600360090160008473ffffffffffffffffffffffffffffffffffffffff1673ffffffffffffffffffffffffffffffffffffffff168152602001908152602001600020905060008090505b818054905081101561301d57828061300057508973ffffffffffffffffffffffffffffffffffffffff16828281548110612fbd57fe5b9060005260206000200160009054906101000a900473ffffffffffffffffffffffffffffffffffffffff1673ffffffffffffffffffffffffffffffffffffffff16145b9250613016600182617ea590919063ffffffff16565b9050612f87565b508161310457600f5481805490501061309e576040517f08c379a00000000000000000000000000000000000000000000000000000000081526004018080602001828103825260198152602001807f566f74656420666f7220746f6f206d616e792067726f7570730000000000000081525060200191505060405180910390fd5b808990806001815401808255809150509060018203906000526020600020016000909192909190916101000a81548173ffffffffffffffffffffffffffffffffffffffff021916908373ffffffffffffffffffffffffffffffffffffffff160217905550505b61310f89848a6180df565b61311b898989896181e7565b613123617caf565b73ffffffffffffffffffffffffffffffffffffffff166318a4ff8c848a6040518363ffffffff1660e01b8152600401808373ffffffffffffffffffffffffffffffffffffffff1673ffffffffffffffffffffffffffffffffffffffff16815260200182815260200192505050600060405180830381600087803b1580156131a957600080fd5b505af11580156131bd573d6000803e3d6000fd5b505050508873ffffffffffffffffffffffffffffffffffffffff168373ffffffffffffffffffffffffffffffffffffffff167fd3532f70444893db82221041edb4dc26c94593aeb364b0b14dfc77d5ee9051528a6040518082815260200191505060405180910390a36001945050505060015481146132a4576040517f08c379a000000000000000000000000000000000000000000000000000000000815260040180806020018281038252600e8152602001807f7265656e7472616e742063616c6c00000000000000000000000000000000000081525060200191505060405180910390fd5b50949350505050565b6000600360020160010160008373ffffffffffffffffffffffffffffffffffffffff1673ffffffffffffffffffffffffffffffffffffffff168152602001908152602001600020600101549050919050565b60006060600060fa73ffffffffffffffffffffffffffffffffffffffff16858560405160200180838152602001828152602001925050506040516020818303038152906040526040518082805190602001908083835b602083106133785780518252602082019150602081019050602083039250613355565b6001836020036101000a038019825116818451168082178552505050505050905001915050600060405180830381855afa9150503d80600081146133d8576040519150601f19603f3d011682016040523d82523d6000602084013e6133dd565b606091505b5080935081925050508061343c576040517f08c379a0000000000000000000000000000000000000000000000000000000008152600401808060200182810382526036815260200180619f9b6036913960400191505060405180910390fd5b613447826000617451565b9250505092915050565b600061345b614927565b6134cd576040517f08c379a00000000000000000000000000000000000000000000000000000000081526004018080602001828103825260208152602001807f4f776e61626c653a2063616c6c6572206973206e6f7420746865206f776e657281525060200191505060405180910390fd5b6134d6826183df565b6010600082015181600001559050506135156134f06183fd565b601060405180602001604052908160008201548152505061842390919063ffffffff16565b61356a576040517f08c379a000000000000000000000000000000000000000000000000000000000815260040180806020018281038252602e815260200180619e48602e913960400191505060405180910390fd5b7f9854be03126e38f9c318d8aabe1b150d09cb3a57059b21855b1e11d44e082c1a826040518082815260200191505060405180910390a160019050919050565b60006060600060f673ffffffffffffffffffffffffffffffffffffffff16846040516020018082805190602001908083835b602083106135ff57805182526020820191506020810190506020830392506135dc565b6001836020036101000a0380198251168184511680821785525050505050509050019150506040516020818303038152906040526040518082805190602001908083835b602083106136665780518252602082019150602081019050602083039250613643565b6001836020036101000a038019825116818451168082178552505050505050905001915050600060405180830381855afa9150503d80600081146136c6576040519150601f19603f3d011682016040523d82523d6000602084013e6136cb565b606091505b5080935081925050508061372a576040517f08c379a000000000000000000000000000000000000000000000000000000000815260040180806020018281038252602381526020018061a1346023913960400191505060405180910390fd5b61373582600061804e565b92505050919050565b600080600090506060600360090160008573ffffffffffffffffffffffffffffffffffffffff1673ffffffffffffffffffffffffffffffffffffffff16815260200190815260200160002080548060200260200160405190810160405280929190818152602001828054801561380957602002820191906000526020600020905b8160009054906101000a900473ffffffffffffffffffffffffffffffffffffffff1673ffffffffffffffffffffffffffffffffffffffff16815260200190600101908083116137bf575b5050505050905060008090505b815181101561386b5761384e61383f83838151811061383157fe5b60200260200101518761276d565b84617ea590919063ffffffff16565b9250613864600182617ea590919063ffffffff16565b9050613816565b508192505050919050565b60006001806000828254019250508190555060006001549050600073ffffffffffffffffffffffffffffffffffffffff168773ffffffffffffffffffffffffffffffffffffffff161415613932576040517f08c379a00000000000000000000000000000000000000000000000000000000081526004018080602001828103825260128152602001807f47726f75702061646472657373207a65726f000000000000000000000000000081525060200191505060405180910390fd5b600061393c617849565b73ffffffffffffffffffffffffffffffffffffffff16636642d594336040518263ffffffff1660e01b8152600401808273ffffffffffffffffffffffffffffffffffffffff1673ffffffffffffffffffffffffffffffffffffffff16815260200191505060206040518083038186803b1580156139b857600080fd5b505afa1580156139cc573d6000803e3d6000fd5b505050506040513d60208110156139e257600080fd5b8101908080519060200190929190505050905086600010613a6b576040517f08c379a00000000000000000000000000000000000000000000000000000000081526004018080602001828103825260198152602001807f566f74652076616c75652063616e6e6f74206265207a65726f0000000000000081525060200191505060405180910390fd5b613a758882616374565b871115613acd576040517f08c379a0000000000000000000000000000000000000000000000000000000008152600401808060200182810382526023815260200180619f066023913960400191505060405180910390fd5b6000613ada89838a618438565b9050613ae8898989896185fc565b613af0617caf565b73ffffffffffffffffffffffffffffffffffffffff16636edf77a5838a6040518363ffffffff1660e01b8152600401808373ffffffffffffffffffffffffffffffffffffffff1673ffffffffffffffffffffffffffffffffffffffff16815260200182815260200192505050600060405180830381600087803b158015613b7657600080fd5b505af1158015613b8a573d6000803e3d6000fd5b505050506000613b9a8a8461276d565b1415613bed57613bec600360090160008473ffffffffffffffffffffffffffffffffffffffff1673ffffffffffffffffffffffffffffffffffffffff1681526020019081526020016000208a876188c1565b5b8873ffffffffffffffffffffffffffffffffffffffff168273ffffffffffffffffffffffffffffffffffffffff167fae7458f8697a680da6be36406ea0b8f40164915ac9cc40c0dad05a2ff6e8c6a88a84604051808381526020018281526020019250505060405180910390a36001935050506001548114613cd7576040517f08c379a000000000000000000000000000000000000000000000000000000000815260040180806020018281038252600e8152602001807f7265656e7472616e742063616c6c00000000000000000000000000000000000081525060200191505060405180910390fd5b5095945050505050565b606080600360040160000173__AddressSortedLinkedList_______________6369b317e390916040518263ffffffff1660e01b81526004018082815260200191505060006040518083038186803b158015613d3c57600080fd5b505af4158015613d50573d6000803e3d6000fd5b505050506040513d6000823e3d601f19601f820116820180604052506040811015613d7a57600080fd5b810190808051640100000000811115613d9257600080fd5b82810190506020810184811115613da857600080fd5b8151856020820283011164010000000082111715613dc557600080fd5b50509291906020018051640100000000811115613de157600080fd5b82810190506020810184811115613df757600080fd5b8151856020820283011164010000000082111715613e1457600080fd5b5050929190505050915091509091565b613e2c614927565b613e9e576040517f08c379a00000000000000000000000000000000000000000000000000000000081526004018080602001828103825260208152602001807f4f776e61626c653a2063616c6c6572206973206e6f7420746865206f776e657281525060200191505060405180910390fd5b600073ffffffffffffffffffffffffffffffffffffffff166000809054906101000a900473ffffffffffffffffffffffffffffffffffffffff1673ffffffffffffffffffffffffffffffffffffffff167f8be0079c531659141344cd1fd0a4f28419497f9722a3daafe3b4186f6b6457e060405160405180910390a360008060006101000a81548173ffffffffffffffffffffffffffffffffffffffff021916908373ffffffffffffffffffffffffffffffffffffffff160217905550565b6000613f6843616770565b905090565b600260019054906101000a900473ffffffffffffffffffffffffffffffffffffffff1681565b60006060600060f973ffffffffffffffffffffffffffffffffffffffff1643604051602001808281526020019150506040516020818303038152906040526040518082805190602001908083835b602083106140045780518252602082019150602081019050602083039250613fe1565b6001836020036101000a038019825116818451168082178552505050505050905001915050600060405180830381855afa9150503d8060008114614064576040519150601f19603f3d011682016040523d82523d6000602084013e614069565b606091505b508093508192505050806140c8576040517f08c379a0000000000000000000000000000000000000000000000000000000008152600401808060200182810382526035815260200180619f666035913960400191505060405180910390fd5b6140d3826000617451565b9250505090565b60006060600060f773ffffffffffffffffffffffffffffffffffffffff16846040516020018082805190602001908083835b6020831061412f578051825260208201915060208101905060208303925061410c565b6001836020036101000a0380198251168184511680821785525050505050509050019150506040516020818303038152906040526040518082805190602001908083835b602083106141965780518252602082019150602081019050602083039250614173565b6001836020036101000a038019825116818451168082178552505050505050905001915050600060405180830381855afa9150503d80600081146141f6576040519150601f19603f3d011682016040523d82523d6000602084013e6141fb565b606091505b5080935081925050508061425a576040517f08c379a000000000000000000000000000000000000000000000000000000000815260040180806020018281038252603181526020018061a0b16031913960400191505060405180910390fd5b614265826000617451565b92505050919050565b6000600360040160000173__AddressSortedLinkedList_______________6302f130289091846040518363ffffffff1660e01b8152600401808381526020018273ffffffffffffffffffffffffffffffffffffffff1673ffffffffffffffffffffffffffffffffffffffff1681526020019250505060206040518083038186803b1580156142fc57600080fd5b505af4158015614310573d6000803e3d6000fd5b505050506040513d602081101561432657600080fd5b81019080805190602001909291905050509050919050565b60008060009054906101000a900473ffffffffffffffffffffffffffffffffffffffff16905090565b6000600180600082825401925050819055506000600154905060405160200180807f4c6f636b6564476f6c6400000000000000000000000000000000000000000000815250600a019050604051602081830303815290604052805190602001203373ffffffffffffffffffffffffffffffffffffffff16600260019054906101000a900473ffffffffffffffffffffffffffffffffffffffff1673ffffffffffffffffffffffffffffffffffffffff1663dcf0aaed836040518263ffffffff1660e01b81526004018082815260200191505060206040518083038186803b15801561445157600080fd5b505afa158015614465573d6000803e3d6000fd5b505050506040513d602081101561447b57600080fd5b810190808051906020019092919050505073ffffffffffffffffffffffffffffffffffffffff1614614515576040517f08c379a00000000000000000000000000000000000000000000000000000000081526004018080602001828103825260188152602001807f6f6e6c79207265676973746572656420636f6e7472616374000000000000000081525060200191505060405180910390fd5b60008a1161456e576040517f08c379a000000000000000000000000000000000000000000000000000000000815260040180806020018281038252602781526020018061a10d6027913960400191505060405180910390fd5b614576619d06565b6040518060400160405280600360090160008f73ffffffffffffffffffffffffffffffffffffffff1673ffffffffffffffffffffffffffffffffffffffff16815260200190815260200160002080548060200260200160405190810160405280929190818152602001828054801561464357602002820191906000526020600020905b8160009054906101000a900473ffffffffffffffffffffffffffffffffffffffff1673ffffffffffffffffffffffffffffffffffffffff16815260200190600101908083116145f9575b505050505081526020018c81525090508060000151518a8a9050111580156146705750878790508a8a9050145b801561468157508585905088889050145b6146d6576040517f08c379a0000000000000000000000000000000000000000000000000000000008152600401808060200182810382526021815260200180619e276021913960400191505060405180910390fd5b600081600001515190505b600081111561480d576147d76147c48e846000015161470a600186618a6290919063ffffffff16565b8151811061471457fe5b602002602001015185602001518f8f614737600189618a6290919063ffffffff16565b81811061474057fe5b9050602002013573ffffffffffffffffffffffffffffffffffffffff168e8e61477360018a618a6290919063ffffffff16565b81811061477c57fe5b9050602002013573ffffffffffffffffffffffffffffffffffffffff168d8d6147af60018b618a6290919063ffffffff16565b8181106147b857fe5b90506020020135618aac565b8360200151618a6290919063ffffffff16565b8260200181815250506000826020015114156147f25761480d565b614806600182618a6290919063ffffffff16565b90506146e1565b506000816020015114614888576040517f08c379a000000000000000000000000000000000000000000000000000000000815260040180806020018281038252601f8152602001807f4661696c75726520746f2064656372656d656e7420616c6c20766f7465732e0081525060200191505060405180910390fd5b61489f81602001518c618a6290919063ffffffff16565b93505050600154811461491a576040517f08c379a000000000000000000000000000000000000000000000000000000000815260040180806020018281038252600e8152602001807f7265656e7472616e742063616c6c00000000000000000000000000000000000081525060200191505060405180910390fd5b5098975050505050505050565b60008060009054906101000a900473ffffffffffffffffffffffffffffffffffffffff1673ffffffffffffffffffffffffffffffffffffffff16614969618cc0565b73ffffffffffffffffffffffffffffffffffffffff1614905090565b606060006149c96149c461499f61499a615430565b618cc8565b6010604051806020016040529081600082015481525050618d5290919063ffffffff16565b6191b1565b90506000600360040160000173__AddressSortedLinkedList_______________6342b6351a909184876040518463ffffffff1660e01b815260040180848152602001838152602001828152602001935050505060206040518083038186803b158015614a3557600080fd5b505af4158015614a49573d6000803e3d6000fd5b505050506040513d6020811015614a5f57600080fd5b810190808051906020019092919050505090506060600360040160000173__AddressSortedLinkedList_______________63dcb2a4dd9091846040518363ffffffff1660e01b8152600401808381526020018281526020019250505060006040518083038186803b158015614ad457600080fd5b505af4158015614ae8573d6000803e3d6000fd5b505050506040513d6000823e3d601f19601f820116820180604052506020811015614b1257600080fd5b810190808051640100000000811115614b2a57600080fd5b82810190506020810184811115614b4057600080fd5b8151856020820283011164010000000082111715614b5d57600080fd5b505092919050505090506060614b71617daa565b73ffffffffffffffffffffffffffffffffffffffff166370447754836040518263ffffffff1660e01b81526004018080602001828103825283818151815260200191508051906020019060200280838360005b83811015614bdf578082015181840152602081019050614bc4565b505050509050019250505060006040518083038186803b158015614c0257600080fd5b505afa158015614c16573d6000803e3d6000fd5b505050506040513d6000823e3d601f19601f820116820180604052506020811015614c4057600080fd5b810190808051640100000000811115614c5857600080fd5b82810190506020810184811115614c6e57600080fd5b8151856020820283011164010000000082111715614c8b57600080fd5b5050929190505050905060608251604051908082528060200260200182016040528015614cc75781602001602082028038833980820191505090505b509050600080905060608451604051908082528060200260200182016040528015614d015781602001602082028038833980820191505090505b50905060608551604051908082528060200260200182016040528015614d4157816020015b614d2e619d20565b815260200190600190039081614d265790505b50905060008090505b8651811015614e725780838281518110614d6057fe5b602002602001018181525050614e4e600360040160000173__AddressSortedLinkedList_______________63e0fe44b390918a8581518110614d9f57fe5b60200260200101516040518363ffffffff1660e01b8152600401808381526020018273ffffffffffffffffffffffffffffffffffffffff1673ffffffffffffffffffffffffffffffffffffffff1681526020019250505060206040518083038186803b158015614e0e57600080fd5b505af4158015614e22573d6000803e3d6000fd5b505050506040513d6020811015614e3857600080fd5b8101908080519060200190929190505050618cc8565b828281518110614e5a57fe5b60200260200101819052508080600101915050614d4a565b505b8983108015614e84575060008651115b156150be57600082600081518110614e9857fe5b602002602001015190506000614ec0838381518110614eb357fe5b60200260200101516191d2565b1415614ecc57506150be565b848181518110614ed857fe5b6020026020010151868281518110614eec57fe5b602002602001015111614f1f57614f0360006183df565b828281518110614f0f57fe5b60200260200101819052506150ae565b614f466001868381518110614f3057fe5b6020026020010151617ea590919063ffffffff16565b858281518110614f5257fe5b602002602001018181525050614f72600185617ea590919063ffffffff16565b9350615096614fa6614fa16001888581518110614f8b57fe5b6020026020010151617ea590919063ffffffff16565b618cc8565b615088600360040160000173__AddressSortedLinkedList_______________63e0fe44b390918c8781518110614fd957fe5b60200260200101516040518363ffffffff1660e01b8152600401808381526020018273ffffffffffffffffffffffffffffffffffffffff1673ffffffffffffffffffffffffffffffffffffffff1681526020019250505060206040518083038186803b15801561504857600080fd5b505af415801561505c573d6000803e3d6000fd5b505050506040513d602081101561507257600080fd5b8101908080519060200190929190505050618cc8565b6191e090919063ffffffff16565b8282815181106150a257fe5b60200260200101819052505b6150b88383619329565b50614e74565b8a831015615134576040517f08c379a000000000000000000000000000000000000000000000000000000000815260040180806020018281038252601d8152602001807f4e6f7420656e6f75676820656c65637465642076616c696461746f727300000081525060200191505060405180910390fd5b6060836040519080825280602002602001820160405280156151655781602001602082028038833980820191505090505b5090506000935060008090505b8751811015615379576060615185617daa565b73ffffffffffffffffffffffffffffffffffffffff16638dd31e398a84815181106151ac57fe5b60200260200101518985815181106151c057fe5b60200260200101516040518363ffffffff1660e01b8152600401808373ffffffffffffffffffffffffffffffffffffffff1673ffffffffffffffffffffffffffffffffffffffff1681526020018281526020019250505060006040518083038186803b15801561522f57600080fd5b505afa158015615243573d6000803e3d6000fd5b505050506040513d6000823e3d601f19601f82011682018060405250602081101561526d57600080fd5b81019080805164010000000081111561528557600080fd5b8281019050602081018481111561529b57600080fd5b81518560208202830111640100000000821117156152b857600080fd5b5050929190505050905060008090505b815181101561535c578181815181106152dd57fe5b60200260200101518488815181106152f157fe5b602002602001019073ffffffffffffffffffffffffffffffffffffffff16908173ffffffffffffffffffffffffffffffffffffffff168152505061533f600188617ea590919063ffffffff16565b9650615355600182617ea590919063ffffffff16565b90506152c8565b5050615372600182617ea590919063ffffffff16565b9050615172565b5080995050505050505050505092915050565b6000600360020160010160008373ffffffffffffffffffffffffffffffffffffffff1673ffffffffffffffffffffffffffffffffffffffff168152602001908152602001600020600001549050919050565b6000600360000160010160008373ffffffffffffffffffffffffffffffffffffffff1673ffffffffffffffffffffffffffffffffffffffff168152602001908152602001600020600001549050919050565b6000615455600360000160000154600360020160000154617ea590919063ffffffff16565b905090565b6000615465436127a7565b905090565b60006060600060f973ffffffffffffffffffffffffffffffffffffffff1684604051602001808281526020019150506040516020818303038152906040526040518082805190602001908083835b602083106154db57805182526020820191506020810190506020830392506154b8565b6001836020036101000a038019825116818451168082178552505050505050905001915050600060405180830381855afa9150503d806000811461553b576040519150601f19603f3d011682016040523d82523d6000602084013e615540565b606091505b5080935081925050508061559f576040517f08c379a000000000000000000000000000000000000000000000000000000000815260040180806020018281038252602e815260200180619dd3602e913960400191505060405180910390fd5b6155aa826000617451565b92505050919050565b6000600360000160010160008473ffffffffffffffffffffffffffffffffffffffff1673ffffffffffffffffffffffffffffffffffffffff16815260200190815260200160002060010160008373ffffffffffffffffffffffffffffffffffffffff1673ffffffffffffffffffffffffffffffffffffffff16815260200190815260200160002060000154905092915050565b60006001806000828254019250508190555060006001549050600073ffffffffffffffffffffffffffffffffffffffff168773ffffffffffffffffffffffffffffffffffffffff161415615702576040517f08c379a00000000000000000000000000000000000000000000000000000000081526004018080602001828103825260128152602001807f47726f75702061646472657373207a65726f000000000000000000000000000081525060200191505060405180910390fd5b600061570c617849565b73ffffffffffffffffffffffffffffffffffffffff16636642d594336040518263ffffffff1660e01b8152600401808273ffffffffffffffffffffffffffffffffffffffff1673ffffffffffffffffffffffffffffffffffffffff16815260200191505060206040518083038186803b15801561578857600080fd5b505afa15801561579c573d6000803e3d6000fd5b505050506040513d60208110156157b257600080fd5b810190808051906020019092919050505090508660001061583b576040517f08c379a00000000000000000000000000000000000000000000000000000000081526004018080602001828103825260198152602001807f566f74652076616c75652063616e6e6f74206265207a65726f0000000000000081525060200191505060405180910390fd5b61584588826155b3565b87111561589d576040517f08c379a000000000000000000000000000000000000000000000000000000000815260040180806020018281038252602481526020018061a03e6024913960400191505060405180910390fd5b6158a8888289617944565b6158b4888888886185fc565b6158bc617caf565b73ffffffffffffffffffffffffffffffffffffffff16636edf77a582896040518363ffffffff1660e01b8152600401808373ffffffffffffffffffffffffffffffffffffffff1673ffffffffffffffffffffffffffffffffffffffff16815260200182815260200192505050600060405180830381600087803b15801561594257600080fd5b505af1158015615956573d6000803e3d6000fd5b505050506000615966898361276d565b14156159b9576159b8600360090160008373ffffffffffffffffffffffffffffffffffffffff1673ffffffffffffffffffffffffffffffffffffffff16815260200190815260200160002089866188c1565b5b8773ffffffffffffffffffffffffffffffffffffffff168173ffffffffffffffffffffffffffffffffffffffff167f148075455e24d5cf538793db3e917a157cbadac69dd6a304186daf11b23f76fe896040518082815260200191505060405180910390a360019250506001548114615a9a576040517f08c379a000000000000000000000000000000000000000000000000000000000815260040180806020018281038252600e8152602001807f7265656e7472616e742063616c6c00000000000000000000000000000000000081525060200191505060405180910390fd5b5095945050505050565b60405160200180807f56616c696461746f727300000000000000000000000000000000000000000000815250600a019050604051602081830303815290604052805190602001203373ffffffffffffffffffffffffffffffffffffffff16600260019054906101000a900473ffffffffffffffffffffffffffffffffffffffff1673ffffffffffffffffffffffffffffffffffffffff1663dcf0aaed836040518263ffffffff1660e01b81526004018082815260200191505060206040518083038186803b158015615b7557600080fd5b505afa158015615b89573d6000803e3d6000fd5b505050506040513d6020811015615b9f57600080fd5b810190808051906020019092919050505073ffffffffffffffffffffffffffffffffffffffff1614615c39576040517f08c379a00000000000000000000000000000000000000000000000000000000081526004018080602001828103825260188152602001807f6f6e6c79207265676973746572656420636f6e7472616374000000000000000081525060200191505060405180910390fd5b6000615c448561640d565b9050600360040160000173__AddressSortedLinkedList_______________632dedbbf09091878488886040518663ffffffff1660e01b8152600401808681526020018573ffffffffffffffffffffffffffffffffffffffff1673ffffffffffffffffffffffffffffffffffffffff1681526020018481526020018373ffffffffffffffffffffffffffffffffffffffff1673ffffffffffffffffffffffffffffffffffffffff1681526020018273ffffffffffffffffffffffffffffffffffffffff1673ffffffffffffffffffffffffffffffffffffffff1681526020019550505050505060006040518083038186803b158015615d4257600080fd5b505af4158015615d56573d6000803e3d6000fd5b505050508473ffffffffffffffffffffffffffffffffffffffff167f8f21dc7ff6f55d73e4fca52a4ef4fcc14fbda43ac338d24922519d51455d39c160405160405180910390a25050505050565b6000600360020160010160008473ffffffffffffffffffffffffffffffffffffffff1673ffffffffffffffffffffffffffffffffffffffff16815260200190815260200160002060020160008373ffffffffffffffffffffffffffffffffffffffff1673ffffffffffffffffffffffffffffffffffffffff16815260200190815260200160002054905092915050565b6060600360040160000173__AddressSortedLinkedList_______________633a72e80290916040518263ffffffff1660e01b81526004018082815260200191505060006040518083038186803b158015615e8e57600080fd5b505af4158015615ea2573d6000803e3d6000fd5b505050506040513d6000823e3d601f19601f820116820180604052506020811015615ecc57600080fd5b810190808051640100000000811115615ee457600080fd5b82810190506020810184811115615efa57600080fd5b8151856020820283011164010000000082111715615f1757600080fd5b5050929190505050905090565b60405160200180807f56616c696461746f727300000000000000000000000000000000000000000000815250600a019050604051602081830303815290604052805190602001203373ffffffffffffffffffffffffffffffffffffffff16600260019054906101000a900473ffffffffffffffffffffffffffffffffffffffff1673ffffffffffffffffffffffffffffffffffffffff1663dcf0aaed836040518263ffffffff1660e01b81526004018082815260200191505060206040518083038186803b158015615ff557600080fd5b505afa158015616009573d6000803e3d6000fd5b505050506040513d602081101561601f57600080fd5b810190808051906020019092919050505073ffffffffffffffffffffffffffffffffffffffff16146160b9576040517f08c379a00000000000000000000000000000000000000000000000000000000081526004018080602001828103825260188152602001807f6f6e6c79207265676973746572656420636f6e7472616374000000000000000081525060200191505060405180910390fd5b600360040160000173__AddressSortedLinkedList_______________63281359299091846040518363ffffffff1660e01b8152600401808381526020018273ffffffffffffffffffffffffffffffffffffffff1673ffffffffffffffffffffffffffffffffffffffff1681526020019250505060006040518083038186803b15801561614557600080fd5b505af4158015616159573d6000803e3d6000fd5b505050508173ffffffffffffffffffffffffffffffffffffffff167f5c8cd4e832f3a7d79f9208c2acf25a412143aa3f751cfd3728c42a0fea4921a860405160405180910390a25050565b6161ac614927565b61621e576040517f08c379a00000000000000000000000000000000000000000000000000000000081526004018080602001828103825260208152602001807f4f776e61626c653a2063616c6c6572206973206e6f7420746865206f776e657281525060200191505060405180910390fd5b600073ffffffffffffffffffffffffffffffffffffffff168173ffffffffffffffffffffffffffffffffffffffff1614156162c1576040517f08c379a00000000000000000000000000000000000000000000000000000000081526004018080602001828103825260208152602001807f43616e6e6f7420726567697374657220746865206e756c6c206164647265737381525060200191505060405180910390fd5b80600260016101000a81548173ffffffffffffffffffffffffffffffffffffffff021916908373ffffffffffffffffffffffffffffffffffffffff1602179055508073ffffffffffffffffffffffffffffffffffffffff167f27fe5f0c1c3b1ed427cc63d0f05759ffdecf9aec9e18d31ef366fc8a6cb5dc3b60405160405180910390a250565b600f5481565b600061636f60106040518060200160405290816000820154815250506191d2565b905090565b600061640583600360020160010160008673ffffffffffffffffffffffffffffffffffffffff1673ffffffffffffffffffffffffffffffffffffffff16815260200190815260200160002060020160008573ffffffffffffffffffffffffffffffffffffffff1673ffffffffffffffffffffffffffffffffffffffff1681526020019081526020016000205461933b565b905092915050565b60006164b2600360020160010160008473ffffffffffffffffffffffffffffffffffffffff1673ffffffffffffffffffffffffffffffffffffffff16815260200190815260200160002060000154600360000160010160008573ffffffffffffffffffffffffffffffffffffffff1673ffffffffffffffffffffffffffffffffffffffff16815260200190815260200160002060000154617ea590919063ffffffff16565b9050919050565b60006060600060f873ffffffffffffffffffffffffffffffffffffffff166040516020016040516020818303038152906040526040518082805190602001908083835b6020831061651f57805182526020820191506020810190506020830392506164fc565b6001836020036101000a038019825116818451168082178552505050505050905001915050600060405180830381855afa9150503d806000811461657f576040519150601f19603f3d011682016040523d82523d6000602084013e616584565b606091505b508093508192505050806165e3576040517f08c379a000000000000000000000000000000000000000000000000000000000815260040180806020018281038252602581526020018061a0196025913960400191505060405180910390fd5b6165ee826000617451565b9250505090565b600060018060008282540192505081905550600060015490506000616618617849565b73ffffffffffffffffffffffffffffffffffffffff16636642d594336040518263ffffffff1660e01b8152600401808273ffffffffffffffffffffffffffffffffffffffff1673ffffffffffffffffffffffffffffffffffffffff16815260200191505060206040518083038186803b15801561669457600080fd5b505afa1580156166a8573d6000803e3d6000fd5b505050506040513d60208110156166be57600080fd5b8101908080519060200190929190505050905060006166dd8883616374565b90506166ec8882898989613876565b935050506001548114616767576040517f08c379a000000000000000000000000000000000000000000000000000000000815260040180806020018281038252600e8152602001807f7265656e7472616e742063616c6c00000000000000000000000000000000000081525060200191505060405180910390fd5b50949350505050565b60006167b460036167a66002616798600261678a8861546a565b617f2d90919063ffffffff16565b617ea590919063ffffffff16565b617fcc90919063ffffffff16565b9050919050565b6000806167d9836167cb8661640d565b617ea590919063ffffffff16565b90506000616885616876600d600101546167f1617daa565b73ffffffffffffffffffffffffffffffffffffffff1663517f6d336040518163ffffffff1660e01b815260040160206040518083038186803b15801561683657600080fd5b505afa15801561684a573d6000803e3d6000fd5b505050506040513d602081101561686057600080fd5b8101908080519060200190929190505050617fb3565b83617f2d90919063ffffffff16565b905060006169f4616894617caf565b73ffffffffffffffffffffffffffffffffffffffff166330a61d596040518163ffffffff1660e01b815260040160206040518083038186803b1580156168d957600080fd5b505afa1580156168ed573d6000803e3d6000fd5b505050506040513d602081101561690357600080fd5b81019080805190602001909291905050506169e66001616921617daa565b73ffffffffffffffffffffffffffffffffffffffff166339e618e88b6040518263ffffffff1660e01b8152600401808273ffffffffffffffffffffffffffffffffffffffff1673ffffffffffffffffffffffffffffffffffffffff16815260200191505060206040518083038186803b15801561699d57600080fd5b505afa1580156169b1573d6000803e3d6000fd5b505050506040513d60208110156169c757600080fd5b8101908080519060200190929190505050617ea590919063ffffffff16565b617f2d90919063ffffffff16565b905080821115935050505092915050565b60008060008714158015616a1a575060008514155b616a8c576040517f08c379a00000000000000000000000000000000000000000000000000000000081526004018080602001828103825260158152602001807f612064656e6f6d696e61746f72206973207a65726f000000000000000000000081525060200191505060405180910390fd5b6000806000606060fc73ffffffffffffffffffffffffffffffffffffffff168c8c8c8c8c8c6040516020018087815260200186815260200185815260200184815260200183815260200182815260200196505050505050506040516020818303038152906040526040518082805190602001908083835b60208310616b265780518252602082019150602081019050602083039250616b03565b6001836020036101000a038019825116818451168082178552505050505050905001915050600060405180830381855afa9150503d8060008114616b86576040519150601f19603f3d011682016040523d82523d6000602084013e616b8b565b606091505b50809250819350505081616bea576040517f08c379a0000000000000000000000000000000000000000000000000000000008152600401808060200182810382526027815260200180619ff26027913960400191505060405180910390fd5b616bf5816000617451565b9350616c02816020617451565b925083839550955050505050965096945050505050565b600080616c24617daa565b90508073ffffffffffffffffffffffffffffffffffffffff1663c54c1cd4876040518263ffffffff1660e01b8152600401808273ffffffffffffffffffffffffffffffffffffffff1673ffffffffffffffffffffffffffffffffffffffff16815260200191505060206040518083038186803b158015616ca357600080fd5b505afa158015616cb7573d6000803e3d6000fd5b505050506040513d6020811015616ccd57600080fd5b81019080805190602001909291905050501580616cf35750600060036002016000015411155b15616d02576000915050616f4b565b616d0a619d33565b616d64600360020160010160008973ffffffffffffffffffffffffffffffffffffffff1673ffffffffffffffffffffffffffffffffffffffff16815260200190815260200160002060000154600360020160000154619454565b9050616d6e619d33565b616e318373ffffffffffffffffffffffffffffffffffffffff166376f7425d88886040518363ffffffff1660e01b815260040180806020018281038252848482818152602001925060200280828437600081840152601f19601f820116905080830192505050935050505060206040518083038186803b158015616df157600080fd5b505afa158015616e05573d6000803e3d6000fd5b505050506040513d6020811015616e1b57600080fd5b81019080805190602001909291905050506183df565b9050616e3b619d33565b616efb8473ffffffffffffffffffffffffffffffffffffffff1663dba94fcd8b6040518263ffffffff1660e01b8152600401808273ffffffffffffffffffffffffffffffffffffffff1673ffffffffffffffffffffffffffffffffffffffff16815260200191505060206040518083038186803b158015616ebb57600080fd5b505afa158015616ecf573d6000803e3d6000fd5b505050506040513d6020811015616ee557600080fd5b81019080805190602001909291905050506183df565b9050616f44616f3f82616f3185616f2388616f158f618cc8565b618d5290919063ffffffff16565b618d5290919063ffffffff16565b618d5290919063ffffffff16565b6191b1565b9450505050505b949350505050565b616f5b614927565b616fcd576040517f08c379a00000000000000000000000000000000000000000000000000000000081526004018080602001828103825260208152602001807f4f776e61626c653a2063616c6c6572206973206e6f7420746865206f776e657281525060200191505060405180910390fd5b616fd681619496565b50565b6000616fe3614927565b617055576040517f08c379a00000000000000000000000000000000000000000000000000000000081526004018080602001828103825260208152602001807f4f776e61626c653a2063616c6c6572206973206e6f7420746865206f776e657281525060200191505060405180910390fd5b826000106170ae576040517f08c379a000000000000000000000000000000000000000000000000000000000815260040180806020018281038252602b81526020018061a0e2602b913960400191505060405180910390fd5b81831115617107576040517f08c379a000000000000000000000000000000000000000000000000000000000815260040180806020018281038252603b815260200180619d98603b913960400191505060405180910390fd5b600d60000154831415806171205750600d600101548214155b617192576040517f08c379a00000000000000000000000000000000000000000000000000000000081526004018080602001828103825260208152602001807f456c65637461626c652076616c696461746f7273206e6f74206368616e67656481525060200191505060405180910390fd5b604051806040016040528084815260200183815250600d60008201518160000155602082015181600101559050507fb3ae64819ff89f6136eb58b8563cb32c6550f17eaf97f9ecc32f23783229f6de8383604051808381526020018281526020019250505060405180910390a16001905092915050565b600260009054906101000a900460ff161561728c576040517f08c379a000000000000000000000000000000000000000000000000000000000815260040180806020018281038252601c8152602001807f636f6e747261637420616c726561647920696e697469616c697a65640000000081525060200191505060405180910390fd5b6001600260006101000a81548160ff0219169083151502179055506172b033619496565b6172b9856161a4565b6172c38484616fd9565b506172cd826127c1565b506172d781613451565b505050505050565b600d8060000154908060010154905082565b600080600d60000154600d60010154915091509091565b60006060600060f573ffffffffffffffffffffffffffffffffffffffff1684604051602001808281526020019150506040516020818303038152906040526040518082805190602001908083835b602083106173795780518252602082019150602081019050602083039250617356565b6001836020036101000a038019825116818451168082178552505050505050905001915050600060405180830381855afa9150503d80600081146173d9576040519150601f19603f3d011682016040523d82523d6000602084013e6173de565b606091505b5080935081925050508061743d576040517f08c379a000000000000000000000000000000000000000000000000000000000815260040180806020018281038252602c81526020018061a085602c913960400191505060405180910390fd5b61744882600061804e565b92505050919050565b600061745d838361804e565b60001c905092915050565b600360040160000173__AddressSortedLinkedList_______________6302f130289091866040518363ffffffff1660e01b8152600401808381526020018273ffffffffffffffffffffffffffffffffffffffff1673ffffffffffffffffffffffffffffffffffffffff1681526020019250505060206040518083038186803b1580156174f457600080fd5b505af4158015617508573d6000803e3d6000fd5b505050506040513d602081101561751e57600080fd5b81019080805190602001909291905050501561772757600061760f84600360040160000173__AddressSortedLinkedList_______________63e0fe44b39091896040518363ffffffff1660e01b8152600401808381526020018273ffffffffffffffffffffffffffffffffffffffff1673ffffffffffffffffffffffffffffffffffffffff1681526020019250505060206040518083038186803b1580156175c657600080fd5b505af41580156175da573d6000803e3d6000fd5b505050506040513d60208110156175f057600080fd5b8101908080519060200190929190505050617ea590919063ffffffff16565b9050600360040160000173__AddressSortedLinkedList_______________63cab455ae9091878487876040518663ffffffff1660e01b8152600401808681526020018573ffffffffffffffffffffffffffffffffffffffff1673ffffffffffffffffffffffffffffffffffffffff1681526020018481526020018373ffffffffffffffffffffffffffffffffffffffff1673ffffffffffffffffffffffffffffffffffffffff1681526020018273ffffffffffffffffffffffffffffffffffffffff1673ffffffffffffffffffffffffffffffffffffffff1681526020019550505050505060006040518083038186803b15801561770d57600080fd5b505af4158015617721573d6000803e3d6000fd5b50505050505b61778283600360020160010160008773ffffffffffffffffffffffffffffffffffffffff1673ffffffffffffffffffffffffffffffffffffffff16815260200190815260200160002060000154617ea590919063ffffffff16565b600360020160010160008673ffffffffffffffffffffffffffffffffffffffff1673ffffffffffffffffffffffffffffffffffffffff168152602001908152602001600020600001819055506177e983600360020160000154617ea590919063ffffffff16565b6003600201600001819055508373ffffffffffffffffffffffffffffffffffffffff167f91ba34d62474c14d6c623cd322f4256666c7a45b7fdaa3378e009d39dfcec2a7846040518082815260200191505060405180910390a250505050565b6000600260019054906101000a900473ffffffffffffffffffffffffffffffffffffffff1673ffffffffffffffffffffffffffffffffffffffff1663dcf0aaed60405160200180807f4163636f756e74730000000000000000000000000000000000000000000000008152506008019050604051602081830303815290604052805190602001206040518263ffffffff1660e01b81526004018082815260200191505060206040518083038186803b15801561790457600080fd5b505afa158015617918573d6000803e3d6000fd5b505050506040513d602081101561792e57600080fd5b8101908080519060200190929190505050905090565b600060036000019050617964828260000154618a6290919063ffffffff16565b816000018190555060008160010160008673ffffffffffffffffffffffffffffffffffffffff1673ffffffffffffffffffffffffffffffffffffffff16815260200190815260200160002090506179c8838260000154618a6290919063ffffffff16565b816000018190555060008160010160008673ffffffffffffffffffffffffffffffffffffffff1673ffffffffffffffffffffffffffffffffffffffff1681526020019081526020016000209050617a2c848260000154618a6290919063ffffffff16565b8160000181905550600081600001541415617a4c57600081600101819055505b505050505050565b60008060036002019050617a75838260000154617ea590919063ffffffff16565b81600001819055506000617a8986856195da565b905060008260010160008873ffffffffffffffffffffffffffffffffffffffff1673ffffffffffffffffffffffffffffffffffffffff1681526020019081526020016000209050617ae7858260000154617ea590919063ffffffff16565b8160000181905550617b06828260010154617ea590919063ffffffff16565b8160010181905550617b62828260020160008973ffffffffffffffffffffffffffffffffffffffff1673ffffffffffffffffffffffffffffffffffffffff16815260200190815260200160002054617ea590919063ffffffff16565b8160020160008873ffffffffffffffffffffffffffffffffffffffff1673ffffffffffffffffffffffffffffffffffffffff168152602001908152602001600020819055508193505050509392505050565b6000600260019054906101000a900473ffffffffffffffffffffffffffffffffffffffff1673ffffffffffffffffffffffffffffffffffffffff1663dcf0aaed60405160200180807f467265657a6572000000000000000000000000000000000000000000000000008152506007019050604051602081830303815290604052805190602001206040518263ffffffff1660e01b81526004018082815260200191505060206040518083038186803b158015617c6f57600080fd5b505afa158015617c83573d6000803e3d6000fd5b505050506040513d6020811015617c9957600080fd5b8101908080519060200190929190505050905090565b6000600260019054906101000a900473ffffffffffffffffffffffffffffffffffffffff1673ffffffffffffffffffffffffffffffffffffffff1663dcf0aaed60405160200180807f4c6f636b6564476f6c6400000000000000000000000000000000000000000000815250600a019050604051602081830303815290604052805190602001206040518263ffffffff1660e01b81526004018082815260200191505060206040518083038186803b158015617d6a57600080fd5b505afa158015617d7e573d6000803e3d6000fd5b505050506040513d6020811015617d9457600080fd5b8101908080519060200190929190505050905090565b6000600260019054906101000a900473ffffffffffffffffffffffffffffffffffffffff1673ffffffffffffffffffffffffffffffffffffffff1663dcf0aaed60405160200180807f56616c696461746f727300000000000000000000000000000000000000000000815250600a019050604051602081830303815290604052805190602001206040518263ffffffff1660e01b81526004018082815260200191505060206040518083038186803b158015617e6557600080fd5b505afa158015617e79573d6000803e3d6000fd5b505050506040513d6020811015617e8f57600080fd5b8101908080519060200190929190505050905090565b600080828401905083811015617f23576040517f08c379a000000000000000000000000000000000000000000000000000000000815260040180806020018281038252601b8152602001807f536166654d6174683a206164646974696f6e206f766572666c6f77000000000081525060200191505060405180910390fd5b8091505092915050565b600080831415617f405760009050617fad565b6000828402905082848281617f5157fe5b0414617fa8576040517f08c379a0000000000000000000000000000000000000000000000000000000008152600401808060200182810382526021815260200180619fd16021913960400191505060405180910390fd5b809150505b92915050565b6000818310617fc25781617fc4565b825b905092915050565b600061800e83836040518060400160405280601a81526020017f536166654d6174683a206469766973696f6e206279207a65726f00000000000081525061970d565b905092915050565b60008082848161802257fe5b049050600083858161803057fe5b0614156180405780915050618048565b600181019150505b92915050565b600060208201835110156180ca576040517f08c379a00000000000000000000000000000000000000000000000000000000081526004018080602001828103825260148152602001807f736c6963696e67206f7574206f662072616e676500000000000000000000000081525060200191505060405180910390fd5b60006020830184015190508091505092915050565b6000600360000190506180ff828260000154617ea590919063ffffffff16565b816000018190555060008160010160008673ffffffffffffffffffffffffffffffffffffffff1673ffffffffffffffffffffffffffffffffffffffff1681526020019081526020016000209050618163838260000154617ea590919063ffffffff16565b816000018190555060008160010160008673ffffffffffffffffffffffffffffffffffffffff1673ffffffffffffffffffffffffffffffffffffffff16815260200190815260200160002090506181c7848260000154617ea590919063ffffffff16565b81600001819055506181d761545a565b8160010181905550505050505050565b60006182c284600360040160000173__AddressSortedLinkedList_______________63e0fe44b39091896040518363ffffffff1660e01b8152600401808381526020018273ffffffffffffffffffffffffffffffffffffffff1673ffffffffffffffffffffffffffffffffffffffff1681526020019250505060206040518083038186803b15801561827957600080fd5b505af415801561828d573d6000803e3d6000fd5b505050506040513d60208110156182a357600080fd5b8101908080519060200190929190505050617ea590919063ffffffff16565b9050600360040160000173__AddressSortedLinkedList_______________63cab455ae9091878487876040518663ffffffff1660e01b8152600401808681526020018573ffffffffffffffffffffffffffffffffffffffff1673ffffffffffffffffffffffffffffffffffffffff1681526020018481526020018373ffffffffffffffffffffffffffffffffffffffff1673ffffffffffffffffffffffffffffffffffffffff1681526020018273ffffffffffffffffffffffffffffffffffffffff1673ffffffffffffffffffffffffffffffffffffffff1681526020019550505050505060006040518083038186803b1580156183c057600080fd5b505af41580156183d4573d6000803e3d6000fd5b505050505050505050565b6183e7619d33565b6040518060200160405280838152509050919050565b618405619d33565b604051806020016040528069d3c21bcecceda1000000815250905090565b60008160000151836000015110905092915050565b60008060036002019050618459838260000154618a6290919063ffffffff16565b8160000181905550600080905060006184728787616374565b905060008360010160008973ffffffffffffffffffffffffffffffffffffffff1673ffffffffffffffffffffffffffffffffffffffff16815260200190815260200160002090508582141561850a578060020160008873ffffffffffffffffffffffffffffffffffffffff1673ffffffffffffffffffffffffffffffffffffffff168152602001908152602001600020549250618517565b61851488876195da565b92505b61852e868260000154618a6290919063ffffffff16565b816000018190555061854d838260010154618a6290919063ffffffff16565b81600101819055506185a9838260020160008a73ffffffffffffffffffffffffffffffffffffffff1673ffffffffffffffffffffffffffffffffffffffff16815260200190815260200160002054618a6290919063ffffffff16565b8160020160008973ffffffffffffffffffffffffffffffffffffffff1673ffffffffffffffffffffffffffffffffffffffff16815260200190815260200160002081905550829450505050509392505050565b600360040160000173__AddressSortedLinkedList_______________6302f130289091866040518363ffffffff1660e01b8152600401808381526020018273ffffffffffffffffffffffffffffffffffffffff1673ffffffffffffffffffffffffffffffffffffffff1681526020019250505060206040518083038186803b15801561868857600080fd5b505af415801561869c573d6000803e3d6000fd5b505050506040513d60208110156186b257600080fd5b8101908080519060200190929190505050156188bb5760006187a384600360040160000173__AddressSortedLinkedList_______________63e0fe44b39091896040518363ffffffff1660e01b8152600401808381526020018273ffffffffffffffffffffffffffffffffffffffff1673ffffffffffffffffffffffffffffffffffffffff1681526020019250505060206040518083038186803b15801561875a57600080fd5b505af415801561876e573d6000803e3d6000fd5b505050506040513d602081101561878457600080fd5b8101908080519060200190929190505050618a6290919063ffffffff16565b9050600360040160000173__AddressSortedLinkedList_______________63cab455ae9091878487876040518663ffffffff1660e01b8152600401808681526020018573ffffffffffffffffffffffffffffffffffffffff1673ffffffffffffffffffffffffffffffffffffffff1681526020018481526020018373ffffffffffffffffffffffffffffffffffffffff1673ffffffffffffffffffffffffffffffffffffffff1681526020018273ffffffffffffffffffffffffffffffffffffffff1673ffffffffffffffffffffffffffffffffffffffff1681526020019550505050505060006040518083038186803b1580156188a157600080fd5b505af41580156188b5573d6000803e3d6000fd5b50505050505b50505050565b82805490508110801561893557508173ffffffffffffffffffffffffffffffffffffffff168382815481106188f257fe5b9060005260206000200160009054906101000a900473ffffffffffffffffffffffffffffffffffffffff1673ffffffffffffffffffffffffffffffffffffffff16145b6189a7576040517f08c379a00000000000000000000000000000000000000000000000000000000081526004018080602001828103825260098152602001807f42616420696e646578000000000000000000000000000000000000000000000081525060200191505060405180910390fd5b60006189c160018580549050618a6290919063ffffffff16565b90508381815481106189cf57fe5b9060005260206000200160009054906101000a900473ffffffffffffffffffffffffffffffffffffffff16848381548110618a0657fe5b9060005260206000200160006101000a81548173ffffffffffffffffffffffffffffffffffffffff021916908373ffffffffffffffffffffffffffffffffffffffff160217905550808481618a5b9190619d46565b5050505050565b6000618aa483836040518060400160405280601e81526020017f536166654d6174683a207375627472616374696f6e206f766572666c6f7700008152506197d3565b905092915050565b6000808590506000618abe888a6155b3565b90506000811115618b5e576000618ad58383617fb3565b9050618ae2898b83617944565b8873ffffffffffffffffffffffffffffffffffffffff168a73ffffffffffffffffffffffffffffffffffffffff167f148075455e24d5cf538793db3e917a157cbadac69dd6a304186daf11b23f76fe836040518082815260200191505060405180910390a3618b5a8184618a6290919063ffffffff16565b9250505b6000618b6a898b616374565b9050600081118015618b7c5750600083115b15618c23576000618b8d8483617fb3565b90506000618b9c8b8d84618438565b90508a73ffffffffffffffffffffffffffffffffffffffff168c73ffffffffffffffffffffffffffffffffffffffff167fae7458f8697a680da6be36406ea0b8f40164915ac9cc40c0dad05a2ff6e8c6a88484604051808381526020018281526020019250505060405180910390a3618c1e8286618a6290919063ffffffff16565b945050505b6000618c38848a618a6290919063ffffffff16565b90506000811115618caf57618c4f8a828a8a6185fc565b6000618c5b8b8d61276d565b1415618cae57618cad600360090160008d73ffffffffffffffffffffffffffffffffffffffff1673ffffffffffffffffffffffffffffffffffffffff1681526020019081526020016000208b886188c1565b5b5b809450505050509695505050505050565b600033905090565b618cd0619d33565b618cd8619893565b821115618d30576040517f08c379a0000000000000000000000000000000000000000000000000000000008152600401808060200182810382526036815260200180619ed06036913960400191505060405180910390fd5b604051806020016040528069d3c21bcecceda100000084028152509050919050565b618d5a619d33565b600083600001511480618d71575060008260000151145b15618d8d576040518060200160405280600081525090506191ab565b69d3c21bcecceda100000082600001511415618dab578290506191ab565b69d3c21bcecceda100000083600001511415618dc9578190506191ab565b600069d3c21bcecceda1000000618ddf856198b2565b6000015181618dea57fe5b0490506000618df8856198e9565b600001519050600069d3c21bcecceda1000000618e14866198b2565b6000015181618e1f57fe5b0490506000618e2d866198e9565b6000015190506000828502905060008514618ec15782858281618e4c57fe5b0414618ec0576040517f08c379a00000000000000000000000000000000000000000000000000000000081526004018080602001828103825260168152602001807f6f766572666c6f7720783179312064657465637465640000000000000000000081525060200191505060405180910390fd5b5b600069d3c21bcecceda10000008202905060008214618f635769d3c21bcecceda1000000828281618eee57fe5b0414618f62576040517f08c379a000000000000000000000000000000000000000000000000000000000815260040180806020018281038252601f8152602001807f6f766572666c6f772078317931202a206669786564312064657465637465640081525060200191505060405180910390fd5b5b8091506000848602905060008614618ff45784868281618f7f57fe5b0414618ff3576040517f08c379a00000000000000000000000000000000000000000000000000000000081526004018080602001828103825260168152602001807f6f766572666c6f7720783279312064657465637465640000000000000000000081525060200191505060405180910390fd5b5b6000848802905060008814619082578488828161900d57fe5b0414619081576040517f08c379a00000000000000000000000000000000000000000000000000000000081526004018080602001828103825260168152602001807f6f766572666c6f7720783179322064657465637465640000000000000000000081525060200191505060405180910390fd5b5b61908a619926565b878161909257fe5b04965061909d619926565b85816190a557fe5b049450600085880290506000881461913657858882816190c157fe5b0414619135576040517f08c379a00000000000000000000000000000000000000000000000000000000081526004018080602001828103825260168152602001807f6f766572666c6f7720783279322064657465637465640000000000000000000081525060200191505060405180910390fd5b5b61913e619d33565b604051806020016040528087815250905061916781604051806020016040528087815250619933565b905061918181604051806020016040528086815250619933565b905061919b81604051806020016040528085815250619933565b9050809a50505050505050505050505b92915050565b600069d3c21bcecceda10000008260000151816191ca57fe5b049050919050565b600081600001519050919050565b6191e8619d33565b600082600001511415619263576040517f08c379a00000000000000000000000000000000000000000000000000000000081526004018080602001828103825260118152602001807f63616e277420646976696465206279203000000000000000000000000000000081525060200191505060405180910390fd5b600069d3c21bcecceda10000008460000151029050836000015169d3c21bcecceda1000000828161929057fe5b0414619304576040517f08c379a00000000000000000000000000000000000000000000000000000000081526004018080602001828103825260128152602001807f6f766572666c6f7720617420646976696465000000000000000000000000000081525060200191505060405180910390fd5b60405180602001604052808460000151838161931c57fe5b0481525091505092915050565b6193378282600085516199dc565b5050565b600080600360020160010160008573ffffffffffffffffffffffffffffffffffffffff1673ffffffffffffffffffffffffffffffffffffffff168152602001908152602001600020600101541415619396576000905061944e565b61944b600360020160010160008573ffffffffffffffffffffffffffffffffffffffff1673ffffffffffffffffffffffffffffffffffffffff1681526020019081526020016000206001015461943d600360020160010160008773ffffffffffffffffffffffffffffffffffffffff1673ffffffffffffffffffffffffffffffffffffffff1681526020019081526020016000206000015485617f2d90919063ffffffff16565b617fcc90919063ffffffff16565b90505b92915050565b61945c619d33565b619464619d33565b61946d84618cc8565b9050619477619d33565b61948084618cc8565b905061948c82826191e0565b9250505092915050565b600073ffffffffffffffffffffffffffffffffffffffff168173ffffffffffffffffffffffffffffffffffffffff16141561951c576040517f08c379a0000000000000000000000000000000000000000000000000000000008152600401808060200182810382526026815260200180619e016026913960400191505060405180910390fd5b8073ffffffffffffffffffffffffffffffffffffffff166000809054906101000a900473ffffffffffffffffffffffffffffffffffffffff1673ffffffffffffffffffffffffffffffffffffffff167f8be0079c531659141344cd1fd0a4f28419497f9722a3daafe3b4186f6b6457e060405160405180910390a3806000806101000a81548173ffffffffffffffffffffffffffffffffffffffff021916908373ffffffffffffffffffffffffffffffffffffffff16021790555050565b600080600360020160010160008573ffffffffffffffffffffffffffffffffffffffff1673ffffffffffffffffffffffffffffffffffffffff16815260200190815260200160002060010154141561964f5761964868056bc75e2d6310000083617f2d90919063ffffffff16565b9050619707565b619704600360020160010160008573ffffffffffffffffffffffffffffffffffffffff1673ffffffffffffffffffffffffffffffffffffffff168152602001908152602001600020600001546196f6600360020160010160008773ffffffffffffffffffffffffffffffffffffffff1673ffffffffffffffffffffffffffffffffffffffff1681526020019081526020016000206001015485617f2d90919063ffffffff16565b617fcc90919063ffffffff16565b90505b92915050565b600080831182906197b9576040517f08c379a00000000000000000000000000000000000000000000000000000000081526004018080602001828103825283818151815260200191508051906020019080838360005b8381101561977e578082015181840152602081019050619763565b50505050905090810190601f1680156197ab5780820380516001836020036101000a031916815260200191505b509250505060405180910390fd5b5060008385816197c557fe5b049050809150509392505050565b6000838311158290619880576040517f08c379a00000000000000000000000000000000000000000000000000000000081526004018080602001828103825283818151815260200191508051906020019080838360005b8381101561984557808201518184015260208101905061982a565b50505050905090810190601f1680156198725780820380516001836020036101000a031916815260200191505b509250505060405180910390fd5b5060008385039050809150509392505050565b60007601357c299a88ea76a58924d52ce4f26a85af186c2b9e74905090565b6198ba619d33565b604051806020016040528069d3c21bcecceda1000000808560000151816198dd57fe5b04028152509050919050565b6198f1619d33565b604051806020016040528069d3c21bcecceda10000008085600001518161991457fe5b04028460000151038152509050919050565b600064e8d4a51000905090565b61993b619d33565b60008260000151846000015101905083600001518110156199c4576040517f08c379a00000000000000000000000000000000000000000000000000000000081526004018080602001828103825260158152602001807f616464206f766572666c6f77206465746563746564000000000000000000000081525060200191505060405180910390fd5b60405180602001604052808281525091505092915050565b8251845114619a36576040517f08c379a000000000000000000000000000000000000000000000000000000000815260040180806020018281038252602381526020018061a0626023913960400191505060405180910390fd5b83518210619aac576040517f08c379a000000000000000000000000000000000000000000000000000000000815260040180806020018281038252601d8152602001807f6865617020737461727420696e646578206f7574206f662072616e676500000081525060200191505060405180910390fd5b8351811115619b23576040517f08c379a00000000000000000000000000000000000000000000000000000000081526004018080602001828103825260188152602001807f68656170206c656e677468206f7574206f662072616e6765000000000000000081525060200191505060405180910390fd5b60008290505b600115619cea576000619b596001619b4b600285617f2d90919063ffffffff16565b617ea590919063ffffffff16565b90506000619b846002619b76600286617f2d90919063ffffffff16565b617ea590919063ffffffff16565b905060008390508483108015619bf55750619bf487898381518110619ba557fe5b602002602001015181518110619bb757fe5b6020026020010151888a8681518110619bcc57fe5b602002602001015181518110619bde57fe5b6020026020010151619cf190919063ffffffff16565b5b15619bfe578290505b8482108015619c685750619c6787898381518110619c1857fe5b602002602001015181518110619c2a57fe5b6020026020010151888a8581518110619c3f57fe5b602002602001015181518110619c5157fe5b6020026020010151619cf190919063ffffffff16565b5b15619c71578190505b83811415619c8157505050619cea565b6000888581518110619c8f57fe5b60200260200101519050888281518110619ca557fe5b6020026020010151898681518110619cb957fe5b60200260200101818152505080898381518110619cd257fe5b60200260200101818152505081945050505050619b29565b5050505050565b60008160000151836000015111905092915050565b604051806040016040528060608152602001600081525090565b6040518060200160405280600081525090565b6040518060200160405280600081525090565b815481835581811115619d6d57818360005260206000209182019101619d6c9190619d72565b5b505050565b619d9491905b80821115619d90576000816000905550600101619d78565b5090565b9056fe4d6178696d756d20656c65637461626c652076616c696461746f72732063616e6e6f7420626520736d616c6c6572207468616e206d696e696d756d6572726f722063616c6c696e67206e756d62657256616c696461746f7273496e53657420707265636f6d70696c654f776e61626c653a206e6577206f776e657220697320746865207a65726f2061646472657373496e707574206c656e67746873206d75737420626520636f72726573706f6e642e456c6563746162696c697479207468726573686f6c64206d757374206265206c6f776572207468616e20313030256572726f722063616c6c696e672067657456657269666965645365616c4269746d617046726f6d48656164657220707265636f6d70696c6563616e27742063616c6c207768656e20636f6e74726163742069732066726f7a656e63616e277420637265617465206669786964697479206e756d626572206c6172676572207468616e206d61784e657746697865642829566f74652076616c7565206c6172676572207468616e2061637469766520766f7465736572726f722063616c6c696e672076616c696461746f725369676e65724164647265737346726f6d43757272656e7453657420707265636f6d70696c656572726f722063616c6c696e67206e756d62657256616c696461746f7273496e43757272656e7453657420707265636f6d70696c656572726f722063616c6c696e672076616c696461746f725369676e65724164647265737346726f6d53657420707265636f6d70696c65536166654d6174683a206d756c7469706c69636174696f6e206f766572666c6f776572726f722063616c6c696e67206672616374696f6e4d756c45787020707265636f6d70696c656572726f722063616c6c696e672067657445706f636853697a6520707265636f6d70696c65566f74652076616c7565206c6172676572207468616e2070656e64696e6720766f7465736b657920616e642076616c7565206172726179206c656e677468206d69736d617463686572726f722063616c6c696e6720676574506172656e745365616c4269746d617020707265636f6d70696c656572726f722063616c6c696e6720676574426c6f636b4e756d62657246726f6d48656164657220707265636f6d70696c654d696e696d756d20656c65637461626c652076616c696461746f72732063616e6e6f74206265207a65726f44656372656d656e742076616c7565206d7573742062652067726561746572207468616e20302e6572726f722063616c6c696e67206861736848656164657220707265636f6d70696c65a165627a7a7230582084232494be1833d44b976a9743b9d2fcc418ed9df312aa09261173aad770f1a20029",
  "source": "pragma solidity ^0.5.8;\n\nimport \"../Election.sol\";\nimport \"../../common/FixidityLib.sol\";\n\n/**\n * @title A wrapper around Election that exposes onlyVm functions for testing.\n */\ncontract ElectionTest is Election {\n  function distributeEpochRewards(address group, uint256 value, address lesser, address greater)\n    external\n  {\n    return _distributeEpochRewards(group, value, lesser, greater);\n  }\n}\n",
  "sourcePath": "/Users/cmcewen/celo/celo-monorepo/packages/protocol/contracts/governance/test/ElectionTest.sol",
  "compiler": {
    "name": "solc",
    "version": "0.5.8+commit.23d335f2.Emscripten.clang"
  },
  "schemaVersion": "3.0.10",
  "updatedAt": "2020-04-09T23:12:53.221Z",
  "devdoc": {
    "methods": {
      "activate(address)": {
        "details": "Pending votes cannot be activated until an election has been held.",
        "params": {
          "group": "The validator group to vote for."
        },
        "return": "True upon success."
      },
      "canReceiveVotes(address,uint256)": {
        "details": "Votes are not allowed to be cast that would increase a group's proportion of locked gold  voting for it to greater than  (numGroupMembers + 1) / min(maxElectableValidators, numRegisteredValidators)Note that groups may still receive additional votes via rewards even if this function  returns false.",
        "params": {
          "group": "The address of the group.",
          "value": "The number of votes."
        },
        "return": "Whether or not a group can receive the specified number of votes."
      },
      "checkProofOfPossession(address,bytes,bytes)": {
        "params": {
          "blsKey": "The BLS public key that the validator is using for consensus, should pass proof  of possession. 48 bytes.",
          "blsPop": "The BLS public key proof-of-possession, which consists of a signature on the  account address. 96 bytes.",
          "sender": "The address signed by the BLS key to generate the proof of possession."
        },
        "return": "True upon success."
      },
      "electNValidatorSigners(uint256,uint256)": {
        "details": "See https://en.wikipedia.org/wiki/D%27Hondt_method#Allocation for more information.",
        "return": "The list of elected validators."
      },
      "electValidatorSigners()": {
        "return": "The list of elected validators."
      },
      "forceDecrementVotes(address,uint256,address[],address[],uint256[])": {
        "params": {
          "account": "Address to revoke votes from.",
          "greaters": "The groups receivier more votes than the i'th `group`, or 0 if               the i'th `group` has the most votes of any validator group.",
          "indices": "The indices of the i'th group in the account's voting list.",
          "lessers": "The groups receiving fewer votes than the i'th `group`, or 0 if               the i'th `group` has the fewest votes of any validator group.",
          "value": "Maximum amount of votes to revoke."
        },
        "return": "Number of votes successfully decremented."
      },
      "fractionMulExp(uint256,uint256,uint256,uint256,uint256,uint256)": {
        "params": {
          "_decimals": "precision",
          "aDenominator": "Denominator of first fraction",
          "aNumerator": "Numerator of first fraction",
          "bDenominator": "Denominator of exponentiated fraction",
          "bNumerator": "Numerator of exponentiated fraction",
          "exponent": "exponent to raise b to"
        },
        "return": "numerator/denominator of the computed quantity (not reduced)."
      },
      "getActiveVoteUnitsForGroup(address)": {
        "params": {
          "group": "The address of the validator group."
        },
        "return": "The total active vote units made for `group`."
      },
      "getActiveVoteUnitsForGroupByAccount(address,address)": {
        "params": {
          "account": "The address of the voting account.",
          "group": "The address of the validator group."
        },
        "return": "The active vote units for `group` made by `account`."
      },
      "getActiveVotes()": {
        "return": "The active votes received across all groups."
      },
      "getActiveVotesForGroup(address)": {
        "params": {
          "group": "The address of the validator group."
        },
        "return": "The active votes made for `group`."
      },
      "getActiveVotesForGroupByAccount(address,address)": {
        "params": {
          "account": "The address of the voting account.",
          "group": "The address of the validator group."
        },
        "return": "The active votes for `group` made by `account`."
      },
      "getBlockNumberFromHeader(bytes)": {
        "params": {
          "header": "RLP encoded header"
        },
        "return": "Block number."
      },
      "getCurrentValidatorSigners()": {
        "return": "List of current validator signers."
      },
      "getElectabilityThreshold()": {
        "return": "Threshold value as unwrapped fraction."
      },
      "getElectableValidators()": {
        "return": "The minimum and maximum number of validators that can be elected."
      },
      "getEligibleValidatorGroups()": {
        "return": "The list of validator groups eligible to elect validators."
      },
      "getEpochNumber()": {
        "return": "Current epoch number."
      },
      "getEpochNumberOfBlock(uint256)": {
        "params": {
          "blockNumber": "Block number where epoch number is calculated."
        },
        "return": "Epoch number."
      },
      "getEpochSize()": {
        "return": "The current epoch size in blocks."
      },
      "getGroupEligibility(address)": {
        "details": "Eligible groups that have received their maximum number of votes cannot receive more.",
        "return": "Whether or not a group is eligible to receive votes."
      },
      "getGroupEpochRewards(address,uint256,uint256[])": {
        "details": "Eligible groups that have received their maximum number of votes cannot receive more.",
        "params": {
          "group": "The group to calculate epoch rewards for.",
          "totalEpochRewards": "The total amount of rewards going to all voters.",
          "uptimes": "Array of Fixidity representations of the validators' uptimes, between 0 and 1."
        },
        "return": "The amount of rewards that voters for `group` are due at the end of an epoch."
      },
      "getGroupsVotedForByAccount(address)": {
        "params": {
          "account": "The address of the account casting votes."
        },
        "return": "The groups that `account` has voted for."
      },
      "getNumVotesReceivable(address)": {
        "details": "Votes are not allowed to be cast that would increase a group's proportion of locked gold  voting for it to greater than  (numGroupMembers + 1) / min(maxElectableValidators, numRegisteredValidators)Note that a group's vote total may exceed this number through rewards or config changes.",
        "params": {
          "group": "The address of the group."
        },
        "return": "The number of votes that a group can receive."
      },
      "getParentSealBitmap(uint256)": {
        "params": {
          "blockNumber": "Block number to retrieve. Must be within 4 epochs of the current number."
        },
        "return": "Bitmap parent seal with set bits at indices corresponding to signing validators."
      },
      "getPendingVotesForGroup(address)": {
        "params": {
          "group": "The address of the validator group."
        },
        "return": "The pending votes made for `group`."
      },
      "getPendingVotesForGroupByAccount(address,address)": {
        "params": {
          "account": "The address of the voting account.",
          "group": "The address of the validator group."
        },
        "return": "The pending votes for `group` made by `account`."
      },
      "getTotalVotes()": {
        "return": "The total votes received across all groups."
      },
      "getTotalVotesByAccount(address)": {
        "params": {
          "account": "The address of the account."
        },
        "return": "The total number of votes cast by an account."
      },
      "getTotalVotesForEligibleValidatorGroups()": {
        "return": "Lists of all validator groups and the number of votes they've received."
      },
      "getTotalVotesForGroup(address)": {
        "params": {
          "group": "The address of the validator group."
        },
        "return": "The total votes made for `group`."
      },
      "getTotalVotesForGroupByAccount(address,address)": {
        "params": {
          "account": "The address of the voting account.",
          "group": "The address of the validator group."
        },
        "return": "The total votes for `group` made by `account`."
      },
      "getVerifiedSealBitmapFromHeader(bytes)": {
        "params": {
          "header": "RLP encoded header"
        },
        "return": "Bitmap parent seal with set bits at indices correspoinding to signing validators."
      },
      "hasActivatablePendingVotes(address,address)": {
        "details": "Pending votes cannot be activated until an election has been held.",
        "params": {
          "account": "The account with pending votes.",
          "group": "The validator group that `account` has pending votes for."
        },
        "return": "Whether or not `account` has activatable votes for `group`."
      },
      "hashHeader(bytes)": {
        "params": {
          "header": "RLP encoded header"
        },
        "return": "Header hash."
      },
      "initialize(address,uint256,uint256,uint256,uint256)": {
        "details": "Should be called only once.",
        "params": {
          "_electabilityThreshold": "The minimum ratio of votes a group needs before its members can  be elected.",
          "_maxNumGroupsVotedFor": "The maximum number of groups that an account can vote for at once.",
          "minElectableValidators": "The minimum number of validators that can be elected.",
          "registryAddress": "The address of the registry core smart contract."
        }
      },
      "isOwner()": {
        "details": "Returns true if the caller is the current owner."
      },
      "markGroupEligible(address,address,address)": {
        "params": {
          "greater": "The address of the group that has received more votes than this group.",
          "group": "The address of the validator group.",
          "lesser": "The address of the group that has received fewer votes than this group."
        }
      },
      "markGroupIneligible(address)": {
        "details": "Can only be called by the registered \"Validators\" contract.",
        "params": {
          "group": "The address of the validator group."
        }
      },
      "minQuorumSize(uint256)": {
        "details": "Computed in celo-blockchain as int(math.Ceil(float64(2*valSet.Size()) / 3))"
      },
      "minQuorumSizeInCurrentSet()": {
        "return": "Byzantine quorum of validators."
      },
      "numberValidatorsInCurrentSet()": {
        "return": "Size of the current elected validator set."
      },
      "numberValidatorsInSet(uint256)": {
        "params": {
          "blockNumber": "Block number to retrieve the validator set from."
        },
        "return": "Size of the validator set."
      },
      "owner()": {
        "details": "Returns the address of the current owner."
      },
      "renounceOwnership()": {
        "details": "Leaves the contract without owner. It will not be possible to call `onlyOwner` functions anymore. Can only be called by the current owner.     * NOTE: Renouncing ownership will leave the contract without an owner, thereby removing any functionality that is only available to the owner."
      },
      "revokeActive(address,uint256,address,address,uint256)": {
        "details": "Fails if the account has not voted on a validator group.",
        "params": {
          "greater": "The group receiving more votes than the group for which the vote was revoked,  or 0 if that group has the most votes of any validator group.",
          "group": "The validator group to revoke votes from.",
          "index": "The index of the group in the account's voting list.",
          "lesser": "The group receiving fewer votes than the group for which the vote was revoked,  or 0 if that group has the fewest votes of any validator group.",
          "value": "The number of votes to revoke."
        },
        "return": "True upon success."
      },
      "revokeAllActive(address,address,address,uint256)": {
        "details": "Fails if the account has not voted on a validator group.",
        "params": {
          "greater": "The group receiving more votes than the group for which the vote was revoked,  or 0 if that group has the most votes of any validator group.",
          "group": "The validator group to revoke votes from.",
          "index": "The index of the group in the account's voting list.",
          "lesser": "The group receiving fewer votes than the group for which the vote was revoked,  or 0 if that group has the fewest votes of any validator group."
        },
        "return": "True upon success."
      },
      "revokePending(address,uint256,address,address,uint256)": {
        "details": "Fails if the account has not voted on a validator group.",
        "params": {
          "greater": "The group receiving more votes than the group for which the vote was revoked,  or 0 if that group has the most votes of any validator group.",
          "group": "The validator group to revoke votes from.",
          "index": "The index of the group in the account's voting list.",
          "lesser": "The group receiving fewer votes than the group for which the vote was revoked,  or 0 if that group has the fewest votes of any validator group.",
          "value": "The number of votes to revoke."
        },
        "return": "True upon success."
      },
      "setElectabilityThreshold(uint256)": {
        "params": {
          "threshold": "Electability threshold as unwrapped Fraction."
        },
        "return": "True upon success."
      },
      "setElectableValidators(uint256,uint256)": {
        "params": {
          "max": "The maximum number of validators that can be elected.",
          "min": "The minimum number of validators that can be elected."
        },
        "return": "True upon success."
      },
      "setMaxNumGroupsVotedFor(uint256)": {
        "params": {
          "_maxNumGroupsVotedFor": "The maximum number of groups an account can vote for."
        },
        "return": "True upon success."
      },
      "setRegistry(address)": {
        "params": {
          "registryAddress": "The address of a registry contract for routing to other contracts."
        }
      },
      "transferOwnership(address)": {
        "details": "Transfers ownership of the contract to a new account (`newOwner`). Can only be called by the current owner."
      },
      "validatorSignerAddressFromCurrentSet(uint256)": {
        "params": {
          "index": "Index of requested validator in the validator set."
        },
        "return": "Address of validator at the requested index."
      },
      "validatorSignerAddressFromSet(uint256,uint256)": {
        "params": {
          "blockNumber": "Block number to retrieve the validator set from.",
          "index": "Index of requested validator in the validator set."
        },
        "return": "Address of validator at the requested index."
      },
      "vote(address,uint256,address,address)": {
        "details": "Fails if `group` is empty or not a validator group.",
        "params": {
          "greater": "The group receiving more votes than `group`, or 0 if `group` has the  most votes of any validator group.",
          "group": "The validator group to vote for.",
          "lesser": "The group receiving fewer votes than `group`, or 0 if `group` has the  fewest votes of any validator group.",
          "value": "The amount of gold to use to vote."
        },
        "return": "True upon success."
      }
    },
    "title": "A wrapper around Election that exposes onlyVm functions for testing."
  },
  "userdoc": {
    "methods": {
      "activate(address)": {
        "notice": "Converts `account`'s pending votes for `group` to active votes."
      },
      "canReceiveVotes(address,uint256)": {
        "notice": "Returns whether or not a group can receive the specified number of votes."
      },
      "checkProofOfPossession(address,bytes,bytes)": {
        "notice": "Checks a BLS proof of possession."
      },
      "electNValidatorSigners(uint256,uint256)": {
        "notice": "Returns a list of elected validators with seats allocated to groups via the D'Hondt  method."
      },
      "electValidatorSigners()": {
        "notice": "Returns a list of elected validators with seats allocated to groups via the D'Hondt  method."
      },
      "forceDecrementVotes(address,uint256,address[],address[],uint256[])": {
        "notice": "Reduces the total amount of `account`'s voting gold by `value` by        iterating over all groups voted for by account."
      },
      "fractionMulExp(uint256,uint256,uint256,uint256,uint256,uint256)": {
        "notice": "calculate a * b^x for fractions a, b to `decimals` precision"
      },
      "getActiveVoteUnitsForGroup(address)": {
        "notice": "Returns the total active vote units made for `group`."
      },
      "getActiveVoteUnitsForGroupByAccount(address,address)": {
        "notice": "Returns the active vote units for `group` made by `account`."
      },
      "getActiveVotes()": {
        "notice": "Returns the active votes received across all groups."
      },
      "getActiveVotesForGroup(address)": {
        "notice": "Returns the active votes made for `group`."
      },
      "getActiveVotesForGroupByAccount(address,address)": {
        "notice": "Returns the active votes for `group` made by `account`."
      },
      "getBlockNumberFromHeader(bytes)": {
        "notice": "Parses block number out of header."
      },
      "getCurrentValidatorSigners()": {
        "notice": "Returns get current validator signers using the precompiles."
      },
      "getElectabilityThreshold()": {
        "notice": "Gets the election threshold."
      },
      "getElectableValidators()": {
        "notice": "Returns the minimum and maximum number of validators that can be elected."
      },
      "getEligibleValidatorGroups()": {
        "notice": "Returns the list of validator groups eligible to elect validators."
      },
      "getEpochNumber()": {
        "notice": "Returns the epoch number at a block."
      },
      "getEpochNumberOfBlock(uint256)": {
        "notice": "Returns the epoch number at a block."
      },
      "getEpochSize()": {
        "notice": "Returns the current epoch size in blocks."
      },
      "getGroupEligibility(address)": {
        "notice": "Returns whether or not a group is eligible to receive votes."
      },
      "getGroupEpochRewards(address,uint256,uint256[])": {
        "notice": "Returns the amount of rewards that voters for `group` are due at the end of an epoch."
      },
      "getGroupsVotedForByAccount(address)": {
        "notice": "Returns the groups that `account` has voted for."
      },
      "getNumVotesReceivable(address)": {
        "notice": "Returns the number of votes that a group can receive."
      },
      "getParentSealBitmap(uint256)": {
        "notice": "Gets the parent seal bitmap from the header at the given block number."
      },
      "getPendingVotesForGroup(address)": {
        "notice": "Returns the pending votes made for `group`."
      },
      "getPendingVotesForGroupByAccount(address,address)": {
        "notice": "Returns the pending votes for `group` made by `account`."
      },
      "getTotalVotes()": {
        "notice": "Returns the total votes received across all groups."
      },
      "getTotalVotesByAccount(address)": {
        "notice": "Returns the total number of votes cast by an account."
      },
      "getTotalVotesForEligibleValidatorGroups()": {
        "notice": "Returns lists of all validator groups and the number of votes they've received."
      },
      "getTotalVotesForGroup(address)": {
        "notice": "Returns the total votes made for `group`."
      },
      "getTotalVotesForGroupByAccount(address,address)": {
        "notice": "Returns the total votes for `group` made by `account`."
      },
      "getVerifiedSealBitmapFromHeader(bytes)": {
        "notice": "Verifies the BLS signature on the header and returns the seal bitmap. The validator set used for verification is retrieved based on the parent hash field of the header.  If the parent hash is not in the blockchain, verification fails."
      },
      "hasActivatablePendingVotes(address,address)": {
        "notice": "Returns whether or not an account's votes for the specified group can be activated."
      },
      "hashHeader(bytes)": {
        "notice": "Computes hash of header."
      },
      "initialize(address,uint256,uint256,uint256,uint256)": {
        "notice": "Used in place of the constructor to allow the contract to be upgradable via proxy."
      },
      "markGroupEligible(address,address,address)": {
        "notice": "Marks a group eligible for electing validators."
      },
      "markGroupIneligible(address)": {
        "notice": "Marks a group ineligible for electing validators."
      },
      "minQuorumSize(uint256)": {
        "notice": "Returns the minimum number of required signers for a given block number."
      },
      "minQuorumSizeInCurrentSet()": {
        "notice": "Computes byzantine quorum from current validator set size"
      },
      "numberValidatorsInCurrentSet()": {
        "notice": "Gets the size of the current elected validator set."
      },
      "numberValidatorsInSet(uint256)": {
        "notice": "Gets the size of the validator set that must sign the given block number."
      },
      "revokeActive(address,uint256,address,address,uint256)": {
        "notice": "Revokes `value` active votes for `group`"
      },
      "revokeAllActive(address,address,address,uint256)": {
        "notice": "Revokes all active votes for `group`"
      },
      "revokePending(address,uint256,address,address,uint256)": {
        "notice": "Revokes `value` pending votes for `group`"
      },
      "setElectabilityThreshold(uint256)": {
        "notice": "Sets the electability threshold."
      },
      "setElectableValidators(uint256,uint256)": {
        "notice": "Updates the minimum and maximum number of validators that can be elected."
      },
      "setMaxNumGroupsVotedFor(uint256)": {
        "notice": "Updates the maximum number of groups an account can be voting for at once."
      },
      "setRegistry(address)": {
        "notice": "Updates the address pointing to a Registry contract."
      },
      "validatorSignerAddressFromCurrentSet(uint256)": {
        "notice": "Gets a validator address from the current validator set."
      },
      "validatorSignerAddressFromSet(uint256,uint256)": {
        "notice": "Gets a validator address from the validator set at the given block number."
      },
      "vote(address,uint256,address,address)": {
        "notice": "Increments the number of total and pending votes for `group`."
      }
    }
  }
}