{
  "contractName": "EpochRewardsTest",
  "abi": [
    {
      "constant": true,
      "inputs": [
        {
          "name": "index",
          "type": "uint256"
        }
      ],
      "name": "validatorSignerAddressFromCurrentSet",
      "outputs": [
        {
          "name": "",
          "type": "address"
        }
      ],
      "payable": false,
      "stateMutability": "view",
      "type": "function"
    },
    {
      "constant": true,
      "inputs": [],
      "name": "initialized",
      "outputs": [
        {
          "name": "",
          "type": "bool"
        }
      ],
      "payable": false,
      "stateMutability": "view",
      "type": "function"
    },
    {
      "constant": true,
      "inputs": [],
      "name": "getTargetVotingYieldParameters",
      "outputs": [
        {
          "name": "",
          "type": "uint256"
        },
        {
          "name": "",
          "type": "uint256"
        },
        {
          "name": "",
          "type": "uint256"
        }
      ],
      "payable": false,
      "stateMutability": "view",
      "type": "function"
    },
    {
      "constant": true,
      "inputs": [],
      "name": "carbonOffsettingPartner",
      "outputs": [
        {
          "name": "",
          "type": "address"
        }
      ],
      "payable": false,
      "stateMutability": "view",
      "type": "function"
    },
    {
      "constant": true,
      "inputs": [
        {
          "name": "sender",
          "type": "address"
        },
        {
          "name": "blsKey",
          "type": "bytes"
        },
        {
          "name": "blsPop",
          "type": "bytes"
        }
      ],
      "name": "checkProofOfPossession",
      "outputs": [
        {
          "name": "",
          "type": "bool"
        }
      ],
      "payable": false,
      "stateMutability": "view",
      "type": "function"
    },
    {
      "constant": true,
      "inputs": [],
      "name": "getTargetVoterRewards",
      "outputs": [
        {
          "name": "",
          "type": "uint256"
        }
      ],
      "payable": false,
      "stateMutability": "view",
      "type": "function"
    },
    {
      "constant": true,
      "inputs": [
        {
          "name": "blockNumber",
          "type": "uint256"
        }
      ],
      "name": "getEpochNumberOfBlock",
      "outputs": [
        {
          "name": "",
          "type": "uint256"
        }
      ],
      "payable": false,
      "stateMutability": "view",
      "type": "function"
    },
    {
      "constant": false,
      "inputs": [
        {
          "name": "partner",
          "type": "address"
        },
        {
          "name": "value",
          "type": "uint256"
        }
      ],
      "name": "setCarbonOffsettingFund",
      "outputs": [
        {
          "name": "",
          "type": "bool"
        }
      ],
      "payable": false,
      "stateMutability": "nonpayable",
      "type": "function"
    },
    {
      "constant": true,
      "inputs": [],
      "name": "getTargetTotalEpochPaymentsInGold",
      "outputs": [
        {
          "name": "",
          "type": "uint256"
        }
      ],
      "payable": false,
      "stateMutability": "view",
      "type": "function"
    },
    {
      "constant": true,
      "inputs": [
        {
          "name": "header",
          "type": "bytes"
        }
      ],
      "name": "getVerifiedSealBitmapFromHeader",
      "outputs": [
        {
          "name": "",
          "type": "bytes32"
        }
      ],
      "payable": false,
      "stateMutability": "view",
      "type": "function"
    },
    {
      "constant": true,
      "inputs": [],
      "name": "getTargetGoldTotalSupply",
      "outputs": [
        {
          "name": "",
          "type": "uint256"
        }
      ],
      "payable": false,
      "stateMutability": "view",
      "type": "function"
    },
    {
      "constant": false,
      "inputs": [
        {
          "name": "max",
          "type": "uint256"
        },
        {
          "name": "adjustmentFactor",
          "type": "uint256"
        }
      ],
      "name": "setTargetVotingYieldParameters",
      "outputs": [
        {
          "name": "",
          "type": "bool"
        }
      ],
      "payable": false,
      "stateMutability": "nonpayable",
      "type": "function"
    },
    {
      "constant": true,
      "inputs": [
        {
          "name": "index",
          "type": "uint256"
        },
        {
          "name": "blockNumber",
          "type": "uint256"
        }
      ],
      "name": "validatorSignerAddressFromSet",
      "outputs": [
        {
          "name": "",
          "type": "address"
        }
      ],
      "payable": false,
      "stateMutability": "view",
      "type": "function"
    },
    {
      "constant": true,
      "inputs": [],
      "name": "getRewardsMultiplierParameters",
      "outputs": [
        {
          "name": "",
          "type": "uint256"
        },
        {
          "name": "",
          "type": "uint256"
        },
        {
          "name": "",
          "type": "uint256"
        }
      ],
      "payable": false,
      "stateMutability": "view",
      "type": "function"
    },
    {
      "constant": true,
      "inputs": [],
      "name": "calculateTargetEpochRewards",
      "outputs": [
        {
          "name": "",
          "type": "uint256"
        },
        {
          "name": "",
          "type": "uint256"
        },
        {
          "name": "",
          "type": "uint256"
        },
        {
          "name": "",
          "type": "uint256"
        }
      ],
      "payable": false,
      "stateMutability": "view",
      "type": "function"
    },
    {
      "constant": true,
      "inputs": [
        {
          "name": "header",
          "type": "bytes"
        }
      ],
      "name": "hashHeader",
      "outputs": [
        {
          "name": "",
          "type": "bytes32"
        }
      ],
      "payable": false,
      "stateMutability": "view",
      "type": "function"
    },
    {
      "constant": false,
      "inputs": [],
      "name": "renounceOwnership",
      "outputs": [],
      "payable": false,
      "stateMutability": "nonpayable",
      "type": "function"
    },
    {
      "constant": true,
      "inputs": [],
      "name": "minQuorumSizeInCurrentSet",
      "outputs": [
        {
          "name": "",
          "type": "uint256"
        }
      ],
      "payable": false,
      "stateMutability": "view",
      "type": "function"
    },
    {
      "constant": true,
      "inputs": [],
      "name": "startTime",
      "outputs": [
        {
          "name": "",
          "type": "uint256"
        }
      ],
      "payable": false,
      "stateMutability": "view",
      "type": "function"
    },
    {
      "constant": true,
      "inputs": [],
      "name": "registry",
      "outputs": [
        {
          "name": "",
          "type": "address"
        }
      ],
      "payable": false,
      "stateMutability": "view",
      "type": "function"
    },
    {
      "constant": false,
      "inputs": [
        {
          "name": "registryAddress",
          "type": "address"
        },
        {
          "name": "targetVotingYieldInitial",
          "type": "uint256"
        },
        {
          "name": "targetVotingYieldMax",
          "type": "uint256"
        },
        {
          "name": "targetVotingYieldAdjustmentFactor",
          "type": "uint256"
        },
        {
          "name": "rewardsMultiplierMax",
          "type": "uint256"
        },
        {
          "name": "rewardsMultiplierUnderspendAdjustmentFactor",
          "type": "uint256"
        },
        {
          "name": "rewardsMultiplierOverspendAdjustmentFactor",
          "type": "uint256"
        },
        {
          "name": "_targetVotingGoldFraction",
          "type": "uint256"
        },
        {
          "name": "_targetValidatorEpochPayment",
          "type": "uint256"
        },
        {
          "name": "_communityRewardFraction",
          "type": "uint256"
        },
        {
          "name": "_carbonOffsettingPartner",
          "type": "address"
        },
        {
          "name": "_carbonOffsettingFraction",
          "type": "uint256"
        }
      ],
      "name": "initialize",
      "outputs": [],
      "payable": false,
      "stateMutability": "nonpayable",
      "type": "function"
    },
    {
      "constant": true,
      "inputs": [],
      "name": "getCarbonOffsettingFraction",
      "outputs": [
        {
          "name": "",
          "type": "uint256"
        }
      ],
      "payable": false,
      "stateMutability": "view",
      "type": "function"
    },
    {
      "constant": false,
      "inputs": [
        {
          "name": "max",
          "type": "uint256"
        },
        {
          "name": "underspendAdjustmentFactor",
          "type": "uint256"
        },
        {
          "name": "overspendAdjustmentFactor",
          "type": "uint256"
        }
      ],
      "name": "setRewardsMultiplierParameters",
      "outputs": [
        {
          "name": "",
          "type": "bool"
        }
      ],
      "payable": false,
      "stateMutability": "nonpayable",
      "type": "function"
    },
    {
      "constant": true,
      "inputs": [
        {
          "name": "header",
          "type": "bytes"
        }
      ],
      "name": "getBlockNumberFromHeader",
      "outputs": [
        {
          "name": "",
          "type": "uint256"
        }
      ],
      "payable": false,
      "stateMutability": "view",
      "type": "function"
    },
    {
      "constant": true,
      "inputs": [],
      "name": "owner",
      "outputs": [
        {
          "name": "",
          "type": "address"
        }
      ],
      "payable": false,
      "stateMutability": "view",
      "type": "function"
    },
    {
      "constant": true,
      "inputs": [],
      "name": "isOwner",
      "outputs": [
        {
          "name": "",
          "type": "bool"
        }
      ],
      "payable": false,
      "stateMutability": "view",
      "type": "function"
    },
    {
      "constant": false,
      "inputs": [
        {
          "name": "value",
          "type": "uint256"
        }
      ],
      "name": "setTargetVotingGoldFraction",
      "outputs": [
        {
          "name": "",
          "type": "bool"
        }
      ],
      "payable": false,
      "stateMutability": "nonpayable",
      "type": "function"
    },
    {
      "constant": false,
      "inputs": [
        {
          "name": "value",
          "type": "uint256"
        }
      ],
      "name": "setTargetValidatorEpochPayment",
      "outputs": [
        {
          "name": "",
          "type": "bool"
        }
      ],
      "payable": false,
      "stateMutability": "nonpayable",
      "type": "function"
    },
    {
      "constant": true,
      "inputs": [],
      "name": "getCommunityRewardFraction",
      "outputs": [
        {
          "name": "",
          "type": "uint256"
        }
      ],
      "payable": false,
      "stateMutability": "view",
      "type": "function"
    },
    {
      "constant": true,
      "inputs": [],
      "name": "getEpochNumber",
      "outputs": [
        {
          "name": "",
          "type": "uint256"
        }
      ],
      "payable": false,
      "stateMutability": "view",
      "type": "function"
    },
    {
      "constant": true,
      "inputs": [],
      "name": "isReserveLow",
      "outputs": [
        {
          "name": "",
          "type": "bool"
        }
      ],
      "payable": false,
      "stateMutability": "view",
      "type": "function"
    },
    {
      "constant": true,
      "inputs": [
        {
          "name": "blockNumber",
          "type": "uint256"
        }
      ],
      "name": "numberValidatorsInSet",
      "outputs": [
        {
          "name": "",
          "type": "uint256"
        }
      ],
      "payable": false,
      "stateMutability": "view",
      "type": "function"
    },
    {
      "constant": true,
      "inputs": [],
      "name": "getVotingGoldFraction",
      "outputs": [
        {
          "name": "",
          "type": "uint256"
        }
      ],
      "payable": false,
      "stateMutability": "view",
      "type": "function"
    },
    {
      "constant": false,
      "inputs": [
        {
          "name": "registryAddress",
          "type": "address"
        }
      ],
      "name": "setRegistry",
      "outputs": [],
      "payable": false,
      "stateMutability": "nonpayable",
      "type": "function"
    },
    {
      "constant": true,
      "inputs": [],
      "name": "getTargetVotingGoldFraction",
      "outputs": [
        {
          "name": "",
          "type": "uint256"
        }
      ],
      "payable": false,
      "stateMutability": "view",
      "type": "function"
    },
    {
      "constant": false,
      "inputs": [
        {
          "name": "value",
          "type": "uint256"
        }
      ],
      "name": "setCommunityRewardFraction",
      "outputs": [
        {
          "name": "",
          "type": "bool"
        }
      ],
      "payable": false,
      "stateMutability": "nonpayable",
      "type": "function"
    },
    {
      "constant": false,
      "inputs": [
        {
          "name": "targetVotingYield",
          "type": "uint256"
        }
      ],
      "name": "setTargetVotingYield",
      "outputs": [
        {
          "name": "",
          "type": "bool"
        }
      ],
      "payable": false,
      "stateMutability": "nonpayable",
      "type": "function"
    },
    {
      "constant": true,
      "inputs": [],
      "name": "getEpochSize",
      "outputs": [
        {
          "name": "",
          "type": "uint256"
        }
      ],
      "payable": false,
      "stateMutability": "view",
      "type": "function"
    },
    {
      "constant": true,
      "inputs": [],
      "name": "targetValidatorEpochPayment",
      "outputs": [
        {
          "name": "",
          "type": "uint256"
        }
      ],
      "payable": false,
      "stateMutability": "view",
      "type": "function"
    },
    {
      "constant": true,
      "inputs": [
        {
          "name": "blockNumber",
          "type": "uint256"
        }
      ],
      "name": "minQuorumSize",
      "outputs": [
        {
          "name": "",
          "type": "uint256"
        }
      ],
      "payable": false,
      "stateMutability": "view",
      "type": "function"
    },
    {
      "constant": true,
      "inputs": [
        {
          "name": "aNumerator",
          "type": "uint256"
        },
        {
          "name": "aDenominator",
          "type": "uint256"
        },
        {
          "name": "bNumerator",
          "type": "uint256"
        },
        {
          "name": "bDenominator",
          "type": "uint256"
        },
        {
          "name": "exponent",
          "type": "uint256"
        },
        {
          "name": "_decimals",
          "type": "uint256"
        }
      ],
      "name": "fractionMulExp",
      "outputs": [
        {
          "name": "",
          "type": "uint256"
        },
        {
          "name": "",
          "type": "uint256"
        }
      ],
      "payable": false,
      "stateMutability": "view",
      "type": "function"
    },
    {
      "constant": false,
      "inputs": [
        {
          "name": "newOwner",
          "type": "address"
        }
      ],
      "name": "transferOwnership",
      "outputs": [],
      "payable": false,
      "stateMutability": "nonpayable",
      "type": "function"
    },
    {
      "constant": true,
      "inputs": [
        {
          "name": "blockNumber",
          "type": "uint256"
        }
      ],
      "name": "getParentSealBitmap",
      "outputs": [
        {
          "name": "",
          "type": "bytes32"
        }
      ],
      "payable": false,
      "stateMutability": "view",
      "type": "function"
    },
    {
      "anonymous": false,
      "inputs": [
        {
          "indexed": false,
          "name": "fraction",
          "type": "uint256"
        }
      ],
      "name": "TargetVotingGoldFractionSet",
      "type": "event"
    },
    {
      "anonymous": false,
      "inputs": [
        {
          "indexed": false,
          "name": "fraction",
          "type": "uint256"
        }
      ],
      "name": "CommunityRewardFractionSet",
      "type": "event"
    },
    {
      "anonymous": false,
      "inputs": [
        {
          "indexed": true,
          "name": "partner",
          "type": "address"
        },
        {
          "indexed": false,
          "name": "fraction",
          "type": "uint256"
        }
      ],
      "name": "CarbonOffsettingFundSet",
      "type": "event"
    },
    {
      "anonymous": false,
      "inputs": [
        {
          "indexed": false,
          "name": "payment",
          "type": "uint256"
        }
      ],
      "name": "TargetValidatorEpochPaymentSet",
      "type": "event"
    },
    {
      "anonymous": false,
      "inputs": [
        {
          "indexed": false,
          "name": "max",
          "type": "uint256"
        },
        {
          "indexed": false,
          "name": "adjustmentFactor",
          "type": "uint256"
        }
      ],
      "name": "TargetVotingYieldParametersSet",
      "type": "event"
    },
    {
      "anonymous": false,
      "inputs": [
        {
          "indexed": false,
          "name": "target",
          "type": "uint256"
        }
      ],
      "name": "TargetVotingYieldSet",
      "type": "event"
    },
    {
      "anonymous": false,
      "inputs": [
        {
          "indexed": false,
          "name": "max",
          "type": "uint256"
        },
        {
          "indexed": false,
          "name": "underspendAdjustmentFactor",
          "type": "uint256"
        },
        {
          "indexed": false,
          "name": "overspendAdjustmentFactor",
          "type": "uint256"
        }
      ],
      "name": "RewardsMultiplierParametersSet",
      "type": "event"
    },
    {
      "anonymous": false,
      "inputs": [
        {
          "indexed": false,
          "name": "fraction",
          "type": "uint256"
        }
      ],
      "name": "TargetVotingYieldUpdated",
      "type": "event"
    },
    {
      "anonymous": false,
      "inputs": [
        {
          "indexed": true,
          "name": "registryAddress",
          "type": "address"
        }
      ],
      "name": "RegistrySet",
      "type": "event"
    },
    {
      "anonymous": false,
      "inputs": [
        {
          "indexed": true,
          "name": "previousOwner",
          "type": "address"
        },
        {
          "indexed": true,
          "name": "newOwner",
          "type": "address"
        }
      ],
      "name": "OwnershipTransferred",
      "type": "event"
    },
    {
      "constant": true,
      "inputs": [],
      "name": "getRewardsMultiplier",
      "outputs": [
        {
          "name": "",
          "type": "uint256"
        }
      ],
      "payable": false,
      "stateMutability": "view",
      "type": "function"
    },
    {
      "constant": true,
      "inputs": [
        {
          "name": "targetGoldTotalSupplyIncrease",
          "type": "uint256"
        }
      ],
      "name": "getRewardsMultiplier",
      "outputs": [
        {
          "name": "",
          "type": "uint256"
        }
      ],
      "payable": false,
      "stateMutability": "view",
      "type": "function"
    },
    {
      "constant": false,
      "inputs": [],
      "name": "updateTargetVotingYield",
      "outputs": [],
      "payable": false,
      "stateMutability": "nonpayable",
      "type": "function"
    },
    {
      "constant": true,
      "inputs": [],
      "name": "numberValidatorsInCurrentSet",
      "outputs": [
        {
          "name": "",
          "type": "uint256"
        }
      ],
      "payable": false,
      "stateMutability": "view",
      "type": "function"
    },
    {
      "constant": false,
      "inputs": [
        {
          "name": "value",
          "type": "uint256"
        }
      ],
      "name": "setNumberValidatorsInCurrentSet",
      "outputs": [],
      "payable": false,
      "stateMutability": "nonpayable",
      "type": "function"
    }
  ],
  "bytecode": "0x6080604052600060025560006200001b620000bf60201b60201c565b9050806000806101000a81548173ffffffffffffffffffffffffffffffffffffffff021916908373ffffffffffffffffffffffffffffffffffffffff1602179055508073ffffffffffffffffffffffffffffffffffffffff16600073ffffffffffffffffffffffffffffffffffffffff167f8be0079c531659141344cd1fd0a4f28419497f9722a3daafe3b4186f6b6457e060405160405180910390a350620000c7565b600033905090565b615ac280620000d76000396000f3fe608060405234801561001057600080fd5b50600436106102a05760003560e01c80638331c1d711610167578063a1b95962116100ce578063df4da46111610087578063df4da46114610ef6578063e185aaa814610f14578063e50e652d14610f32578063ec68307214610f74578063f2fde38b14610fef578063fae8db0a14611033576102a0565b8063a1b9596214610dbc578063a91ee0dc14610dda578063ae098de214610e1e578063b63b4a2314610e3c578063cd52782e14610e82578063d632994c14610ec8576102a0565b806394028384116101205780639402838414610c9057806396c3d2fd14610cd65780639917907f14610d1c5780639a7b3be714610d3a5780639ad0cce714610d585780639b2b592f14610d7a576102a0565b80638331c1d714610ad357806387ee8a0f14610b2d5780638a88362614610b4b5780638da5cb5b14610c1a5780638f32d59b14610c6457806392ecd74514610c86576102a0565b80635918bb581161020b5780637385e5da116101c45780637385e5da1461092457806376d92bd21461094257806378e97925146109845780637b103999146109a25780637cca2a3c146109ec5780637d16412514610ab5576102a0565b80635918bb58146107245780635d180adb146107745780635f396e48146107ec578063643470431461081857806367960e911461084b578063715018a61461091a576102a0565b80632848f9e31161025d5780632848f9e3146105535780633b1eb4bf14610571578063434c99c4146105b35780634901c725146106195780634b2c2f44146106375780635049890f14610706576102a0565b80630203ab24146102a5578063123633ea146102c3578063158ef93e14610331578063171af90f1461035357806322dae21f1461037f57806323f0ab65146103c9575b600080fd5b6102ad611075565b6040518082815260200191505060405180910390f35b6102ef600480360360208110156102d957600080fd5b8101908080359060200190929190505050611094565b604051808273ffffffffffffffffffffffffffffffffffffffff1673ffffffffffffffffffffffffffffffffffffffff16815260200191505060405180910390f35b6103396111e5565b604051808215151515815260200191505060405180910390f35b61035b6111f8565b60405180848152602001838152602001828152602001935050505060405180910390f35b610387611271565b604051808273ffffffffffffffffffffffffffffffffffffffff1673ffffffffffffffffffffffffffffffffffffffff16815260200191505060405180910390f35b610539600480360360608110156103df57600080fd5b81019080803573ffffffffffffffffffffffffffffffffffffffff1690602001909291908035906020019064010000000081111561041c57600080fd5b82018360208201111561042e57600080fd5b8035906020019184600183028401116401000000008311171561045057600080fd5b91908080601f016020809104026020016040519081016040528093929190818152602001838380828437600081840152601f19601f820116905080830192505050505050509192919290803590602001906401000000008111156104b357600080fd5b8201836020820111156104c557600080fd5b803590602001918460018302840111640100000000831117156104e757600080fd5b91908080601f016020809104026020016040519081016040528093929190818152602001838380828437600081840152601f19601f820116905080830192505050505050509192919290505050611297565b604051808215151515815260200191505060405180910390f35b61055b611450565b6040518082815260200191505060405180910390f35b61059d6004803603602081101561058757600080fd5b810190808035906020019092919050505061151a565b6040518082815260200191505060405180910390f35b6105ff600480360360408110156105c957600080fd5b81019080803573ffffffffffffffffffffffffffffffffffffffff16906020019092919080359060200190929190505050611534565b604051808215151515815260200191505060405180910390f35b610621611700565b6040518082815260200191505060405180910390f35b6106f06004803603602081101561064d57600080fd5b810190808035906020019064010000000081111561066a57600080fd5b82018360208201111561067c57600080fd5b8035906020019184600183028401116401000000008311171561069e57600080fd5b91908080601f016020809104026020016040519081016040528093929190818152602001838380828437600081840152601f19601f820116905080830192505050505050509192919290505050611910565b6040518082815260200191505060405180910390f35b61070e611aa4565b6040518082815260200191505060405180910390f35b61075a6004803603604081101561073a57600080fd5b810190808035906020019092919080359060200190929190505050611bce565b604051808215151515815260200191505060405180910390f35b6107aa6004803603604081101561078a57600080fd5b810190808035906020019092919080359060200190929190505050611df7565b604051808273ffffffffffffffffffffffffffffffffffffffff1673ffffffffffffffffffffffffffffffffffffffff16815260200191505060405180910390f35b6107f4611f49565b60405180848152602001838152602001828152602001935050505060405180910390f35b610820611fc8565b6040518085815260200184815260200183815260200182815260200194505050505060405180910390f35b6109046004803603602081101561086157600080fd5b810190808035906020019064010000000081111561087e57600080fd5b82018360208201111561089057600080fd5b803590602001918460018302840111640100000000831117156108b257600080fd5b91908080601f016020809104026020016040519081016040528093929190818152602001838380828437600081840152601f19601f8201169050808301925050505050505091929192905050506121fd565b6040518082815260200191505060405180910390f35b610922612391565b005b61092c6124ca565b6040518082815260200191505060405180910390f35b61096e6004803603602081101561095857600080fd5b81019080803590602001909291905050506124da565b6040518082815260200191505060405180910390f35b61098c6124f4565b6040518082815260200191505060405180910390f35b6109aa6124fa565b604051808273ffffffffffffffffffffffffffffffffffffffff1673ffffffffffffffffffffffffffffffffffffffff16815260200191505060405180910390f35b610ab36004803603610180811015610a0357600080fd5b81019080803573ffffffffffffffffffffffffffffffffffffffff169060200190929190803590602001909291908035906020019092919080359060200190929190803590602001909291908035906020019092919080359060200190929190803590602001909291908035906020019092919080359060200190929190803573ffffffffffffffffffffffffffffffffffffffff16906020019092919080359060200190929190505050612520565b005b610abd61262f565b6040518082815260200191505060405180910390f35b610b1360048036036060811015610ae957600080fd5b81019080803590602001909291908035906020019092919080359060200190929190505050612655565b604051808215151515815260200191505060405180910390f35b610b3561288b565b6040518082815260200191505060405180910390f35b610c0460048036036020811015610b6157600080fd5b8101908080359060200190640100000000811115610b7e57600080fd5b820183602082011115610b9057600080fd5b80359060200191846001830284011164010000000083111715610bb257600080fd5b91908080601f016020809104026020016040519081016040528093929190818152602001838380828437600081840152601f19601f820116905080830192505050505050509192919290505050612895565b6040518082815260200191505060405180910390f35b610c22612a29565b604051808273ffffffffffffffffffffffffffffffffffffffff1673ffffffffffffffffffffffffffffffffffffffff16815260200191505060405180910390f35b610c6c612a52565b604051808215151515815260200191505060405180910390f35b610c8e612ab0565b005b610cbc60048036036020811015610ca657600080fd5b8101908080359060200190929190505050612aba565b604051808215151515815260200191505060405180910390f35b610d0260048036036020811015610cec57600080fd5b8101908080359060200190929190505050612c6c565b604051808215151515815260200191505060405180910390f35b610d24612d8a565b6040518082815260200191505060405180910390f35b610d42612db0565b6040518082815260200191505060405180910390f35b610d60612dc0565b604051808215151515815260200191505060405180910390f35b610da660048036036020811015610d9057600080fd5b8101908080359060200190929190505050612f22565b6040518082815260200191505060405180910390f35b610dc461306b565b6040518082815260200191505060405180910390f35b610e1c60048036036020811015610df057600080fd5b81019080803573ffffffffffffffffffffffffffffffffffffffff16906020019092919050505061324f565b005b610e266133f3565b6040518082815260200191505060405180910390f35b610e6860048036036020811015610e5257600080fd5b8101908080359060200190929190505050613419565b604051808215151515815260200191505060405180910390f35b610eae60048036036020811015610e9857600080fd5b8101908080359060200190929190505050613532565b604051808215151515815260200191505060405180910390f35b610ef460048036036020811015610ede57600080fd5b8101908080359060200190929190505050613696565b005b610efe6136a0565b6040518082815260200191505060405180910390f35b610f1c6137dc565b6040518082815260200191505060405180910390f35b610f5e60048036036020811015610f4857600080fd5b81019080803590602001909291905050506137e2565b6040518082815260200191505060405180910390f35b610fd2600480360360c0811015610f8a57600080fd5b8101908080359060200190929190803590602001909291908035906020019092919080359060200190929190803590602001909291908035906020019092919050505061382d565b604051808381526020018281526020019250505060405180910390f35b6110316004803603602081101561100557600080fd5b81019080803573ffffffffffffffffffffffffffffffffffffffff169060200190929190505050613a41565b005b61105f6004803603602081101561104957600080fd5b8101908080359060200190929190505050613ac7565b6040518082815260200191505060405180910390f35b600061108f61108a611085613c10565b613cc7565b613fcc565b905090565b60006060600060fa73ffffffffffffffffffffffffffffffffffffffff16844360405160200180838152602001828152602001925050506040516020818303038152906040526040518082805190602001908083835b6020831061110d57805182526020820191506020810190506020830392506110ea565b6001836020036101000a038019825116818451168082178552505050505050905001915050600060405180830381855afa9150503d806000811461116d576040519150601f19603f3d011682016040523d82523d6000602084013e611172565b606091505b508093508192505050806111d1576040517f08c379a000000000000000000000000000000000000000000000000000000000815260040180806020018281038252603d8152602001806158d3603d913960400191505060405180910390fd5b6111dc826000613fda565b92505050919050565b600060149054906101000a900460ff1681565b6000806000806006905061122381600001604051806020016040529081600082015481525050613fcc565b61124482600201604051806020016040529081600082015481525050613fcc565b61126583600101604051806020016040529081600082015481525050613fcc565b93509350935050909192565b600c60009054906101000a900473ffffffffffffffffffffffffffffffffffffffff1681565b60008060fb73ffffffffffffffffffffffffffffffffffffffff16858585604051602001808473ffffffffffffffffffffffffffffffffffffffff1673ffffffffffffffffffffffffffffffffffffffff1660601b815260140183805190602001908083835b6020831061132057805182526020820191506020810190506020830392506112fd565b6001836020036101000a03801982511681845116808217855250505050505090500182805190602001908083835b60208310611371578051825260208201915060208101905060208303925061134e565b6001836020036101000a03801982511681845116808217855250505050505090500193505050506040516020818303038152906040526040518082805190602001908083835b602083106113da57805182526020820191506020810190506020830392506113b7565b6001836020036101000a038019825116818451168082178552505050505050905001915050600060405180830381855afa9150503d806000811461143a576040519150601f19603f3d011682016040523d82523d6000602084013e61143f565b606091505b505080915050809150509392505050565b6000611515611510600660000160405180602001604052908160008201548152505061150261147d613ff1565b73ffffffffffffffffffffffffffffffffffffffff16631f6042436040518163ffffffff1660e01b815260040160206040518083038186803b1580156114c257600080fd5b505afa1580156114d6573d6000803e3d6000fd5b505050506040513d60208110156114ec57600080fd5b81019080805190602001909291905050506140ec565b61417690919063ffffffff16565b6145d5565b905090565b600061152d826115286136a0565b6145f6565b9050919050565b600061153e612a52565b6115b0576040517f08c379a00000000000000000000000000000000000000000000000000000000081526004018080602001828103825260208152602001807f4f776e61626c653a2063616c6c6572206973206e6f7420746865206f776e657281525060200191505060405180910390fd5b600c60009054906101000a900473ffffffffffffffffffffffffffffffffffffffff1673ffffffffffffffffffffffffffffffffffffffff168373ffffffffffffffffffffffffffffffffffffffff1614158061162b5750611627600b604051806020016040529081600082015481525050613fcc565b8214155b61163457600080fd5b61164461163f61462e565b613fcc565b821061164f57600080fd5b82600c60006101000a81548173ffffffffffffffffffffffffffffffffffffffff021916908373ffffffffffffffffffffffffffffffffffffffff16021790555061169982614654565b600b600082015181600001559050508273ffffffffffffffffffffffffffffffffffffffff167fe296227209b47bb8f4a76768ebd564dcde1c44be325a5d262f27c1fd4fd4538b836040518082815260200191505060405180910390a26001905092915050565b600080600160009054906101000a900473ffffffffffffffffffffffffffffffffffffffff1673ffffffffffffffffffffffffffffffffffffffff1663dcf0aaed60405160200180807f537461626c65546f6b656e000000000000000000000000000000000000000000815250600b019050604051602081830303815290604052805190602001206040518263ffffffff1660e01b81526004018082815260200191505060206040518083038186803b1580156117bc57600080fd5b505afa1580156117d0573d6000803e3d6000fd5b505050506040513d60208110156117e657600080fd5b81019080805190602001909291905050509050600080611804614672565b73ffffffffffffffffffffffffffffffffffffffff1663ef90e1b0846040518263ffffffff1660e01b8152600401808273ffffffffffffffffffffffffffffffffffffffff1673ffffffffffffffffffffffffffffffffffffffff168152602001915050604080518083038186803b15801561187f57600080fd5b505afa158015611893573d6000803e3d6000fd5b505050506040513d60408110156118a957600080fd5b81019080805190602001909291908051906020019092919050505091509150611908826118fa836118ec600d546118de61288b565b61476d90919063ffffffff16565b61476d90919063ffffffff16565b6147f390919063ffffffff16565b935050505090565b60006060600060f473ffffffffffffffffffffffffffffffffffffffff16846040516020018082805190602001908083835b602083106119655780518252602082019150602081019050602083039250611942565b6001836020036101000a0380198251168184511680821785525050505050509050019150506040516020818303038152906040526040518082805190602001908083835b602083106119cc57805182526020820191506020810190506020830392506119a9565b6001836020036101000a038019825116818451168082178552505050505050905001915050600060405180830381855afa9150503d8060008114611a2c576040519150601f19603f3d011682016040523d82523d6000602084013e611a31565b606091505b50809350819250505080611a90576040517f08c379a00000000000000000000000000000000000000000000000000000000081526004018080602001828103825260388152602001806158216038913960400191505060405180910390fd5b611a9b82600061483d565b92505050919050565b600080611abc600254426148ce90919063ffffffff16565b90506201518061016d600f0202811015611b6e576000611b106002611b026b01f04ef12cb04cf1580000006b033b2e3c9fd0803ce80000006148ce90919063ffffffff16565b6147f390919063ffffffff16565b90506000611b436201518061016d600f0202611b35858561476d90919063ffffffff16565b6147f390919063ffffffff16565b9050611b646b01f04ef12cb04cf1580000008261491890919063ffffffff16565b9350505050611bcb565b6000611bc5576040517f08c379a00000000000000000000000000000000000000000000000000000000081526004018080602001828103825260328152602001806157ef6032913960400191505060405180910390fd5b60009150505b90565b6000611bd8612a52565b611c4a576040517f08c379a00000000000000000000000000000000000000000000000000000000081526004018080602001828103825260208152602001807f4f776e61626c653a2063616c6c6572206973206e6f7420746865206f776e657281525060200191505060405180910390fd5b611c6c6006600201604051806020016040529081600082015481525050613fcc565b83141580611c9b5750611c976006600101604051806020016040529081600082015481525050613fcc565b8214155b611cf0576040517f08c379a00000000000000000000000000000000000000000000000000000000081526004018080602001828103825260228152602001806158b16022913960400191505060405180910390fd5b611cf983614654565b600660020160008201518160000155905050611d1482614654565b600660010160008201518160000155905050611d59611d3161462e565b60066002016040518060200160405290816000820154815250506149a090919063ffffffff16565b611dae576040517f08c379a000000000000000000000000000000000000000000000000000000000815260040180806020018281038252602f815260200180615a45602f913960400191505060405180910390fd5b7f1b76e38f3fdd1f284ed4d47c9d50ff407748c516ff9761616ff638c2331076258383604051808381526020018281526020019250505060405180910390a16001905092915050565b60006060600060fa73ffffffffffffffffffffffffffffffffffffffff16858560405160200180838152602001828152602001925050506040516020818303038152906040526040518082805190602001908083835b60208310611e705780518252602082019150602081019050602083039250611e4d565b6001836020036101000a038019825116818451168082178552505050505050905001915050600060405180830381855afa9150503d8060008114611ed0576040519150601f19603f3d011682016040523d82523d6000602084013e611ed5565b606091505b50809350819250505080611f34576040517f08c379a00000000000000000000000000000000000000000000000000000000081526004018080602001828103825260368152602001806159456036913960400191505060405180910390fd5b611f3f826000613fda565b9250505092915050565b60008060008060039050611f7481600201604051806020016040529081600082015481525050613fcc565b611f9882600001600001604051806020016040529081600082015481525050613fcc565b611fbc83600001600101604051806020016040529081600082015481525050613fcc565b93509350935050909192565b600080600080611fd66149b5565b73ffffffffffffffffffffffffffffffffffffffff1663e5839836306040518263ffffffff1660e01b8152600401808273ffffffffffffffffffffffffffffffffffffffff1673ffffffffffffffffffffffffffffffffffffffff16815260200191505060206040518083038186803b15801561205257600080fd5b505afa158015612066573d6000803e3d6000fd5b505050506040513d602081101561207c57600080fd5b8101908080519060200190929190505050156120e3576040517f08c379a00000000000000000000000000000000000000000000000000000000081526004018080602001828103825260228152602001806158596022913960400191505060405180910390fd5b60006120ed611450565b905060006120f9613c10565b90506121036156e6565b61210c82613cc7565b905061213361212e82612120600d546140ec565b61417690919063ffffffff16565b6145d5565b61215661215183612143876140ec565b61417690919063ffffffff16565b6145d5565b6121a161219c8461218e600a604051806020016040529081600082015481525050612180896140ec565b61417690919063ffffffff16565b61417690919063ffffffff16565b6145d5565b6121ec6121e7856121d9600b6040518060200160405290816000820154815250506121cb8a6140ec565b61417690919063ffffffff16565b61417690919063ffffffff16565b6145d5565b965096509650965050505090919293565b60006060600060f673ffffffffffffffffffffffffffffffffffffffff16846040516020018082805190602001908083835b60208310612252578051825260208201915060208101905060208303925061222f565b6001836020036101000a0380198251168184511680821785525050505050509050019150506040516020818303038152906040526040518082805190602001908083835b602083106122b95780518252602082019150602081019050602083039250612296565b6001836020036101000a038019825116818451168082178552505050505050905001915050600060405180830381855afa9150503d8060008114612319576040519150601f19603f3d011682016040523d82523d6000602084013e61231e565b606091505b5080935081925050508061237d576040517f08c379a0000000000000000000000000000000000000000000000000000000008152600401808060200182810382526023815260200180615a746023913960400191505060405180910390fd5b61238882600061483d565b92505050919050565b612399612a52565b61240b576040517f08c379a00000000000000000000000000000000000000000000000000000000081526004018080602001828103825260208152602001807f4f776e61626c653a2063616c6c6572206973206e6f7420746865206f776e657281525060200191505060405180910390fd5b600073ffffffffffffffffffffffffffffffffffffffff166000809054906101000a900473ffffffffffffffffffffffffffffffffffffffff1673ffffffffffffffffffffffffffffffffffffffff167f8be0079c531659141344cd1fd0a4f28419497f9722a3daafe3b4186f6b6457e060405160405180910390a360008060006101000a81548173ffffffffffffffffffffffffffffffffffffffff021916908373ffffffffffffffffffffffffffffffffffffffff160217905550565b60006124d5436137e2565b905090565b60006124ed6124e883613cc7565b613fcc565b9050919050565b60025481565b600160009054906101000a900473ffffffffffffffffffffffffffffffffffffffff1681565b600060149054906101000a900460ff16156125a3576040517f08c379a000000000000000000000000000000000000000000000000000000000815260040180806020018281038252601c8152602001807f636f6e747261637420616c726561647920696e697469616c697a65640000000081525060200191505060405180910390fd5b6001600060146101000a81548160ff0219169083151502179055506125c733614ab0565b6125d08c61324f565b6125da8a8a611bce565b506125e6888888612655565b506125f085612aba565b506125fa84612c6c565b5061260483613419565b5061260f8282611534565b506126198b613532565b5042600281905550505050505050505050505050565b6000612650600b604051806020016040529081600082015481525050613fcc565b905090565b600061265f612a52565b6126d1576040517f08c379a00000000000000000000000000000000000000000000000000000000081526004018080602001828103825260208152602001807f4f776e61626c653a2063616c6c6572206973206e6f7420746865206f776e657281525060200191505060405180910390fd5b6126f36003600201604051806020016040529081600082015481525050613fcc565b8414158061272557506127216003600001600101604051806020016040529081600082015481525050613fcc565b8214155b8061275457506127506003600001600001604051806020016040529081600082015481525050613fcc565b8314155b6127a9576040517f08c379a00000000000000000000000000000000000000000000000000000000081526004018080602001828103825260218152602001806157506021913960400191505060405180910390fd5b604051806040016040528060405180604001604052806127c887614654565b81526020016127d686614654565b81525081526020016127e786614654565b815250600360008201518160000160008201518160000160008201518160000155505060208201518160010160008201518160000155505050506020820151816002016000820151816000015550509050507f191445ee0115396c9725b9c642b985d63820ca57d54e42e5eb38faec4022f05d84848460405180848152602001838152602001828152602001935050505060405180910390a1600190509392505050565b6000600e54905090565b60006060600060f773ffffffffffffffffffffffffffffffffffffffff16846040516020018082805190602001908083835b602083106128ea57805182526020820191506020810190506020830392506128c7565b6001836020036101000a0380198251168184511680821785525050505050509050019150506040516020818303038152906040526040518082805190602001908083835b60208310612951578051825260208201915060208101905060208303925061292e565b6001836020036101000a038019825116818451168082178552505050505050905001915050600060405180830381855afa9150503d80600081146129b1576040519150601f19603f3d011682016040523d82523d6000602084013e6129b6565b606091505b50809350819250505080612a15576040517f08c379a0000000000000000000000000000000000000000000000000000000008152600401808060200182810382526031815260200180615a146031913960400191505060405180910390fd5b612a20826000613fda565b92505050919050565b60008060009054906101000a900473ffffffffffffffffffffffffffffffffffffffff16905090565b60008060009054906101000a900473ffffffffffffffffffffffffffffffffffffffff1673ffffffffffffffffffffffffffffffffffffffff16612a94614bf4565b73ffffffffffffffffffffffffffffffffffffffff1614905090565b612ab8614bfc565b565b6000612ac4612a52565b612b36576040517f08c379a00000000000000000000000000000000000000000000000000000000081526004018080602001828103825260208152602001807f4f776e61626c653a2063616c6c6572206973206e6f7420746865206f776e657281525060200191505060405180910390fd5b612b556009604051806020016040529081600082015481525050613fcc565b821415612bad576040517f08c379a00000000000000000000000000000000000000000000000000000000081526004018080602001828103825260258152602001806157716025913960400191505060405180910390fd5b612bbd612bb861462e565b613fcc565b8210612c14576040517f08c379a00000000000000000000000000000000000000000000000000000000081526004018080602001828103825260338152602001806157bc6033913960400191505060405180910390fd5b612c1d82614654565b6009600082015181600001559050507fbae2f33c70949fbc7325c98655f3039e5e1c7f774874c99fd4f31ec5f432b159826040518082815260200191505060405180910390a160019050919050565b6000612c76612a52565b612ce8576040517f08c379a00000000000000000000000000000000000000000000000000000000081526004018080602001828103825260208152602001807f4f776e61626c653a2063616c6c6572206973206e6f7420746865206f776e657281525060200191505060405180910390fd5b600d54821415612d43576040517f08c379a00000000000000000000000000000000000000000000000000000000081526004018080602001828103825260288152602001806156fa6028913960400191505060405180910390fd5b81600d819055507fa21d141963bb2c1064b5376f762d22d3e9c4c51617edcf105bcec0f14e36800c826040518082815260200191505060405180910390a160019050919050565b6000612dab600a604051806020016040529081600082015481525050613fcc565b905090565b6000612dbb4361151a565b905090565b6000612dca6156e6565b612de7612de2600254426148ce90919063ffffffff16565b6140ec565b9050612df16156e6565b612dfe632efe07806140ec565b9050612e086156e6565b612e1260026140ec565b9050612e1c6156e6565b612e2f8385614ff090919063ffffffff16565b15612e4357612e3c61462e565b9050612e6b565b612e68612e59848661500690919063ffffffff16565b8361514f90919063ffffffff16565b90505b612e736156e6565b612f03612e7e6151f6565b73ffffffffffffffffffffffffffffffffffffffff166356b6d0d56040518163ffffffff1660e01b815260040160206040518083038186803b158015612ec357600080fd5b505afa158015612ed7573d6000803e3d6000fd5b505050506040513d6020811015612eed57600080fd5b8101908080519060200190929190505050614654565b9050612f1882826152f190919063ffffffff16565b9550505050505090565b60006060600060f973ffffffffffffffffffffffffffffffffffffffff1684604051602001808281526020019150506040516020818303038152906040526040518082805190602001908083835b60208310612f935780518252602082019150602081019050602083039250612f70565b6001836020036101000a038019825116818451168082178552505050505050905001915050600060405180830381855afa9150503d8060008114612ff3576040519150601f19603f3d011682016040523d82523d6000602084013e612ff8565b606091505b50809350819250505080613057576040517f08c379a000000000000000000000000000000000000000000000000000000000815260040180806020018281038252602e815260200180615722602e913960400191505060405180910390fd5b613062826000613fda565b92505050919050565b60008061318f6130796151f6565b73ffffffffffffffffffffffffffffffffffffffff16638d9a5e6f6040518163ffffffff1660e01b815260040160206040518083038186803b1580156130be57600080fd5b505afa1580156130d2573d6000803e3d6000fd5b505050506040513d60208110156130e857600080fd5b8101908080519060200190929190505050613101615307565b73ffffffffffffffffffffffffffffffffffffffff166318160ddd6040518163ffffffff1660e01b815260040160206040518083038186803b15801561314657600080fd5b505afa15801561315a573d6000803e3d6000fd5b505050506040513d602081101561317057600080fd5b81019080805190602001909291905050506148ce90919063ffffffff16565b9050600061319b613ff1565b73ffffffffffffffffffffffffffffffffffffffff16639a0e7d666040518163ffffffff1660e01b815260040160206040518083038186803b1580156131e057600080fd5b505afa1580156131f4573d6000803e3d6000fd5b505050506040513d602081101561320a57600080fd5b8101908080519060200190929190505050905061324861324361322c846140ec565b613235846140ec565b61500690919063ffffffff16565b613fcc565b9250505090565b613257612a52565b6132c9576040517f08c379a00000000000000000000000000000000000000000000000000000000081526004018080602001828103825260208152602001807f4f776e61626c653a2063616c6c6572206973206e6f7420746865206f776e657281525060200191505060405180910390fd5b600073ffffffffffffffffffffffffffffffffffffffff168173ffffffffffffffffffffffffffffffffffffffff16141561336c576040517f08c379a00000000000000000000000000000000000000000000000000000000081526004018080602001828103825260208152602001807f43616e6e6f7420726567697374657220746865206e756c6c206164647265737381525060200191505060405180910390fd5b80600160006101000a81548173ffffffffffffffffffffffffffffffffffffffff021916908373ffffffffffffffffffffffffffffffffffffffff1602179055508073ffffffffffffffffffffffffffffffffffffffff167f27fe5f0c1c3b1ed427cc63d0f05759ffdecf9aec9e18d31ef366fc8a6cb5dc3b60405160405180910390a250565b60006134146009604051806020016040529081600082015481525050613fcc565b905090565b6000613423612a52565b613495576040517f08c379a00000000000000000000000000000000000000000000000000000000081526004018080602001828103825260208152602001807f4f776e61626c653a2063616c6c6572206973206e6f7420746865206f776e657281525060200191505060405180910390fd5b6134b4600a604051806020016040529081600082015481525050613fcc565b82141580156134d157506134ce6134c961462e565b613fcc565b82105b6134da57600080fd5b6134e382614654565b600a600082015181600001559050507fe6c1b64ad7e601924731051286b7b408b1a6f3ae96dcd6d2d9cd82578372ef9e826040518082815260200191505060405180910390a160019050919050565b600061353c612a52565b6135ae576040517f08c379a00000000000000000000000000000000000000000000000000000000081526004018080602001828103825260208152602001807f4f776e61626c653a2063616c6c6572206973206e6f7420746865206f776e657281525060200191505060405180910390fd5b6135b66156e6565b6135bf83614654565b90506135ed6006600201604051806020016040529081600082015481525050826152f190919063ffffffff16565b613642576040517f08c379a00000000000000000000000000000000000000000000000000000000081526004018080602001828103825260358152602001806159106035913960400191505060405180910390fd5b806006600001600082015181600001559050507f152c3fc1e1cd415804bc9ae15876b37e62d8909358b940e6f4847ca927f46637836040518082815260200191505060405180910390a16001915050919050565b80600e8190555050565b60006060600060f873ffffffffffffffffffffffffffffffffffffffff166040516020016040516020818303038152906040526040518082805190602001908083835b6020831061370657805182526020820191506020810190506020830392506136e3565b6001836020036101000a038019825116818451168082178552505050505050905001915050600060405180830381855afa9150503d8060008114613766576040519150601f19603f3d011682016040523d82523d6000602084013e61376b565b606091505b508093508192505050806137ca576040517f08c379a00000000000000000000000000000000000000000000000000000000081526004018080602001828103825260258152602001806159c36025913960400191505060405180910390fd5b6137d5826000613fda565b9250505090565b600d5481565b60006138266003613818600261380a60026137fc88612f22565b61476d90919063ffffffff16565b61491890919063ffffffff16565b6147f390919063ffffffff16565b9050919050565b60008060008714158015613842575060008514155b6138b4576040517f08c379a00000000000000000000000000000000000000000000000000000000081526004018080602001828103825260158152602001807f612064656e6f6d696e61746f72206973207a65726f000000000000000000000081525060200191505060405180910390fd5b6000806000606060fc73ffffffffffffffffffffffffffffffffffffffff168c8c8c8c8c8c6040516020018087815260200186815260200185815260200184815260200183815260200182815260200196505050505050506040516020818303038152906040526040518082805190602001908083835b6020831061394e578051825260208201915060208101905060208303925061392b565b6001836020036101000a038019825116818451168082178552505050505050905001915050600060405180830381855afa9150503d80600081146139ae576040519150601f19603f3d011682016040523d82523d6000602084013e6139b3565b606091505b50809250819350505081613a12576040517f08c379a000000000000000000000000000000000000000000000000000000000815260040180806020018281038252602781526020018061599c6027913960400191505060405180910390fd5b613a1d816000613fda565b9350613a2a816020613fda565b925083839550955050505050965096945050505050565b613a49612a52565b613abb576040517f08c379a00000000000000000000000000000000000000000000000000000000081526004018080602001828103825260208152602001807f4f776e61626c653a2063616c6c6572206973206e6f7420746865206f776e657281525060200191505060405180910390fd5b613ac481614ab0565b50565b60006060600060f573ffffffffffffffffffffffffffffffffffffffff1684604051602001808281526020019150506040516020818303038152906040526040518082805190602001908083835b60208310613b385780518252602082019150602081019050602083039250613b15565b6001836020036101000a038019825116818451168082178552505050505050905001915050600060405180830381855afa9150503d8060008114613b98576040519150601f19603f3d011682016040523d82523d6000602084013e613b9d565b606091505b50809350819250505080613bfc576040517f08c379a000000000000000000000000000000000000000000000000000000000815260040180806020018281038252602c8152602001806159e8602c913960400191505060405180910390fd5b613c0782600061483d565b92505050919050565b600080613c1b611450565b90506000613c27611700565b90506000613c3e828461491890919063ffffffff16565b9050613cbc613cb7613ca0600b604051806020016040529081600082015481525050613c92600a604051806020016040529081600082015481525050613c8460016140ec565b61514f90919063ffffffff16565b61514f90919063ffffffff16565b613ca9846140ec565b61500690919063ffffffff16565b6145d5565b905080935050505090565b613ccf6156e6565b6000613cd9611aa4565b90506000613ce5615307565b73ffffffffffffffffffffffffffffffffffffffff166318160ddd6040518163ffffffff1660e01b815260040160206040518083038186803b158015613d2a57600080fd5b505afa158015613d3e573d6000803e3d6000fd5b505050506040513d6020811015613d5457600080fd5b810190808051906020019092919050505090506000613d9a613d7f868461491890919063ffffffff16565b6b033b2e3c9fd0803ce80000006148ce90919063ffffffff16565b90506000613dbd846b033b2e3c9fd0803ce80000006148ce90919063ffffffff16565b9050613dc76156e6565b613dea613dd3836140ec565b613ddc856140ec565b61500690919063ffffffff16565b9050613e06613df761462e565b8261540290919063ffffffff16565b15613ee957613e136156e6565b613e5b6003600001600001604051806020016040529081600082015481525050613e4d613e3e61462e565b8561514f90919063ffffffff16565b61417690919063ffffffff16565b9050613e656156e6565b613e7f82613e7161462e565b61541790919063ffffffff16565b9050613ead6003600201604051806020016040529081600082015481525050826149a090919063ffffffff16565b15613ec15780975050505050505050613fc7565b6003600201604051806020016040529081600082015481525050975050505050505050613fc7565b613f03613ef461462e565b826149a090919063ffffffff16565b15613fb757613f106156e6565b613f586003600001600101604051806020016040529081600082015481525050613f4a84613f3c61462e565b61514f90919063ffffffff16565b61417690919063ffffffff16565b9050613f74613f6561462e565b826149a090919063ffffffff16565b15613fa057613f9381613f8561462e565b61514f90919063ffffffff16565b9650505050505050613fc7565b613faa6000614654565b9650505050505050613fc7565b613fbf61462e565b955050505050505b919050565b600081600001519050919050565b6000613fe6838361483d565b60001c905092915050565b6000600160009054906101000a900473ffffffffffffffffffffffffffffffffffffffff1673ffffffffffffffffffffffffffffffffffffffff1663dcf0aaed60405160200180807f456c656374696f6e0000000000000000000000000000000000000000000000008152506008019050604051602081830303815290604052805190602001206040518263ffffffff1660e01b81526004018082815260200191505060206040518083038186803b1580156140ac57600080fd5b505afa1580156140c0573d6000803e3d6000fd5b505050506040513d60208110156140d657600080fd5b8101908080519060200190929190505050905090565b6140f46156e6565b6140fc6154c0565b821115614154576040517f08c379a000000000000000000000000000000000000000000000000000000000815260040180806020018281038252603681526020018061587b6036913960400191505060405180910390fd5b604051806020016040528069d3c21bcecceda100000084028152509050919050565b61417e6156e6565b600083600001511480614195575060008260000151145b156141b1576040518060200160405280600081525090506145cf565b69d3c21bcecceda1000000826000015114156141cf578290506145cf565b69d3c21bcecceda1000000836000015114156141ed578190506145cf565b600069d3c21bcecceda1000000614203856154df565b600001518161420e57fe5b049050600061421c85615516565b600001519050600069d3c21bcecceda1000000614238866154df565b600001518161424357fe5b049050600061425186615516565b60000151905060008285029050600085146142e5578285828161427057fe5b04146142e4576040517f08c379a00000000000000000000000000000000000000000000000000000000081526004018080602001828103825260168152602001807f6f766572666c6f7720783179312064657465637465640000000000000000000081525060200191505060405180910390fd5b5b600069d3c21bcecceda100000082029050600082146143875769d3c21bcecceda100000082828161431257fe5b0414614386576040517f08c379a000000000000000000000000000000000000000000000000000000000815260040180806020018281038252601f8152602001807f6f766572666c6f772078317931202a206669786564312064657465637465640081525060200191505060405180910390fd5b5b809150600084860290506000861461441857848682816143a357fe5b0414614417576040517f08c379a00000000000000000000000000000000000000000000000000000000081526004018080602001828103825260168152602001807f6f766572666c6f7720783279312064657465637465640000000000000000000081525060200191505060405180910390fd5b5b60008488029050600088146144a6578488828161443157fe5b04146144a5576040517f08c379a00000000000000000000000000000000000000000000000000000000081526004018080602001828103825260168152602001807f6f766572666c6f7720783179322064657465637465640000000000000000000081525060200191505060405180910390fd5b5b6144ae615553565b87816144b657fe5b0496506144c1615553565b85816144c957fe5b049450600085880290506000881461455a57858882816144e557fe5b0414614559576040517f08c379a00000000000000000000000000000000000000000000000000000000081526004018080602001828103825260168152602001807f6f766572666c6f7720783279322064657465637465640000000000000000000081525060200191505060405180910390fd5b5b6145626156e6565b604051806020016040528087815250905061458b81604051806020016040528087815250615417565b90506145a581604051806020016040528086815250615417565b90506145bf81604051806020016040528085815250615417565b9050809a50505050505050505050505b92915050565b600069d3c21bcecceda10000008260000151816145ee57fe5b049050919050565b60008082848161460257fe5b049050600083858161461057fe5b0614156146205780915050614628565b600181019150505b92915050565b6146366156e6565b604051806020016040528069d3c21bcecceda1000000815250905090565b61465c6156e6565b6040518060200160405280838152509050919050565b6000600160009054906101000a900473ffffffffffffffffffffffffffffffffffffffff1673ffffffffffffffffffffffffffffffffffffffff1663dcf0aaed60405160200180807f536f727465644f7261636c657300000000000000000000000000000000000000815250600d019050604051602081830303815290604052805190602001206040518263ffffffff1660e01b81526004018082815260200191505060206040518083038186803b15801561472d57600080fd5b505afa158015614741573d6000803e3d6000fd5b505050506040513d602081101561475757600080fd5b8101908080519060200190929190505050905090565b60008083141561478057600090506147ed565b600082840290508284828161479157fe5b04146147e8576040517f08c379a000000000000000000000000000000000000000000000000000000000815260040180806020018281038252602181526020018061597b6021913960400191505060405180910390fd5b809150505b92915050565b600061483583836040518060400160405280601a81526020017f536166654d6174683a206469766973696f6e206279207a65726f000000000000815250615560565b905092915050565b600060208201835110156148b9576040517f08c379a00000000000000000000000000000000000000000000000000000000081526004018080602001828103825260148152602001807f736c6963696e67206f7574206f662072616e676500000000000000000000000081525060200191505060405180910390fd5b60006020830184015190508091505092915050565b600061491083836040518060400160405280601e81526020017f536166654d6174683a207375627472616374696f6e206f766572666c6f770000815250615626565b905092915050565b600080828401905083811015614996576040517f08c379a000000000000000000000000000000000000000000000000000000000815260040180806020018281038252601b8152602001807f536166654d6174683a206164646974696f6e206f766572666c6f77000000000081525060200191505060405180910390fd5b8091505092915050565b60008160000151836000015110905092915050565b6000600160009054906101000a900473ffffffffffffffffffffffffffffffffffffffff1673ffffffffffffffffffffffffffffffffffffffff1663dcf0aaed60405160200180807f467265657a6572000000000000000000000000000000000000000000000000008152506007019050604051602081830303815290604052805190602001206040518263ffffffff1660e01b81526004018082815260200191505060206040518083038186803b158015614a7057600080fd5b505afa158015614a84573d6000803e3d6000fd5b505050506040513d6020811015614a9a57600080fd5b8101908080519060200190929190505050905090565b600073ffffffffffffffffffffffffffffffffffffffff168173ffffffffffffffffffffffffffffffffffffffff161415614b36576040517f08c379a00000000000000000000000000000000000000000000000000000000081526004018080602001828103825260268152602001806157966026913960400191505060405180910390fd5b8073ffffffffffffffffffffffffffffffffffffffff166000809054906101000a900473ffffffffffffffffffffffffffffffffffffffff1673ffffffffffffffffffffffffffffffffffffffff167f8be0079c531659141344cd1fd0a4f28419497f9722a3daafe3b4186f6b6457e060405160405180910390a3806000806101000a81548173ffffffffffffffffffffffffffffffffffffffff021916908373ffffffffffffffffffffffffffffffffffffffff16021790555050565b600033905090565b614c046149b5565b73ffffffffffffffffffffffffffffffffffffffff1663e5839836306040518263ffffffff1660e01b8152600401808273ffffffffffffffffffffffffffffffffffffffff1673ffffffffffffffffffffffffffffffffffffffff16815260200191505060206040518083038186803b158015614c8057600080fd5b505afa158015614c94573d6000803e3d6000fd5b505050506040513d6020811015614caa57600080fd5b810190808051906020019092919050505015614d11576040517f08c379a00000000000000000000000000000000000000000000000000000000081526004018080602001828103825260228152602001806158596022913960400191505060405180910390fd5b614d196156e6565b614d29614d2461306b565b614654565b9050614d5460096040518060200160405290816000820154815250508261540290919063ffffffff16565b15614e5a57614d616156e6565b614d8a60096040518060200160405290816000820154815250508361514f90919063ffffffff16565b9050614d946156e6565b614dc060066001016040518060200160405290816000820154815250508361417690919063ffffffff16565b9050614dee600660000160405180602001604052908160008201548152505082614ff090919063ffffffff16565b15614e1457614dfd60006140ec565b600660000160008201518160000155905050614e53565b614e4081600660000160405180602001604052908160008201548152505061514f90919063ffffffff16565b6006600001600082015181600001559050505b5050614f95565b614e836009604051806020016040529081600082015481525050826149a090919063ffffffff16565b15614f9457614e906156e6565b614eb982600960405180602001604052908160008201548152505061514f90919063ffffffff16565b9050614ec36156e6565b614eef60066001016040518060200160405290816000820154815250508361417690919063ffffffff16565b9050614f1d81600660000160405180602001604052908160008201548152505061541790919063ffffffff16565b600660000160008201518160000155905050614f746006600201604051806020016040529081600082015481525050600660000160405180602001604052908160008201548152505061540290919063ffffffff16565b15614f915760066002016006600001600082015481600001559050505b50505b5b7f49d8cdfe05bae61517c234f65f4088454013bafe561115126a8fe0074dc7700e614fd86006600001604051806020016040529081600082015481525050613fcc565b6040518082815260200191505060405180910390a150565b6000816000015183600001511015905092915050565b61500e6156e6565b600082600001511415615089576040517f08c379a00000000000000000000000000000000000000000000000000000000081526004018080602001828103825260118152602001807f63616e277420646976696465206279203000000000000000000000000000000081525060200191505060405180910390fd5b600069d3c21bcecceda10000008460000151029050836000015169d3c21bcecceda100000082816150b657fe5b041461512a576040517f08c379a00000000000000000000000000000000000000000000000000000000081526004018080602001828103825260128152602001807f6f766572666c6f7720617420646976696465000000000000000000000000000081525060200191505060405180910390fd5b60405180602001604052808460000151838161514257fe5b0481525091505092915050565b6151576156e6565b8160000151836000015110156151d5576040517f08c379a000000000000000000000000000000000000000000000000000000000815260040180806020018281038252601f8152602001807f737562737472616374696f6e20756e646572666c6f772064657465637465640081525060200191505060405180910390fd5b60405180602001604052808360000151856000015103815250905092915050565b6000600160009054906101000a900473ffffffffffffffffffffffffffffffffffffffff1673ffffffffffffffffffffffffffffffffffffffff1663dcf0aaed60405160200180807f52657365727665000000000000000000000000000000000000000000000000008152506007019050604051602081830303815290604052805190602001206040518263ffffffff1660e01b81526004018082815260200191505060206040518083038186803b1580156152b157600080fd5b505afa1580156152c5573d6000803e3d6000fd5b505050506040513d60208110156152db57600080fd5b8101908080519060200190929190505050905090565b6000816000015183600001511115905092915050565b6000600160009054906101000a900473ffffffffffffffffffffffffffffffffffffffff1673ffffffffffffffffffffffffffffffffffffffff1663dcf0aaed60405160200180807f476f6c64546f6b656e00000000000000000000000000000000000000000000008152506009019050604051602081830303815290604052805190602001206040518263ffffffff1660e01b81526004018082815260200191505060206040518083038186803b1580156153c257600080fd5b505afa1580156153d6573d6000803e3d6000fd5b505050506040513d60208110156153ec57600080fd5b8101908080519060200190929190505050905090565b60008160000151836000015111905092915050565b61541f6156e6565b60008260000151846000015101905083600001518110156154a8576040517f08c379a00000000000000000000000000000000000000000000000000000000081526004018080602001828103825260158152602001807f616464206f766572666c6f77206465746563746564000000000000000000000081525060200191505060405180910390fd5b60405180602001604052808281525091505092915050565b60007601357c299a88ea76a58924d52ce4f26a85af186c2b9e74905090565b6154e76156e6565b604051806020016040528069d3c21bcecceda10000008085600001518161550a57fe5b04028152509050919050565b61551e6156e6565b604051806020016040528069d3c21bcecceda10000008085600001518161554157fe5b04028460000151038152509050919050565b600064e8d4a51000905090565b6000808311829061560c576040517f08c379a00000000000000000000000000000000000000000000000000000000081526004018080602001828103825283818151815260200191508051906020019080838360005b838110156155d15780820151818401526020810190506155b6565b50505050905090810190601f1680156155fe5780820380516001836020036101000a031916815260200191505b509250505060405180910390fd5b50600083858161561857fe5b049050809150509392505050565b60008383111582906156d3576040517f08c379a00000000000000000000000000000000000000000000000000000000081526004018080602001828103825283818151815260200191508051906020019080838360005b8381101561569857808201518184015260208101905061567d565b50505050905090810190601f1680156156c55780820380516001836020036101000a031916815260200191505b509250505060405180910390fd5b5060008385039050809150509392505050565b604051806020016040528060008152509056fe5461726765742076616c696461746f722065706f6368207061796d656e7420756e6368616e6765646572726f722063616c6c696e67206e756d62657256616c696461746f7273496e53657420707265636f6d70696c654261642072657761726473206d756c7469706c69657220706172616d657465727354617267657420766f74696e6720676f6c64206672616374696f6e20756e6368616e6765644f776e61626c653a206e6577206f776e657220697320746865207a65726f206164647265737354617267657420766f74696e6720676f6c64206672616374696f6e2063616e6e6f74206265206c6172676572207468616e2031496d706c656d656e7420626c6f636b207265776172642063616c63756c6174696f6e20666f722079656172732031352d33306572726f722063616c6c696e672067657456657269666965645365616c4269746d617046726f6d48656164657220707265636f6d70696c6563616e27742063616c6c207768656e20636f6e74726163742069732066726f7a656e63616e277420637265617465206669786964697479206e756d626572206c6172676572207468616e206d61784e6577466978656428294261642074617267657420766f74696e67207969656c6420706172616d65746572736572726f722063616c6c696e672076616c696461746f725369676e65724164647265737346726f6d43757272656e7453657420707265636f6d70696c6554617267657420766f74696e67207969656c64206d757374206265206c657373207468616e206f7220657175616c20746f206d61786572726f722063616c6c696e672076616c696461746f725369676e65724164647265737346726f6d53657420707265636f6d70696c65536166654d6174683a206d756c7469706c69636174696f6e206f766572666c6f776572726f722063616c6c696e67206672616374696f6e4d756c45787020707265636f6d70696c656572726f722063616c6c696e672067657445706f636853697a6520707265636f6d70696c656572726f722063616c6c696e6720676574506172656e745365616c4269746d617020707265636f6d70696c656572726f722063616c6c696e6720676574426c6f636b4e756d62657246726f6d48656164657220707265636f6d70696c654d61782074617267657420766f74696e67207969656c64206d757374206265206c6f776572207468616e20313030256572726f722063616c6c696e67206861736848656164657220707265636f6d70696c65a165627a7a72305820d47ce2826d4643256f14f4a2805d1dd1d5adcd74135687d6cc48416cd805dbcc0029",
  "source": "pragma solidity ^0.5.8;\n\nimport \"../EpochRewards.sol\";\n\n/**\n * @title A wrapper around EpochRewards that exposes internal functions for testing.\n */\ncontract EpochRewardsTest is EpochRewards {\n  uint256 private numValidatorsInCurrentSet;\n  function getRewardsMultiplier(uint256 targetGoldTotalSupplyIncrease)\n    external\n    view\n    returns (uint256)\n  {\n    return _getRewardsMultiplier(targetGoldTotalSupplyIncrease).unwrap();\n  }\n\n  function updateTargetVotingYield() external {\n    _updateTargetVotingYield();\n  }\n\n  function numberValidatorsInCurrentSet() public view returns (uint256) {\n    return numValidatorsInCurrentSet;\n  }\n\n  function setNumberValidatorsInCurrentSet(uint256 value) external {\n    numValidatorsInCurrentSet = value;\n  }\n}\n",
  "sourcePath": "/Users/cmcewen/celo/celo-monorepo/packages/protocol/contracts/governance/test/EpochRewardsTest.sol",
  "compiler": {
    "name": "solc",
    "version": "0.5.8+commit.23d335f2.Emscripten.clang"
  },
  "schemaVersion": "3.0.10",
  "updatedAt": "2020-04-09T23:11:37.420Z",
  "devdoc": {
    "methods": {
      "calculateTargetEpochRewards()": {
        "return": "The per validator epoch reward, the total rewards to voters, the total community reward, and the total carbon offsetting partner reward."
      },
      "checkProofOfPossession(address,bytes,bytes)": {
        "params": {
          "blsKey": "The BLS public key that the validator is using for consensus, should pass proof  of possession. 48 bytes.",
          "blsPop": "The BLS public key proof-of-possession, which consists of a signature on the  account address. 96 bytes.",
          "sender": "The address signed by the BLS key to generate the proof of possession."
        },
        "return": "True upon success."
      },
      "fractionMulExp(uint256,uint256,uint256,uint256,uint256,uint256)": {
        "params": {
          "_decimals": "precision",
          "aDenominator": "Denominator of first fraction",
          "aNumerator": "Numerator of first fraction",
          "bDenominator": "Denominator of exponentiated fraction",
          "bNumerator": "Numerator of exponentiated fraction",
          "exponent": "exponent to raise b to"
        },
        "return": "numerator/denominator of the computed quantity (not reduced)."
      },
      "getBlockNumberFromHeader(bytes)": {
        "params": {
          "header": "RLP encoded header"
        },
        "return": "Block number."
      },
      "getCarbonOffsettingFraction()": {
        "return": "The percentage of total reward which goes to the carbon offsetting partner."
      },
      "getCommunityRewardFraction()": {
        "return": "The percentage of total reward which goes to the community funds."
      },
      "getEpochNumber()": {
        "return": "Current epoch number."
      },
      "getEpochNumberOfBlock(uint256)": {
        "params": {
          "blockNumber": "Block number where epoch number is calculated."
        },
        "return": "Epoch number."
      },
      "getEpochSize()": {
        "return": "The current epoch size in blocks."
      },
      "getParentSealBitmap(uint256)": {
        "params": {
          "blockNumber": "Block number to retrieve. Must be within 4 epochs of the current number."
        },
        "return": "Bitmap parent seal with set bits at indices corresponding to signing validators."
      },
      "getRewardsMultiplier()": {
        "return": "The rewards multiplier based on the current and target Gold supplies."
      },
      "getRewardsMultiplierParameters()": {
        "return": "The max multiplier and under/over spend adjustment factors."
      },
      "getTargetGoldTotalSupply()": {
        "return": "The target Gold supply according to the epoch rewards target schedule."
      },
      "getTargetTotalEpochPaymentsInGold()": {
        "return": "The total target epoch payments to validators, converted to Gold."
      },
      "getTargetVoterRewards()": {
        "return": "the total target epoch rewards for voters."
      },
      "getTargetVotingGoldFraction()": {
        "return": "The percentage of floating Gold voting to target."
      },
      "getTargetVotingYieldParameters()": {
        "return": "The target, max, and adjustment factor for target voting yield."
      },
      "getVerifiedSealBitmapFromHeader(bytes)": {
        "params": {
          "header": "RLP encoded header"
        },
        "return": "Bitmap parent seal with set bits at indices correspoinding to signing validators."
      },
      "getVotingGoldFraction()": {
        "return": "The fraction of floating Gold being used for voting in validator elections."
      },
      "hashHeader(bytes)": {
        "params": {
          "header": "RLP encoded header"
        },
        "return": "Header hash."
      },
      "initialize(address,uint256,uint256,uint256,uint256,uint256,uint256,uint256,uint256,uint256,address,uint256)": {
        "details": "Should be called only once.",
        "params": {
          "_carbonOffsettingFraction": "The percentage of rewards going to carbon offsetting partner.",
          "_carbonOffsettingPartner": "The address of the carbon offsetting partner.",
          "_communityRewardFraction": "The percentage of rewards that go the community funds.",
          "_targetValidatorEpochPayment": "The target validator epoch payment.",
          "_targetVotingGoldFraction": "The percentage of floating Gold voting to target.",
          "registryAddress": "The address of the registry contract.",
          "rewardsMultiplierMax": "The max multiplier on target epoch rewards.",
          "rewardsMultiplierOverspendAdjustmentFactor": "Adjusts the multiplier on target epoch  rewards when the protocol is running ahead of the target Gold supply.",
          "rewardsMultiplierUnderspendAdjustmentFactor": "Adjusts the multiplier on target epoch  rewards when the protocol is running behind the target Gold supply.",
          "targetVotingYieldAdjustmentFactor": "The target block reward adjustment factor for voters.",
          "targetVotingYieldInitial": "The initial relative target block reward for voters.",
          "targetVotingYieldMax": "The max relative target block reward for voters."
        }
      },
      "isOwner()": {
        "details": "Returns true if the caller is the current owner."
      },
      "minQuorumSize(uint256)": {
        "details": "Computed in celo-blockchain as int(math.Ceil(float64(2*valSet.Size()) / 3))"
      },
      "minQuorumSizeInCurrentSet()": {
        "return": "Byzantine quorum of validators."
      },
      "numberValidatorsInSet(uint256)": {
        "params": {
          "blockNumber": "Block number to retrieve the validator set from."
        },
        "return": "Size of the validator set."
      },
      "owner()": {
        "details": "Returns the address of the current owner."
      },
      "renounceOwnership()": {
        "details": "Leaves the contract without owner. It will not be possible to call `onlyOwner` functions anymore. Can only be called by the current owner.     * NOTE: Renouncing ownership will leave the contract without an owner, thereby removing any functionality that is only available to the owner."
      },
      "setCarbonOffsettingFund(address,uint256)": {
        "params": {
          "partner": "The address of the carbon offsetting partner.",
          "value": "The percentage of the total reward to be sent to the carbon offsetting partner."
        },
        "return": "True upon success."
      },
      "setCommunityRewardFraction(uint256)": {
        "params": {
          "value": "The percentage of the total reward to be sent to the community funds."
        },
        "return": "True upon success."
      },
      "setRegistry(address)": {
        "params": {
          "registryAddress": "The address of a registry contract for routing to other contracts."
        }
      },
      "setRewardsMultiplierParameters(uint256,uint256,uint256)": {
        "params": {
          "max": "The max multiplier on target epoch rewards.",
          "overspendAdjustmentFactor": "Adjusts the multiplier on target epoch rewards when the  protocol is running ahead of the target Gold supply.",
          "underspendAdjustmentFactor": "Adjusts the multiplier on target epoch rewards when the  protocol is running behind the target Gold supply."
        },
        "return": "True upon success."
      },
      "setTargetValidatorEpochPayment(uint256)": {
        "params": {
          "value": "The value in Celo Dollars."
        },
        "return": "True upon success."
      },
      "setTargetVotingGoldFraction(uint256)": {
        "params": {
          "value": "The percentage of floating Gold voting to target."
        },
        "return": "True upon success."
      },
      "setTargetVotingYield(uint256)": {
        "params": {
          "targetVotingYield": "The relative target block reward for voters."
        },
        "return": "True upon success."
      },
      "setTargetVotingYieldParameters(uint256,uint256)": {
        "params": {
          "adjustmentFactor": "The target block reward adjustment factor for voters.",
          "max": "The max relative target block reward for voters."
        },
        "return": "True upon success."
      },
      "transferOwnership(address)": {
        "details": "Transfers ownership of the contract to a new account (`newOwner`). Can only be called by the current owner."
      },
      "validatorSignerAddressFromCurrentSet(uint256)": {
        "params": {
          "index": "Index of requested validator in the validator set."
        },
        "return": "Address of validator at the requested index."
      },
      "validatorSignerAddressFromSet(uint256,uint256)": {
        "params": {
          "blockNumber": "Block number to retrieve the validator set from.",
          "index": "Index of requested validator in the validator set."
        },
        "return": "Address of validator at the requested index."
      }
    },
    "title": "A wrapper around EpochRewards that exposes internal functions for testing."
  },
  "userdoc": {
    "methods": {
      "calculateTargetEpochRewards()": {
        "notice": "Calculates the per validator epoch payment and the total rewards to voters."
      },
      "checkProofOfPossession(address,bytes,bytes)": {
        "notice": "Checks a BLS proof of possession."
      },
      "fractionMulExp(uint256,uint256,uint256,uint256,uint256,uint256)": {
        "notice": "calculate a * b^x for fractions a, b to `decimals` precision"
      },
      "getBlockNumberFromHeader(bytes)": {
        "notice": "Parses block number out of header."
      },
      "getCarbonOffsettingFraction()": {
        "notice": "Returns the carbon offsetting partner reward fraction."
      },
      "getCommunityRewardFraction()": {
        "notice": "Returns the community reward fraction."
      },
      "getEpochNumber()": {
        "notice": "Returns the epoch number at a block."
      },
      "getEpochNumberOfBlock(uint256)": {
        "notice": "Returns the epoch number at a block."
      },
      "getEpochSize()": {
        "notice": "Returns the current epoch size in blocks."
      },
      "getParentSealBitmap(uint256)": {
        "notice": "Gets the parent seal bitmap from the header at the given block number."
      },
      "getRewardsMultiplier()": {
        "notice": "Returns the rewards multiplier based on the current and target Gold supplies."
      },
      "getRewardsMultiplierParameters()": {
        "notice": "Returns the rewards multiplier parameters."
      },
      "getTargetGoldTotalSupply()": {
        "notice": "Returns the target Gold supply according to the epoch rewards target schedule."
      },
      "getTargetTotalEpochPaymentsInGold()": {
        "notice": "Returns the total target epoch payments to validators, converted to Gold."
      },
      "getTargetVoterRewards()": {
        "notice": "Returns the total target epoch rewards for voters."
      },
      "getTargetVotingGoldFraction()": {
        "notice": "Returns the target voting Gold fraction."
      },
      "getTargetVotingYieldParameters()": {
        "notice": "Returns the target voting yield parameters."
      },
      "getVerifiedSealBitmapFromHeader(bytes)": {
        "notice": "Verifies the BLS signature on the header and returns the seal bitmap. The validator set used for verification is retrieved based on the parent hash field of the header.  If the parent hash is not in the blockchain, verification fails."
      },
      "getVotingGoldFraction()": {
        "notice": "Returns the fraction of floating Gold being used for voting in validator elections."
      },
      "hashHeader(bytes)": {
        "notice": "Computes hash of header."
      },
      "initialize(address,uint256,uint256,uint256,uint256,uint256,uint256,uint256,uint256,uint256,address,uint256)": {
        "notice": "Used in place of the constructor to allow the contract to be upgradable via proxy."
      },
      "isReserveLow()": {
        "notice": "Determines if the reserve is low enough to demand a diversion from   the community reward. Targets initial critical ratio of 2 with a linear   decline until 25 years have passed where the critical ratio will be 1."
      },
      "minQuorumSize(uint256)": {
        "notice": "Returns the minimum number of required signers for a given block number."
      },
      "minQuorumSizeInCurrentSet()": {
        "notice": "Computes byzantine quorum from current validator set size"
      },
      "numberValidatorsInSet(uint256)": {
        "notice": "Gets the size of the validator set that must sign the given block number."
      },
      "setCarbonOffsettingFund(address,uint256)": {
        "notice": "Sets the carbon offsetting fund."
      },
      "setCommunityRewardFraction(uint256)": {
        "notice": "Sets the community reward percentage"
      },
      "setRegistry(address)": {
        "notice": "Updates the address pointing to a Registry contract."
      },
      "setRewardsMultiplierParameters(uint256,uint256,uint256)": {
        "notice": "Sets the rewards multiplier parameters."
      },
      "setTargetValidatorEpochPayment(uint256)": {
        "notice": "Sets the target per-epoch payment in Celo Dollars for validators."
      },
      "setTargetVotingGoldFraction(uint256)": {
        "notice": "Sets the target voting Gold fraction."
      },
      "setTargetVotingYield(uint256)": {
        "notice": "Sets the target voting yield.  Uses fixed point arithmetic for protection against overflow."
      },
      "setTargetVotingYieldParameters(uint256,uint256)": {
        "notice": "Sets the target voting yield parameters."
      },
      "validatorSignerAddressFromCurrentSet(uint256)": {
        "notice": "Gets a validator address from the current validator set."
      },
      "validatorSignerAddressFromSet(uint256,uint256)": {
        "notice": "Gets a validator address from the validator set at the given block number."
      }
    }
  }
}