{
  "contractName": "Exchange",
  "abi": [
    {
      "constant": true,
      "inputs": [],
      "name": "initialized",
      "outputs": [
        {
          "name": "",
          "type": "bool"
        }
      ],
      "payable": false,
      "stateMutability": "view",
      "type": "function"
    },
    {
      "constant": true,
      "inputs": [],
      "name": "minimumReports",
      "outputs": [
        {
          "name": "",
          "type": "uint256"
        }
      ],
      "payable": false,
      "stateMutability": "view",
      "type": "function"
    },
    {
      "constant": true,
      "inputs": [],
      "name": "stable",
      "outputs": [
        {
          "name": "",
          "type": "address"
        }
      ],
      "payable": false,
      "stateMutability": "view",
      "type": "function"
    },
    {
      "constant": true,
      "inputs": [],
      "name": "stableBucket",
      "outputs": [
        {
          "name": "",
          "type": "uint256"
        }
      ],
      "payable": false,
      "stateMutability": "view",
      "type": "function"
    },
    {
      "constant": true,
      "inputs": [],
      "name": "spread",
      "outputs": [
        {
          "name": "value",
          "type": "uint256"
        }
      ],
      "payable": false,
      "stateMutability": "view",
      "type": "function"
    },
    {
      "constant": true,
      "inputs": [],
      "name": "goldBucket",
      "outputs": [
        {
          "name": "",
          "type": "uint256"
        }
      ],
      "payable": false,
      "stateMutability": "view",
      "type": "function"
    },
    {
      "constant": true,
      "inputs": [],
      "name": "updateFrequency",
      "outputs": [
        {
          "name": "",
          "type": "uint256"
        }
      ],
      "payable": false,
      "stateMutability": "view",
      "type": "function"
    },
    {
      "constant": false,
      "inputs": [],
      "name": "renounceOwnership",
      "outputs": [],
      "payable": false,
      "stateMutability": "nonpayable",
      "type": "function"
    },
    {
      "constant": true,
      "inputs": [],
      "name": "registry",
      "outputs": [
        {
          "name": "",
          "type": "address"
        }
      ],
      "payable": false,
      "stateMutability": "view",
      "type": "function"
    },
    {
      "constant": true,
      "inputs": [],
      "name": "owner",
      "outputs": [
        {
          "name": "",
          "type": "address"
        }
      ],
      "payable": false,
      "stateMutability": "view",
      "type": "function"
    },
    {
      "constant": true,
      "inputs": [],
      "name": "isOwner",
      "outputs": [
        {
          "name": "",
          "type": "bool"
        }
      ],
      "payable": false,
      "stateMutability": "view",
      "type": "function"
    },
    {
      "constant": false,
      "inputs": [
        {
          "name": "registryAddress",
          "type": "address"
        }
      ],
      "name": "setRegistry",
      "outputs": [],
      "payable": false,
      "stateMutability": "nonpayable",
      "type": "function"
    },
    {
      "constant": true,
      "inputs": [],
      "name": "reserveFraction",
      "outputs": [
        {
          "name": "value",
          "type": "uint256"
        }
      ],
      "payable": false,
      "stateMutability": "view",
      "type": "function"
    },
    {
      "constant": true,
      "inputs": [],
      "name": "lastBucketUpdate",
      "outputs": [
        {
          "name": "",
          "type": "uint256"
        }
      ],
      "payable": false,
      "stateMutability": "view",
      "type": "function"
    },
    {
      "constant": false,
      "inputs": [
        {
          "name": "newOwner",
          "type": "address"
        }
      ],
      "name": "transferOwnership",
      "outputs": [],
      "payable": false,
      "stateMutability": "nonpayable",
      "type": "function"
    },
    {
      "anonymous": false,
      "inputs": [
        {
          "indexed": true,
          "name": "exchanger",
          "type": "address"
        },
        {
          "indexed": false,
          "name": "sellAmount",
          "type": "uint256"
        },
        {
          "indexed": false,
          "name": "buyAmount",
          "type": "uint256"
        },
        {
          "indexed": false,
          "name": "soldGold",
          "type": "bool"
        }
      ],
      "name": "Exchanged",
      "type": "event"
    },
    {
      "anonymous": false,
      "inputs": [
        {
          "indexed": false,
          "name": "updateFrequency",
          "type": "uint256"
        }
      ],
      "name": "UpdateFrequencySet",
      "type": "event"
    },
    {
      "anonymous": false,
      "inputs": [
        {
          "indexed": false,
          "name": "minimumReports",
          "type": "uint256"
        }
      ],
      "name": "MinimumReportsSet",
      "type": "event"
    },
    {
      "anonymous": false,
      "inputs": [
        {
          "indexed": true,
          "name": "stable",
          "type": "address"
        }
      ],
      "name": "StableTokenSet",
      "type": "event"
    },
    {
      "anonymous": false,
      "inputs": [
        {
          "indexed": false,
          "name": "spread",
          "type": "uint256"
        }
      ],
      "name": "SpreadSet",
      "type": "event"
    },
    {
      "anonymous": false,
      "inputs": [
        {
          "indexed": false,
          "name": "reserveFraction",
          "type": "uint256"
        }
      ],
      "name": "ReserveFractionSet",
      "type": "event"
    },
    {
      "anonymous": false,
      "inputs": [
        {
          "indexed": true,
          "name": "registryAddress",
          "type": "address"
        }
      ],
      "name": "RegistrySet",
      "type": "event"
    },
    {
      "anonymous": false,
      "inputs": [
        {
          "indexed": true,
          "name": "previousOwner",
          "type": "address"
        },
        {
          "indexed": true,
          "name": "newOwner",
          "type": "address"
        }
      ],
      "name": "OwnershipTransferred",
      "type": "event"
    },
    {
      "constant": false,
      "inputs": [
        {
          "name": "registryAddress",
          "type": "address"
        },
        {
          "name": "stableToken",
          "type": "address"
        },
        {
          "name": "_spread",
          "type": "uint256"
        },
        {
          "name": "_reserveFraction",
          "type": "uint256"
        },
        {
          "name": "_updateFrequency",
          "type": "uint256"
        },
        {
          "name": "_minimumReports",
          "type": "uint256"
        }
      ],
      "name": "initialize",
      "outputs": [],
      "payable": false,
      "stateMutability": "nonpayable",
      "type": "function"
    },
    {
      "constant": false,
      "inputs": [
        {
          "name": "sellAmount",
          "type": "uint256"
        },
        {
          "name": "minBuyAmount",
          "type": "uint256"
        },
        {
          "name": "sellGold",
          "type": "bool"
        }
      ],
      "name": "exchange",
      "outputs": [
        {
          "name": "",
          "type": "uint256"
        }
      ],
      "payable": false,
      "stateMutability": "nonpayable",
      "type": "function"
    },
    {
      "constant": true,
      "inputs": [
        {
          "name": "sellAmount",
          "type": "uint256"
        },
        {
          "name": "sellGold",
          "type": "bool"
        }
      ],
      "name": "getBuyTokenAmount",
      "outputs": [
        {
          "name": "",
          "type": "uint256"
        }
      ],
      "payable": false,
      "stateMutability": "view",
      "type": "function"
    },
    {
      "constant": true,
      "inputs": [
        {
          "name": "buyAmount",
          "type": "uint256"
        },
        {
          "name": "sellGold",
          "type": "bool"
        }
      ],
      "name": "getSellTokenAmount",
      "outputs": [
        {
          "name": "",
          "type": "uint256"
        }
      ],
      "payable": false,
      "stateMutability": "view",
      "type": "function"
    },
    {
      "constant": true,
      "inputs": [
        {
          "name": "sellGold",
          "type": "bool"
        }
      ],
      "name": "getBuyAndSellBuckets",
      "outputs": [
        {
          "name": "",
          "type": "uint256"
        },
        {
          "name": "",
          "type": "uint256"
        }
      ],
      "payable": false,
      "stateMutability": "view",
      "type": "function"
    },
    {
      "constant": false,
      "inputs": [
        {
          "name": "newUpdateFrequency",
          "type": "uint256"
        }
      ],
      "name": "setUpdateFrequency",
      "outputs": [],
      "payable": false,
      "stateMutability": "nonpayable",
      "type": "function"
    },
    {
      "constant": false,
      "inputs": [
        {
          "name": "newMininumReports",
          "type": "uint256"
        }
      ],
      "name": "setMinimumReports",
      "outputs": [],
      "payable": false,
      "stateMutability": "nonpayable",
      "type": "function"
    },
    {
      "constant": false,
      "inputs": [
        {
          "name": "newStableToken",
          "type": "address"
        }
      ],
      "name": "setStableToken",
      "outputs": [],
      "payable": false,
      "stateMutability": "nonpayable",
      "type": "function"
    },
    {
      "constant": false,
      "inputs": [
        {
          "name": "newSpread",
          "type": "uint256"
        }
      ],
      "name": "setSpread",
      "outputs": [],
      "payable": false,
      "stateMutability": "nonpayable",
      "type": "function"
    },
    {
      "constant": false,
      "inputs": [
        {
          "name": "newReserveFraction",
          "type": "uint256"
        }
      ],
      "name": "setReserveFraction",
      "outputs": [],
      "payable": false,
      "stateMutability": "nonpayable",
      "type": "function"
    }
  ],
  "bytecode": "0x6080604052600060085560006100196100c560201b60201c565b905080600060016101000a81548173ffffffffffffffffffffffffffffffffffffffff021916908373ffffffffffffffffffffffffffffffffffffffff1602179055508073ffffffffffffffffffffffffffffffffffffffff16600073ffffffffffffffffffffffffffffffffffffffff167f8be0079c531659141344cd1fd0a4f28419497f9722a3daafe3b4186f6b6457e060405160405180910390a35060016002819055506100cd565b600033905090565b6135a680620000dd6000396000f3fe608060405234801561001057600080fd5b50600436106101735760003560e01c806378ba9cfd116100de578063a91ee0dc11610097578063db1bc87b11610071578063db1bc87b14610601578063dda57b9314610645578063e0c8b50a14610663578063f2fde38b1461068157610173565b8063a91ee0dc14610561578063b66a261c146105a5578063d404f7f8146105d357610173565b806378ba9cfd146103865780637b103999146103d157806386489ba91461041b5780638da5cb5b146104a75780638f32d59b146104f15780639ed02b581461051357610173565b80634c0226a2116101305780634c0226a2146102a65780635c25c76c146102f457806362f0908414610312578063673ea086146103305780636a5eaf471461034e578063715018a61461037c57610173565b8063158ef93e1461017857806322503ce51461019a57806322be3de1146101b857806325ac2de6146102025780632bc7d67a146102205780634a1be6cb14610278575b600080fd5b6101806106c5565b604051808215151515815260200191505060405180910390f35b6101a26106d7565b6040518082815260200191505060405180910390f35b6101c06106dd565b604051808273ffffffffffffffffffffffffffffffffffffffff1673ffffffffffffffffffffffffffffffffffffffff16815260200191505060405180910390f35b61020a610703565b6040518082815260200191505060405180910390f35b6102626004803603606081101561023657600080fd5b810190808035906020019092919080359060200190929190803515159060200190929190505050610709565b6040518082815260200191505060405180910390f35b6102a46004803603602081101561028e57600080fd5b8101908080359060200190929190505050611131565b005b6102de600480360360408110156102bc57600080fd5b81019080803590602001909291908035151590602001909291905050506111ec565b6040518082815260200191505060405180910390f35b6102fc6112bc565b6040518082815260200191505060405180910390f35b61031a6112c8565b6040518082815260200191505060405180910390f35b6103386112ce565b6040518082815260200191505060405180910390f35b61037a6004803603602081101561036457600080fd5b81019080803590602001909291905050506112d4565b005b610384611425565b005b6103b46004803603602081101561039c57600080fd5b8101908080351515906020019092919050505061155f565b604051808381526020018281526020019250505060405180910390f35b6103d96115af565b604051808273ffffffffffffffffffffffffffffffffffffffff1673ffffffffffffffffffffffffffffffffffffffff16815260200191505060405180910390f35b6104a5600480360360c081101561043157600080fd5b81019080803573ffffffffffffffffffffffffffffffffffffffff169060200190929190803573ffffffffffffffffffffffffffffffffffffffff169060200190929190803590602001909291908035906020019092919080359060200190929190803590602001909291905050506115d5565b005b6104af6116c0565b604051808273ffffffffffffffffffffffffffffffffffffffff1673ffffffffffffffffffffffffffffffffffffffff16815260200191505060405180910390f35b6104f96116e9565b604051808215151515815260200191505060405180910390f35b61054b6004803603604081101561052957600080fd5b8101908080359060200190929190803515159060200190929190505050611747565b6040518082815260200191505060405180910390f35b6105a36004803603602081101561057757600080fd5b81019080803573ffffffffffffffffffffffffffffffffffffffff1690602001909291905050506117ea565b005b6105d1600480360360208110156105bb57600080fd5b810190808035906020019092919050505061198e565b005b6105ff600480360360208110156105e957600080fd5b8101908080359060200190929190505050611a5a565b005b6106436004803603602081101561061757600080fd5b81019080803573ffffffffffffffffffffffffffffffffffffffff169060200190929190505050611b15565b005b61064d611c16565b6040518082815260200191505060405180910390f35b61066b611c22565b6040518082815260200191505060405180910390f35b6106c36004803603602081101561069757600080fd5b81019080803573ffffffffffffffffffffffffffffffffffffffff169060200190929190505050611c28565b005b6000809054906101000a900460ff1681565b600a5481565b600560009054906101000a900473ffffffffffffffffffffffffffffffffffffffff1681565b60075481565b6000610713611cae565b73ffffffffffffffffffffffffffffffffffffffff1663e5839836306040518263ffffffff1660e01b8152600401808273ffffffffffffffffffffffffffffffffffffffff1673ffffffffffffffffffffffffffffffffffffffff16815260200191505060206040518083038186803b15801561078f57600080fd5b505afa1580156107a3573d6000803e3d6000fd5b505050506040513d60208110156107b957600080fd5b810190808051906020019092919050505015610820576040517f08c379a00000000000000000000000000000000000000000000000000000000081526004018080602001828103825260228152602001806134ab6022913960400191505060405180910390fd5b610828611da9565b600160026000828254019250508190555060006002549050600061084c8685611ddc565b9050848110156108a7576040517f08c379a00000000000000000000000000000000000000000000000000000000081526004018080602001828103825260398152602001806134726039913960400191505060405180910390fd5b6000600160009054906101000a900473ffffffffffffffffffffffffffffffffffffffff1673ffffffffffffffffffffffffffffffffffffffff1663dcf0aaed60405160200180807f52657365727665000000000000000000000000000000000000000000000000008152506007019050604051602081830303815290604052805190602001206040518263ffffffff1660e01b81526004018082815260200191505060206040518083038186803b15801561096257600080fd5b505afa158015610976573d6000803e3d6000fd5b505050506040513d602081101561098c57600080fd5b810190808051906020019092919050505090508415610ca5576109ba87600654611e7f90919063ffffffff16565b6006819055506109d582600754611f0790919063ffffffff16565b6007819055506109e3611f51565b73ffffffffffffffffffffffffffffffffffffffff166323b872dd33838a6040518463ffffffff1660e01b8152600401808473ffffffffffffffffffffffffffffffffffffffff1673ffffffffffffffffffffffffffffffffffffffff1681526020018373ffffffffffffffffffffffffffffffffffffffff1673ffffffffffffffffffffffffffffffffffffffff1681526020018281526020019350505050602060405180830381600087803b158015610a9d57600080fd5b505af1158015610ab1573d6000803e3d6000fd5b505050506040513d6020811015610ac757600080fd5b8101908080519060200190929190505050610b4a576040517f08c379a000000000000000000000000000000000000000000000000000000000815260040180806020018281038252601d8152602001807f5472616e73666572206f662073656c6c20746f6b656e206661696c656400000081525060200191505060405180910390fd5b600560009054906101000a900473ffffffffffffffffffffffffffffffffffffffff1673ffffffffffffffffffffffffffffffffffffffff166340c10f1933846040518363ffffffff1660e01b8152600401808373ffffffffffffffffffffffffffffffffffffffff1673ffffffffffffffffffffffffffffffffffffffff16815260200182815260200192505050602060405180830381600087803b158015610bf357600080fd5b505af1158015610c07573d6000803e3d6000fd5b505050506040513d6020811015610c1d57600080fd5b8101908080519060200190929190505050610ca0576040517f08c379a000000000000000000000000000000000000000000000000000000000815260040180806020018281038252601b8152602001807f4d696e74206f6620737461626c6520746f6b656e206661696c6564000000000081525060200191505060405180910390fd5b61104b565b610cba87600754611e7f90919063ffffffff16565b600781905550610cd582600654611f0790919063ffffffff16565b600681905550600560009054906101000a900473ffffffffffffffffffffffffffffffffffffffff1673ffffffffffffffffffffffffffffffffffffffff166323b872dd33308a6040518463ffffffff1660e01b8152600401808473ffffffffffffffffffffffffffffffffffffffff1673ffffffffffffffffffffffffffffffffffffffff1681526020018373ffffffffffffffffffffffffffffffffffffffff1673ffffffffffffffffffffffffffffffffffffffff1681526020018281526020019350505050602060405180830381600087803b158015610db857600080fd5b505af1158015610dcc573d6000803e3d6000fd5b505050506040513d6020811015610de257600080fd5b8101908080519060200190929190505050610e65576040517f08c379a000000000000000000000000000000000000000000000000000000000815260040180806020018281038252601d8152602001807f5472616e73666572206f662073656c6c20746f6b656e206661696c656400000081525060200191505060405180910390fd5b600560009054906101000a900473ffffffffffffffffffffffffffffffffffffffff1673ffffffffffffffffffffffffffffffffffffffff166342966c68886040518263ffffffff1660e01b815260040180828152602001915050602060405180830381600087803b158015610eda57600080fd5b505af1158015610eee573d6000803e3d6000fd5b505050506040513d6020811015610f0457600080fd5b8101908080519060200190929190505050508073ffffffffffffffffffffffffffffffffffffffff166303a0fea333846040518363ffffffff1660e01b8152600401808373ffffffffffffffffffffffffffffffffffffffff1673ffffffffffffffffffffffffffffffffffffffff16815260200182815260200192505050602060405180830381600087803b158015610f9d57600080fd5b505af1158015610fb1573d6000803e3d6000fd5b505050506040513d6020811015610fc757600080fd5b810190808051906020019092919050505061104a576040517f08c379a000000000000000000000000000000000000000000000000000000000815260040180806020018281038252601b8152602001807f5472616e73666572206f6620627579546f6b656e206661696c6564000000000081525060200191505060405180910390fd5b5b3373ffffffffffffffffffffffffffffffffffffffff167f402ac9185b4616422c2794bf5b118bfcc68ed496d52c0d9841dfa114fdeb05ba8884886040518084815260200183815260200182151515158152602001935050505060405180910390a281935050506002548114611129576040517f08c379a000000000000000000000000000000000000000000000000000000000815260040180806020018281038252600e8152602001807f7265656e7472616e742063616c6c00000000000000000000000000000000000081525060200191505060405180910390fd5b509392505050565b6111396116e9565b6111ab576040517f08c379a00000000000000000000000000000000000000000000000000000000081526004018080602001828103825260208152602001807f4f776e61626c653a2063616c6c6572206973206e6f7420746865206f776e657281525060200191505060405180910390fd5b806009819055507f90c0a4a142fbfbc2ae8c21f50729a2f4bc56e85a66c1a1b6654f1e85092a54a6816040518082815260200191505060405180910390a150565b60008060006111fa8461155f565b809350819250505061120a613438565b611225611220848861204c90919063ffffffff16565b6120d2565b905061122f613438565b61128b611262600360405180602001604052908160008201548152505061125461215c565b61218290919063ffffffff16565b61127d6112788a87611f0790919063ffffffff16565b6120d2565b61222990919063ffffffff16565b90506112b061129982612688565b6112a284612688565b61269690919063ffffffff16565b94505050505092915050565b60038060000154905081565b60065481565b60095481565b6112dc6116e9565b61134e576040517f08c379a00000000000000000000000000000000000000000000000000000000081526004018080602001828103825260208152602001807f4f776e61626c653a2063616c6c6572206973206e6f7420746865206f776e657281525060200191505060405180910390fd5b611357816126e0565b60046000820151816000015590505061139661137161215c565b60046040518060200160405290816000820154815250506126fe90919063ffffffff16565b6113eb576040517f08c379a00000000000000000000000000000000000000000000000000000000081526004018080602001828103825260278152602001806135546027913960400191505060405180910390fd5b7fb690f84efb1d9039c2834effb7bebc792a85bfec7ef84f4b269528454f363ccf816040518082815260200191505060405180910390a150565b61142d6116e9565b61149f576040517f08c379a00000000000000000000000000000000000000000000000000000000081526004018080602001828103825260208152602001807f4f776e61626c653a2063616c6c6572206973206e6f7420746865206f776e657281525060200191505060405180910390fd5b600073ffffffffffffffffffffffffffffffffffffffff16600060019054906101000a900473ffffffffffffffffffffffffffffffffffffffff1673ffffffffffffffffffffffffffffffffffffffff167f8be0079c531659141344cd1fd0a4f28419497f9722a3daafe3b4186f6b6457e060405160405180910390a360008060016101000a81548173ffffffffffffffffffffffffffffffffffffffff021916908373ffffffffffffffffffffffffffffffffffffffff160217905550565b6000806000600654905060006007549050611578612713565b1561158e57611585612b10565b80925081935050505b84156115a15780829350935050506115aa565b81819350935050505b915091565b600160009054906101000a900473ffffffffffffffffffffffffffffffffffffffff1681565b6000809054906101000a900460ff1615611657576040517f08c379a000000000000000000000000000000000000000000000000000000000815260040180806020018281038252601c8152602001807f636f6e747261637420616c726561647920696e697469616c697a65640000000081525060200191505060405180910390fd5b60016000806101000a81548160ff02191690831515021790555061167a33612b69565b611683866117ea565b61168c85611b15565b6116958461198e565b61169e836112d4565b6116a782611131565b6116b081611a5a565b6116b8611da9565b505050505050565b60008060019054906101000a900473ffffffffffffffffffffffffffffffffffffffff16905090565b60008060019054906101000a900473ffffffffffffffffffffffffffffffffffffffff1673ffffffffffffffffffffffffffffffffffffffff1661172b612caf565b73ffffffffffffffffffffffffffffffffffffffff1614905090565b60008060006117558461155f565b8093508192505050611765613438565b61176e86612cb7565b9050611778613438565b611793611784846120d2565b8361222990919063ffffffff16565b905061179d613438565b6117b8836117aa876120d2565b612d1090919063ffffffff16565b90506117dd6117c682612688565b6117cf84612688565b61269690919063ffffffff16565b9550505050505092915050565b6117f26116e9565b611864576040517f08c379a00000000000000000000000000000000000000000000000000000000081526004018080602001828103825260208152602001807f4f776e61626c653a2063616c6c6572206973206e6f7420746865206f776e657281525060200191505060405180910390fd5b600073ffffffffffffffffffffffffffffffffffffffff168173ffffffffffffffffffffffffffffffffffffffff161415611907576040517f08c379a00000000000000000000000000000000000000000000000000000000081526004018080602001828103825260208152602001807f43616e6e6f7420726567697374657220746865206e756c6c206164647265737381525060200191505060405180910390fd5b80600160006101000a81548173ffffffffffffffffffffffffffffffffffffffff021916908373ffffffffffffffffffffffffffffffffffffffff1602179055508073ffffffffffffffffffffffffffffffffffffffff167f27fe5f0c1c3b1ed427cc63d0f05759ffdecf9aec9e18d31ef366fc8a6cb5dc3b60405160405180910390a250565b6119966116e9565b611a08576040517f08c379a00000000000000000000000000000000000000000000000000000000081526004018080602001828103825260208152602001807f4f776e61626c653a2063616c6c6572206973206e6f7420746865206f776e657281525060200191505060405180910390fd5b611a11816126e0565b6003600082015181600001559050507f8946f328efcc515b5cc3282f6cd95e87a6c0d3508421af0b52d4d3620b3e2db3816040518082815260200191505060405180910390a150565b611a626116e9565b611ad4576040517f08c379a00000000000000000000000000000000000000000000000000000000081526004018080602001828103825260208152602001807f4f776e61626c653a2063616c6c6572206973206e6f7420746865206f776e657281525060200191505060405180910390fd5b80600a819055507f08523596abc266fb46d9c40ddf78fdfd3c08142252833ddce1a2b46f76521035816040518082815260200191505060405180910390a150565b611b1d6116e9565b611b8f576040517f08c379a00000000000000000000000000000000000000000000000000000000081526004018080602001828103825260208152602001807f4f776e61626c653a2063616c6c6572206973206e6f7420746865206f776e657281525060200191505060405180910390fd5b80600560006101000a81548173ffffffffffffffffffffffffffffffffffffffff021916908373ffffffffffffffffffffffffffffffffffffffff1602179055508073ffffffffffffffffffffffffffffffffffffffff167f119a23392e161a0bc5f9d5f3e2a6040c45b40d43a36973e10ea1de916f3d8a8a60405160405180910390a250565b60048060000154905081565b60085481565b611c306116e9565b611ca2576040517f08c379a00000000000000000000000000000000000000000000000000000000081526004018080602001828103825260208152602001807f4f776e61626c653a2063616c6c6572206973206e6f7420746865206f776e657281525060200191505060405180910390fd5b611cab81612b69565b50565b6000600160009054906101000a900473ffffffffffffffffffffffffffffffffffffffff1673ffffffffffffffffffffffffffffffffffffffff1663dcf0aaed60405160200180807f467265657a6572000000000000000000000000000000000000000000000000008152506007019050604051602081830303815290604052805190602001206040518263ffffffff1660e01b81526004018082815260200191505060206040518083038186803b158015611d6957600080fd5b505afa158015611d7d573d6000803e3d6000fd5b505050506040513d6020811015611d9357600080fd5b8101908080519060200190929190505050905090565b611db1612713565b15611dda5742600881905550611dc5612b10565b60066000600760008491905055839190505550505b565b6000806000611dea84612db9565b8093508192505050611dfa613438565b611e0386612cb7565b9050611e0d613438565b611e28611e19846120d2565b8361222990919063ffffffff16565b9050611e32613438565b611e4d83611e3f876120d2565b612d1090919063ffffffff16565b9050611e72611e5b82612688565b611e6484612688565b61269690919063ffffffff16565b9550505050505092915050565b600080828401905083811015611efd576040517f08c379a000000000000000000000000000000000000000000000000000000000815260040180806020018281038252601b8152602001807f536166654d6174683a206164646974696f6e206f766572666c6f77000000000081525060200191505060405180910390fd5b8091505092915050565b6000611f4983836040518060400160405280601e81526020017f536166654d6174683a207375627472616374696f6e206f766572666c6f770000815250612de1565b905092915050565b6000600160009054906101000a900473ffffffffffffffffffffffffffffffffffffffff1673ffffffffffffffffffffffffffffffffffffffff1663dcf0aaed60405160200180807f476f6c64546f6b656e00000000000000000000000000000000000000000000008152506009019050604051602081830303815290604052805190602001206040518263ffffffff1660e01b81526004018082815260200191505060206040518083038186803b15801561200c57600080fd5b505afa158015612020573d6000803e3d6000fd5b505050506040513d602081101561203657600080fd5b8101908080519060200190929190505050905090565b60008083141561205f57600090506120cc565b600082840290508284828161207057fe5b04146120c7576040517f08c379a00000000000000000000000000000000000000000000000000000000081526004018080602001828103825260218152602001806135336021913960400191505060405180910390fd5b809150505b92915050565b6120da613438565b6120e2612ea1565b82111561213a576040517f08c379a00000000000000000000000000000000000000000000000000000000081526004018080602001828103825260368152602001806134cd6036913960400191505060405180910390fd5b604051806020016040528069d3c21bcecceda100000084028152509050919050565b612164613438565b604051806020016040528069d3c21bcecceda1000000815250905090565b61218a613438565b816000015183600001511015612208576040517f08c379a000000000000000000000000000000000000000000000000000000000815260040180806020018281038252601f8152602001807f737562737472616374696f6e20756e646572666c6f772064657465637465640081525060200191505060405180910390fd5b60405180602001604052808360000151856000015103815250905092915050565b612231613438565b600083600001511480612248575060008260000151145b1561226457604051806020016040528060008152509050612682565b69d3c21bcecceda10000008260000151141561228257829050612682565b69d3c21bcecceda1000000836000015114156122a057819050612682565b600069d3c21bcecceda10000006122b685612ec0565b60000151816122c157fe5b04905060006122cf85612ef7565b600001519050600069d3c21bcecceda10000006122eb86612ec0565b60000151816122f657fe5b049050600061230486612ef7565b6000015190506000828502905060008514612398578285828161232357fe5b0414612397576040517f08c379a00000000000000000000000000000000000000000000000000000000081526004018080602001828103825260168152602001807f6f766572666c6f7720783179312064657465637465640000000000000000000081525060200191505060405180910390fd5b5b600069d3c21bcecceda1000000820290506000821461243a5769d3c21bcecceda10000008282816123c557fe5b0414612439576040517f08c379a000000000000000000000000000000000000000000000000000000000815260040180806020018281038252601f8152602001807f6f766572666c6f772078317931202a206669786564312064657465637465640081525060200191505060405180910390fd5b5b80915060008486029050600086146124cb578486828161245657fe5b04146124ca576040517f08c379a00000000000000000000000000000000000000000000000000000000081526004018080602001828103825260168152602001807f6f766572666c6f7720783279312064657465637465640000000000000000000081525060200191505060405180910390fd5b5b600084880290506000881461255957848882816124e457fe5b0414612558576040517f08c379a00000000000000000000000000000000000000000000000000000000081526004018080602001828103825260168152602001807f6f766572666c6f7720783179322064657465637465640000000000000000000081525060200191505060405180910390fd5b5b612561612f34565b878161256957fe5b049650612574612f34565b858161257c57fe5b049450600085880290506000881461260d578588828161259857fe5b041461260c576040517f08c379a00000000000000000000000000000000000000000000000000000000081526004018080602001828103825260168152602001807f6f766572666c6f7720783279322064657465637465640000000000000000000081525060200191505060405180910390fd5b5b612615613438565b604051806020016040528087815250905061263e81604051806020016040528087815250612d10565b905061265881604051806020016040528086815250612d10565b905061267281604051806020016040528085815250612d10565b9050809a50505050505050505050505b92915050565b600081600001519050919050565b60006126d883836040518060400160405280601a81526020017f536166654d6174683a206469766973696f6e206279207a65726f000000000000815250612f41565b905092915050565b6126e8613438565b6040518060200160405280838152509050919050565b60008160000151836000015110905092915050565b600080600160009054906101000a900473ffffffffffffffffffffffffffffffffffffffff1673ffffffffffffffffffffffffffffffffffffffff1663dcf0aaed60405160200180807f536f727465644f7261636c657300000000000000000000000000000000000000815250600d019050604051602081830303815290604052805190602001206040518263ffffffff1660e01b81526004018082815260200191505060206040518083038186803b1580156127cf57600080fd5b505afa1580156127e3573d6000803e3d6000fd5b505050506040513d60208110156127f957600080fd5b8101908080519060200190929190505050905060008173ffffffffffffffffffffffffffffffffffffffff1663ffe736bf600560009054906101000a900473ffffffffffffffffffffffffffffffffffffffff166040518263ffffffff1660e01b8152600401808273ffffffffffffffffffffffffffffffffffffffff1673ffffffffffffffffffffffffffffffffffffffff168152602001915050604080518083038186803b1580156128ac57600080fd5b505afa1580156128c0573d6000803e3d6000fd5b505050506040513d60408110156128d657600080fd5b810190808051906020019092919080519060200190929190505050509050600061290d600954600854611e7f90919063ffffffff16565b42101590506000600a548473ffffffffffffffffffffffffffffffffffffffff1663bbc66a94600560009054906101000a900473ffffffffffffffffffffffffffffffffffffffff166040518263ffffffff1660e01b8152600401808273ffffffffffffffffffffffffffffffffffffffff1673ffffffffffffffffffffffffffffffffffffffff16815260200191505060206040518083038186803b1580156129b657600080fd5b505afa1580156129ca573d6000803e3d6000fd5b505050506040513d60208110156129e057600080fd5b8101908080519060200190929190505050101590506000612a0c60095442611f0790919063ffffffff16565b8573ffffffffffffffffffffffffffffffffffffffff1663071b48fc600560009054906101000a900473ffffffffffffffffffffffffffffffffffffffff166040518263ffffffff1660e01b8152600401808273ffffffffffffffffffffffffffffffffffffffff1673ffffffffffffffffffffffffffffffffffffffff16815260200191505060206040518083038186803b158015612aab57600080fd5b505afa158015612abf573d6000803e3d6000fd5b505050506040513d6020811015612ad557600080fd5b8101908080519060200190929190505050119050828015612af35750815b8015612afc5750805b8015612b06575083155b9550505050505090565b6000806000612b1d613007565b9050600080612b2a6130d3565b80925081935050506000612b5982612b4b868661204c90919063ffffffff16565b61269690919063ffffffff16565b9050838195509550505050509091565b600073ffffffffffffffffffffffffffffffffffffffff168173ffffffffffffffffffffffffffffffffffffffff161415612bef576040517f08c379a000000000000000000000000000000000000000000000000000000000815260040180806020018281038252602681526020018061344c6026913960400191505060405180910390fd5b8073ffffffffffffffffffffffffffffffffffffffff16600060019054906101000a900473ffffffffffffffffffffffffffffffffffffffff1673ffffffffffffffffffffffffffffffffffffffff167f8be0079c531659141344cd1fd0a4f28419497f9722a3daafe3b4186f6b6457e060405160405180910390a380600060016101000a81548173ffffffffffffffffffffffffffffffffffffffff021916908373ffffffffffffffffffffffffffffffffffffffff16021790555050565b600033905090565b612cbf613438565b612d09612ccb836120d2565b612cfb6003604051806020016040529081600082015481525050612ced61215c565b61218290919063ffffffff16565b61222990919063ffffffff16565b9050919050565b612d18613438565b6000826000015184600001510190508360000151811015612da1576040517f08c379a00000000000000000000000000000000000000000000000000000000081526004018080602001828103825260158152602001807f616464206f766572666c6f77206465746563746564000000000000000000000081525060200191505060405180910390fd5b60405180602001604052808281525091505092915050565b6000808215612dd15760075460065491509150612ddc565b600654600754915091505b915091565b6000838311158290612e8e576040517f08c379a00000000000000000000000000000000000000000000000000000000081526004018080602001828103825283818151815260200191508051906020019080838360005b83811015612e53578082015181840152602081019050612e38565b50505050905090810190601f168015612e805780820380516001836020036101000a031916815260200191505b509250505060405180910390fd5b5060008385039050809150509392505050565b60007601357c299a88ea76a58924d52ce4f26a85af186c2b9e74905090565b612ec8613438565b604051806020016040528069d3c21bcecceda100000080856000015181612eeb57fe5b04028152509050919050565b612eff613438565b604051806020016040528069d3c21bcecceda100000080856000015181612f2257fe5b04028460000151038152509050919050565b600064e8d4a51000905090565b60008083118290612fed576040517f08c379a00000000000000000000000000000000000000000000000000000000081526004018080602001828103825283818151815260200191508051906020019080838360005b83811015612fb2578082015181840152602081019050612f97565b50505050905090810190601f168015612fdf5780820380516001836020036101000a031916815260200191505b509250505060405180910390fd5b506000838581612ff957fe5b049050809150509392505050565b60008061301261331c565b73ffffffffffffffffffffffffffffffffffffffff16638b7df8d46040518163ffffffff1660e01b815260040160206040518083038186803b15801561305757600080fd5b505afa15801561306b573d6000803e3d6000fd5b505050506040513d602081101561308157600080fd5b810190808051906020019092919050505090506130cd6130c86130a3836120d2565b600460405180602001604052908160008201548152505061222990919063ffffffff16565b613417565b91505090565b600080600080600160009054906101000a900473ffffffffffffffffffffffffffffffffffffffff1673ffffffffffffffffffffffffffffffffffffffff1663dcf0aaed60405160200180807f536f727465644f7261636c657300000000000000000000000000000000000000815250600d019050604051602081830303815290604052805190602001206040518263ffffffff1660e01b81526004018082815260200191505060206040518083038186803b15801561319257600080fd5b505afa1580156131a6573d6000803e3d6000fd5b505050506040513d60208110156131bc57600080fd5b810190808051906020019092919050505073ffffffffffffffffffffffffffffffffffffffff1663ef90e1b0600560009054906101000a900473ffffffffffffffffffffffffffffffffffffffff166040518263ffffffff1660e01b8152600401808273ffffffffffffffffffffffffffffffffffffffff1673ffffffffffffffffffffffffffffffffffffffff168152602001915050604080518083038186803b15801561326a57600080fd5b505afa15801561327e573d6000803e3d6000fd5b505050506040513d604081101561329457600080fd5b810190808051906020019092919080519060200190929190505050809250819350505060008111613310576040517f08c379a00000000000000000000000000000000000000000000000000000000081526004018080602001828103825260308152602001806135036030913960400191505060405180910390fd5b81819350935050509091565b6000600160009054906101000a900473ffffffffffffffffffffffffffffffffffffffff1673ffffffffffffffffffffffffffffffffffffffff1663dcf0aaed60405160200180807f52657365727665000000000000000000000000000000000000000000000000008152506007019050604051602081830303815290604052805190602001206040518263ffffffff1660e01b81526004018082815260200191505060206040518083038186803b1580156133d757600080fd5b505afa1580156133eb573d6000803e3d6000fd5b505050506040513d602081101561340157600080fd5b8101908080519060200190929190505050905090565b600069d3c21bcecceda100000082600001518161343057fe5b049050919050565b604051806020016040528060008152509056fe4f776e61626c653a206e6577206f776e657220697320746865207a65726f206164647265737343616c63756c6174656420627579416d6f756e7420776173206c657373207468616e20737065636966696564206d696e427579416d6f756e7463616e27742063616c6c207768656e20636f6e74726163742069732066726f7a656e63616e277420637265617465206669786964697479206e756d626572206c6172676572207468616e206d61784e65774669786564282965786368616e676520726174652064656e6f6d696e61746f72206d7573742062652067726561746572207468616e2030536166654d6174683a206d756c7469706c69636174696f6e206f766572666c6f7772657365727665206672616374696f6e206d75737420626520736d616c6c6572207468616e2031a165627a7a7230582060185ff2ff426c25d8de69ab1ea088f04086c9ef547d278836bed659e821016e0029",
  "source": "pragma solidity ^0.5.3;\n\nimport \"openzeppelin-solidity/contracts/math/SafeMath.sol\";\nimport \"openzeppelin-solidity/contracts/ownership/Ownable.sol\";\nimport \"./interfaces/IExchange.sol\";\nimport \"./interfaces/ISortedOracles.sol\";\nimport \"./interfaces/IReserve.sol\";\nimport \"./interfaces/IStableToken.sol\";\nimport \"../common/Initializable.sol\";\nimport \"../common/FixidityLib.sol\";\nimport \"../common/Freezable.sol\";\nimport \"../common/UsingRegistry.sol\";\nimport \"../common/libraries/ReentrancyGuard.sol\";\n\n/**\n * @title Contract that allows to exchange StableToken for GoldToken and vice versa\n * using a Constant Product Market Maker Model\n */\ncontract Exchange is IExchange, Initializable, Ownable, UsingRegistry, ReentrancyGuard, Freezable {\n  using SafeMath for uint256;\n  using FixidityLib for FixidityLib.Fraction;\n\n  event Exchanged(address indexed exchanger, uint256 sellAmount, uint256 buyAmount, bool soldGold);\n  event UpdateFrequencySet(uint256 updateFrequency);\n  event MinimumReportsSet(uint256 minimumReports);\n  event StableTokenSet(address indexed stable);\n  event SpreadSet(uint256 spread);\n  event ReserveFractionSet(uint256 reserveFraction);\n\n  FixidityLib.Fraction public spread;\n\n  // Fraction of the Reserve that is committed to the gold bucket when updating\n  // buckets.\n  FixidityLib.Fraction public reserveFraction;\n\n  address public stable;\n\n  // Size of the Uniswap gold bucket\n  uint256 public goldBucket;\n  // Size of the Uniswap stable token bucket\n  uint256 public stableBucket;\n\n  uint256 public lastBucketUpdate = 0;\n  uint256 public updateFrequency;\n  uint256 public minimumReports;\n\n  modifier updateBucketsIfNecessary() {\n    _updateBucketsIfNecessary();\n    _;\n  }\n\n  /**\n   * @notice Used in place of the constructor to allow the contract to be upgradable via proxy.\n   * @param registryAddress The address of the registry core smart contract.\n   * @param stableToken Address of the stable token\n   * @param _spread Spread charged on exchanges\n   * @param _reserveFraction Fraction to commit to the gold bucket\n   * @param _updateFrequency The time period that needs to elapse between bucket\n   * updates\n   * @param _minimumReports The minimum number of fresh reports that need to be\n   * present in the oracle to update buckets\n   * commit to the gold bucket\n   */\n  function initialize(\n    address registryAddress,\n    address stableToken,\n    uint256 _spread,\n    uint256 _reserveFraction,\n    uint256 _updateFrequency,\n    uint256 _minimumReports\n  ) external initializer {\n    _transferOwnership(msg.sender);\n    setRegistry(registryAddress);\n    setStableToken(stableToken);\n    setSpread(_spread);\n    setReserveFraction(_reserveFraction);\n    setUpdateFrequency(_updateFrequency);\n    setMinimumReports(_minimumReports);\n    _updateBucketsIfNecessary();\n  }\n\n  /**\n   * @dev Exchanges sellAmount of sellToken in exchange for at least minBuyAmount of buyToken\n   * Requires the sellAmount to have been approved to the exchange\n   * @param sellAmount The amount of sellToken the user is selling to the exchange\n   * @param minBuyAmount The minimum amount of buyToken the user has to receive for this\n   * transaction to succeed\n   * @param sellGold `true` if gold is the sell token\n   * @return The amount of buyToken that was transfered\n   * @dev This function can be frozen using the Freezable interface.\n   */\n  function exchange(uint256 sellAmount, uint256 minBuyAmount, bool sellGold)\n    external\n    onlyWhenNotFrozen\n    updateBucketsIfNecessary\n    nonReentrant\n    returns (uint256)\n  {\n    uint256 buyAmount = _getBuyTokenAmount(sellAmount, sellGold);\n\n    require(buyAmount >= minBuyAmount, \"Calculated buyAmount was less than specified minBuyAmount\");\n\n    IReserve reserve = IReserve(registry.getAddressForOrDie(RESERVE_REGISTRY_ID));\n\n    if (sellGold) {\n      goldBucket = goldBucket.add(sellAmount);\n      stableBucket = stableBucket.sub(buyAmount);\n      require(\n        getGoldToken().transferFrom(msg.sender, address(reserve), sellAmount),\n        \"Transfer of sell token failed\"\n      );\n      require(IStableToken(stable).mint(msg.sender, buyAmount), \"Mint of stable token failed\");\n    } else {\n      stableBucket = stableBucket.add(sellAmount);\n      goldBucket = goldBucket.sub(buyAmount);\n      require(\n        IERC20(stable).transferFrom(msg.sender, address(this), sellAmount),\n        \"Transfer of sell token failed\"\n      );\n      IStableToken(stable).burn(sellAmount);\n\n      require(reserve.transferExchangeGold(msg.sender, buyAmount), \"Transfer of buyToken failed\");\n    }\n\n    emit Exchanged(msg.sender, sellAmount, buyAmount, sellGold);\n    return buyAmount;\n  }\n\n  /**\n   * @dev Returns the amount of buyToken a user would get for sellAmount of sellToken\n   * @param sellAmount The amount of sellToken the user is selling to the exchange\n   * @param sellGold `true` if gold is the sell token\n   * @return The corresponding buyToken amount.\n   */\n  function getBuyTokenAmount(uint256 sellAmount, bool sellGold) external view returns (uint256) {\n    uint256 sellTokenBucket;\n    uint256 buyTokenBucket;\n    (buyTokenBucket, sellTokenBucket) = getBuyAndSellBuckets(sellGold);\n\n    FixidityLib.Fraction memory reducedSellAmount = getReducedSellAmount(sellAmount);\n    FixidityLib.Fraction memory numerator = reducedSellAmount.multiply(\n      FixidityLib.newFixed(buyTokenBucket)\n    );\n    FixidityLib.Fraction memory denominator = FixidityLib.newFixed(sellTokenBucket).add(\n      reducedSellAmount\n    );\n\n    // Can't use FixidityLib.divide because denominator can easily be greater\n    // than maxFixedDivisor.\n    // Fortunately, we expect an integer result, so integer division gives us as\n    // much precision as we could hope for.\n    return numerator.unwrap().div(denominator.unwrap());\n  }\n\n  /**\n   * @dev Returns the amount of sellToken a user would need to exchange to receive buyAmount of\n   * buyToken.\n   * @param buyAmount The amount of buyToken the user would like to purchase.\n   * @param sellGold `true` if gold is the sell token\n   * @return The corresponding sellToken amount.\n   */\n  function getSellTokenAmount(uint256 buyAmount, bool sellGold) external view returns (uint256) {\n    uint256 sellTokenBucket;\n    uint256 buyTokenBucket;\n    (buyTokenBucket, sellTokenBucket) = getBuyAndSellBuckets(sellGold);\n\n    FixidityLib.Fraction memory numerator = FixidityLib.newFixed(buyAmount.mul(sellTokenBucket));\n    FixidityLib.Fraction memory denominator = FixidityLib\n      .newFixed(buyTokenBucket.sub(buyAmount))\n      .multiply(FixidityLib.fixed1().subtract(spread));\n\n    // See comment in getBuyTokenAmount\n    return numerator.unwrap().div(denominator.unwrap());\n  }\n\n  /**\n   * @notice Returns the buy token and sell token bucket sizes, in order. The ratio of\n   * the two also represents the exchange rate between the two.\n   * @param sellGold `true` if gold is the sell token\n   * @return (buyTokenBucket, sellTokenBucket)\n   */\n  function getBuyAndSellBuckets(bool sellGold) public view returns (uint256, uint256) {\n    uint256 currentGoldBucket = goldBucket;\n    uint256 currentStableBucket = stableBucket;\n\n    if (shouldUpdateBuckets()) {\n      (currentGoldBucket, currentStableBucket) = getUpdatedBuckets();\n    }\n\n    if (sellGold) {\n      return (currentStableBucket, currentGoldBucket);\n    } else {\n      return (currentGoldBucket, currentStableBucket);\n    }\n  }\n\n  /**\n    * @notice Allows owner to set the update frequency\n    * @param newUpdateFrequency The new update frequency\n    */\n  function setUpdateFrequency(uint256 newUpdateFrequency) public onlyOwner {\n    updateFrequency = newUpdateFrequency;\n    emit UpdateFrequencySet(newUpdateFrequency);\n  }\n\n  /**\n    * @notice Allows owner to set the minimum number of reports required\n    * @param newMininumReports The new update minimum number of reports required\n    */\n  function setMinimumReports(uint256 newMininumReports) public onlyOwner {\n    minimumReports = newMininumReports;\n    emit MinimumReportsSet(newMininumReports);\n  }\n\n  /**\n    * @notice Allows owner to set the Stable Token address\n    * @param newStableToken The new address for Stable Token\n    */\n  function setStableToken(address newStableToken) public onlyOwner {\n    stable = newStableToken;\n    emit StableTokenSet(newStableToken);\n  }\n\n  /**\n    * @notice Allows owner to set the spread\n    * @param newSpread The new value for the spread\n    */\n  function setSpread(uint256 newSpread) public onlyOwner {\n    spread = FixidityLib.wrap(newSpread);\n    emit SpreadSet(newSpread);\n  }\n\n  /**\n    * @notice Allows owner to set the Reserve Fraction\n    * @param newReserveFraction The new value for the reserve fraction\n    */\n  function setReserveFraction(uint256 newReserveFraction) public onlyOwner {\n    reserveFraction = FixidityLib.wrap(newReserveFraction);\n    require(reserveFraction.lt(FixidityLib.fixed1()), \"reserve fraction must be smaller than 1\");\n    emit ReserveFractionSet(newReserveFraction);\n  }\n\n  /**\n   * @notice Returns the sell token and buy token bucket sizes, in order. The ratio of\n   * the two also represents the exchange rate between the two.\n   * @param sellGold `true` if gold is the sell token\n   * @return (sellTokenBucket, buyTokenBucket)\n   */\n  function _getBuyAndSellBuckets(bool sellGold) private view returns (uint256, uint256) {\n    if (sellGold) {\n      return (stableBucket, goldBucket);\n    } else {\n      return (goldBucket, stableBucket);\n    }\n  }\n\n  /**\n   * @dev Returns the amount of buyToken a user would get for sellAmount of sellToken\n   * @param sellAmount The amount of sellToken the user is selling to the exchange\n   * @param sellGold `true` if gold is the sell token\n   * @return The corresponding buyToken amount.\n   */\n  function _getBuyTokenAmount(uint256 sellAmount, bool sellGold) private view returns (uint256) {\n    uint256 sellTokenBucket;\n    uint256 buyTokenBucket;\n    (buyTokenBucket, sellTokenBucket) = _getBuyAndSellBuckets(sellGold);\n\n    FixidityLib.Fraction memory reducedSellAmount = getReducedSellAmount(sellAmount);\n    FixidityLib.Fraction memory numerator = reducedSellAmount.multiply(\n      FixidityLib.newFixed(buyTokenBucket)\n    );\n    FixidityLib.Fraction memory denominator = FixidityLib.newFixed(sellTokenBucket).add(\n      reducedSellAmount\n    );\n\n    // See comment in getBuyTokenAmount\n    return numerator.unwrap().div(denominator.unwrap());\n  }\n\n  function getUpdatedBuckets() private view returns (uint256, uint256) {\n    uint256 updatedGoldBucket = getUpdatedGoldBucket();\n    uint256 exchangeRateNumerator;\n    uint256 exchangeRateDenominator;\n    (exchangeRateNumerator, exchangeRateDenominator) = getOracleExchangeRate();\n    uint256 updatedStableBucket = exchangeRateNumerator.mul(updatedGoldBucket).div(\n      exchangeRateDenominator\n    );\n    return (updatedGoldBucket, updatedStableBucket);\n  }\n\n  function getUpdatedGoldBucket() private view returns (uint256) {\n    uint256 reserveGoldBalance = getReserve().getUnfrozenReserveGoldBalance();\n    return reserveFraction.multiply(FixidityLib.newFixed(reserveGoldBalance)).fromFixed();\n  }\n\n  /**\n   * @notice If conditions are met, updates the Uniswap bucket sizes to track\n   * the price reported by the Oracle.\n   */\n  function _updateBucketsIfNecessary() private {\n    if (shouldUpdateBuckets()) {\n      // solhint-disable-next-line not-rely-on-time\n      lastBucketUpdate = now;\n\n      (goldBucket, stableBucket) = getUpdatedBuckets();\n    }\n  }\n\n  /**\n   * @dev Calculates the sell amount reduced by the spread.\n   * @param sellAmount The original sell amount.\n   * @return The reduced sell amount, computed as (1 - spread) * sellAmount\n   */\n  function getReducedSellAmount(uint256 sellAmount)\n    private\n    view\n    returns (FixidityLib.Fraction memory)\n  {\n    return FixidityLib.fixed1().subtract(spread).multiply(FixidityLib.newFixed(sellAmount));\n  }\n\n  /*\n   * Checks conditions required for bucket updates.\n   * @return Whether or not buckets should be updated.\n   */\n  function shouldUpdateBuckets() private view returns (bool) {\n    ISortedOracles sortedOracles = ISortedOracles(\n      registry.getAddressForOrDie(SORTED_ORACLES_REGISTRY_ID)\n    );\n    (bool isReportExpired, ) = sortedOracles.isOldestReportExpired(stable);\n    // solhint-disable-next-line not-rely-on-time\n    bool timePassed = now >= lastBucketUpdate.add(updateFrequency);\n    bool enoughReports = sortedOracles.numRates(stable) >= minimumReports;\n    // solhint-disable-next-line not-rely-on-time\n    bool medianReportRecent = sortedOracles.medianTimestamp(stable) > now.sub(updateFrequency);\n    return timePassed && enoughReports && medianReportRecent && !isReportExpired;\n  }\n\n  function getOracleExchangeRate() private view returns (uint256, uint256) {\n    uint256 rateNumerator;\n    uint256 rateDenominator;\n    (rateNumerator, rateDenominator) = ISortedOracles(\n      registry.getAddressForOrDie(SORTED_ORACLES_REGISTRY_ID)\n    )\n      .medianRate(stable);\n    require(rateDenominator > 0, \"exchange rate denominator must be greater than 0\");\n    return (rateNumerator, rateDenominator);\n  }\n}\n",
  "sourcePath": "/Users/cmcewen/celo/celo-monorepo/packages/protocol/contracts/stability/Exchange.sol",
  "compiler": {
    "name": "solc",
    "version": "0.5.8+commit.23d335f2.Emscripten.clang"
  },
  "schemaVersion": "3.0.10",
  "updatedAt": "2020-04-09T23:47:18.056Z",
  "devdoc": {
    "methods": {
      "exchange(uint256,uint256,bool)": {
        "details": "Exchanges sellAmount of sellToken in exchange for at least minBuyAmount of buyToken Requires the sellAmount to have been approved to the exchangeThis function can be frozen using the Freezable interface.",
        "params": {
          "minBuyAmount": "The minimum amount of buyToken the user has to receive for this transaction to succeed",
          "sellAmount": "The amount of sellToken the user is selling to the exchange",
          "sellGold": "`true` if gold is the sell token"
        },
        "return": "The amount of buyToken that was transfered"
      },
      "getBuyAndSellBuckets(bool)": {
        "params": {
          "sellGold": "`true` if gold is the sell token"
        },
        "return": "(buyTokenBucket, sellTokenBucket)"
      },
      "getBuyTokenAmount(uint256,bool)": {
        "details": "Returns the amount of buyToken a user would get for sellAmount of sellToken",
        "params": {
          "sellAmount": "The amount of sellToken the user is selling to the exchange",
          "sellGold": "`true` if gold is the sell token"
        },
        "return": "The corresponding buyToken amount."
      },
      "getSellTokenAmount(uint256,bool)": {
        "details": "Returns the amount of sellToken a user would need to exchange to receive buyAmount of buyToken.",
        "params": {
          "buyAmount": "The amount of buyToken the user would like to purchase.",
          "sellGold": "`true` if gold is the sell token"
        },
        "return": "The corresponding sellToken amount."
      },
      "initialize(address,address,uint256,uint256,uint256,uint256)": {
        "params": {
          "_minimumReports": "The minimum number of fresh reports that need to be present in the oracle to update buckets commit to the gold bucket",
          "_reserveFraction": "Fraction to commit to the gold bucket",
          "_spread": "Spread charged on exchanges",
          "_updateFrequency": "The time period that needs to elapse between bucket updates",
          "registryAddress": "The address of the registry core smart contract.",
          "stableToken": "Address of the stable token"
        }
      },
      "isOwner()": {
        "details": "Returns true if the caller is the current owner."
      },
      "owner()": {
        "details": "Returns the address of the current owner."
      },
      "renounceOwnership()": {
        "details": "Leaves the contract without owner. It will not be possible to call `onlyOwner` functions anymore. Can only be called by the current owner.     * NOTE: Renouncing ownership will leave the contract without an owner, thereby removing any functionality that is only available to the owner."
      },
      "setMinimumReports(uint256)": {
        "params": {
          "newMininumReports": "The new update minimum number of reports required"
        }
      },
      "setRegistry(address)": {
        "params": {
          "registryAddress": "The address of a registry contract for routing to other contracts."
        }
      },
      "setReserveFraction(uint256)": {
        "params": {
          "newReserveFraction": "The new value for the reserve fraction"
        }
      },
      "setSpread(uint256)": {
        "params": {
          "newSpread": "The new value for the spread"
        }
      },
      "setStableToken(address)": {
        "params": {
          "newStableToken": "The new address for Stable Token"
        }
      },
      "setUpdateFrequency(uint256)": {
        "params": {
          "newUpdateFrequency": "The new update frequency"
        }
      },
      "transferOwnership(address)": {
        "details": "Transfers ownership of the contract to a new account (`newOwner`). Can only be called by the current owner."
      }
    },
    "title": "Contract that allows to exchange StableToken for GoldToken and vice versa using a Constant Product Market Maker Model"
  },
  "userdoc": {
    "methods": {
      "getBuyAndSellBuckets(bool)": {
        "notice": "Returns the buy token and sell token bucket sizes, in order. The ratio of the two also represents the exchange rate between the two."
      },
      "initialize(address,address,uint256,uint256,uint256,uint256)": {
        "notice": "Used in place of the constructor to allow the contract to be upgradable via proxy."
      },
      "setMinimumReports(uint256)": {
        "notice": "Allows owner to set the minimum number of reports required"
      },
      "setRegistry(address)": {
        "notice": "Updates the address pointing to a Registry contract."
      },
      "setReserveFraction(uint256)": {
        "notice": "Allows owner to set the Reserve Fraction"
      },
      "setSpread(uint256)": {
        "notice": "Allows owner to set the spread"
      },
      "setStableToken(address)": {
        "notice": "Allows owner to set the Stable Token address"
      },
      "setUpdateFrequency(uint256)": {
        "notice": "Allows owner to set the update frequency"
      }
    }
  }
}