{
  "contractName": "FreezableTest",
  "abi": [
    {
      "constant": true,
      "inputs": [],
      "name": "frozen",
      "outputs": [
        {
          "name": "",
          "type": "bool"
        }
      ],
      "payable": false,
      "stateMutability": "view",
      "type": "function"
    },
    {
      "constant": false,
      "inputs": [],
      "name": "freeze",
      "outputs": [],
      "payable": false,
      "stateMutability": "nonpayable",
      "type": "function"
    },
    {
      "constant": false,
      "inputs": [],
      "name": "unfreeze",
      "outputs": [],
      "payable": false,
      "stateMutability": "nonpayable",
      "type": "function"
    },
    {
      "constant": true,
      "inputs": [],
      "name": "freezer",
      "outputs": [
        {
          "name": "",
          "type": "address"
        }
      ],
      "payable": false,
      "stateMutability": "view",
      "type": "function"
    },
    {
      "anonymous": false,
      "inputs": [],
      "name": "FunctionCalled",
      "type": "event"
    },
    {
      "constant": false,
      "inputs": [
        {
          "name": "_freezer",
          "type": "address"
        }
      ],
      "name": "setFreezer",
      "outputs": [],
      "payable": false,
      "stateMutability": "nonpayable",
      "type": "function"
    },
    {
      "constant": false,
      "inputs": [],
      "name": "freezableFunction",
      "outputs": [],
      "payable": false,
      "stateMutability": "nonpayable",
      "type": "function"
    },
    {
      "constant": false,
      "inputs": [],
      "name": "nonfreezableFunction",
      "outputs": [],
      "payable": false,
      "stateMutability": "nonpayable",
      "type": "function"
    }
  ],
  "bytecode": "0x608060405234801561001057600080fd5b5061036f806100206000396000f3fe608060405234801561001057600080fd5b506004361061007d5760003560e01c80636a28f0001161005b5780636a28f000146100f25780636fd56815146100fc5780639271605414610106578063f0381d3d146101505761007d565b8063054f7d9c146100825780632c341fe7146100a457806362a5af3b146100e8575b600080fd5b61008a61015a565b604051808215151515815260200191505060405180910390f35b6100e6600480360360208110156100ba57600080fd5b81019080803573ffffffffffffffffffffffffffffffffffffffff16906020019092919050505061016c565b005b6100f0610178565b005b6100fa6101ee565b005b610104610264565b005b61010e610292565b604051808273ffffffffffffffffffffffffffffffffffffffff1673ffffffffffffffffffffffffffffffffffffffff16815260200191505060405180910390f35b6101586102b8565b005b6000809054906101000a900460ff1681565b610175816102ff565b50565b600060019054906101000a900473ffffffffffffffffffffffffffffffffffffffff1673ffffffffffffffffffffffffffffffffffffffff163373ffffffffffffffffffffffffffffffffffffffff16146101d257600080fd5b60016000806101000a81548160ff021916908315150217905550565b600060019054906101000a900473ffffffffffffffffffffffffffffffffffffffff1673ffffffffffffffffffffffffffffffffffffffff163373ffffffffffffffffffffffffffffffffffffffff161461024857600080fd5b60008060006101000a81548160ff021916908315150217905550565b7f3ebdf1cfe932823c4888b6ad06dae0bd60eb7663bbf10421364531fa2202e0dc60405160405180910390a1565b600060019054906101000a900473ffffffffffffffffffffffffffffffffffffffff1681565b6000809054906101000a900460ff16156102d157600080fd5b7f3ebdf1cfe932823c4888b6ad06dae0bd60eb7663bbf10421364531fa2202e0dc60405160405180910390a1565b80600060016101000a81548173ffffffffffffffffffffffffffffffffffffffff021916908373ffffffffffffffffffffffffffffffffffffffff1602179055505056fea165627a7a723058202a9fe1db7491afe305f516af10f5accbcbb9f1dbbc9f353a3e22d4627aca2b310029",
  "source": "pragma solidity ^0.5.8;\n\nimport \"../Freezable.sol\";\n\ncontract FreezableTest is Freezable {\n  event FunctionCalled();\n\n  function setFreezer(address _freezer) external {\n    _setFreezer(_freezer);\n  }\n\n  function freezableFunction() external onlyWhenNotFrozen {\n    emit FunctionCalled();\n  }\n\n  function nonfreezableFunction() external {\n    emit FunctionCalled();\n  }\n}\n",
  "sourcePath": "/Users/cmcewen/celo/celo-monorepo/packages/protocol/contracts/baklava/test/FreezableTest.sol",
  "compiler": {
    "name": "solc",
    "version": "0.5.8+commit.23d335f2.Emscripten.clang"
  },
  "schemaVersion": "3.0.10",
  "updatedAt": "2020-01-28T00:23:21.882Z",
  "devdoc": {
    "methods": {}
  },
  "userdoc": {
    "methods": {
      "freeze()": {
        "notice": "Freezes the contract, disabling `onlyWhenNotFrozen` functions."
      },
      "unfreeze()": {
        "notice": "Unreezes the contract, enabling `onlyWhenNotFrozen` functions."
      }
    }
  }
}