{
  "contractName": "GasPriceMinimum",
  "abi": [
    {
      "constant": true,
      "inputs": [],
      "name": "initialized",
      "outputs": [
        {
          "name": "",
          "type": "bool"
        }
      ],
      "payable": false,
      "stateMutability": "view",
      "type": "function"
    },
    {
      "constant": true,
      "inputs": [],
      "name": "gasPriceMinimum",
      "outputs": [
        {
          "name": "",
          "type": "uint256"
        }
      ],
      "payable": false,
      "stateMutability": "view",
      "type": "function"
    },
    {
      "constant": true,
      "inputs": [],
      "name": "targetDensity",
      "outputs": [
        {
          "name": "value",
          "type": "uint256"
        }
      ],
      "payable": false,
      "stateMutability": "view",
      "type": "function"
    },
    {
      "constant": false,
      "inputs": [],
      "name": "renounceOwnership",
      "outputs": [],
      "payable": false,
      "stateMutability": "nonpayable",
      "type": "function"
    },
    {
      "constant": true,
      "inputs": [],
      "name": "registry",
      "outputs": [
        {
          "name": "",
          "type": "address"
        }
      ],
      "payable": false,
      "stateMutability": "view",
      "type": "function"
    },
    {
      "constant": true,
      "inputs": [],
      "name": "owner",
      "outputs": [
        {
          "name": "",
          "type": "address"
        }
      ],
      "payable": false,
      "stateMutability": "view",
      "type": "function"
    },
    {
      "constant": true,
      "inputs": [],
      "name": "isOwner",
      "outputs": [
        {
          "name": "",
          "type": "bool"
        }
      ],
      "payable": false,
      "stateMutability": "view",
      "type": "function"
    },
    {
      "constant": true,
      "inputs": [],
      "name": "adjustmentSpeed",
      "outputs": [
        {
          "name": "value",
          "type": "uint256"
        }
      ],
      "payable": false,
      "stateMutability": "view",
      "type": "function"
    },
    {
      "constant": false,
      "inputs": [
        {
          "name": "registryAddress",
          "type": "address"
        }
      ],
      "name": "setRegistry",
      "outputs": [],
      "payable": false,
      "stateMutability": "nonpayable",
      "type": "function"
    },
    {
      "constant": true,
      "inputs": [],
      "name": "gasPriceMinimumFloor",
      "outputs": [
        {
          "name": "",
          "type": "uint256"
        }
      ],
      "payable": false,
      "stateMutability": "view",
      "type": "function"
    },
    {
      "constant": false,
      "inputs": [
        {
          "name": "newOwner",
          "type": "address"
        }
      ],
      "name": "transferOwnership",
      "outputs": [],
      "payable": false,
      "stateMutability": "nonpayable",
      "type": "function"
    },
    {
      "anonymous": false,
      "inputs": [
        {
          "indexed": false,
          "name": "targetDensity",
          "type": "uint256"
        }
      ],
      "name": "TargetDensitySet",
      "type": "event"
    },
    {
      "anonymous": false,
      "inputs": [
        {
          "indexed": false,
          "name": "gasPriceMinimumFloor",
          "type": "uint256"
        }
      ],
      "name": "GasPriceMinimumFloorSet",
      "type": "event"
    },
    {
      "anonymous": false,
      "inputs": [
        {
          "indexed": false,
          "name": "adjustmentSpeed",
          "type": "uint256"
        }
      ],
      "name": "AdjustmentSpeedSet",
      "type": "event"
    },
    {
      "anonymous": false,
      "inputs": [
        {
          "indexed": false,
          "name": "gasPriceMinimum",
          "type": "uint256"
        }
      ],
      "name": "GasPriceMinimumUpdated",
      "type": "event"
    },
    {
      "anonymous": false,
      "inputs": [
        {
          "indexed": true,
          "name": "registryAddress",
          "type": "address"
        }
      ],
      "name": "RegistrySet",
      "type": "event"
    },
    {
      "anonymous": false,
      "inputs": [
        {
          "indexed": true,
          "name": "previousOwner",
          "type": "address"
        },
        {
          "indexed": true,
          "name": "newOwner",
          "type": "address"
        }
      ],
      "name": "OwnershipTransferred",
      "type": "event"
    },
    {
      "constant": false,
      "inputs": [
        {
          "name": "_registryAddress",
          "type": "address"
        },
        {
          "name": "_gasPriceMinimumFloor",
          "type": "uint256"
        },
        {
          "name": "_targetDensity",
          "type": "uint256"
        },
        {
          "name": "_adjustmentSpeed",
          "type": "uint256"
        }
      ],
      "name": "initialize",
      "outputs": [],
      "payable": false,
      "stateMutability": "nonpayable",
      "type": "function"
    },
    {
      "constant": false,
      "inputs": [
        {
          "name": "_adjustmentSpeed",
          "type": "uint256"
        }
      ],
      "name": "setAdjustmentSpeed",
      "outputs": [],
      "payable": false,
      "stateMutability": "nonpayable",
      "type": "function"
    },
    {
      "constant": false,
      "inputs": [
        {
          "name": "_targetDensity",
          "type": "uint256"
        }
      ],
      "name": "setTargetDensity",
      "outputs": [],
      "payable": false,
      "stateMutability": "nonpayable",
      "type": "function"
    },
    {
      "constant": false,
      "inputs": [
        {
          "name": "_gasPriceMinimumFloor",
          "type": "uint256"
        }
      ],
      "name": "setGasPriceMinimumFloor",
      "outputs": [],
      "payable": false,
      "stateMutability": "nonpayable",
      "type": "function"
    },
    {
      "constant": true,
      "inputs": [
        {
          "name": "tokenAddress",
          "type": "address"
        }
      ],
      "name": "getGasPriceMinimum",
      "outputs": [
        {
          "name": "",
          "type": "uint256"
        }
      ],
      "payable": false,
      "stateMutability": "view",
      "type": "function"
    },
    {
      "constant": false,
      "inputs": [
        {
          "name": "blockGasTotal",
          "type": "uint256"
        },
        {
          "name": "blockGasLimit",
          "type": "uint256"
        }
      ],
      "name": "updateGasPriceMinimum",
      "outputs": [
        {
          "name": "",
          "type": "uint256"
        }
      ],
      "payable": false,
      "stateMutability": "nonpayable",
      "type": "function"
    },
    {
      "constant": true,
      "inputs": [
        {
          "name": "blockGasTotal",
          "type": "uint256"
        },
        {
          "name": "blockGasLimit",
          "type": "uint256"
        }
      ],
      "name": "getUpdatedGasPriceMinimum",
      "outputs": [
        {
          "name": "",
          "type": "uint256"
        }
      ],
      "payable": false,
      "stateMutability": "view",
      "type": "function"
    }
  ],
  "bytecode": "0x608060405260006100146100b760201b60201c565b9050806000806101000a81548173ffffffffffffffffffffffffffffffffffffffff021916908373ffffffffffffffffffffffffffffffffffffffff1602179055508073ffffffffffffffffffffffffffffffffffffffff16600073ffffffffffffffffffffffffffffffffffffffff167f8be0079c531659141344cd1fd0a4f28419497f9722a3daafe3b4186f6b6457e060405160405180910390a3506100bf565b600033905090565b6120b8806100ce6000396000f3fe608060405234801561001057600080fd5b50600436106101165760003560e01c806393ca6fc4116100a2578063b830f4a411610071578063b830f4a4146103b1578063c12398b4146103df578063ceff0bd61461042b578063ef712c5b14610449578063f2fde38b1461049557610116565b806393ca6fc4146102c9578063a54b7fc0146102f7578063a68f548e1461034f578063a91ee0dc1461036d57610116565b80634ec81af1116100e95780634ec81af1146101a7578063715018a6146102095780637b103999146102135780638da5cb5b1461025d5780638f32d59b146102a757610116565b8063158ef93e1461011b57806330f726b91461013d57806336945c2d1461016b5780634a3d5fe214610189575b600080fd5b6101236104d9565b604051808215151515815260200191505060405180910390f35b6101696004803603602081101561015357600080fd5b81019080803590602001909291905050506104ec565b005b61017361063d565b6040518082815260200191505060405180910390f35b610191610643565b6040518082815260200191505060405180910390f35b610207600480360360808110156101bd57600080fd5b81019080803573ffffffffffffffffffffffffffffffffffffffff16906020019092919080359060200190929190803590602001909291908035906020019092919050505061064f565b005b610211610727565b005b61021b610860565b604051808273ffffffffffffffffffffffffffffffffffffffff1673ffffffffffffffffffffffffffffffffffffffff16815260200191505060405180910390f35b610265610886565b604051808273ffffffffffffffffffffffffffffffffffffffff1673ffffffffffffffffffffffffffffffffffffffff16815260200191505060405180910390f35b6102af6108af565b604051808215151515815260200191505060405180910390f35b6102f5600480360360208110156102df57600080fd5b810190808035906020019092919050505061090d565b005b6103396004803603602081101561030d57600080fd5b81019080803573ffffffffffffffffffffffffffffffffffffffff169060200190929190505050610a5e565b6040518082815260200191505060405180910390f35b610357610dbd565b6040518082815260200191505060405180910390f35b6103af6004803603602081101561038357600080fd5b81019080803573ffffffffffffffffffffffffffffffffffffffff169060200190929190505050610dc9565b005b6103dd600480360360208110156103c757600080fd5b8101908080359060200190929190505050610f6d565b005b610415600480360360408110156103f557600080fd5b810190808035906020019092919080359060200190929190505050611081565b6040518082815260200191505060405180910390f35b610433611178565b6040518082815260200191505060405180910390f35b61047f6004803603604081101561045f57600080fd5b81019080803590602001909291908035906020019092919050505061117e565b6040518082815260200191505060405180910390f35b6104d7600480360360208110156104ab57600080fd5b81019080803573ffffffffffffffffffffffffffffffffffffffff169060200190929190505050611324565b005b600060149054906101000a900460ff1681565b6104f46108af565b610566576040517f08c379a00000000000000000000000000000000000000000000000000000000081526004018080602001828103825260208152602001807f4f776e61626c653a2063616c6c6572206973206e6f7420746865206f776e657281525060200191505060405180910390fd5b61056f816113aa565b6005600082015181600001559050506105ae6105896113c8565b60056040518060200160405290816000820154815250506113ee90919063ffffffff16565b610603576040517f08c379a0000000000000000000000000000000000000000000000000000000008152600401808060200182810382526027815260200180611f936027913960400191505060405180910390fd5b7fd2e71cd7012df1df07d4908ff75ae4b2bfbb6c49d39144404661f1fd47253283816040518082815260200191505060405180910390a150565b60025481565b60048060000154905081565b600060149054906101000a900460ff16156106d2576040517f08c379a000000000000000000000000000000000000000000000000000000000815260040180806020018281038252601c8152602001807f636f6e747261637420616c726561647920696e697469616c697a65640000000081525060200191505060405180910390fd5b6001600060146101000a81548160ff0219169083151502179055506106f633611403565b6106ff84610dc9565b8260028190555061070f83610f6d565b6107188261090d565b610721816104ec565b50505050565b61072f6108af565b6107a1576040517f08c379a00000000000000000000000000000000000000000000000000000000081526004018080602001828103825260208152602001807f4f776e61626c653a2063616c6c6572206973206e6f7420746865206f776e657281525060200191505060405180910390fd5b600073ffffffffffffffffffffffffffffffffffffffff166000809054906101000a900473ffffffffffffffffffffffffffffffffffffffff1673ffffffffffffffffffffffffffffffffffffffff167f8be0079c531659141344cd1fd0a4f28419497f9722a3daafe3b4186f6b6457e060405160405180910390a360008060006101000a81548173ffffffffffffffffffffffffffffffffffffffff021916908373ffffffffffffffffffffffffffffffffffffffff160217905550565b600160009054906101000a900473ffffffffffffffffffffffffffffffffffffffff1681565b60008060009054906101000a900473ffffffffffffffffffffffffffffffffffffffff16905090565b60008060009054906101000a900473ffffffffffffffffffffffffffffffffffffffff1673ffffffffffffffffffffffffffffffffffffffff166108f1611547565b73ffffffffffffffffffffffffffffffffffffffff1614905090565b6109156108af565b610987576040517f08c379a00000000000000000000000000000000000000000000000000000000081526004018080602001828103825260208152602001807f4f776e61626c653a2063616c6c6572206973206e6f7420746865206f776e657281525060200191505060405180910390fd5b610990816113aa565b6004600082015181600001559050506109cf6109aa6113c8565b60046040518060200160405290816000820154815250506113ee90919063ffffffff16565b610a24576040517f08c379a00000000000000000000000000000000000000000000000000000000081526004018080602001828103825260258152602001806120686025913960400191505060405180910390fd5b7f2a109bad06121312708ed2a3e9b3556ea85ef8eadd4d10d8181f50d114eb4fab816040518082815260200191505060405180910390a150565b60008073ffffffffffffffffffffffffffffffffffffffff168273ffffffffffffffffffffffffffffffffffffffff161480610bb85750600160009054906101000a900473ffffffffffffffffffffffffffffffffffffffff1673ffffffffffffffffffffffffffffffffffffffff1663dcf0aaed60405160200180807f476f6c64546f6b656e00000000000000000000000000000000000000000000008152506009019050604051602081830303815290604052805190602001206040518263ffffffff1660e01b81526004018082815260200191505060206040518083038186803b158015610b4e57600080fd5b505afa158015610b62573d6000803e3d6000fd5b505050506040513d6020811015610b7857600080fd5b810190808051906020019092919050505073ffffffffffffffffffffffffffffffffffffffff168273ffffffffffffffffffffffffffffffffffffffff16145b15610bc7576002549050610db8565b6000600160009054906101000a900473ffffffffffffffffffffffffffffffffffffffff1673ffffffffffffffffffffffffffffffffffffffff1663dcf0aaed60405160200180807f536f727465644f7261636c657300000000000000000000000000000000000000815250600d019050604051602081830303815290604052805190602001206040518263ffffffff1660e01b81526004018082815260200191505060206040518083038186803b158015610c8257600080fd5b505afa158015610c96573d6000803e3d6000fd5b505050506040513d6020811015610cac57600080fd5b810190808051906020019092919050505090506000808273ffffffffffffffffffffffffffffffffffffffff1663ef90e1b0866040518263ffffffff1660e01b8152600401808273ffffffffffffffffffffffffffffffffffffffff1673ffffffffffffffffffffffffffffffffffffffff168152602001915050604080518083038186803b158015610d3e57600080fd5b505afa158015610d52573d6000803e3d6000fd5b505050506040513d6040811015610d6857600080fd5b8101908080519060200190929190805190602001909291905050508092508193505050610db281610da48460025461154f90919063ffffffff16565b6115d590919063ffffffff16565b93505050505b919050565b60058060000154905081565b610dd16108af565b610e43576040517f08c379a00000000000000000000000000000000000000000000000000000000081526004018080602001828103825260208152602001807f4f776e61626c653a2063616c6c6572206973206e6f7420746865206f776e657281525060200191505060405180910390fd5b600073ffffffffffffffffffffffffffffffffffffffff168173ffffffffffffffffffffffffffffffffffffffff161415610ee6576040517f08c379a00000000000000000000000000000000000000000000000000000000081526004018080602001828103825260208152602001807f43616e6e6f7420726567697374657220746865206e756c6c206164647265737381525060200191505060405180910390fd5b80600160006101000a81548173ffffffffffffffffffffffffffffffffffffffff021916908373ffffffffffffffffffffffffffffffffffffffff1602179055508073ffffffffffffffffffffffffffffffffffffffff167f27fe5f0c1c3b1ed427cc63d0f05759ffdecf9aec9e18d31ef366fc8a6cb5dc3b60405160405180910390a250565b610f756108af565b610fe7576040517f08c379a00000000000000000000000000000000000000000000000000000000081526004018080602001828103825260208152602001807f4f776e61626c653a2063616c6c6572206973206e6f7420746865206f776e657281525060200191505060405180910390fd5b60008111611040576040517f08c379a00000000000000000000000000000000000000000000000000000000081526004018080602001828103825260318152602001806120166031913960400191505060405180910390fd5b806003819055507f5548a13ccc1d9e4e2860461edda5ad49ba8a4fda485f67d954f9d7da8d2aff27816040518082815260200191505060405180910390a150565b60008073ffffffffffffffffffffffffffffffffffffffff163373ffffffffffffffffffffffffffffffffffffffff1614611124576040517f08c379a00000000000000000000000000000000000000000000000000000000081526004018080602001828103825260108152602001807f4f6e6c7920564d2063616e2063616c6c0000000000000000000000000000000081525060200191505060405180910390fd5b61112e838361117e565b6002819055507f6e53b2f8b69496c2a175588ad1326dbabe2f66df4d82f817aeca52e3474807fb6002546040518082815260200191505060405180910390a1600254905092915050565b60035481565b6000611188611f7f565b611192848461161f565b905060006111bf60046040518060200160405290816000820154815250508361166190919063ffffffff16565b90506111c9611f7f565b816111fc576111f783600460405180602001604052908160008201548152505061167690919063ffffffff16565b611226565b61122560046040518060200160405290816000820154815250508461167690919063ffffffff16565b5b9050611230611f7f565b8261127c5761127761126183600560405180602001604052908160008201548152505061171d90919063ffffffff16565b6112696113c8565b61167690919063ffffffff16565b6112bf565b6112be6112a883600560405180602001604052908160008201548152505061171d90919063ffffffff16565b6112b06113c8565b611b7c90919063ffffffff16565b5b905060006113016112fc6112d16113c8565b6112ee6112df600254611c25565b8661171d90919063ffffffff16565b611b7c90919063ffffffff16565b611caf565b905060035481101561131557600354611317565b805b9550505050505092915050565b61132c6108af565b61139e576040517f08c379a00000000000000000000000000000000000000000000000000000000081526004018080602001828103825260208152602001807f4f776e61626c653a2063616c6c6572206973206e6f7420746865206f776e657281525060200191505060405180910390fd5b6113a781611403565b50565b6113b2611f7f565b6040518060200160405280838152509050919050565b6113d0611f7f565b604051806020016040528069d3c21bcecceda1000000815250905090565b60008160000151836000015110905092915050565b600073ffffffffffffffffffffffffffffffffffffffff168173ffffffffffffffffffffffffffffffffffffffff161415611489576040517f08c379a0000000000000000000000000000000000000000000000000000000008152600401808060200182810382526026815260200180611fba6026913960400191505060405180910390fd5b8073ffffffffffffffffffffffffffffffffffffffff166000809054906101000a900473ffffffffffffffffffffffffffffffffffffffff1673ffffffffffffffffffffffffffffffffffffffff167f8be0079c531659141344cd1fd0a4f28419497f9722a3daafe3b4186f6b6457e060405160405180910390a3806000806101000a81548173ffffffffffffffffffffffffffffffffffffffff021916908373ffffffffffffffffffffffffffffffffffffffff16021790555050565b600033905090565b60008083141561156257600090506115cf565b600082840290508284828161157357fe5b04146115ca576040517f08c379a00000000000000000000000000000000000000000000000000000000081526004018080602001828103825260218152602001806120476021913960400191505060405180910390fd5b809150505b92915050565b600061161783836040518060400160405280601a81526020017f536166654d6174683a206469766973696f6e206279207a65726f000000000000815250611cd0565b905092915050565b611627611f7f565b61162f611f7f565b61163884611c25565b9050611642611f7f565b61164b84611c25565b90506116578282611d96565b9250505092915050565b60008160000151836000015111905092915050565b61167e611f7f565b8160000151836000015110156116fc576040517f08c379a000000000000000000000000000000000000000000000000000000000815260040180806020018281038252601f8152602001807f737562737472616374696f6e20756e646572666c6f772064657465637465640081525060200191505060405180910390fd5b60405180602001604052808360000151856000015103815250905092915050565b611725611f7f565b60008360000151148061173c575060008260000151145b1561175857604051806020016040528060008152509050611b76565b69d3c21bcecceda10000008260000151141561177657829050611b76565b69d3c21bcecceda10000008360000151141561179457819050611b76565b600069d3c21bcecceda10000006117aa85611edf565b60000151816117b557fe5b04905060006117c385611f16565b600001519050600069d3c21bcecceda10000006117df86611edf565b60000151816117ea57fe5b04905060006117f886611f16565b600001519050600082850290506000851461188c578285828161181757fe5b041461188b576040517f08c379a00000000000000000000000000000000000000000000000000000000081526004018080602001828103825260168152602001807f6f766572666c6f7720783179312064657465637465640000000000000000000081525060200191505060405180910390fd5b5b600069d3c21bcecceda1000000820290506000821461192e5769d3c21bcecceda10000008282816118b957fe5b041461192d576040517f08c379a000000000000000000000000000000000000000000000000000000000815260040180806020018281038252601f8152602001807f6f766572666c6f772078317931202a206669786564312064657465637465640081525060200191505060405180910390fd5b5b80915060008486029050600086146119bf578486828161194a57fe5b04146119be576040517f08c379a00000000000000000000000000000000000000000000000000000000081526004018080602001828103825260168152602001807f6f766572666c6f7720783279312064657465637465640000000000000000000081525060200191505060405180910390fd5b5b6000848802905060008814611a4d57848882816119d857fe5b0414611a4c576040517f08c379a00000000000000000000000000000000000000000000000000000000081526004018080602001828103825260168152602001807f6f766572666c6f7720783179322064657465637465640000000000000000000081525060200191505060405180910390fd5b5b611a55611f53565b8781611a5d57fe5b049650611a68611f53565b8581611a7057fe5b0494506000858802905060008814611b015785888281611a8c57fe5b0414611b00576040517f08c379a00000000000000000000000000000000000000000000000000000000081526004018080602001828103825260168152602001807f6f766572666c6f7720783279322064657465637465640000000000000000000081525060200191505060405180910390fd5b5b611b09611f7f565b6040518060200160405280878152509050611b3281604051806020016040528087815250611b7c565b9050611b4c81604051806020016040528086815250611b7c565b9050611b6681604051806020016040528085815250611b7c565b9050809a50505050505050505050505b92915050565b611b84611f7f565b6000826000015184600001510190508360000151811015611c0d576040517f08c379a00000000000000000000000000000000000000000000000000000000081526004018080602001828103825260158152602001807f616464206f766572666c6f77206465746563746564000000000000000000000081525060200191505060405180910390fd5b60405180602001604052808281525091505092915050565b611c2d611f7f565b611c35611f60565b821115611c8d576040517f08c379a0000000000000000000000000000000000000000000000000000000008152600401808060200182810382526036815260200180611fe06036913960400191505060405180910390fd5b604051806020016040528069d3c21bcecceda100000084028152509050919050565b600069d3c21bcecceda1000000826000015181611cc857fe5b049050919050565b60008083118290611d7c576040517f08c379a00000000000000000000000000000000000000000000000000000000081526004018080602001828103825283818151815260200191508051906020019080838360005b83811015611d41578082015181840152602081019050611d26565b50505050905090810190601f168015611d6e5780820380516001836020036101000a031916815260200191505b509250505060405180910390fd5b506000838581611d8857fe5b049050809150509392505050565b611d9e611f7f565b600082600001511415611e19576040517f08c379a00000000000000000000000000000000000000000000000000000000081526004018080602001828103825260118152602001807f63616e277420646976696465206279203000000000000000000000000000000081525060200191505060405180910390fd5b600069d3c21bcecceda10000008460000151029050836000015169d3c21bcecceda10000008281611e4657fe5b0414611eba576040517f08c379a00000000000000000000000000000000000000000000000000000000081526004018080602001828103825260128152602001807f6f766572666c6f7720617420646976696465000000000000000000000000000081525060200191505060405180910390fd5b604051806020016040528084600001518381611ed257fe5b0481525091505092915050565b611ee7611f7f565b604051806020016040528069d3c21bcecceda100000080856000015181611f0a57fe5b04028152509050919050565b611f1e611f7f565b604051806020016040528069d3c21bcecceda100000080856000015181611f4157fe5b04028460000151038152509050919050565b600064e8d4a51000905090565b60007601357c299a88ea76a58924d52ce4f26a85af186c2b9e74905090565b604051806020016040528060008152509056fe61646a7573746d656e74207370656564206d75737420626520736d616c6c6572207468616e20314f776e61626c653a206e6577206f776e657220697320746865207a65726f206164647265737363616e277420637265617465206669786964697479206e756d626572206c6172676572207468616e206d61784e657746697865642829676173207072696365206d696e696d756d20666c6f6f72206d7573742062652067726561746572207468616e207a65726f536166654d6174683a206d756c7469706c69636174696f6e206f766572666c6f777461726765742064656e73697479206d75737420626520736d616c6c6572207468616e2031a165627a7a723058209851ff9a560a63d8ad8ace84ff2fa013d614395de0cc430c2eccc62e7ec530ac0029",
  "source": "pragma solidity ^0.5.3;\n\nimport \"openzeppelin-solidity/contracts/math/SafeMath.sol\";\nimport \"openzeppelin-solidity/contracts/ownership/Ownable.sol\";\n\nimport \"./CalledByVm.sol\";\nimport \"./Initializable.sol\";\nimport \"./FixidityLib.sol\";\nimport \"./UsingRegistry.sol\";\nimport \"../stability/interfaces/ISortedOracles.sol\";\n\n/**\n * @title Stores and provides gas price minimum for various currencies.\n */\ncontract GasPriceMinimum is Ownable, Initializable, UsingRegistry, CalledByVm {\n  using FixidityLib for FixidityLib.Fraction;\n  using SafeMath for uint256;\n\n  event TargetDensitySet(uint256 targetDensity);\n  event GasPriceMinimumFloorSet(uint256 gasPriceMinimumFloor);\n  event AdjustmentSpeedSet(uint256 adjustmentSpeed);\n  event GasPriceMinimumUpdated(uint256 gasPriceMinimum);\n\n  uint256 public gasPriceMinimum;\n  uint256 public gasPriceMinimumFloor;\n\n  // Block congestion level targeted by the gas price minimum calculation.\n  FixidityLib.Fraction public targetDensity;\n\n  // Speed of gas price minimum adjustment due to congestion.\n  FixidityLib.Fraction public adjustmentSpeed;\n\n  /**\n   * @notice Used in place of the constructor to allow the contract to be upgradable via proxy.\n   * @param _registryAddress The address of the registry core smart contract.\n   * @param _gasPriceMinimumFloor The lowest value the gas price minimum can be.\n   * @param _targetDensity The target gas fullness of blocks, expressed as a fixidity fraction.\n   * @param _adjustmentSpeed How quickly the minimum changes, expressed as a fixidity fraction.\n   */\n  function initialize(\n    address _registryAddress,\n    uint256 _gasPriceMinimumFloor,\n    uint256 _targetDensity,\n    uint256 _adjustmentSpeed\n  ) external initializer {\n    _transferOwnership(msg.sender);\n    setRegistry(_registryAddress);\n    gasPriceMinimum = _gasPriceMinimumFloor;\n    setGasPriceMinimumFloor(_gasPriceMinimumFloor);\n    setTargetDensity(_targetDensity);\n    setAdjustmentSpeed(_adjustmentSpeed);\n  }\n\n  /**\n   * @notice Set a multiplier that impacts how quickly gas price minimum is adjusted.\n   * @param _adjustmentSpeed How quickly the minimum changes, expressed as a fixidity fraction.\n   * @dev Value is expected to be < 1.\n   */\n  function setAdjustmentSpeed(uint256 _adjustmentSpeed) public onlyOwner {\n    adjustmentSpeed = FixidityLib.wrap(_adjustmentSpeed);\n    require(adjustmentSpeed.lt(FixidityLib.fixed1()), \"adjustment speed must be smaller than 1\");\n    emit AdjustmentSpeedSet(_adjustmentSpeed);\n  }\n\n  /**\n   * @notice Set the block density targeted by the gas price minimum algorithm.\n   * @param _targetDensity The target gas fullness of blocks, expressed as a fixidity fraction.\n   * @dev Value is expected to be < 1.\n   */\n  function setTargetDensity(uint256 _targetDensity) public onlyOwner {\n    targetDensity = FixidityLib.wrap(_targetDensity);\n    require(targetDensity.lt(FixidityLib.fixed1()), \"target density must be smaller than 1\");\n    emit TargetDensitySet(_targetDensity);\n  }\n\n  /**\n   * @notice Set the minimum gas price treshold.\n   * @param _gasPriceMinimumFloor The lowest value the gas price minimum can be.\n   * @dev Value is expected to be > 0.\n   */\n  function setGasPriceMinimumFloor(uint256 _gasPriceMinimumFloor) public onlyOwner {\n    require(_gasPriceMinimumFloor > 0, \"gas price minimum floor must be greater than zero\");\n    gasPriceMinimumFloor = _gasPriceMinimumFloor;\n    emit GasPriceMinimumFloorSet(_gasPriceMinimumFloor);\n  }\n\n  /**\n   * @notice Retrieve the current gas price minimum for a currency.\n   * @param tokenAddress The currency the gas price should be in (defaults to gold).\n   * @return current gas price minimum in the requested currency\n   */\n  function getGasPriceMinimum(address tokenAddress) external view returns (uint256) {\n    if (\n      tokenAddress == address(0) ||\n      tokenAddress == registry.getAddressForOrDie(GOLD_TOKEN_REGISTRY_ID)\n    ) {\n      return gasPriceMinimum;\n    } else {\n      ISortedOracles sortedOracles = ISortedOracles(\n        registry.getAddressForOrDie(SORTED_ORACLES_REGISTRY_ID)\n      );\n      uint256 rateNumerator;\n      uint256 rateDenominator;\n      (rateNumerator, rateDenominator) = sortedOracles.medianRate(tokenAddress);\n      return (gasPriceMinimum.mul(rateNumerator).div(rateDenominator));\n    }\n  }\n\n  /**\n   * @notice Adjust the gas price minimum based on governable parameters\n   * and block congestion.\n   * @param blockGasTotal The amount of gas in the most recent block.\n   * @param blockGasLimit The maxBlockGasLimit of the past block.\n   * @return result of the calculation (new gas price minimum)\n   */\n  function updateGasPriceMinimum(uint256 blockGasTotal, uint256 blockGasLimit)\n    external\n    onlyVm\n    returns (uint256)\n  {\n    gasPriceMinimum = getUpdatedGasPriceMinimum(blockGasTotal, blockGasLimit);\n    emit GasPriceMinimumUpdated(gasPriceMinimum);\n    return gasPriceMinimum;\n  }\n\n  /**\n   * @notice Calculates the gas price minimum based on governable parameters\n   * and block congestion.\n   * @param blockGasTotal The amount of gas in the most recent block.\n   * @param blockGasLimit The maxBlockGasLimit of the past block.\n   * @return result of the calculation (new gas price minimum)\n   * @dev Calculate using the following formula:\n   * oldGasPriceMinimum * (1 + (adjustmentSpeed * (blockDensity - targetDensity))) + 1.\n   */\n  function getUpdatedGasPriceMinimum(uint256 blockGasTotal, uint256 blockGasLimit)\n    public\n    view\n    returns (uint256)\n  {\n    FixidityLib.Fraction memory blockDensity = FixidityLib.newFixedFraction(\n      blockGasTotal,\n      blockGasLimit\n    );\n    bool densityGreaterThanTarget = blockDensity.gt(targetDensity);\n    FixidityLib.Fraction memory densityDelta = densityGreaterThanTarget\n      ? blockDensity.subtract(targetDensity)\n      : targetDensity.subtract(blockDensity);\n    FixidityLib.Fraction memory adjustment = densityGreaterThanTarget\n      ? FixidityLib.fixed1().add(adjustmentSpeed.multiply(densityDelta))\n      : FixidityLib.fixed1().subtract(adjustmentSpeed.multiply(densityDelta));\n\n    uint256 newGasPriceMinimum = adjustment\n      .multiply(FixidityLib.newFixed(gasPriceMinimum))\n      .add(FixidityLib.fixed1())\n      .fromFixed();\n\n    return newGasPriceMinimum >= gasPriceMinimumFloor ? newGasPriceMinimum : gasPriceMinimumFloor;\n  }\n}\n",
  "sourcePath": "/Users/cmcewen/celo/celo-monorepo/packages/protocol/contracts/common/GasPriceMinimum.sol",
  "compiler": {
    "name": "solc",
    "version": "0.5.8+commit.23d335f2.Emscripten.clang"
  },
  "schemaVersion": "3.0.10",
  "updatedAt": "2020-04-09T23:47:18.093Z",
  "devdoc": {
    "methods": {
      "getGasPriceMinimum(address)": {
        "params": {
          "tokenAddress": "The currency the gas price should be in (defaults to gold)."
        },
        "return": "current gas price minimum in the requested currency"
      },
      "getUpdatedGasPriceMinimum(uint256,uint256)": {
        "details": "Calculate using the following formula: oldGasPriceMinimum * (1 + (adjustmentSpeed * (blockDensity - targetDensity))) + 1.",
        "params": {
          "blockGasLimit": "The maxBlockGasLimit of the past block.",
          "blockGasTotal": "The amount of gas in the most recent block."
        },
        "return": "result of the calculation (new gas price minimum)"
      },
      "initialize(address,uint256,uint256,uint256)": {
        "params": {
          "_adjustmentSpeed": "How quickly the minimum changes, expressed as a fixidity fraction.",
          "_gasPriceMinimumFloor": "The lowest value the gas price minimum can be.",
          "_registryAddress": "The address of the registry core smart contract.",
          "_targetDensity": "The target gas fullness of blocks, expressed as a fixidity fraction."
        }
      },
      "isOwner()": {
        "details": "Returns true if the caller is the current owner."
      },
      "owner()": {
        "details": "Returns the address of the current owner."
      },
      "renounceOwnership()": {
        "details": "Leaves the contract without owner. It will not be possible to call `onlyOwner` functions anymore. Can only be called by the current owner.     * NOTE: Renouncing ownership will leave the contract without an owner, thereby removing any functionality that is only available to the owner."
      },
      "setAdjustmentSpeed(uint256)": {
        "details": "Value is expected to be < 1.",
        "params": {
          "_adjustmentSpeed": "How quickly the minimum changes, expressed as a fixidity fraction."
        }
      },
      "setGasPriceMinimumFloor(uint256)": {
        "details": "Value is expected to be > 0.",
        "params": {
          "_gasPriceMinimumFloor": "The lowest value the gas price minimum can be."
        }
      },
      "setRegistry(address)": {
        "params": {
          "registryAddress": "The address of a registry contract for routing to other contracts."
        }
      },
      "setTargetDensity(uint256)": {
        "details": "Value is expected to be < 1.",
        "params": {
          "_targetDensity": "The target gas fullness of blocks, expressed as a fixidity fraction."
        }
      },
      "transferOwnership(address)": {
        "details": "Transfers ownership of the contract to a new account (`newOwner`). Can only be called by the current owner."
      },
      "updateGasPriceMinimum(uint256,uint256)": {
        "params": {
          "blockGasLimit": "The maxBlockGasLimit of the past block.",
          "blockGasTotal": "The amount of gas in the most recent block."
        },
        "return": "result of the calculation (new gas price minimum)"
      }
    },
    "title": "Stores and provides gas price minimum for various currencies."
  },
  "userdoc": {
    "methods": {
      "getGasPriceMinimum(address)": {
        "notice": "Retrieve the current gas price minimum for a currency."
      },
      "getUpdatedGasPriceMinimum(uint256,uint256)": {
        "notice": "Calculates the gas price minimum based on governable parameters and block congestion."
      },
      "initialize(address,uint256,uint256,uint256)": {
        "notice": "Used in place of the constructor to allow the contract to be upgradable via proxy."
      },
      "setAdjustmentSpeed(uint256)": {
        "notice": "Set a multiplier that impacts how quickly gas price minimum is adjusted."
      },
      "setGasPriceMinimumFloor(uint256)": {
        "notice": "Set the minimum gas price treshold."
      },
      "setRegistry(address)": {
        "notice": "Updates the address pointing to a Registry contract."
      },
      "setTargetDensity(uint256)": {
        "notice": "Set the block density targeted by the gas price minimum algorithm."
      },
      "updateGasPriceMinimum(uint256,uint256)": {
        "notice": "Adjust the gas price minimum based on governable parameters and block congestion."
      }
    }
  }
}