{
  "contractName": "GoldToken",
  "abi": [
    {
      "constant": true,
      "inputs": [],
      "name": "initialized",
      "outputs": [
        {
          "name": "",
          "type": "bool"
        }
      ],
      "payable": false,
      "stateMutability": "view",
      "type": "function"
    },
    {
      "constant": false,
      "inputs": [],
      "name": "renounceOwnership",
      "outputs": [],
      "payable": false,
      "stateMutability": "nonpayable",
      "type": "function"
    },
    {
      "constant": true,
      "inputs": [],
      "name": "registry",
      "outputs": [
        {
          "name": "",
          "type": "address"
        }
      ],
      "payable": false,
      "stateMutability": "view",
      "type": "function"
    },
    {
      "constant": true,
      "inputs": [],
      "name": "owner",
      "outputs": [
        {
          "name": "",
          "type": "address"
        }
      ],
      "payable": false,
      "stateMutability": "view",
      "type": "function"
    },
    {
      "constant": true,
      "inputs": [],
      "name": "isOwner",
      "outputs": [
        {
          "name": "",
          "type": "bool"
        }
      ],
      "payable": false,
      "stateMutability": "view",
      "type": "function"
    },
    {
      "constant": false,
      "inputs": [
        {
          "name": "registryAddress",
          "type": "address"
        }
      ],
      "name": "setRegistry",
      "outputs": [],
      "payable": false,
      "stateMutability": "nonpayable",
      "type": "function"
    },
    {
      "constant": false,
      "inputs": [
        {
          "name": "newOwner",
          "type": "address"
        }
      ],
      "name": "transferOwnership",
      "outputs": [],
      "payable": false,
      "stateMutability": "nonpayable",
      "type": "function"
    },
    {
      "anonymous": false,
      "inputs": [
        {
          "indexed": true,
          "name": "from",
          "type": "address"
        },
        {
          "indexed": true,
          "name": "to",
          "type": "address"
        },
        {
          "indexed": false,
          "name": "value",
          "type": "uint256"
        }
      ],
      "name": "Transfer",
      "type": "event"
    },
    {
      "anonymous": false,
      "inputs": [
        {
          "indexed": false,
          "name": "comment",
          "type": "string"
        }
      ],
      "name": "TransferComment",
      "type": "event"
    },
    {
      "anonymous": false,
      "inputs": [
        {
          "indexed": true,
          "name": "owner",
          "type": "address"
        },
        {
          "indexed": true,
          "name": "spender",
          "type": "address"
        },
        {
          "indexed": false,
          "name": "value",
          "type": "uint256"
        }
      ],
      "name": "Approval",
      "type": "event"
    },
    {
      "anonymous": false,
      "inputs": [
        {
          "indexed": true,
          "name": "registryAddress",
          "type": "address"
        }
      ],
      "name": "RegistrySet",
      "type": "event"
    },
    {
      "anonymous": false,
      "inputs": [
        {
          "indexed": true,
          "name": "previousOwner",
          "type": "address"
        },
        {
          "indexed": true,
          "name": "newOwner",
          "type": "address"
        }
      ],
      "name": "OwnershipTransferred",
      "type": "event"
    },
    {
      "constant": false,
      "inputs": [
        {
          "name": "registryAddress",
          "type": "address"
        }
      ],
      "name": "initialize",
      "outputs": [],
      "payable": false,
      "stateMutability": "nonpayable",
      "type": "function"
    },
    {
      "constant": false,
      "inputs": [
        {
          "name": "to",
          "type": "address"
        },
        {
          "name": "value",
          "type": "uint256"
        }
      ],
      "name": "transfer",
      "outputs": [
        {
          "name": "",
          "type": "bool"
        }
      ],
      "payable": false,
      "stateMutability": "nonpayable",
      "type": "function"
    },
    {
      "constant": false,
      "inputs": [
        {
          "name": "to",
          "type": "address"
        },
        {
          "name": "value",
          "type": "uint256"
        },
        {
          "name": "comment",
          "type": "string"
        }
      ],
      "name": "transferWithComment",
      "outputs": [
        {
          "name": "",
          "type": "bool"
        }
      ],
      "payable": false,
      "stateMutability": "nonpayable",
      "type": "function"
    },
    {
      "constant": false,
      "inputs": [
        {
          "name": "spender",
          "type": "address"
        },
        {
          "name": "value",
          "type": "uint256"
        }
      ],
      "name": "approve",
      "outputs": [
        {
          "name": "",
          "type": "bool"
        }
      ],
      "payable": false,
      "stateMutability": "nonpayable",
      "type": "function"
    },
    {
      "constant": false,
      "inputs": [
        {
          "name": "spender",
          "type": "address"
        },
        {
          "name": "value",
          "type": "uint256"
        }
      ],
      "name": "increaseAllowance",
      "outputs": [
        {
          "name": "",
          "type": "bool"
        }
      ],
      "payable": false,
      "stateMutability": "nonpayable",
      "type": "function"
    },
    {
      "constant": false,
      "inputs": [
        {
          "name": "spender",
          "type": "address"
        },
        {
          "name": "value",
          "type": "uint256"
        }
      ],
      "name": "decreaseAllowance",
      "outputs": [
        {
          "name": "",
          "type": "bool"
        }
      ],
      "payable": false,
      "stateMutability": "nonpayable",
      "type": "function"
    },
    {
      "constant": false,
      "inputs": [
        {
          "name": "from",
          "type": "address"
        },
        {
          "name": "to",
          "type": "address"
        },
        {
          "name": "value",
          "type": "uint256"
        }
      ],
      "name": "transferFrom",
      "outputs": [
        {
          "name": "",
          "type": "bool"
        }
      ],
      "payable": false,
      "stateMutability": "nonpayable",
      "type": "function"
    },
    {
      "constant": false,
      "inputs": [
        {
          "name": "to",
          "type": "address"
        },
        {
          "name": "value",
          "type": "uint256"
        }
      ],
      "name": "mint",
      "outputs": [
        {
          "name": "",
          "type": "bool"
        }
      ],
      "payable": false,
      "stateMutability": "nonpayable",
      "type": "function"
    },
    {
      "constant": true,
      "inputs": [],
      "name": "name",
      "outputs": [
        {
          "name": "",
          "type": "string"
        }
      ],
      "payable": false,
      "stateMutability": "view",
      "type": "function"
    },
    {
      "constant": true,
      "inputs": [],
      "name": "symbol",
      "outputs": [
        {
          "name": "",
          "type": "string"
        }
      ],
      "payable": false,
      "stateMutability": "view",
      "type": "function"
    },
    {
      "constant": true,
      "inputs": [],
      "name": "decimals",
      "outputs": [
        {
          "name": "",
          "type": "uint8"
        }
      ],
      "payable": false,
      "stateMutability": "view",
      "type": "function"
    },
    {
      "constant": true,
      "inputs": [],
      "name": "totalSupply",
      "outputs": [
        {
          "name": "",
          "type": "uint256"
        }
      ],
      "payable": false,
      "stateMutability": "view",
      "type": "function"
    },
    {
      "constant": true,
      "inputs": [
        {
          "name": "owner",
          "type": "address"
        },
        {
          "name": "spender",
          "type": "address"
        }
      ],
      "name": "allowance",
      "outputs": [
        {
          "name": "",
          "type": "uint256"
        }
      ],
      "payable": false,
      "stateMutability": "view",
      "type": "function"
    },
    {
      "constant": false,
      "inputs": [
        {
          "name": "amount",
          "type": "uint256"
        }
      ],
      "name": "increaseSupply",
      "outputs": [],
      "payable": false,
      "stateMutability": "nonpayable",
      "type": "function"
    },
    {
      "constant": true,
      "inputs": [
        {
          "name": "owner",
          "type": "address"
        }
      ],
      "name": "balanceOf",
      "outputs": [
        {
          "name": "",
          "type": "uint256"
        }
      ],
      "payable": false,
      "stateMutability": "view",
      "type": "function"
    }
  ],
  "bytecode": "0x608060405260006100146100b860201b60201c565b905080600060016101000a81548173ffffffffffffffffffffffffffffffffffffffff021916908373ffffffffffffffffffffffffffffffffffffffff1602179055508073ffffffffffffffffffffffffffffffffffffffff16600073ffffffffffffffffffffffffffffffffffffffff167f8be0079c531659141344cd1fd0a4f28419497f9722a3daafe3b4186f6b6457e060405160405180910390a3506100c0565b600033905090565b612799806100cf6000396000f3fe608060405234801561001057600080fd5b50600436106101425760003560e01c80638da5cb5b116100b8578063a91ee0dc1161007c578063a91ee0dc1461064d578063b921e16314610691578063c4d66de8146106bf578063dd62ed3e14610703578063e1d6aceb1461077b578063f2fde38b1461083657610142565b80638da5cb5b146104925780638f32d59b146104dc57806395d89b41146104fe578063a457c2d714610581578063a9059cbb146105e757610142565b8063313ce5671161010a578063313ce567146102f6578063395093511461031a57806340c10f191461038057806370a08231146103e6578063715018a61461043e5780637b1039991461044857610142565b806306fdde0314610147578063095ea7b3146101ca578063158ef93e1461023057806318160ddd1461025257806323b872dd14610270575b600080fd5b61014f61087a565b6040518080602001828103825283818151815260200191508051906020019080838360005b8381101561018f578082015181840152602081019050610174565b50505050905090810190601f1680156101bc5780820380516001836020036101000a031916815260200191505b509250505060405180910390f35b610216600480360360408110156101e057600080fd5b81019080803573ffffffffffffffffffffffffffffffffffffffff169060200190929190803590602001909291905050506108b7565b604051808215151515815260200191505060405180910390f35b610238610a4b565b604051808215151515815260200191505060405180910390f35b61025a610a5d565b6040518082815260200191505060405180910390f35b6102dc6004803603606081101561028657600080fd5b81019080803573ffffffffffffffffffffffffffffffffffffffff169060200190929190803573ffffffffffffffffffffffffffffffffffffffff16906020019092919080359060200190929190505050610a67565b604051808215151515815260200191505060405180910390f35b6102fe611074565b604051808260ff1660ff16815260200191505060405180910390f35b6103666004803603604081101561033057600080fd5b81019080803573ffffffffffffffffffffffffffffffffffffffff1690602001909291908035906020019092919050505061107d565b604051808215151515815260200191505060405180910390f35b6103cc6004803603604081101561039657600080fd5b81019080803573ffffffffffffffffffffffffffffffffffffffff169060200190929190803590602001909291905050506112ab565b604051808215151515815260200191505060405180910390f35b610428600480360360208110156103fc57600080fd5b81019080803573ffffffffffffffffffffffffffffffffffffffff16906020019092919050505061160b565b6040518082815260200191505060405180910390f35b61044661162c565b005b610450611766565b604051808273ffffffffffffffffffffffffffffffffffffffff1673ffffffffffffffffffffffffffffffffffffffff16815260200191505060405180910390f35b61049a61178c565b604051808273ffffffffffffffffffffffffffffffffffffffff1673ffffffffffffffffffffffffffffffffffffffff16815260200191505060405180910390f35b6104e46117b5565b604051808215151515815260200191505060405180910390f35b610506611813565b6040518080602001828103825283818151815260200191508051906020019080838360005b8381101561054657808201518184015260208101905061052b565b50505050905090810190601f1680156105735780820380516001836020036101000a031916815260200191505b509250505060405180910390f35b6105cd6004803603604081101561059757600080fd5b81019080803573ffffffffffffffffffffffffffffffffffffffff16906020019092919080359060200190929190505050611850565b604051808215151515815260200191505060405180910390f35b610633600480360360408110156105fd57600080fd5b81019080803573ffffffffffffffffffffffffffffffffffffffff169060200190929190803590602001909291905050506119db565b604051808215151515815260200191505060405180910390f35b61068f6004803603602081101561066357600080fd5b81019080803573ffffffffffffffffffffffffffffffffffffffff1690602001909291905050506119ef565b005b6106bd600480360360208110156106a757600080fd5b8101908080359060200190929190505050611b93565b005b610701600480360360208110156106d557600080fd5b81019080803573ffffffffffffffffffffffffffffffffffffffff169060200190929190505050611c53565b005b6107656004803603604081101561071957600080fd5b81019080803573ffffffffffffffffffffffffffffffffffffffff169060200190929190803573ffffffffffffffffffffffffffffffffffffffff169060200190929190505050611d0c565b6040518082815260200191505060405180910390f35b61081c6004803603606081101561079157600080fd5b81019080803573ffffffffffffffffffffffffffffffffffffffff16906020019092919080359060200190929190803590602001906401000000008111156107d857600080fd5b8201836020820111156107ea57600080fd5b8035906020019184600183028401116401000000008311171561080c57600080fd5b9091929391929390505050611d93565b604051808215151515815260200191505060405180910390f35b6108786004803603602081101561084c57600080fd5b81019080803573ffffffffffffffffffffffffffffffffffffffff169060200190929190505050611e11565b005b60606040518060400160405280600981526020017f43656c6f20476f6c640000000000000000000000000000000000000000000000815250905090565b60008073ffffffffffffffffffffffffffffffffffffffff168373ffffffffffffffffffffffffffffffffffffffff16141561095b576040517f08c379a000000000000000000000000000000000000000000000000000000000815260040180806020018281038252601a8152602001807f63616e6e6f742073657420616c6c6f77616e636520666f72203000000000000081525060200191505060405180910390fd5b81600360003373ffffffffffffffffffffffffffffffffffffffff1673ffffffffffffffffffffffffffffffffffffffff16815260200190815260200160002060008573ffffffffffffffffffffffffffffffffffffffff1673ffffffffffffffffffffffffffffffffffffffff168152602001908152602001600020819055508273ffffffffffffffffffffffffffffffffffffffff163373ffffffffffffffffffffffffffffffffffffffff167f8c5be1e5ebec7d5bd14f71427d1e84f3dd0314c0f7b2291e5b200ac8c7c3b925846040518082815260200191505060405180910390a36001905092915050565b6000809054906101000a900460ff1681565b6000600254905090565b6000610a71611e97565b73ffffffffffffffffffffffffffffffffffffffff1663e5839836306040518263ffffffff1660e01b8152600401808273ffffffffffffffffffffffffffffffffffffffff1673ffffffffffffffffffffffffffffffffffffffff16815260200191505060206040518083038186803b158015610aed57600080fd5b505afa158015610b01573d6000803e3d6000fd5b505050506040513d6020811015610b1757600080fd5b810190808051906020019092919050505015610b7e576040517f08c379a00000000000000000000000000000000000000000000000000000000081526004018080602001828103825260228152602001806126c16022913960400191505060405180910390fd5b600073ffffffffffffffffffffffffffffffffffffffff168373ffffffffffffffffffffffffffffffffffffffff161415610c04576040517f08c379a000000000000000000000000000000000000000000000000000000000815260040180806020018281038252602a815260200180612744602a913960400191505060405180910390fd5b610c0d8461160b565b821115610c65576040517f08c379a00000000000000000000000000000000000000000000000000000000081526004018080602001828103825260298152602001806126e36029913960400191505060405180910390fd5b600360008573ffffffffffffffffffffffffffffffffffffffff1673ffffffffffffffffffffffffffffffffffffffff16815260200190815260200160002060003373ffffffffffffffffffffffffffffffffffffffff1673ffffffffffffffffffffffffffffffffffffffff16815260200190815260200160002054821115610d3a576040517f08c379a000000000000000000000000000000000000000000000000000000000815260040180806020018281038252603881526020018061270c6038913960400191505060405180910390fd5b600060fd73ffffffffffffffffffffffffffffffffffffffff1660005a90878787604051602001808473ffffffffffffffffffffffffffffffffffffffff1673ffffffffffffffffffffffffffffffffffffffff1681526020018373ffffffffffffffffffffffffffffffffffffffff1673ffffffffffffffffffffffffffffffffffffffff16815260200182815260200193505050506040516020818303038152906040526040518082805190602001908083835b60208310610e135780518252602082019150602081019050602083039250610df0565b6001836020036101000a038019825116818451168082178552505050505050905001915050600060405180830381858888f193505050503d8060008114610e76576040519150601f19603f3d011682016040523d82523d6000602084013e610e7b565b606091505b50508091505080610ef4576040517f08c379a00000000000000000000000000000000000000000000000000000000081526004018080602001828103825260198152602001807f43656c6f20476f6c64207472616e73666572206661696c65640000000000000081525060200191505060405180910390fd5b610f8383600360008873ffffffffffffffffffffffffffffffffffffffff1673ffffffffffffffffffffffffffffffffffffffff16815260200190815260200160002060003373ffffffffffffffffffffffffffffffffffffffff1673ffffffffffffffffffffffffffffffffffffffff16815260200190815260200160002054611f9290919063ffffffff16565b600360008773ffffffffffffffffffffffffffffffffffffffff1673ffffffffffffffffffffffffffffffffffffffff16815260200190815260200160002060003373ffffffffffffffffffffffffffffffffffffffff1673ffffffffffffffffffffffffffffffffffffffff168152602001908152602001600020819055508373ffffffffffffffffffffffffffffffffffffffff168573ffffffffffffffffffffffffffffffffffffffff167fddf252ad1be2c89b69c2b068fc378daa952ba7f163c4a11628f55a4df523b3ef856040518082815260200191505060405180910390a360019150509392505050565b60006012905090565b60008073ffffffffffffffffffffffffffffffffffffffff168373ffffffffffffffffffffffffffffffffffffffff161415611121576040517f08c379a000000000000000000000000000000000000000000000000000000000815260040180806020018281038252601a8152602001807f63616e6e6f742073657420616c6c6f77616e636520666f72203000000000000081525060200191505060405180910390fd5b6000600360003373ffffffffffffffffffffffffffffffffffffffff1673ffffffffffffffffffffffffffffffffffffffff16815260200190815260200160002060008573ffffffffffffffffffffffffffffffffffffffff1673ffffffffffffffffffffffffffffffffffffffff16815260200190815260200160002054905060006111b78483611fdc90919063ffffffff16565b905080600360003373ffffffffffffffffffffffffffffffffffffffff1673ffffffffffffffffffffffffffffffffffffffff16815260200190815260200160002060008773ffffffffffffffffffffffffffffffffffffffff1673ffffffffffffffffffffffffffffffffffffffff168152602001908152602001600020819055508473ffffffffffffffffffffffffffffffffffffffff163373ffffffffffffffffffffffffffffffffffffffff167f8c5be1e5ebec7d5bd14f71427d1e84f3dd0314c0f7b2291e5b200ac8c7c3b925836040518082815260200191505060405180910390a360019250505092915050565b60008073ffffffffffffffffffffffffffffffffffffffff163373ffffffffffffffffffffffffffffffffffffffff161461134e576040517f08c379a00000000000000000000000000000000000000000000000000000000081526004018080602001828103825260108152602001807f4f6e6c7920564d2063616e2063616c6c0000000000000000000000000000000081525060200191505060405180910390fd5b600082116113c4576040517f08c379a00000000000000000000000000000000000000000000000000000000081526004018080602001828103825260168152602001807f6d696e742076616c7565206d757374206265203e20300000000000000000000081525060200191505060405180910390fd5b6113d982600254611fdc90919063ffffffff16565b600281905550600060fd73ffffffffffffffffffffffffffffffffffffffff1660005a9060008787604051602001808473ffffffffffffffffffffffffffffffffffffffff1673ffffffffffffffffffffffffffffffffffffffff1681526020018373ffffffffffffffffffffffffffffffffffffffff1673ffffffffffffffffffffffffffffffffffffffff16815260200182815260200193505050506040516020818303038152906040526040518082805190602001908083835b602083106114b95780518252602082019150602081019050602083039250611496565b6001836020036101000a038019825116818451168082178552505050505050905001915050600060405180830381858888f193505050503d806000811461151c576040519150601f19603f3d011682016040523d82523d6000602084013e611521565b606091505b5050809150508061159a576040517f08c379a00000000000000000000000000000000000000000000000000000000081526004018080602001828103825260198152602001807f43656c6f20476f6c64207472616e73666572206661696c65640000000000000081525060200191505060405180910390fd5b8373ffffffffffffffffffffffffffffffffffffffff16600073ffffffffffffffffffffffffffffffffffffffff167fddf252ad1be2c89b69c2b068fc378daa952ba7f163c4a11628f55a4df523b3ef856040518082815260200191505060405180910390a3600191505092915050565b60008173ffffffffffffffffffffffffffffffffffffffff16319050919050565b6116346117b5565b6116a6576040517f08c379a00000000000000000000000000000000000000000000000000000000081526004018080602001828103825260208152602001807f4f776e61626c653a2063616c6c6572206973206e6f7420746865206f776e657281525060200191505060405180910390fd5b600073ffffffffffffffffffffffffffffffffffffffff16600060019054906101000a900473ffffffffffffffffffffffffffffffffffffffff1673ffffffffffffffffffffffffffffffffffffffff167f8be0079c531659141344cd1fd0a4f28419497f9722a3daafe3b4186f6b6457e060405160405180910390a360008060016101000a81548173ffffffffffffffffffffffffffffffffffffffff021916908373ffffffffffffffffffffffffffffffffffffffff160217905550565b600160009054906101000a900473ffffffffffffffffffffffffffffffffffffffff1681565b60008060019054906101000a900473ffffffffffffffffffffffffffffffffffffffff16905090565b60008060019054906101000a900473ffffffffffffffffffffffffffffffffffffffff1673ffffffffffffffffffffffffffffffffffffffff166117f7612064565b73ffffffffffffffffffffffffffffffffffffffff1614905090565b60606040518060400160405280600481526020017f63474c4400000000000000000000000000000000000000000000000000000000815250905090565b600080600360003373ffffffffffffffffffffffffffffffffffffffff1673ffffffffffffffffffffffffffffffffffffffff16815260200190815260200160002060008573ffffffffffffffffffffffffffffffffffffffff1673ffffffffffffffffffffffffffffffffffffffff16815260200190815260200160002054905060006118e78483611f9290919063ffffffff16565b905080600360003373ffffffffffffffffffffffffffffffffffffffff1673ffffffffffffffffffffffffffffffffffffffff16815260200190815260200160002060008773ffffffffffffffffffffffffffffffffffffffff1673ffffffffffffffffffffffffffffffffffffffff168152602001908152602001600020819055508473ffffffffffffffffffffffffffffffffffffffff163373ffffffffffffffffffffffffffffffffffffffff167f8c5be1e5ebec7d5bd14f71427d1e84f3dd0314c0f7b2291e5b200ac8c7c3b925836040518082815260200191505060405180910390a360019250505092915050565b60006119e7838361206c565b905092915050565b6119f76117b5565b611a69576040517f08c379a00000000000000000000000000000000000000000000000000000000081526004018080602001828103825260208152602001807f4f776e61626c653a2063616c6c6572206973206e6f7420746865206f776e657281525060200191505060405180910390fd5b600073ffffffffffffffffffffffffffffffffffffffff168173ffffffffffffffffffffffffffffffffffffffff161415611b0c576040517f08c379a00000000000000000000000000000000000000000000000000000000081526004018080602001828103825260208152602001807f43616e6e6f7420726567697374657220746865206e756c6c206164647265737381525060200191505060405180910390fd5b80600160006101000a81548173ffffffffffffffffffffffffffffffffffffffff021916908373ffffffffffffffffffffffffffffffffffffffff1602179055508073ffffffffffffffffffffffffffffffffffffffff167f27fe5f0c1c3b1ed427cc63d0f05759ffdecf9aec9e18d31ef366fc8a6cb5dc3b60405160405180910390a250565b600073ffffffffffffffffffffffffffffffffffffffff163373ffffffffffffffffffffffffffffffffffffffff1614611c35576040517f08c379a00000000000000000000000000000000000000000000000000000000081526004018080602001828103825260108152602001807f4f6e6c7920564d2063616e2063616c6c0000000000000000000000000000000081525060200191505060405180910390fd5b611c4a81600254611fdc90919063ffffffff16565b60028190555050565b6000809054906101000a900460ff1615611cd5576040517f08c379a000000000000000000000000000000000000000000000000000000000815260040180806020018281038252601c8152602001807f636f6e747261637420616c726561647920696e697469616c697a65640000000081525060200191505060405180910390fd5b60016000806101000a81548160ff0219169083151502179055506000600281905550611d0033612494565b611d09816119ef565b50565b6000600360008473ffffffffffffffffffffffffffffffffffffffff1673ffffffffffffffffffffffffffffffffffffffff16815260200190815260200160002060008373ffffffffffffffffffffffffffffffffffffffff1673ffffffffffffffffffffffffffffffffffffffff16815260200190815260200160002054905092915050565b600080611da0868661206c565b90507fe5d4e30fb8364e57bc4d662a07d0cf36f4c34552004c4c3624620a2c1d1c03dc848460405180806020018281038252848482818152602001925080828437600081840152601f19601f820116905080830192505050935050505060405180910390a180915050949350505050565b611e196117b5565b611e8b576040517f08c379a00000000000000000000000000000000000000000000000000000000081526004018080602001828103825260208152602001807f4f776e61626c653a2063616c6c6572206973206e6f7420746865206f776e657281525060200191505060405180910390fd5b611e9481612494565b50565b6000600160009054906101000a900473ffffffffffffffffffffffffffffffffffffffff1673ffffffffffffffffffffffffffffffffffffffff1663dcf0aaed60405160200180807f467265657a6572000000000000000000000000000000000000000000000000008152506007019050604051602081830303815290604052805190602001206040518263ffffffff1660e01b81526004018082815260200191505060206040518083038186803b158015611f5257600080fd5b505afa158015611f66573d6000803e3d6000fd5b505050506040513d6020811015611f7c57600080fd5b8101908080519060200190929190505050905090565b6000611fd483836040518060400160405280601e81526020017f536166654d6174683a207375627472616374696f6e206f766572666c6f7700008152506125da565b905092915050565b60008082840190508381101561205a576040517f08c379a000000000000000000000000000000000000000000000000000000000815260040180806020018281038252601b8152602001807f536166654d6174683a206164646974696f6e206f766572666c6f77000000000081525060200191505060405180910390fd5b8091505092915050565b600033905090565b6000612076611e97565b73ffffffffffffffffffffffffffffffffffffffff1663e5839836306040518263ffffffff1660e01b8152600401808273ffffffffffffffffffffffffffffffffffffffff1673ffffffffffffffffffffffffffffffffffffffff16815260200191505060206040518083038186803b1580156120f257600080fd5b505afa158015612106573d6000803e3d6000fd5b505050506040513d602081101561211c57600080fd5b810190808051906020019092919050505015612183576040517f08c379a00000000000000000000000000000000000000000000000000000000081526004018080602001828103825260228152602001806126c16022913960400191505060405180910390fd5b600073ffffffffffffffffffffffffffffffffffffffff168373ffffffffffffffffffffffffffffffffffffffff161415612209576040517f08c379a000000000000000000000000000000000000000000000000000000000815260040180806020018281038252602a815260200180612744602a913960400191505060405180910390fd5b6122123361160b565b82111561226a576040517f08c379a00000000000000000000000000000000000000000000000000000000081526004018080602001828103825260298152602001806126e36029913960400191505060405180910390fd5b600060fd73ffffffffffffffffffffffffffffffffffffffff1660005a90338787604051602001808473ffffffffffffffffffffffffffffffffffffffff1673ffffffffffffffffffffffffffffffffffffffff1681526020018373ffffffffffffffffffffffffffffffffffffffff1673ffffffffffffffffffffffffffffffffffffffff16815260200182815260200193505050506040516020818303038152906040526040518082805190602001908083835b602083106123435780518252602082019150602081019050602083039250612320565b6001836020036101000a038019825116818451168082178552505050505050905001915050600060405180830381858888f193505050503d80600081146123a6576040519150601f19603f3d011682016040523d82523d6000602084013e6123ab565b606091505b50508091505080612424576040517f08c379a00000000000000000000000000000000000000000000000000000000081526004018080602001828103825260198152602001807f43656c6f20476f6c64207472616e73666572206661696c65640000000000000081525060200191505060405180910390fd5b8373ffffffffffffffffffffffffffffffffffffffff163373ffffffffffffffffffffffffffffffffffffffff167fddf252ad1be2c89b69c2b068fc378daa952ba7f163c4a11628f55a4df523b3ef856040518082815260200191505060405180910390a3600191505092915050565b600073ffffffffffffffffffffffffffffffffffffffff168173ffffffffffffffffffffffffffffffffffffffff16141561251a576040517f08c379a000000000000000000000000000000000000000000000000000000000815260040180806020018281038252602681526020018061269b6026913960400191505060405180910390fd5b8073ffffffffffffffffffffffffffffffffffffffff16600060019054906101000a900473ffffffffffffffffffffffffffffffffffffffff1673ffffffffffffffffffffffffffffffffffffffff167f8be0079c531659141344cd1fd0a4f28419497f9722a3daafe3b4186f6b6457e060405160405180910390a380600060016101000a81548173ffffffffffffffffffffffffffffffffffffffff021916908373ffffffffffffffffffffffffffffffffffffffff16021790555050565b6000838311158290612687576040517f08c379a00000000000000000000000000000000000000000000000000000000081526004018080602001828103825283818151815260200191508051906020019080838360005b8381101561264c578082015181840152602081019050612631565b50505050905090810190601f1680156126795780820380516001836020036101000a031916815260200191505b509250505060405180910390fd5b506000838503905080915050939250505056fe4f776e61626c653a206e6577206f776e657220697320746865207a65726f206164647265737363616e27742063616c6c207768656e20636f6e74726163742069732066726f7a656e7472616e736665722076616c75652065786365656465642062616c616e6365206f662073656e6465727472616e736665722076616c75652065786365656465642073656e646572277320616c6c6f77616e636520666f7220726563697069656e747472616e7366657220617474656d7074656420746f207265736572766564206164647265737320307830a165627a7a723058200ab4421f70025a2f6c2c5dc77beac655e1b7aa3055d896e77b66cd0ef3aa80e60029",
  "source": "pragma solidity ^0.5.3;\n\nimport \"openzeppelin-solidity/contracts/math/SafeMath.sol\";\nimport \"openzeppelin-solidity/contracts/token/ERC20/IERC20.sol\";\n\nimport \"./CalledByVm.sol\";\nimport \"./Freezable.sol\";\nimport \"./Initializable.sol\";\nimport \"./interfaces/ICeloToken.sol\";\n\ncontract GoldToken is Initializable, CalledByVm, Freezable, IERC20, ICeloToken {\n  using SafeMath for uint256;\n\n  // Address of the TRANSFER precompiled contract.\n  // solhint-disable state-visibility\n  address constant TRANSFER = address(0xff - 2);\n  string constant NAME = \"Celo Gold\";\n  string constant SYMBOL = \"cGLD\";\n  uint8 constant DECIMALS = 18;\n  uint256 internal totalSupply_;\n  // solhint-enable state-visibility\n\n  mapping(address => mapping(address => uint256)) internal allowed;\n\n  event Transfer(address indexed from, address indexed to, uint256 value);\n\n  event TransferComment(string comment);\n\n  event Approval(address indexed owner, address indexed spender, uint256 value);\n\n  /**\n   * @notice Used in place of the constructor to allow the contract to be upgradable via proxy.\n   * @param registryAddress Address of the Registry contract.\n   */\n  function initialize(address registryAddress) external initializer {\n    totalSupply_ = 0;\n    _transferOwnership(msg.sender);\n    setRegistry(registryAddress);\n  }\n\n  /**\n   * @notice Transfers Celo Gold from one address to another.\n   * @param to The address to transfer Celo Gold to.\n   * @param value The amount of Celo Gold to transfer.\n   * @return True if the transaction succeeds.\n   */\n  // solhint-disable-next-line no-simple-event-func-name\n  function transfer(address to, uint256 value) external returns (bool) {\n    return _transfer(to, value);\n  }\n\n  /**\n   * @notice Transfers Celo Gold from one address to another with a comment.\n   * @param to The address to transfer Celo Gold to.\n   * @param value The amount of Celo Gold to transfer.\n   * @param comment The transfer comment\n   * @return True if the transaction succeeds.\n   */\n  function transferWithComment(address to, uint256 value, string calldata comment)\n    external\n    returns (bool)\n  {\n    bool succeeded = _transfer(to, value);\n    emit TransferComment(comment);\n    return succeeded;\n  }\n\n  /**\n   * @notice Approve a user to transfer Celo Gold on behalf of another user.\n   * @param spender The address which is being approved to spend Celo Gold.\n   * @param value The amount of Celo Gold approved to the spender.\n   * @return True if the transaction succeeds.\n   */\n  function approve(address spender, uint256 value) external returns (bool) {\n    require(spender != address(0), \"cannot set allowance for 0\");\n    allowed[msg.sender][spender] = value;\n    emit Approval(msg.sender, spender, value);\n    return true;\n  }\n\n  /**\n   * @notice Increases the allowance of another user.\n   * @param spender The address which is being approved to spend Celo Gold.\n   * @param value The increment of the amount of Celo Gold approved to the spender.\n   * @return True if the transaction succeeds.\n   */\n  function increaseAllowance(address spender, uint256 value) external returns (bool) {\n    require(spender != address(0), \"cannot set allowance for 0\");\n    uint256 oldValue = allowed[msg.sender][spender];\n    uint256 newValue = oldValue.add(value);\n    allowed[msg.sender][spender] = newValue;\n    emit Approval(msg.sender, spender, newValue);\n    return true;\n  }\n\n  /**\n   * @notice Decreases the allowance of another user.\n   * @param spender The address which is being approved to spend Celo Gold.\n   * @param value The decrement of the amount of Celo Gold approved to the spender.\n   * @return True if the transaction succeeds.\n   */\n  function decreaseAllowance(address spender, uint256 value) external returns (bool) {\n    uint256 oldValue = allowed[msg.sender][spender];\n    uint256 newValue = oldValue.sub(value);\n    allowed[msg.sender][spender] = newValue;\n    emit Approval(msg.sender, spender, newValue);\n    return true;\n  }\n\n  /**\n   * @notice Transfers Celo Gold from one address to another on behalf of a user.\n   * @param from The address to transfer Celo Gold from.\n   * @param to The address to transfer Celo Gold to.\n   * @param value The amount of Celo Gold to transfer.\n   * @return True if the transaction succeeds.\n   */\n  function transferFrom(address from, address to, uint256 value)\n    external\n    onlyWhenNotFrozen\n    returns (bool)\n  {\n    require(to != address(0), \"transfer attempted to reserved address 0x0\");\n    require(value <= balanceOf(from), \"transfer value exceeded balance of sender\");\n    require(\n      value <= allowed[from][msg.sender],\n      \"transfer value exceeded sender's allowance for recipient\"\n    );\n\n    bool success;\n    (success, ) = TRANSFER.call.value(0).gas(gasleft())(abi.encode(from, to, value));\n    require(success, \"Celo Gold transfer failed\");\n\n    allowed[from][msg.sender] = allowed[from][msg.sender].sub(value);\n    emit Transfer(from, to, value);\n    return true;\n  }\n\n  /**\n   * @notice Mints new cGLD and gives it to 'to'.\n   * @param to The account for which to mint tokens.\n   * @param value The amount of cGLD to mint.\n   */\n  function mint(address to, uint256 value) external onlyVm returns (bool) {\n    require(value > 0, \"mint value must be > 0\");\n    totalSupply_ = totalSupply_.add(value);\n\n    bool success;\n    (success, ) = TRANSFER.call.value(0).gas(gasleft())(abi.encode(address(0), to, value));\n    require(success, \"Celo Gold transfer failed\");\n\n    emit Transfer(address(0), to, value);\n    return true;\n  }\n\n  /**\n   * @return The name of the Celo Gold token.\n   */\n  function name() external view returns (string memory) {\n    return NAME;\n  }\n\n  /**\n   * @return The symbol of the Celo Gold token.\n   */\n  function symbol() external view returns (string memory) {\n    return SYMBOL;\n  }\n\n  /**\n   * @return The number of decimal places to which Celo Gold is divisible.\n   */\n  function decimals() external view returns (uint8) {\n    return DECIMALS;\n  }\n\n  /**\n   * @return The total amount of Celo Gold in existence.\n   */\n  function totalSupply() external view returns (uint256) {\n    return totalSupply_;\n  }\n\n  /**\n   * @notice Gets the amount of owner's Celo Gold allowed to be spent by spender.\n   * @param owner The owner of the Celo Gold.\n   * @param spender The spender of the Celo Gold.\n   * @return The amount of Celo Gold owner is allowing spender to spend.\n   */\n  function allowance(address owner, address spender) external view returns (uint256) {\n    return allowed[owner][spender];\n  }\n\n  /**\n   * @notice Increases the variable for total amount of Celo Gold in existence.\n   * @param amount The amount to increase counter by\n   */\n  function increaseSupply(uint256 amount) external onlyVm {\n    totalSupply_ = totalSupply_.add(amount);\n  }\n\n  /**\n   * @notice Gets the balance of the specified address.\n   * @param owner The address to query the balance of.\n   * @return The balance of the specified address.\n   */\n  function balanceOf(address owner) public view returns (uint256) {\n    return owner.balance;\n  }\n\n  /**\n   * @notice internal Celo Gold transfer from one address to another.\n   * @param to The address to transfer Celo Gold to.\n   * @param value The amount of Celo Gold to transfer.\n   * @return True if the transaction succeeds.\n   */\n  function _transfer(address to, uint256 value) internal onlyWhenNotFrozen returns (bool) {\n    require(to != address(0), \"transfer attempted to reserved address 0x0\");\n    require(value <= balanceOf(msg.sender), \"transfer value exceeded balance of sender\");\n\n    bool success;\n    (success, ) = TRANSFER.call.value(0).gas(gasleft())(abi.encode(msg.sender, to, value));\n    require(success, \"Celo Gold transfer failed\");\n    emit Transfer(msg.sender, to, value);\n    return true;\n  }\n}\n",
  "sourcePath": "/Users/cmcewen/celo/celo-monorepo/packages/protocol/contracts/common/GoldToken.sol",
  "compiler": {
    "name": "solc",
    "version": "0.5.8+commit.23d335f2.Emscripten.clang"
  },
  "schemaVersion": "3.0.10",
  "updatedAt": "2020-04-09T23:47:18.106Z",
  "devdoc": {
    "methods": {
      "allowance(address,address)": {
        "params": {
          "owner": "The owner of the Celo Gold.",
          "spender": "The spender of the Celo Gold."
        },
        "return": "The amount of Celo Gold owner is allowing spender to spend."
      },
      "approve(address,uint256)": {
        "params": {
          "spender": "The address which is being approved to spend Celo Gold.",
          "value": "The amount of Celo Gold approved to the spender."
        },
        "return": "True if the transaction succeeds."
      },
      "balanceOf(address)": {
        "params": {
          "owner": "The address to query the balance of."
        },
        "return": "The balance of the specified address."
      },
      "decimals()": {
        "return": "The number of decimal places to which Celo Gold is divisible."
      },
      "decreaseAllowance(address,uint256)": {
        "params": {
          "spender": "The address which is being approved to spend Celo Gold.",
          "value": "The decrement of the amount of Celo Gold approved to the spender."
        },
        "return": "True if the transaction succeeds."
      },
      "increaseAllowance(address,uint256)": {
        "params": {
          "spender": "The address which is being approved to spend Celo Gold.",
          "value": "The increment of the amount of Celo Gold approved to the spender."
        },
        "return": "True if the transaction succeeds."
      },
      "increaseSupply(uint256)": {
        "params": {
          "amount": "The amount to increase counter by"
        }
      },
      "initialize(address)": {
        "params": {
          "registryAddress": "Address of the Registry contract."
        }
      },
      "isOwner()": {
        "details": "Returns true if the caller is the current owner."
      },
      "mint(address,uint256)": {
        "params": {
          "to": "The account for which to mint tokens.",
          "value": "The amount of cGLD to mint."
        }
      },
      "name()": {
        "return": "The name of the Celo Gold token."
      },
      "owner()": {
        "details": "Returns the address of the current owner."
      },
      "renounceOwnership()": {
        "details": "Leaves the contract without owner. It will not be possible to call `onlyOwner` functions anymore. Can only be called by the current owner.     * NOTE: Renouncing ownership will leave the contract without an owner, thereby removing any functionality that is only available to the owner."
      },
      "setRegistry(address)": {
        "params": {
          "registryAddress": "The address of a registry contract for routing to other contracts."
        }
      },
      "symbol()": {
        "return": "The symbol of the Celo Gold token."
      },
      "totalSupply()": {
        "return": "The total amount of Celo Gold in existence."
      },
      "transfer(address,uint256)": {
        "params": {
          "to": "The address to transfer Celo Gold to.",
          "value": "The amount of Celo Gold to transfer."
        },
        "return": "True if the transaction succeeds."
      },
      "transferFrom(address,address,uint256)": {
        "params": {
          "from": "The address to transfer Celo Gold from.",
          "to": "The address to transfer Celo Gold to.",
          "value": "The amount of Celo Gold to transfer."
        },
        "return": "True if the transaction succeeds."
      },
      "transferOwnership(address)": {
        "details": "Transfers ownership of the contract to a new account (`newOwner`). Can only be called by the current owner."
      },
      "transferWithComment(address,uint256,string)": {
        "params": {
          "comment": "The transfer comment",
          "to": "The address to transfer Celo Gold to.",
          "value": "The amount of Celo Gold to transfer."
        },
        "return": "True if the transaction succeeds."
      }
    }
  },
  "userdoc": {
    "methods": {
      "allowance(address,address)": {
        "notice": "Gets the amount of owner's Celo Gold allowed to be spent by spender."
      },
      "approve(address,uint256)": {
        "notice": "Approve a user to transfer Celo Gold on behalf of another user."
      },
      "balanceOf(address)": {
        "notice": "Gets the balance of the specified address."
      },
      "decreaseAllowance(address,uint256)": {
        "notice": "Decreases the allowance of another user."
      },
      "increaseAllowance(address,uint256)": {
        "notice": "Increases the allowance of another user."
      },
      "increaseSupply(uint256)": {
        "notice": "Increases the variable for total amount of Celo Gold in existence."
      },
      "initialize(address)": {
        "notice": "Used in place of the constructor to allow the contract to be upgradable via proxy."
      },
      "mint(address,uint256)": {
        "notice": "Mints new cGLD and gives it to 'to'."
      },
      "setRegistry(address)": {
        "notice": "Updates the address pointing to a Registry contract."
      },
      "transfer(address,uint256)": {
        "notice": "Transfers Celo Gold from one address to another."
      },
      "transferFrom(address,address,uint256)": {
        "notice": "Transfers Celo Gold from one address to another on behalf of a user."
      },
      "transferWithComment(address,uint256,string)": {
        "notice": "Transfers Celo Gold from one address to another with a comment."
      }
    }
  }
}