{
  "contractName": "GovernanceTest",
  "abi": [
    {
      "constant": true,
      "inputs": [],
      "name": "getQueue",
      "outputs": [
        {
          "name": "",
          "type": "uint256[]"
        },
        {
          "name": "",
          "type": "uint256[]"
        }
      ],
      "payable": false,
      "stateMutability": "view",
      "type": "function"
    },
    {
      "constant": false,
      "inputs": [
        {
          "name": "baselineQuorumFactor",
          "type": "uint256"
        }
      ],
      "name": "setBaselineQuorumFactor",
      "outputs": [],
      "payable": false,
      "stateMutability": "nonpayable",
      "type": "function"
    },
    {
      "constant": true,
      "inputs": [
        {
          "name": "hash",
          "type": "bytes32"
        }
      ],
      "name": "getHotfixRecord",
      "outputs": [
        {
          "name": "",
          "type": "bool"
        },
        {
          "name": "",
          "type": "bool"
        },
        {
          "name": "",
          "type": "uint256"
        }
      ],
      "payable": false,
      "stateMutability": "view",
      "type": "function"
    },
    {
      "constant": true,
      "inputs": [],
      "name": "stageDurations",
      "outputs": [
        {
          "name": "approval",
          "type": "uint256"
        },
        {
          "name": "referendum",
          "type": "uint256"
        },
        {
          "name": "execution",
          "type": "uint256"
        }
      ],
      "payable": false,
      "stateMutability": "view",
      "type": "function"
    },
    {
      "constant": true,
      "inputs": [],
      "name": "concurrentProposals",
      "outputs": [
        {
          "name": "",
          "type": "uint256"
        }
      ],
      "payable": false,
      "stateMutability": "view",
      "type": "function"
    },
    {
      "constant": true,
      "inputs": [
        {
          "name": "proposalId",
          "type": "uint256"
        }
      ],
      "name": "proposalExists",
      "outputs": [
        {
          "name": "",
          "type": "bool"
        }
      ],
      "payable": false,
      "stateMutability": "view",
      "type": "function"
    },
    {
      "constant": true,
      "inputs": [],
      "name": "approver",
      "outputs": [
        {
          "name": "",
          "type": "address"
        }
      ],
      "payable": false,
      "stateMutability": "view",
      "type": "function"
    },
    {
      "constant": true,
      "inputs": [
        {
          "name": "proposalId",
          "type": "uint256"
        },
        {
          "name": "index",
          "type": "uint256"
        }
      ],
      "name": "isDequeuedProposal",
      "outputs": [
        {
          "name": "",
          "type": "bool"
        }
      ],
      "payable": false,
      "stateMutability": "view",
      "type": "function"
    },
    {
      "constant": true,
      "inputs": [],
      "name": "initialized",
      "outputs": [
        {
          "name": "",
          "type": "bool"
        }
      ],
      "payable": false,
      "stateMutability": "view",
      "type": "function"
    },
    {
      "constant": false,
      "inputs": [
        {
          "name": "participationFloor",
          "type": "uint256"
        }
      ],
      "name": "setParticipationFloor",
      "outputs": [],
      "payable": false,
      "stateMutability": "nonpayable",
      "type": "function"
    },
    {
      "constant": true,
      "inputs": [
        {
          "name": "sender",
          "type": "address"
        },
        {
          "name": "blsKey",
          "type": "bytes"
        },
        {
          "name": "blsPop",
          "type": "bytes"
        }
      ],
      "name": "checkProofOfPossession",
      "outputs": [
        {
          "name": "",
          "type": "bool"
        }
      ],
      "payable": false,
      "stateMutability": "view",
      "type": "function"
    },
    {
      "constant": true,
      "inputs": [
        {
          "name": "proposalId",
          "type": "uint256"
        }
      ],
      "name": "isProposalPassing",
      "outputs": [
        {
          "name": "",
          "type": "bool"
        }
      ],
      "payable": false,
      "stateMutability": "view",
      "type": "function"
    },
    {
      "constant": true,
      "inputs": [
        {
          "name": "account",
          "type": "address"
        }
      ],
      "name": "getMostRecentReferendumProposal",
      "outputs": [
        {
          "name": "",
          "type": "uint256"
        }
      ],
      "payable": false,
      "stateMutability": "view",
      "type": "function"
    },
    {
      "constant": false,
      "inputs": [
        {
          "name": "_queueExpiry",
          "type": "uint256"
        }
      ],
      "name": "setQueueExpiry",
      "outputs": [],
      "payable": false,
      "stateMutability": "nonpayable",
      "type": "function"
    },
    {
      "constant": true,
      "inputs": [],
      "name": "getExecutionStageDuration",
      "outputs": [
        {
          "name": "",
          "type": "uint256"
        }
      ],
      "payable": false,
      "stateMutability": "view",
      "type": "function"
    },
    {
      "constant": false,
      "inputs": [
        {
          "name": "_approver",
          "type": "address"
        }
      ],
      "name": "setApprover",
      "outputs": [],
      "payable": false,
      "stateMutability": "nonpayable",
      "type": "function"
    },
    {
      "constant": true,
      "inputs": [
        {
          "name": "hash",
          "type": "bytes32"
        }
      ],
      "name": "isHotfixPassing",
      "outputs": [
        {
          "name": "",
          "type": "bool"
        }
      ],
      "payable": false,
      "stateMutability": "view",
      "type": "function"
    },
    {
      "constant": true,
      "inputs": [
        {
          "name": "blockNumber",
          "type": "uint256"
        }
      ],
      "name": "getEpochNumberOfBlock",
      "outputs": [
        {
          "name": "",
          "type": "uint256"
        }
      ],
      "payable": false,
      "stateMutability": "view",
      "type": "function"
    },
    {
      "constant": false,
      "inputs": [],
      "name": "dequeueProposalsIfReady",
      "outputs": [],
      "payable": false,
      "stateMutability": "nonpayable",
      "type": "function"
    },
    {
      "constant": false,
      "inputs": [],
      "name": "withdraw",
      "outputs": [
        {
          "name": "",
          "type": "bool"
        }
      ],
      "payable": false,
      "stateMutability": "nonpayable",
      "type": "function"
    },
    {
      "constant": false,
      "inputs": [
        {
          "name": "participationBaseline",
          "type": "uint256"
        }
      ],
      "name": "setParticipationBaseline",
      "outputs": [],
      "payable": false,
      "stateMutability": "nonpayable",
      "type": "function"
    },
    {
      "constant": true,
      "inputs": [
        {
          "name": "hash",
          "type": "bytes32"
        },
        {
          "name": "whitelister",
          "type": "address"
        }
      ],
      "name": "isHotfixWhitelistedBy",
      "outputs": [
        {
          "name": "",
          "type": "bool"
        }
      ],
      "payable": false,
      "stateMutability": "view",
      "type": "function"
    },
    {
      "constant": true,
      "inputs": [],
      "name": "minDeposit",
      "outputs": [
        {
          "name": "",
          "type": "uint256"
        }
      ],
      "payable": false,
      "stateMutability": "view",
      "type": "function"
    },
    {
      "constant": true,
      "inputs": [
        {
          "name": "",
          "type": "bytes32"
        }
      ],
      "name": "hotfixes",
      "outputs": [
        {
          "name": "executed",
          "type": "bool"
        },
        {
          "name": "approved",
          "type": "bool"
        },
        {
          "name": "preparedEpoch",
          "type": "uint256"
        }
      ],
      "payable": false,
      "stateMutability": "view",
      "type": "function"
    },
    {
      "constant": true,
      "inputs": [
        {
          "name": "header",
          "type": "bytes"
        }
      ],
      "name": "getVerifiedSealBitmapFromHeader",
      "outputs": [
        {
          "name": "",
          "type": "bytes32"
        }
      ],
      "payable": false,
      "stateMutability": "view",
      "type": "function"
    },
    {
      "constant": false,
      "inputs": [
        {
          "name": "proposalId",
          "type": "uint256"
        },
        {
          "name": "index",
          "type": "uint256"
        }
      ],
      "name": "execute",
      "outputs": [
        {
          "name": "",
          "type": "bool"
        }
      ],
      "payable": false,
      "stateMutability": "nonpayable",
      "type": "function"
    },
    {
      "constant": false,
      "inputs": [
        {
          "name": "proposalId",
          "type": "uint256"
        },
        {
          "name": "lesser",
          "type": "uint256"
        },
        {
          "name": "greater",
          "type": "uint256"
        }
      ],
      "name": "upvote",
      "outputs": [
        {
          "name": "",
          "type": "bool"
        }
      ],
      "payable": false,
      "stateMutability": "nonpayable",
      "type": "function"
    },
    {
      "constant": true,
      "inputs": [
        {
          "name": "proposalId",
          "type": "uint256"
        }
      ],
      "name": "getProposalStage",
      "outputs": [
        {
          "name": "",
          "type": "uint8"
        }
      ],
      "payable": false,
      "stateMutability": "view",
      "type": "function"
    },
    {
      "constant": false,
      "inputs": [
        {
          "name": "baselineUpdateFactor",
          "type": "uint256"
        }
      ],
      "name": "setBaselineUpdateFactor",
      "outputs": [],
      "payable": false,
      "stateMutability": "nonpayable",
      "type": "function"
    },
    {
      "constant": true,
      "inputs": [
        {
          "name": "index",
          "type": "uint256"
        },
        {
          "name": "blockNumber",
          "type": "uint256"
        }
      ],
      "name": "validatorSignerAddressFromSet",
      "outputs": [
        {
          "name": "",
          "type": "address"
        }
      ],
      "payable": false,
      "stateMutability": "view",
      "type": "function"
    },
    {
      "constant": false,
      "inputs": [
        {
          "name": "proposalId",
          "type": "uint256"
        },
        {
          "name": "index",
          "type": "uint256"
        }
      ],
      "name": "approve",
      "outputs": [
        {
          "name": "",
          "type": "bool"
        }
      ],
      "payable": false,
      "stateMutability": "nonpayable",
      "type": "function"
    },
    {
      "constant": true,
      "inputs": [
        {
          "name": "account",
          "type": "address"
        },
        {
          "name": "index",
          "type": "uint256"
        }
      ],
      "name": "getVoteRecord",
      "outputs": [
        {
          "name": "",
          "type": "uint256"
        },
        {
          "name": "",
          "type": "uint256"
        }
      ],
      "payable": false,
      "stateMutability": "view",
      "type": "function"
    },
    {
      "constant": true,
      "inputs": [
        {
          "name": "account",
          "type": "address"
        }
      ],
      "name": "isVoting",
      "outputs": [
        {
          "name": "",
          "type": "bool"
        }
      ],
      "payable": false,
      "stateMutability": "view",
      "type": "function"
    },
    {
      "constant": true,
      "inputs": [
        {
          "name": "",
          "type": "address"
        }
      ],
      "name": "refundedDeposits",
      "outputs": [
        {
          "name": "",
          "type": "uint256"
        }
      ],
      "payable": false,
      "stateMutability": "view",
      "type": "function"
    },
    {
      "constant": false,
      "inputs": [
        {
          "name": "values",
          "type": "uint256[]"
        },
        {
          "name": "destinations",
          "type": "address[]"
        },
        {
          "name": "data",
          "type": "bytes"
        },
        {
          "name": "dataLengths",
          "type": "uint256[]"
        },
        {
          "name": "descriptionUrl",
          "type": "string"
        }
      ],
      "name": "propose",
      "outputs": [
        {
          "name": "",
          "type": "uint256"
        }
      ],
      "payable": true,
      "stateMutability": "payable",
      "type": "function"
    },
    {
      "constant": false,
      "inputs": [
        {
          "name": "executionStageDuration",
          "type": "uint256"
        }
      ],
      "name": "setExecutionStageDuration",
      "outputs": [],
      "payable": false,
      "stateMutability": "nonpayable",
      "type": "function"
    },
    {
      "constant": true,
      "inputs": [
        {
          "name": "header",
          "type": "bytes"
        }
      ],
      "name": "hashHeader",
      "outputs": [
        {
          "name": "",
          "type": "bytes32"
        }
      ],
      "payable": false,
      "stateMutability": "view",
      "type": "function"
    },
    {
      "constant": true,
      "inputs": [],
      "name": "getDequeue",
      "outputs": [
        {
          "name": "",
          "type": "uint256[]"
        }
      ],
      "payable": false,
      "stateMutability": "view",
      "type": "function"
    },
    {
      "constant": true,
      "inputs": [
        {
          "name": "proposalId",
          "type": "uint256"
        }
      ],
      "name": "isDequeuedProposalExpired",
      "outputs": [
        {
          "name": "",
          "type": "bool"
        }
      ],
      "payable": false,
      "stateMutability": "view",
      "type": "function"
    },
    {
      "constant": false,
      "inputs": [],
      "name": "renounceOwnership",
      "outputs": [],
      "payable": false,
      "stateMutability": "nonpayable",
      "type": "function"
    },
    {
      "constant": true,
      "inputs": [],
      "name": "minQuorumSizeInCurrentSet",
      "outputs": [
        {
          "name": "",
          "type": "uint256"
        }
      ],
      "payable": false,
      "stateMutability": "view",
      "type": "function"
    },
    {
      "constant": true,
      "inputs": [],
      "name": "dequeueFrequency",
      "outputs": [
        {
          "name": "",
          "type": "uint256"
        }
      ],
      "payable": false,
      "stateMutability": "view",
      "type": "function"
    },
    {
      "constant": true,
      "inputs": [
        {
          "name": "proposalId",
          "type": "uint256"
        }
      ],
      "name": "isApproved",
      "outputs": [
        {
          "name": "",
          "type": "bool"
        }
      ],
      "payable": false,
      "stateMutability": "view",
      "type": "function"
    },
    {
      "constant": true,
      "inputs": [],
      "name": "registry",
      "outputs": [
        {
          "name": "",
          "type": "address"
        }
      ],
      "payable": false,
      "stateMutability": "view",
      "type": "function"
    },
    {
      "constant": false,
      "inputs": [
        {
          "name": "_dequeueFrequency",
          "type": "uint256"
        }
      ],
      "name": "setDequeueFrequency",
      "outputs": [],
      "payable": false,
      "stateMutability": "nonpayable",
      "type": "function"
    },
    {
      "constant": true,
      "inputs": [
        {
          "name": "hash",
          "type": "bytes32"
        }
      ],
      "name": "hotfixWhitelistValidatorTally",
      "outputs": [
        {
          "name": "",
          "type": "uint256"
        }
      ],
      "payable": false,
      "stateMutability": "view",
      "type": "function"
    },
    {
      "constant": true,
      "inputs": [
        {
          "name": "header",
          "type": "bytes"
        }
      ],
      "name": "getBlockNumberFromHeader",
      "outputs": [
        {
          "name": "",
          "type": "uint256"
        }
      ],
      "payable": false,
      "stateMutability": "view",
      "type": "function"
    },
    {
      "constant": true,
      "inputs": [],
      "name": "owner",
      "outputs": [
        {
          "name": "",
          "type": "address"
        }
      ],
      "payable": false,
      "stateMutability": "view",
      "type": "function"
    },
    {
      "constant": true,
      "inputs": [],
      "name": "queueExpiry",
      "outputs": [
        {
          "name": "",
          "type": "uint256"
        }
      ],
      "payable": false,
      "stateMutability": "view",
      "type": "function"
    },
    {
      "constant": true,
      "inputs": [],
      "name": "isOwner",
      "outputs": [
        {
          "name": "",
          "type": "bool"
        }
      ],
      "payable": false,
      "stateMutability": "view",
      "type": "function"
    },
    {
      "constant": false,
      "inputs": [
        {
          "name": "_minDeposit",
          "type": "uint256"
        }
      ],
      "name": "setMinDeposit",
      "outputs": [],
      "payable": false,
      "stateMutability": "nonpayable",
      "type": "function"
    },
    {
      "constant": true,
      "inputs": [
        {
          "name": "destination",
          "type": "address"
        },
        {
          "name": "functionId",
          "type": "bytes4"
        }
      ],
      "name": "getConstitution",
      "outputs": [
        {
          "name": "",
          "type": "uint256"
        }
      ],
      "payable": false,
      "stateMutability": "view",
      "type": "function"
    },
    {
      "constant": true,
      "inputs": [
        {
          "name": "proposalId",
          "type": "uint256"
        }
      ],
      "name": "getUpvotes",
      "outputs": [
        {
          "name": "",
          "type": "uint256"
        }
      ],
      "payable": false,
      "stateMutability": "view",
      "type": "function"
    },
    {
      "constant": false,
      "inputs": [
        {
          "name": "approvalStageDuration",
          "type": "uint256"
        }
      ],
      "name": "setApprovalStageDuration",
      "outputs": [],
      "payable": false,
      "stateMutability": "nonpayable",
      "type": "function"
    },
    {
      "constant": true,
      "inputs": [],
      "name": "getEpochNumber",
      "outputs": [
        {
          "name": "",
          "type": "uint256"
        }
      ],
      "payable": false,
      "stateMutability": "view",
      "type": "function"
    },
    {
      "constant": false,
      "inputs": [
        {
          "name": "hash",
          "type": "bytes32"
        }
      ],
      "name": "prepareHotfix",
      "outputs": [],
      "payable": false,
      "stateMutability": "nonpayable",
      "type": "function"
    },
    {
      "constant": false,
      "inputs": [
        {
          "name": "registryAddress",
          "type": "address"
        }
      ],
      "name": "setRegistry",
      "outputs": [],
      "payable": false,
      "stateMutability": "nonpayable",
      "type": "function"
    },
    {
      "constant": true,
      "inputs": [
        {
          "name": "",
          "type": "uint256"
        }
      ],
      "name": "emptyIndices",
      "outputs": [
        {
          "name": "",
          "type": "uint256"
        }
      ],
      "payable": false,
      "stateMutability": "view",
      "type": "function"
    },
    {
      "constant": true,
      "inputs": [],
      "name": "getReferendumStageDuration",
      "outputs": [
        {
          "name": "",
          "type": "uint256"
        }
      ],
      "payable": false,
      "stateMutability": "view",
      "type": "function"
    },
    {
      "constant": true,
      "inputs": [
        {
          "name": "",
          "type": "uint256"
        }
      ],
      "name": "dequeued",
      "outputs": [
        {
          "name": "",
          "type": "uint256"
        }
      ],
      "payable": false,
      "stateMutability": "view",
      "type": "function"
    },
    {
      "constant": false,
      "inputs": [
        {
          "name": "lesser",
          "type": "uint256"
        },
        {
          "name": "greater",
          "type": "uint256"
        }
      ],
      "name": "revokeUpvote",
      "outputs": [
        {
          "name": "",
          "type": "bool"
        }
      ],
      "payable": false,
      "stateMutability": "nonpayable",
      "type": "function"
    },
    {
      "constant": false,
      "inputs": [
        {
          "name": "hash",
          "type": "bytes32"
        }
      ],
      "name": "approveHotfix",
      "outputs": [],
      "payable": false,
      "stateMutability": "nonpayable",
      "type": "function"
    },
    {
      "constant": false,
      "inputs": [
        {
          "name": "hash",
          "type": "bytes32"
        }
      ],
      "name": "whitelistHotfix",
      "outputs": [],
      "payable": false,
      "stateMutability": "nonpayable",
      "type": "function"
    },
    {
      "constant": true,
      "inputs": [],
      "name": "getQueueLength",
      "outputs": [
        {
          "name": "",
          "type": "uint256"
        }
      ],
      "payable": false,
      "stateMutability": "view",
      "type": "function"
    },
    {
      "constant": false,
      "inputs": [
        {
          "name": "proposalId",
          "type": "uint256"
        },
        {
          "name": "index",
          "type": "uint256"
        },
        {
          "name": "value",
          "type": "uint8"
        }
      ],
      "name": "vote",
      "outputs": [
        {
          "name": "",
          "type": "bool"
        }
      ],
      "payable": false,
      "stateMutability": "nonpayable",
      "type": "function"
    },
    {
      "constant": true,
      "inputs": [],
      "name": "lastDequeue",
      "outputs": [
        {
          "name": "",
          "type": "uint256"
        }
      ],
      "payable": false,
      "stateMutability": "view",
      "type": "function"
    },
    {
      "constant": true,
      "inputs": [
        {
          "name": "proposalId",
          "type": "uint256"
        }
      ],
      "name": "isQueuedProposalExpired",
      "outputs": [
        {
          "name": "",
          "type": "bool"
        }
      ],
      "payable": false,
      "stateMutability": "view",
      "type": "function"
    },
    {
      "constant": false,
      "inputs": [
        {
          "name": "registryAddress",
          "type": "address"
        },
        {
          "name": "_approver",
          "type": "address"
        },
        {
          "name": "_concurrentProposals",
          "type": "uint256"
        },
        {
          "name": "_minDeposit",
          "type": "uint256"
        },
        {
          "name": "_queueExpiry",
          "type": "uint256"
        },
        {
          "name": "_dequeueFrequency",
          "type": "uint256"
        },
        {
          "name": "approvalStageDuration",
          "type": "uint256"
        },
        {
          "name": "referendumStageDuration",
          "type": "uint256"
        },
        {
          "name": "executionStageDuration",
          "type": "uint256"
        },
        {
          "name": "participationBaseline",
          "type": "uint256"
        },
        {
          "name": "participationFloor",
          "type": "uint256"
        },
        {
          "name": "baselineUpdateFactor",
          "type": "uint256"
        },
        {
          "name": "baselineQuorumFactor",
          "type": "uint256"
        }
      ],
      "name": "initialize",
      "outputs": [],
      "payable": false,
      "stateMutability": "nonpayable",
      "type": "function"
    },
    {
      "constant": true,
      "inputs": [
        {
          "name": "proposalId",
          "type": "uint256"
        }
      ],
      "name": "isQueued",
      "outputs": [
        {
          "name": "",
          "type": "bool"
        }
      ],
      "payable": false,
      "stateMutability": "view",
      "type": "function"
    },
    {
      "constant": true,
      "inputs": [
        {
          "name": "proposalId",
          "type": "uint256"
        }
      ],
      "name": "getProposal",
      "outputs": [
        {
          "name": "",
          "type": "address"
        },
        {
          "name": "",
          "type": "uint256"
        },
        {
          "name": "",
          "type": "uint256"
        },
        {
          "name": "",
          "type": "uint256"
        },
        {
          "name": "",
          "type": "string"
        }
      ],
      "payable": false,
      "stateMutability": "view",
      "type": "function"
    },
    {
      "constant": true,
      "inputs": [],
      "name": "getParticipationParameters",
      "outputs": [
        {
          "name": "",
          "type": "uint256"
        },
        {
          "name": "",
          "type": "uint256"
        },
        {
          "name": "",
          "type": "uint256"
        },
        {
          "name": "",
          "type": "uint256"
        }
      ],
      "payable": false,
      "stateMutability": "view",
      "type": "function"
    },
    {
      "constant": false,
      "inputs": [
        {
          "name": "_concurrentProposals",
          "type": "uint256"
        }
      ],
      "name": "setConcurrentProposals",
      "outputs": [],
      "payable": false,
      "stateMutability": "nonpayable",
      "type": "function"
    },
    {
      "constant": true,
      "inputs": [
        {
          "name": "account",
          "type": "address"
        }
      ],
      "name": "getUpvoteRecord",
      "outputs": [
        {
          "name": "",
          "type": "uint256"
        },
        {
          "name": "",
          "type": "uint256"
        }
      ],
      "payable": false,
      "stateMutability": "view",
      "type": "function"
    },
    {
      "constant": false,
      "inputs": [
        {
          "name": "referendumStageDuration",
          "type": "uint256"
        }
      ],
      "name": "setReferendumStageDuration",
      "outputs": [],
      "payable": false,
      "stateMutability": "nonpayable",
      "type": "function"
    },
    {
      "constant": false,
      "inputs": [
        {
          "name": "values",
          "type": "uint256[]"
        },
        {
          "name": "destinations",
          "type": "address[]"
        },
        {
          "name": "data",
          "type": "bytes"
        },
        {
          "name": "dataLengths",
          "type": "uint256[]"
        },
        {
          "name": "salt",
          "type": "bytes32"
        }
      ],
      "name": "executeHotfix",
      "outputs": [],
      "payable": false,
      "stateMutability": "nonpayable",
      "type": "function"
    },
    {
      "constant": true,
      "inputs": [
        {
          "name": "proposalId",
          "type": "uint256"
        },
        {
          "name": "index",
          "type": "uint256"
        }
      ],
      "name": "getProposalTransaction",
      "outputs": [
        {
          "name": "",
          "type": "uint256"
        },
        {
          "name": "",
          "type": "address"
        },
        {
          "name": "",
          "type": "bytes"
        }
      ],
      "payable": false,
      "stateMutability": "view",
      "type": "function"
    },
    {
      "constant": true,
      "inputs": [],
      "name": "proposalCount",
      "outputs": [
        {
          "name": "",
          "type": "uint256"
        }
      ],
      "payable": false,
      "stateMutability": "view",
      "type": "function"
    },
    {
      "constant": true,
      "inputs": [],
      "name": "getEpochSize",
      "outputs": [
        {
          "name": "",
          "type": "uint256"
        }
      ],
      "payable": false,
      "stateMutability": "view",
      "type": "function"
    },
    {
      "constant": true,
      "inputs": [
        {
          "name": "proposalId",
          "type": "uint256"
        }
      ],
      "name": "getVoteTotals",
      "outputs": [
        {
          "name": "",
          "type": "uint256"
        },
        {
          "name": "",
          "type": "uint256"
        },
        {
          "name": "",
          "type": "uint256"
        }
      ],
      "payable": false,
      "stateMutability": "view",
      "type": "function"
    },
    {
      "constant": true,
      "inputs": [
        {
          "name": "blockNumber",
          "type": "uint256"
        }
      ],
      "name": "minQuorumSize",
      "outputs": [
        {
          "name": "",
          "type": "uint256"
        }
      ],
      "payable": false,
      "stateMutability": "view",
      "type": "function"
    },
    {
      "constant": true,
      "inputs": [
        {
          "name": "aNumerator",
          "type": "uint256"
        },
        {
          "name": "aDenominator",
          "type": "uint256"
        },
        {
          "name": "bNumerator",
          "type": "uint256"
        },
        {
          "name": "bDenominator",
          "type": "uint256"
        },
        {
          "name": "exponent",
          "type": "uint256"
        },
        {
          "name": "_decimals",
          "type": "uint256"
        }
      ],
      "name": "fractionMulExp",
      "outputs": [
        {
          "name": "",
          "type": "uint256"
        },
        {
          "name": "",
          "type": "uint256"
        }
      ],
      "payable": false,
      "stateMutability": "view",
      "type": "function"
    },
    {
      "constant": false,
      "inputs": [
        {
          "name": "destination",
          "type": "address"
        },
        {
          "name": "functionId",
          "type": "bytes4"
        },
        {
          "name": "threshold",
          "type": "uint256"
        }
      ],
      "name": "setConstitution",
      "outputs": [],
      "payable": false,
      "stateMutability": "nonpayable",
      "type": "function"
    },
    {
      "constant": false,
      "inputs": [
        {
          "name": "newOwner",
          "type": "address"
        }
      ],
      "name": "transferOwnership",
      "outputs": [],
      "payable": false,
      "stateMutability": "nonpayable",
      "type": "function"
    },
    {
      "constant": true,
      "inputs": [
        {
          "name": "blockNumber",
          "type": "uint256"
        }
      ],
      "name": "getParentSealBitmap",
      "outputs": [
        {
          "name": "",
          "type": "bytes32"
        }
      ],
      "payable": false,
      "stateMutability": "view",
      "type": "function"
    },
    {
      "constant": true,
      "inputs": [],
      "name": "getApprovalStageDuration",
      "outputs": [
        {
          "name": "",
          "type": "uint256"
        }
      ],
      "payable": false,
      "stateMutability": "view",
      "type": "function"
    },
    {
      "payable": true,
      "stateMutability": "payable",
      "type": "fallback"
    },
    {
      "anonymous": false,
      "inputs": [
        {
          "indexed": true,
          "name": "approver",
          "type": "address"
        }
      ],
      "name": "ApproverSet",
      "type": "event"
    },
    {
      "anonymous": false,
      "inputs": [
        {
          "indexed": false,
          "name": "concurrentProposals",
          "type": "uint256"
        }
      ],
      "name": "ConcurrentProposalsSet",
      "type": "event"
    },
    {
      "anonymous": false,
      "inputs": [
        {
          "indexed": false,
          "name": "minDeposit",
          "type": "uint256"
        }
      ],
      "name": "MinDepositSet",
      "type": "event"
    },
    {
      "anonymous": false,
      "inputs": [
        {
          "indexed": false,
          "name": "queueExpiry",
          "type": "uint256"
        }
      ],
      "name": "QueueExpirySet",
      "type": "event"
    },
    {
      "anonymous": false,
      "inputs": [
        {
          "indexed": false,
          "name": "dequeueFrequency",
          "type": "uint256"
        }
      ],
      "name": "DequeueFrequencySet",
      "type": "event"
    },
    {
      "anonymous": false,
      "inputs": [
        {
          "indexed": false,
          "name": "approvalStageDuration",
          "type": "uint256"
        }
      ],
      "name": "ApprovalStageDurationSet",
      "type": "event"
    },
    {
      "anonymous": false,
      "inputs": [
        {
          "indexed": false,
          "name": "referendumStageDuration",
          "type": "uint256"
        }
      ],
      "name": "ReferendumStageDurationSet",
      "type": "event"
    },
    {
      "anonymous": false,
      "inputs": [
        {
          "indexed": false,
          "name": "executionStageDuration",
          "type": "uint256"
        }
      ],
      "name": "ExecutionStageDurationSet",
      "type": "event"
    },
    {
      "anonymous": false,
      "inputs": [
        {
          "indexed": true,
          "name": "destination",
          "type": "address"
        },
        {
          "indexed": true,
          "name": "functionId",
          "type": "bytes4"
        },
        {
          "indexed": false,
          "name": "threshold",
          "type": "uint256"
        }
      ],
      "name": "ConstitutionSet",
      "type": "event"
    },
    {
      "anonymous": false,
      "inputs": [
        {
          "indexed": true,
          "name": "proposalId",
          "type": "uint256"
        },
        {
          "indexed": true,
          "name": "proposer",
          "type": "address"
        },
        {
          "indexed": false,
          "name": "transactionCount",
          "type": "uint256"
        },
        {
          "indexed": false,
          "name": "deposit",
          "type": "uint256"
        },
        {
          "indexed": false,
          "name": "timestamp",
          "type": "uint256"
        }
      ],
      "name": "ProposalQueued",
      "type": "event"
    },
    {
      "anonymous": false,
      "inputs": [
        {
          "indexed": true,
          "name": "proposalId",
          "type": "uint256"
        },
        {
          "indexed": true,
          "name": "account",
          "type": "address"
        },
        {
          "indexed": false,
          "name": "upvotes",
          "type": "uint256"
        }
      ],
      "name": "ProposalUpvoted",
      "type": "event"
    },
    {
      "anonymous": false,
      "inputs": [
        {
          "indexed": true,
          "name": "proposalId",
          "type": "uint256"
        },
        {
          "indexed": true,
          "name": "account",
          "type": "address"
        },
        {
          "indexed": false,
          "name": "revokedUpvotes",
          "type": "uint256"
        }
      ],
      "name": "ProposalUpvoteRevoked",
      "type": "event"
    },
    {
      "anonymous": false,
      "inputs": [
        {
          "indexed": true,
          "name": "proposalId",
          "type": "uint256"
        },
        {
          "indexed": false,
          "name": "timestamp",
          "type": "uint256"
        }
      ],
      "name": "ProposalDequeued",
      "type": "event"
    },
    {
      "anonymous": false,
      "inputs": [
        {
          "indexed": true,
          "name": "proposalId",
          "type": "uint256"
        }
      ],
      "name": "ProposalApproved",
      "type": "event"
    },
    {
      "anonymous": false,
      "inputs": [
        {
          "indexed": true,
          "name": "proposalId",
          "type": "uint256"
        },
        {
          "indexed": true,
          "name": "account",
          "type": "address"
        },
        {
          "indexed": false,
          "name": "value",
          "type": "uint256"
        },
        {
          "indexed": false,
          "name": "weight",
          "type": "uint256"
        }
      ],
      "name": "ProposalVoted",
      "type": "event"
    },
    {
      "anonymous": false,
      "inputs": [
        {
          "indexed": true,
          "name": "proposalId",
          "type": "uint256"
        }
      ],
      "name": "ProposalExecuted",
      "type": "event"
    },
    {
      "anonymous": false,
      "inputs": [
        {
          "indexed": true,
          "name": "proposalId",
          "type": "uint256"
        }
      ],
      "name": "ProposalExpired",
      "type": "event"
    },
    {
      "anonymous": false,
      "inputs": [
        {
          "indexed": false,
          "name": "participationBaseline",
          "type": "uint256"
        }
      ],
      "name": "ParticipationBaselineUpdated",
      "type": "event"
    },
    {
      "anonymous": false,
      "inputs": [
        {
          "indexed": false,
          "name": "participationFloor",
          "type": "uint256"
        }
      ],
      "name": "ParticipationFloorSet",
      "type": "event"
    },
    {
      "anonymous": false,
      "inputs": [
        {
          "indexed": false,
          "name": "baselineUpdateFactor",
          "type": "uint256"
        }
      ],
      "name": "ParticipationBaselineUpdateFactorSet",
      "type": "event"
    },
    {
      "anonymous": false,
      "inputs": [
        {
          "indexed": false,
          "name": "baselineQuorumFactor",
          "type": "uint256"
        }
      ],
      "name": "ParticipationBaselineQuorumFactorSet",
      "type": "event"
    },
    {
      "anonymous": false,
      "inputs": [
        {
          "indexed": true,
          "name": "hash",
          "type": "bytes32"
        },
        {
          "indexed": false,
          "name": "whitelister",
          "type": "address"
        }
      ],
      "name": "HotfixWhitelisted",
      "type": "event"
    },
    {
      "anonymous": false,
      "inputs": [
        {
          "indexed": true,
          "name": "hash",
          "type": "bytes32"
        }
      ],
      "name": "HotfixApproved",
      "type": "event"
    },
    {
      "anonymous": false,
      "inputs": [
        {
          "indexed": true,
          "name": "hash",
          "type": "bytes32"
        },
        {
          "indexed": true,
          "name": "epoch",
          "type": "uint256"
        }
      ],
      "name": "HotfixPrepared",
      "type": "event"
    },
    {
      "anonymous": false,
      "inputs": [
        {
          "indexed": true,
          "name": "hash",
          "type": "bytes32"
        }
      ],
      "name": "HotfixExecuted",
      "type": "event"
    },
    {
      "anonymous": false,
      "inputs": [
        {
          "indexed": true,
          "name": "registryAddress",
          "type": "address"
        }
      ],
      "name": "RegistrySet",
      "type": "event"
    },
    {
      "anonymous": false,
      "inputs": [
        {
          "indexed": true,
          "name": "previousOwner",
          "type": "address"
        },
        {
          "indexed": true,
          "name": "newOwner",
          "type": "address"
        }
      ],
      "name": "OwnershipTransferred",
      "type": "event"
    },
    {
      "constant": true,
      "inputs": [],
      "name": "numberValidatorsInCurrentSet",
      "outputs": [
        {
          "name": "",
          "type": "uint256"
        }
      ],
      "payable": false,
      "stateMutability": "view",
      "type": "function"
    },
    {
      "constant": true,
      "inputs": [
        {
          "name": "",
          "type": "uint256"
        }
      ],
      "name": "numberValidatorsInSet",
      "outputs": [
        {
          "name": "",
          "type": "uint256"
        }
      ],
      "payable": false,
      "stateMutability": "view",
      "type": "function"
    },
    {
      "constant": true,
      "inputs": [
        {
          "name": "index",
          "type": "uint256"
        }
      ],
      "name": "validatorSignerAddressFromCurrentSet",
      "outputs": [
        {
          "name": "",
          "type": "address"
        }
      ],
      "payable": false,
      "stateMutability": "view",
      "type": "function"
    },
    {
      "constant": false,
      "inputs": [
        {
          "name": "validator",
          "type": "address"
        }
      ],
      "name": "addValidator",
      "outputs": [],
      "payable": false,
      "stateMutability": "nonpayable",
      "type": "function"
    }
  ],
  "bytecode": "0x6080604052600062000016620000c160201b60201c565b9050806000806101000a81548173ffffffffffffffffffffffffffffffffffffffff021916908373ffffffffffffffffffffffffffffffffffffffff1602179055508073ffffffffffffffffffffffffffffffffffffffff16600073ffffffffffffffffffffffffffffffffffffffff167f8be0079c531659141344cd1fd0a4f28419497f9722a3daafe3b4186f6b6457e060405160405180910390a35060018081905550620000c9565b600033905090565b61b54d80620000d96000396000f3fe6080604052600436106104d65760003560e01c80637910867b11610281578063b15f0f581161015a578063cea69e74116100cc578063e50e652d11610085578063e50e652d14612573578063ec683072146125c2578063ed3852741461264a578063f2fde38b146126ce578063fae8db0a1461271f578063ffea74c01461276e576104d6565b8063cea69e74146121fe578063cf48eb9414612239578063d704f0c5146123c8578063da35c664146124c0578063df4da461146124eb578063e41db45514612516576104d6565b8063c1939b201161011e578063c1939b2014611ee8578063c73a6d7814611fc8578063c7f758a81461201b578063c805956d14612117578063c8d8d2b514612157578063cd845a7614612192576104d6565b8063b15f0f5814611d9a578063b8f7700514611dd5578063bbb2eab914611e00578063c0aee5f414611e6a578063c134b2fc14611e95576104d6565b806398f42702116101f3578063a91ee0dc116101b7578063a91ee0dc14611be8578063aa2feb8314611c39578063ad78c10914611c88578063add004df14611cb3578063af108a0e14611d02578063b0f9984214611d5f576104d6565b806398f4270214611aa95780639a6c3d8314611af85780639a7b3be714611b335780639b2b592f14611b5e5780639cb02dfc14611bad576104d6565b80638a883626116102455780638a883626146118535780638da5cb5b1461192f5780638e905ed6146119865780638f32d59b146119b15780638fcc9cfb146119e057806397b9eba614611a1b576104d6565b80637910867b146116f45780637b103999146117475780638018556e1461179e57806381d4728d146117d957806387ee8a0f14611828576104d6565b80633fa5fed0116103b35780635f115a851161032557806367960e91116102e957806367960e91146114ec5780636de8a63b146115c85780636f2ab69314611634578063715018a6146116875780637385e5da1461169e57806377d26a2a146116c9576104d6565b80635f115a851461118c5780635f8dd6491461120257806360b4d34d1461126b57806365bbdaa0146112d05780636643ac58146114b1576104d6565b80635601eaea116103775780635601eaea14610f4e5780635733397814610fab578063582ae53b146110125780635c7593941461106f5780635d180adb146110aa5780635d35a3d91461112f576104d6565b80633fa5fed014610d1e57806341b3d18514610d9157806345a7849914610dbc5780634b2c2f4414610e215780634d238c8e14610efd576104d6565b806323f0ab651161044c5780633156560e116104105780633156560e14610baa578063344944cf14610bfb5780633b1eb4bf14610c4e5780633bb0ed2b14610c9d5780633ccfd60b14610cb45780633db9dd9a14610ce3576104d6565b806323f0ab65146108f55780632762132114610a8c578063283aaefb14610adf5780632c05235514610b4457806330a095d014610b7f576104d6565b8063123633ea1161049e578063123633ea146107095780631374b22d14610784578063141a8dd8146107d7578063152b48341461082e578063158ef93e1461088b5780631c65bc61146108ba576104d6565b806301fce27e1461055157806304acaec9146106055780630e0b78ae146106405780630f717e42146106a55780631201a0fb146106de575b6000803690501461054f576040517f08c379a000000000000000000000000000000000000000000000000000000000815260040180806020018281038252600e8152602001807f756e6b6e6f776e206d6574686f6400000000000000000000000000000000000081525060200191505060405180910390fd5b005b34801561055d57600080fd5b50610566612799565b604051808060200180602001838103835285818151815260200191508051906020019060200280838360005b838110156105ad578082015181840152602081019050610592565b50505050905001838103825284818151815260200191508051906020019060200280838360005b838110156105ef5780820151818401526020810190506105d4565b5050505090500194505050505060405180910390f35b34801561061157600080fd5b5061063e6004803603602081101561062857600080fd5b81019080803590602001909291905050506128d6565b005b34801561064c57600080fd5b506106796004803603602081101561066357600080fd5b8101908080359060200190929190505050612aae565b604051808415151515815260200183151515158152602001828152602001935050505060405180910390f35b3480156106b157600080fd5b506106ba612b1f565b60405180848152602001838152602001828152602001935050505060405180910390f35b3480156106ea57600080fd5b506106f3612b37565b6040518082815260200191505060405180910390f35b34801561071557600080fd5b506107426004803603602081101561072c57600080fd5b8101908080359060200190929190505050612b3d565b604051808273ffffffffffffffffffffffffffffffffffffffff1673ffffffffffffffffffffffffffffffffffffffff16815260200191505060405180910390f35b34801561079057600080fd5b506107bd600480360360208110156107a757600080fd5b8101908080359060200190929190505050612b7e565b604051808215151515815260200191505060405180910390f35b3480156107e357600080fd5b506107ec612ba2565b604051808273ffffffffffffffffffffffffffffffffffffffff1673ffffffffffffffffffffffffffffffffffffffff16815260200191505060405180910390f35b34801561083a57600080fd5b506108716004803603604081101561085157600080fd5b810190808035906020019092919080359060200190929190505050612bc8565b604051808215151515815260200191505060405180910390f35b34801561089757600080fd5b506108a0612bef565b604051808215151515815260200191505060405180910390f35b3480156108c657600080fd5b506108f3600480360360208110156108dd57600080fd5b8101908080359060200190929190505050612c02565b005b34801561090157600080fd5b50610a726004803603606081101561091857600080fd5b81019080803573ffffffffffffffffffffffffffffffffffffffff1690602001909291908035906020019064010000000081111561095557600080fd5b82018360208201111561096757600080fd5b8035906020019184600183028401116401000000008311171561098957600080fd5b91908080601f016020809104026020016040519081016040528093929190818152602001838380828437600081840152601f19601f820116905080830192505050505050509192919290803590602001906401000000008111156109ec57600080fd5b8201836020820111156109fe57600080fd5b80359060200191846001830284011164010000000083111715610a2057600080fd5b91908080601f016020809104026020016040519081016040528093929190818152602001838380828437600081840152601f19601f820116905080830192505050505050509192919290505050612dbd565b604051808215151515815260200191505060405180910390f35b348015610a9857600080fd5b50610ac560048036036020811015610aaf57600080fd5b8101908080359060200190929190505050612f76565b604051808215151515815260200191505060405180910390f35b348015610aeb57600080fd5b50610b2e60048036036020811015610b0257600080fd5b81019080803573ffffffffffffffffffffffffffffffffffffffff169060200190929190505050612f9a565b6040518082815260200191505060405180910390f35b348015610b5057600080fd5b50610b7d60048036036020811015610b6757600080fd5b8101908080359060200190929190505050612fe6565b005b348015610b8b57600080fd5b50610b94613172565b6040518082815260200191505060405180910390f35b348015610bb657600080fd5b50610bf960048036036020811015610bcd57600080fd5b81019080803573ffffffffffffffffffffffffffffffffffffffff16906020019092919050505061317f565b005b348015610c0757600080fd5b50610c3460048036036020811015610c1e57600080fd5b81019080803590602001909291905050506133e7565b604051808215151515815260200191505060405180910390f35b348015610c5a57600080fd5b50610c8760048036036020811015610c7157600080fd5b8101908080359060200190929190505050613403565b6040518082815260200191505060405180910390f35b348015610ca957600080fd5b50610cb261341d565b005b348015610cc057600080fd5b50610cc96137c8565b604051808215151515815260200191505060405180910390f35b348015610cef57600080fd5b50610d1c60048036036020811015610d0657600080fd5b8101908080359060200190929190505050613a34565b005b348015610d2a57600080fd5b50610d7760048036036040811015610d4157600080fd5b8101908080359060200190929190803573ffffffffffffffffffffffffffffffffffffffff169060200190929190505050613c0c565b604051808215151515815260200191505060405180910390f35b348015610d9d57600080fd5b50610da6613c77565b6040518082815260200191505060405180910390f35b348015610dc857600080fd5b50610df560048036036020811015610ddf57600080fd5b8101908080359060200190929190505050613c7d565b604051808415151515815260200183151515158152602001828152602001935050505060405180910390f35b348015610e2d57600080fd5b50610ee760048036036020811015610e4457600080fd5b8101908080359060200190640100000000811115610e6157600080fd5b820183602082011115610e7357600080fd5b80359060200191846001830284011164010000000083111715610e9557600080fd5b91908080601f016020809104026020016040519081016040528093929190818152602001838380828437600081840152601f19601f820116905080830192505050505050509192919290505050613cc1565b6040518082815260200191505060405180910390f35b348015610f0957600080fd5b50610f4c60048036036020811015610f2057600080fd5b81019080803573ffffffffffffffffffffffffffffffffffffffff169060200190929190505050613e55565b005b348015610f5a57600080fd5b50610f9160048036036040811015610f7157600080fd5b810190808035906020019092919080359060200190929190505050613ebe565b604051808215151515815260200191505060405180910390f35b348015610fb757600080fd5b50610ff860048036036060811015610fce57600080fd5b810190808035906020019092919080359060200190929190803590602001909291905050506140a9565b604051808215151515815260200191505060405180910390f35b34801561101e57600080fd5b5061104b6004803603602081101561103557600080fd5b810190808035906020019092919050505061473e565b6040518082600581111561105b57fe5b60ff16815260200191505060405180910390f35b34801561107b57600080fd5b506110a86004803603602081101561109257600080fd5b81019080803590602001909291905050506147a2565b005b3480156110b657600080fd5b506110ed600480360360408110156110cd57600080fd5b81019080803590602001909291908035906020019092919050505061497a565b604051808273ffffffffffffffffffffffffffffffffffffffff1673ffffffffffffffffffffffffffffffffffffffff16815260200191505060405180910390f35b34801561113b57600080fd5b506111726004803603604081101561115257600080fd5b810190808035906020019092919080359060200190929190505050614acc565b604051808215151515815260200191505060405180910390f35b34801561119857600080fd5b506111e5600480360360408110156111af57600080fd5b81019080803573ffffffffffffffffffffffffffffffffffffffff16906020019092919080359060200190929190505050614db1565b604051808381526020018281526020019250505060405180910390f35b34801561120e57600080fd5b506112516004803603602081101561122557600080fd5b81019080803573ffffffffffffffffffffffffffffffffffffffff169060200190929190505050614e39565b604051808215151515815260200191505060405180910390f35b34801561127757600080fd5b506112ba6004803603602081101561128e57600080fd5b81019080803573ffffffffffffffffffffffffffffffffffffffff169060200190929190505050614f03565b6040518082815260200191505060405180910390f35b61149b600480360360a08110156112e657600080fd5b810190808035906020019064010000000081111561130357600080fd5b82018360208201111561131557600080fd5b8035906020019184602083028401116401000000008311171561133757600080fd5b90919293919293908035906020019064010000000081111561135857600080fd5b82018360208201111561136a57600080fd5b8035906020019184602083028401116401000000008311171561138c57600080fd5b9091929391929390803590602001906401000000008111156113ad57600080fd5b8201836020820111156113bf57600080fd5b803590602001918460018302840111640100000000831117156113e157600080fd5b90919293919293908035906020019064010000000081111561140257600080fd5b82018360208201111561141457600080fd5b8035906020019184602083028401116401000000008311171561143657600080fd5b90919293919293908035906020019064010000000081111561145757600080fd5b82018360208201111561146957600080fd5b8035906020019184600183028401116401000000008311171561148b57600080fd5b9091929391929390505050614f1b565b6040518082815260200191505060405180910390f35b3480156114bd57600080fd5b506114ea600480360360208110156114d457600080fd5b8101908080359060200190929190505050615297565b005b3480156114f857600080fd5b506115b26004803603602081101561150f57600080fd5b810190808035906020019064010000000081111561152c57600080fd5b82018360208201111561153e57600080fd5b8035906020019184600183028401116401000000008311171561156057600080fd5b91908080601f016020809104026020016040519081016040528093929190818152602001838380828437600081840152601f19601f820116905080830192505050505050509192919290505050615446565b6040518082815260200191505060405180910390f35b3480156115d457600080fd5b506115dd6155da565b6040518080602001828103825283818151815260200191508051906020019060200280838360005b83811015611620578082015181840152602081019050611605565b505050509050019250505060405180910390f35b34801561164057600080fd5b5061166d6004803603602081101561165757600080fd5b8101908080359060200190929190505050615632565b604051808215151515815260200191505060405180910390f35b34801561169357600080fd5b5061169c61566f565b005b3480156116aa57600080fd5b506116b36157a8565b6040518082815260200191505060405180910390f35b3480156116d557600080fd5b506116de6157b8565b6040518082815260200191505060405180910390f35b34801561170057600080fd5b5061172d6004803603602081101561171757600080fd5b81019080803590602001909291905050506157be565b604051808215151515815260200191505060405180910390f35b34801561175357600080fd5b5061175c6157e2565b604051808273ffffffffffffffffffffffffffffffffffffffff1673ffffffffffffffffffffffffffffffffffffffff16815260200191505060405180910390f35b3480156117aa57600080fd5b506117d7600480360360208110156117c157600080fd5b8101908080359060200190929190505050615808565b005b3480156117e557600080fd5b50611812600480360360208110156117fc57600080fd5b8101908080359060200190929190505050615994565b6040518082815260200191505060405180910390f35b34801561183457600080fd5b5061183d615aea565b6040518082815260200191505060405180910390f35b34801561185f57600080fd5b506119196004803603602081101561187657600080fd5b810190808035906020019064010000000081111561189357600080fd5b8201836020820111156118a557600080fd5b803590602001918460018302840111640100000000831117156118c757600080fd5b91908080601f016020809104026020016040519081016040528093929190818152602001838380828437600081840152601f19601f820116905080830192505050505050509192919290505050615af7565b6040518082815260200191505060405180910390f35b34801561193b57600080fd5b50611944615c8b565b604051808273ffffffffffffffffffffffffffffffffffffffff1673ffffffffffffffffffffffffffffffffffffffff16815260200191505060405180910390f35b34801561199257600080fd5b5061199b615cb4565b6040518082815260200191505060405180910390f35b3480156119bd57600080fd5b506119c6615cba565b604051808215151515815260200191505060405180910390f35b3480156119ec57600080fd5b50611a1960048036036020811015611a0357600080fd5b8101908080359060200190929190505050615d18565b005b348015611a2757600080fd5b50611a9360048036036040811015611a3e57600080fd5b81019080803573ffffffffffffffffffffffffffffffffffffffff16906020019092919080357bffffffffffffffffffffffffffffffffffffffffffffffffffffffff19169060200190929190505050615ec1565b6040518082815260200191505060405180910390f35b348015611ab557600080fd5b50611ae260048036036020811015611acc57600080fd5b8101908080359060200190929190505050615edd565b6040518082815260200191505060405180910390f35b348015611b0457600080fd5b50611b3160048036036020811015611b1b57600080fd5b8101908080359060200190929190505050615ff6565b005b348015611b3f57600080fd5b50611b486161a5565b6040518082815260200191505060405180910390f35b348015611b6a57600080fd5b50611b9760048036036020811015611b8157600080fd5b81019080803590602001909291905050506161b5565b6040518082815260200191505060405180910390f35b348015611bb957600080fd5b50611be660048036036020811015611bd057600080fd5b81019080803590602001909291905050506161c4565b005b348015611bf457600080fd5b50611c3760048036036020811015611c0b57600080fd5b81019080803573ffffffffffffffffffffffffffffffffffffffff169060200190929190505050616382565b005b348015611c4557600080fd5b50611c7260048036036020811015611c5c57600080fd5b8101908080359060200190929190505050616526565b6040518082815260200191505060405180910390f35b348015611c9457600080fd5b50611c9d616547565b6040518082815260200191505060405180910390f35b348015611cbf57600080fd5b50611cec60048036036020811015611cd657600080fd5b8101908080359060200190929190505050616554565b6040518082815260200191505060405180910390f35b348015611d0e57600080fd5b50611d4560048036036040811015611d2557600080fd5b810190808035906020019092919080359060200190929190505050616575565b604051808215151515815260200191505060405180910390f35b348015611d6b57600080fd5b50611d9860048036036020811015611d8257600080fd5b8101908080359060200190929190505050616a08565b005b348015611da657600080fd5b50611dd360048036036020811015611dbd57600080fd5b8101908080359060200190929190505050616bc3565b005b348015611de157600080fd5b50611dea616d2f565b6040518082815260200191505060405180910390f35b348015611e0c57600080fd5b50611e5060048036036060811015611e2357600080fd5b810190808035906020019092919080359060200190929190803560ff169060200190929190505050616d3f565b604051808215151515815260200191505060405180910390f35b348015611e7657600080fd5b50611e7f617453565b6040518082815260200191505060405180910390f35b348015611ea157600080fd5b50611ece60048036036020811015611eb857600080fd5b8101908080359060200190929190505050617459565b604051808215151515815260200191505060405180910390f35b348015611ef457600080fd5b50611fc660048036036101a0811015611f0c57600080fd5b81019080803573ffffffffffffffffffffffffffffffffffffffff169060200190929190803573ffffffffffffffffffffffffffffffffffffffff169060200190929190803590602001909291908035906020019092919080359060200190929190803590602001909291908035906020019092919080359060200190929190803590602001909291908035906020019092919080359060200190929190803590602001909291908035906020019092919050505061747d565b005b348015611fd457600080fd5b5061200160048036036020811015611feb57600080fd5b81019080803590602001909291905050506175af565b604051808215151515815260200191505060405180910390f35b34801561202757600080fd5b506120546004803603602081101561203e57600080fd5b810190808035906020019092919050505061765f565b604051808673ffffffffffffffffffffffffffffffffffffffff1673ffffffffffffffffffffffffffffffffffffffff16815260200185815260200184815260200183815260200180602001828103825283818151815260200191508051906020019080838360005b838110156120d85780820151818401526020810190506120bd565b50505050905090810190601f1680156121055780820380516001836020036101000a031916815260200191505b50965050505050505060405180910390f35b34801561212357600080fd5b5061212c617731565b6040518085815260200184815260200183815260200182815260200194505050505060405180910390f35b34801561216357600080fd5b506121906004803603602081101561217a57600080fd5b81019080803590602001909291905050506177cd565b005b34801561219e57600080fd5b506121e1600480360360208110156121b557600080fd5b81019080803573ffffffffffffffffffffffffffffffffffffffff169060200190929190505050617959565b604051808381526020018281526020019250505060405180910390f35b34801561220a57600080fd5b506122376004803603602081101561222157600080fd5b81019080803590602001909291905050506179db565b005b34801561224557600080fd5b506123c6600480360360a081101561225c57600080fd5b810190808035906020019064010000000081111561227957600080fd5b82018360208201111561228b57600080fd5b803590602001918460208302840111640100000000831117156122ad57600080fd5b9091929391929390803590602001906401000000008111156122ce57600080fd5b8201836020820111156122e057600080fd5b8035906020019184602083028401116401000000008311171561230257600080fd5b90919293919293908035906020019064010000000081111561232357600080fd5b82018360208201111561233557600080fd5b8035906020019184600183028401116401000000008311171561235757600080fd5b90919293919293908035906020019064010000000081111561237857600080fd5b82018360208201111561238a57600080fd5b803590602001918460208302840111640100000000831117156123ac57600080fd5b909192939192939080359060200190929190505050617b8a565b005b3480156123d457600080fd5b5061240b600480360360408110156123eb57600080fd5b810190808035906020019092919080359060200190929190505050617f71565b604051808481526020018373ffffffffffffffffffffffffffffffffffffffff1673ffffffffffffffffffffffffffffffffffffffff16815260200180602001828103825283818151815260200191508051906020019080838360005b83811015612483578082015181840152602081019050612468565b50505050905090810190601f1680156124b05780820380516001836020036101000a031916815260200191505b5094505050505060405180910390f35b3480156124cc57600080fd5b506124d5618093565b6040518082815260200191505060405180910390f35b3480156124f757600080fd5b50612500618099565b6040518082815260200191505060405180910390f35b34801561252257600080fd5b5061254f6004803603602081101561253957600080fd5b81019080803590602001909291905050506181d5565b60405180848152602001838152602001828152602001935050505060405180910390f35b34801561257f57600080fd5b506125ac6004803603602081101561259657600080fd5b8101908080359060200190929190505050618202565b6040518082815260200191505060405180910390f35b3480156125ce57600080fd5b5061262d600480360360c08110156125e557600080fd5b8101908080359060200190929190803590602001909291908035906020019092919080359060200190929190803590602001909291908035906020019092919050505061824d565b604051808381526020018281526020019250505060405180910390f35b34801561265657600080fd5b506126cc6004803603606081101561266d57600080fd5b81019080803573ffffffffffffffffffffffffffffffffffffffff16906020019092919080357bffffffffffffffffffffffffffffffffffffffffffffffffffffffff1916906020019092919080359060200190929190505050618461565b005b3480156126da57600080fd5b5061271d600480360360208110156126f157600080fd5b81019080803573ffffffffffffffffffffffffffffffffffffffff16906020019092919050505061879e565b005b34801561272b57600080fd5b506127586004803603602081101561274257600080fd5b8101908080359060200190929190505050618824565b6040518082815260200191505060405180910390f35b34801561277a57600080fd5b5061278361896d565b6040518082815260200191505060405180910390f35b606080601273__IntegerSortedLinkedList_______________6369b317e390916040518263ffffffff1660e01b81526004018082815260200191505060006040518083038186803b1580156127ee57600080fd5b505af4158015612802573d6000803e3d6000fd5b505050506040513d6000823e3d601f19601f82011682018060405250604081101561282c57600080fd5b81019080805164010000000081111561284457600080fd5b8281019050602081018481111561285a57600080fd5b815185602082028301116401000000008211171561287757600080fd5b5050929190602001805164010000000081111561289357600080fd5b828101905060208101848111156128a957600080fd5b81518560208202830111640100000000821117156128c657600080fd5b5050929190505050915091509091565b6128de615cba565b612950576040517f08c379a00000000000000000000000000000000000000000000000000000000081526004018080602001828103825260208152602001807f4f776e61626c653a2063616c6c6572206973206e6f7420746865206f776e657281525060200191505060405180910390fd5b61295861adb8565b6129618261897a565b905061296c81618998565b6129c1576040517f08c379a000000000000000000000000000000000000000000000000000000000815260040180806020018281038252602781526020018061b16d6027913960400191505060405180910390fd5b6129ed6019600301604051806020016040529081600082015481525050826189b290919063ffffffff16565b15612a60576040517f08c379a00000000000000000000000000000000000000000000000000000000081526004018080602001828103825260208152602001807f426173656c696e652071756f72756d20666163746f7220756e6368616e67656481525060200191505060405180910390fd5b806019600301600082015181600001559050507fddfdbe55eaaa70fe2b8bc82a9b0734c25cabe7cb6f1457f9644019f0b5ff91fc826040518082815260200191505060405180910390a15050565b60008060006011600085815260200190815260200160002060000160019054906101000a900460ff166011600086815260200190815260200160002060000160009054906101000a900460ff1660116000878152602001908152602001600020600101549250925092509193909250565b60038060000154908060010154908060020154905083565b600a5481565b6000601d8281548110612b4c57fe5b9060005260206000200160009054906101000a900473ffffffffffffffffffffffffffffffffffffffff169050919050565b6000612b9b600f60008481526020019081526020016000206189c7565b9050919050565b600860009054906101000a900473ffffffffffffffffffffffffffffffffffffffff1681565b6000612be7600f600085815260200190815260200160002084846189d7565b905092915050565b600060149054906101000a900460ff1681565b612c0a615cba565b612c7c576040517f08c379a00000000000000000000000000000000000000000000000000000000081526004018080602001828103825260208152602001807f4f776e61626c653a2063616c6c6572206973206e6f7420746865206f776e657281525060200191505060405180910390fd5b612c8461adb8565b612c8d8261897a565b9050612c9881618998565b612ced576040517f08c379a000000000000000000000000000000000000000000000000000000000815260040180806020018281038252602481526020018061b4286024913960400191505060405180910390fd5b612d196019600101604051806020016040529081600082015481525050826189b290919063ffffffff16565b15612d6f576040517f08c379a000000000000000000000000000000000000000000000000000000000815260040180806020018281038252602681526020018061b1dc6026913960400191505060405180910390fd5b806019600101600082015181600001559050507f122a37b609e0f758b6a23c43506cb567017a4d18b21fa91312fb42b44975a5b5826040518082815260200191505060405180910390a15050565b60008060fb73ffffffffffffffffffffffffffffffffffffffff16858585604051602001808473ffffffffffffffffffffffffffffffffffffffff1673ffffffffffffffffffffffffffffffffffffffff1660601b815260140183805190602001908083835b60208310612e465780518252602082019150602081019050602083039250612e23565b6001836020036101000a03801982511681845116808217855250505050505090500182805190602001908083835b60208310612e975780518252602082019150602081019050602083039250612e74565b6001836020036101000a03801982511681845116808217855250505050505090500193505050506040516020818303038152906040526040518082805190602001908083835b60208310612f005780518252602082019150602081019050602083039250612edd565b6001836020036101000a038019825116818451168082178552505050505050905001915050600060405180830381855afa9150503d8060008114612f60576040519150601f19603f3d011682016040523d82523d6000602084013e612f65565b606091505b505080915050809150509392505050565b6000612f93600f6000848152602001908152602001600020618a6a565b9050919050565b6000601060008373ffffffffffffffffffffffffffffffffffffffff1673ffffffffffffffffffffffffffffffffffffffff168152602001908152602001600020600201549050919050565b612fee615cba565b613060576040517f08c379a00000000000000000000000000000000000000000000000000000000081526004018080602001828103825260208152602001807f4f776e61626c653a2063616c6c6572206973206e6f7420746865206f776e657281525060200191505060405180910390fd5b600081116130b9576040517f08c379a000000000000000000000000000000000000000000000000000000000815260040180806020018281038252602181526020018061b0aa6021913960400191505060405180910390fd5b600654811415613131576040517f08c379a00000000000000000000000000000000000000000000000000000000081526004018080602001828103825260158152602001807f517565756545787069727920756e6368616e676564000000000000000000000081525060200191505060405180910390fd5b806006819055507f4ecbf0bb0701615e2d6f9b0a0996056c959fe359ce76aa7ce06c5f1d57dae4d7816040518082815260200191505060405180910390a150565b6000600360020154905090565b613187615cba565b6131f9576040517f08c379a00000000000000000000000000000000000000000000000000000000081526004018080602001828103825260208152602001807f4f776e61626c653a2063616c6c6572206973206e6f7420746865206f776e657281525060200191505060405180910390fd5b600073ffffffffffffffffffffffffffffffffffffffff168173ffffffffffffffffffffffffffffffffffffffff16141561329c576040517f08c379a00000000000000000000000000000000000000000000000000000000081526004018080602001828103825260148152602001807f417070726f7665722063616e6e6f74206265203000000000000000000000000081525060200191505060405180910390fd5b600860009054906101000a900473ffffffffffffffffffffffffffffffffffffffff1673ffffffffffffffffffffffffffffffffffffffff168173ffffffffffffffffffffffffffffffffffffffff161415613360576040517f08c379a00000000000000000000000000000000000000000000000000000000081526004018080602001828103825260128152602001807f417070726f76657220756e6368616e676564000000000000000000000000000081525060200191505060405180910390fd5b80600860006101000a81548173ffffffffffffffffffffffffffffffffffffffff021916908373ffffffffffffffffffffffffffffffffffffffff1602179055508073ffffffffffffffffffffffffffffffffffffffff167fa03757d836cb0b61c0fbba2147f5d51d6071ff3dd5bf6963beb55563d64878e160405160405180910390a250565b60006133f16157a8565b6133fa83615994565b10159050919050565b600061341682613411618099565b618c49565b9050919050565b613434600754600954618c8190919063ffffffff16565b42106137c6576000613450600a54601260000160020154618d09565b90506060601273__IntegerSortedLinkedList_______________6377b024799091846040518363ffffffff1660e01b8152600401808381526020018281526020019250505060006040518083038186803b1580156134ae57600080fd5b505af41580156134c2573d6000803e3d6000fd5b505050506040513d6000823e3d601f19601f8201168201806040525060208110156134ec57600080fd5b81019080805164010000000081111561350457600080fd5b8281019050602081018481111561351a57600080fd5b815185602082028301116401000000008211171561353757600080fd5b5050929190505050905060008090505b828110156137bb57600082828151811061355d57fe5b602002602001015190506000600f6000838152602001908152602001600020905061358781618d22565b156135c057817f88e53c486703527139dfc8d97a1e559d9bd93d3f9d52cda4e06564111e7a264360405160405180910390a250506137a0565b61363a8160010154600d60008460000160009054906101000a900473ffffffffffffffffffffffffffffffffffffffff1673ffffffffffffffffffffffffffffffffffffffff1673ffffffffffffffffffffffffffffffffffffffff16815260200190815260200160002054618c8190919063ffffffff16565b600d60008360000160009054906101000a900473ffffffffffffffffffffffffffffffffffffffff1673ffffffffffffffffffffffffffffffffffffffff1673ffffffffffffffffffffffffffffffffffffffff16815260200190815260200160002081905550428160020181905550600060188054905011156137385760006136d36001601880549050618d4790919063ffffffff16565b9050826017601883815481106136e557fe5b9060005260206000200154815481106136fa57fe5b90600052602060002001819055506018818154811061371557fe5b906000526020600020016000905580601881613731919061adcb565b5050613765565b60178290806001815401808255809150509060018203906000526020600020016000909192909190915055505b817f3e069fb74dcf5fbc07740b0d40d7f7fc48e9c0ca5dc3d19eb34d2e05d74c5543426040518082815260200191505060405180910390a250505b6137b4600182618c8190919063ffffffff16565b9050613547565b504260098190555050505b565b600060018060008282540192505081905550600060015490506000600d60003373ffffffffffffffffffffffffffffffffffffffff1673ffffffffffffffffffffffffffffffffffffffff1681526020019081526020016000205490506000811161389b576040517f08c379a00000000000000000000000000000000000000000000000000000000081526004018080602001828103825260138152602001807f4e6f7468696e6720746f2077697468647261770000000000000000000000000081525060200191505060405180910390fd5b3073ffffffffffffffffffffffffffffffffffffffff1631811115613928576040517f08c379a00000000000000000000000000000000000000000000000000000000081526004018080602001828103825260148152602001807f496e636f6e73697374656e742062616c616e636500000000000000000000000081525060200191505060405180910390fd5b6000600d60003373ffffffffffffffffffffffffffffffffffffffff1673ffffffffffffffffffffffffffffffffffffffff168152602001908152602001600020819055503373ffffffffffffffffffffffffffffffffffffffff166108fc829081150290604051600060405180830381858888f193505050501580156139b3573d6000803e3d6000fd5b5060019250506001548114613a30576040517f08c379a000000000000000000000000000000000000000000000000000000000815260040180806020018281038252600e8152602001807f7265656e7472616e742063616c6c00000000000000000000000000000000000081525060200191505060405180910390fd5b5090565b613a3c615cba565b613aae576040517f08c379a00000000000000000000000000000000000000000000000000000000081526004018080602001828103825260208152602001807f4f776e61626c653a2063616c6c6572206973206e6f7420746865206f776e657281525060200191505060405180910390fd5b613ab661adb8565b613abf8261897a565b9050613aca81618998565b613b1f576040517f08c379a000000000000000000000000000000000000000000000000000000000815260040180806020018281038252602781526020018061b0cb6027913960400191505060405180910390fd5b613b4b6019600001604051806020016040529081600082015481525050826189b290919063ffffffff16565b15613bbe576040517f08c379a00000000000000000000000000000000000000000000000000000000081526004018080602001828103825260208152602001807f50617274696369706174696f6e20626173656c696e6520756e6368616e67656481525060200191505060405180910390fd5b806019600001600082015181600001559050507f51131d2820f04a6b6edd20e22a07d5bf847e265a3906e85256fca7d6043417c5826040518082815260200191505060405180910390a15050565b60006011600084815260200190815260200160002060020160008373ffffffffffffffffffffffffffffffffffffffff1673ffffffffffffffffffffffffffffffffffffffff16815260200190815260200160002060009054906101000a900460ff16905092915050565b600c5481565b60116020528060005260406000206000915090508060000160009054906101000a900460ff16908060000160019054906101000a900460ff16908060010154905083565b60006060600060f473ffffffffffffffffffffffffffffffffffffffff16846040516020018082805190602001908083835b60208310613d165780518252602082019150602081019050602083039250613cf3565b6001836020036101000a0380198251168184511680821785525050505050509050019150506040516020818303038152906040526040518082805190602001908083835b60208310613d7d5780518252602082019150602081019050602083039250613d5a565b6001836020036101000a038019825116818451168082178552505050505050905001915050600060405180830381855afa9150503d8060008114613ddd576040519150601f19603f3d011682016040523d82523d6000602084013e613de2565b606091505b50809350819250505080613e41576040517f08c379a000000000000000000000000000000000000000000000000000000000815260040180806020018281038252603881526020018061b2296038913960400191505060405180910390fd5b613e4c826000618d91565b92505050919050565b601d8190806001815401808255809150509060018203906000526020600020016000909192909190916101000a81548173ffffffffffffffffffffffffffffffffffffffff021916908373ffffffffffffffffffffffffffffffffffffffff1602179055505050565b60006001806000828254019250508190555060006001549050613edf61341d565b600080613eec8686618e22565b915091506000613efb836189c7565b905080156140255760046005811115613f1057fe5b826005811115613f1c57fe5b148015613f2e5750613f2d83618a6a565b5b613f83576040517f08c379a000000000000000000000000000000000000000000000000000000000815260040180806020018281038252602e81526020018061b2f6602e913960400191505060405180910390fd5b8273__Proposals_____________________________63c67e7b4b90916040518263ffffffff1660e01b81526004018082815260200191505060006040518083038186803b158015613fd457600080fd5b505af4158015613fe8573d6000803e3d6000fd5b50505050867f712ae1383f79ac853f8d882153778e0260ef8f03b504e2866e0593e04d2b291f60405160405180910390a2614024838888618efb565b5b80945050505060015481146140a2576040517f08c379a000000000000000000000000000000000000000000000000000000000815260040180806020018281038252600e8152602001807f7265656e7472616e742063616c6c00000000000000000000000000000000000081525060200191505060405180910390fd5b5092915050565b600060018060008282540192505081905550600060015490506140ca61341d565b6140d385619019565b156140e157600091506146bf565b60006140eb619173565b73ffffffffffffffffffffffffffffffffffffffff16636642d594336040518263ffffffff1660e01b8152600401808273ffffffffffffffffffffffffffffffffffffffff1673ffffffffffffffffffffffffffffffffffffffff16815260200191505060206040518083038186803b15801561416757600080fd5b505afa15801561417b573d6000803e3d6000fd5b505050506040513d602081101561419157600080fd5b810190808051906020019092919050505090506000601060008373ffffffffffffffffffffffffffffffffffffffff1673ffffffffffffffffffffffffffffffffffffffff16815260200190815260200160002090506141f78160000160000154619019565b50600061420261926e565b73ffffffffffffffffffffffffffffffffffffffff166330ec70f5846040518263ffffffff1660e01b8152600401808273ffffffffffffffffffffffffffffffffffffffff1673ffffffffffffffffffffffffffffffffffffffff16815260200191505060206040518083038186803b15801561427e57600080fd5b505afa158015614292573d6000803e3d6000fd5b505050506040513d60208110156142a857600080fd5b8101908080519060200190929190505050905060008111614314576040517f08c379a000000000000000000000000000000000000000000000000000000000815260040180806020018281038252602281526020018061b3946022913960400191505060405180910390fd5b601273__IntegerSortedLinkedList_______________63bfc5163890918a6040518363ffffffff1660e01b8152600401808381526020018281526020019250505060206040518083038186803b15801561436e57600080fd5b505af4158015614382573d6000803e3d6000fd5b505050506040513d602081101561439857600080fd5b81019080805190602001909291905050506143fe576040517f08c379a000000000000000000000000000000000000000000000000000000000815260040180806020018281038252602981526020018061b2976029913960400191505060405180910390fd5b6000826000016000015414806144ad5750601273__IntegerSortedLinkedList_______________63bfc51638909184600001600001546040518363ffffffff1660e01b8152600401808381526020018281526020019250505060206040518083038186803b15801561447057600080fd5b505af4158015614484573d6000803e3d6000fd5b505050506040513d602081101561449a57600080fd5b8101908080519060200190929190505050155b614502576040517f08c379a000000000000000000000000000000000000000000000000000000000815260040180806020018281038252602b81526020018061b4a9602b913960400191505060405180910390fd5b60006145ab82601273__IntegerSortedLinkedList_______________637577759990918d6040518363ffffffff1660e01b8152600401808381526020018281526020019250505060206040518083038186803b15801561456257600080fd5b505af4158015614576573d6000803e3d6000fd5b505050506040513d602081101561458c57600080fd5b8101908080519060200190929190505050618c8190919063ffffffff16565b9050601273__IntegerSortedLinkedList_______________63239491ba90918b848c8c6040518663ffffffff1660e01b8152600401808681526020018581526020018481526020018381526020018281526020019550505050505060006040518083038186803b15801561461f57600080fd5b505af4158015614633573d6000803e3d6000fd5b5050505060405180604001604052808a8152602001838152508360000160008201518160000155602082015181600101559050508373ffffffffffffffffffffffffffffffffffffffff16897fd19965d25ef670a1e322fbf05475924b7b12d81fd6b96ab718b261782efb3d62846040518082815260200191505060405180910390a360019550505050505b6001548114614736576040517f08c379a000000000000000000000000000000000000000000000000000000000815260040180806020018281038252600e8152602001807f7265656e7472616e742063616c6c00000000000000000000000000000000000081525060200191505060405180910390fd5b509392505050565b60008082148061474f5750600b5482115b1561475d576000905061479d565b614766826175af565b15614774576001905061479d565b61479a6003600f600085815260200190815260200160002061936990919063ffffffff16565b90505b919050565b6147aa615cba565b61481c576040517f08c379a00000000000000000000000000000000000000000000000000000000081526004018080602001828103825260208152602001807f4f776e61626c653a2063616c6c6572206973206e6f7420746865206f776e657281525060200191505060405180910390fd5b61482461adb8565b61482d8261897a565b905061483881618998565b61488d576040517f08c379a000000000000000000000000000000000000000000000000000000000815260040180806020018281038252602781526020018061b2026027913960400191505060405180910390fd5b6148b96019600201604051806020016040529081600082015481525050826189b290919063ffffffff16565b1561492c576040517f08c379a00000000000000000000000000000000000000000000000000000000081526004018080602001828103825260208152602001807f426173656c696e652075706461746520666163746f7220756e6368616e67656481525060200191505060405180910390fd5b806019600201600082015181600001559050507f8dedb4d995dd500718c7c5f6a077fba6153a7ee063da961d9fcab90ff528ac1f826040518082815260200191505060405180910390a15050565b60006060600060fa73ffffffffffffffffffffffffffffffffffffffff16858560405160200180838152602001828152602001925050506040516020818303038152906040526040518082805190602001908083835b602083106149f357805182526020820191506020810190506020830392506149d0565b6001836020036101000a038019825116818451168082178552505050505050905001915050600060405180830381855afa9150503d8060008114614a53576040519150601f19603f3d011682016040523d82523d6000602084013e614a58565b606091505b50809350819250505080614ab7576040517f08c379a000000000000000000000000000000000000000000000000000000000815260040180806020018281038252603681526020018061b2c06036913960400191505060405180910390fd5b614ac2826000619426565b9250505092915050565b6000600860009054906101000a900473ffffffffffffffffffffffffffffffffffffffff1673ffffffffffffffffffffffffffffffffffffffff163373ffffffffffffffffffffffffffffffffffffffff1614614b91576040517f08c379a00000000000000000000000000000000000000000000000000000000081526004018080602001828103825260178152602001807f6d73672e73656e646572206e6f7420617070726f76657200000000000000000081525060200191505060405180910390fd5b614b9961341d565b600080614ba68585618e22565b91509150614bb3826189c7565b614bc257600092505050614dab565b614bcb8261943d565b15614c3e576040517f08c379a00000000000000000000000000000000000000000000000000000000081526004018080602001828103825260198152602001807f50726f706f73616c20616c726561647920617070726f7665640000000000000081525060200191505060405180910390fd5b60026005811115614c4b57fe5b816005811115614c5757fe5b14614cca576040517f08c379a000000000000000000000000000000000000000000000000000000000815260040180806020018281038252601e8152602001807f50726f706f73616c206e6f7420696e20617070726f76616c207374616765000081525060200191505060405180910390fd5b60018260070160006101000a81548160ff021916908315150217905550614cef61926e565b73ffffffffffffffffffffffffffffffffffffffff166330a61d596040518163ffffffff1660e01b815260040160206040518083038186803b158015614d3457600080fd5b505afa158015614d48573d6000803e3d6000fd5b505050506040513d6020811015614d5e57600080fd5b81019080805190602001909291905050508260080181905550847f28ec9e38ba73636ceb2f6c1574136f83bd46284a3c74734b711bf45e12f8d92960405160405180910390a26001925050505b92915050565b6000806000601060008673ffffffffffffffffffffffffffffffffffffffff1673ffffffffffffffffffffffffffffffffffffffff1681526020019081526020016000206003016000858152602001908152602001600020905080600101548160000160009054906101000a900460ff166003811115614e2d57fe5b92509250509250929050565b600080601060008473ffffffffffffffffffffffffffffffffffffffff1673ffffffffffffffffffffffffffffffffffffffff16815260200190815260200160002090506000816000016000015490506000808214158015614ea05750614e9f826175af565b5b90506000600f6000856002015481526020019081526020016000209050600060036005811115614ecc57fe5b614ee060038461936990919063ffffffff16565b6005811115614eeb57fe5b1490508280614ef75750805b95505050505050919050565b600d6020528060005260406000206000915090505481565b6000614f2561341d565b600c54341015614f9d576040517f08c379a00000000000000000000000000000000000000000000000000000000081526004018080602001828103825260118152602001807f546f6f20736d616c6c206465706f73697400000000000000000000000000000081525060200191505060405180910390fd5b614fb36001600b54618c8190919063ffffffff16565b600b819055506000600f6000600b54815260200190815260200160002090508073__Proposals_____________________________633053123f90918e8e8e8e8e8e8e8e33346040518c63ffffffff1660e01b8152600401808c8152602001806020018060200180602001806020018773ffffffffffffffffffffffffffffffffffffffff1673ffffffffffffffffffffffffffffffffffffffff16815260200186815260200185810385528f8f82818152602001925060200280828437600081840152601f19601f82011690508083019250505085810384528d8d82818152602001925060200280828437600081840152601f19601f82011690508083019250505085810383528b8b82818152602001925080828437600081840152601f19601f8201169050808301925050508581038252898982818152602001925060200280828437600081840152601f19601f8201169050808301925050509f5050505050505050505050505050505060006040518083038186803b15801561513857600080fd5b505af415801561514c573d6000803e3d6000fd5b505050506151a784848080601f016020809104026020016040519081016040528093929190818152602001838380828437600081840152601f19601f820116905080830192505050505050508261945890919063ffffffff16565b601273__IntegerSortedLinkedList_______________63d7a8acc19091600b546040518363ffffffff1660e01b8152600401808381526020018281526020019250505060006040518083038186803b15801561520357600080fd5b505af4158015615217573d6000803e3d6000fd5b505050503373ffffffffffffffffffffffffffffffffffffffff16600b547f1bfe527f3548d9258c2512b6689f0acfccdd0557d80a53845db25fc57e93d8fe8360060180549050344260405180848152602001838152602001828152602001935050505060405180910390a3600b549150509a9950505050505050505050565b61529f615cba565b615311576040517f08c379a00000000000000000000000000000000000000000000000000000000081526004018080602001828103825260208152602001807f4f776e61626c653a2063616c6c6572206973206e6f7420746865206f776e657281525060200191505060405180910390fd5b60008111615387576040517f08c379a000000000000000000000000000000000000000000000000000000000815260040180806020018281038252601e8152602001807f4475726174696f6e206d757374206265206c6172676572207468616e2030000081525060200191505060405180910390fd5b600360020154811415615402576040517f08c379a00000000000000000000000000000000000000000000000000000000081526004018080602001828103825260128152602001807f4475726174696f6e20756e6368616e676564000000000000000000000000000081525060200191505060405180910390fd5b806003600201819055507f7819c8059302d1d66abc7fe228ecc02214e0bc5c529956c13717aabefce937d8816040518082815260200191505060405180910390a150565b60006060600060f673ffffffffffffffffffffffffffffffffffffffff16846040516020018082805190602001908083835b6020831061549b5780518252602082019150602081019050602083039250615478565b6001836020036101000a0380198251168184511680821785525050505050509050019150506040516020818303038152906040526040518082805190602001908083835b6020831061550257805182526020820191506020810190506020830392506154df565b6001836020036101000a038019825116818451168082178552505050505050905001915050600060405180830381855afa9150503d8060008114615562576040519150601f19603f3d011682016040523d82523d6000602084013e615567565b606091505b508093508192505050806155c6576040517f08c379a000000000000000000000000000000000000000000000000000000000815260040180806020018281038252602381526020018061b4d46023913960400191505060405180910390fd5b6155d1826000618d91565b92505050919050565b6060601780548060200260200160405190810160405280929190818152602001828054801561562857602002820191906000526020600020905b815481526020019060010190808311615614575b5050505050905090565b600080600f600084815260200190815260200160002090506156678161566260038461936990919063ffffffff16565b6194d0565b915050919050565b615677615cba565b6156e9576040517f08c379a00000000000000000000000000000000000000000000000000000000081526004018080602001828103825260208152602001807f4f776e61626c653a2063616c6c6572206973206e6f7420746865206f776e657281525060200191505060405180910390fd5b600073ffffffffffffffffffffffffffffffffffffffff166000809054906101000a900473ffffffffffffffffffffffffffffffffffffffff1673ffffffffffffffffffffffffffffffffffffffff167f8be0079c531659141344cd1fd0a4f28419497f9722a3daafe3b4186f6b6457e060405160405180910390a360008060006101000a81548173ffffffffffffffffffffffffffffffffffffffff021916908373ffffffffffffffffffffffffffffffffffffffff160217905550565b60006157b343618202565b905090565b60075481565b60006157db600f600084815260200190815260200160002061943d565b9050919050565b600260009054906101000a900473ffffffffffffffffffffffffffffffffffffffff1681565b615810615cba565b615882576040517f08c379a00000000000000000000000000000000000000000000000000000000081526004018080602001828103825260208152602001807f4f776e61626c653a2063616c6c6572206973206e6f7420746865206f776e657281525060200191505060405180910390fd5b600081116158db576040517f08c379a000000000000000000000000000000000000000000000000000000000815260040180806020018281038252602681526020018061b3246026913960400191505060405180910390fd5b600754811415615953576040517f08c379a000000000000000000000000000000000000000000000000000000000815260040180806020018281038252601a8152602001807f646571756575654672657175656e637920756e6368616e67656400000000000081525060200191505060405180910390fd5b806007819055507f391e82aae76c653cd640ad1b6028e2ee39ca4f29b30152e3d0a9ddd7e1169c34816040518082815260200191505060405180910390a150565b6000806000905060006159a5615aea565b905060006159b1619173565b905060008090505b82811015615ade5760006159cc82612b3d565b905060008373ffffffffffffffffffffffffffffffffffffffff166393c5c487836040518263ffffffff1660e01b8152600401808273ffffffffffffffffffffffffffffffffffffffff1673ffffffffffffffffffffffffffffffffffffffff16815260200191505060206040518083038186803b158015615a4d57600080fd5b505afa158015615a61573d6000803e3d6000fd5b505050506040513d6020811015615a7757600080fd5b81019080805190602001909291905050509050615a948883613c0c565b80615aa55750615aa48882613c0c565b5b15615ac157615abe600187618c8190919063ffffffff16565b95505b5050615ad7600182618c8190919063ffffffff16565b90506159b9565b50829350505050919050565b6000601d80549050905090565b60006060600060f773ffffffffffffffffffffffffffffffffffffffff16846040516020018082805190602001908083835b60208310615b4c5780518252602082019150602081019050602083039250615b29565b6001836020036101000a0380198251168184511680821785525050505050509050019150506040516020818303038152906040526040518082805190602001908083835b60208310615bb35780518252602082019150602081019050602083039250615b90565b6001836020036101000a038019825116818451168082178552505050505050905001915050600060405180830381855afa9150503d8060008114615c13576040519150601f19603f3d011682016040523d82523d6000602084013e615c18565b606091505b50809350819250505080615c77576040517f08c379a000000000000000000000000000000000000000000000000000000000815260040180806020018281038252603181526020018061b4786031913960400191505060405180910390fd5b615c82826000619426565b92505050919050565b60008060009054906101000a900473ffffffffffffffffffffffffffffffffffffffff16905090565b60065481565b60008060009054906101000a900473ffffffffffffffffffffffffffffffffffffffff1673ffffffffffffffffffffffffffffffffffffffff16615cfc61955a565b73ffffffffffffffffffffffffffffffffffffffff1614905090565b615d20615cba565b615d92576040517f08c379a00000000000000000000000000000000000000000000000000000000081526004018080602001828103825260208152602001807f4f776e61626c653a2063616c6c6572206973206e6f7420746865206f776e657281525060200191505060405180910390fd5b60008111615e08576040517f08c379a00000000000000000000000000000000000000000000000000000000081526004018080602001828103825260208152602001807f6d696e4465706f736974206d757374206265206c6172676572207468616e203081525060200191505060405180910390fd5b600c54811415615e80576040517f08c379a00000000000000000000000000000000000000000000000000000000081526004018080602001828103825260198152602001807f4d696e696d756d206465706f73697420756e6368616e6765640000000000000081525060200191505060405180910390fd5b80600c819055507fc50a7f0bdf88c216b2541b0bdea26f22305460e39ffc672ec1a7501732c5ba81816040518082815260200191505060405180910390a150565b6000615ed5615ed08484619562565b6197b4565b905092915050565b6000615ee8826175af565b615f5a576040517f08c379a00000000000000000000000000000000000000000000000000000000081526004018080602001828103825260138152602001807f50726f706f73616c206e6f74207175657565640000000000000000000000000081525060200191505060405180910390fd5b601273__IntegerSortedLinkedList_______________63757775999091846040518363ffffffff1660e01b8152600401808381526020018281526020019250505060206040518083038186803b158015615fb457600080fd5b505af4158015615fc8573d6000803e3d6000fd5b505050506040513d6020811015615fde57600080fd5b81019080805190602001909291905050509050919050565b615ffe615cba565b616070576040517f08c379a00000000000000000000000000000000000000000000000000000000081526004018080602001828103825260208152602001807f4f776e61626c653a2063616c6c6572206973206e6f7420746865206f776e657281525060200191505060405180910390fd5b600081116160e6576040517f08c379a000000000000000000000000000000000000000000000000000000000815260040180806020018281038252601e8152602001807f4475726174696f6e206d757374206265206c6172676572207468616e2030000081525060200191505060405180910390fd5b600360000154811415616161576040517f08c379a00000000000000000000000000000000000000000000000000000000081526004018080602001828103825260128152602001807f4475726174696f6e20756e6368616e676564000000000000000000000000000081525060200191505060405180910390fd5b806003600001819055507fbc44c003a66b841b48c220869efb738b265af305649ac8bafe8efe0c8130e313816040518082815260200191505060405180910390a150565b60006161b043613403565b905090565b6000601d805490509050919050565b806011600082815260200190815260200160002060000160009054906101000a900460ff161561625c576040517f08c379a00000000000000000000000000000000000000000000000000000000081526004018080602001828103825260178152602001807f686f7466697820616c726561647920657865637574656400000000000000000081525060200191505060405180910390fd5b616265826133e7565b6162ba576040517f08c379a000000000000000000000000000000000000000000000000000000000815260040180806020018281038252602981526020018061b36b6029913960400191505060405180910390fd5b60006162c46161a5565b905080601160008581526020019081526020016000206001015410616334576040517f08c379a000000000000000000000000000000000000000000000000000000000815260040180806020018281038252602681526020018061b3dd6026913960400191505060405180910390fd5b80601160008581526020019081526020016000206001018190555080837f6f184ec313435b3307a4fe59e2293381f08419a87214464c875a2a247e8af5e060405160405180910390a3505050565b61638a615cba565b6163fc576040517f08c379a00000000000000000000000000000000000000000000000000000000081526004018080602001828103825260208152602001807f4f776e61626c653a2063616c6c6572206973206e6f7420746865206f776e657281525060200191505060405180910390fd5b600073ffffffffffffffffffffffffffffffffffffffff168173ffffffffffffffffffffffffffffffffffffffff16141561649f576040517f08c379a00000000000000000000000000000000000000000000000000000000081526004018080602001828103825260208152602001807f43616e6e6f7420726567697374657220746865206e756c6c206164647265737381525060200191505060405180910390fd5b80600260006101000a81548173ffffffffffffffffffffffffffffffffffffffff021916908373ffffffffffffffffffffffffffffffffffffffff1602179055508073ffffffffffffffffffffffffffffffffffffffff167f27fe5f0c1c3b1ed427cc63d0f05759ffdecf9aec9e18d31ef366fc8a6cb5dc3b60405160405180910390a250565b6018818154811061653357fe5b906000526020600020016000915090505481565b6000600360010154905090565b6017818154811061656157fe5b906000526020600020016000915090505481565b6000600180600082825401925050819055506000600154905061659661341d565b60006165a0619173565b73ffffffffffffffffffffffffffffffffffffffff16636642d594336040518263ffffffff1660e01b8152600401808273ffffffffffffffffffffffffffffffffffffffff1673ffffffffffffffffffffffffffffffffffffffff16815260200191505060206040518083038186803b15801561661c57600080fd5b505afa158015616630573d6000803e3d6000fd5b505050506040513d602081101561664657600080fd5b810190808051906020019092919050505090506000601060008373ffffffffffffffffffffffffffffffffffffffff1673ffffffffffffffffffffffffffffffffffffffff1681526020019081526020016000209050600081600001600001549050600081141561671f576040517f08c379a00000000000000000000000000000000000000000000000000000000081526004018080602001828103825260208152602001807f4163636f756e7420686173206e6f20686973746f726963616c207570766f746581525060200191505060405180910390fd5b61672881619019565b50601273__IntegerSortedLinkedList_______________63bfc516389091836040518363ffffffff1660e01b8152600401808381526020018281526020019250505060206040518083038186803b15801561678357600080fd5b505af4158015616797573d6000803e3d6000fd5b505050506040513d60208110156167ad57600080fd5b81019080805190602001909291905050501561695157601273__IntegerSortedLinkedList_______________63239491ba9091836168908660000160010154601273__IntegerSortedLinkedList_______________63757775999091896040518363ffffffff1660e01b8152600401808381526020018281526020019250505060206040518083038186803b15801561684757600080fd5b505af415801561685b573d6000803e3d6000fd5b505050506040513d602081101561687157600080fd5b8101908080519060200190929190505050618d4790919063ffffffff16565b8b8b6040518663ffffffff1660e01b8152600401808681526020018581526020018481526020018381526020018281526020019550505050505060006040518083038186803b1580156168e257600080fd5b505af41580156168f6573d6000803e3d6000fd5b505050508273ffffffffffffffffffffffffffffffffffffffff16817f7dc46237a819c9171a9c037ec98928e563892905c4d23373ca0f3f500f4ed11484600001600101546040518082815260200191505060405180910390a35b6040518060400160405280600081526020016000815250826000016000820151816000015560208201518160010155905050600194505050506001548114616a01576040517f08c379a000000000000000000000000000000000000000000000000000000000815260040180806020018281038252600e8152602001807f7265656e7472616e742063616c6c00000000000000000000000000000000000081525060200191505060405180910390fd5b5092915050565b806011600082815260200190815260200160002060000160009054906101000a900460ff1615616aa0576040517f08c379a00000000000000000000000000000000000000000000000000000000081526004018080602001828103825260178152602001807f686f7466697820616c726561647920657865637574656400000000000000000081525060200191505060405180910390fd5b600860009054906101000a900473ffffffffffffffffffffffffffffffffffffffff1673ffffffffffffffffffffffffffffffffffffffff163373ffffffffffffffffffffffffffffffffffffffff1614616b63576040517f08c379a00000000000000000000000000000000000000000000000000000000081526004018080602001828103825260178152602001807f6d73672e73656e646572206e6f7420617070726f76657200000000000000000081525060200191505060405180910390fd5b60016011600084815260200190815260200160002060000160016101000a81548160ff021916908315150217905550817f36bc158cba244a94dc9b8c08d327e8f7e3c2ab5f1925454c577527466f04851f60405160405180910390a25050565b806011600082815260200190815260200160002060000160009054906101000a900460ff1615616c5b576040517f08c379a00000000000000000000000000000000000000000000000000000000081526004018080602001828103825260178152602001807f686f7466697820616c726561647920657865637574656400000000000000000081525060200191505060405180910390fd5b60016011600084815260200190815260200160002060020160003373ffffffffffffffffffffffffffffffffffffffff1673ffffffffffffffffffffffffffffffffffffffff16815260200190815260200160002060006101000a81548160ff021916908315150217905550817ff6d22d0b43a6753880b8f9511b82b86cd0fe349cd580bbe6a25b6dc063ef496f33604051808273ffffffffffffffffffffffffffffffffffffffff1673ffffffffffffffffffffffffffffffffffffffff16815260200191505060405180910390a25050565b6000601260000160020154905090565b60006001806000828254019250508190555060006001549050616d6061341d565b600080616d6d8787618e22565b91509150616d7a826189c7565b616d89576000935050506173d4565b6000616d93619173565b73ffffffffffffffffffffffffffffffffffffffff16636642d594336040518263ffffffff1660e01b8152600401808273ffffffffffffffffffffffffffffffffffffffff1673ffffffffffffffffffffffffffffffffffffffff16815260200191505060206040518083038186803b158015616e0f57600080fd5b505afa158015616e23573d6000803e3d6000fd5b505050506040513d6020811015616e3957600080fd5b810190808051906020019092919050505090506000601060008373ffffffffffffffffffffffffffffffffffffffff1673ffffffffffffffffffffffffffffffffffffffff16815260200190815260200160002090506000616e9961926e565b73ffffffffffffffffffffffffffffffffffffffff166330ec70f5846040518263ffffffff1660e01b8152600401808273ffffffffffffffffffffffffffffffffffffffff1673ffffffffffffffffffffffffffffffffffffffff16815260200191505060206040518083038186803b158015616f1557600080fd5b505afa158015616f29573d6000803e3d6000fd5b505050506040513d6020811015616f3f57600080fd5b81019080805190602001909291905050509050616f5b8561943d565b616fcd576040517f08c379a00000000000000000000000000000000000000000000000000000000081526004018080602001828103825260158152602001807f50726f706f73616c206e6f7420617070726f766564000000000000000000000081525060200191505060405180910390fd5b60036005811115616fda57fe5b846005811115616fe657fe5b14617059576040517f08c379a00000000000000000000000000000000000000000000000000000000081526004018080602001828103825260188152602001807f496e636f72726563742070726f706f73616c207374617465000000000000000081525060200191505060405180910390fd5b6000600381111561706657fe5b88600381111561707257fe5b14156170e6576040517f08c379a00000000000000000000000000000000000000000000000000000000081526004018080602001828103825260108152602001807f566f74652076616c756520756e7365740000000000000000000000000000000081525060200191505060405180910390fd5b6000811161715c576040517f08c379a00000000000000000000000000000000000000000000000000000000081526004018080602001828103825260118152602001807f566f74657220776569676874207a65726f00000000000000000000000000000081525060200191505060405180910390fd5b60008260030160008b815260200190815260200160002090508573__Proposals_____________________________63b05cd27f90918360020154858f8660010154146171aa5760006171bd565b8560000160009054906101000a900460ff165b8e6040518663ffffffff1660e01b8152600401808681526020018581526020018481526020018360038111156171ef57fe5b60ff16815260200182600381111561720357fe5b60ff1681526020019550505050505060006040518083038186803b15801561722a57600080fd5b505af415801561723e573d6000803e3d6000fd5b5050505061724a61926e565b73ffffffffffffffffffffffffffffffffffffffff166330a61d596040518163ffffffff1660e01b815260040160206040518083038186803b15801561728f57600080fd5b505afa1580156172a3573d6000803e3d6000fd5b505050506040513d60208110156172b957600080fd5b8101908080519060200190929190505050866008018190555060405180606001604052808a60038111156172e957fe5b81526020018c8152602001838152508360030160008c815260200190815260200160002060008201518160000160006101000a81548160ff0219169083600381111561733157fe5b02179055506020820151816001015560408201518160020155905050826002015486600201541115617367578a83600201819055505b8373ffffffffffffffffffffffffffffffffffffffff168b7ff3709dc32cf1356da6b8a12a5be1401aeb00989556be7b16ae566e65fef7a9df8b60038111156173ac57fe5b85604051808381526020018281526020019250505060405180910390a3600197505050505050505b600154811461744b576040517f08c379a000000000000000000000000000000000000000000000000000000000815260040180806020018281038252600e8152602001807f7265656e7472616e742063616c6c00000000000000000000000000000000000081525060200191505060405180910390fd5b509392505050565b60095481565b6000617476600f6000848152602001908152602001600020618d22565b9050919050565b600060149054906101000a900460ff1615617500576040517f08c379a000000000000000000000000000000000000000000000000000000000815260040180806020018281038252601c8152602001807f636f6e747261637420616c726561647920696e697469616c697a65640000000081525060200191505060405180910390fd5b6001600060146101000a81548160ff021916908315150217905550617524336197c2565b61752d8d616382565b6175368c61317f565b61753f8b6177cd565b6175488a615d18565b61755189612fe6565b61755a88615808565b61756387615ff6565b61756c866179db565b61757585615297565b61757e84613a34565b61758783612c02565b617590826147a2565b617599816128d6565b4260098190555050505050505050505050505050565b6000601273__IntegerSortedLinkedList_______________63bfc516389091846040518363ffffffff1660e01b8152600401808381526020018281526020019250505060206040518083038186803b15801561760b57600080fd5b505af415801561761f573d6000803e3d6000fd5b505050506040513d602081101561763557600080fd5b81019080805190602001909291905050508015617658575061765682617459565b155b9050919050565b6000806000806060617682600f6000888152602001908152602001600020619906565b808054600181600116156101000203166002900480601f0160208091040260200160405190810160405280929190818152602001828054600181600116156101000203166002900480156177175780601f106176ec57610100808354040283529160200191617717565b820191906000526020600020905b8154815290600101906020018083116176fa57829003601f168201915b505050505090509450945094509450945091939590929450565b60008060008061775960196000016040518060200160405290816000820154815250506197b4565b61777b60196001016040518060200160405290816000820154815250506197b4565b61779d60196002016040518060200160405290816000820154815250506197b4565b6177bf60196003016040518060200160405290816000820154815250506197b4565b935093509350935090919293565b6177d5615cba565b617847576040517f08c379a00000000000000000000000000000000000000000000000000000000081526004018080602001828103825260208152602001807f4f776e61626c653a2063616c6c6572206973206e6f7420746865206f776e657281525060200191505060405180910390fd5b600081116178a0576040517f08c379a000000000000000000000000000000000000000000000000000000000815260040180806020018281038252602c81526020018061b0f2602c913960400191505060405180910390fd5b600a54811415617918576040517f08c379a000000000000000000000000000000000000000000000000000000000815260040180806020018281038252601d8152602001807f4e756d626572206f662070726f706f73616c7320756e6368616e67656400000081525060200191505060405180910390fd5b80600a819055507f85399b9b2595eb13c392e1638ca77730156cd8d48d4733df4db068e4aa6b93a6816040518082815260200191505060405180910390a150565b60008061796461adf7565b601060008573ffffffffffffffffffffffffffffffffffffffff1673ffffffffffffffffffffffffffffffffffffffff168152602001908152602001600020600001604051806040016040529081600082015481526020016001820154815250509050806000015181602001519250925050915091565b6179e3615cba565b617a55576040517f08c379a00000000000000000000000000000000000000000000000000000000081526004018080602001828103825260208152602001807f4f776e61626c653a2063616c6c6572206973206e6f7420746865206f776e657281525060200191505060405180910390fd5b60008111617acb576040517f08c379a000000000000000000000000000000000000000000000000000000000815260040180806020018281038252601e8152602001807f4475726174696f6e206d757374206265206c6172676572207468616e2030000081525060200191505060405180910390fd5b600360010154811415617b46576040517f08c379a00000000000000000000000000000000000000000000000000000000081526004018080602001828103825260128152602001807f4475726174696f6e20756e6368616e676564000000000000000000000000000081525060200191505060405180910390fd5b806003600101819055507f90290eb9b27055e686a69fb810bada5381e544d07b8270021da2d355a6c96ed6816040518082815260200191505060405180910390a150565b6000898989898989898989604051602001808060200180602001806020018060200186815260200185810385528e8e82818152602001925060200280828437600081840152601f19601f82011690508083019250505085810384528c8c82818152602001925060200280828437600081840152601f19601f82011690508083019250505085810383528a8a82818152602001925080828437600081840152601f19601f8201169050808301925050508581038252888882818152602001925060200280828437600081840152601f19601f8201169050808301925050509d50505050505050505050505050506040516020818303038152906040528051906020012090506000806000617c9c84612aae565b9250925092508115617d16576040517f08c379a00000000000000000000000000000000000000000000000000000000081526004018080602001828103825260178152602001807f686f7466697820616c726561647920657865637574656400000000000000000081525060200191505060405180910390fd5b82617d89576040517f08c379a00000000000000000000000000000000000000000000000000000000081526004018080602001828103825260138152602001807f686f74666978206e6f7420617070726f7665640000000000000000000000000081525060200191505060405180910390fd5b617d916161a5565b8114617de8576040517f08c379a000000000000000000000000000000000000000000000000000000000815260040180806020018281038252602681526020018061b0846026913960400191505060405180910390fd5b617f06617f018e8e80806020026020016040519081016040528093929190818152602001838360200280828437600081840152601f19601f820116905080830192505050505050508d8d80806020026020016040519081016040528093929190818152602001838360200280828437600081840152601f19601f820116905080830192505050505050508c8c8080601f016020809104026020016040519081016040528093929190818152602001838380828437600081840152601f19601f820116905080830192505050505050508b8b80806020026020016040519081016040528093929190818152602001838360200280828437600081840152601f19601f8201169050808301925050505050505033600061995f565b619b88565b60016011600086815260200190815260200160002060000160006101000a81548160ff021916908315150217905550837f708a7934acb657a77a617b1fcd5f6d7d9ad592b72934841bff01acefd10f9b6360405160405180910390a250505050505050505050505050565b6000806060600f600086815260200190815260200160002073__Proposals_____________________________63e6a5192f9091866040518363ffffffff1660e01b8152600401808381526020018281526020019250505060006040518083038186803b158015617fe157600080fd5b505af4158015617ff5573d6000803e3d6000fd5b505050506040513d6000823e3d601f19601f82011682018060405250606081101561801f57600080fd5b810190808051906020019092919080519060200190929190805164010000000081111561804b57600080fd5b8281019050602081018481111561806157600080fd5b815185600182028301116401000000008211171561807e57600080fd5b50509291905050509250925092509250925092565b600b5481565b60006060600060f873ffffffffffffffffffffffffffffffffffffffff166040516020016040516020818303038152906040526040518082805190602001908083835b602083106180ff57805182526020820191506020810190506020830392506180dc565b6001836020036101000a038019825116818451168082178552505050505050905001915050600060405180830381855afa9150503d806000811461815f576040519150601f19603f3d011682016040523d82523d6000602084013e618164565b606091505b508093508192505050806181c3576040517f08c379a000000000000000000000000000000000000000000000000000000000815260040180806020018281038252602581526020018061b4036025913960400191505060405180910390fd5b6181ce826000619426565b9250505090565b60008060006181f5600f6000868152602001908152602001600020619b98565b9250925092509193909250565b60006182466003618238600261822a600261821c886161b5565b619bc290919063ffffffff16565b618c8190919063ffffffff16565b619c4890919063ffffffff16565b9050919050565b60008060008714158015618262575060008514155b6182d4576040517f08c379a00000000000000000000000000000000000000000000000000000000081526004018080602001828103825260158152602001807f612064656e6f6d696e61746f72206973207a65726f000000000000000000000081525060200191505060405180910390fd5b6000806000606060fc73ffffffffffffffffffffffffffffffffffffffff168c8c8c8c8c8c6040516020018087815260200186815260200185815260200184815260200183815260200182815260200196505050505050506040516020818303038152906040526040518082805190602001908083835b6020831061836e578051825260208201915060208101905060208303925061834b565b6001836020036101000a038019825116818451168082178552505050505050905001915050600060405180830381855afa9150503d80600081146183ce576040519150601f19603f3d011682016040523d82523d6000602084013e6183d3565b606091505b50809250819350505081618432576040517f08c379a000000000000000000000000000000000000000000000000000000000815260040180806020018281038252602781526020018061b3b66027913960400191505060405180910390fd5b61843d816000619426565b935061844a816020619426565b925083839550955050505050965096945050505050565b618469615cba565b6184db576040517f08c379a00000000000000000000000000000000000000000000000000000000081526004018080602001828103825260208152602001807f4f776e61626c653a2063616c6c6572206973206e6f7420746865206f776e657281525060200191505060405180910390fd5b600073ffffffffffffffffffffffffffffffffffffffff168373ffffffffffffffffffffffffffffffffffffffff16141561857e576040517f08c379a000000000000000000000000000000000000000000000000000000000815260040180806020018281038252601a8152602001807f44657374696e6174696f6e2063616e6e6f74206265207a65726f00000000000081525060200191505060405180910390fd5b6969e10de76676d0800000811180156185a657506185a261859d619c92565b6197b4565b8111155b6185fb576040517f08c379a000000000000000000000000000000000000000000000000000000000815260040180806020018281038252604881526020018061b1946048913960600191505060405180910390fd5b600060e01b827bffffffffffffffffffffffffffffffffffffffffffffffffffffffff191614156186835761862f8161897a565b600e60008573ffffffffffffffffffffffffffffffffffffffff1673ffffffffffffffffffffffffffffffffffffffff1681526020019081526020016000206000016000820151816000015590505061872b565b61868c8161897a565b600e60008573ffffffffffffffffffffffffffffffffffffffff1673ffffffffffffffffffffffffffffffffffffffff1681526020019081526020016000206001016000847bffffffffffffffffffffffffffffffffffffffffffffffffffffffff19167bffffffffffffffffffffffffffffffffffffffffffffffffffffffff19168152602001908152602001600020600082015181600001559050505b817bffffffffffffffffffffffffffffffffffffffffffffffffffffffff19168373ffffffffffffffffffffffffffffffffffffffff167f60c5b4756af49d7b071b00dbf0f87af605cce11896ecd3b760d19f0f9d3fbcef836040518082815260200191505060405180910390a3505050565b6187a6615cba565b618818576040517f08c379a00000000000000000000000000000000000000000000000000000000081526004018080602001828103825260208152602001807f4f776e61626c653a2063616c6c6572206973206e6f7420746865206f776e657281525060200191505060405180910390fd5b618821816197c2565b50565b60006060600060f573ffffffffffffffffffffffffffffffffffffffff1684604051602001808281526020019150506040516020818303038152906040526040518082805190602001908083835b602083106188955780518252602082019150602081019050602083039250618872565b6001836020036101000a038019825116818451168082178552505050505050905001915050600060405180830381855afa9150503d80600081146188f5576040519150601f19603f3d011682016040523d82523d6000602084013e6188fa565b606091505b50809350819250505080618959576040517f08c379a000000000000000000000000000000000000000000000000000000000815260040180806020018281038252602c81526020018061b44c602c913960400191505060405180910390fd5b618964826000618d91565b92505050919050565b6000600360000154905090565b61898261adb8565b6040518060200160405280838152509050919050565b60006189ab826189a6619c92565b619cb8565b9050919050565b60008160000151836000015114905092915050565b6000808260020154119050919050565b60006017805490508210618a36576040517f08c379a000000000000000000000000000000000000000000000000000000000815260040180806020018281038252602b81526020018061b4f7602b913960400191505060405180910390fd5b618a3f846189c7565b8015618a6157508260178381548110618a5457fe5b9060005260206000200154145b90509392505050565b6000618a7461adb8565b618acb618abc60196003016040518060200160405290816000820154815250506019600001604051806020016040529081600082015481525050619cce90919063ffffffff16565b8461a12d90919063ffffffff16565b905060008090505b8360060180549050811015618c3d576000618ba5856006018381548110618af657fe5b90600052602060002090600302016002018054600181600116156101000203166002900480601f016020809104026020016040519081016040528092919081815260200182805460018160011615610100020316600290048015618b9b5780601f10618b7057610100808354040283529160200191618b9b565b820191906000526020600020905b815481529060010190602001808311618b7e57829003601f168201915b505050505061a21c565b9050618baf61adb8565b618bf9866006018481548110618bc157fe5b906000526020600020906003020160010160009054906101000a900473ffffffffffffffffffffffffffffffffffffffff1683619562565b9050618c0e8185619cb890919063ffffffff16565b15618c20576000945050505050618c44565b5050618c36600182618c8190919063ffffffff16565b9050618ad3565b5060019150505b919050565b600080828481618c5557fe5b0490506000838581618c6357fe5b061415618c735780915050618c7b565b600181019150505b92915050565b600080828401905083811015618cff576040517f08c379a000000000000000000000000000000000000000000000000000000000815260040180806020018281038252601b8152602001807f536166654d6174683a206164646974696f6e206f766572666c6f77000000000081525060200191505060405180910390fd5b8091505092915050565b6000818310618d185781618d1a565b825b905092915050565b6000618d3d6006548360020154618c8190919063ffffffff16565b4210159050919050565b6000618d8983836040518060400160405280601e81526020017f536166654d6174683a207375627472616374696f6e206f766572666c6f77000081525061a379565b905092915050565b60006020820183511015618e0d576040517f08c379a00000000000000000000000000000000000000000000000000000000081526004018080602001828103825260148152602001807f736c6963696e67206f7574206f662072616e676500000000000000000000000081525060200191505060405180910390fd5b60006020830184015190508091505092915050565b6000806000600f60008681526020019081526020016000209050618e478186866189d7565b618eb9576040517f08c379a00000000000000000000000000000000000000000000000000000000081526004018080602001828103825260158152602001807f50726f706f73616c206e6f74206465717565756564000000000000000000000081525060200191505060405180910390fd5b6000618ecf60038361936990919063ffffffff16565b9050618edb82826194d0565b15618eec57618eeb828787618efb565b5b81819350935050509250929050565b618f048361943d565b8015618f14575060008360080154115b15618f2357618f228361a439565b5b600060178281548110618f3257fe5b90600052602060002001819055506018819080600181540180825580915050906001820390600052602060002001600090919290919091505550600f6000838152602001908152602001600020600080820160006101000a81549073ffffffffffffffffffffffffffffffffffffffff02191690556001820160009055600282016000905560038201600080820160009055600182016000905560028201600090555050600682016000618fe6919061ae11565b6007820160006101000a81549060ff02191690556008820160009055600982016000619012919061ae35565b5050505050565b600080601273__IntegerSortedLinkedList_______________63bfc516389091856040518363ffffffff1660e01b8152600401808381526020018281526020019250505060206040518083038186803b15801561907657600080fd5b505af415801561908a573d6000803e3d6000fd5b505050506040513d60208110156190a057600080fd5b810190808051906020019092919050505080156190c257506190c183617459565b5b9050801561916a57601273__IntegerSortedLinkedList_______________63eed5f7be9091856040518363ffffffff1660e01b8152600401808381526020018281526020019250505060006040518083038186803b15801561912457600080fd5b505af4158015619138573d6000803e3d6000fd5b50505050827f88e53c486703527139dfc8d97a1e559d9bd93d3f9d52cda4e06564111e7a264360405160405180910390a25b80915050919050565b6000600260009054906101000a900473ffffffffffffffffffffffffffffffffffffffff1673ffffffffffffffffffffffffffffffffffffffff1663dcf0aaed60405160200180807f4163636f756e74730000000000000000000000000000000000000000000000008152506008019050604051602081830303815290604052805190602001206040518263ffffffff1660e01b81526004018082815260200191505060206040518083038186803b15801561922e57600080fd5b505afa158015619242573d6000803e3d6000fd5b505050506040513d602081101561925857600080fd5b8101908080519060200190929190505050905090565b6000600260009054906101000a900473ffffffffffffffffffffffffffffffffffffffff1673ffffffffffffffffffffffffffffffffffffffff1663dcf0aaed60405160200180807f4c6f636b6564476f6c6400000000000000000000000000000000000000000000815250600a019050604051602081830303815290604052805190602001206040518263ffffffff1660e01b81526004018082815260200191505060206040518083038186803b15801561932957600080fd5b505afa15801561933d573d6000803e3d6000fd5b505050506040513d602081101561935357600080fd5b8101908080519060200190929190505050905090565b6000806193b383600201546193a5856001015461939787600001548960020154618c8190919063ffffffff16565b618c8190919063ffffffff16565b618c8190919063ffffffff16565b90508042106193c6576005915050619420565b6193dd836002015482618d4790919063ffffffff16565b90508042106193f0576004915050619420565b619407836001015482618d4790919063ffffffff16565b905080421061941a576003915050619420565b60029150505b92915050565b60006194328383618d91565b60001c905092915050565b60008160070160009054906101000a900460ff169050919050565b6000815114156194b3576040517f08c379a000000000000000000000000000000000000000000000000000000000815260040180806020018281038252602981526020018061b1446029913960400191505060405180910390fd5b808260090190805190602001906194cb92919061ae7d565b505050565b6000600460058111156194df57fe5b8260058111156194eb57fe5b118061951f5750600360058111156194ff57fe5b82600581111561950b57fe5b11801561951e575061951c83618a6a565b155b5b8061955257506002600581111561953257fe5b82600581111561953e57fe5b118015619551575061954f8361943d565b155b5b905092915050565b600033905090565b61956a61adb8565b61957261adb8565b6195856969e10de76676d080000061897a565b90506000619637600e60008773ffffffffffffffffffffffffffffffffffffffff1673ffffffffffffffffffffffffffffffffffffffff1681526020019081526020016000206001016000867bffffffffffffffffffffffffffffffffffffffffffffffffffffffff19167bffffffffffffffffffffffffffffffffffffffffffffffffffffffff191681526020019081526020016000206040518060200160405290816000820154815250506197b4565b146196e957600e60008573ffffffffffffffffffffffffffffffffffffffff1673ffffffffffffffffffffffffffffffffffffffff1681526020019081526020016000206001016000847bffffffffffffffffffffffffffffffffffffffffffffffffffffffff19167bffffffffffffffffffffffffffffffffffffffffffffffffffffffff1916815260200190815260200160002060405180602001604052908160008201548152505090506197aa565b600061974a600e60008773ffffffffffffffffffffffffffffffffffffffff1673ffffffffffffffffffffffffffffffffffffffff1681526020019081526020016000206000016040518060200160405290816000820154815250506197b4565b146197a957600e60008573ffffffffffffffffffffffffffffffffffffffff1673ffffffffffffffffffffffffffffffffffffffff16815260200190815260200160002060000160405180602001604052908160008201548152505090505b5b8091505092915050565b600081600001519050919050565b600073ffffffffffffffffffffffffffffffffffffffff168173ffffffffffffffffffffffffffffffffffffffff161415619848576040517f08c379a000000000000000000000000000000000000000000000000000000000815260040180806020018281038252602681526020018061b11e6026913960400191505060405180910390fd5b8073ffffffffffffffffffffffffffffffffffffffff166000809054906101000a900473ffffffffffffffffffffffffffffffffffffffff1673ffffffffffffffffffffffffffffffffffffffff167f8be0079c531659141344cd1fd0a4f28419497f9722a3daafe3b4186f6b6457e060405160405180910390a3806000806101000a81548173ffffffffffffffffffffffffffffffffffffffff021916908373ffffffffffffffffffffffffffffffffffffffff16021790555050565b60008060008060008560000160009054906101000a900473ffffffffffffffffffffffffffffffffffffffff16866001015487600201548860060180549050896009018090509450945094509450945091939590929450565b61996761aefd565b85518751148015619979575083518651145b6199eb576040517f08c379a00000000000000000000000000000000000000000000000000000000081526004018080602001828103825260158152602001807f4172726179206c656e677468206d69736d61746368000000000000000000000081525060200191505060405180910390fd5b6000875190506199f961aefd565b84816000019073ffffffffffffffffffffffffffffffffffffffff16908173ffffffffffffffffffffffffffffffffffffffff16815250508381602001818152505042816040018181525050600080905082604051908082528060200260200182016040528015619a8457816020015b619a7161af60565b815260200190600190039081619a695790505b50826080018190525060008090505b83811015619b775760405180606001604052808c8381518110619ab257fe5b602002602001015181526020018b8381518110619acb57fe5b602002602001015173ffffffffffffffffffffffffffffffffffffffff168152602001619b16848b8581518110619afe57fe5b60200260200101518d61a5cf9092919063ffffffff16565b81525083608001518281518110619b2957fe5b6020026020010181905250619b5a888281518110619b4357fe5b602002602001015183618c8190919063ffffffff16565b9150619b70600182618c8190919063ffffffff16565b9050619a93565b508193505050509695505050505050565b619b95816080015161a65b565b50565b60008060008360030160000154846003016001015485600301600201549250925092509193909250565b600080831415619bd55760009050619c42565b6000828402905082848281619be657fe5b0414619c3d576040517f08c379a000000000000000000000000000000000000000000000000000000000815260040180806020018281038252602181526020018061b34a6021913960400191505060405180910390fd5b809150505b92915050565b6000619c8a83836040518060400160405280601a81526020017f536166654d6174683a206469766973696f6e206279207a65726f00000000000081525061a764565b905092915050565b619c9a61adb8565b604051806020016040528069d3c21bcecceda1000000815250905090565b6000816000015183600001511115905092915050565b619cd661adb8565b600083600001511480619ced575060008260000151145b15619d095760405180602001604052806000815250905061a127565b69d3c21bcecceda100000082600001511415619d275782905061a127565b69d3c21bcecceda100000083600001511415619d455781905061a127565b600069d3c21bcecceda1000000619d5b8561a82a565b6000015181619d6657fe5b0490506000619d748561a861565b600001519050600069d3c21bcecceda1000000619d908661a82a565b6000015181619d9b57fe5b0490506000619da98661a861565b6000015190506000828502905060008514619e3d5782858281619dc857fe5b0414619e3c576040517f08c379a00000000000000000000000000000000000000000000000000000000081526004018080602001828103825260168152602001807f6f766572666c6f7720783179312064657465637465640000000000000000000081525060200191505060405180910390fd5b5b600069d3c21bcecceda10000008202905060008214619edf5769d3c21bcecceda1000000828281619e6a57fe5b0414619ede576040517f08c379a000000000000000000000000000000000000000000000000000000000815260040180806020018281038252601f8152602001807f6f766572666c6f772078317931202a206669786564312064657465637465640081525060200191505060405180910390fd5b5b8091506000848602905060008614619f705784868281619efb57fe5b0414619f6f576040517f08c379a00000000000000000000000000000000000000000000000000000000081526004018080602001828103825260168152602001807f6f766572666c6f7720783279312064657465637465640000000000000000000081525060200191505060405180910390fd5b5b6000848802905060008814619ffe5784888281619f8957fe5b0414619ffd576040517f08c379a00000000000000000000000000000000000000000000000000000000081526004018080602001828103825260168152602001807f6f766572666c6f7720783179322064657465637465640000000000000000000081525060200191505060405180910390fd5b5b61a00661a89e565b878161a00e57fe5b04965061a01961a89e565b858161a02157fe5b049450600085880290506000881461a0b2578588828161a03d57fe5b041461a0b1576040517f08c379a00000000000000000000000000000000000000000000000000000000081526004018080602001828103825260168152602001807f6f766572666c6f7720783279322064657465637465640000000000000000000081525060200191505060405180910390fd5b5b61a0ba61adb8565b604051806020016040528087815250905061a0e38160405180602001604052808781525061a8ab565b905061a0fd8160405180602001604052808681525061a8ab565b905061a1178160405180602001604052808581525061a8ab565b9050809a50505050505050505050505b92915050565b61a13561adb8565b600083600301600001549050600081141561a15c5761a154600061a954565b91505061a216565b600084600301600101549050600061a196866003016002015461a1888486618c8190919063ffffffff16565b618c8190919063ffffffff16565b9050600061a1c161a1bc61a1ad896008015461a954565b88619cce90919063ffffffff16565b61a9de565b90508181111561a1f35761a1f061a1e18383618d4790919063ffffffff16565b84618c8190919063ffffffff16565b92505b61a20f8461a20a8587618c8190919063ffffffff16565b61a9ff565b9450505050505b92915050565b600060188260038151811061a22d57fe5b602001015160f81c60f81b7effffffffffffffffffffffffffffffffffffffffffffffffffffffffffffff19167bffffffffffffffffffffffffffffffffffffffffffffffffffffffff1916901c60108360028151811061a28a57fe5b602001015160f81c60f81b7effffffffffffffffffffffffffffffffffffffffffffffffffffffffffffff19167bffffffffffffffffffffffffffffffffffffffffffffffffffffffff1916901c60088460018151811061a2e757fe5b602001015160f81c60f81b7effffffffffffffffffffffffffffffffffffffffffffffffffffffffffffff19167bffffffffffffffffffffffffffffffffffffffffffffffffffffffff1916901c8460008151811061a34257fe5b602001015160f81c60f81b7effffffffffffffffffffffffffffffffffffffffffffffffffffffffffffff19161717179050919050565b600083831115829061a426576040517f08c379a00000000000000000000000000000000000000000000000000000000081526004018080602001828103825283818151815260200191508051906020019080838360005b8381101561a3eb57808201518184015260208101905061a3d0565b50505050905090810190601f16801561a4185780820380516001836020036101000a031916815260200191505b509250505060405180910390fd5b5060008385039050809150509392505050565b61a44161adb8565b61a44a8261aa41565b905061a45461adb8565b61a480601960020160405180602001604052908160008201548152505083619cce90919063ffffffff16565b905061a48a61adb8565b61a4e861a4c0601960020160405180602001604052908160008201548152505061a4b2619c92565b61aa9d90919063ffffffff16565b6019600001604051806020016040529081600082015481525050619cce90919063ffffffff16565b905061a4fd818361a8ab90919063ffffffff16565b60196000016000820151816000015590505061a5546019600101604051806020016040529081600082015481525050601960000160405180602001604052908160008201548152505061ab4490919063ffffffff16565b1561a5715760196001016019600001600082015481600001559050505b7f51131d2820f04a6b6edd20e22a07d5bf847e265a3906e85256fca7d6043417c561a5b460196000016040518060200160405290816000820154815250506197b4565b6040518082815260200191505060405180910390a150505050565b60608183018451101561a5e157600080fd5b606082156000811461a5fe5760405191506020820160405261a64f565b6040519150601f8416801560200281840101858101878315602002848b0101015b8183101561a63c578051835260208301925060208101905061a61f565b50868552601f19601f8301166040525050505b50809150509392505050565b60008090505b815181101561a7605761a6d382828151811061a67957fe5b60200260200101516020015183838151811061a69157fe5b60200260200101516000015184848151811061a6a957fe5b6020026020010151604001515185858151811061a6c257fe5b60200260200101516040015161ab59565b61a745576040517f08c379a00000000000000000000000000000000000000000000000000000000081526004018080602001828103825260198152602001807f50726f706f73616c20657865637574696f6e206661696c65640000000000000081525060200191505060405180910390fd5b61a759600182618c8190919063ffffffff16565b905061a661565b5050565b6000808311829061a810576040517f08c379a00000000000000000000000000000000000000000000000000000000081526004018080602001828103825283818151815260200191508051906020019080838360005b8381101561a7d557808201518184015260208101905061a7ba565b50505050905090810190601f16801561a8025780820380516001836020036101000a031916815260200191505b509250505060405180910390fd5b50600083858161a81c57fe5b049050809150509392505050565b61a83261adb8565b604051806020016040528069d3c21bcecceda10000008085600001518161a85557fe5b04028152509050919050565b61a86961adb8565b604051806020016040528069d3c21bcecceda10000008085600001518161a88c57fe5b04028460000151038152509050919050565b600064e8d4a51000905090565b61a8b361adb8565b600082600001518460000151019050836000015181101561a93c576040517f08c379a00000000000000000000000000000000000000000000000000000000081526004018080602001828103825260158152602001807f616464206f766572666c6f77206465746563746564000000000000000000000081525060200191505060405180910390fd5b60405180602001604052808281525091505092915050565b61a95c61adb8565b61a96461ac05565b82111561a9bc576040517f08c379a000000000000000000000000000000000000000000000000000000000815260040180806020018281038252603681526020018061b2616036913960400191505060405180910390fd5b604051806020016040528069d3c21bcecceda100000084028152509050919050565b600069d3c21bcecceda100000082600001518161a9f757fe5b049050919050565b61aa0761adb8565b61aa0f61adb8565b61aa188461a954565b905061aa2261adb8565b61aa2b8461a954565b905061aa37828261ac24565b9250505092915050565b61aa4961adb8565b600061aa85836003016002015461aa7785600301600101548660030160000154618c8190919063ffffffff16565b618c8190919063ffffffff16565b905061aa9581846008015461a9ff565b915050919050565b61aaa561adb8565b81600001518360000151101561ab23576040517f08c379a000000000000000000000000000000000000000000000000000000000815260040180806020018281038252601f8152602001807f737562737472616374696f6e20756e646572666c6f772064657465637465640081525060200191505060405180910390fd5b60405180602001604052808360000151856000015103815250905092915050565b60008160000151836000015110905092915050565b600080600084111561abe15761ab6e8661ad6d565b61abe0576040517f08c379a00000000000000000000000000000000000000000000000000000000081526004018080602001828103825260188152602001807f496e76616c696420636f6e74726163742061646472657373000000000000000081525060200191505060405180910390fd5b5b6040516020840160008287838a8c6187965a03f19250505080915050949350505050565b60007601357c299a88ea76a58924d52ce4f26a85af186c2b9e74905090565b61ac2c61adb8565b60008260000151141561aca7576040517f08c379a00000000000000000000000000000000000000000000000000000000081526004018080602001828103825260118152602001807f63616e277420646976696465206279203000000000000000000000000000000081525060200191505060405180910390fd5b600069d3c21bcecceda10000008460000151029050836000015169d3c21bcecceda1000000828161acd457fe5b041461ad48576040517f08c379a00000000000000000000000000000000000000000000000000000000081526004018080602001828103825260128152602001807f6f766572666c6f7720617420646976696465000000000000000000000000000081525060200191505060405180910390fd5b60405180602001604052808460000151838161ad6057fe5b0481525091505092915050565b60008060007fc5d2460186f7233c927e7db2dcc703c0e500b653ca82273b7bfad8045d85a47060001b9050833f915080821415801561adaf57506000801b8214155b92505050919050565b6040518060200160405280600081525090565b81548183558181111561adf25781836000526020600020918201910161adf1919061af97565b5b505050565b604051806040016040528060008152602001600081525090565b508054600082556003029060005260206000209081019061ae32919061afbc565b50565b50805460018160011615610100020316600290046000825580601f1061ae5b575061ae7a565b601f01602090049060005260206000209081019061ae79919061af97565b5b50565b828054600181600116156101000203166002900490600052602060002090601f016020900481019282601f1061aebe57805160ff191683800117855561aeec565b8280016001018555821561aeec579182015b8281111561aeeb57825182559160200191906001019061aed0565b5b50905061aef9919061af97565b5090565b604051806101400160405280600073ffffffffffffffffffffffffffffffffffffffff168152602001600081526020016000815260200161af3c61b01a565b81526020016060815260200160001515815260200160008152602001606081525090565b604051806060016040528060008152602001600073ffffffffffffffffffffffffffffffffffffffff168152602001606081525090565b61afb991905b8082111561afb557600081600090555060010161af9d565b5090565b90565b61b01791905b8082111561b013576000808201600090556001820160006101000a81549073ffffffffffffffffffffffffffffffffffffffff021916905560028201600061b00a919061b03b565b5060030161afc2565b5090565b90565b60405180606001604052806000815260200160008152602001600081525090565b50805460018160011615610100020316600290046000825580601f1061b061575061b080565b601f01602090049060005260206000209081019061b07f919061af97565b5b5056fe686f74666978206d75737420626520707265706172656420666f7220746869732065706f63685175657565457870697279206d757374206265206c6172676572207468616e203050617274696369706174696f6e20626173656c696e652067726561746572207468616e206f6e654e756d626572206f662070726f706f73616c73206d757374206265206c6172676572207468616e207a65726f4f776e61626c653a206e6577206f776e657220697320746865207a65726f20616464726573734465736372697074696f6e2075726c206d7573742068617665206e6f6e2d7a65726f206c656e677468426173656c696e652071756f72756d20666163746f722067726561746572207468616e206f6e655468726573686f6c642068617320746f2062652067726561746572207468616e206d616a6f7269747920616e64206e6f742067726561746572207468616e20756e616e696d69747950617274696369706174696f6e20626173656c696e6520666c6f6f7220756e6368616e676564426173656c696e652075706461746520666163746f722067726561746572207468616e206f6e656572726f722063616c6c696e672067657456657269666965645365616c4269746d617046726f6d48656164657220707265636f6d70696c6563616e277420637265617465206669786964697479206e756d626572206c6172676572207468616e206d61784e65774669786564282963616e6e6f74207570766f746520612070726f706f73616c206e6f7420696e207468652071756575656572726f722063616c6c696e672076616c696461746f725369676e65724164647265737346726f6d53657420707265636f6d70696c6550726f706f73616c206e6f7420696e20657865637574696f6e207374616765206f72206e6f742070617373696e67646571756575654672657175656e6379206d757374206265206c6172676572207468616e2030536166654d6174683a206d756c7469706c69636174696f6e206f766572666c6f77686f74666978206e6f742077686974656c69737465642062792032662b312076616c696461746f727363616e6e6f74207570766f746520776974686f7574206c6f636b696e6720676f6c646572726f722063616c6c696e67206672616374696f6e4d756c45787020707265636f6d70696c65686f7466697820616c726561647920707265706172656420666f7220746869732065706f63686572726f722063616c6c696e672067657445706f636853697a6520707265636f6d70696c6550617274696369706174696f6e20666c6f6f722067726561746572207468616e206f6e656572726f722063616c6c696e6720676574506172656e745365616c4269746d617020707265636f6d70696c656572726f722063616c6c696e6720676574426c6f636b4e756d62657246726f6d48656164657220707265636f6d70696c6563616e6e6f74207570766f7465206d6f7265207468616e206f6e65207175657565642070726f706f73616c6572726f722063616c6c696e67206861736848656164657220707265636f6d70696c6550726f766964656420696e6465782067726561746572207468616e2064657175657565206c656e6774682ea165627a7a72305820174914eed1e396e1fa1f2c737f7948b36497cd396e3bd843588aea80bd442dfd0029",
  "source": "pragma solidity ^0.5.3;\n\nimport \"../Governance.sol\";\n\ncontract GovernanceTest is Governance {\n  address[] validatorSet;\n\n  // Minimally override core functions from UsingPrecompiles\n  function numberValidatorsInCurrentSet() public view returns (uint256) {\n    return validatorSet.length;\n  }\n\n  function numberValidatorsInSet(uint256) public view returns (uint256) {\n    return validatorSet.length;\n  }\n\n  function validatorSignerAddressFromCurrentSet(uint256 index) public view returns (address) {\n    return validatorSet[index];\n  }\n\n  // Expose test utilities\n  function addValidator(address validator) external {\n    validatorSet.push(validator);\n  }\n}\n",
  "sourcePath": "/Users/cmcewen/celo/celo-monorepo/packages/protocol/contracts/governance/test/GovernanceTest.sol",
  "compiler": {
    "name": "solc",
    "version": "0.5.8+commit.23d335f2.Emscripten.clang"
  },
  "schemaVersion": "3.0.10",
  "updatedAt": "2020-04-09T23:12:52.940Z",
  "devdoc": {
    "methods": {
      "approve(uint256,uint256)": {
        "params": {
          "index": "The index of the proposal ID in `dequeued`.",
          "proposalId": "The ID of the proposal to approve."
        },
        "return": "Whether or not the approval was made successfully."
      },
      "approveHotfix(bytes32)": {
        "params": {
          "hash": "The abi encoded keccak256 hash of the hotfix transaction(s) to be approved."
        }
      },
      "checkProofOfPossession(address,bytes,bytes)": {
        "params": {
          "blsKey": "The BLS public key that the validator is using for consensus, should pass proof  of possession. 48 bytes.",
          "blsPop": "The BLS public key proof-of-possession, which consists of a signature on the  account address. 96 bytes.",
          "sender": "The address signed by the BLS key to generate the proof of possession."
        },
        "return": "True upon success."
      },
      "dequeueProposalsIfReady()": {
        "details": "If any of the top proposals have expired, they are deleted."
      },
      "execute(uint256,uint256)": {
        "details": "Does not remove the proposal if the execution fails.",
        "params": {
          "index": "The index of the proposal ID in `dequeued`.",
          "proposalId": "The ID of the proposal to vote on."
        },
        "return": "Whether or not the proposal was executed successfully."
      },
      "executeHotfix(uint256[],address[],bytes,uint256[],bytes32)": {
        "details": "Reverts if hotfix is already executed, not approved, or not prepared for current epoch.",
        "params": {
          "data": "The concatenated data to be included in the proposed transactions.",
          "dataLengths": "The lengths of each transaction's data.",
          "destinations": "The destination addresses of the proposed transactions.",
          "salt": "Arbitrary salt associated with hotfix which guarantees uniqueness of hash.",
          "values": "The values of Celo Gold to be sent in the proposed transactions."
        }
      },
      "fractionMulExp(uint256,uint256,uint256,uint256,uint256,uint256)": {
        "params": {
          "_decimals": "precision",
          "aDenominator": "Denominator of first fraction",
          "aNumerator": "Numerator of first fraction",
          "bDenominator": "Denominator of exponentiated fraction",
          "bNumerator": "Numerator of exponentiated fraction",
          "exponent": "exponent to raise b to"
        },
        "return": "numerator/denominator of the computed quantity (not reduced)."
      },
      "getApprovalStageDuration()": {
        "return": "The number of seconds proposals stay in approval stage."
      },
      "getBlockNumberFromHeader(bytes)": {
        "params": {
          "header": "RLP encoded header"
        },
        "return": "Block number."
      },
      "getConstitution(address,bytes4)": {
        "params": {
          "destination": "The destination address to get the constitution for.",
          "functionId": "The function ID to get the constitution for, zero for the destination  default."
        },
        "return": "The ratio of yes:no votes needed to exceed in order to pass the proposal."
      },
      "getDequeue()": {
        "details": "Note that this includes unused indices with proposalId == 0 from deleted proposals.",
        "return": "The dequeued proposal IDs."
      },
      "getEpochNumber()": {
        "return": "Current epoch number."
      },
      "getEpochNumberOfBlock(uint256)": {
        "params": {
          "blockNumber": "Block number where epoch number is calculated."
        },
        "return": "Epoch number."
      },
      "getEpochSize()": {
        "return": "The current epoch size in blocks."
      },
      "getExecutionStageDuration()": {
        "return": "The number of seconds proposals stay in the execution stage."
      },
      "getHotfixRecord(bytes32)": {
        "params": {
          "hash": "The abi encoded keccak256 hash of the hotfix transaction."
        },
        "return": "Hotfix tuple of (approved, executed, preparedEpoch)"
      },
      "getMostRecentReferendumProposal(address)": {
        "params": {
          "account": "The address of the account."
        },
        "return": "The ID of the most recently dequeued proposal voted on by `account`.."
      },
      "getParentSealBitmap(uint256)": {
        "params": {
          "blockNumber": "Block number to retrieve. Must be within 4 epochs of the current number."
        },
        "return": "Bitmap parent seal with set bits at indices corresponding to signing validators."
      },
      "getParticipationParameters()": {
        "return": "The participation parameters."
      },
      "getProposal(uint256)": {
        "params": {
          "proposalId": "The ID of the proposal to unpack."
        },
        "return": "The unpacked proposal with its transaction count."
      },
      "getProposalStage(uint256)": {
        "params": {
          "proposalId": "The ID of the proposal to query."
        },
        "return": "proposal stage"
      },
      "getProposalTransaction(uint256,uint256)": {
        "params": {
          "index": "The index of the specified transaction in the proposal's transaction list.",
          "proposalId": "The ID of the proposal to query."
        },
        "return": "The specified transaction."
      },
      "getQueue()": {
        "details": "Note that this includes expired proposals that have yet to be removed from the queue.",
        "return": "The proposal ID and upvote total for all queued proposals."
      },
      "getQueueLength()": {
        "return": "The number of proposals in the queue."
      },
      "getReferendumStageDuration()": {
        "return": "The number of seconds proposals stay in the referendum stage."
      },
      "getUpvoteRecord(address)": {
        "params": {
          "account": "The address of the account."
        },
        "return": "The ID of the proposal upvoted by `account` and the weight of that upvote."
      },
      "getUpvotes(uint256)": {
        "params": {
          "proposalId": "The ID of the proposal."
        },
        "return": "The number of upvotes a queued proposal has received."
      },
      "getVerifiedSealBitmapFromHeader(bytes)": {
        "params": {
          "header": "RLP encoded header"
        },
        "return": "Bitmap parent seal with set bits at indices correspoinding to signing validators."
      },
      "getVoteRecord(address,uint256)": {
        "params": {
          "account": "The address of the account to get the record for.",
          "index": "The index in `dequeued`."
        },
        "return": "The corresponding proposal ID and vote value."
      },
      "getVoteTotals(uint256)": {
        "params": {
          "proposalId": "The ID of the proposal."
        },
        "return": "The yes, no, and abstain vote totals."
      },
      "hashHeader(bytes)": {
        "params": {
          "header": "RLP encoded header"
        },
        "return": "Header hash."
      },
      "hotfixWhitelistValidatorTally(bytes32)": {
        "params": {
          "hash": "The abi encoded keccak256 hash of the hotfix transaction."
        },
        "return": "Whitelist tally"
      },
      "initialize(address,address,uint256,uint256,uint256,uint256,uint256,uint256,uint256,uint256,uint256,uint256,uint256)": {
        "details": "Should be called only once.",
        "params": {
          "_approver": "The address that needs to approve proposals to move to the referendum stage.",
          "_concurrentProposals": "The number of proposals to dequeue at once.",
          "_dequeueFrequency": "The number of seconds before the next batch of proposals can be  dequeued.",
          "_minDeposit": "The minimum Celo Gold deposit needed to make a proposal.",
          "_queueExpiry": "The number of seconds a proposal can stay in the queue before expiring.",
          "approvalStageDuration": "The number of seconds the approver has to approve a proposal  after it is dequeued.",
          "baselineQuorumFactor": "The proportion of the baseline that constitutes quorum.",
          "baselineUpdateFactor": "The weight of the new participation in the baseline update rule.",
          "executionStageDuration": "The number of seconds users have to execute a passed proposal  after the referendum stage ends.",
          "participationBaseline": "The initial value of the participation baseline.",
          "participationFloor": "The participation floor.",
          "referendumStageDuration": "The number of seconds users have to vote on a dequeued proposal  after the approval stage ends.",
          "registryAddress": "The address of the registry contract."
        }
      },
      "isApproved(uint256)": {
        "params": {
          "proposalId": "The ID of the proposal."
        },
        "return": "Whether or not the proposal has been approved."
      },
      "isDequeuedProposal(uint256,uint256)": {
        "params": {
          "index": "The index of the proposal ID in `dequeued`.",
          "proposalId": "The ID of the proposal."
        },
        "return": "Whether the proposal is in `dequeued`."
      },
      "isDequeuedProposalExpired(uint256)": {
        "params": {
          "proposalId": "The ID of the proposal."
        },
        "return": "Whether or not the dequeued proposal has expired."
      },
      "isHotfixPassing(bytes32)": {
        "params": {
          "hash": "The abi encoded keccak256 hash of the hotfix transaction."
        },
        "return": "Whether validator whitelist tally >= validator byzantine quorum"
      },
      "isHotfixWhitelistedBy(bytes32,address)": {
        "params": {
          "hash": "The abi encoded keccak256 hash of the hotfix transaction(s) to be whitelisted.",
          "whitelister": "Address to check whitelist status of."
        }
      },
      "isOwner()": {
        "details": "Returns true if the caller is the current owner."
      },
      "isProposalPassing(uint256)": {
        "params": {
          "proposalId": "The ID of the proposal."
        },
        "return": "Whether or not the proposal is passing."
      },
      "isQueued(uint256)": {
        "params": {
          "proposalId": "The ID of the proposal."
        },
        "return": "Whether or not the proposal is in the queue."
      },
      "isQueuedProposalExpired(uint256)": {
        "params": {
          "proposalId": "The ID of the proposal."
        },
        "return": "Whether or not the dequeued proposal has expired."
      },
      "isVoting(address)": {
        "params": {
          "account": "The address of the account."
        },
        "return": "Whether or not the account is voting on proposals."
      },
      "minQuorumSize(uint256)": {
        "details": "Computed in celo-blockchain as int(math.Ceil(float64(2*valSet.Size()) / 3))"
      },
      "minQuorumSizeInCurrentSet()": {
        "return": "Byzantine quorum of validators."
      },
      "owner()": {
        "details": "Returns the address of the current owner."
      },
      "prepareHotfix(bytes32)": {
        "params": {
          "hash": "The hash of the hotfix to be prepared."
        }
      },
      "proposalExists(uint256)": {
        "params": {
          "proposalId": "The ID of the proposal."
        },
        "return": "Whether or not the proposal exists."
      },
      "propose(uint256[],address[],bytes,uint256[],string)": {
        "details": "The minimum deposit must be included with the proposal, returned if/when the proposal is  dequeued.",
        "params": {
          "data": "The concatenated data to be included in the proposed transactions.",
          "dataLengths": "The lengths of each transaction's data.",
          "destinations": "The destination addresses of the proposed transactions.",
          "values": "The values of Celo Gold to be sent in the proposed transactions."
        },
        "return": "The ID of the newly proposed proposal."
      },
      "renounceOwnership()": {
        "details": "Leaves the contract without owner. It will not be possible to call `onlyOwner` functions anymore. Can only be called by the current owner.     * NOTE: Renouncing ownership will leave the contract without an owner, thereby removing any functionality that is only available to the owner."
      },
      "revokeUpvote(uint256,uint256)": {
        "details": "Provide 0 for `lesser`/`greater` when the proposal will be at the tail/head of the queue.",
        "params": {
          "greater": "The ID of the proposal that will be just ahead of the previously upvoted  proposal in the queue.",
          "lesser": "The ID of the proposal that will be just behind the previously upvoted proposal  in the queue."
        },
        "return": "Whether or not the upvote was revoked successfully."
      },
      "setApprovalStageDuration(uint256)": {
        "params": {
          "approvalStageDuration": "The number of seconds proposals stay in the approval stage."
        }
      },
      "setApprover(address)": {
        "params": {
          "_approver": "The address that has permission to approve proposals in the approval stage."
        }
      },
      "setBaselineQuorumFactor(uint256)": {
        "params": {
          "baselineQuorumFactor": "The new baseline quorum factor."
        }
      },
      "setBaselineUpdateFactor(uint256)": {
        "params": {
          "baselineUpdateFactor": "The new baseline update factor."
        }
      },
      "setConcurrentProposals(uint256)": {
        "params": {
          "_concurrentProposals": "The number of proposals to dequeue at at a time."
        }
      },
      "setConstitution(address,bytes4,uint256)": {
        "details": "If no constitution is explicitly set the default is a simple majority, i.e. 1:2.",
        "params": {
          "destination": "The destination of proposals for which this threshold should apply.",
          "functionId": "The function ID of proposals for which this threshold should apply. Zero  will set the default.",
          "threshold": "The threshold."
        }
      },
      "setDequeueFrequency(uint256)": {
        "params": {
          "_dequeueFrequency": "The number of seconds before the next batch of proposals can be  dequeued."
        }
      },
      "setExecutionStageDuration(uint256)": {
        "params": {
          "executionStageDuration": "The number of seconds proposals stay in the execution stage."
        }
      },
      "setMinDeposit(uint256)": {
        "params": {
          "_minDeposit": "The minimum Celo Gold deposit needed to make a proposal."
        }
      },
      "setParticipationBaseline(uint256)": {
        "params": {
          "participationBaseline": "The value of the baseline."
        }
      },
      "setParticipationFloor(uint256)": {
        "params": {
          "participationFloor": "The value at which the baseline is floored."
        }
      },
      "setQueueExpiry(uint256)": {
        "params": {
          "_queueExpiry": "The number of seconds a proposal can stay in the queue before expiring."
        }
      },
      "setReferendumStageDuration(uint256)": {
        "params": {
          "referendumStageDuration": "The number of seconds proposals stay in the referendum stage."
        }
      },
      "setRegistry(address)": {
        "params": {
          "registryAddress": "The address of a registry contract for routing to other contracts."
        }
      },
      "transferOwnership(address)": {
        "details": "Transfers ownership of the contract to a new account (`newOwner`). Can only be called by the current owner."
      },
      "upvote(uint256,uint256,uint256)": {
        "details": "Provide 0 for `lesser`/`greater` when the proposal will be at the tail/head of the queue.Reverts if the account has already upvoted a proposal in the queue.",
        "params": {
          "greater": "The ID of the proposal that will be just ahead `proposalId` in the queue.",
          "lesser": "The ID of the proposal that will be just behind `proposalId` in the queue.",
          "proposalId": "The ID of the proposal to upvote."
        },
        "return": "Whether or not the upvote was made successfully."
      },
      "validatorSignerAddressFromSet(uint256,uint256)": {
        "params": {
          "blockNumber": "Block number to retrieve the validator set from.",
          "index": "Index of requested validator in the validator set."
        },
        "return": "Address of validator at the requested index."
      },
      "vote(uint256,uint256,uint8)": {
        "params": {
          "index": "The index of the proposal ID in `dequeued`.",
          "proposalId": "The ID of the proposal to vote on.",
          "value": "Whether to vote yes, no, or abstain."
        },
        "return": "Whether or not the vote was cast successfully."
      },
      "whitelistHotfix(bytes32)": {
        "params": {
          "hash": "The abi encoded keccak256 hash of the hotfix transaction(s) to be whitelisted."
        }
      },
      "withdraw()": {
        "return": "Whether or not the withdraw was successful."
      }
    }
  },
  "userdoc": {
    "methods": {
      "approve(uint256,uint256)": {
        "notice": "Approves a proposal in the approval stage."
      },
      "approveHotfix(bytes32)": {
        "notice": "Approves the hash of a hotfix transaction(s)."
      },
      "checkProofOfPossession(address,bytes,bytes)": {
        "notice": "Checks a BLS proof of possession."
      },
      "dequeueProposalsIfReady()": {
        "notice": "Removes the proposals with the most upvotes from the queue, moving them to the  approval stage."
      },
      "execute(uint256,uint256)": {
        "notice": "Executes a proposal in the execution stage, removing it from `dequeued`."
      },
      "executeHotfix(uint256[],address[],bytes,uint256[],bytes32)": {
        "notice": "Executes a whitelisted proposal."
      },
      "fractionMulExp(uint256,uint256,uint256,uint256,uint256,uint256)": {
        "notice": "calculate a * b^x for fractions a, b to `decimals` precision"
      },
      "getApprovalStageDuration()": {
        "notice": "Returns the number of seconds proposals stay in approval stage."
      },
      "getBlockNumberFromHeader(bytes)": {
        "notice": "Parses block number out of header."
      },
      "getConstitution(address,bytes4)": {
        "notice": "Returns the constitution for a particular destination and function ID."
      },
      "getDequeue()": {
        "notice": "Returns the dequeued proposal IDs."
      },
      "getEpochNumber()": {
        "notice": "Returns the epoch number at a block."
      },
      "getEpochNumberOfBlock(uint256)": {
        "notice": "Returns the epoch number at a block."
      },
      "getEpochSize()": {
        "notice": "Returns the current epoch size in blocks."
      },
      "getExecutionStageDuration()": {
        "notice": "Returns the number of seconds proposals stay in the execution stage."
      },
      "getHotfixRecord(bytes32)": {
        "notice": "Gets information about a hotfix."
      },
      "getMostRecentReferendumProposal(address)": {
        "notice": "Returns the ID of the most recently dequeued proposal voted on by `account`."
      },
      "getParentSealBitmap(uint256)": {
        "notice": "Gets the parent seal bitmap from the header at the given block number."
      },
      "getParticipationParameters()": {
        "notice": "Returns the participation parameters."
      },
      "getProposal(uint256)": {
        "notice": "Returns an unpacked proposal struct with its transaction count."
      },
      "getProposalStage(uint256)": {
        "notice": "Returns stage of governance process given proposal is in"
      },
      "getProposalTransaction(uint256,uint256)": {
        "notice": "Returns a specified transaction in a proposal."
      },
      "getQueue()": {
        "notice": "Returns the proposal ID and upvote total for all queued proposals."
      },
      "getQueueLength()": {
        "notice": "Returns the number of proposals in the queue."
      },
      "getReferendumStageDuration()": {
        "notice": "Returns the number of seconds proposals stay in the referendum stage."
      },
      "getUpvoteRecord(address)": {
        "notice": "Returns the ID of the proposal upvoted by `account` and the weight of that upvote."
      },
      "getUpvotes(uint256)": {
        "notice": "Returns the number of upvotes the queued proposal has received."
      },
      "getVerifiedSealBitmapFromHeader(bytes)": {
        "notice": "Verifies the BLS signature on the header and returns the seal bitmap. The validator set used for verification is retrieved based on the parent hash field of the header.  If the parent hash is not in the blockchain, verification fails."
      },
      "getVoteRecord(address,uint256)": {
        "notice": "Returns an accounts vote record on a particular index in `dequeued`."
      },
      "getVoteTotals(uint256)": {
        "notice": "Returns the referendum vote totals for a proposal."
      },
      "hashHeader(bytes)": {
        "notice": "Computes hash of header."
      },
      "hotfixWhitelistValidatorTally(bytes32)": {
        "notice": "Returns number of validators from current set which have whitelisted the given hotfix."
      },
      "initialize(address,address,uint256,uint256,uint256,uint256,uint256,uint256,uint256,uint256,uint256,uint256,uint256)": {
        "notice": "Used in place of the constructor to allow the contract to be upgradable via proxy."
      },
      "isApproved(uint256)": {
        "notice": "Returns whether or not a proposal has been approved."
      },
      "isDequeuedProposal(uint256,uint256)": {
        "notice": "Returns whether a proposal is dequeued at the given index."
      },
      "isDequeuedProposalExpired(uint256)": {
        "notice": "Returns whether or not a dequeued proposal has expired."
      },
      "isHotfixPassing(bytes32)": {
        "notice": "Checks if a byzantine quorum of validators has whitelisted the given hotfix."
      },
      "isHotfixWhitelistedBy(bytes32,address)": {
        "notice": "Returns whether given hotfix hash has been whitelisted by given address."
      },
      "isProposalPassing(uint256)": {
        "notice": "Returns whether or not a particular proposal is passing according to the constitution  and the participation levels."
      },
      "isQueued(uint256)": {
        "notice": "Returns whether or not a proposal is in the queue."
      },
      "isQueuedProposalExpired(uint256)": {
        "notice": "Returns whether or not a queued proposal has expired."
      },
      "isVoting(address)": {
        "notice": "Returns whether or not a particular account is voting on proposals."
      },
      "minQuorumSize(uint256)": {
        "notice": "Returns the minimum number of required signers for a given block number."
      },
      "minQuorumSizeInCurrentSet()": {
        "notice": "Computes byzantine quorum from current validator set size"
      },
      "prepareHotfix(bytes32)": {
        "notice": "Gives hotfix a prepared epoch for execution."
      },
      "proposalExists(uint256)": {
        "notice": "Returns whether or not a proposal exists."
      },
      "propose(uint256[],address[],bytes,uint256[],string)": {
        "notice": "Creates a new proposal and adds it to end of the queue with no upvotes."
      },
      "revokeUpvote(uint256,uint256)": {
        "notice": "Revokes an upvote on a queued proposal."
      },
      "setApprovalStageDuration(uint256)": {
        "notice": "Updates the number of seconds proposals stay in the approval stage."
      },
      "setApprover(address)": {
        "notice": "Updates the address that has permission to approve proposals in the approval stage."
      },
      "setBaselineQuorumFactor(uint256)": {
        "notice": "Updates the proportion of the baseline that constitutes quorum."
      },
      "setBaselineUpdateFactor(uint256)": {
        "notice": "Updates the weight of the new participation in the baseline update rule."
      },
      "setConcurrentProposals(uint256)": {
        "notice": "Updates the number of proposals to dequeue at a time."
      },
      "setConstitution(address,bytes4,uint256)": {
        "notice": "Updates the ratio of yes:yes+no votes needed for a specific class of proposals to pass."
      },
      "setDequeueFrequency(uint256)": {
        "notice": "Updates the minimum number of seconds before the next batch of proposals can be  dequeued."
      },
      "setExecutionStageDuration(uint256)": {
        "notice": "Updates the number of seconds proposals stay in the execution stage."
      },
      "setMinDeposit(uint256)": {
        "notice": "Updates the minimum deposit needed to make a proposal."
      },
      "setParticipationBaseline(uint256)": {
        "notice": "Updates the participation baseline."
      },
      "setParticipationFloor(uint256)": {
        "notice": "Updates the floor of the participation baseline."
      },
      "setQueueExpiry(uint256)": {
        "notice": "Updates the number of seconds before a queued proposal expires."
      },
      "setReferendumStageDuration(uint256)": {
        "notice": "Updates the number of seconds proposals stay in the referendum stage."
      },
      "setRegistry(address)": {
        "notice": "Updates the address pointing to a Registry contract."
      },
      "upvote(uint256,uint256,uint256)": {
        "notice": "Upvotes a queued proposal."
      },
      "validatorSignerAddressFromSet(uint256,uint256)": {
        "notice": "Gets a validator address from the validator set at the given block number."
      },
      "vote(uint256,uint256,uint8)": {
        "notice": "Votes on a proposal in the referendum stage."
      },
      "whitelistHotfix(bytes32)": {
        "notice": "Whitelists the hash of a hotfix transaction(s)."
      },
      "withdraw()": {
        "notice": "Withdraws refunded Celo Gold deposits."
      }
    }
  }
}