{
  "contractName": "HasInitializer",
  "abi": [
    {
      "constant": true,
      "inputs": [],
      "name": "x",
      "outputs": [
        {
          "name": "",
          "type": "uint256"
        }
      ],
      "payable": false,
      "stateMutability": "view",
      "type": "function"
    },
    {
      "constant": true,
      "inputs": [],
      "name": "initialized",
      "outputs": [
        {
          "name": "",
          "type": "bool"
        }
      ],
      "payable": false,
      "stateMutability": "view",
      "type": "function"
    },
    {
      "constant": false,
      "inputs": [
        {
          "name": "_x",
          "type": "uint256"
        }
      ],
      "name": "initialize",
      "outputs": [],
      "payable": false,
      "stateMutability": "nonpayable",
      "type": "function"
    }
  ],
  "bytecode": "0x608060405234801561001057600080fd5b5061019e806100206000396000f3fe608060405234801561001057600080fd5b50600436106100415760003560e01c80630c55699c14610046578063158ef93e14610064578063fe4b84df14610086575b600080fd5b61004e6100b4565b6040518082815260200191505060405180910390f35b61006c6100ba565b604051808215151515815260200191505060405180910390f35b6100b26004803603602081101561009c57600080fd5b81019080803590602001909291905050506100cc565b005b60015481565b6000809054906101000a900460ff1681565b6000809054906101000a900460ff161561014e576040517f08c379a000000000000000000000000000000000000000000000000000000000815260040180806020018281038252601c8152602001807f636f6e747261637420616c726561647920696e697469616c697a65640000000081525060200191505060405180910390fd5b60016000806101000a81548160ff021916908315150217905550806001819055505056fea165627a7a723058209685c22e6f269105e4956cc707a4f4bc49d97574c81173e2f01c0da1e44410220029",
  "source": "pragma solidity ^0.5.3;\n\nimport \"../Initializable.sol\";\n\ncontract HasInitializer is Initializable {\n  uint256 public x;\n\n  function initialize(uint256 _x) external initializer {\n    x = _x;\n  }\n}\n",
  "sourcePath": "/Users/cmcewen/celo/celo-monorepo/packages/protocol/contracts/common/test/HasInitializer.sol",
  "compiler": {
    "name": "solc",
    "version": "0.5.8+commit.23d335f2.Emscripten.clang"
  },
  "schemaVersion": "3.0.10",
  "updatedAt": "2020-04-09T23:11:37.029Z",
  "devdoc": {
    "methods": {}
  },
  "userdoc": {
    "methods": {}
  }
}