{
  "contractName": "IntegerSortedLinkedListTest",
  "abi": [
    {
      "constant": false,
      "inputs": [
        {
          "name": "key",
          "type": "uint256"
        },
        {
          "name": "value",
          "type": "uint256"
        },
        {
          "name": "lesserKey",
          "type": "uint256"
        },
        {
          "name": "greaterKey",
          "type": "uint256"
        }
      ],
      "name": "insert",
      "outputs": [],
      "payable": false,
      "stateMutability": "nonpayable",
      "type": "function"
    },
    {
      "constant": false,
      "inputs": [
        {
          "name": "key",
          "type": "uint256"
        },
        {
          "name": "value",
          "type": "uint256"
        },
        {
          "name": "lesserKey",
          "type": "uint256"
        },
        {
          "name": "greaterKey",
          "type": "uint256"
        }
      ],
      "name": "update",
      "outputs": [],
      "payable": false,
      "stateMutability": "nonpayable",
      "type": "function"
    },
    {
      "constant": false,
      "inputs": [
        {
          "name": "key",
          "type": "uint256"
        }
      ],
      "name": "remove",
      "outputs": [],
      "payable": false,
      "stateMutability": "nonpayable",
      "type": "function"
    },
    {
      "constant": false,
      "inputs": [
        {
          "name": "n",
          "type": "uint256"
        }
      ],
      "name": "popN",
      "outputs": [
        {
          "name": "",
          "type": "uint256[]"
        }
      ],
      "payable": false,
      "stateMutability": "nonpayable",
      "type": "function"
    },
    {
      "constant": true,
      "inputs": [
        {
          "name": "key",
          "type": "uint256"
        }
      ],
      "name": "contains",
      "outputs": [
        {
          "name": "",
          "type": "bool"
        }
      ],
      "payable": false,
      "stateMutability": "view",
      "type": "function"
    },
    {
      "constant": true,
      "inputs": [],
      "name": "getNumElements",
      "outputs": [
        {
          "name": "",
          "type": "uint256"
        }
      ],
      "payable": false,
      "stateMutability": "view",
      "type": "function"
    },
    {
      "constant": true,
      "inputs": [],
      "name": "getElements",
      "outputs": [
        {
          "name": "",
          "type": "uint256[]"
        },
        {
          "name": "",
          "type": "uint256[]"
        }
      ],
      "payable": false,
      "stateMutability": "view",
      "type": "function"
    },
    {
      "constant": true,
      "inputs": [],
      "name": "head",
      "outputs": [
        {
          "name": "",
          "type": "uint256"
        }
      ],
      "payable": false,
      "stateMutability": "view",
      "type": "function"
    },
    {
      "constant": true,
      "inputs": [],
      "name": "tail",
      "outputs": [
        {
          "name": "",
          "type": "uint256"
        }
      ],
      "payable": false,
      "stateMutability": "view",
      "type": "function"
    }
  ],
  "bytecode": "0x608060405234801561001057600080fd5b506107ea806100206000396000f3fe608060405234801561001057600080fd5b50600436106100935760003560e01c8063768aeb0311610066578063768aeb0314610185578063843aa0db146101d15780638f7dcfa31461021d578063b1a18cc71461023b578063c34052e0146102e257610093565b806313d8c84014610098578063173b9a0b146100b65780634cc82215146101395780635f16727614610167575b600080fd5b6100a0610328565b6040518082815260200191505060405180910390f35b6100e2600480360360208110156100cc57600080fd5b810190808035906020019092919050505061033a565b6040518080602001828103825283818151815260200191508051906020019060200280838360005b8381101561012557808201518184015260208101905061010a565b505050509050019250505060405180910390f35b6101656004803603602081101561014f57600080fd5b810190808035906020019092919050505061042e565b005b61016f6104a3565b6040518082815260200191505060405180910390f35b6101cf6004803603608081101561019b57600080fd5b81019080803590602001909291908035906020019092919080359060200190929190803590602001909291905050506104b2565b005b61021b600480360360808110156101e757600080fd5b8101908080359060200190929190803590602001909291908035906020019092919080359060200190929190505050610542565b005b6102256105d2565b6040518082815260200191505060405180910390f35b6102436105e4565b604051808060200180602001838103835285818151815260200191508051906020019060200280838360005b8381101561028a57808201518184015260208101905061026f565b50505050905001838103825284818151815260200191508051906020019060200280838360005b838110156102cc5780820151818401526020810190506102b1565b5050505090500194505050505060405180910390f35b61030e600480360360208110156102f857600080fd5b8101908080359060200190929190505050610721565b604051808215151515815260200191505060405180910390f35b6000806000016001015460001c905090565b6060600073__IntegerSortedLinkedList_______________6377b024799091846040518363ffffffff1660e01b8152600401808381526020018281526020019250505060006040518083038186803b15801561039657600080fd5b505af41580156103aa573d6000803e3d6000fd5b505050506040513d6000823e3d601f19601f8201168201806040525060208110156103d457600080fd5b8101908080516401000000008111156103ec57600080fd5b8281019050602081018481111561040257600080fd5b815185602082028301116401000000008211171561041f57600080fd5b50509291905050509050919050565b600073__IntegerSortedLinkedList_______________63eed5f7be9091836040518363ffffffff1660e01b8152600401808381526020018281526020019250505060006040518083038186803b15801561048857600080fd5b505af415801561049c573d6000803e3d6000fd5b5050505050565b60008060000160020154905090565b600073__IntegerSortedLinkedList_______________63239491ba9091868686866040518663ffffffff1660e01b8152600401808681526020018581526020018481526020018381526020018281526020019550505050505060006040518083038186803b15801561052457600080fd5b505af4158015610538573d6000803e3d6000fd5b5050505050505050565b600073__IntegerSortedLinkedList_______________63b4bd30b59091868686866040518663ffffffff1660e01b8152600401808681526020018581526020018481526020018381526020018281526020019550505050505060006040518083038186803b1580156105b457600080fd5b505af41580156105c8573d6000803e3d6000fd5b5050505050505050565b6000806000016000015460001c905090565b606080600073__IntegerSortedLinkedList_______________6369b317e390916040518263ffffffff1660e01b81526004018082815260200191505060006040518083038186803b15801561063957600080fd5b505af415801561064d573d6000803e3d6000fd5b505050506040513d6000823e3d601f19601f82011682018060405250604081101561067757600080fd5b81019080805164010000000081111561068f57600080fd5b828101905060208101848111156106a557600080fd5b81518560208202830111640100000000821117156106c257600080fd5b505092919060200180516401000000008111156106de57600080fd5b828101905060208101848111156106f457600080fd5b815185602082028301116401000000008211171561071157600080fd5b5050929190505050915091509091565b60008073__IntegerSortedLinkedList_______________63bfc516389091846040518363ffffffff1660e01b8152600401808381526020018281526020019250505060206040518083038186803b15801561077c57600080fd5b505af4158015610790573d6000803e3d6000fd5b505050506040513d60208110156107a657600080fd5b8101908080519060200190929190505050905091905056fea165627a7a72305820bbc7f78d6614ece898ec78d7c1fca5889bbc9211a65c04644f014df666ade8ae0029",
  "source": "pragma solidity ^0.5.3;\n\nimport \"../linkedlists/IntegerSortedLinkedList.sol\";\n\ncontract IntegerSortedLinkedListTest {\n  using IntegerSortedLinkedList for SortedLinkedList.List;\n\n  SortedLinkedList.List private list;\n\n  function insert(uint256 key, uint256 value, uint256 lesserKey, uint256 greaterKey) external {\n    list.insert(key, value, lesserKey, greaterKey);\n  }\n\n  function update(uint256 key, uint256 value, uint256 lesserKey, uint256 greaterKey) external {\n    list.update(key, value, lesserKey, greaterKey);\n  }\n\n  function remove(uint256 key) external {\n    list.remove(key);\n  }\n\n  function popN(uint256 n) external returns (uint256[] memory) {\n    return list.popN(n);\n  }\n\n  function contains(uint256 key) external view returns (bool) {\n    return list.contains(key);\n  }\n\n  function getNumElements() external view returns (uint256) {\n    return list.list.numElements;\n  }\n\n  function getElements() external view returns (uint256[] memory, uint256[] memory) {\n    return list.getElements();\n  }\n\n  function head() external view returns (uint256) {\n    return uint256(list.list.head);\n  }\n\n  function tail() external view returns (uint256) {\n    return uint256(list.list.tail);\n  }\n}\n",
  "sourcePath": "/Users/cmcewen/celo/celo-monorepo/packages/protocol/contracts/common/test/IntegerSortedLinkedListTest.sol",
  "compiler": {
    "name": "solc",
    "version": "0.5.8+commit.23d335f2.Emscripten.clang"
  },
  "schemaVersion": "3.0.10",
  "updatedAt": "2020-04-09T23:12:53.225Z",
  "devdoc": {
    "methods": {}
  },
  "userdoc": {
    "methods": {}
  }
}