{
  "contractName": "LinkedListTest",
  "abi": [
    {
      "constant": false,
      "inputs": [
        {
          "name": "key",
          "type": "bytes32"
        },
        {
          "name": "previousKey",
          "type": "bytes32"
        },
        {
          "name": "nextKey",
          "type": "bytes32"
        }
      ],
      "name": "insert",
      "outputs": [],
      "payable": false,
      "stateMutability": "nonpayable",
      "type": "function"
    },
    {
      "constant": false,
      "inputs": [
        {
          "name": "key",
          "type": "bytes32"
        },
        {
          "name": "previousKey",
          "type": "bytes32"
        },
        {
          "name": "nextKey",
          "type": "bytes32"
        }
      ],
      "name": "update",
      "outputs": [],
      "payable": false,
      "stateMutability": "nonpayable",
      "type": "function"
    },
    {
      "constant": false,
      "inputs": [
        {
          "name": "key",
          "type": "bytes32"
        }
      ],
      "name": "remove",
      "outputs": [],
      "payable": false,
      "stateMutability": "nonpayable",
      "type": "function"
    },
    {
      "constant": true,
      "inputs": [
        {
          "name": "key",
          "type": "bytes32"
        }
      ],
      "name": "contains",
      "outputs": [
        {
          "name": "",
          "type": "bool"
        }
      ],
      "payable": false,
      "stateMutability": "view",
      "type": "function"
    },
    {
      "constant": true,
      "inputs": [],
      "name": "getNumElements",
      "outputs": [
        {
          "name": "",
          "type": "uint256"
        }
      ],
      "payable": false,
      "stateMutability": "view",
      "type": "function"
    },
    {
      "constant": true,
      "inputs": [],
      "name": "getKeys",
      "outputs": [
        {
          "name": "",
          "type": "bytes32[]"
        }
      ],
      "payable": false,
      "stateMutability": "view",
      "type": "function"
    },
    {
      "constant": true,
      "inputs": [],
      "name": "head",
      "outputs": [
        {
          "name": "",
          "type": "bytes32"
        }
      ],
      "payable": false,
      "stateMutability": "view",
      "type": "function"
    },
    {
      "constant": true,
      "inputs": [],
      "name": "tail",
      "outputs": [
        {
          "name": "",
          "type": "bytes32"
        }
      ],
      "payable": false,
      "stateMutability": "view",
      "type": "function"
    }
  ],
  "bytecode": "0x608060405234801561001057600080fd5b50610598806100206000396000f3fe608060405234801561001057600080fd5b50600436106100885760003560e01c80638f7dcfa31161005b5780638f7dcfa31461016e57806395bc26731461018c5780639c0d2525146101ba578063a112f22a146101fc57610088565b806313d8c8401461008d5780631d1a696d146100ab5780632150c518146100f15780635f16727614610150575b600080fd5b61009561023e565b6040518082815260200191505060405180910390f35b6100d7600480360360208110156100c157600080fd5b810190808035906020019092919050505061024a565b604051808215151515815260200191505060405180910390f35b6100f96102e7565b6040518080602001828103825283818151815260200191508051906020019060200280838360005b8381101561013c578082015181840152602081019050610121565b505050509050019250505060405180910390f35b6101586103d1565b6040518082815260200191505060405180910390f35b6101766103dd565b6040518082815260200191505060405180910390f35b6101b8600480360360208110156101a257600080fd5b81019080803590602001909291905050506103e9565b005b6101fa600480360360608110156101d057600080fd5b8101908080359060200190929190803590602001909291908035906020019092919050505061045e565b005b61023c6004803603606081101561021257600080fd5b810190808035906020019092919080359060200190929190803590602001909291905050506104e5565b005b60008060010154905090565b60008073__LinkedList____________________________637ae0d32b9091846040518363ffffffff1660e01b8152600401808381526020018281526020019250505060206040518083038186803b1580156102a557600080fd5b505af41580156102b9573d6000803e3d6000fd5b505050506040513d60208110156102cf57600080fd5b81019080805190602001909291905050509050919050565b6060600073__LinkedList____________________________63fe3c7a8e90916040518263ffffffff1660e01b81526004018082815260200191505060006040518083038186803b15801561033b57600080fd5b505af415801561034f573d6000803e3d6000fd5b505050506040513d6000823e3d601f19601f82011682018060405250602081101561037957600080fd5b81019080805164010000000081111561039157600080fd5b828101905060208101848111156103a757600080fd5b81518560208202830111640100000000821117156103c457600080fd5b5050929190505050905090565b60008060020154905090565b60008060000154905090565b600073__LinkedList____________________________6342c22dbc9091836040518363ffffffff1660e01b8152600401808381526020018281526020019250505060006040518083038186803b15801561044357600080fd5b505af4158015610457573d6000803e3d6000fd5b5050505050565b600073__LinkedList____________________________6389dc4fff90918585856040518563ffffffff1660e01b81526004018085815260200184815260200183815260200182815260200194505050505060006040518083038186803b1580156104c857600080fd5b505af41580156104dc573d6000803e3d6000fd5b50505050505050565b600073__LinkedList____________________________63e931818590918585856040518563ffffffff1660e01b81526004018085815260200184815260200183815260200182815260200194505050505060006040518083038186803b15801561054f57600080fd5b505af4158015610563573d6000803e3d6000fd5b5050505050505056fea165627a7a72305820c0c1a6c21399b0f19d59e24e6c7168dcbee4762663927604a164e0e46a1758cb0029",
  "source": "pragma solidity ^0.5.8;\n\nimport \"../linkedlists/LinkedList.sol\";\n\ncontract LinkedListTest {\n  using LinkedList for LinkedList.List;\n\n  LinkedList.List private list;\n\n  function insert(bytes32 key, bytes32 previousKey, bytes32 nextKey) external {\n    list.insert(key, previousKey, nextKey);\n  }\n\n  function update(bytes32 key, bytes32 previousKey, bytes32 nextKey) external {\n    list.update(key, previousKey, nextKey);\n  }\n\n  function remove(bytes32 key) external {\n    list.remove(key);\n  }\n\n  function contains(bytes32 key) external view returns (bool) {\n    return list.contains(key);\n  }\n\n  function getNumElements() external view returns (uint256) {\n    return list.numElements;\n  }\n\n  function getKeys() external view returns (bytes32[] memory) {\n    return list.getKeys();\n  }\n\n  function head() external view returns (bytes32) {\n    return list.head;\n  }\n\n  function tail() external view returns (bytes32) {\n    return list.tail;\n  }\n\n}\n",
  "sourcePath": "/Users/cmcewen/celo/celo-monorepo/packages/protocol/contracts/common/test/LinkedListTest.sol",
  "compiler": {
    "name": "solc",
    "version": "0.5.8+commit.23d335f2.Emscripten.clang"
  },
  "schemaVersion": "3.0.10",
  "updatedAt": "2020-04-09T23:12:53.131Z",
  "devdoc": {
    "methods": {}
  },
  "userdoc": {
    "methods": {}
  }
}