{
  "contractName": "LockedGold",
  "abi": [
    {
      "constant": true,
      "inputs": [],
      "name": "initialized",
      "outputs": [
        {
          "name": "",
          "type": "bool"
        }
      ],
      "payable": false,
      "stateMutability": "view",
      "type": "function"
    },
    {
      "constant": true,
      "inputs": [],
      "name": "unlockingPeriod",
      "outputs": [
        {
          "name": "",
          "type": "uint256"
        }
      ],
      "payable": false,
      "stateMutability": "view",
      "type": "function"
    },
    {
      "constant": true,
      "inputs": [
        {
          "name": "",
          "type": "uint256"
        }
      ],
      "name": "slashingWhitelist",
      "outputs": [
        {
          "name": "",
          "type": "bytes32"
        }
      ],
      "payable": false,
      "stateMutability": "view",
      "type": "function"
    },
    {
      "constant": false,
      "inputs": [],
      "name": "renounceOwnership",
      "outputs": [],
      "payable": false,
      "stateMutability": "nonpayable",
      "type": "function"
    },
    {
      "constant": true,
      "inputs": [],
      "name": "registry",
      "outputs": [
        {
          "name": "",
          "type": "address"
        }
      ],
      "payable": false,
      "stateMutability": "view",
      "type": "function"
    },
    {
      "constant": true,
      "inputs": [],
      "name": "owner",
      "outputs": [
        {
          "name": "",
          "type": "address"
        }
      ],
      "payable": false,
      "stateMutability": "view",
      "type": "function"
    },
    {
      "constant": true,
      "inputs": [],
      "name": "isOwner",
      "outputs": [
        {
          "name": "",
          "type": "bool"
        }
      ],
      "payable": false,
      "stateMutability": "view",
      "type": "function"
    },
    {
      "constant": false,
      "inputs": [
        {
          "name": "registryAddress",
          "type": "address"
        }
      ],
      "name": "setRegistry",
      "outputs": [],
      "payable": false,
      "stateMutability": "nonpayable",
      "type": "function"
    },
    {
      "constant": true,
      "inputs": [],
      "name": "totalNonvoting",
      "outputs": [
        {
          "name": "",
          "type": "uint256"
        }
      ],
      "payable": false,
      "stateMutability": "view",
      "type": "function"
    },
    {
      "constant": false,
      "inputs": [
        {
          "name": "newOwner",
          "type": "address"
        }
      ],
      "name": "transferOwnership",
      "outputs": [],
      "payable": false,
      "stateMutability": "nonpayable",
      "type": "function"
    },
    {
      "anonymous": false,
      "inputs": [
        {
          "indexed": false,
          "name": "period",
          "type": "uint256"
        }
      ],
      "name": "UnlockingPeriodSet",
      "type": "event"
    },
    {
      "anonymous": false,
      "inputs": [
        {
          "indexed": true,
          "name": "account",
          "type": "address"
        },
        {
          "indexed": false,
          "name": "value",
          "type": "uint256"
        }
      ],
      "name": "GoldLocked",
      "type": "event"
    },
    {
      "anonymous": false,
      "inputs": [
        {
          "indexed": true,
          "name": "account",
          "type": "address"
        },
        {
          "indexed": false,
          "name": "value",
          "type": "uint256"
        },
        {
          "indexed": false,
          "name": "available",
          "type": "uint256"
        }
      ],
      "name": "GoldUnlocked",
      "type": "event"
    },
    {
      "anonymous": false,
      "inputs": [
        {
          "indexed": true,
          "name": "account",
          "type": "address"
        },
        {
          "indexed": false,
          "name": "value",
          "type": "uint256"
        }
      ],
      "name": "GoldRelocked",
      "type": "event"
    },
    {
      "anonymous": false,
      "inputs": [
        {
          "indexed": true,
          "name": "account",
          "type": "address"
        },
        {
          "indexed": false,
          "name": "value",
          "type": "uint256"
        }
      ],
      "name": "GoldWithdrawn",
      "type": "event"
    },
    {
      "anonymous": false,
      "inputs": [
        {
          "indexed": true,
          "name": "slasherIdentifier",
          "type": "string"
        }
      ],
      "name": "SlasherWhitelistAdded",
      "type": "event"
    },
    {
      "anonymous": false,
      "inputs": [
        {
          "indexed": true,
          "name": "slasherIdentifier",
          "type": "string"
        }
      ],
      "name": "SlasherWhitelistRemoved",
      "type": "event"
    },
    {
      "anonymous": false,
      "inputs": [
        {
          "indexed": true,
          "name": "slashed",
          "type": "address"
        },
        {
          "indexed": false,
          "name": "penalty",
          "type": "uint256"
        },
        {
          "indexed": true,
          "name": "reporter",
          "type": "address"
        },
        {
          "indexed": false,
          "name": "reward",
          "type": "uint256"
        }
      ],
      "name": "AccountSlashed",
      "type": "event"
    },
    {
      "anonymous": false,
      "inputs": [
        {
          "indexed": true,
          "name": "registryAddress",
          "type": "address"
        }
      ],
      "name": "RegistrySet",
      "type": "event"
    },
    {
      "anonymous": false,
      "inputs": [
        {
          "indexed": true,
          "name": "previousOwner",
          "type": "address"
        },
        {
          "indexed": true,
          "name": "newOwner",
          "type": "address"
        }
      ],
      "name": "OwnershipTransferred",
      "type": "event"
    },
    {
      "constant": true,
      "inputs": [
        {
          "name": "slasher",
          "type": "address"
        }
      ],
      "name": "isSlasher",
      "outputs": [
        {
          "name": "",
          "type": "bool"
        }
      ],
      "payable": false,
      "stateMutability": "view",
      "type": "function"
    },
    {
      "constant": false,
      "inputs": [
        {
          "name": "registryAddress",
          "type": "address"
        },
        {
          "name": "_unlockingPeriod",
          "type": "uint256"
        }
      ],
      "name": "initialize",
      "outputs": [],
      "payable": false,
      "stateMutability": "nonpayable",
      "type": "function"
    },
    {
      "constant": false,
      "inputs": [
        {
          "name": "value",
          "type": "uint256"
        }
      ],
      "name": "setUnlockingPeriod",
      "outputs": [],
      "payable": false,
      "stateMutability": "nonpayable",
      "type": "function"
    },
    {
      "constant": false,
      "inputs": [],
      "name": "lock",
      "outputs": [],
      "payable": true,
      "stateMutability": "payable",
      "type": "function"
    },
    {
      "constant": false,
      "inputs": [
        {
          "name": "account",
          "type": "address"
        },
        {
          "name": "value",
          "type": "uint256"
        }
      ],
      "name": "incrementNonvotingAccountBalance",
      "outputs": [],
      "payable": false,
      "stateMutability": "nonpayable",
      "type": "function"
    },
    {
      "constant": false,
      "inputs": [
        {
          "name": "account",
          "type": "address"
        },
        {
          "name": "value",
          "type": "uint256"
        }
      ],
      "name": "decrementNonvotingAccountBalance",
      "outputs": [],
      "payable": false,
      "stateMutability": "nonpayable",
      "type": "function"
    },
    {
      "constant": false,
      "inputs": [
        {
          "name": "value",
          "type": "uint256"
        }
      ],
      "name": "unlock",
      "outputs": [],
      "payable": false,
      "stateMutability": "nonpayable",
      "type": "function"
    },
    {
      "constant": false,
      "inputs": [
        {
          "name": "index",
          "type": "uint256"
        },
        {
          "name": "value",
          "type": "uint256"
        }
      ],
      "name": "relock",
      "outputs": [],
      "payable": false,
      "stateMutability": "nonpayable",
      "type": "function"
    },
    {
      "constant": false,
      "inputs": [
        {
          "name": "index",
          "type": "uint256"
        }
      ],
      "name": "withdraw",
      "outputs": [],
      "payable": false,
      "stateMutability": "nonpayable",
      "type": "function"
    },
    {
      "constant": true,
      "inputs": [],
      "name": "getTotalLockedGold",
      "outputs": [
        {
          "name": "",
          "type": "uint256"
        }
      ],
      "payable": false,
      "stateMutability": "view",
      "type": "function"
    },
    {
      "constant": true,
      "inputs": [],
      "name": "getNonvotingLockedGold",
      "outputs": [
        {
          "name": "",
          "type": "uint256"
        }
      ],
      "payable": false,
      "stateMutability": "view",
      "type": "function"
    },
    {
      "constant": true,
      "inputs": [
        {
          "name": "account",
          "type": "address"
        }
      ],
      "name": "getAccountTotalLockedGold",
      "outputs": [
        {
          "name": "",
          "type": "uint256"
        }
      ],
      "payable": false,
      "stateMutability": "view",
      "type": "function"
    },
    {
      "constant": true,
      "inputs": [
        {
          "name": "account",
          "type": "address"
        }
      ],
      "name": "getAccountNonvotingLockedGold",
      "outputs": [
        {
          "name": "",
          "type": "uint256"
        }
      ],
      "payable": false,
      "stateMutability": "view",
      "type": "function"
    },
    {
      "constant": true,
      "inputs": [
        {
          "name": "account",
          "type": "address"
        }
      ],
      "name": "getPendingWithdrawals",
      "outputs": [
        {
          "name": "",
          "type": "uint256[]"
        },
        {
          "name": "",
          "type": "uint256[]"
        }
      ],
      "payable": false,
      "stateMutability": "view",
      "type": "function"
    },
    {
      "constant": true,
      "inputs": [
        {
          "name": "account",
          "type": "address"
        }
      ],
      "name": "getTotalPendingWithdrawals",
      "outputs": [
        {
          "name": "",
          "type": "uint256"
        }
      ],
      "payable": false,
      "stateMutability": "view",
      "type": "function"
    },
    {
      "constant": true,
      "inputs": [],
      "name": "getSlashingWhitelist",
      "outputs": [
        {
          "name": "",
          "type": "bytes32[]"
        }
      ],
      "payable": false,
      "stateMutability": "view",
      "type": "function"
    },
    {
      "constant": false,
      "inputs": [
        {
          "name": "slasherIdentifier",
          "type": "string"
        }
      ],
      "name": "addSlasher",
      "outputs": [],
      "payable": false,
      "stateMutability": "nonpayable",
      "type": "function"
    },
    {
      "constant": false,
      "inputs": [
        {
          "name": "slasherIdentifier",
          "type": "string"
        },
        {
          "name": "index",
          "type": "uint256"
        }
      ],
      "name": "removeSlasher",
      "outputs": [],
      "payable": false,
      "stateMutability": "nonpayable",
      "type": "function"
    },
    {
      "constant": false,
      "inputs": [
        {
          "name": "account",
          "type": "address"
        },
        {
          "name": "penalty",
          "type": "uint256"
        },
        {
          "name": "reporter",
          "type": "address"
        },
        {
          "name": "reward",
          "type": "uint256"
        },
        {
          "name": "lessers",
          "type": "address[]"
        },
        {
          "name": "greaters",
          "type": "address[]"
        },
        {
          "name": "indices",
          "type": "uint256[]"
        }
      ],
      "name": "slash",
      "outputs": [],
      "payable": false,
      "stateMutability": "nonpayable",
      "type": "function"
    }
  ],
  "bytecode": "0x6080604052600160008190555060006200001e620000c260201b60201c565b9050806001806101000a81548173ffffffffffffffffffffffffffffffffffffffff021916908373ffffffffffffffffffffffffffffffffffffffff1602179055508073ffffffffffffffffffffffffffffffffffffffff16600073ffffffffffffffffffffffffffffffffffffffff167f8be0079c531659141344cd1fd0a4f28419497f9722a3daafe3b4186f6b6457e060405160405180910390a350620000ca565b600033905090565b61433f80620000da6000396000f3fe6080604052600436106101c25760003560e01c80636adcc938116100f7578063a91ee0dc11610095578063cd6dc68711610064578063cd6dc68714610a80578063f2fde38b14610adb578063f340c0d014610b2c578063f83d08ba14610c1a576101c2565b8063a91ee0dc1461095a578063b2fb30cb146109ab578063b6e1e49d146109f0578063c1867f6d14610a55576101c2565b80637b103999116100d15780637b10399914610852578063807876b7146108a95780638da5cb5b146108d45780638f32d59b1461092b576101c2565b80636adcc938146107915780636edf77a5146107e0578063715018a61461083b576101c2565b806330ec70f51161016457806357601c5d1161013e57806357601c5d1461062c5780636198e3391461069557806364891198146106d057806366f0633b14610756576101c2565b806330ec70f5146103de57806331993fc9146104435780633f199b40146105c7576101c2565b80631fe2dfda116101a05780631fe2dfda146102bd57806320637d8e1461034d5780632e1a7d4d1461037857806330a61d59146103b3576101c2565b806308764ee2146101c7578063158ef93e1461023357806318a4ff8c14610262575b600080fd5b3480156101d357600080fd5b506101dc610c24565b6040518080602001828103825283818151815260200191508051906020019060200280838360005b8381101561021f578082015181840152602081019050610204565b505050509050019250505060405180910390f35b34801561023f57600080fd5b50610248610c7c565b604051808215151515815260200191505060405180910390f35b34801561026e57600080fd5b506102bb6004803603604081101561028557600080fd5b81019080803573ffffffffffffffffffffffffffffffffffffffff16906020019092919080359060200190929190505050610c8f565b005b3480156102c957600080fd5b5061034b600480360360408110156102e057600080fd5b81019080803590602001906401000000008111156102fd57600080fd5b82018360208201111561030f57600080fd5b8035906020019184600183028401116401000000008311171561033157600080fd5b909192939192939080359060200190929190505050610e33565b005b34801561035957600080fd5b50610362611119565b6040518082815260200191505060405180910390f35b34801561038457600080fd5b506103b16004803603602081101561039b57600080fd5b810190808035906020019092919050505061111f565b005b3480156103bf57600080fd5b506103c86114e9565b6040518082815260200191505060405180910390f35b3480156103ea57600080fd5b5061042d6004803603602081101561040157600080fd5b81019080803573ffffffffffffffffffffffffffffffffffffffff16906020019092919050505061158c565b6040518082815260200191505060405180910390f35b34801561044f57600080fd5b506105c5600480360360e081101561046657600080fd5b81019080803573ffffffffffffffffffffffffffffffffffffffff16906020019092919080359060200190929190803573ffffffffffffffffffffffffffffffffffffffff16906020019092919080359060200190929190803590602001906401000000008111156104d757600080fd5b8201836020820111156104e957600080fd5b8035906020019184602083028401116401000000008311171561050b57600080fd5b90919293919293908035906020019064010000000081111561052c57600080fd5b82018360208201111561053e57600080fd5b8035906020019184602083028401116401000000008311171561056057600080fd5b90919293919293908035906020019064010000000081111561058157600080fd5b82018360208201111561059357600080fd5b803590602001918460208302840111640100000000831117156105b557600080fd5b90919293919293905050506116ad565b005b3480156105d357600080fd5b50610616600480360360208110156105ea57600080fd5b81019080803573ffffffffffffffffffffffffffffffffffffffff169060200190929190505050611cd8565b6040518082815260200191505060405180910390f35b34801561063857600080fd5b5061067b6004803603602081101561064f57600080fd5b81019080803573ffffffffffffffffffffffffffffffffffffffff169060200190929190505050611d24565b604051808215151515815260200191505060405180910390f35b3480156106a157600080fd5b506106ce600480360360208110156106b857600080fd5b8101908080359060200190929190505050611e4e565b005b3480156106dc57600080fd5b50610754600480360360208110156106f357600080fd5b810190808035906020019064010000000081111561071057600080fd5b82018360208201111561072257600080fd5b8035906020019184600183028401116401000000008311171561074457600080fd5b90919293919293905050506123ba565b005b34801561076257600080fd5b5061078f6004803603602081101561077957600080fd5b81019080803590602001909291905050506126f4565b005b34801561079d57600080fd5b506107ca600480360360208110156107b457600080fd5b8101908080359060200190929190505050612827565b6040518082815260200191505060405180910390f35b3480156107ec57600080fd5b506108396004803603604081101561080357600080fd5b81019080803573ffffffffffffffffffffffffffffffffffffffff16906020019092919080359060200190929190505050612848565b005b34801561084757600080fd5b506108506129ec565b005b34801561085e57600080fd5b50610867612b25565b604051808273ffffffffffffffffffffffffffffffffffffffff1673ffffffffffffffffffffffffffffffffffffffff16815260200191505060405180910390f35b3480156108b557600080fd5b506108be612b4b565b6040518082815260200191505060405180910390f35b3480156108e057600080fd5b506108e9612b55565b604051808273ffffffffffffffffffffffffffffffffffffffff1673ffffffffffffffffffffffffffffffffffffffff16815260200191505060405180910390f35b34801561093757600080fd5b50610940612b7e565b604051808215151515815260200191505060405180910390f35b34801561096657600080fd5b506109a96004803603602081101561097d57600080fd5b81019080803573ffffffffffffffffffffffffffffffffffffffff169060200190929190505050612bdc565b005b3480156109b757600080fd5b506109ee600480360360408110156109ce57600080fd5b810190808035906020019092919080359060200190929190505050612d80565b005b3480156109fc57600080fd5b50610a3f60048036036020811015610a1357600080fd5b81019080803573ffffffffffffffffffffffffffffffffffffffff169060200190929190505050613118565b6040518082815260200191505060405180910390f35b348015610a6157600080fd5b50610a6a613230565b6040518082815260200191505060405180910390f35b348015610a8c57600080fd5b50610ad960048036036040811015610aa357600080fd5b81019080803573ffffffffffffffffffffffffffffffffffffffff16906020019092919080359060200190929190505050613236565b005b348015610ae757600080fd5b50610b2a60048036036020811015610afe57600080fd5b81019080803573ffffffffffffffffffffffffffffffffffffffff1690602001909291905050506132f2565b005b348015610b3857600080fd5b50610b7b60048036036020811015610b4f57600080fd5b81019080803573ffffffffffffffffffffffffffffffffffffffff169060200190929190505050613378565b604051808060200180602001838103835285818151815260200191508051906020019060200280838360005b83811015610bc2578082015181840152602081019050610ba7565b50505050905001838103825284818151815260200191508051906020019060200280838360005b83811015610c04578082015181840152602081019050610be9565b5050505090500194505050505060405180910390f35b610c22613655565b005b60606005805480602002602001604051908101604052809291908181526020018280548015610c7257602002820191906000526020600020905b815481526020019060010190808311610c5e575b5050505050905090565b600160009054906101000a900460ff1681565b60405160200180807f456c656374696f6e0000000000000000000000000000000000000000000000008152506008019050604051602081830303815290604052805190602001203373ffffffffffffffffffffffffffffffffffffffff16600260009054906101000a900473ffffffffffffffffffffffffffffffffffffffff1673ffffffffffffffffffffffffffffffffffffffff1663dcf0aaed836040518263ffffffff1660e01b81526004018082815260200191505060206040518083038186803b158015610d6057600080fd5b505afa158015610d74573d6000803e3d6000fd5b505050506040513d6020811015610d8a57600080fd5b810190808051906020019092919050505073ffffffffffffffffffffffffffffffffffffffff1614610e24576040517f08c379a00000000000000000000000000000000000000000000000000000000081526004018080602001828103825260188152602001807f6f6e6c79207265676973746572656420636f6e7472616374000000000000000081525060200191505060405180910390fd5b610e2e83836138e4565b505050565b610e3b612b7e565b610ead576040517f08c379a00000000000000000000000000000000000000000000000000000000081526004018080602001828103825260208152602001807f4f776e61626c653a2063616c6c6572206973206e6f7420746865206f776e657281525060200191505060405180910390fd5b600083836040516020018083838082843780830192505050925050506040516020818303038152906040528051906020012090506004600082815260200190815260200160002060009054906101000a900460ff16610f57576040517f08c379a00000000000000000000000000000000000000000000000000000000081526004018080602001828103825260278152602001806142cc6027913960400191505060405180910390fd5b6005805490508210610fb4576040517f08c379a00000000000000000000000000000000000000000000000000000000081526004018080602001828103825260288152602001806142a46028913960400191505060405180910390fd5b8060058381548110610fc257fe5b906000526020600020015414611040576040517f08c379a000000000000000000000000000000000000000000000000000000000815260040180806020018281038252601e8152602001807f496e64657820646f65736e2774206d61746368206964656e746966696572000081525060200191505060405180910390fd5b60056001600580549050038154811061105557fe5b90600052602060002001546005838154811061106d57fe5b9060005260206000200181905550600580548061108657fe5b6001900381819060005260206000200160009055905560006004600083815260200190815260200160002060006101000a81548160ff021916908315150217905550838360405180838380828437808301925050509250505060405180910390207faee8df56d95b5766042c2ff4dcb39a120f0a09dd21bb9c143f86a314eff4b71460405160405180910390a250505050565b60075481565b6001600080828254019250508190555060008054905061113d61399e565b73ffffffffffffffffffffffffffffffffffffffff166325ca4c9c336040518263ffffffff1660e01b8152600401808273ffffffffffffffffffffffffffffffffffffffff1673ffffffffffffffffffffffffffffffffffffffff16815260200191505060206040518083038186803b1580156111b957600080fd5b505afa1580156111cd573d6000803e3d6000fd5b505050506040513d60208110156111e357600080fd5b8101908080519060200190929190505050611266576040517f08c379a000000000000000000000000000000000000000000000000000000000815260040180806020018281038252600f8152602001807f556e6b6e6f776e206163636f756e74000000000000000000000000000000000081525060200191505060405180910390fd5b6000600360003373ffffffffffffffffffffffffffffffffffffffff1673ffffffffffffffffffffffffffffffffffffffff168152602001908152602001600020905080600101805490508310611325576040517f08c379a000000000000000000000000000000000000000000000000000000000815260040180806020018281038252601c8152602001807f4261642070656e64696e67207769746864726177616c20696e6465780000000081525060200191505060405180910390fd5b600081600101848154811061133657fe5b9060005260206000209060020201905080600101544210156113c0576040517f08c379a00000000000000000000000000000000000000000000000000000000081526004018080602001828103825260208152602001807f50656e64696e67207769746864726177616c206e6f7420617661696c61626c6581525060200191505060405180910390fd5b6000816000015490506113d68360010186613a99565b3373ffffffffffffffffffffffffffffffffffffffff166108fc829081150290604051600060405180830381858888f1935050505015801561141c573d6000803e3d6000fd5b503373ffffffffffffffffffffffffffffffffffffffff167f292d39ba701489b7f640c83806d3eeabe0a32c9f0a61b49e95612ebad42211cd826040518082815260200191505060405180910390a250505060005481146114e5576040517f08c379a000000000000000000000000000000000000000000000000000000000815260040180806020018281038252600e8152602001807f7265656e7472616e742063616c6c00000000000000000000000000000000000081525060200191505060405180910390fd5b5050565b60006115876114f6613b13565b73ffffffffffffffffffffffffffffffffffffffff16639a0e7d666040518163ffffffff1660e01b815260040160206040518083038186803b15801561153b57600080fd5b505afa15801561154f573d6000803e3d6000fd5b505050506040513d602081101561156557600080fd5b8101908080519060200190929190505050600654613c0e90919063ffffffff16565b905090565b600080600360008473ffffffffffffffffffffffffffffffffffffffff1673ffffffffffffffffffffffffffffffffffffffff1681526020019081526020016000206000015490506116a56115df613b13565b73ffffffffffffffffffffffffffffffffffffffff16636c781a2c856040518263ffffffff1660e01b8152600401808273ffffffffffffffffffffffffffffffffffffffff1673ffffffffffffffffffffffffffffffffffffffff16815260200191505060206040518083038186803b15801561165b57600080fd5b505afa15801561166f573d6000803e3d6000fd5b505050506040513d602081101561168557600080fd5b810190808051906020019092919050505082613c0e90919063ffffffff16565b915050919050565b600260009054906101000a900473ffffffffffffffffffffffffffffffffffffffff1673ffffffffffffffffffffffffffffffffffffffff166317c508186005336040518363ffffffff1660e01b815260040180806020018373ffffffffffffffffffffffffffffffffffffffff1673ffffffffffffffffffffffffffffffffffffffff168152602001828103825284818154815260200191508054801561177457602002820191906000526020600020905b815481526020019060010190808311611760575b5050935050505060206040518083038186803b15801561179357600080fd5b505afa1580156117a7573d6000803e3d6000fd5b505050506040513d60208110156117bd57600080fd5b8101908080519060200190929190505050611823576040517f08c379a00000000000000000000000000000000000000000000000000000000081526004018080602001828103825260248152602001806142316024913960400191505060405180910390fd5b60006118378a6118328d61158c565b613c96565b9050878110156118af576040517f08c379a000000000000000000000000000000000000000000000000000000000815260040180806020018281038252601d8152602001807f7265776172642063616e6e6f74206578636565642070656e616c74792e00000081525060200191505060405180910390fd5b6000600360008d73ffffffffffffffffffffffffffffffffffffffff1673ffffffffffffffffffffffffffffffffffffffff168152602001908152602001600020600001549050600080905082821015611ade576119168284613caf90919063ffffffff16565b905080611921613b13565b73ffffffffffffffffffffffffffffffffffffffff16638ef01def8f848d8d8d8d8d8d6040518963ffffffff1660e01b8152600401808973ffffffffffffffffffffffffffffffffffffffff1673ffffffffffffffffffffffffffffffffffffffff16815260200188815260200180602001806020018060200184810384528a8a82818152602001925060200280828437600081840152601f19601f8201169050808301925050508481038352888882818152602001925060200280828437600081840152601f19601f8201169050808301925050508481038252868682818152602001925060200280828437600081840152601f19601f8201169050808301925050509b505050505050505050505050602060405180830381600087803b158015611a4c57600080fd5b505af1158015611a60573d6000803e3d6000fd5b505050506040513d6020811015611a7657600080fd5b810190808051906020019092919050505014611add576040517f08c379a00000000000000000000000000000000000000000000000000000000081526004018080602001828103825260218152602001806142f36021913960400191505060405180910390fd5b5b611afa8d611af58386613caf90919063ffffffff16565b6138e4565b611b048b8b613cf9565b50506000600260009054906101000a900473ffffffffffffffffffffffffffffffffffffffff1673ffffffffffffffffffffffffffffffffffffffff1663dcf0aaed60405160200180807f476f7665726e616e636500000000000000000000000000000000000000000000815250600a019050604051602081830303815290604052805190602001206040518263ffffffff1660e01b81526004018082815260200191505060206040518083038186803b158015611bc157600080fd5b505afa158015611bd5573d6000803e3d6000fd5b505050506040513d6020811015611beb57600080fd5b8101908080519060200190929190505050905060008190508073ffffffffffffffffffffffffffffffffffffffff166108fc611c308c86613caf90919063ffffffff16565b9081150290604051600060405180830381858888f19350505050158015611c5b573d6000803e3d6000fd5b508a73ffffffffffffffffffffffffffffffffffffffff168d73ffffffffffffffffffffffffffffffffffffffff167f7abcb995a115c34a67528d58d5fc5ce02c22cb835ce1685046163f7d366d7111858d604051808381526020018281526020019250505060405180910390a350505050505050505050505050565b6000600360008373ffffffffffffffffffffffffffffffffffffffff1673ffffffffffffffffffffffffffffffffffffffff168152602001908152602001600020600001549050919050565b6000600260009054906101000a900473ffffffffffffffffffffffffffffffffffffffff1673ffffffffffffffffffffffffffffffffffffffff166317c508186005846040518363ffffffff1660e01b815260040180806020018373ffffffffffffffffffffffffffffffffffffffff1673ffffffffffffffffffffffffffffffffffffffff1681526020018281038252848181548152602001915080548015611ded57602002820191906000526020600020905b815481526020019060010190808311611dd9575b5050935050505060206040518083038186803b158015611e0c57600080fd5b505afa158015611e20573d6000803e3d6000fd5b505050506040513d6020811015611e3657600080fd5b81019080805190602001909291905050509050919050565b60016000808282540192505081905550600080549050611e6c61399e565b73ffffffffffffffffffffffffffffffffffffffff166325ca4c9c336040518263ffffffff1660e01b8152600401808273ffffffffffffffffffffffffffffffffffffffff1673ffffffffffffffffffffffffffffffffffffffff16815260200191505060206040518083038186803b158015611ee857600080fd5b505afa158015611efc573d6000803e3d6000fd5b505050506040513d6020811015611f1257600080fd5b8101908080519060200190929190505050611f95576040517f08c379a000000000000000000000000000000000000000000000000000000000815260040180806020018281038252600f8152602001807f556e6b6e6f776e206163636f756e74000000000000000000000000000000000081525060200191505060405180910390fd5b6000600360003373ffffffffffffffffffffffffffffffffffffffff1673ffffffffffffffffffffffffffffffffffffffff1681526020019081526020016000209050611fe0613db3565b73ffffffffffffffffffffffffffffffffffffffff16635f8dd649336040518263ffffffff1660e01b8152600401808273ffffffffffffffffffffffffffffffffffffffff1673ffffffffffffffffffffffffffffffffffffffff16815260200191505060206040518083038186803b15801561205c57600080fd5b505afa158015612070573d6000803e3d6000fd5b505050506040513d602081101561208657600080fd5b81019080805190602001909291905050501561210a576040517f08c379a000000000000000000000000000000000000000000000000000000000815260040180806020018281038252600e8152602001807f4163636f756e74206c6f636b656400000000000000000000000000000000000081525060200191505060405180910390fd5b6000612114613eae565b73ffffffffffffffffffffffffffffffffffffffff1663dcff4cf6336040518263ffffffff1660e01b8152600401808273ffffffffffffffffffffffffffffffffffffffff1673ffffffffffffffffffffffffffffffffffffffff16815260200191505060206040518083038186803b15801561219057600080fd5b505afa1580156121a4573d6000803e3d6000fd5b505050506040513d60208110156121ba57600080fd5b8101908080519060200190929190505050905060008114806121f657506121f2846121e43361158c565b613caf90919063ffffffff16565b8111155b612268576040517f08c379a000000000000000000000000000000000000000000000000000000000815260040180806020018281038252601e8152602001807f547279696e6720746f20756e6c6f636b20746f6f206d75636820676f6c64000081525060200191505060405180910390fd5b61227233856138e4565b600061228960075442613c0e90919063ffffffff16565b9050826001016040518060400160405280878152602001838152509080600181540180825580915050906001820390600052602060002090600202016000909192909190915060008201518160000155602082015181600101555050503373ffffffffffffffffffffffffffffffffffffffff167fb1a3aef2a332070da206ad1868a5e327f5aa5144e00e9a7b40717c153158a5888683604051808381526020018281526020019250505060405180910390a250505060005481146123b6576040517f08c379a000000000000000000000000000000000000000000000000000000000815260040180806020018281038252600e8152602001807f7265656e7472616e742063616c6c00000000000000000000000000000000000081525060200191505060405180910390fd5b5050565b6123c2612b7e565b612434576040517f08c379a00000000000000000000000000000000000000000000000000000000081526004018080602001828103825260208152602001807f4f776e61626c653a2063616c6c6572206973206e6f7420746865206f776e657281525060200191505060405180910390fd5b60008282604051602001808383808284378083019250505092505050604051602081830303815290604052805190602001209050600073ffffffffffffffffffffffffffffffffffffffff16600260009054906101000a900473ffffffffffffffffffffffffffffffffffffffff1673ffffffffffffffffffffffffffffffffffffffff1663dd927233836040518263ffffffff1660e01b81526004018082815260200191505060206040518083038186803b1580156124f357600080fd5b505afa158015612507573d6000803e3d6000fd5b505050506040513d602081101561251d57600080fd5b810190808051906020019092919050505073ffffffffffffffffffffffffffffffffffffffff1614156125b8576040517f08c379a000000000000000000000000000000000000000000000000000000000815260040180806020018281038252601c8152602001807f4964656e746966696572206973206e6f7420726567697374657265640000000081525060200191505060405180910390fd5b6004600082815260200190815260200160002060009054906101000a900460ff161561264c576040517f08c379a000000000000000000000000000000000000000000000000000000000815260040180806020018281038252601c8152602001807f43616e6e6f742061646420736c61736865722049442074776963652e0000000081525060200191505060405180910390fd5b600581908060018154018082558091505090600182039060005260206000200160009091929091909150555060016004600083815260200190815260200160002060006101000a81548160ff021916908315150217905550828260405180838380828437808301925050509250505060405180910390207f92a16cb9e1846d175c3007fc61953d186452c9ea1aa34183eb4b7f88cd3f07bb60405160405180910390a2505050565b6126fc612b7e565b61276e576040517f08c379a00000000000000000000000000000000000000000000000000000000081526004018080602001828103825260208152602001807f4f776e61626c653a2063616c6c6572206973206e6f7420746865206f776e657281525060200191505060405180910390fd5b6007548114156127e6576040517f08c379a000000000000000000000000000000000000000000000000000000000815260040180806020018281038252601c8152602001807f556e6c6f636b696e6720706572696f64206e6f74206368616e6765640000000081525060200191505060405180910390fd5b806007819055507fd9274a7c98edc7c66931fc71872764091e7023fe3867358f8504d4c21b161fc5816040518082815260200191505060405180910390a150565b6005818154811061283457fe5b906000526020600020016000915090505481565b60405160200180807f456c656374696f6e0000000000000000000000000000000000000000000000008152506008019050604051602081830303815290604052805190602001203373ffffffffffffffffffffffffffffffffffffffff16600260009054906101000a900473ffffffffffffffffffffffffffffffffffffffff1673ffffffffffffffffffffffffffffffffffffffff1663dcf0aaed836040518263ffffffff1660e01b81526004018082815260200191505060206040518083038186803b15801561291957600080fd5b505afa15801561292d573d6000803e3d6000fd5b505050506040513d602081101561294357600080fd5b810190808051906020019092919050505073ffffffffffffffffffffffffffffffffffffffff16146129dd576040517f08c379a00000000000000000000000000000000000000000000000000000000081526004018080602001828103825260188152602001807f6f6e6c79207265676973746572656420636f6e7472616374000000000000000081525060200191505060405180910390fd5b6129e78383613cf9565b505050565b6129f4612b7e565b612a66576040517f08c379a00000000000000000000000000000000000000000000000000000000081526004018080602001828103825260208152602001807f4f776e61626c653a2063616c6c6572206973206e6f7420746865206f776e657281525060200191505060405180910390fd5b600073ffffffffffffffffffffffffffffffffffffffff166001809054906101000a900473ffffffffffffffffffffffffffffffffffffffff1673ffffffffffffffffffffffffffffffffffffffff167f8be0079c531659141344cd1fd0a4f28419497f9722a3daafe3b4186f6b6457e060405160405180910390a360006001806101000a81548173ffffffffffffffffffffffffffffffffffffffff021916908373ffffffffffffffffffffffffffffffffffffffff160217905550565b600260009054906101000a900473ffffffffffffffffffffffffffffffffffffffff1681565b6000600654905090565b60006001809054906101000a900473ffffffffffffffffffffffffffffffffffffffff16905090565b60006001809054906101000a900473ffffffffffffffffffffffffffffffffffffffff1673ffffffffffffffffffffffffffffffffffffffff16612bc0613fa9565b73ffffffffffffffffffffffffffffffffffffffff1614905090565b612be4612b7e565b612c56576040517f08c379a00000000000000000000000000000000000000000000000000000000081526004018080602001828103825260208152602001807f4f776e61626c653a2063616c6c6572206973206e6f7420746865206f776e657281525060200191505060405180910390fd5b600073ffffffffffffffffffffffffffffffffffffffff168173ffffffffffffffffffffffffffffffffffffffff161415612cf9576040517f08c379a00000000000000000000000000000000000000000000000000000000081526004018080602001828103825260208152602001807f43616e6e6f7420726567697374657220746865206e756c6c206164647265737381525060200191505060405180910390fd5b80600260006101000a81548173ffffffffffffffffffffffffffffffffffffffff021916908373ffffffffffffffffffffffffffffffffffffffff1602179055508073ffffffffffffffffffffffffffffffffffffffff167f27fe5f0c1c3b1ed427cc63d0f05759ffdecf9aec9e18d31ef366fc8a6cb5dc3b60405160405180910390a250565b60016000808282540192505081905550600080549050612d9e61399e565b73ffffffffffffffffffffffffffffffffffffffff166325ca4c9c336040518263ffffffff1660e01b8152600401808273ffffffffffffffffffffffffffffffffffffffff1673ffffffffffffffffffffffffffffffffffffffff16815260200191505060206040518083038186803b158015612e1a57600080fd5b505afa158015612e2e573d6000803e3d6000fd5b505050506040513d6020811015612e4457600080fd5b8101908080519060200190929190505050612ec7576040517f08c379a000000000000000000000000000000000000000000000000000000000815260040180806020018281038252600f8152602001807f556e6b6e6f776e206163636f756e74000000000000000000000000000000000081525060200191505060405180910390fd5b6000600360003373ffffffffffffffffffffffffffffffffffffffff1673ffffffffffffffffffffffffffffffffffffffff168152602001908152602001600020905080600101805490508410612f86576040517f08c379a000000000000000000000000000000000000000000000000000000000815260040180806020018281038252601c8152602001807f4261642070656e64696e67207769746864726177616c20696e6465780000000081525060200191505060405180910390fd5b6000816001018581548110612f9757fe5b906000526020600020906002020190508060000154841115613004576040517f08c379a000000000000000000000000000000000000000000000000000000000815260040180806020018281038252602981526020018061427b6029913960400191505060405180910390fd5b80600001548414156130225761301d8260010186613a99565b613042565b613039848260000154613caf90919063ffffffff16565b81600001819055505b61304c3385613cf9565b3373ffffffffffffffffffffffffffffffffffffffff167fa823fc38a01c2f76d7057a79bb5c317710f26f7dbdea78634598d5519d0f7cb0856040518082815260200191505060405180910390a250506000548114613113576040517f08c379a000000000000000000000000000000000000000000000000000000000815260040180806020018281038252600e8152602001807f7265656e7472616e742063616c6c00000000000000000000000000000000000081525060200191505060405180910390fd5b505050565b600080600090506060600360008573ffffffffffffffffffffffffffffffffffffffff1673ffffffffffffffffffffffffffffffffffffffff168152602001908152602001600020600101805480602002602001604051908101604052809291908181526020016000905b828210156131c957838290600052602060002090600202016040518060400160405290816000820154815260200160018201548152505081526020019060010190613183565b50505050905060008090505b8151811015613225576132088282815181106131ed57fe5b60200260200101516000015184613c0e90919063ffffffff16565b925061321e600182613c0e90919063ffffffff16565b90506131d5565b508192505050919050565b60065481565b600160009054906101000a900460ff16156132b9576040517f08c379a000000000000000000000000000000000000000000000000000000000815260040180806020018281038252601c8152602001807f636f6e747261637420616c726561647920696e697469616c697a65640000000081525060200191505060405180910390fd5b60018060006101000a81548160ff0219169083151502179055506132dc33613fb1565b6132e582612bdc565b6132ee816126f4565b5050565b6132fa612b7e565b61336c576040517f08c379a00000000000000000000000000000000000000000000000000000000081526004018080602001828103825260208152602001807f4f776e61626c653a2063616c6c6572206973206e6f7420746865206f776e657281525060200191505060405180910390fd5b61337581613fb1565b50565b60608061338361399e565b73ffffffffffffffffffffffffffffffffffffffff166325ca4c9c846040518263ffffffff1660e01b8152600401808273ffffffffffffffffffffffffffffffffffffffff1673ffffffffffffffffffffffffffffffffffffffff16815260200191505060206040518083038186803b1580156133ff57600080fd5b505afa158015613413573d6000803e3d6000fd5b505050506040513d602081101561342957600080fd5b81019080805190602001909291905050506134ac576040517f08c379a000000000000000000000000000000000000000000000000000000000815260040180806020018281038252600f8152602001807f556e6b6e6f776e206163636f756e74000000000000000000000000000000000081525060200191505060405180910390fd5b6000600360008573ffffffffffffffffffffffffffffffffffffffff1673ffffffffffffffffffffffffffffffffffffffff1681526020019081526020016000206001018054905090506060816040519080825280602002602001820160405280156135275781602001602082028038833980820191505090505b50905060608260405190808252806020026020018201604052801561355b5781602001602082028038833980820191505090505b50905060008090505b83811015613646576135746141b5565b600360008973ffffffffffffffffffffffffffffffffffffffff1673ffffffffffffffffffffffffffffffffffffffff16815260200190815260200160002060010182815481106135c157fe5b9060005260206000209060020201604051806040016040529081600082015481526020016001820154815250509050806000015184838151811061360157fe5b602002602001018181525050806020015183838151811061361e57fe5b6020026020010181815250505061363f600182613c0e90919063ffffffff16565b9050613564565b50818194509450505050915091565b6001600080828254019250508190555060008054905061367361399e565b73ffffffffffffffffffffffffffffffffffffffff166325ca4c9c336040518263ffffffff1660e01b8152600401808273ffffffffffffffffffffffffffffffffffffffff1673ffffffffffffffffffffffffffffffffffffffff16815260200191505060206040518083038186803b1580156136ef57600080fd5b505afa158015613703573d6000803e3d6000fd5b505050506040513d602081101561371957600080fd5b810190808051906020019092919050505061379c576040517f08c379a000000000000000000000000000000000000000000000000000000000815260040180806020018281038252600b8152602001807f6e6f74206163636f756e7400000000000000000000000000000000000000000081525060200191505060405180910390fd5b60003411613812576040517f08c379a00000000000000000000000000000000000000000000000000000000081526004018080602001828103825260088152602001807f6e6f2076616c756500000000000000000000000000000000000000000000000081525060200191505060405180910390fd5b61381c3334613cf9565b3373ffffffffffffffffffffffffffffffffffffffff167f0f0f2fc5b4c987a49e1663ce2c2d65de12f3b701ff02b4d09461421e63e609e7346040518082815260200191505060405180910390a260005481146138e1576040517f08c379a000000000000000000000000000000000000000000000000000000000815260040180806020018281038252600e8152602001807f7265656e7472616e742063616c6c00000000000000000000000000000000000081525060200191505060405180910390fd5b50565b61393981600360008573ffffffffffffffffffffffffffffffffffffffff1673ffffffffffffffffffffffffffffffffffffffff16815260200190815260200160002060000154613caf90919063ffffffff16565b600360008473ffffffffffffffffffffffffffffffffffffffff1673ffffffffffffffffffffffffffffffffffffffff1681526020019081526020016000206000018190555061399481600654613caf90919063ffffffff16565b6006819055505050565b6000600260009054906101000a900473ffffffffffffffffffffffffffffffffffffffff1673ffffffffffffffffffffffffffffffffffffffff1663dcf0aaed60405160200180807f4163636f756e74730000000000000000000000000000000000000000000000008152506008019050604051602081830303815290604052805190602001206040518263ffffffff1660e01b81526004018082815260200191505060206040518083038186803b158015613a5957600080fd5b505afa158015613a6d573d6000803e3d6000fd5b505050506040513d6020811015613a8357600080fd5b8101908080519060200190929190505050905090565b6000613ab360018480549050613caf90919063ffffffff16565b9050828181548110613ac157fe5b9060005260206000209060020201838381548110613adb57fe5b90600052602060002090600202016000820154816000015560018201548160010155905050808381613b0d91906141cf565b50505050565b6000600260009054906101000a900473ffffffffffffffffffffffffffffffffffffffff1673ffffffffffffffffffffffffffffffffffffffff1663dcf0aaed60405160200180807f456c656374696f6e0000000000000000000000000000000000000000000000008152506008019050604051602081830303815290604052805190602001206040518263ffffffff1660e01b81526004018082815260200191505060206040518083038186803b158015613bce57600080fd5b505afa158015613be2573d6000803e3d6000fd5b505050506040513d6020811015613bf857600080fd5b8101908080519060200190929190505050905090565b600080828401905083811015613c8c576040517f08c379a000000000000000000000000000000000000000000000000000000000815260040180806020018281038252601b8152602001807f536166654d6174683a206164646974696f6e206f766572666c6f77000000000081525060200191505060405180910390fd5b8091505092915050565b6000818310613ca55781613ca7565b825b905092915050565b6000613cf183836040518060400160405280601e81526020017f536166654d6174683a207375627472616374696f6e206f766572666c6f7700008152506140f5565b905092915050565b613d4e81600360008573ffffffffffffffffffffffffffffffffffffffff1673ffffffffffffffffffffffffffffffffffffffff16815260200190815260200160002060000154613c0e90919063ffffffff16565b600360008473ffffffffffffffffffffffffffffffffffffffff1673ffffffffffffffffffffffffffffffffffffffff16815260200190815260200160002060000181905550613da981600654613c0e90919063ffffffff16565b6006819055505050565b6000600260009054906101000a900473ffffffffffffffffffffffffffffffffffffffff1673ffffffffffffffffffffffffffffffffffffffff1663dcf0aaed60405160200180807f476f7665726e616e636500000000000000000000000000000000000000000000815250600a019050604051602081830303815290604052805190602001206040518263ffffffff1660e01b81526004018082815260200191505060206040518083038186803b158015613e6e57600080fd5b505afa158015613e82573d6000803e3d6000fd5b505050506040513d6020811015613e9857600080fd5b8101908080519060200190929190505050905090565b6000600260009054906101000a900473ffffffffffffffffffffffffffffffffffffffff1673ffffffffffffffffffffffffffffffffffffffff1663dcf0aaed60405160200180807f56616c696461746f727300000000000000000000000000000000000000000000815250600a019050604051602081830303815290604052805190602001206040518263ffffffff1660e01b81526004018082815260200191505060206040518083038186803b158015613f6957600080fd5b505afa158015613f7d573d6000803e3d6000fd5b505050506040513d6020811015613f9357600080fd5b8101908080519060200190929190505050905090565b600033905090565b600073ffffffffffffffffffffffffffffffffffffffff168173ffffffffffffffffffffffffffffffffffffffff161415614037576040517f08c379a00000000000000000000000000000000000000000000000000000000081526004018080602001828103825260268152602001806142556026913960400191505060405180910390fd5b8073ffffffffffffffffffffffffffffffffffffffff166001809054906101000a900473ffffffffffffffffffffffffffffffffffffffff1673ffffffffffffffffffffffffffffffffffffffff167f8be0079c531659141344cd1fd0a4f28419497f9722a3daafe3b4186f6b6457e060405160405180910390a3806001806101000a81548173ffffffffffffffffffffffffffffffffffffffff021916908373ffffffffffffffffffffffffffffffffffffffff16021790555050565b60008383111582906141a2576040517f08c379a00000000000000000000000000000000000000000000000000000000081526004018080602001828103825283818151815260200191508051906020019080838360005b8381101561416757808201518184015260208101905061414c565b50505050905090810190601f1680156141945780820380516001836020036101000a031916815260200191505b509250505060405180910390fd5b5060008385039050809150509392505050565b604051806040016040528060008152602001600081525090565b8154818355818111156141fc576002028160020283600052602060002091820191016141fb9190614201565b5b505050565b61422d91905b8082111561422957600080820160009055600182016000905550600201614207565b5090565b9056fe43616c6c6572206973206e6f7420612077686974656c697374656420736c61736865722e4f776e61626c653a206e6577206f776e657220697320746865207a65726f20616464726573735265717565737465642076616c7565206c6172676572207468616e2070656e64696e672076616c756550726f766964656420696e64657820657863656564732077686974656c69737420626f756e64732e43616e6e6f742072656d6f766520736c6173686572204944206e6f74207965742061646465642e43616e6e6f74207265766f6b6520656e6f75676820766f74696e6720676f6c642ea165627a7a723058205a8be7ebec42b2859ac53456d3ab0741fad71d0e9ec2a5cce836fee3dca805bf0029",
  "source": "pragma solidity ^0.5.3;\n\nimport \"openzeppelin-solidity/contracts/math/Math.sol\";\nimport \"openzeppelin-solidity/contracts/math/SafeMath.sol\";\nimport \"openzeppelin-solidity/contracts/ownership/Ownable.sol\";\n\nimport \"./interfaces/ILockedGold.sol\";\n\nimport \"../common/Initializable.sol\";\nimport \"../common/Signatures.sol\";\nimport \"../common/UsingRegistry.sol\";\nimport \"../common/libraries/ReentrancyGuard.sol\";\n\ncontract LockedGold is ILockedGold, ReentrancyGuard, Initializable, UsingRegistry {\n  using SafeMath for uint256;\n\n  struct PendingWithdrawal {\n    // The value of the pending withdrawal.\n    uint256 value;\n    // The timestamp at which the pending withdrawal becomes available.\n    uint256 timestamp;\n  }\n\n  // NOTE: This contract does not store an account's locked gold that is being used in electing\n  // validators.\n  struct Balances {\n    // The amount of locked gold that this account has that is not currently participating in\n    // validator elections.\n    uint256 nonvoting;\n    // Gold that has been unlocked and will become available for withdrawal.\n    PendingWithdrawal[] pendingWithdrawals;\n  }\n\n  mapping(address => Balances) private balances;\n\n  // Iterable map to store whitelisted identifiers.\n  // Necessary to allow iterating over whitelisted IDs to check ID's address at runtime.\n  mapping(bytes32 => bool) internal slashingMap;\n  bytes32[] public slashingWhitelist;\n\n  modifier onlySlasher {\n    require(\n      registry.isOneOf(slashingWhitelist, msg.sender),\n      \"Caller is not a whitelisted slasher.\"\n    );\n    _;\n  }\n\n  function isSlasher(address slasher) external view returns (bool) {\n    return (registry.isOneOf(slashingWhitelist, slasher));\n  }\n\n  uint256 public totalNonvoting;\n  uint256 public unlockingPeriod;\n\n  event UnlockingPeriodSet(uint256 period);\n  event GoldLocked(address indexed account, uint256 value);\n  event GoldUnlocked(address indexed account, uint256 value, uint256 available);\n  event GoldRelocked(address indexed account, uint256 value);\n  event GoldWithdrawn(address indexed account, uint256 value);\n  event SlasherWhitelistAdded(string indexed slasherIdentifier);\n  event SlasherWhitelistRemoved(string indexed slasherIdentifier);\n  event AccountSlashed(\n    address indexed slashed,\n    uint256 penalty,\n    address indexed reporter,\n    uint256 reward\n  );\n\n  /**\n   * @notice Used in place of the constructor to allow the contract to be upgradable via proxy.\n   * @param registryAddress The address of the registry core smart contract.\n   * @param _unlockingPeriod The unlocking period in seconds.\n   */\n  function initialize(address registryAddress, uint256 _unlockingPeriod) external initializer {\n    _transferOwnership(msg.sender);\n    setRegistry(registryAddress);\n    setUnlockingPeriod(_unlockingPeriod);\n  }\n\n  /**\n   * @notice Sets the duration in seconds users must wait before withdrawing gold after unlocking.\n   * @param value The unlocking period in seconds.\n   */\n  function setUnlockingPeriod(uint256 value) public onlyOwner {\n    require(value != unlockingPeriod, \"Unlocking period not changed\");\n    unlockingPeriod = value;\n    emit UnlockingPeriodSet(value);\n  }\n\n  /**\n   * @notice Locks gold to be used for voting.\n   */\n  function lock() external payable nonReentrant {\n    require(getAccounts().isAccount(msg.sender), \"not account\");\n    require(msg.value > 0, \"no value\");\n    _incrementNonvotingAccountBalance(msg.sender, msg.value);\n    emit GoldLocked(msg.sender, msg.value);\n  }\n\n  /**\n   * @notice Increments the non-voting balance for an account.\n   * @param account The account whose non-voting balance should be incremented.\n   * @param value The amount by which to increment.\n   * @dev Can only be called by the registered Election smart contract.\n   */\n  function incrementNonvotingAccountBalance(address account, uint256 value)\n    external\n    onlyRegisteredContract(ELECTION_REGISTRY_ID)\n  {\n    _incrementNonvotingAccountBalance(account, value);\n  }\n\n  /**\n   * @notice Decrements the non-voting balance for an account.\n   * @param account The account whose non-voting balance should be decremented.\n   * @param value The amount by which to decrement.\n   * @dev Can only be called by the registered \"Election\" smart contract.\n   */\n  function decrementNonvotingAccountBalance(address account, uint256 value)\n    external\n    onlyRegisteredContract(ELECTION_REGISTRY_ID)\n  {\n    _decrementNonvotingAccountBalance(account, value);\n  }\n\n  /**\n   * @notice Increments the non-voting balance for an account.\n   * @param account The account whose non-voting balance should be incremented.\n   * @param value The amount by which to increment.\n   */\n  function _incrementNonvotingAccountBalance(address account, uint256 value) private {\n    balances[account].nonvoting = balances[account].nonvoting.add(value);\n    totalNonvoting = totalNonvoting.add(value);\n  }\n\n  /**\n   * @notice Decrements the non-voting balance for an account.\n   * @param account The account whose non-voting balance should be decremented.\n   * @param value The amount by which to decrement.\n   */\n  function _decrementNonvotingAccountBalance(address account, uint256 value) private {\n    balances[account].nonvoting = balances[account].nonvoting.sub(value);\n    totalNonvoting = totalNonvoting.sub(value);\n  }\n\n  /**\n   * @notice Unlocks gold that becomes withdrawable after the unlocking period.\n   * @param value The amount of gold to unlock.\n   */\n  function unlock(uint256 value) external nonReentrant {\n    require(getAccounts().isAccount(msg.sender), \"Unknown account\");\n    Balances storage account = balances[msg.sender];\n    // Prevent unlocking gold when voting on governance proposals so that the gold cannot be\n    // used to vote more than once.\n    require(!getGovernance().isVoting(msg.sender), \"Account locked\");\n    uint256 balanceRequirement = getValidators().getAccountLockedGoldRequirement(msg.sender);\n    require(\n      balanceRequirement == 0 ||\n        balanceRequirement <= getAccountTotalLockedGold(msg.sender).sub(value),\n      \"Trying to unlock too much gold\"\n    );\n    _decrementNonvotingAccountBalance(msg.sender, value);\n    uint256 available = now.add(unlockingPeriod);\n    account.pendingWithdrawals.push(PendingWithdrawal(value, available));\n    emit GoldUnlocked(msg.sender, value, available);\n  }\n\n  /**\n   * @notice Relocks gold that has been unlocked but not withdrawn.\n   * @param index The index of the pending withdrawal to relock from.\n   * @param value The value to relock from the specified pending withdrawal.\n   */\n  function relock(uint256 index, uint256 value) external nonReentrant {\n    require(getAccounts().isAccount(msg.sender), \"Unknown account\");\n    Balances storage account = balances[msg.sender];\n    require(index < account.pendingWithdrawals.length, \"Bad pending withdrawal index\");\n    PendingWithdrawal storage pendingWithdrawal = account.pendingWithdrawals[index];\n    require(value <= pendingWithdrawal.value, \"Requested value larger than pending value\");\n    if (value == pendingWithdrawal.value) {\n      deletePendingWithdrawal(account.pendingWithdrawals, index);\n    } else {\n      pendingWithdrawal.value = pendingWithdrawal.value.sub(value);\n    }\n    _incrementNonvotingAccountBalance(msg.sender, value);\n    emit GoldRelocked(msg.sender, value);\n  }\n\n  /**\n   * @notice Withdraws gold that has been unlocked after the unlocking period has passed.\n   * @param index The index of the pending withdrawal to withdraw.\n   */\n  function withdraw(uint256 index) external nonReentrant {\n    require(getAccounts().isAccount(msg.sender), \"Unknown account\");\n    Balances storage account = balances[msg.sender];\n    require(index < account.pendingWithdrawals.length, \"Bad pending withdrawal index\");\n    PendingWithdrawal storage pendingWithdrawal = account.pendingWithdrawals[index];\n    require(now >= pendingWithdrawal.timestamp, \"Pending withdrawal not available\");\n    uint256 value = pendingWithdrawal.value;\n    deletePendingWithdrawal(account.pendingWithdrawals, index);\n    msg.sender.transfer(value);\n    emit GoldWithdrawn(msg.sender, value);\n  }\n\n  /**\n   * @notice Returns the total amount of locked gold in the system. Note that this does not include\n   *   gold that has been unlocked but not yet withdrawn.\n   * @return The total amount of locked gold in the system.\n   */\n  function getTotalLockedGold() external view returns (uint256) {\n    return totalNonvoting.add(getElection().getTotalVotes());\n  }\n\n  /**\n   * @notice Returns the total amount of locked gold not being used to vote in elections.\n   * @return The total amount of locked gold not being used to vote in elections.\n   */\n  function getNonvotingLockedGold() external view returns (uint256) {\n    return totalNonvoting;\n  }\n\n  /**\n   * @notice Returns the total amount of locked gold for an account.\n   * @param account The account.\n   * @return The total amount of locked gold for an account.\n   */\n  function getAccountTotalLockedGold(address account) public view returns (uint256) {\n    uint256 total = balances[account].nonvoting;\n    return total.add(getElection().getTotalVotesByAccount(account));\n  }\n\n  /**\n   * @notice Returns the total amount of non-voting locked gold for an account.\n   * @param account The account.\n   * @return The total amount of non-voting locked gold for an account.\n   */\n  function getAccountNonvotingLockedGold(address account) external view returns (uint256) {\n    return balances[account].nonvoting;\n  }\n\n  /**\n   * @notice Returns the pending withdrawals from unlocked gold for an account.\n   * @param account The address of the account.\n   * @return The value and timestamp for each pending withdrawal.\n   */\n  function getPendingWithdrawals(address account)\n    external\n    view\n    returns (uint256[] memory, uint256[] memory)\n  {\n    require(getAccounts().isAccount(account), \"Unknown account\");\n    uint256 length = balances[account].pendingWithdrawals.length;\n    uint256[] memory values = new uint256[](length);\n    uint256[] memory timestamps = new uint256[](length);\n    for (uint256 i = 0; i < length; i = i.add(1)) {\n      PendingWithdrawal memory pendingWithdrawal = (balances[account].pendingWithdrawals[i]);\n      values[i] = pendingWithdrawal.value;\n      timestamps[i] = pendingWithdrawal.timestamp;\n    }\n    return (values, timestamps);\n  }\n\n  function getTotalPendingWithdrawals(address account) external view returns (uint256) {\n    uint256 pendingWithdrawalSum = 0;\n    PendingWithdrawal[] memory withdrawals = balances[account].pendingWithdrawals;\n    for (uint256 i = 0; i < withdrawals.length; i = i.add(1)) {\n      pendingWithdrawalSum = pendingWithdrawalSum.add(withdrawals[i].value);\n    }\n    return pendingWithdrawalSum;\n  }\n\n  function getSlashingWhitelist() external view returns (bytes32[] memory) {\n    return slashingWhitelist;\n  }\n\n  /**\n   * @notice Deletes a pending withdrawal.\n   * @param list The list of pending withdrawals from which to delete.\n   * @param index The index of the pending withdrawal to delete.\n   */\n  function deletePendingWithdrawal(PendingWithdrawal[] storage list, uint256 index) private {\n    uint256 lastIndex = list.length.sub(1);\n    list[index] = list[lastIndex];\n    list.length = lastIndex;\n  }\n\n  /**\n   * @notice Adds `slasher` to whitelist of approved slashing addresses.\n   * @param slasherIdentifier Identifier to whitelist.\n   */\n  function addSlasher(string calldata slasherIdentifier) external onlyOwner {\n    bytes32 keyBytes = keccak256(abi.encodePacked(slasherIdentifier));\n    require(registry.getAddressFor(keyBytes) != address(0), \"Identifier is not registered\");\n    require(!slashingMap[keyBytes], \"Cannot add slasher ID twice.\");\n    slashingWhitelist.push(keyBytes);\n    slashingMap[keyBytes] = true;\n    emit SlasherWhitelistAdded(slasherIdentifier);\n  }\n\n  /**\n   * @notice Removes `slasher` from whitelist of approved slashing addresses.\n   * @param slasherIdentifier Identifier to remove from whitelist.\n   * @param index Index of the provided identifier in slashingWhiteList array.\n   */\n  function removeSlasher(string calldata slasherIdentifier, uint256 index) external onlyOwner {\n    bytes32 keyBytes = keccak256(abi.encodePacked(slasherIdentifier));\n    require(slashingMap[keyBytes], \"Cannot remove slasher ID not yet added.\");\n    require(index < slashingWhitelist.length, \"Provided index exceeds whitelist bounds.\");\n    require(slashingWhitelist[index] == keyBytes, \"Index doesn't match identifier\");\n    slashingWhitelist[index] = slashingWhitelist[slashingWhitelist.length - 1];\n    slashingWhitelist.pop();\n    slashingMap[keyBytes] = false;\n    emit SlasherWhitelistRemoved(slasherIdentifier);\n  }\n\n  /**\n   * @notice Slashes `account` by reducing its nonvoting locked gold by `penalty`.\n   *         If there is not enough nonvoting locked gold to slash, calls into\n   *         `Election.slashVotes` to slash the remaining gold. If `account` does not have\n   *         `penalty` worth of locked gold, slashes `account`'s total locked gold.\n   *         Also sends `reward` gold to the reporter, and penalty-reward to the Community Fund.\n   * @param account Address of account being slashed.\n   * @param penalty Amount to slash account.\n   * @param reporter Address of account reporting the slasher.\n   * @param reward Reward to give reporter.\n   * @param lessers The groups receiving fewer votes than i'th group, or 0 if the i'th group has\n   *                the fewest votes of any validator group.\n   * @param greaters The groups receiving more votes than the i'th group, or 0 if the i'th group\n   *                 has the most votes of any validator group.\n   * @param indices The indices of the i'th group in `account`'s voting list.\n   * @dev Fails if `reward` is greater than `account`'s total locked gold.\n   */\n  function slash(\n    address account,\n    uint256 penalty,\n    address reporter,\n    uint256 reward,\n    address[] calldata lessers,\n    address[] calldata greaters,\n    uint256[] calldata indices\n  ) external onlySlasher {\n    uint256 maxSlash = Math.min(penalty, getAccountTotalLockedGold(account));\n    require(maxSlash >= reward, \"reward cannot exceed penalty.\");\n    // Local scoping is required to avoid Solc \"stack too deep\" error from too many locals.\n    {\n      uint256 nonvotingBalance = balances[account].nonvoting;\n      uint256 difference = 0;\n      // If not enough nonvoting, revoke the difference\n      if (nonvotingBalance < maxSlash) {\n        difference = maxSlash.sub(nonvotingBalance);\n        require(\n          getElection().forceDecrementVotes(account, difference, lessers, greaters, indices) ==\n            difference,\n          \"Cannot revoke enough voting gold.\"\n        );\n      }\n      // forceDecrementVotes does not increment nonvoting account balance, so we can't double count\n      _decrementNonvotingAccountBalance(account, maxSlash.sub(difference));\n      _incrementNonvotingAccountBalance(reporter, reward);\n    }\n    address communityFund = registry.getAddressForOrDie(GOVERNANCE_REGISTRY_ID);\n    address payable communityFundPayable = address(uint160(communityFund));\n    communityFundPayable.transfer(maxSlash.sub(reward));\n    emit AccountSlashed(account, maxSlash, reporter, reward);\n  }\n}\n",
  "sourcePath": "/Users/cmcewen/celo/celo-monorepo/packages/protocol/contracts/governance/LockedGold.sol",
  "compiler": {
    "name": "solc",
    "version": "0.5.8+commit.23d335f2.Emscripten.clang"
  },
  "schemaVersion": "3.0.10",
  "updatedAt": "2020-04-09T23:47:18.134Z",
  "devdoc": {
    "methods": {
      "addSlasher(string)": {
        "params": {
          "slasherIdentifier": "Identifier to whitelist."
        }
      },
      "decrementNonvotingAccountBalance(address,uint256)": {
        "details": "Can only be called by the registered \"Election\" smart contract.",
        "params": {
          "account": "The account whose non-voting balance should be decremented.",
          "value": "The amount by which to decrement."
        }
      },
      "getAccountNonvotingLockedGold(address)": {
        "params": {
          "account": "The account."
        },
        "return": "The total amount of non-voting locked gold for an account."
      },
      "getAccountTotalLockedGold(address)": {
        "params": {
          "account": "The account."
        },
        "return": "The total amount of locked gold for an account."
      },
      "getNonvotingLockedGold()": {
        "return": "The total amount of locked gold not being used to vote in elections."
      },
      "getPendingWithdrawals(address)": {
        "params": {
          "account": "The address of the account."
        },
        "return": "The value and timestamp for each pending withdrawal."
      },
      "getTotalLockedGold()": {
        "return": "The total amount of locked gold in the system."
      },
      "incrementNonvotingAccountBalance(address,uint256)": {
        "details": "Can only be called by the registered Election smart contract.",
        "params": {
          "account": "The account whose non-voting balance should be incremented.",
          "value": "The amount by which to increment."
        }
      },
      "initialize(address,uint256)": {
        "params": {
          "_unlockingPeriod": "The unlocking period in seconds.",
          "registryAddress": "The address of the registry core smart contract."
        }
      },
      "isOwner()": {
        "details": "Returns true if the caller is the current owner."
      },
      "owner()": {
        "details": "Returns the address of the current owner."
      },
      "relock(uint256,uint256)": {
        "params": {
          "index": "The index of the pending withdrawal to relock from.",
          "value": "The value to relock from the specified pending withdrawal."
        }
      },
      "removeSlasher(string,uint256)": {
        "params": {
          "index": "Index of the provided identifier in slashingWhiteList array.",
          "slasherIdentifier": "Identifier to remove from whitelist."
        }
      },
      "renounceOwnership()": {
        "details": "Leaves the contract without owner. It will not be possible to call `onlyOwner` functions anymore. Can only be called by the current owner.     * NOTE: Renouncing ownership will leave the contract without an owner, thereby removing any functionality that is only available to the owner."
      },
      "setRegistry(address)": {
        "params": {
          "registryAddress": "The address of a registry contract for routing to other contracts."
        }
      },
      "setUnlockingPeriod(uint256)": {
        "params": {
          "value": "The unlocking period in seconds."
        }
      },
      "slash(address,uint256,address,uint256,address[],address[],uint256[])": {
        "details": "Fails if `reward` is greater than `account`'s total locked gold.",
        "params": {
          "account": "Address of account being slashed.",
          "greaters": "The groups receiving more votes than the i'th group, or 0 if the i'th group                has the most votes of any validator group.",
          "indices": "The indices of the i'th group in `account`'s voting list.",
          "lessers": "The groups receiving fewer votes than i'th group, or 0 if the i'th group has               the fewest votes of any validator group.",
          "penalty": "Amount to slash account.",
          "reporter": "Address of account reporting the slasher.",
          "reward": "Reward to give reporter."
        }
      },
      "transferOwnership(address)": {
        "details": "Transfers ownership of the contract to a new account (`newOwner`). Can only be called by the current owner."
      },
      "unlock(uint256)": {
        "params": {
          "value": "The amount of gold to unlock."
        }
      },
      "withdraw(uint256)": {
        "params": {
          "index": "The index of the pending withdrawal to withdraw."
        }
      }
    }
  },
  "userdoc": {
    "methods": {
      "addSlasher(string)": {
        "notice": "Adds `slasher` to whitelist of approved slashing addresses."
      },
      "decrementNonvotingAccountBalance(address,uint256)": {
        "notice": "Decrements the non-voting balance for an account."
      },
      "getAccountNonvotingLockedGold(address)": {
        "notice": "Returns the total amount of non-voting locked gold for an account."
      },
      "getAccountTotalLockedGold(address)": {
        "notice": "Returns the total amount of locked gold for an account."
      },
      "getNonvotingLockedGold()": {
        "notice": "Returns the total amount of locked gold not being used to vote in elections."
      },
      "getPendingWithdrawals(address)": {
        "notice": "Returns the pending withdrawals from unlocked gold for an account."
      },
      "getTotalLockedGold()": {
        "notice": "Returns the total amount of locked gold in the system. Note that this does not include  gold that has been unlocked but not yet withdrawn."
      },
      "incrementNonvotingAccountBalance(address,uint256)": {
        "notice": "Increments the non-voting balance for an account."
      },
      "initialize(address,uint256)": {
        "notice": "Used in place of the constructor to allow the contract to be upgradable via proxy."
      },
      "lock()": {
        "notice": "Locks gold to be used for voting."
      },
      "relock(uint256,uint256)": {
        "notice": "Relocks gold that has been unlocked but not withdrawn."
      },
      "removeSlasher(string,uint256)": {
        "notice": "Removes `slasher` from whitelist of approved slashing addresses."
      },
      "setRegistry(address)": {
        "notice": "Updates the address pointing to a Registry contract."
      },
      "setUnlockingPeriod(uint256)": {
        "notice": "Sets the duration in seconds users must wait before withdrawing gold after unlocking."
      },
      "slash(address,uint256,address,uint256,address[],address[],uint256[])": {
        "notice": "Slashes `account` by reducing its nonvoting locked gold by `penalty`.        If there is not enough nonvoting locked gold to slash, calls into        `Election.slashVotes` to slash the remaining gold. If `account` does not have        `penalty` worth of locked gold, slashes `account`'s total locked gold.        Also sends `reward` gold to the reporter, and penalty-reward to the Community Fund."
      },
      "unlock(uint256)": {
        "notice": "Unlocks gold that becomes withdrawable after the unlocking period."
      },
      "withdraw(uint256)": {
        "notice": "Withdraws gold that has been unlocked after the unlocking period has passed."
      }
    }
  }
}