{
  "contractName": "MockStableToken",
  "abi": [
    {
      "constant": true,
      "inputs": [],
      "name": "_needsRebase",
      "outputs": [
        {
          "name": "",
          "type": "bool"
        }
      ],
      "payable": false,
      "stateMutability": "view",
      "type": "function"
    },
    {
      "constant": true,
      "inputs": [],
      "name": "decimals",
      "outputs": [
        {
          "name": "",
          "type": "uint8"
        }
      ],
      "payable": false,
      "stateMutability": "view",
      "type": "function"
    },
    {
      "constant": true,
      "inputs": [],
      "name": "_totalSupply",
      "outputs": [
        {
          "name": "",
          "type": "uint256"
        }
      ],
      "payable": false,
      "stateMutability": "view",
      "type": "function"
    },
    {
      "constant": true,
      "inputs": [
        {
          "name": "",
          "type": "address"
        }
      ],
      "name": "balanceOf",
      "outputs": [
        {
          "name": "",
          "type": "uint256"
        }
      ],
      "payable": false,
      "stateMutability": "view",
      "type": "function"
    },
    {
      "constant": true,
      "inputs": [],
      "name": "_targetTotalSupply",
      "outputs": [
        {
          "name": "",
          "type": "uint256"
        }
      ],
      "payable": false,
      "stateMutability": "view",
      "type": "function"
    },
    {
      "constant": false,
      "inputs": [],
      "name": "setNeedsRebase",
      "outputs": [],
      "payable": false,
      "stateMutability": "nonpayable",
      "type": "function"
    },
    {
      "constant": false,
      "inputs": [
        {
          "name": "value",
          "type": "uint256"
        }
      ],
      "name": "setTotalSupply",
      "outputs": [],
      "payable": false,
      "stateMutability": "nonpayable",
      "type": "function"
    },
    {
      "constant": false,
      "inputs": [
        {
          "name": "value",
          "type": "uint256"
        }
      ],
      "name": "setTargetTotalSupply",
      "outputs": [],
      "payable": false,
      "stateMutability": "nonpayable",
      "type": "function"
    },
    {
      "constant": false,
      "inputs": [
        {
          "name": "to",
          "type": "address"
        },
        {
          "name": "value",
          "type": "uint256"
        }
      ],
      "name": "mint",
      "outputs": [
        {
          "name": "",
          "type": "bool"
        }
      ],
      "payable": false,
      "stateMutability": "nonpayable",
      "type": "function"
    },
    {
      "constant": true,
      "inputs": [
        {
          "name": "",
          "type": "uint256"
        }
      ],
      "name": "burn",
      "outputs": [
        {
          "name": "",
          "type": "bool"
        }
      ],
      "payable": false,
      "stateMutability": "pure",
      "type": "function"
    },
    {
      "constant": true,
      "inputs": [],
      "name": "needsRebase",
      "outputs": [
        {
          "name": "",
          "type": "bool"
        }
      ],
      "payable": false,
      "stateMutability": "view",
      "type": "function"
    },
    {
      "constant": true,
      "inputs": [],
      "name": "resetLastRebase",
      "outputs": [],
      "payable": false,
      "stateMutability": "pure",
      "type": "function"
    },
    {
      "constant": true,
      "inputs": [],
      "name": "totalSupply",
      "outputs": [
        {
          "name": "",
          "type": "uint256"
        }
      ],
      "payable": false,
      "stateMutability": "view",
      "type": "function"
    },
    {
      "constant": true,
      "inputs": [],
      "name": "targetTotalSupply",
      "outputs": [
        {
          "name": "",
          "type": "uint256"
        }
      ],
      "payable": false,
      "stateMutability": "view",
      "type": "function"
    },
    {
      "constant": false,
      "inputs": [
        {
          "name": "to",
          "type": "address"
        },
        {
          "name": "value",
          "type": "uint256"
        }
      ],
      "name": "transfer",
      "outputs": [
        {
          "name": "",
          "type": "bool"
        }
      ],
      "payable": false,
      "stateMutability": "nonpayable",
      "type": "function"
    },
    {
      "constant": true,
      "inputs": [
        {
          "name": "",
          "type": "address"
        },
        {
          "name": "",
          "type": "address"
        },
        {
          "name": "",
          "type": "uint256"
        }
      ],
      "name": "transferFrom",
      "outputs": [
        {
          "name": "",
          "type": "bool"
        }
      ],
      "payable": false,
      "stateMutability": "pure",
      "type": "function"
    }
  ],
  "bytecode": "0x608060405234801561001057600080fd5b506108da806100206000396000f3fe608060405234801561001057600080fd5b50600436106101005760003560e01c806342966c681161009757806398e10a011161006657806398e10a0114610365578063a9059cbb14610383578063b210e2c1146103e9578063f7ea7a3d1461041757610100565b806342966c681461028757806370a08231146102cd5780637e3e0461146103255780639095d94f1461034357610100565b8063313ce567116100d3578063313ce567146101d55780633eaaf86b146101f957806340c10f191461021757806341ea64751461027d57610100565b8063147198101461010557806318160ddd1461010f57806323b872dd1461012d57806325a4ab4b146101b3575b600080fd5b61010d610445565b005b610117610447565b6040518082815260200191505060405180910390f35b6101996004803603606081101561014357600080fd5b81019080803573ffffffffffffffffffffffffffffffffffffffff169060200190929190803573ffffffffffffffffffffffffffffffffffffffff16906020019092919080359060200190929190505050610451565b604051808215151515815260200191505060405180910390f35b6101bb61045e565b604051808215151515815260200191505060405180910390f35b6101dd610470565b604051808260ff1660ff16815260200191505060405180910390f35b610201610475565b6040518082815260200191505060405180910390f35b6102636004803603604081101561022d57600080fd5b81019080803573ffffffffffffffffffffffffffffffffffffffff1690602001909291908035906020019092919050505061047b565b604051808215151515815260200191505060405180910390f35b61028561051c565b005b6102b36004803603602081101561029d57600080fd5b8101908080359060200190929190505050610538565b604051808215151515815260200191505060405180910390f35b61030f600480360360208110156102e357600080fd5b81019080803573ffffffffffffffffffffffffffffffffffffffff169060200190929190505050610543565b6040518082815260200191505060405180910390f35b61032d61055b565b6040518082815260200191505060405180910390f35b61034b610565565b604051808215151515815260200191505060405180910390f35b61036d61057b565b6040518082815260200191505060405180910390f35b6103cf6004803603604081101561039957600080fd5b81019080803573ffffffffffffffffffffffffffffffffffffffff16906020019092919080359060200190929190505050610581565b604051808215151515815260200191505060405180910390f35b610415600480360360208110156103ff57600080fd5b8101908080359060200190929190505050610708565b005b6104436004803603602081101561042d57600080fd5b8101908080359060200190929190505050610712565b005b565b6000600154905090565b6000600190509392505050565b6000809054906101000a900460ff1681565b601281565b60015481565b60006104cf82600360008673ffffffffffffffffffffffffffffffffffffffff1673ffffffffffffffffffffffffffffffffffffffff1681526020019081526020016000205461071c90919063ffffffff16565b600360008573ffffffffffffffffffffffffffffffffffffffff1673ffffffffffffffffffffffffffffffffffffffff168152602001908152602001600020819055506001905092915050565b60016000806101000a81548160ff021916908315150217905550565b600060019050919050565b60036020528060005260406000206000915090505481565b6000600254905090565b60008060009054906101000a900460ff16905090565b60025481565b600081600360003373ffffffffffffffffffffffffffffffffffffffff1673ffffffffffffffffffffffffffffffffffffffff1681526020019081526020016000205410156105d35760009050610702565b61062582600360003373ffffffffffffffffffffffffffffffffffffffff1673ffffffffffffffffffffffffffffffffffffffff168152602001908152602001600020546107a490919063ffffffff16565b600360003373ffffffffffffffffffffffffffffffffffffffff1673ffffffffffffffffffffffffffffffffffffffff168152602001908152602001600020819055506106ba82600360008673ffffffffffffffffffffffffffffffffffffffff1673ffffffffffffffffffffffffffffffffffffffff1681526020019081526020016000205461071c90919063ffffffff16565b600360008573ffffffffffffffffffffffffffffffffffffffff1673ffffffffffffffffffffffffffffffffffffffff16815260200190815260200160002081905550600190505b92915050565b8060028190555050565b8060018190555050565b60008082840190508381101561079a576040517f08c379a000000000000000000000000000000000000000000000000000000000815260040180806020018281038252601b8152602001807f536166654d6174683a206164646974696f6e206f766572666c6f77000000000081525060200191505060405180910390fd5b8091505092915050565b60006107e683836040518060400160405280601e81526020017f536166654d6174683a207375627472616374696f6e206f766572666c6f7700008152506107ee565b905092915050565b600083831115829061089b576040517f08c379a00000000000000000000000000000000000000000000000000000000081526004018080602001828103825283818151815260200191508051906020019080838360005b83811015610860578082015181840152602081019050610845565b50505050905090810190601f16801561088d5780820380516001836020036101000a031916815260200191505b509250505060405180910390fd5b506000838503905080915050939250505056fea165627a7a723058200bca38ea772d04691284a0ff7de4ad57dcb1fa8d799e20c4d14496c29d1731a90029",
  "source": "pragma solidity ^0.5.3;\n// solhint-disable no-unused-vars\n\nimport \"openzeppelin-solidity/contracts/math/SafeMath.sol\";\n\n/**\n * @title A mock StableToken for testing.\n */\ncontract MockStableToken {\n  using SafeMath for uint256;\n\n  uint8 public constant decimals = 18;\n  bool public _needsRebase;\n  uint256 public _totalSupply;\n  uint256 public _targetTotalSupply;\n  mapping(address => uint256) public balanceOf;\n\n  function setNeedsRebase() external {\n    _needsRebase = true;\n  }\n\n  function setTotalSupply(uint256 value) external {\n    _totalSupply = value;\n  }\n\n  function setTargetTotalSupply(uint256 value) external {\n    _targetTotalSupply = value;\n  }\n\n  function mint(address to, uint256 value) external returns (bool) {\n    balanceOf[to] = balanceOf[to].add(value);\n    return true;\n  }\n\n  function burn(uint256) external pure returns (bool) {\n    return true;\n  }\n\n  function needsRebase() external view returns (bool) {\n    return _needsRebase;\n  }\n\n  // solhint-disable-next-line no-empty-blocks\n  function resetLastRebase() external pure {}\n\n  function totalSupply() external view returns (uint256) {\n    return _totalSupply;\n  }\n\n  function targetTotalSupply() external view returns (uint256) {\n    return _targetTotalSupply;\n  }\n\n  function transfer(address to, uint256 value) external returns (bool) {\n    if (balanceOf[msg.sender] < value) {\n      return false;\n    }\n    balanceOf[msg.sender] = balanceOf[msg.sender].sub(value);\n    balanceOf[to] = balanceOf[to].add(value);\n    return true;\n  }\n\n  function transferFrom(address, address, uint256) external pure returns (bool) {\n    return true;\n  }\n}\n",
  "sourcePath": "/Users/cmcewen/celo/celo-monorepo/packages/protocol/contracts/stability/test/MockStableToken.sol",
  "compiler": {
    "name": "solc",
    "version": "0.5.8+commit.23d335f2.Emscripten.clang"
  },
  "schemaVersion": "3.0.10",
  "updatedAt": "2020-04-09T23:11:37.665Z",
  "devdoc": {
    "methods": {},
    "title": "A mock StableToken for testing."
  },
  "userdoc": {
    "methods": {}
  }
}