{
  "contractName": "MockReserve",
  "abi": [
    {
      "constant": true,
      "inputs": [],
      "name": "goldToken",
      "outputs": [
        {
          "name": "",
          "type": "address"
        }
      ],
      "payable": false,
      "stateMutability": "view",
      "type": "function"
    },
    {
      "constant": true,
      "inputs": [
        {
          "name": "",
          "type": "address"
        }
      ],
      "name": "tokens",
      "outputs": [
        {
          "name": "",
          "type": "bool"
        }
      ],
      "payable": false,
      "stateMutability": "view",
      "type": "function"
    },
    {
      "payable": true,
      "stateMutability": "payable",
      "type": "fallback"
    },
    {
      "constant": false,
      "inputs": [
        {
          "name": "goldTokenAddress",
          "type": "address"
        }
      ],
      "name": "setGoldToken",
      "outputs": [],
      "payable": false,
      "stateMutability": "nonpayable",
      "type": "function"
    },
    {
      "constant": false,
      "inputs": [
        {
          "name": "to",
          "type": "address"
        },
        {
          "name": "value",
          "type": "uint256"
        }
      ],
      "name": "transferGold",
      "outputs": [
        {
          "name": "",
          "type": "bool"
        }
      ],
      "payable": false,
      "stateMutability": "nonpayable",
      "type": "function"
    },
    {
      "constant": false,
      "inputs": [
        {
          "name": "to",
          "type": "address"
        },
        {
          "name": "value",
          "type": "uint256"
        }
      ],
      "name": "transferExchangeGold",
      "outputs": [
        {
          "name": "",
          "type": "bool"
        }
      ],
      "payable": false,
      "stateMutability": "nonpayable",
      "type": "function"
    },
    {
      "constant": false,
      "inputs": [
        {
          "name": "token",
          "type": "address"
        }
      ],
      "name": "addToken",
      "outputs": [
        {
          "name": "",
          "type": "bool"
        }
      ],
      "payable": false,
      "stateMutability": "nonpayable",
      "type": "function"
    },
    {
      "constant": true,
      "inputs": [
        {
          "name": "",
          "type": "address"
        }
      ],
      "name": "burnToken",
      "outputs": [
        {
          "name": "",
          "type": "bool"
        }
      ],
      "payable": false,
      "stateMutability": "pure",
      "type": "function"
    },
    {
      "constant": true,
      "inputs": [],
      "name": "getUnfrozenReserveGoldBalance",
      "outputs": [
        {
          "name": "",
          "type": "uint256"
        }
      ],
      "payable": false,
      "stateMutability": "view",
      "type": "function"
    }
  ],
  "bytecode": "0x608060405234801561001057600080fd5b50610777806100206000396000f3fe60806040526004361061007b5760003560e01c8063950dad191161004e578063950dad19146101e5578063d06816a11461024e578063d48bfca71461029f578063e4860339146103085761007b565b806303a0fea31461007d5780631c39c7d5146100f05780638b7df8d41461016357806394002b571461018e575b005b34801561008957600080fd5b506100d6600480360360408110156100a057600080fd5b81019080803573ffffffffffffffffffffffffffffffffffffffff16906020019092919080359060200190929190505050610371565b604051808215151515815260200191505060405180910390f35b3480156100fc57600080fd5b506101496004803603604081101561011357600080fd5b81019080803573ffffffffffffffffffffffffffffffffffffffff169060200190929190803590602001909291905050506104d3565b604051808215151515815260200191505060405180910390f35b34801561016f57600080fd5b50610178610635565b6040518082815260200191505060405180910390f35b34801561019a57600080fd5b506101a3610654565b604051808273ffffffffffffffffffffffffffffffffffffffff1673ffffffffffffffffffffffffffffffffffffffff16815260200191505060405180910390f35b3480156101f157600080fd5b506102346004803603602081101561020857600080fd5b81019080803573ffffffffffffffffffffffffffffffffffffffff16906020019092919050505061067a565b604051808215151515815260200191505060405180910390f35b34801561025a57600080fd5b5061029d6004803603602081101561027157600080fd5b81019080803573ffffffffffffffffffffffffffffffffffffffff169060200190929190505050610685565b005b3480156102ab57600080fd5b506102ee600480360360208110156102c257600080fd5b81019080803573ffffffffffffffffffffffffffffffffffffffff1690602001909291905050506106c9565b604051808215151515815260200191505060405180910390f35b34801561031457600080fd5b506103576004803603602081101561032b57600080fd5b81019080803573ffffffffffffffffffffffffffffffffffffffff16906020019092919050505061072b565b604051808215151515815260200191505060405180910390f35b6000600160009054906101000a900473ffffffffffffffffffffffffffffffffffffffff1673ffffffffffffffffffffffffffffffffffffffff1663a9059cbb84846040518363ffffffff1660e01b8152600401808373ffffffffffffffffffffffffffffffffffffffff1673ffffffffffffffffffffffffffffffffffffffff16815260200182815260200192505050602060405180830381600087803b15801561041c57600080fd5b505af1158015610430573d6000803e3d6000fd5b505050506040513d602081101561044657600080fd5b81019080805190602001909291905050506104c9576040517f08c379a000000000000000000000000000000000000000000000000000000000815260040180806020018281038252601a8152602001807f676f6c6420746f6b656e207472616e73666572206661696c656400000000000081525060200191505060405180910390fd5b6001905092915050565b6000600160009054906101000a900473ffffffffffffffffffffffffffffffffffffffff1673ffffffffffffffffffffffffffffffffffffffff1663a9059cbb84846040518363ffffffff1660e01b8152600401808373ffffffffffffffffffffffffffffffffffffffff1673ffffffffffffffffffffffffffffffffffffffff16815260200182815260200192505050602060405180830381600087803b15801561057e57600080fd5b505af1158015610592573d6000803e3d6000fd5b505050506040513d60208110156105a857600080fd5b810190808051906020019092919050505061062b576040517f08c379a000000000000000000000000000000000000000000000000000000000815260040180806020018281038252601a8152602001807f676f6c6420746f6b656e207472616e73666572206661696c656400000000000081525060200191505060405180910390fd5b6001905092915050565b60003073ffffffffffffffffffffffffffffffffffffffff1631905090565b600160009054906101000a900473ffffffffffffffffffffffffffffffffffffffff1681565b600060019050919050565b80600160006101000a81548173ffffffffffffffffffffffffffffffffffffffff021916908373ffffffffffffffffffffffffffffffffffffffff16021790555050565b600060016000808473ffffffffffffffffffffffffffffffffffffffff1673ffffffffffffffffffffffffffffffffffffffff16815260200190815260200160002060006101000a81548160ff02191690831515021790555060019050919050565b60006020528060005260406000206000915054906101000a900460ff168156fea165627a7a72305820b1b043752ac1661fa34378745297245c86f8349c4ba889ac9c9ca3d80bbfdea30029",
  "source": "pragma solidity ^0.5.3;\n// solhint-disable no-unused-vars\n\nimport \"openzeppelin-solidity/contracts/token/ERC20/IERC20.sol\";\n\n/**\n * @title A mock Reserve for testing.\n */\ncontract MockReserve {\n  mapping(address => bool) public tokens;\n\n  IERC20 public goldToken;\n\n  // solhint-disable-next-line no-empty-blocks\n  function() external payable {}\n\n  function setGoldToken(address goldTokenAddress) external {\n    goldToken = IERC20(goldTokenAddress);\n  }\n\n  function transferGold(address to, uint256 value) external returns (bool) {\n    require(goldToken.transfer(to, value), \"gold token transfer failed\");\n    return true;\n  }\n\n  function transferExchangeGold(address to, uint256 value) external returns (bool) {\n    require(goldToken.transfer(to, value), \"gold token transfer failed\");\n    return true;\n  }\n\n  function addToken(address token) external returns (bool) {\n    tokens[token] = true;\n    return true;\n  }\n\n  function burnToken(address) external pure returns (bool) {\n    return true;\n  }\n\n  function getUnfrozenReserveGoldBalance() external view returns (uint256) {\n    return address(this).balance;\n  }\n}\n",
  "sourcePath": "/Users/cmcewen/celo/celo-monorepo/packages/protocol/contracts/stability/test/MockReserve.sol",
  "compiler": {
    "name": "solc",
    "version": "0.5.8+commit.23d335f2.Emscripten.clang"
  },
  "schemaVersion": "3.0.10",
  "updatedAt": "2020-04-09T23:11:37.654Z",
  "devdoc": {
    "methods": {},
    "title": "A mock Reserve for testing."
  },
  "userdoc": {
    "methods": {}
  }
}