{
  "contractName": "MockGoldToken",
  "abi": [
    {
      "constant": true,
      "inputs": [],
      "name": "totalSupply",
      "outputs": [
        {
          "name": "",
          "type": "uint256"
        }
      ],
      "payable": false,
      "stateMutability": "view",
      "type": "function"
    },
    {
      "constant": true,
      "inputs": [],
      "name": "decimals",
      "outputs": [
        {
          "name": "",
          "type": "uint8"
        }
      ],
      "payable": false,
      "stateMutability": "view",
      "type": "function"
    },
    {
      "constant": false,
      "inputs": [
        {
          "name": "value",
          "type": "uint256"
        }
      ],
      "name": "setTotalSupply",
      "outputs": [],
      "payable": false,
      "stateMutability": "nonpayable",
      "type": "function"
    },
    {
      "constant": true,
      "inputs": [
        {
          "name": "",
          "type": "address"
        },
        {
          "name": "",
          "type": "uint256"
        }
      ],
      "name": "transfer",
      "outputs": [
        {
          "name": "",
          "type": "bool"
        }
      ],
      "payable": false,
      "stateMutability": "pure",
      "type": "function"
    },
    {
      "constant": true,
      "inputs": [
        {
          "name": "",
          "type": "address"
        },
        {
          "name": "",
          "type": "address"
        },
        {
          "name": "",
          "type": "uint256"
        }
      ],
      "name": "transferFrom",
      "outputs": [
        {
          "name": "",
          "type": "bool"
        }
      ],
      "payable": false,
      "stateMutability": "pure",
      "type": "function"
    },
    {
      "constant": false,
      "inputs": [
        {
          "name": "a",
          "type": "address"
        },
        {
          "name": "value",
          "type": "uint256"
        }
      ],
      "name": "setBalanceOf",
      "outputs": [],
      "payable": false,
      "stateMutability": "nonpayable",
      "type": "function"
    },
    {
      "constant": true,
      "inputs": [
        {
          "name": "a",
          "type": "address"
        }
      ],
      "name": "balanceOf",
      "outputs": [
        {
          "name": "",
          "type": "uint256"
        }
      ],
      "payable": false,
      "stateMutability": "view",
      "type": "function"
    }
  ],
  "bytecode": "0x608060405234801561001057600080fd5b5061036f806100206000396000f3fe608060405234801561001057600080fd5b506004361061007d5760003560e01c806370a082311161005b57806370a082311461014a578063a9059cbb146101a2578063b46310f614610208578063f7ea7a3d146102565761007d565b806318160ddd1461008257806323b872dd146100a0578063313ce56714610126575b600080fd5b61008a610284565b6040518082815260200191505060405180910390f35b61010c600480360360608110156100b657600080fd5b81019080803573ffffffffffffffffffffffffffffffffffffffff169060200190929190803573ffffffffffffffffffffffffffffffffffffffff1690602001909291908035906020019092919050505061028a565b604051808215151515815260200191505060405180910390f35b61012e610297565b604051808260ff1660ff16815260200191505060405180910390f35b61018c6004803603602081101561016057600080fd5b81019080803573ffffffffffffffffffffffffffffffffffffffff16906020019092919050505061029c565b6040518082815260200191505060405180910390f35b6101ee600480360360408110156101b857600080fd5b81019080803573ffffffffffffffffffffffffffffffffffffffff169060200190929190803590602001909291905050506102e5565b604051808215151515815260200191505060405180910390f35b6102546004803603604081101561021e57600080fd5b81019080803573ffffffffffffffffffffffffffffffffffffffff169060200190929190803590602001909291905050506102f1565b005b6102826004803603602081101561026c57600080fd5b8101908080359060200190929190505050610339565b005b60005481565b6000600190509392505050565b601281565b6000600160008373ffffffffffffffffffffffffffffffffffffffff1673ffffffffffffffffffffffffffffffffffffffff168152602001908152602001600020549050919050565b60006001905092915050565b80600160008473ffffffffffffffffffffffffffffffffffffffff1673ffffffffffffffffffffffffffffffffffffffff168152602001908152602001600020819055505050565b806000819055505056fea165627a7a7230582073412425cc30727e6a1d09326b4a4976434194551006a260ed3a7186fd7bd0270029",
  "source": "pragma solidity ^0.5.3;\n// solhint-disable no-unused-vars\n\n/**\n * @title A mock GoldToken for testing.\n */\ncontract MockGoldToken {\n  uint8 public constant decimals = 18;\n  uint256 public totalSupply;\n  mapping(address => uint256) balances;\n\n  function setTotalSupply(uint256 value) external {\n    totalSupply = value;\n  }\n\n  function transfer(address, uint256) external pure returns (bool) {\n    return true;\n  }\n\n  function transferFrom(address, address, uint256) external pure returns (bool) {\n    return true;\n  }\n\n  function setBalanceOf(address a, uint256 value) external {\n    balances[a] = value;\n  }\n\n  function balanceOf(address a) external view returns (uint256) {\n    return balances[a];\n  }\n\n}\n",
  "sourcePath": "/Users/cmcewen/celo/celo-monorepo/packages/protocol/contracts/common/test/MockGoldToken.sol",
  "compiler": {
    "name": "solc",
    "version": "0.5.8+commit.23d335f2.Emscripten.clang"
  },
  "schemaVersion": "3.0.10",
  "updatedAt": "2020-04-09T23:11:37.039Z",
  "devdoc": {
    "methods": {},
    "title": "A mock GoldToken for testing."
  },
  "userdoc": {
    "methods": {}
  }
}