{
  "contractName": "MockAttestations",
  "abi": [
    {
      "constant": false,
      "inputs": [
        {
          "name": "identifier",
          "type": "bytes32"
        },
        {
          "name": "",
          "type": "uint8"
        },
        {
          "name": "",
          "type": "bytes32"
        },
        {
          "name": "",
          "type": "bytes32"
        }
      ],
      "name": "complete",
      "outputs": [],
      "payable": false,
      "stateMutability": "nonpayable",
      "type": "function"
    },
    {
      "constant": true,
      "inputs": [],
      "name": "getMaxAttestations",
      "outputs": [
        {
          "name": "",
          "type": "uint256"
        }
      ],
      "payable": false,
      "stateMutability": "pure",
      "type": "function"
    },
    {
      "constant": true,
      "inputs": [
        {
          "name": "identifier",
          "type": "bytes32"
        },
        {
          "name": "account",
          "type": "address"
        }
      ],
      "name": "getAttestationStats",
      "outputs": [
        {
          "name": "",
          "type": "uint64"
        },
        {
          "name": "",
          "type": "uint64"
        }
      ],
      "payable": false,
      "stateMutability": "view",
      "type": "function"
    }
  ],
  "bytecode": "0x608060405234801561001057600080fd5b506102ea806100206000396000f3fe608060405234801561001057600080fd5b50600436106100415760003560e01c8063596abea5146100465780637796a684146100d7578063fb6a2e53146100f5575b600080fd5b6100926004803603604081101561005c57600080fd5b8101908080359060200190929190803573ffffffffffffffffffffffffffffffffffffffff169060200190929190505050610144565b604051808367ffffffffffffffff1667ffffffffffffffff1681526020018267ffffffffffffffff1667ffffffffffffffff1681526020019250505060405180910390f35b6100df610215565b6040518082815260200191505060405180910390f35b6101426004803603608081101561010b57600080fd5b8101908080359060200190929190803560ff169060200190929190803590602001909291908035906020019092919050505061021e565b005b60008060008085815260200190815260200160002060010160008473ffffffffffffffffffffffffffffffffffffffff1673ffffffffffffffffffffffffffffffffffffffff16815260200190815260200160002060000160009054906101000a900467ffffffffffffffff1660008086815260200190815260200160002060010160008573ffffffffffffffffffffffffffffffffffffffff1673ffffffffffffffffffffffffffffffffffffffff16815260200190815260200160002060010180549050915091509250929050565b60006014905090565b60008085815260200190815260200160002060010160003373ffffffffffffffffffffffffffffffffffffffff1673ffffffffffffffffffffffffffffffffffffffff168152602001908152602001600020600001600081819054906101000a900467ffffffffffffffff168092919060010191906101000a81548167ffffffffffffffff021916908367ffffffffffffffff160217905550505050505056fea165627a7a723058208667405a0a50862ce5b46ecd08ee1e52b3f16cbb4ecbee0fcd43405db8e388940029",
  "source": "pragma solidity ^0.5.3;\n\nimport \"openzeppelin-solidity/contracts/math/SafeMath.sol\";\n\n/**\n * @title A mock Attestations for testing.\n */\ncontract MockAttestations {\n  enum AttestationStatus { None, Incomplete, Complete }\n\n  struct Attestation {\n    AttestationStatus status;\n    uint128 time;\n  }\n\n  struct Attestations {\n    uint64 completed;\n    address[] issuers;\n    mapping(address => Attestation) issuedAttestations;\n  }\n\n  struct IdentifierState {\n    address[] accounts;\n    mapping(address => Attestations) attestations;\n  }\n\n  mapping(bytes32 => IdentifierState) identifiers;\n\n  function complete(bytes32 identifier, uint8, bytes32, bytes32) external {\n    identifiers[identifier].attestations[msg.sender].completed++;\n  }\n\n  function getMaxAttestations() external pure returns (uint256) {\n    return 20;\n  }\n\n  function getAttestationStats(bytes32 identifier, address account)\n    external\n    view\n    returns (uint64, uint64)\n  {\n    return (\n      identifiers[identifier].attestations[account].completed,\n      uint64(identifiers[identifier].attestations[account].issuers.length)\n    );\n  }\n}\n",
  "sourcePath": "/Users/cmcewen/celo/celo-monorepo/packages/protocol/contracts/identity/test/MockAttestations.sol",
  "compiler": {
    "name": "solc",
    "version": "0.5.8+commit.23d335f2.Emscripten.clang"
  },
  "schemaVersion": "3.0.10",
  "updatedAt": "2020-04-09T23:11:37.541Z",
  "devdoc": {
    "methods": {},
    "title": "A mock Attestations for testing."
  },
  "userdoc": {
    "methods": {}
  }
}