{
  "contractName": "MockBondedDeposits",
  "abi": [
    {
      "constant": true,
      "inputs": [
        {
          "name": "",
          "type": "address"
        }
      ],
      "name": "rewarders",
      "outputs": [
        {
          "name": "",
          "type": "address"
        }
      ],
      "payable": false,
      "stateMutability": "view",
      "type": "function"
    },
    {
      "constant": true,
      "inputs": [
        {
          "name": "",
          "type": "address"
        },
        {
          "name": "",
          "type": "uint256"
        }
      ],
      "name": "bonded",
      "outputs": [
        {
          "name": "",
          "type": "uint256"
        }
      ],
      "payable": false,
      "stateMutability": "view",
      "type": "function"
    },
    {
      "constant": true,
      "inputs": [
        {
          "name": "",
          "type": "address"
        }
      ],
      "name": "voters",
      "outputs": [
        {
          "name": "",
          "type": "address"
        }
      ],
      "payable": false,
      "stateMutability": "view",
      "type": "function"
    },
    {
      "constant": true,
      "inputs": [
        {
          "name": "",
          "type": "address"
        }
      ],
      "name": "weights",
      "outputs": [
        {
          "name": "",
          "type": "uint256"
        }
      ],
      "payable": false,
      "stateMutability": "view",
      "type": "function"
    },
    {
      "constant": true,
      "inputs": [
        {
          "name": "",
          "type": "address"
        }
      ],
      "name": "delegations",
      "outputs": [
        {
          "name": "",
          "type": "address"
        }
      ],
      "payable": false,
      "stateMutability": "view",
      "type": "function"
    },
    {
      "constant": true,
      "inputs": [
        {
          "name": "",
          "type": "address"
        }
      ],
      "name": "frozen",
      "outputs": [
        {
          "name": "",
          "type": "bool"
        }
      ],
      "payable": false,
      "stateMutability": "view",
      "type": "function"
    },
    {
      "constant": true,
      "inputs": [
        {
          "name": "",
          "type": "address"
        }
      ],
      "name": "validators",
      "outputs": [
        {
          "name": "",
          "type": "address"
        }
      ],
      "payable": false,
      "stateMutability": "view",
      "type": "function"
    },
    {
      "constant": false,
      "inputs": [
        {
          "name": "",
          "type": "address"
        },
        {
          "name": "",
          "type": "uint256"
        }
      ],
      "name": "initialize",
      "outputs": [],
      "payable": false,
      "stateMutability": "nonpayable",
      "type": "function"
    },
    {
      "constant": false,
      "inputs": [
        {
          "name": "",
          "type": "uint256"
        }
      ],
      "name": "setCumulativeRewardWeight",
      "outputs": [],
      "payable": false,
      "stateMutability": "nonpayable",
      "type": "function"
    },
    {
      "constant": false,
      "inputs": [
        {
          "name": "",
          "type": "uint256"
        }
      ],
      "name": "setMaxNoticePeriod",
      "outputs": [],
      "payable": false,
      "stateMutability": "nonpayable",
      "type": "function"
    },
    {
      "constant": false,
      "inputs": [],
      "name": "redeemRewards",
      "outputs": [
        {
          "name": "",
          "type": "uint256"
        }
      ],
      "payable": false,
      "stateMutability": "nonpayable",
      "type": "function"
    },
    {
      "constant": false,
      "inputs": [],
      "name": "freezeVoting",
      "outputs": [],
      "payable": false,
      "stateMutability": "nonpayable",
      "type": "function"
    },
    {
      "constant": false,
      "inputs": [],
      "name": "unfreezeVoting",
      "outputs": [],
      "payable": false,
      "stateMutability": "nonpayable",
      "type": "function"
    },
    {
      "constant": false,
      "inputs": [
        {
          "name": "",
          "type": "uint256"
        }
      ],
      "name": "deposit",
      "outputs": [
        {
          "name": "",
          "type": "uint256"
        }
      ],
      "payable": true,
      "stateMutability": "payable",
      "type": "function"
    },
    {
      "constant": false,
      "inputs": [
        {
          "name": "",
          "type": "uint256"
        },
        {
          "name": "",
          "type": "uint256"
        }
      ],
      "name": "notify",
      "outputs": [
        {
          "name": "",
          "type": "uint256"
        }
      ],
      "payable": false,
      "stateMutability": "nonpayable",
      "type": "function"
    },
    {
      "constant": false,
      "inputs": [
        {
          "name": "",
          "type": "uint256"
        },
        {
          "name": "",
          "type": "uint256"
        }
      ],
      "name": "rebond",
      "outputs": [
        {
          "name": "",
          "type": "uint256"
        }
      ],
      "payable": false,
      "stateMutability": "nonpayable",
      "type": "function"
    },
    {
      "constant": false,
      "inputs": [
        {
          "name": "",
          "type": "uint256"
        }
      ],
      "name": "withdraw",
      "outputs": [
        {
          "name": "",
          "type": "uint256"
        }
      ],
      "payable": false,
      "stateMutability": "nonpayable",
      "type": "function"
    },
    {
      "constant": false,
      "inputs": [
        {
          "name": "",
          "type": "uint256"
        },
        {
          "name": "",
          "type": "uint256"
        },
        {
          "name": "",
          "type": "uint256"
        }
      ],
      "name": "increaseNoticePeriod",
      "outputs": [
        {
          "name": "",
          "type": "uint256"
        }
      ],
      "payable": false,
      "stateMutability": "nonpayable",
      "type": "function"
    },
    {
      "constant": true,
      "inputs": [
        {
          "name": "",
          "type": "address"
        }
      ],
      "name": "getRewardsLastRedeemed",
      "outputs": [
        {
          "name": "",
          "type": "uint96"
        }
      ],
      "payable": false,
      "stateMutability": "view",
      "type": "function"
    },
    {
      "constant": true,
      "inputs": [
        {
          "name": "",
          "type": "address"
        }
      ],
      "name": "getNoticePeriods",
      "outputs": [
        {
          "name": "",
          "type": "uint256[]"
        }
      ],
      "payable": false,
      "stateMutability": "view",
      "type": "function"
    },
    {
      "constant": true,
      "inputs": [
        {
          "name": "",
          "type": "address"
        }
      ],
      "name": "getAvailabilityTimes",
      "outputs": [
        {
          "name": "",
          "type": "uint256[]"
        }
      ],
      "payable": false,
      "stateMutability": "view",
      "type": "function"
    },
    {
      "constant": false,
      "inputs": [
        {
          "name": "",
          "type": "uint8"
        },
        {
          "name": "",
          "type": "address"
        },
        {
          "name": "",
          "type": "uint8"
        },
        {
          "name": "",
          "type": "bytes32"
        },
        {
          "name": "",
          "type": "bytes32"
        }
      ],
      "name": "delegateRole",
      "outputs": [],
      "payable": false,
      "stateMutability": "nonpayable",
      "type": "function"
    },
    {
      "constant": true,
      "inputs": [
        {
          "name": "account",
          "type": "address"
        }
      ],
      "name": "isVotingFrozen",
      "outputs": [
        {
          "name": "",
          "type": "bool"
        }
      ],
      "payable": false,
      "stateMutability": "view",
      "type": "function"
    },
    {
      "constant": false,
      "inputs": [
        {
          "name": "account",
          "type": "address"
        },
        {
          "name": "weight",
          "type": "uint256"
        }
      ],
      "name": "setWeight",
      "outputs": [],
      "payable": false,
      "stateMutability": "nonpayable",
      "type": "function"
    },
    {
      "constant": false,
      "inputs": [
        {
          "name": "account",
          "type": "address"
        },
        {
          "name": "noticePeriod",
          "type": "uint256"
        },
        {
          "name": "value",
          "type": "uint256"
        }
      ],
      "name": "setBondedDeposit",
      "outputs": [],
      "payable": false,
      "stateMutability": "nonpayable",
      "type": "function"
    },
    {
      "constant": false,
      "inputs": [
        {
          "name": "account",
          "type": "address"
        }
      ],
      "name": "setVotingFrozen",
      "outputs": [],
      "payable": false,
      "stateMutability": "nonpayable",
      "type": "function"
    },
    {
      "constant": false,
      "inputs": [
        {
          "name": "account",
          "type": "address"
        },
        {
          "name": "delegate",
          "type": "address"
        }
      ],
      "name": "delegateVoting",
      "outputs": [],
      "payable": false,
      "stateMutability": "nonpayable",
      "type": "function"
    },
    {
      "constant": false,
      "inputs": [
        {
          "name": "account",
          "type": "address"
        },
        {
          "name": "delegate",
          "type": "address"
        }
      ],
      "name": "delegateValidating",
      "outputs": [],
      "payable": false,
      "stateMutability": "nonpayable",
      "type": "function"
    },
    {
      "constant": true,
      "inputs": [
        {
          "name": "account",
          "type": "address"
        }
      ],
      "name": "getAccountWeight",
      "outputs": [
        {
          "name": "",
          "type": "uint256"
        }
      ],
      "payable": false,
      "stateMutability": "view",
      "type": "function"
    },
    {
      "constant": true,
      "inputs": [
        {
          "name": "delegate",
          "type": "address"
        },
        {
          "name": "",
          "type": "uint8"
        }
      ],
      "name": "getAccountFromDelegateAndRole",
      "outputs": [
        {
          "name": "",
          "type": "address"
        }
      ],
      "payable": false,
      "stateMutability": "view",
      "type": "function"
    },
    {
      "constant": true,
      "inputs": [
        {
          "name": "account",
          "type": "address"
        },
        {
          "name": "role",
          "type": "uint8"
        }
      ],
      "name": "getDelegateFromAccountAndRole",
      "outputs": [
        {
          "name": "",
          "type": "address"
        }
      ],
      "payable": false,
      "stateMutability": "view",
      "type": "function"
    },
    {
      "constant": true,
      "inputs": [
        {
          "name": "account",
          "type": "address"
        },
        {
          "name": "noticePeriod",
          "type": "uint256"
        }
      ],
      "name": "getBondedDeposit",
      "outputs": [
        {
          "name": "",
          "type": "uint256"
        },
        {
          "name": "",
          "type": "uint256"
        }
      ],
      "payable": false,
      "stateMutability": "view",
      "type": "function"
    }
  ],
  "bytecode": "0x608060405234801561001057600080fd5b50611728806100206000396000f3fe6080604052600436106101e35760003560e01c80638724c35011610102578063cc83088511610095578063f0fc4ec111610064578063f0fc4ec114610cf8578063f1c4ee8a14610d23578063f32fdbff14610dc9578063fa52c7d814610e67576101e3565b8063cc83088514610b2d578063cd6dc68714610b96578063d051665014610bf1578063eea148db14610c5a576101e3565b8063a7cac846116100d1578063a7cac84614610990578063b6b55f25146109f5578063b7598a1014610a37578063bffe348614610a9c576101e3565b80638724c350146107bc57806397eb80161461082b578063a258cff71461089c578063a3ec138d146108ff576101e3565b80633ea01b341161017a578063657a8bba11610149578063657a8bba1461066b5780636f434fb6146106c45780636f4b1e8e1461076a5780638213639a14610781576101e3565b80633ea01b34146105355780634391bf451461059a5780634ff08bac146106195780635b9b45d714610654576101e3565b8063222fc91d116101b6578063222fc91d146103bb57806323fd11741461040c5780632e1a7d4d1461046557806333b159ac146104b4576101e3565b806305ba0cf1146101e857806307e702cb146102435780630fa78bf4146102d457806313e5631314610345575b600080fd5b3480156101f457600080fd5b506102416004803603604081101561020b57600080fd5b81019080803573ffffffffffffffffffffffffffffffffffffffff16906020019092919080359060200190929190505050610ef8565b005b34801561024f57600080fd5b506102926004803603602081101561026657600080fd5b81019080803573ffffffffffffffffffffffffffffffffffffffff169060200190929190505050610f40565b604051808273ffffffffffffffffffffffffffffffffffffffff1673ffffffffffffffffffffffffffffffffffffffff16815260200191505060405180910390f35b3480156102e057600080fd5b50610343600480360360408110156102f757600080fd5b81019080803573ffffffffffffffffffffffffffffffffffffffff169060200190929190803573ffffffffffffffffffffffffffffffffffffffff169060200190929190505050610f73565b005b34801561035157600080fd5b5061039e6004803603604081101561036857600080fd5b81019080803573ffffffffffffffffffffffffffffffffffffffff16906020019092919080359060200190929190505050611073565b604051808381526020018281526020019250505060405180910390f35b3480156103c757600080fd5b5061040a600480360360208110156103de57600080fd5b81019080803573ffffffffffffffffffffffffffffffffffffffff1690602001909291905050506110d6565b005b34801561041857600080fd5b5061044f6004803603604081101561042f57600080fd5b810190808035906020019092919080359060200190929190505050611131565b6040518082815260200191505060405180910390f35b34801561047157600080fd5b5061049e6004803603602081101561048857600080fd5b8101908080359060200190929190505050611139565b6040518082815260200191505060405180910390f35b3480156104c057600080fd5b50610503600480360360208110156104d757600080fd5b81019080803573ffffffffffffffffffffffffffffffffffffffff169060200190929190505050611140565b60405180826bffffffffffffffffffffffff166bffffffffffffffffffffffff16815260200191505060405180910390f35b34801561054157600080fd5b506105846004803603602081101561055857600080fd5b81019080803573ffffffffffffffffffffffffffffffffffffffff169060200190929190505050611147565b6040518082815260200191505060405180910390f35b3480156105a657600080fd5b50610617600480360360a08110156105bd57600080fd5b81019080803560ff169060200190929190803573ffffffffffffffffffffffffffffffffffffffff169060200190929190803560ff1690602001909291908035906020019092919080359060200190929190505050611190565b005b34801561062557600080fd5b506106526004803603602081101561063c57600080fd5b8101908080359060200190929190505050611197565b005b34801561066057600080fd5b5061066961119a565b005b34801561067757600080fd5b506106ae6004803603604081101561068e57600080fd5b81019080803590602001909291908035906020019092919050505061119c565b6040518082815260200191505060405180910390f35b3480156106d057600080fd5b50610713600480360360208110156106e757600080fd5b81019080803573ffffffffffffffffffffffffffffffffffffffff1690602001909291905050506111a4565b6040518080602001828103825283818151815260200191508051906020019060200280838360005b8381101561075657808201518184015260208101905061073b565b505050509050019250505060405180910390f35b34801561077657600080fd5b5061077f6111ab565b005b34801561078d57600080fd5b506107ba600480360360208110156107a457600080fd5b81019080803590602001909291905050506111ad565b005b3480156107c857600080fd5b50610815600480360360408110156107df57600080fd5b81019080803573ffffffffffffffffffffffffffffffffffffffff169060200190929190803590602001909291905050506111b0565b6040518082815260200191505060405180910390f35b34801561083757600080fd5b5061089a6004803603604081101561084e57600080fd5b81019080803573ffffffffffffffffffffffffffffffffffffffff169060200190929190803573ffffffffffffffffffffffffffffffffffffffff1690602001909291905050506111d5565b005b3480156108a857600080fd5b506108e9600480360360608110156108bf57600080fd5b810190808035906020019092919080359060200190929190803590602001909291905050506112d5565b6040518082815260200191505060405180910390f35b34801561090b57600080fd5b5061094e6004803603602081101561092257600080fd5b81019080803573ffffffffffffffffffffffffffffffffffffffff1690602001909291905050506112de565b604051808273ffffffffffffffffffffffffffffffffffffffff1673ffffffffffffffffffffffffffffffffffffffff16815260200191505060405180910390f35b34801561099c57600080fd5b506109df600480360360208110156109b357600080fd5b81019080803573ffffffffffffffffffffffffffffffffffffffff169060200190929190505050611311565b6040518082815260200191505060405180910390f35b610a2160048036036020811015610a0b57600080fd5b8101908080359060200190929190505050611329565b6040518082815260200191505060405180910390f35b348015610a4357600080fd5b50610a9a60048036036060811015610a5a57600080fd5b81019080803573ffffffffffffffffffffffffffffffffffffffff1690602001909291908035906020019092919080359060200190929190505050611330565b005b348015610aa857600080fd5b50610aeb60048036036020811015610abf57600080fd5b81019080803573ffffffffffffffffffffffffffffffffffffffff169060200190929190505050611389565b604051808273ffffffffffffffffffffffffffffffffffffffff1673ffffffffffffffffffffffffffffffffffffffff16815260200191505060405180910390f35b348015610b3957600080fd5b50610b7c60048036036020811015610b5057600080fd5b81019080803573ffffffffffffffffffffffffffffffffffffffff1690602001909291905050506113bc565b604051808215151515815260200191505060405180910390f35b348015610ba257600080fd5b50610bef60048036036040811015610bb957600080fd5b81019080803573ffffffffffffffffffffffffffffffffffffffff16906020019092919080359060200190929190505050611412565b005b348015610bfd57600080fd5b50610c4060048036036020811015610c1457600080fd5b81019080803573ffffffffffffffffffffffffffffffffffffffff169060200190929190505050611416565b604051808215151515815260200191505060405180910390f35b348015610c6657600080fd5b50610cb660048036036040811015610c7d57600080fd5b81019080803573ffffffffffffffffffffffffffffffffffffffff169060200190929190803560ff169060200190929190505050611436565b604051808273ffffffffffffffffffffffffffffffffffffffff1673ffffffffffffffffffffffffffffffffffffffff16815260200191505060405180910390f35b348015610d0457600080fd5b50610d0d611610565b6040518082815260200191505060405180910390f35b348015610d2f57600080fd5b50610d7260048036036020811015610d4657600080fd5b81019080803573ffffffffffffffffffffffffffffffffffffffff169060200190929190505050611615565b6040518080602001828103825283818151815260200191508051906020019060200280838360005b83811015610db5578082015181840152602081019050610d9a565b505050509050019250505060405180910390f35b348015610dd557600080fd5b50610e2560048036036040811015610dec57600080fd5b81019080803573ffffffffffffffffffffffffffffffffffffffff169060200190929190803560ff16906020019092919050505061161c565b604051808273ffffffffffffffffffffffffffffffffffffffff1673ffffffffffffffffffffffffffffffffffffffff16815260200191505060405180910390f35b348015610e7357600080fd5b50610eb660048036036020811015610e8a57600080fd5b81019080803573ffffffffffffffffffffffffffffffffffffffff1690602001909291905050506116c9565b604051808273ffffffffffffffffffffffffffffffffffffffff1673ffffffffffffffffffffffffffffffffffffffff16815260200191505060405180910390f35b80600160008473ffffffffffffffffffffffffffffffffffffffff1673ffffffffffffffffffffffffffffffffffffffff168152602001908152602001600020819055505050565b60066020528060005260406000206000915054906101000a900473ffffffffffffffffffffffffffffffffffffffff1681565b81600360008373ffffffffffffffffffffffffffffffffffffffff1673ffffffffffffffffffffffffffffffffffffffff16815260200190815260200160002060006101000a81548173ffffffffffffffffffffffffffffffffffffffff021916908373ffffffffffffffffffffffffffffffffffffffff16021790555080600460008473ffffffffffffffffffffffffffffffffffffffff1673ffffffffffffffffffffffffffffffffffffffff16815260200190815260200160002060006101000a81548173ffffffffffffffffffffffffffffffffffffffff021916908373ffffffffffffffffffffffffffffffffffffffff1602179055505050565b6000806000808573ffffffffffffffffffffffffffffffffffffffff1673ffffffffffffffffffffffffffffffffffffffff1681526020019081526020016000206000848152602001908152602001600020546000809050915091509250929050565b6001600260008373ffffffffffffffffffffffffffffffffffffffff1673ffffffffffffffffffffffffffffffffffffffff16815260200190815260200160002060006101000a81548160ff02191690831515021790555050565b600092915050565b6000919050565b6000919050565b6000600160008373ffffffffffffffffffffffffffffffffffffffff1673ffffffffffffffffffffffffffffffffffffffff168152602001908152602001600020549050919050565b5050505050565b50565b565b600092915050565b6060919050565b565b50565b6000602052816000526040600020602052806000526040600020600091509150505481565b81600360008373ffffffffffffffffffffffffffffffffffffffff1673ffffffffffffffffffffffffffffffffffffffff16815260200190815260200160002060006101000a81548173ffffffffffffffffffffffffffffffffffffffff021916908373ffffffffffffffffffffffffffffffffffffffff16021790555080600560008473ffffffffffffffffffffffffffffffffffffffff1673ffffffffffffffffffffffffffffffffffffffff16815260200190815260200160002060006101000a81548173ffffffffffffffffffffffffffffffffffffffff021916908373ffffffffffffffffffffffffffffffffffffffff1602179055505050565b60009392505050565b60046020528060005260406000206000915054906101000a900473ffffffffffffffffffffffffffffffffffffffff1681565b60016020528060005260406000206000915090505481565b6000919050565b806000808573ffffffffffffffffffffffffffffffffffffffff1673ffffffffffffffffffffffffffffffffffffffff168152602001908152602001600020600084815260200190815260200160002081905550505050565b60036020528060005260406000206000915054906101000a900473ffffffffffffffffffffffffffffffffffffffff1681565b6000600260008373ffffffffffffffffffffffffffffffffffffffff1673ffffffffffffffffffffffffffffffffffffffff16815260200190815260200160002060009054906101000a900460ff169050919050565b5050565b60026020528060005260406000206000915054906101000a900460ff1681565b6000806000600281111561144657fe5b83600281111561145257fe5b14156114bf57600560008573ffffffffffffffffffffffffffffffffffffffff1673ffffffffffffffffffffffffffffffffffffffff16815260200190815260200160002060009054906101000a900473ffffffffffffffffffffffffffffffffffffffff1690506115c8565b600160028111156114cc57fe5b8360028111156114d857fe5b141561154557600460008573ffffffffffffffffffffffffffffffffffffffff1673ffffffffffffffffffffffffffffffffffffffff16815260200190815260200160002060009054906101000a900473ffffffffffffffffffffffffffffffffffffffff1690506115c7565b60028081111561155157fe5b83600281111561155d57fe5b14156115c657600660008573ffffffffffffffffffffffffffffffffffffffff1673ffffffffffffffffffffffffffffffffffffffff16815260200190815260200160002060009054906101000a900473ffffffffffffffffffffffffffffffffffffffff1690505b5b5b600073ffffffffffffffffffffffffffffffffffffffff168173ffffffffffffffffffffffffffffffffffffffff1614611605578091505061160a565b839150505b92915050565b600090565b6060919050565b600080600360008573ffffffffffffffffffffffffffffffffffffffff1673ffffffffffffffffffffffffffffffffffffffff16815260200190815260200160002060009054906101000a900473ffffffffffffffffffffffffffffffffffffffff169050600073ffffffffffffffffffffffffffffffffffffffff168173ffffffffffffffffffffffffffffffffffffffff16146116be57809150506116c3565b839150505b92915050565b60056020528060005260406000206000915054906101000a900473ffffffffffffffffffffffffffffffffffffffff168156fea165627a7a72305820be18df1905c2c7b36e6807c1bf9964ea8381530aed7aa1fe6dfc691f1b189e740029",
  "source": "pragma solidity ^0.5.8;\n\nimport \"../interfaces/IBondedDeposits.sol\";\n\n\n /**\n * @title A mock BondedDeposits for testing.\n */\ncontract MockBondedDeposits is IBondedDeposits {\n  mapping(address => mapping(uint256 => uint256)) public bonded;\n  mapping(address => uint256) public weights;\n  mapping(address => bool) public frozen;\n  // Maps a delegating address to an account.\n  mapping(address => address) public delegations;\n  // Maps an account address to their voting delegate.\n  mapping(address => address) public voters;\n  // Maps an account address to their validating delegate.\n  mapping(address => address) public validators;\n  // Maps an account address to their rewards delegate.\n  mapping(address => address) public rewarders;\n\n  function initialize(address, uint256) external {}\n  function setCumulativeRewardWeight(uint256) external {}\n  function setMaxNoticePeriod(uint256) external {}\n  function redeemRewards() external returns (uint256) {}\n  function freezeVoting() external {}\n  function unfreezeVoting() external {}\n  function deposit(uint256) external payable returns (uint256) {}\n  function notify(uint256, uint256) external returns (uint256) {}\n  function rebond(uint256, uint256) external returns (uint256) {}\n  function withdraw(uint256) external returns (uint256) {}\n  function increaseNoticePeriod(uint256, uint256, uint256) external returns (uint256) {}\n  function getRewardsLastRedeemed(address) external view returns (uint96) {}\n  function getNoticePeriods(address) external view returns (uint256[] memory) {}\n  function getAvailabilityTimes(address) external view returns (uint256[] memory) {}\n  function delegateRole(DelegateRole, address, uint8, bytes32, bytes32) external {}\n\n  function isVotingFrozen(address account) external view returns (bool) {\n    return frozen[account];\n  }\n\n  function setWeight(address account, uint256 weight) external {\n    weights[account] = weight;\n  }\n\n  function setBondedDeposit(address account, uint256 noticePeriod, uint256 value) external {\n    bonded[account][noticePeriod] = value;\n  }\n\n  function setVotingFrozen(address account) external {\n    frozen[account] = true;\n  }\n\n  function delegateVoting(address account, address delegate) external {\n    delegations[delegate] = account;\n    voters[account] = delegate;\n  }\n\n  function delegateValidating(address account, address delegate) external {\n    delegations[delegate] = account;\n    validators[account] = delegate;\n  }\n\n  function getAccountWeight(address account) external view returns (uint256) {\n    return weights[account];\n  }\n\n  function getAccountFromDelegateAndRole(address delegate, DelegateRole)\n    external view returns (address)\n  {\n    address a = delegations[delegate];\n    if (a != address(0)) {\n      return a;\n    } else {\n      return delegate;\n    }\n  }\n\n  function getDelegateFromAccountAndRole(address account, DelegateRole role)\n    external view returns (address)\n  {\n    address a;\n    if (role == DelegateRole.Validating) {\n      a = validators[account];\n    } else if (role == DelegateRole.Voting) {\n      a = voters[account];\n    } else if (role == DelegateRole.Rewards) {\n      a = rewarders[account];\n    }\n    if (a != address(0)) {\n      return a;\n    } else {\n      return account;\n    }\n  }\n\n  function getBondedDeposit(\n    address account,\n    uint256 noticePeriod\n  )\n    external\n    view\n    returns (uint256, uint256)\n  {\n    // Always return 0 for the index.\n    return (bonded[account][noticePeriod], 0);\n  }\n}\n",
  "sourcePath": "/Users/tim/Celo/celo-monorepo/packages/protocol/contracts/governance/test/MockBondedDeposits.sol",
  "compiler": {
    "name": "solc",
    "version": "0.5.8+commit.23d335f2.Emscripten.clang"
  },
  "schemaVersion": "3.0.10",
  "updatedAt": "2019-08-15T18:14:37.323Z",
  "devdoc": {
    "methods": {},
    "title": "A mock BondedDeposits for testing."
  },
  "userdoc": {
    "methods": {}
  }
}