{
  "contractName": "MsgSenderCheck",
  "abi": [
    {
      "constant": true,
      "inputs": [
        {
          "name": "addr",
          "type": "address"
        }
      ],
      "name": "checkMsgSender",
      "outputs": [],
      "payable": false,
      "stateMutability": "view",
      "type": "function"
    }
  ],
  "bytecode": "0x608060405234801561001057600080fd5b50610144806100206000396000f3fe608060405234801561001057600080fd5b506004361061002b5760003560e01c8063979aaf9914610030575b600080fd5b6100726004803603602081101561004657600080fd5b81019080803573ffffffffffffffffffffffffffffffffffffffff169060200190929190505050610074565b005b3373ffffffffffffffffffffffffffffffffffffffff168173ffffffffffffffffffffffffffffffffffffffff1614610115576040517f08c379a000000000000000000000000000000000000000000000000000000000815260040180806020018281038252601a8152602001807f6164647265737320776173206e6f74206d73672e73656e64657200000000000081525060200191505060405180910390fd5b5056fea165627a7a72305820710b7f9a488b82555b67027a037838e51c1b15ce56d5f2674a27b820a36044050029",
  "source": "pragma solidity ^0.5.3;\n\ncontract MsgSenderCheck {\n  function checkMsgSender(address addr) external view {\n    require(addr == msg.sender, \"address was not msg.sender\");\n  }\n}\n",
  "sourcePath": "/Users/cmcewen/celo/celo-monorepo/packages/protocol/contracts/common/test/MsgSenderCheck.sol",
  "compiler": {
    "name": "solc",
    "version": "0.5.8+commit.23d335f2.Emscripten.clang"
  },
  "schemaVersion": "3.0.10",
  "updatedAt": "2020-04-09T23:11:37.042Z",
  "devdoc": {
    "methods": {}
  },
  "userdoc": {
    "methods": {}
  }
}