{
  "contractName": "MultiSigProxy",
  "abi": [
    {
      "constant": false,
      "inputs": [
        {
          "name": "implementation",
          "type": "address"
        },
        {
          "name": "callbackData",
          "type": "bytes"
        }
      ],
      "name": "_setAndInitializeImplementation",
      "outputs": [],
      "payable": true,
      "stateMutability": "payable",
      "type": "function"
    },
    {
      "constant": true,
      "inputs": [],
      "name": "_getImplementation",
      "outputs": [
        {
          "name": "implementation",
          "type": "address"
        }
      ],
      "payable": false,
      "stateMutability": "view",
      "type": "function"
    },
    {
      "constant": false,
      "inputs": [
        {
          "name": "implementation",
          "type": "address"
        }
      ],
      "name": "_setImplementation",
      "outputs": [],
      "payable": false,
      "stateMutability": "nonpayable",
      "type": "function"
    },
    {
      "constant": false,
      "inputs": [
        {
          "name": "newOwner",
          "type": "address"
        }
      ],
      "name": "_transferOwnership",
      "outputs": [],
      "payable": false,
      "stateMutability": "nonpayable",
      "type": "function"
    },
    {
      "constant": true,
      "inputs": [],
      "name": "_getOwner",
      "outputs": [
        {
          "name": "owner",
          "type": "address"
        }
      ],
      "payable": false,
      "stateMutability": "view",
      "type": "function"
    },
    {
      "payable": true,
      "stateMutability": "payable",
      "type": "fallback"
    },
    {
      "anonymous": false,
      "inputs": [
        {
          "indexed": true,
          "name": "owner",
          "type": "address"
        }
      ],
      "name": "OwnerSet",
      "type": "event"
    },
    {
      "anonymous": false,
      "inputs": [
        {
          "indexed": true,
          "name": "implementation",
          "type": "address"
        }
      ],
      "name": "ImplementationSet",
      "type": "event"
    }
  ],
  "bytecode": "0x60806040526100133361001860201b60201c565b61009c565b600060405180807f6f72672e63656c6f2e6f776e6572000000000000000000000000000000000000815250600e019050604051809103902090508181558173ffffffffffffffffffffffffffffffffffffffff167f50146d0e3c60aa1d17a70635b05494f864e86144a2201275021014fbf08bafe260405160405180910390a25050565b6108ac806100ab6000396000f3fe60806040526004361061004a5760003560e01c806303386ba31461017957806342404e0714610212578063bb913f4114610269578063d29d44ee146102ba578063f7e6af801461030b575b600060405180807f6f72672e63656c6f2e696d706c656d656e746174696f6e000000000000000000815250601701905060405180910390209050600081549050600073ffffffffffffffffffffffffffffffffffffffff168173ffffffffffffffffffffffffffffffffffffffff1614156100c6575050610177565b6100cf81610362565b610141576040517f08c379a00000000000000000000000000000000000000000000000000000000081526004018080602001828103825260188152602001807f496e76616c696420636f6e74726163742061646472657373000000000000000081525060200191505060405180910390fd5b60405136810160405236600082376000803683855af43d604051818101604052816000823e8260008114610173578282f35b8282fd5b005b6102106004803603604081101561018f57600080fd5b81019080803573ffffffffffffffffffffffffffffffffffffffff169060200190929190803590602001906401000000008111156101cc57600080fd5b8201836020820111156101de57600080fd5b8035906020019184600183028401116401000000008311171561020057600080fd5b9091929391929390505050610375565b005b34801561021e57600080fd5b5061022761051b565b604051808273ffffffffffffffffffffffffffffffffffffffff1673ffffffffffffffffffffffffffffffffffffffff16815260200191505060405180910390f35b34801561027557600080fd5b506102b86004803603602081101561028c57600080fd5b81019080803573ffffffffffffffffffffffffffffffffffffffff16906020019092919050505061055e565b005b3480156102c657600080fd5b50610309600480360360208110156102dd57600080fd5b81019080803573ffffffffffffffffffffffffffffffffffffffff169060200190929190505050610705565b005b34801561031757600080fd5b506103206107b9565b604051808273ffffffffffffffffffffffffffffffffffffffff1673ffffffffffffffffffffffffffffffffffffffff16815260200191505060405180910390f35b600080823b905060008111915050919050565b61037d6107b9565b73ffffffffffffffffffffffffffffffffffffffff163373ffffffffffffffffffffffffffffffffffffffff161461041d576040517f08c379a00000000000000000000000000000000000000000000000000000000081526004018080602001828103825260148152602001807f73656e64657220776173206e6f74206f776e657200000000000000000000000081525060200191505060405180910390fd5b6104268361055e565b600060608473ffffffffffffffffffffffffffffffffffffffff168484604051808383808284378083019250505092505050600060405180830381855af49150503d8060008114610493576040519150601f19603f3d011682016040523d82523d6000602084013e610498565b606091505b50809250819350505081610514576040517f08c379a000000000000000000000000000000000000000000000000000000000815260040180806020018281038252601e8152602001807f696e697469616c697a6174696f6e2063616c6c6261636b206661696c6564000081525060200191505060405180910390fd5b5050505050565b60008060405180807f6f72672e63656c6f2e696d706c656d656e746174696f6e000000000000000000815250601701905060405180910390209050805491505090565b6105666107b9565b73ffffffffffffffffffffffffffffffffffffffff163373ffffffffffffffffffffffffffffffffffffffff1614610606576040517f08c379a00000000000000000000000000000000000000000000000000000000081526004018080602001828103825260148152602001807f73656e64657220776173206e6f74206f776e657200000000000000000000000081525060200191505060405180910390fd5b600060405180807f6f72672e63656c6f2e696d706c656d656e746174696f6e00000000000000000081525060170190506040518091039020905061064982610362565b6106bb576040517f08c379a00000000000000000000000000000000000000000000000000000000081526004018080602001828103825260188152602001807f496e76616c696420636f6e74726163742061646472657373000000000000000081525060200191505060405180910390fd5b8181558173ffffffffffffffffffffffffffffffffffffffff167fab64f92ab780ecbf4f3866f57cee465ff36c89450dcce20237ca7a8d81fb7d1360405160405180910390a25050565b61070d6107b9565b73ffffffffffffffffffffffffffffffffffffffff163373ffffffffffffffffffffffffffffffffffffffff16146107ad576040517f08c379a00000000000000000000000000000000000000000000000000000000081526004018080602001828103825260148152602001807f73656e64657220776173206e6f74206f776e657200000000000000000000000081525060200191505060405180910390fd5b6107b6816107fc565b50565b60008060405180807f6f72672e63656c6f2e6f776e6572000000000000000000000000000000000000815250600e01905060405180910390209050805491505090565b600060405180807f6f72672e63656c6f2e6f776e6572000000000000000000000000000000000000815250600e019050604051809103902090508181558173ffffffffffffffffffffffffffffffffffffffff167f50146d0e3c60aa1d17a70635b05494f864e86144a2201275021014fbf08bafe260405160405180910390a2505056fea165627a7a72305820cba649d6467a955bd6b460fd1d4fd2bda72cb85b9943403e0f9237e8b00792730029",
  "source": "pragma solidity ^0.5.3;\n\nimport \"../Proxy.sol\";\n\n/* solhint-disable no-empty-blocks */\ncontract MultiSigProxy is Proxy {}\n",
  "sourcePath": "/Users/cmcewen/celo/celo-monorepo/packages/protocol/contracts/common/proxies/MultiSigProxy.sol",
  "compiler": {
    "name": "solc",
    "version": "0.5.8+commit.23d335f2.Emscripten.clang"
  },
  "schemaVersion": "3.0.10",
  "updatedAt": "2020-01-28T00:23:22.055Z",
  "devdoc": {
    "methods": {
      "_setAndInitializeImplementation(address,bytes)": {
        "details": "Throws if the initialization callback fails.If the target contract does not need initialization, use setImplementation instead.",
        "params": {
          "callbackData": "The abi-encoded function call to perform in the implementation contract.",
          "implementation": "Address of the new target contract."
        }
      },
      "_setImplementation(address)": {
        "details": "If the target contract needs to be initialized, call setAndInitializeImplementation instead.",
        "params": {
          "implementation": "Address of the new target contract."
        }
      },
      "_transferOwnership(address)": {
        "params": {
          "newOwner": "Address of the new owner account."
        }
      }
    }
  },
  "userdoc": {
    "methods": {
      "_getImplementation()": {
        "notice": "Returns the implementation address."
      },
      "_getOwner()": {
        "notice": "Returns the Proxy owner's address."
      },
      "_setAndInitializeImplementation(address,bytes)": {
        "notice": "Sets the address of the implementation contract and calls into it."
      },
      "_setImplementation(address)": {
        "notice": "Sets the address of the implementation contract."
      },
      "_transferOwnership(address)": {
        "notice": "Transfers ownership of Proxy to a new owner."
      }
    }
  }
}