{
  "contractName": "Reserve",
  "abi": [
    {
      "constant": true,
      "inputs": [],
      "name": "frozenReserveGoldStartBalance",
      "outputs": [
        {
          "name": "",
          "type": "uint256"
        }
      ],
      "payable": false,
      "stateMutability": "view",
      "type": "function"
    },
    {
      "constant": true,
      "inputs": [
        {
          "name": "",
          "type": "uint256"
        }
      ],
      "name": "assetAllocationSymbols",
      "outputs": [
        {
          "name": "",
          "type": "bytes32"
        }
      ],
      "payable": false,
      "stateMutability": "view",
      "type": "function"
    },
    {
      "constant": true,
      "inputs": [],
      "name": "initialized",
      "outputs": [
        {
          "name": "",
          "type": "bool"
        }
      ],
      "payable": false,
      "stateMutability": "view",
      "type": "function"
    },
    {
      "constant": true,
      "inputs": [
        {
          "name": "",
          "type": "address"
        }
      ],
      "name": "isToken",
      "outputs": [
        {
          "name": "",
          "type": "bool"
        }
      ],
      "payable": false,
      "stateMutability": "view",
      "type": "function"
    },
    {
      "constant": true,
      "inputs": [],
      "name": "tobinTaxCache",
      "outputs": [
        {
          "name": "numerator",
          "type": "uint128"
        },
        {
          "name": "timestamp",
          "type": "uint128"
        }
      ],
      "payable": false,
      "stateMutability": "view",
      "type": "function"
    },
    {
      "constant": true,
      "inputs": [],
      "name": "spendingLimit",
      "outputs": [
        {
          "name": "",
          "type": "uint256"
        }
      ],
      "payable": false,
      "stateMutability": "view",
      "type": "function"
    },
    {
      "constant": true,
      "inputs": [
        {
          "name": "",
          "type": "uint256"
        }
      ],
      "name": "otherReserveAddresses",
      "outputs": [
        {
          "name": "",
          "type": "address"
        }
      ],
      "payable": false,
      "stateMutability": "view",
      "type": "function"
    },
    {
      "constant": true,
      "inputs": [],
      "name": "TOBIN_TAX_NUMERATOR",
      "outputs": [
        {
          "name": "",
          "type": "uint256"
        }
      ],
      "payable": false,
      "stateMutability": "view",
      "type": "function"
    },
    {
      "constant": true,
      "inputs": [],
      "name": "frozenReserveGoldDays",
      "outputs": [
        {
          "name": "",
          "type": "uint256"
        }
      ],
      "payable": false,
      "stateMutability": "view",
      "type": "function"
    },
    {
      "constant": false,
      "inputs": [],
      "name": "renounceOwnership",
      "outputs": [],
      "payable": false,
      "stateMutability": "nonpayable",
      "type": "function"
    },
    {
      "constant": true,
      "inputs": [],
      "name": "registry",
      "outputs": [
        {
          "name": "",
          "type": "address"
        }
      ],
      "payable": false,
      "stateMutability": "view",
      "type": "function"
    },
    {
      "constant": true,
      "inputs": [
        {
          "name": "",
          "type": "address"
        }
      ],
      "name": "isOtherReserveAddress",
      "outputs": [
        {
          "name": "",
          "type": "bool"
        }
      ],
      "payable": false,
      "stateMutability": "view",
      "type": "function"
    },
    {
      "constant": true,
      "inputs": [],
      "name": "frozenReserveGoldStartDay",
      "outputs": [
        {
          "name": "",
          "type": "uint256"
        }
      ],
      "payable": false,
      "stateMutability": "view",
      "type": "function"
    },
    {
      "constant": true,
      "inputs": [],
      "name": "owner",
      "outputs": [
        {
          "name": "",
          "type": "address"
        }
      ],
      "payable": false,
      "stateMutability": "view",
      "type": "function"
    },
    {
      "constant": true,
      "inputs": [],
      "name": "isOwner",
      "outputs": [
        {
          "name": "",
          "type": "bool"
        }
      ],
      "payable": false,
      "stateMutability": "view",
      "type": "function"
    },
    {
      "constant": true,
      "inputs": [
        {
          "name": "",
          "type": "address"
        }
      ],
      "name": "isSpender",
      "outputs": [
        {
          "name": "",
          "type": "bool"
        }
      ],
      "payable": false,
      "stateMutability": "view",
      "type": "function"
    },
    {
      "constant": false,
      "inputs": [
        {
          "name": "registryAddress",
          "type": "address"
        }
      ],
      "name": "setRegistry",
      "outputs": [],
      "payable": false,
      "stateMutability": "nonpayable",
      "type": "function"
    },
    {
      "constant": true,
      "inputs": [],
      "name": "tobinTaxStalenessThreshold",
      "outputs": [
        {
          "name": "",
          "type": "uint256"
        }
      ],
      "payable": false,
      "stateMutability": "view",
      "type": "function"
    },
    {
      "constant": true,
      "inputs": [
        {
          "name": "",
          "type": "bytes32"
        }
      ],
      "name": "assetAllocationWeights",
      "outputs": [
        {
          "name": "",
          "type": "uint256"
        }
      ],
      "payable": false,
      "stateMutability": "view",
      "type": "function"
    },
    {
      "constant": false,
      "inputs": [
        {
          "name": "newOwner",
          "type": "address"
        }
      ],
      "name": "transferOwnership",
      "outputs": [],
      "payable": false,
      "stateMutability": "nonpayable",
      "type": "function"
    },
    {
      "constant": true,
      "inputs": [],
      "name": "lastSpendingDay",
      "outputs": [
        {
          "name": "",
          "type": "uint256"
        }
      ],
      "payable": false,
      "stateMutability": "view",
      "type": "function"
    },
    {
      "payable": true,
      "stateMutability": "payable",
      "type": "fallback"
    },
    {
      "anonymous": false,
      "inputs": [
        {
          "indexed": false,
          "name": "value",
          "type": "uint256"
        }
      ],
      "name": "TobinTaxStalenessThresholdSet",
      "type": "event"
    },
    {
      "anonymous": false,
      "inputs": [
        {
          "indexed": false,
          "name": "ratio",
          "type": "uint256"
        }
      ],
      "name": "DailySpendingRatioSet",
      "type": "event"
    },
    {
      "anonymous": false,
      "inputs": [
        {
          "indexed": true,
          "name": "token",
          "type": "address"
        }
      ],
      "name": "TokenAdded",
      "type": "event"
    },
    {
      "anonymous": false,
      "inputs": [
        {
          "indexed": true,
          "name": "token",
          "type": "address"
        },
        {
          "indexed": false,
          "name": "index",
          "type": "uint256"
        }
      ],
      "name": "TokenRemoved",
      "type": "event"
    },
    {
      "anonymous": false,
      "inputs": [
        {
          "indexed": true,
          "name": "spender",
          "type": "address"
        }
      ],
      "name": "SpenderAdded",
      "type": "event"
    },
    {
      "anonymous": false,
      "inputs": [
        {
          "indexed": true,
          "name": "spender",
          "type": "address"
        }
      ],
      "name": "SpenderRemoved",
      "type": "event"
    },
    {
      "anonymous": false,
      "inputs": [
        {
          "indexed": true,
          "name": "otherReserveAddress",
          "type": "address"
        }
      ],
      "name": "OtherReserveAddressAdded",
      "type": "event"
    },
    {
      "anonymous": false,
      "inputs": [
        {
          "indexed": true,
          "name": "otherReserveAddress",
          "type": "address"
        },
        {
          "indexed": false,
          "name": "index",
          "type": "uint256"
        }
      ],
      "name": "OtherReserveAddressRemoved",
      "type": "event"
    },
    {
      "anonymous": false,
      "inputs": [
        {
          "indexed": false,
          "name": "symbols",
          "type": "bytes32[]"
        },
        {
          "indexed": false,
          "name": "weights",
          "type": "uint256[]"
        }
      ],
      "name": "AssetAllocationSet",
      "type": "event"
    },
    {
      "anonymous": false,
      "inputs": [
        {
          "indexed": true,
          "name": "spender",
          "type": "address"
        },
        {
          "indexed": true,
          "name": "to",
          "type": "address"
        },
        {
          "indexed": false,
          "name": "value",
          "type": "uint256"
        }
      ],
      "name": "ReserveGoldTransferred",
      "type": "event"
    },
    {
      "anonymous": false,
      "inputs": [
        {
          "indexed": true,
          "name": "registryAddress",
          "type": "address"
        }
      ],
      "name": "RegistrySet",
      "type": "event"
    },
    {
      "anonymous": false,
      "inputs": [
        {
          "indexed": true,
          "name": "previousOwner",
          "type": "address"
        },
        {
          "indexed": true,
          "name": "newOwner",
          "type": "address"
        }
      ],
      "name": "OwnershipTransferred",
      "type": "event"
    },
    {
      "constant": false,
      "inputs": [
        {
          "name": "registryAddress",
          "type": "address"
        },
        {
          "name": "_tobinTaxStalenessThreshold",
          "type": "uint256"
        },
        {
          "name": "_spendingRatio",
          "type": "uint256"
        },
        {
          "name": "_frozenGold",
          "type": "uint256"
        },
        {
          "name": "_frozenDays",
          "type": "uint256"
        },
        {
          "name": "_assetAllocationSymbols",
          "type": "bytes32[]"
        },
        {
          "name": "_assetAllocationWeights",
          "type": "uint256[]"
        }
      ],
      "name": "initialize",
      "outputs": [],
      "payable": false,
      "stateMutability": "nonpayable",
      "type": "function"
    },
    {
      "constant": false,
      "inputs": [
        {
          "name": "value",
          "type": "uint256"
        }
      ],
      "name": "setTobinTaxStalenessThreshold",
      "outputs": [],
      "payable": false,
      "stateMutability": "nonpayable",
      "type": "function"
    },
    {
      "constant": false,
      "inputs": [
        {
          "name": "ratio",
          "type": "uint256"
        }
      ],
      "name": "setDailySpendingRatio",
      "outputs": [],
      "payable": false,
      "stateMutability": "nonpayable",
      "type": "function"
    },
    {
      "constant": true,
      "inputs": [],
      "name": "getDailySpendingRatio",
      "outputs": [
        {
          "name": "",
          "type": "uint256"
        }
      ],
      "payable": false,
      "stateMutability": "view",
      "type": "function"
    },
    {
      "constant": false,
      "inputs": [
        {
          "name": "frozenGold",
          "type": "uint256"
        },
        {
          "name": "frozenDays",
          "type": "uint256"
        }
      ],
      "name": "setFrozenGold",
      "outputs": [],
      "payable": false,
      "stateMutability": "nonpayable",
      "type": "function"
    },
    {
      "constant": false,
      "inputs": [
        {
          "name": "symbols",
          "type": "bytes32[]"
        },
        {
          "name": "weights",
          "type": "uint256[]"
        }
      ],
      "name": "setAssetAllocations",
      "outputs": [],
      "payable": false,
      "stateMutability": "nonpayable",
      "type": "function"
    },
    {
      "constant": false,
      "inputs": [
        {
          "name": "token",
          "type": "address"
        }
      ],
      "name": "addToken",
      "outputs": [
        {
          "name": "",
          "type": "bool"
        }
      ],
      "payable": false,
      "stateMutability": "nonpayable",
      "type": "function"
    },
    {
      "constant": false,
      "inputs": [
        {
          "name": "token",
          "type": "address"
        },
        {
          "name": "index",
          "type": "uint256"
        }
      ],
      "name": "removeToken",
      "outputs": [
        {
          "name": "",
          "type": "bool"
        }
      ],
      "payable": false,
      "stateMutability": "nonpayable",
      "type": "function"
    },
    {
      "constant": false,
      "inputs": [
        {
          "name": "reserveAddress",
          "type": "address"
        }
      ],
      "name": "addOtherReserveAddress",
      "outputs": [
        {
          "name": "",
          "type": "bool"
        }
      ],
      "payable": false,
      "stateMutability": "nonpayable",
      "type": "function"
    },
    {
      "constant": false,
      "inputs": [
        {
          "name": "reserveAddress",
          "type": "address"
        },
        {
          "name": "index",
          "type": "uint256"
        }
      ],
      "name": "removeOtherReserveAddress",
      "outputs": [
        {
          "name": "",
          "type": "bool"
        }
      ],
      "payable": false,
      "stateMutability": "nonpayable",
      "type": "function"
    },
    {
      "constant": false,
      "inputs": [
        {
          "name": "spender",
          "type": "address"
        }
      ],
      "name": "addSpender",
      "outputs": [],
      "payable": false,
      "stateMutability": "nonpayable",
      "type": "function"
    },
    {
      "constant": false,
      "inputs": [
        {
          "name": "spender",
          "type": "address"
        }
      ],
      "name": "removeSpender",
      "outputs": [],
      "payable": false,
      "stateMutability": "nonpayable",
      "type": "function"
    },
    {
      "constant": false,
      "inputs": [
        {
          "name": "to",
          "type": "address"
        },
        {
          "name": "value",
          "type": "uint256"
        }
      ],
      "name": "transferGold",
      "outputs": [
        {
          "name": "",
          "type": "bool"
        }
      ],
      "payable": false,
      "stateMutability": "nonpayable",
      "type": "function"
    },
    {
      "constant": false,
      "inputs": [
        {
          "name": "to",
          "type": "address"
        },
        {
          "name": "value",
          "type": "uint256"
        }
      ],
      "name": "transferExchangeGold",
      "outputs": [
        {
          "name": "",
          "type": "bool"
        }
      ],
      "payable": false,
      "stateMutability": "nonpayable",
      "type": "function"
    },
    {
      "constant": false,
      "inputs": [],
      "name": "getOrComputeTobinTax",
      "outputs": [
        {
          "name": "",
          "type": "uint256"
        },
        {
          "name": "",
          "type": "uint256"
        }
      ],
      "payable": false,
      "stateMutability": "nonpayable",
      "type": "function"
    },
    {
      "constant": true,
      "inputs": [],
      "name": "getTokens",
      "outputs": [
        {
          "name": "",
          "type": "address[]"
        }
      ],
      "payable": false,
      "stateMutability": "view",
      "type": "function"
    },
    {
      "constant": true,
      "inputs": [],
      "name": "getOtherReserveAddresses",
      "outputs": [
        {
          "name": "",
          "type": "address[]"
        }
      ],
      "payable": false,
      "stateMutability": "view",
      "type": "function"
    },
    {
      "constant": true,
      "inputs": [],
      "name": "getAssetAllocationSymbols",
      "outputs": [
        {
          "name": "",
          "type": "bytes32[]"
        }
      ],
      "payable": false,
      "stateMutability": "view",
      "type": "function"
    },
    {
      "constant": true,
      "inputs": [],
      "name": "getAssetAllocationWeights",
      "outputs": [
        {
          "name": "",
          "type": "uint256[]"
        }
      ],
      "payable": false,
      "stateMutability": "view",
      "type": "function"
    },
    {
      "constant": true,
      "inputs": [],
      "name": "getUnfrozenBalance",
      "outputs": [
        {
          "name": "",
          "type": "uint256"
        }
      ],
      "payable": false,
      "stateMutability": "view",
      "type": "function"
    },
    {
      "constant": true,
      "inputs": [],
      "name": "getReserveGoldBalance",
      "outputs": [
        {
          "name": "",
          "type": "uint256"
        }
      ],
      "payable": false,
      "stateMutability": "view",
      "type": "function"
    },
    {
      "constant": true,
      "inputs": [],
      "name": "getOtherReserveAddressesGoldBalance",
      "outputs": [
        {
          "name": "",
          "type": "uint256"
        }
      ],
      "payable": false,
      "stateMutability": "view",
      "type": "function"
    },
    {
      "constant": true,
      "inputs": [],
      "name": "getUnfrozenReserveGoldBalance",
      "outputs": [
        {
          "name": "",
          "type": "uint256"
        }
      ],
      "payable": false,
      "stateMutability": "view",
      "type": "function"
    },
    {
      "constant": true,
      "inputs": [],
      "name": "getFrozenReserveGoldBalance",
      "outputs": [
        {
          "name": "",
          "type": "uint256"
        }
      ],
      "payable": false,
      "stateMutability": "view",
      "type": "function"
    },
    {
      "constant": true,
      "inputs": [],
      "name": "getReserveRatio",
      "outputs": [
        {
          "name": "",
          "type": "uint256"
        }
      ],
      "payable": false,
      "stateMutability": "view",
      "type": "function"
    }
  ],
  "bytecode": "0x6080604052600062000016620000c260201b60201c565b9050806000806101000a81548173ffffffffffffffffffffffffffffffffffffffff021916908373ffffffffffffffffffffffffffffffffffffffff1602179055508073ffffffffffffffffffffffffffffffffffffffff16600073ffffffffffffffffffffffffffffffffffffffff167f8be0079c531659141344cd1fd0a4f28419497f9722a3daafe3b4186f6b6457e060405160405180910390a3506001600281905550620000ca565b600033905090565b61509780620000da6000396000f3fe60806040526004361061027d5760003560e01c806381b861a61161014f578063aa6ca808116100c1578063e50a6c1e1161007a578063e50a6c1e14610ff8578063e7e31e7a14611064578063e83b373b146110b5578063ec4f797b146110fa578063f2fde38b14611149578063fa9ed95a1461119a5761027d565b8063aa6ca80814610c51578063b6483c8214610cbd578063ca56d33b14610de0578063d48bfca714610f39578063e30f579d14610fa2578063e33a88e714610fcd5761027d565b80638da5cb5b116101135780638da5cb5b14610a6a5780638f32d59b14610ac15780639a206ece14610af05780639c3e2f0f14610b59578063a1ab55b314610bc5578063a91ee0dc14610c005761027d565b806381b861a61461092c5780638438796a146109575780638b7df8d4146109c35780638ce5877c146109ee5780638d9a5e6f14610a3f5761027d565b80632aa1c16d116101f35780637090db4e116101ac5780637090db4e146107d4578063715018a6146107ff578063765c1fe9146108165780637897a78e146108415780637b1039991461086c5780637b522075146108c35761027d565b80632aa1c16d1461063a57806339d7f76e14610665578063408993651461069057806356b6d0d51461070b5780635c4a31451461073657806368beb621146107a95761027d565b8063158ef93e11610245578063158ef93e1461041a57806317f9a6f71461044957806319f373611461047b5780631c39c7d5146104e4578063220159681461055757806322796e83146105c05761027d565b806301da32bd1461027f57806303a0fea3146102ba57806303d835f31461032d5780630db279be1461035857806313baf1e6146103a7575b005b34801561028b57600080fd5b506102b8600480360360208110156102a257600080fd5b81019080803590602001909291905050506111c5565b005b3480156102c657600080fd5b50610313600480360360408110156102dd57600080fd5b81019080803573ffffffffffffffffffffffffffffffffffffffff16906020019092919080359060200190929190505050611316565b604051808215151515815260200191505060405180910390f35b34801561033957600080fd5b506103426114c0565b6040518082815260200191505060405180910390f35b34801561036457600080fd5b506103916004803603602081101561037b57600080fd5b81019080803590602001909291905050506114c6565b6040518082815260200191505060405180910390f35b3480156103b357600080fd5b50610400600480360360408110156103ca57600080fd5b81019080803573ffffffffffffffffffffffffffffffffffffffff169060200190929190803590602001909291905050506114e7565b604051808215151515815260200191505060405180910390f35b34801561042657600080fd5b5061042f611871565b604051808215151515815260200191505060405180910390f35b34801561045557600080fd5b5061045e611884565b604051808381526020018281526020019250505060405180910390f35b34801561048757600080fd5b506104ca6004803603602081101561049e57600080fd5b81019080803573ffffffffffffffffffffffffffffffffffffffff169060200190929190505050611a3a565b604051808215151515815260200191505060405180910390f35b3480156104f057600080fd5b5061053d6004803603604081101561050757600080fd5b81019080803573ffffffffffffffffffffffffffffffffffffffff16906020019092919080359060200190929190505050611a5a565b604051808215151515815260200191505060405180910390f35b34801561056357600080fd5b506105a66004803603602081101561057a57600080fd5b81019080803573ffffffffffffffffffffffffffffffffffffffff169060200190929190505050611cb5565b604051808215151515815260200191505060405180910390f35b3480156105cc57600080fd5b506105d5611f8b565b60405180836fffffffffffffffffffffffffffffffff166fffffffffffffffffffffffffffffffff168152602001826fffffffffffffffffffffffffffffffff166fffffffffffffffffffffffffffffffff1681526020019250505060405180910390f35b34801561064657600080fd5b5061064f611fd5565b6040518082815260200191505060405180910390f35b34801561067157600080fd5b5061067a612059565b6040518082815260200191505060405180910390f35b34801561069c57600080fd5b506106c9600480360360208110156106b357600080fd5b810190808035906020019092919050505061205f565b604051808273ffffffffffffffffffffffffffffffffffffffff1673ffffffffffffffffffffffffffffffffffffffff16815260200191505060405180910390f35b34801561071757600080fd5b5061072061209b565b6040518082815260200191505060405180910390f35b34801561074257600080fd5b5061078f6004803603604081101561075957600080fd5b81019080803573ffffffffffffffffffffffffffffffffffffffff16906020019092919080359060200190929190505050612467565b604051808215151515815260200191505060405180910390f35b3480156107b557600080fd5b506107be6127ef565b6040518082815260200191505060405180910390f35b3480156107e057600080fd5b506107e96127fd565b6040518082815260200191505060405180910390f35b34801561080b57600080fd5b50610814612803565b005b34801561082257600080fd5b5061082b61293c565b6040518082815260200191505060405180910390f35b34801561084d57600080fd5b506108566129dc565b6040518082815260200191505060405180910390f35b34801561087857600080fd5b50610881612a02565b604051808273ffffffffffffffffffffffffffffffffffffffff1673ffffffffffffffffffffffffffffffffffffffff16815260200191505060405180910390f35b3480156108cf57600080fd5b50610912600480360360208110156108e657600080fd5b81019080803573ffffffffffffffffffffffffffffffffffffffff169060200190929190505050612a28565b604051808215151515815260200191505060405180910390f35b34801561093857600080fd5b50610941612a48565b6040518082815260200191505060405180910390f35b34801561096357600080fd5b5061096c612a4e565b6040518080602001828103825283818151815260200191508051906020019060200280838360005b838110156109af578082015181840152602081019050610994565b505050509050019250505060405180910390f35b3480156109cf57600080fd5b506109d8612aa6565b6040518082815260200191505060405180910390f35b3480156109fa57600080fd5b50610a3d60048036036020811015610a1157600080fd5b81019080803573ffffffffffffffffffffffffffffffffffffffff169060200190929190505050612ace565b005b348015610a4b57600080fd5b50610a54612be6565b6040518082815260200191505060405180910390f35b348015610a7657600080fd5b50610a7f612c1e565b604051808273ffffffffffffffffffffffffffffffffffffffff1673ffffffffffffffffffffffffffffffffffffffff16815260200191505060405180910390f35b348015610acd57600080fd5b50610ad6612c47565b604051808215151515815260200191505060405180910390f35b348015610afc57600080fd5b50610b3f60048036036020811015610b1357600080fd5b81019080803573ffffffffffffffffffffffffffffffffffffffff169060200190929190505050612ca5565b604051808215151515815260200191505060405180910390f35b348015610b6557600080fd5b50610b6e612cc5565b6040518080602001828103825283818151815260200191508051906020019060200280838360005b83811015610bb1578082015181840152602081019050610b96565b505050509050019250505060405180910390f35b348015610bd157600080fd5b50610bfe60048036036020811015610be857600080fd5b8101908080359060200190929190505050612d53565b005b348015610c0c57600080fd5b50610c4f60048036036020811015610c2357600080fd5b81019080803573ffffffffffffffffffffffffffffffffffffffff169060200190929190505050612e84565b005b348015610c5d57600080fd5b50610c66613028565b6040518080602001828103825283818151815260200191508051906020019060200280838360005b83811015610ca9578082015181840152602081019050610c8e565b505050509050019250505060405180910390f35b348015610cc957600080fd5b50610dde600480360360e0811015610ce057600080fd5b81019080803573ffffffffffffffffffffffffffffffffffffffff1690602001909291908035906020019092919080359060200190929190803590602001909291908035906020019092919080359060200190640100000000811115610d4557600080fd5b820183602082011115610d5757600080fd5b80359060200191846020830284011164010000000083111715610d7957600080fd5b909192939192939080359060200190640100000000811115610d9a57600080fd5b820183602082011115610dac57600080fd5b80359060200191846020830284011164010000000083111715610dce57600080fd5b90919293919293905050506130b6565b005b348015610dec57600080fd5b50610f3760048036036040811015610e0357600080fd5b8101908080359060200190640100000000811115610e2057600080fd5b820183602082011115610e3257600080fd5b80359060200191846020830284011164010000000083111715610e5457600080fd5b919080806020026020016040519081016040528093929190818152602001838360200280828437600081840152601f19601f82011690508083019250505050505050919291929080359060200190640100000000811115610eb457600080fd5b820183602082011115610ec657600080fd5b80359060200191846020830284011164010000000083111715610ee857600080fd5b919080806020026020016040519081016040528093929190818152602001838360200280828437600081840152601f19601f820116905080830192505050505050509192919290505050613219565b005b348015610f4557600080fd5b50610f8860048036036020811015610f5c57600080fd5b81019080803573ffffffffffffffffffffffffffffffffffffffff1690602001909291905050506136d1565b604051808215151515815260200191505060405180910390f35b348015610fae57600080fd5b50610fb7613bea565b6040518082815260200191505060405180910390f35b348015610fd957600080fd5b50610fe2613c3c565b6040518082815260200191505060405180910390f35b34801561100457600080fd5b5061100d613c42565b6040518080602001828103825283818151815260200191508051906020019060200280838360005b83811015611050578082015181840152602081019050611035565b505050509050019250505060405180910390f35b34801561107057600080fd5b506110b36004803603602081101561108757600080fd5b81019080803573ffffffffffffffffffffffffffffffffffffffff169060200190929190505050613cf5565b005b3480156110c157600080fd5b506110f8600480360360408110156110d857600080fd5b810190808035906020019092919080359060200190929190505050613e0d565b005b34801561110657600080fd5b506111336004803603602081101561111d57600080fd5b8101908080359060200190929190505050613f39565b6040518082815260200191505060405180910390f35b34801561115557600080fd5b506111986004803603602081101561116c57600080fd5b81019080803573ffffffffffffffffffffffffffffffffffffffff169060200190929190505050613f51565b005b3480156111a657600080fd5b506111af613fd7565b6040518082815260200191505060405180910390f35b6111cd612c47565b61123f576040517f08c379a00000000000000000000000000000000000000000000000000000000081526004018080602001828103825260208152602001807f4f776e61626c653a2063616c6c6572206973206e6f7420746865206f776e657281525060200191505060405180910390fd5b61124881613fdd565b600e60008201518160000155905050611287611262613ffb565b600e60405180602001604052908160008201548152505061402190919063ffffffff16565b6112dc576040517f08c379a0000000000000000000000000000000000000000000000000000000008152600401808060200182810382526026815260200180614fc66026913960400191505060405180910390fd5b7fb08f0607338ad77f5b08ccf831e533cefcc2d373c173e87a8f61144f1d82be1e816040518082815260200191505060405180910390a150565b600060405160200180807f45786368616e67650000000000000000000000000000000000000000000000008152506008019050604051602081830303815290604052805190602001203373ffffffffffffffffffffffffffffffffffffffff16600160009054906101000a900473ffffffffffffffffffffffffffffffffffffffff1673ffffffffffffffffffffffffffffffffffffffff1663dcf0aaed836040518263ffffffff1660e01b81526004018082815260200191505060206040518083038186803b1580156113e957600080fd5b505afa1580156113fd573d6000803e3d6000fd5b505050506040513d602081101561141357600080fd5b810190808051906020019092919050505073ffffffffffffffffffffffffffffffffffffffff16146114ad576040517f08c379a00000000000000000000000000000000000000000000000000000000081526004018080602001828103825260188152602001807f6f6e6c79207265676973746572656420636f6e7472616374000000000000000081525060200191505060405180910390fd5b6114b78484614037565b91505092915050565b600f5481565b600a81815481106114d357fe5b906000526020600020016000915090505481565b60006114f1612c47565b611563576040517f08c379a00000000000000000000000000000000000000000000000000000000081526004018080602001828103825260208152602001807f4f776e61626c653a2063616c6c6572206973206e6f7420746865206f776e657281525060200191505060405180910390fd5b82600360008273ffffffffffffffffffffffffffffffffffffffff1673ffffffffffffffffffffffffffffffffffffffff16815260200190815260200160002060009054906101000a900460ff16611623576040517f08c379a000000000000000000000000000000000000000000000000000000000815260040180806020018281038252601f8152602001807f746f6b656e206164647220776173206e6576657220726567697374657265640081525060200191505060405180910390fd5b6004805490508310801561169957508373ffffffffffffffffffffffffffffffffffffffff166004848154811061165657fe5b9060005260206000200160009054906101000a900473ffffffffffffffffffffffffffffffffffffffff1673ffffffffffffffffffffffffffffffffffffffff16145b6116ee576040517f08c379a000000000000000000000000000000000000000000000000000000000815260040180806020018281038252602a815260200180614fec602a913960400191505060405180910390fd5b6000600360008673ffffffffffffffffffffffffffffffffffffffff1673ffffffffffffffffffffffffffffffffffffffff16815260200190815260200160002060006101000a81548160ff02191690831515021790555060006004611763600160048054905061416c90919063ffffffff16565b8154811061176d57fe5b9060005260206000200160009054906101000a900473ffffffffffffffffffffffffffffffffffffffff16905080600485815481106117a857fe5b9060005260206000200160006101000a81548173ffffffffffffffffffffffffffffffffffffffff021916908373ffffffffffffffffffffffffffffffffffffffff160217905550611809600160048054905061416c90919063ffffffff16565b6004816118169190614e24565b508473ffffffffffffffffffffffffffffffffffffffff167fbe9bb4bdca0a094babd75e3a98b1d2e2390633430d0a2f6e2b9970e2ee03fb2e856040518082815260200191505060405180910390a260019250505092915050565b600060149054906101000a900460ff1681565b6000806001600260008282540192505081905550600060025490506006546118e8600560000160109054906101000a90046fffffffffffffffffffffffffffffffff166fffffffffffffffffffffffffffffffff164261416c90919063ffffffff16565b1115611976576118fe6118f96141b6565b614225565b600560000160006101000a8154816fffffffffffffffffffffffffffffffff02191690836fffffffffffffffffffffffffffffffff16021790555042600560000160106101000a8154816fffffffffffffffffffffffffffffffff02191690836fffffffffffffffffffffffffffffffff1602179055505b600560000160009054906101000a90046fffffffffffffffffffffffffffffffff166fffffffffffffffffffffffffffffffff166119ba6119b5613ffb565b614225565b925092506002548114611a35576040517f08c379a000000000000000000000000000000000000000000000000000000000815260040180806020018281038252600e8152602001807f7265656e7472616e742063616c6c00000000000000000000000000000000000081525060200191505060405180910390fd5b509091565b60036020528060005260406000206000915054906101000a900460ff1681565b6000600760003373ffffffffffffffffffffffffffffffffffffffff1673ffffffffffffffffffffffffffffffffffffffff16815260200190815260200160002060009054906101000a900460ff16611afe576040517f08c379a000000000000000000000000000000000000000000000000000000000815260040180806020018281038252602c815260200180615040602c913960400191505060405180910390fd5b600860008473ffffffffffffffffffffffffffffffffffffffff1673ffffffffffffffffffffffffffffffffffffffff16815260200190815260200160002060009054906101000a900460ff16611ba0576040517f08c379a000000000000000000000000000000000000000000000000000000000815260040180806020018281038252602a815260200180615016602a913960400191505060405180910390fd5b6000620151804281611bae57fe5b049050600c54811115611c0f576000611bc5612aa6565b905081600c81905550611c07611c02611bdd83614233565b600e6040518060200160405290816000820154815250506142bd90919063ffffffff16565b61471c565b600d81905550505b82600d541015611c87576040517f08c379a00000000000000000000000000000000000000000000000000000000081526004018080602001828103825260188152602001807f457863656564696e67207370656e64696e67206c696d6974000000000000000081525060200191505060405180910390fd5b611c9c83600d5461416c90919063ffffffff16565b600d81905550611cac8484614037565b91505092915050565b6000611cbf612c47565b611d31576040517f08c379a00000000000000000000000000000000000000000000000000000000081526004018080602001828103825260208152602001807f4f776e61626c653a2063616c6c6572206973206e6f7420746865206f776e657281525060200191505060405180910390fd5b600160026000828254019250508190555060006002549050600860008473ffffffffffffffffffffffffffffffffffffffff1673ffffffffffffffffffffffffffffffffffffffff16815260200190815260200160002060009054906101000a900460ff1615611e09576040517f08c379a000000000000000000000000000000000000000000000000000000000815260040180806020018281038252601a8152602001807f72657365727665206164647220616c726561647920616464656400000000000081525060200191505060405180910390fd5b6001600860008573ffffffffffffffffffffffffffffffffffffffff1673ffffffffffffffffffffffffffffffffffffffff16815260200190815260200160002060006101000a81548160ff02191690831515021790555060098390806001815401808255809150509060018203906000526020600020016000909192909190916101000a81548173ffffffffffffffffffffffffffffffffffffffff021916908373ffffffffffffffffffffffffffffffffffffffff160217905550508273ffffffffffffffffffffffffffffffffffffffff167fd78793225285ecf9cf5f0f84b1cdc335c2cb4d6810ff0b9fd156ad6026c89cea60405160405180910390a2600191506002548114611f85576040517f08c379a000000000000000000000000000000000000000000000000000000000815260040180806020018281038252600e8152602001807f7265656e7472616e742063616c6c00000000000000000000000000000000000081525060200191505060405180910390fd5b50919050565b60058060000160009054906101000a90046fffffffffffffffffffffffffffffffff16908060000160109054906101000a90046fffffffffffffffffffffffffffffffff16905082565b600080620151804281611fe457fe5b0490506000611ffe6010548361416c90919063ffffffff16565b9050601154811061201457600092505050612056565b61205161204060115461203284600f5461473d90919063ffffffff16565b6147c390919063ffffffff16565b600f5461416c90919063ffffffff16565b925050505b90565b600d5481565b6009818154811061206c57fe5b906000526020600020016000915054906101000a900473ffffffffffffffffffffffffffffffffffffffff1681565b600080600160009054906101000a900473ffffffffffffffffffffffffffffffffffffffff1673ffffffffffffffffffffffffffffffffffffffff1663dcf0aaed60405160200180807f536f727465644f7261636c657300000000000000000000000000000000000000815250600d019050604051602081830303815290604052805190602001206040518263ffffffff1660e01b81526004018082815260200191505060206040518083038186803b15801561215757600080fd5b505afa15801561216b573d6000803e3d6000fd5b505050506040513d602081101561218157600080fd5b81019080805190602001909291905050509050600081905060006121a3612aa6565b905060008090506121b2614e50565b6121ee600b60007f63474c4400000000000000000000000000000000000000000000000000000000815260200190815260200160002054613fdd565b905060008090505b60048054905081101561241f576000808673ffffffffffffffffffffffffffffffffffffffff1663ef90e1b06004858154811061222f57fe5b9060005260206000200160009054906101000a900473ffffffffffffffffffffffffffffffffffffffff166040518263ffffffff1660e01b8152600401808273ffffffffffffffffffffffffffffffffffffffff1673ffffffffffffffffffffffffffffffffffffffff168152602001915050604080518083038186803b1580156122b957600080fd5b505afa1580156122cd573d6000803e3d6000fd5b505050506040513d60408110156122e357600080fd5b810190808051906020019092919080519060200190929190505050809250819350505060006004848154811061231557fe5b9060005260206000200160009054906101000a900473ffffffffffffffffffffffffffffffffffffffff1673ffffffffffffffffffffffffffffffffffffffff166318160ddd6040518163ffffffff1660e01b815260040160206040518083038186803b15801561238557600080fd5b505afa158015612399573d6000803e3d6000fd5b505050506040513d60208110156123af57600080fd5b8101908080519060200190929190505050905060006123e9846123db858561473d90919063ffffffff16565b6147c390919063ffffffff16565b90506123fe818861480d90919063ffffffff16565b96505050505061241860018261480d90919063ffffffff16565b90506121f6565b5061245d61245861242f84614233565b61244a8461243c88614233565b61489590919063ffffffff16565b61489590919063ffffffff16565b614225565b9550505050505090565b6000612471612c47565b6124e3576040517f08c379a00000000000000000000000000000000000000000000000000000000081526004018080602001828103825260208152602001807f4f776e61626c653a2063616c6c6572206973206e6f7420746865206f776e657281525060200191505060405180910390fd5b600860008473ffffffffffffffffffffffffffffffffffffffff1673ffffffffffffffffffffffffffffffffffffffff16815260200190815260200160002060009054906101000a900460ff166125a2576040517f08c379a000000000000000000000000000000000000000000000000000000000815260040180806020018281038252601c8152602001807f72657365727665206164647220776173206e657665722061646465640000000081525060200191505060405180910390fd5b6009805490508210801561261857508273ffffffffffffffffffffffffffffffffffffffff16600983815481106125d557fe5b9060005260206000200160009054906101000a900473ffffffffffffffffffffffffffffffffffffffff1673ffffffffffffffffffffffffffffffffffffffff16145b61266d576040517f08c379a000000000000000000000000000000000000000000000000000000000815260040180806020018281038252602d815260200180614f99602d913960400191505060405180910390fd5b6000600860008573ffffffffffffffffffffffffffffffffffffffff1673ffffffffffffffffffffffffffffffffffffffff16815260200190815260200160002060006101000a81548160ff021916908315150217905550600060096126e2600160098054905061416c90919063ffffffff16565b815481106126ec57fe5b9060005260206000200160009054906101000a900473ffffffffffffffffffffffffffffffffffffffff169050806009848154811061272757fe5b9060005260206000200160006101000a81548173ffffffffffffffffffffffffffffffffffffffff021916908373ffffffffffffffffffffffffffffffffffffffff160217905550612788600160098054905061416c90919063ffffffff16565b6009816127959190614e24565b508373ffffffffffffffffffffffffffffffffffffffff167f89b4ee5cecfdfb246ede373c10283b5038afe56a531fc1d2f3ed8c5507a52fcb846040518082815260200191505060405180910390a2600191505092915050565b69010f0cf064dd5920000081565b60115481565b61280b612c47565b61287d576040517f08c379a00000000000000000000000000000000000000000000000000000000081526004018080602001828103825260208152602001807f4f776e61626c653a2063616c6c6572206973206e6f7420746865206f776e657281525060200191505060405180910390fd5b600073ffffffffffffffffffffffffffffffffffffffff166000809054906101000a900473ffffffffffffffffffffffffffffffffffffffff1673ffffffffffffffffffffffffffffffffffffffff167f8be0079c531659141344cd1fd0a4f28419497f9722a3daafe3b4186f6b6457e060405160405180910390a360008060006101000a81548173ffffffffffffffffffffffffffffffffffffffff021916908373ffffffffffffffffffffffffffffffffffffffff160217905550565b6000806000905060008090505b6009805490508110156129d4576129b76009828154811061296657fe5b9060005260206000200160009054906101000a900473ffffffffffffffffffffffffffffffffffffffff1673ffffffffffffffffffffffffffffffffffffffff16318361480d90919063ffffffff16565b91506129cd60018261480d90919063ffffffff16565b9050612949565b508091505090565b60006129fd600e604051806020016040529081600082015481525050614225565b905090565b600160009054906101000a900473ffffffffffffffffffffffffffffffffffffffff1681565b60086020528060005260406000206000915054906101000a900460ff1681565b60105481565b6060600a805480602002602001604051908101604052809291908181526020018280548015612a9c57602002820191906000526020600020905b815481526020019060010190808311612a88575b5050505050905090565b6000612ac9612ab361293c565b612abb613bea565b61480d90919063ffffffff16565b905090565b612ad6612c47565b612b48576040517f08c379a00000000000000000000000000000000000000000000000000000000081526004018080602001828103825260208152602001807f4f776e61626c653a2063616c6c6572206973206e6f7420746865206f776e657281525060200191505060405180910390fd5b6000600760008373ffffffffffffffffffffffffffffffffffffffff1673ffffffffffffffffffffffffffffffffffffffff16815260200190815260200160002060006101000a81548160ff0219169083151502179055508073ffffffffffffffffffffffffffffffffffffffff167fab8cff50266d80b9c9d9703af934ca455b9218286bf4fcaa05653a564c499e4b60405160405180910390a250565b6000612c19612bf361293c565b3073ffffffffffffffffffffffffffffffffffffffff163161480d90919063ffffffff16565b905090565b60008060009054906101000a900473ffffffffffffffffffffffffffffffffffffffff16905090565b60008060009054906101000a900473ffffffffffffffffffffffffffffffffffffffff1673ffffffffffffffffffffffffffffffffffffffff16612c896149de565b73ffffffffffffffffffffffffffffffffffffffff1614905090565b60076020528060005260406000206000915054906101000a900460ff1681565b60606009805480602002602001604051908101604052809291908181526020018280548015612d4957602002820191906000526020600020905b8160009054906101000a900473ffffffffffffffffffffffffffffffffffffffff1673ffffffffffffffffffffffffffffffffffffffff1681526020019060010190808311612cff575b5050505050905090565b612d5b612c47565b612dcd576040517f08c379a00000000000000000000000000000000000000000000000000000000081526004018080602001828103825260208152602001807f4f776e61626c653a2063616c6c6572206973206e6f7420746865206f776e657281525060200191505060405180910390fd5b60008111612e43576040517f08c379a000000000000000000000000000000000000000000000000000000000815260040180806020018281038252600e8152602001807f76616c756520776173207a65726f00000000000000000000000000000000000081525060200191505060405180910390fd5b806006819055507f7bfe94ca3147f135fcd6d94ebf61d33fa34fbe904f933ccae66911b9548544f2816040518082815260200191505060405180910390a150565b612e8c612c47565b612efe576040517f08c379a00000000000000000000000000000000000000000000000000000000081526004018080602001828103825260208152602001807f4f776e61626c653a2063616c6c6572206973206e6f7420746865206f776e657281525060200191505060405180910390fd5b600073ffffffffffffffffffffffffffffffffffffffff168173ffffffffffffffffffffffffffffffffffffffff161415612fa1576040517f08c379a00000000000000000000000000000000000000000000000000000000081526004018080602001828103825260208152602001807f43616e6e6f7420726567697374657220746865206e756c6c206164647265737381525060200191505060405180910390fd5b80600160006101000a81548173ffffffffffffffffffffffffffffffffffffffff021916908373ffffffffffffffffffffffffffffffffffffffff1602179055508073ffffffffffffffffffffffffffffffffffffffff167f27fe5f0c1c3b1ed427cc63d0f05759ffdecf9aec9e18d31ef366fc8a6cb5dc3b60405160405180910390a250565b606060048054806020026020016040519081016040528092919081815260200182805480156130ac57602002820191906000526020600020905b8160009054906101000a900473ffffffffffffffffffffffffffffffffffffffff1673ffffffffffffffffffffffffffffffffffffffff1681526020019060010190808311613062575b5050505050905090565b600060149054906101000a900460ff1615613139576040517f08c379a000000000000000000000000000000000000000000000000000000000815260040180806020018281038252601c8152602001807f636f6e747261637420616c726561647920696e697469616c697a65640000000081525060200191505060405180910390fd5b6001600060146101000a81548160ff02191690831515021790555061315d336149e6565b61316689612e84565b61316f88612d53565b613178876111c5565b6131828686613e0d565b61320e848480806020026020016040519081016040528093929190818152602001838360200280828437600081840152601f19601f82011690508083019250505050505050838380806020026020016040519081016040528093929190818152602001838360200280828437600081840152601f19601f82011690508083019250505050505050613219565b505050505050505050565b613221612c47565b613293576040517f08c379a00000000000000000000000000000000000000000000000000000000081526004018080602001828103825260208152602001807f4f776e61626c653a2063616c6c6572206973206e6f7420746865206f776e657281525060200191505060405180910390fd5b805182511461330a576040517f08c379a00000000000000000000000000000000000000000000000000000000081526004018080602001828103825260158152602001807f4172726179206c656e677468206d69736d61746368000000000000000000000081525060200191505060405180910390fd5b613312614e50565b61331c6000613fdd565b905060008090505b82518110156133785761335b61334c84838151811061333f57fe5b6020026020010151613fdd565b83614b2a90919063ffffffff16565b915061337160018261480d90919063ffffffff16565b9050613324565b50613393613384613ffb565b82614bd390919063ffffffff16565b6133e8576040517f08c379a0000000000000000000000000000000000000000000000000000000008152600401808060200182810382526021815260200180614f576021913960400191505060405180910390fd5b60008090505b600a8054905081101561344457600b6000600a838154811061340c57fe5b906000526020600020015481526020019081526020016000206000905561343d60018261480d90919063ffffffff16565b90506133ee565b5082600a908051906020019061345b929190614e63565b5060008090505b8351811015613560576000600b600086848151811061347d57fe5b602002602001015181526020019081526020016000205414613507576040517f08c379a00000000000000000000000000000000000000000000000000000000081526004018080602001828103825260178152602001807f43616e6e6f74207365742077656967687420747769636500000000000000000081525060200191505060405180910390fd5b82818151811061351357fe5b6020026020010151600b600086848151811061352b57fe5b602002602001015181526020019081526020016000208190555061355960018261480d90919063ffffffff16565b9050613462565b506000600b60007f63474c4400000000000000000000000000000000000000000000000000000000815260200190815260200160002054141561360b576040517f08c379a000000000000000000000000000000000000000000000000000000000815260040180806020018281038252601a8152602001807f4d757374207365742063474c442061737365742077656967687400000000000081525060200191505060405180910390fd5b7f55b488abd19ae7621712324d3d42c2ef7a9575f64f5503103286a1161fb408558383604051808060200180602001838103835285818151815260200191508051906020019060200280838360005b8381101561367557808201518184015260208101905061365a565b50505050905001838103825284818151815260200191508051906020019060200280838360005b838110156136b757808201518184015260208101905061369c565b5050505090500194505050505060405180910390a1505050565b60006136db612c47565b61374d576040517f08c379a00000000000000000000000000000000000000000000000000000000081526004018080602001828103825260208152602001807f4f776e61626c653a2063616c6c6572206973206e6f7420746865206f776e657281525060200191505060405180910390fd5b600160026000828254019250508190555060006002549050600360008473ffffffffffffffffffffffffffffffffffffffff1673ffffffffffffffffffffffffffffffffffffffff16815260200190815260200160002060009054906101000a900460ff1615613825576040517f08c379a000000000000000000000000000000000000000000000000000000000815260040180806020018281038252601d8152602001807f746f6b656e206164647220616c7265616479207265676973746572656400000081525060200191505060405180910390fd5b6000600160009054906101000a900473ffffffffffffffffffffffffffffffffffffffff1673ffffffffffffffffffffffffffffffffffffffff1663dcf0aaed60405160200180807f536f727465644f7261636c657300000000000000000000000000000000000000815250600d019050604051602081830303815290604052805190602001206040518263ffffffff1660e01b81526004018082815260200191505060206040518083038186803b1580156138e057600080fd5b505afa1580156138f4573d6000803e3d6000fd5b505050506040513d602081101561390a57600080fd5b8101908080519060200190929190505050905060008190506000808273ffffffffffffffffffffffffffffffffffffffff1663ef90e1b0886040518263ffffffff1660e01b8152600401808273ffffffffffffffffffffffffffffffffffffffff1673ffffffffffffffffffffffffffffffffffffffff168152602001915050604080518083038186803b1580156139a157600080fd5b505afa1580156139b5573d6000803e3d6000fd5b505050506040513d60408110156139cb57600080fd5b810190808051906020019092919080519060200190929190505050809250819350505060008111613a64576040517f08c379a000000000000000000000000000000000000000000000000000000000815260040180806020018281038252601b8152602001807f6d656469616e20726174652072657475726e6564203020676f6c64000000000081525060200191505060405180910390fd5b6001600360008973ffffffffffffffffffffffffffffffffffffffff1673ffffffffffffffffffffffffffffffffffffffff16815260200190815260200160002060006101000a81548160ff02191690831515021790555060048790806001815401808255809150509060018203906000526020600020016000909192909190916101000a81548173ffffffffffffffffffffffffffffffffffffffff021916908373ffffffffffffffffffffffffffffffffffffffff160217905550508673ffffffffffffffffffffffffffffffffffffffff167f784c8f4dbf0ffedd6e72c76501c545a70f8b203b30a26ce542bf92ba87c248a460405160405180910390a260019550505050506002548114613be4576040517f08c379a000000000000000000000000000000000000000000000000000000000815260040180806020018281038252600e8152602001807f7265656e7472616e742063616c6c00000000000000000000000000000000000081525060200191505060405180910390fd5b50919050565b6000803073ffffffffffffffffffffffffffffffffffffffff163190506000613c11611fd5565b9050808211613c21576000613c35565b613c34818361416c90919063ffffffff16565b5b9250505090565b60065481565b606080600a80549050604051908082528060200260200182016040528015613c795781602001602082028038833980820191505090505b50905060008090505b600a80549050811015613ced57600b6000600a8381548110613ca057fe5b9060005260206000200154815260200190815260200160002054828281518110613cc657fe5b602002602001018181525050613ce660018261480d90919063ffffffff16565b9050613c82565b508091505090565b613cfd612c47565b613d6f576040517f08c379a00000000000000000000000000000000000000000000000000000000081526004018080602001828103825260208152602001807f4f776e61626c653a2063616c6c6572206973206e6f7420746865206f776e657281525060200191505060405180910390fd5b6001600760008373ffffffffffffffffffffffffffffffffffffffff1673ffffffffffffffffffffffffffffffffffffffff16815260200190815260200160002060006101000a81548160ff0219169083151502179055508073ffffffffffffffffffffffffffffffffffffffff167f3139419c41cdd7abca84fa19dd21118cd285d3e2ce1a9444e8161ce9fa62fdcd60405160405180910390a250565b613e15612c47565b613e87576040517f08c379a00000000000000000000000000000000000000000000000000000000081526004018080602001828103825260208152602001807f4f776e61626c653a2063616c6c6572206973206e6f7420746865206f776e657281525060200191505060405180910390fd5b3073ffffffffffffffffffffffffffffffffffffffff1631821115613f14576040517f08c379a000000000000000000000000000000000000000000000000000000000815260040180806020018281038252601f8152602001807f43616e6e6f7420667265657a65206d6f7265207468616e2062616c616e63650081525060200191505060405180910390fd5b81600f81905550620151804281613f2757fe5b04601081905550806011819055505050565b600b6020528060005260406000206000915090505481565b613f59612c47565b613fcb576040517f08c379a00000000000000000000000000000000000000000000000000000000081526004018080602001828103825260208152602001807f4f776e61626c653a2063616c6c6572206973206e6f7420746865206f776e657281525060200191505060405180910390fd5b613fd4816149e6565b50565b600c5481565b613fe5614e50565b6040518060200160405280838152509050919050565b614003614e50565b604051806020016040528069d3c21bcecceda1000000815250905090565b6000816000015183600001511115905092915050565b6000614041613bea565b8211156140b6576040517f08c379a000000000000000000000000000000000000000000000000000000000815260040180806020018281038252601b8152602001807f457863656564696e6720756e66726f7a656e207265736572766573000000000081525060200191505060405180910390fd5b8273ffffffffffffffffffffffffffffffffffffffff166108fc839081150290604051600060405180830381858888f193505050501580156140fc573d6000803e3d6000fd5b508273ffffffffffffffffffffffffffffffffffffffff163373ffffffffffffffffffffffffffffffffffffffff167f4dd1abe16ad3d4f829372dc77766ca2cce34e205af9b10f8cc1fab370425864f846040518082815260200191505060405180910390a36001905092915050565b60006141ae83836040518060400160405280601e81526020017f536166654d6174683a207375627472616374696f6e206f766572666c6f770000815250614be8565b905092915050565b6141be614e50565b6141c6614e50565b6141d66141d161209b565b613fdd565b90506141f46141e56002614233565b82614ca890919063ffffffff16565b1561420b576142036000613fdd565b915050614222565b61421e69010f0cf064dd59200000613fdd565b9150505b90565b600081600001519050919050565b61423b614e50565b614243614cbe565b82111561429b576040517f08c379a0000000000000000000000000000000000000000000000000000000008152600401808060200182810382526036815260200180614f216036913960400191505060405180910390fd5b604051806020016040528069d3c21bcecceda100000084028152509050919050565b6142c5614e50565b6000836000015114806142dc575060008260000151145b156142f857604051806020016040528060008152509050614716565b69d3c21bcecceda10000008260000151141561431657829050614716565b69d3c21bcecceda10000008360000151141561433457819050614716565b600069d3c21bcecceda100000061434a85614cdd565b600001518161435557fe5b049050600061436385614d14565b600001519050600069d3c21bcecceda100000061437f86614cdd565b600001518161438a57fe5b049050600061439886614d14565b600001519050600082850290506000851461442c57828582816143b757fe5b041461442b576040517f08c379a00000000000000000000000000000000000000000000000000000000081526004018080602001828103825260168152602001807f6f766572666c6f7720783179312064657465637465640000000000000000000081525060200191505060405180910390fd5b5b600069d3c21bcecceda100000082029050600082146144ce5769d3c21bcecceda100000082828161445957fe5b04146144cd576040517f08c379a000000000000000000000000000000000000000000000000000000000815260040180806020018281038252601f8152602001807f6f766572666c6f772078317931202a206669786564312064657465637465640081525060200191505060405180910390fd5b5b809150600084860290506000861461455f57848682816144ea57fe5b041461455e576040517f08c379a00000000000000000000000000000000000000000000000000000000081526004018080602001828103825260168152602001807f6f766572666c6f7720783279312064657465637465640000000000000000000081525060200191505060405180910390fd5b5b60008488029050600088146145ed578488828161457857fe5b04146145ec576040517f08c379a00000000000000000000000000000000000000000000000000000000081526004018080602001828103825260168152602001807f6f766572666c6f7720783179322064657465637465640000000000000000000081525060200191505060405180910390fd5b5b6145f5614d51565b87816145fd57fe5b049650614608614d51565b858161461057fe5b04945060008588029050600088146146a1578588828161462c57fe5b04146146a0576040517f08c379a00000000000000000000000000000000000000000000000000000000081526004018080602001828103825260168152602001807f6f766572666c6f7720783279322064657465637465640000000000000000000081525060200191505060405180910390fd5b5b6146a9614e50565b60405180602001604052808781525090506146d281604051806020016040528087815250614b2a565b90506146ec81604051806020016040528086815250614b2a565b905061470681604051806020016040528085815250614b2a565b9050809a50505050505050505050505b92915050565b600069d3c21bcecceda100000082600001518161473557fe5b049050919050565b60008083141561475057600090506147bd565b600082840290508284828161476157fe5b04146147b8576040517f08c379a0000000000000000000000000000000000000000000000000000000008152600401808060200182810382526021815260200180614f786021913960400191505060405180910390fd5b809150505b92915050565b600061480583836040518060400160405280601a81526020017f536166654d6174683a206469766973696f6e206279207a65726f000000000000815250614d5e565b905092915050565b60008082840190508381101561488b576040517f08c379a000000000000000000000000000000000000000000000000000000000815260040180806020018281038252601b8152602001807f536166654d6174683a206164646974696f6e206f766572666c6f77000000000081525060200191505060405180910390fd5b8091505092915050565b61489d614e50565b600082600001511415614918576040517f08c379a00000000000000000000000000000000000000000000000000000000081526004018080602001828103825260118152602001807f63616e277420646976696465206279203000000000000000000000000000000081525060200191505060405180910390fd5b600069d3c21bcecceda10000008460000151029050836000015169d3c21bcecceda1000000828161494557fe5b04146149b9576040517f08c379a00000000000000000000000000000000000000000000000000000000081526004018080602001828103825260128152602001807f6f766572666c6f7720617420646976696465000000000000000000000000000081525060200191505060405180910390fd5b6040518060200160405280846000015183816149d157fe5b0481525091505092915050565b600033905090565b600073ffffffffffffffffffffffffffffffffffffffff168173ffffffffffffffffffffffffffffffffffffffff161415614a6c576040517f08c379a0000000000000000000000000000000000000000000000000000000008152600401808060200182810382526026815260200180614efb6026913960400191505060405180910390fd5b8073ffffffffffffffffffffffffffffffffffffffff166000809054906101000a900473ffffffffffffffffffffffffffffffffffffffff1673ffffffffffffffffffffffffffffffffffffffff167f8be0079c531659141344cd1fd0a4f28419497f9722a3daafe3b4186f6b6457e060405160405180910390a3806000806101000a81548173ffffffffffffffffffffffffffffffffffffffff021916908373ffffffffffffffffffffffffffffffffffffffff16021790555050565b614b32614e50565b6000826000015184600001510190508360000151811015614bbb576040517f08c379a00000000000000000000000000000000000000000000000000000000081526004018080602001828103825260158152602001807f616464206f766572666c6f77206465746563746564000000000000000000000081525060200191505060405180910390fd5b60405180602001604052808281525091505092915050565b60008160000151836000015114905092915050565b6000838311158290614c95576040517f08c379a00000000000000000000000000000000000000000000000000000000081526004018080602001828103825283818151815260200191508051906020019080838360005b83811015614c5a578082015181840152602081019050614c3f565b50505050905090810190601f168015614c875780820380516001836020036101000a031916815260200191505b509250505060405180910390fd5b5060008385039050809150509392505050565b6000816000015183600001511015905092915050565b60007601357c299a88ea76a58924d52ce4f26a85af186c2b9e74905090565b614ce5614e50565b604051806020016040528069d3c21bcecceda100000080856000015181614d0857fe5b04028152509050919050565b614d1c614e50565b604051806020016040528069d3c21bcecceda100000080856000015181614d3f57fe5b04028460000151038152509050919050565b600064e8d4a51000905090565b60008083118290614e0a576040517f08c379a00000000000000000000000000000000000000000000000000000000081526004018080602001828103825283818151815260200191508051906020019080838360005b83811015614dcf578082015181840152602081019050614db4565b50505050905090810190601f168015614dfc5780820380516001836020036101000a031916815260200191505b509250505060405180910390fd5b506000838581614e1657fe5b049050809150509392505050565b815481835581811115614e4b57818360005260206000209182019101614e4a9190614eb0565b5b505050565b6040518060200160405280600081525090565b828054828255906000526020600020908101928215614e9f579160200282015b82811115614e9e578251825591602001919060010190614e83565b5b509050614eac9190614ed5565b5090565b614ed291905b80821115614ece576000816000905550600101614eb6565b5090565b90565b614ef791905b80821115614ef3576000816000905550600101614edb565b5090565b9056fe4f776e61626c653a206e6577206f776e657220697320746865207a65726f206164647265737363616e277420637265617465206669786964697479206e756d626572206c6172676572207468616e206d61784e65774669786564282953756d206f6620617373657420616c6c6f636174696f6e206d7573742062652031536166654d6174683a206d756c7469706c69636174696f6e206f766572666c6f77696e64657820696e746f2072657365727665206c697374206e6f74206d617070656420746f20616464726573737370656e64696e6720726174696f2063616e6e6f74206265206c6172676572207468616e2031696e64657820696e746f20746f6b656e73206c697374206e6f74206d617070656420746f20746f6b656e63616e206f6e6c79207472616e7366657220746f206f746865722072657365727665206164647265737373656e646572206e6f7420616c6c6f77656420746f207472616e7366657220526573657276652066756e6473a165627a7a72305820328c74771b78221b59dbc4382e7f1204da3bd0c941eba59b7bc86ec571a4b0680029",
  "source": "pragma solidity ^0.5.3;\n\nimport \"openzeppelin-solidity/contracts/math/SafeMath.sol\";\nimport \"openzeppelin-solidity/contracts/ownership/Ownable.sol\";\n\nimport \"./interfaces/IReserve.sol\";\nimport \"./interfaces/ISortedOracles.sol\";\n\nimport \"../common/FixidityLib.sol\";\nimport \"../common/Initializable.sol\";\nimport \"../common/UsingRegistry.sol\";\nimport \"../common/libraries/ReentrancyGuard.sol\";\n\n/**\n * @title Ensures price stability of StableTokens with respect to their pegs\n */\ncontract Reserve is IReserve, Ownable, Initializable, UsingRegistry, ReentrancyGuard {\n  using SafeMath for uint256;\n  using FixidityLib for FixidityLib.Fraction;\n\n  struct TobinTaxCache {\n    uint128 numerator;\n    uint128 timestamp;\n  }\n\n  mapping(address => bool) public isToken;\n  address[] private _tokens;\n  TobinTaxCache public tobinTaxCache;\n  uint256 public tobinTaxStalenessThreshold;\n  uint256 public constant TOBIN_TAX_NUMERATOR = 5000000000000000000000; // 0.005\n  mapping(address => bool) public isSpender;\n\n  mapping(address => bool) public isOtherReserveAddress;\n  address[] public otherReserveAddresses;\n\n  bytes32[] public assetAllocationSymbols;\n  mapping(bytes32 => uint256) public assetAllocationWeights;\n\n  uint256 public lastSpendingDay;\n  uint256 public spendingLimit;\n  FixidityLib.Fraction private spendingRatio;\n\n  uint256 public frozenReserveGoldStartBalance;\n  uint256 public frozenReserveGoldStartDay;\n  uint256 public frozenReserveGoldDays;\n\n  event TobinTaxStalenessThresholdSet(uint256 value);\n  event DailySpendingRatioSet(uint256 ratio);\n  event TokenAdded(address indexed token);\n  event TokenRemoved(address indexed token, uint256 index);\n  event SpenderAdded(address indexed spender);\n  event SpenderRemoved(address indexed spender);\n  event OtherReserveAddressAdded(address indexed otherReserveAddress);\n  event OtherReserveAddressRemoved(address indexed otherReserveAddress, uint256 index);\n  event AssetAllocationSet(bytes32[] symbols, uint256[] weights);\n  event ReserveGoldTransferred(address indexed spender, address indexed to, uint256 value);\n\n  modifier isStableToken(address token) {\n    require(isToken[token], \"token addr was never registered\");\n    _;\n  }\n\n  function() external payable {} // solhint-disable no-empty-blocks\n\n  /**\n   * @notice Used in place of the constructor to allow the contract to be upgradable via proxy.\n   * @param registryAddress The address of the registry core smart contract.\n   * @param _tobinTaxStalenessThreshold The initial number of seconds to cache tobin tax value for.\n   * @param _frozenGold The balance of reserve gold that is frozen.\n   * @param _frozenDays The number of days during which the frozen gold thaws.\n   */\n  function initialize(\n    address registryAddress,\n    uint256 _tobinTaxStalenessThreshold,\n    uint256 _spendingRatio,\n    uint256 _frozenGold,\n    uint256 _frozenDays,\n    bytes32[] calldata _assetAllocationSymbols,\n    uint256[] calldata _assetAllocationWeights\n  ) external initializer {\n    _transferOwnership(msg.sender);\n    setRegistry(registryAddress);\n    setTobinTaxStalenessThreshold(_tobinTaxStalenessThreshold);\n    setDailySpendingRatio(_spendingRatio);\n    setFrozenGold(_frozenGold, _frozenDays);\n    setAssetAllocations(_assetAllocationSymbols, _assetAllocationWeights);\n  }\n\n  /**\n   * @notice Sets the number of seconds to cache the tobin tax value for.\n   * @param value The number of seconds to cache the tobin tax value for.\n   */\n  function setTobinTaxStalenessThreshold(uint256 value) public onlyOwner {\n    require(value > 0, \"value was zero\");\n    tobinTaxStalenessThreshold = value;\n    emit TobinTaxStalenessThresholdSet(value);\n  }\n\n  /**\n   * @notice Set the ratio of reserve that is spendable per day.\n   * @param ratio Spending ratio as unwrapped Fraction.\n   */\n  function setDailySpendingRatio(uint256 ratio) public onlyOwner {\n    spendingRatio = FixidityLib.wrap(ratio);\n    require(spendingRatio.lte(FixidityLib.fixed1()), \"spending ratio cannot be larger than 1\");\n    emit DailySpendingRatioSet(ratio);\n  }\n\n  /**\n   * @notice Get daily spending ratio.\n   * @return Spending ratio as unwrapped Fraction.\n   */\n  function getDailySpendingRatio() public view returns (uint256) {\n    return spendingRatio.unwrap();\n  }\n\n  /**\n   * @notice Sets the balance of reserve gold frozen from transfer.\n   * @param frozenGold The amount of cGLD frozen.\n   * @param frozenDays The number of days the frozen cGLD thaws over.\n   */\n  function setFrozenGold(uint256 frozenGold, uint256 frozenDays) public onlyOwner {\n    require(frozenGold <= address(this).balance, \"Cannot freeze more than balance\");\n    frozenReserveGoldStartBalance = frozenGold;\n    frozenReserveGoldStartDay = now / 1 days;\n    frozenReserveGoldDays = frozenDays;\n  }\n\n  /**\n   * @notice Sets target allocations for Celo Gold and a diversified basket of non-Celo assets.\n   * @param symbols The symbol of each asset in the Reserve portfolio.\n   * @param weights The weight for the corresponding asset as unwrapped Fixidity.Fraction.\n   */\n  function setAssetAllocations(bytes32[] memory symbols, uint256[] memory weights)\n    public\n    onlyOwner\n  {\n    require(symbols.length == weights.length, \"Array length mismatch\");\n    FixidityLib.Fraction memory sum = FixidityLib.wrap(0);\n    for (uint256 i = 0; i < weights.length; i = i.add(1)) {\n      sum = sum.add(FixidityLib.wrap(weights[i]));\n    }\n    require(sum.equals(FixidityLib.fixed1()), \"Sum of asset allocation must be 1\");\n    for (uint256 i = 0; i < assetAllocationSymbols.length; i = i.add(1)) {\n      delete assetAllocationWeights[assetAllocationSymbols[i]];\n    }\n    assetAllocationSymbols = symbols;\n    for (uint256 i = 0; i < symbols.length; i = i.add(1)) {\n      require(assetAllocationWeights[symbols[i]] == 0, \"Cannot set weight twice\");\n      assetAllocationWeights[symbols[i]] = weights[i];\n    }\n    require(assetAllocationWeights[\"cGLD\"] != 0, \"Must set cGLD asset weight\");\n    emit AssetAllocationSet(symbols, weights);\n  }\n\n  /**\n   * @notice Add a token that the reserve will stabilize.\n   * @param token The address of the token being stabilized.\n   * @return Returns true if the transaction succeeds.\n   */\n  function addToken(address token) external onlyOwner nonReentrant returns (bool) {\n    require(!isToken[token], \"token addr already registered\");\n    // Require an exchange rate between the new token and Gold exists.\n    address sortedOraclesAddress = registry.getAddressForOrDie(SORTED_ORACLES_REGISTRY_ID);\n    ISortedOracles sortedOracles = ISortedOracles(sortedOraclesAddress);\n    uint256 tokenAmount;\n    uint256 goldAmount;\n    (tokenAmount, goldAmount) = sortedOracles.medianRate(token);\n    require(goldAmount > 0, \"median rate returned 0 gold\");\n    isToken[token] = true;\n    _tokens.push(token);\n    emit TokenAdded(token);\n    return true;\n  }\n\n  /**\n   * @notice Remove a token that the reserve will no longer stabilize.\n   * @param token The address of the token no longer being stabilized.\n   * @param index The index of the token in _tokens.\n   * @return Returns true if the transaction succeeds.\n   */\n  function removeToken(address token, uint256 index)\n    external\n    onlyOwner\n    isStableToken(token)\n    returns (bool)\n  {\n    require(\n      index < _tokens.length && _tokens[index] == token,\n      \"index into tokens list not mapped to token\"\n    );\n    isToken[token] = false;\n    address lastItem = _tokens[_tokens.length.sub(1)];\n    _tokens[index] = lastItem;\n    _tokens.length = _tokens.length.sub(1);\n    emit TokenRemoved(token, index);\n    return true;\n  }\n\n  /**\n   * @notice Add a reserve address whose balance shall be included in the reserve ratio.\n   * @param reserveAddress The reserve address to add.\n   * @return Returns true if the transaction succeeds.\n   */\n  function addOtherReserveAddress(address reserveAddress)\n    external\n    onlyOwner\n    nonReentrant\n    returns (bool)\n  {\n    require(!isOtherReserveAddress[reserveAddress], \"reserve addr already added\");\n    isOtherReserveAddress[reserveAddress] = true;\n    otherReserveAddresses.push(reserveAddress);\n    emit OtherReserveAddressAdded(reserveAddress);\n    return true;\n  }\n\n  /**\n   * @notice Remove reserve address whose balance shall no longer be included in the reserve ratio.\n   * @param reserveAddress The reserve address to remove.\n   * @param index The index of the reserve address in otherReserveAddresses.\n   * @return Returns true if the transaction succeeds.\n   */\n  function removeOtherReserveAddress(address reserveAddress, uint256 index)\n    external\n    onlyOwner\n    returns (bool)\n  {\n    require(isOtherReserveAddress[reserveAddress], \"reserve addr was never added\");\n    require(\n      index < otherReserveAddresses.length && otherReserveAddresses[index] == reserveAddress,\n      \"index into reserve list not mapped to address\"\n    );\n    isOtherReserveAddress[reserveAddress] = false;\n    address lastItem = otherReserveAddresses[otherReserveAddresses.length.sub(1)];\n    otherReserveAddresses[index] = lastItem;\n    otherReserveAddresses.length = otherReserveAddresses.length.sub(1);\n    emit OtherReserveAddressRemoved(reserveAddress, index);\n    return true;\n  }\n\n  /**\n   * @notice Gives an address permission to spend Reserve funds.\n   * @param spender The address that is allowed to spend Reserve funds.\n   */\n  function addSpender(address spender) external onlyOwner {\n    isSpender[spender] = true;\n    emit SpenderAdded(spender);\n  }\n\n  /**\n   * @notice Takes away an address's permission to spend Reserve funds.\n   * @param spender The address that is to be no longer allowed to spend Reserve funds.\n   */\n  function removeSpender(address spender) external onlyOwner {\n    isSpender[spender] = false;\n    emit SpenderRemoved(spender);\n  }\n\n  /**\n   * @notice Transfer gold to a whitelisted address subject to reserve spending limits.\n   * @param to The address that will receive the gold.\n   * @param value The amount of gold to transfer.\n   * @return Returns true if the transaction succeeds.\n   */\n  function transferGold(address payable to, uint256 value) external returns (bool) {\n    require(isSpender[msg.sender], \"sender not allowed to transfer Reserve funds\");\n    require(isOtherReserveAddress[to], \"can only transfer to other reserve address\");\n    uint256 currentDay = now / 1 days;\n    if (currentDay > lastSpendingDay) {\n      uint256 balance = getUnfrozenReserveGoldBalance();\n      lastSpendingDay = currentDay;\n      spendingLimit = spendingRatio.multiply(FixidityLib.newFixed(balance)).fromFixed();\n    }\n    require(spendingLimit >= value, \"Exceeding spending limit\");\n    spendingLimit = spendingLimit.sub(value);\n    return _transferGold(to, value);\n  }\n\n  /**\n   * @notice Transfer unfrozen gold to any address.\n   * @param to The address that will receive the gold.\n   * @param value The amount of gold to transfer.\n   * @return Returns true if the transaction succeeds.\n   */\n  function _transferGold(address payable to, uint256 value) internal returns (bool) {\n    require(value <= getUnfrozenBalance(), \"Exceeding unfrozen reserves\");\n    to.transfer(value);\n    emit ReserveGoldTransferred(msg.sender, to, value);\n    return true;\n  }\n\n  /**\n   * @notice Transfer unfrozen gold to any address, used for one side of CP-DOTO.\n   * @param to The address that will receive the gold.\n   * @param value The amount of gold to transfer.\n   * @return Returns true if the transaction succeeds.\n   */\n  function transferExchangeGold(address payable to, uint256 value)\n    external\n    onlyRegisteredContract(EXCHANGE_REGISTRY_ID)\n    returns (bool)\n  {\n    return _transferGold(to, value);\n  }\n\n  /**\n   * @notice Returns the tobin tax, recomputing it if it's stale.\n   * @return The tobin tax amount as a fraction.\n   */\n  function getOrComputeTobinTax() external nonReentrant returns (uint256, uint256) {\n    // solhint-disable-next-line not-rely-on-time\n    if (now.sub(tobinTaxCache.timestamp) > tobinTaxStalenessThreshold) {\n      tobinTaxCache.numerator = uint128(computeTobinTax().unwrap());\n      tobinTaxCache.timestamp = uint128(now); // solhint-disable-line not-rely-on-time\n    }\n    return (uint256(tobinTaxCache.numerator), FixidityLib.fixed1().unwrap());\n  }\n\n  /**\n   * @notice Returns the list of stabilized token addresses.\n   * @return An array of addresses of stabilized tokens.\n   */\n  function getTokens() external view returns (address[] memory) {\n    return _tokens;\n  }\n\n  /**\n   * @notice Returns the list other addresses included in the reserve total.\n   * @return An array of other addresses included in the reserve total.\n   */\n  function getOtherReserveAddresses() external view returns (address[] memory) {\n    return otherReserveAddresses;\n  }\n\n  /**\n   * @notice Returns a list of token symbols that have been allocated.\n   * @return An array of token symbols that have been allocated.\n   */\n  function getAssetAllocationSymbols() external view returns (bytes32[] memory) {\n    return assetAllocationSymbols;\n  }\n\n  /**\n   * @notice Returns a list of weights used for the allocation of reserve assets.\n   * @return An array of a list of weights used for the allocation of reserve assets.\n   */\n  function getAssetAllocationWeights() external view returns (uint256[] memory) {\n    uint256[] memory weights = new uint256[](assetAllocationSymbols.length);\n    for (uint256 i = 0; i < assetAllocationSymbols.length; i = i.add(1)) {\n      weights[i] = assetAllocationWeights[assetAllocationSymbols[i]];\n    }\n    return weights;\n  }\n\n  /**\n   * @notice Returns the amount of unfrozen Celo Gold in the reserve.\n   * @return The total unfrozen Celo Gold in the reserve.\n   */\n  function getUnfrozenBalance() public view returns (uint256) {\n    uint256 balance = address(this).balance;\n    uint256 frozenReserveGold = getFrozenReserveGoldBalance();\n    return balance > frozenReserveGold ? balance.sub(frozenReserveGold) : 0;\n  }\n\n  /**\n   * @notice Returns the amount of Celo Gold included in the reserve.\n   * @return The Celo Gold amount included in the reserve.\n   */\n  function getReserveGoldBalance() public view returns (uint256) {\n    return address(this).balance.add(getOtherReserveAddressesGoldBalance());\n  }\n\n  /**\n   * @notice Returns the amount of Celo Gold included in other reserve addresses.\n   * @return The Celo Gold amount included in other reserve addresses.\n   */\n  function getOtherReserveAddressesGoldBalance() public view returns (uint256) {\n    uint256 reserveGoldBalance = 0;\n    for (uint256 i = 0; i < otherReserveAddresses.length; i = i.add(1)) {\n      reserveGoldBalance = reserveGoldBalance.add(otherReserveAddresses[i].balance);\n    }\n    return reserveGoldBalance;\n  }\n\n  /**\n   * @notice Returns the amount of unfrozen Celo Gold included in the reserve.\n   * @return The unfrozen Celo Gold amount included in the reserve.\n   */\n  function getUnfrozenReserveGoldBalance() public view returns (uint256) {\n    return getUnfrozenBalance().add(getOtherReserveAddressesGoldBalance());\n  }\n\n  /**\n   * @notice Returns the amount of frozen Celo Gold in the reserve.\n   * @return The total frozen Celo Gold in the reserve.\n   */\n  function getFrozenReserveGoldBalance() public view returns (uint256) {\n    uint256 currentDay = now / 1 days;\n    uint256 frozenDays = currentDay.sub(frozenReserveGoldStartDay);\n    if (frozenDays >= frozenReserveGoldDays) return 0;\n    return\n      frozenReserveGoldStartBalance.sub(\n        frozenReserveGoldStartBalance.mul(frozenDays).div(frozenReserveGoldDays)\n      );\n  }\n\n  /**\n   * @notice Computes the ratio of current reserve balance to total stable token valuation.\n   * @return Reserve ratio in a fixed point format.\n   */\n  function getReserveRatio() public view returns (uint256) {\n    address sortedOraclesAddress = registry.getAddressForOrDie(SORTED_ORACLES_REGISTRY_ID);\n    ISortedOracles sortedOracles = ISortedOracles(sortedOraclesAddress);\n    uint256 reserveGoldBalance = getUnfrozenReserveGoldBalance();\n    uint256 stableTokensValueInGold = 0;\n    FixidityLib.Fraction memory cgldWeight = FixidityLib.wrap(assetAllocationWeights[\"cGLD\"]);\n\n    for (uint256 i = 0; i < _tokens.length; i = i.add(1)) {\n      uint256 stableAmount;\n      uint256 goldAmount;\n      (stableAmount, goldAmount) = sortedOracles.medianRate(_tokens[i]);\n      uint256 stableTokenSupply = IERC20(_tokens[i]).totalSupply();\n      uint256 aStableTokenValueInGold = stableTokenSupply.mul(goldAmount).div(stableAmount);\n      stableTokensValueInGold = stableTokensValueInGold.add(aStableTokenValueInGold);\n    }\n    return\n      FixidityLib\n        .newFixed(reserveGoldBalance)\n        .divide(cgldWeight)\n        .divide(FixidityLib.newFixed(stableTokensValueInGold))\n        .unwrap();\n  }\n\n  /*\n   * Internal functions\n   */\n\n  /**\n   * @notice Computes a tobin tax based on the reserve ratio.\n   * @return The numerator of the tobin tax amount, where the denominator is 1000.\n   */\n  function computeTobinTax() private view returns (FixidityLib.Fraction memory) {\n    // The protocol calls for a 0.5% transfer tax on Celo Gold when the reserve ratio <= 2.\n    FixidityLib.Fraction memory ratio = FixidityLib.wrap(getReserveRatio());\n    if (ratio.gte(FixidityLib.newFixed(2))) {\n      return FixidityLib.wrap(0);\n    } else {\n      return FixidityLib.wrap(TOBIN_TAX_NUMERATOR);\n    }\n  }\n}\n",
  "sourcePath": "/Users/cmcewen/celo/celo-monorepo/packages/protocol/contracts/stability/Reserve.sol",
  "compiler": {
    "name": "solc",
    "version": "0.5.8+commit.23d335f2.Emscripten.clang"
  },
  "schemaVersion": "3.0.10",
  "updatedAt": "2020-04-09T23:47:18.200Z",
  "devdoc": {
    "methods": {
      "addOtherReserveAddress(address)": {
        "params": {
          "reserveAddress": "The reserve address to add."
        },
        "return": "Returns true if the transaction succeeds."
      },
      "addSpender(address)": {
        "params": {
          "spender": "The address that is allowed to spend Reserve funds."
        }
      },
      "addToken(address)": {
        "params": {
          "token": "The address of the token being stabilized."
        },
        "return": "Returns true if the transaction succeeds."
      },
      "getAssetAllocationSymbols()": {
        "return": "An array of token symbols that have been allocated."
      },
      "getAssetAllocationWeights()": {
        "return": "An array of a list of weights used for the allocation of reserve assets."
      },
      "getDailySpendingRatio()": {
        "return": "Spending ratio as unwrapped Fraction."
      },
      "getFrozenReserveGoldBalance()": {
        "return": "The total frozen Celo Gold in the reserve."
      },
      "getOrComputeTobinTax()": {
        "return": "The tobin tax amount as a fraction."
      },
      "getOtherReserveAddresses()": {
        "return": "An array of other addresses included in the reserve total."
      },
      "getOtherReserveAddressesGoldBalance()": {
        "return": "The Celo Gold amount included in other reserve addresses."
      },
      "getReserveGoldBalance()": {
        "return": "The Celo Gold amount included in the reserve."
      },
      "getReserveRatio()": {
        "return": "Reserve ratio in a fixed point format."
      },
      "getTokens()": {
        "return": "An array of addresses of stabilized tokens."
      },
      "getUnfrozenBalance()": {
        "return": "The total unfrozen Celo Gold in the reserve."
      },
      "getUnfrozenReserveGoldBalance()": {
        "return": "The unfrozen Celo Gold amount included in the reserve."
      },
      "initialize(address,uint256,uint256,uint256,uint256,bytes32[],uint256[])": {
        "params": {
          "_frozenDays": "The number of days during which the frozen gold thaws.",
          "_frozenGold": "The balance of reserve gold that is frozen.",
          "_tobinTaxStalenessThreshold": "The initial number of seconds to cache tobin tax value for.",
          "registryAddress": "The address of the registry core smart contract."
        }
      },
      "isOwner()": {
        "details": "Returns true if the caller is the current owner."
      },
      "owner()": {
        "details": "Returns the address of the current owner."
      },
      "removeOtherReserveAddress(address,uint256)": {
        "params": {
          "index": "The index of the reserve address in otherReserveAddresses.",
          "reserveAddress": "The reserve address to remove."
        },
        "return": "Returns true if the transaction succeeds."
      },
      "removeSpender(address)": {
        "params": {
          "spender": "The address that is to be no longer allowed to spend Reserve funds."
        }
      },
      "removeToken(address,uint256)": {
        "params": {
          "index": "The index of the token in _tokens.",
          "token": "The address of the token no longer being stabilized."
        },
        "return": "Returns true if the transaction succeeds."
      },
      "renounceOwnership()": {
        "details": "Leaves the contract without owner. It will not be possible to call `onlyOwner` functions anymore. Can only be called by the current owner.     * NOTE: Renouncing ownership will leave the contract without an owner, thereby removing any functionality that is only available to the owner."
      },
      "setAssetAllocations(bytes32[],uint256[])": {
        "params": {
          "symbols": "The symbol of each asset in the Reserve portfolio.",
          "weights": "The weight for the corresponding asset as unwrapped Fixidity.Fraction."
        }
      },
      "setDailySpendingRatio(uint256)": {
        "params": {
          "ratio": "Spending ratio as unwrapped Fraction."
        }
      },
      "setFrozenGold(uint256,uint256)": {
        "params": {
          "frozenDays": "The number of days the frozen cGLD thaws over.",
          "frozenGold": "The amount of cGLD frozen."
        }
      },
      "setRegistry(address)": {
        "params": {
          "registryAddress": "The address of a registry contract for routing to other contracts."
        }
      },
      "setTobinTaxStalenessThreshold(uint256)": {
        "params": {
          "value": "The number of seconds to cache the tobin tax value for."
        }
      },
      "transferExchangeGold(address,uint256)": {
        "params": {
          "to": "The address that will receive the gold.",
          "value": "The amount of gold to transfer."
        },
        "return": "Returns true if the transaction succeeds."
      },
      "transferGold(address,uint256)": {
        "params": {
          "to": "The address that will receive the gold.",
          "value": "The amount of gold to transfer."
        },
        "return": "Returns true if the transaction succeeds."
      },
      "transferOwnership(address)": {
        "details": "Transfers ownership of the contract to a new account (`newOwner`). Can only be called by the current owner."
      }
    },
    "title": "Ensures price stability of StableTokens with respect to their pegs"
  },
  "userdoc": {
    "methods": {
      "addOtherReserveAddress(address)": {
        "notice": "Add a reserve address whose balance shall be included in the reserve ratio."
      },
      "addSpender(address)": {
        "notice": "Gives an address permission to spend Reserve funds."
      },
      "addToken(address)": {
        "notice": "Add a token that the reserve will stabilize."
      },
      "getAssetAllocationSymbols()": {
        "notice": "Returns a list of token symbols that have been allocated."
      },
      "getAssetAllocationWeights()": {
        "notice": "Returns a list of weights used for the allocation of reserve assets."
      },
      "getDailySpendingRatio()": {
        "notice": "Get daily spending ratio."
      },
      "getFrozenReserveGoldBalance()": {
        "notice": "Returns the amount of frozen Celo Gold in the reserve."
      },
      "getOrComputeTobinTax()": {
        "notice": "Returns the tobin tax, recomputing it if it's stale."
      },
      "getOtherReserveAddresses()": {
        "notice": "Returns the list other addresses included in the reserve total."
      },
      "getOtherReserveAddressesGoldBalance()": {
        "notice": "Returns the amount of Celo Gold included in other reserve addresses."
      },
      "getReserveGoldBalance()": {
        "notice": "Returns the amount of Celo Gold included in the reserve."
      },
      "getReserveRatio()": {
        "notice": "Computes the ratio of current reserve balance to total stable token valuation."
      },
      "getTokens()": {
        "notice": "Returns the list of stabilized token addresses."
      },
      "getUnfrozenBalance()": {
        "notice": "Returns the amount of unfrozen Celo Gold in the reserve."
      },
      "getUnfrozenReserveGoldBalance()": {
        "notice": "Returns the amount of unfrozen Celo Gold included in the reserve."
      },
      "initialize(address,uint256,uint256,uint256,uint256,bytes32[],uint256[])": {
        "notice": "Used in place of the constructor to allow the contract to be upgradable via proxy."
      },
      "removeOtherReserveAddress(address,uint256)": {
        "notice": "Remove reserve address whose balance shall no longer be included in the reserve ratio."
      },
      "removeSpender(address)": {
        "notice": "Takes away an address's permission to spend Reserve funds."
      },
      "removeToken(address,uint256)": {
        "notice": "Remove a token that the reserve will no longer stabilize."
      },
      "setAssetAllocations(bytes32[],uint256[])": {
        "notice": "Sets target allocations for Celo Gold and a diversified basket of non-Celo assets."
      },
      "setDailySpendingRatio(uint256)": {
        "notice": "Set the ratio of reserve that is spendable per day."
      },
      "setFrozenGold(uint256,uint256)": {
        "notice": "Sets the balance of reserve gold frozen from transfer."
      },
      "setRegistry(address)": {
        "notice": "Updates the address pointing to a Registry contract."
      },
      "setTobinTaxStalenessThreshold(uint256)": {
        "notice": "Sets the number of seconds to cache the tobin tax value for."
      },
      "transferExchangeGold(address,uint256)": {
        "notice": "Transfer unfrozen gold to any address, used for one side of CP-DOTO."
      },
      "transferGold(address,uint256)": {
        "notice": "Transfer gold to a whitelisted address subject to reserve spending limits."
      }
    }
  }
}