{
  "contractName": "Signatures",
  "abi": [
    {
      "constant": true,
      "inputs": [
        {
          "name": "message",
          "type": "address"
        },
        {
          "name": "v",
          "type": "uint8"
        },
        {
          "name": "r",
          "type": "bytes32"
        },
        {
          "name": "s",
          "type": "bytes32"
        }
      ],
      "name": "getSignerOfAddress",
      "outputs": [
        {
          "name": "",
          "type": "address"
        }
      ],
      "payable": false,
      "stateMutability": "pure",
      "type": "function"
    },
    {
      "constant": true,
      "inputs": [
        {
          "name": "messageHash",
          "type": "bytes32"
        },
        {
          "name": "v",
          "type": "uint8"
        },
        {
          "name": "r",
          "type": "bytes32"
        },
        {
          "name": "s",
          "type": "bytes32"
        }
      ],
      "name": "getSignerOfMessageHash",
      "outputs": [
        {
          "name": "",
          "type": "address"
        }
      ],
      "payable": false,
      "stateMutability": "pure",
      "type": "function"
    }
  ],
  "bytecode": "0x6103e3610026600b82828239805160001a60731461001957fe5b30600052607381538281f3fe73000000000000000000000000000000000000000030146080604052600436106100405760003560e01c806396ef41a114610045578063b3abdb0c146100ea575b600080fd5b6100a86004803603608081101561005b57600080fd5b81019080803573ffffffffffffffffffffffffffffffffffffffff169060200190929190803560ff1690602001909291908035906020019092919080359060200190929190505050610179565b604051808273ffffffffffffffffffffffffffffffffffffffff1673ffffffffffffffffffffffffffffffffffffffff16815260200191505060405180910390f35b6101376004803603608081101561010057600080fd5b8101908080359060200190929190803560ff16906020019092919080359060200190929190803590602001909291905050506101eb565b604051808273ffffffffffffffffffffffffffffffffffffffff1673ffffffffffffffffffffffffffffffffffffffff16815260200191505060405180910390f35b60008085604051602001808273ffffffffffffffffffffffffffffffffffffffff1673ffffffffffffffffffffffffffffffffffffffff1660601b81526014019150506040516020818303038152906040528051906020012090506101e0818686866101eb565b915050949350505050565b6000606060416040519080825280601f01601f1916602001820160405280156102235781602001600182028038833980820191505090505b50905083602082015282604082015284606082015360006102438761025b565b905061024f81836102b3565b92505050949350505050565b60008160405160200180807f19457468657265756d205369676e6564204d6573736167653a0a333200000000815250601c01828152602001915050604051602081830303815290604052805190602001209050919050565b600060418251146102c757600090506103b1565b60008060006020850151925060408501519150606085015160001a90507f7fffffffffffffffffffffffffffffff5d576e7357a4501ddfe92f46681b20a08260001c111561031b57600093505050506103b1565b601b8160ff16141580156103335750601c8160ff1614155b1561034457600093505050506103b1565b60018682858560405160008152602001604052604051808581526020018460ff1660ff1681526020018381526020018281526020019450505050506020604051602081039080840390855afa1580156103a1573d6000803e3d6000fd5b5050506020604051035193505050505b9291505056fea165627a7a72305820bff3620b976fc4a90dc924b411a8ee77ff02b88dfd878480a2ca78519f76e3320029",
  "source": "pragma solidity ^0.5.3;\n\nimport \"openzeppelin-solidity/contracts/cryptography/ECDSA.sol\";\n\nlibrary Signatures {\n  /**\n  * @notice Given a signed address, returns the signer of the address.\n  * @param message The address that was signed.\n  * @param v The recovery id of the incoming ECDSA signature.\n  * @param r Output value r of the ECDSA signature.\n  * @param s Output value s of the ECDSA signature.\n  */\n  function getSignerOfAddress(address message, uint8 v, bytes32 r, bytes32 s)\n    public\n    pure\n    returns (address)\n  {\n    bytes32 hash = keccak256(abi.encodePacked(message));\n    return getSignerOfMessageHash(hash, v, r, s);\n  }\n\n  /**\n  * @notice Given a message hash, returns the signer of the address.\n  * @param messageHash The hash of a message.\n  * @param v The recovery id of the incoming ECDSA signature.\n  * @param r Output value r of the ECDSA signature.\n  * @param s Output value s of the ECDSA signature.\n  */\n  function getSignerOfMessageHash(bytes32 messageHash, uint8 v, bytes32 r, bytes32 s)\n    public\n    pure\n    returns (address)\n  {\n    bytes memory signature = new bytes(65);\n    // Concatenate (r, s, v) into signature.\n    assembly {\n      mstore(add(signature, 32), r)\n      mstore(add(signature, 64), s)\n      mstore8(add(signature, 96), v)\n    }\n    bytes32 prefixedHash = ECDSA.toEthSignedMessageHash(messageHash);\n    return ECDSA.recover(prefixedHash, signature);\n  }\n}\n",
  "sourcePath": "/Users/cmcewen/celo/celo-monorepo/packages/protocol/contracts/common/Signatures.sol",
  "compiler": {
    "name": "solc",
    "version": "0.5.8+commit.23d335f2.Emscripten.clang"
  },
  "schemaVersion": "3.0.10",
  "updatedAt": "2020-04-09T23:12:53.229Z",
  "devdoc": {
    "methods": {
      "getSignerOfAddress(address,uint8,bytes32,bytes32)": {
        "params": {
          "message": "The address that was signed.",
          "r": "Output value r of the ECDSA signature.",
          "s": "Output value s of the ECDSA signature.",
          "v": "The recovery id of the incoming ECDSA signature."
        }
      },
      "getSignerOfMessageHash(bytes32,uint8,bytes32,bytes32)": {
        "params": {
          "messageHash": "The hash of a message.",
          "r": "Output value r of the ECDSA signature.",
          "s": "Output value s of the ECDSA signature.",
          "v": "The recovery id of the incoming ECDSA signature."
        }
      }
    }
  },
  "userdoc": {
    "methods": {
      "getSignerOfAddress(address,uint8,bytes32,bytes32)": {
        "notice": "Given a signed address, returns the signer of the address."
      },
      "getSignerOfMessageHash(bytes32,uint8,bytes32,bytes32)": {
        "notice": "Given a message hash, returns the signer of the address."
      }
    }
  }
}