{
  "contractName": "SortedOracles",
  "abi": [
    {
      "constant": true,
      "inputs": [],
      "name": "initialized",
      "outputs": [
        {
          "name": "",
          "type": "bool"
        }
      ],
      "payable": false,
      "stateMutability": "view",
      "type": "function"
    },
    {
      "constant": true,
      "inputs": [
        {
          "name": "",
          "type": "address"
        },
        {
          "name": "",
          "type": "address"
        }
      ],
      "name": "isOracle",
      "outputs": [
        {
          "name": "",
          "type": "bool"
        }
      ],
      "payable": false,
      "stateMutability": "view",
      "type": "function"
    },
    {
      "constant": true,
      "inputs": [],
      "name": "reportExpirySeconds",
      "outputs": [
        {
          "name": "",
          "type": "uint256"
        }
      ],
      "payable": false,
      "stateMutability": "view",
      "type": "function"
    },
    {
      "constant": false,
      "inputs": [],
      "name": "renounceOwnership",
      "outputs": [],
      "payable": false,
      "stateMutability": "nonpayable",
      "type": "function"
    },
    {
      "constant": true,
      "inputs": [],
      "name": "owner",
      "outputs": [
        {
          "name": "",
          "type": "address"
        }
      ],
      "payable": false,
      "stateMutability": "view",
      "type": "function"
    },
    {
      "constant": true,
      "inputs": [],
      "name": "isOwner",
      "outputs": [
        {
          "name": "",
          "type": "bool"
        }
      ],
      "payable": false,
      "stateMutability": "view",
      "type": "function"
    },
    {
      "constant": true,
      "inputs": [
        {
          "name": "",
          "type": "address"
        },
        {
          "name": "",
          "type": "uint256"
        }
      ],
      "name": "oracles",
      "outputs": [
        {
          "name": "",
          "type": "address"
        }
      ],
      "payable": false,
      "stateMutability": "view",
      "type": "function"
    },
    {
      "constant": false,
      "inputs": [
        {
          "name": "newOwner",
          "type": "address"
        }
      ],
      "name": "transferOwnership",
      "outputs": [],
      "payable": false,
      "stateMutability": "nonpayable",
      "type": "function"
    },
    {
      "anonymous": false,
      "inputs": [
        {
          "indexed": true,
          "name": "token",
          "type": "address"
        },
        {
          "indexed": true,
          "name": "oracleAddress",
          "type": "address"
        }
      ],
      "name": "OracleAdded",
      "type": "event"
    },
    {
      "anonymous": false,
      "inputs": [
        {
          "indexed": true,
          "name": "token",
          "type": "address"
        },
        {
          "indexed": true,
          "name": "oracleAddress",
          "type": "address"
        }
      ],
      "name": "OracleRemoved",
      "type": "event"
    },
    {
      "anonymous": false,
      "inputs": [
        {
          "indexed": true,
          "name": "token",
          "type": "address"
        },
        {
          "indexed": true,
          "name": "oracle",
          "type": "address"
        },
        {
          "indexed": false,
          "name": "timestamp",
          "type": "uint256"
        },
        {
          "indexed": false,
          "name": "value",
          "type": "uint256"
        }
      ],
      "name": "OracleReported",
      "type": "event"
    },
    {
      "anonymous": false,
      "inputs": [
        {
          "indexed": true,
          "name": "token",
          "type": "address"
        },
        {
          "indexed": true,
          "name": "oracle",
          "type": "address"
        }
      ],
      "name": "OracleReportRemoved",
      "type": "event"
    },
    {
      "anonymous": false,
      "inputs": [
        {
          "indexed": true,
          "name": "token",
          "type": "address"
        },
        {
          "indexed": false,
          "name": "value",
          "type": "uint256"
        }
      ],
      "name": "MedianUpdated",
      "type": "event"
    },
    {
      "anonymous": false,
      "inputs": [
        {
          "indexed": false,
          "name": "reportExpiry",
          "type": "uint256"
        }
      ],
      "name": "ReportExpirySet",
      "type": "event"
    },
    {
      "anonymous": false,
      "inputs": [
        {
          "indexed": true,
          "name": "previousOwner",
          "type": "address"
        },
        {
          "indexed": true,
          "name": "newOwner",
          "type": "address"
        }
      ],
      "name": "OwnershipTransferred",
      "type": "event"
    },
    {
      "constant": false,
      "inputs": [
        {
          "name": "_reportExpirySeconds",
          "type": "uint256"
        }
      ],
      "name": "initialize",
      "outputs": [],
      "payable": false,
      "stateMutability": "nonpayable",
      "type": "function"
    },
    {
      "constant": false,
      "inputs": [
        {
          "name": "_reportExpirySeconds",
          "type": "uint256"
        }
      ],
      "name": "setReportExpiry",
      "outputs": [],
      "payable": false,
      "stateMutability": "nonpayable",
      "type": "function"
    },
    {
      "constant": false,
      "inputs": [
        {
          "name": "token",
          "type": "address"
        },
        {
          "name": "oracleAddress",
          "type": "address"
        }
      ],
      "name": "addOracle",
      "outputs": [],
      "payable": false,
      "stateMutability": "nonpayable",
      "type": "function"
    },
    {
      "constant": false,
      "inputs": [
        {
          "name": "token",
          "type": "address"
        },
        {
          "name": "oracleAddress",
          "type": "address"
        },
        {
          "name": "index",
          "type": "uint256"
        }
      ],
      "name": "removeOracle",
      "outputs": [],
      "payable": false,
      "stateMutability": "nonpayable",
      "type": "function"
    },
    {
      "constant": false,
      "inputs": [
        {
          "name": "token",
          "type": "address"
        },
        {
          "name": "n",
          "type": "uint256"
        }
      ],
      "name": "removeExpiredReports",
      "outputs": [],
      "payable": false,
      "stateMutability": "nonpayable",
      "type": "function"
    },
    {
      "constant": true,
      "inputs": [
        {
          "name": "token",
          "type": "address"
        }
      ],
      "name": "isOldestReportExpired",
      "outputs": [
        {
          "name": "",
          "type": "bool"
        },
        {
          "name": "",
          "type": "address"
        }
      ],
      "payable": false,
      "stateMutability": "view",
      "type": "function"
    },
    {
      "constant": false,
      "inputs": [
        {
          "name": "token",
          "type": "address"
        },
        {
          "name": "value",
          "type": "uint256"
        },
        {
          "name": "lesserKey",
          "type": "address"
        },
        {
          "name": "greaterKey",
          "type": "address"
        }
      ],
      "name": "report",
      "outputs": [],
      "payable": false,
      "stateMutability": "nonpayable",
      "type": "function"
    },
    {
      "constant": true,
      "inputs": [
        {
          "name": "token",
          "type": "address"
        }
      ],
      "name": "numRates",
      "outputs": [
        {
          "name": "",
          "type": "uint256"
        }
      ],
      "payable": false,
      "stateMutability": "view",
      "type": "function"
    },
    {
      "constant": true,
      "inputs": [
        {
          "name": "token",
          "type": "address"
        }
      ],
      "name": "medianRate",
      "outputs": [
        {
          "name": "",
          "type": "uint256"
        },
        {
          "name": "",
          "type": "uint256"
        }
      ],
      "payable": false,
      "stateMutability": "view",
      "type": "function"
    },
    {
      "constant": true,
      "inputs": [
        {
          "name": "token",
          "type": "address"
        }
      ],
      "name": "getRates",
      "outputs": [
        {
          "name": "",
          "type": "address[]"
        },
        {
          "name": "",
          "type": "uint256[]"
        },
        {
          "name": "",
          "type": "uint8[]"
        }
      ],
      "payable": false,
      "stateMutability": "view",
      "type": "function"
    },
    {
      "constant": true,
      "inputs": [
        {
          "name": "token",
          "type": "address"
        }
      ],
      "name": "numTimestamps",
      "outputs": [
        {
          "name": "",
          "type": "uint256"
        }
      ],
      "payable": false,
      "stateMutability": "view",
      "type": "function"
    },
    {
      "constant": true,
      "inputs": [
        {
          "name": "token",
          "type": "address"
        }
      ],
      "name": "medianTimestamp",
      "outputs": [
        {
          "name": "",
          "type": "uint256"
        }
      ],
      "payable": false,
      "stateMutability": "view",
      "type": "function"
    },
    {
      "constant": true,
      "inputs": [
        {
          "name": "token",
          "type": "address"
        }
      ],
      "name": "getTimestamps",
      "outputs": [
        {
          "name": "",
          "type": "address[]"
        },
        {
          "name": "",
          "type": "uint256[]"
        },
        {
          "name": "",
          "type": "uint8[]"
        }
      ],
      "payable": false,
      "stateMutability": "view",
      "type": "function"
    },
    {
      "constant": true,
      "inputs": [
        {
          "name": "token",
          "type": "address"
        }
      ],
      "name": "getOracles",
      "outputs": [
        {
          "name": "",
          "type": "address[]"
        }
      ],
      "payable": false,
      "stateMutability": "view",
      "type": "function"
    }
  ],
  "bytecode": "0x608060405260006100146100b760201b60201c565b9050806000806101000a81548173ffffffffffffffffffffffffffffffffffffffff021916908373ffffffffffffffffffffffffffffffffffffffff1602179055508073ffffffffffffffffffffffffffffffffffffffff16600073ffffffffffffffffffffffffffffffffffffffff167f8be0079c531659141344cd1fd0a4f28419497f9722a3daafe3b4186f6b6457e060405160405180910390a3506100bf565b600033905090565b61388e80620000cf6000396000f3fe608060405234801561001057600080fd5b50600436106101425760003560e01c80638f32d59b116100b8578063ebc1d6bb1161007c578063ebc1d6bb14610844578063ef90e1b014610872578063f0ca4adb146108d1578063f2fde38b14610935578063fe4b84df14610979578063ffe736bf146109a757610142565b80638f32d59b146105c5578063a00a8b2c146105e7578063b929215814610675578063bbc66a941461079e578063dd34ca3b146107f657610142565b806353a572971161010a57806353a57297146103845780636dd6ef0c146103f2578063715018a61461044a57806380e50744146104545780638da5cb5b146104e25780638e7492811461052c57610142565b806302f55b6114610147578063071b48fc14610270578063158ef93e146102c8578063370c998e146102ea578063493a353c14610366575b600080fd5b6101896004803603602081101561015d57600080fd5b81019080803573ffffffffffffffffffffffffffffffffffffffff169060200190929190505050610a36565b60405180806020018060200180602001848103845287818151815260200191508051906020019060200280838360005b838110156101d45780820151818401526020810190506101b9565b50505050905001848103835286818151815260200191508051906020019060200280838360005b838110156102165780820151818401526020810190506101fb565b50505050905001848103825285818151815260200191508051906020019060200280838360005b8381101561025857808201518184015260208101905061023d565b50505050905001965050505050505060405180910390f35b6102b26004803603602081101561028657600080fd5b81019080803573ffffffffffffffffffffffffffffffffffffffff169060200190929190505050610c06565b6040518082815260200191505060405180910390f35b6102d0610cd9565b604051808215151515815260200191505060405180910390f35b61034c6004803603604081101561030057600080fd5b81019080803573ffffffffffffffffffffffffffffffffffffffff169060200190929190803573ffffffffffffffffffffffffffffffffffffffff169060200190929190505050610cec565b604051808215151515815260200191505060405180910390f35b61036e610d1b565b6040518082815260200191505060405180910390f35b6103f06004803603606081101561039a57600080fd5b81019080803573ffffffffffffffffffffffffffffffffffffffff169060200190929190803573ffffffffffffffffffffffffffffffffffffffff16906020019092919080359060200190929190505050610d21565b005b6104346004803603602081101561040857600080fd5b81019080803573ffffffffffffffffffffffffffffffffffffffff16906020019092919050505061125d565b6040518082815260200191505060405180910390f35b610452611330565b005b6104e06004803603608081101561046a57600080fd5b81019080803573ffffffffffffffffffffffffffffffffffffffff16906020019092919080359060200190929190803573ffffffffffffffffffffffffffffffffffffffff169060200190929190803573ffffffffffffffffffffffffffffffffffffffff169060200190929190505050611469565b005b6104ea611e40565b604051808273ffffffffffffffffffffffffffffffffffffffff1673ffffffffffffffffffffffffffffffffffffffff16815260200191505060405180910390f35b61056e6004803603602081101561054257600080fd5b81019080803573ffffffffffffffffffffffffffffffffffffffff169060200190929190505050611e69565b6040518080602001828103825283818151815260200191508051906020019060200280838360005b838110156105b1578082015181840152602081019050610596565b505050509050019250505060405180910390f35b6105cd611f36565b604051808215151515815260200191505060405180910390f35b610633600480360360408110156105fd57600080fd5b81019080803573ffffffffffffffffffffffffffffffffffffffff16906020019092919080359060200190929190505050611f94565b604051808273ffffffffffffffffffffffffffffffffffffffff1673ffffffffffffffffffffffffffffffffffffffff16815260200191505060405180910390f35b6106b76004803603602081101561068b57600080fd5b81019080803573ffffffffffffffffffffffffffffffffffffffff169060200190929190505050611fdf565b60405180806020018060200180602001848103845287818151815260200191508051906020019060200280838360005b838110156107025780820151818401526020810190506106e7565b50505050905001848103835286818151815260200191508051906020019060200280838360005b83811015610744578082015181840152602081019050610729565b50505050905001848103825285818151815260200191508051906020019060200280838360005b8381101561078657808201518184015260208101905061076b565b50505050905001965050505050505060405180910390f35b6107e0600480360360208110156107b457600080fd5b81019080803573ffffffffffffffffffffffffffffffffffffffff1690602001909291905050506121af565b6040518082815260200191505060405180910390f35b6108426004803603604081101561080c57600080fd5b81019080803573ffffffffffffffffffffffffffffffffffffffff16906020019092919080359060200190929190505050612282565b005b6108706004803603602081101561085a57600080fd5b8101908080359060200190929190505050612438565b005b6108b46004803603602081101561088857600080fd5b81019080803573ffffffffffffffffffffffffffffffffffffffff1690602001909291905050506125a7565b604051808381526020018281526020019250505060405180910390f35b610933600480360360408110156108e757600080fd5b81019080803573ffffffffffffffffffffffffffffffffffffffff169060200190929190803573ffffffffffffffffffffffffffffffffffffffff1690602001909291905050506126a0565b005b6109776004803603602081101561094b57600080fd5b81019080803573ffffffffffffffffffffffffffffffffffffffff169060200190929190505050612a02565b005b6109a56004803603602081101561098f57600080fd5b8101908080359060200190929190505050612a88565b005b6109e9600480360360208110156109bd57600080fd5b81019080803573ffffffffffffffffffffffffffffffffffffffff169060200190929190505050612b3b565b60405180831515151581526020018273ffffffffffffffffffffffffffffffffffffffff1673ffffffffffffffffffffffffffffffffffffffff1681526020019250505060405180910390f35b6060806060600160008573ffffffffffffffffffffffffffffffffffffffff1673ffffffffffffffffffffffffffffffffffffffff16815260200190815260200160002073__AddressSortedLinkedListWithMedian_____636cfa387390916040518263ffffffff1660e01b81526004018082815260200191505060006040518083038186803b158015610aca57600080fd5b505af4158015610ade573d6000803e3d6000fd5b505050506040513d6000823e3d601f19601f820116820180604052506060811015610b0857600080fd5b810190808051640100000000811115610b2057600080fd5b82810190506020810184811115610b3657600080fd5b8151856020820283011164010000000082111715610b5357600080fd5b50509291906020018051640100000000811115610b6f57600080fd5b82810190506020810184811115610b8557600080fd5b8151856020820283011164010000000082111715610ba257600080fd5b50509291906020018051640100000000811115610bbe57600080fd5b82810190506020810184811115610bd457600080fd5b8151856020820283011164010000000082111715610bf157600080fd5b50509291905050509250925092509193909250565b6000600260008373ffffffffffffffffffffffffffffffffffffffff1673ffffffffffffffffffffffffffffffffffffffff16815260200190815260200160002073__AddressSortedLinkedListWithMedian_____6359d556a890916040518263ffffffff1660e01b81526004018082815260200191505060206040518083038186803b158015610c9757600080fd5b505af4158015610cab573d6000803e3d6000fd5b505050506040513d6020811015610cc157600080fd5b81019080805190602001909291905050509050919050565b600060149054906101000a900460ff1681565b60036020528160005260406000206020528060005260406000206000915091509054906101000a900460ff1681565b60055481565b610d29611f36565b610d9b576040517f08c379a00000000000000000000000000000000000000000000000000000000081526004018080602001828103825260208152602001807f4f776e61626c653a2063616c6c6572206973206e6f7420746865206f776e657281525060200191505060405180910390fd5b600073ffffffffffffffffffffffffffffffffffffffff168373ffffffffffffffffffffffffffffffffffffffff1614158015610e055750600073ffffffffffffffffffffffffffffffffffffffff168273ffffffffffffffffffffffffffffffffffffffff1614155b8015610e52575080600460008573ffffffffffffffffffffffffffffffffffffffff1673ffffffffffffffffffffffffffffffffffffffff16815260200190815260200160002080549050115b8015610efd57508173ffffffffffffffffffffffffffffffffffffffff16600460008573ffffffffffffffffffffffffffffffffffffffff1673ffffffffffffffffffffffffffffffffffffffff1681526020019081526020016000208281548110610eba57fe5b9060005260206000200160009054906101000a900473ffffffffffffffffffffffffffffffffffffffff1673ffffffffffffffffffffffffffffffffffffffff16145b610f52576040517f08c379a00000000000000000000000000000000000000000000000000000000081526004018080602001828103825260568152602001806137496056913960600191505060405180910390fd5b6000600360008573ffffffffffffffffffffffffffffffffffffffff1673ffffffffffffffffffffffffffffffffffffffff16815260200190815260200160002060008473ffffffffffffffffffffffffffffffffffffffff1673ffffffffffffffffffffffffffffffffffffffff16815260200190815260200160002060006101000a81548160ff021916908315150217905550600460008473ffffffffffffffffffffffffffffffffffffffff1673ffffffffffffffffffffffffffffffffffffffff16815260200190815260200160002061107c6001600460008773ffffffffffffffffffffffffffffffffffffffff1673ffffffffffffffffffffffffffffffffffffffff16815260200190815260200160002080549050612d8090919063ffffffff16565b8154811061108657fe5b9060005260206000200160009054906101000a900473ffffffffffffffffffffffffffffffffffffffff16600460008573ffffffffffffffffffffffffffffffffffffffff1673ffffffffffffffffffffffffffffffffffffffff16815260200190815260200160002082815481106110fb57fe5b9060005260206000200160006101000a81548173ffffffffffffffffffffffffffffffffffffffff021916908373ffffffffffffffffffffffffffffffffffffffff1602179055506111996001600460008673ffffffffffffffffffffffffffffffffffffffff1673ffffffffffffffffffffffffffffffffffffffff16815260200190815260200160002080549050612d8090919063ffffffff16565b600460008573ffffffffffffffffffffffffffffffffffffffff1673ffffffffffffffffffffffffffffffffffffffff168152602001908152602001600020816111e3919061369d565b506111ee8383612dca565b156111fe576111fd8383612fd8565b5b8173ffffffffffffffffffffffffffffffffffffffff168373ffffffffffffffffffffffffffffffffffffffff167f6dc84b66cc948d847632b9d829f7cb1cb904fbf2c084554a9bc22ad9d845334060405160405180910390a3505050565b6000600260008373ffffffffffffffffffffffffffffffffffffffff1673ffffffffffffffffffffffffffffffffffffffff16815260200190815260200160002073__AddressSortedLinkedListWithMedian_____636eafa6c390916040518263ffffffff1660e01b81526004018082815260200191505060206040518083038186803b1580156112ee57600080fd5b505af4158015611302573d6000803e3d6000fd5b505050506040513d602081101561131857600080fd5b81019080805190602001909291905050509050919050565b611338611f36565b6113aa576040517f08c379a00000000000000000000000000000000000000000000000000000000081526004018080602001828103825260208152602001807f4f776e61626c653a2063616c6c6572206973206e6f7420746865206f776e657281525060200191505060405180910390fd5b600073ffffffffffffffffffffffffffffffffffffffff166000809054906101000a900473ffffffffffffffffffffffffffffffffffffffff1673ffffffffffffffffffffffffffffffffffffffff167f8be0079c531659141344cd1fd0a4f28419497f9722a3daafe3b4186f6b6457e060405160405180910390a360008060006101000a81548173ffffffffffffffffffffffffffffffffffffffff021916908373ffffffffffffffffffffffffffffffffffffffff160217905550565b83600360008273ffffffffffffffffffffffffffffffffffffffff1673ffffffffffffffffffffffffffffffffffffffff16815260200190815260200160002060003373ffffffffffffffffffffffffffffffffffffffff1673ffffffffffffffffffffffffffffffffffffffff16815260200190815260200160002060009054906101000a900460ff16611549576040517f08c379a00000000000000000000000000000000000000000000000000000000081526004018080602001828103825260278152602001806137f96027913960400191505060405180910390fd5b6000600160008773ffffffffffffffffffffffffffffffffffffffff1673ffffffffffffffffffffffffffffffffffffffff16815260200190815260200160002073__AddressSortedLinkedListWithMedian_____6359d556a890916040518263ffffffff1660e01b81526004018082815260200191505060206040518083038186803b1580156115da57600080fd5b505af41580156115ee573d6000803e3d6000fd5b505050506040513d602081101561160457600080fd5b81019080805190602001909291905050509050600160008773ffffffffffffffffffffffffffffffffffffffff1673ffffffffffffffffffffffffffffffffffffffff16815260200190815260200160002073__AddressSortedLinkedListWithMedian_____6395073a799091336040518363ffffffff1660e01b8152600401808381526020018273ffffffffffffffffffffffffffffffffffffffff1673ffffffffffffffffffffffffffffffffffffffff1681526020019250505060206040518083038186803b1580156116da57600080fd5b505af41580156116ee573d6000803e3d6000fd5b505050506040513d602081101561170457600080fd5b81019080805190602001909291905050501561194557600160008773ffffffffffffffffffffffffffffffffffffffff1673ffffffffffffffffffffffffffffffffffffffff16815260200190815260200160002073__AddressSortedLinkedListWithMedian_____63832a21479091338888886040518663ffffffff1660e01b8152600401808681526020018573ffffffffffffffffffffffffffffffffffffffff1673ffffffffffffffffffffffffffffffffffffffff1681526020018481526020018373ffffffffffffffffffffffffffffffffffffffff1673ffffffffffffffffffffffffffffffffffffffff1681526020018273ffffffffffffffffffffffffffffffffffffffff1673ffffffffffffffffffffffffffffffffffffffff1681526020019550505050505060006040518083038186803b15801561184d57600080fd5b505af4158015611861573d6000803e3d6000fd5b50505050600260008773ffffffffffffffffffffffffffffffffffffffff1673ffffffffffffffffffffffffffffffffffffffff16815260200190815260200160002073__AddressSortedLinkedListWithMedian_____63c1e728e99091336040518363ffffffff1660e01b8152600401808381526020018273ffffffffffffffffffffffffffffffffffffffff1673ffffffffffffffffffffffffffffffffffffffff1681526020019250505060006040518083038186803b15801561192857600080fd5b505af415801561193c573d6000803e3d6000fd5b50505050611a91565b600160008773ffffffffffffffffffffffffffffffffffffffff1673ffffffffffffffffffffffffffffffffffffffff16815260200190815260200160002073__AddressSortedLinkedListWithMedian_____63d4a092729091338888886040518663ffffffff1660e01b8152600401808681526020018573ffffffffffffffffffffffffffffffffffffffff1673ffffffffffffffffffffffffffffffffffffffff1681526020018481526020018373ffffffffffffffffffffffffffffffffffffffff1673ffffffffffffffffffffffffffffffffffffffff1681526020018273ffffffffffffffffffffffffffffffffffffffff1673ffffffffffffffffffffffffffffffffffffffff1681526020019550505050505060006040518083038186803b158015611a7857600080fd5b505af4158015611a8c573d6000803e3d6000fd5b505050505b600260008773ffffffffffffffffffffffffffffffffffffffff1673ffffffffffffffffffffffffffffffffffffffff16815260200190815260200160002073__AddressSortedLinkedListWithMedian_____63d4a0927290913342600260008c73ffffffffffffffffffffffffffffffffffffffff1673ffffffffffffffffffffffffffffffffffffffff16815260200190815260200160002073__AddressSortedLinkedListWithMedian_____630944c59490916040518263ffffffff1660e01b81526004018082815260200191505060206040518083038186803b158015611b7d57600080fd5b505af4158015611b91573d6000803e3d6000fd5b505050506040513d6020811015611ba757600080fd5b810190808051906020019092919050505060006040518663ffffffff1660e01b8152600401808681526020018573ffffffffffffffffffffffffffffffffffffffff1673ffffffffffffffffffffffffffffffffffffffff1681526020018481526020018373ffffffffffffffffffffffffffffffffffffffff1673ffffffffffffffffffffffffffffffffffffffff1681526020018273ffffffffffffffffffffffffffffffffffffffff1673ffffffffffffffffffffffffffffffffffffffff1681526020019550505050505060006040518083038186803b158015611c8e57600080fd5b505af4158015611ca2573d6000803e3d6000fd5b505050503373ffffffffffffffffffffffffffffffffffffffff168673ffffffffffffffffffffffffffffffffffffffff167f7cebb17173a9ed273d2b7538f64395c0ebf352ff743f1cf8ce66b437a61442134288604051808381526020018281526020019250505060405180910390a36000600160008873ffffffffffffffffffffffffffffffffffffffff1673ffffffffffffffffffffffffffffffffffffffff16815260200190815260200160002073__AddressSortedLinkedListWithMedian_____6359d556a890916040518263ffffffff1660e01b81526004018082815260200191505060206040518083038186803b158015611da457600080fd5b505af4158015611db8573d6000803e3d6000fd5b505050506040513d6020811015611dce57600080fd5b81019080805190602001909291905050509050818114611e37578673ffffffffffffffffffffffffffffffffffffffff167fa9981ebfc3b766a742486e898f54959b050a66006dbce1a4155c1f84a08bcf41826040518082815260200191505060405180910390a25b50505050505050565b60008060009054906101000a900473ffffffffffffffffffffffffffffffffffffffff16905090565b6060600460008373ffffffffffffffffffffffffffffffffffffffff1673ffffffffffffffffffffffffffffffffffffffff168152602001908152602001600020805480602002602001604051908101604052809291908181526020018280548015611f2a57602002820191906000526020600020905b8160009054906101000a900473ffffffffffffffffffffffffffffffffffffffff1673ffffffffffffffffffffffffffffffffffffffff1681526020019060010190808311611ee0575b50505050509050919050565b60008060009054906101000a900473ffffffffffffffffffffffffffffffffffffffff1673ffffffffffffffffffffffffffffffffffffffff16611f78613409565b73ffffffffffffffffffffffffffffffffffffffff1614905090565b60046020528160005260406000208181548110611fad57fe5b906000526020600020016000915091509054906101000a900473ffffffffffffffffffffffffffffffffffffffff1681565b6060806060600260008573ffffffffffffffffffffffffffffffffffffffff1673ffffffffffffffffffffffffffffffffffffffff16815260200190815260200160002073__AddressSortedLinkedListWithMedian_____636cfa387390916040518263ffffffff1660e01b81526004018082815260200191505060006040518083038186803b15801561207357600080fd5b505af4158015612087573d6000803e3d6000fd5b505050506040513d6000823e3d601f19601f8201168201806040525060608110156120b157600080fd5b8101908080516401000000008111156120c957600080fd5b828101905060208101848111156120df57600080fd5b81518560208202830111640100000000821117156120fc57600080fd5b5050929190602001805164010000000081111561211857600080fd5b8281019050602081018481111561212e57600080fd5b815185602082028301116401000000008211171561214b57600080fd5b5050929190602001805164010000000081111561216757600080fd5b8281019050602081018481111561217d57600080fd5b815185602082028301116401000000008211171561219a57600080fd5b50509291905050509250925092509193909250565b6000600160008373ffffffffffffffffffffffffffffffffffffffff1673ffffffffffffffffffffffffffffffffffffffff16815260200190815260200160002073__AddressSortedLinkedListWithMedian_____636eafa6c390916040518263ffffffff1660e01b81526004018082815260200191505060206040518083038186803b15801561224057600080fd5b505af4158015612254573d6000803e3d6000fd5b505050506040513d602081101561226a57600080fd5b81019080805190602001909291905050509050919050565b600073ffffffffffffffffffffffffffffffffffffffff168273ffffffffffffffffffffffffffffffffffffffff16141580156123875750600260008373ffffffffffffffffffffffffffffffffffffffff1673ffffffffffffffffffffffffffffffffffffffff16815260200190815260200160002073__AddressSortedLinkedListWithMedian_____636eafa6c390916040518263ffffffff1660e01b81526004018082815260200191505060206040518083038186803b15801561234957600080fd5b505af415801561235d573d6000803e3d6000fd5b505050506040513d602081101561237357600080fd5b810190808051906020019092919050505081105b6123dc576040517f08c379a00000000000000000000000000000000000000000000000000000000081526004018080602001828103825260348152602001806137156034913960400191505060405180910390fd5b60008090505b81811015612433576000806123f685612b3b565b91509150811561240f5761240a8582612fd8565b612416565b5050612433565b505061242c60018261341190919063ffffffff16565b90506123e2565b505050565b612440611f36565b6124b2576040517f08c379a00000000000000000000000000000000000000000000000000000000081526004018080602001828103825260208152602001807f4f776e61626c653a2063616c6c6572206973206e6f7420746865206f776e657281525060200191505060405180910390fd5b6000811161250b576040517f08c379a00000000000000000000000000000000000000000000000000000000081526004018080602001828103825260218152602001806138426021913960400191505060405180910390fd5b600554811415612566576040517f08c379a00000000000000000000000000000000000000000000000000000000081526004018080602001828103825260228152602001806138206022913960400191505060405180910390fd5b806005819055507fc68a9b88effd8a11611ff410efbc83569f0031b7bc70dd455b61344c7f0a042f816040518082815260200191505060405180910390a150565b600080600160008473ffffffffffffffffffffffffffffffffffffffff1673ffffffffffffffffffffffffffffffffffffffff16815260200190815260200160002073__AddressSortedLinkedListWithMedian_____6359d556a890916040518263ffffffff1660e01b81526004018082815260200191505060206040518083038186803b15801561263957600080fd5b505af415801561264d573d6000803e3d6000fd5b505050506040513d602081101561266357600080fd5b8101908080519060200190929190505050600061267f856121af565b146126945769d3c21bcecceda1000000612697565b60005b91509150915091565b6126a8611f36565b61271a576040517f08c379a00000000000000000000000000000000000000000000000000000000081526004018080602001828103825260208152602001807f4f776e61626c653a2063616c6c6572206973206e6f7420746865206f776e657281525060200191505060405180910390fd5b600073ffffffffffffffffffffffffffffffffffffffff168273ffffffffffffffffffffffffffffffffffffffff16141580156127845750600073ffffffffffffffffffffffffffffffffffffffff168173ffffffffffffffffffffffffffffffffffffffff1614155b80156128175750600360008373ffffffffffffffffffffffffffffffffffffffff1673ffffffffffffffffffffffffffffffffffffffff16815260200190815260200160002060008273ffffffffffffffffffffffffffffffffffffffff1673ffffffffffffffffffffffffffffffffffffffff16815260200190815260200160002060009054906101000a900460ff16155b61286c576040517f08c379a000000000000000000000000000000000000000000000000000000000815260040180806020018281038252605a81526020018061379f605a913960600191505060405180910390fd5b6001600360008473ffffffffffffffffffffffffffffffffffffffff1673ffffffffffffffffffffffffffffffffffffffff16815260200190815260200160002060008373ffffffffffffffffffffffffffffffffffffffff1673ffffffffffffffffffffffffffffffffffffffff16815260200190815260200160002060006101000a81548160ff021916908315150217905550600460008373ffffffffffffffffffffffffffffffffffffffff1673ffffffffffffffffffffffffffffffffffffffff1681526020019081526020016000208190806001815401808255809150509060018203906000526020600020016000909192909190916101000a81548173ffffffffffffffffffffffffffffffffffffffff021916908373ffffffffffffffffffffffffffffffffffffffff160217905550508073ffffffffffffffffffffffffffffffffffffffff168273ffffffffffffffffffffffffffffffffffffffff167f828d2be040dede7698182e08dfa8bfbd663c879aee772509c4a2bd961d0ed43f60405160405180910390a35050565b612a0a611f36565b612a7c576040517f08c379a00000000000000000000000000000000000000000000000000000000081526004018080602001828103825260208152602001807f4f776e61626c653a2063616c6c6572206973206e6f7420746865206f776e657281525060200191505060405180910390fd5b612a8581613499565b50565b600060149054906101000a900460ff1615612b0b576040517f08c379a000000000000000000000000000000000000000000000000000000000815260040180806020018281038252601c8152602001807f636f6e747261637420616c726561647920696e697469616c697a65640000000081525060200191505060405180910390fd5b6001600060146101000a81548160ff021916908315150217905550612b2f33613499565b612b3881612438565b50565b600080600073ffffffffffffffffffffffffffffffffffffffff168373ffffffffffffffffffffffffffffffffffffffff161415612b7857600080fd5b6000600260008573ffffffffffffffffffffffffffffffffffffffff1673ffffffffffffffffffffffffffffffffffffffff16815260200190815260200160002073__AddressSortedLinkedListWithMedian_____63d938ec7b90916040518263ffffffff1660e01b81526004018082815260200191505060206040518083038186803b158015612c0957600080fd5b505af4158015612c1d573d6000803e3d6000fd5b505050506040513d6020811015612c3357600080fd5b810190808051906020019092919050505090506000600260008673ffffffffffffffffffffffffffffffffffffffff1673ffffffffffffffffffffffffffffffffffffffff16815260200190815260200160002073__AddressSortedLinkedListWithMedian_____637c6bb8629091846040518363ffffffff1660e01b8152600401808381526020018273ffffffffffffffffffffffffffffffffffffffff1673ffffffffffffffffffffffffffffffffffffffff1681526020019250505060206040518083038186803b158015612d0b57600080fd5b505af4158015612d1f573d6000803e3d6000fd5b505050506040513d6020811015612d3557600080fd5b81019080805190602001909291905050509050600554612d5e8242612d8090919063ffffffff16565b10612d7157600182935093505050612d7b565b6000829350935050505b915091565b6000612dc283836040518060400160405280601e81526020017f536166654d6174683a207375627472616374696f6e206f766572666c6f7700008152506135dd565b905092915050565b6000600160008473ffffffffffffffffffffffffffffffffffffffff1673ffffffffffffffffffffffffffffffffffffffff16815260200190815260200160002073__AddressSortedLinkedListWithMedian_____6395073a799091846040518363ffffffff1660e01b8152600401808381526020018273ffffffffffffffffffffffffffffffffffffffff1673ffffffffffffffffffffffffffffffffffffffff1681526020019250505060206040518083038186803b158015612e8f57600080fd5b505af4158015612ea3573d6000803e3d6000fd5b505050506040513d6020811015612eb957600080fd5b81019080805190602001909291905050508015612fd05750600260008473ffffffffffffffffffffffffffffffffffffffff1673ffffffffffffffffffffffffffffffffffffffff16815260200190815260200160002073__AddressSortedLinkedListWithMedian_____6395073a799091846040518363ffffffff1660e01b8152600401808381526020018273ffffffffffffffffffffffffffffffffffffffff1673ffffffffffffffffffffffffffffffffffffffff1681526020019250505060206040518083038186803b158015612f9457600080fd5b505af4158015612fa8573d6000803e3d6000fd5b505050506040513d6020811015612fbe57600080fd5b81019080805190602001909291905050505b905092915050565b6001612fe38361125d565b148015612ff65750612ff58282612dca565b5b1561300057613405565b6000600160008473ffffffffffffffffffffffffffffffffffffffff1673ffffffffffffffffffffffffffffffffffffffff16815260200190815260200160002073__AddressSortedLinkedListWithMedian_____6359d556a890916040518263ffffffff1660e01b81526004018082815260200191505060206040518083038186803b15801561309157600080fd5b505af41580156130a5573d6000803e3d6000fd5b505050506040513d60208110156130bb57600080fd5b81019080805190602001909291905050509050600160008473ffffffffffffffffffffffffffffffffffffffff1673ffffffffffffffffffffffffffffffffffffffff16815260200190815260200160002073__AddressSortedLinkedListWithMedian_____63c1e728e99091846040518363ffffffff1660e01b8152600401808381526020018273ffffffffffffffffffffffffffffffffffffffff1673ffffffffffffffffffffffffffffffffffffffff1681526020019250505060006040518083038186803b15801561319157600080fd5b505af41580156131a5573d6000803e3d6000fd5b50505050600260008473ffffffffffffffffffffffffffffffffffffffff1673ffffffffffffffffffffffffffffffffffffffff16815260200190815260200160002073__AddressSortedLinkedListWithMedian_____63c1e728e99091846040518363ffffffff1660e01b8152600401808381526020018273ffffffffffffffffffffffffffffffffffffffff1673ffffffffffffffffffffffffffffffffffffffff1681526020019250505060006040518083038186803b15801561326c57600080fd5b505af4158015613280573d6000803e3d6000fd5b505050508173ffffffffffffffffffffffffffffffffffffffff168373ffffffffffffffffffffffffffffffffffffffff167fe21a44017b6fa1658d84e937d56ff408501facdb4ff7427c479ac460d76f789360405160405180910390a36000600160008573ffffffffffffffffffffffffffffffffffffffff1673ffffffffffffffffffffffffffffffffffffffff16815260200190815260200160002073__AddressSortedLinkedListWithMedian_____6359d556a890916040518263ffffffff1660e01b81526004018082815260200191505060206040518083038186803b15801561336f57600080fd5b505af4158015613383573d6000803e3d6000fd5b505050506040513d602081101561339957600080fd5b81019080805190602001909291905050509050818114613402578373ffffffffffffffffffffffffffffffffffffffff167fa9981ebfc3b766a742486e898f54959b050a66006dbce1a4155c1f84a08bcf41826040518082815260200191505060405180910390a25b50505b5050565b600033905090565b60008082840190508381101561348f576040517f08c379a000000000000000000000000000000000000000000000000000000000815260040180806020018281038252601b8152602001807f536166654d6174683a206164646974696f6e206f766572666c6f77000000000081525060200191505060405180910390fd5b8091505092915050565b600073ffffffffffffffffffffffffffffffffffffffff168173ffffffffffffffffffffffffffffffffffffffff16141561351f576040517f08c379a00000000000000000000000000000000000000000000000000000000081526004018080602001828103825260268152602001806136ef6026913960400191505060405180910390fd5b8073ffffffffffffffffffffffffffffffffffffffff166000809054906101000a900473ffffffffffffffffffffffffffffffffffffffff1673ffffffffffffffffffffffffffffffffffffffff167f8be0079c531659141344cd1fd0a4f28419497f9722a3daafe3b4186f6b6457e060405160405180910390a3806000806101000a81548173ffffffffffffffffffffffffffffffffffffffff021916908373ffffffffffffffffffffffffffffffffffffffff16021790555050565b600083831115829061368a576040517f08c379a00000000000000000000000000000000000000000000000000000000081526004018080602001828103825283818151815260200191508051906020019080838360005b8381101561364f578082015181840152602081019050613634565b50505050905090810190601f16801561367c5780820380516001836020036101000a031916815260200191505b509250505060405180910390fd5b5060008385039050809150509392505050565b8154818355818111156136c4578183600052602060002091820191016136c391906136c9565b5b505050565b6136eb91905b808211156136e75760008160009055506001016136cf565b5090565b9056fe4f776e61626c653a206e6577206f776e657220697320746865207a65726f2061646472657373746f6b656e2061646472206e756c6c206f7220747279696e6720746f2072656d6f766520746f6f206d616e79207265706f727473746f6b656e2061646472206e756c6c206f72206f7261636c652061646472206e756c6c206f7220696e646578206f6620746f6b656e206f7261636c65206e6f74206d617070656420746f206f7261636c652061646472746f6b656e206164647220776173206e756c6c206f72206f7261636c65206164647220776173206e756c6c206f72206f7261636c652061646472206973206e6f7420616e206f7261636c6520666f7220746f6b656e206164647273656e64657220776173206e6f7420616e206f7261636c6520666f7220746f6b656e20616464727265706f72744578706972795365636f6e6473206861736e2774206368616e6765647265706f727420657870697279207365636f6e6473206d757374206265203e2030a165627a7a72305820ddeb45240503f26548f2a56e1ed26be641eb37d8b9d6c3aee7f4ef8920c1444f0029",
  "source": "pragma solidity ^0.5.3;\n\nimport \"openzeppelin-solidity/contracts/math/SafeMath.sol\";\nimport \"openzeppelin-solidity/contracts/ownership/Ownable.sol\";\nimport \"./interfaces/ISortedOracles.sol\";\nimport \"../common/FixidityLib.sol\";\nimport \"../common/Initializable.sol\";\nimport \"../common/linkedlists/AddressSortedLinkedListWithMedian.sol\";\nimport \"../common/linkedlists/SortedLinkedListWithMedian.sol\";\n\n/**\n * @title Maintains a sorted list of oracle exchange rates between Celo Gold and other currencies.\n */\ncontract SortedOracles is ISortedOracles, Ownable, Initializable {\n  using SafeMath for uint256;\n  using AddressSortedLinkedListWithMedian for SortedLinkedListWithMedian.List;\n  using FixidityLib for FixidityLib.Fraction;\n\n  uint256 private constant FIXED1_UINT = 1000000000000000000000000;\n\n  // Maps a token address to a sorted list of report values.\n  mapping(address => SortedLinkedListWithMedian.List) private rates;\n  // Maps a token address to a sorted list of report timestamps.\n  mapping(address => SortedLinkedListWithMedian.List) private timestamps;\n  mapping(address => mapping(address => bool)) public isOracle;\n  mapping(address => address[]) public oracles;\n\n  uint256 public reportExpirySeconds;\n\n  event OracleAdded(address indexed token, address indexed oracleAddress);\n  event OracleRemoved(address indexed token, address indexed oracleAddress);\n  event OracleReported(\n    address indexed token,\n    address indexed oracle,\n    uint256 timestamp,\n    uint256 value\n  );\n  event OracleReportRemoved(address indexed token, address indexed oracle);\n  event MedianUpdated(address indexed token, uint256 value);\n  event ReportExpirySet(uint256 reportExpiry);\n\n  modifier onlyOracle(address token) {\n    require(isOracle[token][msg.sender], \"sender was not an oracle for token addr\");\n    _;\n  }\n\n  /**\n   * @notice Used in place of the constructor to allow the contract to be upgradable via proxy.\n   * @param _reportExpirySeconds The number of seconds before a report is considered expired.\n   */\n  function initialize(uint256 _reportExpirySeconds) external initializer {\n    _transferOwnership(msg.sender);\n    setReportExpiry(_reportExpirySeconds);\n  }\n\n  /**\n   * @notice Sets the report expiry parameter.\n   * @param _reportExpirySeconds The number of seconds before a report is considered expired.\n   */\n  function setReportExpiry(uint256 _reportExpirySeconds) public onlyOwner {\n    require(_reportExpirySeconds > 0, \"report expiry seconds must be > 0\");\n    require(_reportExpirySeconds != reportExpirySeconds, \"reportExpirySeconds hasn't changed\");\n    reportExpirySeconds = _reportExpirySeconds;\n    emit ReportExpirySet(_reportExpirySeconds);\n  }\n\n  /**\n   * @notice Adds a new Oracle.\n   * @param token The address of the token.\n   * @param oracleAddress The address of the oracle.\n   */\n  function addOracle(address token, address oracleAddress) external onlyOwner {\n    require(\n      token != address(0) && oracleAddress != address(0) && !isOracle[token][oracleAddress],\n      \"token addr was null or oracle addr was null or oracle addr is not an oracle for token addr\"\n    );\n    isOracle[token][oracleAddress] = true;\n    oracles[token].push(oracleAddress);\n    emit OracleAdded(token, oracleAddress);\n  }\n\n  /**\n   * @notice Removes an Oracle.\n   * @param token The address of the token.\n   * @param oracleAddress The address of the oracle.\n   * @param index The index of `oracleAddress` in the list of oracles.\n   */\n  function removeOracle(address token, address oracleAddress, uint256 index) external onlyOwner {\n    require(\n      token != address(0) &&\n        oracleAddress != address(0) &&\n        oracles[token].length > index &&\n        oracles[token][index] == oracleAddress,\n      \"token addr null or oracle addr null or index of token oracle not mapped to oracle addr\"\n    );\n    isOracle[token][oracleAddress] = false;\n    oracles[token][index] = oracles[token][oracles[token].length.sub(1)];\n    oracles[token].length = oracles[token].length.sub(1);\n    if (reportExists(token, oracleAddress)) {\n      removeReport(token, oracleAddress);\n    }\n    emit OracleRemoved(token, oracleAddress);\n  }\n\n  /**\n   * @notice Removes a report that is expired.\n   * @param token The address of the token for which the Celo Gold exchange rate is being reported.\n   * @param n The number of expired reports to remove, at most (deterministic upper gas bound).\n   */\n  function removeExpiredReports(address token, uint256 n) external {\n    require(\n      token != address(0) && n < timestamps[token].getNumElements(),\n      \"token addr null or trying to remove too many reports\"\n    );\n    for (uint256 i = 0; i < n; i = i.add(1)) {\n      (bool isExpired, address oldestAddress) = isOldestReportExpired(token);\n      if (isExpired) {\n        removeReport(token, oldestAddress);\n      } else {\n        break;\n      }\n    }\n  }\n\n  /**\n   * @notice Check if last report is expired.\n   * @param token The address of the token for which the Celo Gold exchange rate is being reported.\n   * @return bool isExpired and the address of the last report\n   */\n  function isOldestReportExpired(address token) public view returns (bool, address) {\n    require(token != address(0));\n    address oldest = timestamps[token].getTail();\n    uint256 timestamp = timestamps[token].getValue(oldest);\n    // solhint-disable-next-line not-rely-on-time\n    if (now.sub(timestamp) >= reportExpirySeconds) {\n      return (true, oldest);\n    }\n    return (false, oldest);\n  }\n\n  /**\n   * @notice Updates an oracle value and the median.\n   * @param token The address of the token for which the Celo Gold exchange rate is being reported.\n   * @param value The amount of `token` equal to one Celo Gold, expressed as a fixidity value.\n   * @param lesserKey The element which should be just left of the new oracle value.\n   * @param greaterKey The element which should be just right of the new oracle value.\n   * @dev Note that only one of `lesserKey` or `greaterKey` needs to be correct to reduce friction.\n   */\n  function report(address token, uint256 value, address lesserKey, address greaterKey)\n    external\n    onlyOracle(token)\n  {\n    uint256 originalMedian = rates[token].getMedianValue();\n    if (rates[token].contains(msg.sender)) {\n      rates[token].update(msg.sender, value, lesserKey, greaterKey);\n\n      // Rather than update the timestamp, we remove it and re-add it at the\n      // head of the list later. The reason for this is that we need to handle\n      // a few different cases:\n      //   1. This oracle is the only one to report so far. lesserKey = address(0)\n      //   2. Other oracles have reported since this one's last report. lesserKey = getHead()\n      //   3. Other oracles have reported, but the most recent is this one.\n      //      lesserKey = key immediately after getHead()\n      //\n      // However, if we just remove this timestamp, timestamps[token].getHead()\n      // does the right thing in all cases.\n      timestamps[token].remove(msg.sender);\n    } else {\n      rates[token].insert(msg.sender, value, lesserKey, greaterKey);\n    }\n    timestamps[token].insert(\n      msg.sender,\n      // solhint-disable-next-line not-rely-on-time\n      now,\n      timestamps[token].getHead(),\n      address(0)\n    );\n    emit OracleReported(token, msg.sender, now, value);\n    uint256 newMedian = rates[token].getMedianValue();\n    if (newMedian != originalMedian) {\n      emit MedianUpdated(token, newMedian);\n    }\n  }\n\n  /**\n   * @notice Returns the number of rates.\n   * @param token The address of the token for which the Celo Gold exchange rate is being reported.\n   * @return The number of reported oracle rates for `token`.\n   */\n  function numRates(address token) public view returns (uint256) {\n    return rates[token].getNumElements();\n  }\n\n  /**\n   * @notice Returns the median rate.\n   * @param token The address of the token for which the Celo Gold exchange rate is being reported.\n   * @return The median exchange rate for `token`.\n   */\n  function medianRate(address token) external view returns (uint256, uint256) {\n    return (rates[token].getMedianValue(), numRates(token) == 0 ? 0 : FIXED1_UINT);\n  }\n\n  /**\n   * @notice Gets all elements from the doubly linked list.\n   * @param token The address of the token for which the Celo Gold exchange rate is being reported.\n   * @return An unpacked list of elements from largest to smallest.\n   */\n  function getRates(address token)\n    external\n    view\n    returns (address[] memory, uint256[] memory, SortedLinkedListWithMedian.MedianRelation[] memory)\n  {\n    return rates[token].getElements();\n  }\n\n  /**\n   * @notice Returns the number of timestamps.\n   * @param token The address of the token for which the Celo Gold exchange rate is being reported.\n   * @return The number of oracle report timestamps for `token`.\n   */\n  function numTimestamps(address token) public view returns (uint256) {\n    return timestamps[token].getNumElements();\n  }\n\n  /**\n   * @notice Returns the median timestamp.\n   * @param token The address of the token for which the Celo Gold exchange rate is being reported.\n   * @return The median report timestamp for `token`.\n   */\n  function medianTimestamp(address token) external view returns (uint256) {\n    return timestamps[token].getMedianValue();\n  }\n\n  /**\n   * @notice Gets all elements from the doubly linked list.\n   * @param token The address of the token for which the Celo Gold exchange rate is being reported.\n   * @return An unpacked list of elements from largest to smallest.\n   */\n  function getTimestamps(address token)\n    external\n    view\n    returns (address[] memory, uint256[] memory, SortedLinkedListWithMedian.MedianRelation[] memory)\n  {\n    return timestamps[token].getElements();\n  }\n\n  /**\n   * @notice Returns whether a report exists on token from oracle.\n   * @param token The address of the token for which the Celo Gold exchange rate is being reported.\n   * @param oracle The oracle whose report should be checked.\n   */\n  function reportExists(address token, address oracle) internal view returns (bool) {\n    return rates[token].contains(oracle) && timestamps[token].contains(oracle);\n  }\n\n  /**\n   * @notice Returns the list of oracles for a particular token.\n   * @param token The address of the token whose oracles should be returned.\n   * @return The list of oracles for a particular token.\n   */\n  function getOracles(address token) external view returns (address[] memory) {\n    return oracles[token];\n  }\n\n  /**\n   * @notice Removes an oracle value and updates the median.\n   * @param token The address of the token for which the Celo Gold exchange rate is being reported.\n   * @param oracle The oracle whose value should be removed.\n   * @dev This can be used to delete elements for oracles that have been removed.\n   * However, a > 1 elements reports list should always be maintained\n   */\n  function removeReport(address token, address oracle) private {\n    if (numTimestamps(token) == 1 && reportExists(token, oracle)) return;\n    uint256 originalMedian = rates[token].getMedianValue();\n    rates[token].remove(oracle);\n    timestamps[token].remove(oracle);\n    emit OracleReportRemoved(token, oracle);\n    uint256 newMedian = rates[token].getMedianValue();\n    if (newMedian != originalMedian) {\n      emit MedianUpdated(token, newMedian);\n    }\n  }\n}\n",
  "sourcePath": "/Users/cmcewen/celo/celo-monorepo/packages/protocol/contracts/stability/SortedOracles.sol",
  "compiler": {
    "name": "solc",
    "version": "0.5.8+commit.23d335f2.Emscripten.clang"
  },
  "schemaVersion": "3.0.10",
  "updatedAt": "2020-04-09T23:47:18.220Z",
  "devdoc": {
    "methods": {
      "addOracle(address,address)": {
        "params": {
          "oracleAddress": "The address of the oracle.",
          "token": "The address of the token."
        }
      },
      "getOracles(address)": {
        "params": {
          "token": "The address of the token whose oracles should be returned."
        },
        "return": "The list of oracles for a particular token."
      },
      "getRates(address)": {
        "params": {
          "token": "The address of the token for which the Celo Gold exchange rate is being reported."
        },
        "return": "An unpacked list of elements from largest to smallest."
      },
      "getTimestamps(address)": {
        "params": {
          "token": "The address of the token for which the Celo Gold exchange rate is being reported."
        },
        "return": "An unpacked list of elements from largest to smallest."
      },
      "initialize(uint256)": {
        "params": {
          "_reportExpirySeconds": "The number of seconds before a report is considered expired."
        }
      },
      "isOldestReportExpired(address)": {
        "params": {
          "token": "The address of the token for which the Celo Gold exchange rate is being reported."
        },
        "return": "bool isExpired and the address of the last report"
      },
      "isOwner()": {
        "details": "Returns true if the caller is the current owner."
      },
      "medianRate(address)": {
        "params": {
          "token": "The address of the token for which the Celo Gold exchange rate is being reported."
        },
        "return": "The median exchange rate for `token`."
      },
      "medianTimestamp(address)": {
        "params": {
          "token": "The address of the token for which the Celo Gold exchange rate is being reported."
        },
        "return": "The median report timestamp for `token`."
      },
      "numRates(address)": {
        "params": {
          "token": "The address of the token for which the Celo Gold exchange rate is being reported."
        },
        "return": "The number of reported oracle rates for `token`."
      },
      "numTimestamps(address)": {
        "params": {
          "token": "The address of the token for which the Celo Gold exchange rate is being reported."
        },
        "return": "The number of oracle report timestamps for `token`."
      },
      "owner()": {
        "details": "Returns the address of the current owner."
      },
      "removeExpiredReports(address,uint256)": {
        "params": {
          "n": "The number of expired reports to remove, at most (deterministic upper gas bound).",
          "token": "The address of the token for which the Celo Gold exchange rate is being reported."
        }
      },
      "removeOracle(address,address,uint256)": {
        "params": {
          "index": "The index of `oracleAddress` in the list of oracles.",
          "oracleAddress": "The address of the oracle.",
          "token": "The address of the token."
        }
      },
      "renounceOwnership()": {
        "details": "Leaves the contract without owner. It will not be possible to call `onlyOwner` functions anymore. Can only be called by the current owner.     * NOTE: Renouncing ownership will leave the contract without an owner, thereby removing any functionality that is only available to the owner."
      },
      "report(address,uint256,address,address)": {
        "details": "Note that only one of `lesserKey` or `greaterKey` needs to be correct to reduce friction.",
        "params": {
          "greaterKey": "The element which should be just right of the new oracle value.",
          "lesserKey": "The element which should be just left of the new oracle value.",
          "token": "The address of the token for which the Celo Gold exchange rate is being reported.",
          "value": "The amount of `token` equal to one Celo Gold, expressed as a fixidity value."
        }
      },
      "setReportExpiry(uint256)": {
        "params": {
          "_reportExpirySeconds": "The number of seconds before a report is considered expired."
        }
      },
      "transferOwnership(address)": {
        "details": "Transfers ownership of the contract to a new account (`newOwner`). Can only be called by the current owner."
      }
    },
    "title": "Maintains a sorted list of oracle exchange rates between Celo Gold and other currencies."
  },
  "userdoc": {
    "methods": {
      "addOracle(address,address)": {
        "notice": "Adds a new Oracle."
      },
      "getOracles(address)": {
        "notice": "Returns the list of oracles for a particular token."
      },
      "getRates(address)": {
        "notice": "Gets all elements from the doubly linked list."
      },
      "getTimestamps(address)": {
        "notice": "Gets all elements from the doubly linked list."
      },
      "initialize(uint256)": {
        "notice": "Used in place of the constructor to allow the contract to be upgradable via proxy."
      },
      "isOldestReportExpired(address)": {
        "notice": "Check if last report is expired."
      },
      "medianRate(address)": {
        "notice": "Returns the median rate."
      },
      "medianTimestamp(address)": {
        "notice": "Returns the median timestamp."
      },
      "numRates(address)": {
        "notice": "Returns the number of rates."
      },
      "numTimestamps(address)": {
        "notice": "Returns the number of timestamps."
      },
      "removeExpiredReports(address,uint256)": {
        "notice": "Removes a report that is expired."
      },
      "removeOracle(address,address,uint256)": {
        "notice": "Removes an Oracle."
      },
      "report(address,uint256,address,address)": {
        "notice": "Updates an oracle value and the median."
      },
      "setReportExpiry(uint256)": {
        "notice": "Sets the report expiry parameter."
      }
    }
  }
}