{
  "contractName": "SortedFractionMedianListTest",
  "abi": [
    {
      "constant": true,
      "inputs": [],
      "name": "list",
      "outputs": [
        {
          "name": "head",
          "type": "address"
        },
        {
          "name": "tail",
          "type": "address"
        },
        {
          "name": "medianKey",
          "type": "address"
        },
        {
          "name": "numElements",
          "type": "uint256"
        }
      ],
      "payable": false,
      "stateMutability": "view",
      "type": "function"
    },
    {
      "constant": false,
      "inputs": [
        {
          "name": "key",
          "type": "address"
        },
        {
          "name": "numerator",
          "type": "uint128"
        },
        {
          "name": "denominator",
          "type": "uint128"
        },
        {
          "name": "lesserKey",
          "type": "address"
        },
        {
          "name": "greaterKey",
          "type": "address"
        }
      ],
      "name": "insert",
      "outputs": [],
      "payable": false,
      "stateMutability": "nonpayable",
      "type": "function"
    },
    {
      "constant": false,
      "inputs": [
        {
          "name": "key",
          "type": "address"
        },
        {
          "name": "numerator",
          "type": "uint128"
        },
        {
          "name": "denominator",
          "type": "uint128"
        },
        {
          "name": "lesserKey",
          "type": "address"
        },
        {
          "name": "greaterKey",
          "type": "address"
        }
      ],
      "name": "update",
      "outputs": [],
      "payable": false,
      "stateMutability": "nonpayable",
      "type": "function"
    },
    {
      "constant": false,
      "inputs": [
        {
          "name": "key",
          "type": "address"
        }
      ],
      "name": "remove",
      "outputs": [],
      "payable": false,
      "stateMutability": "nonpayable",
      "type": "function"
    },
    {
      "constant": true,
      "inputs": [
        {
          "name": "key",
          "type": "address"
        }
      ],
      "name": "contains",
      "outputs": [
        {
          "name": "",
          "type": "bool"
        }
      ],
      "payable": false,
      "stateMutability": "view",
      "type": "function"
    },
    {
      "constant": true,
      "inputs": [],
      "name": "getNumElements",
      "outputs": [
        {
          "name": "",
          "type": "uint256"
        }
      ],
      "payable": false,
      "stateMutability": "view",
      "type": "function"
    },
    {
      "constant": true,
      "inputs": [],
      "name": "getElements",
      "outputs": [
        {
          "name": "",
          "type": "address[]"
        },
        {
          "name": "",
          "type": "uint256[]"
        },
        {
          "name": "",
          "type": "uint256[]"
        },
        {
          "name": "",
          "type": "uint8[]"
        }
      ],
      "payable": false,
      "stateMutability": "view",
      "type": "function"
    },
    {
      "constant": true,
      "inputs": [],
      "name": "head",
      "outputs": [
        {
          "name": "",
          "type": "address"
        }
      ],
      "payable": false,
      "stateMutability": "view",
      "type": "function"
    },
    {
      "constant": true,
      "inputs": [],
      "name": "tail",
      "outputs": [
        {
          "name": "",
          "type": "address"
        }
      ],
      "payable": false,
      "stateMutability": "view",
      "type": "function"
    },
    {
      "constant": true,
      "inputs": [],
      "name": "medianKey",
      "outputs": [
        {
          "name": "",
          "type": "address"
        }
      ],
      "payable": false,
      "stateMutability": "view",
      "type": "function"
    }
  ],
  "bytecode": "0x608060405234801561001057600080fd5b50610cf7806100206000396000f3fe608060405234801561001057600080fd5b506004361061009e5760003560e01c80635f167276116100665780635f16727614610300578063761be1d21461031e5780638f7dcfa3146103da57806391d35ad714610424578063b1a18cc71461046e5761009e565b80630f560cd7146100a357806313d8c8401461015a57806329092d0e146101a4578063507dbc8c146101e85780635dbe47e8146102a4575b600080fd5b6100ab6105a5565b604051808573ffffffffffffffffffffffffffffffffffffffff1673ffffffffffffffffffffffffffffffffffffffff1681526020018473ffffffffffffffffffffffffffffffffffffffff1673ffffffffffffffffffffffffffffffffffffffff1681526020018373ffffffffffffffffffffffffffffffffffffffff1673ffffffffffffffffffffffffffffffffffffffff16815260200182815260200194505050505060405180910390f35b610162610623565b604051808273ffffffffffffffffffffffffffffffffffffffff1673ffffffffffffffffffffffffffffffffffffffff16815260200191505060405180910390f35b6101e6600480360360208110156101ba57600080fd5b81019080803573ffffffffffffffffffffffffffffffffffffffff16906020019092919050505061064f565b005b6102a2600480360360a08110156101fe57600080fd5b81019080803573ffffffffffffffffffffffffffffffffffffffff16906020019092919080356fffffffffffffffffffffffffffffffff16906020019092919080356fffffffffffffffffffffffffffffffff169060200190929190803573ffffffffffffffffffffffffffffffffffffffff169060200190929190803573ffffffffffffffffffffffffffffffffffffffff1690602001909291905050506106f0565b005b6102e6600480360360208110156102ba57600080fd5b81019080803573ffffffffffffffffffffffffffffffffffffffff169060200190929190505050610855565b604051808215151515815260200191505060405180910390f35b61030861091e565b6040518082815260200191505060405180910390f35b6103d8600480360360a081101561033457600080fd5b81019080803573ffffffffffffffffffffffffffffffffffffffff16906020019092919080356fffffffffffffffffffffffffffffffff16906020019092919080356fffffffffffffffffffffffffffffffff169060200190929190803573ffffffffffffffffffffffffffffffffffffffff169060200190929190803573ffffffffffffffffffffffffffffffffffffffff16906020019092919050505061092a565b005b6103e2610a8f565b604051808273ffffffffffffffffffffffffffffffffffffffff1673ffffffffffffffffffffffffffffffffffffffff16815260200191505060405180910390f35b61042c610abb565b604051808273ffffffffffffffffffffffffffffffffffffffff1673ffffffffffffffffffffffffffffffffffffffff16815260200191505060405180910390f35b610476610ae7565b6040518080602001806020018060200180602001858103855289818151815260200191508051906020019060200280838360005b838110156104c55780820151818401526020810190506104aa565b50505050905001858103845288818151815260200191508051906020019060200280838360005b838110156105075780820151818401526020810190506104ec565b50505050905001858103835287818151815260200191508051906020019060200280838360005b8381101561054957808201518184015260208101905061052e565b50505050905001858103825286818151815260200191508051906020019060200280838360005b8381101561058b578082015181840152602081019050610570565b505050509050019850505050505050505060405180910390f35b60008060000160009054906101000a900473ffffffffffffffffffffffffffffffffffffffff16908060010160009054906101000a900473ffffffffffffffffffffffffffffffffffffffff16908060020160009054906101000a900473ffffffffffffffffffffffffffffffffffffffff16908060030154905084565b60008060010160009054906101000a900473ffffffffffffffffffffffffffffffffffffffff16905090565b600073__SortedFractionMedianList______________635cd7eb739091836040518363ffffffff1660e01b8152600401808381526020018273ffffffffffffffffffffffffffffffffffffffff1673ffffffffffffffffffffffffffffffffffffffff1681526020019250505060006040518083038186803b1580156106d557600080fd5b505af41580156106e9573d6000803e3d6000fd5b5050505050565b600073__SortedFractionMedianList______________63d02a843c909187878787876040518763ffffffff1660e01b8152600401808781526020018673ffffffffffffffffffffffffffffffffffffffff1673ffffffffffffffffffffffffffffffffffffffff168152602001856fffffffffffffffffffffffffffffffff166fffffffffffffffffffffffffffffffff168152602001846fffffffffffffffffffffffffffffffff166fffffffffffffffffffffffffffffffff1681526020018373ffffffffffffffffffffffffffffffffffffffff1673ffffffffffffffffffffffffffffffffffffffff1681526020018273ffffffffffffffffffffffffffffffffffffffff1673ffffffffffffffffffffffffffffffffffffffff168152602001965050505050505060006040518083038186803b15801561083657600080fd5b505af415801561084a573d6000803e3d6000fd5b505050505050505050565b60008073__SortedFractionMedianList______________63a073be5f9091846040518363ffffffff1660e01b8152600401808381526020018273ffffffffffffffffffffffffffffffffffffffff1673ffffffffffffffffffffffffffffffffffffffff1681526020019250505060206040518083038186803b1580156108dc57600080fd5b505af41580156108f0573d6000803e3d6000fd5b505050506040513d602081101561090657600080fd5b81019080805190602001909291905050509050919050565b60008060030154905090565b600073__SortedFractionMedianList______________63fb855fd6909187878787876040518763ffffffff1660e01b8152600401808781526020018673ffffffffffffffffffffffffffffffffffffffff1673ffffffffffffffffffffffffffffffffffffffff168152602001856fffffffffffffffffffffffffffffffff166fffffffffffffffffffffffffffffffff168152602001846fffffffffffffffffffffffffffffffff166fffffffffffffffffffffffffffffffff1681526020018373ffffffffffffffffffffffffffffffffffffffff1673ffffffffffffffffffffffffffffffffffffffff1681526020018273ffffffffffffffffffffffffffffffffffffffff1673ffffffffffffffffffffffffffffffffffffffff168152602001965050505050505060006040518083038186803b158015610a7057600080fd5b505af4158015610a84573d6000803e3d6000fd5b505050505050505050565b60008060000160009054906101000a900473ffffffffffffffffffffffffffffffffffffffff16905090565b60008060020160009054906101000a900473ffffffffffffffffffffffffffffffffffffffff16905090565b606080606080600073__SortedFractionMedianList______________63a6fead5c90916040518263ffffffff1660e01b81526004018082815260200191505060006040518083038186803b158015610b3f57600080fd5b505af4158015610b53573d6000803e3d6000fd5b505050506040513d6000823e3d601f19601f820116820180604052506080811015610b7d57600080fd5b810190808051640100000000811115610b9557600080fd5b82810190506020810184811115610bab57600080fd5b8151856020820283011164010000000082111715610bc857600080fd5b50509291906020018051640100000000811115610be457600080fd5b82810190506020810184811115610bfa57600080fd5b8151856020820283011164010000000082111715610c1757600080fd5b50509291906020018051640100000000811115610c3357600080fd5b82810190506020810184811115610c4957600080fd5b8151856020820283011164010000000082111715610c6657600080fd5b50509291906020018051640100000000811115610c8257600080fd5b82810190506020810184811115610c9857600080fd5b8151856020820283011164010000000082111715610cb557600080fd5b505092919050505093509350935093509091929356fea165627a7a72305820df8e98994514eeb2c0441dc1fc7e7f8246b496ffc529d4f865e692e54e61542d0029",
  "source": "pragma solidity ^0.5.8;\n\nimport \"../SortedFractionMedianList.sol\";\n\n\ncontract SortedFractionMedianListTest {\n  using SortedFractionMedianList for SortedFractionMedianList.List;\n\n  SortedFractionMedianList.List public list;\n\n  function insert(\n    address key,\n    uint128 numerator,\n    uint128 denominator,\n    address lesserKey,\n    address greaterKey\n  )\n    external\n  {\n    list.insert(key, numerator, denominator, lesserKey, greaterKey);\n  }\n\n  function update(\n    address key,\n    uint128 numerator,\n    uint128 denominator,\n    address lesserKey,\n    address greaterKey\n  )\n    external\n  {\n    list.update(key, numerator, denominator, lesserKey, greaterKey);\n  }\n\n  function remove(address key) external {\n    list.remove(key);\n  }\n\n  function contains(address key) external view returns (bool) {\n    return list.contains(key);\n  }\n\n  function getNumElements() external view returns (uint256) {\n    return list.numElements;\n  }\n\n  function getElements()\n    external\n    view\n    returns (\n        address[] memory, \n        uint256[] memory, \n        uint256[] memory, \n        SortedFractionMedianList.MedianRelation[] memory\n    )\n  {\n    return list.getElements();\n  }\n\n  function head() external view returns (address) {\n    return list.head;\n  }\n\n  function tail() external view returns (address) {\n    return list.tail;\n  }\n\n  function medianKey() external view returns (address) {\n    return list.medianKey;\n  }\n}\n",
  "sourcePath": "/Users/tim/Celo/celo-monorepo/packages/protocol/contracts/stability/test/SortedFractionMedianListTest.sol",
  "compiler": {
    "name": "solc",
    "version": "0.5.8+commit.23d335f2.Emscripten.clang"
  },
  "schemaVersion": "3.0.9",
  "updatedAt": "2019-08-13T19:31:28.731Z",
  "devdoc": {
    "methods": {}
  },
  "userdoc": {
    "methods": {}
  }
}