{
  "contractName": "StableToken",
  "abi": [
    {
      "constant": true,
      "inputs": [
        {
          "name": "index",
          "type": "uint256"
        }
      ],
      "name": "validatorSignerAddressFromCurrentSet",
      "outputs": [
        {
          "name": "",
          "type": "address"
        }
      ],
      "payable": false,
      "stateMutability": "view",
      "type": "function"
    },
    {
      "constant": true,
      "inputs": [],
      "name": "initialized",
      "outputs": [
        {
          "name": "",
          "type": "bool"
        }
      ],
      "payable": false,
      "stateMutability": "view",
      "type": "function"
    },
    {
      "constant": true,
      "inputs": [
        {
          "name": "sender",
          "type": "address"
        },
        {
          "name": "blsKey",
          "type": "bytes"
        },
        {
          "name": "blsPop",
          "type": "bytes"
        }
      ],
      "name": "checkProofOfPossession",
      "outputs": [
        {
          "name": "",
          "type": "bool"
        }
      ],
      "payable": false,
      "stateMutability": "view",
      "type": "function"
    },
    {
      "constant": true,
      "inputs": [
        {
          "name": "blockNumber",
          "type": "uint256"
        }
      ],
      "name": "getEpochNumberOfBlock",
      "outputs": [
        {
          "name": "",
          "type": "uint256"
        }
      ],
      "payable": false,
      "stateMutability": "view",
      "type": "function"
    },
    {
      "constant": true,
      "inputs": [
        {
          "name": "header",
          "type": "bytes"
        }
      ],
      "name": "getVerifiedSealBitmapFromHeader",
      "outputs": [
        {
          "name": "",
          "type": "bytes32"
        }
      ],
      "payable": false,
      "stateMutability": "view",
      "type": "function"
    },
    {
      "constant": true,
      "inputs": [
        {
          "name": "index",
          "type": "uint256"
        },
        {
          "name": "blockNumber",
          "type": "uint256"
        }
      ],
      "name": "validatorSignerAddressFromSet",
      "outputs": [
        {
          "name": "",
          "type": "address"
        }
      ],
      "payable": false,
      "stateMutability": "view",
      "type": "function"
    },
    {
      "constant": true,
      "inputs": [
        {
          "name": "header",
          "type": "bytes"
        }
      ],
      "name": "hashHeader",
      "outputs": [
        {
          "name": "",
          "type": "bytes32"
        }
      ],
      "payable": false,
      "stateMutability": "view",
      "type": "function"
    },
    {
      "constant": false,
      "inputs": [],
      "name": "renounceOwnership",
      "outputs": [],
      "payable": false,
      "stateMutability": "nonpayable",
      "type": "function"
    },
    {
      "constant": true,
      "inputs": [],
      "name": "minQuorumSizeInCurrentSet",
      "outputs": [
        {
          "name": "",
          "type": "uint256"
        }
      ],
      "payable": false,
      "stateMutability": "view",
      "type": "function"
    },
    {
      "constant": true,
      "inputs": [],
      "name": "registry",
      "outputs": [
        {
          "name": "",
          "type": "address"
        }
      ],
      "payable": false,
      "stateMutability": "view",
      "type": "function"
    },
    {
      "constant": true,
      "inputs": [],
      "name": "numberValidatorsInCurrentSet",
      "outputs": [
        {
          "name": "",
          "type": "uint256"
        }
      ],
      "payable": false,
      "stateMutability": "view",
      "type": "function"
    },
    {
      "constant": true,
      "inputs": [
        {
          "name": "header",
          "type": "bytes"
        }
      ],
      "name": "getBlockNumberFromHeader",
      "outputs": [
        {
          "name": "",
          "type": "uint256"
        }
      ],
      "payable": false,
      "stateMutability": "view",
      "type": "function"
    },
    {
      "constant": true,
      "inputs": [],
      "name": "owner",
      "outputs": [
        {
          "name": "",
          "type": "address"
        }
      ],
      "payable": false,
      "stateMutability": "view",
      "type": "function"
    },
    {
      "constant": true,
      "inputs": [],
      "name": "isOwner",
      "outputs": [
        {
          "name": "",
          "type": "bool"
        }
      ],
      "payable": false,
      "stateMutability": "view",
      "type": "function"
    },
    {
      "constant": true,
      "inputs": [],
      "name": "getEpochNumber",
      "outputs": [
        {
          "name": "",
          "type": "uint256"
        }
      ],
      "payable": false,
      "stateMutability": "view",
      "type": "function"
    },
    {
      "constant": true,
      "inputs": [
        {
          "name": "blockNumber",
          "type": "uint256"
        }
      ],
      "name": "numberValidatorsInSet",
      "outputs": [
        {
          "name": "",
          "type": "uint256"
        }
      ],
      "payable": false,
      "stateMutability": "view",
      "type": "function"
    },
    {
      "constant": false,
      "inputs": [
        {
          "name": "registryAddress",
          "type": "address"
        }
      ],
      "name": "setRegistry",
      "outputs": [],
      "payable": false,
      "stateMutability": "nonpayable",
      "type": "function"
    },
    {
      "constant": true,
      "inputs": [],
      "name": "getEpochSize",
      "outputs": [
        {
          "name": "",
          "type": "uint256"
        }
      ],
      "payable": false,
      "stateMutability": "view",
      "type": "function"
    },
    {
      "constant": true,
      "inputs": [
        {
          "name": "blockNumber",
          "type": "uint256"
        }
      ],
      "name": "minQuorumSize",
      "outputs": [
        {
          "name": "",
          "type": "uint256"
        }
      ],
      "payable": false,
      "stateMutability": "view",
      "type": "function"
    },
    {
      "constant": true,
      "inputs": [
        {
          "name": "aNumerator",
          "type": "uint256"
        },
        {
          "name": "aDenominator",
          "type": "uint256"
        },
        {
          "name": "bNumerator",
          "type": "uint256"
        },
        {
          "name": "bDenominator",
          "type": "uint256"
        },
        {
          "name": "exponent",
          "type": "uint256"
        },
        {
          "name": "_decimals",
          "type": "uint256"
        }
      ],
      "name": "fractionMulExp",
      "outputs": [
        {
          "name": "",
          "type": "uint256"
        },
        {
          "name": "",
          "type": "uint256"
        }
      ],
      "payable": false,
      "stateMutability": "view",
      "type": "function"
    },
    {
      "constant": false,
      "inputs": [
        {
          "name": "newOwner",
          "type": "address"
        }
      ],
      "name": "transferOwnership",
      "outputs": [],
      "payable": false,
      "stateMutability": "nonpayable",
      "type": "function"
    },
    {
      "constant": true,
      "inputs": [
        {
          "name": "blockNumber",
          "type": "uint256"
        }
      ],
      "name": "getParentSealBitmap",
      "outputs": [
        {
          "name": "",
          "type": "bytes32"
        }
      ],
      "payable": false,
      "stateMutability": "view",
      "type": "function"
    },
    {
      "anonymous": false,
      "inputs": [
        {
          "indexed": false,
          "name": "factor",
          "type": "uint256"
        },
        {
          "indexed": false,
          "name": "lastUpdated",
          "type": "uint256"
        }
      ],
      "name": "InflationFactorUpdated",
      "type": "event"
    },
    {
      "anonymous": false,
      "inputs": [
        {
          "indexed": false,
          "name": "rate",
          "type": "uint256"
        },
        {
          "indexed": false,
          "name": "updatePeriod",
          "type": "uint256"
        },
        {
          "indexed": false,
          "name": "lastUpdated",
          "type": "uint256"
        }
      ],
      "name": "InflationParametersUpdated",
      "type": "event"
    },
    {
      "anonymous": false,
      "inputs": [
        {
          "indexed": true,
          "name": "from",
          "type": "address"
        },
        {
          "indexed": true,
          "name": "to",
          "type": "address"
        },
        {
          "indexed": false,
          "name": "value",
          "type": "uint256"
        }
      ],
      "name": "Transfer",
      "type": "event"
    },
    {
      "anonymous": false,
      "inputs": [
        {
          "indexed": false,
          "name": "comment",
          "type": "string"
        }
      ],
      "name": "TransferComment",
      "type": "event"
    },
    {
      "anonymous": false,
      "inputs": [
        {
          "indexed": true,
          "name": "owner",
          "type": "address"
        },
        {
          "indexed": true,
          "name": "spender",
          "type": "address"
        },
        {
          "indexed": false,
          "name": "value",
          "type": "uint256"
        }
      ],
      "name": "Approval",
      "type": "event"
    },
    {
      "anonymous": false,
      "inputs": [
        {
          "indexed": true,
          "name": "registryAddress",
          "type": "address"
        }
      ],
      "name": "RegistrySet",
      "type": "event"
    },
    {
      "anonymous": false,
      "inputs": [
        {
          "indexed": true,
          "name": "previousOwner",
          "type": "address"
        },
        {
          "indexed": true,
          "name": "newOwner",
          "type": "address"
        }
      ],
      "name": "OwnershipTransferred",
      "type": "event"
    },
    {
      "constant": false,
      "inputs": [
        {
          "name": "_name",
          "type": "string"
        },
        {
          "name": "_symbol",
          "type": "string"
        },
        {
          "name": "_decimals",
          "type": "uint8"
        },
        {
          "name": "registryAddress",
          "type": "address"
        },
        {
          "name": "inflationRate",
          "type": "uint256"
        },
        {
          "name": "inflationFactorUpdatePeriod",
          "type": "uint256"
        },
        {
          "name": "initialBalanceAddresses",
          "type": "address[]"
        },
        {
          "name": "initialBalanceValues",
          "type": "uint256[]"
        }
      ],
      "name": "initialize",
      "outputs": [],
      "payable": false,
      "stateMutability": "nonpayable",
      "type": "function"
    },
    {
      "constant": false,
      "inputs": [
        {
          "name": "rate",
          "type": "uint256"
        },
        {
          "name": "updatePeriod",
          "type": "uint256"
        }
      ],
      "name": "setInflationParameters",
      "outputs": [],
      "payable": false,
      "stateMutability": "nonpayable",
      "type": "function"
    },
    {
      "constant": false,
      "inputs": [
        {
          "name": "spender",
          "type": "address"
        },
        {
          "name": "value",
          "type": "uint256"
        }
      ],
      "name": "increaseAllowance",
      "outputs": [
        {
          "name": "",
          "type": "bool"
        }
      ],
      "payable": false,
      "stateMutability": "nonpayable",
      "type": "function"
    },
    {
      "constant": false,
      "inputs": [
        {
          "name": "spender",
          "type": "address"
        },
        {
          "name": "value",
          "type": "uint256"
        }
      ],
      "name": "decreaseAllowance",
      "outputs": [
        {
          "name": "",
          "type": "bool"
        }
      ],
      "payable": false,
      "stateMutability": "nonpayable",
      "type": "function"
    },
    {
      "constant": false,
      "inputs": [
        {
          "name": "spender",
          "type": "address"
        },
        {
          "name": "value",
          "type": "uint256"
        }
      ],
      "name": "approve",
      "outputs": [
        {
          "name": "",
          "type": "bool"
        }
      ],
      "payable": false,
      "stateMutability": "nonpayable",
      "type": "function"
    },
    {
      "constant": false,
      "inputs": [
        {
          "name": "to",
          "type": "address"
        },
        {
          "name": "value",
          "type": "uint256"
        }
      ],
      "name": "mint",
      "outputs": [
        {
          "name": "",
          "type": "bool"
        }
      ],
      "payable": false,
      "stateMutability": "nonpayable",
      "type": "function"
    },
    {
      "constant": false,
      "inputs": [
        {
          "name": "to",
          "type": "address"
        },
        {
          "name": "value",
          "type": "uint256"
        },
        {
          "name": "comment",
          "type": "string"
        }
      ],
      "name": "transferWithComment",
      "outputs": [
        {
          "name": "",
          "type": "bool"
        }
      ],
      "payable": false,
      "stateMutability": "nonpayable",
      "type": "function"
    },
    {
      "constant": false,
      "inputs": [
        {
          "name": "value",
          "type": "uint256"
        }
      ],
      "name": "burn",
      "outputs": [
        {
          "name": "",
          "type": "bool"
        }
      ],
      "payable": false,
      "stateMutability": "nonpayable",
      "type": "function"
    },
    {
      "constant": false,
      "inputs": [
        {
          "name": "from",
          "type": "address"
        },
        {
          "name": "to",
          "type": "address"
        },
        {
          "name": "value",
          "type": "uint256"
        }
      ],
      "name": "transferFrom",
      "outputs": [
        {
          "name": "",
          "type": "bool"
        }
      ],
      "payable": false,
      "stateMutability": "nonpayable",
      "type": "function"
    },
    {
      "constant": true,
      "inputs": [],
      "name": "name",
      "outputs": [
        {
          "name": "",
          "type": "string"
        }
      ],
      "payable": false,
      "stateMutability": "view",
      "type": "function"
    },
    {
      "constant": true,
      "inputs": [],
      "name": "symbol",
      "outputs": [
        {
          "name": "",
          "type": "string"
        }
      ],
      "payable": false,
      "stateMutability": "view",
      "type": "function"
    },
    {
      "constant": true,
      "inputs": [],
      "name": "decimals",
      "outputs": [
        {
          "name": "",
          "type": "uint8"
        }
      ],
      "payable": false,
      "stateMutability": "view",
      "type": "function"
    },
    {
      "constant": true,
      "inputs": [
        {
          "name": "accountOwner",
          "type": "address"
        },
        {
          "name": "spender",
          "type": "address"
        }
      ],
      "name": "allowance",
      "outputs": [
        {
          "name": "",
          "type": "uint256"
        }
      ],
      "payable": false,
      "stateMutability": "view",
      "type": "function"
    },
    {
      "constant": true,
      "inputs": [
        {
          "name": "accountOwner",
          "type": "address"
        }
      ],
      "name": "balanceOf",
      "outputs": [
        {
          "name": "",
          "type": "uint256"
        }
      ],
      "payable": false,
      "stateMutability": "view",
      "type": "function"
    },
    {
      "constant": true,
      "inputs": [],
      "name": "totalSupply",
      "outputs": [
        {
          "name": "",
          "type": "uint256"
        }
      ],
      "payable": false,
      "stateMutability": "view",
      "type": "function"
    },
    {
      "constant": true,
      "inputs": [],
      "name": "getInflationParameters",
      "outputs": [
        {
          "name": "",
          "type": "uint256"
        },
        {
          "name": "",
          "type": "uint256"
        },
        {
          "name": "",
          "type": "uint256"
        },
        {
          "name": "",
          "type": "uint256"
        }
      ],
      "payable": false,
      "stateMutability": "view",
      "type": "function"
    },
    {
      "constant": true,
      "inputs": [
        {
          "name": "value",
          "type": "uint256"
        }
      ],
      "name": "valueToUnits",
      "outputs": [
        {
          "name": "",
          "type": "uint256"
        }
      ],
      "payable": false,
      "stateMutability": "view",
      "type": "function"
    },
    {
      "constant": true,
      "inputs": [
        {
          "name": "units",
          "type": "uint256"
        }
      ],
      "name": "unitsToValue",
      "outputs": [
        {
          "name": "",
          "type": "uint256"
        }
      ],
      "payable": false,
      "stateMutability": "view",
      "type": "function"
    },
    {
      "constant": false,
      "inputs": [
        {
          "name": "to",
          "type": "address"
        },
        {
          "name": "value",
          "type": "uint256"
        }
      ],
      "name": "transfer",
      "outputs": [
        {
          "name": "",
          "type": "bool"
        }
      ],
      "payable": false,
      "stateMutability": "nonpayable",
      "type": "function"
    },
    {
      "constant": false,
      "inputs": [
        {
          "name": "from",
          "type": "address"
        },
        {
          "name": "value",
          "type": "uint256"
        }
      ],
      "name": "debitGasFees",
      "outputs": [],
      "payable": false,
      "stateMutability": "nonpayable",
      "type": "function"
    },
    {
      "constant": false,
      "inputs": [
        {
          "name": "from",
          "type": "address"
        },
        {
          "name": "feeRecipient",
          "type": "address"
        },
        {
          "name": "gatewayFeeRecipient",
          "type": "address"
        },
        {
          "name": "communityFund",
          "type": "address"
        },
        {
          "name": "refund",
          "type": "uint256"
        },
        {
          "name": "tipTxFee",
          "type": "uint256"
        },
        {
          "name": "gatewayFee",
          "type": "uint256"
        },
        {
          "name": "baseTxFee",
          "type": "uint256"
        }
      ],
      "name": "creditGasFees",
      "outputs": [],
      "payable": false,
      "stateMutability": "nonpayable",
      "type": "function"
    }
  ],
  "bytecode": "0x6080604052600062000016620000ba60201b60201c565b9050806000806101000a81548173ffffffffffffffffffffffffffffffffffffffff021916908373ffffffffffffffffffffffffffffffffffffffff1602179055508073ffffffffffffffffffffffffffffffffffffffff16600073ffffffffffffffffffffffffffffffffffffffff167f8be0079c531659141344cd1fd0a4f28419497f9722a3daafe3b4186f6b6457e060405160405180910390a350620000c2565b600033905090565b616c8d80620000d26000396000f3fe608060405234801561001057600080fd5b50600436106102695760003560e01c80637385e5da11610151578063a67f8747116100c3578063df4da46111610087578063df4da461146111f5578063e1d6aceb14611213578063e50e652d146112ce578063ec68307214611310578063f2fde38b1461138b578063fae8db0a146113cf57610269565b8063a67f87471461105e578063a9059cbb14611091578063a91ee0dc146110f7578063af31f5871461113b578063dd62ed3e1461117d57610269565b80638da5cb5b116101155780638da5cb5b14610ea95780638f32d59b14610ef357806395d89b4114610f155780639a7b3be714610f985780639b2b592f14610fb6578063a457c2d714610ff857610269565b80637385e5da14610b9a5780637b10399914610bb857806382b9351614610c0257806387ee8a0f14610dbc5780638a88362614610dda57610269565b806339509351116101ea57806358cf9672116101ae57806358cf9672146108d65780635d180adb1461092457806367960e911461099c5780636a30b25314610a6b57806370a0823114610b38578063715018a614610b9057610269565b806339509351146106b35780633b1eb4bf1461071957806340c10f191461075b57806342966c68146107c15780634b2c2f441461080757610269565b806318160ddd1161023157806318160ddd14610429578063222836ad1461044757806323b872dd1461047f57806323f0ab6514610505578063313ce5671461068f57610269565b806306fdde031461026e578063095ea7b3146102f1578063123633ea1461035757806312c6c099146103c5578063158ef93e14610407575b600080fd5b610276611411565b6040518080602001828103825283818151815260200191508051906020019080838360005b838110156102b657808201518184015260208101905061029b565b50505050905090810190601f1680156102e35780820380516001836020036101000a031916815260200191505b509250505060405180910390f35b61033d6004803603604081101561030757600080fd5b81019080803573ffffffffffffffffffffffffffffffffffffffff169060200190929190803590602001909291905050506114b3565b604051808215151515815260200191505060405180910390f35b6103836004803603602081101561036d57600080fd5b81019080803590602001909291905050506116d6565b604051808273ffffffffffffffffffffffffffffffffffffffff1673ffffffffffffffffffffffffffffffffffffffff16815260200191505060405180910390f35b6103f1600480360360208110156103db57600080fd5b8101908080359060200190929190505050611827565b6040518082815260200191505060405180910390f35b61040f611850565b604051808215151515815260200191505060405180910390f35b610431611863565b6040518082815260200191505060405180910390f35b61047d6004803603604081101561045d57600080fd5b810190808035906020019092919080359060200190929190505050611875565b005b6104eb6004803603606081101561049557600080fd5b81019080803573ffffffffffffffffffffffffffffffffffffffff169060200190929190803573ffffffffffffffffffffffffffffffffffffffff16906020019092919080359060200190929190505050611ada565b604051808215151515815260200191505060405180910390f35b6106756004803603606081101561051b57600080fd5b81019080803573ffffffffffffffffffffffffffffffffffffffff1690602001909291908035906020019064010000000081111561055857600080fd5b82018360208201111561056a57600080fd5b8035906020019184600183028401116401000000008311171561058c57600080fd5b91908080601f016020809104026020016040519081016040528093929190818152602001838380828437600081840152601f19601f820116905080830192505050505050509192919290803590602001906401000000008111156105ef57600080fd5b82018360208201111561060157600080fd5b8035906020019184600183028401116401000000008311171561062357600080fd5b91908080601f016020809104026020016040519081016040528093929190818152602001838380828437600081840152601f19601f820116905080830192505050505050509192919290505050612160565b604051808215151515815260200191505060405180910390f35b610697612319565b604051808260ff1660ff16815260200191505060405180910390f35b6106ff600480360360408110156106c957600080fd5b81019080803573ffffffffffffffffffffffffffffffffffffffff16906020019092919080359060200190929190505050612330565b604051808215151515815260200191505060405180910390f35b6107456004803603602081101561072f57600080fd5b81019080803590602001909291905050506125ed565b6040518082815260200191505060405180910390f35b6107a76004803603604081101561077157600080fd5b81019080803573ffffffffffffffffffffffffffffffffffffffff16906020019092919080359060200190929190505050612607565b604051808215151515815260200191505060405180910390f35b6107ed600480360360208110156107d757600080fd5b8101908080359060200190929190505050612966565b604051808215151515815260200191505060405180910390f35b6108c06004803603602081101561081d57600080fd5b810190808035906020019064010000000081111561083a57600080fd5b82018360208201111561084c57600080fd5b8035906020019184600183028401116401000000008311171561086e57600080fd5b91908080601f016020809104026020016040519081016040528093929190818152602001838380828437600081840152601f19601f820116905080830192505050505050509192919290505050612da5565b6040518082815260200191505060405180910390f35b610922600480360360408110156108ec57600080fd5b81019080803573ffffffffffffffffffffffffffffffffffffffff16906020019092919080359060200190929190505050612f39565b005b61095a6004803603604081101561093a57600080fd5b810190808035906020019092919080359060200190929190505050613277565b604051808273ffffffffffffffffffffffffffffffffffffffff1673ffffffffffffffffffffffffffffffffffffffff16815260200191505060405180910390f35b610a55600480360360208110156109b257600080fd5b81019080803590602001906401000000008111156109cf57600080fd5b8201836020820111156109e157600080fd5b80359060200191846001830284011164010000000083111715610a0357600080fd5b91908080601f016020809104026020016040519081016040528093929190818152602001838380828437600081840152601f19601f8201169050808301925050505050505091929192905050506133c9565b6040518082815260200191505060405180910390f35b610b366004803603610100811015610a8257600080fd5b81019080803573ffffffffffffffffffffffffffffffffffffffff169060200190929190803573ffffffffffffffffffffffffffffffffffffffff169060200190929190803573ffffffffffffffffffffffffffffffffffffffff169060200190929190803573ffffffffffffffffffffffffffffffffffffffff1690602001909291908035906020019092919080359060200190929190803590602001909291908035906020019092919050505061355d565b005b610b7a60048036036020811015610b4e57600080fd5b81019080803573ffffffffffffffffffffffffffffffffffffffff169060200190929190505050613853565b6040518082815260200191505060405180910390f35b610b986138a4565b005b610ba26139dd565b6040518082815260200191505060405180910390f35b610bc06139ed565b604051808273ffffffffffffffffffffffffffffffffffffffff1673ffffffffffffffffffffffffffffffffffffffff16815260200191505060405180910390f35b610dba6004803603610100811015610c1957600080fd5b8101908080359060200190640100000000811115610c3657600080fd5b820183602082011115610c4857600080fd5b80359060200191846001830284011164010000000083111715610c6a57600080fd5b909192939192939080359060200190640100000000811115610c8b57600080fd5b820183602082011115610c9d57600080fd5b80359060200191846001830284011164010000000083111715610cbf57600080fd5b9091929391929390803560ff169060200190929190803573ffffffffffffffffffffffffffffffffffffffff169060200190929190803590602001909291908035906020019092919080359060200190640100000000811115610d2157600080fd5b820183602082011115610d3357600080fd5b80359060200191846020830284011164010000000083111715610d5557600080fd5b909192939192939080359060200190640100000000811115610d7657600080fd5b820183602082011115610d8857600080fd5b80359060200191846020830284011164010000000083111715610daa57600080fd5b9091929391929390505050613a13565b005b610dc4613d01565b6040518082815260200191505060405180910390f35b610e9360048036036020811015610df057600080fd5b8101908080359060200190640100000000811115610e0d57600080fd5b820183602082011115610e1f57600080fd5b80359060200191846001830284011164010000000083111715610e4157600080fd5b91908080601f016020809104026020016040519081016040528093929190818152602001838380828437600081840152601f19601f820116905080830192505050505050509192919290505050613e48565b6040518082815260200191505060405180910390f35b610eb1613fdc565b604051808273ffffffffffffffffffffffffffffffffffffffff1673ffffffffffffffffffffffffffffffffffffffff16815260200191505060405180910390f35b610efb614005565b604051808215151515815260200191505060405180910390f35b610f1d614063565b6040518080602001828103825283818151815260200191508051906020019080838360005b83811015610f5d578082015181840152602081019050610f42565b50505050905090810190601f168015610f8a5780820380516001836020036101000a031916815260200191505b509250505060405180910390f35b610fa0614105565b6040518082815260200191505060405180910390f35b610fe260048036036020811015610fcc57600080fd5b8101908080359060200190929190505050614115565b6040518082815260200191505060405180910390f35b6110446004803603604081101561100e57600080fd5b81019080803573ffffffffffffffffffffffffffffffffffffffff1690602001909291908035906020019092919050505061425e565b604051808215151515815260200191505060405180910390f35b611066614495565b6040518085815260200184815260200183815260200182815260200194505050505060405180910390f35b6110dd600480360360408110156110a757600080fd5b81019080803573ffffffffffffffffffffffffffffffffffffffff169060200190929190803590602001909291905050506144f9565b604051808215151515815260200191505060405180910390f35b6111396004803603602081101561110d57600080fd5b81019080803573ffffffffffffffffffffffffffffffffffffffff1690602001909291905050506146cd565b005b6111676004803603602081101561115157600080fd5b8101908080359060200190929190505050614871565b6040518082815260200191505060405180910390f35b6111df6004803603604081101561119357600080fd5b81019080803573ffffffffffffffffffffffffffffffffffffffff169060200190929190803573ffffffffffffffffffffffffffffffffffffffff1690602001909291905050506148b3565b6040518082815260200191505060405180910390f35b6111fd61493a565b6040518082815260200191505060405180910390f35b6112b46004803603606081101561122957600080fd5b81019080803573ffffffffffffffffffffffffffffffffffffffff169060200190929190803590602001909291908035906020019064010000000081111561127057600080fd5b82018360208201111561128257600080fd5b803590602001918460018302840111640100000000831117156112a457600080fd5b9091929391929390505050614a76565b604051808215151515815260200191505060405180910390f35b6112fa600480360360208110156112e457600080fd5b8101908080359060200190929190505050614cb5565b6040518082815260200191505060405180910390f35b61136e600480360360c081101561132657600080fd5b81019080803590602001909291908035906020019092919080359060200190929190803590602001909291908035906020019092919080359060200190929190505050614d00565b604051808381526020018281526020019250505060405180910390f35b6113cd600480360360208110156113a157600080fd5b81019080803573ffffffffffffffffffffffffffffffffffffffff169060200190929190505050614f14565b005b6113fb600480360360208110156113e557600080fd5b8101908080359060200190929190505050614f9a565b6040518082815260200191505060405180910390f35b606060028054600181600116156101000203166002900480601f0160208091040260200160405190810160405280929190818152602001828054600181600116156101000203166002900480156114a95780601f1061147e576101008083540402835291602001916114a9565b820191906000526020600020905b81548152906001019060200180831161148c57829003601f168201915b5050505050905090565b60006114bd6167c6565b60006114c76150e3565b8092508193505050600860030154811461155e5781600860010160008201518160000155905050806008600301819055507f08f3ed03ec9e579d1f6ab2f9e0d3dc661704696deabe37a6b6df7014f1b30a9761153b60086001016040518060200160405290816000820154815250506152ae565b600860030154604051808381526020018281526020019250505060405180910390a15b600073ffffffffffffffffffffffffffffffffffffffff168573ffffffffffffffffffffffffffffffffffffffff1614156115e4576040517f08c379a000000000000000000000000000000000000000000000000000000000815260040180806020018281038252602a815260200180616ac0602a913960400191505060405180910390fd5b83600760003373ffffffffffffffffffffffffffffffffffffffff1673ffffffffffffffffffffffffffffffffffffffff16815260200190815260200160002060008773ffffffffffffffffffffffffffffffffffffffff1673ffffffffffffffffffffffffffffffffffffffff168152602001908152602001600020819055508473ffffffffffffffffffffffffffffffffffffffff163373ffffffffffffffffffffffffffffffffffffffff167f8c5be1e5ebec7d5bd14f71427d1e84f3dd0314c0f7b2291e5b200ac8c7c3b925866040518082815260200191505060405180910390a360019250505092915050565b60006060600060fa73ffffffffffffffffffffffffffffffffffffffff16844360405160200180838152602001828152602001925050506040516020818303038152906040526040518082805190602001908083835b6020831061174f578051825260208201915060208101905060208303925061172c565b6001836020036101000a038019825116818451168082178552505050505050905001915050600060405180830381855afa9150503d80600081146117af576040519150601f19603f3d011682016040523d82523d6000602084013e6117b4565b606091505b50809350819250505080611813576040517f08c379a000000000000000000000000000000000000000000000000000000000815260040180806020018281038252603d815260200180616a18603d913960400191505060405180910390fd5b61181e8260006152bc565b92505050919050565b60006118316167c6565b6118396150e3565b508091505061184881846152d3565b915050919050565b600060149054906101000a900460ff1681565b6000611870600654614871565b905090565b61187d614005565b6118ef576040517f08c379a00000000000000000000000000000000000000000000000000000000081526004018080602001828103825260208152602001807f4f776e61626c653a2063616c6c6572206973206e6f7420746865206f776e657281525060200191505060405180910390fd5b6118f76167c6565b60006119016150e3565b809250819350505060086003015481146119985781600860010160008201518160000155905050806008600301819055507f08f3ed03ec9e579d1f6ab2f9e0d3dc661704696deabe37a6b6df7014f1b30a9761197560086001016040518060200160405290816000820154815250506152ae565b600860030154604051808381526020018281526020019250505060405180910390a15b60008414156119f2576040517f08c379a00000000000000000000000000000000000000000000000000000000081526004018080602001828103825260278152602001806169616027913960400191505060405180910390fd5b60008311611a68576040517f08c379a00000000000000000000000000000000000000000000000000000000081526004018080602001828103825260188152602001807f757064617465506572696f64206d757374206265203e2030000000000000000081525060200191505060405180910390fd5b611a7184615300565b600860000160008201518160000155905050826008600201819055507fa0035d6667ffb7d387c86c7228141c4a877e8ed831b267ac928a2f5b651c155d84844260405180848152602001838152602001828152602001935050505060405180910390a150505050565b6000611ae46167c6565b6000611aee6150e3565b80925081935050506008600301548114611b855781600860010160008201518160000155905050806008600301819055507f08f3ed03ec9e579d1f6ab2f9e0d3dc661704696deabe37a6b6df7014f1b30a97611b6260086001016040518060200160405290816000820154815250506152ae565b600860030154604051808381526020018281526020019250505060405180910390a15b611b8d61531e565b73ffffffffffffffffffffffffffffffffffffffff1663e5839836306040518263ffffffff1660e01b8152600401808273ffffffffffffffffffffffffffffffffffffffff1673ffffffffffffffffffffffffffffffffffffffff16815260200191505060206040518083038186803b158015611c0957600080fd5b505afa158015611c1d573d6000803e3d6000fd5b505050506040513d6020811015611c3357600080fd5b810190808051906020019092919050505015611c9a576040517f08c379a00000000000000000000000000000000000000000000000000000000081526004018080602001828103825260228152602001806169c06022913960400191505060405180910390fd5b6000611cbf6008600101604051806020016040529081600082015481525050866152d3565b9050600073ffffffffffffffffffffffffffffffffffffffff168673ffffffffffffffffffffffffffffffffffffffff161415611d47576040517f08c379a000000000000000000000000000000000000000000000000000000000815260040180806020018281038252602a815260200180616c15602a913960400191505060405180910390fd5b600560008873ffffffffffffffffffffffffffffffffffffffff1673ffffffffffffffffffffffffffffffffffffffff16815260200190815260200160002054811115611ddf576040517f08c379a0000000000000000000000000000000000000000000000000000000008152600401808060200182810382526029815260200180616b0b6029913960400191505060405180910390fd5b600760008873ffffffffffffffffffffffffffffffffffffffff1673ffffffffffffffffffffffffffffffffffffffff16815260200190815260200160002060003373ffffffffffffffffffffffffffffffffffffffff1673ffffffffffffffffffffffffffffffffffffffff16815260200190815260200160002054851115611eb4576040517f08c379a0000000000000000000000000000000000000000000000000000000008152600401808060200182810382526038815260200180616b346038913960400191505060405180910390fd5b611f0681600560008973ffffffffffffffffffffffffffffffffffffffff1673ffffffffffffffffffffffffffffffffffffffff1681526020019081526020016000205461541990919063ffffffff16565b600560008873ffffffffffffffffffffffffffffffffffffffff1673ffffffffffffffffffffffffffffffffffffffff16815260200190815260200160002081905550611f9b81600560008a73ffffffffffffffffffffffffffffffffffffffff1673ffffffffffffffffffffffffffffffffffffffff168152602001908152602001600020546154a190919063ffffffff16565b600560008973ffffffffffffffffffffffffffffffffffffffff1673ffffffffffffffffffffffffffffffffffffffff1681526020019081526020016000208190555061206d85600760008a73ffffffffffffffffffffffffffffffffffffffff1673ffffffffffffffffffffffffffffffffffffffff16815260200190815260200160002060003373ffffffffffffffffffffffffffffffffffffffff1673ffffffffffffffffffffffffffffffffffffffff168152602001908152602001600020546154a190919063ffffffff16565b600760008973ffffffffffffffffffffffffffffffffffffffff1673ffffffffffffffffffffffffffffffffffffffff16815260200190815260200160002060003373ffffffffffffffffffffffffffffffffffffffff1673ffffffffffffffffffffffffffffffffffffffff168152602001908152602001600020819055508573ffffffffffffffffffffffffffffffffffffffff168773ffffffffffffffffffffffffffffffffffffffff167fddf252ad1be2c89b69c2b068fc378daa952ba7f163c4a11628f55a4df523b3ef876040518082815260200191505060405180910390a3600193505050509392505050565b60008060fb73ffffffffffffffffffffffffffffffffffffffff16858585604051602001808473ffffffffffffffffffffffffffffffffffffffff1673ffffffffffffffffffffffffffffffffffffffff1660601b815260140183805190602001908083835b602083106121e957805182526020820191506020810190506020830392506121c6565b6001836020036101000a03801982511681845116808217855250505050505090500182805190602001908083835b6020831061223a5780518252602082019150602081019050602083039250612217565b6001836020036101000a03801982511681845116808217855250505050505090500193505050506040516020818303038152906040526040518082805190602001908083835b602083106122a35780518252602082019150602081019050602083039250612280565b6001836020036101000a038019825116818451168082178552505050505050905001915050600060405180830381855afa9150503d8060008114612303576040519150601f19603f3d011682016040523d82523d6000602084013e612308565b606091505b505080915050809150509392505050565b6000600460009054906101000a900460ff16905090565b600061233a6167c6565b60006123446150e3565b809250819350505060086003015481146123db5781600860010160008201518160000155905050806008600301819055507f08f3ed03ec9e579d1f6ab2f9e0d3dc661704696deabe37a6b6df7014f1b30a976123b860086001016040518060200160405290816000820154815250506152ae565b600860030154604051808381526020018281526020019250505060405180910390a15b600073ffffffffffffffffffffffffffffffffffffffff168573ffffffffffffffffffffffffffffffffffffffff161415612461576040517f08c379a000000000000000000000000000000000000000000000000000000000815260040180806020018281038252602a815260200180616ac0602a913960400191505060405180910390fd5b6000600760003373ffffffffffffffffffffffffffffffffffffffff1673ffffffffffffffffffffffffffffffffffffffff16815260200190815260200160002060008773ffffffffffffffffffffffffffffffffffffffff1673ffffffffffffffffffffffffffffffffffffffff16815260200190815260200160002054905060006124f7868361541990919063ffffffff16565b905080600760003373ffffffffffffffffffffffffffffffffffffffff1673ffffffffffffffffffffffffffffffffffffffff16815260200190815260200160002060008973ffffffffffffffffffffffffffffffffffffffff1673ffffffffffffffffffffffffffffffffffffffff168152602001908152602001600020819055508673ffffffffffffffffffffffffffffffffffffffff163373ffffffffffffffffffffffffffffffffffffffff167f8c5be1e5ebec7d5bd14f71427d1e84f3dd0314c0f7b2291e5b200ac8c7c3b925836040518082815260200191505060405180910390a3600194505050505092915050565b6000612600826125fb61493a565b6154eb565b9050919050565b60006126116167c6565b600061261b6150e3565b809250819350505060086003015481146126b25781600860010160008201518160000155905050806008600301819055507f08f3ed03ec9e579d1f6ab2f9e0d3dc661704696deabe37a6b6df7014f1b30a9761268f60086001016040518060200160405290816000820154815250506152ae565b600860030154604051808381526020018281526020019250505060405180910390a15b600160009054906101000a900473ffffffffffffffffffffffffffffffffffffffff1673ffffffffffffffffffffffffffffffffffffffff1663dd92723360405160200180807f45786368616e67650000000000000000000000000000000000000000000000008152506008019050604051602081830303815290604052805190602001206040518263ffffffff1660e01b81526004018082815260200191505060206040518083038186803b15801561276b57600080fd5b505afa15801561277f573d6000803e3d6000fd5b505050506040513d602081101561279557600080fd5b810190808051906020019092919050505073ffffffffffffffffffffffffffffffffffffffff163373ffffffffffffffffffffffffffffffffffffffff1614806128fd5750600160009054906101000a900473ffffffffffffffffffffffffffffffffffffffff1673ffffffffffffffffffffffffffffffffffffffff1663dd92723360405160200180807f56616c696461746f727300000000000000000000000000000000000000000000815250600a019050604051602081830303815290604052805190602001206040518263ffffffff1660e01b81526004018082815260200191505060206040518083038186803b15801561289357600080fd5b505afa1580156128a7573d6000803e3d6000fd5b505050506040513d60208110156128bd57600080fd5b810190808051906020019092919050505073ffffffffffffffffffffffffffffffffffffffff163373ffffffffffffffffffffffffffffffffffffffff16145b612952576040517f08c379a00000000000000000000000000000000000000000000000000000000081526004018080602001828103825260418152602001806169206041913960600191505060405180910390fd5b61295c8585615523565b9250505092915050565b600060405160200180807f45786368616e67650000000000000000000000000000000000000000000000008152506008019050604051602081830303815290604052805190602001203373ffffffffffffffffffffffffffffffffffffffff16600160009054906101000a900473ffffffffffffffffffffffffffffffffffffffff1673ffffffffffffffffffffffffffffffffffffffff1663dcf0aaed836040518263ffffffff1660e01b81526004018082815260200191505060206040518083038186803b158015612a3957600080fd5b505afa158015612a4d573d6000803e3d6000fd5b505050506040513d6020811015612a6357600080fd5b810190808051906020019092919050505073ffffffffffffffffffffffffffffffffffffffff1614612afd576040517f08c379a00000000000000000000000000000000000000000000000000000000081526004018080602001828103825260188152602001807f6f6e6c79207265676973746572656420636f6e7472616374000000000000000081525060200191505060405180910390fd5b612b056167c6565b6000612b0f6150e3565b80925081935050506008600301548114612ba65781600860010160008201518160000155905050806008600301819055507f08f3ed03ec9e579d1f6ab2f9e0d3dc661704696deabe37a6b6df7014f1b30a97612b8360086001016040518060200160405290816000820154815250506152ae565b600860030154604051808381526020018281526020019250505060405180910390a15b6000612bcb6008600101604051806020016040529081600082015481525050876152d3565b9050600560003373ffffffffffffffffffffffffffffffffffffffff1673ffffffffffffffffffffffffffffffffffffffff16815260200190815260200160002054811115612c82576040517f08c379a00000000000000000000000000000000000000000000000000000000081526004018080602001828103825260208152602001807f76616c75652065786365656465642062616c616e6365206f662073656e64657281525060200191505060405180910390fd5b612c97816006546154a190919063ffffffff16565b600681905550612cef81600560003373ffffffffffffffffffffffffffffffffffffffff1673ffffffffffffffffffffffffffffffffffffffff168152602001908152602001600020546154a190919063ffffffff16565b600560003373ffffffffffffffffffffffffffffffffffffffff1673ffffffffffffffffffffffffffffffffffffffff16815260200190815260200160002081905550600073ffffffffffffffffffffffffffffffffffffffff163373ffffffffffffffffffffffffffffffffffffffff167fddf252ad1be2c89b69c2b068fc378daa952ba7f163c4a11628f55a4df523b3ef836040518082815260200191505060405180910390a36001945050505050919050565b60006060600060f473ffffffffffffffffffffffffffffffffffffffff16846040516020018082805190602001908083835b60208310612dfa5780518252602082019150602081019050602083039250612dd7565b6001836020036101000a0380198251168184511680821785525050505050509050019150506040516020818303038152906040526040518082805190602001908083835b60208310612e615780518252602082019150602081019050602083039250612e3e565b6001836020036101000a038019825116818451168082178552505050505050905001915050600060405180830381855afa9150503d8060008114612ec1576040519150601f19603f3d011682016040523d82523d6000602084013e612ec6565b606091505b50809350819250505080612f25576040517f08c379a00000000000000000000000000000000000000000000000000000000081526004018080602001828103825260388152602001806169886038913960400191505060405180910390fd5b612f30826000615785565b92505050919050565b600073ffffffffffffffffffffffffffffffffffffffff163373ffffffffffffffffffffffffffffffffffffffff1614612fdb576040517f08c379a00000000000000000000000000000000000000000000000000000000081526004018080602001828103825260108152602001807f4f6e6c7920564d2063616e2063616c6c0000000000000000000000000000000081525060200191505060405180910390fd5b612fe361531e565b73ffffffffffffffffffffffffffffffffffffffff1663e5839836306040518263ffffffff1660e01b8152600401808273ffffffffffffffffffffffffffffffffffffffff1673ffffffffffffffffffffffffffffffffffffffff16815260200191505060206040518083038186803b15801561305f57600080fd5b505afa158015613073573d6000803e3d6000fd5b505050506040513d602081101561308957600080fd5b8101908080519060200190929190505050156130f0576040517f08c379a00000000000000000000000000000000000000000000000000000000081526004018080602001828103825260228152602001806169c06022913960400191505060405180910390fd5b6130f86167c6565b60006131026150e3565b809250819350505060086003015481146131995781600860010160008201518160000155905050806008600301819055507f08f3ed03ec9e579d1f6ab2f9e0d3dc661704696deabe37a6b6df7014f1b30a9761317660086001016040518060200160405290816000820154815250506152ae565b600860030154604051808381526020018281526020019250505060405180910390a15b60006131be6008600101604051806020016040529081600082015481525050856152d3565b905061321281600560008873ffffffffffffffffffffffffffffffffffffffff1673ffffffffffffffffffffffffffffffffffffffff168152602001908152602001600020546154a190919063ffffffff16565b600560008773ffffffffffffffffffffffffffffffffffffffff1673ffffffffffffffffffffffffffffffffffffffff1681526020019081526020016000208190555061326a816006546154a190919063ffffffff16565b6006819055505050505050565b60006060600060fa73ffffffffffffffffffffffffffffffffffffffff16858560405160200180838152602001828152602001925050506040516020818303038152906040526040518082805190602001908083835b602083106132f057805182526020820191506020810190506020830392506132cd565b6001836020036101000a038019825116818451168082178552505050505050905001915050600060405180830381855afa9150503d8060008114613350576040519150601f19603f3d011682016040523d82523d6000602084013e613355565b606091505b508093508192505050806133b4576040517f08c379a0000000000000000000000000000000000000000000000000000000008152600401808060200182810382526036815260200180616a8a6036913960400191505060405180910390fd5b6133bf8260006152bc565b9250505092915050565b60006060600060f673ffffffffffffffffffffffffffffffffffffffff16846040516020018082805190602001908083835b6020831061341e57805182526020820191506020810190506020830392506133fb565b6001836020036101000a0380198251168184511680821785525050505050509050019150506040516020818303038152906040526040518082805190602001908083835b602083106134855780518252602082019150602081019050602083039250613462565b6001836020036101000a038019825116818451168082178552505050505050905001915050600060405180830381855afa9150503d80600081146134e5576040519150601f19603f3d011682016040523d82523d6000602084013e6134ea565b606091505b50809350819250505080613549576040517f08c379a0000000000000000000000000000000000000000000000000000000008152600401808060200182810382526023815260200180616c3f6023913960400191505060405180910390fd5b613554826000615785565b92505050919050565b600073ffffffffffffffffffffffffffffffffffffffff163373ffffffffffffffffffffffffffffffffffffffff16146135ff576040517f08c379a00000000000000000000000000000000000000000000000000000000081526004018080602001828103825260108152602001807f4f6e6c7920564d2063616e2063616c6c0000000000000000000000000000000081525060200191505060405180910390fd5b61360761531e565b73ffffffffffffffffffffffffffffffffffffffff1663e5839836306040518263ffffffff1660e01b8152600401808273ffffffffffffffffffffffffffffffffffffffff1673ffffffffffffffffffffffffffffffffffffffff16815260200191505060206040518083038186803b15801561368357600080fd5b505afa158015613697573d6000803e3d6000fd5b505050506040513d60208110156136ad57600080fd5b810190808051906020019092919050505015613714576040517f08c379a00000000000000000000000000000000000000000000000000000000081526004018080602001828103825260228152602001806169c06022913960400191505060405180910390fd5b60006137396008600101604051806020016040529081600082015481525050866152d3565b905061378d81600560008c73ffffffffffffffffffffffffffffffffffffffff1673ffffffffffffffffffffffffffffffffffffffff1681526020019081526020016000205461541990919063ffffffff16565b600560008b73ffffffffffffffffffffffffffffffffffffffff1673ffffffffffffffffffffffffffffffffffffffff168152602001908152602001600020819055506137ed6137de8a8885615816565b8261541990919063ffffffff16565b905061380c6137fd8a8a87615816565b8261541990919063ffffffff16565b905061382b61381c8a8986615816565b8261541990919063ffffffff16565b90506138428160065461541990919063ffffffff16565b600681905550505050505050505050565b600061389d600560008473ffffffffffffffffffffffffffffffffffffffff1673ffffffffffffffffffffffffffffffffffffffff16815260200190815260200160002054614871565b9050919050565b6138ac614005565b61391e576040517f08c379a00000000000000000000000000000000000000000000000000000000081526004018080602001828103825260208152602001807f4f776e61626c653a2063616c6c6572206973206e6f7420746865206f776e657281525060200191505060405180910390fd5b600073ffffffffffffffffffffffffffffffffffffffff166000809054906101000a900473ffffffffffffffffffffffffffffffffffffffff1673ffffffffffffffffffffffffffffffffffffffff167f8be0079c531659141344cd1fd0a4f28419497f9722a3daafe3b4186f6b6457e060405160405180910390a360008060006101000a81548173ffffffffffffffffffffffffffffffffffffffff021916908373ffffffffffffffffffffffffffffffffffffffff160217905550565b60006139e843614cb5565b905090565b600160009054906101000a900473ffffffffffffffffffffffffffffffffffffffff1681565b600060149054906101000a900460ff1615613a96576040517f08c379a000000000000000000000000000000000000000000000000000000000815260040180806020018281038252601c8152602001807f636f6e747261637420616c726561647920696e697469616c697a65640000000081525060200191505060405180910390fd5b6001600060146101000a81548160ff0219169083151502179055506000861415613b0b576040517f08c379a00000000000000000000000000000000000000000000000000000000081526004018080602001828103825260268152602001806168fa6026913960400191505060405180910390fd5b60008511613b64576040517f08c379a00000000000000000000000000000000000000000000000000000000081526004018080602001828103825260278152602001806168ad6027913960400191505060405180910390fd5b613b6d33615982565b60006006819055508b8b60029190613b869291906167d9565b50898960039190613b989291906167d9565b5087600460006101000a81548160ff021916908360ff160217905550613bbd86615300565b600860000160008201518160000155905050613bd7615ac6565b6008600101600082015181600001559050508460086002018190555042600860030181905550818190508484905014613c78576040517f08c379a00000000000000000000000000000000000000000000000000000000081526004018080602001828103825260158152602001807f4172726179206c656e677468206d69736d61746368000000000000000000000081525060200191505060405180910390fd5b60008090505b84849050811015613ce957613ccd858583818110613c9857fe5b9050602002013573ffffffffffffffffffffffffffffffffffffffff16848484818110613cc157fe5b90506020020135615523565b50613ce260018261541990919063ffffffff16565b9050613c7e565b50613cf3876146cd565b505050505050505050505050565b60006060600060f973ffffffffffffffffffffffffffffffffffffffff1643604051602001808281526020019150506040516020818303038152906040526040518082805190602001908083835b60208310613d725780518252602082019150602081019050602083039250613d4f565b6001836020036101000a038019825116818451168082178552505050505050905001915050600060405180830381855afa9150503d8060008114613dd2576040519150601f19603f3d011682016040523d82523d6000602084013e613dd7565b606091505b50809350819250505080613e36576040517f08c379a0000000000000000000000000000000000000000000000000000000008152600401808060200182810382526035815260200180616a556035913960400191505060405180910390fd5b613e418260006152bc565b9250505090565b60006060600060f773ffffffffffffffffffffffffffffffffffffffff16846040516020018082805190602001908083835b60208310613e9d5780518252602082019150602081019050602083039250613e7a565b6001836020036101000a0380198251168184511680821785525050505050509050019150506040516020818303038152906040526040518082805190602001908083835b60208310613f045780518252602082019150602081019050602083039250613ee1565b6001836020036101000a038019825116818451168082178552505050505050905001915050600060405180830381855afa9150503d8060008114613f64576040519150601f19603f3d011682016040523d82523d6000602084013e613f69565b606091505b50809350819250505080613fc8576040517f08c379a0000000000000000000000000000000000000000000000000000000008152600401808060200182810382526031815260200180616be46031913960400191505060405180910390fd5b613fd38260006152bc565b92505050919050565b60008060009054906101000a900473ffffffffffffffffffffffffffffffffffffffff16905090565b60008060009054906101000a900473ffffffffffffffffffffffffffffffffffffffff1673ffffffffffffffffffffffffffffffffffffffff16614047615aec565b73ffffffffffffffffffffffffffffffffffffffff1614905090565b606060038054600181600116156101000203166002900480601f0160208091040260200160405190810160405280929190818152602001828054600181600116156101000203166002900480156140fb5780601f106140d0576101008083540402835291602001916140fb565b820191906000526020600020905b8154815290600101906020018083116140de57829003601f168201915b5050505050905090565b6000614110436125ed565b905090565b60006060600060f973ffffffffffffffffffffffffffffffffffffffff1684604051602001808281526020019150506040516020818303038152906040526040518082805190602001908083835b602083106141865780518252602082019150602081019050602083039250614163565b6001836020036101000a038019825116818451168082178552505050505050905001915050600060405180830381855afa9150503d80600081146141e6576040519150601f19603f3d011682016040523d82523d6000602084013e6141eb565b606091505b5080935081925050508061424a576040517f08c379a000000000000000000000000000000000000000000000000000000000815260040180806020018281038252602e81526020018061687f602e913960400191505060405180910390fd5b6142558260006152bc565b92505050919050565b60006142686167c6565b60006142726150e3565b809250819350505060086003015481146143095781600860010160008201518160000155905050806008600301819055507f08f3ed03ec9e579d1f6ab2f9e0d3dc661704696deabe37a6b6df7014f1b30a976142e660086001016040518060200160405290816000820154815250506152ae565b600860030154604051808381526020018281526020019250505060405180910390a15b6000600760003373ffffffffffffffffffffffffffffffffffffffff1673ffffffffffffffffffffffffffffffffffffffff16815260200190815260200160002060008773ffffffffffffffffffffffffffffffffffffffff1673ffffffffffffffffffffffffffffffffffffffff168152602001908152602001600020549050600061439f86836154a190919063ffffffff16565b905080600760003373ffffffffffffffffffffffffffffffffffffffff1673ffffffffffffffffffffffffffffffffffffffff16815260200190815260200160002060008973ffffffffffffffffffffffffffffffffffffffff1673ffffffffffffffffffffffffffffffffffffffff168152602001908152602001600020819055508673ffffffffffffffffffffffffffffffffffffffff163373ffffffffffffffffffffffffffffffffffffffff167f8c5be1e5ebec7d5bd14f71427d1e84f3dd0314c0f7b2291e5b200ac8c7c3b925836040518082815260200191505060405180910390a3600194505050505092915050565b6000806000806144bd60086000016040518060200160405290816000820154815250506152ae565b6144df60086001016040518060200160405290816000820154815250506152ae565b600860020154600860030154935093509350935090919293565b60006145036167c6565b600061450d6150e3565b809250819350505060086003015481146145a45781600860010160008201518160000155905050806008600301819055507f08f3ed03ec9e579d1f6ab2f9e0d3dc661704696deabe37a6b6df7014f1b30a9761458160086001016040518060200160405290816000820154815250506152ae565b600860030154604051808381526020018281526020019250505060405180910390a15b6145ac61531e565b73ffffffffffffffffffffffffffffffffffffffff1663e5839836306040518263ffffffff1660e01b8152600401808273ffffffffffffffffffffffffffffffffffffffff1673ffffffffffffffffffffffffffffffffffffffff16815260200191505060206040518083038186803b15801561462857600080fd5b505afa15801561463c573d6000803e3d6000fd5b505050506040513d602081101561465257600080fd5b8101908080519060200190929190505050156146b9576040517f08c379a00000000000000000000000000000000000000000000000000000000081526004018080602001828103825260228152602001806169c06022913960400191505060405180910390fd5b6146c38585615af4565b9250505092915050565b6146d5614005565b614747576040517f08c379a00000000000000000000000000000000000000000000000000000000081526004018080602001828103825260208152602001807f4f776e61626c653a2063616c6c6572206973206e6f7420746865206f776e657281525060200191505060405180910390fd5b600073ffffffffffffffffffffffffffffffffffffffff168173ffffffffffffffffffffffffffffffffffffffff1614156147ea576040517f08c379a00000000000000000000000000000000000000000000000000000000081526004018080602001828103825260208152602001807f43616e6e6f7420726567697374657220746865206e756c6c206164647265737381525060200191505060405180910390fd5b80600160006101000a81548173ffffffffffffffffffffffffffffffffffffffff021916908373ffffffffffffffffffffffffffffffffffffffff1602179055508073ffffffffffffffffffffffffffffffffffffffff167f27fe5f0c1c3b1ed427cc63d0f05759ffdecf9aec9e18d31ef366fc8a6cb5dc3b60405160405180910390a250565b600061487b6167c6565b6148836150e3565b50809150506148ab6148a68261489886615dd4565b615e5e90919063ffffffff16565b615fa7565b915050919050565b6000600760008473ffffffffffffffffffffffffffffffffffffffff1673ffffffffffffffffffffffffffffffffffffffff16815260200190815260200160002060008373ffffffffffffffffffffffffffffffffffffffff1673ffffffffffffffffffffffffffffffffffffffff16815260200190815260200160002054905092915050565b60006060600060f873ffffffffffffffffffffffffffffffffffffffff166040516020016040516020818303038152906040526040518082805190602001908083835b602083106149a0578051825260208201915060208101905060208303925061497d565b6001836020036101000a038019825116818451168082178552505050505050905001915050600060405180830381855afa9150503d8060008114614a00576040519150601f19603f3d011682016040523d82523d6000602084013e614a05565b606091505b50809350819250505080614a64576040517f08c379a0000000000000000000000000000000000000000000000000000000008152600401808060200182810382526025815260200180616b936025913960400191505060405180910390fd5b614a6f8260006152bc565b9250505090565b6000614a806167c6565b6000614a8a6150e3565b80925081935050506008600301548114614b215781600860010160008201518160000155905050806008600301819055507f08f3ed03ec9e579d1f6ab2f9e0d3dc661704696deabe37a6b6df7014f1b30a97614afe60086001016040518060200160405290816000820154815250506152ae565b600860030154604051808381526020018281526020019250505060405180910390a15b614b2961531e565b73ffffffffffffffffffffffffffffffffffffffff1663e5839836306040518263ffffffff1660e01b8152600401808273ffffffffffffffffffffffffffffffffffffffff1673ffffffffffffffffffffffffffffffffffffffff16815260200191505060206040518083038186803b158015614ba557600080fd5b505afa158015614bb9573d6000803e3d6000fd5b505050506040513d6020811015614bcf57600080fd5b810190808051906020019092919050505015614c36576040517f08c379a00000000000000000000000000000000000000000000000000000000081526004018080602001828103825260228152602001806169c06022913960400191505060405180910390fd5b6000614c4288886144f9565b90507fe5d4e30fb8364e57bc4d662a07d0cf36f4c34552004c4c3624620a2c1d1c03dc868660405180806020018281038252848482818152602001925080828437600081840152601f19601f820116905080830192505050935050505060405180910390a1809350505050949350505050565b6000614cf96003614ceb6002614cdd6002614ccf88614115565b615fc890919063ffffffff16565b61541990919063ffffffff16565b61604e90919063ffffffff16565b9050919050565b60008060008714158015614d15575060008514155b614d87576040517f08c379a00000000000000000000000000000000000000000000000000000000081526004018080602001828103825260158152602001807f612064656e6f6d696e61746f72206973207a65726f000000000000000000000081525060200191505060405180910390fd5b6000806000606060fc73ffffffffffffffffffffffffffffffffffffffff168c8c8c8c8c8c6040516020018087815260200186815260200185815260200184815260200183815260200182815260200196505050505050506040516020818303038152906040526040518082805190602001908083835b60208310614e215780518252602082019150602081019050602083039250614dfe565b6001836020036101000a038019825116818451168082178552505050505050905001915050600060405180830381855afa9150503d8060008114614e81576040519150601f19603f3d011682016040523d82523d6000602084013e614e86565b606091505b50809250819350505081614ee5576040517f08c379a0000000000000000000000000000000000000000000000000000000008152600401808060200182810382526027815260200180616b6c6027913960400191505060405180910390fd5b614ef08160006152bc565b9350614efd8160206152bc565b925083839550955050505050965096945050505050565b614f1c614005565b614f8e576040517f08c379a00000000000000000000000000000000000000000000000000000000081526004018080602001828103825260208152602001807f4f776e61626c653a2063616c6c6572206973206e6f7420746865206f776e657281525060200191505060405180910390fd5b614f9781615982565b50565b60006060600060f573ffffffffffffffffffffffffffffffffffffffff1684604051602001808281526020019150506040516020818303038152906040526040518082805190602001908083835b6020831061500b5780518252602082019150602081019050602083039250614fe8565b6001836020036101000a038019825116818451168082178552505050505050905001915050600060405180830381855afa9150503d806000811461506b576040519150601f19603f3d011682016040523d82523d6000602084013e615070565b606091505b508093508192505050806150cf576040517f08c379a000000000000000000000000000000000000000000000000000000000815260040180806020018281038252602c815260200180616bb8602c913960400191505060405180910390fd5b6150da826000615785565b92505050919050565b6150eb6167c6565b600061510a60086002015460086003015461541990919063ffffffff16565b42101561513d576008600101600860030154816040518060200160405290816000820154815250509150915091506152aa565b6000806000615171600860020154615163600860030154426154a190919063ffffffff16565b61604e90919063ffffffff16565b90506151f361519860086001016040518060200160405290816000820154815250506152ae565b6151a86151a3615ac6565b6152ae565b6151ca60086000016040518060200160405290816000820154815250506152ae565b6151da6151d5615ac6565b6152ae565b85600460009054906101000a900460ff1660ff16614d00565b8093508194505050600083148061520a5750600082145b1561523e576008600101600860030154816040518060200160405290816000820154815250509150945094505050506152aa565b6152466167c6565b61526961525284615300565b61525b86615300565b615e5e90919063ffffffff16565b9050600061529c61528884600860020154615fc890919063ffffffff16565b60086003015461541990919063ffffffff16565b905081819650965050505050505b9091565b600081600001519050919050565b60006152c88383615785565b60001c905092915050565b60006152f86152f36152e484615dd4565b8561609890919063ffffffff16565b615fa7565b905092915050565b6153086167c6565b6040518060200160405280838152509050919050565b6000600160009054906101000a900473ffffffffffffffffffffffffffffffffffffffff1673ffffffffffffffffffffffffffffffffffffffff1663dcf0aaed60405160200180807f467265657a6572000000000000000000000000000000000000000000000000008152506007019050604051602081830303815290604052805190602001206040518263ffffffff1660e01b81526004018082815260200191505060206040518083038186803b1580156153d957600080fd5b505afa1580156153ed573d6000803e3d6000fd5b505050506040513d602081101561540357600080fd5b8101908080519060200190929190505050905090565b600080828401905083811015615497576040517f08c379a000000000000000000000000000000000000000000000000000000000815260040180806020018281038252601b8152602001807f536166654d6174683a206164646974696f6e206f766572666c6f77000000000081525060200191505060405180910390fd5b8091505092915050565b60006154e383836040518060400160405280601e81526020017f536166654d6174683a207375627472616374696f6e206f766572666c6f7700008152506164f7565b905092915050565b6000808284816154f757fe5b049050600083858161550557fe5b061415615515578091505061551d565b600181019150505b92915050565b60008073ffffffffffffffffffffffffffffffffffffffff168373ffffffffffffffffffffffffffffffffffffffff1614156155c7576040517f08c379a00000000000000000000000000000000000000000000000000000000081526004018080602001828103825260178152602001807f302069732061207265736572766564206164647265737300000000000000000081525060200191505060405180910390fd5b6000821161563d576040517f08c379a00000000000000000000000000000000000000000000000000000000081526004018080602001828103825260168152602001807f6d696e742076616c7565206d757374206265203e20300000000000000000000081525060200191505060405180910390fd5b60006156626008600101604051806020016040529081600082015481525050846152d3565b90506156798160065461541990919063ffffffff16565b6006819055506156d181600560008773ffffffffffffffffffffffffffffffffffffffff1673ffffffffffffffffffffffffffffffffffffffff1681526020019081526020016000205461541990919063ffffffff16565b600560008673ffffffffffffffffffffffffffffffffffffffff1673ffffffffffffffffffffffffffffffffffffffff168152602001908152602001600020819055508373ffffffffffffffffffffffffffffffffffffffff16600073ffffffffffffffffffffffffffffffffffffffff167fddf252ad1be2c89b69c2b068fc378daa952ba7f163c4a11628f55a4df523b3ef856040518082815260200191505060405180910390a3600191505092915050565b60006020820183511015615801576040517f08c379a00000000000000000000000000000000000000000000000000000000081526004018080602001828103825260148152602001807f736c6963696e67206f7574206f662072616e676500000000000000000000000081525060200191505060405180910390fd5b60006020830184015190508091505092915050565b60008073ffffffffffffffffffffffffffffffffffffffff168373ffffffffffffffffffffffffffffffffffffffff161415615855576000905061597b565b600061587a6008600101604051806020016040529081600082015481525050846152d3565b90506158ce81600560008773ffffffffffffffffffffffffffffffffffffffff1673ffffffffffffffffffffffffffffffffffffffff1681526020019081526020016000205461541990919063ffffffff16565b600560008673ffffffffffffffffffffffffffffffffffffffff1673ffffffffffffffffffffffffffffffffffffffff168152602001908152602001600020819055508373ffffffffffffffffffffffffffffffffffffffff168573ffffffffffffffffffffffffffffffffffffffff167fddf252ad1be2c89b69c2b068fc378daa952ba7f163c4a11628f55a4df523b3ef856040518082815260200191505060405180910390a3809150505b9392505050565b600073ffffffffffffffffffffffffffffffffffffffff168173ffffffffffffffffffffffffffffffffffffffff161415615a08576040517f08c379a00000000000000000000000000000000000000000000000000000000081526004018080602001828103825260268152602001806168d46026913960400191505060405180910390fd5b8073ffffffffffffffffffffffffffffffffffffffff166000809054906101000a900473ffffffffffffffffffffffffffffffffffffffff1673ffffffffffffffffffffffffffffffffffffffff167f8be0079c531659141344cd1fd0a4f28419497f9722a3daafe3b4186f6b6457e060405160405180910390a3806000806101000a81548173ffffffffffffffffffffffffffffffffffffffff021916908373ffffffffffffffffffffffffffffffffffffffff16021790555050565b615ace6167c6565b604051806020016040528069d3c21bcecceda1000000815250905090565b600033905090565b60008073ffffffffffffffffffffffffffffffffffffffff168373ffffffffffffffffffffffffffffffffffffffff161415615b7b576040517f08c379a000000000000000000000000000000000000000000000000000000000815260040180806020018281038252602a815260200180616c15602a913960400191505060405180910390fd5b6000615ba06008600101604051806020016040529081600082015481525050846152d3565b905080600560003373ffffffffffffffffffffffffffffffffffffffff1673ffffffffffffffffffffffffffffffffffffffff168152602001908152602001600020541015615c3a576040517f08c379a0000000000000000000000000000000000000000000000000000000008152600401808060200182810382526029815260200180616b0b6029913960400191505060405180910390fd5b615c8c81600560003373ffffffffffffffffffffffffffffffffffffffff1673ffffffffffffffffffffffffffffffffffffffff168152602001908152602001600020546154a190919063ffffffff16565b600560003373ffffffffffffffffffffffffffffffffffffffff1673ffffffffffffffffffffffffffffffffffffffff16815260200190815260200160002081905550615d2181600560008773ffffffffffffffffffffffffffffffffffffffff1673ffffffffffffffffffffffffffffffffffffffff1681526020019081526020016000205461541990919063ffffffff16565b600560008673ffffffffffffffffffffffffffffffffffffffff1673ffffffffffffffffffffffffffffffffffffffff168152602001908152602001600020819055508373ffffffffffffffffffffffffffffffffffffffff163373ffffffffffffffffffffffffffffffffffffffff167fddf252ad1be2c89b69c2b068fc378daa952ba7f163c4a11628f55a4df523b3ef856040518082815260200191505060405180910390a3600191505092915050565b615ddc6167c6565b615de46165b7565b821115615e3c576040517f08c379a00000000000000000000000000000000000000000000000000000000081526004018080602001828103825260368152602001806169e26036913960400191505060405180910390fd5b604051806020016040528069d3c21bcecceda100000084028152509050919050565b615e666167c6565b600082600001511415615ee1576040517f08c379a00000000000000000000000000000000000000000000000000000000081526004018080602001828103825260118152602001807f63616e277420646976696465206279203000000000000000000000000000000081525060200191505060405180910390fd5b600069d3c21bcecceda10000008460000151029050836000015169d3c21bcecceda10000008281615f0e57fe5b0414615f82576040517f08c379a00000000000000000000000000000000000000000000000000000000081526004018080602001828103825260128152602001807f6f766572666c6f7720617420646976696465000000000000000000000000000081525060200191505060405180910390fd5b604051806020016040528084600001518381615f9a57fe5b0481525091505092915050565b600069d3c21bcecceda1000000826000015181615fc057fe5b049050919050565b600080831415615fdb5760009050616048565b6000828402905082848281615fec57fe5b0414616043576040517f08c379a0000000000000000000000000000000000000000000000000000000008152600401808060200182810382526021815260200180616aea6021913960400191505060405180910390fd5b809150505b92915050565b600061609083836040518060400160405280601a81526020017f536166654d6174683a206469766973696f6e206279207a65726f0000000000008152506165d6565b905092915050565b6160a06167c6565b6000836000015114806160b7575060008260000151145b156160d3576040518060200160405280600081525090506164f1565b69d3c21bcecceda1000000826000015114156160f1578290506164f1565b69d3c21bcecceda10000008360000151141561610f578190506164f1565b600069d3c21bcecceda10000006161258561669c565b600001518161613057fe5b049050600061613e856166d3565b600001519050600069d3c21bcecceda100000061615a8661669c565b600001518161616557fe5b0490506000616173866166d3565b6000015190506000828502905060008514616207578285828161619257fe5b0414616206576040517f08c379a00000000000000000000000000000000000000000000000000000000081526004018080602001828103825260168152602001807f6f766572666c6f7720783179312064657465637465640000000000000000000081525060200191505060405180910390fd5b5b600069d3c21bcecceda100000082029050600082146162a95769d3c21bcecceda100000082828161623457fe5b04146162a8576040517f08c379a000000000000000000000000000000000000000000000000000000000815260040180806020018281038252601f8152602001807f6f766572666c6f772078317931202a206669786564312064657465637465640081525060200191505060405180910390fd5b5b809150600084860290506000861461633a57848682816162c557fe5b0414616339576040517f08c379a00000000000000000000000000000000000000000000000000000000081526004018080602001828103825260168152602001807f6f766572666c6f7720783279312064657465637465640000000000000000000081525060200191505060405180910390fd5b5b60008488029050600088146163c8578488828161635357fe5b04146163c7576040517f08c379a00000000000000000000000000000000000000000000000000000000081526004018080602001828103825260168152602001807f6f766572666c6f7720783179322064657465637465640000000000000000000081525060200191505060405180910390fd5b5b6163d0616710565b87816163d857fe5b0496506163e3616710565b85816163eb57fe5b049450600085880290506000881461647c578588828161640757fe5b041461647b576040517f08c379a00000000000000000000000000000000000000000000000000000000081526004018080602001828103825260168152602001807f6f766572666c6f7720783279322064657465637465640000000000000000000081525060200191505060405180910390fd5b5b6164846167c6565b60405180602001604052808781525090506164ad8160405180602001604052808781525061671d565b90506164c78160405180602001604052808681525061671d565b90506164e18160405180602001604052808581525061671d565b9050809a50505050505050505050505b92915050565b60008383111582906165a4576040517f08c379a00000000000000000000000000000000000000000000000000000000081526004018080602001828103825283818151815260200191508051906020019080838360005b8381101561656957808201518184015260208101905061654e565b50505050905090810190601f1680156165965780820380516001836020036101000a031916815260200191505b509250505060405180910390fd5b5060008385039050809150509392505050565b60007601357c299a88ea76a58924d52ce4f26a85af186c2b9e74905090565b60008083118290616682576040517f08c379a00000000000000000000000000000000000000000000000000000000081526004018080602001828103825283818151815260200191508051906020019080838360005b8381101561664757808201518184015260208101905061662c565b50505050905090810190601f1680156166745780820380516001836020036101000a031916815260200191505b509250505060405180910390fd5b50600083858161668e57fe5b049050809150509392505050565b6166a46167c6565b604051806020016040528069d3c21bcecceda1000000808560000151816166c757fe5b04028152509050919050565b6166db6167c6565b604051806020016040528069d3c21bcecceda1000000808560000151816166fe57fe5b04028460000151038152509050919050565b600064e8d4a51000905090565b6167256167c6565b60008260000151846000015101905083600001518110156167ae576040517f08c379a00000000000000000000000000000000000000000000000000000000081526004018080602001828103825260158152602001807f616464206f766572666c6f77206465746563746564000000000000000000000081525060200191505060405180910390fd5b60405180602001604052808281525091505092915050565b6040518060200160405280600081525090565b828054600181600116156101000203166002900490600052602060002090601f016020900481019282601f1061681a57803560ff1916838001178555616848565b82800160010185558215616848579182015b8281111561684757823582559160200191906001019061682c565b5b5090506168559190616859565b5090565b61687b91905b8082111561687757600081600090555060010161685f565b5090565b9056fe6572726f722063616c6c696e67206e756d62657256616c696461746f7273496e53657420707265636f6d70696c65696e666c6174696f6e466163746f72557064617465506572696f64206d757374206265203e20304f776e61626c653a206e6577206f776e657220697320746865207a65726f20616464726573734d7573742070726f766964652061206e6f6e2d7a65726f20696e666c6174696f6e20726174654f6e6c79207468652045786368616e676520616e642056616c696461746f727320636f6e7472616374732061726520617574686f72697a656420746f206d696e744d7573742070726f766964652061206e6f6e2d7a65726f20696e666c6174696f6e20726174652e6572726f722063616c6c696e672067657456657269666965645365616c4269746d617046726f6d48656164657220707265636f6d70696c6563616e27742063616c6c207768656e20636f6e74726163742069732066726f7a656e63616e277420637265617465206669786964697479206e756d626572206c6172676572207468616e206d61784e6577466978656428296572726f722063616c6c696e672076616c696461746f725369676e65724164647265737346726f6d43757272656e7453657420707265636f6d70696c656572726f722063616c6c696e67206e756d62657256616c696461746f7273496e43757272656e7453657420707265636f6d70696c656572726f722063616c6c696e672076616c696461746f725369676e65724164647265737346726f6d53657420707265636f6d70696c6572657365727665642061646472657373203078302063616e6e6f74206861766520616c6c6f77616e6365536166654d6174683a206d756c7469706c69636174696f6e206f766572666c6f777472616e736665722076616c75652065786365656465642062616c616e6365206f662073656e6465727472616e736665722076616c75652065786365656465642073656e646572277320616c6c6f77616e636520666f7220726563697069656e746572726f722063616c6c696e67206672616374696f6e4d756c45787020707265636f6d70696c656572726f722063616c6c696e672067657445706f636853697a6520707265636f6d70696c656572726f722063616c6c696e6720676574506172656e745365616c4269746d617020707265636f6d70696c656572726f722063616c6c696e6720676574426c6f636b4e756d62657246726f6d48656164657220707265636f6d70696c657472616e7366657220617474656d7074656420746f2072657365727665642061646472657373203078306572726f722063616c6c696e67206861736848656164657220707265636f6d70696c65a165627a7a72305820e36dd2d3f6b3746428209c55899a040c5650b4c3d091cf07df7b11478af8acb90029",
  "source": "pragma solidity ^0.5.3;\n\nimport \"openzeppelin-solidity/contracts/math/SafeMath.sol\";\nimport \"openzeppelin-solidity/contracts/ownership/Ownable.sol\";\nimport \"openzeppelin-solidity/contracts/token/ERC20/IERC20.sol\";\n\nimport \"./interfaces/IStableToken.sol\";\nimport \"../common/interfaces/ICeloToken.sol\";\nimport \"../common/CalledByVm.sol\";\nimport \"../common/Initializable.sol\";\nimport \"../common/FixidityLib.sol\";\nimport \"../common/Freezable.sol\";\nimport \"../common/UsingRegistry.sol\";\nimport \"../common/UsingPrecompiles.sol\";\n\n/**\n * @title An ERC20 compliant token with adjustable supply.\n */\n// solhint-disable-next-line max-line-length\ncontract StableToken is\n  Ownable,\n  Initializable,\n  UsingRegistry,\n  UsingPrecompiles,\n  Freezable,\n  CalledByVm,\n  IStableToken,\n  IERC20,\n  ICeloToken\n{\n  using FixidityLib for FixidityLib.Fraction;\n  using SafeMath for uint256;\n\n  event InflationFactorUpdated(uint256 factor, uint256 lastUpdated);\n\n  event InflationParametersUpdated(uint256 rate, uint256 updatePeriod, uint256 lastUpdated);\n\n  event Transfer(address indexed from, address indexed to, uint256 value);\n\n  event TransferComment(string comment);\n\n  string internal name_;\n  string internal symbol_;\n  uint8 internal decimals_;\n\n  // Stored as units. Value can be found using unitsToValue().\n  mapping(address => uint256) internal balances;\n  uint256 internal totalSupply_;\n\n  // Stored as values. Units can be found using valueToUnits().\n  mapping(address => mapping(address => uint256)) internal allowed;\n\n  // STABILITY FEE PARAMETERS\n\n  // The `rate` is how much the `factor` is adjusted by per `updatePeriod`.\n  // The `factor` describes units/value of StableToken, and is greater than or equal to 1.\n  // The `updatePeriod` governs how often the `factor` is updated.\n  // `factorLastUpdated` indicates when the inflation factor was last updated.\n  struct InflationState {\n    FixidityLib.Fraction rate;\n    FixidityLib.Fraction factor;\n    uint256 updatePeriod;\n    uint256 factorLastUpdated;\n  }\n\n  InflationState inflationState;\n\n  /**\n   * @notice recomputes and updates inflation factor if more than `updatePeriod`\n   * has passed since last update.\n   */\n  modifier updateInflationFactor() {\n    FixidityLib.Fraction memory updatedInflationFactor;\n    uint256 lastUpdated;\n\n    (updatedInflationFactor, lastUpdated) = getUpdatedInflationFactor();\n\n    if (lastUpdated != inflationState.factorLastUpdated) {\n      inflationState.factor = updatedInflationFactor;\n      inflationState.factorLastUpdated = lastUpdated;\n      emit InflationFactorUpdated(inflationState.factor.unwrap(), inflationState.factorLastUpdated);\n    }\n    _;\n  }\n\n  /**\n   * @param _name The name of the stable token (English)\n   * @param _symbol A short symbol identifying the token (e.g. \"cUSD\")\n   * @param _decimals Tokens are divisible to this many decimal places.\n   * @param registryAddress Address of the Registry contract.\n   * @param inflationRate weekly inflation rate.\n   * @param inflationFactorUpdatePeriod how often the inflation factor is updated.\n   */\n  function initialize(\n    string calldata _name,\n    string calldata _symbol,\n    uint8 _decimals,\n    address registryAddress,\n    uint256 inflationRate,\n    uint256 inflationFactorUpdatePeriod,\n    address[] calldata initialBalanceAddresses,\n    uint256[] calldata initialBalanceValues\n  ) external initializer {\n    require(inflationRate != 0, \"Must provide a non-zero inflation rate\");\n    require(inflationFactorUpdatePeriod > 0, \"inflationFactorUpdatePeriod must be > 0\");\n\n    _transferOwnership(msg.sender);\n\n    totalSupply_ = 0;\n    name_ = _name;\n    symbol_ = _symbol;\n    decimals_ = _decimals;\n\n    inflationState.rate = FixidityLib.wrap(inflationRate);\n    inflationState.factor = FixidityLib.fixed1();\n    inflationState.updatePeriod = inflationFactorUpdatePeriod;\n    // solhint-disable-next-line not-rely-on-time\n    inflationState.factorLastUpdated = now;\n\n    require(initialBalanceAddresses.length == initialBalanceValues.length, \"Array length mismatch\");\n    for (uint256 i = 0; i < initialBalanceAddresses.length; i = i.add(1)) {\n      _mint(initialBalanceAddresses[i], initialBalanceValues[i]);\n    }\n    setRegistry(registryAddress);\n  }\n\n  /**\n   * @notice Updates Inflation Parameters.\n   * @param rate new rate.\n   * @param updatePeriod how often inflationFactor is updated.\n   */\n  function setInflationParameters(uint256 rate, uint256 updatePeriod)\n    external\n    onlyOwner\n    updateInflationFactor\n  {\n    require(rate != 0, \"Must provide a non-zero inflation rate.\");\n    require(updatePeriod > 0, \"updatePeriod must be > 0\");\n    inflationState.rate = FixidityLib.wrap(rate);\n    inflationState.updatePeriod = updatePeriod;\n\n    emit InflationParametersUpdated(\n      rate,\n      updatePeriod,\n      // solhint-disable-next-line not-rely-on-time\n      now\n    );\n  }\n\n  /**\n   * @notice Increase the allowance of another user.\n   * @param spender The address which is being approved to spend StableToken.\n   * @param value The increment of the amount of StableToken approved to the spender.\n   * @return True if the transaction succeeds.\n   */\n  function increaseAllowance(address spender, uint256 value)\n    external\n    updateInflationFactor\n    returns (bool)\n  {\n    require(spender != address(0), \"reserved address 0x0 cannot have allowance\");\n    uint256 oldValue = allowed[msg.sender][spender];\n    uint256 newValue = oldValue.add(value);\n    allowed[msg.sender][spender] = newValue;\n    emit Approval(msg.sender, spender, newValue);\n    return true;\n  }\n\n  /**\n   * @notice Decrease the allowance of another user.\n   * @param spender The address which is being approved to spend StableToken.\n   * @param value The decrement of the amount of StableToken approved to the spender.\n   * @return True if the transaction succeeds.\n   */\n  function decreaseAllowance(address spender, uint256 value)\n    external\n    updateInflationFactor\n    returns (bool)\n  {\n    uint256 oldValue = allowed[msg.sender][spender];\n    uint256 newValue = oldValue.sub(value);\n    allowed[msg.sender][spender] = newValue;\n    emit Approval(msg.sender, spender, newValue);\n    return true;\n  }\n\n  /**\n   * @notice Approve a user to transfer StableToken on behalf of another user.\n   * @param spender The address which is being approved to spend StableToken.\n   * @param value The amount of StableToken approved to the spender.\n   * @return True if the transaction succeeds.\n   */\n  function approve(address spender, uint256 value) external updateInflationFactor returns (bool) {\n    require(spender != address(0), \"reserved address 0x0 cannot have allowance\");\n    allowed[msg.sender][spender] = value;\n    emit Approval(msg.sender, spender, value);\n    return true;\n  }\n\n  /**\n   * @notice Mints new StableToken and gives it to 'to'.\n   * @param to The account for which to mint tokens.\n   * @param value The amount of StableToken to mint.\n   */\n  function mint(address to, uint256 value) external updateInflationFactor returns (bool) {\n    require(\n      msg.sender == registry.getAddressFor(EXCHANGE_REGISTRY_ID) ||\n        msg.sender == registry.getAddressFor(VALIDATORS_REGISTRY_ID),\n      \"Only the Exchange and Validators contracts are authorized to mint\"\n    );\n    return _mint(to, value);\n  }\n\n  /**\n   * @notice Mints new StableToken and gives it to 'to'.\n   * @param to The account for which to mint tokens.\n   * @param value The amount of StableToken to mint.\n   */\n  function _mint(address to, uint256 value) private returns (bool) {\n    require(to != address(0), \"0 is a reserved address\");\n    require(value > 0, \"mint value must be > 0\");\n    uint256 units = _valueToUnits(inflationState.factor, value);\n    totalSupply_ = totalSupply_.add(units);\n    balances[to] = balances[to].add(units);\n    emit Transfer(address(0), to, value);\n    return true;\n  }\n\n  /**\n   * @notice Transfer token for a specified address\n   * @param to The address to transfer to.\n   * @param value The amount to be transferred.\n   * @param comment The transfer comment.\n   * @return True if the transaction succeeds.\n   */\n  function transferWithComment(address to, uint256 value, string calldata comment)\n    external\n    updateInflationFactor\n    onlyWhenNotFrozen\n    returns (bool)\n  {\n    bool succeeded = transfer(to, value);\n    emit TransferComment(comment);\n    return succeeded;\n  }\n\n  /**\n   * @notice Burns StableToken from the balance of msg.sender.\n   * @param value The amount of StableToken to burn.\n   */\n  function burn(uint256 value)\n    external\n    onlyRegisteredContract(EXCHANGE_REGISTRY_ID)\n    updateInflationFactor\n    returns (bool)\n  {\n    uint256 units = _valueToUnits(inflationState.factor, value);\n    require(units <= balances[msg.sender], \"value exceeded balance of sender\");\n    totalSupply_ = totalSupply_.sub(units);\n    balances[msg.sender] = balances[msg.sender].sub(units);\n    emit Transfer(msg.sender, address(0), units);\n    return true;\n  }\n\n  /**\n   * @notice Transfers StableToken from one address to another on behalf of a user.\n   * @param from The address to transfer StableToken from.\n   * @param to The address to transfer StableToken to.\n   * @param value The amount of StableToken to transfer.\n   * @return True if the transaction succeeds.\n   */\n  function transferFrom(address from, address to, uint256 value)\n    external\n    updateInflationFactor\n    onlyWhenNotFrozen\n    returns (bool)\n  {\n    uint256 units = _valueToUnits(inflationState.factor, value);\n    require(to != address(0), \"transfer attempted to reserved address 0x0\");\n    require(units <= balances[from], \"transfer value exceeded balance of sender\");\n    require(\n      value <= allowed[from][msg.sender],\n      \"transfer value exceeded sender's allowance for recipient\"\n    );\n\n    balances[to] = balances[to].add(units);\n    balances[from] = balances[from].sub(units);\n    allowed[from][msg.sender] = allowed[from][msg.sender].sub(value);\n    emit Transfer(from, to, value);\n    return true;\n  }\n\n  /**\n   * @return The name of the stable token.\n   */\n  function name() external view returns (string memory) {\n    return name_;\n  }\n\n  /**\n   * @return The symbol of the stable token.\n   */\n  function symbol() external view returns (string memory) {\n    return symbol_;\n  }\n\n  /**\n   * @return The number of decimal places to which StableToken is divisible.\n   */\n  function decimals() external view returns (uint8) {\n    return decimals_;\n  }\n\n  /**\n   * @notice Gets the amount of owner's StableToken allowed to be spent by spender.\n   * @param accountOwner The owner of the StableToken.\n   * @param spender The spender of the StableToken.\n   * @return The amount of StableToken owner is allowing spender to spend.\n   */\n  function allowance(address accountOwner, address spender) external view returns (uint256) {\n    return allowed[accountOwner][spender];\n  }\n\n  /**\n   * @notice Gets the balance of the specified address using the presently stored inflation factor.\n   * @param accountOwner The address to query the balance of.\n   * @return The balance of the specified address.\n   */\n  function balanceOf(address accountOwner) external view returns (uint256) {\n    return unitsToValue(balances[accountOwner]);\n  }\n\n  /**\n   * @return The total value of StableToken in existence\n   * @dev Though totalSupply_ is stored in units, this returns value.\n   */\n  function totalSupply() external view returns (uint256) {\n    return unitsToValue(totalSupply_);\n  }\n\n  /**\n   * @notice gets inflation parameters.\n   * @return rate\n   * @return factor\n   * @return updatePeriod\n   * @return factorLastUpdated\n   */\n  function getInflationParameters() external view returns (uint256, uint256, uint256, uint256) {\n    return (\n      inflationState.rate.unwrap(),\n      inflationState.factor.unwrap(),\n      inflationState.updatePeriod,\n      inflationState.factorLastUpdated\n    );\n  }\n\n  /**\n   * @notice Returns the units for a given value given the current inflation factor.\n   * @param value The value to convert to units.\n   * @return The units corresponding to `value` given the current inflation factor.\n   * @dev We don't compute the updated inflationFactor here because\n   * we assume any function calling this will have updated the inflation factor.\n   */\n  function valueToUnits(uint256 value) external view returns (uint256) {\n    FixidityLib.Fraction memory updatedInflationFactor;\n\n    (updatedInflationFactor, ) = getUpdatedInflationFactor();\n    return _valueToUnits(updatedInflationFactor, value);\n  }\n\n  /**\n   * @notice Returns the value of a given number of units given the current inflation factor.\n   * @param units The units to convert to value.\n   * @return The value corresponding to `units` given the current inflation factor.\n   */\n  function unitsToValue(uint256 units) public view returns (uint256) {\n    FixidityLib.Fraction memory updatedInflationFactor;\n\n    (updatedInflationFactor, ) = getUpdatedInflationFactor();\n\n    // We're ok using FixidityLib.divide here because updatedInflationFactor is\n    // not going to surpass maxFixedDivisor any time soon.\n    // Quick upper-bound estimation: if annual inflation were 5% (an order of\n    // magnitude more than the initial proposal of 0.5%), in 500 years, the\n    // inflation factor would be on the order of 10**10, which is still a safe\n    // divisor.\n    return FixidityLib.newFixed(units).divide(updatedInflationFactor).fromFixed();\n  }\n\n  /**\n   * @notice Returns the units for a given value given the current inflation factor.\n   * @param value The value to convert to units.\n   * @return The units corresponding to `value` given the current inflation factor.\n   * @dev we assume any function calling this will have updated the inflation factor.\n   */\n  function _valueToUnits(FixidityLib.Fraction memory inflationFactor, uint256 value)\n    private\n    pure\n    returns (uint256)\n  {\n    return inflationFactor.multiply(FixidityLib.newFixed(value)).fromFixed();\n  }\n\n  /**\n   * @notice Computes the up-to-date inflation factor.\n   * @return current inflation factor.\n   * @return lastUpdated time when the returned inflation factor went into effect.\n   */\n  function getUpdatedInflationFactor() private view returns (FixidityLib.Fraction memory, uint256) {\n    /* solhint-disable not-rely-on-time */\n    if (now < inflationState.factorLastUpdated.add(inflationState.updatePeriod)) {\n      return (inflationState.factor, inflationState.factorLastUpdated);\n    }\n\n    uint256 numerator;\n    uint256 denominator;\n\n    // TODO: handle retroactive updates given decreases to updatePeriod\n    uint256 timesToApplyInflation = now.sub(inflationState.factorLastUpdated).div(\n      inflationState.updatePeriod\n    );\n\n    (numerator, denominator) = fractionMulExp(\n      inflationState.factor.unwrap(),\n      FixidityLib.fixed1().unwrap(),\n      inflationState.rate.unwrap(),\n      FixidityLib.fixed1().unwrap(),\n      timesToApplyInflation,\n      decimals_\n    );\n\n    // This should never happen. If something went wrong updating the\n    // inflation factor, keep the previous factor\n    if (numerator == 0 || denominator == 0) {\n      return (inflationState.factor, inflationState.factorLastUpdated);\n    }\n\n    FixidityLib.Fraction memory currentInflationFactor = FixidityLib.wrap(numerator).divide(\n      FixidityLib.wrap(denominator)\n    );\n    uint256 lastUpdated = inflationState.factorLastUpdated.add(\n      inflationState.updatePeriod.mul(timesToApplyInflation)\n    );\n\n    return (currentInflationFactor, lastUpdated);\n    /* solhint-enable not-rely-on-time */\n  }\n\n  /**\n   * @notice Transfers `value` from `msg.sender` to `to`\n   * @param to The address to transfer to.\n   * @param value The amount to be transferred.\n   */\n  // solhint-disable-next-line no-simple-event-func-name\n  function transfer(address to, uint256 value)\n    public\n    updateInflationFactor\n    onlyWhenNotFrozen\n    returns (bool)\n  {\n    return _transfer(to, value);\n  }\n\n  /**\n   * @notice Transfers StableToken from one address to another\n   * @param to The address to transfer StableToken to.\n   * @param value The amount of StableToken to be transferred.\n   */\n  function _transfer(address to, uint256 value) internal returns (bool) {\n    require(to != address(0), \"transfer attempted to reserved address 0x0\");\n    uint256 units = _valueToUnits(inflationState.factor, value);\n    require(balances[msg.sender] >= units, \"transfer value exceeded balance of sender\");\n    balances[msg.sender] = balances[msg.sender].sub(units);\n    balances[to] = balances[to].add(units);\n    emit Transfer(msg.sender, to, value);\n    return true;\n  }\n\n  /**\n   * @notice Reserve balance for making payments for gas in this StableToken currency.\n   * @param from The account to reserve balance from\n   * @param value The amount of balance to reserve\n   */\n  function debitGasFees(address from, uint256 value)\n    external\n    onlyVm\n    onlyWhenNotFrozen\n    updateInflationFactor\n  {\n    uint256 units = _valueToUnits(inflationState.factor, value);\n    balances[from] = balances[from].sub(units);\n    totalSupply_ = totalSupply_.sub(units);\n  }\n\n  /**\n   * @notice Alternative function to credit balance after making payments\n   * for gas in this StableToken currency.\n   * @param from The account to debit balance from\n   * @param feeRecipient Coinbase address\n   * @param gatewayFeeRecipient Gateway address\n   * @param communityFund Community fund address\n   * @param tipTxFee Coinbase fee\n   * @param baseTxFee Community fund fee\n   * @param gatewayFee Gateway fee\n   */\n  function creditGasFees(\n    address from,\n    address feeRecipient,\n    address gatewayFeeRecipient,\n    address communityFund,\n    uint256 refund,\n    uint256 tipTxFee,\n    uint256 gatewayFee,\n    uint256 baseTxFee\n  ) external onlyVm onlyWhenNotFrozen {\n    uint256 units = _valueToUnits(inflationState.factor, refund);\n    balances[from] = balances[from].add(units);\n\n    units = units.add(_creditGas(from, communityFund, baseTxFee));\n    units = units.add(_creditGas(from, feeRecipient, tipTxFee));\n    units = units.add(_creditGas(from, gatewayFeeRecipient, gatewayFee));\n    totalSupply_ = totalSupply_.add(units);\n  }\n\n  function _creditGas(address from, address to, uint256 value) internal returns (uint256) {\n    if (to == address(0)) {\n      return 0;\n    }\n    uint256 units = _valueToUnits(inflationState.factor, value);\n    balances[to] = balances[to].add(units);\n    emit Transfer(from, to, value);\n    return units;\n  }\n\n}\n",
  "sourcePath": "/Users/cmcewen/celo/celo-monorepo/packages/protocol/contracts/stability/StableToken.sol",
  "compiler": {
    "name": "solc",
    "version": "0.5.8+commit.23d335f2.Emscripten.clang"
  },
  "schemaVersion": "3.0.10",
  "updatedAt": "2020-04-09T23:47:18.245Z",
  "devdoc": {
    "methods": {
      "allowance(address,address)": {
        "params": {
          "accountOwner": "The owner of the StableToken.",
          "spender": "The spender of the StableToken."
        },
        "return": "The amount of StableToken owner is allowing spender to spend."
      },
      "approve(address,uint256)": {
        "params": {
          "spender": "The address which is being approved to spend StableToken.",
          "value": "The amount of StableToken approved to the spender."
        },
        "return": "True if the transaction succeeds."
      },
      "balanceOf(address)": {
        "params": {
          "accountOwner": "The address to query the balance of."
        },
        "return": "The balance of the specified address."
      },
      "burn(uint256)": {
        "params": {
          "value": "The amount of StableToken to burn."
        }
      },
      "checkProofOfPossession(address,bytes,bytes)": {
        "params": {
          "blsKey": "The BLS public key that the validator is using for consensus, should pass proof  of possession. 48 bytes.",
          "blsPop": "The BLS public key proof-of-possession, which consists of a signature on the  account address. 96 bytes.",
          "sender": "The address signed by the BLS key to generate the proof of possession."
        },
        "return": "True upon success."
      },
      "creditGasFees(address,address,address,address,uint256,uint256,uint256,uint256)": {
        "params": {
          "baseTxFee": "Community fund fee",
          "communityFund": "Community fund address",
          "feeRecipient": "Coinbase address",
          "from": "The account to debit balance from",
          "gatewayFee": "Gateway fee",
          "gatewayFeeRecipient": "Gateway address",
          "tipTxFee": "Coinbase fee"
        }
      },
      "debitGasFees(address,uint256)": {
        "params": {
          "from": "The account to reserve balance from",
          "value": "The amount of balance to reserve"
        }
      },
      "decimals()": {
        "return": "The number of decimal places to which StableToken is divisible."
      },
      "decreaseAllowance(address,uint256)": {
        "params": {
          "spender": "The address which is being approved to spend StableToken.",
          "value": "The decrement of the amount of StableToken approved to the spender."
        },
        "return": "True if the transaction succeeds."
      },
      "fractionMulExp(uint256,uint256,uint256,uint256,uint256,uint256)": {
        "params": {
          "_decimals": "precision",
          "aDenominator": "Denominator of first fraction",
          "aNumerator": "Numerator of first fraction",
          "bDenominator": "Denominator of exponentiated fraction",
          "bNumerator": "Numerator of exponentiated fraction",
          "exponent": "exponent to raise b to"
        },
        "return": "numerator/denominator of the computed quantity (not reduced)."
      },
      "getBlockNumberFromHeader(bytes)": {
        "params": {
          "header": "RLP encoded header"
        },
        "return": "Block number."
      },
      "getEpochNumber()": {
        "return": "Current epoch number."
      },
      "getEpochNumberOfBlock(uint256)": {
        "params": {
          "blockNumber": "Block number where epoch number is calculated."
        },
        "return": "Epoch number."
      },
      "getEpochSize()": {
        "return": "The current epoch size in blocks."
      },
      "getInflationParameters()": {
        "return": "ratefactorupdatePeriodfactorLastUpdated"
      },
      "getParentSealBitmap(uint256)": {
        "params": {
          "blockNumber": "Block number to retrieve. Must be within 4 epochs of the current number."
        },
        "return": "Bitmap parent seal with set bits at indices corresponding to signing validators."
      },
      "getVerifiedSealBitmapFromHeader(bytes)": {
        "params": {
          "header": "RLP encoded header"
        },
        "return": "Bitmap parent seal with set bits at indices correspoinding to signing validators."
      },
      "hashHeader(bytes)": {
        "params": {
          "header": "RLP encoded header"
        },
        "return": "Header hash."
      },
      "increaseAllowance(address,uint256)": {
        "params": {
          "spender": "The address which is being approved to spend StableToken.",
          "value": "The increment of the amount of StableToken approved to the spender."
        },
        "return": "True if the transaction succeeds."
      },
      "initialize(string,string,uint8,address,uint256,uint256,address[],uint256[])": {
        "params": {
          "_decimals": "Tokens are divisible to this many decimal places.",
          "_name": "The name of the stable token (English)",
          "_symbol": "A short symbol identifying the token (e.g. \"cUSD\")",
          "inflationFactorUpdatePeriod": "how often the inflation factor is updated.",
          "inflationRate": "weekly inflation rate.",
          "registryAddress": "Address of the Registry contract."
        }
      },
      "isOwner()": {
        "details": "Returns true if the caller is the current owner."
      },
      "minQuorumSize(uint256)": {
        "details": "Computed in celo-blockchain as int(math.Ceil(float64(2*valSet.Size()) / 3))"
      },
      "minQuorumSizeInCurrentSet()": {
        "return": "Byzantine quorum of validators."
      },
      "mint(address,uint256)": {
        "params": {
          "to": "The account for which to mint tokens.",
          "value": "The amount of StableToken to mint."
        }
      },
      "name()": {
        "return": "The name of the stable token."
      },
      "numberValidatorsInCurrentSet()": {
        "return": "Size of the current elected validator set."
      },
      "numberValidatorsInSet(uint256)": {
        "params": {
          "blockNumber": "Block number to retrieve the validator set from."
        },
        "return": "Size of the validator set."
      },
      "owner()": {
        "details": "Returns the address of the current owner."
      },
      "renounceOwnership()": {
        "details": "Leaves the contract without owner. It will not be possible to call `onlyOwner` functions anymore. Can only be called by the current owner.     * NOTE: Renouncing ownership will leave the contract without an owner, thereby removing any functionality that is only available to the owner."
      },
      "setInflationParameters(uint256,uint256)": {
        "params": {
          "rate": "new rate.",
          "updatePeriod": "how often inflationFactor is updated."
        }
      },
      "setRegistry(address)": {
        "params": {
          "registryAddress": "The address of a registry contract for routing to other contracts."
        }
      },
      "symbol()": {
        "return": "The symbol of the stable token."
      },
      "totalSupply()": {
        "details": "Though totalSupply_ is stored in units, this returns value.",
        "return": "The total value of StableToken in existence"
      },
      "transfer(address,uint256)": {
        "params": {
          "to": "The address to transfer to.",
          "value": "The amount to be transferred."
        }
      },
      "transferFrom(address,address,uint256)": {
        "params": {
          "from": "The address to transfer StableToken from.",
          "to": "The address to transfer StableToken to.",
          "value": "The amount of StableToken to transfer."
        },
        "return": "True if the transaction succeeds."
      },
      "transferOwnership(address)": {
        "details": "Transfers ownership of the contract to a new account (`newOwner`). Can only be called by the current owner."
      },
      "transferWithComment(address,uint256,string)": {
        "params": {
          "comment": "The transfer comment.",
          "to": "The address to transfer to.",
          "value": "The amount to be transferred."
        },
        "return": "True if the transaction succeeds."
      },
      "unitsToValue(uint256)": {
        "params": {
          "units": "The units to convert to value."
        },
        "return": "The value corresponding to `units` given the current inflation factor."
      },
      "validatorSignerAddressFromCurrentSet(uint256)": {
        "params": {
          "index": "Index of requested validator in the validator set."
        },
        "return": "Address of validator at the requested index."
      },
      "validatorSignerAddressFromSet(uint256,uint256)": {
        "params": {
          "blockNumber": "Block number to retrieve the validator set from.",
          "index": "Index of requested validator in the validator set."
        },
        "return": "Address of validator at the requested index."
      },
      "valueToUnits(uint256)": {
        "details": "We don't compute the updated inflationFactor here because we assume any function calling this will have updated the inflation factor.",
        "params": {
          "value": "The value to convert to units."
        },
        "return": "The units corresponding to `value` given the current inflation factor."
      }
    },
    "title": "An ERC20 compliant token with adjustable supply."
  },
  "userdoc": {
    "methods": {
      "allowance(address,address)": {
        "notice": "Gets the amount of owner's StableToken allowed to be spent by spender."
      },
      "approve(address,uint256)": {
        "notice": "Approve a user to transfer StableToken on behalf of another user."
      },
      "balanceOf(address)": {
        "notice": "Gets the balance of the specified address using the presently stored inflation factor."
      },
      "burn(uint256)": {
        "notice": "Burns StableToken from the balance of msg.sender."
      },
      "checkProofOfPossession(address,bytes,bytes)": {
        "notice": "Checks a BLS proof of possession."
      },
      "creditGasFees(address,address,address,address,uint256,uint256,uint256,uint256)": {
        "notice": "Alternative function to credit balance after making payments for gas in this StableToken currency."
      },
      "debitGasFees(address,uint256)": {
        "notice": "Reserve balance for making payments for gas in this StableToken currency."
      },
      "decreaseAllowance(address,uint256)": {
        "notice": "Decrease the allowance of another user."
      },
      "fractionMulExp(uint256,uint256,uint256,uint256,uint256,uint256)": {
        "notice": "calculate a * b^x for fractions a, b to `decimals` precision"
      },
      "getBlockNumberFromHeader(bytes)": {
        "notice": "Parses block number out of header."
      },
      "getEpochNumber()": {
        "notice": "Returns the epoch number at a block."
      },
      "getEpochNumberOfBlock(uint256)": {
        "notice": "Returns the epoch number at a block."
      },
      "getEpochSize()": {
        "notice": "Returns the current epoch size in blocks."
      },
      "getInflationParameters()": {
        "notice": "gets inflation parameters."
      },
      "getParentSealBitmap(uint256)": {
        "notice": "Gets the parent seal bitmap from the header at the given block number."
      },
      "getVerifiedSealBitmapFromHeader(bytes)": {
        "notice": "Verifies the BLS signature on the header and returns the seal bitmap. The validator set used for verification is retrieved based on the parent hash field of the header.  If the parent hash is not in the blockchain, verification fails."
      },
      "hashHeader(bytes)": {
        "notice": "Computes hash of header."
      },
      "increaseAllowance(address,uint256)": {
        "notice": "Increase the allowance of another user."
      },
      "minQuorumSize(uint256)": {
        "notice": "Returns the minimum number of required signers for a given block number."
      },
      "minQuorumSizeInCurrentSet()": {
        "notice": "Computes byzantine quorum from current validator set size"
      },
      "mint(address,uint256)": {
        "notice": "Mints new StableToken and gives it to 'to'."
      },
      "numberValidatorsInCurrentSet()": {
        "notice": "Gets the size of the current elected validator set."
      },
      "numberValidatorsInSet(uint256)": {
        "notice": "Gets the size of the validator set that must sign the given block number."
      },
      "setInflationParameters(uint256,uint256)": {
        "notice": "Updates Inflation Parameters."
      },
      "setRegistry(address)": {
        "notice": "Updates the address pointing to a Registry contract."
      },
      "transfer(address,uint256)": {
        "notice": "Transfers `value` from `msg.sender` to `to`"
      },
      "transferFrom(address,address,uint256)": {
        "notice": "Transfers StableToken from one address to another on behalf of a user."
      },
      "transferWithComment(address,uint256,string)": {
        "notice": "Transfer token for a specified address"
      },
      "unitsToValue(uint256)": {
        "notice": "Returns the value of a given number of units given the current inflation factor."
      },
      "validatorSignerAddressFromCurrentSet(uint256)": {
        "notice": "Gets a validator address from the current validator set."
      },
      "validatorSignerAddressFromSet(uint256,uint256)": {
        "notice": "Gets a validator address from the validator set at the given block number."
      },
      "valueToUnits(uint256)": {
        "notice": "Returns the units for a given value given the current inflation factor."
      }
    }
  }
}