{
  "contractName": "TestDowntimeSlasher",
  "abi": [
    {
      "constant": true,
      "inputs": [],
      "name": "slashingIncentives",
      "outputs": [
        {
          "name": "penalty",
          "type": "uint256"
        },
        {
          "name": "reward",
          "type": "uint256"
        }
      ],
      "payable": false,
      "stateMutability": "view",
      "type": "function"
    },
    {
      "constant": true,
      "inputs": [
        {
          "name": "index",
          "type": "uint256"
        }
      ],
      "name": "validatorSignerAddressFromCurrentSet",
      "outputs": [
        {
          "name": "",
          "type": "address"
        }
      ],
      "payable": false,
      "stateMutability": "view",
      "type": "function"
    },
    {
      "constant": true,
      "inputs": [],
      "name": "initialized",
      "outputs": [
        {
          "name": "",
          "type": "bool"
        }
      ],
      "payable": false,
      "stateMutability": "view",
      "type": "function"
    },
    {
      "constant": true,
      "inputs": [
        {
          "name": "sender",
          "type": "address"
        },
        {
          "name": "blsKey",
          "type": "bytes"
        },
        {
          "name": "blsPop",
          "type": "bytes"
        }
      ],
      "name": "checkProofOfPossession",
      "outputs": [
        {
          "name": "",
          "type": "bool"
        }
      ],
      "payable": false,
      "stateMutability": "view",
      "type": "function"
    },
    {
      "constant": false,
      "inputs": [
        {
          "name": "num",
          "type": "uint256"
        }
      ],
      "name": "setNumberValidators",
      "outputs": [],
      "payable": false,
      "stateMutability": "nonpayable",
      "type": "function"
    },
    {
      "constant": true,
      "inputs": [
        {
          "name": "blockNumber",
          "type": "uint256"
        }
      ],
      "name": "getEpochNumberOfBlock",
      "outputs": [
        {
          "name": "",
          "type": "uint256"
        }
      ],
      "payable": false,
      "stateMutability": "view",
      "type": "function"
    },
    {
      "constant": true,
      "inputs": [],
      "name": "slashableDowntime",
      "outputs": [
        {
          "name": "",
          "type": "uint256"
        }
      ],
      "payable": false,
      "stateMutability": "view",
      "type": "function"
    },
    {
      "constant": false,
      "inputs": [
        {
          "name": "header",
          "type": "bytes"
        },
        {
          "name": "bitmap",
          "type": "bytes32"
        }
      ],
      "name": "setVerifiedSealBitmap",
      "outputs": [],
      "payable": false,
      "stateMutability": "nonpayable",
      "type": "function"
    },
    {
      "constant": true,
      "inputs": [
        {
          "name": "header",
          "type": "bytes"
        }
      ],
      "name": "getVerifiedSealBitmapFromHeader",
      "outputs": [
        {
          "name": "",
          "type": "bytes32"
        }
      ],
      "payable": false,
      "stateMutability": "view",
      "type": "function"
    },
    {
      "constant": false,
      "inputs": [
        {
          "name": "interval",
          "type": "uint256"
        }
      ],
      "name": "setSlashableDowntime",
      "outputs": [],
      "payable": false,
      "stateMutability": "nonpayable",
      "type": "function"
    },
    {
      "constant": false,
      "inputs": [
        {
          "name": "registryAddress",
          "type": "address"
        },
        {
          "name": "_penalty",
          "type": "uint256"
        },
        {
          "name": "_reward",
          "type": "uint256"
        },
        {
          "name": "_slashableDowntime",
          "type": "uint256"
        }
      ],
      "name": "initialize",
      "outputs": [],
      "payable": false,
      "stateMutability": "nonpayable",
      "type": "function"
    },
    {
      "constant": true,
      "inputs": [
        {
          "name": "index",
          "type": "uint256"
        },
        {
          "name": "blockNumber",
          "type": "uint256"
        }
      ],
      "name": "validatorSignerAddressFromSet",
      "outputs": [
        {
          "name": "",
          "type": "address"
        }
      ],
      "payable": false,
      "stateMutability": "view",
      "type": "function"
    },
    {
      "constant": true,
      "inputs": [
        {
          "name": "header",
          "type": "bytes"
        }
      ],
      "name": "hashHeader",
      "outputs": [
        {
          "name": "",
          "type": "bytes32"
        }
      ],
      "payable": false,
      "stateMutability": "view",
      "type": "function"
    },
    {
      "constant": false,
      "inputs": [
        {
          "name": "blockNumber",
          "type": "uint256"
        },
        {
          "name": "bitmap",
          "type": "bytes32"
        }
      ],
      "name": "setParentSealBitmap",
      "outputs": [],
      "payable": false,
      "stateMutability": "nonpayable",
      "type": "function"
    },
    {
      "constant": false,
      "inputs": [],
      "name": "renounceOwnership",
      "outputs": [],
      "payable": false,
      "stateMutability": "nonpayable",
      "type": "function"
    },
    {
      "constant": true,
      "inputs": [],
      "name": "minQuorumSizeInCurrentSet",
      "outputs": [
        {
          "name": "",
          "type": "uint256"
        }
      ],
      "payable": false,
      "stateMutability": "view",
      "type": "function"
    },
    {
      "constant": false,
      "inputs": [
        {
          "name": "header",
          "type": "bytes"
        },
        {
          "name": "number",
          "type": "uint256"
        }
      ],
      "name": "setBlockNumber",
      "outputs": [
        {
          "name": "",
          "type": "uint256"
        }
      ],
      "payable": false,
      "stateMutability": "nonpayable",
      "type": "function"
    },
    {
      "constant": true,
      "inputs": [],
      "name": "registry",
      "outputs": [
        {
          "name": "",
          "type": "address"
        }
      ],
      "payable": false,
      "stateMutability": "view",
      "type": "function"
    },
    {
      "constant": true,
      "inputs": [
        {
          "name": "startBlock",
          "type": "uint256"
        },
        {
          "name": "startSignerIndex",
          "type": "uint256"
        },
        {
          "name": "endSignerIndex",
          "type": "uint256"
        }
      ],
      "name": "isDown",
      "outputs": [
        {
          "name": "",
          "type": "bool"
        }
      ],
      "payable": false,
      "stateMutability": "view",
      "type": "function"
    },
    {
      "constant": true,
      "inputs": [],
      "name": "numberValidatorsInCurrentSet",
      "outputs": [
        {
          "name": "",
          "type": "uint256"
        }
      ],
      "payable": false,
      "stateMutability": "view",
      "type": "function"
    },
    {
      "constant": true,
      "inputs": [
        {
          "name": "validator",
          "type": "address"
        },
        {
          "name": "blockNumber",
          "type": "uint256"
        },
        {
          "name": "groupMembershipHistoryIndex",
          "type": "uint256"
        }
      ],
      "name": "groupMembershipAtBlock",
      "outputs": [
        {
          "name": "",
          "type": "address"
        }
      ],
      "payable": false,
      "stateMutability": "view",
      "type": "function"
    },
    {
      "constant": true,
      "inputs": [
        {
          "name": "header",
          "type": "bytes"
        }
      ],
      "name": "getBlockNumberFromHeader",
      "outputs": [
        {
          "name": "",
          "type": "uint256"
        }
      ],
      "payable": false,
      "stateMutability": "view",
      "type": "function"
    },
    {
      "constant": true,
      "inputs": [],
      "name": "owner",
      "outputs": [
        {
          "name": "",
          "type": "address"
        }
      ],
      "payable": false,
      "stateMutability": "view",
      "type": "function"
    },
    {
      "constant": true,
      "inputs": [],
      "name": "isOwner",
      "outputs": [
        {
          "name": "",
          "type": "bool"
        }
      ],
      "payable": false,
      "stateMutability": "view",
      "type": "function"
    },
    {
      "constant": true,
      "inputs": [],
      "name": "getEpochNumber",
      "outputs": [
        {
          "name": "",
          "type": "uint256"
        }
      ],
      "payable": false,
      "stateMutability": "view",
      "type": "function"
    },
    {
      "constant": true,
      "inputs": [
        {
          "name": "",
          "type": "uint256"
        }
      ],
      "name": "numberValidatorsInSet",
      "outputs": [
        {
          "name": "",
          "type": "uint256"
        }
      ],
      "payable": false,
      "stateMutability": "view",
      "type": "function"
    },
    {
      "constant": false,
      "inputs": [
        {
          "name": "registryAddress",
          "type": "address"
        }
      ],
      "name": "setRegistry",
      "outputs": [],
      "payable": false,
      "stateMutability": "nonpayable",
      "type": "function"
    },
    {
      "constant": false,
      "inputs": [
        {
          "name": "penalty",
          "type": "uint256"
        },
        {
          "name": "reward",
          "type": "uint256"
        }
      ],
      "name": "setSlashingIncentives",
      "outputs": [],
      "payable": false,
      "stateMutability": "nonpayable",
      "type": "function"
    },
    {
      "constant": false,
      "inputs": [
        {
          "name": "epoch",
          "type": "uint256"
        },
        {
          "name": "index",
          "type": "uint256"
        },
        {
          "name": "signer",
          "type": "address"
        }
      ],
      "name": "setEpochSigner",
      "outputs": [],
      "payable": false,
      "stateMutability": "nonpayable",
      "type": "function"
    },
    {
      "constant": true,
      "inputs": [],
      "name": "getEpochSize",
      "outputs": [
        {
          "name": "",
          "type": "uint256"
        }
      ],
      "payable": false,
      "stateMutability": "view",
      "type": "function"
    },
    {
      "constant": true,
      "inputs": [
        {
          "name": "blockNumber",
          "type": "uint256"
        }
      ],
      "name": "minQuorumSize",
      "outputs": [
        {
          "name": "",
          "type": "uint256"
        }
      ],
      "payable": false,
      "stateMutability": "view",
      "type": "function"
    },
    {
      "constant": true,
      "inputs": [
        {
          "name": "aNumerator",
          "type": "uint256"
        },
        {
          "name": "aDenominator",
          "type": "uint256"
        },
        {
          "name": "bNumerator",
          "type": "uint256"
        },
        {
          "name": "bDenominator",
          "type": "uint256"
        },
        {
          "name": "exponent",
          "type": "uint256"
        },
        {
          "name": "_decimals",
          "type": "uint256"
        }
      ],
      "name": "fractionMulExp",
      "outputs": [
        {
          "name": "",
          "type": "uint256"
        },
        {
          "name": "",
          "type": "uint256"
        }
      ],
      "payable": false,
      "stateMutability": "view",
      "type": "function"
    },
    {
      "constant": false,
      "inputs": [
        {
          "name": "newOwner",
          "type": "address"
        }
      ],
      "name": "transferOwnership",
      "outputs": [],
      "payable": false,
      "stateMutability": "nonpayable",
      "type": "function"
    },
    {
      "constant": false,
      "inputs": [
        {
          "name": "startBlock",
          "type": "uint256"
        },
        {
          "name": "startSignerIndex",
          "type": "uint256"
        },
        {
          "name": "endSignerIndex",
          "type": "uint256"
        },
        {
          "name": "groupMembershipHistoryIndex",
          "type": "uint256"
        },
        {
          "name": "validatorElectionLessers",
          "type": "address[]"
        },
        {
          "name": "validatorElectionGreaters",
          "type": "address[]"
        },
        {
          "name": "validatorElectionIndices",
          "type": "uint256[]"
        },
        {
          "name": "groupElectionLessers",
          "type": "address[]"
        },
        {
          "name": "groupElectionGreaters",
          "type": "address[]"
        },
        {
          "name": "groupElectionIndices",
          "type": "uint256[]"
        }
      ],
      "name": "slash",
      "outputs": [],
      "payable": false,
      "stateMutability": "nonpayable",
      "type": "function"
    },
    {
      "constant": true,
      "inputs": [
        {
          "name": "blockNumber",
          "type": "uint256"
        }
      ],
      "name": "getParentSealBitmap",
      "outputs": [
        {
          "name": "",
          "type": "bytes32"
        }
      ],
      "payable": false,
      "stateMutability": "view",
      "type": "function"
    },
    {
      "anonymous": false,
      "inputs": [
        {
          "indexed": false,
          "name": "interval",
          "type": "uint256"
        }
      ],
      "name": "SlashableDowntimeSet",
      "type": "event"
    },
    {
      "anonymous": false,
      "inputs": [
        {
          "indexed": false,
          "name": "penalty",
          "type": "uint256"
        },
        {
          "indexed": false,
          "name": "reward",
          "type": "uint256"
        }
      ],
      "name": "SlashingIncentivesSet",
      "type": "event"
    },
    {
      "anonymous": false,
      "inputs": [
        {
          "indexed": true,
          "name": "registryAddress",
          "type": "address"
        }
      ],
      "name": "RegistrySet",
      "type": "event"
    },
    {
      "anonymous": false,
      "inputs": [
        {
          "indexed": true,
          "name": "previousOwner",
          "type": "address"
        },
        {
          "indexed": true,
          "name": "newOwner",
          "type": "address"
        }
      ],
      "name": "OwnershipTransferred",
      "type": "event"
    }
  ],
  "bytecode": "0x608060405260006100146100b760201b60201c565b9050806000806101000a81548173ffffffffffffffffffffffffffffffffffffffff021916908373ffffffffffffffffffffffffffffffffffffffff1602179055508073ffffffffffffffffffffffffffffffffffffffff16600073ffffffffffffffffffffffffffffffffffffffff167f8be0079c531659141344cd1fd0a4f28419497f9722a3daafe3b4186f6b6457e060405160405180910390a3506100bf565b600033905090565b613f1780620000cf6000396000f3fe608060405234801561001057600080fd5b50600436106102115760003560e01c80637b10399911610125578063a91ee0dc116100ad578063e50e652d1161007c578063e50e652d14610d6e578063ec68307214610db0578063f2fde38b14610e2b578063f749929114610e6f578063fae8db0a1461123457610211565b8063a91ee0dc14610c7c578063bd0d997914610cc0578063d041d18a14610cf8578063df4da46114610d5057610211565b80638a883626116100f45780638a88362614610ae15780638da5cb5b14610bb05780638f32d59b14610bfa5780639a7b3be714610c1c5780639b2b592f14610c3a57610211565b80637b1039991461098757806386bcf1e6146109d157806387ee8a0f14610a2b57806388498aaf14610a4957610211565b80634b2c2f44116101a857806367960e911161017757806367960e911461077f5780636c56c16d1461084e578063715018a6146108865780637385e5da146108905780637a3aebe4146108ae57610211565b80634b2c2f44146105a85780634d643e17146106775780634ec81af1146106a55780635d180adb1461070757610211565b806329d24b64116101e457806329d24b64146104555780633b1eb4bf146104835780634227d971146104c5578063462450c4146104e357610211565b80630a05cd8414610216578063123633ea1461023b578063158ef93e146102a957806323f0ab65146102cb575b600080fd5b61021e611276565b604051808381526020018281526020019250505060405180910390f35b6102676004803603602081101561025157600080fd5b8101908080359060200190929190505050611288565b604051808273ffffffffffffffffffffffffffffffffffffffff1673ffffffffffffffffffffffffffffffffffffffff16815260200191505060405180910390f35b6102b16113d9565b604051808215151515815260200191505060405180910390f35b61043b600480360360608110156102e157600080fd5b81019080803573ffffffffffffffffffffffffffffffffffffffff1690602001909291908035906020019064010000000081111561031e57600080fd5b82018360208201111561033057600080fd5b8035906020019184600183028401116401000000008311171561035257600080fd5b91908080601f016020809104026020016040519081016040528093929190818152602001838380828437600081840152601f19601f820116905080830192505050505050509192919290803590602001906401000000008111156103b557600080fd5b8201836020820111156103c757600080fd5b803590602001918460018302840111640100000000831117156103e957600080fd5b91908080601f016020809104026020016040519081016040528093929190818152602001838380828437600081840152601f19601f8201169050808301925050505050505091929192905050506113ec565b604051808215151515815260200191505060405180910390f35b6104816004803603602081101561046b57600080fd5b81019080803590602001909291905050506115a5565b005b6104af6004803603602081101561049957600080fd5b81019080803590602001909291905050506115af565b6040518082815260200191505060405180910390f35b6104cd6115c9565b6040518082815260200191505060405180910390f35b6105a6600480360360408110156104f957600080fd5b810190808035906020019064010000000081111561051657600080fd5b82018360208201111561052857600080fd5b8035906020019184600183028401116401000000008311171561054a57600080fd5b91908080601f016020809104026020016040519081016040528093929190818152602001838380828437600081840152601f19601f820116905080830192505050505050509192919290803590602001909291905050506115cf565b005b610661600480360360208110156105be57600080fd5b81019080803590602001906401000000008111156105db57600080fd5b8201836020820111156105ed57600080fd5b8035906020019184600183028401116401000000008311171561060f57600080fd5b91908080601f016020809104026020016040519081016040528093929190818152602001838380828437600081840152601f19601f82011690508083019250505050505050919291929050505061165c565b6040518082815260200191505060405180910390f35b6106a36004803603602081101561068d57600080fd5b81019080803590602001909291905050506116ea565b005b610705600480360360808110156106bb57600080fd5b81019080803573ffffffffffffffffffffffffffffffffffffffff16906020019092919080359060200190929190803590602001909291908035906020019092919050505061185e565b005b61073d6004803603604081101561071d57600080fd5b810190808035906020019092919080359060200190929190505050611927565b604051808273ffffffffffffffffffffffffffffffffffffffff1673ffffffffffffffffffffffffffffffffffffffff16815260200191505060405180910390f35b6108386004803603602081101561079557600080fd5b81019080803590602001906401000000008111156107b257600080fd5b8201836020820111156107c457600080fd5b803590602001918460018302840111640100000000831117156107e657600080fd5b91908080601f016020809104026020016040519081016040528093929190818152602001838380828437600081840152601f19601f82011690508083019250505050505050919291929050505061199b565b6040518082815260200191505060405180910390f35b6108846004803603604081101561086457600080fd5b8101908080359060200190929190803590602001909291905050506119ac565b005b61088e6119c8565b005b610898611b01565b6040518082815260200191505060405180910390f35b610971600480360360408110156108c457600080fd5b81019080803590602001906401000000008111156108e157600080fd5b8201836020820111156108f357600080fd5b8035906020019184600183028401116401000000008311171561091557600080fd5b91908080601f016020809104026020016040519081016040528093929190818152602001838380828437600081840152601f19601f82011690508083019250505050505050919291929080359060200190929190505050611b11565b6040518082815260200191505060405180910390f35b61098f611ba2565b604051808273ffffffffffffffffffffffffffffffffffffffff1673ffffffffffffffffffffffffffffffffffffffff16815260200191505060405180910390f35b610a11600480360360608110156109e757600080fd5b81019080803590602001909291908035906020019092919080359060200190929190505050611bc8565b604051808215151515815260200191505060405180910390f35b610a33612004565b6040518082815260200191505060405180910390f35b610a9f60048036036060811015610a5f57600080fd5b81019080803573ffffffffffffffffffffffffffffffffffffffff169060200190929190803590602001909291908035906020019092919050505061214b565b604051808273ffffffffffffffffffffffffffffffffffffffff1673ffffffffffffffffffffffffffffffffffffffff16815260200191505060405180910390f35b610b9a60048036036020811015610af757600080fd5b8101908080359060200190640100000000811115610b1457600080fd5b820183602082011115610b2657600080fd5b80359060200191846001830284011164010000000083111715610b4857600080fd5b91908080601f016020809104026020016040519081016040528093929190818152602001838380828437600081840152601f19601f8201169050808301925050505050505091929192905050506122bc565b6040518082815260200191505060405180910390f35b610bb861234a565b604051808273ffffffffffffffffffffffffffffffffffffffff1673ffffffffffffffffffffffffffffffffffffffff16815260200191505060405180910390f35b610c02612373565b604051808215151515815260200191505060405180910390f35b610c246123d1565b6040518082815260200191505060405180910390f35b610c6660048036036020811015610c5057600080fd5b81019080803590602001909291905050506123e1565b6040518082815260200191505060405180910390f35b610cbe60048036036020811015610c9257600080fd5b81019080803573ffffffffffffffffffffffffffffffffffffffff1690602001909291905050506123ed565b005b610cf660048036036040811015610cd657600080fd5b810190808035906020019092919080359060200190929190505050612591565b005b610d4e60048036036060811015610d0e57600080fd5b810190808035906020019092919080359060200190929190803573ffffffffffffffffffffffffffffffffffffffff1690602001909291905050506126ba565b005b610d5861273f565b6040518082815260200191505060405180910390f35b610d9a60048036036020811015610d8457600080fd5b810190808035906020019092919050505061287b565b6040518082815260200191505060405180910390f35b610e0e600480360360c0811015610dc657600080fd5b810190808035906020019092919080359060200190929190803590602001909291908035906020019092919080359060200190929190803590602001909291905050506128c6565b604051808381526020018281526020019250505060405180910390f35b610e6d60048036036020811015610e4157600080fd5b81019080803573ffffffffffffffffffffffffffffffffffffffff169060200190929190505050612ada565b005b6112326004803603610140811015610e8657600080fd5b810190808035906020019092919080359060200190929190803590602001909291908035906020019092919080359060200190640100000000811115610ecb57600080fd5b820183602082011115610edd57600080fd5b80359060200191846020830284011164010000000083111715610eff57600080fd5b919080806020026020016040519081016040528093929190818152602001838360200280828437600081840152601f19601f82011690508083019250505050505050919291929080359060200190640100000000811115610f5f57600080fd5b820183602082011115610f7157600080fd5b80359060200191846020830284011164010000000083111715610f9357600080fd5b919080806020026020016040519081016040528093929190818152602001838360200280828437600081840152601f19601f82011690508083019250505050505050919291929080359060200190640100000000811115610ff357600080fd5b82018360208201111561100557600080fd5b8035906020019184602083028401116401000000008311171561102757600080fd5b919080806020026020016040519081016040528093929190818152602001838360200280828437600081840152601f19601f8201169050808301925050505050505091929192908035906020019064010000000081111561108757600080fd5b82018360208201111561109957600080fd5b803590602001918460208302840111640100000000831117156110bb57600080fd5b919080806020026020016040519081016040528093929190818152602001838360200280828437600081840152601f19601f8201169050808301925050505050505091929192908035906020019064010000000081111561111b57600080fd5b82018360208201111561112d57600080fd5b8035906020019184602083028401116401000000008311171561114f57600080fd5b919080806020026020016040519081016040528093929190818152602001838360200280828437600081840152601f19601f820116905080830192505050505050509192919290803590602001906401000000008111156111af57600080fd5b8201836020820111156111c157600080fd5b803590602001918460208302840111640100000000831117156111e357600080fd5b919080806020026020016040519081016040528093929190818152602001838360200280828437600081840152601f19601f820116905080830192505050505050509192919290505050612b60565b005b6112606004803603602081101561124a57600080fd5b8101908080359060200190929190505050612cd2565b6040518082815260200191505060405180910390f35b60028060000154908060010154905082565b60006060600060fa73ffffffffffffffffffffffffffffffffffffffff16844360405160200180838152602001828152602001925050506040516020818303038152906040526040518082805190602001908083835b6020831061130157805182526020820191506020810190506020830392506112de565b6001836020036101000a038019825116818451168082178552505050505050905001915050600060405180830381855afa9150503d8060008114611361576040519150601f19603f3d011682016040523d82523d6000602084013e611366565b606091505b508093508192505050806113c5576040517f08c379a000000000000000000000000000000000000000000000000000000000815260040180806020018281038252603d815260200180613de1603d913960400191505060405180910390fd5b6113d0826000612cef565b92505050919050565b600060149054906101000a900460ff1681565b60008060fb73ffffffffffffffffffffffffffffffffffffffff16858585604051602001808473ffffffffffffffffffffffffffffffffffffffff1673ffffffffffffffffffffffffffffffffffffffff1660601b815260140183805190602001908083835b602083106114755780518252602082019150602081019050602083039250611452565b6001836020036101000a03801982511681845116808217855250505050505090500182805190602001908083835b602083106114c657805182526020820191506020810190506020830392506114a3565b6001836020036101000a03801982511681845116808217855250505050505090500193505050506040516020818303038152906040526040518082805190602001908083835b6020831061152f578051825260208201915060208101905060208303925061150c565b6001836020036101000a038019825116818451168082178552505050505050905001915050600060405180830381855afa9150503d806000811461158f576040519150601f19603f3d011682016040523d82523d6000602084013e611594565b606091505b505080915050809150509392505050565b8060098190555050565b60006115c2826115bd61273f565b612d06565b9050919050565b60055481565b8060066000846040516020018082805190602001908083835b6020831061160b57805182526020820191506020810190506020830392506115e8565b6001836020036101000a038019825116818451168082178552505050505050905001915050604051602081830303815290604052805190602001208152602001908152602001600020819055505050565b600060066000836040516020018082805190602001908083835b602083106116995780518252602082019150602081019050602083039250611676565b6001836020036101000a038019825116818451168082178552505050505050905001915050604051602081830303815290604052805190602001208152602001908152602001600020549050919050565b6116f2612373565b611764576040517f08c379a00000000000000000000000000000000000000000000000000000000081526004018080602001828103825260208152602001807f4f776e61626c653a2063616c6c6572206973206e6f7420746865206f776e657281525060200191505060405180910390fd5b60008114156117be576040517f08c379a0000000000000000000000000000000000000000000000000000000008152600401808060200182810382526021815260200180613d226021913960400191505060405180910390fd5b6117c661273f565b811061181d576040517f08c379a0000000000000000000000000000000000000000000000000000000008152600401808060200182810382526032815260200180613daf6032913960400191505060405180910390fd5b806005819055507fc3293b70d45615822039f6f13747ece88efbbb4e645c42070413a6c3fd21d771816040518082815260200191505060405180910390a150565b600060149054906101000a900460ff16156118e1576040517f08c379a000000000000000000000000000000000000000000000000000000000815260040180806020018281038252601c8152602001807f636f6e747261637420616c726561647920696e697469616c697a65640000000081525060200191505060405180910390fd5b6001600060146101000a81548160ff02191690831515021790555061190533612d3e565b61190e846123ed565b6119188383612591565b611921816116ea565b50505050565b60006008600061193684612e82565b85604051602001808381526020018281526020019250505060405160208183030381529060405280519060200120815260200190815260200160002060009054906101000a900473ffffffffffffffffffffffffffffffffffffffff16905092915050565b600081805190602001209050919050565b8060076000848152602001908152602001600020819055505050565b6119d0612373565b611a42576040517f08c379a00000000000000000000000000000000000000000000000000000000081526004018080602001828103825260208152602001807f4f776e61626c653a2063616c6c6572206973206e6f7420746865206f776e657281525060200191505060405180910390fd5b600073ffffffffffffffffffffffffffffffffffffffff166000809054906101000a900473ffffffffffffffffffffffffffffffffffffffff1673ffffffffffffffffffffffffffffffffffffffff167f8be0079c531659141344cd1fd0a4f28419497f9722a3daafe3b4186f6b6457e060405160405180910390a360008060006101000a81548173ffffffffffffffffffffffffffffffffffffffff021916908373ffffffffffffffffffffffffffffffffffffffff160217905550565b6000611b0c4361287b565b905090565b600081600a6000856040516020018082805190602001908083835b60208310611b4f5780518252602082019150602081019050602083039250611b2c565b6001836020036101000a0380198251168184511680821785525050505050509050019150506040516020818303038152906040528051906020012081526020019081526020016000208190555092915050565b600160009054906101000a900473ffffffffffffffffffffffffffffffffffffffff1681565b600080611bd485612ec1565b9050611bea600143612ef290919063ffffffff16565b8110611c41576040517f08c379a000000000000000000000000000000000000000000000000000000000815260040180806020018281038252602c815260200180613ec0602c913960400191505060405180910390fd5b611c4a856123e1565b8410611ca1576040517f08c379a0000000000000000000000000000000000000000000000000000000008152600401808060200182810382526022815260200180613d8d6022913960400191505060405180910390fd5b611caa816123e1565b8310611d1e576040517f08c379a00000000000000000000000000000000000000000000000000000000081526004018080602001828103825260208152602001807f4261642076616c696461746f7220696e64657820617420656e6420626c6f636b81525060200191505060405180910390fd5b6000611d2a8587611927565b90506000611d388584611927565b90506000611d44612f3c565b90508073ffffffffffffffffffffffffffffffffffffffff166393c5c487836040518263ffffffff1660e01b8152600401808273ffffffffffffffffffffffffffffffffffffffff1673ffffffffffffffffffffffffffffffffffffffff16815260200191505060206040518083038186803b158015611dc357600080fd5b505afa158015611dd7573d6000803e3d6000fd5b505050506040513d6020811015611ded57600080fd5b810190808051906020019092919050505073ffffffffffffffffffffffffffffffffffffffff168173ffffffffffffffffffffffffffffffffffffffff166393c5c487856040518263ffffffff1660e01b8152600401808273ffffffffffffffffffffffffffffffffffffffff1673ffffffffffffffffffffffffffffffffffffffff16815260200191505060206040518083038186803b158015611e9157600080fd5b505afa158015611ea5573d6000803e3d6000fd5b505050506040513d6020811015611ebb57600080fd5b810190808051906020019092919050505073ffffffffffffffffffffffffffffffffffffffff1614611f55576040517f08c379a00000000000000000000000000000000000000000000000000000000081526004018080602001828103825260148152602001807f5369676e65727320646f206e6f74206d6174636800000000000000000000000081525060200191505060405180910390fd5b6000611f5f61273f565b90506000611f6d8a83612d06565b905060008a90505b868111611ff157600082611f898386612d06565b14611f945789611f96565b8a5b90506000816001901b611fbb611fb660018661303790919063ffffffff16565b612cd2565b60001c1614611fd557600098505050505050505050611ffd565b50611fea60018261303790919063ffffffff16565b9050611f75565b50600196505050505050505b9392505050565b60006060600060f973ffffffffffffffffffffffffffffffffffffffff1643604051602001808281526020019150506040516020818303038152906040526040518082805190602001908083835b602083106120755780518252602082019150602081019050602083039250612052565b6001836020036101000a038019825116818451168082178552505050505050905001915050600060405180830381855afa9150503d80600081146120d5576040519150601f19603f3d011682016040523d82523d6000602084013e6120da565b606091505b50809350819250505080612139576040517f08c379a0000000000000000000000000000000000000000000000000000000008152600401808060200182810382526035815260200180613e1e6035913960400191505060405180910390fd5b612144826000612cef565b9250505090565b600080612157846115af565b905060008114156121d0576040517f08c379a00000000000000000000000000000000000000000000000000000000081526004018080602001828103825260178152602001807f43616e6e6f7420736c617368206f6e2065706f6368203000000000000000000081525060200191505060405180910390fd5b6121d86130bf565b73ffffffffffffffffffffffffffffffffffffffff1663eb1d0b4286612208600185612ef290919063ffffffff16565b866040518463ffffffff1660e01b8152600401808473ffffffffffffffffffffffffffffffffffffffff1673ffffffffffffffffffffffffffffffffffffffff168152602001838152602001828152602001935050505060206040518083038186803b15801561227757600080fd5b505afa15801561228b573d6000803e3d6000fd5b505050506040513d60208110156122a157600080fd5b81019080805190602001909291905050509150509392505050565b6000600a6000836040516020018082805190602001908083835b602083106122f957805182526020820191506020810190506020830392506122d6565b6001836020036101000a038019825116818451168082178552505050505050905001915050604051602081830303815290604052805190602001208152602001908152602001600020549050919050565b60008060009054906101000a900473ffffffffffffffffffffffffffffffffffffffff16905090565b60008060009054906101000a900473ffffffffffffffffffffffffffffffffffffffff1673ffffffffffffffffffffffffffffffffffffffff166123b56131ba565b73ffffffffffffffffffffffffffffffffffffffff1614905090565b60006123dc436115af565b905090565b60006009549050919050565b6123f5612373565b612467576040517f08c379a00000000000000000000000000000000000000000000000000000000081526004018080602001828103825260208152602001807f4f776e61626c653a2063616c6c6572206973206e6f7420746865206f776e657281525060200191505060405180910390fd5b600073ffffffffffffffffffffffffffffffffffffffff168173ffffffffffffffffffffffffffffffffffffffff16141561250a576040517f08c379a00000000000000000000000000000000000000000000000000000000081526004018080602001828103825260208152602001807f43616e6e6f7420726567697374657220746865206e756c6c206164647265737381525060200191505060405180910390fd5b80600160006101000a81548173ffffffffffffffffffffffffffffffffffffffff021916908373ffffffffffffffffffffffffffffffffffffffff1602179055508073ffffffffffffffffffffffffffffffffffffffff167f27fe5f0c1c3b1ed427cc63d0f05759ffdecf9aec9e18d31ef366fc8a6cb5dc3b60405160405180910390a250565b612599612373565b61260b576040517f08c379a00000000000000000000000000000000000000000000000000000000081526004018080602001828103825260208152602001807f4f776e61626c653a2063616c6c6572206973206e6f7420746865206f776e657281525060200191505060405180910390fd5b808211612663576040517f08c379a0000000000000000000000000000000000000000000000000000000008152600401808060200182810382526024815260200180613d436024913960400191505060405180910390fd5b81600260000181905550806002600101819055507f716dc7c34384df36c6ccc5a2949f2ce9b019f5d4075ef39139a80038a4fdd1c38282604051808381526020018281526020019250505060405180910390a15050565b80600860008585604051602001808381526020018281526020019250505060405160208183030381529060405280519060200120815260200190815260200160002060006101000a81548173ffffffffffffffffffffffffffffffffffffffff021916908373ffffffffffffffffffffffffffffffffffffffff160217905550505050565b60006060600060f873ffffffffffffffffffffffffffffffffffffffff166040516020016040516020818303038152906040526040518082805190602001908083835b602083106127a55780518252602082019150602081019050602083039250612782565b6001836020036101000a038019825116818451168082178552505050505050905001915050600060405180830381855afa9150503d8060008114612805576040519150601f19603f3d011682016040523d82523d6000602084013e61280a565b606091505b50809350819250505080612869576040517f08c379a0000000000000000000000000000000000000000000000000000000008152600401808060200182810382526025815260200180613e9b6025913960400191505060405180910390fd5b612874826000612cef565b9250505090565b60006128bf60036128b160026128a36002612895886123e1565b6131c290919063ffffffff16565b61303790919063ffffffff16565b61324890919063ffffffff16565b9050919050565b600080600087141580156128db575060008514155b61294d576040517f08c379a00000000000000000000000000000000000000000000000000000000081526004018080602001828103825260158152602001807f612064656e6f6d696e61746f72206973207a65726f000000000000000000000081525060200191505060405180910390fd5b6000806000606060fc73ffffffffffffffffffffffffffffffffffffffff168c8c8c8c8c8c6040516020018087815260200186815260200185815260200184815260200183815260200182815260200196505050505050506040516020818303038152906040526040518082805190602001908083835b602083106129e757805182526020820191506020810190506020830392506129c4565b6001836020036101000a038019825116818451168082178552505050505050905001915050600060405180830381855afa9150503d8060008114612a47576040519150601f19603f3d011682016040523d82523d6000602084013e612a4c565b606091505b50809250819350505081612aab576040517f08c379a0000000000000000000000000000000000000000000000000000000008152600401808060200182810382526027815260200180613e746027913960400191505060405180910390fd5b612ab6816000612cef565b9350612ac3816020612cef565b925083839550955050505050965096945050505050565b612ae2612373565b612b54576040517f08c379a00000000000000000000000000000000000000000000000000000000081526004018080602001828103825260208152602001807f4f776e61626c653a2063616c6c6572206973206e6f7420746865206f776e657281525060200191505060405180910390fd5b612b5d81612d3e565b50565b6000612b6a612f3c565b73ffffffffffffffffffffffffffffffffffffffff166393c5c487612b8f8c8e611927565b6040518263ffffffff1660e01b8152600401808273ffffffffffffffffffffffffffffffffffffffff1673ffffffffffffffffffffffffffffffffffffffff16815260200191505060206040518083038186803b158015612bef57600080fd5b505afa158015612c03573d6000803e3d6000fd5b505050506040513d6020811015612c1957600080fd5b81019080805190602001909291905050509050612c36818c613292565b612c418b8b8b611bc8565b612cb3576040517f08c379a00000000000000000000000000000000000000000000000000000000081526004018080602001828103825260088152602001807f4e6f7420646f776e00000000000000000000000000000000000000000000000081525060200191505060405180910390fd5b612cc581338d8b8b8b8b8b8b8b6134f4565b5050505050505050505050565b600060076000838152602001908152602001600020549050919050565b6000612cfb8383613a0f565b60001c905092915050565b600080828481612d1257fe5b0490506000838581612d2057fe5b061415612d305780915050612d38565b600181019150505b92915050565b600073ffffffffffffffffffffffffffffffffffffffff168173ffffffffffffffffffffffffffffffffffffffff161415612dc4576040517f08c379a0000000000000000000000000000000000000000000000000000000008152600401808060200182810382526026815260200180613d676026913960400191505060405180910390fd5b8073ffffffffffffffffffffffffffffffffffffffff166000809054906101000a900473ffffffffffffffffffffffffffffffffffffffff1673ffffffffffffffffffffffffffffffffffffffff167f8be0079c531659141344cd1fd0a4f28419497f9722a3daafe3b4186f6b6457e060405160405180910390a3806000806101000a81548173ffffffffffffffffffffffffffffffffffffffff021916908373ffffffffffffffffffffffffffffffffffffffff16021790555050565b600080606490506000818481612e9457fe5b0490506000828581612ea257fe5b061415612eb3578092505050612ebc565b60018101925050505b919050565b6000612eeb6001612edd6005548561303790919063ffffffff16565b612ef290919063ffffffff16565b9050919050565b6000612f3483836040518060400160405280601e81526020017f536166654d6174683a207375627472616374696f6e206f766572666c6f770000815250613aa0565b905092915050565b6000600160009054906101000a900473ffffffffffffffffffffffffffffffffffffffff1673ffffffffffffffffffffffffffffffffffffffff1663dcf0aaed60405160200180807f4163636f756e74730000000000000000000000000000000000000000000000008152506008019050604051602081830303815290604052805190602001206040518263ffffffff1660e01b81526004018082815260200191505060206040518083038186803b158015612ff757600080fd5b505afa15801561300b573d6000803e3d6000fd5b505050506040513d602081101561302157600080fd5b8101908080519060200190929190505050905090565b6000808284019050838110156130b5576040517f08c379a000000000000000000000000000000000000000000000000000000000815260040180806020018281038252601b8152602001807f536166654d6174683a206164646974696f6e206f766572666c6f77000000000081525060200191505060405180910390fd5b8091505092915050565b6000600160009054906101000a900473ffffffffffffffffffffffffffffffffffffffff1673ffffffffffffffffffffffffffffffffffffffff1663dcf0aaed60405160200180807f56616c696461746f727300000000000000000000000000000000000000000000815250600a019050604051602081830303815290604052805190602001206040518263ffffffff1660e01b81526004018082815260200191505060206040518083038186803b15801561317a57600080fd5b505afa15801561318e573d6000803e3d6000fd5b505050506040513d60208110156131a457600080fd5b8101908080519060200190929190505050905090565b600033905090565b6000808314156131d55760009050613242565b60008284029050828482816131e657fe5b041461323d576040517f08c379a0000000000000000000000000000000000000000000000000000000008152600401808060200182810382526021815260200180613e536021913960400191505060405180910390fd5b809150505b92915050565b600061328a83836040518060400160405280601a81526020017f536166654d6174683a206469766973696f6e206279207a65726f000000000000815250613b60565b905092915050565b600061329d82612ec1565b905060006132aa836115af565b905060006132b7836115af565b905083600460008773ffffffffffffffffffffffffffffffffffffffff1673ffffffffffffffffffffffffffffffffffffffff1681526020019081526020016000206000848152602001908152602001600020541061337e576040517f08c379a000000000000000000000000000000000000000000000000000000000815260040180806020018281038252600f8152602001807f416c726561647920736c6173686564000000000000000000000000000000000081525060200191505060405180910390fd5b83600460008773ffffffffffffffffffffffffffffffffffffffff1673ffffffffffffffffffffffffffffffffffffffff16815260200190815260200160002060008381526020019081526020016000205410613443576040517f08c379a000000000000000000000000000000000000000000000000000000000815260040180806020018281038252600f8152602001807f416c726561647920736c6173686564000000000000000000000000000000000081525060200191505060405180910390fd5b82600460008773ffffffffffffffffffffffffffffffffffffffff1673ffffffffffffffffffffffffffffffffffffffff16815260200190815260200160002060008481526020019081526020016000208190555082600460008773ffffffffffffffffffffffffffffffffffffffff1673ffffffffffffffffffffffffffffffffffffffff1681526020019081526020016000206000838152602001908152602001600020819055505050505050565b60006134fe613c26565b90508073ffffffffffffffffffffffffffffffffffffffff166331993fc98c6002600001548d6002600101548c8c8c6040518863ffffffff1660e01b8152600401808873ffffffffffffffffffffffffffffffffffffffff1673ffffffffffffffffffffffffffffffffffffffff1681526020018781526020018673ffffffffffffffffffffffffffffffffffffffff1673ffffffffffffffffffffffffffffffffffffffff168152602001858152602001806020018060200180602001848103845287818151815260200191508051906020019060200280838360005b838110156135f75780820151818401526020810190506135dc565b50505050905001848103835286818151815260200191508051906020019060200280838360005b8381101561363957808201518184015260208101905061361e565b50505050905001848103825285818151815260200191508051906020019060200280838360005b8381101561367b578082015181840152602081019050613660565b505050509050019a5050505050505050505050600060405180830381600087803b1580156136a857600080fd5b505af11580156136bc573d6000803e3d6000fd5b5050505060006136cd8c8b8b61214b565b9050600073ffffffffffffffffffffffffffffffffffffffff168173ffffffffffffffffffffffffffffffffffffffff16141561370657fe5b8173ffffffffffffffffffffffffffffffffffffffff166331993fc9826002600001548e6002600101548a8a8a6040518863ffffffff1660e01b8152600401808873ffffffffffffffffffffffffffffffffffffffff1673ffffffffffffffffffffffffffffffffffffffff1681526020018781526020018673ffffffffffffffffffffffffffffffffffffffff1673ffffffffffffffffffffffffffffffffffffffff168152602001858152602001806020018060200180602001848103845287818151815260200191508051906020019060200280838360005b838110156137fd5780820151818401526020810190506137e2565b50505050905001848103835286818151815260200191508051906020019060200280838360005b8381101561383f578082015181840152602081019050613824565b50505050905001848103825285818151815260200191508051906020019060200280838360005b83811015613881578082015181840152602081019050613866565b505050509050019a5050505050505050505050600060405180830381600087803b1580156138ae57600080fd5b505af11580156138c2573d6000803e3d6000fd5b5050505060006138d06130bf565b90508073ffffffffffffffffffffffffffffffffffffffff1663e33301aa8e6040518263ffffffff1660e01b8152600401808273ffffffffffffffffffffffffffffffffffffffff1673ffffffffffffffffffffffffffffffffffffffff168152602001915050600060405180830381600087803b15801561395157600080fd5b505af1158015613965573d6000803e3d6000fd5b505050508073ffffffffffffffffffffffffffffffffffffffff1663c22d3bba836040518263ffffffff1660e01b8152600401808273ffffffffffffffffffffffffffffffffffffffff1673ffffffffffffffffffffffffffffffffffffffff168152602001915050600060405180830381600087803b1580156139e857600080fd5b505af11580156139fc573d6000803e3d6000fd5b5050505050505050505050505050505050565b60006020820183511015613a8b576040517f08c379a00000000000000000000000000000000000000000000000000000000081526004018080602001828103825260148152602001807f736c6963696e67206f7574206f662072616e676500000000000000000000000081525060200191505060405180910390fd5b60006020830184015190508091505092915050565b6000838311158290613b4d576040517f08c379a00000000000000000000000000000000000000000000000000000000081526004018080602001828103825283818151815260200191508051906020019080838360005b83811015613b12578082015181840152602081019050613af7565b50505050905090810190601f168015613b3f5780820380516001836020036101000a031916815260200191505b509250505060405180910390fd5b5060008385039050809150509392505050565b60008083118290613c0c576040517f08c379a00000000000000000000000000000000000000000000000000000000081526004018080602001828103825283818151815260200191508051906020019080838360005b83811015613bd1578082015181840152602081019050613bb6565b50505050905090810190601f168015613bfe5780820380516001836020036101000a031916815260200191505b509250505060405180910390fd5b506000838581613c1857fe5b049050809150509392505050565b6000600160009054906101000a900473ffffffffffffffffffffffffffffffffffffffff1673ffffffffffffffffffffffffffffffffffffffff1663dcf0aaed60405160200180807f4c6f636b6564476f6c6400000000000000000000000000000000000000000000815250600a019050604051602081830303815290604052805190602001206040518263ffffffff1660e01b81526004018082815260200191505060206040518083038186803b158015613ce157600080fd5b505afa158015613cf5573d6000803e3d6000fd5b505050506040513d6020811015613d0b57600080fd5b810190808051906020019092919050505090509056fe536c61736861626c6520646f776e74696d652063616e6e6f74206265207a65726f50656e616c74792068617320746f206265206c6172676572207468616e207265776172644f776e61626c653a206e6577206f776e657220697320746865207a65726f20616464726573734261642076616c696461746f7220696e64657820617420737461727420626c6f636b536c61736861626c6520646f776e74696d65206d75737420626520736d616c6c6572207468616e2065706f63682073697a656572726f722063616c6c696e672076616c696461746f725369676e65724164647265737346726f6d43757272656e7453657420707265636f6d70696c656572726f722063616c6c696e67206e756d62657256616c696461746f7273496e43757272656e7453657420707265636f6d70696c65536166654d6174683a206d756c7469706c69636174696f6e206f766572666c6f776572726f722063616c6c696e67206672616374696f6e4d756c45787020707265636f6d70696c656572726f722063616c6c696e672067657445706f636853697a6520707265636f6d70696c65656e6420626c6f636b206d75737420626520736d616c6c6572207468616e2063757272656e7420626c6f636ba165627a7a723058204203b27876b1749969f43ba035831af5e64a5757833a1c7cfc9664e7c883fb320029",
  "source": "pragma solidity ^0.5.3;\n\nimport \"../DowntimeSlasher.sol\";\nimport \"./MockUsingPrecompiles.sol\";\n\ncontract TestDowntimeSlasher is DowntimeSlasher, MockUsingPrecompiles {}\n",
  "sourcePath": "/Users/cmcewen/celo/celo-monorepo/packages/protocol/contracts/governance/test/TestDowntimeSlasher.sol",
  "compiler": {
    "name": "solc",
    "version": "0.5.8+commit.23d335f2.Emscripten.clang"
  },
  "schemaVersion": "3.0.10",
  "updatedAt": "2020-04-09T23:11:37.460Z",
  "devdoc": {
    "methods": {
      "checkProofOfPossession(address,bytes,bytes)": {
        "params": {
          "blsKey": "The BLS public key that the validator is using for consensus, should pass proof  of possession. 48 bytes.",
          "blsPop": "The BLS public key proof-of-possession, which consists of a signature on the  account address. 96 bytes.",
          "sender": "The address signed by the BLS key to generate the proof of possession."
        },
        "return": "True upon success."
      },
      "fractionMulExp(uint256,uint256,uint256,uint256,uint256,uint256)": {
        "params": {
          "_decimals": "precision",
          "aDenominator": "Denominator of first fraction",
          "aNumerator": "Numerator of first fraction",
          "bDenominator": "Denominator of exponentiated fraction",
          "bNumerator": "Numerator of exponentiated fraction",
          "exponent": "exponent to raise b to"
        },
        "return": "numerator/denominator of the computed quantity (not reduced)."
      },
      "getEpochNumber()": {
        "return": "Current epoch number."
      },
      "getEpochNumberOfBlock(uint256)": {
        "params": {
          "blockNumber": "Block number where epoch number is calculated."
        },
        "return": "Epoch number."
      },
      "getEpochSize()": {
        "return": "The current epoch size in blocks."
      },
      "groupMembershipAtBlock(address,uint256,uint256)": {
        "params": {
          "blockNumber": "Block number associated with slashing.",
          "groupMembershipHistoryIndex": "Index used for history lookup.",
          "validator": "Validator that was slashed."
        },
        "return": "Group to be slashed."
      },
      "initialize(address,uint256,uint256,uint256)": {
        "params": {
          "_penalty": "Penalty for the slashed signer.",
          "_reward": "Reward that the observer gets.",
          "_slashableDowntime": "Slashable downtime in blocks.",
          "registryAddress": "The address of the registry core smart contract."
        }
      },
      "isDown(uint256,uint256,uint256)": {
        "params": {
          "endSignerIndex": "Validator index at the last block.",
          "startBlock": "First block of the downtime.",
          "startSignerIndex": "Validator index at the first block."
        }
      },
      "isOwner()": {
        "details": "Returns true if the caller is the current owner."
      },
      "minQuorumSize(uint256)": {
        "details": "Computed in celo-blockchain as int(math.Ceil(float64(2*valSet.Size()) / 3))"
      },
      "minQuorumSizeInCurrentSet()": {
        "return": "Byzantine quorum of validators."
      },
      "numberValidatorsInCurrentSet()": {
        "return": "Size of the current elected validator set."
      },
      "owner()": {
        "details": "Returns the address of the current owner."
      },
      "renounceOwnership()": {
        "details": "Leaves the contract without owner. It will not be possible to call `onlyOwner` functions anymore. Can only be called by the current owner.     * NOTE: Renouncing ownership will leave the contract without an owner, thereby removing any functionality that is only available to the owner."
      },
      "setRegistry(address)": {
        "params": {
          "registryAddress": "The address of a registry contract for routing to other contracts."
        }
      },
      "setSlashableDowntime(uint256)": {
        "params": {
          "interval": "Slashable downtime in blocks."
        }
      },
      "setSlashingIncentives(uint256,uint256)": {
        "params": {
          "penalty": "Penalty for the slashed signer.",
          "reward": "Reward that the observer gets."
        }
      },
      "slash(uint256,uint256,uint256,uint256,address[],address[],uint256[],address[],address[],uint256[])": {
        "params": {
          "endSignerIndex": "Validator index at the last block.",
          "groupElectionGreaters": "Greater pointers for group slashing.",
          "groupElectionIndices": "Vote indices for group slashing.",
          "groupElectionLessers": "Lesser pointers for group slashing.",
          "groupMembershipHistoryIndex": "Group membership index from where the group should be found. (For start block)",
          "startBlock": "First block of the downtime.",
          "startSignerIndex": "Validator index at the first block.",
          "validatorElectionGreaters": "Greater pointers for validator slashing.",
          "validatorElectionIndices": "Vote indices for validator slashing.",
          "validatorElectionLessers": "Lesser pointers for validator slashing."
        }
      },
      "transferOwnership(address)": {
        "details": "Transfers ownership of the contract to a new account (`newOwner`). Can only be called by the current owner."
      },
      "validatorSignerAddressFromCurrentSet(uint256)": {
        "params": {
          "index": "Index of requested validator in the validator set."
        },
        "return": "Address of validator at the requested index."
      }
    }
  },
  "userdoc": {
    "methods": {
      "checkProofOfPossession(address,bytes,bytes)": {
        "notice": "Checks a BLS proof of possession."
      },
      "fractionMulExp(uint256,uint256,uint256,uint256,uint256,uint256)": {
        "notice": "calculate a * b^x for fractions a, b to `decimals` precision"
      },
      "getEpochNumber()": {
        "notice": "Returns the epoch number at a block."
      },
      "getEpochNumberOfBlock(uint256)": {
        "notice": "Returns the epoch number at a block."
      },
      "getEpochSize()": {
        "notice": "Returns the current epoch size in blocks."
      },
      "groupMembershipAtBlock(address,uint256,uint256)": {
        "notice": "Returns the group to be slashed."
      },
      "initialize(address,uint256,uint256,uint256)": {
        "notice": "Used in place of the constructor to allow the contract to be upgradable via proxy."
      },
      "isDown(uint256,uint256,uint256)": {
        "notice": "Test if a validator has been down."
      },
      "minQuorumSize(uint256)": {
        "notice": "Returns the minimum number of required signers for a given block number."
      },
      "minQuorumSizeInCurrentSet()": {
        "notice": "Computes byzantine quorum from current validator set size"
      },
      "numberValidatorsInCurrentSet()": {
        "notice": "Gets the size of the current elected validator set."
      },
      "setRegistry(address)": {
        "notice": "Updates the address pointing to a Registry contract."
      },
      "setSlashableDowntime(uint256)": {
        "notice": "Sets the slashable downtime"
      },
      "setSlashingIncentives(uint256,uint256)": {
        "notice": "Sets slashing incentives."
      },
      "slash(uint256,uint256,uint256,uint256,address[],address[],uint256[],address[],address[],uint256[])": {
        "notice": "Requires that `isDown` returns true and that the account corresponding to `signer` has not already been slashed for downtime for the epoch corresponding to `startBlock`. If so, fetches the `account` associated with `signer` and the group that `signer` was a member of during the corresponding epoch. Then, calls `LockedGold.slash` on both the validator and group accounts. Calls `Validators.removeSlashedMember` to remove the validator from its current group if it is a member of one. Finally, stores that (account, epochNumber) has been slashed."
      },
      "validatorSignerAddressFromCurrentSet(uint256)": {
        "notice": "Gets a validator address from the current validator set."
      }
    }
  }
}