{
  "contractName": "TestDoubleSigningSlasher",
  "abi": [
    {
      "constant": true,
      "inputs": [
        {
          "name": "signer",
          "type": "address"
        },
        {
          "name": "index",
          "type": "uint256"
        },
        {
          "name": "headerA",
          "type": "bytes"
        },
        {
          "name": "headerB",
          "type": "bytes"
        }
      ],
      "name": "checkForDoubleSigning",
      "outputs": [
        {
          "name": "",
          "type": "uint256"
        }
      ],
      "payable": false,
      "stateMutability": "view",
      "type": "function"
    },
    {
      "constant": true,
      "inputs": [],
      "name": "slashingIncentives",
      "outputs": [
        {
          "name": "penalty",
          "type": "uint256"
        },
        {
          "name": "reward",
          "type": "uint256"
        }
      ],
      "payable": false,
      "stateMutability": "view",
      "type": "function"
    },
    {
      "constant": true,
      "inputs": [
        {
          "name": "index",
          "type": "uint256"
        }
      ],
      "name": "validatorSignerAddressFromCurrentSet",
      "outputs": [
        {
          "name": "",
          "type": "address"
        }
      ],
      "payable": false,
      "stateMutability": "view",
      "type": "function"
    },
    {
      "constant": true,
      "inputs": [],
      "name": "initialized",
      "outputs": [
        {
          "name": "",
          "type": "bool"
        }
      ],
      "payable": false,
      "stateMutability": "view",
      "type": "function"
    },
    {
      "constant": true,
      "inputs": [
        {
          "name": "sender",
          "type": "address"
        },
        {
          "name": "blsKey",
          "type": "bytes"
        },
        {
          "name": "blsPop",
          "type": "bytes"
        }
      ],
      "name": "checkProofOfPossession",
      "outputs": [
        {
          "name": "",
          "type": "bool"
        }
      ],
      "payable": false,
      "stateMutability": "view",
      "type": "function"
    },
    {
      "constant": false,
      "inputs": [
        {
          "name": "num",
          "type": "uint256"
        }
      ],
      "name": "setNumberValidators",
      "outputs": [],
      "payable": false,
      "stateMutability": "nonpayable",
      "type": "function"
    },
    {
      "constant": true,
      "inputs": [
        {
          "name": "blockNumber",
          "type": "uint256"
        }
      ],
      "name": "getEpochNumberOfBlock",
      "outputs": [
        {
          "name": "",
          "type": "uint256"
        }
      ],
      "payable": false,
      "stateMutability": "view",
      "type": "function"
    },
    {
      "constant": false,
      "inputs": [
        {
          "name": "header",
          "type": "bytes"
        },
        {
          "name": "bitmap",
          "type": "bytes32"
        }
      ],
      "name": "setVerifiedSealBitmap",
      "outputs": [],
      "payable": false,
      "stateMutability": "nonpayable",
      "type": "function"
    },
    {
      "constant": true,
      "inputs": [
        {
          "name": "header",
          "type": "bytes"
        }
      ],
      "name": "getVerifiedSealBitmapFromHeader",
      "outputs": [
        {
          "name": "",
          "type": "bytes32"
        }
      ],
      "payable": false,
      "stateMutability": "view",
      "type": "function"
    },
    {
      "constant": true,
      "inputs": [
        {
          "name": "index",
          "type": "uint256"
        },
        {
          "name": "blockNumber",
          "type": "uint256"
        }
      ],
      "name": "validatorSignerAddressFromSet",
      "outputs": [
        {
          "name": "",
          "type": "address"
        }
      ],
      "payable": false,
      "stateMutability": "view",
      "type": "function"
    },
    {
      "constant": true,
      "inputs": [
        {
          "name": "header",
          "type": "bytes"
        }
      ],
      "name": "hashHeader",
      "outputs": [
        {
          "name": "",
          "type": "bytes32"
        }
      ],
      "payable": false,
      "stateMutability": "view",
      "type": "function"
    },
    {
      "constant": false,
      "inputs": [
        {
          "name": "blockNumber",
          "type": "uint256"
        },
        {
          "name": "bitmap",
          "type": "bytes32"
        }
      ],
      "name": "setParentSealBitmap",
      "outputs": [],
      "payable": false,
      "stateMutability": "nonpayable",
      "type": "function"
    },
    {
      "constant": false,
      "inputs": [],
      "name": "renounceOwnership",
      "outputs": [],
      "payable": false,
      "stateMutability": "nonpayable",
      "type": "function"
    },
    {
      "constant": true,
      "inputs": [],
      "name": "minQuorumSizeInCurrentSet",
      "outputs": [
        {
          "name": "",
          "type": "uint256"
        }
      ],
      "payable": false,
      "stateMutability": "view",
      "type": "function"
    },
    {
      "constant": false,
      "inputs": [
        {
          "name": "registryAddress",
          "type": "address"
        },
        {
          "name": "_penalty",
          "type": "uint256"
        },
        {
          "name": "_reward",
          "type": "uint256"
        }
      ],
      "name": "initialize",
      "outputs": [],
      "payable": false,
      "stateMutability": "nonpayable",
      "type": "function"
    },
    {
      "constant": false,
      "inputs": [
        {
          "name": "header",
          "type": "bytes"
        },
        {
          "name": "number",
          "type": "uint256"
        }
      ],
      "name": "setBlockNumber",
      "outputs": [
        {
          "name": "",
          "type": "uint256"
        }
      ],
      "payable": false,
      "stateMutability": "nonpayable",
      "type": "function"
    },
    {
      "constant": true,
      "inputs": [],
      "name": "registry",
      "outputs": [
        {
          "name": "",
          "type": "address"
        }
      ],
      "payable": false,
      "stateMutability": "view",
      "type": "function"
    },
    {
      "constant": true,
      "inputs": [],
      "name": "numberValidatorsInCurrentSet",
      "outputs": [
        {
          "name": "",
          "type": "uint256"
        }
      ],
      "payable": false,
      "stateMutability": "view",
      "type": "function"
    },
    {
      "constant": true,
      "inputs": [
        {
          "name": "validator",
          "type": "address"
        },
        {
          "name": "blockNumber",
          "type": "uint256"
        },
        {
          "name": "groupMembershipHistoryIndex",
          "type": "uint256"
        }
      ],
      "name": "groupMembershipAtBlock",
      "outputs": [
        {
          "name": "",
          "type": "address"
        }
      ],
      "payable": false,
      "stateMutability": "view",
      "type": "function"
    },
    {
      "constant": true,
      "inputs": [
        {
          "name": "header",
          "type": "bytes"
        }
      ],
      "name": "getBlockNumberFromHeader",
      "outputs": [
        {
          "name": "",
          "type": "uint256"
        }
      ],
      "payable": false,
      "stateMutability": "view",
      "type": "function"
    },
    {
      "constant": false,
      "inputs": [
        {
          "name": "signer",
          "type": "address"
        },
        {
          "name": "index",
          "type": "uint256"
        },
        {
          "name": "headerA",
          "type": "bytes"
        },
        {
          "name": "headerB",
          "type": "bytes"
        },
        {
          "name": "groupMembershipHistoryIndex",
          "type": "uint256"
        },
        {
          "name": "validatorElectionLessers",
          "type": "address[]"
        },
        {
          "name": "validatorElectionGreaters",
          "type": "address[]"
        },
        {
          "name": "validatorElectionIndices",
          "type": "uint256[]"
        },
        {
          "name": "groupElectionLessers",
          "type": "address[]"
        },
        {
          "name": "groupElectionGreaters",
          "type": "address[]"
        },
        {
          "name": "groupElectionIndices",
          "type": "uint256[]"
        }
      ],
      "name": "slash",
      "outputs": [],
      "payable": false,
      "stateMutability": "nonpayable",
      "type": "function"
    },
    {
      "constant": true,
      "inputs": [],
      "name": "owner",
      "outputs": [
        {
          "name": "",
          "type": "address"
        }
      ],
      "payable": false,
      "stateMutability": "view",
      "type": "function"
    },
    {
      "constant": true,
      "inputs": [],
      "name": "isOwner",
      "outputs": [
        {
          "name": "",
          "type": "bool"
        }
      ],
      "payable": false,
      "stateMutability": "view",
      "type": "function"
    },
    {
      "constant": true,
      "inputs": [],
      "name": "getEpochNumber",
      "outputs": [
        {
          "name": "",
          "type": "uint256"
        }
      ],
      "payable": false,
      "stateMutability": "view",
      "type": "function"
    },
    {
      "constant": true,
      "inputs": [
        {
          "name": "",
          "type": "uint256"
        }
      ],
      "name": "numberValidatorsInSet",
      "outputs": [
        {
          "name": "",
          "type": "uint256"
        }
      ],
      "payable": false,
      "stateMutability": "view",
      "type": "function"
    },
    {
      "constant": false,
      "inputs": [
        {
          "name": "registryAddress",
          "type": "address"
        }
      ],
      "name": "setRegistry",
      "outputs": [],
      "payable": false,
      "stateMutability": "nonpayable",
      "type": "function"
    },
    {
      "constant": false,
      "inputs": [
        {
          "name": "penalty",
          "type": "uint256"
        },
        {
          "name": "reward",
          "type": "uint256"
        }
      ],
      "name": "setSlashingIncentives",
      "outputs": [],
      "payable": false,
      "stateMutability": "nonpayable",
      "type": "function"
    },
    {
      "constant": false,
      "inputs": [
        {
          "name": "epoch",
          "type": "uint256"
        },
        {
          "name": "index",
          "type": "uint256"
        },
        {
          "name": "signer",
          "type": "address"
        }
      ],
      "name": "setEpochSigner",
      "outputs": [],
      "payable": false,
      "stateMutability": "nonpayable",
      "type": "function"
    },
    {
      "constant": true,
      "inputs": [],
      "name": "getEpochSize",
      "outputs": [
        {
          "name": "",
          "type": "uint256"
        }
      ],
      "payable": false,
      "stateMutability": "view",
      "type": "function"
    },
    {
      "constant": true,
      "inputs": [
        {
          "name": "blockNumber",
          "type": "uint256"
        }
      ],
      "name": "minQuorumSize",
      "outputs": [
        {
          "name": "",
          "type": "uint256"
        }
      ],
      "payable": false,
      "stateMutability": "view",
      "type": "function"
    },
    {
      "constant": true,
      "inputs": [
        {
          "name": "aNumerator",
          "type": "uint256"
        },
        {
          "name": "aDenominator",
          "type": "uint256"
        },
        {
          "name": "bNumerator",
          "type": "uint256"
        },
        {
          "name": "bDenominator",
          "type": "uint256"
        },
        {
          "name": "exponent",
          "type": "uint256"
        },
        {
          "name": "_decimals",
          "type": "uint256"
        }
      ],
      "name": "fractionMulExp",
      "outputs": [
        {
          "name": "",
          "type": "uint256"
        },
        {
          "name": "",
          "type": "uint256"
        }
      ],
      "payable": false,
      "stateMutability": "view",
      "type": "function"
    },
    {
      "constant": false,
      "inputs": [
        {
          "name": "newOwner",
          "type": "address"
        }
      ],
      "name": "transferOwnership",
      "outputs": [],
      "payable": false,
      "stateMutability": "nonpayable",
      "type": "function"
    },
    {
      "constant": true,
      "inputs": [
        {
          "name": "blockNumber",
          "type": "uint256"
        }
      ],
      "name": "getParentSealBitmap",
      "outputs": [
        {
          "name": "",
          "type": "bytes32"
        }
      ],
      "payable": false,
      "stateMutability": "view",
      "type": "function"
    },
    {
      "anonymous": false,
      "inputs": [
        {
          "indexed": false,
          "name": "penalty",
          "type": "uint256"
        },
        {
          "indexed": false,
          "name": "reward",
          "type": "uint256"
        }
      ],
      "name": "SlashingIncentivesSet",
      "type": "event"
    },
    {
      "anonymous": false,
      "inputs": [
        {
          "indexed": true,
          "name": "registryAddress",
          "type": "address"
        }
      ],
      "name": "RegistrySet",
      "type": "event"
    },
    {
      "anonymous": false,
      "inputs": [
        {
          "indexed": true,
          "name": "previousOwner",
          "type": "address"
        },
        {
          "indexed": true,
          "name": "newOwner",
          "type": "address"
        }
      ],
      "name": "OwnershipTransferred",
      "type": "event"
    }
  ],
  "bytecode": "0x608060405260006100146100b760201b60201c565b9050806000806101000a81548173ffffffffffffffffffffffffffffffffffffffff021916908373ffffffffffffffffffffffffffffffffffffffff1602179055508073ffffffffffffffffffffffffffffffffffffffff16600073ffffffffffffffffffffffffffffffffffffffff167f8be0079c531659141344cd1fd0a4f28419497f9722a3daafe3b4186f6b6457e060405160405180910390a3506100bf565b600033905090565b613e0080620000cf6000396000f3fe608060405234801561001057600080fd5b50600436106101fb5760003560e01c80637b1039991161011a5780639b2b592f116100ad578063df4da4611161007c578063df4da46114611319578063e50e652d14611337578063ec68307214611379578063f2fde38b146113f4578063fae8db0a14611438576101fb565b80639b2b592f14611203578063a91ee0dc14611245578063bd0d997914611289578063d041d18a146112c1576101fb565b80638cc26910116100e95780638cc2691014610c7a5780638da5cb5b146111795780638f32d59b146111c35780639a7b3be7146111e5576101fb565b80637b10399914610aab57806387ee8a0f14610af557806388498aaf14610b135780638a88362614610bab576101fb565b80634b2c2f4411610192578063715018a611610161578063715018a6146109525780637385e5da1461095c5780637a1ac61e1461097a5780637a3aebe4146109d2576101fb565b80634b2c2f44146107045780635d180adb146107d357806367960e911461084b5780636c56c16d1461091a576101fb565b806323f0ab65116101ce57806323f0ab651461044557806329d24b64146105cf5780633b1eb4bf146105fd578063462450c41461063f576101fb565b806309f99447146102005780630a05cd8414610390578063123633ea146103b5578063158ef93e14610423575b600080fd5b61037a6004803603608081101561021657600080fd5b81019080803573ffffffffffffffffffffffffffffffffffffffff169060200190929190803590602001909291908035906020019064010000000081111561025d57600080fd5b82018360208201111561026f57600080fd5b8035906020019184600183028401116401000000008311171561029157600080fd5b91908080601f016020809104026020016040519081016040528093929190818152602001838380828437600081840152601f19601f820116905080830192505050505050509192919290803590602001906401000000008111156102f457600080fd5b82018360208201111561030657600080fd5b8035906020019184600183028401116401000000008311171561032857600080fd5b91908080601f016020809104026020016040519081016040528093929190818152602001838380828437600081840152601f19601f82011690508083019250505050505050919291929050505061147a565b6040518082815260200191505060405180910390f35b610398611873565b604051808381526020018281526020019250505060405180910390f35b6103e1600480360360208110156103cb57600080fd5b8101908080359060200190929190505050611885565b604051808273ffffffffffffffffffffffffffffffffffffffff1673ffffffffffffffffffffffffffffffffffffffff16815260200191505060405180910390f35b61042b6119d6565b604051808215151515815260200191505060405180910390f35b6105b56004803603606081101561045b57600080fd5b81019080803573ffffffffffffffffffffffffffffffffffffffff1690602001909291908035906020019064010000000081111561049857600080fd5b8201836020820111156104aa57600080fd5b803590602001918460018302840111640100000000831117156104cc57600080fd5b91908080601f016020809104026020016040519081016040528093929190818152602001838380828437600081840152601f19601f8201169050808301925050505050505091929192908035906020019064010000000081111561052f57600080fd5b82018360208201111561054157600080fd5b8035906020019184600183028401116401000000008311171561056357600080fd5b91908080601f016020809104026020016040519081016040528093929190818152602001838380828437600081840152601f19601f8201169050808301925050505050505091929192905050506119e9565b604051808215151515815260200191505060405180910390f35b6105fb600480360360208110156105e557600080fd5b8101908080359060200190929190505050611ba2565b005b6106296004803603602081101561061357600080fd5b8101908080359060200190929190505050611bac565b6040518082815260200191505060405180910390f35b6107026004803603604081101561065557600080fd5b810190808035906020019064010000000081111561067257600080fd5b82018360208201111561068457600080fd5b803590602001918460018302840111640100000000831117156106a657600080fd5b91908080601f016020809104026020016040519081016040528093929190818152602001838380828437600081840152601f19601f82011690508083019250505050505050919291929080359060200190929190505050611bc6565b005b6107bd6004803603602081101561071a57600080fd5b810190808035906020019064010000000081111561073757600080fd5b82018360208201111561074957600080fd5b8035906020019184600183028401116401000000008311171561076b57600080fd5b91908080601f016020809104026020016040519081016040528093929190818152602001838380828437600081840152601f19601f820116905080830192505050505050509192919290505050611c53565b6040518082815260200191505060405180910390f35b610809600480360360408110156107e957600080fd5b810190808035906020019092919080359060200190929190505050611ce1565b604051808273ffffffffffffffffffffffffffffffffffffffff1673ffffffffffffffffffffffffffffffffffffffff16815260200191505060405180910390f35b6109046004803603602081101561086157600080fd5b810190808035906020019064010000000081111561087e57600080fd5b82018360208201111561089057600080fd5b803590602001918460018302840111640100000000831117156108b257600080fd5b91908080601f016020809104026020016040519081016040528093929190818152602001838380828437600081840152601f19601f820116905080830192505050505050509192919290505050611d55565b6040518082815260200191505060405180910390f35b6109506004803603604081101561093057600080fd5b810190808035906020019092919080359060200190929190505050611d66565b005b61095a611d82565b005b610964611ebb565b6040518082815260200191505060405180910390f35b6109d06004803603606081101561099057600080fd5b81019080803573ffffffffffffffffffffffffffffffffffffffff1690602001909291908035906020019092919080359060200190929190505050611ecb565b005b610a95600480360360408110156109e857600080fd5b8101908080359060200190640100000000811115610a0557600080fd5b820183602082011115610a1757600080fd5b80359060200191846001830284011164010000000083111715610a3957600080fd5b91908080601f016020809104026020016040519081016040528093929190818152602001838380828437600081840152601f19601f82011690508083019250505050505050919291929080359060200190929190505050611f8a565b6040518082815260200191505060405180910390f35b610ab361201b565b604051808273ffffffffffffffffffffffffffffffffffffffff1673ffffffffffffffffffffffffffffffffffffffff16815260200191505060405180910390f35b610afd612041565b6040518082815260200191505060405180910390f35b610b6960048036036060811015610b2957600080fd5b81019080803573ffffffffffffffffffffffffffffffffffffffff1690602001909291908035906020019092919080359060200190929190505050612188565b604051808273ffffffffffffffffffffffffffffffffffffffff1673ffffffffffffffffffffffffffffffffffffffff16815260200191505060405180910390f35b610c6460048036036020811015610bc157600080fd5b8101908080359060200190640100000000811115610bde57600080fd5b820183602082011115610bf057600080fd5b80359060200191846001830284011164010000000083111715610c1257600080fd5b91908080601f016020809104026020016040519081016040528093929190818152602001838380828437600081840152601f19601f8201169050808301925050505050505091929192905050506122f9565b6040518082815260200191505060405180910390f35b6111776004803603610160811015610c9157600080fd5b81019080803573ffffffffffffffffffffffffffffffffffffffff1690602001909291908035906020019092919080359060200190640100000000811115610cd857600080fd5b820183602082011115610cea57600080fd5b80359060200191846001830284011164010000000083111715610d0c57600080fd5b91908080601f016020809104026020016040519081016040528093929190818152602001838380828437600081840152601f19601f82011690508083019250505050505050919291929080359060200190640100000000811115610d6f57600080fd5b820183602082011115610d8157600080fd5b80359060200191846001830284011164010000000083111715610da357600080fd5b91908080601f016020809104026020016040519081016040528093929190818152602001838380828437600081840152601f19601f8201169050808301925050505050505091929192908035906020019092919080359060200190640100000000811115610e1057600080fd5b820183602082011115610e2257600080fd5b80359060200191846020830284011164010000000083111715610e4457600080fd5b919080806020026020016040519081016040528093929190818152602001838360200280828437600081840152601f19601f82011690508083019250505050505050919291929080359060200190640100000000811115610ea457600080fd5b820183602082011115610eb657600080fd5b80359060200191846020830284011164010000000083111715610ed857600080fd5b919080806020026020016040519081016040528093929190818152602001838360200280828437600081840152601f19601f82011690508083019250505050505050919291929080359060200190640100000000811115610f3857600080fd5b820183602082011115610f4a57600080fd5b80359060200191846020830284011164010000000083111715610f6c57600080fd5b919080806020026020016040519081016040528093929190818152602001838360200280828437600081840152601f19601f82011690508083019250505050505050919291929080359060200190640100000000811115610fcc57600080fd5b820183602082011115610fde57600080fd5b8035906020019184602083028401116401000000008311171561100057600080fd5b919080806020026020016040519081016040528093929190818152602001838360200280828437600081840152601f19601f8201169050808301925050505050505091929192908035906020019064010000000081111561106057600080fd5b82018360208201111561107257600080fd5b8035906020019184602083028401116401000000008311171561109457600080fd5b919080806020026020016040519081016040528093929190818152602001838360200280828437600081840152601f19601f820116905080830192505050505050509192919290803590602001906401000000008111156110f457600080fd5b82018360208201111561110657600080fd5b8035906020019184602083028401116401000000008311171561112857600080fd5b919080806020026020016040519081016040528093929190818152602001838360200280828437600081840152601f19601f820116905080830192505050505050509192919290505050612387565b005b61118161248f565b604051808273ffffffffffffffffffffffffffffffffffffffff1673ffffffffffffffffffffffffffffffffffffffff16815260200191505060405180910390f35b6111cb6124b8565b604051808215151515815260200191505060405180910390f35b6111ed612516565b6040518082815260200191505060405180910390f35b61122f6004803603602081101561121957600080fd5b8101908080359060200190929190505050612526565b6040518082815260200191505060405180910390f35b6112876004803603602081101561125b57600080fd5b81019080803573ffffffffffffffffffffffffffffffffffffffff169060200190929190505050612532565b005b6112bf6004803603604081101561129f57600080fd5b8101908080359060200190929190803590602001909291905050506126d6565b005b611317600480360360608110156112d757600080fd5b810190808035906020019092919080359060200190929190803573ffffffffffffffffffffffffffffffffffffffff1690602001909291905050506127ff565b005b611321612884565b6040518082815260200191505060405180910390f35b6113636004803603602081101561134d57600080fd5b81019080803590602001909291905050506129c0565b6040518082815260200191505060405180910390f35b6113d7600480360360c081101561138f57600080fd5b81019080803590602001909291908035906020019092919080359060200190929190803590602001909291908035906020019092919080359060200190929190505050612a0b565b604051808381526020018281526020019250505060405180910390f35b6114366004803603602081101561140a57600080fd5b81019080803573ffffffffffffffffffffffffffffffffffffffff169060200190929190505050612c1f565b005b6114646004803603602081101561144e57600080fd5b8101908080359060200190929190505050612ca5565b6040518082815260200191505060405180910390f35b600061148582611d55565b61148e84611d55565b14156114e5576040517f08c379a0000000000000000000000000000000000000000000000000000000008152600401808060200182810382526021815260200180613cfa6021913960400191505060405180910390fd5b60006114f0846122f9565b90506114fb836122f9565b8114611552576040517f08c379a0000000000000000000000000000000000000000000000000000000008152600401808060200182810382526027815260200180613d3c6027913960400191505060405180910390fd5b61155b81612526565b85106115cf576040517f08c379a00000000000000000000000000000000000000000000000000000000081526004018080602001828103825260138152602001807f4261642076616c696461746f7220696e6465780000000000000000000000000081525060200191505060405180910390fd5b6115d98582611ce1565b73ffffffffffffffffffffffffffffffffffffffff168673ffffffffffffffffffffffffffffffffffffffff1614611679576040517f08c379a00000000000000000000000000000000000000000000000000000000081526004018080602001828103825260208152602001807f5761736e27742061207369676e6572207769746820676976656e20696e64657881525060200191505060405180910390fd5b600061168485611c53565b60001c9050600061169485611c53565b60001c90506000876001901b83161415611716576040517f08c379a00000000000000000000000000000000000000000000000000000000081526004018080602001828103825260178152602001807f4469646e2774207369676e20666972737420626c6f636b00000000000000000081525060200191505060405180910390fd5b6000876001901b82161415611793576040517f08c379a00000000000000000000000000000000000000000000000000000000081526004018080602001828103825260188152602001807f4469646e2774207369676e207365636f6e6420626c6f636b000000000000000081525060200191505060405180910390fd5b61179c836129c0565b6117a583612cc2565b10156117fc576040517f08c379a0000000000000000000000000000000000000000000000000000000008152600401808060200182810382526025815260200180613c196025913960400191505060405180910390fd5b611805836129c0565b61180e82612cc2565b1015611865576040517f08c379a0000000000000000000000000000000000000000000000000000000008152600401808060200182810382526026815260200180613daf6026913960400191505060405180910390fd5b829350505050949350505050565b60028060000154908060010154905082565b60006060600060fa73ffffffffffffffffffffffffffffffffffffffff16844360405160200180838152602001828152602001925050506040516020818303038152906040526040518082805190602001908083835b602083106118fe57805182526020820191506020810190506020830392506118db565b6001836020036101000a038019825116818451168082178552505050505050905001915050600060405180830381855afa9150503d806000811461195e576040519150601f19603f3d011682016040523d82523d6000602084013e611963565b606091505b508093508192505050806119c2576040517f08c379a000000000000000000000000000000000000000000000000000000000815260040180806020018281038252603d815260200180613c88603d913960400191505060405180910390fd5b6119cd826000612d2d565b92505050919050565b600060149054906101000a900460ff1681565b60008060fb73ffffffffffffffffffffffffffffffffffffffff16858585604051602001808473ffffffffffffffffffffffffffffffffffffffff1673ffffffffffffffffffffffffffffffffffffffff1660601b815260140183805190602001908083835b60208310611a725780518252602082019150602081019050602083039250611a4f565b6001836020036101000a03801982511681845116808217855250505050505090500182805190602001908083835b60208310611ac35780518252602082019150602081019050602083039250611aa0565b6001836020036101000a03801982511681845116808217855250505050505090500193505050506040516020818303038152906040526040518082805190602001908083835b60208310611b2c5780518252602082019150602081019050602083039250611b09565b6001836020036101000a038019825116818451168082178552505050505050905001915050600060405180830381855afa9150503d8060008114611b8c576040519150601f19603f3d011682016040523d82523d6000602084013e611b91565b606091505b505080915050809150509392505050565b8060088190555050565b6000611bbf82611bba612884565b612d44565b9050919050565b8060056000846040516020018082805190602001908083835b60208310611c025780518252602082019150602081019050602083039250611bdf565b6001836020036101000a038019825116818451168082178552505050505050905001915050604051602081830303815290604052805190602001208152602001908152602001600020819055505050565b600060056000836040516020018082805190602001908083835b60208310611c905780518252602082019150602081019050602083039250611c6d565b6001836020036101000a038019825116818451168082178552505050505050905001915050604051602081830303815290604052805190602001208152602001908152602001600020549050919050565b600060076000611cf084612d7c565b85604051602001808381526020018281526020019250505060405160208183030381529060405280519060200120815260200190815260200160002060009054906101000a900473ffffffffffffffffffffffffffffffffffffffff16905092915050565b600081805190602001209050919050565b8060066000848152602001908152602001600020819055505050565b611d8a6124b8565b611dfc576040517f08c379a00000000000000000000000000000000000000000000000000000000081526004018080602001828103825260208152602001807f4f776e61626c653a2063616c6c6572206973206e6f7420746865206f776e657281525060200191505060405180910390fd5b600073ffffffffffffffffffffffffffffffffffffffff166000809054906101000a900473ffffffffffffffffffffffffffffffffffffffff1673ffffffffffffffffffffffffffffffffffffffff167f8be0079c531659141344cd1fd0a4f28419497f9722a3daafe3b4186f6b6457e060405160405180910390a360008060006101000a81548173ffffffffffffffffffffffffffffffffffffffff021916908373ffffffffffffffffffffffffffffffffffffffff160217905550565b6000611ec6436129c0565b905090565b600060149054906101000a900460ff1615611f4e576040517f08c379a000000000000000000000000000000000000000000000000000000000815260040180806020018281038252601c8152602001807f636f6e747261637420616c726561647920696e697469616c697a65640000000081525060200191505060405180910390fd5b6001600060146101000a81548160ff021916908315150217905550611f7233612dbb565b611f7b83612532565b611f8582826126d6565b505050565b60008160096000856040516020018082805190602001908083835b60208310611fc85780518252602082019150602081019050602083039250611fa5565b6001836020036101000a0380198251168184511680821785525050505050509050019150506040516020818303038152906040528051906020012081526020019081526020016000208190555092915050565b600160009054906101000a900473ffffffffffffffffffffffffffffffffffffffff1681565b60006060600060f973ffffffffffffffffffffffffffffffffffffffff1643604051602001808281526020019150506040516020818303038152906040526040518082805190602001908083835b602083106120b2578051825260208201915060208101905060208303925061208f565b6001836020036101000a038019825116818451168082178552505050505050905001915050600060405180830381855afa9150503d8060008114612112576040519150601f19603f3d011682016040523d82523d6000602084013e612117565b606091505b50809350819250505080612176576040517f08c379a0000000000000000000000000000000000000000000000000000000008152600401808060200182810382526035815260200180613cc56035913960400191505060405180910390fd5b612181826000612d2d565b9250505090565b60008061219484611bac565b9050600081141561220d576040517f08c379a00000000000000000000000000000000000000000000000000000000081526004018080602001828103825260178152602001807f43616e6e6f7420736c617368206f6e2065706f6368203000000000000000000081525060200191505060405180910390fd5b612215612eff565b73ffffffffffffffffffffffffffffffffffffffff1663eb1d0b4286612245600185612ffa90919063ffffffff16565b866040518463ffffffff1660e01b8152600401808473ffffffffffffffffffffffffffffffffffffffff1673ffffffffffffffffffffffffffffffffffffffff168152602001838152602001828152602001935050505060206040518083038186803b1580156122b457600080fd5b505afa1580156122c8573d6000803e3d6000fd5b505050506040513d60208110156122de57600080fd5b81019080805190602001909291905050509150509392505050565b600060096000836040516020018082805190602001908083835b602083106123365780518252602082019150602081019050602083039250612313565b6001836020036101000a038019825116818451168082178552505050505050905001915050604051602081830303815290604052805190602001208152602001908152602001600020549050919050565b6123918b8a613044565b61239b8b89613044565b60006123a98c8c8c8c61147a565b905060006123b5613190565b73ffffffffffffffffffffffffffffffffffffffff166393c5c4878e6040518263ffffffff1660e01b8152600401808273ffffffffffffffffffffffffffffffffffffffff1673ffffffffffffffffffffffffffffffffffffffff16815260200191505060206040518083038186803b15801561243157600080fd5b505afa158015612445573d6000803e3d6000fd5b505050506040513d602081101561245b57600080fd5b810190808051906020019092919050505090506124808133848c8c8c8c8c8c8c61328b565b50505050505050505050505050565b60008060009054906101000a900473ffffffffffffffffffffffffffffffffffffffff16905090565b60008060009054906101000a900473ffffffffffffffffffffffffffffffffffffffff1673ffffffffffffffffffffffffffffffffffffffff166124fa6137a6565b73ffffffffffffffffffffffffffffffffffffffff1614905090565b600061252143611bac565b905090565b60006008549050919050565b61253a6124b8565b6125ac576040517f08c379a00000000000000000000000000000000000000000000000000000000081526004018080602001828103825260208152602001807f4f776e61626c653a2063616c6c6572206973206e6f7420746865206f776e657281525060200191505060405180910390fd5b600073ffffffffffffffffffffffffffffffffffffffff168173ffffffffffffffffffffffffffffffffffffffff16141561264f576040517f08c379a00000000000000000000000000000000000000000000000000000000081526004018080602001828103825260208152602001807f43616e6e6f7420726567697374657220746865206e756c6c206164647265737381525060200191505060405180910390fd5b80600160006101000a81548173ffffffffffffffffffffffffffffffffffffffff021916908373ffffffffffffffffffffffffffffffffffffffff1602179055508073ffffffffffffffffffffffffffffffffffffffff167f27fe5f0c1c3b1ed427cc63d0f05759ffdecf9aec9e18d31ef366fc8a6cb5dc3b60405160405180910390a250565b6126de6124b8565b612750576040517f08c379a00000000000000000000000000000000000000000000000000000000081526004018080602001828103825260208152602001807f4f776e61626c653a2063616c6c6572206973206e6f7420746865206f776e657281525060200191505060405180910390fd5b8082116127a8576040517f08c379a0000000000000000000000000000000000000000000000000000000008152600401808060200182810382526024815260200180613c3e6024913960400191505060405180910390fd5b81600260000181905550806002600101819055507f716dc7c34384df36c6ccc5a2949f2ce9b019f5d4075ef39139a80038a4fdd1c38282604051808381526020018281526020019250505060405180910390a15050565b80600760008585604051602001808381526020018281526020019250505060405160208183030381529060405280519060200120815260200190815260200160002060006101000a81548173ffffffffffffffffffffffffffffffffffffffff021916908373ffffffffffffffffffffffffffffffffffffffff160217905550505050565b60006060600060f873ffffffffffffffffffffffffffffffffffffffff166040516020016040516020818303038152906040526040518082805190602001908083835b602083106128ea57805182526020820191506020810190506020830392506128c7565b6001836020036101000a038019825116818451168082178552505050505050905001915050600060405180830381855afa9150503d806000811461294a576040519150601f19603f3d011682016040523d82523d6000602084013e61294f565b606091505b508093508192505050806129ae576040517f08c379a0000000000000000000000000000000000000000000000000000000008152600401808060200182810382526025815260200180613d8a6025913960400191505060405180910390fd5b6129b9826000612d2d565b9250505090565b6000612a0460036129f660026129e860026129da88612526565b6137ae90919063ffffffff16565b61383490919063ffffffff16565b6138bc90919063ffffffff16565b9050919050565b60008060008714158015612a20575060008514155b612a92576040517f08c379a00000000000000000000000000000000000000000000000000000000081526004018080602001828103825260158152602001807f612064656e6f6d696e61746f72206973207a65726f000000000000000000000081525060200191505060405180910390fd5b6000806000606060fc73ffffffffffffffffffffffffffffffffffffffff168c8c8c8c8c8c6040516020018087815260200186815260200185815260200184815260200183815260200182815260200196505050505050506040516020818303038152906040526040518082805190602001908083835b60208310612b2c5780518252602082019150602081019050602083039250612b09565b6001836020036101000a038019825116818451168082178552505050505050905001915050600060405180830381855afa9150503d8060008114612b8c576040519150601f19603f3d011682016040523d82523d6000602084013e612b91565b606091505b50809250819350505081612bf0576040517f08c379a0000000000000000000000000000000000000000000000000000000008152600401808060200182810382526027815260200180613d636027913960400191505060405180910390fd5b612bfb816000612d2d565b9350612c08816020612d2d565b925083839550955050505050965096945050505050565b612c276124b8565b612c99576040517f08c379a00000000000000000000000000000000000000000000000000000000081526004018080602001828103825260208152602001807f4f776e61626c653a2063616c6c6572206973206e6f7420746865206f776e657281525060200191505060405180910390fd5b612ca281612dbb565b50565b600060066000838152602001908152602001600020549050919050565b60008060009050600083905060008090505b610100811015612d225760018083161415612d0057612cfd60018461383490919063ffffffff16565b92505b600182901c9150612d1b60018261383490919063ffffffff16565b9050612cd4565b508192505050919050565b6000612d398383613906565b60001c905092915050565b600080828481612d5057fe5b0490506000838581612d5e57fe5b061415612d6e5780915050612d76565b600181019150505b92915050565b600080606490506000818481612d8e57fe5b0490506000828581612d9c57fe5b061415612dad578092505050612db6565b60018101925050505b919050565b600073ffffffffffffffffffffffffffffffffffffffff168173ffffffffffffffffffffffffffffffffffffffff161415612e41576040517f08c379a0000000000000000000000000000000000000000000000000000000008152600401808060200182810382526026815260200180613c626026913960400191505060405180910390fd5b8073ffffffffffffffffffffffffffffffffffffffff166000809054906101000a900473ffffffffffffffffffffffffffffffffffffffff1673ffffffffffffffffffffffffffffffffffffffff167f8be0079c531659141344cd1fd0a4f28419497f9722a3daafe3b4186f6b6457e060405160405180910390a3806000806101000a81548173ffffffffffffffffffffffffffffffffffffffff021916908373ffffffffffffffffffffffffffffffffffffffff16021790555050565b6000600160009054906101000a900473ffffffffffffffffffffffffffffffffffffffff1673ffffffffffffffffffffffffffffffffffffffff1663dcf0aaed60405160200180807f56616c696461746f727300000000000000000000000000000000000000000000815250600a019050604051602081830303815290604052805190602001206040518263ffffffff1660e01b81526004018082815260200191505060206040518083038186803b158015612fba57600080fd5b505afa158015612fce573d6000803e3d6000fd5b505050506040513d6020811015612fe457600080fd5b8101908080519060200190929190505050905090565b600061303c83836040518060400160405280601e81526020017f536166654d6174683a207375627472616374696f6e206f766572666c6f770000815250613997565b905092915050565b600061304f82611d55565b9050600460008473ffffffffffffffffffffffffffffffffffffffff1673ffffffffffffffffffffffffffffffffffffffff168152602001908152602001600020600082815260200190815260200160002060009054906101000a900460ff1615613122576040517f08c379a000000000000000000000000000000000000000000000000000000000815260040180806020018281038252600f8152602001807f416c726561647920736c6173686564000000000000000000000000000000000081525060200191505060405180910390fd5b6001600460008573ffffffffffffffffffffffffffffffffffffffff1673ffffffffffffffffffffffffffffffffffffffff168152602001908152602001600020600083815260200190815260200160002060006101000a81548160ff021916908315150217905550505050565b6000600160009054906101000a900473ffffffffffffffffffffffffffffffffffffffff1673ffffffffffffffffffffffffffffffffffffffff1663dcf0aaed60405160200180807f4163636f756e74730000000000000000000000000000000000000000000000008152506008019050604051602081830303815290604052805190602001206040518263ffffffff1660e01b81526004018082815260200191505060206040518083038186803b15801561324b57600080fd5b505afa15801561325f573d6000803e3d6000fd5b505050506040513d602081101561327557600080fd5b8101908080519060200190929190505050905090565b6000613295613a57565b90508073ffffffffffffffffffffffffffffffffffffffff166331993fc98c6002600001548d6002600101548c8c8c6040518863ffffffff1660e01b8152600401808873ffffffffffffffffffffffffffffffffffffffff1673ffffffffffffffffffffffffffffffffffffffff1681526020018781526020018673ffffffffffffffffffffffffffffffffffffffff1673ffffffffffffffffffffffffffffffffffffffff168152602001858152602001806020018060200180602001848103845287818151815260200191508051906020019060200280838360005b8381101561338e578082015181840152602081019050613373565b50505050905001848103835286818151815260200191508051906020019060200280838360005b838110156133d05780820151818401526020810190506133b5565b50505050905001848103825285818151815260200191508051906020019060200280838360005b838110156134125780820151818401526020810190506133f7565b505050509050019a5050505050505050505050600060405180830381600087803b15801561343f57600080fd5b505af1158015613453573d6000803e3d6000fd5b5050505060006134648c8b8b612188565b9050600073ffffffffffffffffffffffffffffffffffffffff168173ffffffffffffffffffffffffffffffffffffffff16141561349d57fe5b8173ffffffffffffffffffffffffffffffffffffffff166331993fc9826002600001548e6002600101548a8a8a6040518863ffffffff1660e01b8152600401808873ffffffffffffffffffffffffffffffffffffffff1673ffffffffffffffffffffffffffffffffffffffff1681526020018781526020018673ffffffffffffffffffffffffffffffffffffffff1673ffffffffffffffffffffffffffffffffffffffff168152602001858152602001806020018060200180602001848103845287818151815260200191508051906020019060200280838360005b83811015613594578082015181840152602081019050613579565b50505050905001848103835286818151815260200191508051906020019060200280838360005b838110156135d65780820151818401526020810190506135bb565b50505050905001848103825285818151815260200191508051906020019060200280838360005b838110156136185780820151818401526020810190506135fd565b505050509050019a5050505050505050505050600060405180830381600087803b15801561364557600080fd5b505af1158015613659573d6000803e3d6000fd5b505050506000613667612eff565b90508073ffffffffffffffffffffffffffffffffffffffff1663e33301aa8e6040518263ffffffff1660e01b8152600401808273ffffffffffffffffffffffffffffffffffffffff1673ffffffffffffffffffffffffffffffffffffffff168152602001915050600060405180830381600087803b1580156136e857600080fd5b505af11580156136fc573d6000803e3d6000fd5b505050508073ffffffffffffffffffffffffffffffffffffffff1663c22d3bba836040518263ffffffff1660e01b8152600401808273ffffffffffffffffffffffffffffffffffffffff1673ffffffffffffffffffffffffffffffffffffffff168152602001915050600060405180830381600087803b15801561377f57600080fd5b505af1158015613793573d6000803e3d6000fd5b5050505050505050505050505050505050565b600033905090565b6000808314156137c1576000905061382e565b60008284029050828482816137d257fe5b0414613829576040517f08c379a0000000000000000000000000000000000000000000000000000000008152600401808060200182810382526021815260200180613d1b6021913960400191505060405180910390fd5b809150505b92915050565b6000808284019050838110156138b2576040517f08c379a000000000000000000000000000000000000000000000000000000000815260040180806020018281038252601b8152602001807f536166654d6174683a206164646974696f6e206f766572666c6f77000000000081525060200191505060405180910390fd5b8091505092915050565b60006138fe83836040518060400160405280601a81526020017f536166654d6174683a206469766973696f6e206279207a65726f000000000000815250613b52565b905092915050565b60006020820183511015613982576040517f08c379a00000000000000000000000000000000000000000000000000000000081526004018080602001828103825260148152602001807f736c6963696e67206f7574206f662072616e676500000000000000000000000081525060200191505060405180910390fd5b60006020830184015190508091505092915050565b6000838311158290613a44576040517f08c379a00000000000000000000000000000000000000000000000000000000081526004018080602001828103825283818151815260200191508051906020019080838360005b83811015613a095780820151818401526020810190506139ee565b50505050905090810190601f168015613a365780820380516001836020036101000a031916815260200191505b509250505060405180910390fd5b5060008385039050809150509392505050565b6000600160009054906101000a900473ffffffffffffffffffffffffffffffffffffffff1673ffffffffffffffffffffffffffffffffffffffff1663dcf0aaed60405160200180807f4c6f636b6564476f6c6400000000000000000000000000000000000000000000815250600a019050604051602081830303815290604052805190602001206040518263ffffffff1660e01b81526004018082815260200191505060206040518083038186803b158015613b1257600080fd5b505afa158015613b26573d6000803e3d6000fd5b505050506040513d6020811015613b3c57600080fd5b8101908080519060200190929190505050905090565b60008083118290613bfe576040517f08c379a00000000000000000000000000000000000000000000000000000000081526004018080602001828103825283818151815260200191508051906020019080838360005b83811015613bc3578082015181840152602081019050613ba8565b50505050905090810190601f168015613bf05780820380516001836020036101000a031916815260200191505b509250505060405180910390fd5b506000838581613c0a57fe5b04905080915050939250505056fe4e6f7420656e6f756768207369676e65727320696e2074686520666972737420626c6f636b50656e616c74792068617320746f206265206c6172676572207468616e207265776172644f776e61626c653a206e6577206f776e657220697320746865207a65726f20616464726573736572726f722063616c6c696e672076616c696461746f725369676e65724164647265737346726f6d43757272656e7453657420707265636f6d70696c656572726f722063616c6c696e67206e756d62657256616c696461746f7273496e43757272656e7453657420707265636f6d70696c65426c6f636b20686173686573206861766520746f20626520646966666572656e74536166654d6174683a206d756c7469706c69636174696f6e206f766572666c6f77426c6f636b2068656164657273206172652066726f6d20646966666572656e74206865696768746572726f722063616c6c696e67206672616374696f6e4d756c45787020707265636f6d70696c656572726f722063616c6c696e672067657445706f636853697a6520707265636f6d70696c654e6f7420656e6f756768207369676e65727320696e20746865207365636f6e6420626c6f636ba165627a7a72305820b8d49484aa68c0fe61091f1cbb45b960f3721c9d5b3bb0fcf8316ad4aaf1bd6d0029",
  "source": "pragma solidity ^0.5.3;\n\nimport \"../DoubleSigningSlasher.sol\";\nimport \"./MockUsingPrecompiles.sol\";\n\ncontract TestDoubleSigningSlasher is DoubleSigningSlasher, MockUsingPrecompiles {}\n",
  "sourcePath": "/Users/cmcewen/celo/celo-monorepo/packages/protocol/contracts/governance/test/TestDoubleSigningSlasher.sol",
  "compiler": {
    "name": "solc",
    "version": "0.5.8+commit.23d335f2.Emscripten.clang"
  },
  "schemaVersion": "3.0.10",
  "updatedAt": "2020-04-09T23:11:37.458Z",
  "devdoc": {
    "methods": {
      "checkForDoubleSigning(address,uint256,bytes,bytes)": {
        "params": {
          "headerA": "First double signed block header.",
          "headerB": "Second double signed block header.",
          "index": "Validator index at the block.",
          "signer": "The signer to be slashed."
        },
        "return": "Block number where double signing occured. Throws if no double signing is detected."
      },
      "checkProofOfPossession(address,bytes,bytes)": {
        "params": {
          "blsKey": "The BLS public key that the validator is using for consensus, should pass proof  of possession. 48 bytes.",
          "blsPop": "The BLS public key proof-of-possession, which consists of a signature on the  account address. 96 bytes.",
          "sender": "The address signed by the BLS key to generate the proof of possession."
        },
        "return": "True upon success."
      },
      "fractionMulExp(uint256,uint256,uint256,uint256,uint256,uint256)": {
        "params": {
          "_decimals": "precision",
          "aDenominator": "Denominator of first fraction",
          "aNumerator": "Numerator of first fraction",
          "bDenominator": "Denominator of exponentiated fraction",
          "bNumerator": "Numerator of exponentiated fraction",
          "exponent": "exponent to raise b to"
        },
        "return": "numerator/denominator of the computed quantity (not reduced)."
      },
      "getEpochNumber()": {
        "return": "Current epoch number."
      },
      "getEpochNumberOfBlock(uint256)": {
        "params": {
          "blockNumber": "Block number where epoch number is calculated."
        },
        "return": "Epoch number."
      },
      "getEpochSize()": {
        "return": "The current epoch size in blocks."
      },
      "groupMembershipAtBlock(address,uint256,uint256)": {
        "params": {
          "blockNumber": "Block number associated with slashing.",
          "groupMembershipHistoryIndex": "Index used for history lookup.",
          "validator": "Validator that was slashed."
        },
        "return": "Group to be slashed."
      },
      "initialize(address,uint256,uint256)": {
        "params": {
          "_penalty": "Penalty for the slashed signer.",
          "_reward": "Reward that the observer gets.",
          "registryAddress": "The address of the registry core smart contract."
        }
      },
      "isOwner()": {
        "details": "Returns true if the caller is the current owner."
      },
      "minQuorumSize(uint256)": {
        "details": "Computed in celo-blockchain as int(math.Ceil(float64(2*valSet.Size()) / 3))"
      },
      "minQuorumSizeInCurrentSet()": {
        "return": "Byzantine quorum of validators."
      },
      "numberValidatorsInCurrentSet()": {
        "return": "Size of the current elected validator set."
      },
      "owner()": {
        "details": "Returns the address of the current owner."
      },
      "renounceOwnership()": {
        "details": "Leaves the contract without owner. It will not be possible to call `onlyOwner` functions anymore. Can only be called by the current owner.     * NOTE: Renouncing ownership will leave the contract without an owner, thereby removing any functionality that is only available to the owner."
      },
      "setRegistry(address)": {
        "params": {
          "registryAddress": "The address of a registry contract for routing to other contracts."
        }
      },
      "setSlashingIncentives(uint256,uint256)": {
        "params": {
          "penalty": "Penalty for the slashed signer.",
          "reward": "Reward that the observer gets."
        }
      },
      "slash(address,uint256,bytes,bytes,uint256,address[],address[],uint256[],address[],address[],uint256[])": {
        "params": {
          "groupElectionGreaters": "Greater pointers for group slashing.",
          "groupElectionIndices": "Vote indices for group slashing.",
          "groupElectionLessers": "Lesser pointers for group slashing.",
          "groupMembershipHistoryIndex": "Group membership index from where the group should be found.",
          "headerA": "First double signed block header.",
          "headerB": "Second double signed block header.",
          "index": "Validator index at the block.",
          "signer": "The signer to be slashed.",
          "validatorElectionGreaters": "Greater pointers for validator slashing.",
          "validatorElectionIndices": "Vote indices for validator slashing.",
          "validatorElectionLessers": "Lesser pointers for validator slashing."
        }
      },
      "transferOwnership(address)": {
        "details": "Transfers ownership of the contract to a new account (`newOwner`). Can only be called by the current owner."
      },
      "validatorSignerAddressFromCurrentSet(uint256)": {
        "params": {
          "index": "Index of requested validator in the validator set."
        },
        "return": "Address of validator at the requested index."
      }
    }
  },
  "userdoc": {
    "methods": {
      "checkForDoubleSigning(address,uint256,bytes,bytes)": {
        "notice": "Given two RLP encoded blocks, calls into precompiles to require that the two block hashes are different, have the same height, have a quorum of signatures, and that `signer` was part of the quorum."
      },
      "checkProofOfPossession(address,bytes,bytes)": {
        "notice": "Checks a BLS proof of possession."
      },
      "fractionMulExp(uint256,uint256,uint256,uint256,uint256,uint256)": {
        "notice": "calculate a * b^x for fractions a, b to `decimals` precision"
      },
      "getEpochNumber()": {
        "notice": "Returns the epoch number at a block."
      },
      "getEpochNumberOfBlock(uint256)": {
        "notice": "Returns the epoch number at a block."
      },
      "getEpochSize()": {
        "notice": "Returns the current epoch size in blocks."
      },
      "groupMembershipAtBlock(address,uint256,uint256)": {
        "notice": "Returns the group to be slashed."
      },
      "initialize(address,uint256,uint256)": {
        "notice": "Used in place of the constructor to allow the contract to be upgradable via proxy."
      },
      "minQuorumSize(uint256)": {
        "notice": "Returns the minimum number of required signers for a given block number."
      },
      "minQuorumSizeInCurrentSet()": {
        "notice": "Computes byzantine quorum from current validator set size"
      },
      "numberValidatorsInCurrentSet()": {
        "notice": "Gets the size of the current elected validator set."
      },
      "setRegistry(address)": {
        "notice": "Updates the address pointing to a Registry contract."
      },
      "setSlashingIncentives(uint256,uint256)": {
        "notice": "Sets slashing incentives."
      },
      "slash(address,uint256,bytes,bytes,uint256,address[],address[],uint256[],address[],address[],uint256[])": {
        "notice": "Requires that `eval` returns true and that this evidence has not already been used to slash `signer`. If so, fetches the `account` associated with `signer` and the group that `signer` was a member of during the corresponding epoch. Then, calls `LockedGold.slash` on both the validator and group accounts. Calls `Validators.removeSlashedMember` to remove the validator from its current group if it is a member of one. Finally, stores that hash(signer, blockNumber) has been slashed."
      },
      "validatorSignerAddressFromCurrentSet(uint256)": {
        "notice": "Gets a validator address from the current validator set."
      }
    }
  }
}