{
  "contractName": "TestAttestations",
  "abi": [
    {
      "constant": true,
      "inputs": [
        {
          "name": "identifier",
          "type": "bytes32"
        }
      ],
      "name": "lookupAccountsForIdentifier",
      "outputs": [
        {
          "name": "",
          "type": "address[]"
        }
      ],
      "payable": false,
      "stateMutability": "view",
      "type": "function"
    },
    {
      "constant": true,
      "inputs": [],
      "name": "initialized",
      "outputs": [
        {
          "name": "",
          "type": "bool"
        }
      ],
      "payable": false,
      "stateMutability": "view",
      "type": "function"
    },
    {
      "constant": true,
      "inputs": [
        {
          "name": "sender",
          "type": "address"
        },
        {
          "name": "blsKey",
          "type": "bytes"
        },
        {
          "name": "blsPop",
          "type": "bytes"
        }
      ],
      "name": "checkProofOfPossession",
      "outputs": [
        {
          "name": "",
          "type": "bool"
        }
      ],
      "payable": false,
      "stateMutability": "view",
      "type": "function"
    },
    {
      "constant": true,
      "inputs": [
        {
          "name": "blockNumber",
          "type": "uint256"
        }
      ],
      "name": "getEpochNumberOfBlock",
      "outputs": [
        {
          "name": "",
          "type": "uint256"
        }
      ],
      "payable": false,
      "stateMutability": "view",
      "type": "function"
    },
    {
      "constant": true,
      "inputs": [
        {
          "name": "header",
          "type": "bytes"
        }
      ],
      "name": "getVerifiedSealBitmapFromHeader",
      "outputs": [
        {
          "name": "",
          "type": "bytes32"
        }
      ],
      "payable": false,
      "stateMutability": "view",
      "type": "function"
    },
    {
      "constant": true,
      "inputs": [
        {
          "name": "identifier",
          "type": "bytes32"
        },
        {
          "name": "account",
          "type": "address"
        }
      ],
      "name": "getCompletableAttestations",
      "outputs": [
        {
          "name": "",
          "type": "uint32[]"
        },
        {
          "name": "",
          "type": "address[]"
        },
        {
          "name": "",
          "type": "uint256[]"
        },
        {
          "name": "",
          "type": "bytes"
        }
      ],
      "payable": false,
      "stateMutability": "view",
      "type": "function"
    },
    {
      "constant": false,
      "inputs": [
        {
          "name": "token",
          "type": "address"
        }
      ],
      "name": "withdraw",
      "outputs": [],
      "payable": false,
      "stateMutability": "nonpayable",
      "type": "function"
    },
    {
      "constant": true,
      "inputs": [
        {
          "name": "identifier",
          "type": "bytes32"
        },
        {
          "name": "account",
          "type": "address"
        }
      ],
      "name": "getAttestationStats",
      "outputs": [
        {
          "name": "",
          "type": "uint32"
        },
        {
          "name": "",
          "type": "uint32"
        }
      ],
      "payable": false,
      "stateMutability": "view",
      "type": "function"
    },
    {
      "constant": true,
      "inputs": [
        {
          "name": "identifier",
          "type": "bytes32"
        },
        {
          "name": "account",
          "type": "address"
        },
        {
          "name": "v",
          "type": "uint8"
        },
        {
          "name": "r",
          "type": "bytes32"
        },
        {
          "name": "s",
          "type": "bytes32"
        }
      ],
      "name": "validateAttestationCode",
      "outputs": [
        {
          "name": "",
          "type": "address"
        }
      ],
      "payable": false,
      "stateMutability": "view",
      "type": "function"
    },
    {
      "constant": true,
      "inputs": [
        {
          "name": "index",
          "type": "uint256"
        },
        {
          "name": "blockNumber",
          "type": "uint256"
        }
      ],
      "name": "validatorSignerAddressFromSet",
      "outputs": [
        {
          "name": "",
          "type": "address"
        }
      ],
      "payable": false,
      "stateMutability": "view",
      "type": "function"
    },
    {
      "constant": true,
      "inputs": [
        {
          "name": "identifier",
          "type": "bytes32"
        },
        {
          "name": "account",
          "type": "address"
        }
      ],
      "name": "getAttestationIssuers",
      "outputs": [
        {
          "name": "",
          "type": "address[]"
        }
      ],
      "payable": false,
      "stateMutability": "view",
      "type": "function"
    },
    {
      "constant": true,
      "inputs": [
        {
          "name": "token",
          "type": "address"
        }
      ],
      "name": "getAttestationRequestFee",
      "outputs": [
        {
          "name": "",
          "type": "uint256"
        }
      ],
      "payable": false,
      "stateMutability": "view",
      "type": "function"
    },
    {
      "constant": true,
      "inputs": [
        {
          "name": "header",
          "type": "bytes"
        }
      ],
      "name": "hashHeader",
      "outputs": [
        {
          "name": "",
          "type": "bytes32"
        }
      ],
      "payable": false,
      "stateMutability": "view",
      "type": "function"
    },
    {
      "constant": false,
      "inputs": [],
      "name": "renounceOwnership",
      "outputs": [],
      "payable": false,
      "stateMutability": "nonpayable",
      "type": "function"
    },
    {
      "constant": true,
      "inputs": [],
      "name": "minQuorumSizeInCurrentSet",
      "outputs": [
        {
          "name": "",
          "type": "uint256"
        }
      ],
      "payable": false,
      "stateMutability": "view",
      "type": "function"
    },
    {
      "constant": true,
      "inputs": [],
      "name": "getMaxAttestations",
      "outputs": [
        {
          "name": "",
          "type": "uint256"
        }
      ],
      "payable": false,
      "stateMutability": "view",
      "type": "function"
    },
    {
      "constant": true,
      "inputs": [],
      "name": "registry",
      "outputs": [
        {
          "name": "",
          "type": "address"
        }
      ],
      "payable": false,
      "stateMutability": "view",
      "type": "function"
    },
    {
      "constant": true,
      "inputs": [],
      "name": "maxAttestations",
      "outputs": [
        {
          "name": "",
          "type": "uint256"
        }
      ],
      "payable": false,
      "stateMutability": "view",
      "type": "function"
    },
    {
      "constant": true,
      "inputs": [],
      "name": "selectIssuersWaitBlocks",
      "outputs": [
        {
          "name": "",
          "type": "uint256"
        }
      ],
      "payable": false,
      "stateMutability": "view",
      "type": "function"
    },
    {
      "constant": true,
      "inputs": [
        {
          "name": "header",
          "type": "bytes"
        }
      ],
      "name": "getBlockNumberFromHeader",
      "outputs": [
        {
          "name": "",
          "type": "uint256"
        }
      ],
      "payable": false,
      "stateMutability": "view",
      "type": "function"
    },
    {
      "constant": true,
      "inputs": [],
      "name": "owner",
      "outputs": [
        {
          "name": "",
          "type": "address"
        }
      ],
      "payable": false,
      "stateMutability": "view",
      "type": "function"
    },
    {
      "constant": true,
      "inputs": [],
      "name": "isOwner",
      "outputs": [
        {
          "name": "",
          "type": "bool"
        }
      ],
      "payable": false,
      "stateMutability": "view",
      "type": "function"
    },
    {
      "constant": true,
      "inputs": [
        {
          "name": "identifiersToLookup",
          "type": "bytes32[]"
        }
      ],
      "name": "batchGetAttestationStats",
      "outputs": [
        {
          "name": "",
          "type": "uint256[]"
        },
        {
          "name": "",
          "type": "address[]"
        },
        {
          "name": "",
          "type": "uint64[]"
        },
        {
          "name": "",
          "type": "uint64[]"
        }
      ],
      "payable": false,
      "stateMutability": "view",
      "type": "function"
    },
    {
      "constant": true,
      "inputs": [],
      "name": "getEpochNumber",
      "outputs": [
        {
          "name": "",
          "type": "uint256"
        }
      ],
      "payable": false,
      "stateMutability": "view",
      "type": "function"
    },
    {
      "constant": true,
      "inputs": [
        {
          "name": "blockNumber",
          "type": "uint256"
        }
      ],
      "name": "numberValidatorsInSet",
      "outputs": [
        {
          "name": "",
          "type": "uint256"
        }
      ],
      "payable": false,
      "stateMutability": "view",
      "type": "function"
    },
    {
      "constant": false,
      "inputs": [
        {
          "name": "_attestationExpiryBlocks",
          "type": "uint256"
        }
      ],
      "name": "setAttestationExpiryBlocks",
      "outputs": [],
      "payable": false,
      "stateMutability": "nonpayable",
      "type": "function"
    },
    {
      "constant": false,
      "inputs": [
        {
          "name": "registryAddress",
          "type": "address"
        }
      ],
      "name": "setRegistry",
      "outputs": [],
      "payable": false,
      "stateMutability": "nonpayable",
      "type": "function"
    },
    {
      "constant": true,
      "inputs": [],
      "name": "attestationExpiryBlocks",
      "outputs": [
        {
          "name": "",
          "type": "uint256"
        }
      ],
      "payable": false,
      "stateMutability": "view",
      "type": "function"
    },
    {
      "constant": true,
      "inputs": [
        {
          "name": "identifier",
          "type": "bytes32"
        },
        {
          "name": "account",
          "type": "address"
        },
        {
          "name": "issuer",
          "type": "address"
        }
      ],
      "name": "getAttestationState",
      "outputs": [
        {
          "name": "",
          "type": "uint8"
        },
        {
          "name": "",
          "type": "uint32"
        },
        {
          "name": "",
          "type": "address"
        }
      ],
      "payable": false,
      "stateMutability": "view",
      "type": "function"
    },
    {
      "constant": false,
      "inputs": [
        {
          "name": "identifier",
          "type": "bytes32"
        },
        {
          "name": "index",
          "type": "uint256"
        }
      ],
      "name": "revoke",
      "outputs": [],
      "payable": false,
      "stateMutability": "nonpayable",
      "type": "function"
    },
    {
      "constant": true,
      "inputs": [
        {
          "name": "",
          "type": "address"
        }
      ],
      "name": "attestationRequestFees",
      "outputs": [
        {
          "name": "",
          "type": "uint256"
        }
      ],
      "payable": false,
      "stateMutability": "view",
      "type": "function"
    },
    {
      "constant": false,
      "inputs": [
        {
          "name": "_maxAttestations",
          "type": "uint256"
        }
      ],
      "name": "setMaxAttestations",
      "outputs": [],
      "payable": false,
      "stateMutability": "nonpayable",
      "type": "function"
    },
    {
      "constant": false,
      "inputs": [
        {
          "name": "identifier",
          "type": "bytes32"
        },
        {
          "name": "attestationsRequested",
          "type": "uint256"
        },
        {
          "name": "attestationRequestFeeToken",
          "type": "address"
        }
      ],
      "name": "request",
      "outputs": [],
      "payable": false,
      "stateMutability": "nonpayable",
      "type": "function"
    },
    {
      "constant": true,
      "inputs": [],
      "name": "getEpochSize",
      "outputs": [
        {
          "name": "",
          "type": "uint256"
        }
      ],
      "payable": false,
      "stateMutability": "view",
      "type": "function"
    },
    {
      "constant": false,
      "inputs": [
        {
          "name": "_selectIssuersWaitBlocks",
          "type": "uint256"
        }
      ],
      "name": "setSelectIssuersWaitBlocks",
      "outputs": [],
      "payable": false,
      "stateMutability": "nonpayable",
      "type": "function"
    },
    {
      "constant": false,
      "inputs": [
        {
          "name": "identifier",
          "type": "bytes32"
        }
      ],
      "name": "selectIssuers",
      "outputs": [],
      "payable": false,
      "stateMutability": "nonpayable",
      "type": "function"
    },
    {
      "constant": true,
      "inputs": [
        {
          "name": "identifier",
          "type": "bytes32"
        },
        {
          "name": "account",
          "type": "address"
        }
      ],
      "name": "getUnselectedRequest",
      "outputs": [
        {
          "name": "",
          "type": "uint32"
        },
        {
          "name": "",
          "type": "uint32"
        },
        {
          "name": "",
          "type": "address"
        }
      ],
      "payable": false,
      "stateMutability": "view",
      "type": "function"
    },
    {
      "constant": true,
      "inputs": [
        {
          "name": "blockNumber",
          "type": "uint256"
        }
      ],
      "name": "minQuorumSize",
      "outputs": [
        {
          "name": "",
          "type": "uint256"
        }
      ],
      "payable": false,
      "stateMutability": "view",
      "type": "function"
    },
    {
      "constant": true,
      "inputs": [
        {
          "name": "",
          "type": "address"
        },
        {
          "name": "",
          "type": "address"
        }
      ],
      "name": "pendingWithdrawals",
      "outputs": [
        {
          "name": "",
          "type": "uint256"
        }
      ],
      "payable": false,
      "stateMutability": "view",
      "type": "function"
    },
    {
      "constant": true,
      "inputs": [
        {
          "name": "aNumerator",
          "type": "uint256"
        },
        {
          "name": "aDenominator",
          "type": "uint256"
        },
        {
          "name": "bNumerator",
          "type": "uint256"
        },
        {
          "name": "bDenominator",
          "type": "uint256"
        },
        {
          "name": "exponent",
          "type": "uint256"
        },
        {
          "name": "_decimals",
          "type": "uint256"
        }
      ],
      "name": "fractionMulExp",
      "outputs": [
        {
          "name": "",
          "type": "uint256"
        },
        {
          "name": "",
          "type": "uint256"
        }
      ],
      "payable": false,
      "stateMutability": "view",
      "type": "function"
    },
    {
      "constant": false,
      "inputs": [
        {
          "name": "newOwner",
          "type": "address"
        }
      ],
      "name": "transferOwnership",
      "outputs": [],
      "payable": false,
      "stateMutability": "nonpayable",
      "type": "function"
    },
    {
      "constant": false,
      "inputs": [
        {
          "name": "token",
          "type": "address"
        },
        {
          "name": "fee",
          "type": "uint256"
        }
      ],
      "name": "setAttestationRequestFee",
      "outputs": [],
      "payable": false,
      "stateMutability": "nonpayable",
      "type": "function"
    },
    {
      "constant": true,
      "inputs": [
        {
          "name": "blockNumber",
          "type": "uint256"
        }
      ],
      "name": "getParentSealBitmap",
      "outputs": [
        {
          "name": "",
          "type": "bytes32"
        }
      ],
      "payable": false,
      "stateMutability": "view",
      "type": "function"
    },
    {
      "constant": false,
      "inputs": [
        {
          "name": "identifier",
          "type": "bytes32"
        },
        {
          "name": "v",
          "type": "uint8"
        },
        {
          "name": "r",
          "type": "bytes32"
        },
        {
          "name": "s",
          "type": "bytes32"
        }
      ],
      "name": "complete",
      "outputs": [],
      "payable": false,
      "stateMutability": "nonpayable",
      "type": "function"
    },
    {
      "constant": false,
      "inputs": [
        {
          "name": "registryAddress",
          "type": "address"
        },
        {
          "name": "_attestationExpiryBlocks",
          "type": "uint256"
        },
        {
          "name": "_selectIssuersWaitBlocks",
          "type": "uint256"
        },
        {
          "name": "_maxAttestations",
          "type": "uint256"
        },
        {
          "name": "attestationRequestFeeTokens",
          "type": "address[]"
        },
        {
          "name": "attestationRequestFeeValues",
          "type": "uint256[]"
        }
      ],
      "name": "initialize",
      "outputs": [],
      "payable": false,
      "stateMutability": "nonpayable",
      "type": "function"
    },
    {
      "anonymous": false,
      "inputs": [
        {
          "indexed": true,
          "name": "identifier",
          "type": "bytes32"
        },
        {
          "indexed": true,
          "name": "account",
          "type": "address"
        },
        {
          "indexed": false,
          "name": "attestationsRequested",
          "type": "uint256"
        },
        {
          "indexed": false,
          "name": "attestationRequestFeeToken",
          "type": "address"
        }
      ],
      "name": "AttestationsRequested",
      "type": "event"
    },
    {
      "anonymous": false,
      "inputs": [
        {
          "indexed": true,
          "name": "identifier",
          "type": "bytes32"
        },
        {
          "indexed": true,
          "name": "account",
          "type": "address"
        },
        {
          "indexed": true,
          "name": "issuer",
          "type": "address"
        },
        {
          "indexed": false,
          "name": "attestationRequestFeeToken",
          "type": "address"
        }
      ],
      "name": "AttestationIssuerSelected",
      "type": "event"
    },
    {
      "anonymous": false,
      "inputs": [
        {
          "indexed": true,
          "name": "identifier",
          "type": "bytes32"
        },
        {
          "indexed": true,
          "name": "account",
          "type": "address"
        },
        {
          "indexed": true,
          "name": "issuer",
          "type": "address"
        }
      ],
      "name": "AttestationCompleted",
      "type": "event"
    },
    {
      "anonymous": false,
      "inputs": [
        {
          "indexed": true,
          "name": "account",
          "type": "address"
        },
        {
          "indexed": true,
          "name": "token",
          "type": "address"
        },
        {
          "indexed": false,
          "name": "amount",
          "type": "uint256"
        }
      ],
      "name": "Withdrawal",
      "type": "event"
    },
    {
      "anonymous": false,
      "inputs": [
        {
          "indexed": false,
          "name": "value",
          "type": "uint256"
        }
      ],
      "name": "AttestationExpiryBlocksSet",
      "type": "event"
    },
    {
      "anonymous": false,
      "inputs": [
        {
          "indexed": true,
          "name": "token",
          "type": "address"
        },
        {
          "indexed": false,
          "name": "value",
          "type": "uint256"
        }
      ],
      "name": "AttestationRequestFeeSet",
      "type": "event"
    },
    {
      "anonymous": false,
      "inputs": [
        {
          "indexed": false,
          "name": "value",
          "type": "uint256"
        }
      ],
      "name": "SelectIssuersWaitBlocksSet",
      "type": "event"
    },
    {
      "anonymous": false,
      "inputs": [
        {
          "indexed": false,
          "name": "value",
          "type": "uint256"
        }
      ],
      "name": "MaxAttestationsSet",
      "type": "event"
    },
    {
      "anonymous": false,
      "inputs": [
        {
          "indexed": true,
          "name": "registryAddress",
          "type": "address"
        }
      ],
      "name": "RegistrySet",
      "type": "event"
    },
    {
      "anonymous": false,
      "inputs": [
        {
          "indexed": true,
          "name": "previousOwner",
          "type": "address"
        },
        {
          "indexed": true,
          "name": "newOwner",
          "type": "address"
        }
      ],
      "name": "OwnershipTransferred",
      "type": "event"
    },
    {
      "constant": false,
      "inputs": [
        {
          "name": "validators",
          "type": "address[]"
        }
      ],
      "name": "__setValidators",
      "outputs": [],
      "payable": false,
      "stateMutability": "nonpayable",
      "type": "function"
    },
    {
      "constant": true,
      "inputs": [],
      "name": "numberValidatorsInCurrentSet",
      "outputs": [
        {
          "name": "",
          "type": "uint256"
        }
      ],
      "payable": false,
      "stateMutability": "view",
      "type": "function"
    },
    {
      "constant": true,
      "inputs": [
        {
          "name": "index",
          "type": "uint256"
        }
      ],
      "name": "validatorSignerAddressFromCurrentSet",
      "outputs": [
        {
          "name": "",
          "type": "address"
        }
      ],
      "payable": false,
      "stateMutability": "view",
      "type": "function"
    }
  ],
  "bytecode": "0x6080604052600062000016620000c260201b60201c565b9050806000806101000a81548173ffffffffffffffffffffffffffffffffffffffff021916908373ffffffffffffffffffffffffffffffffffffffff1602179055508073ffffffffffffffffffffffffffffffffffffffff16600073ffffffffffffffffffffffffffffffffffffffff167f8be0079c531659141344cd1fd0a4f28419497f9722a3daafe3b4186f6b6457e060405160405180910390a3506001600281905550620000ca565b600033905090565b6170a880620000da6000396000f3fe608060405234801561001057600080fd5b50600436106102a05760003560e01c80638f32d59b11610167578063df4da461116100ce578063ec68307211610087578063ec683072146114e7578063f2fde38b14611562578063f3ff26c6146115a6578063fae8db0a146115f4578063fb6a2e5314611636578063fd536f5d14611685576102a0565b8063df4da461146112ff578063e02659ce1461131d578063e221932e1461134b578063e3d0f66f14611379578063e50e652d1461142d578063e831be581461146f576102a0565b8063b45eb7da11610120578063b45eb7da146110fd578063b5599cc61461111b578063bb46942f146111e9578063bd93f99814611221578063be2c47a614611279578063d02e0f0c146112a7576102a0565b80638f32d59b14610e6357806396357c0a14610e855780639a7b3be71461102b5780639b2b592f14611049578063a6437e731461108b578063a91ee0dc146110b9576102a0565b80635fc5c9161161020b5780637b103999116101c45780637b10399914610ca65780638218c6fe14610cf057806387ee8a0f14610d0e57806389d3528614610d2c5780638a88362614610d4a5780638da5cb5b14610e19576102a0565b80635fc5c91614610a96578063623d593114610b3957806367960e9114610b91578063715018a614610c605780637385e5da14610c6a5780637796a68414610c88576102a0565b80634b2c2f441161025d5780634b2c2f441461063c5780634eef7e851461070b57806351cff8d9146108aa578063596abea5146108ee5780635ce9bc071461096f5780635d180adb14610a1e576102a0565b806303cc1aff146102a557806306cbc78814610328578063123633ea146103e0578063158ef93e1461044e57806323f0ab65146104705780633b1eb4bf146105fa575b600080fd5b6102d1600480360360208110156102bb57600080fd5b8101908080359060200190929190505050611791565b6040518080602001828103825283818151815260200191508051906020019060200280838360005b838110156103145780820151818401526020810190506102f9565b505050509050019250505060405180910390f35b6103de6004803603602081101561033e57600080fd5b810190808035906020019064010000000081111561035b57600080fd5b82018360208201111561036d57600080fd5b8035906020019184602083028401116401000000008311171561038f57600080fd5b919080806020026020016040519081016040528093929190818152602001838360200280828437600081840152601f19601f820116905080830192505050505050509192919290505050611835565b005b61040c600480360360208110156103f657600080fd5b810190808035906020019092919050505061184f565b604051808273ffffffffffffffffffffffffffffffffffffffff1673ffffffffffffffffffffffffffffffffffffffff16815260200191505060405180910390f35b610456611890565b604051808215151515815260200191505060405180910390f35b6105e06004803603606081101561048657600080fd5b81019080803573ffffffffffffffffffffffffffffffffffffffff169060200190929190803590602001906401000000008111156104c357600080fd5b8201836020820111156104d557600080fd5b803590602001918460018302840111640100000000831117156104f757600080fd5b91908080601f016020809104026020016040519081016040528093929190818152602001838380828437600081840152601f19601f8201169050808301925050505050505091929192908035906020019064010000000081111561055a57600080fd5b82018360208201111561056c57600080fd5b8035906020019184600183028401116401000000008311171561058e57600080fd5b91908080601f016020809104026020016040519081016040528093929190818152602001838380828437600081840152601f19601f8201169050808301925050505050505091929192905050506118a3565b604051808215151515815260200191505060405180910390f35b6106266004803603602081101561061057600080fd5b8101908080359060200190929190505050611a5c565b6040518082815260200191505060405180910390f35b6106f56004803603602081101561065257600080fd5b810190808035906020019064010000000081111561066f57600080fd5b82018360208201111561068157600080fd5b803590602001918460018302840111640100000000831117156106a357600080fd5b91908080601f016020809104026020016040519081016040528093929190818152602001838380828437600081840152601f19601f820116905080830192505050505050509192919290505050611a76565b6040518082815260200191505060405180910390f35b6107576004803603604081101561072157600080fd5b8101908080359060200190929190803573ffffffffffffffffffffffffffffffffffffffff169060200190929190505050611c0a565b6040518080602001806020018060200180602001858103855289818151815260200191508051906020019060200280838360005b838110156107a657808201518184015260208101905061078b565b50505050905001858103845288818151815260200191508051906020019060200280838360005b838110156107e85780820151818401526020810190506107cd565b50505050905001858103835287818151815260200191508051906020019060200280838360005b8381101561082a57808201518184015260208101905061080f565b50505050905001858103825286818151815260200191508051906020019080838360005b8381101561086957808201518184015260208101905061084e565b50505050905090810190601f1680156108965780820380516001836020036101000a031916815260200191505b509850505050505050505060405180910390f35b6108ec600480360360208110156108c057600080fd5b81019080803573ffffffffffffffffffffffffffffffffffffffff169060200190929190505050612142565b005b61093a6004803603604081101561090457600080fd5b8101908080359060200190929190803573ffffffffffffffffffffffffffffffffffffffff169060200190929190505050612458565b604051808363ffffffff1663ffffffff1681526020018263ffffffff1663ffffffff1681526020019250505060405180910390f35b6109dc600480360360a081101561098557600080fd5b8101908080359060200190929190803573ffffffffffffffffffffffffffffffffffffffff169060200190929190803560ff1690602001909291908035906020019092919080359060200190929190505050612534565b604051808273ffffffffffffffffffffffffffffffffffffffff1673ffffffffffffffffffffffffffffffffffffffff16815260200191505060405180910390f35b610a5460048036036040811015610a3457600080fd5b8101908080359060200190929190803590602001909291905050506128c3565b604051808273ffffffffffffffffffffffffffffffffffffffff1673ffffffffffffffffffffffffffffffffffffffff16815260200191505060405180910390f35b610ae260048036036040811015610aac57600080fd5b8101908080359060200190929190803573ffffffffffffffffffffffffffffffffffffffff169060200190929190505050612a15565b6040518080602001828103825283818151815260200191508051906020019060200280838360005b83811015610b25578082015181840152602081019050610b0a565b505050509050019250505060405180910390f35b610b7b60048036036020811015610b4f57600080fd5b81019080803573ffffffffffffffffffffffffffffffffffffffff169060200190929190505050612afa565b6040518082815260200191505060405180910390f35b610c4a60048036036020811015610ba757600080fd5b8101908080359060200190640100000000811115610bc457600080fd5b820183602082011115610bd657600080fd5b80359060200191846001830284011164010000000083111715610bf857600080fd5b91908080601f016020809104026020016040519081016040528093929190818152602001838380828437600081840152601f19601f820116905080830192505050505050509192919290505050612b43565b6040518082815260200191505060405180910390f35b610c68612cd7565b005b610c72612e10565b6040518082815260200191505060405180910390f35b610c90612e20565b6040518082815260200191505060405180910390f35b610cae612e2a565b604051808273ffffffffffffffffffffffffffffffffffffffff1673ffffffffffffffffffffffffffffffffffffffff16815260200191505060405180910390f35b610cf8612e50565b6040518082815260200191505060405180910390f35b610d16612e56565b6040518082815260200191505060405180910390f35b610d34612e63565b6040518082815260200191505060405180910390f35b610e0360048036036020811015610d6057600080fd5b8101908080359060200190640100000000811115610d7d57600080fd5b820183602082011115610d8f57600080fd5b80359060200191846001830284011164010000000083111715610db157600080fd5b91908080601f016020809104026020016040519081016040528093929190818152602001838380828437600081840152601f19601f820116905080830192505050505050509192919290505050612e69565b6040518082815260200191505060405180910390f35b610e21612ffd565b604051808273ffffffffffffffffffffffffffffffffffffffff1673ffffffffffffffffffffffffffffffffffffffff16815260200191505060405180910390f35b610e6b613026565b604051808215151515815260200191505060405180910390f35b610efc60048036036020811015610e9b57600080fd5b8101908080359060200190640100000000811115610eb857600080fd5b820183602082011115610eca57600080fd5b80359060200191846020830284011164010000000083111715610eec57600080fd5b9091929391929390505050613084565b6040518080602001806020018060200180602001858103855289818151815260200191508051906020019060200280838360005b83811015610f4b578082015181840152602081019050610f30565b50505050905001858103845288818151815260200191508051906020019060200280838360005b83811015610f8d578082015181840152602081019050610f72565b50505050905001858103835287818151815260200191508051906020019060200280838360005b83811015610fcf578082015181840152602081019050610fb4565b50505050905001858103825286818151815260200191508051906020019060200280838360005b83811015611011578082015181840152602081019050610ff6565b505050509050019850505050505050505060405180910390f35b61103361358e565b6040518082815260200191505060405180910390f35b6110756004803603602081101561105f57600080fd5b810190808035906020019092919050505061359e565b6040518082815260200191505060405180910390f35b6110b7600480360360208110156110a157600080fd5b81019080803590602001909291905050506136e7565b005b6110fb600480360360208110156110cf57600080fd5b81019080803573ffffffffffffffffffffffffffffffffffffffff1690602001909291905050506137fb565b005b61110561399f565b6040518082815260200191505060405180910390f35b6111876004803603606081101561113157600080fd5b8101908080359060200190929190803573ffffffffffffffffffffffffffffffffffffffff169060200190929190803573ffffffffffffffffffffffffffffffffffffffff1690602001909291905050506139a5565b604051808460ff1660ff1681526020018363ffffffff1663ffffffff1681526020018273ffffffffffffffffffffffffffffffffffffffff1673ffffffffffffffffffffffffffffffffffffffff168152602001935050505060405180910390f35b61121f600480360360408110156111ff57600080fd5b810190808035906020019092919080359060200190929190505050613aa7565b005b6112636004803603602081101561123757600080fd5b81019080803573ffffffffffffffffffffffffffffffffffffffff169060200190929190505050613dbb565b6040518082815260200191505060405180910390f35b6112a56004803603602081101561128f57600080fd5b8101908080359060200190929190505050613dd3565b005b6112fd600480360360608110156112bd57600080fd5b810190808035906020019092919080359060200190929190803573ffffffffffffffffffffffffffffffffffffffff169060200190929190505050613ee7565b005b6113076146d4565b6040518082815260200191505060405180910390f35b6113496004803603602081101561133357600080fd5b8101908080359060200190929190505050614810565b005b6113776004803603602081101561136157600080fd5b8101908080359060200190929190505050614924565b005b6113c56004803603604081101561138f57600080fd5b8101908080359060200190929190803573ffffffffffffffffffffffffffffffffffffffff169060200190929190505050614b4d565b604051808463ffffffff1663ffffffff1681526020018363ffffffff1663ffffffff1681526020018273ffffffffffffffffffffffffffffffffffffffff1673ffffffffffffffffffffffffffffffffffffffff168152602001935050505060405180910390f35b6114596004803603602081101561144357600080fd5b8101908080359060200190929190505050614ca4565b6040518082815260200191505060405180910390f35b6114d16004803603604081101561148557600080fd5b81019080803573ffffffffffffffffffffffffffffffffffffffff169060200190929190803573ffffffffffffffffffffffffffffffffffffffff169060200190929190505050614cef565b6040518082815260200191505060405180910390f35b611545600480360360c08110156114fd57600080fd5b81019080803590602001909291908035906020019092919080359060200190929190803590602001909291908035906020019092919080359060200190929190505050614d14565b604051808381526020018281526020019250505060405180910390f35b6115a46004803603602081101561157857600080fd5b81019080803573ffffffffffffffffffffffffffffffffffffffff169060200190929190505050614f28565b005b6115f2600480360360408110156115bc57600080fd5b81019080803573ffffffffffffffffffffffffffffffffffffffff16906020019092919080359060200190929190505050614fae565b005b6116206004803603602081101561160a57600080fd5b8101908080359060200190929190505050615117565b6040518082815260200191505060405180910390f35b6116836004803603608081101561164c57600080fd5b8101908080359060200190929190803560ff1690602001909291908035906020019092919080359060200190929190505050615260565b005b61178f600480360360c081101561169b57600080fd5b81019080803573ffffffffffffffffffffffffffffffffffffffff169060200190929190803590602001909291908035906020019092919080359060200190929190803590602001906401000000008111156116f657600080fd5b82018360208201111561170857600080fd5b8035906020019184602083028401116401000000008311171561172a57600080fd5b90919293919293908035906020019064010000000081111561174b57600080fd5b82018360208201111561175d57600080fd5b8035906020019184602083028401116401000000008311171561177f57600080fd5b909192939192939050505061578f565b005b60606003600083815260200190815260200160002060000180548060200260200160405190810160405280929190818152602001828054801561182957602002820191906000526020600020905b8160009054906101000a900473ffffffffffffffffffffffffffffffffffffffff1673ffffffffffffffffffffffffffffffffffffffff16815260200190600101908083116117df575b50505050509050919050565b806009908051906020019061184b929190616b37565b5050565b60006009828154811061185e57fe5b9060005260206000200160009054906101000a900473ffffffffffffffffffffffffffffffffffffffff169050919050565b600060149054906101000a900460ff1681565b60008060fb73ffffffffffffffffffffffffffffffffffffffff16858585604051602001808473ffffffffffffffffffffffffffffffffffffffff1673ffffffffffffffffffffffffffffffffffffffff1660601b815260140183805190602001908083835b6020831061192c5780518252602082019150602081019050602083039250611909565b6001836020036101000a03801982511681845116808217855250505050505090500182805190602001908083835b6020831061197d578051825260208201915060208101905060208303925061195a565b6001836020036101000a03801982511681845116808217855250505050505090500193505050506040516020818303038152906040526040518082805190602001908083835b602083106119e657805182526020820191506020810190506020830392506119c3565b6001836020036101000a038019825116818451168082178552505050505050905001915050600060405180830381855afa9150503d8060008114611a46576040519150601f19603f3d011682016040523d82523d6000602084013e611a4b565b606091505b505080915050809150509392505050565b6000611a6f82611a6a6146d4565b615942565b9050919050565b60006060600060f473ffffffffffffffffffffffffffffffffffffffff16846040516020018082805190602001908083835b60208310611acb5780518252602082019150602081019050602083039250611aa8565b6001836020036101000a0380198251168184511680821785525050505050509050019150506040516020818303038152906040526040518082805190602001908083835b60208310611b325780518252602082019150602081019050602083039250611b0f565b6001836020036101000a038019825116818451168082178552505050505050905001915050600060405180830381855afa9150503d8060008114611b92576040519150601f19603f3d011682016040523d82523d6000602084013e611b97565b606091505b50809350819250505080611bf6576040517f08c379a0000000000000000000000000000000000000000000000000000000008152600401808060200182810382526038815260200180616db56038913960400191505060405180910390fd5b611c0182600061597a565b92505050919050565b60608060608060006003600088815260200190815260200160002060010160008773ffffffffffffffffffffffffffffffffffffffff1673ffffffffffffffffffffffffffffffffffffffff16815260200190815260200160002090506000816001019050600080905060008090505b8280549050811015611d3c57611d05846002016000858481548110611c9b57fe5b9060005260206000200160009054906101000a900473ffffffffffffffffffffffffffffffffffffffff1673ffffffffffffffffffffffffffffffffffffffff1673ffffffffffffffffffffffffffffffffffffffff168152602001908152602001600020615a0b565b15611d2157611d1e600183615a6b90919063ffffffff16565b91505b611d35600182615a6b90919063ffffffff16565b9050611c7a565b50606081604051908082528060200260200182016040528015611d6e5781602001602082028038833980820191505090505b509050606082604051908082528060200260200182016040528015611da25781602001602082028038833980820191505090505b509050600080905060008090505b8580549050811015611fa057611e3b876002016000888481548110611dd157fe5b9060005260206000200160009054906101000a900473ffffffffffffffffffffffffffffffffffffffff1673ffffffffffffffffffffffffffffffffffffffff1673ffffffffffffffffffffffffffffffffffffffff168152602001908152602001600020615a0b565b15611f8557866002016000878381548110611e5257fe5b9060005260206000200160009054906101000a900473ffffffffffffffffffffffffffffffffffffffff1673ffffffffffffffffffffffffffffffffffffffff1673ffffffffffffffffffffffffffffffffffffffff16815260200190815260200160002060000160019054906101000a900463ffffffff16848381518110611ed757fe5b602002602001019063ffffffff16908163ffffffff1681525050858181548110611efd57fe5b9060005260206000200160009054906101000a900473ffffffffffffffffffffffffffffffffffffffff16838381518110611f3457fe5b602002602001019073ffffffffffffffffffffffffffffffffffffffff16908173ffffffffffffffffffffffffffffffffffffffff1681525050611f82600183615a6b90919063ffffffff16565b91505b611f99600182615a6b90919063ffffffff16565b9050611db0565b50606080611fac615af3565b73ffffffffffffffffffffffffffffffffffffffff16638adaf96f856040518263ffffffff1660e01b81526004018080602001828103825283818151815260200191508051906020019060200280838360005b8381101561201a578082015181840152602081019050611fff565b505050509050019250505060006040518083038186803b15801561203d57600080fd5b505afa158015612051573d6000803e3d6000fd5b505050506040513d6000823e3d601f19601f82011682018060405250604081101561207b57600080fd5b81019080805164010000000081111561209357600080fd5b828101905060208101848111156120a957600080fd5b81518560208202830111640100000000821117156120c657600080fd5b505092919060200180516401000000008111156120e257600080fd5b828101905060208101848111156120f857600080fd5b815185600182028301116401000000008211171561211557600080fd5b50509291905050508092508193505050848483839b509b509b509b50505050505050505092959194509250565b6000600860008373ffffffffffffffffffffffffffffffffffffffff1673ffffffffffffffffffffffffffffffffffffffff16815260200190815260200160002060003373ffffffffffffffffffffffffffffffffffffffff1673ffffffffffffffffffffffffffffffffffffffff16815260200190815260200160002054905060008111612239576040517f08c379a00000000000000000000000000000000000000000000000000000000081526004018080602001828103825260178152602001807f76616c756520776173206e656761746976652f7a65726f00000000000000000081525060200191505060405180910390fd5b6000600860008473ffffffffffffffffffffffffffffffffffffffff1673ffffffffffffffffffffffffffffffffffffffff16815260200190815260200160002060003373ffffffffffffffffffffffffffffffffffffffff1673ffffffffffffffffffffffffffffffffffffffff168152602001908152602001600020819055508173ffffffffffffffffffffffffffffffffffffffff1663a9059cbb33836040518363ffffffff1660e01b8152600401808373ffffffffffffffffffffffffffffffffffffffff1673ffffffffffffffffffffffffffffffffffffffff16815260200182815260200192505050602060405180830381600087803b15801561234257600080fd5b505af1158015612356573d6000803e3d6000fd5b505050506040513d602081101561236c57600080fd5b81019080805190602001909291905050506123ef576040517f08c379a00000000000000000000000000000000000000000000000000000000081526004018080602001828103825260158152602001807f746f6b656e207472616e73666572206661696c6564000000000000000000000081525060200191505060405180910390fd5b8173ffffffffffffffffffffffffffffffffffffffff163373ffffffffffffffffffffffffffffffffffffffff167f2717ead6b9200dd235aad468c9809ea400fe33ac69b5bfaa6d3e90fc922b6398836040518082815260200191505060405180910390a35050565b6000806003600085815260200190815260200160002060010160008473ffffffffffffffffffffffffffffffffffffffff1673ffffffffffffffffffffffffffffffffffffffff16815260200190815260200160002060000160049054906101000a900463ffffffff166003600086815260200190815260200160002060010160008573ffffffffffffffffffffffffffffffffffffffff1673ffffffffffffffffffffffffffffffffffffffff16815260200190815260200160002060000160009054906101000a900463ffffffff16915091509250929050565b6000808686604051602001808381526020018273ffffffffffffffffffffffffffffffffffffffff1673ffffffffffffffffffffffffffffffffffffffff1660601b815260140192505050604051602081830303815290604052805190602001209050600073__Signatures____________________________63b3abdb0c838888886040518563ffffffff1660e01b8152600401808581526020018460ff1660ff16815260200183815260200182815260200194505050505060206040518083038186803b15801561260657600080fd5b505af415801561261a573d6000803e3d6000fd5b505050506040513d602081101561263057600080fd5b81019080805190602001909291905050509050600061264d615af3565b73ffffffffffffffffffffffffffffffffffffffff16637b2434cb836040518263ffffffff1660e01b8152600401808273ffffffffffffffffffffffffffffffffffffffff1673ffffffffffffffffffffffffffffffffffffffff16815260200191505060206040518083038186803b1580156126c957600080fd5b505afa1580156126dd573d6000803e3d6000fd5b505050506040513d60208110156126f357600080fd5b810190808051906020019092919050505090506000600360008b815260200190815260200160002060010160008a73ffffffffffffffffffffffffffffffffffffffff1673ffffffffffffffffffffffffffffffffffffffff16815260200190815260200160002060020160008373ffffffffffffffffffffffffffffffffffffffff1673ffffffffffffffffffffffffffffffffffffffff1681526020019081526020016000209050600160028111156127aa57fe5b8160000160009054906101000a900460ff1660028111156127c757fe5b1461281d576040517f08c379a000000000000000000000000000000000000000000000000000000000815260040180806020018281038252603b815260200180616e17603b913960400191505060405180910390fd5b6128408160000160019054906101000a900463ffffffff1663ffffffff16615bee565b156128b3576040517f08c379a00000000000000000000000000000000000000000000000000000000081526004018080602001828103825260158152602001807f4174746573746174696f6e2074696d6564206f7574000000000000000000000081525060200191505060405180910390fd5b8194505050505095945050505050565b60006060600060fa73ffffffffffffffffffffffffffffffffffffffff16858560405160200180838152602001828152602001925050506040516020818303038152906040526040518082805190602001908083835b6020831061293c5780518252602082019150602081019050602083039250612919565b6001836020036101000a038019825116818451168082178552505050505050905001915050600060405180830381855afa9150503d806000811461299c576040519150601f19603f3d011682016040523d82523d6000602084013e6129a1565b606091505b50809350819250505080612a00576040517f08c379a0000000000000000000000000000000000000000000000000000000008152600401808060200182810382526036815260200180616e526036913960400191505060405180910390fd5b612a0b826000615c21565b9250505092915050565b60606003600084815260200190815260200160002060010160008373ffffffffffffffffffffffffffffffffffffffff1673ffffffffffffffffffffffffffffffffffffffff168152602001908152602001600020600101805480602002602001604051908101604052809291908181526020018280548015612aed57602002820191906000526020600020905b8160009054906101000a900473ffffffffffffffffffffffffffffffffffffffff1673ffffffffffffffffffffffffffffffffffffffff1681526020019060010190808311612aa3575b5050505050905092915050565b6000600760008373ffffffffffffffffffffffffffffffffffffffff1673ffffffffffffffffffffffffffffffffffffffff168152602001908152602001600020549050919050565b60006060600060f673ffffffffffffffffffffffffffffffffffffffff16846040516020018082805190602001908083835b60208310612b985780518252602082019150602081019050602083039250612b75565b6001836020036101000a0380198251168184511680821785525050505050509050019150506040516020818303038152906040526040518082805190602001908083835b60208310612bff5780518252602082019150602081019050602083039250612bdc565b6001836020036101000a038019825116818451168082178552505050505050905001915050600060405180830381855afa9150503d8060008114612c5f576040519150601f19603f3d011682016040523d82523d6000602084013e612c64565b606091505b50809350819250505080612cc3576040517f08c379a000000000000000000000000000000000000000000000000000000000815260040180806020018281038252602381526020018061705a6023913960400191505060405180910390fd5b612cce82600061597a565b92505050919050565b612cdf613026565b612d51576040517f08c379a00000000000000000000000000000000000000000000000000000000081526004018080602001828103825260208152602001807f4f776e61626c653a2063616c6c6572206973206e6f7420746865206f776e657281525060200191505060405180910390fd5b600073ffffffffffffffffffffffffffffffffffffffff166000809054906101000a900473ffffffffffffffffffffffffffffffffffffffff1673ffffffffffffffffffffffffffffffffffffffff167f8be0079c531659141344cd1fd0a4f28419497f9722a3daafe3b4186f6b6457e060405160405180910390a360008060006101000a81548173ffffffffffffffffffffffffffffffffffffffff021916908373ffffffffffffffffffffffffffffffffffffffff160217905550565b6000612e1b43614ca4565b905090565b6000600654905090565b600160009054906101000a900473ffffffffffffffffffffffffffffffffffffffff1681565b60065481565b6000600980549050905090565b60055481565b60006060600060f773ffffffffffffffffffffffffffffffffffffffff16846040516020018082805190602001908083835b60208310612ebe5780518252602082019150602081019050602083039250612e9b565b6001836020036101000a0380198251168184511680821785525050505050509050019150506040516020818303038152906040526040518082805190602001908083835b60208310612f255780518252602082019150602081019050602083039250612f02565b6001836020036101000a038019825116818451168082178552505050505050905001915050600060405180830381855afa9150503d8060008114612f85576040519150601f19603f3d011682016040523d82523d6000602084013e612f8a565b606091505b50809350819250505080612fe9576040517f08c379a00000000000000000000000000000000000000000000000000000000081526004018080602001828103825260318152602001806170036031913960400191505060405180910390fd5b612ff4826000615c21565b92505050919050565b60008060009054906101000a900473ffffffffffffffffffffffffffffffffffffffff16905090565b60008060009054906101000a900473ffffffffffffffffffffffffffffffffffffffff1673ffffffffffffffffffffffffffffffffffffffff16613068615c38565b73ffffffffffffffffffffffffffffffffffffffff1614905090565b606080606080600086869050116130e6576040517f08c379a0000000000000000000000000000000000000000000000000000000008152600401808060200182810382526028815260200180616ed46028913960400191505060405180910390fd5b606080613133888880806020026020016040519081016040528093929190818152602001838360200280828437600081840152601f19601f82011690508083019250505050505050615c40565b80925081935050506060815160405190808252806020026020018201604052801561316d5781602001602082028038833980820191505090505b509050606082516040519080825280602002602001820160405280156131a25781602001602082028038833980820191505090505b509050600080905060008090505b8b8b9050811015613573576060600360008e8e858181106131cd57fe5b90506020020135815260200190815260200160002060000180548060200260200160405190810160405280929190818152602001828054801561326557602002820191906000526020600020905b8160009054906101000a900473ffffffffffffffffffffffffffffffffffffffff1673ffffffffffffffffffffffffffffffffffffffff168152602001906001019080831161321b575b5050505050905060008090505b87838151811061327e57fe5b602002602001015181101561355657613295615af3565b73ffffffffffffffffffffffffffffffffffffffff16631fd9afa58383815181106132bc57fe5b60200260200101516040518263ffffffff1660e01b8152600401808273ffffffffffffffffffffffffffffffffffffffff1673ffffffffffffffffffffffffffffffffffffffff16815260200191505060206040518083038186803b15801561332457600080fd5b505afa158015613338573d6000803e3d6000fd5b505050506040513d602081101561334e57600080fd5b810190808051906020019092919050505087858151811061336b57fe5b602002602001019073ffffffffffffffffffffffffffffffffffffffff16908173ffffffffffffffffffffffffffffffffffffffff1681525050600360008f8f868181106133b557fe5b90506020020135815260200190815260200160002060010160008383815181106133db57fe5b602002602001015173ffffffffffffffffffffffffffffffffffffffff1673ffffffffffffffffffffffffffffffffffffffff16815260200190815260200160002060000160049054906101000a900463ffffffff1663ffffffff1686858151811061344357fe5b602002602001019067ffffffffffffffff16908167ffffffffffffffff1681525050600360008f8f8681811061347557fe5b905060200201358152602001908152602001600020600101600083838151811061349b57fe5b602002602001015173ffffffffffffffffffffffffffffffffffffffff1673ffffffffffffffffffffffffffffffffffffffff16815260200190815260200160002060000160009054906101000a900463ffffffff1663ffffffff1685858151811061350357fe5b602002602001019067ffffffffffffffff16908167ffffffffffffffff1681525050613539600185615a6b90919063ffffffff16565b935061354f600182615a6b90919063ffffffff16565b9050613272565b505061356c600182615a6b90919063ffffffff16565b90506131b0565b50848484849850985098509850505050505092959194509250565b600061359943611a5c565b905090565b60006060600060f973ffffffffffffffffffffffffffffffffffffffff1684604051602001808281526020019150506040516020818303038152906040526040518082805190602001908083835b6020831061360f57805182526020820191506020810190506020830392506135ec565b6001836020036101000a038019825116818451168082178552505050505050905001915050600060405180830381855afa9150503d806000811461366f576040519150601f19603f3d011682016040523d82523d6000602084013e613674565b606091505b508093508192505050806136d3576040517f08c379a000000000000000000000000000000000000000000000000000000000815260040180806020018281038252602e815260200180616ca0602e913960400191505060405180910390fd5b6136de826000615c21565b92505050919050565b6136ef613026565b613761576040517f08c379a00000000000000000000000000000000000000000000000000000000081526004018080602001828103825260208152602001807f4f776e61626c653a2063616c6c6572206973206e6f7420746865206f776e657281525060200191505060405180910390fd5b600081116137ba576040517f08c379a0000000000000000000000000000000000000000000000000000000008152600401808060200182810382526030815260200180616d856030913960400191505060405180910390fd5b806004819055507f4fbe976a07a9260091c2d347f8780c4bc636392e34d5b249b367baf8a5c7ca69816040518082815260200191505060405180910390a150565b613803613026565b613875576040517f08c379a00000000000000000000000000000000000000000000000000000000081526004018080602001828103825260208152602001807f4f776e61626c653a2063616c6c6572206973206e6f7420746865206f776e657281525060200191505060405180910390fd5b600073ffffffffffffffffffffffffffffffffffffffff168173ffffffffffffffffffffffffffffffffffffffff161415613918576040517f08c379a00000000000000000000000000000000000000000000000000000000081526004018080602001828103825260208152602001807f43616e6e6f7420726567697374657220746865206e756c6c206164647265737381525060200191505060405180910390fd5b80600160006101000a81548173ffffffffffffffffffffffffffffffffffffffff021916908373ffffffffffffffffffffffffffffffffffffffff1602179055508073ffffffffffffffffffffffffffffffffffffffff167f27fe5f0c1c3b1ed427cc63d0f05759ffdecf9aec9e18d31ef366fc8a6cb5dc3b60405160405180910390a250565b60045481565b6000806000806003600088815260200190815260200160002060010160008773ffffffffffffffffffffffffffffffffffffffff1673ffffffffffffffffffffffffffffffffffffffff16815260200190815260200160002060020160008673ffffffffffffffffffffffffffffffffffffffff1673ffffffffffffffffffffffffffffffffffffffff16815260200190815260200160002090508060000160009054906101000a900460ff166002811115613a5d57fe5b8160000160019054906101000a900463ffffffff168260000160059054906101000a900473ffffffffffffffffffffffffffffffffffffffff169350935093505093509350939050565b600060036000848152602001908152602001600020600001805490509050808210613b3a576040517f08c379a00000000000000000000000000000000000000000000000000000000081526004018080602001828103825260108152602001807f496e64657820697320696e76616c69640000000000000000000000000000000081525060200191505060405180910390fd5b600360008481526020019081526020016000206000018281548110613b5b57fe5b9060005260206000200160009054906101000a900473ffffffffffffffffffffffffffffffffffffffff1673ffffffffffffffffffffffffffffffffffffffff163373ffffffffffffffffffffffffffffffffffffffff1614613c26576040517f08c379a000000000000000000000000000000000000000000000000000000000815260040180806020018281038252601f8152602001807f496e64657820646f6573206e6f74206d61746368206d73672e73656e6465720081525060200191505060405180910390fd5b6000613c3c600183615d9190919063ffffffff16565b9050808314613cfb57600360008581526020019081526020016000206000018181548110613c6657fe5b9060005260206000200160009054906101000a900473ffffffffffffffffffffffffffffffffffffffff16600360008681526020019081526020016000206000018481548110613cb257fe5b9060005260206000200160006101000a81548173ffffffffffffffffffffffffffffffffffffffff021916908373ffffffffffffffffffffffffffffffffffffffff1602179055505b6000600360008681526020019081526020016000206000018281548110613d1e57fe5b9060005260206000200160006101000a81548173ffffffffffffffffffffffffffffffffffffffff021916908373ffffffffffffffffffffffffffffffffffffffff160217905550613d9360016003600087815260200190815260200160002060000180549050615d9190919063ffffffff16565b6003600086815260200190815260200160002060000181613db49190616bc1565b5050505050565b60076020528060005260406000206000915090505481565b613ddb613026565b613e4d576040517f08c379a00000000000000000000000000000000000000000000000000000000081526004018080602001828103825260208152602001807f4f776e61626c653a2063616c6c6572206973206e6f7420746865206f776e657281525060200191505060405180910390fd5b60008111613ea6576040517f08c379a0000000000000000000000000000000000000000000000000000000008152600401808060200182810382526028815260200180616c566028913960400191505060405180910390fd5b806006819055507fc1f217a1246a98ce04e938768309107630ed86c1e0e9f9995af28e23a9c06178816040518082815260200191505060405180910390a150565b6001600260008282540192505081905550600060025490506000600760008473ffffffffffffffffffffffffffffffffffffffff1673ffffffffffffffffffffffffffffffffffffffff1681526020019081526020016000205411613f97576040517f08c379a0000000000000000000000000000000000000000000000000000000008152600401808060200182810382526022815260200180616c7e6022913960400191505060405180910390fd5b8173ffffffffffffffffffffffffffffffffffffffff166323b872dd333061400787600760008973ffffffffffffffffffffffffffffffffffffffff1673ffffffffffffffffffffffffffffffffffffffff16815260200190815260200160002054615ddb90919063ffffffff16565b6040518463ffffffff1660e01b8152600401808473ffffffffffffffffffffffffffffffffffffffff1673ffffffffffffffffffffffffffffffffffffffff1681526020018373ffffffffffffffffffffffffffffffffffffffff1673ffffffffffffffffffffffffffffffffffffffff1681526020018281526020019350505050602060405180830381600087803b1580156140a357600080fd5b505af11580156140b7573d6000803e3d6000fd5b505050506040513d60208110156140cd57600080fd5b8101908080519060200190929190505050614133576040517f08c379a000000000000000000000000000000000000000000000000000000000815260040180806020018281038252602b815260200180616e88602b913960400191505060405180910390fd5b6000831161418c576040517f08c379a000000000000000000000000000000000000000000000000000000000815260040180806020018281038252602a815260200180616ded602a913960400191505060405180910390fd5b600654831115614204576040517f08c379a000000000000000000000000000000000000000000000000000000000815260040180806020018281038252601f8152602001807f546f6f206d616e79206174746573746174696f6e73207265717565737465640081525060200191505060405180910390fd5b600060036000868152602001908152602001600020905060008160020160003373ffffffffffffffffffffffffffffffffffffffff1673ffffffffffffffffffffffffffffffffffffffff16815260200190815260200160002060000160009054906101000a900463ffffffff1663ffffffff1614806142e357506142e28160020160003373ffffffffffffffffffffffffffffffffffffffff1673ffffffffffffffffffffffffffffffffffffffff16815260200190815260200160002060000160009054906101000a900463ffffffff1663ffffffff16615bee565b5b8061434e575061434c8160020160003373ffffffffffffffffffffffffffffffffffffffff1673ffffffffffffffffffffffffffffffffffffffff16815260200190815260200160002060000160009054906101000a900463ffffffff1663ffffffff16615e61565b155b6143a3576040517f08c379a0000000000000000000000000000000000000000000000000000000008152600401808060200182810382526039815260200180616d246039913960400191505060405180910390fd5b6143ac43615f06565b8160020160003373ffffffffffffffffffffffffffffffffffffffff1673ffffffffffffffffffffffffffffffffffffffff16815260200190815260200160002060000160006101000a81548163ffffffff021916908363ffffffff16021790555061441784615f06565b8160020160003373ffffffffffffffffffffffffffffffffffffffff1673ffffffffffffffffffffffffffffffffffffffff16815260200190815260200160002060000160046101000a81548163ffffffff021916908363ffffffff160217905550828160020160003373ffffffffffffffffffffffffffffffffffffffff1673ffffffffffffffffffffffffffffffffffffffff16815260200190815260200160002060000160086101000a81548173ffffffffffffffffffffffffffffffffffffffff021916908373ffffffffffffffffffffffffffffffffffffffff16021790555061457161456c858360010160003373ffffffffffffffffffffffffffffffffffffffff1673ffffffffffffffffffffffffffffffffffffffff16815260200190815260200160002060000160009054906101000a900463ffffffff1663ffffffff16615a6b90919063ffffffff16565b615f06565b8160010160003373ffffffffffffffffffffffffffffffffffffffff1673ffffffffffffffffffffffffffffffffffffffff16815260200190815260200160002060000160006101000a81548163ffffffff021916908363ffffffff1602179055503373ffffffffffffffffffffffffffffffffffffffff16857f381545d9b1fffcb94ffbbd0bccfff9f1fb3acd474d34f7d59112a5c9973fee498686604051808381526020018273ffffffffffffffffffffffffffffffffffffffff1673ffffffffffffffffffffffffffffffffffffffff1681526020019250505060405180910390a35060025481146146ce576040517f08c379a000000000000000000000000000000000000000000000000000000000815260040180806020018281038252600e8152602001807f7265656e7472616e742063616c6c00000000000000000000000000000000000081525060200191505060405180910390fd5b50505050565b60006060600060f873ffffffffffffffffffffffffffffffffffffffff166040516020016040516020818303038152906040526040518082805190602001908083835b6020831061473a5780518252602082019150602081019050602083039250614717565b6001836020036101000a038019825116818451168082178552505050505050905001915050600060405180830381855afa9150503d806000811461479a576040519150601f19603f3d011682016040523d82523d6000602084013e61479f565b606091505b508093508192505050806147fe576040517f08c379a0000000000000000000000000000000000000000000000000000000008152600401808060200182810382526025815260200180616f236025913960400191505060405180910390fd5b614809826000615c21565b9250505090565b614818613026565b61488a576040517f08c379a00000000000000000000000000000000000000000000000000000000081526004018080602001828103825260208152602001807f4f776e61626c653a2063616c6c6572206973206e6f7420746865206f776e657281525060200191505060405180910390fd5b600081116148e3576040517f08c379a0000000000000000000000000000000000000000000000000000000008152600401808060200182810382526030815260200180616cce6030913960400191505060405180910390fd5b806005819055507f954fa47fa6f4e8017b99f93c73f4fbe599d786f9f5da73fe9086ab473fb455d8816040518082815260200191505060405180910390a150565b600060036000838152602001908152602001600020905060008160020160003373ffffffffffffffffffffffffffffffffffffffff1673ffffffffffffffffffffffffffffffffffffffff16815260200190815260200160002060000160009054906101000a900463ffffffff1663ffffffff16116149ee576040517f08c379a0000000000000000000000000000000000000000000000000000000008152600401808060200182810382526037815260200180616fa06037913960400191505060405180910390fd5b614a518160020160003373ffffffffffffffffffffffffffffffffffffffff1673ffffffffffffffffffffffffffffffffffffffff16815260200190815260200160002060000160009054906101000a900463ffffffff1663ffffffff16615bee565b15614aa7576040517f08c379a0000000000000000000000000000000000000000000000000000000008152600401808060200182810382526023815260200180616f7d6023913960400191505060405180910390fd5b614ab082615f6d565b8060020160003373ffffffffffffffffffffffffffffffffffffffff1673ffffffffffffffffffffffffffffffffffffffff168152602001908152602001600020600080820160006101000a81549063ffffffff02191690556000820160046101000a81549063ffffffff02191690556000820160086101000a81549073ffffffffffffffffffffffffffffffffffffffff021916905550505050565b60008060006003600086815260200190815260200160002060020160008573ffffffffffffffffffffffffffffffffffffffff1673ffffffffffffffffffffffffffffffffffffffff16815260200190815260200160002060000160009054906101000a900463ffffffff166003600087815260200190815260200160002060020160008673ffffffffffffffffffffffffffffffffffffffff1673ffffffffffffffffffffffffffffffffffffffff16815260200190815260200160002060000160049054906101000a900463ffffffff166003600088815260200190815260200160002060020160008773ffffffffffffffffffffffffffffffffffffffff1673ffffffffffffffffffffffffffffffffffffffff16815260200190815260200160002060000160089054906101000a900473ffffffffffffffffffffffffffffffffffffffff169250925092509250925092565b6000614ce86003614cda6002614ccc6002614cbe8861359e565b615ddb90919063ffffffff16565b615a6b90919063ffffffff16565b61672890919063ffffffff16565b9050919050565b6008602052816000526040600020602052806000526040600020600091509150505481565b60008060008714158015614d29575060008514155b614d9b576040517f08c379a00000000000000000000000000000000000000000000000000000000081526004018080602001828103825260158152602001807f612064656e6f6d696e61746f72206973207a65726f000000000000000000000081525060200191505060405180910390fd5b6000806000606060fc73ffffffffffffffffffffffffffffffffffffffff168c8c8c8c8c8c6040516020018087815260200186815260200185815260200184815260200183815260200182815260200196505050505050506040516020818303038152906040526040518082805190602001908083835b60208310614e355780518252602082019150602081019050602083039250614e12565b6001836020036101000a038019825116818451168082178552505050505050905001915050600060405180830381855afa9150503d8060008114614e95576040519150601f19603f3d011682016040523d82523d6000602084013e614e9a565b606091505b50809250819350505081614ef9576040517f08c379a0000000000000000000000000000000000000000000000000000000008152600401808060200182810382526027815260200180616efc6027913960400191505060405180910390fd5b614f04816000615c21565b9350614f11816020615c21565b925083839550955050505050965096945050505050565b614f30613026565b614fa2576040517f08c379a00000000000000000000000000000000000000000000000000000000081526004018080602001828103825260208152602001807f4f776e61626c653a2063616c6c6572206973206e6f7420746865206f776e657281525060200191505060405180910390fd5b614fab81616772565b50565b614fb6613026565b615028576040517f08c379a00000000000000000000000000000000000000000000000000000000081526004018080602001828103825260208152602001807f4f776e61626c653a2063616c6c6572206973206e6f7420746865206f776e657281525060200191505060405180910390fd5b60008111615081576040517f08c379a0000000000000000000000000000000000000000000000000000000008152600401808060200182810382526028815260200180616d5d6028913960400191505060405180910390fd5b80600760008473ffffffffffffffffffffffffffffffffffffffff1673ffffffffffffffffffffffffffffffffffffffff168152602001908152602001600020819055508173ffffffffffffffffffffffffffffffffffffffff167f7cf8b633f218e9f9bc2c06107bcaddcfee6b90580863768acdcfd4f05d7af394826040518082815260200191505060405180910390a25050565b60006060600060f573ffffffffffffffffffffffffffffffffffffffff1684604051602001808281526020019150506040516020818303038152906040526040518082805190602001908083835b602083106151885780518252602082019150602081019050602083039250615165565b6001836020036101000a038019825116818451168082178552505050505050905001915050600060405180830381855afa9150503d80600081146151e8576040519150601f19603f3d011682016040523d82523d6000602084013e6151ed565b606091505b5080935081925050508061524c576040517f08c379a000000000000000000000000000000000000000000000000000000000815260040180806020018281038252602c815260200180616fd7602c913960400191505060405180910390fd5b61525782600061597a565b92505050919050565b600061526f8533868686612534565b905060006003600087815260200190815260200160002060010160003373ffffffffffffffffffffffffffffffffffffffff1673ffffffffffffffffffffffffffffffffffffffff16815260200190815260200160002060020160008373ffffffffffffffffffffffffffffffffffffffff1673ffffffffffffffffffffffffffffffffffffffff168152602001908152602001600020905060008160000160059054906101000a900473ffffffffffffffffffffffffffffffffffffffff16905061533a43615f06565b8260000160016101000a81548163ffffffff021916908363ffffffff16021790555060028260000160006101000a81548160ff0219169083600281111561537d57fe5b02179055508160000160056101000a81549073ffffffffffffffffffffffffffffffffffffffff021916905560006003600089815260200190815260200160002060010160003373ffffffffffffffffffffffffffffffffffffffff1673ffffffffffffffffffffffffffffffffffffffff168152602001908152602001600020905060018160000160049054906101000a900463ffffffff160163ffffffff168160000160049054906101000a900463ffffffff1663ffffffff16106154ac576040517f08c379a000000000000000000000000000000000000000000000000000000000815260040180806020018281038252601b8152602001807f536166654d617468333220696e7465676572206f766572666c6f77000000000081525060200191505060405180910390fd5b60018160000160049054906101000a900463ffffffff16018160000160046101000a81548163ffffffff021916908363ffffffff1602179055506155b4600760008473ffffffffffffffffffffffffffffffffffffffff1673ffffffffffffffffffffffffffffffffffffffff16815260200190815260200160002054600860008573ffffffffffffffffffffffffffffffffffffffff1673ffffffffffffffffffffffffffffffffffffffff16815260200190815260200160002060008773ffffffffffffffffffffffffffffffffffffffff1673ffffffffffffffffffffffffffffffffffffffff16815260200190815260200160002054615a6b90919063ffffffff16565b600860008473ffffffffffffffffffffffffffffffffffffffff1673ffffffffffffffffffffffffffffffffffffffff16815260200190815260200160002060008673ffffffffffffffffffffffffffffffffffffffff1673ffffffffffffffffffffffffffffffffffffffff168152602001908152602001600020819055506000600360008a815260200190815260200160002090506001600360008b815260200190815260200160002060010160003373ffffffffffffffffffffffffffffffffffffffff1673ffffffffffffffffffffffffffffffffffffffff16815260200190815260200160002060000160049054906101000a900463ffffffff1663ffffffff16141561572957806000013390806001815401808255809150509060018203906000526020600020016000909192909190916101000a81548173ffffffffffffffffffffffffffffffffffffffff021916908373ffffffffffffffffffffffffffffffffffffffff160217905550505b8473ffffffffffffffffffffffffffffffffffffffff163373ffffffffffffffffffffffffffffffffffffffff168a7f414ff2c18c092697c4b8de49f515ac44f8bebc19b24553cf58ace913a6ac639d60405160405180910390a4505050505050505050565b600060149054906101000a900460ff1615615812576040517f08c379a000000000000000000000000000000000000000000000000000000000815260040180806020018281038252601c8152602001807f636f6e747261637420616c726561647920696e697469616c697a65640000000081525060200191505060405180910390fd5b6001600060146101000a81548160ff02191690831515021790555061583633616772565b61583f886137fb565b615848876136e7565b61585186614810565b61585a85613dd3565b60008484905011801561587257508181905084849050145b6158c7576040517f08c379a0000000000000000000000000000000000000000000000000000000008152600401808060200182810382526035815260200180616f486035913960400191505060405180910390fd5b60008090505b848490508110156159375761591c8585838181106158e757fe5b9050602002013573ffffffffffffffffffffffffffffffffffffffff1684848481811061591057fe5b90506020020135614fae565b615930600182615a6b90919063ffffffff16565b90506158cd565b505050505050505050565b60008082848161594e57fe5b049050600083858161595c57fe5b06141561596c5780915050615974565b600181019150505b92915050565b600060208201835110156159f6576040517f08c379a00000000000000000000000000000000000000000000000000000000081526004018080602001828103825260148152602001807f736c6963696e67206f7574206f662072616e676500000000000000000000000081525060200191505060405180910390fd5b60006020830184015190508091505092915050565b600060016002811115615a1a57fe5b8260000160009054906101000a900460ff166002811115615a3757fe5b148015615a645750615a628260000160019054906101000a900463ffffffff1663ffffffff16615bee565b155b9050919050565b600080828401905083811015615ae9576040517f08c379a000000000000000000000000000000000000000000000000000000000815260040180806020018281038252601b8152602001807f536166654d6174683a206164646974696f6e206f766572666c6f77000000000081525060200191505060405180910390fd5b8091505092915050565b6000600160009054906101000a900473ffffffffffffffffffffffffffffffffffffffff1673ffffffffffffffffffffffffffffffffffffffff1663dcf0aaed60405160200180807f4163636f756e74730000000000000000000000000000000000000000000000008152506008019050604051602081830303815290604052805190602001206040518263ffffffff1660e01b81526004018082815260200191505060206040518083038186803b158015615bae57600080fd5b505afa158015615bc2573d6000803e3d6000fd5b505050506040513d6020811015615bd857600080fd5b8101908080519060200190929190505050905090565b6000615c17600454836fffffffffffffffffffffffffffffffff16615a6b90919063ffffffff16565b4310159050919050565b6000615c2d838361597a565b60001c905092915050565b600033905090565b6060806000835111615c9d576040517f08c379a0000000000000000000000000000000000000000000000000000000008152600401808060200182810382526028815260200180616ed46028913960400191505060405180910390fd5b600080905060608451604051908082528060200260200182016040528015615cd45781602001602082028038833980820191505090505b50905060008090505b8551811015615d5157600060036000888481518110615cf857fe5b60200260200101518152602001908152602001600020600001805490509050808401935080838381518110615d2957fe5b60200260200101818152505050615d4a600182615a6b90919063ffffffff16565b9050615cdd565b508082604051908082528060200260200182016040528015615d825781602001602082028038833980820191505090505b50809050935093505050915091565b6000615dd383836040518060400160405280601e81526020017f536166654d6174683a207375627472616374696f6e206f766572666c6f7700008152506168b6565b905092915050565b600080831415615dee5760009050615e5b565b6000828402905082848281615dff57fe5b0414615e56576040517f08c379a0000000000000000000000000000000000000000000000000000000008152600401808060200182810382526021815260200180616eb36021913960400191505060405180910390fd5b809150505b92915050565b6000615efd615e6e616976565b73ffffffffffffffffffffffffffffffffffffffff1663e45def956040518163ffffffff1660e01b815260040160206040518083038186803b158015615eb357600080fd5b505afa158015615ec7573d6000803e3d6000fd5b505050506040513d6020811015615edd57600080fd5b810190808051906020019092919050505083615a6b90919063ffffffff16565b43109050919050565b60006401000000008210615f65576040517f08c379a00000000000000000000000000000000000000000000000000000000081526004018080602001828103825260268152602001806170346026913960400191505060405180910390fd5b819050919050565b60006003600083815260200190815260200160002060010160003373ffffffffffffffffffffffffffffffffffffffff1673ffffffffffffffffffffffffffffffffffffffff168152602001908152602001600020905060006003600084815260200190815260200160002060020160003373ffffffffffffffffffffffffffffffffffffffff1673ffffffffffffffffffffffffffffffffffffffff16815260200190815260200160002090506000616025616976565b73ffffffffffffffffffffffffffffffffffffffff1663fc48472661606f6005548560000160009054906101000a900463ffffffff1663ffffffff16615a6b90919063ffffffff16565b6040518263ffffffff1660e01b81526004018082815260200191505060206040518083038186803b1580156160a357600080fd5b505afa1580156160b7573d6000803e3d6000fd5b505050506040513d60208110156160cd57600080fd5b8101908080519060200190929190505050905060006160ea615af3565b905060006160f6612e56565b90506060816040519080825280602002602001820160405280156161295781602001602082028038833980820191505090505b50905060008090505b82811015616160578082828151811061614757fe5b6020026020010181815250508080600101915050616132565b50818560000160049054906101000a900463ffffffff1663ffffffff1611156161f1576040517f08c379a00000000000000000000000000000000000000000000000000000000081526004018080602001828103825260128152602001807f6e6f7420656e6f7567682069737375657273000000000000000000000000000081525060200191505060405180910390fd5b60008090505b8560000160049054906101000a900463ffffffff1663ffffffff1681101561671e576000831161628f576040517f08c379a00000000000000000000000000000000000000000000000000000000081526004018080602001828103825260128152602001807f6e6f7420656e6f7567682069737375657273000000000000000000000000000081525060200191505060405180910390fd5b84604051602001808281526020019150506040516020818303038152906040528051906020012094506000838660001c816162c657fe5b06905060006162e78483815181106162da57fe5b602002602001015161184f565b905060008673ffffffffffffffffffffffffffffffffffffffff166393c5c487836040518263ffffffff1660e01b8152600401808273ffffffffffffffffffffffffffffffffffffffff1673ffffffffffffffffffffffffffffffffffffffff16815260200191505060206040518083038186803b15801561636857600080fd5b505afa15801561637c573d6000803e3d6000fd5b505050506040513d602081101561639257600080fd5b8101908080519060200190929190505050905060008a60020160008373ffffffffffffffffffffffffffffffffffffffff1673ffffffffffffffffffffffffffffffffffffffff1681526020019081526020016000209050600060028111156163f757fe5b8160000160009054906101000a900460ff16600281111561641457fe5b1480156164d557508773ffffffffffffffffffffffffffffffffffffffff1663c2e0ee20836040518263ffffffff1660e01b8152600401808273ffffffffffffffffffffffffffffffffffffffff1673ffffffffffffffffffffffffffffffffffffffff16815260200191505060206040518083038186803b15801561649957600080fd5b505afa1580156164ad573d6000803e3d6000fd5b505050506040513d60208110156164c357600080fd5b81019080805190602001909291905050505b156166d3576164ee600186615a6b90919063ffffffff16565b945060018160000160006101000a81548160ff0219169083600281111561651157fe5b02179055508960000160009054906101000a900463ffffffff168160000160016101000a81548163ffffffff021916908363ffffffff1602179055508960000160089054906101000a900473ffffffffffffffffffffffffffffffffffffffff168160000160056101000a81548173ffffffffffffffffffffffffffffffffffffffff021916908373ffffffffffffffffffffffffffffffffffffffff1602179055508a6001018290806001815401808255809150509060018203906000526020600020016000909192909190916101000a81548173ffffffffffffffffffffffffffffffffffffffff021916908373ffffffffffffffffffffffffffffffffffffffff160217905550508173ffffffffffffffffffffffffffffffffffffffff163373ffffffffffffffffffffffffffffffffffffffff168d7faf7f470b643316cf44c1f2898328a075e7602945b4f8584f48ba4ad2d8a2ea9d8d60000160089054906101000a900473ffffffffffffffffffffffffffffffffffffffff16604051808273ffffffffffffffffffffffffffffffffffffffff1673ffffffffffffffffffffffffffffffffffffffff16815260200191505060405180910390a45b6166e7600188615d9190919063ffffffff16565b96508587815181106166f557fe5b602002602001015186858151811061670957fe5b602002602001018181525050505050506161f7565b5050505050505050565b600061676a83836040518060400160405280601a81526020017f536166654d6174683a206469766973696f6e206279207a65726f000000000000815250616a71565b905092915050565b600073ffffffffffffffffffffffffffffffffffffffff168173ffffffffffffffffffffffffffffffffffffffff1614156167f8576040517f08c379a0000000000000000000000000000000000000000000000000000000008152600401808060200182810382526026815260200180616cfe6026913960400191505060405180910390fd5b8073ffffffffffffffffffffffffffffffffffffffff166000809054906101000a900473ffffffffffffffffffffffffffffffffffffffff1673ffffffffffffffffffffffffffffffffffffffff167f8be0079c531659141344cd1fd0a4f28419497f9722a3daafe3b4186f6b6457e060405160405180910390a3806000806101000a81548173ffffffffffffffffffffffffffffffffffffffff021916908373ffffffffffffffffffffffffffffffffffffffff16021790555050565b6000838311158290616963576040517f08c379a00000000000000000000000000000000000000000000000000000000081526004018080602001828103825283818151815260200191508051906020019080838360005b8381101561692857808201518184015260208101905061690d565b50505050905090810190601f1680156169555780820380516001836020036101000a031916815260200191505b509250505060405180910390fd5b5060008385039050809150509392505050565b6000600160009054906101000a900473ffffffffffffffffffffffffffffffffffffffff1673ffffffffffffffffffffffffffffffffffffffff1663dcf0aaed60405160200180807f52616e646f6d00000000000000000000000000000000000000000000000000008152506006019050604051602081830303815290604052805190602001206040518263ffffffff1660e01b81526004018082815260200191505060206040518083038186803b158015616a3157600080fd5b505afa158015616a45573d6000803e3d6000fd5b505050506040513d6020811015616a5b57600080fd5b8101908080519060200190929190505050905090565b60008083118290616b1d576040517f08c379a00000000000000000000000000000000000000000000000000000000081526004018080602001828103825283818151815260200191508051906020019080838360005b83811015616ae2578082015181840152602081019050616ac7565b50505050905090810190601f168015616b0f5780820380516001836020036101000a031916815260200191505b509250505060405180910390fd5b506000838581616b2957fe5b049050809150509392505050565b828054828255906000526020600020908101928215616bb0579160200282015b82811115616baf5782518260006101000a81548173ffffffffffffffffffffffffffffffffffffffff021916908373ffffffffffffffffffffffffffffffffffffffff16021790555091602001919060010190616b57565b5b509050616bbd9190616bed565b5090565b815481835581811115616be857818360005260206000209182019101616be79190616c30565b5b505050565b616c2d91905b80821115616c2957600081816101000a81549073ffffffffffffffffffffffffffffffffffffffff021916905550600101616bf3565b5090565b90565b616c5291905b80821115616c4e576000816000905550600101616c36565b5090565b9056fe6d61784174746573746174696f6e732068617320746f2062652067726561746572207468616e2030496e76616c6964206174746573746174696f6e52657175657374466565546f6b656e6572726f722063616c6c696e67206e756d62657256616c696461746f7273496e53657420707265636f6d70696c6573656c6563744973737565727357616974426c6f636b732068617320746f2062652067726561746572207468616e20304f776e61626c653a206e6577206f776e657220697320746865207a65726f206164647265737354686572652065786973747320616e20756e657870697265642c20756e73656c6563746564206174746573746174696f6e2072657175657374596f75206861766520746f20737065636966792061206665652067726561746572207468616e20306174746573746174696f6e457870697279426c6f636b732068617320746f2062652067726561746572207468616e20306572726f722063616c6c696e672067657456657269666965645365616c4269746d617046726f6d48656164657220707265636f6d70696c65596f75206861766520746f2072657175657374206174206c656173742031206174746573746174696f6e4174746573746174696f6e20636f646520646f6573206e6f74206d6174636820616e79206f75747374616e64696e67206174746573746174696f6e6572726f722063616c6c696e672076616c696461746f725369676e65724164647265737346726f6d53657420707265636f6d70696c655472616e73666572206f66206174746573746174696f6e20726571756573742066656573206661696c6564536166654d6174683a206d756c7469706c69636174696f6e206f766572666c6f77596f75206861766520746f2070617373206174206c65617374206f6e65206964656e7469666965726572726f722063616c6c696e67206672616374696f6e4d756c45787020707265636f6d70696c656572726f722063616c6c696e672067657445706f636853697a6520707265636f6d70696c656174746573746174696f6e52657175657374466565546f6b656e732073706563696669636174696f6e2077617320696e76616c6964546865206174746573746174696f6e20726571756573742068617320657870697265644e6f20756e73656c6563746564206174746573746174696f6e207265717565737420746f2073656c656374206973737565727320666f726572726f722063616c6c696e6720676574506172656e745365616c4269746d617020707265636f6d70696c656572726f722063616c6c696e6720676574426c6f636b4e756d62657246726f6d48656164657220707265636f6d70696c6553616665436173743a2076616c756520646f65736e27742066697420696e20333220626974736572726f722063616c6c696e67206861736848656164657220707265636f6d70696c65a165627a7a7230582036e9187b66bbd6624c6a64e37a34210c18332999cf97ac71a9a7ed06bba357c60029",
  "source": "pragma solidity ^0.5.3;\n\nimport \"../Attestations.sol\";\n\n/*\n * We need a test contract that behaves like the actual Attestations contract,\n * but mocks the implementations of the validator set getters. Otherwise we\n * couldn't test `request` with the current ganache local testnet.\n */\ncontract TestAttestations is Attestations {\n  address[] private __testValidators;\n\n  function __setValidators(address[] memory validators) public {\n    __testValidators = validators;\n  }\n\n  function numberValidatorsInCurrentSet() public view returns (uint256) {\n    return __testValidators.length;\n  }\n\n  function validatorSignerAddressFromCurrentSet(uint256 index) public view returns (address) {\n    return __testValidators[index];\n  }\n}\n",
  "sourcePath": "/Users/cmcewen/celo/celo-monorepo/packages/protocol/contracts/identity/test/TestAttestations.sol",
  "compiler": {
    "name": "solc",
    "version": "0.5.8+commit.23d335f2.Emscripten.clang"
  },
  "schemaVersion": "3.0.10",
  "updatedAt": "2020-04-09T23:12:53.262Z",
  "devdoc": {
    "methods": {
      "batchGetAttestationStats(bytes32[])": {
        "params": {
          "identifiersToLookup": "Array of n identifiers."
        },
        "return": "[0] Array of number of matching accounts per identifier.[1] Array of sum([0]) matching walletAddresses.[2] Array of sum([0]) numbers indicating the completions for each account.[3] Array of sum([0]) numbers indicating the total number of requested attestations for each account."
      },
      "checkProofOfPossession(address,bytes,bytes)": {
        "params": {
          "blsKey": "The BLS public key that the validator is using for consensus, should pass proof  of possession. 48 bytes.",
          "blsPop": "The BLS public key proof-of-possession, which consists of a signature on the  account address. 96 bytes.",
          "sender": "The address signed by the BLS key to generate the proof of possession."
        },
        "return": "True upon success."
      },
      "complete(bytes32,uint8,bytes32,bytes32)": {
        "details": "Throws if there is no matching outstanding attestation request.Throws if the attestation window has passed.",
        "params": {
          "identifier": "The hash of the identifier for this attestation.",
          "r": "Output value r of the ECDSA signature.",
          "s": "Output value s of the ECDSA signature.",
          "v": "The recovery id of the incoming ECDSA signature."
        }
      },
      "fractionMulExp(uint256,uint256,uint256,uint256,uint256,uint256)": {
        "params": {
          "_decimals": "precision",
          "aDenominator": "Denominator of first fraction",
          "aNumerator": "Numerator of first fraction",
          "bDenominator": "Denominator of exponentiated fraction",
          "bNumerator": "Numerator of exponentiated fraction",
          "exponent": "exponent to raise b to"
        },
        "return": "numerator/denominator of the computed quantity (not reduced)."
      },
      "getAttestationIssuers(bytes32,address)": {
        "params": {
          "account": "Address of the account.",
          "identifier": "Hash of the identifier."
        },
        "return": "Addresses of the selected attestation issuers."
      },
      "getAttestationRequestFee(address)": {
        "params": {
          "token": "Address of the attestationRequestFeeToken."
        },
        "return": "The fee."
      },
      "getAttestationState(bytes32,address,address)": {
        "params": {
          "account": "Address of the account.",
          "identifier": "Hash of the identifier.",
          "issuer": "Address of the issuer."
        },
        "return": "[          Status of the attestation,          Block number of request/completion the attestation,          Address of the token with which this attestation request was paid for        ]"
      },
      "getAttestationStats(bytes32,address)": {
        "params": {
          "account": "Address of the account.",
          "identifier": "Hash of the identifier."
        },
        "return": "[Number of completed attestations, Number of total requested attestations]"
      },
      "getBlockNumberFromHeader(bytes)": {
        "params": {
          "header": "RLP encoded header"
        },
        "return": "Block number."
      },
      "getCompletableAttestations(bytes32,address)": {
        "params": {
          "account": "Address of the account.",
          "identifier": "Hash of the identifier."
        },
        "return": "( blockNumbers[] - Block number of request/completion the attestation,          issuers[] - Address of the issuer,          stringLengths[] - The length of each metadataURL string for each issuer,          stringData - All strings concatenated        )"
      },
      "getEpochNumber()": {
        "return": "Current epoch number."
      },
      "getEpochNumberOfBlock(uint256)": {
        "params": {
          "blockNumber": "Block number where epoch number is calculated."
        },
        "return": "Epoch number."
      },
      "getEpochSize()": {
        "return": "The current epoch size in blocks."
      },
      "getMaxAttestations()": {
        "return": "Maximum number of attestations that can be requested."
      },
      "getParentSealBitmap(uint256)": {
        "params": {
          "blockNumber": "Block number to retrieve. Must be within 4 epochs of the current number."
        },
        "return": "Bitmap parent seal with set bits at indices corresponding to signing validators."
      },
      "getUnselectedRequest(bytes32,address)": {
        "params": {
          "account": "Address of the account.",
          "identifier": "Hash of the identifier."
        },
        "return": "[          Block number at which was requested,          Number of unselected requests,          Address of the token with which this attestation request was paid for        ]"
      },
      "getVerifiedSealBitmapFromHeader(bytes)": {
        "params": {
          "header": "RLP encoded header"
        },
        "return": "Bitmap parent seal with set bits at indices correspoinding to signing validators."
      },
      "hashHeader(bytes)": {
        "params": {
          "header": "RLP encoded header"
        },
        "return": "Header hash."
      },
      "initialize(address,uint256,uint256,uint256,address[],uint256[])": {
        "params": {
          "_attestationExpiryBlocks": "The new limit on blocks allowed to come between requesting an attestation and completing it.",
          "_selectIssuersWaitBlocks": "The wait period in blocks to call selectIssuers on attestation requests.",
          "attestationRequestFeeTokens": "The address of tokens that fees should be payable in.",
          "attestationRequestFeeValues": "The corresponding fee values.",
          "registryAddress": "The address of the registry core smart contract."
        }
      },
      "isOwner()": {
        "details": "Returns true if the caller is the current owner."
      },
      "minQuorumSize(uint256)": {
        "details": "Computed in celo-blockchain as int(math.Ceil(float64(2*valSet.Size()) / 3))"
      },
      "minQuorumSizeInCurrentSet()": {
        "return": "Byzantine quorum of validators."
      },
      "numberValidatorsInSet(uint256)": {
        "params": {
          "blockNumber": "Block number to retrieve the validator set from."
        },
        "return": "Size of the validator set."
      },
      "owner()": {
        "details": "Returns the address of the current owner."
      },
      "renounceOwnership()": {
        "details": "Leaves the contract without owner. It will not be possible to call `onlyOwner` functions anymore. Can only be called by the current owner.     * NOTE: Renouncing ownership will leave the contract without an owner, thereby removing any functionality that is only available to the owner."
      },
      "request(bytes32,uint256,address)": {
        "params": {
          "attestationRequestFeeToken": "The address of the token with which the attestation fee will be paid.",
          "attestationsRequested": "The number of requested attestations for this request.",
          "identifier": "The hash of the identifier to be attested."
        }
      },
      "revoke(bytes32,uint256)": {
        "params": {
          "identifier": "The identifier for which to revoke.",
          "index": "The index of the account in the accounts array."
        }
      },
      "selectIssuers(bytes32)": {
        "params": {
          "identifier": "The hash of the identifier to be attested."
        }
      },
      "setAttestationExpiryBlocks(uint256)": {
        "params": {
          "_attestationExpiryBlocks": "The new limit on blocks allowed to come between requesting an attestation and completing it."
        }
      },
      "setAttestationRequestFee(address,uint256)": {
        "params": {
          "fee": "The fee in 'token' that is required for each attestation.",
          "token": "The address of the attestationRequestFeeToken."
        }
      },
      "setMaxAttestations(uint256)": {
        "params": {
          "_maxAttestations": "Maximum number of attestations that can be requested."
        }
      },
      "setRegistry(address)": {
        "params": {
          "registryAddress": "The address of a registry contract for routing to other contracts."
        }
      },
      "setSelectIssuersWaitBlocks(uint256)": {
        "params": {
          "_selectIssuersWaitBlocks": "The wait period in blocks to call selectIssuers on attestation                                requests."
        }
      },
      "transferOwnership(address)": {
        "details": "Transfers ownership of the contract to a new account (`newOwner`). Can only be called by the current owner."
      },
      "validateAttestationCode(bytes32,address,uint8,bytes32,bytes32)": {
        "details": "Throws if there is no matching outstanding attestation request.Throws if the attestation window has passed.",
        "params": {
          "identifier": "The hash of the identifier to be attested.",
          "r": "Output value r of the ECDSA signature.",
          "s": "Output value s of the ECDSA signature.",
          "v": "The recovery id of the incoming ECDSA signature."
        },
        "return": "The issuer of the corresponding attestation."
      },
      "validatorSignerAddressFromSet(uint256,uint256)": {
        "params": {
          "blockNumber": "Block number to retrieve the validator set from.",
          "index": "Index of requested validator in the validator set."
        },
        "return": "Address of validator at the requested index."
      },
      "withdraw(address)": {
        "details": "Throws if msg.sender does not have any rewards to withdraw.",
        "params": {
          "token": "The address of the token that will be withdrawn."
        }
      }
    }
  },
  "userdoc": {
    "methods": {
      "batchGetAttestationStats(bytes32[])": {
        "notice": "Batch lookup function to determine attestation stats for a list of identifiers."
      },
      "checkProofOfPossession(address,bytes,bytes)": {
        "notice": "Checks a BLS proof of possession."
      },
      "complete(bytes32,uint8,bytes32,bytes32)": {
        "notice": "Submit the secret message sent by the issuer to complete the attestation request."
      },
      "fractionMulExp(uint256,uint256,uint256,uint256,uint256,uint256)": {
        "notice": "calculate a * b^x for fractions a, b to `decimals` precision"
      },
      "getAttestationIssuers(bytes32,address)": {
        "notice": "Returns selected attestation issuers for a identifier/account pair."
      },
      "getAttestationRequestFee(address)": {
        "notice": "Returns the fee set for a particular token."
      },
      "getAttestationState(bytes32,address,address)": {
        "notice": "Returns the state of a specific attestation."
      },
      "getAttestationStats(bytes32,address)": {
        "notice": "Returns attestation stats for a identifier/account pair."
      },
      "getBlockNumberFromHeader(bytes)": {
        "notice": "Parses block number out of header."
      },
      "getCompletableAttestations(bytes32,address)": {
        "notice": "Returns the state of all attestations that are completable"
      },
      "getEpochNumber()": {
        "notice": "Returns the epoch number at a block."
      },
      "getEpochNumberOfBlock(uint256)": {
        "notice": "Returns the epoch number at a block."
      },
      "getEpochSize()": {
        "notice": "Returns the current epoch size in blocks."
      },
      "getMaxAttestations()": {
        "notice": "Query 'maxAttestations'"
      },
      "getParentSealBitmap(uint256)": {
        "notice": "Gets the parent seal bitmap from the header at the given block number."
      },
      "getUnselectedRequest(bytes32,address)": {
        "notice": "Returns the unselected attestation request for an identifier/account pair, if any."
      },
      "getVerifiedSealBitmapFromHeader(bytes)": {
        "notice": "Verifies the BLS signature on the header and returns the seal bitmap. The validator set used for verification is retrieved based on the parent hash field of the header.  If the parent hash is not in the blockchain, verification fails."
      },
      "hashHeader(bytes)": {
        "notice": "Computes hash of header."
      },
      "initialize(address,uint256,uint256,uint256,address[],uint256[])": {
        "notice": "Used in place of the constructor to allow the contract to be upgradable via proxy."
      },
      "minQuorumSize(uint256)": {
        "notice": "Returns the minimum number of required signers for a given block number."
      },
      "minQuorumSizeInCurrentSet()": {
        "notice": "Computes byzantine quorum from current validator set size"
      },
      "numberValidatorsInSet(uint256)": {
        "notice": "Gets the size of the validator set that must sign the given block number."
      },
      "request(bytes32,uint256,address)": {
        "notice": "Commit to the attestation request of a hashed identifier."
      },
      "revoke(bytes32,uint256)": {
        "notice": "Revokes an account for an identifier."
      },
      "selectIssuers(bytes32)": {
        "notice": "Selects the issuers for the most recent attestation request."
      },
      "setAttestationExpiryBlocks(uint256)": {
        "notice": "Updates 'attestationExpiryBlocks'."
      },
      "setAttestationRequestFee(address,uint256)": {
        "notice": "Updates the fee  for a particular token."
      },
      "setMaxAttestations(uint256)": {
        "notice": "Updates 'maxAttestations'."
      },
      "setRegistry(address)": {
        "notice": "Updates the address pointing to a Registry contract."
      },
      "setSelectIssuersWaitBlocks(uint256)": {
        "notice": "Updates 'selectIssuersWaitBlocks'."
      },
      "validateAttestationCode(bytes32,address,uint8,bytes32,bytes32)": {
        "notice": "Validates the given attestation code."
      },
      "validatorSignerAddressFromSet(uint256,uint256)": {
        "notice": "Gets a validator address from the validator set at the given block number."
      },
      "withdraw(address)": {
        "notice": "Allows issuers to withdraw accumulated attestation rewards."
      }
    }
  }
}