{
  "contractName": "TestRandom",
  "abi": [
    {
      "constant": true,
      "inputs": [
        {
          "name": "index",
          "type": "uint256"
        }
      ],
      "name": "validatorSignerAddressFromCurrentSet",
      "outputs": [
        {
          "name": "",
          "type": "address"
        }
      ],
      "payable": false,
      "stateMutability": "view",
      "type": "function"
    },
    {
      "constant": true,
      "inputs": [],
      "name": "initialized",
      "outputs": [
        {
          "name": "",
          "type": "bool"
        }
      ],
      "payable": false,
      "stateMutability": "view",
      "type": "function"
    },
    {
      "constant": true,
      "inputs": [
        {
          "name": "sender",
          "type": "address"
        },
        {
          "name": "blsKey",
          "type": "bytes"
        },
        {
          "name": "blsPop",
          "type": "bytes"
        }
      ],
      "name": "checkProofOfPossession",
      "outputs": [
        {
          "name": "",
          "type": "bool"
        }
      ],
      "payable": false,
      "stateMutability": "view",
      "type": "function"
    },
    {
      "constant": true,
      "inputs": [
        {
          "name": "blockNumber",
          "type": "uint256"
        }
      ],
      "name": "getEpochNumberOfBlock",
      "outputs": [
        {
          "name": "",
          "type": "uint256"
        }
      ],
      "payable": false,
      "stateMutability": "view",
      "type": "function"
    },
    {
      "constant": true,
      "inputs": [
        {
          "name": "header",
          "type": "bytes"
        }
      ],
      "name": "getVerifiedSealBitmapFromHeader",
      "outputs": [
        {
          "name": "",
          "type": "bytes32"
        }
      ],
      "payable": false,
      "stateMutability": "view",
      "type": "function"
    },
    {
      "constant": true,
      "inputs": [
        {
          "name": "index",
          "type": "uint256"
        },
        {
          "name": "blockNumber",
          "type": "uint256"
        }
      ],
      "name": "validatorSignerAddressFromSet",
      "outputs": [
        {
          "name": "",
          "type": "address"
        }
      ],
      "payable": false,
      "stateMutability": "view",
      "type": "function"
    },
    {
      "constant": true,
      "inputs": [],
      "name": "random",
      "outputs": [
        {
          "name": "",
          "type": "bytes32"
        }
      ],
      "payable": false,
      "stateMutability": "view",
      "type": "function"
    },
    {
      "constant": true,
      "inputs": [
        {
          "name": "header",
          "type": "bytes"
        }
      ],
      "name": "hashHeader",
      "outputs": [
        {
          "name": "",
          "type": "bytes32"
        }
      ],
      "payable": false,
      "stateMutability": "view",
      "type": "function"
    },
    {
      "constant": false,
      "inputs": [],
      "name": "renounceOwnership",
      "outputs": [],
      "payable": false,
      "stateMutability": "nonpayable",
      "type": "function"
    },
    {
      "constant": true,
      "inputs": [],
      "name": "minQuorumSizeInCurrentSet",
      "outputs": [
        {
          "name": "",
          "type": "uint256"
        }
      ],
      "payable": false,
      "stateMutability": "view",
      "type": "function"
    },
    {
      "constant": false,
      "inputs": [
        {
          "name": "randomness",
          "type": "bytes32"
        },
        {
          "name": "newCommitment",
          "type": "bytes32"
        },
        {
          "name": "proposer",
          "type": "address"
        }
      ],
      "name": "revealAndCommit",
      "outputs": [],
      "payable": false,
      "stateMutability": "nonpayable",
      "type": "function"
    },
    {
      "constant": true,
      "inputs": [],
      "name": "numberValidatorsInCurrentSet",
      "outputs": [
        {
          "name": "",
          "type": "uint256"
        }
      ],
      "payable": false,
      "stateMutability": "view",
      "type": "function"
    },
    {
      "constant": true,
      "inputs": [
        {
          "name": "header",
          "type": "bytes"
        }
      ],
      "name": "getBlockNumberFromHeader",
      "outputs": [
        {
          "name": "",
          "type": "uint256"
        }
      ],
      "payable": false,
      "stateMutability": "view",
      "type": "function"
    },
    {
      "constant": true,
      "inputs": [],
      "name": "owner",
      "outputs": [
        {
          "name": "",
          "type": "address"
        }
      ],
      "payable": false,
      "stateMutability": "view",
      "type": "function"
    },
    {
      "constant": true,
      "inputs": [],
      "name": "isOwner",
      "outputs": [
        {
          "name": "",
          "type": "bool"
        }
      ],
      "payable": false,
      "stateMutability": "view",
      "type": "function"
    },
    {
      "constant": false,
      "inputs": [
        {
          "name": "value",
          "type": "uint256"
        }
      ],
      "name": "setRandomnessBlockRetentionWindow",
      "outputs": [],
      "payable": false,
      "stateMutability": "nonpayable",
      "type": "function"
    },
    {
      "constant": true,
      "inputs": [],
      "name": "getEpochNumber",
      "outputs": [
        {
          "name": "",
          "type": "uint256"
        }
      ],
      "payable": false,
      "stateMutability": "view",
      "type": "function"
    },
    {
      "constant": true,
      "inputs": [
        {
          "name": "blockNumber",
          "type": "uint256"
        }
      ],
      "name": "numberValidatorsInSet",
      "outputs": [
        {
          "name": "",
          "type": "uint256"
        }
      ],
      "payable": false,
      "stateMutability": "view",
      "type": "function"
    },
    {
      "constant": true,
      "inputs": [
        {
          "name": "randomness",
          "type": "bytes32"
        }
      ],
      "name": "computeCommitment",
      "outputs": [
        {
          "name": "",
          "type": "bytes32"
        }
      ],
      "payable": false,
      "stateMutability": "pure",
      "type": "function"
    },
    {
      "constant": true,
      "inputs": [],
      "name": "getEpochSize",
      "outputs": [
        {
          "name": "",
          "type": "uint256"
        }
      ],
      "payable": false,
      "stateMutability": "view",
      "type": "function"
    },
    {
      "constant": true,
      "inputs": [],
      "name": "randomnessBlockRetentionWindow",
      "outputs": [
        {
          "name": "",
          "type": "uint256"
        }
      ],
      "payable": false,
      "stateMutability": "view",
      "type": "function"
    },
    {
      "constant": true,
      "inputs": [
        {
          "name": "blockNumber",
          "type": "uint256"
        }
      ],
      "name": "minQuorumSize",
      "outputs": [
        {
          "name": "",
          "type": "uint256"
        }
      ],
      "payable": false,
      "stateMutability": "view",
      "type": "function"
    },
    {
      "constant": true,
      "inputs": [
        {
          "name": "",
          "type": "address"
        }
      ],
      "name": "commitments",
      "outputs": [
        {
          "name": "",
          "type": "bytes32"
        }
      ],
      "payable": false,
      "stateMutability": "view",
      "type": "function"
    },
    {
      "constant": true,
      "inputs": [
        {
          "name": "aNumerator",
          "type": "uint256"
        },
        {
          "name": "aDenominator",
          "type": "uint256"
        },
        {
          "name": "bNumerator",
          "type": "uint256"
        },
        {
          "name": "bDenominator",
          "type": "uint256"
        },
        {
          "name": "exponent",
          "type": "uint256"
        },
        {
          "name": "_decimals",
          "type": "uint256"
        }
      ],
      "name": "fractionMulExp",
      "outputs": [
        {
          "name": "",
          "type": "uint256"
        },
        {
          "name": "",
          "type": "uint256"
        }
      ],
      "payable": false,
      "stateMutability": "view",
      "type": "function"
    },
    {
      "constant": false,
      "inputs": [
        {
          "name": "newOwner",
          "type": "address"
        }
      ],
      "name": "transferOwnership",
      "outputs": [],
      "payable": false,
      "stateMutability": "nonpayable",
      "type": "function"
    },
    {
      "constant": true,
      "inputs": [
        {
          "name": "blockNumber",
          "type": "uint256"
        }
      ],
      "name": "getParentSealBitmap",
      "outputs": [
        {
          "name": "",
          "type": "bytes32"
        }
      ],
      "payable": false,
      "stateMutability": "view",
      "type": "function"
    },
    {
      "constant": true,
      "inputs": [
        {
          "name": "blockNumber",
          "type": "uint256"
        }
      ],
      "name": "getBlockRandomness",
      "outputs": [
        {
          "name": "",
          "type": "bytes32"
        }
      ],
      "payable": false,
      "stateMutability": "view",
      "type": "function"
    },
    {
      "constant": false,
      "inputs": [
        {
          "name": "_randomnessBlockRetentionWindow",
          "type": "uint256"
        }
      ],
      "name": "initialize",
      "outputs": [],
      "payable": false,
      "stateMutability": "nonpayable",
      "type": "function"
    },
    {
      "anonymous": false,
      "inputs": [
        {
          "indexed": false,
          "name": "value",
          "type": "uint256"
        }
      ],
      "name": "RandomnessBlockRetentionWindowSet",
      "type": "event"
    },
    {
      "anonymous": false,
      "inputs": [
        {
          "indexed": true,
          "name": "previousOwner",
          "type": "address"
        },
        {
          "indexed": true,
          "name": "newOwner",
          "type": "address"
        }
      ],
      "name": "OwnershipTransferred",
      "type": "event"
    },
    {
      "constant": false,
      "inputs": [
        {
          "name": "blockNumber",
          "type": "uint256"
        },
        {
          "name": "randomness",
          "type": "bytes32"
        }
      ],
      "name": "addTestRandomness",
      "outputs": [],
      "payable": false,
      "stateMutability": "nonpayable",
      "type": "function"
    },
    {
      "constant": true,
      "inputs": [
        {
          "name": "blockNumber",
          "type": "uint256"
        },
        {
          "name": "cur",
          "type": "uint256"
        }
      ],
      "name": "getTestRandomness",
      "outputs": [
        {
          "name": "",
          "type": "bytes32"
        }
      ],
      "payable": false,
      "stateMutability": "view",
      "type": "function"
    },
    {
      "constant": false,
      "inputs": [
        {
          "name": "randomness",
          "type": "bytes32"
        },
        {
          "name": "newCommitment",
          "type": "bytes32"
        },
        {
          "name": "proposer",
          "type": "address"
        }
      ],
      "name": "testRevealAndCommit",
      "outputs": [],
      "payable": false,
      "stateMutability": "nonpayable",
      "type": "function"
    }
  ],
  "bytecode": "0x608060405260006100146100b760201b60201c565b9050806000806101000a81548173ffffffffffffffffffffffffffffffffffffffff021916908373ffffffffffffffffffffffffffffffffffffffff1602179055508073ffffffffffffffffffffffffffffffffffffffff16600073ffffffffffffffffffffffffffffffffffffffff167f8be0079c531659141344cd1fd0a4f28419497f9722a3daafe3b4186f6b6457e060405160405180910390a3506100bf565b600033905090565b6130c7806100ce6000396000f3fe608060405234801561001057600080fd5b50600436106101e55760003560e01c80638da5cb5b1161010f578063e50e652d116100a2578063f2fde38b11610071578063f2fde38b14610b50578063fae8db0a14610b94578063fc48472614610bd6578063fe4b84df14610c18576101e5565b8063e50e652d146109ef578063e626642514610a31578063e8fcf72314610a7d578063ec68307214610ad5576101e5565b80639b2b592f116100de5780639b2b592f1461092f578063c387742b14610971578063df4da461146109b3578063e45def95146109d1576101e5565b80638da5cb5b146108775780638f32d59b146108c157806392e5d98f146108e35780639a7b3be714610911576101e5565b80635ec01e4d1161018757806375832efc1161015657806375832efc146106fa57806387ca71661461075257806387ee8a0f1461078a5780638a883626146107a8576101e5565b80635ec01e4d146105e557806367960e9114610603578063715018a6146106d25780637385e5da146106dc576101e5565b806323f0ab65116101c357806323f0ab65146102d25780633b1eb4bf1461045c5780634b2c2f441461049e5780635d180adb1461056d576101e5565b80630c0dd6c1146101ea578063123633ea14610242578063158ef93e146102b0575b600080fd5b6102406004803603606081101561020057600080fd5b810190808035906020019092919080359060200190929190803573ffffffffffffffffffffffffffffffffffffffff169060200190929190505050610c46565b005b61026e6004803603602081101561025857600080fd5b8101908080359060200190929190505050610c56565b604051808273ffffffffffffffffffffffffffffffffffffffff1673ffffffffffffffffffffffffffffffffffffffff16815260200191505060405180910390f35b6102b8610da7565b604051808215151515815260200191505060405180910390f35b610442600480360360608110156102e857600080fd5b81019080803573ffffffffffffffffffffffffffffffffffffffff1690602001909291908035906020019064010000000081111561032557600080fd5b82018360208201111561033757600080fd5b8035906020019184600183028401116401000000008311171561035957600080fd5b91908080601f016020809104026020016040519081016040528093929190818152602001838380828437600081840152601f19601f820116905080830192505050505050509192919290803590602001906401000000008111156103bc57600080fd5b8201836020820111156103ce57600080fd5b803590602001918460018302840111640100000000831117156103f057600080fd5b91908080601f016020809104026020016040519081016040528093929190818152602001838380828437600081840152601f19601f820116905080830192505050505050509192919290505050610dba565b604051808215151515815260200191505060405180910390f35b6104886004803603602081101561047257600080fd5b8101908080359060200190929190505050610f73565b6040518082815260200191505060405180910390f35b610557600480360360208110156104b457600080fd5b81019080803590602001906401000000008111156104d157600080fd5b8201836020820111156104e357600080fd5b8035906020019184600183028401116401000000008311171561050557600080fd5b91908080601f016020809104026020016040519081016040528093929190818152602001838380828437600081840152601f19601f820116905080830192505050505050509192919290505050610f8d565b6040518082815260200191505060405180910390f35b6105a36004803603604081101561058357600080fd5b810190808035906020019092919080359060200190929190505050611121565b604051808273ffffffffffffffffffffffffffffffffffffffff1673ffffffffffffffffffffffffffffffffffffffff16815260200191505060405180910390f35b6105ed611273565b6040518082815260200191505060405180910390f35b6106bc6004803603602081101561061957600080fd5b810190808035906020019064010000000081111561063657600080fd5b82018360208201111561064857600080fd5b8035906020019184600183028401116401000000008311171561066a57600080fd5b91908080601f016020809104026020016040519081016040528093929190818152602001838380828437600081840152601f19601f820116905080830192505050505050509192919290505050611284565b6040518082815260200191505060405180910390f35b6106da611418565b005b6106e4611551565b6040518082815260200191505060405180910390f35b6107506004803603606081101561071057600080fd5b810190808035906020019092919080359060200190929190803573ffffffffffffffffffffffffffffffffffffffff169060200190929190505050611561565b005b6107886004803603604081101561076857600080fd5b810190808035906020019092919080359060200190929190505050611613565b005b610792611621565b6040518082815260200191505060405180910390f35b610861600480360360208110156107be57600080fd5b81019080803590602001906401000000008111156107db57600080fd5b8201836020820111156107ed57600080fd5b8035906020019184600183028401116401000000008311171561080f57600080fd5b91908080601f016020809104026020016040519081016040528093929190818152602001838380828437600081840152601f19601f820116905080830192505050505050509192919290505050611768565b6040518082815260200191505060405180910390f35b61087f6118fc565b604051808273ffffffffffffffffffffffffffffffffffffffff1673ffffffffffffffffffffffffffffffffffffffff16815260200191505060405180910390f35b6108c9611925565b604051808215151515815260200191505060405180910390f35b61090f600480360360208110156108f957600080fd5b8101908080359060200190929190505050611983565b005b610919611a97565b6040518082815260200191505060405180910390f35b61095b6004803603602081101561094557600080fd5b8101908080359060200190929190505050611aa7565b6040518082815260200191505060405180910390f35b61099d6004803603602081101561098757600080fd5b8101908080359060200190929190505050611bf0565b6040518082815260200191505060405180910390f35b6109bb611c20565b6040518082815260200191505060405180910390f35b6109d9611d5c565b6040518082815260200191505060405180910390f35b610a1b60048036036020811015610a0557600080fd5b8101908080359060200190929190505050611d62565b6040518082815260200191505060405180910390f35b610a6760048036036040811015610a4757600080fd5b810190808035906020019092919080359060200190929190505050611dad565b6040518082815260200191505060405180910390f35b610abf60048036036020811015610a9357600080fd5b81019080803573ffffffffffffffffffffffffffffffffffffffff169060200190929190505050611dc1565b6040518082815260200191505060405180910390f35b610b33600480360360c0811015610aeb57600080fd5b81019080803590602001909291908035906020019092919080359060200190929190803590602001909291908035906020019092919080359060200190929190505050611dd9565b604051808381526020018281526020019250505060405180910390f35b610b9260048036036020811015610b6657600080fd5b81019080803573ffffffffffffffffffffffffffffffffffffffff169060200190929190505050611fed565b005b610bc060048036036020811015610baa57600080fd5b8101908080359060200190929190505050612073565b6040518082815260200191505060405180910390f35b610c0260048036036020811015610bec57600080fd5b81019080803590602001909291905050506121bc565b6040518082815260200191505060405180910390f35b610c4460048036036020811015610c2e57600080fd5b81019080803590602001909291905050506121cf565b005b610c51838383612282565b505050565b60006060600060fa73ffffffffffffffffffffffffffffffffffffffff16844360405160200180838152602001828152602001925050506040516020818303038152906040526040518082805190602001908083835b60208310610ccf5780518252602082019150602081019050602083039250610cac565b6001836020036101000a038019825116818451168082178552505050505050905001915050600060405180830381855afa9150503d8060008114610d2f576040519150601f19603f3d011682016040523d82523d6000602084013e610d34565b606091505b50809350819250505080610d93576040517f08c379a000000000000000000000000000000000000000000000000000000000815260040180806020018281038252603d815260200180612e6f603d913960400191505060405180910390fd5b610d9e82600061256a565b92505050919050565b600060149054906101000a900460ff1681565b60008060fb73ffffffffffffffffffffffffffffffffffffffff16858585604051602001808473ffffffffffffffffffffffffffffffffffffffff1673ffffffffffffffffffffffffffffffffffffffff1660601b815260140183805190602001908083835b60208310610e435780518252602082019150602081019050602083039250610e20565b6001836020036101000a03801982511681845116808217855250505050505090500182805190602001908083835b60208310610e945780518252602082019150602081019050602083039250610e71565b6001836020036101000a03801982511681845116808217855250505050505090500193505050506040516020818303038152906040526040518082805190602001908083835b60208310610efd5780518252602082019150602081019050602083039250610eda565b6001836020036101000a038019825116818451168082178552505050505050905001915050600060405180830381855afa9150503d8060008114610f5d576040519150601f19603f3d011682016040523d82523d6000602084013e610f62565b606091505b505080915050809150509392505050565b6000610f8682610f81611c20565b612581565b9050919050565b60006060600060f473ffffffffffffffffffffffffffffffffffffffff16846040516020018082805190602001908083835b60208310610fe25780518252602082019150602081019050602083039250610fbf565b6001836020036101000a0380198251168184511680821785525050505050509050019150506040516020818303038152906040526040518082805190602001908083835b602083106110495780518252602082019150602081019050602083039250611026565b6001836020036101000a038019825116818451168082178552505050505050905001915050600060405180830381855afa9150503d80600081146110a9576040519150601f19603f3d011682016040523d82523d6000602084013e6110ae565b606091505b5080935081925050508061110d576040517f08c379a0000000000000000000000000000000000000000000000000000000008152600401808060200182810382526038815260200180612e376038913960400191505060405180910390fd5b6111188260006125b9565b92505050919050565b60006060600060fa73ffffffffffffffffffffffffffffffffffffffff16858560405160200180838152602001828152602001925050506040516020818303038152906040526040518082805190602001908083835b6020831061119a5780518252602082019150602081019050602083039250611177565b6001836020036101000a038019825116818451168082178552505050505050905001915050600060405180830381855afa9150503d80600081146111fa576040519150601f19603f3d011682016040523d82523d6000602084013e6111ff565b606091505b5080935081925050508061125e576040517f08c379a0000000000000000000000000000000000000000000000000000000008152600401808060200182810382526036815260200180612ee16036913960400191505060405180910390fd5b61126982600061256a565b9250505092915050565b600061127f434361264a565b905090565b60006060600060f673ffffffffffffffffffffffffffffffffffffffff16846040516020018082805190602001908083835b602083106112d957805182526020820191506020810190506020830392506112b6565b6001836020036101000a0380198251168184511680821785525050505050509050019150506040516020818303038152906040526040518082805190602001908083835b60208310611340578051825260208201915060208101905060208303925061131d565b6001836020036101000a038019825116818451168082178552505050505050905001915050600060405180830381855afa9150503d80600081146113a0576040519150601f19603f3d011682016040523d82523d6000602084013e6113a5565b606091505b50809350819250505080611404576040517f08c379a00000000000000000000000000000000000000000000000000000000081526004018080602001828103825260238152602001806130446023913960400191505060405180910390fd5b61140f8260006125b9565b92505050919050565b611420611925565b611492576040517f08c379a00000000000000000000000000000000000000000000000000000000081526004018080602001828103825260208152602001807f4f776e61626c653a2063616c6c6572206973206e6f7420746865206f776e657281525060200191505060405180910390fd5b600073ffffffffffffffffffffffffffffffffffffffff166000809054906101000a900473ffffffffffffffffffffffffffffffffffffffff1673ffffffffffffffffffffffffffffffffffffffff167f8be0079c531659141344cd1fd0a4f28419497f9722a3daafe3b4186f6b6457e060405160405180910390a360008060006101000a81548173ffffffffffffffffffffffffffffffffffffffff021916908373ffffffffffffffffffffffffffffffffffffffff160217905550565b600061155c43611d62565b905090565b600073ffffffffffffffffffffffffffffffffffffffff163373ffffffffffffffffffffffffffffffffffffffff1614611603576040517f08c379a00000000000000000000000000000000000000000000000000000000081526004018080602001828103825260108152602001807f4f6e6c7920564d2063616e2063616c6c0000000000000000000000000000000081525060200191505060405180910390fd5b61160e838383612282565b505050565b61161d8282612765565b5050565b60006060600060f973ffffffffffffffffffffffffffffffffffffffff1643604051602001808281526020019150506040516020818303038152906040526040518082805190602001908083835b60208310611692578051825260208201915060208101905060208303925061166f565b6001836020036101000a038019825116818451168082178552505050505050905001915050600060405180830381855afa9150503d80600081146116f2576040519150601f19603f3d011682016040523d82523d6000602084013e6116f7565b606091505b50809350819250505080611756576040517f08c379a0000000000000000000000000000000000000000000000000000000008152600401808060200182810382526035815260200180612eac6035913960400191505060405180910390fd5b61176182600061256a565b9250505090565b60006060600060f773ffffffffffffffffffffffffffffffffffffffff16846040516020018082805190602001908083835b602083106117bd578051825260208201915060208101905060208303925061179a565b6001836020036101000a0380198251168184511680821785525050505050509050019150506040516020818303038152906040526040518082805190602001908083835b602083106118245780518252602082019150602081019050602083039250611801565b6001836020036101000a038019825116818451168082178552505050505050905001915050600060405180830381855afa9150503d8060008114611884576040519150601f19603f3d011682016040523d82523d6000602084013e611889565b606091505b508093508192505050806118e8576040517f08c379a00000000000000000000000000000000000000000000000000000000081526004018080602001828103825260318152602001806130136031913960400191505060405180910390fd5b6118f382600061256a565b92505050919050565b60008060009054906101000a900473ffffffffffffffffffffffffffffffffffffffff16905090565b60008060009054906101000a900473ffffffffffffffffffffffffffffffffffffffff1673ffffffffffffffffffffffffffffffffffffffff166119676128b5565b73ffffffffffffffffffffffffffffffffffffffff1614905090565b61198b611925565b6119fd576040517f08c379a00000000000000000000000000000000000000000000000000000000081526004018080602001828103825260208152602001807f4f776e61626c653a2063616c6c6572206973206e6f7420746865206f776e657281525060200191505060405180910390fd5b60008111611a56576040517f08c379a000000000000000000000000000000000000000000000000000000000815260040180806020018281038252602c815260200180612dde602c913960400191505060405180910390fd5b806002819055507f337b24e614d34558109f3dee80fbcb3c5a4b08a6611bee45581772f64d1681e5816040518082815260200191505060405180910390a150565b6000611aa243610f73565b905090565b60006060600060f973ffffffffffffffffffffffffffffffffffffffff1684604051602001808281526020019150506040516020818303038152906040526040518082805190602001908083835b60208310611b185780518252602082019150602081019050602083039250611af5565b6001836020036101000a038019825116818451168082178552505050505050905001915050600060405180830381855afa9150503d8060008114611b78576040519150601f19603f3d011682016040523d82523d6000602084013e611b7d565b606091505b50809350819250505080611bdc576040517f08c379a000000000000000000000000000000000000000000000000000000000815260040180806020018281038252602e815260200180612d8a602e913960400191505060405180910390fd5b611be782600061256a565b92505050919050565b60008160405160200180828152602001915050604051602081830303815290604052805190602001209050919050565b60006060600060f873ffffffffffffffffffffffffffffffffffffffff166040516020016040516020818303038152906040526040518082805190602001908083835b60208310611c865780518252602082019150602081019050602083039250611c63565b6001836020036101000a038019825116818451168082178552505050505050905001915050600060405180830381855afa9150503d8060008114611ce6576040519150601f19603f3d011682016040523d82523d6000602084013e611ceb565b606091505b50809350819250505080611d4a576040517f08c379a0000000000000000000000000000000000000000000000000000000008152600401808060200182810382526025815260200180612f876025913960400191505060405180910390fd5b611d5582600061256a565b9250505090565b60025481565b6000611da66003611d986002611d8a6002611d7c88611aa7565b6128bd90919063ffffffff16565b61294390919063ffffffff16565b6129cb90919063ffffffff16565b9050919050565b6000611db9838361264a565b905092915050565b60016020528060005260406000206000915090505481565b60008060008714158015611dee575060008514155b611e60576040517f08c379a00000000000000000000000000000000000000000000000000000000081526004018080602001828103825260158152602001807f612064656e6f6d696e61746f72206973207a65726f000000000000000000000081525060200191505060405180910390fd5b6000806000606060fc73ffffffffffffffffffffffffffffffffffffffff168c8c8c8c8c8c6040516020018087815260200186815260200185815260200184815260200183815260200182815260200196505050505050506040516020818303038152906040526040518082805190602001908083835b60208310611efa5780518252602082019150602081019050602083039250611ed7565b6001836020036101000a038019825116818451168082178552505050505050905001915050600060405180830381855afa9150503d8060008114611f5a576040519150601f19603f3d011682016040523d82523d6000602084013e611f5f565b606091505b50809250819350505081611fbe576040517f08c379a0000000000000000000000000000000000000000000000000000000008152600401808060200182810382526027815260200180612f606027913960400191505060405180910390fd5b611fc981600061256a565b9350611fd681602061256a565b925083839550955050505050965096945050505050565b611ff5611925565b612067576040517f08c379a00000000000000000000000000000000000000000000000000000000081526004018080602001828103825260208152602001807f4f776e61626c653a2063616c6c6572206973206e6f7420746865206f776e657281525060200191505060405180910390fd5b61207081612a15565b50565b60006060600060f573ffffffffffffffffffffffffffffffffffffffff1684604051602001808281526020019150506040516020818303038152906040526040518082805190602001908083835b602083106120e457805182526020820191506020810190506020830392506120c1565b6001836020036101000a038019825116818451168082178552505050505050905001915050600060405180830381855afa9150503d8060008114612144576040519150601f19603f3d011682016040523d82523d6000602084013e612149565b606091505b508093508192505050806121a8576040517f08c379a000000000000000000000000000000000000000000000000000000000815260040180806020018281038252602c815260200180612fe7602c913960400191505060405180910390fd5b6121b38260006125b9565b92505050919050565b60006121c8824361264a565b9050919050565b600060149054906101000a900460ff1615612252576040517f08c379a000000000000000000000000000000000000000000000000000000000815260040180806020018281038252601c8152602001807f636f6e747261637420616c726561647920696e697469616c697a65640000000081525060200191505060405180910390fd5b6001600060146101000a81548160ff02191690831515021790555061227633612a15565b61227f81611983565b50565b61228e6000801b611bf0565b821415612303576040517f08c379a000000000000000000000000000000000000000000000000000000000815260040180806020018281038252601d8152602001807f63616e6e6f7420636f6d6d6974207a65726f2072616e646f6d6e65737300000081525060200191505060405180910390fd5b6000801b600160008373ffffffffffffffffffffffffffffffffffffffff1673ffffffffffffffffffffffffffffffffffffffff1681526020019081526020016000205414612452576000801b8314156123a8576040517f08c379a000000000000000000000000000000000000000000000000000000000815260040180806020018281038252603b815260200180612fac603b913960400191505060405180910390fd5b60006123b384611bf0565b9050600160008373ffffffffffffffffffffffffffffffffffffffff1673ffffffffffffffffffffffffffffffffffffffff16815260200190815260200160002054811461244c576040517f08c379a000000000000000000000000000000000000000000000000000000000815260040180806020018281038252602d815260200180612e0a602d913960400191505060405180910390fd5b506124ae565b6000801b83146124ad576040517f08c379a000000000000000000000000000000000000000000000000000000000815260040180806020018281038252603c815260200180612d4e603c913960400191505060405180910390fd5b5b60008043146124d0576124cb600143612b5990919063ffffffff16565b6124d3565b60005b905061252043600360008481526020019081526020016000205486604051602001808381526020018281526020019250505060405160208183030381529060405280519060200120612765565b82600160008473ffffffffffffffffffffffffffffffffffffffff1673ffffffffffffffffffffffffffffffffffffffff1681526020019081526020016000208190555050505050565b600061257683836125b9565b60001c905092915050565b60008082848161258d57fe5b049050600083858161259b57fe5b0614156125ab57809150506125b3565b600181019150505b92915050565b60006020820183511015612635576040517f08c379a00000000000000000000000000000000000000000000000000000000081526004018080602001828103825260148152602001807f736c6963696e67206f7574206f662072616e676500000000000000000000000081525060200191505060405180910390fd5b60006020830184015190508091505092915050565b6000818311156126a5576040517f08c379a0000000000000000000000000000000000000000000000000000000008152600401808060200182810382526028815260200180612f386028913960400191505060405180910390fd5b6006548314806126f457506126c560055483612b5990919063ffffffff16565b831180156126f35750816002541015806126f257506126ef60025483612b5990919063ffffffff16565b83115b5b5b612749576040517f08c379a00000000000000000000000000000000000000000000000000000000081526004018080602001828103825260358152602001806130676035913960400191505060405180910390fd5b6003600084815260200190815260200160002054905092915050565b8060036000848152602001908152602001600020819055506000612787611c20565b838161278f57fe5b0614156127c85760045460065410156127bc57600360006006548152602001908152602001600020600090555b816006819055506128b1565b600060055414156127e7578160048190555060016005819055506128b0565b6002546005541115612859576127fe600454612ba3565b61281c612817600160045461294390919063ffffffff16565b612ba3565b612832600260045461294390919063ffffffff16565b60048190555061284e6001600554612b5990919063ffffffff16565b6005819055506128af565b600254600554141561289157612870600454612ba3565b612886600160045461294390919063ffffffff16565b6004819055506128ae565b6128a7600160055461294390919063ffffffff16565b6005819055505b5b5b5b5050565b600033905090565b6000808314156128d0576000905061293d565b60008284029050828482816128e157fe5b0414612938576040517f08c379a0000000000000000000000000000000000000000000000000000000008152600401808060200182810382526021815260200180612f176021913960400191505060405180910390fd5b809150505b92915050565b6000808284019050838110156129c1576040517f08c379a000000000000000000000000000000000000000000000000000000000815260040180806020018281038252601b8152602001807f536166654d6174683a206164646974696f6e206f766572666c6f77000000000081525060200191505060405180910390fd5b8091505092915050565b6000612a0d83836040518060400160405280601a81526020017f536166654d6174683a206469766973696f6e206279207a65726f000000000000815250612bc7565b905092915050565b600073ffffffffffffffffffffffffffffffffffffffff168173ffffffffffffffffffffffffffffffffffffffff161415612a9b576040517f08c379a0000000000000000000000000000000000000000000000000000000008152600401808060200182810382526026815260200180612db86026913960400191505060405180910390fd5b8073ffffffffffffffffffffffffffffffffffffffff166000809054906101000a900473ffffffffffffffffffffffffffffffffffffffff1673ffffffffffffffffffffffffffffffffffffffff167f8be0079c531659141344cd1fd0a4f28419497f9722a3daafe3b4186f6b6457e060405160405180910390a3806000806101000a81548173ffffffffffffffffffffffffffffffffffffffff021916908373ffffffffffffffffffffffffffffffffffffffff16021790555050565b6000612b9b83836040518060400160405280601e81526020017f536166654d6174683a207375627472616374696f6e206f766572666c6f770000815250612c8d565b905092915050565b6006548114612bc45760036000828152602001908152602001600020600090555b50565b60008083118290612c73576040517f08c379a00000000000000000000000000000000000000000000000000000000081526004018080602001828103825283818151815260200191508051906020019080838360005b83811015612c38578082015181840152602081019050612c1d565b50505050905090810190601f168015612c655780820380516001836020036101000a031916815260200191505b509250505060405180910390fd5b506000838581612c7f57fe5b049050809150509392505050565b6000838311158290612d3a576040517f08c379a00000000000000000000000000000000000000000000000000000000081526004018080602001828103825283818151815260200191508051906020019080838360005b83811015612cff578082015181840152602081019050612ce4565b50505050905090810190601f168015612d2c5780820380516001836020036101000a031916815260200191505b509250505060405180910390fd5b506000838503905080915050939250505056fe72616e646f6d6e6573732073686f756c64206265207a65726f206966207468657265206973206e6f2070726576696f757320636f6d6d69746d656e746572726f722063616c6c696e67206e756d62657256616c696461746f7273496e53657420707265636f6d70696c654f776e61626c653a206e6577206f776e657220697320746865207a65726f206164647265737372616e646f6d6e657373426c6f636b5265746574696f6e57696e646f772063616e6e6f74206265207a65726f636f6d6d69746d656e74206469646e2774206d617463682074686520706f737465642072616e646f6d6e6573736572726f722063616c6c696e672067657456657269666965645365616c4269746d617046726f6d48656164657220707265636f6d70696c656572726f722063616c6c696e672076616c696461746f725369676e65724164647265737346726f6d43757272656e7453657420707265636f6d70696c656572726f722063616c6c696e67206e756d62657256616c696461746f7273496e43757272656e7453657420707265636f6d70696c656572726f722063616c6c696e672076616c696461746f725369676e65724164647265737346726f6d53657420707265636f6d70696c65536166654d6174683a206d756c7469706c69636174696f6e206f766572666c6f7743616e6e6f742071756572792072616e646f6d6e657373206f662066757475726520626c6f636b736572726f722063616c6c696e67206672616374696f6e4d756c45787020707265636f6d70696c656572726f722063616c6c696e672067657445706f636853697a6520707265636f6d70696c6572616e646f6d6e6573732063616e6e6f74206265207a65726f20696620746865726520697320612070726576696f757320636f6d6d69746d656e746572726f722063616c6c696e6720676574506172656e745365616c4269746d617020707265636f6d70696c656572726f722063616c6c696e6720676574426c6f636b4e756d62657246726f6d48656164657220707265636f6d70696c656572726f722063616c6c696e67206861736848656164657220707265636f6d70696c6543616e6e6f742071756572792072616e646f6d6e657373206f6c646572207468616e207468652073746f72656420686973746f7279a165627a7a723058208d8b0bfd20cdd460017dc5d9c009f68f1025a219b8c7c53bdf26662ab43809ff0029",
  "source": "pragma solidity ^0.5.3;\n\nimport \"../Random.sol\";\n\ncontract TestRandom is Random {\n  function addTestRandomness(uint256 blockNumber, bytes32 randomness) external {\n    addRandomness(blockNumber, randomness);\n  }\n  function getTestRandomness(uint256 blockNumber, uint256 cur) external view returns (bytes32) {\n    return _getBlockRandomness(blockNumber, cur);\n  }\n  function testRevealAndCommit(bytes32 randomness, bytes32 newCommitment, address proposer)\n    external\n  {\n    _revealAndCommit(randomness, newCommitment, proposer);\n  }\n}\n",
  "sourcePath": "/Users/cmcewen/celo/celo-monorepo/packages/protocol/contracts/identity/test/TestRandom.sol",
  "compiler": {
    "name": "solc",
    "version": "0.5.8+commit.23d335f2.Emscripten.clang"
  },
  "schemaVersion": "3.0.10",
  "updatedAt": "2020-04-09T23:11:37.554Z",
  "devdoc": {
    "methods": {
      "checkProofOfPossession(address,bytes,bytes)": {
        "params": {
          "blsKey": "The BLS public key that the validator is using for consensus, should pass proof  of possession. 48 bytes.",
          "blsPop": "The BLS public key proof-of-possession, which consists of a signature on the  account address. 96 bytes.",
          "sender": "The address signed by the BLS key to generate the proof of possession."
        },
        "return": "True upon success."
      },
      "computeCommitment(bytes32)": {
        "params": {
          "randomness": "The value for which the commitment hash is computed."
        },
        "return": "Commitment parameter."
      },
      "fractionMulExp(uint256,uint256,uint256,uint256,uint256,uint256)": {
        "params": {
          "_decimals": "precision",
          "aDenominator": "Denominator of first fraction",
          "aNumerator": "Numerator of first fraction",
          "bDenominator": "Denominator of exponentiated fraction",
          "bNumerator": "Numerator of exponentiated fraction",
          "exponent": "exponent to raise b to"
        },
        "return": "numerator/denominator of the computed quantity (not reduced)."
      },
      "getBlockNumberFromHeader(bytes)": {
        "params": {
          "header": "RLP encoded header"
        },
        "return": "Block number."
      },
      "getBlockRandomness(uint256)": {
        "params": {
          "blockNumber": "The number of block whose randomness value we want to know."
        },
        "return": "The associated randomness value."
      },
      "getEpochNumber()": {
        "return": "Current epoch number."
      },
      "getEpochNumberOfBlock(uint256)": {
        "params": {
          "blockNumber": "Block number where epoch number is calculated."
        },
        "return": "Epoch number."
      },
      "getEpochSize()": {
        "return": "The current epoch size in blocks."
      },
      "getParentSealBitmap(uint256)": {
        "params": {
          "blockNumber": "Block number to retrieve. Must be within 4 epochs of the current number."
        },
        "return": "Bitmap parent seal with set bits at indices corresponding to signing validators."
      },
      "getVerifiedSealBitmapFromHeader(bytes)": {
        "params": {
          "header": "RLP encoded header"
        },
        "return": "Bitmap parent seal with set bits at indices correspoinding to signing validators."
      },
      "hashHeader(bytes)": {
        "params": {
          "header": "RLP encoded header"
        },
        "return": "Header hash."
      },
      "initialize(uint256)": {
        "params": {
          "_randomnessBlockRetentionWindow": "Number of old random blocks whose randomness values can be queried."
        }
      },
      "isOwner()": {
        "details": "Returns true if the caller is the current owner."
      },
      "minQuorumSize(uint256)": {
        "details": "Computed in celo-blockchain as int(math.Ceil(float64(2*valSet.Size()) / 3))"
      },
      "minQuorumSizeInCurrentSet()": {
        "return": "Byzantine quorum of validators."
      },
      "numberValidatorsInCurrentSet()": {
        "return": "Size of the current elected validator set."
      },
      "numberValidatorsInSet(uint256)": {
        "params": {
          "blockNumber": "Block number to retrieve the validator set from."
        },
        "return": "Size of the validator set."
      },
      "owner()": {
        "details": "Returns the address of the current owner."
      },
      "random()": {
        "return": "Returns the current randomness value."
      },
      "renounceOwnership()": {
        "details": "Leaves the contract without owner. It will not be possible to call `onlyOwner` functions anymore. Can only be called by the current owner.     * NOTE: Renouncing ownership will leave the contract without an owner, thereby removing any functionality that is only available to the owner."
      },
      "revealAndCommit(bytes32,bytes32,address)": {
        "details": "If the Random contract is pointed to by the Registry, the first transaction in a block should be a special transaction to address 0x0 with 64 bytes of data - the concatenated `randomness` and `newCommitment`. Before running regular transactions, this function should be called.",
        "params": {
          "newCommitment": "The hash of randomness that will be revealed in the future.",
          "proposer": "Address of the block proposer.",
          "randomness": "Bytes that will be added to the entropy pool."
        }
      },
      "setRandomnessBlockRetentionWindow(uint256)": {
        "params": {
          "value": "Number of old random blocks whose randomness values can be queried."
        }
      },
      "transferOwnership(address)": {
        "details": "Transfers ownership of the contract to a new account (`newOwner`). Can only be called by the current owner."
      },
      "validatorSignerAddressFromCurrentSet(uint256)": {
        "params": {
          "index": "Index of requested validator in the validator set."
        },
        "return": "Address of validator at the requested index."
      },
      "validatorSignerAddressFromSet(uint256,uint256)": {
        "params": {
          "blockNumber": "Block number to retrieve the validator set from.",
          "index": "Index of requested validator in the validator set."
        },
        "return": "Address of validator at the requested index."
      }
    }
  },
  "userdoc": {
    "methods": {
      "checkProofOfPossession(address,bytes,bytes)": {
        "notice": "Checks a BLS proof of possession."
      },
      "computeCommitment(bytes32)": {
        "notice": "Compute the commitment hash for a given randomness value."
      },
      "fractionMulExp(uint256,uint256,uint256,uint256,uint256,uint256)": {
        "notice": "calculate a * b^x for fractions a, b to `decimals` precision"
      },
      "getBlockNumberFromHeader(bytes)": {
        "notice": "Parses block number out of header."
      },
      "getBlockRandomness(uint256)": {
        "notice": "Get randomness values of previous blocks."
      },
      "getEpochNumber()": {
        "notice": "Returns the epoch number at a block."
      },
      "getEpochNumberOfBlock(uint256)": {
        "notice": "Returns the epoch number at a block."
      },
      "getEpochSize()": {
        "notice": "Returns the current epoch size in blocks."
      },
      "getParentSealBitmap(uint256)": {
        "notice": "Gets the parent seal bitmap from the header at the given block number."
      },
      "getVerifiedSealBitmapFromHeader(bytes)": {
        "notice": "Verifies the BLS signature on the header and returns the seal bitmap. The validator set used for verification is retrieved based on the parent hash field of the header.  If the parent hash is not in the blockchain, verification fails."
      },
      "hashHeader(bytes)": {
        "notice": "Computes hash of header."
      },
      "initialize(uint256)": {
        "notice": "Used in place of the constructor to allow the contract to be upgradable via proxy."
      },
      "minQuorumSize(uint256)": {
        "notice": "Returns the minimum number of required signers for a given block number."
      },
      "minQuorumSizeInCurrentSet()": {
        "notice": "Computes byzantine quorum from current validator set size"
      },
      "numberValidatorsInCurrentSet()": {
        "notice": "Gets the size of the current elected validator set."
      },
      "numberValidatorsInSet(uint256)": {
        "notice": "Gets the size of the validator set that must sign the given block number."
      },
      "random()": {
        "notice": "Querying the current randomness value."
      },
      "revealAndCommit(bytes32,bytes32,address)": {
        "notice": "Implements step of the randomness protocol."
      },
      "setRandomnessBlockRetentionWindow(uint256)": {
        "notice": "Sets the number of old random blocks whose randomness values can be queried."
      },
      "validatorSignerAddressFromCurrentSet(uint256)": {
        "notice": "Gets a validator address from the current validator set."
      },
      "validatorSignerAddressFromSet(uint256,uint256)": {
        "notice": "Gets a validator address from the validator set at the given block number."
      }
    }
  }
}