{
  "contractName": "UsingBondedDeposits",
  "abi": [
    {
      "constant": false,
      "inputs": [],
      "name": "renounceOwnership",
      "outputs": [],
      "payable": false,
      "stateMutability": "nonpayable",
      "type": "function"
    },
    {
      "constant": true,
      "inputs": [],
      "name": "registry",
      "outputs": [
        {
          "name": "",
          "type": "address"
        }
      ],
      "payable": false,
      "stateMutability": "view",
      "type": "function"
    },
    {
      "constant": true,
      "inputs": [],
      "name": "owner",
      "outputs": [
        {
          "name": "",
          "type": "address"
        }
      ],
      "payable": false,
      "stateMutability": "view",
      "type": "function"
    },
    {
      "constant": true,
      "inputs": [],
      "name": "isOwner",
      "outputs": [
        {
          "name": "",
          "type": "bool"
        }
      ],
      "payable": false,
      "stateMutability": "view",
      "type": "function"
    },
    {
      "constant": false,
      "inputs": [
        {
          "name": "registryAddress",
          "type": "address"
        }
      ],
      "name": "setRegistry",
      "outputs": [],
      "payable": false,
      "stateMutability": "nonpayable",
      "type": "function"
    },
    {
      "constant": false,
      "inputs": [
        {
          "name": "newOwner",
          "type": "address"
        }
      ],
      "name": "transferOwnership",
      "outputs": [],
      "payable": false,
      "stateMutability": "nonpayable",
      "type": "function"
    },
    {
      "anonymous": false,
      "inputs": [
        {
          "indexed": true,
          "name": "registryAddress",
          "type": "address"
        }
      ],
      "name": "RegistrySet",
      "type": "event"
    },
    {
      "anonymous": false,
      "inputs": [
        {
          "indexed": true,
          "name": "previousOwner",
          "type": "address"
        },
        {
          "indexed": true,
          "name": "newOwner",
          "type": "address"
        }
      ],
      "name": "OwnershipTransferred",
      "type": "event"
    }
  ],
  "bytecode": "0x6080604052336000806101000a81548173ffffffffffffffffffffffffffffffffffffffff021916908373ffffffffffffffffffffffffffffffffffffffff1602179055506000809054906101000a900473ffffffffffffffffffffffffffffffffffffffff1673ffffffffffffffffffffffffffffffffffffffff16600073ffffffffffffffffffffffffffffffffffffffff167f8be0079c531659141344cd1fd0a4f28419497f9722a3daafe3b4186f6b6457e060405160405180910390a36104fe806100cf6000396000f3fe608060405234801561001057600080fd5b50600436106100625760003560e01c8063715018a6146100675780637b103999146100715780638da5cb5b146100bb5780638f32d59b14610105578063a91ee0dc14610127578063f2fde38b1461016b575b600080fd5b61006f6101af565b005b61007961027f565b604051808273ffffffffffffffffffffffffffffffffffffffff1673ffffffffffffffffffffffffffffffffffffffff16815260200191505060405180910390f35b6100c36102a5565b604051808273ffffffffffffffffffffffffffffffffffffffff1673ffffffffffffffffffffffffffffffffffffffff16815260200191505060405180910390f35b61010d6102ce565b604051808215151515815260200191505060405180910390f35b6101696004803603602081101561013d57600080fd5b81019080803573ffffffffffffffffffffffffffffffffffffffff169060200190929190505050610325565b005b6101ad6004803603602081101561018157600080fd5b81019080803573ffffffffffffffffffffffffffffffffffffffff1690602001909291905050506103bd565b005b6101b76102ce565b6101c057600080fd5b600073ffffffffffffffffffffffffffffffffffffffff166000809054906101000a900473ffffffffffffffffffffffffffffffffffffffff1673ffffffffffffffffffffffffffffffffffffffff167f8be0079c531659141344cd1fd0a4f28419497f9722a3daafe3b4186f6b6457e060405160405180910390a360008060006101000a81548173ffffffffffffffffffffffffffffffffffffffff021916908373ffffffffffffffffffffffffffffffffffffffff160217905550565b600160009054906101000a900473ffffffffffffffffffffffffffffffffffffffff1681565b60008060009054906101000a900473ffffffffffffffffffffffffffffffffffffffff16905090565b60008060009054906101000a900473ffffffffffffffffffffffffffffffffffffffff1673ffffffffffffffffffffffffffffffffffffffff163373ffffffffffffffffffffffffffffffffffffffff1614905090565b61032d6102ce565b61033657600080fd5b80600160006101000a81548173ffffffffffffffffffffffffffffffffffffffff021916908373ffffffffffffffffffffffffffffffffffffffff1602179055508073ffffffffffffffffffffffffffffffffffffffff167f27fe5f0c1c3b1ed427cc63d0f05759ffdecf9aec9e18d31ef366fc8a6cb5dc3b60405160405180910390a250565b6103c56102ce565b6103ce57600080fd5b6103d7816103da565b50565b600073ffffffffffffffffffffffffffffffffffffffff168173ffffffffffffffffffffffffffffffffffffffff16141561041457600080fd5b8073ffffffffffffffffffffffffffffffffffffffff166000809054906101000a900473ffffffffffffffffffffffffffffffffffffffff1673ffffffffffffffffffffffffffffffffffffffff167f8be0079c531659141344cd1fd0a4f28419497f9722a3daafe3b4186f6b6457e060405160405180910390a3806000806101000a81548173ffffffffffffffffffffffffffffffffffffffff021916908373ffffffffffffffffffffffffffffffffffffffff1602179055505056fea165627a7a723058204c0f1647de1d36438699fe34035729e48eeb54f9bb07d354cd5d65cc947f880a0029",
  "source": "pragma solidity ^0.5.8;\n\nimport \"./interfaces/IBondedDeposits.sol\";\nimport \"../common/UsingRegistry.sol\";\n\n\n/**\n * @title A contract for calling functions on the BondedDeposits contract.\n * @dev Any contract calling these functions should guard against reentrancy.\n */\ncontract UsingBondedDeposits is UsingRegistry {\n  /**\n   * @notice Returns whether or not an account's voting power is frozen.\n   * @param account The address of the account.\n   * @return Whether or not the account's voting power is frozen.\n   * @dev Frozen accounts can retract existing votes but not make future votes.\n   */\n  function isVotingFrozen(address account) internal view returns (bool) {\n    return getBondedDeposits().isVotingFrozen(account);\n  }\n\n  /**\n   * @notice Returns the account associated with the provided account or voting delegate.\n   * @param accountOrDelegate The address of the account or voting delegate.\n   * @dev Fails if the `accountOrDelegate` is a non-voting delegate.\n   * @return The associated account.\n   */\n  function getAccountFromVoter(address accountOrDelegate) internal view returns (address) {\n    return getBondedDeposits().getAccountFromDelegateAndRole(\n      accountOrDelegate,\n      IBondedDeposits.DelegateRole.Voting\n    );\n  }\n\n  /**\n   * @notice Returns the validator address for a particular account.\n   * @param account The account.\n   * @return The associated validator address.\n   */\n  function getValidatorFromAccount(address account) internal view returns (address) {\n    return getBondedDeposits().getDelegateFromAccountAndRole(\n      account,\n      IBondedDeposits.DelegateRole.Validating\n    );\n  }\n\n  /**\n   * @notice Returns the account associated with the provided account or validating delegate.\n   * @param accountOrDelegate The address of the account or validating delegate.\n   * @dev Fails if the `accountOrDelegate` is a non-validating delegate.\n   * @return The associated account.\n   */\n  function getAccountFromValidator(address accountOrDelegate) internal view returns (address) {\n    return getBondedDeposits().getAccountFromDelegateAndRole(\n      accountOrDelegate,\n      IBondedDeposits.DelegateRole.Validating\n    );\n  }\n\n  /**\n   * @notice Returns voting weight for a particular account.\n   * @param account The address of the account.\n   * @return The voting weight of `account`.\n   */\n  function getAccountWeight(address account) internal view returns (uint256) {\n    return getBondedDeposits().getAccountWeight(account);\n  }\n\n  /**\n   * @notice Returns the bonded deposit value for particular account and notice period.\n   * @param account The address of the account.\n   * @param noticePeriod The notice period of the bonded deposit.\n   * @return The value of the bonded deposit.\n   */\n  function getBondedDepositValue(\n    address account,\n    uint256 noticePeriod\n  )\n    internal\n    view\n    returns (uint256)\n  {\n    uint256 value;\n    (value,) = getBondedDeposits().getBondedDeposit(account, noticePeriod);\n    return value;\n  }\n\n  function getBondedDeposits() private view returns(IBondedDeposits) {\n    return IBondedDeposits(registry.getAddressForOrDie(BONDED_DEPOSITS_REGISTRY_ID));\n  }\n}\n",
  "sourcePath": "/Users/tim/Celo/celo-monorepo/packages/protocol/contracts/governance/UsingBondedDeposits.sol",
  "compiler": {
    "name": "solc",
    "version": "0.5.8+commit.23d335f2.Emscripten.clang"
  },
  "schemaVersion": "3.0.10",
  "updatedAt": "2019-08-15T18:14:37.286Z",
  "devdoc": {
    "details": "Any contract calling these functions should guard against reentrancy.",
    "methods": {
      "isOwner()": {
        "return": "true if `msg.sender` is the owner of the contract."
      },
      "owner()": {
        "return": "the address of the owner."
      },
      "renounceOwnership()": {
        "details": "Allows the current owner to relinquish control of the contract. It will not be possible to call the functions with the `onlyOwner` modifier anymore."
      },
      "setRegistry(address)": {
        "params": {
          "registryAddress": "The address of a registry contract for routing to other contracts."
        }
      },
      "transferOwnership(address)": {
        "details": "Allows the current owner to transfer control of the contract to a newOwner.",
        "params": {
          "newOwner": "The address to transfer ownership to."
        }
      }
    },
    "title": "A contract for calling functions on the BondedDeposits contract."
  },
  "userdoc": {
    "methods": {
      "renounceOwnership()": {
        "notice": "Renouncing ownership will leave the contract without an owner, thereby removing any functionality that is only available to the owner."
      },
      "setRegistry(address)": {
        "notice": "Updates the address pointing to a Registry contract."
      }
    }
  }
}