{
  "contractName": "ValidatorsTest",
  "abi": [
    {
      "constant": false,
      "inputs": [
        {
          "name": "validator",
          "type": "address"
        }
      ],
      "name": "removeMember",
      "outputs": [
        {
          "name": "",
          "type": "bool"
        }
      ],
      "payable": false,
      "stateMutability": "nonpayable",
      "type": "function"
    },
    {
      "constant": true,
      "inputs": [
        {
          "name": "account",
          "type": "address"
        }
      ],
      "name": "getMembershipInLastEpoch",
      "outputs": [
        {
          "name": "",
          "type": "address"
        }
      ],
      "payable": false,
      "stateMutability": "view",
      "type": "function"
    },
    {
      "constant": true,
      "inputs": [
        {
          "name": "index",
          "type": "uint256"
        }
      ],
      "name": "validatorSignerAddressFromCurrentSet",
      "outputs": [
        {
          "name": "",
          "type": "address"
        }
      ],
      "payable": false,
      "stateMutability": "view",
      "type": "function"
    },
    {
      "constant": true,
      "inputs": [],
      "name": "initialized",
      "outputs": [
        {
          "name": "",
          "type": "bool"
        }
      ],
      "payable": false,
      "stateMutability": "view",
      "type": "function"
    },
    {
      "constant": true,
      "inputs": [
        {
          "name": "account",
          "type": "address"
        }
      ],
      "name": "getValidator",
      "outputs": [
        {
          "name": "ecdsaPublicKey",
          "type": "bytes"
        },
        {
          "name": "blsPublicKey",
          "type": "bytes"
        },
        {
          "name": "affiliation",
          "type": "address"
        },
        {
          "name": "score",
          "type": "uint256"
        },
        {
          "name": "signer",
          "type": "address"
        }
      ],
      "payable": false,
      "stateMutability": "view",
      "type": "function"
    },
    {
      "constant": true,
      "inputs": [],
      "name": "getValidatorScoreParameters",
      "outputs": [
        {
          "name": "",
          "type": "uint256"
        },
        {
          "name": "",
          "type": "uint256"
        }
      ],
      "payable": false,
      "stateMutability": "view",
      "type": "function"
    },
    {
      "constant": true,
      "inputs": [
        {
          "name": "sender",
          "type": "address"
        },
        {
          "name": "blsKey",
          "type": "bytes"
        },
        {
          "name": "blsPop",
          "type": "bytes"
        }
      ],
      "name": "checkProofOfPossession",
      "outputs": [
        {
          "name": "",
          "type": "bool"
        }
      ],
      "payable": false,
      "stateMutability": "view",
      "type": "function"
    },
    {
      "constant": false,
      "inputs": [
        {
          "name": "validator",
          "type": "address"
        },
        {
          "name": "lesser",
          "type": "address"
        },
        {
          "name": "greater",
          "type": "address"
        }
      ],
      "name": "addFirstMember",
      "outputs": [
        {
          "name": "",
          "type": "bool"
        }
      ],
      "payable": false,
      "stateMutability": "nonpayable",
      "type": "function"
    },
    {
      "constant": true,
      "inputs": [
        {
          "name": "account",
          "type": "address"
        }
      ],
      "name": "getMembershipHistory",
      "outputs": [
        {
          "name": "",
          "type": "uint256[]"
        },
        {
          "name": "",
          "type": "address[]"
        },
        {
          "name": "",
          "type": "uint256"
        },
        {
          "name": "",
          "type": "uint256"
        }
      ],
      "payable": false,
      "stateMutability": "view",
      "type": "function"
    },
    {
      "constant": true,
      "inputs": [],
      "name": "slashingMultiplierResetPeriod",
      "outputs": [
        {
          "name": "",
          "type": "uint256"
        }
      ],
      "payable": false,
      "stateMutability": "view",
      "type": "function"
    },
    {
      "constant": true,
      "inputs": [
        {
          "name": "account",
          "type": "address"
        }
      ],
      "name": "getGroupNumMembers",
      "outputs": [
        {
          "name": "",
          "type": "uint256"
        }
      ],
      "payable": false,
      "stateMutability": "view",
      "type": "function"
    },
    {
      "constant": true,
      "inputs": [
        {
          "name": "blockNumber",
          "type": "uint256"
        }
      ],
      "name": "getEpochNumberOfBlock",
      "outputs": [
        {
          "name": "",
          "type": "uint256"
        }
      ],
      "payable": false,
      "stateMutability": "view",
      "type": "function"
    },
    {
      "constant": true,
      "inputs": [],
      "name": "getRegisteredValidatorGroups",
      "outputs": [
        {
          "name": "",
          "type": "address[]"
        }
      ],
      "payable": false,
      "stateMutability": "view",
      "type": "function"
    },
    {
      "constant": true,
      "inputs": [],
      "name": "getMaxGroupSize",
      "outputs": [
        {
          "name": "",
          "type": "uint256"
        }
      ],
      "payable": false,
      "stateMutability": "view",
      "type": "function"
    },
    {
      "constant": true,
      "inputs": [
        {
          "name": "header",
          "type": "bytes"
        }
      ],
      "name": "getVerifiedSealBitmapFromHeader",
      "outputs": [
        {
          "name": "",
          "type": "bytes32"
        }
      ],
      "payable": false,
      "stateMutability": "view",
      "type": "function"
    },
    {
      "constant": true,
      "inputs": [],
      "name": "membershipHistoryLength",
      "outputs": [
        {
          "name": "",
          "type": "uint256"
        }
      ],
      "payable": false,
      "stateMutability": "view",
      "type": "function"
    },
    {
      "constant": false,
      "inputs": [
        {
          "name": "account",
          "type": "address"
        },
        {
          "name": "signer",
          "type": "address"
        },
        {
          "name": "ecdsaPublicKey",
          "type": "bytes"
        }
      ],
      "name": "updateEcdsaPublicKey",
      "outputs": [
        {
          "name": "",
          "type": "bool"
        }
      ],
      "payable": false,
      "stateMutability": "nonpayable",
      "type": "function"
    },
    {
      "constant": true,
      "inputs": [],
      "name": "getNumRegisteredValidators",
      "outputs": [
        {
          "name": "",
          "type": "uint256"
        }
      ],
      "payable": false,
      "stateMutability": "view",
      "type": "function"
    },
    {
      "constant": true,
      "inputs": [
        {
          "name": "signer",
          "type": "address"
        }
      ],
      "name": "getMembershipInLastEpochFromSigner",
      "outputs": [
        {
          "name": "",
          "type": "address"
        }
      ],
      "payable": false,
      "stateMutability": "view",
      "type": "function"
    },
    {
      "constant": true,
      "inputs": [
        {
          "name": "account",
          "type": "address"
        }
      ],
      "name": "isValidatorGroup",
      "outputs": [
        {
          "name": "",
          "type": "bool"
        }
      ],
      "payable": false,
      "stateMutability": "view",
      "type": "function"
    },
    {
      "constant": true,
      "inputs": [],
      "name": "maxGroupSize",
      "outputs": [
        {
          "name": "",
          "type": "uint256"
        }
      ],
      "payable": false,
      "stateMutability": "view",
      "type": "function"
    },
    {
      "constant": false,
      "inputs": [
        {
          "name": "value",
          "type": "uint256"
        },
        {
          "name": "duration",
          "type": "uint256"
        }
      ],
      "name": "setGroupLockedGoldRequirements",
      "outputs": [
        {
          "name": "",
          "type": "bool"
        }
      ],
      "payable": false,
      "stateMutability": "nonpayable",
      "type": "function"
    },
    {
      "constant": true,
      "inputs": [
        {
          "name": "index",
          "type": "uint256"
        },
        {
          "name": "blockNumber",
          "type": "uint256"
        }
      ],
      "name": "validatorSignerAddressFromSet",
      "outputs": [
        {
          "name": "",
          "type": "address"
        }
      ],
      "payable": false,
      "stateMutability": "view",
      "type": "function"
    },
    {
      "constant": false,
      "inputs": [
        {
          "name": "index",
          "type": "uint256"
        }
      ],
      "name": "deregisterValidatorGroup",
      "outputs": [
        {
          "name": "",
          "type": "bool"
        }
      ],
      "payable": false,
      "stateMutability": "nonpayable",
      "type": "function"
    },
    {
      "constant": true,
      "inputs": [
        {
          "name": "header",
          "type": "bytes"
        }
      ],
      "name": "hashHeader",
      "outputs": [
        {
          "name": "",
          "type": "bytes32"
        }
      ],
      "payable": false,
      "stateMutability": "view",
      "type": "function"
    },
    {
      "constant": false,
      "inputs": [
        {
          "name": "value",
          "type": "uint256"
        }
      ],
      "name": "setSlashingMultiplierResetPeriod",
      "outputs": [],
      "payable": false,
      "stateMutability": "nonpayable",
      "type": "function"
    },
    {
      "constant": false,
      "inputs": [
        {
          "name": "delay",
          "type": "uint256"
        }
      ],
      "name": "setCommissionUpdateDelay",
      "outputs": [],
      "payable": false,
      "stateMutability": "nonpayable",
      "type": "function"
    },
    {
      "constant": true,
      "inputs": [],
      "name": "getGroupLockedGoldRequirements",
      "outputs": [
        {
          "name": "",
          "type": "uint256"
        },
        {
          "name": "",
          "type": "uint256"
        }
      ],
      "payable": false,
      "stateMutability": "view",
      "type": "function"
    },
    {
      "constant": true,
      "inputs": [
        {
          "name": "accounts",
          "type": "address[]"
        }
      ],
      "name": "getGroupsNumMembers",
      "outputs": [
        {
          "name": "",
          "type": "uint256[]"
        }
      ],
      "payable": false,
      "stateMutability": "view",
      "type": "function"
    },
    {
      "constant": false,
      "inputs": [
        {
          "name": "account",
          "type": "address"
        },
        {
          "name": "signer",
          "type": "address"
        },
        {
          "name": "ecdsaPublicKey",
          "type": "bytes"
        },
        {
          "name": "blsPublicKey",
          "type": "bytes"
        },
        {
          "name": "blsPop",
          "type": "bytes"
        }
      ],
      "name": "updatePublicKeys",
      "outputs": [
        {
          "name": "",
          "type": "bool"
        }
      ],
      "payable": false,
      "stateMutability": "nonpayable",
      "type": "function"
    },
    {
      "constant": false,
      "inputs": [],
      "name": "renounceOwnership",
      "outputs": [],
      "payable": false,
      "stateMutability": "nonpayable",
      "type": "function"
    },
    {
      "constant": true,
      "inputs": [],
      "name": "minQuorumSizeInCurrentSet",
      "outputs": [
        {
          "name": "",
          "type": "uint256"
        }
      ],
      "payable": false,
      "stateMutability": "view",
      "type": "function"
    },
    {
      "constant": false,
      "inputs": [
        {
          "name": "value",
          "type": "uint256"
        },
        {
          "name": "duration",
          "type": "uint256"
        }
      ],
      "name": "setValidatorLockedGoldRequirements",
      "outputs": [
        {
          "name": "",
          "type": "bool"
        }
      ],
      "payable": false,
      "stateMutability": "nonpayable",
      "type": "function"
    },
    {
      "constant": true,
      "inputs": [
        {
          "name": "uptimes",
          "type": "uint256[]"
        }
      ],
      "name": "calculateGroupEpochScore",
      "outputs": [
        {
          "name": "",
          "type": "uint256"
        }
      ],
      "payable": false,
      "stateMutability": "view",
      "type": "function"
    },
    {
      "constant": false,
      "inputs": [
        {
          "name": "registryAddress",
          "type": "address"
        },
        {
          "name": "groupRequirementValue",
          "type": "uint256"
        },
        {
          "name": "groupRequirementDuration",
          "type": "uint256"
        },
        {
          "name": "validatorRequirementValue",
          "type": "uint256"
        },
        {
          "name": "validatorRequirementDuration",
          "type": "uint256"
        },
        {
          "name": "validatorScoreExponent",
          "type": "uint256"
        },
        {
          "name": "validatorScoreAdjustmentSpeed",
          "type": "uint256"
        },
        {
          "name": "_membershipHistoryLength",
          "type": "uint256"
        },
        {
          "name": "_slashingMultiplierResetPeriod",
          "type": "uint256"
        },
        {
          "name": "_maxGroupSize",
          "type": "uint256"
        },
        {
          "name": "_commissionUpdateDelay",
          "type": "uint256"
        }
      ],
      "name": "initialize",
      "outputs": [],
      "payable": false,
      "stateMutability": "nonpayable",
      "type": "function"
    },
    {
      "constant": true,
      "inputs": [],
      "name": "registry",
      "outputs": [
        {
          "name": "",
          "type": "address"
        }
      ],
      "payable": false,
      "stateMutability": "view",
      "type": "function"
    },
    {
      "constant": false,
      "inputs": [
        {
          "name": "commission",
          "type": "uint256"
        }
      ],
      "name": "setNextCommissionUpdate",
      "outputs": [],
      "payable": false,
      "stateMutability": "nonpayable",
      "type": "function"
    },
    {
      "constant": true,
      "inputs": [],
      "name": "numberValidatorsInCurrentSet",
      "outputs": [
        {
          "name": "",
          "type": "uint256"
        }
      ],
      "payable": false,
      "stateMutability": "view",
      "type": "function"
    },
    {
      "constant": true,
      "inputs": [
        {
          "name": "header",
          "type": "bytes"
        }
      ],
      "name": "getBlockNumberFromHeader",
      "outputs": [
        {
          "name": "",
          "type": "uint256"
        }
      ],
      "payable": false,
      "stateMutability": "view",
      "type": "function"
    },
    {
      "constant": false,
      "inputs": [
        {
          "name": "index",
          "type": "uint256"
        }
      ],
      "name": "deregisterValidator",
      "outputs": [
        {
          "name": "",
          "type": "bool"
        }
      ],
      "payable": false,
      "stateMutability": "nonpayable",
      "type": "function"
    },
    {
      "constant": true,
      "inputs": [],
      "name": "owner",
      "outputs": [
        {
          "name": "",
          "type": "address"
        }
      ],
      "payable": false,
      "stateMutability": "view",
      "type": "function"
    },
    {
      "constant": true,
      "inputs": [
        {
          "name": "account",
          "type": "address"
        },
        {
          "name": "n",
          "type": "uint256"
        }
      ],
      "name": "getTopGroupValidators",
      "outputs": [
        {
          "name": "",
          "type": "address[]"
        }
      ],
      "payable": false,
      "stateMutability": "view",
      "type": "function"
    },
    {
      "constant": true,
      "inputs": [],
      "name": "isOwner",
      "outputs": [
        {
          "name": "",
          "type": "bool"
        }
      ],
      "payable": false,
      "stateMutability": "view",
      "type": "function"
    },
    {
      "constant": true,
      "inputs": [
        {
          "name": "uptime",
          "type": "uint256"
        }
      ],
      "name": "calculateEpochScore",
      "outputs": [
        {
          "name": "",
          "type": "uint256"
        }
      ],
      "payable": false,
      "stateMutability": "view",
      "type": "function"
    },
    {
      "constant": false,
      "inputs": [
        {
          "name": "validator",
          "type": "address"
        },
        {
          "name": "lesserMember",
          "type": "address"
        },
        {
          "name": "greaterMember",
          "type": "address"
        }
      ],
      "name": "reorderMember",
      "outputs": [
        {
          "name": "",
          "type": "bool"
        }
      ],
      "payable": false,
      "stateMutability": "nonpayable",
      "type": "function"
    },
    {
      "constant": true,
      "inputs": [],
      "name": "getEpochNumber",
      "outputs": [
        {
          "name": "",
          "type": "uint256"
        }
      ],
      "payable": false,
      "stateMutability": "view",
      "type": "function"
    },
    {
      "constant": true,
      "inputs": [
        {
          "name": "blockNumber",
          "type": "uint256"
        }
      ],
      "name": "numberValidatorsInSet",
      "outputs": [
        {
          "name": "",
          "type": "uint256"
        }
      ],
      "payable": false,
      "stateMutability": "view",
      "type": "function"
    },
    {
      "constant": true,
      "inputs": [
        {
          "name": "account",
          "type": "address"
        }
      ],
      "name": "getValidatorGroup",
      "outputs": [
        {
          "name": "",
          "type": "address[]"
        },
        {
          "name": "",
          "type": "uint256"
        },
        {
          "name": "",
          "type": "uint256"
        },
        {
          "name": "",
          "type": "uint256"
        },
        {
          "name": "",
          "type": "uint256[]"
        },
        {
          "name": "",
          "type": "uint256"
        },
        {
          "name": "",
          "type": "uint256"
        }
      ],
      "payable": false,
      "stateMutability": "view",
      "type": "function"
    },
    {
      "constant": false,
      "inputs": [
        {
          "name": "registryAddress",
          "type": "address"
        }
      ],
      "name": "setRegistry",
      "outputs": [],
      "payable": false,
      "stateMutability": "nonpayable",
      "type": "function"
    },
    {
      "constant": false,
      "inputs": [
        {
          "name": "group",
          "type": "address"
        }
      ],
      "name": "affiliate",
      "outputs": [
        {
          "name": "",
          "type": "bool"
        }
      ],
      "payable": false,
      "stateMutability": "nonpayable",
      "type": "function"
    },
    {
      "constant": true,
      "inputs": [
        {
          "name": "signer",
          "type": "address"
        }
      ],
      "name": "getValidatorBlsPublicKeyFromSigner",
      "outputs": [
        {
          "name": "blsPublicKey",
          "type": "bytes"
        }
      ],
      "payable": false,
      "stateMutability": "view",
      "type": "function"
    },
    {
      "constant": false,
      "inputs": [],
      "name": "resetSlashingMultiplier",
      "outputs": [],
      "payable": false,
      "stateMutability": "nonpayable",
      "type": "function"
    },
    {
      "constant": true,
      "inputs": [],
      "name": "getCommissionUpdateDelay",
      "outputs": [
        {
          "name": "",
          "type": "uint256"
        }
      ],
      "payable": false,
      "stateMutability": "view",
      "type": "function"
    },
    {
      "constant": true,
      "inputs": [],
      "name": "validatorLockedGoldRequirements",
      "outputs": [
        {
          "name": "value",
          "type": "uint256"
        },
        {
          "name": "duration",
          "type": "uint256"
        }
      ],
      "payable": false,
      "stateMutability": "view",
      "type": "function"
    },
    {
      "constant": false,
      "inputs": [
        {
          "name": "blsPublicKey",
          "type": "bytes"
        },
        {
          "name": "blsPop",
          "type": "bytes"
        }
      ],
      "name": "updateBlsPublicKey",
      "outputs": [
        {
          "name": "",
          "type": "bool"
        }
      ],
      "payable": false,
      "stateMutability": "nonpayable",
      "type": "function"
    },
    {
      "constant": true,
      "inputs": [],
      "name": "getValidatorLockedGoldRequirements",
      "outputs": [
        {
          "name": "",
          "type": "uint256"
        },
        {
          "name": "",
          "type": "uint256"
        }
      ],
      "payable": false,
      "stateMutability": "view",
      "type": "function"
    },
    {
      "constant": false,
      "inputs": [
        {
          "name": "account",
          "type": "address"
        }
      ],
      "name": "halveSlashingMultiplier",
      "outputs": [],
      "payable": false,
      "stateMutability": "nonpayable",
      "type": "function"
    },
    {
      "constant": true,
      "inputs": [
        {
          "name": "account",
          "type": "address"
        }
      ],
      "name": "meetsAccountLockedGoldRequirements",
      "outputs": [
        {
          "name": "",
          "type": "bool"
        }
      ],
      "payable": false,
      "stateMutability": "view",
      "type": "function"
    },
    {
      "constant": true,
      "inputs": [],
      "name": "groupLockedGoldRequirements",
      "outputs": [
        {
          "name": "value",
          "type": "uint256"
        },
        {
          "name": "duration",
          "type": "uint256"
        }
      ],
      "payable": false,
      "stateMutability": "view",
      "type": "function"
    },
    {
      "constant": false,
      "inputs": [
        {
          "name": "validator",
          "type": "address"
        }
      ],
      "name": "addMember",
      "outputs": [
        {
          "name": "",
          "type": "bool"
        }
      ],
      "payable": false,
      "stateMutability": "nonpayable",
      "type": "function"
    },
    {
      "constant": false,
      "inputs": [
        {
          "name": "exponent",
          "type": "uint256"
        },
        {
          "name": "adjustmentSpeed",
          "type": "uint256"
        }
      ],
      "name": "setValidatorScoreParameters",
      "outputs": [
        {
          "name": "",
          "type": "bool"
        }
      ],
      "payable": false,
      "stateMutability": "nonpayable",
      "type": "function"
    },
    {
      "constant": true,
      "inputs": [],
      "name": "getRegisteredValidatorSigners",
      "outputs": [
        {
          "name": "",
          "type": "address[]"
        }
      ],
      "payable": false,
      "stateMutability": "view",
      "type": "function"
    },
    {
      "constant": true,
      "inputs": [],
      "name": "getRegisteredValidators",
      "outputs": [
        {
          "name": "",
          "type": "address[]"
        }
      ],
      "payable": false,
      "stateMutability": "view",
      "type": "function"
    },
    {
      "constant": true,
      "inputs": [
        {
          "name": "account",
          "type": "address"
        }
      ],
      "name": "getValidatorGroupSlashingMultiplier",
      "outputs": [
        {
          "name": "",
          "type": "uint256"
        }
      ],
      "payable": false,
      "stateMutability": "view",
      "type": "function"
    },
    {
      "constant": true,
      "inputs": [
        {
          "name": "account",
          "type": "address"
        }
      ],
      "name": "getAccountLockedGoldRequirement",
      "outputs": [
        {
          "name": "",
          "type": "uint256"
        }
      ],
      "payable": false,
      "stateMutability": "view",
      "type": "function"
    },
    {
      "constant": true,
      "inputs": [],
      "name": "getEpochSize",
      "outputs": [
        {
          "name": "",
          "type": "uint256"
        }
      ],
      "payable": false,
      "stateMutability": "view",
      "type": "function"
    },
    {
      "constant": true,
      "inputs": [],
      "name": "commissionUpdateDelay",
      "outputs": [
        {
          "name": "",
          "type": "uint256"
        }
      ],
      "payable": false,
      "stateMutability": "view",
      "type": "function"
    },
    {
      "constant": false,
      "inputs": [
        {
          "name": "size",
          "type": "uint256"
        }
      ],
      "name": "setMaxGroupSize",
      "outputs": [
        {
          "name": "",
          "type": "bool"
        }
      ],
      "payable": false,
      "stateMutability": "nonpayable",
      "type": "function"
    },
    {
      "constant": false,
      "inputs": [
        {
          "name": "validatorAccount",
          "type": "address"
        }
      ],
      "name": "forceDeaffiliateIfValidator",
      "outputs": [],
      "payable": false,
      "stateMutability": "nonpayable",
      "type": "function"
    },
    {
      "constant": true,
      "inputs": [
        {
          "name": "blockNumber",
          "type": "uint256"
        }
      ],
      "name": "minQuorumSize",
      "outputs": [
        {
          "name": "",
          "type": "uint256"
        }
      ],
      "payable": false,
      "stateMutability": "view",
      "type": "function"
    },
    {
      "constant": false,
      "inputs": [],
      "name": "updateCommission",
      "outputs": [],
      "payable": false,
      "stateMutability": "nonpayable",
      "type": "function"
    },
    {
      "constant": false,
      "inputs": [
        {
          "name": "ecdsaPublicKey",
          "type": "bytes"
        },
        {
          "name": "blsPublicKey",
          "type": "bytes"
        },
        {
          "name": "blsPop",
          "type": "bytes"
        }
      ],
      "name": "registerValidator",
      "outputs": [
        {
          "name": "",
          "type": "bool"
        }
      ],
      "payable": false,
      "stateMutability": "nonpayable",
      "type": "function"
    },
    {
      "constant": true,
      "inputs": [
        {
          "name": "account",
          "type": "address"
        },
        {
          "name": "epochNumber",
          "type": "uint256"
        },
        {
          "name": "index",
          "type": "uint256"
        }
      ],
      "name": "groupMembershipInEpoch",
      "outputs": [
        {
          "name": "",
          "type": "address"
        }
      ],
      "payable": false,
      "stateMutability": "view",
      "type": "function"
    },
    {
      "constant": true,
      "inputs": [
        {
          "name": "aNumerator",
          "type": "uint256"
        },
        {
          "name": "aDenominator",
          "type": "uint256"
        },
        {
          "name": "bNumerator",
          "type": "uint256"
        },
        {
          "name": "bDenominator",
          "type": "uint256"
        },
        {
          "name": "exponent",
          "type": "uint256"
        },
        {
          "name": "_decimals",
          "type": "uint256"
        }
      ],
      "name": "fractionMulExp",
      "outputs": [
        {
          "name": "",
          "type": "uint256"
        },
        {
          "name": "",
          "type": "uint256"
        }
      ],
      "payable": false,
      "stateMutability": "view",
      "type": "function"
    },
    {
      "constant": false,
      "inputs": [
        {
          "name": "commission",
          "type": "uint256"
        }
      ],
      "name": "registerValidatorGroup",
      "outputs": [
        {
          "name": "",
          "type": "bool"
        }
      ],
      "payable": false,
      "stateMutability": "nonpayable",
      "type": "function"
    },
    {
      "constant": false,
      "inputs": [
        {
          "name": "length",
          "type": "uint256"
        }
      ],
      "name": "setMembershipHistoryLength",
      "outputs": [
        {
          "name": "",
          "type": "bool"
        }
      ],
      "payable": false,
      "stateMutability": "nonpayable",
      "type": "function"
    },
    {
      "constant": false,
      "inputs": [
        {
          "name": "newOwner",
          "type": "address"
        }
      ],
      "name": "transferOwnership",
      "outputs": [],
      "payable": false,
      "stateMutability": "nonpayable",
      "type": "function"
    },
    {
      "constant": true,
      "inputs": [
        {
          "name": "account",
          "type": "address"
        }
      ],
      "name": "isValidator",
      "outputs": [
        {
          "name": "",
          "type": "bool"
        }
      ],
      "payable": false,
      "stateMutability": "view",
      "type": "function"
    },
    {
      "constant": true,
      "inputs": [
        {
          "name": "blockNumber",
          "type": "uint256"
        }
      ],
      "name": "getParentSealBitmap",
      "outputs": [
        {
          "name": "",
          "type": "bytes32"
        }
      ],
      "payable": false,
      "stateMutability": "view",
      "type": "function"
    },
    {
      "constant": false,
      "inputs": [],
      "name": "deaffiliate",
      "outputs": [
        {
          "name": "",
          "type": "bool"
        }
      ],
      "payable": false,
      "stateMutability": "nonpayable",
      "type": "function"
    },
    {
      "anonymous": false,
      "inputs": [
        {
          "indexed": false,
          "name": "size",
          "type": "uint256"
        }
      ],
      "name": "MaxGroupSizeSet",
      "type": "event"
    },
    {
      "anonymous": false,
      "inputs": [
        {
          "indexed": false,
          "name": "delay",
          "type": "uint256"
        }
      ],
      "name": "CommissionUpdateDelaySet",
      "type": "event"
    },
    {
      "anonymous": false,
      "inputs": [
        {
          "indexed": false,
          "name": "exponent",
          "type": "uint256"
        },
        {
          "indexed": false,
          "name": "adjustmentSpeed",
          "type": "uint256"
        }
      ],
      "name": "ValidatorScoreParametersSet",
      "type": "event"
    },
    {
      "anonymous": false,
      "inputs": [
        {
          "indexed": false,
          "name": "value",
          "type": "uint256"
        },
        {
          "indexed": false,
          "name": "duration",
          "type": "uint256"
        }
      ],
      "name": "GroupLockedGoldRequirementsSet",
      "type": "event"
    },
    {
      "anonymous": false,
      "inputs": [
        {
          "indexed": false,
          "name": "value",
          "type": "uint256"
        },
        {
          "indexed": false,
          "name": "duration",
          "type": "uint256"
        }
      ],
      "name": "ValidatorLockedGoldRequirementsSet",
      "type": "event"
    },
    {
      "anonymous": false,
      "inputs": [
        {
          "indexed": false,
          "name": "length",
          "type": "uint256"
        }
      ],
      "name": "MembershipHistoryLengthSet",
      "type": "event"
    },
    {
      "anonymous": false,
      "inputs": [
        {
          "indexed": true,
          "name": "validator",
          "type": "address"
        }
      ],
      "name": "ValidatorRegistered",
      "type": "event"
    },
    {
      "anonymous": false,
      "inputs": [
        {
          "indexed": true,
          "name": "validator",
          "type": "address"
        }
      ],
      "name": "ValidatorDeregistered",
      "type": "event"
    },
    {
      "anonymous": false,
      "inputs": [
        {
          "indexed": true,
          "name": "validator",
          "type": "address"
        },
        {
          "indexed": true,
          "name": "group",
          "type": "address"
        }
      ],
      "name": "ValidatorAffiliated",
      "type": "event"
    },
    {
      "anonymous": false,
      "inputs": [
        {
          "indexed": true,
          "name": "validator",
          "type": "address"
        },
        {
          "indexed": true,
          "name": "group",
          "type": "address"
        }
      ],
      "name": "ValidatorDeaffiliated",
      "type": "event"
    },
    {
      "anonymous": false,
      "inputs": [
        {
          "indexed": true,
          "name": "validator",
          "type": "address"
        },
        {
          "indexed": false,
          "name": "ecdsaPublicKey",
          "type": "bytes"
        }
      ],
      "name": "ValidatorEcdsaPublicKeyUpdated",
      "type": "event"
    },
    {
      "anonymous": false,
      "inputs": [
        {
          "indexed": true,
          "name": "validator",
          "type": "address"
        },
        {
          "indexed": false,
          "name": "blsPublicKey",
          "type": "bytes"
        }
      ],
      "name": "ValidatorBlsPublicKeyUpdated",
      "type": "event"
    },
    {
      "anonymous": false,
      "inputs": [
        {
          "indexed": true,
          "name": "validator",
          "type": "address"
        },
        {
          "indexed": false,
          "name": "score",
          "type": "uint256"
        },
        {
          "indexed": false,
          "name": "epochScore",
          "type": "uint256"
        }
      ],
      "name": "ValidatorScoreUpdated",
      "type": "event"
    },
    {
      "anonymous": false,
      "inputs": [
        {
          "indexed": true,
          "name": "group",
          "type": "address"
        },
        {
          "indexed": false,
          "name": "commission",
          "type": "uint256"
        }
      ],
      "name": "ValidatorGroupRegistered",
      "type": "event"
    },
    {
      "anonymous": false,
      "inputs": [
        {
          "indexed": true,
          "name": "group",
          "type": "address"
        }
      ],
      "name": "ValidatorGroupDeregistered",
      "type": "event"
    },
    {
      "anonymous": false,
      "inputs": [
        {
          "indexed": true,
          "name": "group",
          "type": "address"
        },
        {
          "indexed": true,
          "name": "validator",
          "type": "address"
        }
      ],
      "name": "ValidatorGroupMemberAdded",
      "type": "event"
    },
    {
      "anonymous": false,
      "inputs": [
        {
          "indexed": true,
          "name": "group",
          "type": "address"
        },
        {
          "indexed": true,
          "name": "validator",
          "type": "address"
        }
      ],
      "name": "ValidatorGroupMemberRemoved",
      "type": "event"
    },
    {
      "anonymous": false,
      "inputs": [
        {
          "indexed": true,
          "name": "group",
          "type": "address"
        },
        {
          "indexed": true,
          "name": "validator",
          "type": "address"
        }
      ],
      "name": "ValidatorGroupMemberReordered",
      "type": "event"
    },
    {
      "anonymous": false,
      "inputs": [
        {
          "indexed": true,
          "name": "group",
          "type": "address"
        },
        {
          "indexed": false,
          "name": "commission",
          "type": "uint256"
        },
        {
          "indexed": false,
          "name": "activationBlock",
          "type": "uint256"
        }
      ],
      "name": "ValidatorGroupCommissionUpdateQueued",
      "type": "event"
    },
    {
      "anonymous": false,
      "inputs": [
        {
          "indexed": true,
          "name": "group",
          "type": "address"
        },
        {
          "indexed": false,
          "name": "commission",
          "type": "uint256"
        }
      ],
      "name": "ValidatorGroupCommissionUpdated",
      "type": "event"
    },
    {
      "anonymous": false,
      "inputs": [
        {
          "indexed": true,
          "name": "validator",
          "type": "address"
        },
        {
          "indexed": false,
          "name": "validatorPayment",
          "type": "uint256"
        },
        {
          "indexed": true,
          "name": "group",
          "type": "address"
        },
        {
          "indexed": false,
          "name": "groupPayment",
          "type": "uint256"
        }
      ],
      "name": "ValidatorEpochPaymentDistributed",
      "type": "event"
    },
    {
      "anonymous": false,
      "inputs": [
        {
          "indexed": true,
          "name": "registryAddress",
          "type": "address"
        }
      ],
      "name": "RegistrySet",
      "type": "event"
    },
    {
      "anonymous": false,
      "inputs": [
        {
          "indexed": true,
          "name": "previousOwner",
          "type": "address"
        },
        {
          "indexed": true,
          "name": "newOwner",
          "type": "address"
        }
      ],
      "name": "OwnershipTransferred",
      "type": "event"
    },
    {
      "constant": false,
      "inputs": [
        {
          "name": "signer",
          "type": "address"
        },
        {
          "name": "uptime",
          "type": "uint256"
        }
      ],
      "name": "updateValidatorScoreFromSigner",
      "outputs": [],
      "payable": false,
      "stateMutability": "nonpayable",
      "type": "function"
    },
    {
      "constant": false,
      "inputs": [
        {
          "name": "signer",
          "type": "address"
        },
        {
          "name": "maxPayment",
          "type": "uint256"
        }
      ],
      "name": "distributeEpochPaymentsFromSigner",
      "outputs": [
        {
          "name": "",
          "type": "uint256"
        }
      ],
      "payable": false,
      "stateMutability": "nonpayable",
      "type": "function"
    }
  ],
  "bytecode": "0x6080604052600062000016620000c160201b60201c565b9050806000806101000a81548173ffffffffffffffffffffffffffffffffffffffff021916908373ffffffffffffffffffffffffffffffffffffffff1602179055508073ffffffffffffffffffffffffffffffffffffffff16600073ffffffffffffffffffffffffffffffffffffffff167f8be0079c531659141344cd1fd0a4f28419497f9722a3daafe3b4186f6b6457e060405160405180910390a35060018081905550620000c9565b600033905090565b61ddf480620000d96000396000f3fe608060405234801561001057600080fd5b50600436106104965760003560e01c80638dd31e3911610262578063cb8f98e011610151578063e50e652d116100ce578063ee09831011610092578063ee098310146123df578063eff2ea3f14612425578063f2fde38b1461246b578063facd743b146124af578063fae8db0a1461250b578063fffdfccb1461254d57610496565b8063e50e652d14612145578063e7f0376614612187578063ea684f7714612191578063eb1d0b42146122cc578063ec6830721461236457610496565b8063dcff4cf611610115578063dcff4cf614612027578063df4da4611461207f578063e0e3ffe61461209d578063e1497ff7146120bb578063e33301aa1461210157610496565b8063cb8f98e014611e5f578063d55dcbcf14611eaf578063d69ef6cf14611f0e578063d93ab5ad14611f70578063dba94fcd14611fcf57610496565b8063b8f93943116101df578063c10c96ef116101a3578063c10c96ef14611d19578063c22d3bba14611d3e578063c54c1cd414611d82578063c580514014611dde578063ca6d56dc14611e0357610496565b8063b8f9394314611b98578063b915f53014611ba2578063bd9e9d9414611bc0578063bfdb741714611be5578063c0c6ad6f14611ccb57610496565b80639b2b592f116102265780639b2b592f146118f55780639b9d516114611937578063a91ee0dc14611a3b578063b591d3a514611a7f578063b730a29914611adb57610496565b80638dd31e39146117345780638f32d59b146117d757806394903a97146117f9578063988dcd1f1461183b5780639a7b3be7146118d757610496565b80635779e93d11610389578063715018a6116103065780637b103999116102ca5780637b1039991461153f57806386d81a5a1461158957806387ee8a0f146115b75780638a883626146115d55780638b16b1c6146116a45780638da5cb5b146116ea57610496565b8063715018a6146113915780637385e5da1461139b57806376c0a9ed146113b957806376f7425d1461140957806378d254561461149657610496565b80636ab951a01161034d5780636ab951a0146110c75780636c620d90146110f55780636fa47647146111235780637044775414611148578063713ea0f31461121657610496565b80635779e93d14610ecc5780635a61d15b14610eea5780635d180adb14610f3a57806360fb822c14610fb257806367960e9114610ff857610496565b806339e618e8116104175780634cd76db4116103db5780634cd76db414610cdf5780634e06fd8a14610cfd578063517f6d3314610dce57806351b5222514610dec57806352f13a4e14610e7057610496565b806339e618e814610af95780633b1eb4bf14610b515780633f27089814610b9357806343d9669914610bf25780634b2c2f4414610c1057610496565b806319113e3b1161045e57806319113e3b146107a157806323f0ab65146107c65780633173b8db1461095057806335244f51146109ec57806336407b7014610adb57610496565b80630b1ca49a1461049b5780630d1312b8146104f7578063123633ea1461057b578063158ef93e146105e95780631904bb2e1461060b575b600080fd5b6104dd600480360360208110156104b157600080fd5b81019080803573ffffffffffffffffffffffffffffffffffffffff16906020019092919050505061256f565b604051808215151515815260200191505060405180910390f35b6105396004803603602081101561050d57600080fd5b81019080803573ffffffffffffffffffffffffffffffffffffffff169060200190929190505050612761565b604051808273ffffffffffffffffffffffffffffffffffffffff1673ffffffffffffffffffffffffffffffffffffffff16815260200191505060405180910390f35b6105a76004803603602081101561059157600080fd5b8101908080359060200190929190505050612880565b604051808273ffffffffffffffffffffffffffffffffffffffff1673ffffffffffffffffffffffffffffffffffffffff16815260200191505060405180910390f35b6105f16129d1565b604051808215151515815260200191505060405180910390f35b61064d6004803603602081101561062157600080fd5b81019080803573ffffffffffffffffffffffffffffffffffffffff1690602001909291905050506129e4565b6040518080602001806020018673ffffffffffffffffffffffffffffffffffffffff1673ffffffffffffffffffffffffffffffffffffffff1681526020018581526020018473ffffffffffffffffffffffffffffffffffffffff1673ffffffffffffffffffffffffffffffffffffffff168152602001838103835288818151815260200191508051906020019080838360005b838110156106fb5780820151818401526020810190506106e0565b50505050905090810190601f1680156107285780820380516001836020036101000a031916815260200191505b50838103825287818151815260200191508051906020019080838360005b83811015610761578082015181840152602081019050610746565b50505050905090810190601f16801561078e5780820380516001836020036101000a031916815260200191505b5097505050505050505060405180910390f35b6107a9612d09565b604051808381526020018281526020019250505060405180910390f35b610936600480360360608110156107dc57600080fd5b81019080803573ffffffffffffffffffffffffffffffffffffffff1690602001909291908035906020019064010000000081111561081957600080fd5b82018360208201111561082b57600080fd5b8035906020019184600183028401116401000000008311171561084d57600080fd5b91908080601f016020809104026020016040519081016040528093929190818152602001838380828437600081840152601f19601f820116905080830192505050505050509192919290803590602001906401000000008111156108b057600080fd5b8201836020820111156108c257600080fd5b803590602001918460018302840111640100000000831117156108e457600080fd5b91908080601f016020809104026020016040519081016040528093929190818152602001838380828437600081840152601f19601f820116905080830192505050505050509192919290505050612d3c565b604051808215151515815260200191505060405180910390f35b6109d26004803603606081101561096657600080fd5b81019080803573ffffffffffffffffffffffffffffffffffffffff169060200190929190803573ffffffffffffffffffffffffffffffffffffffff169060200190929190803573ffffffffffffffffffffffffffffffffffffffff169060200190929190505050612ef5565b604051808215151515815260200191505060405180910390f35b610a2e60048036036020811015610a0257600080fd5b81019080803573ffffffffffffffffffffffffffffffffffffffff16906020019092919050505061311a565b604051808060200180602001858152602001848152602001838103835287818151815260200191508051906020019060200280838360005b83811015610a81578082015181840152602081019050610a66565b50505050905001838103825286818151815260200191508051906020019060200280838360005b83811015610ac3578082015181840152602081019050610aa8565b50505050905001965050505050505060405180910390f35b610ae36132ee565b6040518082815260200191505060405180910390f35b610b3b60048036036020811015610b0f57600080fd5b81019080803573ffffffffffffffffffffffffffffffffffffffff1690602001909291905050506132f4565b6040518082815260200191505060405180910390f35b610b7d60048036036020811015610b6757600080fd5b81019080803590602001909291905050506133be565b6040518082815260200191505060405180910390f35b610b9b6133d8565b6040518080602001828103825283818151815260200191508051906020019060200280838360005b83811015610bde578082015181840152602081019050610bc3565b505050509050019250505060405180910390f35b610bfa613466565b6040518082815260200191505060405180910390f35b610cc960048036036020811015610c2657600080fd5b8101908080359060200190640100000000811115610c4357600080fd5b820183602082011115610c5557600080fd5b80359060200191846001830284011164010000000083111715610c7757600080fd5b91908080601f016020809104026020016040519081016040528093929190818152602001838380828437600081840152601f19601f820116905080830192505050505050509192919290505050613470565b6040518082815260200191505060405180910390f35b610ce7613604565b6040518082815260200191505060405180910390f35b610db460048036036060811015610d1357600080fd5b81019080803573ffffffffffffffffffffffffffffffffffffffff169060200190929190803573ffffffffffffffffffffffffffffffffffffffff16906020019092919080359060200190640100000000811115610d7057600080fd5b820183602082011115610d8257600080fd5b80359060200191846001830284011164010000000083111715610da457600080fd5b909192939192939050505061360a565b604051808215151515815260200191505060405180910390f35b610dd661392f565b6040518082815260200191505060405180910390f35b610e2e60048036036020811015610e0257600080fd5b81019080803573ffffffffffffffffffffffffffffffffffffffff16906020019092919050505061393c565b604051808273ffffffffffffffffffffffffffffffffffffffff1673ffffffffffffffffffffffffffffffffffffffff16815260200191505060405180910390f35b610eb260048036036020811015610e8657600080fd5b81019080803573ffffffffffffffffffffffffffffffffffffffff169060200190929190505050613a8c565b604051808215151515815260200191505060405180910390f35b610ed4613ae5565b6040518082815260200191505060405180910390f35b610f2060048036036040811015610f0057600080fd5b810190808035906020019092919080359060200190929190505050613aeb565b604051808215151515815260200191505060405180910390f35b610f7060048036036040811015610f5057600080fd5b810190808035906020019092919080359060200190929190505050613c6e565b604051808273ffffffffffffffffffffffffffffffffffffffff1673ffffffffffffffffffffffffffffffffffffffff16815260200191505060405180910390f35b610fde60048036036020811015610fc857600080fd5b8101908080359060200190929190505050613dc0565b604051808215151515815260200191505060405180910390f35b6110b16004803603602081101561100e57600080fd5b810190808035906020019064010000000081111561102b57600080fd5b82018360208201111561103d57600080fd5b8035906020019184600183028401116401000000008311171561105f57600080fd5b91908080601f016020809104026020016040519081016040528093929190818152602001838380828437600081840152601f19601f820116905080830192505050505050509192919290505050614247565b6040518082815260200191505060405180910390f35b6110f3600480360360208110156110dd57600080fd5b81019080803590602001909291905050506143db565b005b6111216004803603602081101561110b57600080fd5b81019080803590602001909291905050506144ee565b005b61112b614604565b604051808381526020018281526020019250505060405180910390f35b6111bf6004803603602081101561115e57600080fd5b810190808035906020019064010000000081111561117b57600080fd5b82018360208201111561118d57600080fd5b803590602001918460208302840111640100000000831117156111af57600080fd5b909192939192939050505061461b565b6040518080602001828103825283818151815260200191508051906020019060200280838360005b838110156112025780820151818401526020810190506111e7565b505050509050019250505060405180910390f35b611377600480360360a081101561122c57600080fd5b81019080803573ffffffffffffffffffffffffffffffffffffffff169060200190929190803573ffffffffffffffffffffffffffffffffffffffff1690602001909291908035906020019064010000000081111561128957600080fd5b82018360208201111561129b57600080fd5b803590602001918460018302840111640100000000831117156112bd57600080fd5b9091929391929390803590602001906401000000008111156112de57600080fd5b8201836020820111156112f057600080fd5b8035906020019184600183028401116401000000008311171561131257600080fd5b90919293919293908035906020019064010000000081111561133357600080fd5b82018360208201111561134557600080fd5b8035906020019184600183028401116401000000008311171561136757600080fd5b90919293919293905050506146d3565b604051808215151515815260200191505060405180910390f35b611399614b02565b005b6113a3614c3b565b6040518082815260200191505060405180910390f35b6113ef600480360360408110156113cf57600080fd5b810190808035906020019092919080359060200190929190505050614c4b565b604051808215151515815260200191505060405180910390f35b6114806004803603602081101561141f57600080fd5b810190808035906020019064010000000081111561143c57600080fd5b82018360208201111561144e57600080fd5b8035906020019184602083028401116401000000008311171561147057600080fd5b9091929391929390505050614db1565b6040518082815260200191505060405180910390f35b61153d60048036036101608110156114ad57600080fd5b81019080803573ffffffffffffffffffffffffffffffffffffffff16906020019092919080359060200190929190803590602001909291908035906020019092919080359060200190929190803590602001909291908035906020019092919080359060200190929190803590602001909291908035906020019092919080359060200190929190505050614f24565b005b611547615028565b604051808273ffffffffffffffffffffffffffffffffffffffff1673ffffffffffffffffffffffffffffffffffffffff16815260200191505060405180910390f35b6115b56004803603602081101561159f57600080fd5b810190808035906020019092919050505061504e565b005b6115bf615363565b6040518082815260200191505060405180910390f35b61168e600480360360208110156115eb57600080fd5b810190808035906020019064010000000081111561160857600080fd5b82018360208201111561161a57600080fd5b8035906020019184600183028401116401000000008311171561163c57600080fd5b91908080601f016020809104026020016040519081016040528093929190818152602001838380828437600081840152601f19601f8201169050808301925050505050505091929192905050506154aa565b6040518082815260200191505060405180910390f35b6116d0600480360360208110156116ba57600080fd5b810190808035906020019092919050505061563e565b604051808215151515815260200191505060405180910390f35b6116f2615bf2565b604051808273ffffffffffffffffffffffffffffffffffffffff1673ffffffffffffffffffffffffffffffffffffffff16815260200191505060405180910390f35b6117806004803603604081101561174a57600080fd5b81019080803573ffffffffffffffffffffffffffffffffffffffff16906020019092919080359060200190929190505050615c1b565b6040518080602001828103825283818151815260200191508051906020019060200280838360005b838110156117c35780820151818401526020810190506117a8565b505050509050019250505060405180910390f35b6117df615ecc565b604051808215151515815260200191505060405180910390f35b6118256004803603602081101561180f57600080fd5b8101908080359060200190929190505050615f2a565b6040518082815260200191505060405180910390f35b6118bd6004803603606081101561185157600080fd5b81019080803573ffffffffffffffffffffffffffffffffffffffff169060200190929190803573ffffffffffffffffffffffffffffffffffffffff169060200190929190803573ffffffffffffffffffffffffffffffffffffffff169060200190929190505050616018565b604051808215151515815260200191505060405180910390f35b6118df616549565b6040518082815260200191505060405180910390f35b6119216004803603602081101561190b57600080fd5b8101908080359060200190929190505050616559565b6040518082815260200191505060405180910390f35b6119796004803603602081101561194d57600080fd5b81019080803573ffffffffffffffffffffffffffffffffffffffff1690602001909291905050506166a2565b60405180806020018881526020018781526020018681526020018060200185815260200184815260200183810383528a818151815260200191508051906020019060200280838360005b838110156119de5780820151818401526020810190506119c3565b50505050905001838103825286818151815260200191508051906020019060200280838360005b83811015611a20578082015181840152602081019050611a05565b50505050905001995050505050505050505060405180910390f35b611a7d60048036036020811015611a5157600080fd5b81019080803573ffffffffffffffffffffffffffffffffffffffff169060200190929190505050616934565b005b611ac160048036036020811015611a9557600080fd5b81019080803573ffffffffffffffffffffffffffffffffffffffff169060200190929190505050616ad8565b604051808215151515815260200191505060405180910390f35b611b1d60048036036020811015611af157600080fd5b81019080803573ffffffffffffffffffffffffffffffffffffffff169060200190929190505050616f4a565b6040518080602001828103825283818151815260200191508051906020019080838360005b83811015611b5d578082015181840152602081019050611b42565b50505050905090810190601f168015611b8a5780820380516001836020036101000a031916815260200191505b509250505060405180910390f35b611ba0617170565b005b611baa617414565b6040518082815260200191505060405180910390f35b611bc861741e565b604051808381526020018281526020019250505060405180910390f35b611cb160048036036040811015611bfb57600080fd5b8101908080359060200190640100000000811115611c1857600080fd5b820183602082011115611c2a57600080fd5b80359060200191846001830284011164010000000083111715611c4c57600080fd5b909192939192939080359060200190640100000000811115611c6d57600080fd5b820183602082011115611c7f57600080fd5b80359060200191846001830284011164010000000083111715611ca157600080fd5b9091929391929390505050617430565b604051808215151515815260200191505060405180910390f35b611d1760048036036040811015611ce157600080fd5b81019080803573ffffffffffffffffffffffffffffffffffffffff169060200190929190803590602001909291905050506176c6565b005b611d216176d4565b604051808381526020018281526020019250505060405180910390f35b611d8060048036036020811015611d5457600080fd5b81019080803573ffffffffffffffffffffffffffffffffffffffff1690602001909291905050506176eb565b005b611dc460048036036020811015611d9857600080fd5b81019080803573ffffffffffffffffffffffffffffffffffffffff1690602001909291905050506179cc565b604051808215151515815260200191505060405180910390f35b611de6617aa4565b604051808381526020018281526020019250505060405180910390f35b611e4560048036036020811015611e1957600080fd5b81019080803573ffffffffffffffffffffffffffffffffffffffff169060200190929190505050617ab6565b604051808215151515815260200191505060405180910390f35b611e9560048036036040811015611e7557600080fd5b810190808035906020019092919080359060200190929190505050617cda565b604051808215151515815260200191505060405180910390f35b611eb7617ee2565b6040518080602001828103825283818151815260200191508051906020019060200280838360005b83811015611efa578082015181840152602081019050611edf565b505050509050019250505060405180910390f35b611f5a60048036036040811015611f2457600080fd5b81019080803573ffffffffffffffffffffffffffffffffffffffff16906020019092919080359060200190929190505050618091565b6040518082815260200191505060405180910390f35b611f786180a5565b6040518080602001828103825283818151815260200191508051906020019060200280838360005b83811015611fbb578082015181840152602081019050611fa0565b505050509050019250505060405180910390f35b61201160048036036020811015611fe557600080fd5b81019080803573ffffffffffffffffffffffffffffffffffffffff169060200190929190505050618133565b6040518082815260200191505060405180910390f35b6120696004803603602081101561203d57600080fd5b81019080803573ffffffffffffffffffffffffffffffffffffffff16906020019092919050505061821f565b6040518082815260200191505060405180910390f35b6120876183a4565b6040518082815260200191505060405180910390f35b6120a56184e0565b6040518082815260200191505060405180910390f35b6120e7600480360360208110156120d157600080fd5b81019080803590602001909291905050506184e6565b604051808215151515815260200191505060405180910390f35b6121436004803603602081101561211757600080fd5b81019080803573ffffffffffffffffffffffffffffffffffffffff169060200190929190505050618697565b005b6121716004803603602081101561215b57600080fd5b8101908080359060200190929190505050618911565b6040518082815260200191505060405180910390f35b61218f61895c565b005b6122b2600480360360608110156121a757600080fd5b81019080803590602001906401000000008111156121c457600080fd5b8201836020820111156121d657600080fd5b803590602001918460018302840111640100000000831117156121f857600080fd5b90919293919293908035906020019064010000000081111561221957600080fd5b82018360208201111561222b57600080fd5b8035906020019184600183028401116401000000008311171561224d57600080fd5b90919293919293908035906020019064010000000081111561226e57600080fd5b82018360208201111561228057600080fd5b803590602001918460018302840111640100000000831117156122a257600080fd5b9091929391929390505050618c53565b604051808215151515815260200191505060405180910390f35b612322600480360360608110156122e257600080fd5b81019080803573ffffffffffffffffffffffffffffffffffffffff1690602001909291908035906020019092919080359060200190929190505050619226565b604051808273ffffffffffffffffffffffffffffffffffffffff1673ffffffffffffffffffffffffffffffffffffffff16815260200191505060405180910390f35b6123c2600480360360c081101561237a57600080fd5b810190808035906020019092919080359060200190929190803590602001909291908035906020019092919080359060200190929190803590602001909291905050506195b6565b604051808381526020018281526020019250505060405180910390f35b61240b600480360360208110156123f557600080fd5b81019080803590602001909291905050506197ca565b604051808215151515815260200191505060405180910390f35b6124516004803603602081101561243b57600080fd5b8101908080359060200190929190505050619d39565b604051808215151515815260200191505060405180910390f35b6124ad6004803603602081101561248157600080fd5b81019080803573ffffffffffffffffffffffffffffffffffffffff169060200190929190505050619eb0565b005b6124f1600480360360208110156124c557600080fd5b81019080803573ffffffffffffffffffffffffffffffffffffffff169060200190929190505050619f36565b604051808215151515815260200191505060405180910390f35b6125376004803603602081101561252157600080fd5b8101908080359060200190929190505050619f9b565b6040518082815260200191505060405180910390f35b61255561a0e4565b604051808215151515815260200191505060405180910390f35b60006001806000828254019250508190555060006001549050600061259261a3d1565b73ffffffffffffffffffffffffffffffffffffffff166364439b43336040518263ffffffff1660e01b8152600401808273ffffffffffffffffffffffffffffffffffffffff1673ffffffffffffffffffffffffffffffffffffffff16815260200191505060206040518083038186803b15801561260e57600080fd5b505afa158015612622573d6000803e3d6000fd5b505050506040513d602081101561263857600080fd5b8101908080519060200190929190505050905061265481613a8c565b8015612665575061266484619f36565b5b6126d7576040517f08c379a000000000000000000000000000000000000000000000000000000000815260040180806020018281038252601a8152602001807f6973206e6f742067726f757020616e642076616c696461746f7200000000000081525060200191505060405180910390fd5b6126e1818561a4cc565b925050600154811461275b576040517f08c379a000000000000000000000000000000000000000000000000000000000815260040180806020018281038252600e8152602001807f7265656e7472616e742063616c6c00000000000000000000000000000000000081525060200191505060405180910390fd5b50919050565b60008061276c616549565b90506000600460008573ffffffffffffffffffffffffffffffffffffffff1673ffffffffffffffffffffffffffffffffffffffff16815260200190815260200160002060040190506000808260010154146127f4576127ef6127dc6001846001015461a92b90919063ffffffff16565b836000015461a97590919063ffffffff16565b6127f7565b60005b90508282600201600083815260200190815260200160002060000154141561283d57816000015481111561283c5761283960018261a92b90919063ffffffff16565b90505b5b81600201600082815260200190815260200160002060010160009054906101000a900473ffffffffffffffffffffffffffffffffffffffff169350505050919050565b60006060600060fa73ffffffffffffffffffffffffffffffffffffffff16844360405160200180838152602001828152602001925050506040516020818303038152906040526040518082805190602001908083835b602083106128f957805182526020820191506020810190506020830392506128d6565b6001836020036101000a038019825116818451168082178552505050505050905001915050600060405180830381855afa9150503d8060008114612959576040519150601f19603f3d011682016040523d82523d6000602084013e61295e565b606091505b508093508192505050806129bd576040517f08c379a000000000000000000000000000000000000000000000000000000000815260040180806020018281038252603d81526020018061dae9603d913960400191505060405180910390fd5b6129c882600061a9fd565b92505050919050565b600260009054906101000a900460ff1681565b60608060008060006129f586619f36565b612a67576040517f08c379a000000000000000000000000000000000000000000000000000000000815260040180806020018281038252600f8152602001807f4e6f7420612076616c696461746f72000000000000000000000000000000000081525060200191505060405180910390fd5b6000600460008873ffffffffffffffffffffffffffffffffffffffff1673ffffffffffffffffffffffffffffffffffffffff168152602001908152602001600020905080600001600001816000016001018260020160009054906101000a900473ffffffffffffffffffffffffffffffffffffffff16612afe8460030160405180602001604052908160008201548152505061aa14565b612b0661a3d1565b73ffffffffffffffffffffffffffffffffffffffff16634ce38b5f8c6040518263ffffffff1660e01b8152600401808273ffffffffffffffffffffffffffffffffffffffff1673ffffffffffffffffffffffffffffffffffffffff16815260200191505060206040518083038186803b158015612b8257600080fd5b505afa158015612b96573d6000803e3d6000fd5b505050506040513d6020811015612bac57600080fd5b8101908080519060200190929190505050848054600181600116156101000203166002900480601f016020809104026020016040519081016040528092919081815260200182805460018160011615610100020316600290048015612c525780601f10612c2757610100808354040283529160200191612c52565b820191906000526020600020905b815481529060010190602001808311612c3557829003601f168201915b50505050509450838054600181600116156101000203166002900480601f016020809104026020016040519081016040528092919081815260200182805460018160011615610100020316600290048015612cee5780601f10612cc357610100808354040283529160200191612cee565b820191906000526020600020905b815481529060010190602001808311612cd157829003601f168201915b50505050509350955095509550955095505091939590929450565b600080600b60000154612d34600b60010160405180602001604052908160008201548152505061aa14565b915091509091565b60008060fb73ffffffffffffffffffffffffffffffffffffffff16858585604051602001808473ffffffffffffffffffffffffffffffffffffffff1673ffffffffffffffffffffffffffffffffffffffff1660601b815260140183805190602001908083835b60208310612dc55780518252602082019150602081019050602083039250612da2565b6001836020036101000a03801982511681845116808217855250505050505090500182805190602001908083835b60208310612e165780518252602082019150602081019050602083039250612df3565b6001836020036101000a03801982511681845116808217855250505050505090500193505050506040516020818303038152906040526040518082805190602001908083835b60208310612e7f5780518252602082019150602081019050602083039250612e5c565b6001836020036101000a038019825116818451168082178552505050505050905001915050600060405180830381855afa9150503d8060008114612edf576040519150601f19603f3d011682016040523d82523d6000602084013e612ee4565b606091505b505080915050809150509392505050565b600060018060008282540192505081905550600060015490506000612f1861a3d1565b73ffffffffffffffffffffffffffffffffffffffff166364439b43336040518263ffffffff1660e01b8152600401808273ffffffffffffffffffffffffffffffffffffffff1673ffffffffffffffffffffffffffffffffffffffff16815260200191505060206040518083038186803b158015612f9457600080fd5b505afa158015612fa8573d6000803e3d6000fd5b505050506040513d6020811015612fbe57600080fd5b810190808051906020019092919050505090506000600360008373ffffffffffffffffffffffffffffffffffffffff1673ffffffffffffffffffffffffffffffffffffffff168152602001908152602001600020600101600201541461308c576040517f08c379a00000000000000000000000000000000000000000000000000000000081526004018080602001828103825260198152602001807f56616c696461746f722067726f7570206e6f7420656d7074790000000000000081525060200191505060405180910390fd5b6130988187878761aa22565b9250506001548114613112576040517f08c379a000000000000000000000000000000000000000000000000000000000815260040180806020018281038252600e8152602001807f7265656e7472616e742063616c6c00000000000000000000000000000000000081525060200191505060405180910390fd5b509392505050565b6060806000806000600460008773ffffffffffffffffffffffffffffffffffffffff1673ffffffffffffffffffffffffffffffffffffffff16815260200190815260200160002060040190506060816001015460405190808252806020026020018201604052801561319b5781602001602082028038833980820191505090505b509050606082600101546040519080825280602002602001820160405280156131d35781602001602082028038833980820191505090505b50905060008090505b83600101548110156132cf57600061320182866000015461a97590919063ffffffff16565b90508460020160008281526020019081526020016000206000015484838151811061322857fe5b60200260200101818152505084600201600082815260200190815260200160002060010160009054906101000a900473ffffffffffffffffffffffffffffffffffffffff1683838151811061327957fe5b602002602001019073ffffffffffffffffffffffffffffffffffffffff16908173ffffffffffffffffffffffffffffffffffffffff1681525050506132c860018261a97590919063ffffffff16565b90506131dc565b5081818460030154856000015496509650965096505050509193509193565b60105481565b60006132ff82613a8c565b613371576040517f08c379a00000000000000000000000000000000000000000000000000000000081526004018080602001828103825260138152602001807f4e6f742076616c696461746f722067726f75700000000000000000000000000081525060200191505060405180910390fd5b600360008373ffffffffffffffffffffffffffffffffffffffff1673ffffffffffffffffffffffffffffffffffffffff168152602001908152602001600020600101600201549050919050565b60006133d1826133cc6183a4565b61b0ff565b9050919050565b6060600580548060200260200160405190810160405280929190818152602001828054801561345c57602002820191906000526020600020905b8160009054906101000a900473ffffffffffffffffffffffffffffffffffffffff1673ffffffffffffffffffffffffffffffffffffffff1681526020019060010190808311613412575b5050505050905090565b6000600e54905090565b60006060600060f473ffffffffffffffffffffffffffffffffffffffff16846040516020018082805190602001908083835b602083106134c557805182526020820191506020810190506020830392506134a2565b6001836020036101000a0380198251168184511680821785525050505050509050019150506040516020818303038152906040526040518082805190602001908083835b6020831061352c5780518252602082019150602081019050602083039250613509565b6001836020036101000a038019825116818451168082178552505050505050905001915050600060405180830381855afa9150503d806000811461358c576040519150601f19603f3d011682016040523d82523d6000602084013e613591565b606091505b508093508192505050806135f0576040517f08c379a000000000000000000000000000000000000000000000000000000000815260040180806020018281038252603881526020018061da0f6038913960400191505060405180910390fd5b6135fb82600061b137565b92505050919050565b600d5481565b600060405160200180807f4163636f756e74730000000000000000000000000000000000000000000000008152506008019050604051602081830303815290604052805190602001203373ffffffffffffffffffffffffffffffffffffffff16600260019054906101000a900473ffffffffffffffffffffffffffffffffffffffff1673ffffffffffffffffffffffffffffffffffffffff1663dcf0aaed836040518263ffffffff1660e01b81526004018082815260200191505060206040518083038186803b1580156136dd57600080fd5b505afa1580156136f1573d6000803e3d6000fd5b505050506040513d602081101561370757600080fd5b810190808051906020019092919050505073ffffffffffffffffffffffffffffffffffffffff16146137a1576040517f08c379a00000000000000000000000000000000000000000000000000000000081526004018080602001828103825260188152602001807f6f6e6c79207265676973746572656420636f6e7472616374000000000000000081525060200191505060405180910390fd5b6137aa86619f36565b61381c576040517f08c379a000000000000000000000000000000000000000000000000000000000815260040180806020018281038252600f8152602001807f4e6f7420612076616c696461746f72000000000000000000000000000000000081525060200191505060405180910390fd5b6000600460008873ffffffffffffffffffffffffffffffffffffffff1673ffffffffffffffffffffffffffffffffffffffff16815260200190815260200160002090506138af81888888888080601f016020809104026020016040519081016040528093929190818152602001838380828437600081840152601f19601f8201169050808301925050505050505061b1c8565b613921576040517f08c379a000000000000000000000000000000000000000000000000000000000815260040180806020018281038252601f8152602001807f4572726f72207570646174696e67204543445341207075626c6963206b65790081525060200191505060405180910390fd5b600192505050949350505050565b6000600680549050905090565b60008061394761a3d1565b73ffffffffffffffffffffffffffffffffffffffff166393c5c487846040518263ffffffff1660e01b8152600401808273ffffffffffffffffffffffffffffffffffffffff1673ffffffffffffffffffffffffffffffffffffffff16815260200191505060206040518083038186803b1580156139c357600080fd5b505afa1580156139d7573d6000803e3d6000fd5b505050506040513d60208110156139ed57600080fd5b81019080805190602001909291905050509050613a0981619f36565b613a7b576040517f08c379a000000000000000000000000000000000000000000000000000000000815260040180806020018281038252600f8152602001807f4e6f7420612076616c696461746f72000000000000000000000000000000000081525060200191505060405180910390fd5b613a8481612761565b915050919050565b6000600360008373ffffffffffffffffffffffffffffffffffffffff1673ffffffffffffffffffffffffffffffffffffffff16815260200190815260200160002060000160009054906101000a900460ff169050919050565b600e5481565b6000613af5615ecc565b613b67576040517f08c379a00000000000000000000000000000000000000000000000000000000081526004018080602001828103825260208152602001807f4f776e61626c653a2063616c6c6572206973206e6f7420746865206f776e657281525060200191505060405180910390fd5b600060099050806000015484141580613b84575080600101548314155b613bf6576040517f08c379a000000000000000000000000000000000000000000000000000000000815260040180806020018281038252601e8152602001807f47726f757020726571756972656d656e7473206e6f74206368616e676564000081525060200191505060405180910390fd5b604051806040016040528085815260200184815250600960008201518160000155602082015181600101559050507f999f7ee1917e6d7ea08360edfe9250cda3eda859c38dcb71a92623665de64dd48484604051808381526020018281526020019250505060405180910390a1600191505092915050565b60006060600060fa73ffffffffffffffffffffffffffffffffffffffff16858560405160200180838152602001828152602001925050506040516020818303038152906040526040518082805190602001908083835b60208310613ce75780518252602082019150602081019050602083039250613cc4565b6001836020036101000a038019825116818451168082178552505050505050905001915050600060405180830381855afa9150503d8060008114613d47576040519150601f19603f3d011682016040523d82523d6000602084013e613d4c565b606091505b50809350819250505080613dab576040517f08c379a000000000000000000000000000000000000000000000000000000000815260040180806020018281038252603681526020018061db5b6036913960400191505060405180910390fd5b613db682600061a9fd565b9250505092915050565b600060018060008282540192505081905550600060015490506000613de361a3d1565b73ffffffffffffffffffffffffffffffffffffffff166364439b43336040518263ffffffff1660e01b8152600401808273ffffffffffffffffffffffffffffffffffffffff1673ffffffffffffffffffffffffffffffffffffffff16815260200191505060206040518083038186803b158015613e5f57600080fd5b505afa158015613e73573d6000803e3d6000fd5b505050506040513d6020811015613e8957600080fd5b81019080805190602001909291905050509050613ea581613a8c565b613f17576040517f08c379a00000000000000000000000000000000000000000000000000000000081526004018080602001828103825260158152602001807f4e6f7420612076616c696461746f722067726f7570000000000000000000000081525060200191505060405180910390fd5b6000600360008373ffffffffffffffffffffffffffffffffffffffff1673ffffffffffffffffffffffffffffffffffffffff1681526020019081526020016000206001016002015414613fd2576040517f08c379a00000000000000000000000000000000000000000000000000000000081526004018080602001828103825260198152602001807f56616c696461746f722067726f7570206e6f7420656d7074790000000000000081525060200191505060405180910390fd5b6000600360008373ffffffffffffffffffffffffffffffffffffffff1673ffffffffffffffffffffffffffffffffffffffff16815260200190815260200160002060080190506001818054905011156140ac57426140556009600101548360018154811061403c57fe5b906000526020600020015461a97590919063ffffffff16565b106140ab576040517f08c379a000000000000000000000000000000000000000000000000000000000815260040180806020018281038252602181526020018061dd0f6021913960400191505060405180910390fd5b5b600360008373ffffffffffffffffffffffffffffffffffffffff1673ffffffffffffffffffffffffffffffffffffffff168152602001908152602001600020600080820160006101000a81549060ff0219169055600182016000808201600090556001820160009055600282016000905550506005820160008082016000905550506006820160008082016000905550506007820160009055600882016000614155919061d7a1565b60098201600080820160008082016000905550506001820160009055505050506141816005838761b3c7565b8173ffffffffffffffffffffffffffffffffffffffff167fae7e034b0748a10a219b46074b20977a9170bf4027b156c797093773619a866960405160405180910390a26001935050506001548114614241576040517f08c379a000000000000000000000000000000000000000000000000000000000815260040180806020018281038252600e8152602001807f7265656e7472616e742063616c6c00000000000000000000000000000000000081525060200191505060405180910390fd5b50919050565b60006060600060f673ffffffffffffffffffffffffffffffffffffffff16846040516020018082805190602001908083835b6020831061429c5780518252602082019150602081019050602083039250614279565b6001836020036101000a0380198251168184511680821785525050505050509050019150506040516020818303038152906040526040518082805190602001908083835b6020831061430357805182526020820191506020810190506020830392506142e0565b6001836020036101000a038019825116818451168082178552505050505050905001915050600060405180830381855afa9150503d8060008114614363576040519150601f19603f3d011682016040523d82523d6000602084013e614368565b606091505b508093508192505050806143c7576040517f08c379a000000000000000000000000000000000000000000000000000000000815260040180806020018281038252602381526020018061dd7d6023913960400191505060405180910390fd5b6143d282600061b137565b92505050919050565b60018060008282540192505081905550600060015490506143fa615ecc565b61446c576040517f08c379a00000000000000000000000000000000000000000000000000000000081526004018080602001828103825260208152602001807f4f776e61626c653a2063616c6c6572206973206e6f7420746865206f776e657281525060200191505060405180910390fd5b8160108190555060015481146144ea576040517f08c379a000000000000000000000000000000000000000000000000000000000815260040180806020018281038252600e8152602001807f7265656e7472616e742063616c6c00000000000000000000000000000000000081525060200191505060405180910390fd5b5050565b6144f6615ecc565b614568576040517f08c379a00000000000000000000000000000000000000000000000000000000081526004018080602001828103825260208152602001807f4f776e61626c653a2063616c6c6572206973206e6f7420746865206f776e657281525060200191505060405180910390fd5b600f548114156145c3576040517f08c379a000000000000000000000000000000000000000000000000000000000815260040180806020018281038252602381526020018061dcbb6023913960400191505060405180910390fd5b80600f819055507ff2da07d08fd8dc9c5dcf87ad6f540e306f884a47dd8de14b718a4d5395f1ca9b816040518082815260200191505060405180910390a150565b600080600960000154600960010154915091509091565b606080838390506040519080825280602002602001820160405280156146505781602001602082028038833980820191505090505b50905060008090505b848490508110156146c85761469585858381811061467357fe5b9050602002013573ffffffffffffffffffffffffffffffffffffffff166132f4565b8282815181106146a157fe5b6020026020010181815250506146c160018261a97590919063ffffffff16565b9050614659565b508091505092915050565b600060405160200180807f4163636f756e74730000000000000000000000000000000000000000000000008152506008019050604051602081830303815290604052805190602001203373ffffffffffffffffffffffffffffffffffffffff16600260019054906101000a900473ffffffffffffffffffffffffffffffffffffffff1673ffffffffffffffffffffffffffffffffffffffff1663dcf0aaed836040518263ffffffff1660e01b81526004018082815260200191505060206040518083038186803b1580156147a657600080fd5b505afa1580156147ba573d6000803e3d6000fd5b505050506040513d60208110156147d057600080fd5b810190808051906020019092919050505073ffffffffffffffffffffffffffffffffffffffff161461486a576040517f08c379a00000000000000000000000000000000000000000000000000000000081526004018080602001828103825260188152602001807f6f6e6c79207265676973746572656420636f6e7472616374000000000000000081525060200191505060405180910390fd5b6148738a619f36565b6148e5576040517f08c379a000000000000000000000000000000000000000000000000000000000815260040180806020018281038252600f8152602001807f4e6f7420612076616c696461746f72000000000000000000000000000000000081525060200191505060405180910390fd5b6000600460008c73ffffffffffffffffffffffffffffffffffffffff1673ffffffffffffffffffffffffffffffffffffffff1681526020019081526020016000209050614978818c8c8c8c8080601f016020809104026020016040519081016040528093929190818152602001838380828437600081840152601f19601f8201169050808301925050505050505061b1c8565b6149ea576040517f08c379a000000000000000000000000000000000000000000000000000000000815260040180806020018281038252601f8152602001807f4572726f72207570646174696e67204543445341207075626c6963206b65790081525060200191505060405180910390fd5b614a7e818c89898080601f016020809104026020016040519081016040528093929190818152602001838380828437600081840152601f19601f8201169050808301925050505050505088888080601f016020809104026020016040519081016040528093929190818152602001838380828437600081840152601f19601f8201169050808301925050505050505061b584565b614af0576040517f08c379a000000000000000000000000000000000000000000000000000000000815260040180806020018281038252601d8152602001807f4572726f72207570646174696e6720424c53207075626c6963206b657900000081525060200191505060405180910390fd5b60019250505098975050505050505050565b614b0a615ecc565b614b7c576040517f08c379a00000000000000000000000000000000000000000000000000000000081526004018080602001828103825260208152602001807f4f776e61626c653a2063616c6c6572206973206e6f7420746865206f776e657281525060200191505060405180910390fd5b600073ffffffffffffffffffffffffffffffffffffffff166000809054906101000a900473ffffffffffffffffffffffffffffffffffffffff1673ffffffffffffffffffffffffffffffffffffffff167f8be0079c531659141344cd1fd0a4f28419497f9722a3daafe3b4186f6b6457e060405160405180910390a360008060006101000a81548173ffffffffffffffffffffffffffffffffffffffff021916908373ffffffffffffffffffffffffffffffffffffffff160217905550565b6000614c4643618911565b905090565b6000614c55615ecc565b614cc7576040517f08c379a00000000000000000000000000000000000000000000000000000000081526004018080602001828103825260208152602001807f4f776e61626c653a2063616c6c6572206973206e6f7420746865206f776e657281525060200191505060405180910390fd5b600060079050806000015484141580614ce4575080600101548314155b614d39576040517f08c379a000000000000000000000000000000000000000000000000000000000815260040180806020018281038252602281526020018061d9ed6022913960400191505060405180910390fd5b604051806040016040528085815260200184815250600760008201518160000155602082015181600101559050507f62d947118dd4c1f5ece7f787a9cad4e1127d14d403b71133e95792b473bf83898484604051808381526020018281526020019250505060405180910390a1600191505092915050565b6000808383905011614e2b576040517f08c379a00000000000000000000000000000000000000000000000000000000081526004018080602001828103825260128152602001807f557074696d6520617272617920656d707479000000000000000000000000000081525060200191505060405180910390fd5b600e54838390501115614e89576040517f08c379a000000000000000000000000000000000000000000000000000000000815260040180806020018281038252602b81526020018061d9c2602b913960400191505060405180910390fd5b614e9161d7c2565b60008090505b84849050811015614ef457614ed7614ec8614ec3878785818110614eb757fe5b90506020020135615f2a565b61b7cc565b8361b7ea90919063ffffffff16565b9150614eed60018261a97590919063ffffffff16565b9050614e97565b50614f1b614f16614f078686905061b893565b8361b91d90919063ffffffff16565b61aa14565b91505092915050565b600260009054906101000a900460ff1615614fa7576040517f08c379a000000000000000000000000000000000000000000000000000000000815260040180806020018281038252601c8152602001807f636f6e747261637420616c726561647920696e697469616c697a65640000000081525060200191505060405180910390fd5b6001600260006101000a81548160ff021916908315150217905550614fcb3361ba66565b614fd48b616934565b614fde8a8a613aeb565b50614fe98888614c4b565b50614ff48686617cda565b50614ffe826184e6565b50615008816144ee565b61501184619d39565b5061501b836143db565b5050505050505050505050565b600260019054906101000a900473ffffffffffffffffffffffffffffffffffffffff1681565b600061505861a3d1565b73ffffffffffffffffffffffffffffffffffffffff166364439b43336040518263ffffffff1660e01b8152600401808273ffffffffffffffffffffffffffffffffffffffff1673ffffffffffffffffffffffffffffffffffffffff16815260200191505060206040518083038186803b1580156150d457600080fd5b505afa1580156150e8573d6000803e3d6000fd5b505050506040513d60208110156150fe57600080fd5b8101908080519060200190929190505050905061511a81613a8c565b61518c576040517f08c379a00000000000000000000000000000000000000000000000000000000081526004018080602001828103825260158152602001807f4e6f7420612076616c696461746f722067726f7570000000000000000000000081525060200191505060405180910390fd5b6000600360008373ffffffffffffffffffffffffffffffffffffffff1673ffffffffffffffffffffffffffffffffffffffff16815260200190815260200160002090506151df6151da61bbaa565b61aa14565b831115615237576040517f08c379a000000000000000000000000000000000000000000000000000000000815260040180806020018281038252602581526020018061dd306025913960400191505060405180910390fd5b6152588160050160405180602001604052908160008201548152505061aa14565b8314156152cd576040517f08c379a000000000000000000000000000000000000000000000000000000000815260040180806020018281038252601c8152602001807f436f6d6d697373696f6e206d75737420626520646966666572656e740000000081525060200191505060405180910390fd5b6152d68361b7cc565b81600601600082015181600001559050506152fc600f544361a97590919063ffffffff16565b81600701819055508173ffffffffffffffffffffffffffffffffffffffff167f557d39a57520d9835859d4b7eda805a7f4115a59c3a374eeed488436fc62a152848360070154604051808381526020018281526020019250505060405180910390a2505050565b60006060600060f973ffffffffffffffffffffffffffffffffffffffff1643604051602001808281526020019150506040516020818303038152906040526040518082805190602001908083835b602083106153d457805182526020820191506020810190506020830392506153b1565b6001836020036101000a038019825116818451168082178552505050505050905001915050600060405180830381855afa9150503d8060008114615434576040519150601f19603f3d011682016040523d82523d6000602084013e615439565b606091505b50809350819250505080615498576040517f08c379a000000000000000000000000000000000000000000000000000000000815260040180806020018281038252603581526020018061db266035913960400191505060405180910390fd5b6154a382600061a9fd565b9250505090565b60006060600060f773ffffffffffffffffffffffffffffffffffffffff16846040516020018082805190602001908083835b602083106154ff57805182526020820191506020810190506020830392506154dc565b6001836020036101000a0380198251168184511680821785525050505050509050019150506040516020818303038152906040526040518082805190602001908083835b602083106155665780518252602082019150602081019050602083039250615543565b6001836020036101000a038019825116818451168082178552505050505050905001915050600060405180830381855afa9150503d80600081146155c6576040519150601f19603f3d011682016040523d82523d6000602084013e6155cb565b606091505b5080935081925050508061562a576040517f08c379a000000000000000000000000000000000000000000000000000000000815260040180806020018281038252603181526020018061dcde6031913960400191505060405180910390fd5b61563582600061a9fd565b92505050919050565b60006001806000828254019250508190555060006001549050600061566161a3d1565b73ffffffffffffffffffffffffffffffffffffffff166364439b43336040518263ffffffff1660e01b8152600401808273ffffffffffffffffffffffffffffffffffffffff1673ffffffffffffffffffffffffffffffffffffffff16815260200191505060206040518083038186803b1580156156dd57600080fd5b505afa1580156156f1573d6000803e3d6000fd5b505050506040513d602081101561570757600080fd5b8101908080519060200190929190505050905061572381619f36565b615795576040517f08c379a000000000000000000000000000000000000000000000000000000000815260040180806020018281038252600f8152602001807f4e6f7420612076616c696461746f72000000000000000000000000000000000081525060200191505060405180910390fd5b6000600460008373ffffffffffffffffffffffffffffffffffffffff1673ffffffffffffffffffffffffffffffffffffffff1681526020019081526020016000209050600073ffffffffffffffffffffffffffffffffffffffff168160020160009054906101000a900473ffffffffffffffffffffffffffffffffffffffff1673ffffffffffffffffffffffffffffffffffffffff16146159c957600360008260020160009054906101000a900473ffffffffffffffffffffffffffffffffffffffff1673ffffffffffffffffffffffffffffffffffffffff1673ffffffffffffffffffffffffffffffffffffffff16815260200190815260200160002060010173__AddressLinkedList_____________________63542424fb9091846040518363ffffffff1660e01b8152600401808381526020018273ffffffffffffffffffffffffffffffffffffffff1673ffffffffffffffffffffffffffffffffffffffff1681526020019250505060206040518083038186803b15801561591a57600080fd5b505af415801561592e573d6000803e3d6000fd5b505050506040513d602081101561594457600080fd5b8101908080519060200190929190505050156159c8576040517f08c379a000000000000000000000000000000000000000000000000000000000815260040180806020018281038252601e8152602001807f486173206265656e2067726f7570206d656d62657220726563656e746c79000081525060200191505060405180910390fd5b5b60006159ea600760010154836004016003015461a97590919063ffffffff16565b9050428110615a61576040517f08c379a000000000000000000000000000000000000000000000000000000000815260040180806020018281038252601c8152602001807f4e6f742079657420726571756972656d656e7420656e642074696d650000000081525060200191505060405180910390fd5b615a6d6006848861b3c7565b600460008473ffffffffffffffffffffffffffffffffffffffff1673ffffffffffffffffffffffffffffffffffffffff168152602001908152602001600020600080820160008082016000615ac2919061d7d5565b600182016000615ad2919061d7d5565b50506002820160006101000a81549073ffffffffffffffffffffffffffffffffffffffff02191690556003820160008082016000905550506004820160008082016000905560018201600090556003820160009055505050508273ffffffffffffffffffffffffffffffffffffffff167f51407fafe7ef9bec39c65a12a4885a274190991bf1e9057fcc384fc77ff1a7f060405160405180910390a2600194505050506001548114615bec576040517f08c379a000000000000000000000000000000000000000000000000000000000815260040180806020018281038252600e8152602001807f7265656e7472616e742063616c6c00000000000000000000000000000000000081525060200191505060405180910390fd5b50919050565b60008060009054906101000a900473ffffffffffffffffffffffffffffffffffffffff16905090565b606080600360008573ffffffffffffffffffffffffffffffffffffffff1673ffffffffffffffffffffffffffffffffffffffff16815260200190815260200160002060010173__AddressLinkedList_____________________63b1cfea439091856040518363ffffffff1660e01b8152600401808381526020018281526020019250505060006040518083038186803b158015615cb857600080fd5b505af4158015615ccc573d6000803e3d6000fd5b505050506040513d6000823e3d601f19601f820116820180604052506020811015615cf657600080fd5b810190808051640100000000811115615d0e57600080fd5b82810190506020810184811115615d2457600080fd5b8151856020820283011164010000000082111715615d4157600080fd5b50509291905050509050606083604051908082528060200260200182016040528015615d7c5781602001602082028038833980820191505090505b50905060008090505b84811015615ec057615d9561a3d1565b73ffffffffffffffffffffffffffffffffffffffff16634ce38b5f848381518110615dbc57fe5b60200260200101516040518263ffffffff1660e01b8152600401808273ffffffffffffffffffffffffffffffffffffffff1673ffffffffffffffffffffffffffffffffffffffff16815260200191505060206040518083038186803b158015615e2457600080fd5b505afa158015615e38573d6000803e3d6000fd5b505050506040513d6020811015615e4e57600080fd5b8101908080519060200190929190505050828281518110615e6b57fe5b602002602001019073ffffffffffffffffffffffffffffffffffffffff16908173ffffffffffffffffffffffffffffffffffffffff1681525050615eb960018261a97590919063ffffffff16565b9050615d85565b50809250505092915050565b60008060009054906101000a900473ffffffffffffffffffffffffffffffffffffffff1673ffffffffffffffffffffffffffffffffffffffff16615f0e61bbd0565b73ffffffffffffffffffffffffffffffffffffffff1614905090565b6000615f3c615f3761bbaa565b61aa14565b821115615fb1576040517f08c379a00000000000000000000000000000000000000000000000000000000081526004018080602001828103825260208152602001807f557074696d652063616e6e6f74206265206c6172676572207468616e206f6e6581525060200191505060405180910390fd5b600080615ff5615fc7615fc261bbaa565b61aa14565b615fd7615fd261bbaa565b61aa14565b86615fe8615fe361bbaa565b61aa14565b600b6000015460126195b6565b809250819350505061600f61600a838361bbd8565b61aa14565b92505050919050565b60006001806000828254019250508190555060006001549050600061603b61a3d1565b73ffffffffffffffffffffffffffffffffffffffff166364439b43336040518263ffffffff1660e01b8152600401808273ffffffffffffffffffffffffffffffffffffffff1673ffffffffffffffffffffffffffffffffffffffff16815260200191505060206040518083038186803b1580156160b757600080fd5b505afa1580156160cb573d6000803e3d6000fd5b505050506040513d60208110156160e157600080fd5b810190808051906020019092919050505090506160fd81613a8c565b61616f576040517f08c379a000000000000000000000000000000000000000000000000000000000815260040180806020018281038252600b8152602001807f4e6f7420612067726f757000000000000000000000000000000000000000000081525060200191505060405180910390fd5b61617886619f36565b6161ea576040517f08c379a000000000000000000000000000000000000000000000000000000000815260040180806020018281038252600f8152602001807f4e6f7420612076616c696461746f72000000000000000000000000000000000081525060200191505060405180910390fd5b6000600360008373ffffffffffffffffffffffffffffffffffffffff1673ffffffffffffffffffffffffffffffffffffffff16815260200190815260200160002090508060010173__AddressLinkedList_____________________63542424fb9091896040518363ffffffff1660e01b8152600401808381526020018273ffffffffffffffffffffffffffffffffffffffff1673ffffffffffffffffffffffffffffffffffffffff1681526020019250505060206040518083038186803b1580156162b557600080fd5b505af41580156162c9573d6000803e3d6000fd5b505050506040513d60208110156162df57600080fd5b8101908080519060200190929190505050616362576040517f08c379a00000000000000000000000000000000000000000000000000000000081526004018080602001828103825260198152602001807f4e6f742061206d656d626572206f66207468652067726f75700000000000000081525060200191505060405180910390fd5b8060010173__AddressLinkedList_____________________63b2f8fe9690918989896040518563ffffffff1660e01b8152600401808581526020018473ffffffffffffffffffffffffffffffffffffffff1673ffffffffffffffffffffffffffffffffffffffff1681526020018373ffffffffffffffffffffffffffffffffffffffff1673ffffffffffffffffffffffffffffffffffffffff1681526020018273ffffffffffffffffffffffffffffffffffffffff1673ffffffffffffffffffffffffffffffffffffffff16815260200194505050505060006040518083038186803b15801561645257600080fd5b505af4158015616466573d6000803e3d6000fd5b505050508673ffffffffffffffffffffffffffffffffffffffff168273ffffffffffffffffffffffffffffffffffffffff167f38819cc49a343985b478d72f531a35b15384c398dd80fd191a14662170f895c660405160405180910390a36001935050506001548114616541576040517f08c379a000000000000000000000000000000000000000000000000000000000815260040180806020018281038252600e8152602001807f7265656e7472616e742063616c6c00000000000000000000000000000000000081525060200191505060405180910390fd5b509392505050565b6000616554436133be565b905090565b60006060600060f973ffffffffffffffffffffffffffffffffffffffff1684604051602001808281526020019150506040516020818303038152906040526040518082805190602001908083835b602083106165ca57805182526020820191506020810190506020830392506165a7565b6001836020036101000a038019825116818451168082178552505050505050905001915050600060405180830381855afa9150503d806000811461662a576040519150601f19603f3d011682016040523d82523d6000602084013e61662f565b606091505b5080935081925050508061668e576040517f08c379a000000000000000000000000000000000000000000000000000000000815260040180806020018281038252602e81526020018061d912602e913960400191505060405180910390fd5b61669982600061a9fd565b92505050919050565b6060600080600060606000806166b788613a8c565b616729576040517f08c379a00000000000000000000000000000000000000000000000000000000081526004018080602001828103825260158152602001807f4e6f7420612076616c696461746f722067726f7570000000000000000000000081525060200191505060405180910390fd5b6000600360008a73ffffffffffffffffffffffffffffffffffffffff1673ffffffffffffffffffffffffffffffffffffffff16815260200190815260200160002090508060010173__AddressLinkedList_____________________63fe3c7a8e90916040518263ffffffff1660e01b81526004018082815260200191505060006040518083038186803b1580156167c057600080fd5b505af41580156167d4573d6000803e3d6000fd5b505050506040513d6000823e3d601f19601f8201168201806040525060208110156167fe57600080fd5b81019080805164010000000081111561681657600080fd5b8281019050602081018481111561682c57600080fd5b815185602082028301116401000000008211171561684957600080fd5b50509291905050506168728260050160405180602001604052908160008201548152505061aa14565b6168938360060160405180602001604052908160008201548152505061aa14565b8360070154846008016168c08660090160000160405180602001604052908160008201548152505061aa14565b86600901600101548280548060200260200160405190810160405280929190818152602001828054801561691357602002820191906000526020600020905b8154815260200190600101908083116168ff575b50505050509250975097509750975097509750975050919395979092949650565b61693c615ecc565b6169ae576040517f08c379a00000000000000000000000000000000000000000000000000000000081526004018080602001828103825260208152602001807f4f776e61626c653a2063616c6c6572206973206e6f7420746865206f776e657281525060200191505060405180910390fd5b600073ffffffffffffffffffffffffffffffffffffffff168173ffffffffffffffffffffffffffffffffffffffff161415616a51576040517f08c379a00000000000000000000000000000000000000000000000000000000081526004018080602001828103825260208152602001807f43616e6e6f7420726567697374657220746865206e756c6c206164647265737381525060200191505060405180910390fd5b80600260016101000a81548173ffffffffffffffffffffffffffffffffffffffff021916908373ffffffffffffffffffffffffffffffffffffffff1602179055508073ffffffffffffffffffffffffffffffffffffffff167f27fe5f0c1c3b1ed427cc63d0f05759ffdecf9aec9e18d31ef366fc8a6cb5dc3b60405160405180910390a250565b600060018060008282540192505081905550600060015490506000616afb61a3d1565b73ffffffffffffffffffffffffffffffffffffffff166364439b43336040518263ffffffff1660e01b8152600401808273ffffffffffffffffffffffffffffffffffffffff1673ffffffffffffffffffffffffffffffffffffffff16815260200191505060206040518083038186803b158015616b7757600080fd5b505afa158015616b8b573d6000803e3d6000fd5b505050506040513d6020811015616ba157600080fd5b81019080805190602001909291905050509050616bbd81619f36565b616c2f576040517f08c379a000000000000000000000000000000000000000000000000000000000815260040180806020018281038252600f8152602001807f4e6f7420612076616c696461746f72000000000000000000000000000000000081525060200191505060405180910390fd5b616c3884613a8c565b616caa576040517f08c379a00000000000000000000000000000000000000000000000000000000081526004018080602001828103825260158152602001807f4e6f7420612076616c696461746f722067726f7570000000000000000000000081525060200191505060405180910390fd5b616cb3816179cc565b616d08576040517f08c379a000000000000000000000000000000000000000000000000000000000815260040180806020018281038252602381526020018061d8ef6023913960400191505060405180910390fd5b616d11846179cc565b616d83576040517f08c379a000000000000000000000000000000000000000000000000000000000815260040180806020018281038252601f8152602001807f47726f757020646f65736e2774206d65657420726571756972656d656e74730081525060200191505060405180910390fd5b6000600460008373ffffffffffffffffffffffffffffffffffffffff1673ffffffffffffffffffffffffffffffffffffffff1681526020019081526020016000209050600073ffffffffffffffffffffffffffffffffffffffff168160020160009054906101000a900473ffffffffffffffffffffffffffffffffffffffff1673ffffffffffffffffffffffffffffffffffffffff1614616e2a57616e28818361bc1a565b505b848160020160006101000a81548173ffffffffffffffffffffffffffffffffffffffff021916908373ffffffffffffffffffffffffffffffffffffffff1602179055508473ffffffffffffffffffffffffffffffffffffffff168273ffffffffffffffffffffffffffffffffffffffff167f91ef92227057e201e406c3451698dd780fe7672ad74328591c88d281af31581d60405160405180910390a36001935050506001548114616f44576040517f08c379a000000000000000000000000000000000000000000000000000000000815260040180806020018281038252600e8152602001807f7265656e7472616e742063616c6c00000000000000000000000000000000000081525060200191505060405180910390fd5b50919050565b60606000616f5661a3d1565b73ffffffffffffffffffffffffffffffffffffffff166393c5c487846040518263ffffffff1660e01b8152600401808273ffffffffffffffffffffffffffffffffffffffff1673ffffffffffffffffffffffffffffffffffffffff16815260200191505060206040518083038186803b158015616fd257600080fd5b505afa158015616fe6573d6000803e3d6000fd5b505050506040513d6020811015616ffc57600080fd5b8101908080519060200190929190505050905061701881619f36565b61708a576040517f08c379a000000000000000000000000000000000000000000000000000000000815260040180806020018281038252600f8152602001807f4e6f7420612076616c696461746f72000000000000000000000000000000000081525060200191505060405180910390fd5b600460008273ffffffffffffffffffffffffffffffffffffffff1673ffffffffffffffffffffffffffffffffffffffff1681526020019081526020016000206000016001018054600181600116156101000203166002900480601f0160208091040260200160405190810160405280929190818152602001828054600181600116156101000203166002900480156171635780601f1061713857610100808354040283529160200191617163565b820191906000526020600020905b81548152906001019060200180831161714657829003601f168201915b5050505050915050919050565b6001806000828254019250508190555060006001549050600061719161a3d1565b73ffffffffffffffffffffffffffffffffffffffff166364439b43336040518263ffffffff1660e01b8152600401808273ffffffffffffffffffffffffffffffffffffffff1673ffffffffffffffffffffffffffffffffffffffff16815260200191505060206040518083038186803b15801561720d57600080fd5b505afa158015617221573d6000803e3d6000fd5b505050506040513d602081101561723757600080fd5b8101908080519060200190929190505050905061725381613a8c565b6172c5576040517f08c379a00000000000000000000000000000000000000000000000000000000081526004018080602001828103825260158152602001807f4e6f7420612076616c696461746f722067726f7570000000000000000000000081525060200191505060405180910390fd5b6000600360008373ffffffffffffffffffffffffffffffffffffffff1673ffffffffffffffffffffffffffffffffffffffff1681526020019081526020016000209050617324601054826009016001015461a97590919063ffffffff16565b42101561737c576040517f08c379a000000000000000000000000000000000000000000000000000000000815260040180806020018281038252603b81526020018061d966603b913960400191505060405180910390fd5b61738461bbaa565b816009016000016000820151816000015590505050506001548114617411576040517f08c379a000000000000000000000000000000000000000000000000000000000815260040180806020018281038252600e8152602001807f7265656e7472616e742063616c6c00000000000000000000000000000000000081525060200191505060405180910390fd5b50565b6000600f54905090565b60078060000154908060010154905082565b60008061743b61a3d1565b73ffffffffffffffffffffffffffffffffffffffff166364439b43336040518263ffffffff1660e01b8152600401808273ffffffffffffffffffffffffffffffffffffffff1673ffffffffffffffffffffffffffffffffffffffff16815260200191505060206040518083038186803b1580156174b757600080fd5b505afa1580156174cb573d6000803e3d6000fd5b505050506040513d60208110156174e157600080fd5b810190808051906020019092919050505090506174fd81619f36565b61756f576040517f08c379a000000000000000000000000000000000000000000000000000000000815260040180806020018281038252600f8152602001807f4e6f7420612076616c696461746f72000000000000000000000000000000000081525060200191505060405180910390fd5b6000600460008373ffffffffffffffffffffffffffffffffffffffff1673ffffffffffffffffffffffffffffffffffffffff1681526020019081526020016000209050617646818389898080601f016020809104026020016040519081016040528093929190818152602001838380828437600081840152601f19601f8201169050808301925050505050505088888080601f016020809104026020016040519081016040528093929190818152602001838380828437600081840152601f19601f8201169050808301925050505050505061b584565b6176b8576040517f08c379a000000000000000000000000000000000000000000000000000000000815260040180806020018281038252601d8152602001807f4572726f72207570646174696e6720424c53207075626c6963206b657900000081525060200191505060405180910390fd5b600192505050949350505050565b6176d0828261be05565b5050565b600080600760000154600760010154915091509091565b600180600082825401925050819055506000600154905061770a61c183565b73ffffffffffffffffffffffffffffffffffffffff166357601c5d336040518263ffffffff1660e01b8152600401808273ffffffffffffffffffffffffffffffffffffffff1673ffffffffffffffffffffffffffffffffffffffff16815260200191505060206040518083038186803b15801561778657600080fd5b505afa15801561779a573d6000803e3d6000fd5b505050506040513d60208110156177b057600080fd5b8101908080519060200190929190505050617833576040517f08c379a00000000000000000000000000000000000000000000000000000000081526004018080602001828103825260208152602001807f4f6e6c79207265676973746572656420736c61736865722063616e2063616c6c81525060200191505060405180910390fd5b61783c82613a8c565b6178ae576040517f08c379a00000000000000000000000000000000000000000000000000000000081526004018080602001828103825260158152602001807f4e6f7420612076616c696461746f722067726f7570000000000000000000000081525060200191505060405180910390fd5b6000600360008473ffffffffffffffffffffffffffffffffffffffff1673ffffffffffffffffffffffffffffffffffffffff168152602001908152602001600020905061793061792b600261791d8460090160000160405180602001604052908160008201548152505061aa14565b61c27e90919063ffffffff16565b61b7cc565b81600901600001600082015181600001559050504281600901600101819055505060015481146179c8576040517f08c379a000000000000000000000000000000000000000000000000000000000815260040180806020018281038252600e8152602001807f7265656e7472616e742063616c6c00000000000000000000000000000000000081525060200191505060405180910390fd5b5050565b6000806179d761c183565b73ffffffffffffffffffffffffffffffffffffffff166330ec70f5846040518263ffffffff1660e01b8152600401808273ffffffffffffffffffffffffffffffffffffffff1673ffffffffffffffffffffffffffffffffffffffff16815260200191505060206040518083038186803b158015617a5357600080fd5b505afa158015617a67573d6000803e3d6000fd5b505050506040513d6020811015617a7d57600080fd5b81019080805190602001909291905050509050617a998361821f565b811015915050919050565b60098060000154908060010154905082565b600060018060008282540192505081905550600060015490506000617ad961a3d1565b73ffffffffffffffffffffffffffffffffffffffff166364439b43336040518263ffffffff1660e01b8152600401808273ffffffffffffffffffffffffffffffffffffffff1673ffffffffffffffffffffffffffffffffffffffff16815260200191505060206040518083038186803b158015617b5557600080fd5b505afa158015617b69573d6000803e3d6000fd5b505050506040513d6020811015617b7f57600080fd5b810190808051906020019092919050505090506000600360008373ffffffffffffffffffffffffffffffffffffffff1673ffffffffffffffffffffffffffffffffffffffff1681526020019081526020016000206001016002015411617c4d576040517f08c379a00000000000000000000000000000000000000000000000000000000081526004018080602001828103825260158152602001807f56616c696461746f722067726f757020656d707479000000000000000000000081525060200191505060405180910390fd5b617c5a818560008061aa22565b9250506001548114617cd4576040517f08c379a000000000000000000000000000000000000000000000000000000000815260040180806020018281038252600e8152602001807f7265656e7472616e742063616c6c00000000000000000000000000000000000081525060200191505060405180910390fd5b50919050565b6000617ce4615ecc565b617d56576040517f08c379a00000000000000000000000000000000000000000000000000000000081526004018080602001828103825260208152602001807f4f776e61626c653a2063616c6c6572206973206e6f7420746865206f776e657281525060200191505060405180910390fd5b617d66617d6161bbaa565b61aa14565b821115617dbe576040517f08c379a000000000000000000000000000000000000000000000000000000000815260040180806020018281038252602881526020018061dd556028913960400191505060405180910390fd5b600b6000015483141580617e035750617e01600b600101604051806020016040529081600082015481525050617df38461b7cc565b61c2c890919063ffffffff16565b155b617e58576040517f08c379a000000000000000000000000000000000000000000000000000000000815260040180806020018281038252602981526020018061dda06029913960400191505060405180910390fd5b6040518060400160405280848152602001617e728461b7cc565b815250600b600082015181600001556020820151816001016000820151816000015550509050507f4b48724280029c2ea7a445c9cea30838525342e7a9ea9468f630b52e75d6c5368383604051808381526020018281526020019250505060405180910390a16001905092915050565b60606000617eee61a3d1565b90506060600680549050604051908082528060200260200182016040528015617f265781602001602082028038833980820191505090505b50905060008090505b8151811015618088578273ffffffffffffffffffffffffffffffffffffffff16634ce38b5f60068381548110617f6157fe5b9060005260206000200160009054906101000a900473ffffffffffffffffffffffffffffffffffffffff166040518263ffffffff1660e01b8152600401808273ffffffffffffffffffffffffffffffffffffffff1673ffffffffffffffffffffffffffffffffffffffff16815260200191505060206040518083038186803b158015617fec57600080fd5b505afa158015618000573d6000803e3d6000fd5b505050506040513d602081101561801657600080fd5b810190808051906020019092919050505082828151811061803357fe5b602002602001019073ffffffffffffffffffffffffffffffffffffffff16908173ffffffffffffffffffffffffffffffffffffffff168152505061808160018261a97590919063ffffffff16565b9050617f2f565b50809250505090565b600061809d838361c2dd565b905092915050565b6060600680548060200260200160405190810160405280929190818152602001828054801561812957602002820191906000526020600020905b8160009054906101000a900473ffffffffffffffffffffffffffffffffffffffff1673ffffffffffffffffffffffffffffffffffffffff16815260200190600101908083116180df575b5050505050905090565b600061813e82613a8c565b6181b0576040517f08c379a00000000000000000000000000000000000000000000000000000000081526004018080602001828103825260158152602001807f4e6f7420612076616c696461746f722067726f7570000000000000000000000081525060200191505060405180910390fd5b6000600360008473ffffffffffffffffffffffffffffffffffffffff1673ffffffffffffffffffffffffffffffffffffffff16815260200190815260200160002090506182178160090160000160405180602001604052908160008201548152505061aa14565b915050919050565b600061822a82619f36565b1561823c57600760000154905061839f565b61824582613a8c565b1561839a57600061829c6001600360008673ffffffffffffffffffffffffffffffffffffffff1673ffffffffffffffffffffffffffffffffffffffff1681526020019081526020016000206001016002015461c86b565b90506000600360008573ffffffffffffffffffffffffffffffffffffffff1673ffffffffffffffffffffffffffffffffffffffff168152602001908152602001600020600801905060008180549050111561837957600061830b6001838054905061a92b90919063ffffffff16565b90505b6000811115618377574261834660096001015484848154811061832d57fe5b906000526020600020015461a97590919063ffffffff16565b1061835c57618355818461c86b565b9250618377565b61837060018261a92b90919063ffffffff16565b905061830e565b505b6183918260096000015461c88590919063ffffffff16565b9250505061839f565b600090505b919050565b60006060600060f873ffffffffffffffffffffffffffffffffffffffff166040516020016040516020818303038152906040526040518082805190602001908083835b6020831061840a57805182526020820191506020810190506020830392506183e7565b6001836020036101000a038019825116818451168082178552505050505050905001915050600060405180830381855afa9150503d806000811461846a576040519150601f19603f3d011682016040523d82523d6000602084013e61846f565b606091505b508093508192505050806184ce576040517f08c379a000000000000000000000000000000000000000000000000000000000815260040180806020018281038252602581526020018061dc6a6025913960400191505060405180910390fd5b6184d982600061a9fd565b9250505090565b600f5481565b60006184f0615ecc565b618562576040517f08c379a00000000000000000000000000000000000000000000000000000000081526004018080602001828103825260208152602001807f4f776e61626c653a2063616c6c6572206973206e6f7420746865206f776e657281525060200191505060405180910390fd5b816000106185d8576040517f08c379a000000000000000000000000000000000000000000000000000000000815260040180806020018281038252601d8152602001807f4d61782067726f75702073697a652063616e6e6f74206265207a65726f00000081525060200191505060405180910390fd5b600e54821415618650576040517f08c379a000000000000000000000000000000000000000000000000000000000815260040180806020018281038252601a8152602001807f4d61782067726f75702073697a65206e6f74206368616e67656400000000000081525060200191505060405180910390fd5b81600e819055507f603fe12c33c253a23da1680aa453dc70c3a0ee07763569bd5f602406ebd4e5d5826040518082815260200191505060405180910390a160019050919050565b60018060008282540192505081905550600060015490506186b661c183565b73ffffffffffffffffffffffffffffffffffffffff166357601c5d336040518263ffffffff1660e01b8152600401808273ffffffffffffffffffffffffffffffffffffffff1673ffffffffffffffffffffffffffffffffffffffff16815260200191505060206040518083038186803b15801561873257600080fd5b505afa158015618746573d6000803e3d6000fd5b505050506040513d602081101561875c57600080fd5b81019080805190602001909291905050506187df576040517f08c379a00000000000000000000000000000000000000000000000000000000081526004018080602001828103825260208152602001807f4f6e6c79207265676973746572656420736c61736865722063616e2063616c6c81525060200191505060405180910390fd5b6187e882619f36565b15618896576000600460008473ffffffffffffffffffffffffffffffffffffffff1673ffffffffffffffffffffffffffffffffffffffff1681526020019081526020016000209050600073ffffffffffffffffffffffffffffffffffffffff168160020160009054906101000a900473ffffffffffffffffffffffffffffffffffffffff1673ffffffffffffffffffffffffffffffffffffffff161461889457618892818461bc1a565b505b505b600154811461890d576040517f08c379a000000000000000000000000000000000000000000000000000000000815260040180806020018281038252600e8152602001807f7265656e7472616e742063616c6c00000000000000000000000000000000000081525060200191505060405180910390fd5b5050565b600061895560036189476002618939600261892b88616559565b61c88590919063ffffffff16565b61a97590919063ffffffff16565b61c27e90919063ffffffff16565b9050919050565b600061896661a3d1565b73ffffffffffffffffffffffffffffffffffffffff166364439b43336040518263ffffffff1660e01b8152600401808273ffffffffffffffffffffffffffffffffffffffff1673ffffffffffffffffffffffffffffffffffffffff16815260200191505060206040518083038186803b1580156189e257600080fd5b505afa1580156189f6573d6000803e3d6000fd5b505050506040513d6020811015618a0c57600080fd5b81019080805190602001909291905050509050618a2881613a8c565b618a9a576040517f08c379a00000000000000000000000000000000000000000000000000000000081526004018080602001828103825260158152602001807f4e6f7420612076616c696461746f722067726f7570000000000000000000000081525060200191505060405180910390fd5b6000600360008373ffffffffffffffffffffffffffffffffffffffff1673ffffffffffffffffffffffffffffffffffffffff1681526020019081526020016000209050600081600701541415618b58576040517f08c379a000000000000000000000000000000000000000000000000000000000815260040180806020018281038252601b8152602001807f4e6f20636f6d6d697373696f6e2075706461746520717565756564000000000081525060200191505060405180910390fd5b4381600701541115618bb5576040517f08c379a000000000000000000000000000000000000000000000000000000000815260040180806020018281038252602181526020018061d9a16021913960400191505060405180910390fd5b80600601816005016000820154816000015590505080600601600080820160009055505080600701600090558173ffffffffffffffffffffffffffffffffffffffff167f815d292dbc1a08dfb3103aabb6611233dd2393903e57bdf4c5b3db91198a826c618c3a8360050160405180602001604052908160008201548152505061aa14565b6040518082815260200191505060405180910390a25050565b600060018060008282540192505081905550600060015490506000618c7661a3d1565b73ffffffffffffffffffffffffffffffffffffffff166364439b43336040518263ffffffff1660e01b8152600401808273ffffffffffffffffffffffffffffffffffffffff1673ffffffffffffffffffffffffffffffffffffffff16815260200191505060206040518083038186803b158015618cf257600080fd5b505afa158015618d06573d6000803e3d6000fd5b505050506040513d6020811015618d1c57600080fd5b81019080805190602001909291905050509050618d3881619f36565b158015618d4b5750618d4981613a8c565b155b618dbd576040517f08c379a00000000000000000000000000000000000000000000000000000000081526004018080602001828103825260128152602001807f416c72656164792072656769737465726564000000000000000000000000000081525060200191505060405180910390fd5b6000618dc761c183565b73ffffffffffffffffffffffffffffffffffffffff166330ec70f5836040518263ffffffff1660e01b8152600401808273ffffffffffffffffffffffffffffffffffffffff1673ffffffffffffffffffffffffffffffffffffffff16815260200191505060206040518083038186803b158015618e4357600080fd5b505afa158015618e57573d6000803e3d6000fd5b505050506040513d6020811015618e6d57600080fd5b81019080805190602001909291905050509050600760000154811015618efb576040517f08c379a00000000000000000000000000000000000000000000000000000000081526004018080602001828103825260118152602001807f4465706f73697420746f6f20736d616c6c00000000000000000000000000000081525060200191505060405180910390fd5b6000600460008473ffffffffffffffffffffffffffffffffffffffff1673ffffffffffffffffffffffffffffffffffffffff16815260200190815260200160002090506000618f4861a3d1565b73ffffffffffffffffffffffffffffffffffffffff16634ce38b5f856040518263ffffffff1660e01b8152600401808273ffffffffffffffffffffffffffffffffffffffff1673ffffffffffffffffffffffffffffffffffffffff16815260200191505060206040518083038186803b158015618fc457600080fd5b505afa158015618fd8573d6000803e3d6000fd5b505050506040513d6020811015618fee57600080fd5b810190808051906020019092919050505090506190518285838f8f8080601f016020809104026020016040519081016040528093929190818152602001838380828437600081840152601f19601f8201169050808301925050505050505061b1c8565b506190e682858c8c8080601f016020809104026020016040519081016040528093929190818152602001838380828437600081840152601f19601f820116905080830192505050505050508b8b8080601f016020809104026020016040519081016040528093929190818152602001838380828437600081840152601f19601f8201169050808301925050505050505061b584565b5060068490806001815401808255809150509060018203906000526020600020016000909192909190916101000a81548173ffffffffffffffffffffffffffffffffffffffff021916908373ffffffffffffffffffffffffffffffffffffffff1602179055505061915884600061c90b565b508373ffffffffffffffffffffffffffffffffffffffff167fd09501348473474a20c772c79c653e1fd7e8b437e418fe235d277d2c8885325160405160405180910390a26001955050505050600154811461921b576040517f08c379a000000000000000000000000000000000000000000000000000000000815260040180806020018281038252600e8152602001807f7265656e7472616e742063616c6c00000000000000000000000000000000000081525060200191505060405180910390fd5b509695505050505050565b600061923184619f36565b6192a3576040517f08c379a000000000000000000000000000000000000000000000000000000000815260040180806020018281038252600f8152602001807f4e6f7420612076616c696461746f72000000000000000000000000000000000081525060200191505060405180910390fd5b6192ab616549565b831115619303576040517f08c379a000000000000000000000000000000000000000000000000000000000815260040180806020018281038252602381526020018061dbb96023913960400191505060405180910390fd5b6000600460008673ffffffffffffffffffffffffffffffffffffffff1673ffffffffffffffffffffffffffffffffffffffff16815260200190815260200160002060040190506193648160010154826000015461a97590919063ffffffff16565b83106193d8576040517f08c379a00000000000000000000000000000000000000000000000000000000081526004018080602001828103825260138152602001807f696e646578206f7574206f6620626f756e64730000000000000000000000000081525060200191505060405180910390fd5b806000015483101580156193f0575060008160010154115b619462576040517f08c379a00000000000000000000000000000000000000000000000000000000081526004018080602001828103825260138152602001807f696e646578206f7574206f6620626f756e64730000000000000000000000000081525060200191505060405180910390fd5b60008482600201600086815260200190815260200160002060000154149050600061949b6001846001015461a92b90919063ffffffff16565b6194b284600001548761a92b90919063ffffffff16565b149050600086846002016000888152602001908152602001600020600001541080156195105750868460020160006194f460018a61a97590919063ffffffff16565b815260200190815260200160002060000154118061950f5750815b5b9050828061951b5750805b619570576040517f08c379a000000000000000000000000000000000000000000000000000000000815260040180806020018281038252604781526020018061daa26047913960600191505060405180910390fd5b83600201600087815260200190815260200160002060010160009054906101000a900473ffffffffffffffffffffffffffffffffffffffff169450505050509392505050565b600080600087141580156195cb575060008514155b61963d576040517f08c379a00000000000000000000000000000000000000000000000000000000081526004018080602001828103825260158152602001807f612064656e6f6d696e61746f72206973207a65726f000000000000000000000081525060200191505060405180910390fd5b6000806000606060fc73ffffffffffffffffffffffffffffffffffffffff168c8c8c8c8c8c6040516020018087815260200186815260200185815260200184815260200183815260200182815260200196505050505050506040516020818303038152906040526040518082805190602001908083835b602083106196d757805182526020820191506020810190506020830392506196b4565b6001836020036101000a038019825116818451168082178552505050505050905001915050600060405180830381855afa9150503d8060008114619737576040519150601f19603f3d011682016040523d82523d6000602084013e61973c565b606091505b5080925081935050508161979b576040517f08c379a000000000000000000000000000000000000000000000000000000000815260040180806020018281038252602781526020018061dc226027913960400191505060405180910390fd5b6197a681600061a9fd565b93506197b381602061a9fd565b925083839550955050505050965096945050505050565b600060018060008282540192505081905550600060015490506197f36197ee61bbaa565b61aa14565b83111561984b576040517f08c379a000000000000000000000000000000000000000000000000000000000815260040180806020018281038252602581526020018061dd306025913960400191505060405180910390fd5b600061985561a3d1565b73ffffffffffffffffffffffffffffffffffffffff166364439b43336040518263ffffffff1660e01b8152600401808273ffffffffffffffffffffffffffffffffffffffff1673ffffffffffffffffffffffffffffffffffffffff16815260200191505060206040518083038186803b1580156198d157600080fd5b505afa1580156198e5573d6000803e3d6000fd5b505050506040513d60208110156198fb57600080fd5b8101908080519060200190929190505050905061991781619f36565b1561998a576040517f08c379a000000000000000000000000000000000000000000000000000000000815260040180806020018281038252601f8152602001807f416c726561647920726567697374657265642061732076616c696461746f720081525060200191505060405180910390fd5b61999381613a8c565b15619a06576040517f08c379a000000000000000000000000000000000000000000000000000000000815260040180806020018281038252601b8152602001807f416c726561647920726567697374657265642061732067726f7570000000000081525060200191505060405180910390fd5b6000619a1061c183565b73ffffffffffffffffffffffffffffffffffffffff166330ec70f5836040518263ffffffff1660e01b8152600401808273ffffffffffffffffffffffffffffffffffffffff1673ffffffffffffffffffffffffffffffffffffffff16815260200191505060206040518083038186803b158015619a8c57600080fd5b505afa158015619aa0573d6000803e3d6000fd5b505050506040513d6020811015619ab657600080fd5b81019080805190602001909291905050509050600960000154811015619b44576040517f08c379a00000000000000000000000000000000000000000000000000000000081526004018080602001828103825260168152602001807f4e6f7420656e6f756768206c6f636b656420676f6c640000000000000000000081525060200191505060405180910390fd5b6000600360008473ffffffffffffffffffffffffffffffffffffffff1673ffffffffffffffffffffffffffffffffffffffff168152602001908152602001600020905060018160000160006101000a81548160ff021916908315150217905550619bad8661b7cc565b81600501600082015181600001559050506040518060400160405280619bd161bbaa565b81526020016000815250816009016000820151816000016000820151816000015550506020820151816001015590505060058390806001815401808255809150509060018203906000526020600020016000909192909190916101000a81548173ffffffffffffffffffffffffffffffffffffffff021916908373ffffffffffffffffffffffffffffffffffffffff160217905550508273ffffffffffffffffffffffffffffffffffffffff167fbf4b45570f1907a94775f8449817051a492a676918e38108bb762e991e6b58dc876040518082815260200191505060405180910390a2600194505050506001548114619d33576040517f08c379a000000000000000000000000000000000000000000000000000000000815260040180806020018281038252600e8152602001807f7265656e7472616e742063616c6c00000000000000000000000000000000000081525060200191505060405180910390fd5b50919050565b6000619d43615ecc565b619db5576040517f08c379a00000000000000000000000000000000000000000000000000000000081526004018080602001828103825260208152602001807f4f776e61626c653a2063616c6c6572206973206e6f7420746865206f776e657281525060200191505060405180910390fd5b81600010619e0e576040517f08c379a000000000000000000000000000000000000000000000000000000000815260040180806020018281038252602881526020018061db916028913960400191505060405180910390fd5b600d54821415619e69576040517f08c379a000000000000000000000000000000000000000000000000000000000815260040180806020018281038252602581526020018061dbfd6025913960400191505060405180910390fd5b81600d819055507f1c75c7fb3ee9d13d8394372d8c7cdf1702fa947faa03f6ccfa500f787b09b48a826040518082815260200191505060405180910390a160019050919050565b619eb8615ecc565b619f2a576040517f08c379a00000000000000000000000000000000000000000000000000000000081526004018080602001828103825260208152602001807f4f776e61626c653a2063616c6c6572206973206e6f7420746865206f776e657281525060200191505060405180910390fd5b619f338161ba66565b50565b600080600460008473ffffffffffffffffffffffffffffffffffffffff1673ffffffffffffffffffffffffffffffffffffffff168152602001908152602001600020600001600101805460018160011615610100020316600290049050119050919050565b60006060600060f573ffffffffffffffffffffffffffffffffffffffff1684604051602001808281526020019150506040516020818303038152906040526040518082805190602001908083835b6020831061a00c5780518252602082019150602081019050602083039250619fe9565b6001836020036101000a038019825116818451168082178552505050505050905001915050600060405180830381855afa9150503d806000811461a06c576040519150601f19603f3d011682016040523d82523d6000602084013e61a071565b606091505b5080935081925050508061a0d0576040517f08c379a000000000000000000000000000000000000000000000000000000000815260040180806020018281038252602c81526020018061dc8f602c913960400191505060405180910390fd5b61a0db82600061b137565b92505050919050565b60006001806000828254019250508190555060006001549050600061a10761a3d1565b73ffffffffffffffffffffffffffffffffffffffff166364439b43336040518263ffffffff1660e01b8152600401808273ffffffffffffffffffffffffffffffffffffffff1673ffffffffffffffffffffffffffffffffffffffff16815260200191505060206040518083038186803b15801561a18357600080fd5b505afa15801561a197573d6000803e3d6000fd5b505050506040513d602081101561a1ad57600080fd5b8101908080519060200190929190505050905061a1c981619f36565b61a23b576040517f08c379a000000000000000000000000000000000000000000000000000000000815260040180806020018281038252600f8152602001807f4e6f7420612076616c696461746f72000000000000000000000000000000000081525060200191505060405180910390fd5b6000600460008373ffffffffffffffffffffffffffffffffffffffff1673ffffffffffffffffffffffffffffffffffffffff1681526020019081526020016000209050600073ffffffffffffffffffffffffffffffffffffffff168160020160009054906101000a900473ffffffffffffffffffffffffffffffffffffffff1673ffffffffffffffffffffffffffffffffffffffff16141561a345576040517f08c379a000000000000000000000000000000000000000000000000000000000815260040180806020018281038252601b8152602001807f6465616666696c696174653a206e6f7420616666696c6961746564000000000081525060200191505060405180910390fd5b61a34f818361bc1a565b50600193505050600154811461a3cd576040517f08c379a000000000000000000000000000000000000000000000000000000000815260040180806020018281038252600e8152602001807f7265656e7472616e742063616c6c00000000000000000000000000000000000081525060200191505060405180910390fd5b5090565b6000600260019054906101000a900473ffffffffffffffffffffffffffffffffffffffff1673ffffffffffffffffffffffffffffffffffffffff1663dcf0aaed60405160200180807f4163636f756e74730000000000000000000000000000000000000000000000008152506008019050604051602081830303815290604052805190602001206040518263ffffffff1660e01b81526004018082815260200191505060206040518083038186803b15801561a48c57600080fd5b505afa15801561a4a0573d6000803e3d6000fd5b505050506040513d602081101561a4b657600080fd5b8101908080519060200190929190505050905090565b600080600360008573ffffffffffffffffffffffffffffffffffffffff1673ffffffffffffffffffffffffffffffffffffffff16815260200190815260200160002090508373ffffffffffffffffffffffffffffffffffffffff16600460008573ffffffffffffffffffffffffffffffffffffffff1673ffffffffffffffffffffffffffffffffffffffff16815260200190815260200160002060020160009054906101000a900473ffffffffffffffffffffffffffffffffffffffff1673ffffffffffffffffffffffffffffffffffffffff161461a613576040517f08c379a00000000000000000000000000000000000000000000000000000000081526004018080602001828103825260178152602001807f4e6f7420616666696c696174656420746f2067726f757000000000000000000081525060200191505060405180910390fd5b8060010173__AddressLinkedList_____________________63542424fb9091856040518363ffffffff1660e01b8152600401808381526020018273ffffffffffffffffffffffffffffffffffffffff1673ffffffffffffffffffffffffffffffffffffffff1681526020019250505060206040518083038186803b15801561a69b57600080fd5b505af415801561a6af573d6000803e3d6000fd5b505050506040513d602081101561a6c557600080fd5b810190808051906020019092919050505061a748576040517f08c379a00000000000000000000000000000000000000000000000000000000081526004018080602001828103825260198152602001807f4e6f742061206d656d626572206f66207468652067726f75700000000000000081525060200191505060405180910390fd5b8060010173__AddressLinkedList_____________________63e2c0c56a9091856040518363ffffffff1660e01b8152600401808381526020018273ffffffffffffffffffffffffffffffffffffffff1673ffffffffffffffffffffffffffffffffffffffff1681526020019250505060006040518083038186803b15801561a7d057600080fd5b505af415801561a7e4573d6000803e3d6000fd5b50505050600081600101600201549050600081141561a89c5761a80561cd1c565b73ffffffffffffffffffffffffffffffffffffffff1663a8e45871866040518263ffffffff1660e01b8152600401808273ffffffffffffffffffffffffffffffffffffffff1673ffffffffffffffffffffffffffffffffffffffff168152602001915050600060405180830381600087803b15801561a88357600080fd5b505af115801561a897573d6000803e3d6000fd5b505050505b61a8a784600061c90b565b5061a8c58561a8c060018461a97590919063ffffffff16565b61ce17565b8373ffffffffffffffffffffffffffffffffffffffff168573ffffffffffffffffffffffffffffffffffffffff167fc7666a52a66ff601ff7c0d4d6efddc9ac20a34792f6aa003d1804c9d4d5baa5760405160405180910390a360019250505092915050565b600061a96d83836040518060400160405280601e81526020017f536166654d6174683a207375627472616374696f6e206f766572666c6f77000081525061cf40565b905092915050565b60008082840190508381101561a9f3576040517f08c379a000000000000000000000000000000000000000000000000000000000815260040180806020018281038252601b8152602001807f536166654d6174683a206164646974696f6e206f766572666c6f77000000000081525060200191505060405180910390fd5b8091505092915050565b600061aa09838361b137565b60001c905092915050565b600081600001519050919050565b600061aa2d85613a8c565b801561aa3e575061aa3d84619f36565b5b61aab0576040517f08c379a00000000000000000000000000000000000000000000000000000000081526004018080602001828103825260178152602001807f4e6f742076616c696461746f7220616e642067726f757000000000000000000081525060200191505060405180910390fd5b6000600360008773ffffffffffffffffffffffffffffffffffffffff1673ffffffffffffffffffffffffffffffffffffffff1681526020019081526020016000209050600e5481600101600201541061ab71576040517f08c379a000000000000000000000000000000000000000000000000000000000815260040180806020018281038252601f8152602001807f67726f757020776f756c6420657863656564206d6178696d756d2073697a650081525060200191505060405180910390fd5b8573ffffffffffffffffffffffffffffffffffffffff16600460008773ffffffffffffffffffffffffffffffffffffffff1673ffffffffffffffffffffffffffffffffffffffff16815260200190815260200160002060020160009054906101000a900473ffffffffffffffffffffffffffffffffffffffff1673ffffffffffffffffffffffffffffffffffffffff161461ac74576040517f08c379a00000000000000000000000000000000000000000000000000000000081526004018080602001828103825260178152602001807f4e6f7420616666696c696174656420746f2067726f757000000000000000000081525060200191505060405180910390fd5b8060010173__AddressLinkedList_____________________63542424fb9091876040518363ffffffff1660e01b8152600401808381526020018273ffffffffffffffffffffffffffffffffffffffff1673ffffffffffffffffffffffffffffffffffffffff1681526020019250505060206040518083038186803b15801561acfc57600080fd5b505af415801561ad10573d6000803e3d6000fd5b505050506040513d602081101561ad2657600080fd5b81019080805190602001909291905050501561adaa576040517f08c379a00000000000000000000000000000000000000000000000000000000081526004018080602001828103825260108152602001807f416c726561647920696e2067726f75700000000000000000000000000000000081525060200191505060405180910390fd5b600061adc76001836001016002015461a97590919063ffffffff16565b90508160010173__AddressLinkedList_____________________6326afac499091886040518363ffffffff1660e01b8152600401808381526020018273ffffffffffffffffffffffffffffffffffffffff1673ffffffffffffffffffffffffffffffffffffffff1681526020019250505060006040518083038186803b15801561ae5157600080fd5b505af415801561ae65573d6000803e3d6000fd5b5050505061ae72876179cc565b61aee4576040517f08c379a000000000000000000000000000000000000000000000000000000000815260040180806020018281038252601a8152602001807f47726f757020726571756972656d656e7473206e6f74206d657400000000000081525060200191505060405180910390fd5b61aeed866179cc565b61af5f576040517f08c379a000000000000000000000000000000000000000000000000000000000815260040180806020018281038252601e8152602001807f56616c696461746f7220726571756972656d656e7473206e6f74206d6574000081525060200191505060405180910390fd5b600181141561b06f5761af7061cd1c565b73ffffffffffffffffffffffffffffffffffffffff1663a18fb2db8887876040518463ffffffff1660e01b8152600401808473ffffffffffffffffffffffffffffffffffffffff1673ffffffffffffffffffffffffffffffffffffffff1681526020018373ffffffffffffffffffffffffffffffffffffffff1673ffffffffffffffffffffffffffffffffffffffff1681526020018273ffffffffffffffffffffffffffffffffffffffff1673ffffffffffffffffffffffffffffffffffffffff1681526020019350505050600060405180830381600087803b15801561b05657600080fd5b505af115801561b06a573d6000803e3d6000fd5b505050505b61b079868861c90b565b5061b0978761b09260018461a92b90919063ffffffff16565b61ce17565b8573ffffffffffffffffffffffffffffffffffffffff168773ffffffffffffffffffffffffffffffffffffffff167fbdf7e616a6943f81e07a7984c9d4c00197dc2f481486ce4ffa6af52a113974ad60405160405180910390a3600192505050949350505050565b60008082848161b10b57fe5b049050600083858161b11957fe5b06141561b129578091505061b131565b600181019150505b92915050565b6000602082018351101561b1b3576040517f08c379a00000000000000000000000000000000000000000000000000000000081526004018080602001828103825260148152602001807f736c6963696e67206f7574206f662072616e676500000000000000000000000081525060200191505060405180910390fd5b60006020830184015190508091505092915050565b6000604082511461b241576040517f08c379a000000000000000000000000000000000000000000000000000000000815260040180806020018281038252601d8152602001807f57726f6e67204543445341207075626c6963206b6579206c656e67746800000081525060200191505060405180910390fd5b8273ffffffffffffffffffffffffffffffffffffffff16828051906020012060001c73ffffffffffffffffffffffffffffffffffffffff161461b2ec576040517f08c379a000000000000000000000000000000000000000000000000000000000815260040180806020018281038252601f8152602001807f4543445341206b657920646f6573206e6f74206d61746368207369676e65720081525060200191505060405180910390fd5b8185600001600001908051906020019061b30792919061d81d565b508373ffffffffffffffffffffffffffffffffffffffff167f213377eec2c15b21fa7abcbb0cb87a67e893cdb94a2564aa4bb4d380869473c8836040518080602001828103825283818151815260200191508051906020019080838360005b8381101561b38157808201518184015260208101905061b366565b50505050905090810190601f16801561b3ae5780820380516001836020036101000a031916815260200191505b509250505060405180910390a260019050949350505050565b82805490508110801561b43b57508173ffffffffffffffffffffffffffffffffffffffff1683828154811061b3f857fe5b9060005260206000200160009054906101000a900473ffffffffffffffffffffffffffffffffffffffff1673ffffffffffffffffffffffffffffffffffffffff16145b61b490576040517f08c379a000000000000000000000000000000000000000000000000000000000815260040180806020018281038252602181526020018061dc496021913960400191505060405180910390fd5b600061b4aa6001858054905061a92b90919063ffffffff16565b905083818154811061b4b857fe5b9060005260206000200160009054906101000a900473ffffffffffffffffffffffffffffffffffffffff1684838154811061b4ef57fe5b9060005260206000200160006101000a81548173ffffffffffffffffffffffffffffffffffffffff021916908373ffffffffffffffffffffffffffffffffffffffff16021790555083818154811061b54357fe5b9060005260206000200160006101000a81549073ffffffffffffffffffffffffffffffffffffffff021916905580848161b57d919061d89d565b5050505050565b6000606083511461b5fd576040517f08c379a000000000000000000000000000000000000000000000000000000000815260040180806020018281038252601b8152602001807f57726f6e6720424c53207075626c6963206b6579206c656e677468000000000081525060200191505060405180910390fd5b603082511461b674576040517f08c379a00000000000000000000000000000000000000000000000000000000081526004018080602001828103825260148152602001807f57726f6e6720424c5320506f50206c656e67746800000000000000000000000081525060200191505060405180910390fd5b61b67f848484612d3c565b61b6f1576040517f08c379a000000000000000000000000000000000000000000000000000000000815260040180806020018281038252600f8152602001807f496e76616c696420424c5320506f50000000000000000000000000000000000081525060200191505060405180910390fd5b8285600001600101908051906020019061b70c92919061d81d565b508373ffffffffffffffffffffffffffffffffffffffff167f36a1aabe506bbe8802233cbb9aad628e91269e77077c953f9db3e02d7092ee33846040518080602001828103825283818151815260200191508051906020019080838360005b8381101561b78657808201518184015260208101905061b76b565b50505050905090810190601f16801561b7b35780820380516001836020036101000a031916815260200191505b509250505060405180910390a260019050949350505050565b61b7d461d7c2565b6040518060200160405280838152509050919050565b61b7f261d7c2565b600082600001518460000151019050836000015181101561b87b576040517f08c379a00000000000000000000000000000000000000000000000000000000081526004018080602001828103825260158152602001807f616464206f766572666c6f77206465746563746564000000000000000000000081525060200191505060405180910390fd5b60405180602001604052808281525091505092915050565b61b89b61d7c2565b61b8a361d000565b82111561b8fb576040517f08c379a000000000000000000000000000000000000000000000000000000000815260040180806020018281038252603681526020018061da476036913960400191505060405180910390fd5b604051806020016040528069d3c21bcecceda100000084028152509050919050565b61b92561d7c2565b60008260000151141561b9a0576040517f08c379a00000000000000000000000000000000000000000000000000000000081526004018080602001828103825260118152602001807f63616e277420646976696465206279203000000000000000000000000000000081525060200191505060405180910390fd5b600069d3c21bcecceda10000008460000151029050836000015169d3c21bcecceda1000000828161b9cd57fe5b041461ba41576040517f08c379a00000000000000000000000000000000000000000000000000000000081526004018080602001828103825260128152602001807f6f766572666c6f7720617420646976696465000000000000000000000000000081525060200191505060405180910390fd5b60405180602001604052808460000151838161ba5957fe5b0481525091505092915050565b600073ffffffffffffffffffffffffffffffffffffffff168173ffffffffffffffffffffffffffffffffffffffff16141561baec576040517f08c379a000000000000000000000000000000000000000000000000000000000815260040180806020018281038252602681526020018061d9406026913960400191505060405180910390fd5b8073ffffffffffffffffffffffffffffffffffffffff166000809054906101000a900473ffffffffffffffffffffffffffffffffffffffff1673ffffffffffffffffffffffffffffffffffffffff167f8be0079c531659141344cd1fd0a4f28419497f9722a3daafe3b4186f6b6457e060405160405180910390a3806000806101000a81548173ffffffffffffffffffffffffffffffffffffffff021916908373ffffffffffffffffffffffffffffffffffffffff16021790555050565b61bbb261d7c2565b604051806020016040528069d3c21bcecceda1000000815250905090565b600033905090565b61bbe061d7c2565b61bbe861d7c2565b61bbf18461b893565b905061bbfb61d7c2565b61bc048461b893565b905061bc10828261b91d565b9250505092915050565b6000808360020160009054906101000a900473ffffffffffffffffffffffffffffffffffffffff1690506000600360008373ffffffffffffffffffffffffffffffffffffffff1673ffffffffffffffffffffffffffffffffffffffff16815260200190815260200160002090508060010173__AddressLinkedList_____________________63542424fb9091866040518363ffffffff1660e01b8152600401808381526020018273ffffffffffffffffffffffffffffffffffffffff1673ffffffffffffffffffffffffffffffffffffffff1681526020019250505060206040518083038186803b15801561bd0f57600080fd5b505af415801561bd23573d6000803e3d6000fd5b505050506040513d602081101561bd3957600080fd5b81019080805190602001909291905050501561bd5b5761bd59828561a4cc565b505b60008560020160006101000a81548173ffffffffffffffffffffffffffffffffffffffff021916908373ffffffffffffffffffffffffffffffffffffffff1602179055508173ffffffffffffffffffffffffffffffffffffffff168473ffffffffffffffffffffffffffffffffffffffff167f71815121f0622b31a3e7270eb28acb9fd10825ff418c9a18591f617bb8a31a6c60405160405180910390a360019250505092915050565b600061be0f61a3d1565b73ffffffffffffffffffffffffffffffffffffffff166393c5c487846040518263ffffffff1660e01b8152600401808273ffffffffffffffffffffffffffffffffffffffff1673ffffffffffffffffffffffffffffffffffffffff16815260200191505060206040518083038186803b15801561be8b57600080fd5b505afa15801561be9f573d6000803e3d6000fd5b505050506040513d602081101561beb557600080fd5b8101908080519060200190929190505050905061bed181619f36565b61bf43576040517f08c379a000000000000000000000000000000000000000000000000000000000815260040180806020018281038252600f8152602001807f4e6f7420612076616c696461746f72000000000000000000000000000000000081525060200191505060405180910390fd5b61bf4b61d7c2565b61bf5c61bf5784615f2a565b61b7cc565b905061bf6661d7c2565b61bf9282600b60010160405180602001604052908160008201548152505061d01f90919063ffffffff16565b905061bf9c61d7c2565b61bfcf600b60010160405180602001604052908160008201548152505061bfc161bbaa565b61d47e90919063ffffffff16565b905061c03a600460008673ffffffffffffffffffffffffffffffffffffffff1673ffffffffffffffffffffffffffffffffffffffff1681526020019081526020016000206003016040518060200160405290816000820154815250508261d01f90919063ffffffff16565b905061c07061c06b61c04b8561aa14565b61c06661c061858761b7ea90919063ffffffff16565b61aa14565b61d525565b61b7cc565b600460008673ffffffffffffffffffffffffffffffffffffffff1673ffffffffffffffffffffffffffffffffffffffff168152602001908152602001600020600301600082015181600001559050508373ffffffffffffffffffffffffffffffffffffffff167fedf9f87e50e10c533bf3ae7f5a7894ae66c23e6cbbe8773d7765d20ad6f995e961c156600460008873ffffffffffffffffffffffffffffffffffffffff1673ffffffffffffffffffffffffffffffffffffffff16815260200190815260200160002060030160405180602001604052908160008201548152505061aa14565b61c15f8661aa14565b604051808381526020018281526020019250505060405180910390a2505050505050565b6000600260019054906101000a900473ffffffffffffffffffffffffffffffffffffffff1673ffffffffffffffffffffffffffffffffffffffff1663dcf0aaed60405160200180807f4c6f636b6564476f6c6400000000000000000000000000000000000000000000815250600a019050604051602081830303815290604052805190602001206040518263ffffffff1660e01b81526004018082815260200191505060206040518083038186803b15801561c23e57600080fd5b505afa15801561c252573d6000803e3d6000fd5b505050506040513d602081101561c26857600080fd5b8101908080519060200190929190505050905090565b600061c2c083836040518060400160405280601a81526020017f536166654d6174683a206469766973696f6e206279207a65726f00000000000081525061d53e565b905092915050565b60008160000151836000015114905092915050565b60008061c2e861a3d1565b73ffffffffffffffffffffffffffffffffffffffff166393c5c487856040518263ffffffff1660e01b8152600401808273ffffffffffffffffffffffffffffffffffffffff1673ffffffffffffffffffffffffffffffffffffffff16815260200191505060206040518083038186803b15801561c36457600080fd5b505afa15801561c378573d6000803e3d6000fd5b505050506040513d602081101561c38e57600080fd5b8101908080519060200190929190505050905061c3aa81619f36565b61c41c576040517f08c379a000000000000000000000000000000000000000000000000000000000815260040180806020018281038252600f8152602001807f4e6f7420612076616c696461746f72000000000000000000000000000000000081525060200191505060405180910390fd5b600061c42782612761565b9050600073ffffffffffffffffffffffffffffffffffffffff168173ffffffffffffffffffffffffffffffffffffffff16141561c4af576040517f08c379a000000000000000000000000000000000000000000000000000000000815260040180806020018281038252602581526020018061da7d6025913960400191505060405180910390fd5b61c4b8826179cc565b801561c4c9575061c4c8816179cc565b5b1561c85e5761c4d661d7c2565b61c5b2600360008473ffffffffffffffffffffffffffffffffffffffff1673ffffffffffffffffffffffffffffffffffffffff16815260200190815260200160002060090160000160405180602001604052908160008201548152505061c5a4600460008773ffffffffffffffffffffffffffffffffffffffff1673ffffffffffffffffffffffffffffffffffffffff16815260200190815260200160002060030160405180602001604052908160008201548152505061c5968961b893565b61d01f90919063ffffffff16565b61d01f90919063ffffffff16565b9050600061c62761c622600360008673ffffffffffffffffffffffffffffffffffffffff1673ffffffffffffffffffffffffffffffffffffffff1681526020019081526020016000206005016040518060200160405290816000820154815250508461d01f90919063ffffffff16565b61d604565b9050600061c6468261c6388561d604565b61a92b90919063ffffffff16565b905061c65061d625565b73ffffffffffffffffffffffffffffffffffffffff166340c10f1985846040518363ffffffff1660e01b8152600401808373ffffffffffffffffffffffffffffffffffffffff1673ffffffffffffffffffffffffffffffffffffffff16815260200182815260200192505050602060405180830381600087803b15801561c6d657600080fd5b505af115801561c6ea573d6000803e3d6000fd5b505050506040513d602081101561c70057600080fd5b81019080805190602001909291905050505061c71a61d625565b73ffffffffffffffffffffffffffffffffffffffff166340c10f1986836040518363ffffffff1660e01b8152600401808373ffffffffffffffffffffffffffffffffffffffff1673ffffffffffffffffffffffffffffffffffffffff16815260200182815260200192505050602060405180830381600087803b15801561c7a057600080fd5b505af115801561c7b4573d6000803e3d6000fd5b505050506040513d602081101561c7ca57600080fd5b8101908080519060200190929190505050508373ffffffffffffffffffffffffffffffffffffffff168573ffffffffffffffffffffffffffffffffffffffff167f6f5937add2ec38a0fa4959bccd86e3fcc2aafb706cd3e6c0565f87a7b36b99758385604051808381526020018281526020019250505060405180910390a361c8528361d604565b9550505050505061c865565b6000925050505b92915050565b60008183101561c87b578161c87d565b825b905092915050565b60008083141561c898576000905061c905565b600082840290508284828161c8a957fe5b041461c900576040517f08c379a000000000000000000000000000000000000000000000000000000000815260040180806020018281038252602181526020018061dbdc6021913960400191505060405180910390fd5b809150505b92915050565b600080600460008573ffffffffffffffffffffffffffffffffffffffff1673ffffffffffffffffffffffffffffffffffffffff1681526020019081526020016000206004019050600061c95c616549565b905060008083600101541461c99e5761c99961c9866001856001015461a92b90919063ffffffff16565b846000015461a97590919063ffffffff16565b61c9a1565b60005b90506000836001015411801561c9e35750600073ffffffffffffffffffffffffffffffffffffffff168573ffffffffffffffffffffffffffffffffffffffff16145b1561c9f2574283600301819055505b8183600201600083815260200190815260200160002060000154141561cab25760405180604001604052808381526020018673ffffffffffffffffffffffffffffffffffffffff168152508360020160008381526020019081526020016000206000820151816000015560208201518160010160006101000a81548173ffffffffffffffffffffffffffffffffffffffff021916908373ffffffffffffffffffffffffffffffffffffffff1602179055509050506001935050505061cd16565b60008084600101541461cad85761cad360018361a97590919063ffffffff16565b61cadb565b60005b905060405180604001604052808481526020018773ffffffffffffffffffffffffffffffffffffffff168152508460020160008381526020019081526020016000206000820151816000015560208201518160010160006101000a81548173ffffffffffffffffffffffffffffffffffffffff021916908373ffffffffffffffffffffffffffffffffffffffff160217905550905050600d548460010154101561cba45761cb976001856001015461a97590919063ffffffff16565b846001018190555061cd0d565b600d548460010154141561cc2257836002016000856000015481526020019081526020016000206000808201600090556001820160006101000a81549073ffffffffffffffffffffffffffffffffffffffff0219169055505061cc156001856000015461a97590919063ffffffff16565b846000018190555061cd0c565b836002016000856000015481526020019081526020016000206000808201600090556001820160006101000a81549073ffffffffffffffffffffffffffffffffffffffff0219169055505083600201600061cc8b6001876000015461a97590919063ffffffff16565b81526020019081526020016000206000808201600090556001820160006101000a81549073ffffffffffffffffffffffffffffffffffffffff0219169055505061cce36001856001015461a92b90919063ffffffff16565b846001018190555061cd036002856000015461a97590919063ffffffff16565b84600001819055505b5b60019450505050505b92915050565b6000600260019054906101000a900473ffffffffffffffffffffffffffffffffffffffff1673ffffffffffffffffffffffffffffffffffffffff1663dcf0aaed60405160200180807f456c656374696f6e0000000000000000000000000000000000000000000000008152506008019050604051602081830303815290604052805190602001206040518263ffffffff1660e01b81526004018082815260200191505060206040518083038186803b15801561cdd757600080fd5b505afa15801561cdeb573d6000803e3d6000fd5b505050506040513d602081101561ce0157600080fd5b8101908080519060200190929190505050905090565b6000600360008473ffffffffffffffffffffffffffffffffffffffff1673ffffffffffffffffffffffffffffffffffffffff1681526020019081526020016000206008019050808054905082141561ce99578042908060018154018082558091505090600182039060005260206000200160009091929091909150555061cf3b565b808054905082101561cec5574281838154811061ceb257fe5b906000526020600020018190555061cf3a565b600061cf39576040517f08c379a000000000000000000000000000000000000000000000000000000000815260040180806020018281038252601d8152602001807f556e61626c6520746f207570646174652073697a6520686973746f727900000081525060200191505060405180910390fd5b5b5b505050565b600083831115829061cfed576040517f08c379a00000000000000000000000000000000000000000000000000000000081526004018080602001828103825283818151815260200191508051906020019080838360005b8381101561cfb257808201518184015260208101905061cf97565b50505050905090810190601f16801561cfdf5780820380516001836020036101000a031916815260200191505b509250505060405180910390fd5b5060008385039050809150509392505050565b60007601357c299a88ea76a58924d52ce4f26a85af186c2b9e74905090565b61d02761d7c2565b60008360000151148061d03e575060008260000151145b1561d05a5760405180602001604052806000815250905061d478565b69d3c21bcecceda10000008260000151141561d0785782905061d478565b69d3c21bcecceda10000008360000151141561d0965781905061d478565b600069d3c21bcecceda100000061d0ac8561d720565b600001518161d0b757fe5b049050600061d0c58561d757565b600001519050600069d3c21bcecceda100000061d0e18661d720565b600001518161d0ec57fe5b049050600061d0fa8661d757565b600001519050600082850290506000851461d18e578285828161d11957fe5b041461d18d576040517f08c379a00000000000000000000000000000000000000000000000000000000081526004018080602001828103825260168152602001807f6f766572666c6f7720783179312064657465637465640000000000000000000081525060200191505060405180910390fd5b5b600069d3c21bcecceda1000000820290506000821461d2305769d3c21bcecceda100000082828161d1bb57fe5b041461d22f576040517f08c379a000000000000000000000000000000000000000000000000000000000815260040180806020018281038252601f8152602001807f6f766572666c6f772078317931202a206669786564312064657465637465640081525060200191505060405180910390fd5b5b809150600084860290506000861461d2c1578486828161d24c57fe5b041461d2c0576040517f08c379a00000000000000000000000000000000000000000000000000000000081526004018080602001828103825260168152602001807f6f766572666c6f7720783279312064657465637465640000000000000000000081525060200191505060405180910390fd5b5b600084880290506000881461d34f578488828161d2da57fe5b041461d34e576040517f08c379a00000000000000000000000000000000000000000000000000000000081526004018080602001828103825260168152602001807f6f766572666c6f7720783179322064657465637465640000000000000000000081525060200191505060405180910390fd5b5b61d35761d794565b878161d35f57fe5b04965061d36a61d794565b858161d37257fe5b049450600085880290506000881461d403578588828161d38e57fe5b041461d402576040517f08c379a00000000000000000000000000000000000000000000000000000000081526004018080602001828103825260168152602001807f6f766572666c6f7720783279322064657465637465640000000000000000000081525060200191505060405180910390fd5b5b61d40b61d7c2565b604051806020016040528087815250905061d4348160405180602001604052808781525061b7ea565b905061d44e8160405180602001604052808681525061b7ea565b905061d4688160405180602001604052808581525061b7ea565b9050809a50505050505050505050505b92915050565b61d48661d7c2565b81600001518360000151101561d504576040517f08c379a000000000000000000000000000000000000000000000000000000000815260040180806020018281038252601f8152602001807f737562737472616374696f6e20756e646572666c6f772064657465637465640081525060200191505060405180910390fd5b60405180602001604052808360000151856000015103815250905092915050565b600081831061d534578161d536565b825b905092915050565b6000808311829061d5ea576040517f08c379a00000000000000000000000000000000000000000000000000000000081526004018080602001828103825283818151815260200191508051906020019080838360005b8381101561d5af57808201518184015260208101905061d594565b50505050905090810190601f16801561d5dc5780820380516001836020036101000a031916815260200191505b509250505060405180910390fd5b50600083858161d5f657fe5b049050809150509392505050565b600069d3c21bcecceda100000082600001518161d61d57fe5b049050919050565b6000600260019054906101000a900473ffffffffffffffffffffffffffffffffffffffff1673ffffffffffffffffffffffffffffffffffffffff1663dcf0aaed60405160200180807f537461626c65546f6b656e000000000000000000000000000000000000000000815250600b019050604051602081830303815290604052805190602001206040518263ffffffff1660e01b81526004018082815260200191505060206040518083038186803b15801561d6e057600080fd5b505afa15801561d6f4573d6000803e3d6000fd5b505050506040513d602081101561d70a57600080fd5b8101908080519060200190929190505050905090565b61d72861d7c2565b604051806020016040528069d3c21bcecceda10000008085600001518161d74b57fe5b04028152509050919050565b61d75f61d7c2565b604051806020016040528069d3c21bcecceda10000008085600001518161d78257fe5b04028460000151038152509050919050565b600064e8d4a51000905090565b508054600082559060005260206000209081019061d7bf919061d8c9565b50565b6040518060200160405280600081525090565b50805460018160011615610100020316600290046000825580601f1061d7fb575061d81a565b601f01602090049060005260206000209081019061d819919061d8c9565b5b50565b828054600181600116156101000203166002900490600052602060002090601f016020900481019282601f1061d85e57805160ff191683800117855561d88c565b8280016001018555821561d88c579182015b8281111561d88b57825182559160200191906001019061d870565b5b50905061d899919061d8c9565b5090565b81548183558181111561d8c45781836000526020600020918201910161d8c3919061d8c9565b5b505050565b61d8eb91905b8082111561d8e757600081600090555060010161d8cf565b5090565b9056fe56616c696461746f7220646f65736e2774206d65657420726571756972656d656e74736572726f722063616c6c696e67206e756d62657256616c696461746f7273496e53657420707265636f6d70696c654f776e61626c653a206e6577206f776e657220697320746865207a65726f2061646472657373607265736574536c617368696e674d756c7469706c696572602063616c6c6564206265666f7265207265736574506572696f64206578706972656443616e2774206170706c7920636f6d6d697373696f6e2075706461746520796574557074696d65206172726179206c6172676572207468616e206d6178696d756d2067726f75702073697a6556616c696461746f7220726571756972656d656e7473206e6f74206368616e6765646572726f722063616c6c696e672067657456657269666965645365616c4269746d617046726f6d48656164657220707265636f6d70696c6563616e277420637265617465206669786964697479206e756d626572206c6172676572207468616e206d61784e65774669786564282956616c696461746f72206e6f742072656769737465726564207769746820612067726f757070726f766964656420696e64657820646f6573206e6f74206d617463682070726f76696465642065706f63684e756d62657220617420696e64657820696e20686973746f72792e6572726f722063616c6c696e672076616c696461746f725369676e65724164647265737346726f6d43757272656e7453657420707265636f6d70696c656572726f722063616c6c696e67206e756d62657256616c696461746f7273496e43757272656e7453657420707265636f6d70696c656572726f722063616c6c696e672076616c696461746f725369676e65724164647265737346726f6d53657420707265636f6d70696c654d656d6265727368697020686973746f7279206c656e6774682063616e6e6f74206265207a65726f45706f63682063616e6e6f74206265206c6172676572207468616e2063757272656e74536166654d6174683a206d756c7469706c69636174696f6e206f766572666c6f774d656d6265727368697020686973746f7279206c656e677468206e6f74206368616e6765646572726f722063616c6c696e67206672616374696f6e4d756c45787020707265636f6d70696c6564656c657465456c656d656e743a20696e646578206f7574206f662072616e67656572726f722063616c6c696e672067657445706f636853697a6520707265636f6d70696c656572726f722063616c6c696e6720676574506172656e745365616c4269746d617020707265636f6d70696c65636f6d6d697373696f6e207570646174652064656c6179206e6f74206368616e6765646572726f722063616c6c696e6720676574426c6f636b4e756d62657246726f6d48656164657220707265636f6d70696c654861736e2774206265656e20656d70747920666f72206c6f6e6720656e6f756768436f6d6d697373696f6e2063616e27742062652067726561746572207468616e203130302541646a7573746d656e742073706565642063616e6e6f74206265206c6172676572207468616e20316572726f722063616c6c696e67206861736848656164657220707265636f6d70696c6541646a7573746d656e7420737065656420616e64206578706f6e656e74206e6f74206368616e676564a165627a7a723058202c8be38a796c12cd36fecdbc6c140e527db1c28b6303635a51171afdfa1190c50029",
  "source": "pragma solidity ^0.5.8;\n\nimport \"../Validators.sol\";\nimport \"../../common/FixidityLib.sol\";\n\n/**\n * @title A wrapper around Validators that exposes onlyVm functions for testing.\n */\ncontract ValidatorsTest is Validators {\n  function updateValidatorScoreFromSigner(address signer, uint256 uptime) external {\n    return _updateValidatorScoreFromSigner(signer, uptime);\n  }\n\n  function distributeEpochPaymentsFromSigner(address signer, uint256 maxPayment)\n    external\n    returns (uint256)\n  {\n    return _distributeEpochPaymentsFromSigner(signer, maxPayment);\n  }\n}\n",
  "sourcePath": "/Users/cmcewen/celo/celo-monorepo/packages/protocol/contracts/governance/test/ValidatorsTest.sol",
  "compiler": {
    "name": "solc",
    "version": "0.5.8+commit.23d335f2.Emscripten.clang"
  },
  "schemaVersion": "3.0.10",
  "updatedAt": "2020-04-09T23:12:53.167Z",
  "devdoc": {
    "methods": {
      "addFirstMember(address,address,address)": {
        "details": "Fails if `validator` has not set their affiliation to this account.Fails if the group has > 0 members.",
        "params": {
          "greater": "The address of the group that has received more votes than this group.",
          "lesser": "The address of the group that has received fewer votes than this group.",
          "validator": "The validator to add to the group"
        },
        "return": "True upon success."
      },
      "addMember(address)": {
        "details": "Fails if `validator` has not set their affiliation to this account.Fails if the group has zero members.",
        "params": {
          "validator": "The validator to add to the group"
        },
        "return": "True upon success."
      },
      "affiliate(address)": {
        "details": "De-affiliates with the previously affiliated group if present.",
        "params": {
          "group": "The validator group with which to affiliate."
        },
        "return": "True upon success."
      },
      "calculateEpochScore(uint256)": {
        "details": "epoch_score = uptime ** exponent",
        "params": {
          "uptime": "The Fixidity representation of the validator's uptime, between 0 and 1."
        },
        "return": "Fixidity representation of the epoch score between 0 and 1."
      },
      "calculateGroupEpochScore(uint256[])": {
        "details": "group_score = average(uptimes ** exponent)",
        "params": {
          "uptimes": "Array of Fixidity representations of the validators' uptimes, between 0 and 1."
        },
        "return": "Fixidity representation of the group epoch score between 0 and 1."
      },
      "checkProofOfPossession(address,bytes,bytes)": {
        "params": {
          "blsKey": "The BLS public key that the validator is using for consensus, should pass proof  of possession. 48 bytes.",
          "blsPop": "The BLS public key proof-of-possession, which consists of a signature on the  account address. 96 bytes.",
          "sender": "The address signed by the BLS key to generate the proof of possession."
        },
        "return": "True upon success."
      },
      "deaffiliate()": {
        "details": "Fails if the account is not a validator with non-zero affiliation.",
        "return": "True upon success."
      },
      "deregisterValidator(uint256)": {
        "details": "Fails if the account is not a validator.Fails if the validator has been a member of a group too recently.",
        "params": {
          "index": "The index of this validator in the list of all registered validators."
        },
        "return": "True upon success."
      },
      "deregisterValidatorGroup(uint256)": {
        "details": "Fails if the account is not a validator group with no members.Fails if the group has had members too recently.",
        "params": {
          "index": "The index of this validator group in the list of all validator groups."
        },
        "return": "True upon success."
      },
      "forceDeaffiliateIfValidator(address)": {
        "params": {
          "validatorAccount": "The validator to deaffiliate from their affiliated validator group."
        }
      },
      "fractionMulExp(uint256,uint256,uint256,uint256,uint256,uint256)": {
        "params": {
          "_decimals": "precision",
          "aDenominator": "Denominator of first fraction",
          "aNumerator": "Numerator of first fraction",
          "bDenominator": "Denominator of exponentiated fraction",
          "bNumerator": "Numerator of exponentiated fraction",
          "exponent": "exponent to raise b to"
        },
        "return": "numerator/denominator of the computed quantity (not reduced)."
      },
      "getAccountLockedGoldRequirement(address)": {
        "params": {
          "account": "The account that may have to meet locked gold balance requirements."
        },
        "return": "The current locked gold balance requirement for the supplied account."
      },
      "getBlockNumberFromHeader(bytes)": {
        "params": {
          "header": "RLP encoded header"
        },
        "return": "Block number."
      },
      "getCommissionUpdateDelay()": {
        "return": "The block delay for a ValidatorGroup's commission udpdate."
      },
      "getEpochNumber()": {
        "return": "Current epoch number."
      },
      "getEpochNumberOfBlock(uint256)": {
        "params": {
          "blockNumber": "Block number where epoch number is calculated."
        },
        "return": "Epoch number."
      },
      "getEpochSize()": {
        "return": "The current epoch size in blocks."
      },
      "getGroupLockedGoldRequirements()": {
        "return": "The Locked Gold requirements for validator groups."
      },
      "getGroupNumMembers(address)": {
        "params": {
          "account": "The address of the validator group."
        },
        "return": "The number of members in a validator group."
      },
      "getGroupsNumMembers(address[])": {
        "params": {
          "accounts": "The addresses of the validator groups."
        },
        "return": "The number of members in the provided validator groups."
      },
      "getMaxGroupSize()": {
        "return": "The maximum number of members a group can add."
      },
      "getMembershipHistory(address)": {
        "params": {
          "account": "The validator whose membership history to return."
        },
        "return": "The group membership history of a validator."
      },
      "getMembershipInLastEpoch(address)": {
        "params": {
          "account": "The account whose group membership should be returned."
        },
        "return": "The group that `account` was a member of at the end of the last epoch."
      },
      "getMembershipInLastEpochFromSigner(address)": {
        "params": {
          "signer": "The signer of the account whose group membership should be returned."
        },
        "return": "The group that `account` was a member of at the end of the last epoch."
      },
      "getNumRegisteredValidators()": {
        "return": "The number of registered validators."
      },
      "getParentSealBitmap(uint256)": {
        "params": {
          "blockNumber": "Block number to retrieve. Must be within 4 epochs of the current number."
        },
        "return": "Bitmap parent seal with set bits at indices corresponding to signing validators."
      },
      "getRegisteredValidatorGroups()": {
        "return": "The list of registered validator group addresses."
      },
      "getRegisteredValidatorSigners()": {
        "return": "The list of signers for registered validator accounts."
      },
      "getRegisteredValidators()": {
        "return": "The list of registered validator accounts."
      },
      "getTopGroupValidators(address,uint256)": {
        "params": {
          "account": "The address of the validator group.",
          "n": "The number of members to return."
        },
        "return": "The top n group members for a particular group."
      },
      "getValidator(address)": {
        "params": {
          "account": "The account that registered the validator."
        },
        "return": "The unpacked validator struct."
      },
      "getValidatorBlsPublicKeyFromSigner(address)": {
        "params": {
          "signer": "The account that registered the validator or its authorized signing address."
        },
        "return": "The validator BLS key."
      },
      "getValidatorGroup(address)": {
        "params": {
          "account": "The account that registered the validator group."
        },
        "return": "The unpacked validator group struct."
      },
      "getValidatorGroupSlashingMultiplier(address)": {
        "params": {
          "account": "The group to fetch slashing multiplier for."
        }
      },
      "getValidatorLockedGoldRequirements()": {
        "return": "The Locked Gold requirements for validators."
      },
      "getValidatorScoreParameters()": {
        "return": "The parameters that goven how a validator's score is calculated."
      },
      "getVerifiedSealBitmapFromHeader(bytes)": {
        "params": {
          "header": "RLP encoded header"
        },
        "return": "Bitmap parent seal with set bits at indices correspoinding to signing validators."
      },
      "groupMembershipInEpoch(address,uint256,uint256)": {
        "params": {
          "account": "The account whose group membership should be returned.",
          "epochNumber": "The epoch number we are querying this account's membership at.",
          "index": "The index into the validator's history struct for their history at `epochNumber`."
        },
        "return": "The group that `account` was a member of during `epochNumber`."
      },
      "halveSlashingMultiplier(address)": {
        "params": {
          "account": "The group being slashed."
        }
      },
      "hashHeader(bytes)": {
        "params": {
          "header": "RLP encoded header"
        },
        "return": "Header hash."
      },
      "initialize(address,uint256,uint256,uint256,uint256,uint256,uint256,uint256,uint256,uint256,uint256)": {
        "details": "Should be called only once.",
        "params": {
          "_commissionUpdateDelay": "The number of blocks to delay a ValidatorGroup's commission update.",
          "_maxGroupSize": "The maximum group size.",
          "_membershipHistoryLength": "The max number of entries for validator membership history.",
          "groupRequirementDuration": "The Locked Gold requirement duration for groups.",
          "groupRequirementValue": "The Locked Gold requirement amount for groups.",
          "registryAddress": "The address of the registry core smart contract.",
          "validatorRequirementDuration": "The Locked Gold requirement duration for validators.",
          "validatorRequirementValue": "The Locked Gold requirement amount for validators.",
          "validatorScoreAdjustmentSpeed": "The speed at which validator scores are adjusted.",
          "validatorScoreExponent": "The exponent used in calculating validator scores."
        }
      },
      "isOwner()": {
        "details": "Returns true if the caller is the current owner."
      },
      "isValidator(address)": {
        "params": {
          "account": "The account."
        },
        "return": "Whether a particular address is a registered validator."
      },
      "isValidatorGroup(address)": {
        "params": {
          "account": "The account."
        },
        "return": "Whether a particular address is a registered validator group."
      },
      "meetsAccountLockedGoldRequirements(address)": {
        "params": {
          "account": "The address of the account."
        },
        "return": "Whether or not an account meets its Locked Gold requirements."
      },
      "minQuorumSize(uint256)": {
        "details": "Computed in celo-blockchain as int(math.Ceil(float64(2*valSet.Size()) / 3))"
      },
      "minQuorumSizeInCurrentSet()": {
        "return": "Byzantine quorum of validators."
      },
      "numberValidatorsInCurrentSet()": {
        "return": "Size of the current elected validator set."
      },
      "numberValidatorsInSet(uint256)": {
        "params": {
          "blockNumber": "Block number to retrieve the validator set from."
        },
        "return": "Size of the validator set."
      },
      "owner()": {
        "details": "Returns the address of the current owner."
      },
      "registerValidator(bytes,bytes,bytes)": {
        "details": "Fails if the account is already a validator or validator group.Fails if the account does not have sufficient Locked Gold.",
        "params": {
          "blsPop": "The BLS public key proof-of-possession, which consists of a signature on the  account address. 48 bytes.",
          "blsPublicKey": "The BLS public key that the validator is using for consensus, should pass  proof of possession. 96 bytes.",
          "ecdsaPublicKey": "The ECDSA public key that the validator is using for consensus, should  match the validator signer. 64 bytes."
        },
        "return": "True upon success."
      },
      "registerValidatorGroup(uint256)": {
        "details": "Fails if the account is already a validator or validator group.Fails if the account does not have sufficient weight.",
        "params": {
          "commission": "Fixidity representation of the commission this group receives on epoch  payments made to its members."
        },
        "return": "True upon success."
      },
      "removeMember(address)": {
        "details": "Fails if `validator` is not a member of the account's group.",
        "params": {
          "validator": "The validator to remove from the group"
        },
        "return": "True upon success."
      },
      "renounceOwnership()": {
        "details": "Leaves the contract without owner. It will not be possible to call `onlyOwner` functions anymore. Can only be called by the current owner.     * NOTE: Renouncing ownership will leave the contract without an owner, thereby removing any functionality that is only available to the owner."
      },
      "reorderMember(address,address,address)": {
        "details": "Fails if `validator` is not a member of the account's validator group.",
        "params": {
          "greaterMember": "The member who will be ahead of `validator`, or 0 if `validator` will be  the first member.",
          "lesserMember": "The member who will be behind `validator`, or 0 if `validator` will be the  last member.",
          "validator": "The validator to reorder."
        },
        "return": "True upon success."
      },
      "setCommissionUpdateDelay(uint256)": {
        "params": {
          "delay": "Number of block to delay the update"
        }
      },
      "setGroupLockedGoldRequirements(uint256,uint256)": {
        "params": {
          "duration": "The time (in seconds) that these requirements persist for.",
          "value": "The per-member amount of Locked Gold required."
        },
        "return": "True upon success."
      },
      "setMaxGroupSize(uint256)": {
        "params": {
          "size": "The maximum group size."
        },
        "return": "True upon success."
      },
      "setMembershipHistoryLength(uint256)": {
        "params": {
          "length": "The number of validator group membership entries to store."
        },
        "return": "True upon success."
      },
      "setNextCommissionUpdate(uint256)": {
        "params": {
          "commission": "Fixidity representation of the commission this group receives on epoch  payments made to its members. Must be in the range [0, 1.0]."
        }
      },
      "setRegistry(address)": {
        "params": {
          "registryAddress": "The address of a registry contract for routing to other contracts."
        }
      },
      "setSlashingMultiplierResetPeriod(uint256)": {
        "params": {
          "value": "New reset period for slashing multiplier."
        }
      },
      "setValidatorLockedGoldRequirements(uint256,uint256)": {
        "params": {
          "duration": "The time (in seconds) that these requirements persist for.",
          "value": "The amount of Locked Gold required."
        },
        "return": "True upon success."
      },
      "setValidatorScoreParameters(uint256,uint256)": {
        "params": {
          "adjustmentSpeed": "The speed at which the score is adjusted.",
          "exponent": "The exponent used in calculating the score."
        },
        "return": "True upon success."
      },
      "transferOwnership(address)": {
        "details": "Transfers ownership of the contract to a new account (`newOwner`). Can only be called by the current owner."
      },
      "updateBlsPublicKey(bytes,bytes)": {
        "params": {
          "blsPop": "The BLS public key proof-of-possession, which consists of a signature on the  account address. 48 bytes.",
          "blsPublicKey": "The BLS public key that the validator is using for consensus, should pass  proof of possession. 48 bytes."
        },
        "return": "True upon success."
      },
      "updateEcdsaPublicKey(address,address,bytes)": {
        "params": {
          "account": "The address under which the validator is registered.",
          "ecdsaPublicKey": "The ECDSA public key corresponding to `signer`.",
          "signer": "The address which the validator is using to sign consensus messages."
        },
        "return": "True upon success."
      },
      "updatePublicKeys(address,address,bytes,bytes,bytes)": {
        "params": {
          "account": "The address under which the validator is registered.",
          "blsPop": "The BLS public key proof-of-possession, which consists of a signature on the  account address. 48 bytes.",
          "blsPublicKey": "The BLS public key that the validator is using for consensus, should pass  proof of possession. 96 bytes.",
          "ecdsaPublicKey": "The ECDSA public key corresponding to `signer`.",
          "signer": "The address which the validator is using to sign consensus messages."
        },
        "return": "True upon success."
      },
      "validatorSignerAddressFromCurrentSet(uint256)": {
        "params": {
          "index": "Index of requested validator in the validator set."
        },
        "return": "Address of validator at the requested index."
      },
      "validatorSignerAddressFromSet(uint256,uint256)": {
        "params": {
          "blockNumber": "Block number to retrieve the validator set from.",
          "index": "Index of requested validator in the validator set."
        },
        "return": "Address of validator at the requested index."
      }
    },
    "title": "A wrapper around Validators that exposes onlyVm functions for testing."
  },
  "userdoc": {
    "methods": {
      "addFirstMember(address,address,address)": {
        "notice": "Adds the first member to a group's list of members and marks it eligible for election."
      },
      "addMember(address)": {
        "notice": "Adds a member to the end of a validator group's list of members."
      },
      "affiliate(address)": {
        "notice": "Affiliates a validator with a group, allowing it to be added as a member."
      },
      "calculateEpochScore(uint256)": {
        "notice": "Calculates the validator score for an epoch from the uptime value for the epoch."
      },
      "calculateGroupEpochScore(uint256[])": {
        "notice": "Calculates the aggregate score of a group for an epoch from individual uptimes."
      },
      "checkProofOfPossession(address,bytes,bytes)": {
        "notice": "Checks a BLS proof of possession."
      },
      "deaffiliate()": {
        "notice": "De-affiliates a validator, removing it from the group for which it is a member."
      },
      "deregisterValidator(uint256)": {
        "notice": "De-registers a validator."
      },
      "deregisterValidatorGroup(uint256)": {
        "notice": "De-registers a validator group."
      },
      "forceDeaffiliateIfValidator(address)": {
        "notice": "Removes a validator from the group for which it is a member."
      },
      "fractionMulExp(uint256,uint256,uint256,uint256,uint256,uint256)": {
        "notice": "calculate a * b^x for fractions a, b to `decimals` precision"
      },
      "getAccountLockedGoldRequirement(address)": {
        "notice": "Returns the current locked gold balance requirement for the supplied account."
      },
      "getBlockNumberFromHeader(bytes)": {
        "notice": "Parses block number out of header."
      },
      "getCommissionUpdateDelay()": {
        "notice": "Returns the block delay for a ValidatorGroup's commission udpdate."
      },
      "getEpochNumber()": {
        "notice": "Returns the epoch number at a block."
      },
      "getEpochNumberOfBlock(uint256)": {
        "notice": "Returns the epoch number at a block."
      },
      "getEpochSize()": {
        "notice": "Returns the current epoch size in blocks."
      },
      "getGroupLockedGoldRequirements()": {
        "notice": "Returns the Locked Gold requirements for validator groups."
      },
      "getGroupNumMembers(address)": {
        "notice": "Returns the number of members in a validator group."
      },
      "getGroupsNumMembers(address[])": {
        "notice": "Returns the number of members in the provided validator groups."
      },
      "getMaxGroupSize()": {
        "notice": "Returns the maximum number of members a group can add."
      },
      "getMembershipHistory(address)": {
        "notice": "Returns the group membership history of a validator."
      },
      "getMembershipInLastEpoch(address)": {
        "notice": "Returns the group that `account` was a member of at the end of the last epoch."
      },
      "getMembershipInLastEpochFromSigner(address)": {
        "notice": "Returns the group that `account` was a member of at the end of the last epoch."
      },
      "getNumRegisteredValidators()": {
        "notice": "Returns the number of registered validators."
      },
      "getParentSealBitmap(uint256)": {
        "notice": "Gets the parent seal bitmap from the header at the given block number."
      },
      "getRegisteredValidatorGroups()": {
        "notice": "Returns the list of registered validator group accounts."
      },
      "getRegisteredValidatorSigners()": {
        "notice": "Returns the list of signers for the registered validator accounts."
      },
      "getRegisteredValidators()": {
        "notice": "Returns the list of registered validator accounts."
      },
      "getTopGroupValidators(address,uint256)": {
        "notice": "Returns the top n group members for a particular group."
      },
      "getValidator(address)": {
        "notice": "Returns validator information."
      },
      "getValidatorBlsPublicKeyFromSigner(address)": {
        "notice": "Returns the validator BLS key."
      },
      "getValidatorGroup(address)": {
        "notice": "Returns validator group information."
      },
      "getValidatorGroupSlashingMultiplier(address)": {
        "notice": "Getter for a group's slashing multiplier."
      },
      "getValidatorLockedGoldRequirements()": {
        "notice": "Returns the Locked Gold requirements for validators."
      },
      "getValidatorScoreParameters()": {
        "notice": "Returns the parameters that govern how a validator's score is calculated."
      },
      "getVerifiedSealBitmapFromHeader(bytes)": {
        "notice": "Verifies the BLS signature on the header and returns the seal bitmap. The validator set used for verification is retrieved based on the parent hash field of the header.  If the parent hash is not in the blockchain, verification fails."
      },
      "groupMembershipInEpoch(address,uint256,uint256)": {
        "notice": "Returns the group that `account` was a member of during `epochNumber`."
      },
      "halveSlashingMultiplier(address)": {
        "notice": "Halves the group's slashing multiplier."
      },
      "hashHeader(bytes)": {
        "notice": "Computes hash of header."
      },
      "initialize(address,uint256,uint256,uint256,uint256,uint256,uint256,uint256,uint256,uint256,uint256)": {
        "notice": "Used in place of the constructor to allow the contract to be upgradable via proxy."
      },
      "isValidator(address)": {
        "notice": "Returns whether a particular account has a registered validator."
      },
      "isValidatorGroup(address)": {
        "notice": "Returns whether a particular account has a registered validator group."
      },
      "meetsAccountLockedGoldRequirements(address)": {
        "notice": "Returns whether or not an account meets its Locked Gold requirements."
      },
      "minQuorumSize(uint256)": {
        "notice": "Returns the minimum number of required signers for a given block number."
      },
      "minQuorumSizeInCurrentSet()": {
        "notice": "Computes byzantine quorum from current validator set size"
      },
      "numberValidatorsInCurrentSet()": {
        "notice": "Gets the size of the current elected validator set."
      },
      "numberValidatorsInSet(uint256)": {
        "notice": "Gets the size of the validator set that must sign the given block number."
      },
      "registerValidator(bytes,bytes,bytes)": {
        "notice": "Registers a validator unaffiliated with any validator group."
      },
      "registerValidatorGroup(uint256)": {
        "notice": "Registers a validator group with no member validators."
      },
      "removeMember(address)": {
        "notice": "Removes a member from a validator group."
      },
      "reorderMember(address,address,address)": {
        "notice": "Reorders a member within a validator group."
      },
      "resetSlashingMultiplier()": {
        "notice": "Resets a group's slashing multiplier if it has been >= the reset period since        the last time the group was slashed."
      },
      "setCommissionUpdateDelay(uint256)": {
        "notice": "Updates the block delay for a ValidatorGroup's commission udpdate"
      },
      "setGroupLockedGoldRequirements(uint256,uint256)": {
        "notice": "Updates the Locked Gold requirements for Validator Groups."
      },
      "setMaxGroupSize(uint256)": {
        "notice": "Updates the maximum number of members a group can have."
      },
      "setMembershipHistoryLength(uint256)": {
        "notice": "Updates the number of validator group membership entries to store."
      },
      "setNextCommissionUpdate(uint256)": {
        "notice": "Queues an update to a validator group's commission. If there was a previously scheduled update, that is overwritten."
      },
      "setRegistry(address)": {
        "notice": "Updates the address pointing to a Registry contract."
      },
      "setSlashingMultiplierResetPeriod(uint256)": {
        "notice": "Sets the slashingMultiplierRestPeriod property if called by owner."
      },
      "setValidatorLockedGoldRequirements(uint256,uint256)": {
        "notice": "Updates the Locked Gold requirements for Validators."
      },
      "setValidatorScoreParameters(uint256,uint256)": {
        "notice": "Updates the validator score parameters."
      },
      "updateBlsPublicKey(bytes,bytes)": {
        "notice": "Updates a validator's BLS key."
      },
      "updateCommission()": {
        "notice": "Updates a validator group's commission based on the previously queued update"
      },
      "updateEcdsaPublicKey(address,address,bytes)": {
        "notice": "Updates a validator's ECDSA key."
      },
      "updatePublicKeys(address,address,bytes,bytes,bytes)": {
        "notice": "Updates a validator's ECDSA and BLS keys."
      },
      "validatorSignerAddressFromCurrentSet(uint256)": {
        "notice": "Gets a validator address from the current validator set."
      },
      "validatorSignerAddressFromSet(uint256,uint256)": {
        "notice": "Gets a validator address from the validator set at the given block number."
      }
    }
  }
}